{
	"ICO_Test.sol": {
		"ICO_Test": {
			"abi": [
				{
					"inputs": [],
					"stateMutability": "nonpayable",
					"type": "constructor"
				},
				{
					"inputs": [
						{
							"internalType": "address",
							"name": "sender",
							"type": "address"
						},
						{
							"internalType": "uint256",
							"name": "balance",
							"type": "uint256"
						},
						{
							"internalType": "uint256",
							"name": "needed",
							"type": "uint256"
						},
						{
							"internalType": "uint256",
							"name": "tokenId",
							"type": "uint256"
						}
					],
					"name": "ERC1155InsufficientBalance",
					"type": "error"
				},
				{
					"inputs": [
						{
							"internalType": "address",
							"name": "approver",
							"type": "address"
						}
					],
					"name": "ERC1155InvalidApprover",
					"type": "error"
				},
				{
					"inputs": [
						{
							"internalType": "uint256",
							"name": "idsLength",
							"type": "uint256"
						},
						{
							"internalType": "uint256",
							"name": "valuesLength",
							"type": "uint256"
						}
					],
					"name": "ERC1155InvalidArrayLength",
					"type": "error"
				},
				{
					"inputs": [
						{
							"internalType": "address",
							"name": "operator",
							"type": "address"
						}
					],
					"name": "ERC1155InvalidOperator",
					"type": "error"
				},
				{
					"inputs": [
						{
							"internalType": "address",
							"name": "receiver",
							"type": "address"
						}
					],
					"name": "ERC1155InvalidReceiver",
					"type": "error"
				},
				{
					"inputs": [
						{
							"internalType": "address",
							"name": "sender",
							"type": "address"
						}
					],
					"name": "ERC1155InvalidSender",
					"type": "error"
				},
				{
					"inputs": [
						{
							"internalType": "address",
							"name": "operator",
							"type": "address"
						},
						{
							"internalType": "address",
							"name": "owner",
							"type": "address"
						}
					],
					"name": "ERC1155MissingApprovalForAll",
					"type": "error"
				},
				{
					"anonymous": false,
					"inputs": [
						{
							"indexed": true,
							"internalType": "address",
							"name": "account",
							"type": "address"
						},
						{
							"indexed": true,
							"internalType": "address",
							"name": "operator",
							"type": "address"
						},
						{
							"indexed": false,
							"internalType": "bool",
							"name": "approved",
							"type": "bool"
						}
					],
					"name": "ApprovalForAll",
					"type": "event"
				},
				{
					"anonymous": false,
					"inputs": [
						{
							"indexed": true,
							"internalType": "address",
							"name": "operator",
							"type": "address"
						},
						{
							"indexed": true,
							"internalType": "address",
							"name": "from",
							"type": "address"
						},
						{
							"indexed": true,
							"internalType": "address",
							"name": "to",
							"type": "address"
						},
						{
							"indexed": false,
							"internalType": "uint256[]",
							"name": "ids",
							"type": "uint256[]"
						},
						{
							"indexed": false,
							"internalType": "uint256[]",
							"name": "values",
							"type": "uint256[]"
						}
					],
					"name": "TransferBatch",
					"type": "event"
				},
				{
					"anonymous": false,
					"inputs": [
						{
							"indexed": true,
							"internalType": "address",
							"name": "operator",
							"type": "address"
						},
						{
							"indexed": true,
							"internalType": "address",
							"name": "from",
							"type": "address"
						},
						{
							"indexed": true,
							"internalType": "address",
							"name": "to",
							"type": "address"
						},
						{
							"indexed": false,
							"internalType": "uint256",
							"name": "id",
							"type": "uint256"
						},
						{
							"indexed": false,
							"internalType": "uint256",
							"name": "value",
							"type": "uint256"
						}
					],
					"name": "TransferSingle",
					"type": "event"
				},
				{
					"anonymous": false,
					"inputs": [
						{
							"indexed": false,
							"internalType": "string",
							"name": "value",
							"type": "string"
						},
						{
							"indexed": true,
							"internalType": "uint256",
							"name": "id",
							"type": "uint256"
						}
					],
					"name": "URI",
					"type": "event"
				},
				{
					"inputs": [
						{
							"internalType": "address",
							"name": "account",
							"type": "address"
						},
						{
							"internalType": "uint256",
							"name": "id",
							"type": "uint256"
						}
					],
					"name": "balanceOf",
					"outputs": [
						{
							"internalType": "uint256",
							"name": "",
							"type": "uint256"
						}
					],
					"stateMutability": "view",
					"type": "function"
				},
				{
					"inputs": [
						{
							"internalType": "address[]",
							"name": "accounts",
							"type": "address[]"
						},
						{
							"internalType": "uint256[]",
							"name": "ids",
							"type": "uint256[]"
						}
					],
					"name": "balanceOfBatch",
					"outputs": [
						{
							"internalType": "uint256[]",
							"name": "",
							"type": "uint256[]"
						}
					],
					"stateMutability": "view",
					"type": "function"
				},
				{
					"inputs": [
						{
							"internalType": "uint256",
							"name": "_tokenId",
							"type": "uint256"
						},
						{
							"internalType": "uint256",
							"name": "_amount",
							"type": "uint256"
						}
					],
					"name": "buyToken",
					"outputs": [],
					"stateMutability": "payable",
					"type": "function"
				},
				{
					"inputs": [],
					"name": "doublePrice",
					"outputs": [],
					"stateMutability": "nonpayable",
					"type": "function"
				},
				{
					"inputs": [],
					"name": "getMintedAmount",
					"outputs": [],
					"stateMutability": "nonpayable",
					"type": "function"
				},
				{
					"inputs": [],
					"name": "giveTokens",
					"outputs": [],
					"stateMutability": "nonpayable",
					"type": "function"
				},
				{
					"inputs": [
						{
							"internalType": "address",
							"name": "account",
							"type": "address"
						},
						{
							"internalType": "address",
							"name": "operator",
							"type": "address"
						}
					],
					"name": "isApprovedForAll",
					"outputs": [
						{
							"internalType": "bool",
							"name": "",
							"type": "bool"
						}
					],
					"stateMutability": "view",
					"type": "function"
				},
				{
					"inputs": [
						{
							"internalType": "address",
							"name": "from",
							"type": "address"
						},
						{
							"internalType": "address",
							"name": "to",
							"type": "address"
						},
						{
							"internalType": "uint256[]",
							"name": "ids",
							"type": "uint256[]"
						},
						{
							"internalType": "uint256[]",
							"name": "values",
							"type": "uint256[]"
						},
						{
							"internalType": "bytes",
							"name": "data",
							"type": "bytes"
						}
					],
					"name": "safeBatchTransferFrom",
					"outputs": [],
					"stateMutability": "nonpayable",
					"type": "function"
				},
				{
					"inputs": [
						{
							"internalType": "address",
							"name": "from",
							"type": "address"
						},
						{
							"internalType": "address",
							"name": "to",
							"type": "address"
						},
						{
							"internalType": "uint256",
							"name": "id",
							"type": "uint256"
						},
						{
							"internalType": "uint256",
							"name": "value",
							"type": "uint256"
						},
						{
							"internalType": "bytes",
							"name": "data",
							"type": "bytes"
						}
					],
					"name": "safeTransferFrom",
					"outputs": [],
					"stateMutability": "nonpayable",
					"type": "function"
				},
				{
					"inputs": [
						{
							"internalType": "address",
							"name": "operator",
							"type": "address"
						},
						{
							"internalType": "bool",
							"name": "approved",
							"type": "bool"
						}
					],
					"name": "setApprovalForAll",
					"outputs": [],
					"stateMutability": "nonpayable",
					"type": "function"
				},
				{
					"inputs": [
						{
							"internalType": "bytes4",
							"name": "interfaceId",
							"type": "bytes4"
						}
					],
					"name": "supportsInterface",
					"outputs": [
						{
							"internalType": "bool",
							"name": "",
							"type": "bool"
						}
					],
					"stateMutability": "view",
					"type": "function"
				},
				{
					"inputs": [
						{
							"internalType": "uint256",
							"name": "",
							"type": "uint256"
						}
					],
					"name": "uri",
					"outputs": [
						{
							"internalType": "string",
							"name": "",
							"type": "string"
						}
					],
					"stateMutability": "view",
					"type": "function"
				},
				{
					"inputs": [
						{
							"internalType": "uint256",
							"name": "_amount",
							"type": "uint256"
						}
					],
					"name": "withdraw",
					"outputs": [],
					"stateMutability": "nonpayable",
					"type": "function"
				}
			],
			"devdoc": {
				"errors": {
					"ERC1155InsufficientBalance(address,uint256,uint256,uint256)": [
						{
							"details": "Indicates an error related to the current `balance` of a `sender`. Used in transfers.",
							"params": {
								"balance": "Current balance for the interacting account.",
								"needed": "Minimum amount required to perform a transfer.",
								"sender": "Address whose tokens are being transferred.",
								"tokenId": "Identifier number of a token."
							}
						}
					],
					"ERC1155InvalidApprover(address)": [
						{
							"details": "Indicates a failure with the `approver` of a token to be approved. Used in approvals.",
							"params": {
								"approver": "Address initiating an approval operation."
							}
						}
					],
					"ERC1155InvalidArrayLength(uint256,uint256)": [
						{
							"details": "Indicates an array length mismatch between ids and values in a safeBatchTransferFrom operation. Used in batch transfers.",
							"params": {
								"idsLength": "Length of the array of token identifiers",
								"valuesLength": "Length of the array of token amounts"
							}
						}
					],
					"ERC1155InvalidOperator(address)": [
						{
							"details": "Indicates a failure with the `operator` to be approved. Used in approvals.",
							"params": {
								"operator": "Address that may be allowed to operate on tokens without being their owner."
							}
						}
					],
					"ERC1155InvalidReceiver(address)": [
						{
							"details": "Indicates a failure with the token `receiver`. Used in transfers.",
							"params": {
								"receiver": "Address to which tokens are being transferred."
							}
						}
					],
					"ERC1155InvalidSender(address)": [
						{
							"details": "Indicates a failure with the token `sender`. Used in transfers.",
							"params": {
								"sender": "Address whose tokens are being transferred."
							}
						}
					],
					"ERC1155MissingApprovalForAll(address,address)": [
						{
							"details": "Indicates a failure with the `operator`’s approval. Used in transfers.",
							"params": {
								"operator": "Address that may be allowed to operate on tokens without being their owner.",
								"owner": "Address of the current owner of a token."
							}
						}
					]
				},
				"events": {
					"ApprovalForAll(address,address,bool)": {
						"details": "Emitted when `account` grants or revokes permission to `operator` to transfer their tokens, according to `approved`."
					},
					"TransferBatch(address,address,address,uint256[],uint256[])": {
						"details": "Equivalent to multiple {TransferSingle} events, where `operator`, `from` and `to` are the same for all transfers."
					},
					"TransferSingle(address,address,address,uint256,uint256)": {
						"details": "Emitted when `value` amount of tokens of type `id` are transferred from `from` to `to` by `operator`."
					},
					"URI(string,uint256)": {
						"details": "Emitted when the URI for token type `id` changes to `value`, if it is a non-programmatic URI. If an {URI} event was emitted for `id`, the standard https://eips.ethereum.org/EIPS/eip-1155#metadata-extensions[guarantees] that `value` will equal the value returned by {IERC1155MetadataURI-uri}."
					}
				},
				"kind": "dev",
				"methods": {
					"balanceOf(address,uint256)": {
						"details": "See {IERC1155-balanceOf}."
					},
					"balanceOfBatch(address[],uint256[])": {
						"details": "See {IERC1155-balanceOfBatch}. Requirements: - `accounts` and `ids` must have the same length."
					},
					"isApprovedForAll(address,address)": {
						"details": "See {IERC1155-isApprovedForAll}."
					},
					"safeBatchTransferFrom(address,address,uint256[],uint256[],bytes)": {
						"details": "See {IERC1155-safeBatchTransferFrom}."
					},
					"safeTransferFrom(address,address,uint256,uint256,bytes)": {
						"details": "See {IERC1155-safeTransferFrom}."
					},
					"setApprovalForAll(address,bool)": {
						"details": "See {IERC1155-setApprovalForAll}."
					},
					"supportsInterface(bytes4)": {
						"details": "See {IERC165-supportsInterface}."
					},
					"uri(uint256)": {
						"details": "See {IERC1155MetadataURI-uri}. This implementation returns the same URI for *all* token types. It relies on the token type ID substitution mechanism https://eips.ethereum.org/EIPS/eip-1155#metadata[defined in the EIP]. Clients calling this function must replace the `\\{id\\}` substring with the actual token type ID."
					}
				},
				"version": 1
			},
			"evm": {
				"assembly": "    /* \"ICO_Test.sol\":119:1605  contract ICO_Test is ERC1155{... */\n  mstore(0x40, 0x80)\n    /* \"ICO_Test.sol\":229:366  uint[4] tokenPrice = [... */\n  mload(0x40)\n  dup1\n  0x80\n  add\n  0x40\n  mstore\n  dup1\n    /* \"ICO_Test.sol\":260:277  10000000000000000 */\n  0x2386f26fc10000\n    /* \"ICO_Test.sol\":229:366  uint[4] tokenPrice = [... */\n  0xffffffffffffffff\n  and\n  dup2\n  mstore\n  0x20\n  add\n    /* \"ICO_Test.sol\":287:304  50000000000000000 */\n  0xb1a2bc2ec50000\n    /* \"ICO_Test.sol\":229:366  uint[4] tokenPrice = [... */\n  0xffffffffffffffff\n  and\n  dup2\n  mstore\n  0x20\n  add\n    /* \"ICO_Test.sol\":314:332  100000000000000000 */\n  0x016345785d8a0000\n    /* \"ICO_Test.sol\":229:366  uint[4] tokenPrice = [... */\n  0xffffffffffffffff\n  and\n  dup2\n  mstore\n  0x20\n  add\n    /* \"ICO_Test.sol\":342:360  200000000000000000 */\n  0x02c68af0bb140000\n    /* \"ICO_Test.sol\":229:366  uint[4] tokenPrice = [... */\n  0xffffffffffffffff\n  and\n  dup2\n  mstore\n  pop\n  0x03\n  swap1\n  0x04\n  tag_1\n  swap3\n  swap2\n  swap1\n  tag_2\n  jump\t// in\ntag_1:\n  pop\n    /* \"ICO_Test.sol\":411:471  constructor() ERC1155(\"\"){... */\n  callvalue\n  dup1\n  iszero\n  tag_3\n  jumpi\n  0x00\n  dup1\n  revert\ntag_3:\n  pop\n    /* \"@openzeppelin/contracts/token/ERC1155/ERC1155.sol\":1251:1313  constructor(string memory uri_) {... */\n  mload(0x40)\n  dup1\n  0x20\n  add\n  0x40\n  mstore\n  dup1\n  0x00\n  dup2\n  mstore\n  pop\n    /* \"@openzeppelin/contracts/token/ERC1155/ERC1155.sol\":1293:1306  _setURI(uri_) */\n  tag_7\n    /* \"@openzeppelin/contracts/token/ERC1155/ERC1155.sol\":1301:1305  uri_ */\n  dup2\n    /* \"@openzeppelin/contracts/token/ERC1155/ERC1155.sol\":1293:1300  _setURI */\n  shl(0x20, tag_8)\n    /* \"@openzeppelin/contracts/token/ERC1155/ERC1155.sol\":1293:1306  _setURI(uri_) */\n  0x20\n  shr\n  jump\t// in\ntag_7:\n    /* \"@openzeppelin/contracts/token/ERC1155/ERC1155.sol\":1251:1313  constructor(string memory uri_) {... */\n  pop\n    /* \"ICO_Test.sol\":454:464  msg.sender */\n  caller\n    /* \"ICO_Test.sol\":446:451  owner */\n  0x07\n  0x00\n    /* \"ICO_Test.sol\":446:464  owner = msg.sender */\n  0x0100\n  exp\n  dup2\n  sload\n  dup2\n  0xffffffffffffffffffffffffffffffffffffffff\n  mul\n  not\n  and\n  swap1\n  dup4\n  0xffffffffffffffffffffffffffffffffffffffff\n  and\n  mul\n  or\n  swap1\n  sstore\n  pop\n    /* \"ICO_Test.sol\":119:1605  contract ICO_Test is ERC1155{... */\n  jump(tag_10)\n    /* \"@openzeppelin/contracts/token/ERC1155/ERC1155.sol\":10282:10368  function _setURI(string memory newuri) internal virtual {... */\ntag_8:\n    /* \"@openzeppelin/contracts/token/ERC1155/ERC1155.sol\":10355:10361  newuri */\n  dup1\n    /* \"@openzeppelin/contracts/token/ERC1155/ERC1155.sol\":10348:10352  _uri */\n  0x02\n    /* \"@openzeppelin/contracts/token/ERC1155/ERC1155.sol\":10348:10361  _uri = newuri */\n  swap1\n  dup2\n  tag_12\n  swap2\n  swap1\n  tag_13\n  jump\t// in\ntag_12:\n  pop\n    /* \"@openzeppelin/contracts/token/ERC1155/ERC1155.sol\":10282:10368  function _setURI(string memory newuri) internal virtual {... */\n  pop\n  jump\t// out\n    /* \"ICO_Test.sol\":119:1605  contract ICO_Test is ERC1155{... */\ntag_2:\n  dup3\n  0x04\n  dup2\n  add\n  swap3\n  dup3\n  iszero\n  tag_14\n  jumpi\n  swap2\n  0x20\n  mul\n  dup3\n  add\ntag_15:\n  dup3\n  dup2\n  gt\n  iszero\n  tag_16\n  jumpi\n  dup3\n  mload\n  dup3\n  swap1\n  0xffffffffffffffff\n  and\n  swap1\n  sstore\n  swap2\n  0x20\n  add\n  swap2\n  swap1\n  0x01\n  add\n  swap1\n  jump(tag_15)\ntag_16:\ntag_14:\n  pop\n  swap1\n  pop\n  tag_17\n  swap2\n  swap1\n  tag_18\n  jump\t// in\ntag_17:\n  pop\n  swap1\n  jump\t// out\ntag_18:\ntag_19:\n  dup1\n  dup3\n  gt\n  iszero\n  tag_20\n  jumpi\n  0x00\n  dup2\n  0x00\n  swap1\n  sstore\n  pop\n  0x01\n  add\n  jump(tag_19)\ntag_20:\n  pop\n  swap1\n  jump\t// out\n    /* \"#utility.yul\":7:106   */\ntag_21:\n    /* \"#utility.yul\":59:65   */\n  0x00\n    /* \"#utility.yul\":93:98   */\n  dup2\n    /* \"#utility.yul\":87:99   */\n  mload\n    /* \"#utility.yul\":77:99   */\n  swap1\n  pop\n    /* \"#utility.yul\":7:106   */\n  swap2\n  swap1\n  pop\n  jump\t// out\n    /* \"#utility.yul\":112:292   */\ntag_22:\n    /* \"#utility.yul\":160:237   */\n  0x4e487b7100000000000000000000000000000000000000000000000000000000\n    /* \"#utility.yul\":157:158   */\n  0x00\n    /* \"#utility.yul\":150:238   */\n  mstore\n    /* \"#utility.yul\":257:261   */\n  0x41\n    /* \"#utility.yul\":254:255   */\n  0x04\n    /* \"#utility.yul\":247:262   */\n  mstore\n    /* \"#utility.yul\":281:285   */\n  0x24\n    /* \"#utility.yul\":278:279   */\n  0x00\n    /* \"#utility.yul\":271:286   */\n  revert\n    /* \"#utility.yul\":298:478   */\ntag_23:\n    /* \"#utility.yul\":346:423   */\n  0x4e487b7100000000000000000000000000000000000000000000000000000000\n    /* \"#utility.yul\":343:344   */\n  0x00\n    /* \"#utility.yul\":336:424   */\n  mstore\n    /* \"#utility.yul\":443:447   */\n  0x22\n    /* \"#utility.yul\":440:441   */\n  0x04\n    /* \"#utility.yul\":433:448   */\n  mstore\n    /* \"#utility.yul\":467:471   */\n  0x24\n    /* \"#utility.yul\":464:465   */\n  0x00\n    /* \"#utility.yul\":457:472   */\n  revert\n    /* \"#utility.yul\":484:804   */\ntag_24:\n    /* \"#utility.yul\":528:534   */\n  0x00\n    /* \"#utility.yul\":565:566   */\n  0x02\n    /* \"#utility.yul\":559:563   */\n  dup3\n    /* \"#utility.yul\":555:567   */\n  div\n    /* \"#utility.yul\":545:567   */\n  swap1\n  pop\n    /* \"#utility.yul\":612:613   */\n  0x01\n    /* \"#utility.yul\":606:610   */\n  dup3\n    /* \"#utility.yul\":602:614   */\n  and\n    /* \"#utility.yul\":633:651   */\n  dup1\n    /* \"#utility.yul\":623:704   */\n  tag_46\n  jumpi\n    /* \"#utility.yul\":689:693   */\n  0x7f\n    /* \"#utility.yul\":681:687   */\n  dup3\n    /* \"#utility.yul\":677:694   */\n  and\n    /* \"#utility.yul\":667:694   */\n  swap2\n  pop\n    /* \"#utility.yul\":623:704   */\ntag_46:\n    /* \"#utility.yul\":751:753   */\n  0x20\n    /* \"#utility.yul\":743:749   */\n  dup3\n    /* \"#utility.yul\":740:754   */\n  lt\n    /* \"#utility.yul\":720:738   */\n  dup2\n    /* \"#utility.yul\":717:755   */\n  sub\n    /* \"#utility.yul\":714:798   */\n  tag_47\n  jumpi\n    /* \"#utility.yul\":770:788   */\n  tag_48\n  tag_23\n  jump\t// in\ntag_48:\n    /* \"#utility.yul\":714:798   */\ntag_47:\n    /* \"#utility.yul\":535:804   */\n  pop\n    /* \"#utility.yul\":484:804   */\n  swap2\n  swap1\n  pop\n  jump\t// out\n    /* \"#utility.yul\":810:951   */\ntag_25:\n    /* \"#utility.yul\":859:863   */\n  0x00\n    /* \"#utility.yul\":882:885   */\n  dup2\n    /* \"#utility.yul\":874:885   */\n  swap1\n  pop\n    /* \"#utility.yul\":905:908   */\n  dup2\n    /* \"#utility.yul\":902:903   */\n  0x00\n    /* \"#utility.yul\":895:909   */\n  mstore\n    /* \"#utility.yul\":939:943   */\n  0x20\n    /* \"#utility.yul\":936:937   */\n  0x00\n    /* \"#utility.yul\":926:944   */\n  keccak256\n    /* \"#utility.yul\":918:944   */\n  swap1\n  pop\n    /* \"#utility.yul\":810:951   */\n  swap2\n  swap1\n  pop\n  jump\t// out\n    /* \"#utility.yul\":957:1050   */\ntag_26:\n    /* \"#utility.yul\":994:1000   */\n  0x00\n    /* \"#utility.yul\":1041:1043   */\n  0x20\n    /* \"#utility.yul\":1036:1038   */\n  0x1f\n    /* \"#utility.yul\":1029:1034   */\n  dup4\n    /* \"#utility.yul\":1025:1039   */\n  add\n    /* \"#utility.yul\":1021:1044   */\n  div\n    /* \"#utility.yul\":1011:1044   */\n  swap1\n  pop\n    /* \"#utility.yul\":957:1050   */\n  swap2\n  swap1\n  pop\n  jump\t// out\n    /* \"#utility.yul\":1056:1163   */\ntag_27:\n    /* \"#utility.yul\":1100:1108   */\n  0x00\n    /* \"#utility.yul\":1150:1155   */\n  dup3\n    /* \"#utility.yul\":1144:1148   */\n  dup3\n    /* \"#utility.yul\":1140:1156   */\n  shl\n    /* \"#utility.yul\":1119:1156   */\n  swap1\n  pop\n    /* \"#utility.yul\":1056:1163   */\n  swap3\n  swap2\n  pop\n  pop\n  jump\t// out\n    /* \"#utility.yul\":1169:1562   */\ntag_28:\n    /* \"#utility.yul\":1238:1244   */\n  0x00\n    /* \"#utility.yul\":1288:1289   */\n  0x08\n    /* \"#utility.yul\":1276:1286   */\n  dup4\n    /* \"#utility.yul\":1272:1290   */\n  mul\n    /* \"#utility.yul\":1311:1408   */\n  tag_53\n    /* \"#utility.yul\":1341:1407   */\n  0xffffffffffffffffffffffffffffffffffffffffffffffffffffffffffffffff\n    /* \"#utility.yul\":1330:1339   */\n  dup3\n    /* \"#utility.yul\":1311:1408   */\n  tag_27\n  jump\t// in\ntag_53:\n    /* \"#utility.yul\":1429:1468   */\n  tag_54\n    /* \"#utility.yul\":1459:1467   */\n  dup7\n    /* \"#utility.yul\":1448:1457   */\n  dup4\n    /* \"#utility.yul\":1429:1468   */\n  tag_27\n  jump\t// in\ntag_54:\n    /* \"#utility.yul\":1417:1468   */\n  swap6\n  pop\n    /* \"#utility.yul\":1501:1505   */\n  dup1\n    /* \"#utility.yul\":1497:1506   */\n  not\n    /* \"#utility.yul\":1490:1495   */\n  dup5\n    /* \"#utility.yul\":1486:1507   */\n  and\n    /* \"#utility.yul\":1477:1507   */\n  swap4\n  pop\n    /* \"#utility.yul\":1550:1554   */\n  dup1\n    /* \"#utility.yul\":1540:1548   */\n  dup7\n    /* \"#utility.yul\":1536:1555   */\n  and\n    /* \"#utility.yul\":1529:1534   */\n  dup5\n    /* \"#utility.yul\":1526:1556   */\n  or\n    /* \"#utility.yul\":1516:1556   */\n  swap3\n  pop\n    /* \"#utility.yul\":1245:1562   */\n  pop\n  pop\n    /* \"#utility.yul\":1169:1562   */\n  swap4\n  swap3\n  pop\n  pop\n  pop\n  jump\t// out\n    /* \"#utility.yul\":1568:1645   */\ntag_29:\n    /* \"#utility.yul\":1605:1612   */\n  0x00\n    /* \"#utility.yul\":1634:1639   */\n  dup2\n    /* \"#utility.yul\":1623:1639   */\n  swap1\n  pop\n    /* \"#utility.yul\":1568:1645   */\n  swap2\n  swap1\n  pop\n  jump\t// out\n    /* \"#utility.yul\":1651:1711   */\ntag_30:\n    /* \"#utility.yul\":1679:1682   */\n  0x00\n    /* \"#utility.yul\":1700:1705   */\n  dup2\n    /* \"#utility.yul\":1693:1705   */\n  swap1\n  pop\n    /* \"#utility.yul\":1651:1711   */\n  swap2\n  swap1\n  pop\n  jump\t// out\n    /* \"#utility.yul\":1717:1859   */\ntag_31:\n    /* \"#utility.yul\":1767:1776   */\n  0x00\n    /* \"#utility.yul\":1800:1853   */\n  tag_58\n    /* \"#utility.yul\":1818:1852   */\n  tag_59\n    /* \"#utility.yul\":1827:1851   */\n  tag_60\n    /* \"#utility.yul\":1845:1850   */\n  dup5\n    /* \"#utility.yul\":1827:1851   */\n  tag_29\n  jump\t// in\ntag_60:\n    /* \"#utility.yul\":1818:1852   */\n  tag_30\n  jump\t// in\ntag_59:\n    /* \"#utility.yul\":1800:1853   */\n  tag_29\n  jump\t// in\ntag_58:\n    /* \"#utility.yul\":1787:1853   */\n  swap1\n  pop\n    /* \"#utility.yul\":1717:1859   */\n  swap2\n  swap1\n  pop\n  jump\t// out\n    /* \"#utility.yul\":1865:1940   */\ntag_32:\n    /* \"#utility.yul\":1908:1911   */\n  0x00\n    /* \"#utility.yul\":1929:1934   */\n  dup2\n    /* \"#utility.yul\":1922:1934   */\n  swap1\n  pop\n    /* \"#utility.yul\":1865:1940   */\n  swap2\n  swap1\n  pop\n  jump\t// out\n    /* \"#utility.yul\":1946:2215   */\ntag_33:\n    /* \"#utility.yul\":2056:2095   */\n  tag_63\n    /* \"#utility.yul\":2087:2094   */\n  dup4\n    /* \"#utility.yul\":2056:2095   */\n  tag_31\n  jump\t// in\ntag_63:\n    /* \"#utility.yul\":2117:2208   */\n  tag_64\n    /* \"#utility.yul\":2166:2207   */\n  tag_65\n    /* \"#utility.yul\":2190:2206   */\n  dup3\n    /* \"#utility.yul\":2166:2207   */\n  tag_32\n  jump\t// in\ntag_65:\n    /* \"#utility.yul\":2158:2164   */\n  dup5\n    /* \"#utility.yul\":2151:2155   */\n  dup5\n    /* \"#utility.yul\":2145:2156   */\n  sload\n    /* \"#utility.yul\":2117:2208   */\n  tag_28\n  jump\t// in\ntag_64:\n    /* \"#utility.yul\":2111:2115   */\n  dup3\n    /* \"#utility.yul\":2104:2209   */\n  sstore\n    /* \"#utility.yul\":2022:2215   */\n  pop\n    /* \"#utility.yul\":1946:2215   */\n  pop\n  pop\n  pop\n  jump\t// out\n    /* \"#utility.yul\":2221:2294   */\ntag_34:\n    /* \"#utility.yul\":2266:2269   */\n  0x00\n    /* \"#utility.yul\":2221:2294   */\n  swap1\n  jump\t// out\n    /* \"#utility.yul\":2300:2489   */\ntag_35:\n    /* \"#utility.yul\":2377:2409   */\n  tag_68\n  tag_34\n  jump\t// in\ntag_68:\n    /* \"#utility.yul\":2418:2483   */\n  tag_69\n    /* \"#utility.yul\":2476:2482   */\n  dup2\n    /* \"#utility.yul\":2468:2474   */\n  dup5\n    /* \"#utility.yul\":2462:2466   */\n  dup5\n    /* \"#utility.yul\":2418:2483   */\n  tag_33\n  jump\t// in\ntag_69:\n    /* \"#utility.yul\":2353:2489   */\n  pop\n    /* \"#utility.yul\":2300:2489   */\n  pop\n  pop\n  jump\t// out\n    /* \"#utility.yul\":2495:2681   */\ntag_36:\n    /* \"#utility.yul\":2555:2675   */\ntag_71:\n    /* \"#utility.yul\":2572:2575   */\n  dup2\n    /* \"#utility.yul\":2565:2570   */\n  dup2\n    /* \"#utility.yul\":2562:2576   */\n  lt\n    /* \"#utility.yul\":2555:2675   */\n  iszero\n  tag_73\n  jumpi\n    /* \"#utility.yul\":2626:2665   */\n  tag_74\n    /* \"#utility.yul\":2663:2664   */\n  0x00\n    /* \"#utility.yul\":2656:2661   */\n  dup3\n    /* \"#utility.yul\":2626:2665   */\n  tag_35\n  jump\t// in\ntag_74:\n    /* \"#utility.yul\":2599:2600   */\n  0x01\n    /* \"#utility.yul\":2592:2597   */\n  dup2\n    /* \"#utility.yul\":2588:2601   */\n  add\n    /* \"#utility.yul\":2579:2601   */\n  swap1\n  pop\n    /* \"#utility.yul\":2555:2675   */\n  jump(tag_71)\ntag_73:\n    /* \"#utility.yul\":2495:2681   */\n  pop\n  pop\n  jump\t// out\n    /* \"#utility.yul\":2687:3230   */\ntag_37:\n    /* \"#utility.yul\":2788:2790   */\n  0x1f\n    /* \"#utility.yul\":2783:2786   */\n  dup3\n    /* \"#utility.yul\":2780:2791   */\n  gt\n    /* \"#utility.yul\":2777:3223   */\n  iszero\n  tag_76\n  jumpi\n    /* \"#utility.yul\":2822:2860   */\n  tag_77\n    /* \"#utility.yul\":2854:2859   */\n  dup2\n    /* \"#utility.yul\":2822:2860   */\n  tag_25\n  jump\t// in\ntag_77:\n    /* \"#utility.yul\":2906:2935   */\n  tag_78\n    /* \"#utility.yul\":2924:2934   */\n  dup5\n    /* \"#utility.yul\":2906:2935   */\n  tag_26\n  jump\t// in\ntag_78:\n    /* \"#utility.yul\":2896:2904   */\n  dup2\n    /* \"#utility.yul\":2892:2936   */\n  add\n    /* \"#utility.yul\":3089:3091   */\n  0x20\n    /* \"#utility.yul\":3077:3087   */\n  dup6\n    /* \"#utility.yul\":3074:3092   */\n  lt\n    /* \"#utility.yul\":3071:3120   */\n  iszero\n  tag_79\n  jumpi\n    /* \"#utility.yul\":3110:3118   */\n  dup2\n    /* \"#utility.yul\":3095:3118   */\n  swap1\n  pop\n    /* \"#utility.yul\":3071:3120   */\ntag_79:\n    /* \"#utility.yul\":3133:3213   */\n  tag_80\n    /* \"#utility.yul\":3189:3211   */\n  tag_81\n    /* \"#utility.yul\":3207:3210   */\n  dup6\n    /* \"#utility.yul\":3189:3211   */\n  tag_26\n  jump\t// in\ntag_81:\n    /* \"#utility.yul\":3179:3187   */\n  dup4\n    /* \"#utility.yul\":3175:3212   */\n  add\n    /* \"#utility.yul\":3162:3173   */\n  dup3\n    /* \"#utility.yul\":3133:3213   */\n  tag_36\n  jump\t// in\ntag_80:\n    /* \"#utility.yul\":2792:3223   */\n  pop\n  pop\n    /* \"#utility.yul\":2777:3223   */\ntag_76:\n    /* \"#utility.yul\":2687:3230   */\n  pop\n  pop\n  pop\n  jump\t// out\n    /* \"#utility.yul\":3236:3353   */\ntag_38:\n    /* \"#utility.yul\":3290:3298   */\n  0x00\n    /* \"#utility.yul\":3340:3345   */\n  dup3\n    /* \"#utility.yul\":3334:3338   */\n  dup3\n    /* \"#utility.yul\":3330:3346   */\n  shr\n    /* \"#utility.yul\":3309:3346   */\n  swap1\n  pop\n    /* \"#utility.yul\":3236:3353   */\n  swap3\n  swap2\n  pop\n  pop\n  jump\t// out\n    /* \"#utility.yul\":3359:3528   */\ntag_39:\n    /* \"#utility.yul\":3403:3409   */\n  0x00\n    /* \"#utility.yul\":3436:3487   */\n  tag_84\n    /* \"#utility.yul\":3484:3485   */\n  0x00\n    /* \"#utility.yul\":3480:3486   */\n  not\n    /* \"#utility.yul\":3472:3477   */\n  dup5\n    /* \"#utility.yul\":3469:3470   */\n  0x08\n    /* \"#utility.yul\":3465:3478   */\n  mul\n    /* \"#utility.yul\":3436:3487   */\n  tag_38\n  jump\t// in\ntag_84:\n    /* \"#utility.yul\":3432:3488   */\n  not\n    /* \"#utility.yul\":3517:3521   */\n  dup1\n    /* \"#utility.yul\":3511:3515   */\n  dup4\n    /* \"#utility.yul\":3507:3522   */\n  and\n    /* \"#utility.yul\":3497:3522   */\n  swap2\n  pop\n    /* \"#utility.yul\":3410:3528   */\n  pop\n    /* \"#utility.yul\":3359:3528   */\n  swap3\n  swap2\n  pop\n  pop\n  jump\t// out\n    /* \"#utility.yul\":3533:3828   */\ntag_40:\n    /* \"#utility.yul\":3609:3613   */\n  0x00\n    /* \"#utility.yul\":3755:3784   */\n  tag_86\n    /* \"#utility.yul\":3780:3783   */\n  dup4\n    /* \"#utility.yul\":3774:3778   */\n  dup4\n    /* \"#utility.yul\":3755:3784   */\n  tag_39\n  jump\t// in\ntag_86:\n    /* \"#utility.yul\":3747:3784   */\n  swap2\n  pop\n    /* \"#utility.yul\":3817:3820   */\n  dup3\n    /* \"#utility.yul\":3814:3815   */\n  0x02\n    /* \"#utility.yul\":3810:3821   */\n  mul\n    /* \"#utility.yul\":3804:3808   */\n  dup3\n    /* \"#utility.yul\":3801:3822   */\n  or\n    /* \"#utility.yul\":3793:3822   */\n  swap1\n  pop\n    /* \"#utility.yul\":3533:3828   */\n  swap3\n  swap2\n  pop\n  pop\n  jump\t// out\n    /* \"#utility.yul\":3833:5228   */\ntag_13:\n    /* \"#utility.yul\":3950:3987   */\n  tag_88\n    /* \"#utility.yul\":3983:3986   */\n  dup3\n    /* \"#utility.yul\":3950:3987   */\n  tag_21\n  jump\t// in\ntag_88:\n    /* \"#utility.yul\":4052:4070   */\n  0xffffffffffffffff\n    /* \"#utility.yul\":4044:4050   */\n  dup2\n    /* \"#utility.yul\":4041:4071   */\n  gt\n    /* \"#utility.yul\":4038:4094   */\n  iszero\n  tag_89\n  jumpi\n    /* \"#utility.yul\":4074:4092   */\n  tag_90\n  tag_22\n  jump\t// in\ntag_90:\n    /* \"#utility.yul\":4038:4094   */\ntag_89:\n    /* \"#utility.yul\":4118:4156   */\n  tag_91\n    /* \"#utility.yul\":4150:4154   */\n  dup3\n    /* \"#utility.yul\":4144:4155   */\n  sload\n    /* \"#utility.yul\":4118:4156   */\n  tag_24\n  jump\t// in\ntag_91:\n    /* \"#utility.yul\":4203:4270   */\n  tag_92\n    /* \"#utility.yul\":4263:4269   */\n  dup3\n    /* \"#utility.yul\":4255:4261   */\n  dup3\n    /* \"#utility.yul\":4249:4253   */\n  dup6\n    /* \"#utility.yul\":4203:4270   */\n  tag_37\n  jump\t// in\ntag_92:\n    /* \"#utility.yul\":4297:4298   */\n  0x00\n    /* \"#utility.yul\":4321:4325   */\n  0x20\n    /* \"#utility.yul\":4308:4325   */\n  swap1\n  pop\n    /* \"#utility.yul\":4353:4355   */\n  0x1f\n    /* \"#utility.yul\":4345:4351   */\n  dup4\n    /* \"#utility.yul\":4342:4356   */\n  gt\n    /* \"#utility.yul\":4370:4371   */\n  0x01\n    /* \"#utility.yul\":4365:4983   */\n  dup2\n  eq\n  tag_94\n  jumpi\n    /* \"#utility.yul\":5027:5028   */\n  0x00\n    /* \"#utility.yul\":5044:5050   */\n  dup5\n    /* \"#utility.yul\":5041:5118   */\n  iszero\n  tag_95\n  jumpi\n    /* \"#utility.yul\":5093:5102   */\n  dup3\n    /* \"#utility.yul\":5088:5091   */\n  dup8\n    /* \"#utility.yul\":5084:5103   */\n  add\n    /* \"#utility.yul\":5078:5104   */\n  mload\n    /* \"#utility.yul\":5069:5104   */\n  swap1\n  pop\n    /* \"#utility.yul\":5041:5118   */\ntag_95:\n    /* \"#utility.yul\":5144:5211   */\n  tag_96\n    /* \"#utility.yul\":5204:5210   */\n  dup6\n    /* \"#utility.yul\":5197:5202   */\n  dup3\n    /* \"#utility.yul\":5144:5211   */\n  tag_40\n  jump\t// in\ntag_96:\n    /* \"#utility.yul\":5138:5142   */\n  dup7\n    /* \"#utility.yul\":5131:5212   */\n  sstore\n    /* \"#utility.yul\":5000:5222   */\n  pop\n    /* \"#utility.yul\":4335:5222   */\n  jump(tag_93)\n    /* \"#utility.yul\":4365:4983   */\ntag_94:\n    /* \"#utility.yul\":4417:4421   */\n  0x1f\n    /* \"#utility.yul\":4413:4422   */\n  not\n    /* \"#utility.yul\":4405:4411   */\n  dup5\n    /* \"#utility.yul\":4401:4423   */\n  and\n    /* \"#utility.yul\":4451:4488   */\n  tag_97\n    /* \"#utility.yul\":4483:4487   */\n  dup7\n    /* \"#utility.yul\":4451:4488   */\n  tag_25\n  jump\t// in\ntag_97:\n    /* \"#utility.yul\":4510:4511   */\n  0x00\n    /* \"#utility.yul\":4524:4732   */\ntag_98:\n    /* \"#utility.yul\":4538:4545   */\n  dup3\n    /* \"#utility.yul\":4535:4536   */\n  dup2\n    /* \"#utility.yul\":4532:4546   */\n  lt\n    /* \"#utility.yul\":4524:4732   */\n  iszero\n  tag_100\n  jumpi\n    /* \"#utility.yul\":4617:4626   */\n  dup5\n    /* \"#utility.yul\":4612:4615   */\n  dup10\n    /* \"#utility.yul\":4608:4627   */\n  add\n    /* \"#utility.yul\":4602:4628   */\n  mload\n    /* \"#utility.yul\":4594:4600   */\n  dup3\n    /* \"#utility.yul\":4587:4629   */\n  sstore\n    /* \"#utility.yul\":4668:4669   */\n  0x01\n    /* \"#utility.yul\":4660:4666   */\n  dup3\n    /* \"#utility.yul\":4656:4670   */\n  add\n    /* \"#utility.yul\":4646:4670   */\n  swap2\n  pop\n    /* \"#utility.yul\":4715:4717   */\n  0x20\n    /* \"#utility.yul\":4704:4713   */\n  dup6\n    /* \"#utility.yul\":4700:4718   */\n  add\n    /* \"#utility.yul\":4687:4718   */\n  swap5\n  pop\n    /* \"#utility.yul\":4561:4565   */\n  0x20\n    /* \"#utility.yul\":4558:4559   */\n  dup2\n    /* \"#utility.yul\":4554:4566   */\n  add\n    /* \"#utility.yul\":4549:4566   */\n  swap1\n  pop\n    /* \"#utility.yul\":4524:4732   */\n  jump(tag_98)\ntag_100:\n    /* \"#utility.yul\":4760:4766   */\n  dup7\n    /* \"#utility.yul\":4751:4758   */\n  dup4\n    /* \"#utility.yul\":4748:4767   */\n  lt\n    /* \"#utility.yul\":4745:4924   */\n  iszero\n  tag_101\n  jumpi\n    /* \"#utility.yul\":4818:4827   */\n  dup5\n    /* \"#utility.yul\":4813:4816   */\n  dup10\n    /* \"#utility.yul\":4809:4828   */\n  add\n    /* \"#utility.yul\":4803:4829   */\n  mload\n    /* \"#utility.yul\":4861:4909   */\n  tag_102\n    /* \"#utility.yul\":4903:4907   */\n  0x1f\n    /* \"#utility.yul\":4895:4901   */\n  dup10\n    /* \"#utility.yul\":4891:4908   */\n  and\n    /* \"#utility.yul\":4880:4889   */\n  dup3\n    /* \"#utility.yul\":4861:4909   */\n  tag_39\n  jump\t// in\ntag_102:\n    /* \"#utility.yul\":4853:4859   */\n  dup4\n    /* \"#utility.yul\":4846:4910   */\n  sstore\n    /* \"#utility.yul\":4768:4924   */\n  pop\n    /* \"#utility.yul\":4745:4924   */\ntag_101:\n    /* \"#utility.yul\":4970:4971   */\n  0x01\n    /* \"#utility.yul\":4966:4967   */\n  0x02\n    /* \"#utility.yul\":4958:4964   */\n  dup9\n    /* \"#utility.yul\":4954:4968   */\n  mul\n    /* \"#utility.yul\":4950:4972   */\n  add\n    /* \"#utility.yul\":4944:4948   */\n  dup9\n    /* \"#utility.yul\":4937:4973   */\n  sstore\n    /* \"#utility.yul\":4372:4983   */\n  pop\n  pop\n  pop\n    /* \"#utility.yul\":4335:5222   */\ntag_93:\n  pop\n    /* \"#utility.yul\":3925:5228   */\n  pop\n  pop\n  pop\n    /* \"#utility.yul\":3833:5228   */\n  pop\n  pop\n  jump\t// out\n    /* \"ICO_Test.sol\":119:1605  contract ICO_Test is ERC1155{... */\ntag_10:\n  dataSize(sub_0)\n  dup1\n  dataOffset(sub_0)\n  0x00\n  codecopy\n  0x00\n  return\nstop\n\nsub_0: assembly {\n        /* \"ICO_Test.sol\":119:1605  contract ICO_Test is ERC1155{... */\n      mstore(0x40, 0x80)\n      jumpi(tag_1, lt(calldatasize, 0x04))\n      shr(0xe0, calldataload(0x00))\n      dup1\n      0x2eb2c2d6\n      gt\n      tag_15\n      jumpi\n      dup1\n      0xa22cb465\n      gt\n      tag_16\n      jumpi\n      dup1\n      0xa22cb465\n      eq\n      tag_11\n      jumpi\n      dup1\n      0xae909cff\n      eq\n      tag_12\n      jumpi\n      dup1\n      0xe985e9c5\n      eq\n      tag_13\n      jumpi\n      dup1\n      0xf242432a\n      eq\n      tag_14\n      jumpi\n      jump(tag_1)\n    tag_16:\n      dup1\n      0x2eb2c2d6\n      eq\n      tag_8\n      jumpi\n      dup1\n      0x4e1273f4\n      eq\n      tag_9\n      jumpi\n      dup1\n      0x88ab4168\n      eq\n      tag_10\n      jumpi\n      jump(tag_1)\n    tag_15:\n      dup1\n      0xfdd58e\n      eq\n      tag_2\n      jumpi\n      dup1\n      0x01ffc9a7\n      eq\n      tag_3\n      jumpi\n      dup1\n      0x0303c609\n      eq\n      tag_4\n      jumpi\n      dup1\n      0x057466ea\n      eq\n      tag_5\n      jumpi\n      dup1\n      0x0e89341c\n      eq\n      tag_6\n      jumpi\n      dup1\n      0x2e1a7d4d\n      eq\n      tag_7\n      jumpi\n    tag_1:\n      0x00\n      dup1\n      revert\n        /* \"@openzeppelin/contracts/token/ERC1155/ERC1155.sol\":2247:2379  function balanceOf(address account, uint256 id) public view virtual returns (uint256) {... */\n    tag_2:\n      callvalue\n      dup1\n      iszero\n      tag_17\n      jumpi\n      0x00\n      dup1\n      revert\n    tag_17:\n      pop\n      tag_18\n      0x04\n      dup1\n      calldatasize\n      sub\n      dup2\n      add\n      swap1\n      tag_19\n      swap2\n      swap1\n      tag_20\n      jump\t// in\n    tag_19:\n      tag_21\n      jump\t// in\n    tag_18:\n      mload(0x40)\n      tag_22\n      swap2\n      swap1\n      tag_23\n      jump\t// in\n    tag_22:\n      mload(0x40)\n      dup1\n      swap2\n      sub\n      swap1\n      return\n        /* \"@openzeppelin/contracts/token/ERC1155/ERC1155.sol\":1380:1685  function supportsInterface(bytes4 interfaceId) public view virtual override(ERC165, IERC165) returns (bool) {... */\n    tag_3:\n      callvalue\n      dup1\n      iszero\n      tag_24\n      jumpi\n      0x00\n      dup1\n      revert\n    tag_24:\n      pop\n      tag_25\n      0x04\n      dup1\n      calldatasize\n      sub\n      dup2\n      add\n      swap1\n      tag_26\n      swap2\n      swap1\n      tag_27\n      jump\t// in\n    tag_26:\n      tag_28\n      jump\t// in\n    tag_25:\n      mload(0x40)\n      tag_29\n      swap2\n      swap1\n      tag_30\n      jump\t// in\n    tag_29:\n      mload(0x40)\n      dup1\n      swap2\n      sub\n      swap1\n      return\n        /* \"ICO_Test.sol\":1264:1443  function doublePrice() public {... */\n    tag_4:\n      callvalue\n      dup1\n      iszero\n      tag_31\n      jumpi\n      0x00\n      dup1\n      revert\n    tag_31:\n      pop\n      tag_32\n      tag_33\n      jump\t// in\n    tag_32:\n      stop\n        /* \"ICO_Test.sol\":505:653  function buyToken(uint _tokenId, uint _amount) public payable {... */\n    tag_5:\n      tag_34\n      0x04\n      dup1\n      calldatasize\n      sub\n      dup2\n      add\n      swap1\n      tag_35\n      swap2\n      swap1\n      tag_36\n      jump\t// in\n    tag_35:\n      tag_37\n      jump\t// in\n    tag_34:\n      stop\n        /* \"@openzeppelin/contracts/token/ERC1155/ERC1155.sol\":2084:2187  function uri(uint256 /* id */) public view virtual returns (string memory) {... */\n    tag_6:\n      callvalue\n      dup1\n      iszero\n      tag_38\n      jumpi\n      0x00\n      dup1\n      revert\n    tag_38:\n      pop\n      tag_39\n      0x04\n      dup1\n      calldatasize\n      sub\n      dup2\n      add\n      swap1\n      tag_40\n      swap2\n      swap1\n      tag_41\n      jump\t// in\n    tag_40:\n      tag_42\n      jump\t// in\n    tag_39:\n      mload(0x40)\n      tag_43\n      swap2\n      swap1\n      tag_44\n      jump\t// in\n    tag_43:\n      mload(0x40)\n      dup1\n      swap2\n      sub\n      swap1\n      return\n        /* \"ICO_Test.sol\":1476:1602  function withdraw(uint _amount) public {... */\n    tag_7:\n      callvalue\n      dup1\n      iszero\n      tag_45\n      jumpi\n      0x00\n      dup1\n      revert\n    tag_45:\n      pop\n      tag_46\n      0x04\n      dup1\n      calldatasize\n      sub\n      dup2\n      add\n      swap1\n      tag_47\n      swap2\n      swap1\n      tag_41\n      jump\t// in\n    tag_47:\n      tag_48\n      jump\t// in\n    tag_46:\n      stop\n        /* \"@openzeppelin/contracts/token/ERC1155/ERC1155.sol\":4014:4443  function safeBatchTransferFrom(... */\n    tag_8:\n      callvalue\n      dup1\n      iszero\n      tag_49\n      jumpi\n      0x00\n      dup1\n      revert\n    tag_49:\n      pop\n      tag_50\n      0x04\n      dup1\n      calldatasize\n      sub\n      dup2\n      add\n      swap1\n      tag_51\n      swap2\n      swap1\n      tag_52\n      jump\t// in\n    tag_51:\n      tag_53\n      jump\t// in\n    tag_50:\n      stop\n        /* \"@openzeppelin/contracts/token/ERC1155/ERC1155.sol\":2536:3088  function balanceOfBatch(... */\n    tag_9:\n      callvalue\n      dup1\n      iszero\n      tag_54\n      jumpi\n      0x00\n      dup1\n      revert\n    tag_54:\n      pop\n      tag_55\n      0x04\n      dup1\n      calldatasize\n      sub\n      dup2\n      add\n      swap1\n      tag_56\n      swap2\n      swap1\n      tag_57\n      jump\t// in\n    tag_56:\n      tag_58\n      jump\t// in\n    tag_55:\n      mload(0x40)\n      tag_59\n      swap2\n      swap1\n      tag_60\n      jump\t// in\n    tag_59:\n      mload(0x40)\n      dup1\n      swap2\n      sub\n      swap1\n      return\n        /* \"ICO_Test.sol\":1177:1219  function getMintedAmount() public {... */\n    tag_10:\n      callvalue\n      dup1\n      iszero\n      tag_61\n      jumpi\n      0x00\n      dup1\n      revert\n    tag_61:\n      pop\n      tag_62\n      tag_63\n      jump\t// in\n    tag_62:\n      stop\n        /* \"@openzeppelin/contracts/token/ERC1155/ERC1155.sol\":3156:3300  function setApprovalForAll(address operator, bool approved) public virtual {... */\n    tag_11:\n      callvalue\n      dup1\n      iszero\n      tag_64\n      jumpi\n      0x00\n      dup1\n      revert\n    tag_64:\n      pop\n      tag_65\n      0x04\n      dup1\n      calldatasize\n      sub\n      dup2\n      add\n      swap1\n      tag_66\n      swap2\n      swap1\n      tag_67\n      jump\t// in\n    tag_66:\n      tag_68\n      jump\t// in\n    tag_65:\n      stop\n        /* \"ICO_Test.sol\":768:1133  function giveTokens() public {... */\n    tag_12:\n      callvalue\n      dup1\n      iszero\n      tag_69\n      jumpi\n      0x00\n      dup1\n      revert\n    tag_69:\n      pop\n      tag_70\n      tag_71\n      jump\t// in\n    tag_70:\n      stop\n        /* \"@openzeppelin/contracts/token/ERC1155/ERC1155.sol\":3367:3524  function isApprovedForAll(address account, address operator) public view virtual returns (bool) {... */\n    tag_13:\n      callvalue\n      dup1\n      iszero\n      tag_72\n      jumpi\n      0x00\n      dup1\n      revert\n    tag_72:\n      pop\n      tag_73\n      0x04\n      dup1\n      calldatasize\n      sub\n      dup2\n      add\n      swap1\n      tag_74\n      swap2\n      swap1\n      tag_75\n      jump\t// in\n    tag_74:\n      tag_76\n      jump\t// in\n    tag_73:\n      mload(0x40)\n      tag_77\n      swap2\n      swap1\n      tag_30\n      jump\t// in\n    tag_77:\n      mload(0x40)\n      dup1\n      swap2\n      sub\n      swap1\n      return\n        /* \"@openzeppelin/contracts/token/ERC1155/ERC1155.sol\":3591:3942  function safeTransferFrom(address from, address to, uint256 id, uint256 value, bytes memory data) public virtual {... */\n    tag_14:\n      callvalue\n      dup1\n      iszero\n      tag_78\n      jumpi\n      0x00\n      dup1\n      revert\n    tag_78:\n      pop\n      tag_79\n      0x04\n      dup1\n      calldatasize\n      sub\n      dup2\n      add\n      swap1\n      tag_80\n      swap2\n      swap1\n      tag_81\n      jump\t// in\n    tag_80:\n      tag_82\n      jump\t// in\n    tag_79:\n      stop\n        /* \"@openzeppelin/contracts/token/ERC1155/ERC1155.sol\":2247:2379  function balanceOf(address account, uint256 id) public view virtual returns (uint256) {... */\n    tag_21:\n        /* \"@openzeppelin/contracts/token/ERC1155/ERC1155.sol\":2324:2331  uint256 */\n      0x00\n        /* \"@openzeppelin/contracts/token/ERC1155/ERC1155.sol\":2350:2359  _balances */\n      dup1\n        /* \"@openzeppelin/contracts/token/ERC1155/ERC1155.sol\":2350:2363  _balances[id] */\n      0x00\n        /* \"@openzeppelin/contracts/token/ERC1155/ERC1155.sol\":2360:2362  id */\n      dup4\n        /* \"@openzeppelin/contracts/token/ERC1155/ERC1155.sol\":2350:2363  _balances[id] */\n      dup2\n      mstore\n      0x20\n      add\n      swap1\n      dup2\n      mstore\n      0x20\n      add\n      0x00\n      keccak256\n        /* \"@openzeppelin/contracts/token/ERC1155/ERC1155.sol\":2350:2372  _balances[id][account] */\n      0x00\n        /* \"@openzeppelin/contracts/token/ERC1155/ERC1155.sol\":2364:2371  account */\n      dup5\n        /* \"@openzeppelin/contracts/token/ERC1155/ERC1155.sol\":2350:2372  _balances[id][account] */\n      0xffffffffffffffffffffffffffffffffffffffff\n      and\n      0xffffffffffffffffffffffffffffffffffffffff\n      and\n      dup2\n      mstore\n      0x20\n      add\n      swap1\n      dup2\n      mstore\n      0x20\n      add\n      0x00\n      keccak256\n      sload\n        /* \"@openzeppelin/contracts/token/ERC1155/ERC1155.sol\":2343:2372  return _balances[id][account] */\n      swap1\n      pop\n        /* \"@openzeppelin/contracts/token/ERC1155/ERC1155.sol\":2247:2379  function balanceOf(address account, uint256 id) public view virtual returns (uint256) {... */\n      swap3\n      swap2\n      pop\n      pop\n      jump\t// out\n        /* \"@openzeppelin/contracts/token/ERC1155/ERC1155.sol\":1380:1685  function supportsInterface(bytes4 interfaceId) public view virtual override(ERC165, IERC165) returns (bool) {... */\n    tag_28:\n        /* \"@openzeppelin/contracts/token/ERC1155/ERC1155.sol\":1482:1486  bool */\n      0x00\n        /* \"@openzeppelin/contracts/token/ERC1155/ERC1155.sol\":1532:1558  type(IERC1155).interfaceId */\n      0xd9b67a2600000000000000000000000000000000000000000000000000000000\n        /* \"@openzeppelin/contracts/token/ERC1155/ERC1155.sol\":1517:1558  interfaceId == type(IERC1155).interfaceId */\n      not(0xffffffffffffffffffffffffffffffffffffffffffffffffffffffff)\n      and\n        /* \"@openzeppelin/contracts/token/ERC1155/ERC1155.sol\":1517:1528  interfaceId */\n      dup3\n        /* \"@openzeppelin/contracts/token/ERC1155/ERC1155.sol\":1517:1558  interfaceId == type(IERC1155).interfaceId */\n      not(0xffffffffffffffffffffffffffffffffffffffffffffffffffffffff)\n      and\n      eq\n        /* \"@openzeppelin/contracts/token/ERC1155/ERC1155.sol\":1517:1626  interfaceId == type(IERC1155).interfaceId ||... */\n      dup1\n      tag_85\n      jumpi\n      pop\n        /* \"@openzeppelin/contracts/token/ERC1155/ERC1155.sol\":1589:1626  type(IERC1155MetadataURI).interfaceId */\n      0x0e89341c00000000000000000000000000000000000000000000000000000000\n        /* \"@openzeppelin/contracts/token/ERC1155/ERC1155.sol\":1574:1626  interfaceId == type(IERC1155MetadataURI).interfaceId */\n      not(0xffffffffffffffffffffffffffffffffffffffffffffffffffffffff)\n      and\n        /* \"@openzeppelin/contracts/token/ERC1155/ERC1155.sol\":1574:1585  interfaceId */\n      dup3\n        /* \"@openzeppelin/contracts/token/ERC1155/ERC1155.sol\":1574:1626  interfaceId == type(IERC1155MetadataURI).interfaceId */\n      not(0xffffffffffffffffffffffffffffffffffffffffffffffffffffffff)\n      and\n      eq\n        /* \"@openzeppelin/contracts/token/ERC1155/ERC1155.sol\":1517:1626  interfaceId == type(IERC1155).interfaceId ||... */\n    tag_85:\n        /* \"@openzeppelin/contracts/token/ERC1155/ERC1155.sol\":1517:1678  interfaceId == type(IERC1155).interfaceId ||... */\n      dup1\n      tag_86\n      jumpi\n      pop\n        /* \"@openzeppelin/contracts/token/ERC1155/ERC1155.sol\":1642:1678  super.supportsInterface(interfaceId) */\n      tag_87\n        /* \"@openzeppelin/contracts/token/ERC1155/ERC1155.sol\":1666:1677  interfaceId */\n      dup3\n        /* \"@openzeppelin/contracts/token/ERC1155/ERC1155.sol\":1642:1665  super.supportsInterface */\n      tag_88\n        /* \"@openzeppelin/contracts/token/ERC1155/ERC1155.sol\":1642:1678  super.supportsInterface(interfaceId) */\n      jump\t// in\n    tag_87:\n        /* \"@openzeppelin/contracts/token/ERC1155/ERC1155.sol\":1517:1678  interfaceId == type(IERC1155).interfaceId ||... */\n    tag_86:\n        /* \"@openzeppelin/contracts/token/ERC1155/ERC1155.sol\":1498:1678  return... */\n      swap1\n      pop\n        /* \"@openzeppelin/contracts/token/ERC1155/ERC1155.sol\":1380:1685  function supportsInterface(bytes4 interfaceId) public view virtual override(ERC165, IERC165) returns (bool) {... */\n      swap2\n      swap1\n      pop\n      jump\t// out\n        /* \"ICO_Test.sol\":1264:1443  function doublePrice() public {... */\n    tag_33:\n        /* \"ICO_Test.sol\":1326:1331  owner */\n      0x07\n      0x00\n      swap1\n      sload\n      swap1\n      0x0100\n      exp\n      swap1\n      div\n      0xffffffffffffffffffffffffffffffffffffffff\n      and\n        /* \"ICO_Test.sol\":1312:1331  msg.sender == owner */\n      0xffffffffffffffffffffffffffffffffffffffff\n      and\n        /* \"ICO_Test.sol\":1312:1322  msg.sender */\n      caller\n        /* \"ICO_Test.sol\":1312:1331  msg.sender == owner */\n      0xffffffffffffffffffffffffffffffffffffffff\n      and\n      eq\n        /* \"ICO_Test.sol\":1304:1346  require(msg.sender == owner, \"only Owner\") */\n      tag_90\n      jumpi\n      mload(0x40)\n      0x08c379a000000000000000000000000000000000000000000000000000000000\n      dup2\n      mstore\n      0x04\n      add\n      tag_91\n      swap1\n      tag_92\n      jump\t// in\n    tag_91:\n      mload(0x40)\n      dup1\n      swap2\n      sub\n      swap1\n      revert\n    tag_90:\n        /* \"ICO_Test.sol\":1360:1366  uint i */\n      0x00\n        /* \"ICO_Test.sol\":1356:1437  for(uint i=0;i<tokenPrice.length;i++) {... */\n    tag_93:\n        /* \"ICO_Test.sol\":1371:1388  tokenPrice.length */\n      0x04\n        /* \"ICO_Test.sol\":1369:1370  i */\n      dup2\n        /* \"ICO_Test.sol\":1369:1388  i<tokenPrice.length */\n      lt\n        /* \"ICO_Test.sol\":1356:1437  for(uint i=0;i<tokenPrice.length;i++) {... */\n      iszero\n      tag_94\n      jumpi\n        /* \"ICO_Test.sol\":1425:1426  2 */\n      0x02\n        /* \"ICO_Test.sol\":1408:1418  tokenPrice */\n      0x03\n        /* \"ICO_Test.sol\":1419:1420  i */\n      dup3\n        /* \"ICO_Test.sol\":1408:1421  tokenPrice[i] */\n      0x04\n      dup2\n      lt\n      tag_96\n      jumpi\n      tag_97\n      tag_98\n      jump\t// in\n    tag_97:\n    tag_96:\n      add\n      0x00\n        /* \"ICO_Test.sol\":1408:1426  tokenPrice[i] *= 2 */\n      dup3\n      dup3\n      sload\n      tag_100\n      swap2\n      swap1\n      tag_101\n      jump\t// in\n    tag_100:\n      swap3\n      pop\n      pop\n      dup2\n      swap1\n      sstore\n      pop\n        /* \"ICO_Test.sol\":1389:1392  i++ */\n      dup1\n      dup1\n      0x01\n      add\n      swap2\n      pop\n      pop\n        /* \"ICO_Test.sol\":1356:1437  for(uint i=0;i<tokenPrice.length;i++) {... */\n      jump(tag_93)\n    tag_94:\n      pop\n        /* \"ICO_Test.sol\":1264:1443  function doublePrice() public {... */\n      jump\t// out\n        /* \"ICO_Test.sol\":505:653  function buyToken(uint _tokenId, uint _amount) public payable {... */\n    tag_37:\n        /* \"ICO_Test.sol\":619:628  msg.value */\n      callvalue\n        /* \"ICO_Test.sol\":608:615  _amount */\n      dup2\n        /* \"ICO_Test.sol\":585:595  tokenPrice */\n      0x03\n        /* \"ICO_Test.sol\":596:604  _tokenId */\n      dup5\n        /* \"ICO_Test.sol\":585:605  tokenPrice[_tokenId] */\n      0x04\n      dup2\n      lt\n      tag_103\n      jumpi\n      tag_104\n      tag_98\n      jump\t// in\n    tag_104:\n    tag_103:\n      add\n      sload\n        /* \"ICO_Test.sol\":585:615  tokenPrice[_tokenId] * _amount */\n      tag_106\n      swap2\n      swap1\n      tag_101\n      jump\t// in\n    tag_106:\n        /* \"ICO_Test.sol\":585:628  tokenPrice[_tokenId] * _amount == msg.value */\n      eq\n        /* \"ICO_Test.sol\":577:645  require(tokenPrice[_tokenId] * _amount == msg.value, \"check amount\") */\n      tag_107\n      jumpi\n      mload(0x40)\n      0x08c379a000000000000000000000000000000000000000000000000000000000\n      dup2\n      mstore\n      0x04\n      add\n      tag_108\n      swap1\n      tag_109\n      jump\t// in\n    tag_108:\n      mload(0x40)\n      dup1\n      swap2\n      sub\n      swap1\n      revert\n    tag_107:\n        /* \"ICO_Test.sol\":505:653  function buyToken(uint _tokenId, uint _amount) public payable {... */\n      pop\n      pop\n      jump\t// out\n        /* \"@openzeppelin/contracts/token/ERC1155/ERC1155.sol\":2084:2187  function uri(uint256 /* id */) public view virtual returns (string memory) {... */\n    tag_42:\n        /* \"@openzeppelin/contracts/token/ERC1155/ERC1155.sol\":2144:2157  string memory */\n      0x60\n        /* \"@openzeppelin/contracts/token/ERC1155/ERC1155.sol\":2176:2180  _uri */\n      0x02\n        /* \"@openzeppelin/contracts/token/ERC1155/ERC1155.sol\":2169:2180  return _uri */\n      dup1\n      sload\n      tag_111\n      swap1\n      tag_112\n      jump\t// in\n    tag_111:\n      dup1\n      0x1f\n      add\n      0x20\n      dup1\n      swap2\n      div\n      mul\n      0x20\n      add\n      mload(0x40)\n      swap1\n      dup2\n      add\n      0x40\n      mstore\n      dup1\n      swap3\n      swap2\n      swap1\n      dup2\n      dup2\n      mstore\n      0x20\n      add\n      dup3\n      dup1\n      sload\n      tag_113\n      swap1\n      tag_112\n      jump\t// in\n    tag_113:\n      dup1\n      iszero\n      tag_114\n      jumpi\n      dup1\n      0x1f\n      lt\n      tag_115\n      jumpi\n      0x0100\n      dup1\n      dup4\n      sload\n      div\n      mul\n      dup4\n      mstore\n      swap2\n      0x20\n      add\n      swap2\n      jump(tag_114)\n    tag_115:\n      dup3\n      add\n      swap2\n      swap1\n      0x00\n      mstore\n      keccak256(0x00, 0x20)\n      swap1\n    tag_116:\n      dup2\n      sload\n      dup2\n      mstore\n      swap1\n      0x01\n      add\n      swap1\n      0x20\n      add\n      dup1\n      dup4\n      gt\n      tag_116\n      jumpi\n      dup3\n      swap1\n      sub\n      0x1f\n      and\n      dup3\n      add\n      swap2\n    tag_114:\n      pop\n      pop\n      pop\n      pop\n      pop\n      swap1\n      pop\n        /* \"@openzeppelin/contracts/token/ERC1155/ERC1155.sol\":2084:2187  function uri(uint256 /* id */) public view virtual returns (string memory) {... */\n      swap2\n      swap1\n      pop\n      jump\t// out\n        /* \"ICO_Test.sol\":1476:1602  function withdraw(uint _amount) public {... */\n    tag_48:\n        /* \"ICO_Test.sol\":1547:1552  owner */\n      0x07\n      0x00\n      swap1\n      sload\n      swap1\n      0x0100\n      exp\n      swap1\n      div\n      0xffffffffffffffffffffffffffffffffffffffff\n      and\n        /* \"ICO_Test.sol\":1533:1552  msg.sender == owner */\n      0xffffffffffffffffffffffffffffffffffffffff\n      and\n        /* \"ICO_Test.sol\":1533:1543  msg.sender */\n      caller\n        /* \"ICO_Test.sol\":1533:1552  msg.sender == owner */\n      0xffffffffffffffffffffffffffffffffffffffff\n      and\n      eq\n        /* \"ICO_Test.sol\":1525:1553  require(msg.sender == owner) */\n      tag_118\n      jumpi\n      0x00\n      dup1\n      revert\n    tag_118:\n        /* \"ICO_Test.sol\":1571:1576  owner */\n      0x07\n      0x00\n      swap1\n      sload\n      swap1\n      0x0100\n      exp\n      swap1\n      div\n      0xffffffffffffffffffffffffffffffffffffffff\n      and\n        /* \"ICO_Test.sol\":1563:1586  payable(owner).transfer */\n      0xffffffffffffffffffffffffffffffffffffffff\n      and\n        /* \"ICO_Test.sol\":1563:1595  payable(owner).transfer(_amount) */\n      0x08fc\n        /* \"ICO_Test.sol\":1587:1594  _amount */\n      dup3\n        /* \"ICO_Test.sol\":1563:1595  payable(owner).transfer(_amount) */\n      swap1\n      dup2\n      iszero\n      mul\n      swap1\n      mload(0x40)\n      0x00\n      mload(0x40)\n      dup1\n      dup4\n      sub\n      dup2\n      dup6\n      dup9\n      dup9\n      call\n      swap4\n      pop\n      pop\n      pop\n      pop\n      iszero\n      dup1\n      iszero\n      tag_120\n      jumpi\n      returndatasize\n      0x00\n      dup1\n      returndatacopy\n      revert(0x00, returndatasize)\n    tag_120:\n      pop\n        /* \"ICO_Test.sol\":1476:1602  function withdraw(uint _amount) public {... */\n      pop\n      jump\t// out\n        /* \"@openzeppelin/contracts/token/ERC1155/ERC1155.sol\":4014:4443  function safeBatchTransferFrom(... */\n    tag_53:\n        /* \"@openzeppelin/contracts/token/ERC1155/ERC1155.sol\":4208:4222  address sender */\n      0x00\n        /* \"@openzeppelin/contracts/token/ERC1155/ERC1155.sol\":4225:4237  _msgSender() */\n      tag_122\n        /* \"@openzeppelin/contracts/token/ERC1155/ERC1155.sol\":4225:4235  _msgSender */\n      tag_123\n        /* \"@openzeppelin/contracts/token/ERC1155/ERC1155.sol\":4225:4237  _msgSender() */\n      jump\t// in\n    tag_122:\n        /* \"@openzeppelin/contracts/token/ERC1155/ERC1155.sol\":4208:4237  address sender = _msgSender() */\n      swap1\n      pop\n        /* \"@openzeppelin/contracts/token/ERC1155/ERC1155.sol\":4259:4265  sender */\n      dup1\n        /* \"@openzeppelin/contracts/token/ERC1155/ERC1155.sol\":4251:4265  from != sender */\n      0xffffffffffffffffffffffffffffffffffffffff\n      and\n        /* \"@openzeppelin/contracts/token/ERC1155/ERC1155.sol\":4251:4255  from */\n      dup7\n        /* \"@openzeppelin/contracts/token/ERC1155/ERC1155.sol\":4251:4265  from != sender */\n      0xffffffffffffffffffffffffffffffffffffffff\n      and\n      eq\n      iszero\n        /* \"@openzeppelin/contracts/token/ERC1155/ERC1155.sol\":4251:4300  from != sender && !isApprovedForAll(from, sender) */\n      dup1\n      iszero\n      tag_124\n      jumpi\n      pop\n        /* \"@openzeppelin/contracts/token/ERC1155/ERC1155.sol\":4270:4300  isApprovedForAll(from, sender) */\n      tag_125\n        /* \"@openzeppelin/contracts/token/ERC1155/ERC1155.sol\":4287:4291  from */\n      dup7\n        /* \"@openzeppelin/contracts/token/ERC1155/ERC1155.sol\":4293:4299  sender */\n      dup3\n        /* \"@openzeppelin/contracts/token/ERC1155/ERC1155.sol\":4270:4286  isApprovedForAll */\n      tag_76\n        /* \"@openzeppelin/contracts/token/ERC1155/ERC1155.sol\":4270:4300  isApprovedForAll(from, sender) */\n      jump\t// in\n    tag_125:\n        /* \"@openzeppelin/contracts/token/ERC1155/ERC1155.sol\":4269:4300  !isApprovedForAll(from, sender) */\n      iszero\n        /* \"@openzeppelin/contracts/token/ERC1155/ERC1155.sol\":4251:4300  from != sender && !isApprovedForAll(from, sender) */\n    tag_124:\n        /* \"@openzeppelin/contracts/token/ERC1155/ERC1155.sol\":4247:4376  if (from != sender && !isApprovedForAll(from, sender)) {... */\n      iszero\n      tag_126\n      jumpi\n        /* \"@openzeppelin/contracts/token/ERC1155/ERC1155.sol\":4352:4358  sender */\n      dup1\n        /* \"@openzeppelin/contracts/token/ERC1155/ERC1155.sol\":4360:4364  from */\n      dup7\n        /* \"@openzeppelin/contracts/token/ERC1155/ERC1155.sol\":4323:4365  ERC1155MissingApprovalForAll(sender, from) */\n      mload(0x40)\n      0xe237d92200000000000000000000000000000000000000000000000000000000\n      dup2\n      mstore\n      0x04\n      add\n      tag_127\n      swap3\n      swap2\n      swap1\n      tag_128\n      jump\t// in\n    tag_127:\n      mload(0x40)\n      dup1\n      swap2\n      sub\n      swap1\n      revert\n        /* \"@openzeppelin/contracts/token/ERC1155/ERC1155.sol\":4247:4376  if (from != sender && !isApprovedForAll(from, sender)) {... */\n    tag_126:\n        /* \"@openzeppelin/contracts/token/ERC1155/ERC1155.sol\":4385:4436  _safeBatchTransferFrom(from, to, ids, values, data) */\n      tag_129\n        /* \"@openzeppelin/contracts/token/ERC1155/ERC1155.sol\":4408:4412  from */\n      dup7\n        /* \"@openzeppelin/contracts/token/ERC1155/ERC1155.sol\":4414:4416  to */\n      dup7\n        /* \"@openzeppelin/contracts/token/ERC1155/ERC1155.sol\":4418:4421  ids */\n      dup7\n        /* \"@openzeppelin/contracts/token/ERC1155/ERC1155.sol\":4423:4429  values */\n      dup7\n        /* \"@openzeppelin/contracts/token/ERC1155/ERC1155.sol\":4431:4435  data */\n      dup7\n        /* \"@openzeppelin/contracts/token/ERC1155/ERC1155.sol\":4385:4407  _safeBatchTransferFrom */\n      tag_130\n        /* \"@openzeppelin/contracts/token/ERC1155/ERC1155.sol\":4385:4436  _safeBatchTransferFrom(from, to, ids, values, data) */\n      jump\t// in\n    tag_129:\n        /* \"@openzeppelin/contracts/token/ERC1155/ERC1155.sol\":4198:4443  {... */\n      pop\n        /* \"@openzeppelin/contracts/token/ERC1155/ERC1155.sol\":4014:4443  function safeBatchTransferFrom(... */\n      pop\n      pop\n      pop\n      pop\n      pop\n      jump\t// out\n        /* \"@openzeppelin/contracts/token/ERC1155/ERC1155.sol\":2536:3088  function balanceOfBatch(... */\n    tag_58:\n        /* \"@openzeppelin/contracts/token/ERC1155/ERC1155.sol\":2660:2676  uint256[] memory */\n      0x60\n        /* \"@openzeppelin/contracts/token/ERC1155/ERC1155.sol\":2711:2714  ids */\n      dup2\n        /* \"@openzeppelin/contracts/token/ERC1155/ERC1155.sol\":2711:2721  ids.length */\n      mload\n        /* \"@openzeppelin/contracts/token/ERC1155/ERC1155.sol\":2692:2700  accounts */\n      dup4\n        /* \"@openzeppelin/contracts/token/ERC1155/ERC1155.sol\":2692:2707  accounts.length */\n      mload\n        /* \"@openzeppelin/contracts/token/ERC1155/ERC1155.sol\":2692:2721  accounts.length != ids.length */\n      eq\n        /* \"@openzeppelin/contracts/token/ERC1155/ERC1155.sol\":2688:2809  if (accounts.length != ids.length) {... */\n      tag_132\n      jumpi\n        /* \"@openzeppelin/contracts/token/ERC1155/ERC1155.sol\":2770:2773  ids */\n      dup2\n        /* \"@openzeppelin/contracts/token/ERC1155/ERC1155.sol\":2770:2780  ids.length */\n      mload\n        /* \"@openzeppelin/contracts/token/ERC1155/ERC1155.sol\":2782:2790  accounts */\n      dup4\n        /* \"@openzeppelin/contracts/token/ERC1155/ERC1155.sol\":2782:2797  accounts.length */\n      mload\n        /* \"@openzeppelin/contracts/token/ERC1155/ERC1155.sol\":2744:2798  ERC1155InvalidArrayLength(ids.length, accounts.length) */\n      mload(0x40)\n      0x5b05999100000000000000000000000000000000000000000000000000000000\n      dup2\n      mstore\n      0x04\n      add\n      tag_133\n      swap3\n      swap2\n      swap1\n      tag_134\n      jump\t// in\n    tag_133:\n      mload(0x40)\n      dup1\n      swap2\n      sub\n      swap1\n      revert\n        /* \"@openzeppelin/contracts/token/ERC1155/ERC1155.sol\":2688:2809  if (accounts.length != ids.length) {... */\n    tag_132:\n        /* \"@openzeppelin/contracts/token/ERC1155/ERC1155.sol\":2819:2849  uint256[] memory batchBalances */\n      0x00\n        /* \"@openzeppelin/contracts/token/ERC1155/ERC1155.sol\":2866:2874  accounts */\n      dup4\n        /* \"@openzeppelin/contracts/token/ERC1155/ERC1155.sol\":2866:2881  accounts.length */\n      mload\n        /* \"@openzeppelin/contracts/token/ERC1155/ERC1155.sol\":2852:2882  new uint256[](accounts.length) */\n      0xffffffffffffffff\n      dup2\n      gt\n      iszero\n      tag_135\n      jumpi\n      tag_136\n      tag_137\n      jump\t// in\n    tag_136:\n    tag_135:\n      mload(0x40)\n      swap1\n      dup1\n      dup3\n      mstore\n      dup1\n      0x20\n      mul\n      0x20\n      add\n      dup3\n      add\n      0x40\n      mstore\n      dup1\n      iszero\n      tag_138\n      jumpi\n      dup2\n      0x20\n      add\n      0x20\n      dup3\n      mul\n      dup1\n      calldatasize\n      dup4\n      calldatacopy\n      dup1\n      dup3\n      add\n      swap2\n      pop\n      pop\n      swap1\n      pop\n    tag_138:\n      pop\n        /* \"@openzeppelin/contracts/token/ERC1155/ERC1155.sol\":2819:2882  uint256[] memory batchBalances = new uint256[](accounts.length) */\n      swap1\n      pop\n        /* \"@openzeppelin/contracts/token/ERC1155/ERC1155.sol\":2898:2907  uint256 i */\n      0x00\n        /* \"@openzeppelin/contracts/token/ERC1155/ERC1155.sol\":2893:3051  for (uint256 i = 0; i < accounts.length; ++i) {... */\n    tag_139:\n        /* \"@openzeppelin/contracts/token/ERC1155/ERC1155.sol\":2917:2925  accounts */\n      dup5\n        /* \"@openzeppelin/contracts/token/ERC1155/ERC1155.sol\":2917:2932  accounts.length */\n      mload\n        /* \"@openzeppelin/contracts/token/ERC1155/ERC1155.sol\":2913:2914  i */\n      dup2\n        /* \"@openzeppelin/contracts/token/ERC1155/ERC1155.sol\":2913:2932  i < accounts.length */\n      lt\n        /* \"@openzeppelin/contracts/token/ERC1155/ERC1155.sol\":2893:3051  for (uint256 i = 0; i < accounts.length; ++i) {... */\n      iszero\n      tag_140\n      jumpi\n        /* \"@openzeppelin/contracts/token/ERC1155/ERC1155.sol\":2972:3040  balanceOf(accounts.unsafeMemoryAccess(i), ids.unsafeMemoryAccess(i)) */\n      tag_142\n        /* \"@openzeppelin/contracts/token/ERC1155/ERC1155.sol\":2982:3012  accounts.unsafeMemoryAccess(i) */\n      tag_143\n        /* \"@openzeppelin/contracts/token/ERC1155/ERC1155.sol\":3010:3011  i */\n      dup3\n        /* \"@openzeppelin/contracts/token/ERC1155/ERC1155.sol\":2982:2990  accounts */\n      dup8\n        /* \"@openzeppelin/contracts/token/ERC1155/ERC1155.sol\":2982:3009  accounts.unsafeMemoryAccess */\n      tag_144\n      swap1\n        /* \"@openzeppelin/contracts/token/ERC1155/ERC1155.sol\":2982:3012  accounts.unsafeMemoryAccess(i) */\n      swap2\n      swap1\n      0xffffffff\n      and\n      jump\t// in\n    tag_143:\n        /* \"@openzeppelin/contracts/token/ERC1155/ERC1155.sol\":3014:3039  ids.unsafeMemoryAccess(i) */\n      tag_145\n        /* \"@openzeppelin/contracts/token/ERC1155/ERC1155.sol\":3037:3038  i */\n      dup4\n        /* \"@openzeppelin/contracts/token/ERC1155/ERC1155.sol\":3014:3017  ids */\n      dup8\n        /* \"@openzeppelin/contracts/token/ERC1155/ERC1155.sol\":3014:3036  ids.unsafeMemoryAccess */\n      tag_146\n      swap1\n        /* \"@openzeppelin/contracts/token/ERC1155/ERC1155.sol\":3014:3039  ids.unsafeMemoryAccess(i) */\n      swap2\n      swap1\n      0xffffffff\n      and\n      jump\t// in\n    tag_145:\n        /* \"@openzeppelin/contracts/token/ERC1155/ERC1155.sol\":2972:2981  balanceOf */\n      tag_21\n        /* \"@openzeppelin/contracts/token/ERC1155/ERC1155.sol\":2972:3040  balanceOf(accounts.unsafeMemoryAccess(i), ids.unsafeMemoryAccess(i)) */\n      jump\t// in\n    tag_142:\n        /* \"@openzeppelin/contracts/token/ERC1155/ERC1155.sol\":2953:2966  batchBalances */\n      dup3\n        /* \"@openzeppelin/contracts/token/ERC1155/ERC1155.sol\":2967:2968  i */\n      dup3\n        /* \"@openzeppelin/contracts/token/ERC1155/ERC1155.sol\":2953:2969  batchBalances[i] */\n      dup2\n      mload\n      dup2\n      lt\n      tag_147\n      jumpi\n      tag_148\n      tag_98\n      jump\t// in\n    tag_148:\n    tag_147:\n      0x20\n      mul\n      0x20\n      add\n      add\n        /* \"@openzeppelin/contracts/token/ERC1155/ERC1155.sol\":2953:3040  batchBalances[i] = balanceOf(accounts.unsafeMemoryAccess(i), ids.unsafeMemoryAccess(i)) */\n      dup2\n      dup2\n      mstore\n      pop\n      pop\n        /* \"@openzeppelin/contracts/token/ERC1155/ERC1155.sol\":2934:2937  ++i */\n      dup1\n      0x01\n      add\n      swap1\n      pop\n        /* \"@openzeppelin/contracts/token/ERC1155/ERC1155.sol\":2893:3051  for (uint256 i = 0; i < accounts.length; ++i) {... */\n      jump(tag_139)\n    tag_140:\n      pop\n        /* \"@openzeppelin/contracts/token/ERC1155/ERC1155.sol\":3068:3081  batchBalances */\n      dup1\n        /* \"@openzeppelin/contracts/token/ERC1155/ERC1155.sol\":3061:3081  return batchBalances */\n      swap2\n      pop\n      pop\n        /* \"@openzeppelin/contracts/token/ERC1155/ERC1155.sol\":2536:3088  function balanceOfBatch(... */\n      swap3\n      swap2\n      pop\n      pop\n      jump\t// out\n        /* \"ICO_Test.sol\":1177:1219  function getMintedAmount() public {... */\n    tag_63:\n      jump\t// out\n        /* \"@openzeppelin/contracts/token/ERC1155/ERC1155.sol\":3156:3300  function setApprovalForAll(address operator, bool approved) public virtual {... */\n    tag_68:\n        /* \"@openzeppelin/contracts/token/ERC1155/ERC1155.sol\":3241:3293  _setApprovalForAll(_msgSender(), operator, approved) */\n      tag_151\n        /* \"@openzeppelin/contracts/token/ERC1155/ERC1155.sol\":3260:3272  _msgSender() */\n      tag_152\n        /* \"@openzeppelin/contracts/token/ERC1155/ERC1155.sol\":3260:3270  _msgSender */\n      tag_123\n        /* \"@openzeppelin/contracts/token/ERC1155/ERC1155.sol\":3260:3272  _msgSender() */\n      jump\t// in\n    tag_152:\n        /* \"@openzeppelin/contracts/token/ERC1155/ERC1155.sol\":3274:3282  operator */\n      dup4\n        /* \"@openzeppelin/contracts/token/ERC1155/ERC1155.sol\":3284:3292  approved */\n      dup4\n        /* \"@openzeppelin/contracts/token/ERC1155/ERC1155.sol\":3241:3259  _setApprovalForAll */\n      tag_153\n        /* \"@openzeppelin/contracts/token/ERC1155/ERC1155.sol\":3241:3293  _setApprovalForAll(_msgSender(), operator, approved) */\n      jump\t// in\n    tag_151:\n        /* \"@openzeppelin/contracts/token/ERC1155/ERC1155.sol\":3156:3300  function setApprovalForAll(address operator, bool approved) public virtual {... */\n      pop\n      pop\n      jump\t// out\n        /* \"ICO_Test.sol\":768:1133  function giveTokens() public {... */\n    tag_71:\n        /* \"ICO_Test.sol\":829:834  owner */\n      0x07\n      0x00\n      swap1\n      sload\n      swap1\n      0x0100\n      exp\n      swap1\n      div\n      0xffffffffffffffffffffffffffffffffffffffff\n      and\n        /* \"ICO_Test.sol\":815:834  msg.sender == owner */\n      0xffffffffffffffffffffffffffffffffffffffff\n      and\n        /* \"ICO_Test.sol\":815:825  msg.sender */\n      caller\n        /* \"ICO_Test.sol\":815:834  msg.sender == owner */\n      0xffffffffffffffffffffffffffffffffffffffff\n      and\n      eq\n        /* \"ICO_Test.sol\":807:835  require(msg.sender == owner) */\n      tag_155\n      jumpi\n      0x00\n      dup1\n      revert\n    tag_155:\n        /* \"ICO_Test.sol\":854:876  uint[] memory tokenIds */\n      0x00\n        /* \"ICO_Test.sol\":891:892  4 */\n      0x04\n        /* \"ICO_Test.sol\":879:893  new uint[] (4) */\n      0xffffffffffffffff\n      dup2\n      gt\n      iszero\n      tag_156\n      jumpi\n      tag_157\n      tag_137\n      jump\t// in\n    tag_157:\n    tag_156:\n      mload(0x40)\n      swap1\n      dup1\n      dup3\n      mstore\n      dup1\n      0x20\n      mul\n      0x20\n      add\n      dup3\n      add\n      0x40\n      mstore\n      dup1\n      iszero\n      tag_158\n      jumpi\n      dup2\n      0x20\n      add\n      0x20\n      dup3\n      mul\n      dup1\n      calldatasize\n      dup4\n      calldatacopy\n      dup1\n      dup3\n      add\n      swap2\n      pop\n      pop\n      swap1\n      pop\n    tag_158:\n      pop\n        /* \"ICO_Test.sol\":854:893  uint[] memory tokenIds = new uint[] (4) */\n      swap1\n      pop\n        /* \"ICO_Test.sol\":907:913  uint i */\n      0x00\n        /* \"ICO_Test.sol\":903:967  for(uint i=0;i<4;i++) {... */\n    tag_159:\n        /* \"ICO_Test.sol\":918:919  4 */\n      0x04\n        /* \"ICO_Test.sol\":916:917  i */\n      dup2\n        /* \"ICO_Test.sol\":916:919  i<4 */\n      lt\n        /* \"ICO_Test.sol\":903:967  for(uint i=0;i<4;i++) {... */\n      iszero\n      tag_160\n      jumpi\n        /* \"ICO_Test.sol\":955:956  1 */\n      0x01\n        /* \"ICO_Test.sol\":953:954  i */\n      dup2\n        /* \"ICO_Test.sol\":953:956  i+1 */\n      tag_162\n      swap2\n      swap1\n      tag_163\n      jump\t// in\n    tag_162:\n        /* \"ICO_Test.sol\":939:947  tokenIds */\n      dup3\n        /* \"ICO_Test.sol\":948:949  i */\n      dup3\n        /* \"ICO_Test.sol\":939:950  tokenIds[i] */\n      dup2\n      mload\n      dup2\n      lt\n      tag_164\n      jumpi\n      tag_165\n      tag_98\n      jump\t// in\n    tag_165:\n    tag_164:\n      0x20\n      mul\n      0x20\n      add\n      add\n        /* \"ICO_Test.sol\":939:956  tokenIds[i] = i+1 */\n      dup2\n      dup2\n      mstore\n      pop\n      pop\n        /* \"ICO_Test.sol\":920:923  i++ */\n      dup1\n      dup1\n      0x01\n      add\n      swap2\n      pop\n      pop\n        /* \"ICO_Test.sol\":903:967  for(uint i=0;i<4;i++) {... */\n      jump(tag_159)\n    tag_160:\n      pop\n        /* \"ICO_Test.sol\":981:987  uint j */\n      0x00\n        /* \"ICO_Test.sol\":977:1127  for(uint j=0; j<users.length;j++) {... */\n    tag_166:\n        /* \"ICO_Test.sol\":993:998  users */\n      0x08\n        /* \"ICO_Test.sol\":993:1005  users.length */\n      dup1\n      sload\n      swap1\n      pop\n        /* \"ICO_Test.sol\":991:992  j */\n      dup2\n        /* \"ICO_Test.sol\":991:1005  j<users.length */\n      lt\n        /* \"ICO_Test.sol\":977:1127  for(uint j=0; j<users.length;j++) {... */\n      iszero\n      tag_167\n      jumpi\n        /* \"ICO_Test.sol\":1025:1116  safeBatchTransferFrom(address(this), users[j].addr, tokenIds, users[j].tokensBought, \"0x0\") */\n      tag_169\n        /* \"ICO_Test.sol\":1055:1059  this */\n      address\n        /* \"ICO_Test.sol\":1062:1067  users */\n      0x08\n        /* \"ICO_Test.sol\":1068:1069  j */\n      dup4\n        /* \"ICO_Test.sol\":1062:1070  users[j] */\n      dup2\n      sload\n      dup2\n      lt\n      tag_170\n      jumpi\n      tag_171\n      tag_98\n      jump\t// in\n    tag_171:\n    tag_170:\n      swap1\n      0x00\n      mstore\n      keccak256(0x00, 0x20)\n      swap1\n      0x02\n      mul\n      add\n        /* \"ICO_Test.sol\":1062:1075  users[j].addr */\n      0x00\n      add\n      0x00\n      swap1\n      sload\n      swap1\n      0x0100\n      exp\n      swap1\n      div\n      0xffffffffffffffffffffffffffffffffffffffff\n      and\n        /* \"ICO_Test.sol\":1077:1085  tokenIds */\n      dup5\n        /* \"ICO_Test.sol\":1087:1092  users */\n      0x08\n        /* \"ICO_Test.sol\":1093:1094  j */\n      dup6\n        /* \"ICO_Test.sol\":1087:1095  users[j] */\n      dup2\n      sload\n      dup2\n      lt\n      tag_173\n      jumpi\n      tag_174\n      tag_98\n      jump\t// in\n    tag_174:\n    tag_173:\n      swap1\n      0x00\n      mstore\n      keccak256(0x00, 0x20)\n      swap1\n      0x02\n      mul\n      add\n        /* \"ICO_Test.sol\":1087:1108  users[j].tokensBought */\n      0x01\n      add\n        /* \"ICO_Test.sol\":1025:1116  safeBatchTransferFrom(address(this), users[j].addr, tokenIds, users[j].tokensBought, \"0x0\") */\n      dup1\n      sload\n      dup1\n      0x20\n      mul\n      0x20\n      add\n      mload(0x40)\n      swap1\n      dup2\n      add\n      0x40\n      mstore\n      dup1\n      swap3\n      swap2\n      swap1\n      dup2\n      dup2\n      mstore\n      0x20\n      add\n      dup3\n      dup1\n      sload\n      dup1\n      iszero\n      tag_176\n      jumpi\n      0x20\n      mul\n      dup3\n      add\n      swap2\n      swap1\n      0x00\n      mstore\n      keccak256(0x00, 0x20)\n      swap1\n    tag_177:\n      dup2\n      sload\n      dup2\n      mstore\n      0x20\n      add\n      swap1\n      0x01\n      add\n      swap1\n      dup1\n      dup4\n      gt\n      tag_177\n      jumpi\n    tag_176:\n      pop\n      pop\n      pop\n      pop\n      pop\n      mload(0x40)\n      dup1\n      0x40\n      add\n      0x40\n      mstore\n      dup1\n      0x03\n      dup2\n      mstore\n      0x20\n      add\n      0x3078300000000000000000000000000000000000000000000000000000000000\n      dup2\n      mstore\n      pop\n        /* \"ICO_Test.sol\":1025:1046  safeBatchTransferFrom */\n      tag_53\n        /* \"ICO_Test.sol\":1025:1116  safeBatchTransferFrom(address(this), users[j].addr, tokenIds, users[j].tokensBought, \"0x0\") */\n      jump\t// in\n    tag_169:\n        /* \"ICO_Test.sol\":1006:1009  j++ */\n      dup1\n      dup1\n      0x01\n      add\n      swap2\n      pop\n      pop\n        /* \"ICO_Test.sol\":977:1127  for(uint j=0; j<users.length;j++) {... */\n      jump(tag_166)\n    tag_167:\n      pop\n        /* \"ICO_Test.sol\":797:1133  {... */\n      pop\n        /* \"ICO_Test.sol\":768:1133  function giveTokens() public {... */\n      jump\t// out\n        /* \"@openzeppelin/contracts/token/ERC1155/ERC1155.sol\":3367:3524  function isApprovedForAll(address account, address operator) public view virtual returns (bool) {... */\n    tag_76:\n        /* \"@openzeppelin/contracts/token/ERC1155/ERC1155.sol\":3457:3461  bool */\n      0x00\n        /* \"@openzeppelin/contracts/token/ERC1155/ERC1155.sol\":3480:3498  _operatorApprovals */\n      0x01\n        /* \"@openzeppelin/contracts/token/ERC1155/ERC1155.sol\":3480:3507  _operatorApprovals[account] */\n      0x00\n        /* \"@openzeppelin/contracts/token/ERC1155/ERC1155.sol\":3499:3506  account */\n      dup5\n        /* \"@openzeppelin/contracts/token/ERC1155/ERC1155.sol\":3480:3507  _operatorApprovals[account] */\n      0xffffffffffffffffffffffffffffffffffffffff\n      and\n      0xffffffffffffffffffffffffffffffffffffffff\n      and\n      dup2\n      mstore\n      0x20\n      add\n      swap1\n      dup2\n      mstore\n      0x20\n      add\n      0x00\n      keccak256\n        /* \"@openzeppelin/contracts/token/ERC1155/ERC1155.sol\":3480:3517  _operatorApprovals[account][operator] */\n      0x00\n        /* \"@openzeppelin/contracts/token/ERC1155/ERC1155.sol\":3508:3516  operator */\n      dup4\n        /* \"@openzeppelin/contracts/token/ERC1155/ERC1155.sol\":3480:3517  _operatorApprovals[account][operator] */\n      0xffffffffffffffffffffffffffffffffffffffff\n      and\n      0xffffffffffffffffffffffffffffffffffffffff\n      and\n      dup2\n      mstore\n      0x20\n      add\n      swap1\n      dup2\n      mstore\n      0x20\n      add\n      0x00\n      keccak256\n      0x00\n      swap1\n      sload\n      swap1\n      0x0100\n      exp\n      swap1\n      div\n      0xff\n      and\n        /* \"@openzeppelin/contracts/token/ERC1155/ERC1155.sol\":3473:3517  return _operatorApprovals[account][operator] */\n      swap1\n      pop\n        /* \"@openzeppelin/contracts/token/ERC1155/ERC1155.sol\":3367:3524  function isApprovedForAll(address account, address operator) public view virtual returns (bool) {... */\n      swap3\n      swap2\n      pop\n      pop\n      jump\t// out\n        /* \"@openzeppelin/contracts/token/ERC1155/ERC1155.sol\":3591:3942  function safeTransferFrom(address from, address to, uint256 id, uint256 value, bytes memory data) public virtual {... */\n    tag_82:\n        /* \"@openzeppelin/contracts/token/ERC1155/ERC1155.sol\":3714:3728  address sender */\n      0x00\n        /* \"@openzeppelin/contracts/token/ERC1155/ERC1155.sol\":3731:3743  _msgSender() */\n      tag_180\n        /* \"@openzeppelin/contracts/token/ERC1155/ERC1155.sol\":3731:3741  _msgSender */\n      tag_123\n        /* \"@openzeppelin/contracts/token/ERC1155/ERC1155.sol\":3731:3743  _msgSender() */\n      jump\t// in\n    tag_180:\n        /* \"@openzeppelin/contracts/token/ERC1155/ERC1155.sol\":3714:3743  address sender = _msgSender() */\n      swap1\n      pop\n        /* \"@openzeppelin/contracts/token/ERC1155/ERC1155.sol\":3765:3771  sender */\n      dup1\n        /* \"@openzeppelin/contracts/token/ERC1155/ERC1155.sol\":3757:3771  from != sender */\n      0xffffffffffffffffffffffffffffffffffffffff\n      and\n        /* \"@openzeppelin/contracts/token/ERC1155/ERC1155.sol\":3757:3761  from */\n      dup7\n        /* \"@openzeppelin/contracts/token/ERC1155/ERC1155.sol\":3757:3771  from != sender */\n      0xffffffffffffffffffffffffffffffffffffffff\n      and\n      eq\n      iszero\n        /* \"@openzeppelin/contracts/token/ERC1155/ERC1155.sol\":3757:3806  from != sender && !isApprovedForAll(from, sender) */\n      dup1\n      iszero\n      tag_181\n      jumpi\n      pop\n        /* \"@openzeppelin/contracts/token/ERC1155/ERC1155.sol\":3776:3806  isApprovedForAll(from, sender) */\n      tag_182\n        /* \"@openzeppelin/contracts/token/ERC1155/ERC1155.sol\":3793:3797  from */\n      dup7\n        /* \"@openzeppelin/contracts/token/ERC1155/ERC1155.sol\":3799:3805  sender */\n      dup3\n        /* \"@openzeppelin/contracts/token/ERC1155/ERC1155.sol\":3776:3792  isApprovedForAll */\n      tag_76\n        /* \"@openzeppelin/contracts/token/ERC1155/ERC1155.sol\":3776:3806  isApprovedForAll(from, sender) */\n      jump\t// in\n    tag_182:\n        /* \"@openzeppelin/contracts/token/ERC1155/ERC1155.sol\":3775:3806  !isApprovedForAll(from, sender) */\n      iszero\n        /* \"@openzeppelin/contracts/token/ERC1155/ERC1155.sol\":3757:3806  from != sender && !isApprovedForAll(from, sender) */\n    tag_181:\n        /* \"@openzeppelin/contracts/token/ERC1155/ERC1155.sol\":3753:3882  if (from != sender && !isApprovedForAll(from, sender)) {... */\n      iszero\n      tag_183\n      jumpi\n        /* \"@openzeppelin/contracts/token/ERC1155/ERC1155.sol\":3858:3864  sender */\n      dup1\n        /* \"@openzeppelin/contracts/token/ERC1155/ERC1155.sol\":3866:3870  from */\n      dup7\n        /* \"@openzeppelin/contracts/token/ERC1155/ERC1155.sol\":3829:3871  ERC1155MissingApprovalForAll(sender, from) */\n      mload(0x40)\n      0xe237d92200000000000000000000000000000000000000000000000000000000\n      dup2\n      mstore\n      0x04\n      add\n      tag_184\n      swap3\n      swap2\n      swap1\n      tag_128\n      jump\t// in\n    tag_184:\n      mload(0x40)\n      dup1\n      swap2\n      sub\n      swap1\n      revert\n        /* \"@openzeppelin/contracts/token/ERC1155/ERC1155.sol\":3753:3882  if (from != sender && !isApprovedForAll(from, sender)) {... */\n    tag_183:\n        /* \"@openzeppelin/contracts/token/ERC1155/ERC1155.sol\":3891:3935  _safeTransferFrom(from, to, id, value, data) */\n      tag_185\n        /* \"@openzeppelin/contracts/token/ERC1155/ERC1155.sol\":3909:3913  from */\n      dup7\n        /* \"@openzeppelin/contracts/token/ERC1155/ERC1155.sol\":3915:3917  to */\n      dup7\n        /* \"@openzeppelin/contracts/token/ERC1155/ERC1155.sol\":3919:3921  id */\n      dup7\n        /* \"@openzeppelin/contracts/token/ERC1155/ERC1155.sol\":3923:3928  value */\n      dup7\n        /* \"@openzeppelin/contracts/token/ERC1155/ERC1155.sol\":3930:3934  data */\n      dup7\n        /* \"@openzeppelin/contracts/token/ERC1155/ERC1155.sol\":3891:3908  _safeTransferFrom */\n      tag_186\n        /* \"@openzeppelin/contracts/token/ERC1155/ERC1155.sol\":3891:3935  _safeTransferFrom(from, to, id, value, data) */\n      jump\t// in\n    tag_185:\n        /* \"@openzeppelin/contracts/token/ERC1155/ERC1155.sol\":3704:3942  {... */\n      pop\n        /* \"@openzeppelin/contracts/token/ERC1155/ERC1155.sol\":3591:3942  function safeTransferFrom(address from, address to, uint256 id, uint256 value, bytes memory data) public virtual {... */\n      pop\n      pop\n      pop\n      pop\n      pop\n      jump\t// out\n        /* \"@openzeppelin/contracts/utils/introspection/ERC165.sol\":762:908  function supportsInterface(bytes4 interfaceId) public view virtual returns (bool) {... */\n    tag_88:\n        /* \"@openzeppelin/contracts/utils/introspection/ERC165.sol\":838:842  bool */\n      0x00\n        /* \"@openzeppelin/contracts/utils/introspection/ERC165.sol\":876:901  type(IERC165).interfaceId */\n      0x01ffc9a700000000000000000000000000000000000000000000000000000000\n        /* \"@openzeppelin/contracts/utils/introspection/ERC165.sol\":861:901  interfaceId == type(IERC165).interfaceId */\n      not(0xffffffffffffffffffffffffffffffffffffffffffffffffffffffff)\n      and\n        /* \"@openzeppelin/contracts/utils/introspection/ERC165.sol\":861:872  interfaceId */\n      dup3\n        /* \"@openzeppelin/contracts/utils/introspection/ERC165.sol\":861:901  interfaceId == type(IERC165).interfaceId */\n      not(0xffffffffffffffffffffffffffffffffffffffffffffffffffffffff)\n      and\n      eq\n        /* \"@openzeppelin/contracts/utils/introspection/ERC165.sol\":854:901  return interfaceId == type(IERC165).interfaceId */\n      swap1\n      pop\n        /* \"@openzeppelin/contracts/utils/introspection/ERC165.sol\":762:908  function supportsInterface(bytes4 interfaceId) public view virtual returns (bool) {... */\n      swap2\n      swap1\n      pop\n      jump\t// out\n        /* \"@openzeppelin/contracts/utils/Context.sol\":656:752  function _msgSender() internal view virtual returns (address) {... */\n    tag_123:\n        /* \"@openzeppelin/contracts/utils/Context.sol\":709:716  address */\n      0x00\n        /* \"@openzeppelin/contracts/utils/Context.sol\":735:745  msg.sender */\n      caller\n        /* \"@openzeppelin/contracts/utils/Context.sol\":728:745  return msg.sender */\n      swap1\n      pop\n        /* \"@openzeppelin/contracts/utils/Context.sol\":656:752  function _msgSender() internal view virtual returns (address) {... */\n      swap1\n      jump\t// out\n        /* \"@openzeppelin/contracts/token/ERC1155/ERC1155.sol\":9015:9460  function _safeBatchTransferFrom(... */\n    tag_130:\n        /* \"@openzeppelin/contracts/token/ERC1155/ERC1155.sol\":9222:9223  0 */\n      0x00\n        /* \"@openzeppelin/contracts/token/ERC1155/ERC1155.sol\":9208:9224  to == address(0) */\n      0xffffffffffffffffffffffffffffffffffffffff\n      and\n        /* \"@openzeppelin/contracts/token/ERC1155/ERC1155.sol\":9208:9210  to */\n      dup5\n        /* \"@openzeppelin/contracts/token/ERC1155/ERC1155.sol\":9208:9224  to == address(0) */\n      0xffffffffffffffffffffffffffffffffffffffff\n      and\n      sub\n        /* \"@openzeppelin/contracts/token/ERC1155/ERC1155.sol\":9204:9292  if (to == address(0)) {... */\n      tag_190\n      jumpi\n        /* \"@openzeppelin/contracts/token/ERC1155/ERC1155.sol\":9278:9279  0 */\n      0x00\n        /* \"@openzeppelin/contracts/token/ERC1155/ERC1155.sol\":9247:9281  ERC1155InvalidReceiver(address(0)) */\n      mload(0x40)\n      0x57f447ce00000000000000000000000000000000000000000000000000000000\n      dup2\n      mstore\n      0x04\n      add\n      tag_191\n      swap2\n      swap1\n      tag_192\n      jump\t// in\n    tag_191:\n      mload(0x40)\n      dup1\n      swap2\n      sub\n      swap1\n      revert\n        /* \"@openzeppelin/contracts/token/ERC1155/ERC1155.sol\":9204:9292  if (to == address(0)) {... */\n    tag_190:\n        /* \"@openzeppelin/contracts/token/ERC1155/ERC1155.sol\":9321:9322  0 */\n      0x00\n        /* \"@openzeppelin/contracts/token/ERC1155/ERC1155.sol\":9305:9323  from == address(0) */\n      0xffffffffffffffffffffffffffffffffffffffff\n      and\n        /* \"@openzeppelin/contracts/token/ERC1155/ERC1155.sol\":9305:9309  from */\n      dup6\n        /* \"@openzeppelin/contracts/token/ERC1155/ERC1155.sol\":9305:9323  from == address(0) */\n      0xffffffffffffffffffffffffffffffffffffffff\n      and\n      sub\n        /* \"@openzeppelin/contracts/token/ERC1155/ERC1155.sol\":9301:9389  if (from == address(0)) {... */\n      tag_193\n      jumpi\n        /* \"@openzeppelin/contracts/token/ERC1155/ERC1155.sol\":9375:9376  0 */\n      0x00\n        /* \"@openzeppelin/contracts/token/ERC1155/ERC1155.sol\":9346:9378  ERC1155InvalidSender(address(0)) */\n      mload(0x40)\n      0x01a8351400000000000000000000000000000000000000000000000000000000\n      dup2\n      mstore\n      0x04\n      add\n      tag_194\n      swap2\n      swap1\n      tag_192\n      jump\t// in\n    tag_194:\n      mload(0x40)\n      dup1\n      swap2\n      sub\n      swap1\n      revert\n        /* \"@openzeppelin/contracts/token/ERC1155/ERC1155.sol\":9301:9389  if (from == address(0)) {... */\n    tag_193:\n        /* \"@openzeppelin/contracts/token/ERC1155/ERC1155.sol\":9398:9453  _updateWithAcceptanceCheck(from, to, ids, values, data) */\n      tag_195\n        /* \"@openzeppelin/contracts/token/ERC1155/ERC1155.sol\":9425:9429  from */\n      dup6\n        /* \"@openzeppelin/contracts/token/ERC1155/ERC1155.sol\":9431:9433  to */\n      dup6\n        /* \"@openzeppelin/contracts/token/ERC1155/ERC1155.sol\":9435:9438  ids */\n      dup6\n        /* \"@openzeppelin/contracts/token/ERC1155/ERC1155.sol\":9440:9446  values */\n      dup6\n        /* \"@openzeppelin/contracts/token/ERC1155/ERC1155.sol\":9448:9452  data */\n      dup6\n        /* \"@openzeppelin/contracts/token/ERC1155/ERC1155.sol\":9398:9424  _updateWithAcceptanceCheck */\n      tag_196\n        /* \"@openzeppelin/contracts/token/ERC1155/ERC1155.sol\":9398:9453  _updateWithAcceptanceCheck(from, to, ids, values, data) */\n      jump\t// in\n    tag_195:\n        /* \"@openzeppelin/contracts/token/ERC1155/ERC1155.sol\":9015:9460  function _safeBatchTransferFrom(... */\n      pop\n      pop\n      pop\n      pop\n      pop\n      jump\t// out\n        /* \"@openzeppelin/contracts/utils/Arrays.sol\":4603:4800  function unsafeMemoryAccess(address[] memory arr, uint256 pos) internal pure returns (address res) {... */\n    tag_144:\n        /* \"@openzeppelin/contracts/utils/Arrays.sol\":4689:4700  address res */\n      0x00\n        /* \"@openzeppelin/contracts/utils/Arrays.sol\":4777:4781  0x20 */\n      0x20\n        /* \"@openzeppelin/contracts/utils/Arrays.sol\":4772:4775  pos */\n      dup3\n        /* \"@openzeppelin/contracts/utils/Arrays.sol\":4768:4782  mul(pos, 0x20) */\n      mul\n        /* \"@openzeppelin/contracts/utils/Arrays.sol\":4761:4765  0x20 */\n      0x20\n        /* \"@openzeppelin/contracts/utils/Arrays.sol\":4756:4759  arr */\n      dup5\n        /* \"@openzeppelin/contracts/utils/Arrays.sol\":4752:4766  add(arr, 0x20) */\n      add\n        /* \"@openzeppelin/contracts/utils/Arrays.sol\":4748:4783  add(add(arr, 0x20), mul(pos, 0x20)) */\n      add\n        /* \"@openzeppelin/contracts/utils/Arrays.sol\":4742:4784  mload(add(add(arr, 0x20), mul(pos, 0x20))) */\n      mload\n        /* \"@openzeppelin/contracts/utils/Arrays.sol\":4735:4784  res := mload(add(add(arr, 0x20), mul(pos, 0x20))) */\n      swap1\n      pop\n        /* \"@openzeppelin/contracts/utils/Arrays.sol\":4603:4800  function unsafeMemoryAccess(address[] memory arr, uint256 pos) internal pure returns (address res) {... */\n      swap3\n      swap2\n      pop\n      pop\n      jump\t// out\n        /* \"@openzeppelin/contracts/utils/Arrays.sol\":4204:4401  function unsafeMemoryAccess(uint256[] memory arr, uint256 pos) internal pure returns (uint256 res) {... */\n    tag_146:\n        /* \"@openzeppelin/contracts/utils/Arrays.sol\":4290:4301  uint256 res */\n      0x00\n        /* \"@openzeppelin/contracts/utils/Arrays.sol\":4378:4382  0x20 */\n      0x20\n        /* \"@openzeppelin/contracts/utils/Arrays.sol\":4373:4376  pos */\n      dup3\n        /* \"@openzeppelin/contracts/utils/Arrays.sol\":4369:4383  mul(pos, 0x20) */\n      mul\n        /* \"@openzeppelin/contracts/utils/Arrays.sol\":4362:4366  0x20 */\n      0x20\n        /* \"@openzeppelin/contracts/utils/Arrays.sol\":4357:4360  arr */\n      dup5\n        /* \"@openzeppelin/contracts/utils/Arrays.sol\":4353:4367  add(arr, 0x20) */\n      add\n        /* \"@openzeppelin/contracts/utils/Arrays.sol\":4349:4384  add(add(arr, 0x20), mul(pos, 0x20)) */\n      add\n        /* \"@openzeppelin/contracts/utils/Arrays.sol\":4343:4385  mload(add(add(arr, 0x20), mul(pos, 0x20))) */\n      mload\n        /* \"@openzeppelin/contracts/utils/Arrays.sol\":4336:4385  res := mload(add(add(arr, 0x20), mul(pos, 0x20))) */\n      swap1\n      pop\n        /* \"@openzeppelin/contracts/utils/Arrays.sol\":4204:4401  function unsafeMemoryAccess(uint256[] memory arr, uint256 pos) internal pure returns (uint256 res) {... */\n      swap3\n      swap2\n      pop\n      pop\n      jump\t// out\n        /* \"@openzeppelin/contracts/token/ERC1155/ERC1155.sol\":13268:13583  function _setApprovalForAll(address owner, address operator, bool approved) internal virtual {... */\n    tag_153:\n        /* \"@openzeppelin/contracts/token/ERC1155/ERC1155.sol\":13395:13396  0 */\n      0x00\n        /* \"@openzeppelin/contracts/token/ERC1155/ERC1155.sol\":13375:13397  operator == address(0) */\n      0xffffffffffffffffffffffffffffffffffffffff\n      and\n        /* \"@openzeppelin/contracts/token/ERC1155/ERC1155.sol\":13375:13383  operator */\n      dup3\n        /* \"@openzeppelin/contracts/token/ERC1155/ERC1155.sol\":13375:13397  operator == address(0) */\n      0xffffffffffffffffffffffffffffffffffffffff\n      and\n      sub\n        /* \"@openzeppelin/contracts/token/ERC1155/ERC1155.sol\":13371:13465  if (operator == address(0)) {... */\n      tag_200\n      jumpi\n        /* \"@openzeppelin/contracts/token/ERC1155/ERC1155.sol\":13451:13452  0 */\n      0x00\n        /* \"@openzeppelin/contracts/token/ERC1155/ERC1155.sol\":13420:13454  ERC1155InvalidOperator(address(0)) */\n      mload(0x40)\n      0xced3e10000000000000000000000000000000000000000000000000000000000\n      dup2\n      mstore\n      0x04\n      add\n      tag_201\n      swap2\n      swap1\n      tag_192\n      jump\t// in\n    tag_201:\n      mload(0x40)\n      dup1\n      swap2\n      sub\n      swap1\n      revert\n        /* \"@openzeppelin/contracts/token/ERC1155/ERC1155.sol\":13371:13465  if (operator == address(0)) {... */\n    tag_200:\n        /* \"@openzeppelin/contracts/token/ERC1155/ERC1155.sol\":13512:13520  approved */\n      dup1\n        /* \"@openzeppelin/contracts/token/ERC1155/ERC1155.sol\":13474:13492  _operatorApprovals */\n      0x01\n        /* \"@openzeppelin/contracts/token/ERC1155/ERC1155.sol\":13474:13499  _operatorApprovals[owner] */\n      0x00\n        /* \"@openzeppelin/contracts/token/ERC1155/ERC1155.sol\":13493:13498  owner */\n      dup6\n        /* \"@openzeppelin/contracts/token/ERC1155/ERC1155.sol\":13474:13499  _operatorApprovals[owner] */\n      0xffffffffffffffffffffffffffffffffffffffff\n      and\n      0xffffffffffffffffffffffffffffffffffffffff\n      and\n      dup2\n      mstore\n      0x20\n      add\n      swap1\n      dup2\n      mstore\n      0x20\n      add\n      0x00\n      keccak256\n        /* \"@openzeppelin/contracts/token/ERC1155/ERC1155.sol\":13474:13509  _operatorApprovals[owner][operator] */\n      0x00\n        /* \"@openzeppelin/contracts/token/ERC1155/ERC1155.sol\":13500:13508  operator */\n      dup5\n        /* \"@openzeppelin/contracts/token/ERC1155/ERC1155.sol\":13474:13509  _operatorApprovals[owner][operator] */\n      0xffffffffffffffffffffffffffffffffffffffff\n      and\n      0xffffffffffffffffffffffffffffffffffffffff\n      and\n      dup2\n      mstore\n      0x20\n      add\n      swap1\n      dup2\n      mstore\n      0x20\n      add\n      0x00\n      keccak256\n      0x00\n        /* \"@openzeppelin/contracts/token/ERC1155/ERC1155.sol\":13474:13520  _operatorApprovals[owner][operator] = approved */\n      0x0100\n      exp\n      dup2\n      sload\n      dup2\n      0xff\n      mul\n      not\n      and\n      swap1\n      dup4\n      iszero\n      iszero\n      mul\n      or\n      swap1\n      sstore\n      pop\n        /* \"@openzeppelin/contracts/token/ERC1155/ERC1155.sol\":13557:13565  operator */\n      dup2\n        /* \"@openzeppelin/contracts/token/ERC1155/ERC1155.sol\":13535:13576  ApprovalForAll(owner, operator, approved) */\n      0xffffffffffffffffffffffffffffffffffffffff\n      and\n        /* \"@openzeppelin/contracts/token/ERC1155/ERC1155.sol\":13550:13555  owner */\n      dup4\n        /* \"@openzeppelin/contracts/token/ERC1155/ERC1155.sol\":13535:13576  ApprovalForAll(owner, operator, approved) */\n      0xffffffffffffffffffffffffffffffffffffffff\n      and\n      0x17307eab39ab6107e8899845ad3d59bd9653f200f220920489ca2b5937696c31\n        /* \"@openzeppelin/contracts/token/ERC1155/ERC1155.sol\":13567:13575  approved */\n      dup4\n        /* \"@openzeppelin/contracts/token/ERC1155/ERC1155.sol\":13535:13576  ApprovalForAll(owner, operator, approved) */\n      mload(0x40)\n      tag_202\n      swap2\n      swap1\n      tag_30\n      jump\t// in\n    tag_202:\n      mload(0x40)\n      dup1\n      swap2\n      sub\n      swap1\n      log3\n        /* \"@openzeppelin/contracts/token/ERC1155/ERC1155.sol\":13268:13583  function _setApprovalForAll(address owner, address operator, bool approved) internal virtual {... */\n      pop\n      pop\n      pop\n      jump\t// out\n        /* \"@openzeppelin/contracts/token/ERC1155/ERC1155.sol\":8151:8614  function _safeTransferFrom(address from, address to, uint256 id, uint256 value, bytes memory data) internal {... */\n    tag_186:\n        /* \"@openzeppelin/contracts/token/ERC1155/ERC1155.sol\":8287:8288  0 */\n      0x00\n        /* \"@openzeppelin/contracts/token/ERC1155/ERC1155.sol\":8273:8289  to == address(0) */\n      0xffffffffffffffffffffffffffffffffffffffff\n      and\n        /* \"@openzeppelin/contracts/token/ERC1155/ERC1155.sol\":8273:8275  to */\n      dup5\n        /* \"@openzeppelin/contracts/token/ERC1155/ERC1155.sol\":8273:8289  to == address(0) */\n      0xffffffffffffffffffffffffffffffffffffffff\n      and\n      sub\n        /* \"@openzeppelin/contracts/token/ERC1155/ERC1155.sol\":8269:8357  if (to == address(0)) {... */\n      tag_204\n      jumpi\n        /* \"@openzeppelin/contracts/token/ERC1155/ERC1155.sol\":8343:8344  0 */\n      0x00\n        /* \"@openzeppelin/contracts/token/ERC1155/ERC1155.sol\":8312:8346  ERC1155InvalidReceiver(address(0)) */\n      mload(0x40)\n      0x57f447ce00000000000000000000000000000000000000000000000000000000\n      dup2\n      mstore\n      0x04\n      add\n      tag_205\n      swap2\n      swap1\n      tag_192\n      jump\t// in\n    tag_205:\n      mload(0x40)\n      dup1\n      swap2\n      sub\n      swap1\n      revert\n        /* \"@openzeppelin/contracts/token/ERC1155/ERC1155.sol\":8269:8357  if (to == address(0)) {... */\n    tag_204:\n        /* \"@openzeppelin/contracts/token/ERC1155/ERC1155.sol\":8386:8387  0 */\n      0x00\n        /* \"@openzeppelin/contracts/token/ERC1155/ERC1155.sol\":8370:8388  from == address(0) */\n      0xffffffffffffffffffffffffffffffffffffffff\n      and\n        /* \"@openzeppelin/contracts/token/ERC1155/ERC1155.sol\":8370:8374  from */\n      dup6\n        /* \"@openzeppelin/contracts/token/ERC1155/ERC1155.sol\":8370:8388  from == address(0) */\n      0xffffffffffffffffffffffffffffffffffffffff\n      and\n      sub\n        /* \"@openzeppelin/contracts/token/ERC1155/ERC1155.sol\":8366:8454  if (from == address(0)) {... */\n      tag_206\n      jumpi\n        /* \"@openzeppelin/contracts/token/ERC1155/ERC1155.sol\":8440:8441  0 */\n      0x00\n        /* \"@openzeppelin/contracts/token/ERC1155/ERC1155.sol\":8411:8443  ERC1155InvalidSender(address(0)) */\n      mload(0x40)\n      0x01a8351400000000000000000000000000000000000000000000000000000000\n      dup2\n      mstore\n      0x04\n      add\n      tag_207\n      swap2\n      swap1\n      tag_192\n      jump\t// in\n    tag_207:\n      mload(0x40)\n      dup1\n      swap2\n      sub\n      swap1\n      revert\n        /* \"@openzeppelin/contracts/token/ERC1155/ERC1155.sol\":8366:8454  if (from == address(0)) {... */\n    tag_206:\n        /* \"@openzeppelin/contracts/token/ERC1155/ERC1155.sol\":8464:8484  uint256[] memory ids */\n      0x00\n        /* \"@openzeppelin/contracts/token/ERC1155/ERC1155.sol\":8486:8509  uint256[] memory values */\n      dup1\n        /* \"@openzeppelin/contracts/token/ERC1155/ERC1155.sol\":8513:8542  _asSingletonArrays(id, value) */\n      tag_208\n        /* \"@openzeppelin/contracts/token/ERC1155/ERC1155.sol\":8532:8534  id */\n      dup6\n        /* \"@openzeppelin/contracts/token/ERC1155/ERC1155.sol\":8536:8541  value */\n      dup6\n        /* \"@openzeppelin/contracts/token/ERC1155/ERC1155.sol\":8513:8531  _asSingletonArrays */\n      tag_209\n        /* \"@openzeppelin/contracts/token/ERC1155/ERC1155.sol\":8513:8542  _asSingletonArrays(id, value) */\n      jump\t// in\n    tag_208:\n        /* \"@openzeppelin/contracts/token/ERC1155/ERC1155.sol\":8463:8542  (uint256[] memory ids, uint256[] memory values) = _asSingletonArrays(id, value) */\n      swap2\n      pop\n      swap2\n      pop\n        /* \"@openzeppelin/contracts/token/ERC1155/ERC1155.sol\":8552:8607  _updateWithAcceptanceCheck(from, to, ids, values, data) */\n      tag_210\n        /* \"@openzeppelin/contracts/token/ERC1155/ERC1155.sol\":8579:8583  from */\n      dup8\n        /* \"@openzeppelin/contracts/token/ERC1155/ERC1155.sol\":8585:8587  to */\n      dup8\n        /* \"@openzeppelin/contracts/token/ERC1155/ERC1155.sol\":8589:8592  ids */\n      dup5\n        /* \"@openzeppelin/contracts/token/ERC1155/ERC1155.sol\":8594:8600  values */\n      dup5\n        /* \"@openzeppelin/contracts/token/ERC1155/ERC1155.sol\":8602:8606  data */\n      dup8\n        /* \"@openzeppelin/contracts/token/ERC1155/ERC1155.sol\":8552:8578  _updateWithAcceptanceCheck */\n      tag_196\n        /* \"@openzeppelin/contracts/token/ERC1155/ERC1155.sol\":8552:8607  _updateWithAcceptanceCheck(from, to, ids, values, data) */\n      jump\t// in\n    tag_210:\n        /* \"@openzeppelin/contracts/token/ERC1155/ERC1155.sol\":8259:8614  {... */\n      pop\n      pop\n        /* \"@openzeppelin/contracts/token/ERC1155/ERC1155.sol\":8151:8614  function _safeTransferFrom(address from, address to, uint256 id, uint256 value, bytes memory data) internal {... */\n      pop\n      pop\n      pop\n      pop\n      pop\n      jump\t// out\n        /* \"@openzeppelin/contracts/token/ERC1155/ERC1155.sol\":7004:7694  function _updateWithAcceptanceCheck(... */\n    tag_196:\n        /* \"@openzeppelin/contracts/token/ERC1155/ERC1155.sol\":7205:7235  _update(from, to, ids, values) */\n      tag_212\n        /* \"@openzeppelin/contracts/token/ERC1155/ERC1155.sol\":7213:7217  from */\n      dup6\n        /* \"@openzeppelin/contracts/token/ERC1155/ERC1155.sol\":7219:7221  to */\n      dup6\n        /* \"@openzeppelin/contracts/token/ERC1155/ERC1155.sol\":7223:7226  ids */\n      dup6\n        /* \"@openzeppelin/contracts/token/ERC1155/ERC1155.sol\":7228:7234  values */\n      dup6\n        /* \"@openzeppelin/contracts/token/ERC1155/ERC1155.sol\":7205:7212  _update */\n      tag_213\n        /* \"@openzeppelin/contracts/token/ERC1155/ERC1155.sol\":7205:7235  _update(from, to, ids, values) */\n      jump\t// in\n    tag_212:\n        /* \"@openzeppelin/contracts/token/ERC1155/ERC1155.sol\":7263:7264  0 */\n      0x00\n        /* \"@openzeppelin/contracts/token/ERC1155/ERC1155.sol\":7249:7265  to != address(0) */\n      0xffffffffffffffffffffffffffffffffffffffff\n      and\n        /* \"@openzeppelin/contracts/token/ERC1155/ERC1155.sol\":7249:7251  to */\n      dup5\n        /* \"@openzeppelin/contracts/token/ERC1155/ERC1155.sol\":7249:7265  to != address(0) */\n      0xffffffffffffffffffffffffffffffffffffffff\n      and\n      eq\n        /* \"@openzeppelin/contracts/token/ERC1155/ERC1155.sol\":7245:7688  if (to != address(0)) {... */\n      tag_214\n      jumpi\n        /* \"@openzeppelin/contracts/token/ERC1155/ERC1155.sol\":7281:7297  address operator */\n      0x00\n        /* \"@openzeppelin/contracts/token/ERC1155/ERC1155.sol\":7300:7312  _msgSender() */\n      tag_215\n        /* \"@openzeppelin/contracts/token/ERC1155/ERC1155.sol\":7300:7310  _msgSender */\n      tag_123\n        /* \"@openzeppelin/contracts/token/ERC1155/ERC1155.sol\":7300:7312  _msgSender() */\n      jump\t// in\n    tag_215:\n        /* \"@openzeppelin/contracts/token/ERC1155/ERC1155.sol\":7281:7312  address operator = _msgSender() */\n      swap1\n      pop\n        /* \"@openzeppelin/contracts/token/ERC1155/ERC1155.sol\":7344:7345  1 */\n      0x01\n        /* \"@openzeppelin/contracts/token/ERC1155/ERC1155.sol\":7330:7333  ids */\n      dup5\n        /* \"@openzeppelin/contracts/token/ERC1155/ERC1155.sol\":7330:7340  ids.length */\n      mload\n        /* \"@openzeppelin/contracts/token/ERC1155/ERC1155.sol\":7330:7345  ids.length == 1 */\n      sub\n        /* \"@openzeppelin/contracts/token/ERC1155/ERC1155.sol\":7326:7678  if (ids.length == 1) {... */\n      tag_216\n      jumpi\n        /* \"@openzeppelin/contracts/token/ERC1155/ERC1155.sol\":7365:7375  uint256 id */\n      0x00\n        /* \"@openzeppelin/contracts/token/ERC1155/ERC1155.sol\":7378:7403  ids.unsafeMemoryAccess(0) */\n      tag_217\n        /* \"@openzeppelin/contracts/token/ERC1155/ERC1155.sol\":7401:7402  0 */\n      0x00\n        /* \"@openzeppelin/contracts/token/ERC1155/ERC1155.sol\":7378:7381  ids */\n      dup7\n        /* \"@openzeppelin/contracts/token/ERC1155/ERC1155.sol\":7378:7400  ids.unsafeMemoryAccess */\n      tag_146\n      swap1\n        /* \"@openzeppelin/contracts/token/ERC1155/ERC1155.sol\":7378:7403  ids.unsafeMemoryAccess(0) */\n      swap2\n      swap1\n      0xffffffff\n      and\n      jump\t// in\n    tag_217:\n        /* \"@openzeppelin/contracts/token/ERC1155/ERC1155.sol\":7365:7403  uint256 id = ids.unsafeMemoryAccess(0) */\n      swap1\n      pop\n        /* \"@openzeppelin/contracts/token/ERC1155/ERC1155.sol\":7421:7434  uint256 value */\n      0x00\n        /* \"@openzeppelin/contracts/token/ERC1155/ERC1155.sol\":7437:7465  values.unsafeMemoryAccess(0) */\n      tag_218\n        /* \"@openzeppelin/contracts/token/ERC1155/ERC1155.sol\":7463:7464  0 */\n      0x00\n        /* \"@openzeppelin/contracts/token/ERC1155/ERC1155.sol\":7437:7443  values */\n      dup7\n        /* \"@openzeppelin/contracts/token/ERC1155/ERC1155.sol\":7437:7462  values.unsafeMemoryAccess */\n      tag_146\n      swap1\n        /* \"@openzeppelin/contracts/token/ERC1155/ERC1155.sol\":7437:7465  values.unsafeMemoryAccess(0) */\n      swap2\n      swap1\n      0xffffffff\n      and\n      jump\t// in\n    tag_218:\n        /* \"@openzeppelin/contracts/token/ERC1155/ERC1155.sol\":7421:7465  uint256 value = values.unsafeMemoryAccess(0) */\n      swap1\n      pop\n        /* \"@openzeppelin/contracts/token/ERC1155/ERC1155.sol\":7483:7550  _doSafeTransferAcceptanceCheck(operator, from, to, id, value, data) */\n      tag_219\n        /* \"@openzeppelin/contracts/token/ERC1155/ERC1155.sol\":7514:7522  operator */\n      dup4\n        /* \"@openzeppelin/contracts/token/ERC1155/ERC1155.sol\":7524:7528  from */\n      dup10\n        /* \"@openzeppelin/contracts/token/ERC1155/ERC1155.sol\":7530:7532  to */\n      dup10\n        /* \"@openzeppelin/contracts/token/ERC1155/ERC1155.sol\":7534:7536  id */\n      dup6\n        /* \"@openzeppelin/contracts/token/ERC1155/ERC1155.sol\":7538:7543  value */\n      dup6\n        /* \"@openzeppelin/contracts/token/ERC1155/ERC1155.sol\":7545:7549  data */\n      dup10\n        /* \"@openzeppelin/contracts/token/ERC1155/ERC1155.sol\":7483:7513  _doSafeTransferAcceptanceCheck */\n      tag_220\n        /* \"@openzeppelin/contracts/token/ERC1155/ERC1155.sol\":7483:7550  _doSafeTransferAcceptanceCheck(operator, from, to, id, value, data) */\n      jump\t// in\n    tag_219:\n        /* \"@openzeppelin/contracts/token/ERC1155/ERC1155.sol\":7347:7565  {... */\n      pop\n      pop\n        /* \"@openzeppelin/contracts/token/ERC1155/ERC1155.sol\":7326:7678  if (ids.length == 1) {... */\n      jump(tag_221)\n    tag_216:\n        /* \"@openzeppelin/contracts/token/ERC1155/ERC1155.sol\":7589:7663  _doSafeBatchTransferAcceptanceCheck(operator, from, to, ids, values, data) */\n      tag_222\n        /* \"@openzeppelin/contracts/token/ERC1155/ERC1155.sol\":7625:7633  operator */\n      dup2\n        /* \"@openzeppelin/contracts/token/ERC1155/ERC1155.sol\":7635:7639  from */\n      dup8\n        /* \"@openzeppelin/contracts/token/ERC1155/ERC1155.sol\":7641:7643  to */\n      dup8\n        /* \"@openzeppelin/contracts/token/ERC1155/ERC1155.sol\":7645:7648  ids */\n      dup8\n        /* \"@openzeppelin/contracts/token/ERC1155/ERC1155.sol\":7650:7656  values */\n      dup8\n        /* \"@openzeppelin/contracts/token/ERC1155/ERC1155.sol\":7658:7662  data */\n      dup8\n        /* \"@openzeppelin/contracts/token/ERC1155/ERC1155.sol\":7589:7624  _doSafeBatchTransferAcceptanceCheck */\n      tag_223\n        /* \"@openzeppelin/contracts/token/ERC1155/ERC1155.sol\":7589:7663  _doSafeBatchTransferAcceptanceCheck(operator, from, to, ids, values, data) */\n      jump\t// in\n    tag_222:\n        /* \"@openzeppelin/contracts/token/ERC1155/ERC1155.sol\":7326:7678  if (ids.length == 1) {... */\n    tag_221:\n        /* \"@openzeppelin/contracts/token/ERC1155/ERC1155.sol\":7267:7688  {... */\n      pop\n        /* \"@openzeppelin/contracts/token/ERC1155/ERC1155.sol\":7245:7688  if (to != address(0)) {... */\n    tag_214:\n        /* \"@openzeppelin/contracts/token/ERC1155/ERC1155.sol\":7004:7694  function _updateWithAcceptanceCheck(... */\n      pop\n      pop\n      pop\n      pop\n      pop\n      jump\t// out\n        /* \"@openzeppelin/contracts/token/ERC1155/ERC1155.sol\":16080:16929  function _asSingletonArrays(... */\n    tag_209:\n        /* \"@openzeppelin/contracts/token/ERC1155/ERC1155.sol\":16188:16211  uint256[] memory array1 */\n      0x60\n        /* \"@openzeppelin/contracts/token/ERC1155/ERC1155.sol\":16213:16236  uint256[] memory array2 */\n      dup1\n        /* \"@openzeppelin/contracts/token/ERC1155/ERC1155.sol\":16374:16378  0x40 */\n      0x40\n        /* \"@openzeppelin/contracts/token/ERC1155/ERC1155.sol\":16368:16379  mload(0x40) */\n      mload\n        /* \"@openzeppelin/contracts/token/ERC1155/ERC1155.sol\":16358:16379  array1 := mload(0x40) */\n      swap2\n      pop\n        /* \"@openzeppelin/contracts/token/ERC1155/ERC1155.sol\":16444:16445  1 */\n      0x01\n        /* \"@openzeppelin/contracts/token/ERC1155/ERC1155.sol\":16436:16442  array1 */\n      dup3\n        /* \"@openzeppelin/contracts/token/ERC1155/ERC1155.sol\":16429:16446  mstore(array1, 1) */\n      mstore\n        /* \"@openzeppelin/contracts/token/ERC1155/ERC1155.sol\":16582:16590  element1 */\n      dup4\n        /* \"@openzeppelin/contracts/token/ERC1155/ERC1155.sol\":16575:16579  0x20 */\n      0x20\n        /* \"@openzeppelin/contracts/token/ERC1155/ERC1155.sol\":16567:16573  array1 */\n      dup4\n        /* \"@openzeppelin/contracts/token/ERC1155/ERC1155.sol\":16563:16580  add(array1, 0x20) */\n      add\n        /* \"@openzeppelin/contracts/token/ERC1155/ERC1155.sol\":16556:16591  mstore(add(array1, 0x20), element1) */\n      mstore\n        /* \"@openzeppelin/contracts/token/ERC1155/ERC1155.sol\":16704:16708  0x40 */\n      0x40\n        /* \"@openzeppelin/contracts/token/ERC1155/ERC1155.sol\":16696:16702  array1 */\n      dup3\n        /* \"@openzeppelin/contracts/token/ERC1155/ERC1155.sol\":16692:16709  add(array1, 0x40) */\n      add\n        /* \"@openzeppelin/contracts/token/ERC1155/ERC1155.sol\":16682:16709  array2 := add(array1, 0x40) */\n      swap1\n      pop\n        /* \"@openzeppelin/contracts/token/ERC1155/ERC1155.sol\":16737:16738  1 */\n      0x01\n        /* \"@openzeppelin/contracts/token/ERC1155/ERC1155.sol\":16729:16735  array2 */\n      dup2\n        /* \"@openzeppelin/contracts/token/ERC1155/ERC1155.sol\":16722:16739  mstore(array2, 1) */\n      mstore\n        /* \"@openzeppelin/contracts/token/ERC1155/ERC1155.sol\":16778:16786  element2 */\n      dup3\n        /* \"@openzeppelin/contracts/token/ERC1155/ERC1155.sol\":16771:16775  0x20 */\n      0x20\n        /* \"@openzeppelin/contracts/token/ERC1155/ERC1155.sol\":16763:16769  array2 */\n      dup3\n        /* \"@openzeppelin/contracts/token/ERC1155/ERC1155.sol\":16759:16776  add(array2, 0x20) */\n      add\n        /* \"@openzeppelin/contracts/token/ERC1155/ERC1155.sol\":16752:16787  mstore(add(array2, 0x20), element2) */\n      mstore\n        /* \"@openzeppelin/contracts/token/ERC1155/ERC1155.sol\":16907:16911  0x40 */\n      0x40\n        /* \"@openzeppelin/contracts/token/ERC1155/ERC1155.sol\":16899:16905  array2 */\n      dup2\n        /* \"@openzeppelin/contracts/token/ERC1155/ERC1155.sol\":16895:16912  add(array2, 0x40) */\n      add\n        /* \"@openzeppelin/contracts/token/ERC1155/ERC1155.sol\":16889:16893  0x40 */\n      0x40\n        /* \"@openzeppelin/contracts/token/ERC1155/ERC1155.sol\":16882:16913  mstore(0x40, add(array2, 0x40)) */\n      mstore\n        /* \"@openzeppelin/contracts/token/ERC1155/ERC1155.sol\":16080:16929  function _asSingletonArrays(... */\n      swap3\n      pop\n      swap3\n      swap1\n      pop\n      jump\t// out\n        /* \"@openzeppelin/contracts/token/ERC1155/ERC1155.sol\":5144:6425  function _update(address from, address to, uint256[] memory ids, uint256[] memory values) internal virtual {... */\n    tag_213:\n        /* \"@openzeppelin/contracts/token/ERC1155/ERC1155.sol\":5279:5285  values */\n      dup1\n        /* \"@openzeppelin/contracts/token/ERC1155/ERC1155.sol\":5279:5292  values.length */\n      mload\n        /* \"@openzeppelin/contracts/token/ERC1155/ERC1155.sol\":5265:5268  ids */\n      dup3\n        /* \"@openzeppelin/contracts/token/ERC1155/ERC1155.sol\":5265:5275  ids.length */\n      mload\n        /* \"@openzeppelin/contracts/token/ERC1155/ERC1155.sol\":5265:5292  ids.length != values.length */\n      eq\n        /* \"@openzeppelin/contracts/token/ERC1155/ERC1155.sol\":5261:5378  if (ids.length != values.length) {... */\n      tag_226\n      jumpi\n        /* \"@openzeppelin/contracts/token/ERC1155/ERC1155.sol\":5341:5344  ids */\n      dup2\n        /* \"@openzeppelin/contracts/token/ERC1155/ERC1155.sol\":5341:5351  ids.length */\n      mload\n        /* \"@openzeppelin/contracts/token/ERC1155/ERC1155.sol\":5353:5359  values */\n      dup2\n        /* \"@openzeppelin/contracts/token/ERC1155/ERC1155.sol\":5353:5366  values.length */\n      mload\n        /* \"@openzeppelin/contracts/token/ERC1155/ERC1155.sol\":5315:5367  ERC1155InvalidArrayLength(ids.length, values.length) */\n      mload(0x40)\n      0x5b05999100000000000000000000000000000000000000000000000000000000\n      dup2\n      mstore\n      0x04\n      add\n      tag_227\n      swap3\n      swap2\n      swap1\n      tag_134\n      jump\t// in\n    tag_227:\n      mload(0x40)\n      dup1\n      swap2\n      sub\n      swap1\n      revert\n        /* \"@openzeppelin/contracts/token/ERC1155/ERC1155.sol\":5261:5378  if (ids.length != values.length) {... */\n    tag_226:\n        /* \"@openzeppelin/contracts/token/ERC1155/ERC1155.sol\":5388:5404  address operator */\n      0x00\n        /* \"@openzeppelin/contracts/token/ERC1155/ERC1155.sol\":5407:5419  _msgSender() */\n      tag_228\n        /* \"@openzeppelin/contracts/token/ERC1155/ERC1155.sol\":5407:5417  _msgSender */\n      tag_123\n        /* \"@openzeppelin/contracts/token/ERC1155/ERC1155.sol\":5407:5419  _msgSender() */\n      jump\t// in\n    tag_228:\n        /* \"@openzeppelin/contracts/token/ERC1155/ERC1155.sol\":5388:5419  address operator = _msgSender() */\n      swap1\n      pop\n        /* \"@openzeppelin/contracts/token/ERC1155/ERC1155.sol\":5435:5444  uint256 i */\n      0x00\n        /* \"@openzeppelin/contracts/token/ERC1155/ERC1155.sol\":5430:6121  for (uint256 i = 0; i < ids.length; ++i) {... */\n    tag_229:\n        /* \"@openzeppelin/contracts/token/ERC1155/ERC1155.sol\":5454:5457  ids */\n      dup4\n        /* \"@openzeppelin/contracts/token/ERC1155/ERC1155.sol\":5454:5464  ids.length */\n      mload\n        /* \"@openzeppelin/contracts/token/ERC1155/ERC1155.sol\":5450:5451  i */\n      dup2\n        /* \"@openzeppelin/contracts/token/ERC1155/ERC1155.sol\":5450:5464  i < ids.length */\n      lt\n        /* \"@openzeppelin/contracts/token/ERC1155/ERC1155.sol\":5430:6121  for (uint256 i = 0; i < ids.length; ++i) {... */\n      iszero\n      tag_230\n      jumpi\n        /* \"@openzeppelin/contracts/token/ERC1155/ERC1155.sol\":5485:5495  uint256 id */\n      0x00\n        /* \"@openzeppelin/contracts/token/ERC1155/ERC1155.sol\":5498:5523  ids.unsafeMemoryAccess(i) */\n      tag_232\n        /* \"@openzeppelin/contracts/token/ERC1155/ERC1155.sol\":5521:5522  i */\n      dup3\n        /* \"@openzeppelin/contracts/token/ERC1155/ERC1155.sol\":5498:5501  ids */\n      dup7\n        /* \"@openzeppelin/contracts/token/ERC1155/ERC1155.sol\":5498:5520  ids.unsafeMemoryAccess */\n      tag_146\n      swap1\n        /* \"@openzeppelin/contracts/token/ERC1155/ERC1155.sol\":5498:5523  ids.unsafeMemoryAccess(i) */\n      swap2\n      swap1\n      0xffffffff\n      and\n      jump\t// in\n    tag_232:\n        /* \"@openzeppelin/contracts/token/ERC1155/ERC1155.sol\":5485:5523  uint256 id = ids.unsafeMemoryAccess(i) */\n      swap1\n      pop\n        /* \"@openzeppelin/contracts/token/ERC1155/ERC1155.sol\":5537:5550  uint256 value */\n      0x00\n        /* \"@openzeppelin/contracts/token/ERC1155/ERC1155.sol\":5553:5581  values.unsafeMemoryAccess(i) */\n      tag_233\n        /* \"@openzeppelin/contracts/token/ERC1155/ERC1155.sol\":5579:5580  i */\n      dup4\n        /* \"@openzeppelin/contracts/token/ERC1155/ERC1155.sol\":5553:5559  values */\n      dup7\n        /* \"@openzeppelin/contracts/token/ERC1155/ERC1155.sol\":5553:5578  values.unsafeMemoryAccess */\n      tag_146\n      swap1\n        /* \"@openzeppelin/contracts/token/ERC1155/ERC1155.sol\":5553:5581  values.unsafeMemoryAccess(i) */\n      swap2\n      swap1\n      0xffffffff\n      and\n      jump\t// in\n    tag_233:\n        /* \"@openzeppelin/contracts/token/ERC1155/ERC1155.sol\":5537:5581  uint256 value = values.unsafeMemoryAccess(i) */\n      swap1\n      pop\n        /* \"@openzeppelin/contracts/token/ERC1155/ERC1155.sol\":5616:5617  0 */\n      0x00\n        /* \"@openzeppelin/contracts/token/ERC1155/ERC1155.sol\":5600:5618  from != address(0) */\n      0xffffffffffffffffffffffffffffffffffffffff\n      and\n        /* \"@openzeppelin/contracts/token/ERC1155/ERC1155.sol\":5600:5604  from */\n      dup9\n        /* \"@openzeppelin/contracts/token/ERC1155/ERC1155.sol\":5600:5618  from != address(0) */\n      0xffffffffffffffffffffffffffffffffffffffff\n      and\n      eq\n        /* \"@openzeppelin/contracts/token/ERC1155/ERC1155.sol\":5596:6016  if (from != address(0)) {... */\n      tag_234\n      jumpi\n        /* \"@openzeppelin/contracts/token/ERC1155/ERC1155.sol\":5638:5657  uint256 fromBalance */\n      0x00\n        /* \"@openzeppelin/contracts/token/ERC1155/ERC1155.sol\":5660:5669  _balances */\n      dup1\n        /* \"@openzeppelin/contracts/token/ERC1155/ERC1155.sol\":5660:5673  _balances[id] */\n      0x00\n        /* \"@openzeppelin/contracts/token/ERC1155/ERC1155.sol\":5670:5672  id */\n      dup5\n        /* \"@openzeppelin/contracts/token/ERC1155/ERC1155.sol\":5660:5673  _balances[id] */\n      dup2\n      mstore\n      0x20\n      add\n      swap1\n      dup2\n      mstore\n      0x20\n      add\n      0x00\n      keccak256\n        /* \"@openzeppelin/contracts/token/ERC1155/ERC1155.sol\":5660:5679  _balances[id][from] */\n      0x00\n        /* \"@openzeppelin/contracts/token/ERC1155/ERC1155.sol\":5674:5678  from */\n      dup11\n        /* \"@openzeppelin/contracts/token/ERC1155/ERC1155.sol\":5660:5679  _balances[id][from] */\n      0xffffffffffffffffffffffffffffffffffffffff\n      and\n      0xffffffffffffffffffffffffffffffffffffffff\n      and\n      dup2\n      mstore\n      0x20\n      add\n      swap1\n      dup2\n      mstore\n      0x20\n      add\n      0x00\n      keccak256\n      sload\n        /* \"@openzeppelin/contracts/token/ERC1155/ERC1155.sol\":5638:5679  uint256 fromBalance = _balances[id][from] */\n      swap1\n      pop\n        /* \"@openzeppelin/contracts/token/ERC1155/ERC1155.sol\":5715:5720  value */\n      dup2\n        /* \"@openzeppelin/contracts/token/ERC1155/ERC1155.sol\":5701:5712  fromBalance */\n      dup2\n        /* \"@openzeppelin/contracts/token/ERC1155/ERC1155.sol\":5701:5720  fromBalance < value */\n      lt\n        /* \"@openzeppelin/contracts/token/ERC1155/ERC1155.sol\":5697:5826  if (fromBalance < value) {... */\n      iszero\n      tag_235\n      jumpi\n        /* \"@openzeppelin/contracts/token/ERC1155/ERC1155.sol\":5778:5782  from */\n      dup9\n        /* \"@openzeppelin/contracts/token/ERC1155/ERC1155.sol\":5784:5795  fromBalance */\n      dup2\n        /* \"@openzeppelin/contracts/token/ERC1155/ERC1155.sol\":5797:5802  value */\n      dup4\n        /* \"@openzeppelin/contracts/token/ERC1155/ERC1155.sol\":5804:5806  id */\n      dup6\n        /* \"@openzeppelin/contracts/token/ERC1155/ERC1155.sol\":5751:5807  ERC1155InsufficientBalance(from, fromBalance, value, id) */\n      mload(0x40)\n      0x03dee4c500000000000000000000000000000000000000000000000000000000\n      dup2\n      mstore\n      0x04\n      add\n      tag_236\n      swap5\n      swap4\n      swap3\n      swap2\n      swap1\n      tag_237\n      jump\t// in\n    tag_236:\n      mload(0x40)\n      dup1\n      swap2\n      sub\n      swap1\n      revert\n        /* \"@openzeppelin/contracts/token/ERC1155/ERC1155.sol\":5697:5826  if (fromBalance < value) {... */\n    tag_235:\n        /* \"@openzeppelin/contracts/token/ERC1155/ERC1155.sol\":5978:5983  value */\n      dup2\n        /* \"@openzeppelin/contracts/token/ERC1155/ERC1155.sol\":5964:5975  fromBalance */\n      dup2\n        /* \"@openzeppelin/contracts/token/ERC1155/ERC1155.sol\":5964:5983  fromBalance - value */\n      sub\n        /* \"@openzeppelin/contracts/token/ERC1155/ERC1155.sol\":5942:5951  _balances */\n      0x00\n        /* \"@openzeppelin/contracts/token/ERC1155/ERC1155.sol\":5942:5955  _balances[id] */\n      dup1\n        /* \"@openzeppelin/contracts/token/ERC1155/ERC1155.sol\":5952:5954  id */\n      dup6\n        /* \"@openzeppelin/contracts/token/ERC1155/ERC1155.sol\":5942:5955  _balances[id] */\n      dup2\n      mstore\n      0x20\n      add\n      swap1\n      dup2\n      mstore\n      0x20\n      add\n      0x00\n      keccak256\n        /* \"@openzeppelin/contracts/token/ERC1155/ERC1155.sol\":5942:5961  _balances[id][from] */\n      0x00\n        /* \"@openzeppelin/contracts/token/ERC1155/ERC1155.sol\":5956:5960  from */\n      dup12\n        /* \"@openzeppelin/contracts/token/ERC1155/ERC1155.sol\":5942:5961  _balances[id][from] */\n      0xffffffffffffffffffffffffffffffffffffffff\n      and\n      0xffffffffffffffffffffffffffffffffffffffff\n      and\n      dup2\n      mstore\n      0x20\n      add\n      swap1\n      dup2\n      mstore\n      0x20\n      add\n      0x00\n      keccak256\n        /* \"@openzeppelin/contracts/token/ERC1155/ERC1155.sol\":5942:5983  _balances[id][from] = fromBalance - value */\n      dup2\n      swap1\n      sstore\n      pop\n        /* \"@openzeppelin/contracts/token/ERC1155/ERC1155.sol\":5620:6016  {... */\n      pop\n        /* \"@openzeppelin/contracts/token/ERC1155/ERC1155.sol\":5596:6016  if (from != address(0)) {... */\n    tag_234:\n        /* \"@openzeppelin/contracts/token/ERC1155/ERC1155.sol\":6048:6049  0 */\n      0x00\n        /* \"@openzeppelin/contracts/token/ERC1155/ERC1155.sol\":6034:6050  to != address(0) */\n      0xffffffffffffffffffffffffffffffffffffffff\n      and\n        /* \"@openzeppelin/contracts/token/ERC1155/ERC1155.sol\":6034:6036  to */\n      dup8\n        /* \"@openzeppelin/contracts/token/ERC1155/ERC1155.sol\":6034:6050  to != address(0) */\n      0xffffffffffffffffffffffffffffffffffffffff\n      and\n      eq\n        /* \"@openzeppelin/contracts/token/ERC1155/ERC1155.sol\":6030:6111  if (to != address(0)) {... */\n      tag_238\n      jumpi\n        /* \"@openzeppelin/contracts/token/ERC1155/ERC1155.sol\":6091:6096  value */\n      dup1\n        /* \"@openzeppelin/contracts/token/ERC1155/ERC1155.sol\":6070:6079  _balances */\n      0x00\n        /* \"@openzeppelin/contracts/token/ERC1155/ERC1155.sol\":6070:6083  _balances[id] */\n      dup1\n        /* \"@openzeppelin/contracts/token/ERC1155/ERC1155.sol\":6080:6082  id */\n      dup5\n        /* \"@openzeppelin/contracts/token/ERC1155/ERC1155.sol\":6070:6083  _balances[id] */\n      dup2\n      mstore\n      0x20\n      add\n      swap1\n      dup2\n      mstore\n      0x20\n      add\n      0x00\n      keccak256\n        /* \"@openzeppelin/contracts/token/ERC1155/ERC1155.sol\":6070:6087  _balances[id][to] */\n      0x00\n        /* \"@openzeppelin/contracts/token/ERC1155/ERC1155.sol\":6084:6086  to */\n      dup10\n        /* \"@openzeppelin/contracts/token/ERC1155/ERC1155.sol\":6070:6087  _balances[id][to] */\n      0xffffffffffffffffffffffffffffffffffffffff\n      and\n      0xffffffffffffffffffffffffffffffffffffffff\n      and\n      dup2\n      mstore\n      0x20\n      add\n      swap1\n      dup2\n      mstore\n      0x20\n      add\n      0x00\n      keccak256\n      0x00\n        /* \"@openzeppelin/contracts/token/ERC1155/ERC1155.sol\":6070:6096  _balances[id][to] += value */\n      dup3\n      dup3\n      sload\n      tag_239\n      swap2\n      swap1\n      tag_163\n      jump\t// in\n    tag_239:\n      swap3\n      pop\n      pop\n      dup2\n      swap1\n      sstore\n      pop\n        /* \"@openzeppelin/contracts/token/ERC1155/ERC1155.sol\":6030:6111  if (to != address(0)) {... */\n    tag_238:\n        /* \"@openzeppelin/contracts/token/ERC1155/ERC1155.sol\":5471:6121  {... */\n      pop\n      pop\n        /* \"@openzeppelin/contracts/token/ERC1155/ERC1155.sol\":5466:5469  ++i */\n      dup1\n      0x01\n      add\n      swap1\n      pop\n        /* \"@openzeppelin/contracts/token/ERC1155/ERC1155.sol\":5430:6121  for (uint256 i = 0; i < ids.length; ++i) {... */\n      jump(tag_229)\n    tag_230:\n      pop\n        /* \"@openzeppelin/contracts/token/ERC1155/ERC1155.sol\":6149:6150  1 */\n      0x01\n        /* \"@openzeppelin/contracts/token/ERC1155/ERC1155.sol\":6135:6138  ids */\n      dup4\n        /* \"@openzeppelin/contracts/token/ERC1155/ERC1155.sol\":6135:6145  ids.length */\n      mload\n        /* \"@openzeppelin/contracts/token/ERC1155/ERC1155.sol\":6135:6150  ids.length == 1 */\n      sub\n        /* \"@openzeppelin/contracts/token/ERC1155/ERC1155.sol\":6131:6419  if (ids.length == 1) {... */\n      tag_240\n      jumpi\n        /* \"@openzeppelin/contracts/token/ERC1155/ERC1155.sol\":6166:6176  uint256 id */\n      0x00\n        /* \"@openzeppelin/contracts/token/ERC1155/ERC1155.sol\":6179:6204  ids.unsafeMemoryAccess(0) */\n      tag_241\n        /* \"@openzeppelin/contracts/token/ERC1155/ERC1155.sol\":6202:6203  0 */\n      0x00\n        /* \"@openzeppelin/contracts/token/ERC1155/ERC1155.sol\":6179:6182  ids */\n      dup6\n        /* \"@openzeppelin/contracts/token/ERC1155/ERC1155.sol\":6179:6201  ids.unsafeMemoryAccess */\n      tag_146\n      swap1\n        /* \"@openzeppelin/contracts/token/ERC1155/ERC1155.sol\":6179:6204  ids.unsafeMemoryAccess(0) */\n      swap2\n      swap1\n      0xffffffff\n      and\n      jump\t// in\n    tag_241:\n        /* \"@openzeppelin/contracts/token/ERC1155/ERC1155.sol\":6166:6204  uint256 id = ids.unsafeMemoryAccess(0) */\n      swap1\n      pop\n        /* \"@openzeppelin/contracts/token/ERC1155/ERC1155.sol\":6218:6231  uint256 value */\n      0x00\n        /* \"@openzeppelin/contracts/token/ERC1155/ERC1155.sol\":6234:6262  values.unsafeMemoryAccess(0) */\n      tag_242\n        /* \"@openzeppelin/contracts/token/ERC1155/ERC1155.sol\":6260:6261  0 */\n      0x00\n        /* \"@openzeppelin/contracts/token/ERC1155/ERC1155.sol\":6234:6240  values */\n      dup6\n        /* \"@openzeppelin/contracts/token/ERC1155/ERC1155.sol\":6234:6259  values.unsafeMemoryAccess */\n      tag_146\n      swap1\n        /* \"@openzeppelin/contracts/token/ERC1155/ERC1155.sol\":6234:6262  values.unsafeMemoryAccess(0) */\n      swap2\n      swap1\n      0xffffffff\n      and\n      jump\t// in\n    tag_242:\n        /* \"@openzeppelin/contracts/token/ERC1155/ERC1155.sol\":6218:6262  uint256 value = values.unsafeMemoryAccess(0) */\n      swap1\n      pop\n        /* \"@openzeppelin/contracts/token/ERC1155/ERC1155.sol\":6312:6314  to */\n      dup6\n        /* \"@openzeppelin/contracts/token/ERC1155/ERC1155.sol\":6281:6326  TransferSingle(operator, from, to, id, value) */\n      0xffffffffffffffffffffffffffffffffffffffff\n      and\n        /* \"@openzeppelin/contracts/token/ERC1155/ERC1155.sol\":6306:6310  from */\n      dup8\n        /* \"@openzeppelin/contracts/token/ERC1155/ERC1155.sol\":6281:6326  TransferSingle(operator, from, to, id, value) */\n      0xffffffffffffffffffffffffffffffffffffffff\n      and\n        /* \"@openzeppelin/contracts/token/ERC1155/ERC1155.sol\":6296:6304  operator */\n      dup5\n        /* \"@openzeppelin/contracts/token/ERC1155/ERC1155.sol\":6281:6326  TransferSingle(operator, from, to, id, value) */\n      0xffffffffffffffffffffffffffffffffffffffff\n      and\n      0xc3d58168c5ae7397731d063d5bbf3d657854427343f4c083240f7aacaa2d0f62\n        /* \"@openzeppelin/contracts/token/ERC1155/ERC1155.sol\":6316:6318  id */\n      dup6\n        /* \"@openzeppelin/contracts/token/ERC1155/ERC1155.sol\":6320:6325  value */\n      dup6\n        /* \"@openzeppelin/contracts/token/ERC1155/ERC1155.sol\":6281:6326  TransferSingle(operator, from, to, id, value) */\n      mload(0x40)\n      tag_243\n      swap3\n      swap2\n      swap1\n      tag_134\n      jump\t// in\n    tag_243:\n      mload(0x40)\n      dup1\n      swap2\n      sub\n      swap1\n      log4\n        /* \"@openzeppelin/contracts/token/ERC1155/ERC1155.sol\":6152:6337  {... */\n      pop\n      pop\n        /* \"@openzeppelin/contracts/token/ERC1155/ERC1155.sol\":6131:6419  if (ids.length == 1) {... */\n      jump(tag_244)\n    tag_240:\n        /* \"@openzeppelin/contracts/token/ERC1155/ERC1155.sol\":6392:6394  to */\n      dup4\n        /* \"@openzeppelin/contracts/token/ERC1155/ERC1155.sol\":6362:6408  TransferBatch(operator, from, to, ids, values) */\n      0xffffffffffffffffffffffffffffffffffffffff\n      and\n        /* \"@openzeppelin/contracts/token/ERC1155/ERC1155.sol\":6386:6390  from */\n      dup6\n        /* \"@openzeppelin/contracts/token/ERC1155/ERC1155.sol\":6362:6408  TransferBatch(operator, from, to, ids, values) */\n      0xffffffffffffffffffffffffffffffffffffffff\n      and\n        /* \"@openzeppelin/contracts/token/ERC1155/ERC1155.sol\":6376:6384  operator */\n      dup3\n        /* \"@openzeppelin/contracts/token/ERC1155/ERC1155.sol\":6362:6408  TransferBatch(operator, from, to, ids, values) */\n      0xffffffffffffffffffffffffffffffffffffffff\n      and\n      0x4a39dc06d4c0dbc64b70af90fd698a233a518aa5d07e595d983b8c0526c8f7fb\n        /* \"@openzeppelin/contracts/token/ERC1155/ERC1155.sol\":6396:6399  ids */\n      dup7\n        /* \"@openzeppelin/contracts/token/ERC1155/ERC1155.sol\":6401:6407  values */\n      dup7\n        /* \"@openzeppelin/contracts/token/ERC1155/ERC1155.sol\":6362:6408  TransferBatch(operator, from, to, ids, values) */\n      mload(0x40)\n      tag_245\n      swap3\n      swap2\n      swap1\n      tag_246\n      jump\t// in\n    tag_245:\n      mload(0x40)\n      dup1\n      swap2\n      sub\n      swap1\n      log4\n        /* \"@openzeppelin/contracts/token/ERC1155/ERC1155.sol\":6131:6419  if (ids.length == 1) {... */\n    tag_244:\n        /* \"@openzeppelin/contracts/token/ERC1155/ERC1155.sol\":5251:6425  {... */\n      pop\n        /* \"@openzeppelin/contracts/token/ERC1155/ERC1155.sol\":5144:6425  function _update(address from, address to, uint256[] memory ids, uint256[] memory values) internal virtual {... */\n      pop\n      pop\n      pop\n      pop\n      jump\t// out\n        /* \"@openzeppelin/contracts/token/ERC1155/ERC1155.sol\":13761:14735  function _doSafeTransferAcceptanceCheck(... */\n    tag_220:\n        /* \"@openzeppelin/contracts/token/ERC1155/ERC1155.sol\":13984:13985  0 */\n      0x00\n        /* \"@openzeppelin/contracts/token/ERC1155/ERC1155.sol\":13967:13969  to */\n      dup5\n        /* \"@openzeppelin/contracts/token/ERC1155/ERC1155.sol\":13967:13981  to.code.length */\n      0xffffffffffffffffffffffffffffffffffffffff\n      and\n      extcodesize\n        /* \"@openzeppelin/contracts/token/ERC1155/ERC1155.sol\":13967:13985  to.code.length > 0 */\n      gt\n        /* \"@openzeppelin/contracts/token/ERC1155/ERC1155.sol\":13963:14729  if (to.code.length > 0) {... */\n      iszero\n      tag_248\n      jumpi\n        /* \"@openzeppelin/contracts/token/ERC1155/ERC1155.sol\":14022:14024  to */\n      dup4\n        /* \"@openzeppelin/contracts/token/ERC1155/ERC1155.sol\":14005:14043  IERC1155Receiver(to).onERC1155Received */\n      0xffffffffffffffffffffffffffffffffffffffff\n      and\n      0xf23a6e61\n        /* \"@openzeppelin/contracts/token/ERC1155/ERC1155.sol\":14044:14052  operator */\n      dup8\n        /* \"@openzeppelin/contracts/token/ERC1155/ERC1155.sol\":14054:14058  from */\n      dup8\n        /* \"@openzeppelin/contracts/token/ERC1155/ERC1155.sol\":14060:14062  id */\n      dup7\n        /* \"@openzeppelin/contracts/token/ERC1155/ERC1155.sol\":14064:14069  value */\n      dup7\n        /* \"@openzeppelin/contracts/token/ERC1155/ERC1155.sol\":14071:14075  data */\n      dup7\n        /* \"@openzeppelin/contracts/token/ERC1155/ERC1155.sol\":14005:14076  IERC1155Receiver(to).onERC1155Received(operator, from, id, value, data) */\n      mload(0x40)\n      dup7\n      0xffffffff\n      and\n      0xe0\n      shl\n      dup2\n      mstore\n      0x04\n      add\n      tag_249\n      swap6\n      swap5\n      swap4\n      swap3\n      swap2\n      swap1\n      tag_250\n      jump\t// in\n    tag_249:\n      0x20\n      mload(0x40)\n      dup1\n      dup4\n      sub\n      dup2\n      0x00\n      dup8\n      gas\n      call\n      swap3\n      pop\n      pop\n      pop\n      dup1\n      iszero\n      tag_251\n      jumpi\n      pop\n      mload(0x40)\n      returndatasize\n      not(0x1f)\n      0x1f\n      dup3\n      add\n      and\n      dup3\n      add\n      dup1\n      0x40\n      mstore\n      pop\n      dup2\n      add\n      swap1\n      tag_252\n      swap2\n      swap1\n      tag_253\n      jump\t// in\n    tag_252:\n      0x01\n    tag_251:\n        /* \"@openzeppelin/contracts/token/ERC1155/ERC1155.sol\":14001:14719  try IERC1155Receiver(to).onERC1155Received(operator, from, id, value, data) returns (bytes4 response) {... */\n      tag_254\n      jumpi\n      returndatasize\n      dup1\n      0x00\n      dup2\n      eq\n      tag_259\n      jumpi\n      mload(0x40)\n      swap2\n      pop\n      and(add(returndatasize, 0x3f), not(0x1f))\n      dup3\n      add\n      0x40\n      mstore\n      returndatasize\n      dup3\n      mstore\n      returndatasize\n      0x00\n      0x20\n      dup5\n      add\n      returndatacopy\n      jump(tag_258)\n    tag_259:\n      0x60\n      swap2\n      pop\n    tag_258:\n      pop\n        /* \"@openzeppelin/contracts/token/ERC1155/ERC1155.sol\":14377:14378  0 */\n      0x00\n        /* \"@openzeppelin/contracts/token/ERC1155/ERC1155.sol\":14360:14366  reason */\n      dup2\n        /* \"@openzeppelin/contracts/token/ERC1155/ERC1155.sol\":14360:14373  reason.length */\n      mload\n        /* \"@openzeppelin/contracts/token/ERC1155/ERC1155.sol\":14360:14378  reason.length == 0 */\n      sub\n        /* \"@openzeppelin/contracts/token/ERC1155/ERC1155.sol\":14356:14705  if (reason.length == 0) {... */\n      tag_260\n      jumpi\n        /* \"@openzeppelin/contracts/token/ERC1155/ERC1155.sol\":14487:14489  to */\n      dup5\n        /* \"@openzeppelin/contracts/token/ERC1155/ERC1155.sol\":14464:14490  ERC1155InvalidReceiver(to) */\n      mload(0x40)\n      0x57f447ce00000000000000000000000000000000000000000000000000000000\n      dup2\n      mstore\n      0x04\n      add\n      tag_261\n      swap2\n      swap1\n      tag_192\n      jump\t// in\n    tag_261:\n      mload(0x40)\n      dup1\n      swap2\n      sub\n      swap1\n      revert\n        /* \"@openzeppelin/contracts/token/ERC1155/ERC1155.sol\":14356:14705  if (reason.length == 0) {... */\n    tag_260:\n        /* \"@openzeppelin/contracts/token/ERC1155/ERC1155.sol\":14657:14663  reason */\n      dup1\n        /* \"@openzeppelin/contracts/token/ERC1155/ERC1155.sol\":14651:14664  mload(reason) */\n      mload\n        /* \"@openzeppelin/contracts/token/ERC1155/ERC1155.sol\":14642:14648  reason */\n      dup2\n        /* \"@openzeppelin/contracts/token/ERC1155/ERC1155.sol\":14638:14640  32 */\n      0x20\n        /* \"@openzeppelin/contracts/token/ERC1155/ERC1155.sol\":14634:14649  add(32, reason) */\n      add\n        /* \"@openzeppelin/contracts/token/ERC1155/ERC1155.sol\":14627:14665  revert(add(32, reason), mload(reason)) */\n      revert\n        /* \"@openzeppelin/contracts/token/ERC1155/ERC1155.sol\":14001:14719  try IERC1155Receiver(to).onERC1155Received(operator, from, id, value, data) returns (bytes4 response) {... */\n    tag_254:\n        /* \"@openzeppelin/contracts/token/ERC1155/ERC1155.sol\":14137:14180  IERC1155Receiver.onERC1155Received.selector */\n      shl(0xe0, 0xf23a6e61)\n        /* \"@openzeppelin/contracts/token/ERC1155/ERC1155.sol\":14125:14180  response != IERC1155Receiver.onERC1155Received.selector */\n      not(0xffffffffffffffffffffffffffffffffffffffffffffffffffffffff)\n      and\n        /* \"@openzeppelin/contracts/token/ERC1155/ERC1155.sol\":14125:14133  response */\n      dup2\n        /* \"@openzeppelin/contracts/token/ERC1155/ERC1155.sol\":14125:14180  response != IERC1155Receiver.onERC1155Received.selector */\n      not(0xffffffffffffffffffffffffffffffffffffffffffffffffffffffff)\n      and\n      eq\n        /* \"@openzeppelin/contracts/token/ERC1155/ERC1155.sol\":14121:14295  if (response != IERC1155Receiver.onERC1155Received.selector) {... */\n      tag_264\n      jumpi\n        /* \"@openzeppelin/contracts/token/ERC1155/ERC1155.sol\":14273:14275  to */\n      dup5\n        /* \"@openzeppelin/contracts/token/ERC1155/ERC1155.sol\":14250:14276  ERC1155InvalidReceiver(to) */\n      mload(0x40)\n      0x57f447ce00000000000000000000000000000000000000000000000000000000\n      dup2\n      mstore\n      0x04\n      add\n      tag_265\n      swap2\n      swap1\n      tag_192\n      jump\t// in\n    tag_265:\n      mload(0x40)\n      dup1\n      swap2\n      sub\n      swap1\n      revert\n        /* \"@openzeppelin/contracts/token/ERC1155/ERC1155.sol\":14121:14295  if (response != IERC1155Receiver.onERC1155Received.selector) {... */\n    tag_264:\n        /* \"@openzeppelin/contracts/token/ERC1155/ERC1155.sol\":14077:14309  returns (bytes4 response) {... */\n      pop\n        /* \"@openzeppelin/contracts/token/ERC1155/ERC1155.sol\":13963:14729  if (to.code.length > 0) {... */\n    tag_248:\n        /* \"@openzeppelin/contracts/token/ERC1155/ERC1155.sol\":13761:14735  function _doSafeTransferAcceptanceCheck(... */\n      pop\n      pop\n      pop\n      pop\n      pop\n      pop\n      jump\t// out\n        /* \"@openzeppelin/contracts/token/ERC1155/ERC1155.sol\":14923:15964  function _doSafeBatchTransferAcceptanceCheck(... */\n    tag_223:\n        /* \"@openzeppelin/contracts/token/ERC1155/ERC1155.sol\":15171:15172  0 */\n      0x00\n        /* \"@openzeppelin/contracts/token/ERC1155/ERC1155.sol\":15154:15156  to */\n      dup5\n        /* \"@openzeppelin/contracts/token/ERC1155/ERC1155.sol\":15154:15168  to.code.length */\n      0xffffffffffffffffffffffffffffffffffffffff\n      and\n      extcodesize\n        /* \"@openzeppelin/contracts/token/ERC1155/ERC1155.sol\":15154:15172  to.code.length > 0 */\n      gt\n        /* \"@openzeppelin/contracts/token/ERC1155/ERC1155.sol\":15150:15958  if (to.code.length > 0) {... */\n      iszero\n      tag_267\n      jumpi\n        /* \"@openzeppelin/contracts/token/ERC1155/ERC1155.sol\":15209:15211  to */\n      dup4\n        /* \"@openzeppelin/contracts/token/ERC1155/ERC1155.sol\":15192:15235  IERC1155Receiver(to).onERC1155BatchReceived */\n      0xffffffffffffffffffffffffffffffffffffffff\n      and\n      0xbc197c81\n        /* \"@openzeppelin/contracts/token/ERC1155/ERC1155.sol\":15236:15244  operator */\n      dup8\n        /* \"@openzeppelin/contracts/token/ERC1155/ERC1155.sol\":15246:15250  from */\n      dup8\n        /* \"@openzeppelin/contracts/token/ERC1155/ERC1155.sol\":15252:15255  ids */\n      dup7\n        /* \"@openzeppelin/contracts/token/ERC1155/ERC1155.sol\":15257:15263  values */\n      dup7\n        /* \"@openzeppelin/contracts/token/ERC1155/ERC1155.sol\":15265:15269  data */\n      dup7\n        /* \"@openzeppelin/contracts/token/ERC1155/ERC1155.sol\":15192:15270  IERC1155Receiver(to).onERC1155BatchReceived(operator, from, ids, values, data) */\n      mload(0x40)\n      dup7\n      0xffffffff\n      and\n      0xe0\n      shl\n      dup2\n      mstore\n      0x04\n      add\n      tag_268\n      swap6\n      swap5\n      swap4\n      swap3\n      swap2\n      swap1\n      tag_269\n      jump\t// in\n    tag_268:\n      0x20\n      mload(0x40)\n      dup1\n      dup4\n      sub\n      dup2\n      0x00\n      dup8\n      gas\n      call\n      swap3\n      pop\n      pop\n      pop\n      dup1\n      iszero\n      tag_270\n      jumpi\n      pop\n      mload(0x40)\n      returndatasize\n      not(0x1f)\n      0x1f\n      dup3\n      add\n      and\n      dup3\n      add\n      dup1\n      0x40\n      mstore\n      pop\n      dup2\n      add\n      swap1\n      tag_271\n      swap2\n      swap1\n      tag_253\n      jump\t// in\n    tag_271:\n      0x01\n    tag_270:\n        /* \"@openzeppelin/contracts/token/ERC1155/ERC1155.sol\":15188:15948  try IERC1155Receiver(to).onERC1155BatchReceived(operator, from, ids, values, data) returns (... */\n      tag_272\n      jumpi\n      returndatasize\n      dup1\n      0x00\n      dup2\n      eq\n      tag_277\n      jumpi\n      mload(0x40)\n      swap2\n      pop\n      and(add(returndatasize, 0x3f), not(0x1f))\n      dup3\n      add\n      0x40\n      mstore\n      returndatasize\n      dup3\n      mstore\n      returndatasize\n      0x00\n      0x20\n      dup5\n      add\n      returndatacopy\n      jump(tag_276)\n    tag_277:\n      0x60\n      swap2\n      pop\n    tag_276:\n      pop\n        /* \"@openzeppelin/contracts/token/ERC1155/ERC1155.sol\":15606:15607  0 */\n      0x00\n        /* \"@openzeppelin/contracts/token/ERC1155/ERC1155.sol\":15589:15595  reason */\n      dup2\n        /* \"@openzeppelin/contracts/token/ERC1155/ERC1155.sol\":15589:15602  reason.length */\n      mload\n        /* \"@openzeppelin/contracts/token/ERC1155/ERC1155.sol\":15589:15607  reason.length == 0 */\n      sub\n        /* \"@openzeppelin/contracts/token/ERC1155/ERC1155.sol\":15585:15934  if (reason.length == 0) {... */\n      tag_278\n      jumpi\n        /* \"@openzeppelin/contracts/token/ERC1155/ERC1155.sol\":15716:15718  to */\n      dup5\n        /* \"@openzeppelin/contracts/token/ERC1155/ERC1155.sol\":15693:15719  ERC1155InvalidReceiver(to) */\n      mload(0x40)\n      0x57f447ce00000000000000000000000000000000000000000000000000000000\n      dup2\n      mstore\n      0x04\n      add\n      tag_279\n      swap2\n      swap1\n      tag_192\n      jump\t// in\n    tag_279:\n      mload(0x40)\n      dup1\n      swap2\n      sub\n      swap1\n      revert\n        /* \"@openzeppelin/contracts/token/ERC1155/ERC1155.sol\":15585:15934  if (reason.length == 0) {... */\n    tag_278:\n        /* \"@openzeppelin/contracts/token/ERC1155/ERC1155.sol\":15886:15892  reason */\n      dup1\n        /* \"@openzeppelin/contracts/token/ERC1155/ERC1155.sol\":15880:15893  mload(reason) */\n      mload\n        /* \"@openzeppelin/contracts/token/ERC1155/ERC1155.sol\":15871:15877  reason */\n      dup2\n        /* \"@openzeppelin/contracts/token/ERC1155/ERC1155.sol\":15867:15869  32 */\n      0x20\n        /* \"@openzeppelin/contracts/token/ERC1155/ERC1155.sol\":15863:15878  add(32, reason) */\n      add\n        /* \"@openzeppelin/contracts/token/ERC1155/ERC1155.sol\":15856:15894  revert(add(32, reason), mload(reason)) */\n      revert\n        /* \"@openzeppelin/contracts/token/ERC1155/ERC1155.sol\":15188:15948  try IERC1155Receiver(to).onERC1155BatchReceived(operator, from, ids, values, data) returns (... */\n    tag_272:\n        /* \"@openzeppelin/contracts/token/ERC1155/ERC1155.sol\":15361:15409  IERC1155Receiver.onERC1155BatchReceived.selector */\n      shl(0xe0, 0xbc197c81)\n        /* \"@openzeppelin/contracts/token/ERC1155/ERC1155.sol\":15349:15409  response != IERC1155Receiver.onERC1155BatchReceived.selector */\n      not(0xffffffffffffffffffffffffffffffffffffffffffffffffffffffff)\n      and\n        /* \"@openzeppelin/contracts/token/ERC1155/ERC1155.sol\":15349:15357  response */\n      dup2\n        /* \"@openzeppelin/contracts/token/ERC1155/ERC1155.sol\":15349:15409  response != IERC1155Receiver.onERC1155BatchReceived.selector */\n      not(0xffffffffffffffffffffffffffffffffffffffffffffffffffffffff)\n      and\n      eq\n        /* \"@openzeppelin/contracts/token/ERC1155/ERC1155.sol\":15345:15524  if (response != IERC1155Receiver.onERC1155BatchReceived.selector) {... */\n      tag_282\n      jumpi\n        /* \"@openzeppelin/contracts/token/ERC1155/ERC1155.sol\":15502:15504  to */\n      dup5\n        /* \"@openzeppelin/contracts/token/ERC1155/ERC1155.sol\":15479:15505  ERC1155InvalidReceiver(to) */\n      mload(0x40)\n      0x57f447ce00000000000000000000000000000000000000000000000000000000\n      dup2\n      mstore\n      0x04\n      add\n      tag_283\n      swap2\n      swap1\n      tag_192\n      jump\t// in\n    tag_283:\n      mload(0x40)\n      dup1\n      swap2\n      sub\n      swap1\n      revert\n        /* \"@openzeppelin/contracts/token/ERC1155/ERC1155.sol\":15345:15524  if (response != IERC1155Receiver.onERC1155BatchReceived.selector) {... */\n    tag_282:\n        /* \"@openzeppelin/contracts/token/ERC1155/ERC1155.sol\":15271:15538  returns (... */\n      pop\n        /* \"@openzeppelin/contracts/token/ERC1155/ERC1155.sol\":15150:15958  if (to.code.length > 0) {... */\n    tag_267:\n        /* \"@openzeppelin/contracts/token/ERC1155/ERC1155.sol\":14923:15964  function _doSafeBatchTransferAcceptanceCheck(... */\n      pop\n      pop\n      pop\n      pop\n      pop\n      pop\n      jump\t// out\n        /* \"#utility.yul\":7:82   */\n    tag_284:\n        /* \"#utility.yul\":40:46   */\n      0x00\n        /* \"#utility.yul\":73:75   */\n      0x40\n        /* \"#utility.yul\":67:76   */\n      mload\n        /* \"#utility.yul\":57:76   */\n      swap1\n      pop\n        /* \"#utility.yul\":7:82   */\n      swap1\n      jump\t// out\n        /* \"#utility.yul\":88:205   */\n    tag_285:\n        /* \"#utility.yul\":197:198   */\n      0x00\n        /* \"#utility.yul\":194:195   */\n      dup1\n        /* \"#utility.yul\":187:199   */\n      revert\n        /* \"#utility.yul\":211:328   */\n    tag_286:\n        /* \"#utility.yul\":320:321   */\n      0x00\n        /* \"#utility.yul\":317:318   */\n      dup1\n        /* \"#utility.yul\":310:322   */\n      revert\n        /* \"#utility.yul\":334:460   */\n    tag_287:\n        /* \"#utility.yul\":371:378   */\n      0x00\n        /* \"#utility.yul\":411:453   */\n      0xffffffffffffffffffffffffffffffffffffffff\n        /* \"#utility.yul\":404:409   */\n      dup3\n        /* \"#utility.yul\":400:454   */\n      and\n        /* \"#utility.yul\":389:454   */\n      swap1\n      pop\n        /* \"#utility.yul\":334:460   */\n      swap2\n      swap1\n      pop\n      jump\t// out\n        /* \"#utility.yul\":466:562   */\n    tag_288:\n        /* \"#utility.yul\":503:510   */\n      0x00\n        /* \"#utility.yul\":532:556   */\n      tag_346\n        /* \"#utility.yul\":550:555   */\n      dup3\n        /* \"#utility.yul\":532:556   */\n      tag_287\n      jump\t// in\n    tag_346:\n        /* \"#utility.yul\":521:556   */\n      swap1\n      pop\n        /* \"#utility.yul\":466:562   */\n      swap2\n      swap1\n      pop\n      jump\t// out\n        /* \"#utility.yul\":568:690   */\n    tag_289:\n        /* \"#utility.yul\":641:665   */\n      tag_348\n        /* \"#utility.yul\":659:664   */\n      dup2\n        /* \"#utility.yul\":641:665   */\n      tag_288\n      jump\t// in\n    tag_348:\n        /* \"#utility.yul\":634:639   */\n      dup2\n        /* \"#utility.yul\":631:666   */\n      eq\n        /* \"#utility.yul\":621:684   */\n      tag_349\n      jumpi\n        /* \"#utility.yul\":680:681   */\n      0x00\n        /* \"#utility.yul\":677:678   */\n      dup1\n        /* \"#utility.yul\":670:682   */\n      revert\n        /* \"#utility.yul\":621:684   */\n    tag_349:\n        /* \"#utility.yul\":568:690   */\n      pop\n      jump\t// out\n        /* \"#utility.yul\":696:835   */\n    tag_290:\n        /* \"#utility.yul\":742:747   */\n      0x00\n        /* \"#utility.yul\":780:786   */\n      dup2\n        /* \"#utility.yul\":767:787   */\n      calldataload\n        /* \"#utility.yul\":758:787   */\n      swap1\n      pop\n        /* \"#utility.yul\":796:829   */\n      tag_351\n        /* \"#utility.yul\":823:828   */\n      dup2\n        /* \"#utility.yul\":796:829   */\n      tag_289\n      jump\t// in\n    tag_351:\n        /* \"#utility.yul\":696:835   */\n      swap3\n      swap2\n      pop\n      pop\n      jump\t// out\n        /* \"#utility.yul\":841:918   */\n    tag_291:\n        /* \"#utility.yul\":878:885   */\n      0x00\n        /* \"#utility.yul\":907:912   */\n      dup2\n        /* \"#utility.yul\":896:912   */\n      swap1\n      pop\n        /* \"#utility.yul\":841:918   */\n      swap2\n      swap1\n      pop\n      jump\t// out\n        /* \"#utility.yul\":924:1046   */\n    tag_292:\n        /* \"#utility.yul\":997:1021   */\n      tag_354\n        /* \"#utility.yul\":1015:1020   */\n      dup2\n        /* \"#utility.yul\":997:1021   */\n      tag_291\n      jump\t// in\n    tag_354:\n        /* \"#utility.yul\":990:995   */\n      dup2\n        /* \"#utility.yul\":987:1022   */\n      eq\n        /* \"#utility.yul\":977:1040   */\n      tag_355\n      jumpi\n        /* \"#utility.yul\":1036:1037   */\n      0x00\n        /* \"#utility.yul\":1033:1034   */\n      dup1\n        /* \"#utility.yul\":1026:1038   */\n      revert\n        /* \"#utility.yul\":977:1040   */\n    tag_355:\n        /* \"#utility.yul\":924:1046   */\n      pop\n      jump\t// out\n        /* \"#utility.yul\":1052:1191   */\n    tag_293:\n        /* \"#utility.yul\":1098:1103   */\n      0x00\n        /* \"#utility.yul\":1136:1142   */\n      dup2\n        /* \"#utility.yul\":1123:1143   */\n      calldataload\n        /* \"#utility.yul\":1114:1143   */\n      swap1\n      pop\n        /* \"#utility.yul\":1152:1185   */\n      tag_357\n        /* \"#utility.yul\":1179:1184   */\n      dup2\n        /* \"#utility.yul\":1152:1185   */\n      tag_292\n      jump\t// in\n    tag_357:\n        /* \"#utility.yul\":1052:1191   */\n      swap3\n      swap2\n      pop\n      pop\n      jump\t// out\n        /* \"#utility.yul\":1197:1671   */\n    tag_20:\n        /* \"#utility.yul\":1265:1271   */\n      0x00\n        /* \"#utility.yul\":1273:1279   */\n      dup1\n        /* \"#utility.yul\":1322:1324   */\n      0x40\n        /* \"#utility.yul\":1310:1319   */\n      dup4\n        /* \"#utility.yul\":1301:1308   */\n      dup6\n        /* \"#utility.yul\":1297:1320   */\n      sub\n        /* \"#utility.yul\":1293:1325   */\n      slt\n        /* \"#utility.yul\":1290:1409   */\n      iszero\n      tag_359\n      jumpi\n        /* \"#utility.yul\":1328:1407   */\n      tag_360\n      tag_285\n      jump\t// in\n    tag_360:\n        /* \"#utility.yul\":1290:1409   */\n    tag_359:\n        /* \"#utility.yul\":1448:1449   */\n      0x00\n        /* \"#utility.yul\":1473:1526   */\n      tag_361\n        /* \"#utility.yul\":1518:1525   */\n      dup6\n        /* \"#utility.yul\":1509:1515   */\n      dup3\n        /* \"#utility.yul\":1498:1507   */\n      dup7\n        /* \"#utility.yul\":1494:1516   */\n      add\n        /* \"#utility.yul\":1473:1526   */\n      tag_290\n      jump\t// in\n    tag_361:\n        /* \"#utility.yul\":1463:1526   */\n      swap3\n      pop\n        /* \"#utility.yul\":1419:1536   */\n      pop\n        /* \"#utility.yul\":1575:1577   */\n      0x20\n        /* \"#utility.yul\":1601:1654   */\n      tag_362\n        /* \"#utility.yul\":1646:1653   */\n      dup6\n        /* \"#utility.yul\":1637:1643   */\n      dup3\n        /* \"#utility.yul\":1626:1635   */\n      dup7\n        /* \"#utility.yul\":1622:1644   */\n      add\n        /* \"#utility.yul\":1601:1654   */\n      tag_293\n      jump\t// in\n    tag_362:\n        /* \"#utility.yul\":1591:1654   */\n      swap2\n      pop\n        /* \"#utility.yul\":1546:1664   */\n      pop\n        /* \"#utility.yul\":1197:1671   */\n      swap3\n      pop\n      swap3\n      swap1\n      pop\n      jump\t// out\n        /* \"#utility.yul\":1677:1795   */\n    tag_294:\n        /* \"#utility.yul\":1764:1788   */\n      tag_364\n        /* \"#utility.yul\":1782:1787   */\n      dup2\n        /* \"#utility.yul\":1764:1788   */\n      tag_291\n      jump\t// in\n    tag_364:\n        /* \"#utility.yul\":1759:1762   */\n      dup3\n        /* \"#utility.yul\":1752:1789   */\n      mstore\n        /* \"#utility.yul\":1677:1795   */\n      pop\n      pop\n      jump\t// out\n        /* \"#utility.yul\":1801:2023   */\n    tag_23:\n        /* \"#utility.yul\":1894:1898   */\n      0x00\n        /* \"#utility.yul\":1932:1934   */\n      0x20\n        /* \"#utility.yul\":1921:1930   */\n      dup3\n        /* \"#utility.yul\":1917:1935   */\n      add\n        /* \"#utility.yul\":1909:1935   */\n      swap1\n      pop\n        /* \"#utility.yul\":1945:2016   */\n      tag_366\n        /* \"#utility.yul\":2013:2014   */\n      0x00\n        /* \"#utility.yul\":2002:2011   */\n      dup4\n        /* \"#utility.yul\":1998:2015   */\n      add\n        /* \"#utility.yul\":1989:1995   */\n      dup5\n        /* \"#utility.yul\":1945:2016   */\n      tag_294\n      jump\t// in\n    tag_366:\n        /* \"#utility.yul\":1801:2023   */\n      swap3\n      swap2\n      pop\n      pop\n      jump\t// out\n        /* \"#utility.yul\":2029:2178   */\n    tag_295:\n        /* \"#utility.yul\":2065:2072   */\n      0x00\n        /* \"#utility.yul\":2105:2171   */\n      0xffffffff00000000000000000000000000000000000000000000000000000000\n        /* \"#utility.yul\":2098:2103   */\n      dup3\n        /* \"#utility.yul\":2094:2172   */\n      and\n        /* \"#utility.yul\":2083:2172   */\n      swap1\n      pop\n        /* \"#utility.yul\":2029:2178   */\n      swap2\n      swap1\n      pop\n      jump\t// out\n        /* \"#utility.yul\":2184:2304   */\n    tag_296:\n        /* \"#utility.yul\":2256:2279   */\n      tag_369\n        /* \"#utility.yul\":2273:2278   */\n      dup2\n        /* \"#utility.yul\":2256:2279   */\n      tag_295\n      jump\t// in\n    tag_369:\n        /* \"#utility.yul\":2249:2254   */\n      dup2\n        /* \"#utility.yul\":2246:2280   */\n      eq\n        /* \"#utility.yul\":2236:2298   */\n      tag_370\n      jumpi\n        /* \"#utility.yul\":2294:2295   */\n      0x00\n        /* \"#utility.yul\":2291:2292   */\n      dup1\n        /* \"#utility.yul\":2284:2296   */\n      revert\n        /* \"#utility.yul\":2236:2298   */\n    tag_370:\n        /* \"#utility.yul\":2184:2304   */\n      pop\n      jump\t// out\n        /* \"#utility.yul\":2310:2447   */\n    tag_297:\n        /* \"#utility.yul\":2355:2360   */\n      0x00\n        /* \"#utility.yul\":2393:2399   */\n      dup2\n        /* \"#utility.yul\":2380:2400   */\n      calldataload\n        /* \"#utility.yul\":2371:2400   */\n      swap1\n      pop\n        /* \"#utility.yul\":2409:2441   */\n      tag_372\n        /* \"#utility.yul\":2435:2440   */\n      dup2\n        /* \"#utility.yul\":2409:2441   */\n      tag_296\n      jump\t// in\n    tag_372:\n        /* \"#utility.yul\":2310:2447   */\n      swap3\n      swap2\n      pop\n      pop\n      jump\t// out\n        /* \"#utility.yul\":2453:2780   */\n    tag_27:\n        /* \"#utility.yul\":2511:2517   */\n      0x00\n        /* \"#utility.yul\":2560:2562   */\n      0x20\n        /* \"#utility.yul\":2548:2557   */\n      dup3\n        /* \"#utility.yul\":2539:2546   */\n      dup5\n        /* \"#utility.yul\":2535:2558   */\n      sub\n        /* \"#utility.yul\":2531:2563   */\n      slt\n        /* \"#utility.yul\":2528:2647   */\n      iszero\n      tag_374\n      jumpi\n        /* \"#utility.yul\":2566:2645   */\n      tag_375\n      tag_285\n      jump\t// in\n    tag_375:\n        /* \"#utility.yul\":2528:2647   */\n    tag_374:\n        /* \"#utility.yul\":2686:2687   */\n      0x00\n        /* \"#utility.yul\":2711:2763   */\n      tag_376\n        /* \"#utility.yul\":2755:2762   */\n      dup5\n        /* \"#utility.yul\":2746:2752   */\n      dup3\n        /* \"#utility.yul\":2735:2744   */\n      dup6\n        /* \"#utility.yul\":2731:2753   */\n      add\n        /* \"#utility.yul\":2711:2763   */\n      tag_297\n      jump\t// in\n    tag_376:\n        /* \"#utility.yul\":2701:2763   */\n      swap2\n      pop\n        /* \"#utility.yul\":2657:2773   */\n      pop\n        /* \"#utility.yul\":2453:2780   */\n      swap3\n      swap2\n      pop\n      pop\n      jump\t// out\n        /* \"#utility.yul\":2786:2876   */\n    tag_298:\n        /* \"#utility.yul\":2820:2827   */\n      0x00\n        /* \"#utility.yul\":2863:2868   */\n      dup2\n        /* \"#utility.yul\":2856:2869   */\n      iszero\n        /* \"#utility.yul\":2849:2870   */\n      iszero\n        /* \"#utility.yul\":2838:2870   */\n      swap1\n      pop\n        /* \"#utility.yul\":2786:2876   */\n      swap2\n      swap1\n      pop\n      jump\t// out\n        /* \"#utility.yul\":2882:2991   */\n    tag_299:\n        /* \"#utility.yul\":2963:2984   */\n      tag_379\n        /* \"#utility.yul\":2978:2983   */\n      dup2\n        /* \"#utility.yul\":2963:2984   */\n      tag_298\n      jump\t// in\n    tag_379:\n        /* \"#utility.yul\":2958:2961   */\n      dup3\n        /* \"#utility.yul\":2951:2985   */\n      mstore\n        /* \"#utility.yul\":2882:2991   */\n      pop\n      pop\n      jump\t// out\n        /* \"#utility.yul\":2997:3207   */\n    tag_30:\n        /* \"#utility.yul\":3084:3088   */\n      0x00\n        /* \"#utility.yul\":3122:3124   */\n      0x20\n        /* \"#utility.yul\":3111:3120   */\n      dup3\n        /* \"#utility.yul\":3107:3125   */\n      add\n        /* \"#utility.yul\":3099:3125   */\n      swap1\n      pop\n        /* \"#utility.yul\":3135:3200   */\n      tag_381\n        /* \"#utility.yul\":3197:3198   */\n      0x00\n        /* \"#utility.yul\":3186:3195   */\n      dup4\n        /* \"#utility.yul\":3182:3199   */\n      add\n        /* \"#utility.yul\":3173:3179   */\n      dup5\n        /* \"#utility.yul\":3135:3200   */\n      tag_299\n      jump\t// in\n    tag_381:\n        /* \"#utility.yul\":2997:3207   */\n      swap3\n      swap2\n      pop\n      pop\n      jump\t// out\n        /* \"#utility.yul\":3213:3687   */\n    tag_36:\n        /* \"#utility.yul\":3281:3287   */\n      0x00\n        /* \"#utility.yul\":3289:3295   */\n      dup1\n        /* \"#utility.yul\":3338:3340   */\n      0x40\n        /* \"#utility.yul\":3326:3335   */\n      dup4\n        /* \"#utility.yul\":3317:3324   */\n      dup6\n        /* \"#utility.yul\":3313:3336   */\n      sub\n        /* \"#utility.yul\":3309:3341   */\n      slt\n        /* \"#utility.yul\":3306:3425   */\n      iszero\n      tag_383\n      jumpi\n        /* \"#utility.yul\":3344:3423   */\n      tag_384\n      tag_285\n      jump\t// in\n    tag_384:\n        /* \"#utility.yul\":3306:3425   */\n    tag_383:\n        /* \"#utility.yul\":3464:3465   */\n      0x00\n        /* \"#utility.yul\":3489:3542   */\n      tag_385\n        /* \"#utility.yul\":3534:3541   */\n      dup6\n        /* \"#utility.yul\":3525:3531   */\n      dup3\n        /* \"#utility.yul\":3514:3523   */\n      dup7\n        /* \"#utility.yul\":3510:3532   */\n      add\n        /* \"#utility.yul\":3489:3542   */\n      tag_293\n      jump\t// in\n    tag_385:\n        /* \"#utility.yul\":3479:3542   */\n      swap3\n      pop\n        /* \"#utility.yul\":3435:3552   */\n      pop\n        /* \"#utility.yul\":3591:3593   */\n      0x20\n        /* \"#utility.yul\":3617:3670   */\n      tag_386\n        /* \"#utility.yul\":3662:3669   */\n      dup6\n        /* \"#utility.yul\":3653:3659   */\n      dup3\n        /* \"#utility.yul\":3642:3651   */\n      dup7\n        /* \"#utility.yul\":3638:3660   */\n      add\n        /* \"#utility.yul\":3617:3670   */\n      tag_293\n      jump\t// in\n    tag_386:\n        /* \"#utility.yul\":3607:3670   */\n      swap2\n      pop\n        /* \"#utility.yul\":3562:3680   */\n      pop\n        /* \"#utility.yul\":3213:3687   */\n      swap3\n      pop\n      swap3\n      swap1\n      pop\n      jump\t// out\n        /* \"#utility.yul\":3693:4022   */\n    tag_41:\n        /* \"#utility.yul\":3752:3758   */\n      0x00\n        /* \"#utility.yul\":3801:3803   */\n      0x20\n        /* \"#utility.yul\":3789:3798   */\n      dup3\n        /* \"#utility.yul\":3780:3787   */\n      dup5\n        /* \"#utility.yul\":3776:3799   */\n      sub\n        /* \"#utility.yul\":3772:3804   */\n      slt\n        /* \"#utility.yul\":3769:3888   */\n      iszero\n      tag_388\n      jumpi\n        /* \"#utility.yul\":3807:3886   */\n      tag_389\n      tag_285\n      jump\t// in\n    tag_389:\n        /* \"#utility.yul\":3769:3888   */\n    tag_388:\n        /* \"#utility.yul\":3927:3928   */\n      0x00\n        /* \"#utility.yul\":3952:4005   */\n      tag_390\n        /* \"#utility.yul\":3997:4004   */\n      dup5\n        /* \"#utility.yul\":3988:3994   */\n      dup3\n        /* \"#utility.yul\":3977:3986   */\n      dup6\n        /* \"#utility.yul\":3973:3995   */\n      add\n        /* \"#utility.yul\":3952:4005   */\n      tag_293\n      jump\t// in\n    tag_390:\n        /* \"#utility.yul\":3942:4005   */\n      swap2\n      pop\n        /* \"#utility.yul\":3898:4015   */\n      pop\n        /* \"#utility.yul\":3693:4022   */\n      swap3\n      swap2\n      pop\n      pop\n      jump\t// out\n        /* \"#utility.yul\":4028:4127   */\n    tag_300:\n        /* \"#utility.yul\":4080:4086   */\n      0x00\n        /* \"#utility.yul\":4114:4119   */\n      dup2\n        /* \"#utility.yul\":4108:4120   */\n      mload\n        /* \"#utility.yul\":4098:4120   */\n      swap1\n      pop\n        /* \"#utility.yul\":4028:4127   */\n      swap2\n      swap1\n      pop\n      jump\t// out\n        /* \"#utility.yul\":4133:4302   */\n    tag_301:\n        /* \"#utility.yul\":4217:4228   */\n      0x00\n        /* \"#utility.yul\":4251:4257   */\n      dup3\n        /* \"#utility.yul\":4246:4249   */\n      dup3\n        /* \"#utility.yul\":4239:4258   */\n      mstore\n        /* \"#utility.yul\":4291:4295   */\n      0x20\n        /* \"#utility.yul\":4286:4289   */\n      dup3\n        /* \"#utility.yul\":4282:4296   */\n      add\n        /* \"#utility.yul\":4267:4296   */\n      swap1\n      pop\n        /* \"#utility.yul\":4133:4302   */\n      swap3\n      swap2\n      pop\n      pop\n      jump\t// out\n        /* \"#utility.yul\":4308:4447   */\n    tag_302:\n        /* \"#utility.yul\":4397:4403   */\n      dup3\n        /* \"#utility.yul\":4392:4395   */\n      dup2\n        /* \"#utility.yul\":4387:4390   */\n      dup4\n        /* \"#utility.yul\":4381:4404   */\n      mcopy\n        /* \"#utility.yul\":4438:4439   */\n      0x00\n        /* \"#utility.yul\":4429:4435   */\n      dup4\n        /* \"#utility.yul\":4424:4427   */\n      dup4\n        /* \"#utility.yul\":4420:4436   */\n      add\n        /* \"#utility.yul\":4413:4440   */\n      mstore\n        /* \"#utility.yul\":4308:4447   */\n      pop\n      pop\n      pop\n      jump\t// out\n        /* \"#utility.yul\":4453:4555   */\n    tag_303:\n        /* \"#utility.yul\":4494:4500   */\n      0x00\n        /* \"#utility.yul\":4545:4547   */\n      0x1f\n        /* \"#utility.yul\":4541:4548   */\n      not\n        /* \"#utility.yul\":4536:4538   */\n      0x1f\n        /* \"#utility.yul\":4529:4534   */\n      dup4\n        /* \"#utility.yul\":4525:4539   */\n      add\n        /* \"#utility.yul\":4521:4549   */\n      and\n        /* \"#utility.yul\":4511:4549   */\n      swap1\n      pop\n        /* \"#utility.yul\":4453:4555   */\n      swap2\n      swap1\n      pop\n      jump\t// out\n        /* \"#utility.yul\":4561:4938   */\n    tag_304:\n        /* \"#utility.yul\":4649:4652   */\n      0x00\n        /* \"#utility.yul\":4677:4716   */\n      tag_396\n        /* \"#utility.yul\":4710:4715   */\n      dup3\n        /* \"#utility.yul\":4677:4716   */\n      tag_300\n      jump\t// in\n    tag_396:\n        /* \"#utility.yul\":4732:4803   */\n      tag_397\n        /* \"#utility.yul\":4796:4802   */\n      dup2\n        /* \"#utility.yul\":4791:4794   */\n      dup6\n        /* \"#utility.yul\":4732:4803   */\n      tag_301\n      jump\t// in\n    tag_397:\n        /* \"#utility.yul\":4725:4803   */\n      swap4\n      pop\n        /* \"#utility.yul\":4812:4877   */\n      tag_398\n        /* \"#utility.yul\":4870:4876   */\n      dup2\n        /* \"#utility.yul\":4865:4868   */\n      dup6\n        /* \"#utility.yul\":4858:4862   */\n      0x20\n        /* \"#utility.yul\":4851:4856   */\n      dup7\n        /* \"#utility.yul\":4847:4863   */\n      add\n        /* \"#utility.yul\":4812:4877   */\n      tag_302\n      jump\t// in\n    tag_398:\n        /* \"#utility.yul\":4902:4931   */\n      tag_399\n        /* \"#utility.yul\":4924:4930   */\n      dup2\n        /* \"#utility.yul\":4902:4931   */\n      tag_303\n      jump\t// in\n    tag_399:\n        /* \"#utility.yul\":4897:4900   */\n      dup5\n        /* \"#utility.yul\":4893:4932   */\n      add\n        /* \"#utility.yul\":4886:4932   */\n      swap2\n      pop\n        /* \"#utility.yul\":4653:4938   */\n      pop\n        /* \"#utility.yul\":4561:4938   */\n      swap3\n      swap2\n      pop\n      pop\n      jump\t// out\n        /* \"#utility.yul\":4944:5257   */\n    tag_44:\n        /* \"#utility.yul\":5057:5061   */\n      0x00\n        /* \"#utility.yul\":5095:5097   */\n      0x20\n        /* \"#utility.yul\":5084:5093   */\n      dup3\n        /* \"#utility.yul\":5080:5098   */\n      add\n        /* \"#utility.yul\":5072:5098   */\n      swap1\n      pop\n        /* \"#utility.yul\":5144:5153   */\n      dup2\n        /* \"#utility.yul\":5138:5142   */\n      dup2\n        /* \"#utility.yul\":5134:5154   */\n      sub\n        /* \"#utility.yul\":5130:5131   */\n      0x00\n        /* \"#utility.yul\":5119:5128   */\n      dup4\n        /* \"#utility.yul\":5115:5132   */\n      add\n        /* \"#utility.yul\":5108:5155   */\n      mstore\n        /* \"#utility.yul\":5172:5250   */\n      tag_401\n        /* \"#utility.yul\":5245:5249   */\n      dup2\n        /* \"#utility.yul\":5236:5242   */\n      dup5\n        /* \"#utility.yul\":5172:5250   */\n      tag_304\n      jump\t// in\n    tag_401:\n        /* \"#utility.yul\":5164:5250   */\n      swap1\n      pop\n        /* \"#utility.yul\":4944:5257   */\n      swap3\n      swap2\n      pop\n      pop\n      jump\t// out\n        /* \"#utility.yul\":5263:5380   */\n    tag_305:\n        /* \"#utility.yul\":5372:5373   */\n      0x00\n        /* \"#utility.yul\":5369:5370   */\n      dup1\n        /* \"#utility.yul\":5362:5374   */\n      revert\n        /* \"#utility.yul\":5386:5566   */\n    tag_137:\n        /* \"#utility.yul\":5434:5511   */\n      0x4e487b7100000000000000000000000000000000000000000000000000000000\n        /* \"#utility.yul\":5431:5432   */\n      0x00\n        /* \"#utility.yul\":5424:5512   */\n      mstore\n        /* \"#utility.yul\":5531:5535   */\n      0x41\n        /* \"#utility.yul\":5528:5529   */\n      0x04\n        /* \"#utility.yul\":5521:5536   */\n      mstore\n        /* \"#utility.yul\":5555:5559   */\n      0x24\n        /* \"#utility.yul\":5552:5553   */\n      0x00\n        /* \"#utility.yul\":5545:5560   */\n      revert\n        /* \"#utility.yul\":5572:5853   */\n    tag_306:\n        /* \"#utility.yul\":5655:5682   */\n      tag_405\n        /* \"#utility.yul\":5677:5681   */\n      dup3\n        /* \"#utility.yul\":5655:5682   */\n      tag_303\n      jump\t// in\n    tag_405:\n        /* \"#utility.yul\":5647:5653   */\n      dup2\n        /* \"#utility.yul\":5643:5683   */\n      add\n        /* \"#utility.yul\":5785:5791   */\n      dup2\n        /* \"#utility.yul\":5773:5783   */\n      dup2\n        /* \"#utility.yul\":5770:5792   */\n      lt\n        /* \"#utility.yul\":5749:5767   */\n      0xffffffffffffffff\n        /* \"#utility.yul\":5737:5747   */\n      dup3\n        /* \"#utility.yul\":5734:5768   */\n      gt\n        /* \"#utility.yul\":5731:5793   */\n      or\n        /* \"#utility.yul\":5728:5816   */\n      iszero\n      tag_406\n      jumpi\n        /* \"#utility.yul\":5796:5814   */\n      tag_407\n      tag_137\n      jump\t// in\n    tag_407:\n        /* \"#utility.yul\":5728:5816   */\n    tag_406:\n        /* \"#utility.yul\":5836:5846   */\n      dup1\n        /* \"#utility.yul\":5832:5834   */\n      0x40\n        /* \"#utility.yul\":5825:5847   */\n      mstore\n        /* \"#utility.yul\":5615:5853   */\n      pop\n        /* \"#utility.yul\":5572:5853   */\n      pop\n      pop\n      jump\t// out\n        /* \"#utility.yul\":5859:5988   */\n    tag_307:\n        /* \"#utility.yul\":5893:5899   */\n      0x00\n        /* \"#utility.yul\":5920:5940   */\n      tag_409\n      tag_284\n      jump\t// in\n    tag_409:\n        /* \"#utility.yul\":5910:5940   */\n      swap1\n      pop\n        /* \"#utility.yul\":5949:5982   */\n      tag_410\n        /* \"#utility.yul\":5977:5981   */\n      dup3\n        /* \"#utility.yul\":5969:5975   */\n      dup3\n        /* \"#utility.yul\":5949:5982   */\n      tag_306\n      jump\t// in\n    tag_410:\n        /* \"#utility.yul\":5859:5988   */\n      swap2\n      swap1\n      pop\n      jump\t// out\n        /* \"#utility.yul\":5994:6305   */\n    tag_308:\n        /* \"#utility.yul\":6071:6075   */\n      0x00\n        /* \"#utility.yul\":6161:6179   */\n      0xffffffffffffffff\n        /* \"#utility.yul\":6153:6159   */\n      dup3\n        /* \"#utility.yul\":6150:6180   */\n      gt\n        /* \"#utility.yul\":6147:6203   */\n      iszero\n      tag_412\n      jumpi\n        /* \"#utility.yul\":6183:6201   */\n      tag_413\n      tag_137\n      jump\t// in\n    tag_413:\n        /* \"#utility.yul\":6147:6203   */\n    tag_412:\n        /* \"#utility.yul\":6233:6237   */\n      0x20\n        /* \"#utility.yul\":6225:6231   */\n      dup3\n        /* \"#utility.yul\":6221:6238   */\n      mul\n        /* \"#utility.yul\":6213:6238   */\n      swap1\n      pop\n        /* \"#utility.yul\":6293:6297   */\n      0x20\n        /* \"#utility.yul\":6287:6291   */\n      dup2\n        /* \"#utility.yul\":6283:6298   */\n      add\n        /* \"#utility.yul\":6275:6298   */\n      swap1\n      pop\n        /* \"#utility.yul\":5994:6305   */\n      swap2\n      swap1\n      pop\n      jump\t// out\n        /* \"#utility.yul\":6311:6428   */\n    tag_309:\n        /* \"#utility.yul\":6420:6421   */\n      0x00\n        /* \"#utility.yul\":6417:6418   */\n      dup1\n        /* \"#utility.yul\":6410:6422   */\n      revert\n        /* \"#utility.yul\":6451:7161   */\n    tag_310:\n        /* \"#utility.yul\":6547:6552   */\n      0x00\n        /* \"#utility.yul\":6572:6653   */\n      tag_416\n        /* \"#utility.yul\":6588:6652   */\n      tag_417\n        /* \"#utility.yul\":6645:6651   */\n      dup5\n        /* \"#utility.yul\":6588:6652   */\n      tag_308\n      jump\t// in\n    tag_417:\n        /* \"#utility.yul\":6572:6653   */\n      tag_307\n      jump\t// in\n    tag_416:\n        /* \"#utility.yul\":6563:6653   */\n      swap1\n      pop\n        /* \"#utility.yul\":6673:6678   */\n      dup1\n        /* \"#utility.yul\":6702:6708   */\n      dup4\n        /* \"#utility.yul\":6695:6700   */\n      dup3\n        /* \"#utility.yul\":6688:6709   */\n      mstore\n        /* \"#utility.yul\":6736:6740   */\n      0x20\n        /* \"#utility.yul\":6729:6734   */\n      dup3\n        /* \"#utility.yul\":6725:6741   */\n      add\n        /* \"#utility.yul\":6718:6741   */\n      swap1\n      pop\n        /* \"#utility.yul\":6789:6793   */\n      0x20\n        /* \"#utility.yul\":6781:6787   */\n      dup5\n        /* \"#utility.yul\":6777:6794   */\n      mul\n        /* \"#utility.yul\":6769:6775   */\n      dup4\n        /* \"#utility.yul\":6765:6795   */\n      add\n        /* \"#utility.yul\":6818:6821   */\n      dup6\n        /* \"#utility.yul\":6810:6816   */\n      dup2\n        /* \"#utility.yul\":6807:6822   */\n      gt\n        /* \"#utility.yul\":6804:6926   */\n      iszero\n      tag_418\n      jumpi\n        /* \"#utility.yul\":6837:6916   */\n      tag_419\n      tag_309\n      jump\t// in\n    tag_419:\n        /* \"#utility.yul\":6804:6926   */\n    tag_418:\n        /* \"#utility.yul\":6952:6958   */\n      dup4\n        /* \"#utility.yul\":6935:7155   */\n    tag_420:\n        /* \"#utility.yul\":6969:6975   */\n      dup2\n        /* \"#utility.yul\":6964:6967   */\n      dup2\n        /* \"#utility.yul\":6961:6976   */\n      lt\n        /* \"#utility.yul\":6935:7155   */\n      iszero\n      tag_422\n      jumpi\n        /* \"#utility.yul\":7044:7047   */\n      dup1\n        /* \"#utility.yul\":7073:7110   */\n      tag_423\n        /* \"#utility.yul\":7106:7109   */\n      dup9\n        /* \"#utility.yul\":7094:7104   */\n      dup3\n        /* \"#utility.yul\":7073:7110   */\n      tag_293\n      jump\t// in\n    tag_423:\n        /* \"#utility.yul\":7068:7071   */\n      dup5\n        /* \"#utility.yul\":7061:7111   */\n      mstore\n        /* \"#utility.yul\":7140:7144   */\n      0x20\n        /* \"#utility.yul\":7135:7138   */\n      dup5\n        /* \"#utility.yul\":7131:7145   */\n      add\n        /* \"#utility.yul\":7124:7145   */\n      swap4\n      pop\n        /* \"#utility.yul\":7011:7155   */\n      pop\n        /* \"#utility.yul\":6995:6999   */\n      0x20\n        /* \"#utility.yul\":6990:6993   */\n      dup2\n        /* \"#utility.yul\":6986:7000   */\n      add\n        /* \"#utility.yul\":6979:7000   */\n      swap1\n      pop\n        /* \"#utility.yul\":6935:7155   */\n      jump(tag_420)\n    tag_422:\n        /* \"#utility.yul\":6939:6960   */\n      pop\n        /* \"#utility.yul\":6553:7161   */\n      pop\n      pop\n        /* \"#utility.yul\":6451:7161   */\n      swap4\n      swap3\n      pop\n      pop\n      pop\n      jump\t// out\n        /* \"#utility.yul\":7184:7554   */\n    tag_311:\n        /* \"#utility.yul\":7255:7260   */\n      0x00\n        /* \"#utility.yul\":7304:7307   */\n      dup3\n        /* \"#utility.yul\":7297:7301   */\n      0x1f\n        /* \"#utility.yul\":7289:7295   */\n      dup4\n        /* \"#utility.yul\":7285:7302   */\n      add\n        /* \"#utility.yul\":7281:7308   */\n      slt\n        /* \"#utility.yul\":7271:7393   */\n      tag_425\n      jumpi\n        /* \"#utility.yul\":7312:7391   */\n      tag_426\n      tag_305\n      jump\t// in\n    tag_426:\n        /* \"#utility.yul\":7271:7393   */\n    tag_425:\n        /* \"#utility.yul\":7429:7435   */\n      dup2\n        /* \"#utility.yul\":7416:7436   */\n      calldataload\n        /* \"#utility.yul\":7454:7548   */\n      tag_427\n        /* \"#utility.yul\":7544:7547   */\n      dup5\n        /* \"#utility.yul\":7536:7542   */\n      dup3\n        /* \"#utility.yul\":7529:7533   */\n      0x20\n        /* \"#utility.yul\":7521:7527   */\n      dup7\n        /* \"#utility.yul\":7517:7534   */\n      add\n        /* \"#utility.yul\":7454:7548   */\n      tag_310\n      jump\t// in\n    tag_427:\n        /* \"#utility.yul\":7445:7548   */\n      swap2\n      pop\n        /* \"#utility.yul\":7261:7554   */\n      pop\n        /* \"#utility.yul\":7184:7554   */\n      swap3\n      swap2\n      pop\n      pop\n      jump\t// out\n        /* \"#utility.yul\":7560:7677   */\n    tag_312:\n        /* \"#utility.yul\":7669:7670   */\n      0x00\n        /* \"#utility.yul\":7666:7667   */\n      dup1\n        /* \"#utility.yul\":7659:7671   */\n      revert\n        /* \"#utility.yul\":7683:7990   */\n    tag_313:\n        /* \"#utility.yul\":7744:7748   */\n      0x00\n        /* \"#utility.yul\":7834:7852   */\n      0xffffffffffffffff\n        /* \"#utility.yul\":7826:7832   */\n      dup3\n        /* \"#utility.yul\":7823:7853   */\n      gt\n        /* \"#utility.yul\":7820:7876   */\n      iszero\n      tag_430\n      jumpi\n        /* \"#utility.yul\":7856:7874   */\n      tag_431\n      tag_137\n      jump\t// in\n    tag_431:\n        /* \"#utility.yul\":7820:7876   */\n    tag_430:\n        /* \"#utility.yul\":7894:7923   */\n      tag_432\n        /* \"#utility.yul\":7916:7922   */\n      dup3\n        /* \"#utility.yul\":7894:7923   */\n      tag_303\n      jump\t// in\n    tag_432:\n        /* \"#utility.yul\":7886:7923   */\n      swap1\n      pop\n        /* \"#utility.yul\":7978:7982   */\n      0x20\n        /* \"#utility.yul\":7972:7976   */\n      dup2\n        /* \"#utility.yul\":7968:7983   */\n      add\n        /* \"#utility.yul\":7960:7983   */\n      swap1\n      pop\n        /* \"#utility.yul\":7683:7990   */\n      swap2\n      swap1\n      pop\n      jump\t// out\n        /* \"#utility.yul\":7996:8144   */\n    tag_314:\n        /* \"#utility.yul\":8094:8100   */\n      dup3\n        /* \"#utility.yul\":8089:8092   */\n      dup2\n        /* \"#utility.yul\":8084:8087   */\n      dup4\n        /* \"#utility.yul\":8071:8101   */\n      calldatacopy\n        /* \"#utility.yul\":8135:8136   */\n      0x00\n        /* \"#utility.yul\":8126:8132   */\n      dup4\n        /* \"#utility.yul\":8121:8124   */\n      dup4\n        /* \"#utility.yul\":8117:8133   */\n      add\n        /* \"#utility.yul\":8110:8137   */\n      mstore\n        /* \"#utility.yul\":7996:8144   */\n      pop\n      pop\n      pop\n      jump\t// out\n        /* \"#utility.yul\":8150:8573   */\n    tag_315:\n        /* \"#utility.yul\":8227:8232   */\n      0x00\n        /* \"#utility.yul\":8252:8317   */\n      tag_435\n        /* \"#utility.yul\":8268:8316   */\n      tag_436\n        /* \"#utility.yul\":8309:8315   */\n      dup5\n        /* \"#utility.yul\":8268:8316   */\n      tag_313\n      jump\t// in\n    tag_436:\n        /* \"#utility.yul\":8252:8317   */\n      tag_307\n      jump\t// in\n    tag_435:\n        /* \"#utility.yul\":8243:8317   */\n      swap1\n      pop\n        /* \"#utility.yul\":8340:8346   */\n      dup3\n        /* \"#utility.yul\":8333:8338   */\n      dup2\n        /* \"#utility.yul\":8326:8347   */\n      mstore\n        /* \"#utility.yul\":8378:8382   */\n      0x20\n        /* \"#utility.yul\":8371:8376   */\n      dup2\n        /* \"#utility.yul\":8367:8383   */\n      add\n        /* \"#utility.yul\":8416:8419   */\n      dup5\n        /* \"#utility.yul\":8407:8413   */\n      dup5\n        /* \"#utility.yul\":8402:8405   */\n      dup5\n        /* \"#utility.yul\":8398:8414   */\n      add\n        /* \"#utility.yul\":8395:8420   */\n      gt\n        /* \"#utility.yul\":8392:8504   */\n      iszero\n      tag_437\n      jumpi\n        /* \"#utility.yul\":8423:8502   */\n      tag_438\n      tag_312\n      jump\t// in\n    tag_438:\n        /* \"#utility.yul\":8392:8504   */\n    tag_437:\n        /* \"#utility.yul\":8513:8567   */\n      tag_439\n        /* \"#utility.yul\":8560:8566   */\n      dup5\n        /* \"#utility.yul\":8555:8558   */\n      dup3\n        /* \"#utility.yul\":8550:8553   */\n      dup6\n        /* \"#utility.yul\":8513:8567   */\n      tag_314\n      jump\t// in\n    tag_439:\n        /* \"#utility.yul\":8233:8573   */\n      pop\n        /* \"#utility.yul\":8150:8573   */\n      swap4\n      swap3\n      pop\n      pop\n      pop\n      jump\t// out\n        /* \"#utility.yul\":8592:8930   */\n    tag_316:\n        /* \"#utility.yul\":8647:8652   */\n      0x00\n        /* \"#utility.yul\":8696:8699   */\n      dup3\n        /* \"#utility.yul\":8689:8693   */\n      0x1f\n        /* \"#utility.yul\":8681:8687   */\n      dup4\n        /* \"#utility.yul\":8677:8694   */\n      add\n        /* \"#utility.yul\":8673:8700   */\n      slt\n        /* \"#utility.yul\":8663:8785   */\n      tag_441\n      jumpi\n        /* \"#utility.yul\":8704:8783   */\n      tag_442\n      tag_305\n      jump\t// in\n    tag_442:\n        /* \"#utility.yul\":8663:8785   */\n    tag_441:\n        /* \"#utility.yul\":8821:8827   */\n      dup2\n        /* \"#utility.yul\":8808:8828   */\n      calldataload\n        /* \"#utility.yul\":8846:8924   */\n      tag_443\n        /* \"#utility.yul\":8920:8923   */\n      dup5\n        /* \"#utility.yul\":8912:8918   */\n      dup3\n        /* \"#utility.yul\":8905:8909   */\n      0x20\n        /* \"#utility.yul\":8897:8903   */\n      dup7\n        /* \"#utility.yul\":8893:8910   */\n      add\n        /* \"#utility.yul\":8846:8924   */\n      tag_315\n      jump\t// in\n    tag_443:\n        /* \"#utility.yul\":8837:8924   */\n      swap2\n      pop\n        /* \"#utility.yul\":8653:8930   */\n      pop\n        /* \"#utility.yul\":8592:8930   */\n      swap3\n      swap2\n      pop\n      pop\n      jump\t// out\n        /* \"#utility.yul\":8936:10445   */\n    tag_52:\n        /* \"#utility.yul\":9090:9096   */\n      0x00\n        /* \"#utility.yul\":9098:9104   */\n      dup1\n        /* \"#utility.yul\":9106:9112   */\n      0x00\n        /* \"#utility.yul\":9114:9120   */\n      dup1\n        /* \"#utility.yul\":9122:9128   */\n      0x00\n        /* \"#utility.yul\":9171:9174   */\n      0xa0\n        /* \"#utility.yul\":9159:9168   */\n      dup7\n        /* \"#utility.yul\":9150:9157   */\n      dup9\n        /* \"#utility.yul\":9146:9169   */\n      sub\n        /* \"#utility.yul\":9142:9175   */\n      slt\n        /* \"#utility.yul\":9139:9259   */\n      iszero\n      tag_445\n      jumpi\n        /* \"#utility.yul\":9178:9257   */\n      tag_446\n      tag_285\n      jump\t// in\n    tag_446:\n        /* \"#utility.yul\":9139:9259   */\n    tag_445:\n        /* \"#utility.yul\":9298:9299   */\n      0x00\n        /* \"#utility.yul\":9323:9376   */\n      tag_447\n        /* \"#utility.yul\":9368:9375   */\n      dup9\n        /* \"#utility.yul\":9359:9365   */\n      dup3\n        /* \"#utility.yul\":9348:9357   */\n      dup10\n        /* \"#utility.yul\":9344:9366   */\n      add\n        /* \"#utility.yul\":9323:9376   */\n      tag_290\n      jump\t// in\n    tag_447:\n        /* \"#utility.yul\":9313:9376   */\n      swap6\n      pop\n        /* \"#utility.yul\":9269:9386   */\n      pop\n        /* \"#utility.yul\":9425:9427   */\n      0x20\n        /* \"#utility.yul\":9451:9504   */\n      tag_448\n        /* \"#utility.yul\":9496:9503   */\n      dup9\n        /* \"#utility.yul\":9487:9493   */\n      dup3\n        /* \"#utility.yul\":9476:9485   */\n      dup10\n        /* \"#utility.yul\":9472:9494   */\n      add\n        /* \"#utility.yul\":9451:9504   */\n      tag_290\n      jump\t// in\n    tag_448:\n        /* \"#utility.yul\":9441:9504   */\n      swap5\n      pop\n        /* \"#utility.yul\":9396:9514   */\n      pop\n        /* \"#utility.yul\":9581:9583   */\n      0x40\n        /* \"#utility.yul\":9570:9579   */\n      dup7\n        /* \"#utility.yul\":9566:9584   */\n      add\n        /* \"#utility.yul\":9553:9585   */\n      calldataload\n        /* \"#utility.yul\":9612:9630   */\n      0xffffffffffffffff\n        /* \"#utility.yul\":9604:9610   */\n      dup2\n        /* \"#utility.yul\":9601:9631   */\n      gt\n        /* \"#utility.yul\":9598:9715   */\n      iszero\n      tag_449\n      jumpi\n        /* \"#utility.yul\":9634:9713   */\n      tag_450\n      tag_286\n      jump\t// in\n    tag_450:\n        /* \"#utility.yul\":9598:9715   */\n    tag_449:\n        /* \"#utility.yul\":9739:9817   */\n      tag_451\n        /* \"#utility.yul\":9809:9816   */\n      dup9\n        /* \"#utility.yul\":9800:9806   */\n      dup3\n        /* \"#utility.yul\":9789:9798   */\n      dup10\n        /* \"#utility.yul\":9785:9807   */\n      add\n        /* \"#utility.yul\":9739:9817   */\n      tag_311\n      jump\t// in\n    tag_451:\n        /* \"#utility.yul\":9729:9817   */\n      swap4\n      pop\n        /* \"#utility.yul\":9524:9827   */\n      pop\n        /* \"#utility.yul\":9894:9896   */\n      0x60\n        /* \"#utility.yul\":9883:9892   */\n      dup7\n        /* \"#utility.yul\":9879:9897   */\n      add\n        /* \"#utility.yul\":9866:9898   */\n      calldataload\n        /* \"#utility.yul\":9925:9943   */\n      0xffffffffffffffff\n        /* \"#utility.yul\":9917:9923   */\n      dup2\n        /* \"#utility.yul\":9914:9944   */\n      gt\n        /* \"#utility.yul\":9911:10028   */\n      iszero\n      tag_452\n      jumpi\n        /* \"#utility.yul\":9947:10026   */\n      tag_453\n      tag_286\n      jump\t// in\n    tag_453:\n        /* \"#utility.yul\":9911:10028   */\n    tag_452:\n        /* \"#utility.yul\":10052:10130   */\n      tag_454\n        /* \"#utility.yul\":10122:10129   */\n      dup9\n        /* \"#utility.yul\":10113:10119   */\n      dup3\n        /* \"#utility.yul\":10102:10111   */\n      dup10\n        /* \"#utility.yul\":10098:10120   */\n      add\n        /* \"#utility.yul\":10052:10130   */\n      tag_311\n      jump\t// in\n    tag_454:\n        /* \"#utility.yul\":10042:10130   */\n      swap3\n      pop\n        /* \"#utility.yul\":9837:10140   */\n      pop\n        /* \"#utility.yul\":10207:10210   */\n      0x80\n        /* \"#utility.yul\":10196:10205   */\n      dup7\n        /* \"#utility.yul\":10192:10211   */\n      add\n        /* \"#utility.yul\":10179:10212   */\n      calldataload\n        /* \"#utility.yul\":10239:10257   */\n      0xffffffffffffffff\n        /* \"#utility.yul\":10231:10237   */\n      dup2\n        /* \"#utility.yul\":10228:10258   */\n      gt\n        /* \"#utility.yul\":10225:10342   */\n      iszero\n      tag_455\n      jumpi\n        /* \"#utility.yul\":10261:10340   */\n      tag_456\n      tag_286\n      jump\t// in\n    tag_456:\n        /* \"#utility.yul\":10225:10342   */\n    tag_455:\n        /* \"#utility.yul\":10366:10428   */\n      tag_457\n        /* \"#utility.yul\":10420:10427   */\n      dup9\n        /* \"#utility.yul\":10411:10417   */\n      dup3\n        /* \"#utility.yul\":10400:10409   */\n      dup10\n        /* \"#utility.yul\":10396:10418   */\n      add\n        /* \"#utility.yul\":10366:10428   */\n      tag_316\n      jump\t// in\n    tag_457:\n        /* \"#utility.yul\":10356:10428   */\n      swap2\n      pop\n        /* \"#utility.yul\":10150:10438   */\n      pop\n        /* \"#utility.yul\":8936:10445   */\n      swap3\n      swap6\n      pop\n      swap3\n      swap6\n      swap1\n      swap4\n      pop\n      jump\t// out\n        /* \"#utility.yul\":10451:10762   */\n    tag_317:\n        /* \"#utility.yul\":10528:10532   */\n      0x00\n        /* \"#utility.yul\":10618:10636   */\n      0xffffffffffffffff\n        /* \"#utility.yul\":10610:10616   */\n      dup3\n        /* \"#utility.yul\":10607:10637   */\n      gt\n        /* \"#utility.yul\":10604:10660   */\n      iszero\n      tag_459\n      jumpi\n        /* \"#utility.yul\":10640:10658   */\n      tag_460\n      tag_137\n      jump\t// in\n    tag_460:\n        /* \"#utility.yul\":10604:10660   */\n    tag_459:\n        /* \"#utility.yul\":10690:10694   */\n      0x20\n        /* \"#utility.yul\":10682:10688   */\n      dup3\n        /* \"#utility.yul\":10678:10695   */\n      mul\n        /* \"#utility.yul\":10670:10695   */\n      swap1\n      pop\n        /* \"#utility.yul\":10750:10754   */\n      0x20\n        /* \"#utility.yul\":10744:10748   */\n      dup2\n        /* \"#utility.yul\":10740:10755   */\n      add\n        /* \"#utility.yul\":10732:10755   */\n      swap1\n      pop\n        /* \"#utility.yul\":10451:10762   */\n      swap2\n      swap1\n      pop\n      jump\t// out\n        /* \"#utility.yul\":10785:11495   */\n    tag_318:\n        /* \"#utility.yul\":10881:10886   */\n      0x00\n        /* \"#utility.yul\":10906:10987   */\n      tag_462\n        /* \"#utility.yul\":10922:10986   */\n      tag_463\n        /* \"#utility.yul\":10979:10985   */\n      dup5\n        /* \"#utility.yul\":10922:10986   */\n      tag_317\n      jump\t// in\n    tag_463:\n        /* \"#utility.yul\":10906:10987   */\n      tag_307\n      jump\t// in\n    tag_462:\n        /* \"#utility.yul\":10897:10987   */\n      swap1\n      pop\n        /* \"#utility.yul\":11007:11012   */\n      dup1\n        /* \"#utility.yul\":11036:11042   */\n      dup4\n        /* \"#utility.yul\":11029:11034   */\n      dup3\n        /* \"#utility.yul\":11022:11043   */\n      mstore\n        /* \"#utility.yul\":11070:11074   */\n      0x20\n        /* \"#utility.yul\":11063:11068   */\n      dup3\n        /* \"#utility.yul\":11059:11075   */\n      add\n        /* \"#utility.yul\":11052:11075   */\n      swap1\n      pop\n        /* \"#utility.yul\":11123:11127   */\n      0x20\n        /* \"#utility.yul\":11115:11121   */\n      dup5\n        /* \"#utility.yul\":11111:11128   */\n      mul\n        /* \"#utility.yul\":11103:11109   */\n      dup4\n        /* \"#utility.yul\":11099:11129   */\n      add\n        /* \"#utility.yul\":11152:11155   */\n      dup6\n        /* \"#utility.yul\":11144:11150   */\n      dup2\n        /* \"#utility.yul\":11141:11156   */\n      gt\n        /* \"#utility.yul\":11138:11260   */\n      iszero\n      tag_464\n      jumpi\n        /* \"#utility.yul\":11171:11250   */\n      tag_465\n      tag_309\n      jump\t// in\n    tag_465:\n        /* \"#utility.yul\":11138:11260   */\n    tag_464:\n        /* \"#utility.yul\":11286:11292   */\n      dup4\n        /* \"#utility.yul\":11269:11489   */\n    tag_466:\n        /* \"#utility.yul\":11303:11309   */\n      dup2\n        /* \"#utility.yul\":11298:11301   */\n      dup2\n        /* \"#utility.yul\":11295:11310   */\n      lt\n        /* \"#utility.yul\":11269:11489   */\n      iszero\n      tag_468\n      jumpi\n        /* \"#utility.yul\":11378:11381   */\n      dup1\n        /* \"#utility.yul\":11407:11444   */\n      tag_469\n        /* \"#utility.yul\":11440:11443   */\n      dup9\n        /* \"#utility.yul\":11428:11438   */\n      dup3\n        /* \"#utility.yul\":11407:11444   */\n      tag_290\n      jump\t// in\n    tag_469:\n        /* \"#utility.yul\":11402:11405   */\n      dup5\n        /* \"#utility.yul\":11395:11445   */\n      mstore\n        /* \"#utility.yul\":11474:11478   */\n      0x20\n        /* \"#utility.yul\":11469:11472   */\n      dup5\n        /* \"#utility.yul\":11465:11479   */\n      add\n        /* \"#utility.yul\":11458:11479   */\n      swap4\n      pop\n        /* \"#utility.yul\":11345:11489   */\n      pop\n        /* \"#utility.yul\":11329:11333   */\n      0x20\n        /* \"#utility.yul\":11324:11327   */\n      dup2\n        /* \"#utility.yul\":11320:11334   */\n      add\n        /* \"#utility.yul\":11313:11334   */\n      swap1\n      pop\n        /* \"#utility.yul\":11269:11489   */\n      jump(tag_466)\n    tag_468:\n        /* \"#utility.yul\":11273:11294   */\n      pop\n        /* \"#utility.yul\":10887:11495   */\n      pop\n      pop\n        /* \"#utility.yul\":10785:11495   */\n      swap4\n      swap3\n      pop\n      pop\n      pop\n      jump\t// out\n        /* \"#utility.yul\":11518:11888   */\n    tag_319:\n        /* \"#utility.yul\":11589:11594   */\n      0x00\n        /* \"#utility.yul\":11638:11641   */\n      dup3\n        /* \"#utility.yul\":11631:11635   */\n      0x1f\n        /* \"#utility.yul\":11623:11629   */\n      dup4\n        /* \"#utility.yul\":11619:11636   */\n      add\n        /* \"#utility.yul\":11615:11642   */\n      slt\n        /* \"#utility.yul\":11605:11727   */\n      tag_471\n      jumpi\n        /* \"#utility.yul\":11646:11725   */\n      tag_472\n      tag_305\n      jump\t// in\n    tag_472:\n        /* \"#utility.yul\":11605:11727   */\n    tag_471:\n        /* \"#utility.yul\":11763:11769   */\n      dup2\n        /* \"#utility.yul\":11750:11770   */\n      calldataload\n        /* \"#utility.yul\":11788:11882   */\n      tag_473\n        /* \"#utility.yul\":11878:11881   */\n      dup5\n        /* \"#utility.yul\":11870:11876   */\n      dup3\n        /* \"#utility.yul\":11863:11867   */\n      0x20\n        /* \"#utility.yul\":11855:11861   */\n      dup7\n        /* \"#utility.yul\":11851:11868   */\n      add\n        /* \"#utility.yul\":11788:11882   */\n      tag_318\n      jump\t// in\n    tag_473:\n        /* \"#utility.yul\":11779:11882   */\n      swap2\n      pop\n        /* \"#utility.yul\":11595:11888   */\n      pop\n        /* \"#utility.yul\":11518:11888   */\n      swap3\n      swap2\n      pop\n      pop\n      jump\t// out\n        /* \"#utility.yul\":11894:12788   */\n    tag_57:\n        /* \"#utility.yul\":12012:12018   */\n      0x00\n        /* \"#utility.yul\":12020:12026   */\n      dup1\n        /* \"#utility.yul\":12069:12071   */\n      0x40\n        /* \"#utility.yul\":12057:12066   */\n      dup4\n        /* \"#utility.yul\":12048:12055   */\n      dup6\n        /* \"#utility.yul\":12044:12067   */\n      sub\n        /* \"#utility.yul\":12040:12072   */\n      slt\n        /* \"#utility.yul\":12037:12156   */\n      iszero\n      tag_475\n      jumpi\n        /* \"#utility.yul\":12075:12154   */\n      tag_476\n      tag_285\n      jump\t// in\n    tag_476:\n        /* \"#utility.yul\":12037:12156   */\n    tag_475:\n        /* \"#utility.yul\":12223:12224   */\n      0x00\n        /* \"#utility.yul\":12212:12221   */\n      dup4\n        /* \"#utility.yul\":12208:12225   */\n      add\n        /* \"#utility.yul\":12195:12226   */\n      calldataload\n        /* \"#utility.yul\":12253:12271   */\n      0xffffffffffffffff\n        /* \"#utility.yul\":12245:12251   */\n      dup2\n        /* \"#utility.yul\":12242:12272   */\n      gt\n        /* \"#utility.yul\":12239:12356   */\n      iszero\n      tag_477\n      jumpi\n        /* \"#utility.yul\":12275:12354   */\n      tag_478\n      tag_286\n      jump\t// in\n    tag_478:\n        /* \"#utility.yul\":12239:12356   */\n    tag_477:\n        /* \"#utility.yul\":12380:12458   */\n      tag_479\n        /* \"#utility.yul\":12450:12457   */\n      dup6\n        /* \"#utility.yul\":12441:12447   */\n      dup3\n        /* \"#utility.yul\":12430:12439   */\n      dup7\n        /* \"#utility.yul\":12426:12448   */\n      add\n        /* \"#utility.yul\":12380:12458   */\n      tag_319\n      jump\t// in\n    tag_479:\n        /* \"#utility.yul\":12370:12458   */\n      swap3\n      pop\n        /* \"#utility.yul\":12166:12468   */\n      pop\n        /* \"#utility.yul\":12535:12537   */\n      0x20\n        /* \"#utility.yul\":12524:12533   */\n      dup4\n        /* \"#utility.yul\":12520:12538   */\n      add\n        /* \"#utility.yul\":12507:12539   */\n      calldataload\n        /* \"#utility.yul\":12566:12584   */\n      0xffffffffffffffff\n        /* \"#utility.yul\":12558:12564   */\n      dup2\n        /* \"#utility.yul\":12555:12585   */\n      gt\n        /* \"#utility.yul\":12552:12669   */\n      iszero\n      tag_480\n      jumpi\n        /* \"#utility.yul\":12588:12667   */\n      tag_481\n      tag_286\n      jump\t// in\n    tag_481:\n        /* \"#utility.yul\":12552:12669   */\n    tag_480:\n        /* \"#utility.yul\":12693:12771   */\n      tag_482\n        /* \"#utility.yul\":12763:12770   */\n      dup6\n        /* \"#utility.yul\":12754:12760   */\n      dup3\n        /* \"#utility.yul\":12743:12752   */\n      dup7\n        /* \"#utility.yul\":12739:12761   */\n      add\n        /* \"#utility.yul\":12693:12771   */\n      tag_311\n      jump\t// in\n    tag_482:\n        /* \"#utility.yul\":12683:12771   */\n      swap2\n      pop\n        /* \"#utility.yul\":12478:12781   */\n      pop\n        /* \"#utility.yul\":11894:12788   */\n      swap3\n      pop\n      swap3\n      swap1\n      pop\n      jump\t// out\n        /* \"#utility.yul\":12794:12908   */\n    tag_320:\n        /* \"#utility.yul\":12861:12867   */\n      0x00\n        /* \"#utility.yul\":12895:12900   */\n      dup2\n        /* \"#utility.yul\":12889:12901   */\n      mload\n        /* \"#utility.yul\":12879:12901   */\n      swap1\n      pop\n        /* \"#utility.yul\":12794:12908   */\n      swap2\n      swap1\n      pop\n      jump\t// out\n        /* \"#utility.yul\":12914:13098   */\n    tag_321:\n        /* \"#utility.yul\":13013:13024   */\n      0x00\n        /* \"#utility.yul\":13047:13053   */\n      dup3\n        /* \"#utility.yul\":13042:13045   */\n      dup3\n        /* \"#utility.yul\":13035:13054   */\n      mstore\n        /* \"#utility.yul\":13087:13091   */\n      0x20\n        /* \"#utility.yul\":13082:13085   */\n      dup3\n        /* \"#utility.yul\":13078:13092   */\n      add\n        /* \"#utility.yul\":13063:13092   */\n      swap1\n      pop\n        /* \"#utility.yul\":12914:13098   */\n      swap3\n      swap2\n      pop\n      pop\n      jump\t// out\n        /* \"#utility.yul\":13104:13236   */\n    tag_322:\n        /* \"#utility.yul\":13171:13175   */\n      0x00\n        /* \"#utility.yul\":13194:13197   */\n      dup2\n        /* \"#utility.yul\":13186:13197   */\n      swap1\n      pop\n        /* \"#utility.yul\":13224:13228   */\n      0x20\n        /* \"#utility.yul\":13219:13222   */\n      dup3\n        /* \"#utility.yul\":13215:13229   */\n      add\n        /* \"#utility.yul\":13207:13229   */\n      swap1\n      pop\n        /* \"#utility.yul\":13104:13236   */\n      swap2\n      swap1\n      pop\n      jump\t// out\n        /* \"#utility.yul\":13242:13350   */\n    tag_323:\n        /* \"#utility.yul\":13319:13343   */\n      tag_487\n        /* \"#utility.yul\":13337:13342   */\n      dup2\n        /* \"#utility.yul\":13319:13343   */\n      tag_291\n      jump\t// in\n    tag_487:\n        /* \"#utility.yul\":13314:13317   */\n      dup3\n        /* \"#utility.yul\":13307:13344   */\n      mstore\n        /* \"#utility.yul\":13242:13350   */\n      pop\n      pop\n      jump\t// out\n        /* \"#utility.yul\":13356:13535   */\n    tag_324:\n        /* \"#utility.yul\":13425:13435   */\n      0x00\n        /* \"#utility.yul\":13446:13492   */\n      tag_489\n        /* \"#utility.yul\":13488:13491   */\n      dup4\n        /* \"#utility.yul\":13480:13486   */\n      dup4\n        /* \"#utility.yul\":13446:13492   */\n      tag_323\n      jump\t// in\n    tag_489:\n        /* \"#utility.yul\":13524:13528   */\n      0x20\n        /* \"#utility.yul\":13519:13522   */\n      dup4\n        /* \"#utility.yul\":13515:13529   */\n      add\n        /* \"#utility.yul\":13501:13529   */\n      swap1\n      pop\n        /* \"#utility.yul\":13356:13535   */\n      swap3\n      swap2\n      pop\n      pop\n      jump\t// out\n        /* \"#utility.yul\":13541:13654   */\n    tag_325:\n        /* \"#utility.yul\":13611:13615   */\n      0x00\n        /* \"#utility.yul\":13643:13647   */\n      0x20\n        /* \"#utility.yul\":13638:13641   */\n      dup3\n        /* \"#utility.yul\":13634:13648   */\n      add\n        /* \"#utility.yul\":13626:13648   */\n      swap1\n      pop\n        /* \"#utility.yul\":13541:13654   */\n      swap2\n      swap1\n      pop\n      jump\t// out\n        /* \"#utility.yul\":13690:14422   */\n    tag_326:\n        /* \"#utility.yul\":13809:13812   */\n      0x00\n        /* \"#utility.yul\":13838:13892   */\n      tag_492\n        /* \"#utility.yul\":13886:13891   */\n      dup3\n        /* \"#utility.yul\":13838:13892   */\n      tag_320\n      jump\t// in\n    tag_492:\n        /* \"#utility.yul\":13908:13994   */\n      tag_493\n        /* \"#utility.yul\":13987:13993   */\n      dup2\n        /* \"#utility.yul\":13982:13985   */\n      dup6\n        /* \"#utility.yul\":13908:13994   */\n      tag_321\n      jump\t// in\n    tag_493:\n        /* \"#utility.yul\":13901:13994   */\n      swap4\n      pop\n        /* \"#utility.yul\":14018:14074   */\n      tag_494\n        /* \"#utility.yul\":14068:14073   */\n      dup4\n        /* \"#utility.yul\":14018:14074   */\n      tag_322\n      jump\t// in\n    tag_494:\n        /* \"#utility.yul\":14097:14104   */\n      dup1\n        /* \"#utility.yul\":14128:14129   */\n      0x00\n        /* \"#utility.yul\":14113:14397   */\n    tag_495:\n        /* \"#utility.yul\":14138:14144   */\n      dup4\n        /* \"#utility.yul\":14135:14136   */\n      dup2\n        /* \"#utility.yul\":14132:14145   */\n      lt\n        /* \"#utility.yul\":14113:14397   */\n      iszero\n      tag_497\n      jumpi\n        /* \"#utility.yul\":14214:14220   */\n      dup2\n        /* \"#utility.yul\":14208:14221   */\n      mload\n        /* \"#utility.yul\":14241:14304   */\n      tag_498\n        /* \"#utility.yul\":14300:14303   */\n      dup9\n        /* \"#utility.yul\":14285:14298   */\n      dup3\n        /* \"#utility.yul\":14241:14304   */\n      tag_324\n      jump\t// in\n    tag_498:\n        /* \"#utility.yul\":14234:14304   */\n      swap8\n      pop\n        /* \"#utility.yul\":14327:14387   */\n      tag_499\n        /* \"#utility.yul\":14380:14386   */\n      dup4\n        /* \"#utility.yul\":14327:14387   */\n      tag_325\n      jump\t// in\n    tag_499:\n        /* \"#utility.yul\":14317:14387   */\n      swap3\n      pop\n        /* \"#utility.yul\":14173:14397   */\n      pop\n        /* \"#utility.yul\":14160:14161   */\n      0x01\n        /* \"#utility.yul\":14157:14158   */\n      dup2\n        /* \"#utility.yul\":14153:14162   */\n      add\n        /* \"#utility.yul\":14148:14162   */\n      swap1\n      pop\n        /* \"#utility.yul\":14113:14397   */\n      jump(tag_495)\n    tag_497:\n        /* \"#utility.yul\":14117:14131   */\n      pop\n        /* \"#utility.yul\":14413:14416   */\n      dup6\n        /* \"#utility.yul\":14406:14416   */\n      swap4\n      pop\n        /* \"#utility.yul\":13814:14422   */\n      pop\n      pop\n      pop\n        /* \"#utility.yul\":13690:14422   */\n      swap3\n      swap2\n      pop\n      pop\n      jump\t// out\n        /* \"#utility.yul\":14428:14801   */\n    tag_60:\n        /* \"#utility.yul\":14571:14575   */\n      0x00\n        /* \"#utility.yul\":14609:14611   */\n      0x20\n        /* \"#utility.yul\":14598:14607   */\n      dup3\n        /* \"#utility.yul\":14594:14612   */\n      add\n        /* \"#utility.yul\":14586:14612   */\n      swap1\n      pop\n        /* \"#utility.yul\":14658:14667   */\n      dup2\n        /* \"#utility.yul\":14652:14656   */\n      dup2\n        /* \"#utility.yul\":14648:14668   */\n      sub\n        /* \"#utility.yul\":14644:14645   */\n      0x00\n        /* \"#utility.yul\":14633:14642   */\n      dup4\n        /* \"#utility.yul\":14629:14646   */\n      add\n        /* \"#utility.yul\":14622:14669   */\n      mstore\n        /* \"#utility.yul\":14686:14794   */\n      tag_501\n        /* \"#utility.yul\":14789:14793   */\n      dup2\n        /* \"#utility.yul\":14780:14786   */\n      dup5\n        /* \"#utility.yul\":14686:14794   */\n      tag_326\n      jump\t// in\n    tag_501:\n        /* \"#utility.yul\":14678:14794   */\n      swap1\n      pop\n        /* \"#utility.yul\":14428:14801   */\n      swap3\n      swap2\n      pop\n      pop\n      jump\t// out\n        /* \"#utility.yul\":14807:14923   */\n    tag_327:\n        /* \"#utility.yul\":14877:14898   */\n      tag_503\n        /* \"#utility.yul\":14892:14897   */\n      dup2\n        /* \"#utility.yul\":14877:14898   */\n      tag_298\n      jump\t// in\n    tag_503:\n        /* \"#utility.yul\":14870:14875   */\n      dup2\n        /* \"#utility.yul\":14867:14899   */\n      eq\n        /* \"#utility.yul\":14857:14917   */\n      tag_504\n      jumpi\n        /* \"#utility.yul\":14913:14914   */\n      0x00\n        /* \"#utility.yul\":14910:14911   */\n      dup1\n        /* \"#utility.yul\":14903:14915   */\n      revert\n        /* \"#utility.yul\":14857:14917   */\n    tag_504:\n        /* \"#utility.yul\":14807:14923   */\n      pop\n      jump\t// out\n        /* \"#utility.yul\":14929:15062   */\n    tag_328:\n        /* \"#utility.yul\":14972:14977   */\n      0x00\n        /* \"#utility.yul\":15010:15016   */\n      dup2\n        /* \"#utility.yul\":14997:15017   */\n      calldataload\n        /* \"#utility.yul\":14988:15017   */\n      swap1\n      pop\n        /* \"#utility.yul\":15026:15056   */\n      tag_506\n        /* \"#utility.yul\":15050:15055   */\n      dup2\n        /* \"#utility.yul\":15026:15056   */\n      tag_327\n      jump\t// in\n    tag_506:\n        /* \"#utility.yul\":14929:15062   */\n      swap3\n      swap2\n      pop\n      pop\n      jump\t// out\n        /* \"#utility.yul\":15068:15536   */\n    tag_67:\n        /* \"#utility.yul\":15133:15139   */\n      0x00\n        /* \"#utility.yul\":15141:15147   */\n      dup1\n        /* \"#utility.yul\":15190:15192   */\n      0x40\n        /* \"#utility.yul\":15178:15187   */\n      dup4\n        /* \"#utility.yul\":15169:15176   */\n      dup6\n        /* \"#utility.yul\":15165:15188   */\n      sub\n        /* \"#utility.yul\":15161:15193   */\n      slt\n        /* \"#utility.yul\":15158:15277   */\n      iszero\n      tag_508\n      jumpi\n        /* \"#utility.yul\":15196:15275   */\n      tag_509\n      tag_285\n      jump\t// in\n    tag_509:\n        /* \"#utility.yul\":15158:15277   */\n    tag_508:\n        /* \"#utility.yul\":15316:15317   */\n      0x00\n        /* \"#utility.yul\":15341:15394   */\n      tag_510\n        /* \"#utility.yul\":15386:15393   */\n      dup6\n        /* \"#utility.yul\":15377:15383   */\n      dup3\n        /* \"#utility.yul\":15366:15375   */\n      dup7\n        /* \"#utility.yul\":15362:15384   */\n      add\n        /* \"#utility.yul\":15341:15394   */\n      tag_290\n      jump\t// in\n    tag_510:\n        /* \"#utility.yul\":15331:15394   */\n      swap3\n      pop\n        /* \"#utility.yul\":15287:15404   */\n      pop\n        /* \"#utility.yul\":15443:15445   */\n      0x20\n        /* \"#utility.yul\":15469:15519   */\n      tag_511\n        /* \"#utility.yul\":15511:15518   */\n      dup6\n        /* \"#utility.yul\":15502:15508   */\n      dup3\n        /* \"#utility.yul\":15491:15500   */\n      dup7\n        /* \"#utility.yul\":15487:15509   */\n      add\n        /* \"#utility.yul\":15469:15519   */\n      tag_328\n      jump\t// in\n    tag_511:\n        /* \"#utility.yul\":15459:15519   */\n      swap2\n      pop\n        /* \"#utility.yul\":15414:15529   */\n      pop\n        /* \"#utility.yul\":15068:15536   */\n      swap3\n      pop\n      swap3\n      swap1\n      pop\n      jump\t// out\n        /* \"#utility.yul\":15542:16016   */\n    tag_75:\n        /* \"#utility.yul\":15610:15616   */\n      0x00\n        /* \"#utility.yul\":15618:15624   */\n      dup1\n        /* \"#utility.yul\":15667:15669   */\n      0x40\n        /* \"#utility.yul\":15655:15664   */\n      dup4\n        /* \"#utility.yul\":15646:15653   */\n      dup6\n        /* \"#utility.yul\":15642:15665   */\n      sub\n        /* \"#utility.yul\":15638:15670   */\n      slt\n        /* \"#utility.yul\":15635:15754   */\n      iszero\n      tag_513\n      jumpi\n        /* \"#utility.yul\":15673:15752   */\n      tag_514\n      tag_285\n      jump\t// in\n    tag_514:\n        /* \"#utility.yul\":15635:15754   */\n    tag_513:\n        /* \"#utility.yul\":15793:15794   */\n      0x00\n        /* \"#utility.yul\":15818:15871   */\n      tag_515\n        /* \"#utility.yul\":15863:15870   */\n      dup6\n        /* \"#utility.yul\":15854:15860   */\n      dup3\n        /* \"#utility.yul\":15843:15852   */\n      dup7\n        /* \"#utility.yul\":15839:15861   */\n      add\n        /* \"#utility.yul\":15818:15871   */\n      tag_290\n      jump\t// in\n    tag_515:\n        /* \"#utility.yul\":15808:15871   */\n      swap3\n      pop\n        /* \"#utility.yul\":15764:15881   */\n      pop\n        /* \"#utility.yul\":15920:15922   */\n      0x20\n        /* \"#utility.yul\":15946:15999   */\n      tag_516\n        /* \"#utility.yul\":15991:15998   */\n      dup6\n        /* \"#utility.yul\":15982:15988   */\n      dup3\n        /* \"#utility.yul\":15971:15980   */\n      dup7\n        /* \"#utility.yul\":15967:15989   */\n      add\n        /* \"#utility.yul\":15946:15999   */\n      tag_290\n      jump\t// in\n    tag_516:\n        /* \"#utility.yul\":15936:15999   */\n      swap2\n      pop\n        /* \"#utility.yul\":15891:16009   */\n      pop\n        /* \"#utility.yul\":15542:16016   */\n      swap3\n      pop\n      swap3\n      swap1\n      pop\n      jump\t// out\n        /* \"#utility.yul\":16022:17111   */\n    tag_81:\n        /* \"#utility.yul\":16126:16132   */\n      0x00\n        /* \"#utility.yul\":16134:16140   */\n      dup1\n        /* \"#utility.yul\":16142:16148   */\n      0x00\n        /* \"#utility.yul\":16150:16156   */\n      dup1\n        /* \"#utility.yul\":16158:16164   */\n      0x00\n        /* \"#utility.yul\":16207:16210   */\n      0xa0\n        /* \"#utility.yul\":16195:16204   */\n      dup7\n        /* \"#utility.yul\":16186:16193   */\n      dup9\n        /* \"#utility.yul\":16182:16205   */\n      sub\n        /* \"#utility.yul\":16178:16211   */\n      slt\n        /* \"#utility.yul\":16175:16295   */\n      iszero\n      tag_518\n      jumpi\n        /* \"#utility.yul\":16214:16293   */\n      tag_519\n      tag_285\n      jump\t// in\n    tag_519:\n        /* \"#utility.yul\":16175:16295   */\n    tag_518:\n        /* \"#utility.yul\":16334:16335   */\n      0x00\n        /* \"#utility.yul\":16359:16412   */\n      tag_520\n        /* \"#utility.yul\":16404:16411   */\n      dup9\n        /* \"#utility.yul\":16395:16401   */\n      dup3\n        /* \"#utility.yul\":16384:16393   */\n      dup10\n        /* \"#utility.yul\":16380:16402   */\n      add\n        /* \"#utility.yul\":16359:16412   */\n      tag_290\n      jump\t// in\n    tag_520:\n        /* \"#utility.yul\":16349:16412   */\n      swap6\n      pop\n        /* \"#utility.yul\":16305:16422   */\n      pop\n        /* \"#utility.yul\":16461:16463   */\n      0x20\n        /* \"#utility.yul\":16487:16540   */\n      tag_521\n        /* \"#utility.yul\":16532:16539   */\n      dup9\n        /* \"#utility.yul\":16523:16529   */\n      dup3\n        /* \"#utility.yul\":16512:16521   */\n      dup10\n        /* \"#utility.yul\":16508:16530   */\n      add\n        /* \"#utility.yul\":16487:16540   */\n      tag_290\n      jump\t// in\n    tag_521:\n        /* \"#utility.yul\":16477:16540   */\n      swap5\n      pop\n        /* \"#utility.yul\":16432:16550   */\n      pop\n        /* \"#utility.yul\":16589:16591   */\n      0x40\n        /* \"#utility.yul\":16615:16668   */\n      tag_522\n        /* \"#utility.yul\":16660:16667   */\n      dup9\n        /* \"#utility.yul\":16651:16657   */\n      dup3\n        /* \"#utility.yul\":16640:16649   */\n      dup10\n        /* \"#utility.yul\":16636:16658   */\n      add\n        /* \"#utility.yul\":16615:16668   */\n      tag_293\n      jump\t// in\n    tag_522:\n        /* \"#utility.yul\":16605:16668   */\n      swap4\n      pop\n        /* \"#utility.yul\":16560:16678   */\n      pop\n        /* \"#utility.yul\":16717:16719   */\n      0x60\n        /* \"#utility.yul\":16743:16796   */\n      tag_523\n        /* \"#utility.yul\":16788:16795   */\n      dup9\n        /* \"#utility.yul\":16779:16785   */\n      dup3\n        /* \"#utility.yul\":16768:16777   */\n      dup10\n        /* \"#utility.yul\":16764:16786   */\n      add\n        /* \"#utility.yul\":16743:16796   */\n      tag_293\n      jump\t// in\n    tag_523:\n        /* \"#utility.yul\":16733:16796   */\n      swap3\n      pop\n        /* \"#utility.yul\":16688:16806   */\n      pop\n        /* \"#utility.yul\":16873:16876   */\n      0x80\n        /* \"#utility.yul\":16862:16871   */\n      dup7\n        /* \"#utility.yul\":16858:16877   */\n      add\n        /* \"#utility.yul\":16845:16878   */\n      calldataload\n        /* \"#utility.yul\":16905:16923   */\n      0xffffffffffffffff\n        /* \"#utility.yul\":16897:16903   */\n      dup2\n        /* \"#utility.yul\":16894:16924   */\n      gt\n        /* \"#utility.yul\":16891:17008   */\n      iszero\n      tag_524\n      jumpi\n        /* \"#utility.yul\":16927:17006   */\n      tag_525\n      tag_286\n      jump\t// in\n    tag_525:\n        /* \"#utility.yul\":16891:17008   */\n    tag_524:\n        /* \"#utility.yul\":17032:17094   */\n      tag_526\n        /* \"#utility.yul\":17086:17093   */\n      dup9\n        /* \"#utility.yul\":17077:17083   */\n      dup3\n        /* \"#utility.yul\":17066:17075   */\n      dup10\n        /* \"#utility.yul\":17062:17084   */\n      add\n        /* \"#utility.yul\":17032:17094   */\n      tag_316\n      jump\t// in\n    tag_526:\n        /* \"#utility.yul\":17022:17094   */\n      swap2\n      pop\n        /* \"#utility.yul\":16816:17104   */\n      pop\n        /* \"#utility.yul\":16022:17111   */\n      swap3\n      swap6\n      pop\n      swap3\n      swap6\n      swap1\n      swap4\n      pop\n      jump\t// out\n        /* \"#utility.yul\":17117:17277   */\n    tag_329:\n        /* \"#utility.yul\":17257:17269   */\n      0x6f6e6c79204f776e657200000000000000000000000000000000000000000000\n        /* \"#utility.yul\":17253:17254   */\n      0x00\n        /* \"#utility.yul\":17245:17251   */\n      dup3\n        /* \"#utility.yul\":17241:17255   */\n      add\n        /* \"#utility.yul\":17234:17270   */\n      mstore\n        /* \"#utility.yul\":17117:17277   */\n      pop\n      jump\t// out\n        /* \"#utility.yul\":17283:17649   */\n    tag_330:\n        /* \"#utility.yul\":17425:17428   */\n      0x00\n        /* \"#utility.yul\":17446:17513   */\n      tag_529\n        /* \"#utility.yul\":17510:17512   */\n      0x0a\n        /* \"#utility.yul\":17505:17508   */\n      dup4\n        /* \"#utility.yul\":17446:17513   */\n      tag_301\n      jump\t// in\n    tag_529:\n        /* \"#utility.yul\":17439:17513   */\n      swap2\n      pop\n        /* \"#utility.yul\":17522:17615   */\n      tag_530\n        /* \"#utility.yul\":17611:17614   */\n      dup3\n        /* \"#utility.yul\":17522:17615   */\n      tag_329\n      jump\t// in\n    tag_530:\n        /* \"#utility.yul\":17640:17642   */\n      0x20\n        /* \"#utility.yul\":17635:17638   */\n      dup3\n        /* \"#utility.yul\":17631:17643   */\n      add\n        /* \"#utility.yul\":17624:17643   */\n      swap1\n      pop\n        /* \"#utility.yul\":17283:17649   */\n      swap2\n      swap1\n      pop\n      jump\t// out\n        /* \"#utility.yul\":17655:18074   */\n    tag_92:\n        /* \"#utility.yul\":17821:17825   */\n      0x00\n        /* \"#utility.yul\":17859:17861   */\n      0x20\n        /* \"#utility.yul\":17848:17857   */\n      dup3\n        /* \"#utility.yul\":17844:17862   */\n      add\n        /* \"#utility.yul\":17836:17862   */\n      swap1\n      pop\n        /* \"#utility.yul\":17908:17917   */\n      dup2\n        /* \"#utility.yul\":17902:17906   */\n      dup2\n        /* \"#utility.yul\":17898:17918   */\n      sub\n        /* \"#utility.yul\":17894:17895   */\n      0x00\n        /* \"#utility.yul\":17883:17892   */\n      dup4\n        /* \"#utility.yul\":17879:17896   */\n      add\n        /* \"#utility.yul\":17872:17919   */\n      mstore\n        /* \"#utility.yul\":17936:18067   */\n      tag_532\n        /* \"#utility.yul\":18062:18066   */\n      dup2\n        /* \"#utility.yul\":17936:18067   */\n      tag_330\n      jump\t// in\n    tag_532:\n        /* \"#utility.yul\":17928:18067   */\n      swap1\n      pop\n        /* \"#utility.yul\":17655:18074   */\n      swap2\n      swap1\n      pop\n      jump\t// out\n        /* \"#utility.yul\":18080:18260   */\n    tag_98:\n        /* \"#utility.yul\":18128:18205   */\n      0x4e487b7100000000000000000000000000000000000000000000000000000000\n        /* \"#utility.yul\":18125:18126   */\n      0x00\n        /* \"#utility.yul\":18118:18206   */\n      mstore\n        /* \"#utility.yul\":18225:18229   */\n      0x32\n        /* \"#utility.yul\":18222:18223   */\n      0x04\n        /* \"#utility.yul\":18215:18230   */\n      mstore\n        /* \"#utility.yul\":18249:18253   */\n      0x24\n        /* \"#utility.yul\":18246:18247   */\n      0x00\n        /* \"#utility.yul\":18239:18254   */\n      revert\n        /* \"#utility.yul\":18266:18446   */\n    tag_331:\n        /* \"#utility.yul\":18314:18391   */\n      0x4e487b7100000000000000000000000000000000000000000000000000000000\n        /* \"#utility.yul\":18311:18312   */\n      0x00\n        /* \"#utility.yul\":18304:18392   */\n      mstore\n        /* \"#utility.yul\":18411:18415   */\n      0x11\n        /* \"#utility.yul\":18408:18409   */\n      0x04\n        /* \"#utility.yul\":18401:18416   */\n      mstore\n        /* \"#utility.yul\":18435:18439   */\n      0x24\n        /* \"#utility.yul\":18432:18433   */\n      0x00\n        /* \"#utility.yul\":18425:18440   */\n      revert\n        /* \"#utility.yul\":18452:18862   */\n    tag_101:\n        /* \"#utility.yul\":18492:18499   */\n      0x00\n        /* \"#utility.yul\":18515:18535   */\n      tag_536\n        /* \"#utility.yul\":18533:18534   */\n      dup3\n        /* \"#utility.yul\":18515:18535   */\n      tag_291\n      jump\t// in\n    tag_536:\n        /* \"#utility.yul\":18510:18535   */\n      swap2\n      pop\n        /* \"#utility.yul\":18549:18569   */\n      tag_537\n        /* \"#utility.yul\":18567:18568   */\n      dup4\n        /* \"#utility.yul\":18549:18569   */\n      tag_291\n      jump\t// in\n    tag_537:\n        /* \"#utility.yul\":18544:18569   */\n      swap3\n      pop\n        /* \"#utility.yul\":18604:18605   */\n      dup3\n        /* \"#utility.yul\":18601:18602   */\n      dup3\n        /* \"#utility.yul\":18597:18606   */\n      mul\n        /* \"#utility.yul\":18626:18656   */\n      tag_538\n        /* \"#utility.yul\":18644:18655   */\n      dup2\n        /* \"#utility.yul\":18626:18656   */\n      tag_291\n      jump\t// in\n    tag_538:\n        /* \"#utility.yul\":18615:18656   */\n      swap2\n      pop\n        /* \"#utility.yul\":18805:18806   */\n      dup3\n        /* \"#utility.yul\":18796:18803   */\n      dup3\n        /* \"#utility.yul\":18792:18807   */\n      div\n        /* \"#utility.yul\":18789:18790   */\n      dup5\n        /* \"#utility.yul\":18786:18808   */\n      eq\n        /* \"#utility.yul\":18766:18767   */\n      dup4\n        /* \"#utility.yul\":18759:18768   */\n      iszero\n        /* \"#utility.yul\":18739:18822   */\n      or\n        /* \"#utility.yul\":18716:18855   */\n      tag_539\n      jumpi\n        /* \"#utility.yul\":18835:18853   */\n      tag_540\n      tag_331\n      jump\t// in\n    tag_540:\n        /* \"#utility.yul\":18716:18855   */\n    tag_539:\n        /* \"#utility.yul\":18500:18862   */\n      pop\n        /* \"#utility.yul\":18452:18862   */\n      swap3\n      swap2\n      pop\n      pop\n      jump\t// out\n        /* \"#utility.yul\":18868:19030   */\n    tag_332:\n        /* \"#utility.yul\":19008:19022   */\n      0x636865636b20616d6f756e740000000000000000000000000000000000000000\n        /* \"#utility.yul\":19004:19005   */\n      0x00\n        /* \"#utility.yul\":18996:19002   */\n      dup3\n        /* \"#utility.yul\":18992:19006   */\n      add\n        /* \"#utility.yul\":18985:19023   */\n      mstore\n        /* \"#utility.yul\":18868:19030   */\n      pop\n      jump\t// out\n        /* \"#utility.yul\":19036:19402   */\n    tag_333:\n        /* \"#utility.yul\":19178:19181   */\n      0x00\n        /* \"#utility.yul\":19199:19266   */\n      tag_543\n        /* \"#utility.yul\":19263:19265   */\n      0x0c\n        /* \"#utility.yul\":19258:19261   */\n      dup4\n        /* \"#utility.yul\":19199:19266   */\n      tag_301\n      jump\t// in\n    tag_543:\n        /* \"#utility.yul\":19192:19266   */\n      swap2\n      pop\n        /* \"#utility.yul\":19275:19368   */\n      tag_544\n        /* \"#utility.yul\":19364:19367   */\n      dup3\n        /* \"#utility.yul\":19275:19368   */\n      tag_332\n      jump\t// in\n    tag_544:\n        /* \"#utility.yul\":19393:19395   */\n      0x20\n        /* \"#utility.yul\":19388:19391   */\n      dup3\n        /* \"#utility.yul\":19384:19396   */\n      add\n        /* \"#utility.yul\":19377:19396   */\n      swap1\n      pop\n        /* \"#utility.yul\":19036:19402   */\n      swap2\n      swap1\n      pop\n      jump\t// out\n        /* \"#utility.yul\":19408:19827   */\n    tag_109:\n        /* \"#utility.yul\":19574:19578   */\n      0x00\n        /* \"#utility.yul\":19612:19614   */\n      0x20\n        /* \"#utility.yul\":19601:19610   */\n      dup3\n        /* \"#utility.yul\":19597:19615   */\n      add\n        /* \"#utility.yul\":19589:19615   */\n      swap1\n      pop\n        /* \"#utility.yul\":19661:19670   */\n      dup2\n        /* \"#utility.yul\":19655:19659   */\n      dup2\n        /* \"#utility.yul\":19651:19671   */\n      sub\n        /* \"#utility.yul\":19647:19648   */\n      0x00\n        /* \"#utility.yul\":19636:19645   */\n      dup4\n        /* \"#utility.yul\":19632:19649   */\n      add\n        /* \"#utility.yul\":19625:19672   */\n      mstore\n        /* \"#utility.yul\":19689:19820   */\n      tag_546\n        /* \"#utility.yul\":19815:19819   */\n      dup2\n        /* \"#utility.yul\":19689:19820   */\n      tag_333\n      jump\t// in\n    tag_546:\n        /* \"#utility.yul\":19681:19820   */\n      swap1\n      pop\n        /* \"#utility.yul\":19408:19827   */\n      swap2\n      swap1\n      pop\n      jump\t// out\n        /* \"#utility.yul\":19833:20013   */\n    tag_334:\n        /* \"#utility.yul\":19881:19958   */\n      0x4e487b7100000000000000000000000000000000000000000000000000000000\n        /* \"#utility.yul\":19878:19879   */\n      0x00\n        /* \"#utility.yul\":19871:19959   */\n      mstore\n        /* \"#utility.yul\":19978:19982   */\n      0x22\n        /* \"#utility.yul\":19975:19976   */\n      0x04\n        /* \"#utility.yul\":19968:19983   */\n      mstore\n        /* \"#utility.yul\":20002:20006   */\n      0x24\n        /* \"#utility.yul\":19999:20000   */\n      0x00\n        /* \"#utility.yul\":19992:20007   */\n      revert\n        /* \"#utility.yul\":20019:20339   */\n    tag_112:\n        /* \"#utility.yul\":20063:20069   */\n      0x00\n        /* \"#utility.yul\":20100:20101   */\n      0x02\n        /* \"#utility.yul\":20094:20098   */\n      dup3\n        /* \"#utility.yul\":20090:20102   */\n      div\n        /* \"#utility.yul\":20080:20102   */\n      swap1\n      pop\n        /* \"#utility.yul\":20147:20148   */\n      0x01\n        /* \"#utility.yul\":20141:20145   */\n      dup3\n        /* \"#utility.yul\":20137:20149   */\n      and\n        /* \"#utility.yul\":20168:20186   */\n      dup1\n        /* \"#utility.yul\":20158:20239   */\n      tag_549\n      jumpi\n        /* \"#utility.yul\":20224:20228   */\n      0x7f\n        /* \"#utility.yul\":20216:20222   */\n      dup3\n        /* \"#utility.yul\":20212:20229   */\n      and\n        /* \"#utility.yul\":20202:20229   */\n      swap2\n      pop\n        /* \"#utility.yul\":20158:20239   */\n    tag_549:\n        /* \"#utility.yul\":20286:20288   */\n      0x20\n        /* \"#utility.yul\":20278:20284   */\n      dup3\n        /* \"#utility.yul\":20275:20289   */\n      lt\n        /* \"#utility.yul\":20255:20273   */\n      dup2\n        /* \"#utility.yul\":20252:20290   */\n      sub\n        /* \"#utility.yul\":20249:20333   */\n      tag_550\n      jumpi\n        /* \"#utility.yul\":20305:20323   */\n      tag_551\n      tag_334\n      jump\t// in\n    tag_551:\n        /* \"#utility.yul\":20249:20333   */\n    tag_550:\n        /* \"#utility.yul\":20070:20339   */\n      pop\n        /* \"#utility.yul\":20019:20339   */\n      swap2\n      swap1\n      pop\n      jump\t// out\n        /* \"#utility.yul\":20345:20463   */\n    tag_335:\n        /* \"#utility.yul\":20432:20456   */\n      tag_553\n        /* \"#utility.yul\":20450:20455   */\n      dup2\n        /* \"#utility.yul\":20432:20456   */\n      tag_288\n      jump\t// in\n    tag_553:\n        /* \"#utility.yul\":20427:20430   */\n      dup3\n        /* \"#utility.yul\":20420:20457   */\n      mstore\n        /* \"#utility.yul\":20345:20463   */\n      pop\n      pop\n      jump\t// out\n        /* \"#utility.yul\":20469:20801   */\n    tag_128:\n        /* \"#utility.yul\":20590:20594   */\n      0x00\n        /* \"#utility.yul\":20628:20630   */\n      0x40\n        /* \"#utility.yul\":20617:20626   */\n      dup3\n        /* \"#utility.yul\":20613:20631   */\n      add\n        /* \"#utility.yul\":20605:20631   */\n      swap1\n      pop\n        /* \"#utility.yul\":20641:20712   */\n      tag_555\n        /* \"#utility.yul\":20709:20710   */\n      0x00\n        /* \"#utility.yul\":20698:20707   */\n      dup4\n        /* \"#utility.yul\":20694:20711   */\n      add\n        /* \"#utility.yul\":20685:20691   */\n      dup6\n        /* \"#utility.yul\":20641:20712   */\n      tag_335\n      jump\t// in\n    tag_555:\n        /* \"#utility.yul\":20722:20794   */\n      tag_556\n        /* \"#utility.yul\":20790:20792   */\n      0x20\n        /* \"#utility.yul\":20779:20788   */\n      dup4\n        /* \"#utility.yul\":20775:20793   */\n      add\n        /* \"#utility.yul\":20766:20772   */\n      dup5\n        /* \"#utility.yul\":20722:20794   */\n      tag_335\n      jump\t// in\n    tag_556:\n        /* \"#utility.yul\":20469:20801   */\n      swap4\n      swap3\n      pop\n      pop\n      pop\n      jump\t// out\n        /* \"#utility.yul\":20807:21139   */\n    tag_134:\n        /* \"#utility.yul\":20928:20932   */\n      0x00\n        /* \"#utility.yul\":20966:20968   */\n      0x40\n        /* \"#utility.yul\":20955:20964   */\n      dup3\n        /* \"#utility.yul\":20951:20969   */\n      add\n        /* \"#utility.yul\":20943:20969   */\n      swap1\n      pop\n        /* \"#utility.yul\":20979:21050   */\n      tag_558\n        /* \"#utility.yul\":21047:21048   */\n      0x00\n        /* \"#utility.yul\":21036:21045   */\n      dup4\n        /* \"#utility.yul\":21032:21049   */\n      add\n        /* \"#utility.yul\":21023:21029   */\n      dup6\n        /* \"#utility.yul\":20979:21050   */\n      tag_294\n      jump\t// in\n    tag_558:\n        /* \"#utility.yul\":21060:21132   */\n      tag_559\n        /* \"#utility.yul\":21128:21130   */\n      0x20\n        /* \"#utility.yul\":21117:21126   */\n      dup4\n        /* \"#utility.yul\":21113:21131   */\n      add\n        /* \"#utility.yul\":21104:21110   */\n      dup5\n        /* \"#utility.yul\":21060:21132   */\n      tag_294\n      jump\t// in\n    tag_559:\n        /* \"#utility.yul\":20807:21139   */\n      swap4\n      swap3\n      pop\n      pop\n      pop\n      jump\t// out\n        /* \"#utility.yul\":21145:21336   */\n    tag_163:\n        /* \"#utility.yul\":21185:21188   */\n      0x00\n        /* \"#utility.yul\":21204:21224   */\n      tag_561\n        /* \"#utility.yul\":21222:21223   */\n      dup3\n        /* \"#utility.yul\":21204:21224   */\n      tag_291\n      jump\t// in\n    tag_561:\n        /* \"#utility.yul\":21199:21224   */\n      swap2\n      pop\n        /* \"#utility.yul\":21238:21258   */\n      tag_562\n        /* \"#utility.yul\":21256:21257   */\n      dup4\n        /* \"#utility.yul\":21238:21258   */\n      tag_291\n      jump\t// in\n    tag_562:\n        /* \"#utility.yul\":21233:21258   */\n      swap3\n      pop\n        /* \"#utility.yul\":21281:21282   */\n      dup3\n        /* \"#utility.yul\":21278:21279   */\n      dup3\n        /* \"#utility.yul\":21274:21283   */\n      add\n        /* \"#utility.yul\":21267:21283   */\n      swap1\n      pop\n        /* \"#utility.yul\":21302:21305   */\n      dup1\n        /* \"#utility.yul\":21299:21300   */\n      dup3\n        /* \"#utility.yul\":21296:21306   */\n      gt\n        /* \"#utility.yul\":21293:21329   */\n      iszero\n      tag_563\n      jumpi\n        /* \"#utility.yul\":21309:21327   */\n      tag_564\n      tag_331\n      jump\t// in\n    tag_564:\n        /* \"#utility.yul\":21293:21329   */\n    tag_563:\n        /* \"#utility.yul\":21145:21336   */\n      swap3\n      swap2\n      pop\n      pop\n      jump\t// out\n        /* \"#utility.yul\":21342:21564   */\n    tag_192:\n        /* \"#utility.yul\":21435:21439   */\n      0x00\n        /* \"#utility.yul\":21473:21475   */\n      0x20\n        /* \"#utility.yul\":21462:21471   */\n      dup3\n        /* \"#utility.yul\":21458:21476   */\n      add\n        /* \"#utility.yul\":21450:21476   */\n      swap1\n      pop\n        /* \"#utility.yul\":21486:21557   */\n      tag_566\n        /* \"#utility.yul\":21554:21555   */\n      0x00\n        /* \"#utility.yul\":21543:21552   */\n      dup4\n        /* \"#utility.yul\":21539:21556   */\n      add\n        /* \"#utility.yul\":21530:21536   */\n      dup5\n        /* \"#utility.yul\":21486:21557   */\n      tag_335\n      jump\t// in\n    tag_566:\n        /* \"#utility.yul\":21342:21564   */\n      swap3\n      swap2\n      pop\n      pop\n      jump\t// out\n        /* \"#utility.yul\":21570:22123   */\n    tag_237:\n        /* \"#utility.yul\":21747:21751   */\n      0x00\n        /* \"#utility.yul\":21785:21788   */\n      0x80\n        /* \"#utility.yul\":21774:21783   */\n      dup3\n        /* \"#utility.yul\":21770:21789   */\n      add\n        /* \"#utility.yul\":21762:21789   */\n      swap1\n      pop\n        /* \"#utility.yul\":21799:21870   */\n      tag_568\n        /* \"#utility.yul\":21867:21868   */\n      0x00\n        /* \"#utility.yul\":21856:21865   */\n      dup4\n        /* \"#utility.yul\":21852:21869   */\n      add\n        /* \"#utility.yul\":21843:21849   */\n      dup8\n        /* \"#utility.yul\":21799:21870   */\n      tag_335\n      jump\t// in\n    tag_568:\n        /* \"#utility.yul\":21880:21952   */\n      tag_569\n        /* \"#utility.yul\":21948:21950   */\n      0x20\n        /* \"#utility.yul\":21937:21946   */\n      dup4\n        /* \"#utility.yul\":21933:21951   */\n      add\n        /* \"#utility.yul\":21924:21930   */\n      dup7\n        /* \"#utility.yul\":21880:21952   */\n      tag_294\n      jump\t// in\n    tag_569:\n        /* \"#utility.yul\":21962:22034   */\n      tag_570\n        /* \"#utility.yul\":22030:22032   */\n      0x40\n        /* \"#utility.yul\":22019:22028   */\n      dup4\n        /* \"#utility.yul\":22015:22033   */\n      add\n        /* \"#utility.yul\":22006:22012   */\n      dup6\n        /* \"#utility.yul\":21962:22034   */\n      tag_294\n      jump\t// in\n    tag_570:\n        /* \"#utility.yul\":22044:22116   */\n      tag_571\n        /* \"#utility.yul\":22112:22114   */\n      0x60\n        /* \"#utility.yul\":22101:22110   */\n      dup4\n        /* \"#utility.yul\":22097:22115   */\n      add\n        /* \"#utility.yul\":22088:22094   */\n      dup5\n        /* \"#utility.yul\":22044:22116   */\n      tag_294\n      jump\t// in\n    tag_571:\n        /* \"#utility.yul\":21570:22123   */\n      swap6\n      swap5\n      pop\n      pop\n      pop\n      pop\n      pop\n      jump\t// out\n        /* \"#utility.yul\":22129:22763   */\n    tag_246:\n        /* \"#utility.yul\":22350:22354   */\n      0x00\n        /* \"#utility.yul\":22388:22390   */\n      0x40\n        /* \"#utility.yul\":22377:22386   */\n      dup3\n        /* \"#utility.yul\":22373:22391   */\n      add\n        /* \"#utility.yul\":22365:22391   */\n      swap1\n      pop\n        /* \"#utility.yul\":22437:22446   */\n      dup2\n        /* \"#utility.yul\":22431:22435   */\n      dup2\n        /* \"#utility.yul\":22427:22447   */\n      sub\n        /* \"#utility.yul\":22423:22424   */\n      0x00\n        /* \"#utility.yul\":22412:22421   */\n      dup4\n        /* \"#utility.yul\":22408:22425   */\n      add\n        /* \"#utility.yul\":22401:22448   */\n      mstore\n        /* \"#utility.yul\":22465:22573   */\n      tag_573\n        /* \"#utility.yul\":22568:22572   */\n      dup2\n        /* \"#utility.yul\":22559:22565   */\n      dup6\n        /* \"#utility.yul\":22465:22573   */\n      tag_326\n      jump\t// in\n    tag_573:\n        /* \"#utility.yul\":22457:22573   */\n      swap1\n      pop\n        /* \"#utility.yul\":22620:22629   */\n      dup2\n        /* \"#utility.yul\":22614:22618   */\n      dup2\n        /* \"#utility.yul\":22610:22630   */\n      sub\n        /* \"#utility.yul\":22605:22607   */\n      0x20\n        /* \"#utility.yul\":22594:22603   */\n      dup4\n        /* \"#utility.yul\":22590:22608   */\n      add\n        /* \"#utility.yul\":22583:22631   */\n      mstore\n        /* \"#utility.yul\":22648:22756   */\n      tag_574\n        /* \"#utility.yul\":22751:22755   */\n      dup2\n        /* \"#utility.yul\":22742:22748   */\n      dup5\n        /* \"#utility.yul\":22648:22756   */\n      tag_326\n      jump\t// in\n    tag_574:\n        /* \"#utility.yul\":22640:22756   */\n      swap1\n      pop\n        /* \"#utility.yul\":22129:22763   */\n      swap4\n      swap3\n      pop\n      pop\n      pop\n      jump\t// out\n        /* \"#utility.yul\":22769:22867   */\n    tag_336:\n        /* \"#utility.yul\":22820:22826   */\n      0x00\n        /* \"#utility.yul\":22854:22859   */\n      dup2\n        /* \"#utility.yul\":22848:22860   */\n      mload\n        /* \"#utility.yul\":22838:22860   */\n      swap1\n      pop\n        /* \"#utility.yul\":22769:22867   */\n      swap2\n      swap1\n      pop\n      jump\t// out\n        /* \"#utility.yul\":22873:23041   */\n    tag_337:\n        /* \"#utility.yul\":22956:22967   */\n      0x00\n        /* \"#utility.yul\":22990:22996   */\n      dup3\n        /* \"#utility.yul\":22985:22988   */\n      dup3\n        /* \"#utility.yul\":22978:22997   */\n      mstore\n        /* \"#utility.yul\":23030:23034   */\n      0x20\n        /* \"#utility.yul\":23025:23028   */\n      dup3\n        /* \"#utility.yul\":23021:23035   */\n      add\n        /* \"#utility.yul\":23006:23035   */\n      swap1\n      pop\n        /* \"#utility.yul\":22873:23041   */\n      swap3\n      swap2\n      pop\n      pop\n      jump\t// out\n        /* \"#utility.yul\":23047:23420   */\n    tag_338:\n        /* \"#utility.yul\":23133:23136   */\n      0x00\n        /* \"#utility.yul\":23161:23199   */\n      tag_578\n        /* \"#utility.yul\":23193:23198   */\n      dup3\n        /* \"#utility.yul\":23161:23199   */\n      tag_336\n      jump\t// in\n    tag_578:\n        /* \"#utility.yul\":23215:23285   */\n      tag_579\n        /* \"#utility.yul\":23278:23284   */\n      dup2\n        /* \"#utility.yul\":23273:23276   */\n      dup6\n        /* \"#utility.yul\":23215:23285   */\n      tag_337\n      jump\t// in\n    tag_579:\n        /* \"#utility.yul\":23208:23285   */\n      swap4\n      pop\n        /* \"#utility.yul\":23294:23359   */\n      tag_580\n        /* \"#utility.yul\":23352:23358   */\n      dup2\n        /* \"#utility.yul\":23347:23350   */\n      dup6\n        /* \"#utility.yul\":23340:23344   */\n      0x20\n        /* \"#utility.yul\":23333:23338   */\n      dup7\n        /* \"#utility.yul\":23329:23345   */\n      add\n        /* \"#utility.yul\":23294:23359   */\n      tag_302\n      jump\t// in\n    tag_580:\n        /* \"#utility.yul\":23384:23413   */\n      tag_581\n        /* \"#utility.yul\":23406:23412   */\n      dup2\n        /* \"#utility.yul\":23384:23413   */\n      tag_303\n      jump\t// in\n    tag_581:\n        /* \"#utility.yul\":23379:23382   */\n      dup5\n        /* \"#utility.yul\":23375:23414   */\n      add\n        /* \"#utility.yul\":23368:23414   */\n      swap2\n      pop\n        /* \"#utility.yul\":23137:23420   */\n      pop\n        /* \"#utility.yul\":23047:23420   */\n      swap3\n      swap2\n      pop\n      pop\n      jump\t// out\n        /* \"#utility.yul\":23426:24177   */\n    tag_250:\n        /* \"#utility.yul\":23649:23653   */\n      0x00\n        /* \"#utility.yul\":23687:23690   */\n      0xa0\n        /* \"#utility.yul\":23676:23685   */\n      dup3\n        /* \"#utility.yul\":23672:23691   */\n      add\n        /* \"#utility.yul\":23664:23691   */\n      swap1\n      pop\n        /* \"#utility.yul\":23701:23772   */\n      tag_583\n        /* \"#utility.yul\":23769:23770   */\n      0x00\n        /* \"#utility.yul\":23758:23767   */\n      dup4\n        /* \"#utility.yul\":23754:23771   */\n      add\n        /* \"#utility.yul\":23745:23751   */\n      dup9\n        /* \"#utility.yul\":23701:23772   */\n      tag_335\n      jump\t// in\n    tag_583:\n        /* \"#utility.yul\":23782:23854   */\n      tag_584\n        /* \"#utility.yul\":23850:23852   */\n      0x20\n        /* \"#utility.yul\":23839:23848   */\n      dup4\n        /* \"#utility.yul\":23835:23853   */\n      add\n        /* \"#utility.yul\":23826:23832   */\n      dup8\n        /* \"#utility.yul\":23782:23854   */\n      tag_335\n      jump\t// in\n    tag_584:\n        /* \"#utility.yul\":23864:23936   */\n      tag_585\n        /* \"#utility.yul\":23932:23934   */\n      0x40\n        /* \"#utility.yul\":23921:23930   */\n      dup4\n        /* \"#utility.yul\":23917:23935   */\n      add\n        /* \"#utility.yul\":23908:23914   */\n      dup7\n        /* \"#utility.yul\":23864:23936   */\n      tag_294\n      jump\t// in\n    tag_585:\n        /* \"#utility.yul\":23946:24018   */\n      tag_586\n        /* \"#utility.yul\":24014:24016   */\n      0x60\n        /* \"#utility.yul\":24003:24012   */\n      dup4\n        /* \"#utility.yul\":23999:24017   */\n      add\n        /* \"#utility.yul\":23990:23996   */\n      dup6\n        /* \"#utility.yul\":23946:24018   */\n      tag_294\n      jump\t// in\n    tag_586:\n        /* \"#utility.yul\":24066:24075   */\n      dup2\n        /* \"#utility.yul\":24060:24064   */\n      dup2\n        /* \"#utility.yul\":24056:24076   */\n      sub\n        /* \"#utility.yul\":24050:24053   */\n      0x80\n        /* \"#utility.yul\":24039:24048   */\n      dup4\n        /* \"#utility.yul\":24035:24054   */\n      add\n        /* \"#utility.yul\":24028:24077   */\n      mstore\n        /* \"#utility.yul\":24094:24170   */\n      tag_587\n        /* \"#utility.yul\":24165:24169   */\n      dup2\n        /* \"#utility.yul\":24156:24162   */\n      dup5\n        /* \"#utility.yul\":24094:24170   */\n      tag_338\n      jump\t// in\n    tag_587:\n        /* \"#utility.yul\":24086:24170   */\n      swap1\n      pop\n        /* \"#utility.yul\":23426:24177   */\n      swap7\n      swap6\n      pop\n      pop\n      pop\n      pop\n      pop\n      pop\n      jump\t// out\n        /* \"#utility.yul\":24183:24324   */\n    tag_339:\n        /* \"#utility.yul\":24239:24244   */\n      0x00\n        /* \"#utility.yul\":24270:24276   */\n      dup2\n        /* \"#utility.yul\":24264:24277   */\n      mload\n        /* \"#utility.yul\":24255:24277   */\n      swap1\n      pop\n        /* \"#utility.yul\":24286:24318   */\n      tag_589\n        /* \"#utility.yul\":24312:24317   */\n      dup2\n        /* \"#utility.yul\":24286:24318   */\n      tag_296\n      jump\t// in\n    tag_589:\n        /* \"#utility.yul\":24183:24324   */\n      swap3\n      swap2\n      pop\n      pop\n      jump\t// out\n        /* \"#utility.yul\":24330:24679   */\n    tag_253:\n        /* \"#utility.yul\":24399:24405   */\n      0x00\n        /* \"#utility.yul\":24448:24450   */\n      0x20\n        /* \"#utility.yul\":24436:24445   */\n      dup3\n        /* \"#utility.yul\":24427:24434   */\n      dup5\n        /* \"#utility.yul\":24423:24446   */\n      sub\n        /* \"#utility.yul\":24419:24451   */\n      slt\n        /* \"#utility.yul\":24416:24535   */\n      iszero\n      tag_591\n      jumpi\n        /* \"#utility.yul\":24454:24533   */\n      tag_592\n      tag_285\n      jump\t// in\n    tag_592:\n        /* \"#utility.yul\":24416:24535   */\n    tag_591:\n        /* \"#utility.yul\":24574:24575   */\n      0x00\n        /* \"#utility.yul\":24599:24662   */\n      tag_593\n        /* \"#utility.yul\":24654:24661   */\n      dup5\n        /* \"#utility.yul\":24645:24651   */\n      dup3\n        /* \"#utility.yul\":24634:24643   */\n      dup6\n        /* \"#utility.yul\":24630:24652   */\n      add\n        /* \"#utility.yul\":24599:24662   */\n      tag_339\n      jump\t// in\n    tag_593:\n        /* \"#utility.yul\":24589:24662   */\n      swap2\n      pop\n        /* \"#utility.yul\":24545:24672   */\n      pop\n        /* \"#utility.yul\":24330:24679   */\n      swap3\n      swap2\n      pop\n      pop\n      jump\t// out\n        /* \"#utility.yul\":24685:25738   */\n    tag_269:\n        /* \"#utility.yul\":25008:25012   */\n      0x00\n        /* \"#utility.yul\":25046:25049   */\n      0xa0\n        /* \"#utility.yul\":25035:25044   */\n      dup3\n        /* \"#utility.yul\":25031:25050   */\n      add\n        /* \"#utility.yul\":25023:25050   */\n      swap1\n      pop\n        /* \"#utility.yul\":25060:25131   */\n      tag_595\n        /* \"#utility.yul\":25128:25129   */\n      0x00\n        /* \"#utility.yul\":25117:25126   */\n      dup4\n        /* \"#utility.yul\":25113:25130   */\n      add\n        /* \"#utility.yul\":25104:25110   */\n      dup9\n        /* \"#utility.yul\":25060:25131   */\n      tag_335\n      jump\t// in\n    tag_595:\n        /* \"#utility.yul\":25141:25213   */\n      tag_596\n        /* \"#utility.yul\":25209:25211   */\n      0x20\n        /* \"#utility.yul\":25198:25207   */\n      dup4\n        /* \"#utility.yul\":25194:25212   */\n      add\n        /* \"#utility.yul\":25185:25191   */\n      dup8\n        /* \"#utility.yul\":25141:25213   */\n      tag_335\n      jump\t// in\n    tag_596:\n        /* \"#utility.yul\":25260:25269   */\n      dup2\n        /* \"#utility.yul\":25254:25258   */\n      dup2\n        /* \"#utility.yul\":25250:25270   */\n      sub\n        /* \"#utility.yul\":25245:25247   */\n      0x40\n        /* \"#utility.yul\":25234:25243   */\n      dup4\n        /* \"#utility.yul\":25230:25248   */\n      add\n        /* \"#utility.yul\":25223:25271   */\n      mstore\n        /* \"#utility.yul\":25288:25396   */\n      tag_597\n        /* \"#utility.yul\":25391:25395   */\n      dup2\n        /* \"#utility.yul\":25382:25388   */\n      dup7\n        /* \"#utility.yul\":25288:25396   */\n      tag_326\n      jump\t// in\n    tag_597:\n        /* \"#utility.yul\":25280:25396   */\n      swap1\n      pop\n        /* \"#utility.yul\":25443:25452   */\n      dup2\n        /* \"#utility.yul\":25437:25441   */\n      dup2\n        /* \"#utility.yul\":25433:25453   */\n      sub\n        /* \"#utility.yul\":25428:25430   */\n      0x60\n        /* \"#utility.yul\":25417:25426   */\n      dup4\n        /* \"#utility.yul\":25413:25431   */\n      add\n        /* \"#utility.yul\":25406:25454   */\n      mstore\n        /* \"#utility.yul\":25471:25579   */\n      tag_598\n        /* \"#utility.yul\":25574:25578   */\n      dup2\n        /* \"#utility.yul\":25565:25571   */\n      dup6\n        /* \"#utility.yul\":25471:25579   */\n      tag_326\n      jump\t// in\n    tag_598:\n        /* \"#utility.yul\":25463:25579   */\n      swap1\n      pop\n        /* \"#utility.yul\":25627:25636   */\n      dup2\n        /* \"#utility.yul\":25621:25625   */\n      dup2\n        /* \"#utility.yul\":25617:25637   */\n      sub\n        /* \"#utility.yul\":25611:25614   */\n      0x80\n        /* \"#utility.yul\":25600:25609   */\n      dup4\n        /* \"#utility.yul\":25596:25615   */\n      add\n        /* \"#utility.yul\":25589:25638   */\n      mstore\n        /* \"#utility.yul\":25655:25731   */\n      tag_599\n        /* \"#utility.yul\":25726:25730   */\n      dup2\n        /* \"#utility.yul\":25717:25723   */\n      dup5\n        /* \"#utility.yul\":25655:25731   */\n      tag_338\n      jump\t// in\n    tag_599:\n        /* \"#utility.yul\":25647:25731   */\n      swap1\n      pop\n        /* \"#utility.yul\":24685:25738   */\n      swap7\n      swap6\n      pop\n      pop\n      pop\n      pop\n      pop\n      pop\n      jump\t// out\n\n    auxdata: 0xa26469706673582212207b41e5ba30345159827a6653eac4b98e01a01f49e69d81e8e93013945f7e650264736f6c634300081a0033\n}\n",
				"bytecode": {
					"linkReferences": {},
					"object": "60806040526040518060800160405280662386f26fc1000067ffffffffffffffff16815260200166b1a2bc2ec5000067ffffffffffffffff16815260200167016345785d8a000067ffffffffffffffff1681526020016702c68af0bb14000067ffffffffffffffff16815250600390600461007b9291906100ff565b50348015610087575f80fd5b5060405180602001604052805f8152506100a6816100ec60201b60201c565b503360075f6101000a81548173ffffffffffffffffffffffffffffffffffffffff021916908373ffffffffffffffffffffffffffffffffffffffff16021790555061046f565b80600290816100fb91906103a0565b5050565b826004810192821561013a579160200282015b82811115610139578251829067ffffffffffffffff16905591602001919060010190610112565b5b509050610147919061014b565b5090565b5b80821115610162575f815f90555060010161014c565b5090565b5f81519050919050565b7f4e487b71000000000000000000000000000000000000000000000000000000005f52604160045260245ffd5b7f4e487b71000000000000000000000000000000000000000000000000000000005f52602260045260245ffd5b5f60028204905060018216806101e157607f821691505b6020821081036101f4576101f361019d565b5b50919050565b5f819050815f5260205f209050919050565b5f6020601f8301049050919050565b5f82821b905092915050565b5f600883026102567fffffffffffffffffffffffffffffffffffffffffffffffffffffffffffffffff8261021b565b610260868361021b565b95508019841693508086168417925050509392505050565b5f819050919050565b5f819050919050565b5f6102a461029f61029a84610278565b610281565b610278565b9050919050565b5f819050919050565b6102bd8361028a565b6102d16102c9826102ab565b848454610227565b825550505050565b5f90565b6102e56102d9565b6102f08184846102b4565b505050565b5b81811015610313576103085f826102dd565b6001810190506102f6565b5050565b601f82111561035857610329816101fa565b6103328461020c565b81016020851015610341578190505b61035561034d8561020c565b8301826102f5565b50505b505050565b5f82821c905092915050565b5f6103785f198460080261035d565b1980831691505092915050565b5f6103908383610369565b9150826002028217905092915050565b6103a982610166565b67ffffffffffffffff8111156103c2576103c1610170565b5b6103cc82546101ca565b6103d7828285610317565b5f60209050601f831160018114610408575f84156103f6578287015190505b6104008582610385565b865550610467565b601f198416610416866101fa565b5f5b8281101561043d57848901518255600182019150602085019450602081019050610418565b8683101561045a5784890151610456601f891682610369565b8355505b6001600288020188555050505b505050505050565b61248b8061047c5f395ff3fe6080604052600436106100c0575f3560e01c80632eb2c2d61161007e578063a22cb46511610058578063a22cb4651461024c578063ae909cff14610274578063e985e9c51461028a578063f242432a146102c6576100c0565b80632eb2c2d6146101d25780634e1273f4146101fa57806388ab416814610236576100c0565b8062fdd58e146100c457806301ffc9a7146101005780630303c6091461013c578063057466ea146101525780630e89341c1461016e5780632e1a7d4d146101aa575b5f80fd5b3480156100cf575f80fd5b506100ea60048036038101906100e5919061180a565b6102ee565b6040516100f79190611857565b60405180910390f35b34801561010b575f80fd5b50610126600480360381019061012191906118c5565b610343565b604051610133919061190a565b60405180910390f35b348015610147575f80fd5b50610150610424565b005b61016c60048036038101906101679190611923565b6104fa565b005b348015610179575f80fd5b50610194600480360381019061018f9190611961565b610560565b6040516101a191906119fc565b60405180910390f35b3480156101b5575f80fd5b506101d060048036038101906101cb9190611961565b6105f2565b005b3480156101dd575f80fd5b506101f860048036038101906101f39190611c0c565b6106b2565b005b348015610205575f80fd5b50610220600480360381019061021b9190611d97565b610759565b60405161022d9190611ec4565b60405180910390f35b348015610241575f80fd5b5061024a610860565b005b348015610257575f80fd5b50610272600480360381019061026d9190611f0e565b610862565b005b34801561027f575f80fd5b50610288610878565b005b348015610295575f80fd5b506102b060048036038101906102ab9190611f4c565b610a74565b6040516102bd919061190a565b60405180910390f35b3480156102d1575f80fd5b506102ec60048036038101906102e79190611f8a565b610b02565b005b5f805f8381526020019081526020015f205f8473ffffffffffffffffffffffffffffffffffffffff1673ffffffffffffffffffffffffffffffffffffffff1681526020019081526020015f2054905092915050565b5f7fd9b67a26000000000000000000000000000000000000000000000000000000007bffffffffffffffffffffffffffffffffffffffffffffffffffffffff1916827bffffffffffffffffffffffffffffffffffffffffffffffffffffffff1916148061040d57507f0e89341c000000000000000000000000000000000000000000000000000000007bffffffffffffffffffffffffffffffffffffffffffffffffffffffff1916827bffffffffffffffffffffffffffffffffffffffffffffffffffffffff1916145b8061041d575061041c82610ba9565b5b9050919050565b60075f9054906101000a900473ffffffffffffffffffffffffffffffffffffffff1673ffffffffffffffffffffffffffffffffffffffff163373ffffffffffffffffffffffffffffffffffffffff16146104b3576040517f08c379a00000000000000000000000000000000000000000000000000000000081526004016104aa90612067565b60405180910390fd5b5f5b60048110156104f7576002600382600481106104d4576104d3612085565b5b015f8282546104e391906120df565b9250508190555080806001019150506104b5565b50565b3481600384600481106105105761050f612085565b5b015461051c91906120df565b1461055c576040517f08c379a00000000000000000000000000000000000000000000000000000000081526004016105539061216a565b60405180910390fd5b5050565b60606002805461056f906121b5565b80601f016020809104026020016040519081016040528092919081815260200182805461059b906121b5565b80156105e65780601f106105bd576101008083540402835291602001916105e6565b820191905f5260205f20905b8154815290600101906020018083116105c957829003601f168201915b50505050509050919050565b60075f9054906101000a900473ffffffffffffffffffffffffffffffffffffffff1673ffffffffffffffffffffffffffffffffffffffff163373ffffffffffffffffffffffffffffffffffffffff161461064a575f80fd5b60075f9054906101000a900473ffffffffffffffffffffffffffffffffffffffff1673ffffffffffffffffffffffffffffffffffffffff166108fc8290811502906040515f60405180830381858888f193505050501580156106ae573d5f803e3d5ffd5b5050565b5f6106bb610c12565b90508073ffffffffffffffffffffffffffffffffffffffff168673ffffffffffffffffffffffffffffffffffffffff161415801561070057506106fe8682610a74565b155b156107445780866040517fe237d92200000000000000000000000000000000000000000000000000000000815260040161073b9291906121f4565b60405180910390fd5b6107518686868686610c19565b505050505050565b606081518351146107a557815183516040517f5b05999100000000000000000000000000000000000000000000000000000000815260040161079c92919061221b565b60405180910390fd5b5f835167ffffffffffffffff8111156107c1576107c0611a20565b5b6040519080825280602002602001820160405280156107ef5781602001602082028036833780820191505090505b5090505f5b84518110156108555761082b6108138287610d0d90919063ffffffff16565b6108268387610d2090919063ffffffff16565b6102ee565b82828151811061083e5761083d612085565b5b6020026020010181815250508060010190506107f4565b508091505092915050565b565b61087461086d610c12565b8383610d33565b5050565b60075f9054906101000a900473ffffffffffffffffffffffffffffffffffffffff1673ffffffffffffffffffffffffffffffffffffffff163373ffffffffffffffffffffffffffffffffffffffff16146108d0575f80fd5b5f600467ffffffffffffffff8111156108ec576108eb611a20565b5b60405190808252806020026020018201604052801561091a5781602001602082028036833780820191505090505b5090505f5b6004811015610961576001816109359190612242565b82828151811061094857610947612085565b5b602002602001018181525050808060010191505061091f565b505f5b600880549050811015610a7057610a63306008838154811061098957610988612085565b5b905f5260205f2090600202015f015f9054906101000a900473ffffffffffffffffffffffffffffffffffffffff1684600885815481106109cc576109cb612085565b5b905f5260205f209060020201600101805480602002602001604051908101604052809291908181526020018280548015610a2357602002820191905f5260205f20905b815481526020019060010190808311610a0f575b50505050506040518060400160405280600381526020017f30783000000000000000000000000000000000000000000000000000000000008152506106b2565b8080600101915050610964565b5050565b5f60015f8473ffffffffffffffffffffffffffffffffffffffff1673ffffffffffffffffffffffffffffffffffffffff1681526020019081526020015f205f8373ffffffffffffffffffffffffffffffffffffffff1673ffffffffffffffffffffffffffffffffffffffff1681526020019081526020015f205f9054906101000a900460ff16905092915050565b5f610b0b610c12565b90508073ffffffffffffffffffffffffffffffffffffffff168673ffffffffffffffffffffffffffffffffffffffff1614158015610b505750610b4e8682610a74565b155b15610b945780866040517fe237d922000000000000000000000000000000000000000000000000000000008152600401610b8b9291906121f4565b60405180910390fd5b610ba18686868686610e9c565b505050505050565b5f7f01ffc9a7000000000000000000000000000000000000000000000000000000007bffffffffffffffffffffffffffffffffffffffffffffffffffffffff1916827bffffffffffffffffffffffffffffffffffffffffffffffffffffffff1916149050919050565b5f33905090565b5f73ffffffffffffffffffffffffffffffffffffffff168473ffffffffffffffffffffffffffffffffffffffff1603610c89575f6040517f57f447ce000000000000000000000000000000000000000000000000000000008152600401610c809190612275565b60405180910390fd5b5f73ffffffffffffffffffffffffffffffffffffffff168573ffffffffffffffffffffffffffffffffffffffff1603610cf9575f6040517f01a83514000000000000000000000000000000000000000000000000000000008152600401610cf09190612275565b60405180910390fd5b610d068585858585610fa2565b5050505050565b5f60208202602084010151905092915050565b5f60208202602084010151905092915050565b5f73ffffffffffffffffffffffffffffffffffffffff168273ffffffffffffffffffffffffffffffffffffffff1603610da3575f6040517fced3e100000000000000000000000000000000000000000000000000000000008152600401610d9a9190612275565b60405180910390fd5b8060015f8573ffffffffffffffffffffffffffffffffffffffff1673ffffffffffffffffffffffffffffffffffffffff1681526020019081526020015f205f8473ffffffffffffffffffffffffffffffffffffffff1673ffffffffffffffffffffffffffffffffffffffff1681526020019081526020015f205f6101000a81548160ff0219169083151502179055508173ffffffffffffffffffffffffffffffffffffffff168373ffffffffffffffffffffffffffffffffffffffff167f17307eab39ab6107e8899845ad3d59bd9653f200f220920489ca2b5937696c3183604051610e8f919061190a565b60405180910390a3505050565b5f73ffffffffffffffffffffffffffffffffffffffff168473ffffffffffffffffffffffffffffffffffffffff1603610f0c575f6040517f57f447ce000000000000000000000000000000000000000000000000000000008152600401610f039190612275565b60405180910390fd5b5f73ffffffffffffffffffffffffffffffffffffffff168573ffffffffffffffffffffffffffffffffffffffff1603610f7c575f6040517f01a83514000000000000000000000000000000000000000000000000000000008152600401610f739190612275565b60405180910390fd5b5f80610f88858561104e565b91509150610f998787848487610fa2565b50505050505050565b610fae8585858561107e565b5f73ffffffffffffffffffffffffffffffffffffffff168473ffffffffffffffffffffffffffffffffffffffff1614611047575f610fea610c12565b90506001845103611036575f6110095f86610d2090919063ffffffff16565b90505f61101f5f86610d2090919063ffffffff16565b905061102f83898985858961140e565b5050611045565b6110448187878787876115bd565b5b505b5050505050565b60608060405191506001825283602083015260408201905060018152826020820152604081016040529250929050565b80518251146110c857815181516040517f5b0599910000000000000000000000000000000000000000000000000000000081526004016110bf92919061221b565b60405180910390fd5b5f6110d1610c12565b90505f5b83518110156112cd575f6110f28286610d2090919063ffffffff16565b90505f6111088386610d2090919063ffffffff16565b90505f73ffffffffffffffffffffffffffffffffffffffff168873ffffffffffffffffffffffffffffffffffffffff161461122b575f805f8481526020019081526020015f205f8a73ffffffffffffffffffffffffffffffffffffffff1673ffffffffffffffffffffffffffffffffffffffff1681526020019081526020015f20549050818110156111d757888183856040517f03dee4c50000000000000000000000000000000000000000000000000000000081526004016111ce949392919061228e565b60405180910390fd5b8181035f808581526020019081526020015f205f8b73ffffffffffffffffffffffffffffffffffffffff1673ffffffffffffffffffffffffffffffffffffffff1681526020019081526020015f2081905550505b5f73ffffffffffffffffffffffffffffffffffffffff168773ffffffffffffffffffffffffffffffffffffffff16146112c057805f808481526020019081526020015f205f8973ffffffffffffffffffffffffffffffffffffffff1673ffffffffffffffffffffffffffffffffffffffff1681526020019081526020015f205f8282546112b89190612242565b925050819055505b50508060010190506110d5565b506001835103611388575f6112eb5f85610d2090919063ffffffff16565b90505f6113015f85610d2090919063ffffffff16565b90508573ffffffffffffffffffffffffffffffffffffffff168773ffffffffffffffffffffffffffffffffffffffff168473ffffffffffffffffffffffffffffffffffffffff167fc3d58168c5ae7397731d063d5bbf3d657854427343f4c083240f7aacaa2d0f62858560405161137992919061221b565b60405180910390a45050611407565b8373ffffffffffffffffffffffffffffffffffffffff168573ffffffffffffffffffffffffffffffffffffffff168273ffffffffffffffffffffffffffffffffffffffff167f4a39dc06d4c0dbc64b70af90fd698a233a518aa5d07e595d983b8c0526c8f7fb86866040516113fe9291906122d1565b60405180910390a45b5050505050565b5f8473ffffffffffffffffffffffffffffffffffffffff163b11156115b5578373ffffffffffffffffffffffffffffffffffffffff1663f23a6e6187878686866040518663ffffffff1660e01b815260040161146e959493929190612358565b6020604051808303815f875af19250505080156114a957506040513d601f19601f820116820180604052508101906114a691906123c4565b60015b61152a573d805f81146114d7576040519150601f19603f3d011682016040523d82523d5f602084013e6114dc565b606091505b505f81510361152257846040517f57f447ce0000000000000000000000000000000000000000000000000000000081526004016115199190612275565b60405180910390fd5b805181602001fd5b63f23a6e6160e01b7bffffffffffffffffffffffffffffffffffffffffffffffffffffffff1916817bffffffffffffffffffffffffffffffffffffffffffffffffffffffff1916146115b357846040517f57f447ce0000000000000000000000000000000000000000000000000000000081526004016115aa9190612275565b60405180910390fd5b505b505050505050565b5f8473ffffffffffffffffffffffffffffffffffffffff163b1115611764578373ffffffffffffffffffffffffffffffffffffffff1663bc197c8187878686866040518663ffffffff1660e01b815260040161161d9594939291906123ef565b6020604051808303815f875af192505050801561165857506040513d601f19601f8201168201806040525081019061165591906123c4565b60015b6116d9573d805f8114611686576040519150601f19603f3d011682016040523d82523d5f602084013e61168b565b606091505b505f8151036116d157846040517f57f447ce0000000000000000000000000000000000000000000000000000000081526004016116c89190612275565b60405180910390fd5b805181602001fd5b63bc197c8160e01b7bffffffffffffffffffffffffffffffffffffffffffffffffffffffff1916817bffffffffffffffffffffffffffffffffffffffffffffffffffffffff19161461176257846040517f57f447ce0000000000000000000000000000000000000000000000000000000081526004016117599190612275565b60405180910390fd5b505b505050505050565b5f604051905090565b5f80fd5b5f80fd5b5f73ffffffffffffffffffffffffffffffffffffffff82169050919050565b5f6117a68261177d565b9050919050565b6117b68161179c565b81146117c0575f80fd5b50565b5f813590506117d1816117ad565b92915050565b5f819050919050565b6117e9816117d7565b81146117f3575f80fd5b50565b5f81359050611804816117e0565b92915050565b5f80604083850312156118205761181f611775565b5b5f61182d858286016117c3565b925050602061183e858286016117f6565b9150509250929050565b611851816117d7565b82525050565b5f60208201905061186a5f830184611848565b92915050565b5f7fffffffff0000000000000000000000000000000000000000000000000000000082169050919050565b6118a481611870565b81146118ae575f80fd5b50565b5f813590506118bf8161189b565b92915050565b5f602082840312156118da576118d9611775565b5b5f6118e7848285016118b1565b91505092915050565b5f8115159050919050565b611904816118f0565b82525050565b5f60208201905061191d5f8301846118fb565b92915050565b5f806040838503121561193957611938611775565b5b5f611946858286016117f6565b9250506020611957858286016117f6565b9150509250929050565b5f6020828403121561197657611975611775565b5b5f611983848285016117f6565b91505092915050565b5f81519050919050565b5f82825260208201905092915050565b8281835e5f83830152505050565b5f601f19601f8301169050919050565b5f6119ce8261198c565b6119d88185611996565b93506119e88185602086016119a6565b6119f1816119b4565b840191505092915050565b5f6020820190508181035f830152611a1481846119c4565b905092915050565b5f80fd5b7f4e487b71000000000000000000000000000000000000000000000000000000005f52604160045260245ffd5b611a56826119b4565b810181811067ffffffffffffffff82111715611a7557611a74611a20565b5b80604052505050565b5f611a8761176c565b9050611a938282611a4d565b919050565b5f67ffffffffffffffff821115611ab257611ab1611a20565b5b602082029050602081019050919050565b5f80fd5b5f611ad9611ad484611a98565b611a7e565b90508083825260208201905060208402830185811115611afc57611afb611ac3565b5b835b81811015611b255780611b1188826117f6565b845260208401935050602081019050611afe565b5050509392505050565b5f82601f830112611b4357611b42611a1c565b5b8135611b53848260208601611ac7565b91505092915050565b5f80fd5b5f67ffffffffffffffff821115611b7a57611b79611a20565b5b611b83826119b4565b9050602081019050919050565b828183375f83830152505050565b5f611bb0611bab84611b60565b611a7e565b905082815260208101848484011115611bcc57611bcb611b5c565b5b611bd7848285611b90565b509392505050565b5f82601f830112611bf357611bf2611a1c565b5b8135611c03848260208601611b9e565b91505092915050565b5f805f805f60a08688031215611c2557611c24611775565b5b5f611c32888289016117c3565b9550506020611c43888289016117c3565b945050604086013567ffffffffffffffff811115611c6457611c63611779565b5b611c7088828901611b2f565b935050606086013567ffffffffffffffff811115611c9157611c90611779565b5b611c9d88828901611b2f565b925050608086013567ffffffffffffffff811115611cbe57611cbd611779565b5b611cca88828901611bdf565b9150509295509295909350565b5f67ffffffffffffffff821115611cf157611cf0611a20565b5b602082029050602081019050919050565b5f611d14611d0f84611cd7565b611a7e565b90508083825260208201905060208402830185811115611d3757611d36611ac3565b5b835b81811015611d605780611d4c88826117c3565b845260208401935050602081019050611d39565b5050509392505050565b5f82601f830112611d7e57611d7d611a1c565b5b8135611d8e848260208601611d02565b91505092915050565b5f8060408385031215611dad57611dac611775565b5b5f83013567ffffffffffffffff811115611dca57611dc9611779565b5b611dd685828601611d6a565b925050602083013567ffffffffffffffff811115611df757611df6611779565b5b611e0385828601611b2f565b9150509250929050565b5f81519050919050565b5f82825260208201905092915050565b5f819050602082019050919050565b611e3f816117d7565b82525050565b5f611e508383611e36565b60208301905092915050565b5f602082019050919050565b5f611e7282611e0d565b611e7c8185611e17565b9350611e8783611e27565b805f5b83811015611eb7578151611e9e8882611e45565b9750611ea983611e5c565b925050600181019050611e8a565b5085935050505092915050565b5f6020820190508181035f830152611edc8184611e68565b905092915050565b611eed816118f0565b8114611ef7575f80fd5b50565b5f81359050611f0881611ee4565b92915050565b5f8060408385031215611f2457611f23611775565b5b5f611f31858286016117c3565b9250506020611f4285828601611efa565b9150509250929050565b5f8060408385031215611f6257611f61611775565b5b5f611f6f858286016117c3565b9250506020611f80858286016117c3565b9150509250929050565b5f805f805f60a08688031215611fa357611fa2611775565b5b5f611fb0888289016117c3565b9550506020611fc1888289016117c3565b9450506040611fd2888289016117f6565b9350506060611fe3888289016117f6565b925050608086013567ffffffffffffffff81111561200457612003611779565b5b61201088828901611bdf565b9150509295509295909350565b7f6f6e6c79204f776e6572000000000000000000000000000000000000000000005f82015250565b5f612051600a83611996565b915061205c8261201d565b602082019050919050565b5f6020820190508181035f83015261207e81612045565b9050919050565b7f4e487b71000000000000000000000000000000000000000000000000000000005f52603260045260245ffd5b7f4e487b71000000000000000000000000000000000000000000000000000000005f52601160045260245ffd5b5f6120e9826117d7565b91506120f4836117d7565b9250828202612102816117d7565b91508282048414831517612119576121186120b2565b5b5092915050565b7f636865636b20616d6f756e7400000000000000000000000000000000000000005f82015250565b5f612154600c83611996565b915061215f82612120565b602082019050919050565b5f6020820190508181035f83015261218181612148565b9050919050565b7f4e487b71000000000000000000000000000000000000000000000000000000005f52602260045260245ffd5b5f60028204905060018216806121cc57607f821691505b6020821081036121df576121de612188565b5b50919050565b6121ee8161179c565b82525050565b5f6040820190506122075f8301856121e5565b61221460208301846121e5565b9392505050565b5f60408201905061222e5f830185611848565b61223b6020830184611848565b9392505050565b5f61224c826117d7565b9150612257836117d7565b925082820190508082111561226f5761226e6120b2565b5b92915050565b5f6020820190506122885f8301846121e5565b92915050565b5f6080820190506122a15f8301876121e5565b6122ae6020830186611848565b6122bb6040830185611848565b6122c86060830184611848565b95945050505050565b5f6040820190508181035f8301526122e98185611e68565b905081810360208301526122fd8184611e68565b90509392505050565b5f81519050919050565b5f82825260208201905092915050565b5f61232a82612306565b6123348185612310565b93506123448185602086016119a6565b61234d816119b4565b840191505092915050565b5f60a08201905061236b5f8301886121e5565b61237860208301876121e5565b6123856040830186611848565b6123926060830185611848565b81810360808301526123a48184612320565b90509695505050505050565b5f815190506123be8161189b565b92915050565b5f602082840312156123d9576123d8611775565b5b5f6123e6848285016123b0565b91505092915050565b5f60a0820190506124025f8301886121e5565b61240f60208301876121e5565b81810360408301526124218186611e68565b905081810360608301526124358185611e68565b905081810360808301526124498184612320565b9050969550505050505056fea26469706673582212207b41e5ba30345159827a6653eac4b98e01a01f49e69d81e8e93013945f7e650264736f6c634300081a0033",
					"opcodes": "PUSH1 0x80 PUSH1 0x40 MSTORE PUSH1 0x40 MLOAD DUP1 PUSH1 0x80 ADD PUSH1 0x40 MSTORE DUP1 PUSH7 0x2386F26FC10000 PUSH8 0xFFFFFFFFFFFFFFFF AND DUP2 MSTORE PUSH1 0x20 ADD PUSH7 0xB1A2BC2EC50000 PUSH8 0xFFFFFFFFFFFFFFFF AND DUP2 MSTORE PUSH1 0x20 ADD PUSH8 0x16345785D8A0000 PUSH8 0xFFFFFFFFFFFFFFFF AND DUP2 MSTORE PUSH1 0x20 ADD PUSH8 0x2C68AF0BB140000 PUSH8 0xFFFFFFFFFFFFFFFF AND DUP2 MSTORE POP PUSH1 0x3 SWAP1 PUSH1 0x4 PUSH2 0x7B SWAP3 SWAP2 SWAP1 PUSH2 0xFF JUMP JUMPDEST POP CALLVALUE DUP1 ISZERO PUSH2 0x87 JUMPI PUSH0 DUP1 REVERT JUMPDEST POP PUSH1 0x40 MLOAD DUP1 PUSH1 0x20 ADD PUSH1 0x40 MSTORE DUP1 PUSH0 DUP2 MSTORE POP PUSH2 0xA6 DUP2 PUSH2 0xEC PUSH1 0x20 SHL PUSH1 0x20 SHR JUMP JUMPDEST POP CALLER PUSH1 0x7 PUSH0 PUSH2 0x100 EXP DUP2 SLOAD DUP2 PUSH20 0xFFFFFFFFFFFFFFFFFFFFFFFFFFFFFFFFFFFFFFFF MUL NOT AND SWAP1 DUP4 PUSH20 0xFFFFFFFFFFFFFFFFFFFFFFFFFFFFFFFFFFFFFFFF AND MUL OR SWAP1 SSTORE POP PUSH2 0x46F JUMP JUMPDEST DUP1 PUSH1 0x2 SWAP1 DUP2 PUSH2 0xFB SWAP2 SWAP1 PUSH2 0x3A0 JUMP JUMPDEST POP POP JUMP JUMPDEST DUP3 PUSH1 0x4 DUP2 ADD SWAP3 DUP3 ISZERO PUSH2 0x13A JUMPI SWAP2 PUSH1 0x20 MUL DUP3 ADD JUMPDEST DUP3 DUP2 GT ISZERO PUSH2 0x139 JUMPI DUP3 MLOAD DUP3 SWAP1 PUSH8 0xFFFFFFFFFFFFFFFF AND SWAP1 SSTORE SWAP2 PUSH1 0x20 ADD SWAP2 SWAP1 PUSH1 0x1 ADD SWAP1 PUSH2 0x112 JUMP JUMPDEST JUMPDEST POP SWAP1 POP PUSH2 0x147 SWAP2 SWAP1 PUSH2 0x14B JUMP JUMPDEST POP SWAP1 JUMP JUMPDEST JUMPDEST DUP1 DUP3 GT ISZERO PUSH2 0x162 JUMPI PUSH0 DUP2 PUSH0 SWAP1 SSTORE POP PUSH1 0x1 ADD PUSH2 0x14C JUMP JUMPDEST POP SWAP1 JUMP JUMPDEST PUSH0 DUP2 MLOAD SWAP1 POP SWAP2 SWAP1 POP JUMP JUMPDEST PUSH32 0x4E487B7100000000000000000000000000000000000000000000000000000000 PUSH0 MSTORE PUSH1 0x41 PUSH1 0x4 MSTORE PUSH1 0x24 PUSH0 REVERT JUMPDEST PUSH32 0x4E487B7100000000000000000000000000000000000000000000000000000000 PUSH0 MSTORE PUSH1 0x22 PUSH1 0x4 MSTORE PUSH1 0x24 PUSH0 REVERT JUMPDEST PUSH0 PUSH1 0x2 DUP3 DIV SWAP1 POP PUSH1 0x1 DUP3 AND DUP1 PUSH2 0x1E1 JUMPI PUSH1 0x7F DUP3 AND SWAP2 POP JUMPDEST PUSH1 0x20 DUP3 LT DUP2 SUB PUSH2 0x1F4 JUMPI PUSH2 0x1F3 PUSH2 0x19D JUMP JUMPDEST JUMPDEST POP SWAP2 SWAP1 POP JUMP JUMPDEST PUSH0 DUP2 SWAP1 POP DUP2 PUSH0 MSTORE PUSH1 0x20 PUSH0 KECCAK256 SWAP1 POP SWAP2 SWAP1 POP JUMP JUMPDEST PUSH0 PUSH1 0x20 PUSH1 0x1F DUP4 ADD DIV SWAP1 POP SWAP2 SWAP1 POP JUMP JUMPDEST PUSH0 DUP3 DUP3 SHL SWAP1 POP SWAP3 SWAP2 POP POP JUMP JUMPDEST PUSH0 PUSH1 0x8 DUP4 MUL PUSH2 0x256 PUSH32 0xFFFFFFFFFFFFFFFFFFFFFFFFFFFFFFFFFFFFFFFFFFFFFFFFFFFFFFFFFFFFFFFF DUP3 PUSH2 0x21B JUMP JUMPDEST PUSH2 0x260 DUP7 DUP4 PUSH2 0x21B JUMP JUMPDEST SWAP6 POP DUP1 NOT DUP5 AND SWAP4 POP DUP1 DUP7 AND DUP5 OR SWAP3 POP POP POP SWAP4 SWAP3 POP POP POP JUMP JUMPDEST PUSH0 DUP2 SWAP1 POP SWAP2 SWAP1 POP JUMP JUMPDEST PUSH0 DUP2 SWAP1 POP SWAP2 SWAP1 POP JUMP JUMPDEST PUSH0 PUSH2 0x2A4 PUSH2 0x29F PUSH2 0x29A DUP5 PUSH2 0x278 JUMP JUMPDEST PUSH2 0x281 JUMP JUMPDEST PUSH2 0x278 JUMP JUMPDEST SWAP1 POP SWAP2 SWAP1 POP JUMP JUMPDEST PUSH0 DUP2 SWAP1 POP SWAP2 SWAP1 POP JUMP JUMPDEST PUSH2 0x2BD DUP4 PUSH2 0x28A JUMP JUMPDEST PUSH2 0x2D1 PUSH2 0x2C9 DUP3 PUSH2 0x2AB JUMP JUMPDEST DUP5 DUP5 SLOAD PUSH2 0x227 JUMP JUMPDEST DUP3 SSTORE POP POP POP POP JUMP JUMPDEST PUSH0 SWAP1 JUMP JUMPDEST PUSH2 0x2E5 PUSH2 0x2D9 JUMP JUMPDEST PUSH2 0x2F0 DUP2 DUP5 DUP5 PUSH2 0x2B4 JUMP JUMPDEST POP POP POP JUMP JUMPDEST JUMPDEST DUP2 DUP2 LT ISZERO PUSH2 0x313 JUMPI PUSH2 0x308 PUSH0 DUP3 PUSH2 0x2DD JUMP JUMPDEST PUSH1 0x1 DUP2 ADD SWAP1 POP PUSH2 0x2F6 JUMP JUMPDEST POP POP JUMP JUMPDEST PUSH1 0x1F DUP3 GT ISZERO PUSH2 0x358 JUMPI PUSH2 0x329 DUP2 PUSH2 0x1FA JUMP JUMPDEST PUSH2 0x332 DUP5 PUSH2 0x20C JUMP JUMPDEST DUP2 ADD PUSH1 0x20 DUP6 LT ISZERO PUSH2 0x341 JUMPI DUP2 SWAP1 POP JUMPDEST PUSH2 0x355 PUSH2 0x34D DUP6 PUSH2 0x20C JUMP JUMPDEST DUP4 ADD DUP3 PUSH2 0x2F5 JUMP JUMPDEST POP POP JUMPDEST POP POP POP JUMP JUMPDEST PUSH0 DUP3 DUP3 SHR SWAP1 POP SWAP3 SWAP2 POP POP JUMP JUMPDEST PUSH0 PUSH2 0x378 PUSH0 NOT DUP5 PUSH1 0x8 MUL PUSH2 0x35D JUMP JUMPDEST NOT DUP1 DUP4 AND SWAP2 POP POP SWAP3 SWAP2 POP POP JUMP JUMPDEST PUSH0 PUSH2 0x390 DUP4 DUP4 PUSH2 0x369 JUMP JUMPDEST SWAP2 POP DUP3 PUSH1 0x2 MUL DUP3 OR SWAP1 POP SWAP3 SWAP2 POP POP JUMP JUMPDEST PUSH2 0x3A9 DUP3 PUSH2 0x166 JUMP JUMPDEST PUSH8 0xFFFFFFFFFFFFFFFF DUP2 GT ISZERO PUSH2 0x3C2 JUMPI PUSH2 0x3C1 PUSH2 0x170 JUMP JUMPDEST JUMPDEST PUSH2 0x3CC DUP3 SLOAD PUSH2 0x1CA JUMP JUMPDEST PUSH2 0x3D7 DUP3 DUP3 DUP6 PUSH2 0x317 JUMP JUMPDEST PUSH0 PUSH1 0x20 SWAP1 POP PUSH1 0x1F DUP4 GT PUSH1 0x1 DUP2 EQ PUSH2 0x408 JUMPI PUSH0 DUP5 ISZERO PUSH2 0x3F6 JUMPI DUP3 DUP8 ADD MLOAD SWAP1 POP JUMPDEST PUSH2 0x400 DUP6 DUP3 PUSH2 0x385 JUMP JUMPDEST DUP7 SSTORE POP PUSH2 0x467 JUMP JUMPDEST PUSH1 0x1F NOT DUP5 AND PUSH2 0x416 DUP7 PUSH2 0x1FA JUMP JUMPDEST PUSH0 JUMPDEST DUP3 DUP2 LT ISZERO PUSH2 0x43D JUMPI DUP5 DUP10 ADD MLOAD DUP3 SSTORE PUSH1 0x1 DUP3 ADD SWAP2 POP PUSH1 0x20 DUP6 ADD SWAP5 POP PUSH1 0x20 DUP2 ADD SWAP1 POP PUSH2 0x418 JUMP JUMPDEST DUP7 DUP4 LT ISZERO PUSH2 0x45A JUMPI DUP5 DUP10 ADD MLOAD PUSH2 0x456 PUSH1 0x1F DUP10 AND DUP3 PUSH2 0x369 JUMP JUMPDEST DUP4 SSTORE POP JUMPDEST PUSH1 0x1 PUSH1 0x2 DUP9 MUL ADD DUP9 SSTORE POP POP POP JUMPDEST POP POP POP POP POP POP JUMP JUMPDEST PUSH2 0x248B DUP1 PUSH2 0x47C PUSH0 CODECOPY PUSH0 RETURN INVALID PUSH1 0x80 PUSH1 0x40 MSTORE PUSH1 0x4 CALLDATASIZE LT PUSH2 0xC0 JUMPI PUSH0 CALLDATALOAD PUSH1 0xE0 SHR DUP1 PUSH4 0x2EB2C2D6 GT PUSH2 0x7E JUMPI DUP1 PUSH4 0xA22CB465 GT PUSH2 0x58 JUMPI DUP1 PUSH4 0xA22CB465 EQ PUSH2 0x24C JUMPI DUP1 PUSH4 0xAE909CFF EQ PUSH2 0x274 JUMPI DUP1 PUSH4 0xE985E9C5 EQ PUSH2 0x28A JUMPI DUP1 PUSH4 0xF242432A EQ PUSH2 0x2C6 JUMPI PUSH2 0xC0 JUMP JUMPDEST DUP1 PUSH4 0x2EB2C2D6 EQ PUSH2 0x1D2 JUMPI DUP1 PUSH4 0x4E1273F4 EQ PUSH2 0x1FA JUMPI DUP1 PUSH4 0x88AB4168 EQ PUSH2 0x236 JUMPI PUSH2 0xC0 JUMP JUMPDEST DUP1 PUSH3 0xFDD58E EQ PUSH2 0xC4 JUMPI DUP1 PUSH4 0x1FFC9A7 EQ PUSH2 0x100 JUMPI DUP1 PUSH4 0x303C609 EQ PUSH2 0x13C JUMPI DUP1 PUSH4 0x57466EA EQ PUSH2 0x152 JUMPI DUP1 PUSH4 0xE89341C EQ PUSH2 0x16E JUMPI DUP1 PUSH4 0x2E1A7D4D EQ PUSH2 0x1AA JUMPI JUMPDEST PUSH0 DUP1 REVERT JUMPDEST CALLVALUE DUP1 ISZERO PUSH2 0xCF JUMPI PUSH0 DUP1 REVERT JUMPDEST POP PUSH2 0xEA PUSH1 0x4 DUP1 CALLDATASIZE SUB DUP2 ADD SWAP1 PUSH2 0xE5 SWAP2 SWAP1 PUSH2 0x180A JUMP JUMPDEST PUSH2 0x2EE JUMP JUMPDEST PUSH1 0x40 MLOAD PUSH2 0xF7 SWAP2 SWAP1 PUSH2 0x1857 JUMP JUMPDEST PUSH1 0x40 MLOAD DUP1 SWAP2 SUB SWAP1 RETURN JUMPDEST CALLVALUE DUP1 ISZERO PUSH2 0x10B JUMPI PUSH0 DUP1 REVERT JUMPDEST POP PUSH2 0x126 PUSH1 0x4 DUP1 CALLDATASIZE SUB DUP2 ADD SWAP1 PUSH2 0x121 SWAP2 SWAP1 PUSH2 0x18C5 JUMP JUMPDEST PUSH2 0x343 JUMP JUMPDEST PUSH1 0x40 MLOAD PUSH2 0x133 SWAP2 SWAP1 PUSH2 0x190A JUMP JUMPDEST PUSH1 0x40 MLOAD DUP1 SWAP2 SUB SWAP1 RETURN JUMPDEST CALLVALUE DUP1 ISZERO PUSH2 0x147 JUMPI PUSH0 DUP1 REVERT JUMPDEST POP PUSH2 0x150 PUSH2 0x424 JUMP JUMPDEST STOP JUMPDEST PUSH2 0x16C PUSH1 0x4 DUP1 CALLDATASIZE SUB DUP2 ADD SWAP1 PUSH2 0x167 SWAP2 SWAP1 PUSH2 0x1923 JUMP JUMPDEST PUSH2 0x4FA JUMP JUMPDEST STOP JUMPDEST CALLVALUE DUP1 ISZERO PUSH2 0x179 JUMPI PUSH0 DUP1 REVERT JUMPDEST POP PUSH2 0x194 PUSH1 0x4 DUP1 CALLDATASIZE SUB DUP2 ADD SWAP1 PUSH2 0x18F SWAP2 SWAP1 PUSH2 0x1961 JUMP JUMPDEST PUSH2 0x560 JUMP JUMPDEST PUSH1 0x40 MLOAD PUSH2 0x1A1 SWAP2 SWAP1 PUSH2 0x19FC JUMP JUMPDEST PUSH1 0x40 MLOAD DUP1 SWAP2 SUB SWAP1 RETURN JUMPDEST CALLVALUE DUP1 ISZERO PUSH2 0x1B5 JUMPI PUSH0 DUP1 REVERT JUMPDEST POP PUSH2 0x1D0 PUSH1 0x4 DUP1 CALLDATASIZE SUB DUP2 ADD SWAP1 PUSH2 0x1CB SWAP2 SWAP1 PUSH2 0x1961 JUMP JUMPDEST PUSH2 0x5F2 JUMP JUMPDEST STOP JUMPDEST CALLVALUE DUP1 ISZERO PUSH2 0x1DD JUMPI PUSH0 DUP1 REVERT JUMPDEST POP PUSH2 0x1F8 PUSH1 0x4 DUP1 CALLDATASIZE SUB DUP2 ADD SWAP1 PUSH2 0x1F3 SWAP2 SWAP1 PUSH2 0x1C0C JUMP JUMPDEST PUSH2 0x6B2 JUMP JUMPDEST STOP JUMPDEST CALLVALUE DUP1 ISZERO PUSH2 0x205 JUMPI PUSH0 DUP1 REVERT JUMPDEST POP PUSH2 0x220 PUSH1 0x4 DUP1 CALLDATASIZE SUB DUP2 ADD SWAP1 PUSH2 0x21B SWAP2 SWAP1 PUSH2 0x1D97 JUMP JUMPDEST PUSH2 0x759 JUMP JUMPDEST PUSH1 0x40 MLOAD PUSH2 0x22D SWAP2 SWAP1 PUSH2 0x1EC4 JUMP JUMPDEST PUSH1 0x40 MLOAD DUP1 SWAP2 SUB SWAP1 RETURN JUMPDEST CALLVALUE DUP1 ISZERO PUSH2 0x241 JUMPI PUSH0 DUP1 REVERT JUMPDEST POP PUSH2 0x24A PUSH2 0x860 JUMP JUMPDEST STOP JUMPDEST CALLVALUE DUP1 ISZERO PUSH2 0x257 JUMPI PUSH0 DUP1 REVERT JUMPDEST POP PUSH2 0x272 PUSH1 0x4 DUP1 CALLDATASIZE SUB DUP2 ADD SWAP1 PUSH2 0x26D SWAP2 SWAP1 PUSH2 0x1F0E JUMP JUMPDEST PUSH2 0x862 JUMP JUMPDEST STOP JUMPDEST CALLVALUE DUP1 ISZERO PUSH2 0x27F JUMPI PUSH0 DUP1 REVERT JUMPDEST POP PUSH2 0x288 PUSH2 0x878 JUMP JUMPDEST STOP JUMPDEST CALLVALUE DUP1 ISZERO PUSH2 0x295 JUMPI PUSH0 DUP1 REVERT JUMPDEST POP PUSH2 0x2B0 PUSH1 0x4 DUP1 CALLDATASIZE SUB DUP2 ADD SWAP1 PUSH2 0x2AB SWAP2 SWAP1 PUSH2 0x1F4C JUMP JUMPDEST PUSH2 0xA74 JUMP JUMPDEST PUSH1 0x40 MLOAD PUSH2 0x2BD SWAP2 SWAP1 PUSH2 0x190A JUMP JUMPDEST PUSH1 0x40 MLOAD DUP1 SWAP2 SUB SWAP1 RETURN JUMPDEST CALLVALUE DUP1 ISZERO PUSH2 0x2D1 JUMPI PUSH0 DUP1 REVERT JUMPDEST POP PUSH2 0x2EC PUSH1 0x4 DUP1 CALLDATASIZE SUB DUP2 ADD SWAP1 PUSH2 0x2E7 SWAP2 SWAP1 PUSH2 0x1F8A JUMP JUMPDEST PUSH2 0xB02 JUMP JUMPDEST STOP JUMPDEST PUSH0 DUP1 PUSH0 DUP4 DUP2 MSTORE PUSH1 0x20 ADD SWAP1 DUP2 MSTORE PUSH1 0x20 ADD PUSH0 KECCAK256 PUSH0 DUP5 PUSH20 0xFFFFFFFFFFFFFFFFFFFFFFFFFFFFFFFFFFFFFFFF AND PUSH20 0xFFFFFFFFFFFFFFFFFFFFFFFFFFFFFFFFFFFFFFFF AND DUP2 MSTORE PUSH1 0x20 ADD SWAP1 DUP2 MSTORE PUSH1 0x20 ADD PUSH0 KECCAK256 SLOAD SWAP1 POP SWAP3 SWAP2 POP POP JUMP JUMPDEST PUSH0 PUSH32 0xD9B67A2600000000000000000000000000000000000000000000000000000000 PUSH28 0xFFFFFFFFFFFFFFFFFFFFFFFFFFFFFFFFFFFFFFFFFFFFFFFFFFFFFFFF NOT AND DUP3 PUSH28 0xFFFFFFFFFFFFFFFFFFFFFFFFFFFFFFFFFFFFFFFFFFFFFFFFFFFFFFFF NOT AND EQ DUP1 PUSH2 0x40D JUMPI POP PUSH32 0xE89341C00000000000000000000000000000000000000000000000000000000 PUSH28 0xFFFFFFFFFFFFFFFFFFFFFFFFFFFFFFFFFFFFFFFFFFFFFFFFFFFFFFFF NOT AND DUP3 PUSH28 0xFFFFFFFFFFFFFFFFFFFFFFFFFFFFFFFFFFFFFFFFFFFFFFFFFFFFFFFF NOT AND EQ JUMPDEST DUP1 PUSH2 0x41D JUMPI POP PUSH2 0x41C DUP3 PUSH2 0xBA9 JUMP JUMPDEST JUMPDEST SWAP1 POP SWAP2 SWAP1 POP JUMP JUMPDEST PUSH1 0x7 PUSH0 SWAP1 SLOAD SWAP1 PUSH2 0x100 EXP SWAP1 DIV PUSH20 0xFFFFFFFFFFFFFFFFFFFFFFFFFFFFFFFFFFFFFFFF AND PUSH20 0xFFFFFFFFFFFFFFFFFFFFFFFFFFFFFFFFFFFFFFFF AND CALLER PUSH20 0xFFFFFFFFFFFFFFFFFFFFFFFFFFFFFFFFFFFFFFFF AND EQ PUSH2 0x4B3 JUMPI PUSH1 0x40 MLOAD PUSH32 0x8C379A000000000000000000000000000000000000000000000000000000000 DUP2 MSTORE PUSH1 0x4 ADD PUSH2 0x4AA SWAP1 PUSH2 0x2067 JUMP JUMPDEST PUSH1 0x40 MLOAD DUP1 SWAP2 SUB SWAP1 REVERT JUMPDEST PUSH0 JUMPDEST PUSH1 0x4 DUP2 LT ISZERO PUSH2 0x4F7 JUMPI PUSH1 0x2 PUSH1 0x3 DUP3 PUSH1 0x4 DUP2 LT PUSH2 0x4D4 JUMPI PUSH2 0x4D3 PUSH2 0x2085 JUMP JUMPDEST JUMPDEST ADD PUSH0 DUP3 DUP3 SLOAD PUSH2 0x4E3 SWAP2 SWAP1 PUSH2 0x20DF JUMP JUMPDEST SWAP3 POP POP DUP2 SWAP1 SSTORE POP DUP1 DUP1 PUSH1 0x1 ADD SWAP2 POP POP PUSH2 0x4B5 JUMP JUMPDEST POP JUMP JUMPDEST CALLVALUE DUP2 PUSH1 0x3 DUP5 PUSH1 0x4 DUP2 LT PUSH2 0x510 JUMPI PUSH2 0x50F PUSH2 0x2085 JUMP JUMPDEST JUMPDEST ADD SLOAD PUSH2 0x51C SWAP2 SWAP1 PUSH2 0x20DF JUMP JUMPDEST EQ PUSH2 0x55C JUMPI PUSH1 0x40 MLOAD PUSH32 0x8C379A000000000000000000000000000000000000000000000000000000000 DUP2 MSTORE PUSH1 0x4 ADD PUSH2 0x553 SWAP1 PUSH2 0x216A JUMP JUMPDEST PUSH1 0x40 MLOAD DUP1 SWAP2 SUB SWAP1 REVERT JUMPDEST POP POP JUMP JUMPDEST PUSH1 0x60 PUSH1 0x2 DUP1 SLOAD PUSH2 0x56F SWAP1 PUSH2 0x21B5 JUMP JUMPDEST DUP1 PUSH1 0x1F ADD PUSH1 0x20 DUP1 SWAP2 DIV MUL PUSH1 0x20 ADD PUSH1 0x40 MLOAD SWAP1 DUP2 ADD PUSH1 0x40 MSTORE DUP1 SWAP3 SWAP2 SWAP1 DUP2 DUP2 MSTORE PUSH1 0x20 ADD DUP3 DUP1 SLOAD PUSH2 0x59B SWAP1 PUSH2 0x21B5 JUMP JUMPDEST DUP1 ISZERO PUSH2 0x5E6 JUMPI DUP1 PUSH1 0x1F LT PUSH2 0x5BD JUMPI PUSH2 0x100 DUP1 DUP4 SLOAD DIV MUL DUP4 MSTORE SWAP2 PUSH1 0x20 ADD SWAP2 PUSH2 0x5E6 JUMP JUMPDEST DUP3 ADD SWAP2 SWAP1 PUSH0 MSTORE PUSH1 0x20 PUSH0 KECCAK256 SWAP1 JUMPDEST DUP2 SLOAD DUP2 MSTORE SWAP1 PUSH1 0x1 ADD SWAP1 PUSH1 0x20 ADD DUP1 DUP4 GT PUSH2 0x5C9 JUMPI DUP3 SWAP1 SUB PUSH1 0x1F AND DUP3 ADD SWAP2 JUMPDEST POP POP POP POP POP SWAP1 POP SWAP2 SWAP1 POP JUMP JUMPDEST PUSH1 0x7 PUSH0 SWAP1 SLOAD SWAP1 PUSH2 0x100 EXP SWAP1 DIV PUSH20 0xFFFFFFFFFFFFFFFFFFFFFFFFFFFFFFFFFFFFFFFF AND PUSH20 0xFFFFFFFFFFFFFFFFFFFFFFFFFFFFFFFFFFFFFFFF AND CALLER PUSH20 0xFFFFFFFFFFFFFFFFFFFFFFFFFFFFFFFFFFFFFFFF AND EQ PUSH2 0x64A JUMPI PUSH0 DUP1 REVERT JUMPDEST PUSH1 0x7 PUSH0 SWAP1 SLOAD SWAP1 PUSH2 0x100 EXP SWAP1 DIV PUSH20 0xFFFFFFFFFFFFFFFFFFFFFFFFFFFFFFFFFFFFFFFF AND PUSH20 0xFFFFFFFFFFFFFFFFFFFFFFFFFFFFFFFFFFFFFFFF AND PUSH2 0x8FC DUP3 SWAP1 DUP2 ISZERO MUL SWAP1 PUSH1 0x40 MLOAD PUSH0 PUSH1 0x40 MLOAD DUP1 DUP4 SUB DUP2 DUP6 DUP9 DUP9 CALL SWAP4 POP POP POP POP ISZERO DUP1 ISZERO PUSH2 0x6AE JUMPI RETURNDATASIZE PUSH0 DUP1 RETURNDATACOPY RETURNDATASIZE PUSH0 REVERT JUMPDEST POP POP JUMP JUMPDEST PUSH0 PUSH2 0x6BB PUSH2 0xC12 JUMP JUMPDEST SWAP1 POP DUP1 PUSH20 0xFFFFFFFFFFFFFFFFFFFFFFFFFFFFFFFFFFFFFFFF AND DUP7 PUSH20 0xFFFFFFFFFFFFFFFFFFFFFFFFFFFFFFFFFFFFFFFF AND EQ ISZERO DUP1 ISZERO PUSH2 0x700 JUMPI POP PUSH2 0x6FE DUP7 DUP3 PUSH2 0xA74 JUMP JUMPDEST ISZERO JUMPDEST ISZERO PUSH2 0x744 JUMPI DUP1 DUP7 PUSH1 0x40 MLOAD PUSH32 0xE237D92200000000000000000000000000000000000000000000000000000000 DUP2 MSTORE PUSH1 0x4 ADD PUSH2 0x73B SWAP3 SWAP2 SWAP1 PUSH2 0x21F4 JUMP JUMPDEST PUSH1 0x40 MLOAD DUP1 SWAP2 SUB SWAP1 REVERT JUMPDEST PUSH2 0x751 DUP7 DUP7 DUP7 DUP7 DUP7 PUSH2 0xC19 JUMP JUMPDEST POP POP POP POP POP POP JUMP JUMPDEST PUSH1 0x60 DUP2 MLOAD DUP4 MLOAD EQ PUSH2 0x7A5 JUMPI DUP2 MLOAD DUP4 MLOAD PUSH1 0x40 MLOAD PUSH32 0x5B05999100000000000000000000000000000000000000000000000000000000 DUP2 MSTORE PUSH1 0x4 ADD PUSH2 0x79C SWAP3 SWAP2 SWAP1 PUSH2 0x221B JUMP JUMPDEST PUSH1 0x40 MLOAD DUP1 SWAP2 SUB SWAP1 REVERT JUMPDEST PUSH0 DUP4 MLOAD PUSH8 0xFFFFFFFFFFFFFFFF DUP2 GT ISZERO PUSH2 0x7C1 JUMPI PUSH2 0x7C0 PUSH2 0x1A20 JUMP JUMPDEST JUMPDEST PUSH1 0x40 MLOAD SWAP1 DUP1 DUP3 MSTORE DUP1 PUSH1 0x20 MUL PUSH1 0x20 ADD DUP3 ADD PUSH1 0x40 MSTORE DUP1 ISZERO PUSH2 0x7EF JUMPI DUP2 PUSH1 0x20 ADD PUSH1 0x20 DUP3 MUL DUP1 CALLDATASIZE DUP4 CALLDATACOPY DUP1 DUP3 ADD SWAP2 POP POP SWAP1 POP JUMPDEST POP SWAP1 POP PUSH0 JUMPDEST DUP5 MLOAD DUP2 LT ISZERO PUSH2 0x855 JUMPI PUSH2 0x82B PUSH2 0x813 DUP3 DUP8 PUSH2 0xD0D SWAP1 SWAP2 SWAP1 PUSH4 0xFFFFFFFF AND JUMP JUMPDEST PUSH2 0x826 DUP4 DUP8 PUSH2 0xD20 SWAP1 SWAP2 SWAP1 PUSH4 0xFFFFFFFF AND JUMP JUMPDEST PUSH2 0x2EE JUMP JUMPDEST DUP3 DUP3 DUP2 MLOAD DUP2 LT PUSH2 0x83E JUMPI PUSH2 0x83D PUSH2 0x2085 JUMP JUMPDEST JUMPDEST PUSH1 0x20 MUL PUSH1 0x20 ADD ADD DUP2 DUP2 MSTORE POP POP DUP1 PUSH1 0x1 ADD SWAP1 POP PUSH2 0x7F4 JUMP JUMPDEST POP DUP1 SWAP2 POP POP SWAP3 SWAP2 POP POP JUMP JUMPDEST JUMP JUMPDEST PUSH2 0x874 PUSH2 0x86D PUSH2 0xC12 JUMP JUMPDEST DUP4 DUP4 PUSH2 0xD33 JUMP JUMPDEST POP POP JUMP JUMPDEST PUSH1 0x7 PUSH0 SWAP1 SLOAD SWAP1 PUSH2 0x100 EXP SWAP1 DIV PUSH20 0xFFFFFFFFFFFFFFFFFFFFFFFFFFFFFFFFFFFFFFFF AND PUSH20 0xFFFFFFFFFFFFFFFFFFFFFFFFFFFFFFFFFFFFFFFF AND CALLER PUSH20 0xFFFFFFFFFFFFFFFFFFFFFFFFFFFFFFFFFFFFFFFF AND EQ PUSH2 0x8D0 JUMPI PUSH0 DUP1 REVERT JUMPDEST PUSH0 PUSH1 0x4 PUSH8 0xFFFFFFFFFFFFFFFF DUP2 GT ISZERO PUSH2 0x8EC JUMPI PUSH2 0x8EB PUSH2 0x1A20 JUMP JUMPDEST JUMPDEST PUSH1 0x40 MLOAD SWAP1 DUP1 DUP3 MSTORE DUP1 PUSH1 0x20 MUL PUSH1 0x20 ADD DUP3 ADD PUSH1 0x40 MSTORE DUP1 ISZERO PUSH2 0x91A JUMPI DUP2 PUSH1 0x20 ADD PUSH1 0x20 DUP3 MUL DUP1 CALLDATASIZE DUP4 CALLDATACOPY DUP1 DUP3 ADD SWAP2 POP POP SWAP1 POP JUMPDEST POP SWAP1 POP PUSH0 JUMPDEST PUSH1 0x4 DUP2 LT ISZERO PUSH2 0x961 JUMPI PUSH1 0x1 DUP2 PUSH2 0x935 SWAP2 SWAP1 PUSH2 0x2242 JUMP JUMPDEST DUP3 DUP3 DUP2 MLOAD DUP2 LT PUSH2 0x948 JUMPI PUSH2 0x947 PUSH2 0x2085 JUMP JUMPDEST JUMPDEST PUSH1 0x20 MUL PUSH1 0x20 ADD ADD DUP2 DUP2 MSTORE POP POP DUP1 DUP1 PUSH1 0x1 ADD SWAP2 POP POP PUSH2 0x91F JUMP JUMPDEST POP PUSH0 JUMPDEST PUSH1 0x8 DUP1 SLOAD SWAP1 POP DUP2 LT ISZERO PUSH2 0xA70 JUMPI PUSH2 0xA63 ADDRESS PUSH1 0x8 DUP4 DUP2 SLOAD DUP2 LT PUSH2 0x989 JUMPI PUSH2 0x988 PUSH2 0x2085 JUMP JUMPDEST JUMPDEST SWAP1 PUSH0 MSTORE PUSH1 0x20 PUSH0 KECCAK256 SWAP1 PUSH1 0x2 MUL ADD PUSH0 ADD PUSH0 SWAP1 SLOAD SWAP1 PUSH2 0x100 EXP SWAP1 DIV PUSH20 0xFFFFFFFFFFFFFFFFFFFFFFFFFFFFFFFFFFFFFFFF AND DUP5 PUSH1 0x8 DUP6 DUP2 SLOAD DUP2 LT PUSH2 0x9CC JUMPI PUSH2 0x9CB PUSH2 0x2085 JUMP JUMPDEST JUMPDEST SWAP1 PUSH0 MSTORE PUSH1 0x20 PUSH0 KECCAK256 SWAP1 PUSH1 0x2 MUL ADD PUSH1 0x1 ADD DUP1 SLOAD DUP1 PUSH1 0x20 MUL PUSH1 0x20 ADD PUSH1 0x40 MLOAD SWAP1 DUP2 ADD PUSH1 0x40 MSTORE DUP1 SWAP3 SWAP2 SWAP1 DUP2 DUP2 MSTORE PUSH1 0x20 ADD DUP3 DUP1 SLOAD DUP1 ISZERO PUSH2 0xA23 JUMPI PUSH1 0x20 MUL DUP3 ADD SWAP2 SWAP1 PUSH0 MSTORE PUSH1 0x20 PUSH0 KECCAK256 SWAP1 JUMPDEST DUP2 SLOAD DUP2 MSTORE PUSH1 0x20 ADD SWAP1 PUSH1 0x1 ADD SWAP1 DUP1 DUP4 GT PUSH2 0xA0F JUMPI JUMPDEST POP POP POP POP POP PUSH1 0x40 MLOAD DUP1 PUSH1 0x40 ADD PUSH1 0x40 MSTORE DUP1 PUSH1 0x3 DUP2 MSTORE PUSH1 0x20 ADD PUSH32 0x3078300000000000000000000000000000000000000000000000000000000000 DUP2 MSTORE POP PUSH2 0x6B2 JUMP JUMPDEST DUP1 DUP1 PUSH1 0x1 ADD SWAP2 POP POP PUSH2 0x964 JUMP JUMPDEST POP POP JUMP JUMPDEST PUSH0 PUSH1 0x1 PUSH0 DUP5 PUSH20 0xFFFFFFFFFFFFFFFFFFFFFFFFFFFFFFFFFFFFFFFF AND PUSH20 0xFFFFFFFFFFFFFFFFFFFFFFFFFFFFFFFFFFFFFFFF AND DUP2 MSTORE PUSH1 0x20 ADD SWAP1 DUP2 MSTORE PUSH1 0x20 ADD PUSH0 KECCAK256 PUSH0 DUP4 PUSH20 0xFFFFFFFFFFFFFFFFFFFFFFFFFFFFFFFFFFFFFFFF AND PUSH20 0xFFFFFFFFFFFFFFFFFFFFFFFFFFFFFFFFFFFFFFFF AND DUP2 MSTORE PUSH1 0x20 ADD SWAP1 DUP2 MSTORE PUSH1 0x20 ADD PUSH0 KECCAK256 PUSH0 SWAP1 SLOAD SWAP1 PUSH2 0x100 EXP SWAP1 DIV PUSH1 0xFF AND SWAP1 POP SWAP3 SWAP2 POP POP JUMP JUMPDEST PUSH0 PUSH2 0xB0B PUSH2 0xC12 JUMP JUMPDEST SWAP1 POP DUP1 PUSH20 0xFFFFFFFFFFFFFFFFFFFFFFFFFFFFFFFFFFFFFFFF AND DUP7 PUSH20 0xFFFFFFFFFFFFFFFFFFFFFFFFFFFFFFFFFFFFFFFF AND EQ ISZERO DUP1 ISZERO PUSH2 0xB50 JUMPI POP PUSH2 0xB4E DUP7 DUP3 PUSH2 0xA74 JUMP JUMPDEST ISZERO JUMPDEST ISZERO PUSH2 0xB94 JUMPI DUP1 DUP7 PUSH1 0x40 MLOAD PUSH32 0xE237D92200000000000000000000000000000000000000000000000000000000 DUP2 MSTORE PUSH1 0x4 ADD PUSH2 0xB8B SWAP3 SWAP2 SWAP1 PUSH2 0x21F4 JUMP JUMPDEST PUSH1 0x40 MLOAD DUP1 SWAP2 SUB SWAP1 REVERT JUMPDEST PUSH2 0xBA1 DUP7 DUP7 DUP7 DUP7 DUP7 PUSH2 0xE9C JUMP JUMPDEST POP POP POP POP POP POP JUMP JUMPDEST PUSH0 PUSH32 0x1FFC9A700000000000000000000000000000000000000000000000000000000 PUSH28 0xFFFFFFFFFFFFFFFFFFFFFFFFFFFFFFFFFFFFFFFFFFFFFFFFFFFFFFFF NOT AND DUP3 PUSH28 0xFFFFFFFFFFFFFFFFFFFFFFFFFFFFFFFFFFFFFFFFFFFFFFFFFFFFFFFF NOT AND EQ SWAP1 POP SWAP2 SWAP1 POP JUMP JUMPDEST PUSH0 CALLER SWAP1 POP SWAP1 JUMP JUMPDEST PUSH0 PUSH20 0xFFFFFFFFFFFFFFFFFFFFFFFFFFFFFFFFFFFFFFFF AND DUP5 PUSH20 0xFFFFFFFFFFFFFFFFFFFFFFFFFFFFFFFFFFFFFFFF AND SUB PUSH2 0xC89 JUMPI PUSH0 PUSH1 0x40 MLOAD PUSH32 0x57F447CE00000000000000000000000000000000000000000000000000000000 DUP2 MSTORE PUSH1 0x4 ADD PUSH2 0xC80 SWAP2 SWAP1 PUSH2 0x2275 JUMP JUMPDEST PUSH1 0x40 MLOAD DUP1 SWAP2 SUB SWAP1 REVERT JUMPDEST PUSH0 PUSH20 0xFFFFFFFFFFFFFFFFFFFFFFFFFFFFFFFFFFFFFFFF AND DUP6 PUSH20 0xFFFFFFFFFFFFFFFFFFFFFFFFFFFFFFFFFFFFFFFF AND SUB PUSH2 0xCF9 JUMPI PUSH0 PUSH1 0x40 MLOAD PUSH32 0x1A8351400000000000000000000000000000000000000000000000000000000 DUP2 MSTORE PUSH1 0x4 ADD PUSH2 0xCF0 SWAP2 SWAP1 PUSH2 0x2275 JUMP JUMPDEST PUSH1 0x40 MLOAD DUP1 SWAP2 SUB SWAP1 REVERT JUMPDEST PUSH2 0xD06 DUP6 DUP6 DUP6 DUP6 DUP6 PUSH2 0xFA2 JUMP JUMPDEST POP POP POP POP POP JUMP JUMPDEST PUSH0 PUSH1 0x20 DUP3 MUL PUSH1 0x20 DUP5 ADD ADD MLOAD SWAP1 POP SWAP3 SWAP2 POP POP JUMP JUMPDEST PUSH0 PUSH1 0x20 DUP3 MUL PUSH1 0x20 DUP5 ADD ADD MLOAD SWAP1 POP SWAP3 SWAP2 POP POP JUMP JUMPDEST PUSH0 PUSH20 0xFFFFFFFFFFFFFFFFFFFFFFFFFFFFFFFFFFFFFFFF AND DUP3 PUSH20 0xFFFFFFFFFFFFFFFFFFFFFFFFFFFFFFFFFFFFFFFF AND SUB PUSH2 0xDA3 JUMPI PUSH0 PUSH1 0x40 MLOAD PUSH32 0xCED3E10000000000000000000000000000000000000000000000000000000000 DUP2 MSTORE PUSH1 0x4 ADD PUSH2 0xD9A SWAP2 SWAP1 PUSH2 0x2275 JUMP JUMPDEST PUSH1 0x40 MLOAD DUP1 SWAP2 SUB SWAP1 REVERT JUMPDEST DUP1 PUSH1 0x1 PUSH0 DUP6 PUSH20 0xFFFFFFFFFFFFFFFFFFFFFFFFFFFFFFFFFFFFFFFF AND PUSH20 0xFFFFFFFFFFFFFFFFFFFFFFFFFFFFFFFFFFFFFFFF AND DUP2 MSTORE PUSH1 0x20 ADD SWAP1 DUP2 MSTORE PUSH1 0x20 ADD PUSH0 KECCAK256 PUSH0 DUP5 PUSH20 0xFFFFFFFFFFFFFFFFFFFFFFFFFFFFFFFFFFFFFFFF AND PUSH20 0xFFFFFFFFFFFFFFFFFFFFFFFFFFFFFFFFFFFFFFFF AND DUP2 MSTORE PUSH1 0x20 ADD SWAP1 DUP2 MSTORE PUSH1 0x20 ADD PUSH0 KECCAK256 PUSH0 PUSH2 0x100 EXP DUP2 SLOAD DUP2 PUSH1 0xFF MUL NOT AND SWAP1 DUP4 ISZERO ISZERO MUL OR SWAP1 SSTORE POP DUP2 PUSH20 0xFFFFFFFFFFFFFFFFFFFFFFFFFFFFFFFFFFFFFFFF AND DUP4 PUSH20 0xFFFFFFFFFFFFFFFFFFFFFFFFFFFFFFFFFFFFFFFF AND PUSH32 0x17307EAB39AB6107E8899845AD3D59BD9653F200F220920489CA2B5937696C31 DUP4 PUSH1 0x40 MLOAD PUSH2 0xE8F SWAP2 SWAP1 PUSH2 0x190A JUMP JUMPDEST PUSH1 0x40 MLOAD DUP1 SWAP2 SUB SWAP1 LOG3 POP POP POP JUMP JUMPDEST PUSH0 PUSH20 0xFFFFFFFFFFFFFFFFFFFFFFFFFFFFFFFFFFFFFFFF AND DUP5 PUSH20 0xFFFFFFFFFFFFFFFFFFFFFFFFFFFFFFFFFFFFFFFF AND SUB PUSH2 0xF0C JUMPI PUSH0 PUSH1 0x40 MLOAD PUSH32 0x57F447CE00000000000000000000000000000000000000000000000000000000 DUP2 MSTORE PUSH1 0x4 ADD PUSH2 0xF03 SWAP2 SWAP1 PUSH2 0x2275 JUMP JUMPDEST PUSH1 0x40 MLOAD DUP1 SWAP2 SUB SWAP1 REVERT JUMPDEST PUSH0 PUSH20 0xFFFFFFFFFFFFFFFFFFFFFFFFFFFFFFFFFFFFFFFF AND DUP6 PUSH20 0xFFFFFFFFFFFFFFFFFFFFFFFFFFFFFFFFFFFFFFFF AND SUB PUSH2 0xF7C JUMPI PUSH0 PUSH1 0x40 MLOAD PUSH32 0x1A8351400000000000000000000000000000000000000000000000000000000 DUP2 MSTORE PUSH1 0x4 ADD PUSH2 0xF73 SWAP2 SWAP1 PUSH2 0x2275 JUMP JUMPDEST PUSH1 0x40 MLOAD DUP1 SWAP2 SUB SWAP1 REVERT JUMPDEST PUSH0 DUP1 PUSH2 0xF88 DUP6 DUP6 PUSH2 0x104E JUMP JUMPDEST SWAP2 POP SWAP2 POP PUSH2 0xF99 DUP8 DUP8 DUP5 DUP5 DUP8 PUSH2 0xFA2 JUMP JUMPDEST POP POP POP POP POP POP POP JUMP JUMPDEST PUSH2 0xFAE DUP6 DUP6 DUP6 DUP6 PUSH2 0x107E JUMP JUMPDEST PUSH0 PUSH20 0xFFFFFFFFFFFFFFFFFFFFFFFFFFFFFFFFFFFFFFFF AND DUP5 PUSH20 0xFFFFFFFFFFFFFFFFFFFFFFFFFFFFFFFFFFFFFFFF AND EQ PUSH2 0x1047 JUMPI PUSH0 PUSH2 0xFEA PUSH2 0xC12 JUMP JUMPDEST SWAP1 POP PUSH1 0x1 DUP5 MLOAD SUB PUSH2 0x1036 JUMPI PUSH0 PUSH2 0x1009 PUSH0 DUP7 PUSH2 0xD20 SWAP1 SWAP2 SWAP1 PUSH4 0xFFFFFFFF AND JUMP JUMPDEST SWAP1 POP PUSH0 PUSH2 0x101F PUSH0 DUP7 PUSH2 0xD20 SWAP1 SWAP2 SWAP1 PUSH4 0xFFFFFFFF AND JUMP JUMPDEST SWAP1 POP PUSH2 0x102F DUP4 DUP10 DUP10 DUP6 DUP6 DUP10 PUSH2 0x140E JUMP JUMPDEST POP POP PUSH2 0x1045 JUMP JUMPDEST PUSH2 0x1044 DUP2 DUP8 DUP8 DUP8 DUP8 DUP8 PUSH2 0x15BD JUMP JUMPDEST JUMPDEST POP JUMPDEST POP POP POP POP POP JUMP JUMPDEST PUSH1 0x60 DUP1 PUSH1 0x40 MLOAD SWAP2 POP PUSH1 0x1 DUP3 MSTORE DUP4 PUSH1 0x20 DUP4 ADD MSTORE PUSH1 0x40 DUP3 ADD SWAP1 POP PUSH1 0x1 DUP2 MSTORE DUP3 PUSH1 0x20 DUP3 ADD MSTORE PUSH1 0x40 DUP2 ADD PUSH1 0x40 MSTORE SWAP3 POP SWAP3 SWAP1 POP JUMP JUMPDEST DUP1 MLOAD DUP3 MLOAD EQ PUSH2 0x10C8 JUMPI DUP2 MLOAD DUP2 MLOAD PUSH1 0x40 MLOAD PUSH32 0x5B05999100000000000000000000000000000000000000000000000000000000 DUP2 MSTORE PUSH1 0x4 ADD PUSH2 0x10BF SWAP3 SWAP2 SWAP1 PUSH2 0x221B JUMP JUMPDEST PUSH1 0x40 MLOAD DUP1 SWAP2 SUB SWAP1 REVERT JUMPDEST PUSH0 PUSH2 0x10D1 PUSH2 0xC12 JUMP JUMPDEST SWAP1 POP PUSH0 JUMPDEST DUP4 MLOAD DUP2 LT ISZERO PUSH2 0x12CD JUMPI PUSH0 PUSH2 0x10F2 DUP3 DUP7 PUSH2 0xD20 SWAP1 SWAP2 SWAP1 PUSH4 0xFFFFFFFF AND JUMP JUMPDEST SWAP1 POP PUSH0 PUSH2 0x1108 DUP4 DUP7 PUSH2 0xD20 SWAP1 SWAP2 SWAP1 PUSH4 0xFFFFFFFF AND JUMP JUMPDEST SWAP1 POP PUSH0 PUSH20 0xFFFFFFFFFFFFFFFFFFFFFFFFFFFFFFFFFFFFFFFF AND DUP9 PUSH20 0xFFFFFFFFFFFFFFFFFFFFFFFFFFFFFFFFFFFFFFFF AND EQ PUSH2 0x122B JUMPI PUSH0 DUP1 PUSH0 DUP5 DUP2 MSTORE PUSH1 0x20 ADD SWAP1 DUP2 MSTORE PUSH1 0x20 ADD PUSH0 KECCAK256 PUSH0 DUP11 PUSH20 0xFFFFFFFFFFFFFFFFFFFFFFFFFFFFFFFFFFFFFFFF AND PUSH20 0xFFFFFFFFFFFFFFFFFFFFFFFFFFFFFFFFFFFFFFFF AND DUP2 MSTORE PUSH1 0x20 ADD SWAP1 DUP2 MSTORE PUSH1 0x20 ADD PUSH0 KECCAK256 SLOAD SWAP1 POP DUP2 DUP2 LT ISZERO PUSH2 0x11D7 JUMPI DUP9 DUP2 DUP4 DUP6 PUSH1 0x40 MLOAD PUSH32 0x3DEE4C500000000000000000000000000000000000000000000000000000000 DUP2 MSTORE PUSH1 0x4 ADD PUSH2 0x11CE SWAP5 SWAP4 SWAP3 SWAP2 SWAP1 PUSH2 0x228E JUMP JUMPDEST PUSH1 0x40 MLOAD DUP1 SWAP2 SUB SWAP1 REVERT JUMPDEST DUP2 DUP2 SUB PUSH0 DUP1 DUP6 DUP2 MSTORE PUSH1 0x20 ADD SWAP1 DUP2 MSTORE PUSH1 0x20 ADD PUSH0 KECCAK256 PUSH0 DUP12 PUSH20 0xFFFFFFFFFFFFFFFFFFFFFFFFFFFFFFFFFFFFFFFF AND PUSH20 0xFFFFFFFFFFFFFFFFFFFFFFFFFFFFFFFFFFFFFFFF AND DUP2 MSTORE PUSH1 0x20 ADD SWAP1 DUP2 MSTORE PUSH1 0x20 ADD PUSH0 KECCAK256 DUP2 SWAP1 SSTORE POP POP JUMPDEST PUSH0 PUSH20 0xFFFFFFFFFFFFFFFFFFFFFFFFFFFFFFFFFFFFFFFF AND DUP8 PUSH20 0xFFFFFFFFFFFFFFFFFFFFFFFFFFFFFFFFFFFFFFFF AND EQ PUSH2 0x12C0 JUMPI DUP1 PUSH0 DUP1 DUP5 DUP2 MSTORE PUSH1 0x20 ADD SWAP1 DUP2 MSTORE PUSH1 0x20 ADD PUSH0 KECCAK256 PUSH0 DUP10 PUSH20 0xFFFFFFFFFFFFFFFFFFFFFFFFFFFFFFFFFFFFFFFF AND PUSH20 0xFFFFFFFFFFFFFFFFFFFFFFFFFFFFFFFFFFFFFFFF AND DUP2 MSTORE PUSH1 0x20 ADD SWAP1 DUP2 MSTORE PUSH1 0x20 ADD PUSH0 KECCAK256 PUSH0 DUP3 DUP3 SLOAD PUSH2 0x12B8 SWAP2 SWAP1 PUSH2 0x2242 JUMP JUMPDEST SWAP3 POP POP DUP2 SWAP1 SSTORE POP JUMPDEST POP POP DUP1 PUSH1 0x1 ADD SWAP1 POP PUSH2 0x10D5 JUMP JUMPDEST POP PUSH1 0x1 DUP4 MLOAD SUB PUSH2 0x1388 JUMPI PUSH0 PUSH2 0x12EB PUSH0 DUP6 PUSH2 0xD20 SWAP1 SWAP2 SWAP1 PUSH4 0xFFFFFFFF AND JUMP JUMPDEST SWAP1 POP PUSH0 PUSH2 0x1301 PUSH0 DUP6 PUSH2 0xD20 SWAP1 SWAP2 SWAP1 PUSH4 0xFFFFFFFF AND JUMP JUMPDEST SWAP1 POP DUP6 PUSH20 0xFFFFFFFFFFFFFFFFFFFFFFFFFFFFFFFFFFFFFFFF AND DUP8 PUSH20 0xFFFFFFFFFFFFFFFFFFFFFFFFFFFFFFFFFFFFFFFF AND DUP5 PUSH20 0xFFFFFFFFFFFFFFFFFFFFFFFFFFFFFFFFFFFFFFFF AND PUSH32 0xC3D58168C5AE7397731D063D5BBF3D657854427343F4C083240F7AACAA2D0F62 DUP6 DUP6 PUSH1 0x40 MLOAD PUSH2 0x1379 SWAP3 SWAP2 SWAP1 PUSH2 0x221B JUMP JUMPDEST PUSH1 0x40 MLOAD DUP1 SWAP2 SUB SWAP1 LOG4 POP POP PUSH2 0x1407 JUMP JUMPDEST DUP4 PUSH20 0xFFFFFFFFFFFFFFFFFFFFFFFFFFFFFFFFFFFFFFFF AND DUP6 PUSH20 0xFFFFFFFFFFFFFFFFFFFFFFFFFFFFFFFFFFFFFFFF AND DUP3 PUSH20 0xFFFFFFFFFFFFFFFFFFFFFFFFFFFFFFFFFFFFFFFF AND PUSH32 0x4A39DC06D4C0DBC64B70AF90FD698A233A518AA5D07E595D983B8C0526C8F7FB DUP7 DUP7 PUSH1 0x40 MLOAD PUSH2 0x13FE SWAP3 SWAP2 SWAP1 PUSH2 0x22D1 JUMP JUMPDEST PUSH1 0x40 MLOAD DUP1 SWAP2 SUB SWAP1 LOG4 JUMPDEST POP POP POP POP POP JUMP JUMPDEST PUSH0 DUP5 PUSH20 0xFFFFFFFFFFFFFFFFFFFFFFFFFFFFFFFFFFFFFFFF AND EXTCODESIZE GT ISZERO PUSH2 0x15B5 JUMPI DUP4 PUSH20 0xFFFFFFFFFFFFFFFFFFFFFFFFFFFFFFFFFFFFFFFF AND PUSH4 0xF23A6E61 DUP8 DUP8 DUP7 DUP7 DUP7 PUSH1 0x40 MLOAD DUP7 PUSH4 0xFFFFFFFF AND PUSH1 0xE0 SHL DUP2 MSTORE PUSH1 0x4 ADD PUSH2 0x146E SWAP6 SWAP5 SWAP4 SWAP3 SWAP2 SWAP1 PUSH2 0x2358 JUMP JUMPDEST PUSH1 0x20 PUSH1 0x40 MLOAD DUP1 DUP4 SUB DUP2 PUSH0 DUP8 GAS CALL SWAP3 POP POP POP DUP1 ISZERO PUSH2 0x14A9 JUMPI POP PUSH1 0x40 MLOAD RETURNDATASIZE PUSH1 0x1F NOT PUSH1 0x1F DUP3 ADD AND DUP3 ADD DUP1 PUSH1 0x40 MSTORE POP DUP2 ADD SWAP1 PUSH2 0x14A6 SWAP2 SWAP1 PUSH2 0x23C4 JUMP JUMPDEST PUSH1 0x1 JUMPDEST PUSH2 0x152A JUMPI RETURNDATASIZE DUP1 PUSH0 DUP2 EQ PUSH2 0x14D7 JUMPI PUSH1 0x40 MLOAD SWAP2 POP PUSH1 0x1F NOT PUSH1 0x3F RETURNDATASIZE ADD AND DUP3 ADD PUSH1 0x40 MSTORE RETURNDATASIZE DUP3 MSTORE RETURNDATASIZE PUSH0 PUSH1 0x20 DUP5 ADD RETURNDATACOPY PUSH2 0x14DC JUMP JUMPDEST PUSH1 0x60 SWAP2 POP JUMPDEST POP PUSH0 DUP2 MLOAD SUB PUSH2 0x1522 JUMPI DUP5 PUSH1 0x40 MLOAD PUSH32 0x57F447CE00000000000000000000000000000000000000000000000000000000 DUP2 MSTORE PUSH1 0x4 ADD PUSH2 0x1519 SWAP2 SWAP1 PUSH2 0x2275 JUMP JUMPDEST PUSH1 0x40 MLOAD DUP1 SWAP2 SUB SWAP1 REVERT JUMPDEST DUP1 MLOAD DUP2 PUSH1 0x20 ADD REVERT JUMPDEST PUSH4 0xF23A6E61 PUSH1 0xE0 SHL PUSH28 0xFFFFFFFFFFFFFFFFFFFFFFFFFFFFFFFFFFFFFFFFFFFFFFFFFFFFFFFF NOT AND DUP2 PUSH28 0xFFFFFFFFFFFFFFFFFFFFFFFFFFFFFFFFFFFFFFFFFFFFFFFFFFFFFFFF NOT AND EQ PUSH2 0x15B3 JUMPI DUP5 PUSH1 0x40 MLOAD PUSH32 0x57F447CE00000000000000000000000000000000000000000000000000000000 DUP2 MSTORE PUSH1 0x4 ADD PUSH2 0x15AA SWAP2 SWAP1 PUSH2 0x2275 JUMP JUMPDEST PUSH1 0x40 MLOAD DUP1 SWAP2 SUB SWAP1 REVERT JUMPDEST POP JUMPDEST POP POP POP POP POP POP JUMP JUMPDEST PUSH0 DUP5 PUSH20 0xFFFFFFFFFFFFFFFFFFFFFFFFFFFFFFFFFFFFFFFF AND EXTCODESIZE GT ISZERO PUSH2 0x1764 JUMPI DUP4 PUSH20 0xFFFFFFFFFFFFFFFFFFFFFFFFFFFFFFFFFFFFFFFF AND PUSH4 0xBC197C81 DUP8 DUP8 DUP7 DUP7 DUP7 PUSH1 0x40 MLOAD DUP7 PUSH4 0xFFFFFFFF AND PUSH1 0xE0 SHL DUP2 MSTORE PUSH1 0x4 ADD PUSH2 0x161D SWAP6 SWAP5 SWAP4 SWAP3 SWAP2 SWAP1 PUSH2 0x23EF JUMP JUMPDEST PUSH1 0x20 PUSH1 0x40 MLOAD DUP1 DUP4 SUB DUP2 PUSH0 DUP8 GAS CALL SWAP3 POP POP POP DUP1 ISZERO PUSH2 0x1658 JUMPI POP PUSH1 0x40 MLOAD RETURNDATASIZE PUSH1 0x1F NOT PUSH1 0x1F DUP3 ADD AND DUP3 ADD DUP1 PUSH1 0x40 MSTORE POP DUP2 ADD SWAP1 PUSH2 0x1655 SWAP2 SWAP1 PUSH2 0x23C4 JUMP JUMPDEST PUSH1 0x1 JUMPDEST PUSH2 0x16D9 JUMPI RETURNDATASIZE DUP1 PUSH0 DUP2 EQ PUSH2 0x1686 JUMPI PUSH1 0x40 MLOAD SWAP2 POP PUSH1 0x1F NOT PUSH1 0x3F RETURNDATASIZE ADD AND DUP3 ADD PUSH1 0x40 MSTORE RETURNDATASIZE DUP3 MSTORE RETURNDATASIZE PUSH0 PUSH1 0x20 DUP5 ADD RETURNDATACOPY PUSH2 0x168B JUMP JUMPDEST PUSH1 0x60 SWAP2 POP JUMPDEST POP PUSH0 DUP2 MLOAD SUB PUSH2 0x16D1 JUMPI DUP5 PUSH1 0x40 MLOAD PUSH32 0x57F447CE00000000000000000000000000000000000000000000000000000000 DUP2 MSTORE PUSH1 0x4 ADD PUSH2 0x16C8 SWAP2 SWAP1 PUSH2 0x2275 JUMP JUMPDEST PUSH1 0x40 MLOAD DUP1 SWAP2 SUB SWAP1 REVERT JUMPDEST DUP1 MLOAD DUP2 PUSH1 0x20 ADD REVERT JUMPDEST PUSH4 0xBC197C81 PUSH1 0xE0 SHL PUSH28 0xFFFFFFFFFFFFFFFFFFFFFFFFFFFFFFFFFFFFFFFFFFFFFFFFFFFFFFFF NOT AND DUP2 PUSH28 0xFFFFFFFFFFFFFFFFFFFFFFFFFFFFFFFFFFFFFFFFFFFFFFFFFFFFFFFF NOT AND EQ PUSH2 0x1762 JUMPI DUP5 PUSH1 0x40 MLOAD PUSH32 0x57F447CE00000000000000000000000000000000000000000000000000000000 DUP2 MSTORE PUSH1 0x4 ADD PUSH2 0x1759 SWAP2 SWAP1 PUSH2 0x2275 JUMP JUMPDEST PUSH1 0x40 MLOAD DUP1 SWAP2 SUB SWAP1 REVERT JUMPDEST POP JUMPDEST POP POP POP POP POP POP JUMP JUMPDEST PUSH0 PUSH1 0x40 MLOAD SWAP1 POP SWAP1 JUMP JUMPDEST PUSH0 DUP1 REVERT JUMPDEST PUSH0 DUP1 REVERT JUMPDEST PUSH0 PUSH20 0xFFFFFFFFFFFFFFFFFFFFFFFFFFFFFFFFFFFFFFFF DUP3 AND SWAP1 POP SWAP2 SWAP1 POP JUMP JUMPDEST PUSH0 PUSH2 0x17A6 DUP3 PUSH2 0x177D JUMP JUMPDEST SWAP1 POP SWAP2 SWAP1 POP JUMP JUMPDEST PUSH2 0x17B6 DUP2 PUSH2 0x179C JUMP JUMPDEST DUP2 EQ PUSH2 0x17C0 JUMPI PUSH0 DUP1 REVERT JUMPDEST POP JUMP JUMPDEST PUSH0 DUP2 CALLDATALOAD SWAP1 POP PUSH2 0x17D1 DUP2 PUSH2 0x17AD JUMP JUMPDEST SWAP3 SWAP2 POP POP JUMP JUMPDEST PUSH0 DUP2 SWAP1 POP SWAP2 SWAP1 POP JUMP JUMPDEST PUSH2 0x17E9 DUP2 PUSH2 0x17D7 JUMP JUMPDEST DUP2 EQ PUSH2 0x17F3 JUMPI PUSH0 DUP1 REVERT JUMPDEST POP JUMP JUMPDEST PUSH0 DUP2 CALLDATALOAD SWAP1 POP PUSH2 0x1804 DUP2 PUSH2 0x17E0 JUMP JUMPDEST SWAP3 SWAP2 POP POP JUMP JUMPDEST PUSH0 DUP1 PUSH1 0x40 DUP4 DUP6 SUB SLT ISZERO PUSH2 0x1820 JUMPI PUSH2 0x181F PUSH2 0x1775 JUMP JUMPDEST JUMPDEST PUSH0 PUSH2 0x182D DUP6 DUP3 DUP7 ADD PUSH2 0x17C3 JUMP JUMPDEST SWAP3 POP POP PUSH1 0x20 PUSH2 0x183E DUP6 DUP3 DUP7 ADD PUSH2 0x17F6 JUMP JUMPDEST SWAP2 POP POP SWAP3 POP SWAP3 SWAP1 POP JUMP JUMPDEST PUSH2 0x1851 DUP2 PUSH2 0x17D7 JUMP JUMPDEST DUP3 MSTORE POP POP JUMP JUMPDEST PUSH0 PUSH1 0x20 DUP3 ADD SWAP1 POP PUSH2 0x186A PUSH0 DUP4 ADD DUP5 PUSH2 0x1848 JUMP JUMPDEST SWAP3 SWAP2 POP POP JUMP JUMPDEST PUSH0 PUSH32 0xFFFFFFFF00000000000000000000000000000000000000000000000000000000 DUP3 AND SWAP1 POP SWAP2 SWAP1 POP JUMP JUMPDEST PUSH2 0x18A4 DUP2 PUSH2 0x1870 JUMP JUMPDEST DUP2 EQ PUSH2 0x18AE JUMPI PUSH0 DUP1 REVERT JUMPDEST POP JUMP JUMPDEST PUSH0 DUP2 CALLDATALOAD SWAP1 POP PUSH2 0x18BF DUP2 PUSH2 0x189B JUMP JUMPDEST SWAP3 SWAP2 POP POP JUMP JUMPDEST PUSH0 PUSH1 0x20 DUP3 DUP5 SUB SLT ISZERO PUSH2 0x18DA JUMPI PUSH2 0x18D9 PUSH2 0x1775 JUMP JUMPDEST JUMPDEST PUSH0 PUSH2 0x18E7 DUP5 DUP3 DUP6 ADD PUSH2 0x18B1 JUMP JUMPDEST SWAP2 POP POP SWAP3 SWAP2 POP POP JUMP JUMPDEST PUSH0 DUP2 ISZERO ISZERO SWAP1 POP SWAP2 SWAP1 POP JUMP JUMPDEST PUSH2 0x1904 DUP2 PUSH2 0x18F0 JUMP JUMPDEST DUP3 MSTORE POP POP JUMP JUMPDEST PUSH0 PUSH1 0x20 DUP3 ADD SWAP1 POP PUSH2 0x191D PUSH0 DUP4 ADD DUP5 PUSH2 0x18FB JUMP JUMPDEST SWAP3 SWAP2 POP POP JUMP JUMPDEST PUSH0 DUP1 PUSH1 0x40 DUP4 DUP6 SUB SLT ISZERO PUSH2 0x1939 JUMPI PUSH2 0x1938 PUSH2 0x1775 JUMP JUMPDEST JUMPDEST PUSH0 PUSH2 0x1946 DUP6 DUP3 DUP7 ADD PUSH2 0x17F6 JUMP JUMPDEST SWAP3 POP POP PUSH1 0x20 PUSH2 0x1957 DUP6 DUP3 DUP7 ADD PUSH2 0x17F6 JUMP JUMPDEST SWAP2 POP POP SWAP3 POP SWAP3 SWAP1 POP JUMP JUMPDEST PUSH0 PUSH1 0x20 DUP3 DUP5 SUB SLT ISZERO PUSH2 0x1976 JUMPI PUSH2 0x1975 PUSH2 0x1775 JUMP JUMPDEST JUMPDEST PUSH0 PUSH2 0x1983 DUP5 DUP3 DUP6 ADD PUSH2 0x17F6 JUMP JUMPDEST SWAP2 POP POP SWAP3 SWAP2 POP POP JUMP JUMPDEST PUSH0 DUP2 MLOAD SWAP1 POP SWAP2 SWAP1 POP JUMP JUMPDEST PUSH0 DUP3 DUP3 MSTORE PUSH1 0x20 DUP3 ADD SWAP1 POP SWAP3 SWAP2 POP POP JUMP JUMPDEST DUP3 DUP2 DUP4 MCOPY PUSH0 DUP4 DUP4 ADD MSTORE POP POP POP JUMP JUMPDEST PUSH0 PUSH1 0x1F NOT PUSH1 0x1F DUP4 ADD AND SWAP1 POP SWAP2 SWAP1 POP JUMP JUMPDEST PUSH0 PUSH2 0x19CE DUP3 PUSH2 0x198C JUMP JUMPDEST PUSH2 0x19D8 DUP2 DUP6 PUSH2 0x1996 JUMP JUMPDEST SWAP4 POP PUSH2 0x19E8 DUP2 DUP6 PUSH1 0x20 DUP7 ADD PUSH2 0x19A6 JUMP JUMPDEST PUSH2 0x19F1 DUP2 PUSH2 0x19B4 JUMP JUMPDEST DUP5 ADD SWAP2 POP POP SWAP3 SWAP2 POP POP JUMP JUMPDEST PUSH0 PUSH1 0x20 DUP3 ADD SWAP1 POP DUP2 DUP2 SUB PUSH0 DUP4 ADD MSTORE PUSH2 0x1A14 DUP2 DUP5 PUSH2 0x19C4 JUMP JUMPDEST SWAP1 POP SWAP3 SWAP2 POP POP JUMP JUMPDEST PUSH0 DUP1 REVERT JUMPDEST PUSH32 0x4E487B7100000000000000000000000000000000000000000000000000000000 PUSH0 MSTORE PUSH1 0x41 PUSH1 0x4 MSTORE PUSH1 0x24 PUSH0 REVERT JUMPDEST PUSH2 0x1A56 DUP3 PUSH2 0x19B4 JUMP JUMPDEST DUP2 ADD DUP2 DUP2 LT PUSH8 0xFFFFFFFFFFFFFFFF DUP3 GT OR ISZERO PUSH2 0x1A75 JUMPI PUSH2 0x1A74 PUSH2 0x1A20 JUMP JUMPDEST JUMPDEST DUP1 PUSH1 0x40 MSTORE POP POP POP JUMP JUMPDEST PUSH0 PUSH2 0x1A87 PUSH2 0x176C JUMP JUMPDEST SWAP1 POP PUSH2 0x1A93 DUP3 DUP3 PUSH2 0x1A4D JUMP JUMPDEST SWAP2 SWAP1 POP JUMP JUMPDEST PUSH0 PUSH8 0xFFFFFFFFFFFFFFFF DUP3 GT ISZERO PUSH2 0x1AB2 JUMPI PUSH2 0x1AB1 PUSH2 0x1A20 JUMP JUMPDEST JUMPDEST PUSH1 0x20 DUP3 MUL SWAP1 POP PUSH1 0x20 DUP2 ADD SWAP1 POP SWAP2 SWAP1 POP JUMP JUMPDEST PUSH0 DUP1 REVERT JUMPDEST PUSH0 PUSH2 0x1AD9 PUSH2 0x1AD4 DUP5 PUSH2 0x1A98 JUMP JUMPDEST PUSH2 0x1A7E JUMP JUMPDEST SWAP1 POP DUP1 DUP4 DUP3 MSTORE PUSH1 0x20 DUP3 ADD SWAP1 POP PUSH1 0x20 DUP5 MUL DUP4 ADD DUP6 DUP2 GT ISZERO PUSH2 0x1AFC JUMPI PUSH2 0x1AFB PUSH2 0x1AC3 JUMP JUMPDEST JUMPDEST DUP4 JUMPDEST DUP2 DUP2 LT ISZERO PUSH2 0x1B25 JUMPI DUP1 PUSH2 0x1B11 DUP9 DUP3 PUSH2 0x17F6 JUMP JUMPDEST DUP5 MSTORE PUSH1 0x20 DUP5 ADD SWAP4 POP POP PUSH1 0x20 DUP2 ADD SWAP1 POP PUSH2 0x1AFE JUMP JUMPDEST POP POP POP SWAP4 SWAP3 POP POP POP JUMP JUMPDEST PUSH0 DUP3 PUSH1 0x1F DUP4 ADD SLT PUSH2 0x1B43 JUMPI PUSH2 0x1B42 PUSH2 0x1A1C JUMP JUMPDEST JUMPDEST DUP2 CALLDATALOAD PUSH2 0x1B53 DUP5 DUP3 PUSH1 0x20 DUP7 ADD PUSH2 0x1AC7 JUMP JUMPDEST SWAP2 POP POP SWAP3 SWAP2 POP POP JUMP JUMPDEST PUSH0 DUP1 REVERT JUMPDEST PUSH0 PUSH8 0xFFFFFFFFFFFFFFFF DUP3 GT ISZERO PUSH2 0x1B7A JUMPI PUSH2 0x1B79 PUSH2 0x1A20 JUMP JUMPDEST JUMPDEST PUSH2 0x1B83 DUP3 PUSH2 0x19B4 JUMP JUMPDEST SWAP1 POP PUSH1 0x20 DUP2 ADD SWAP1 POP SWAP2 SWAP1 POP JUMP JUMPDEST DUP3 DUP2 DUP4 CALLDATACOPY PUSH0 DUP4 DUP4 ADD MSTORE POP POP POP JUMP JUMPDEST PUSH0 PUSH2 0x1BB0 PUSH2 0x1BAB DUP5 PUSH2 0x1B60 JUMP JUMPDEST PUSH2 0x1A7E JUMP JUMPDEST SWAP1 POP DUP3 DUP2 MSTORE PUSH1 0x20 DUP2 ADD DUP5 DUP5 DUP5 ADD GT ISZERO PUSH2 0x1BCC JUMPI PUSH2 0x1BCB PUSH2 0x1B5C JUMP JUMPDEST JUMPDEST PUSH2 0x1BD7 DUP5 DUP3 DUP6 PUSH2 0x1B90 JUMP JUMPDEST POP SWAP4 SWAP3 POP POP POP JUMP JUMPDEST PUSH0 DUP3 PUSH1 0x1F DUP4 ADD SLT PUSH2 0x1BF3 JUMPI PUSH2 0x1BF2 PUSH2 0x1A1C JUMP JUMPDEST JUMPDEST DUP2 CALLDATALOAD PUSH2 0x1C03 DUP5 DUP3 PUSH1 0x20 DUP7 ADD PUSH2 0x1B9E JUMP JUMPDEST SWAP2 POP POP SWAP3 SWAP2 POP POP JUMP JUMPDEST PUSH0 DUP1 PUSH0 DUP1 PUSH0 PUSH1 0xA0 DUP7 DUP9 SUB SLT ISZERO PUSH2 0x1C25 JUMPI PUSH2 0x1C24 PUSH2 0x1775 JUMP JUMPDEST JUMPDEST PUSH0 PUSH2 0x1C32 DUP9 DUP3 DUP10 ADD PUSH2 0x17C3 JUMP JUMPDEST SWAP6 POP POP PUSH1 0x20 PUSH2 0x1C43 DUP9 DUP3 DUP10 ADD PUSH2 0x17C3 JUMP JUMPDEST SWAP5 POP POP PUSH1 0x40 DUP7 ADD CALLDATALOAD PUSH8 0xFFFFFFFFFFFFFFFF DUP2 GT ISZERO PUSH2 0x1C64 JUMPI PUSH2 0x1C63 PUSH2 0x1779 JUMP JUMPDEST JUMPDEST PUSH2 0x1C70 DUP9 DUP3 DUP10 ADD PUSH2 0x1B2F JUMP JUMPDEST SWAP4 POP POP PUSH1 0x60 DUP7 ADD CALLDATALOAD PUSH8 0xFFFFFFFFFFFFFFFF DUP2 GT ISZERO PUSH2 0x1C91 JUMPI PUSH2 0x1C90 PUSH2 0x1779 JUMP JUMPDEST JUMPDEST PUSH2 0x1C9D DUP9 DUP3 DUP10 ADD PUSH2 0x1B2F JUMP JUMPDEST SWAP3 POP POP PUSH1 0x80 DUP7 ADD CALLDATALOAD PUSH8 0xFFFFFFFFFFFFFFFF DUP2 GT ISZERO PUSH2 0x1CBE JUMPI PUSH2 0x1CBD PUSH2 0x1779 JUMP JUMPDEST JUMPDEST PUSH2 0x1CCA DUP9 DUP3 DUP10 ADD PUSH2 0x1BDF JUMP JUMPDEST SWAP2 POP POP SWAP3 SWAP6 POP SWAP3 SWAP6 SWAP1 SWAP4 POP JUMP JUMPDEST PUSH0 PUSH8 0xFFFFFFFFFFFFFFFF DUP3 GT ISZERO PUSH2 0x1CF1 JUMPI PUSH2 0x1CF0 PUSH2 0x1A20 JUMP JUMPDEST JUMPDEST PUSH1 0x20 DUP3 MUL SWAP1 POP PUSH1 0x20 DUP2 ADD SWAP1 POP SWAP2 SWAP1 POP JUMP JUMPDEST PUSH0 PUSH2 0x1D14 PUSH2 0x1D0F DUP5 PUSH2 0x1CD7 JUMP JUMPDEST PUSH2 0x1A7E JUMP JUMPDEST SWAP1 POP DUP1 DUP4 DUP3 MSTORE PUSH1 0x20 DUP3 ADD SWAP1 POP PUSH1 0x20 DUP5 MUL DUP4 ADD DUP6 DUP2 GT ISZERO PUSH2 0x1D37 JUMPI PUSH2 0x1D36 PUSH2 0x1AC3 JUMP JUMPDEST JUMPDEST DUP4 JUMPDEST DUP2 DUP2 LT ISZERO PUSH2 0x1D60 JUMPI DUP1 PUSH2 0x1D4C DUP9 DUP3 PUSH2 0x17C3 JUMP JUMPDEST DUP5 MSTORE PUSH1 0x20 DUP5 ADD SWAP4 POP POP PUSH1 0x20 DUP2 ADD SWAP1 POP PUSH2 0x1D39 JUMP JUMPDEST POP POP POP SWAP4 SWAP3 POP POP POP JUMP JUMPDEST PUSH0 DUP3 PUSH1 0x1F DUP4 ADD SLT PUSH2 0x1D7E JUMPI PUSH2 0x1D7D PUSH2 0x1A1C JUMP JUMPDEST JUMPDEST DUP2 CALLDATALOAD PUSH2 0x1D8E DUP5 DUP3 PUSH1 0x20 DUP7 ADD PUSH2 0x1D02 JUMP JUMPDEST SWAP2 POP POP SWAP3 SWAP2 POP POP JUMP JUMPDEST PUSH0 DUP1 PUSH1 0x40 DUP4 DUP6 SUB SLT ISZERO PUSH2 0x1DAD JUMPI PUSH2 0x1DAC PUSH2 0x1775 JUMP JUMPDEST JUMPDEST PUSH0 DUP4 ADD CALLDATALOAD PUSH8 0xFFFFFFFFFFFFFFFF DUP2 GT ISZERO PUSH2 0x1DCA JUMPI PUSH2 0x1DC9 PUSH2 0x1779 JUMP JUMPDEST JUMPDEST PUSH2 0x1DD6 DUP6 DUP3 DUP7 ADD PUSH2 0x1D6A JUMP JUMPDEST SWAP3 POP POP PUSH1 0x20 DUP4 ADD CALLDATALOAD PUSH8 0xFFFFFFFFFFFFFFFF DUP2 GT ISZERO PUSH2 0x1DF7 JUMPI PUSH2 0x1DF6 PUSH2 0x1779 JUMP JUMPDEST JUMPDEST PUSH2 0x1E03 DUP6 DUP3 DUP7 ADD PUSH2 0x1B2F JUMP JUMPDEST SWAP2 POP POP SWAP3 POP SWAP3 SWAP1 POP JUMP JUMPDEST PUSH0 DUP2 MLOAD SWAP1 POP SWAP2 SWAP1 POP JUMP JUMPDEST PUSH0 DUP3 DUP3 MSTORE PUSH1 0x20 DUP3 ADD SWAP1 POP SWAP3 SWAP2 POP POP JUMP JUMPDEST PUSH0 DUP2 SWAP1 POP PUSH1 0x20 DUP3 ADD SWAP1 POP SWAP2 SWAP1 POP JUMP JUMPDEST PUSH2 0x1E3F DUP2 PUSH2 0x17D7 JUMP JUMPDEST DUP3 MSTORE POP POP JUMP JUMPDEST PUSH0 PUSH2 0x1E50 DUP4 DUP4 PUSH2 0x1E36 JUMP JUMPDEST PUSH1 0x20 DUP4 ADD SWAP1 POP SWAP3 SWAP2 POP POP JUMP JUMPDEST PUSH0 PUSH1 0x20 DUP3 ADD SWAP1 POP SWAP2 SWAP1 POP JUMP JUMPDEST PUSH0 PUSH2 0x1E72 DUP3 PUSH2 0x1E0D JUMP JUMPDEST PUSH2 0x1E7C DUP2 DUP6 PUSH2 0x1E17 JUMP JUMPDEST SWAP4 POP PUSH2 0x1E87 DUP4 PUSH2 0x1E27 JUMP JUMPDEST DUP1 PUSH0 JUMPDEST DUP4 DUP2 LT ISZERO PUSH2 0x1EB7 JUMPI DUP2 MLOAD PUSH2 0x1E9E DUP9 DUP3 PUSH2 0x1E45 JUMP JUMPDEST SWAP8 POP PUSH2 0x1EA9 DUP4 PUSH2 0x1E5C JUMP JUMPDEST SWAP3 POP POP PUSH1 0x1 DUP2 ADD SWAP1 POP PUSH2 0x1E8A JUMP JUMPDEST POP DUP6 SWAP4 POP POP POP POP SWAP3 SWAP2 POP POP JUMP JUMPDEST PUSH0 PUSH1 0x20 DUP3 ADD SWAP1 POP DUP2 DUP2 SUB PUSH0 DUP4 ADD MSTORE PUSH2 0x1EDC DUP2 DUP5 PUSH2 0x1E68 JUMP JUMPDEST SWAP1 POP SWAP3 SWAP2 POP POP JUMP JUMPDEST PUSH2 0x1EED DUP2 PUSH2 0x18F0 JUMP JUMPDEST DUP2 EQ PUSH2 0x1EF7 JUMPI PUSH0 DUP1 REVERT JUMPDEST POP JUMP JUMPDEST PUSH0 DUP2 CALLDATALOAD SWAP1 POP PUSH2 0x1F08 DUP2 PUSH2 0x1EE4 JUMP JUMPDEST SWAP3 SWAP2 POP POP JUMP JUMPDEST PUSH0 DUP1 PUSH1 0x40 DUP4 DUP6 SUB SLT ISZERO PUSH2 0x1F24 JUMPI PUSH2 0x1F23 PUSH2 0x1775 JUMP JUMPDEST JUMPDEST PUSH0 PUSH2 0x1F31 DUP6 DUP3 DUP7 ADD PUSH2 0x17C3 JUMP JUMPDEST SWAP3 POP POP PUSH1 0x20 PUSH2 0x1F42 DUP6 DUP3 DUP7 ADD PUSH2 0x1EFA JUMP JUMPDEST SWAP2 POP POP SWAP3 POP SWAP3 SWAP1 POP JUMP JUMPDEST PUSH0 DUP1 PUSH1 0x40 DUP4 DUP6 SUB SLT ISZERO PUSH2 0x1F62 JUMPI PUSH2 0x1F61 PUSH2 0x1775 JUMP JUMPDEST JUMPDEST PUSH0 PUSH2 0x1F6F DUP6 DUP3 DUP7 ADD PUSH2 0x17C3 JUMP JUMPDEST SWAP3 POP POP PUSH1 0x20 PUSH2 0x1F80 DUP6 DUP3 DUP7 ADD PUSH2 0x17C3 JUMP JUMPDEST SWAP2 POP POP SWAP3 POP SWAP3 SWAP1 POP JUMP JUMPDEST PUSH0 DUP1 PUSH0 DUP1 PUSH0 PUSH1 0xA0 DUP7 DUP9 SUB SLT ISZERO PUSH2 0x1FA3 JUMPI PUSH2 0x1FA2 PUSH2 0x1775 JUMP JUMPDEST JUMPDEST PUSH0 PUSH2 0x1FB0 DUP9 DUP3 DUP10 ADD PUSH2 0x17C3 JUMP JUMPDEST SWAP6 POP POP PUSH1 0x20 PUSH2 0x1FC1 DUP9 DUP3 DUP10 ADD PUSH2 0x17C3 JUMP JUMPDEST SWAP5 POP POP PUSH1 0x40 PUSH2 0x1FD2 DUP9 DUP3 DUP10 ADD PUSH2 0x17F6 JUMP JUMPDEST SWAP4 POP POP PUSH1 0x60 PUSH2 0x1FE3 DUP9 DUP3 DUP10 ADD PUSH2 0x17F6 JUMP JUMPDEST SWAP3 POP POP PUSH1 0x80 DUP7 ADD CALLDATALOAD PUSH8 0xFFFFFFFFFFFFFFFF DUP2 GT ISZERO PUSH2 0x2004 JUMPI PUSH2 0x2003 PUSH2 0x1779 JUMP JUMPDEST JUMPDEST PUSH2 0x2010 DUP9 DUP3 DUP10 ADD PUSH2 0x1BDF JUMP JUMPDEST SWAP2 POP POP SWAP3 SWAP6 POP SWAP3 SWAP6 SWAP1 SWAP4 POP JUMP JUMPDEST PUSH32 0x6F6E6C79204F776E657200000000000000000000000000000000000000000000 PUSH0 DUP3 ADD MSTORE POP JUMP JUMPDEST PUSH0 PUSH2 0x2051 PUSH1 0xA DUP4 PUSH2 0x1996 JUMP JUMPDEST SWAP2 POP PUSH2 0x205C DUP3 PUSH2 0x201D JUMP JUMPDEST PUSH1 0x20 DUP3 ADD SWAP1 POP SWAP2 SWAP1 POP JUMP JUMPDEST PUSH0 PUSH1 0x20 DUP3 ADD SWAP1 POP DUP2 DUP2 SUB PUSH0 DUP4 ADD MSTORE PUSH2 0x207E DUP2 PUSH2 0x2045 JUMP JUMPDEST SWAP1 POP SWAP2 SWAP1 POP JUMP JUMPDEST PUSH32 0x4E487B7100000000000000000000000000000000000000000000000000000000 PUSH0 MSTORE PUSH1 0x32 PUSH1 0x4 MSTORE PUSH1 0x24 PUSH0 REVERT JUMPDEST PUSH32 0x4E487B7100000000000000000000000000000000000000000000000000000000 PUSH0 MSTORE PUSH1 0x11 PUSH1 0x4 MSTORE PUSH1 0x24 PUSH0 REVERT JUMPDEST PUSH0 PUSH2 0x20E9 DUP3 PUSH2 0x17D7 JUMP JUMPDEST SWAP2 POP PUSH2 0x20F4 DUP4 PUSH2 0x17D7 JUMP JUMPDEST SWAP3 POP DUP3 DUP3 MUL PUSH2 0x2102 DUP2 PUSH2 0x17D7 JUMP JUMPDEST SWAP2 POP DUP3 DUP3 DIV DUP5 EQ DUP4 ISZERO OR PUSH2 0x2119 JUMPI PUSH2 0x2118 PUSH2 0x20B2 JUMP JUMPDEST JUMPDEST POP SWAP3 SWAP2 POP POP JUMP JUMPDEST PUSH32 0x636865636B20616D6F756E740000000000000000000000000000000000000000 PUSH0 DUP3 ADD MSTORE POP JUMP JUMPDEST PUSH0 PUSH2 0x2154 PUSH1 0xC DUP4 PUSH2 0x1996 JUMP JUMPDEST SWAP2 POP PUSH2 0x215F DUP3 PUSH2 0x2120 JUMP JUMPDEST PUSH1 0x20 DUP3 ADD SWAP1 POP SWAP2 SWAP1 POP JUMP JUMPDEST PUSH0 PUSH1 0x20 DUP3 ADD SWAP1 POP DUP2 DUP2 SUB PUSH0 DUP4 ADD MSTORE PUSH2 0x2181 DUP2 PUSH2 0x2148 JUMP JUMPDEST SWAP1 POP SWAP2 SWAP1 POP JUMP JUMPDEST PUSH32 0x4E487B7100000000000000000000000000000000000000000000000000000000 PUSH0 MSTORE PUSH1 0x22 PUSH1 0x4 MSTORE PUSH1 0x24 PUSH0 REVERT JUMPDEST PUSH0 PUSH1 0x2 DUP3 DIV SWAP1 POP PUSH1 0x1 DUP3 AND DUP1 PUSH2 0x21CC JUMPI PUSH1 0x7F DUP3 AND SWAP2 POP JUMPDEST PUSH1 0x20 DUP3 LT DUP2 SUB PUSH2 0x21DF JUMPI PUSH2 0x21DE PUSH2 0x2188 JUMP JUMPDEST JUMPDEST POP SWAP2 SWAP1 POP JUMP JUMPDEST PUSH2 0x21EE DUP2 PUSH2 0x179C JUMP JUMPDEST DUP3 MSTORE POP POP JUMP JUMPDEST PUSH0 PUSH1 0x40 DUP3 ADD SWAP1 POP PUSH2 0x2207 PUSH0 DUP4 ADD DUP6 PUSH2 0x21E5 JUMP JUMPDEST PUSH2 0x2214 PUSH1 0x20 DUP4 ADD DUP5 PUSH2 0x21E5 JUMP JUMPDEST SWAP4 SWAP3 POP POP POP JUMP JUMPDEST PUSH0 PUSH1 0x40 DUP3 ADD SWAP1 POP PUSH2 0x222E PUSH0 DUP4 ADD DUP6 PUSH2 0x1848 JUMP JUMPDEST PUSH2 0x223B PUSH1 0x20 DUP4 ADD DUP5 PUSH2 0x1848 JUMP JUMPDEST SWAP4 SWAP3 POP POP POP JUMP JUMPDEST PUSH0 PUSH2 0x224C DUP3 PUSH2 0x17D7 JUMP JUMPDEST SWAP2 POP PUSH2 0x2257 DUP4 PUSH2 0x17D7 JUMP JUMPDEST SWAP3 POP DUP3 DUP3 ADD SWAP1 POP DUP1 DUP3 GT ISZERO PUSH2 0x226F JUMPI PUSH2 0x226E PUSH2 0x20B2 JUMP JUMPDEST JUMPDEST SWAP3 SWAP2 POP POP JUMP JUMPDEST PUSH0 PUSH1 0x20 DUP3 ADD SWAP1 POP PUSH2 0x2288 PUSH0 DUP4 ADD DUP5 PUSH2 0x21E5 JUMP JUMPDEST SWAP3 SWAP2 POP POP JUMP JUMPDEST PUSH0 PUSH1 0x80 DUP3 ADD SWAP1 POP PUSH2 0x22A1 PUSH0 DUP4 ADD DUP8 PUSH2 0x21E5 JUMP JUMPDEST PUSH2 0x22AE PUSH1 0x20 DUP4 ADD DUP7 PUSH2 0x1848 JUMP JUMPDEST PUSH2 0x22BB PUSH1 0x40 DUP4 ADD DUP6 PUSH2 0x1848 JUMP JUMPDEST PUSH2 0x22C8 PUSH1 0x60 DUP4 ADD DUP5 PUSH2 0x1848 JUMP JUMPDEST SWAP6 SWAP5 POP POP POP POP POP JUMP JUMPDEST PUSH0 PUSH1 0x40 DUP3 ADD SWAP1 POP DUP2 DUP2 SUB PUSH0 DUP4 ADD MSTORE PUSH2 0x22E9 DUP2 DUP6 PUSH2 0x1E68 JUMP JUMPDEST SWAP1 POP DUP2 DUP2 SUB PUSH1 0x20 DUP4 ADD MSTORE PUSH2 0x22FD DUP2 DUP5 PUSH2 0x1E68 JUMP JUMPDEST SWAP1 POP SWAP4 SWAP3 POP POP POP JUMP JUMPDEST PUSH0 DUP2 MLOAD SWAP1 POP SWAP2 SWAP1 POP JUMP JUMPDEST PUSH0 DUP3 DUP3 MSTORE PUSH1 0x20 DUP3 ADD SWAP1 POP SWAP3 SWAP2 POP POP JUMP JUMPDEST PUSH0 PUSH2 0x232A DUP3 PUSH2 0x2306 JUMP JUMPDEST PUSH2 0x2334 DUP2 DUP6 PUSH2 0x2310 JUMP JUMPDEST SWAP4 POP PUSH2 0x2344 DUP2 DUP6 PUSH1 0x20 DUP7 ADD PUSH2 0x19A6 JUMP JUMPDEST PUSH2 0x234D DUP2 PUSH2 0x19B4 JUMP JUMPDEST DUP5 ADD SWAP2 POP POP SWAP3 SWAP2 POP POP JUMP JUMPDEST PUSH0 PUSH1 0xA0 DUP3 ADD SWAP1 POP PUSH2 0x236B PUSH0 DUP4 ADD DUP9 PUSH2 0x21E5 JUMP JUMPDEST PUSH2 0x2378 PUSH1 0x20 DUP4 ADD DUP8 PUSH2 0x21E5 JUMP JUMPDEST PUSH2 0x2385 PUSH1 0x40 DUP4 ADD DUP7 PUSH2 0x1848 JUMP JUMPDEST PUSH2 0x2392 PUSH1 0x60 DUP4 ADD DUP6 PUSH2 0x1848 JUMP JUMPDEST DUP2 DUP2 SUB PUSH1 0x80 DUP4 ADD MSTORE PUSH2 0x23A4 DUP2 DUP5 PUSH2 0x2320 JUMP JUMPDEST SWAP1 POP SWAP7 SWAP6 POP POP POP POP POP POP JUMP JUMPDEST PUSH0 DUP2 MLOAD SWAP1 POP PUSH2 0x23BE DUP2 PUSH2 0x189B JUMP JUMPDEST SWAP3 SWAP2 POP POP JUMP JUMPDEST PUSH0 PUSH1 0x20 DUP3 DUP5 SUB SLT ISZERO PUSH2 0x23D9 JUMPI PUSH2 0x23D8 PUSH2 0x1775 JUMP JUMPDEST JUMPDEST PUSH0 PUSH2 0x23E6 DUP5 DUP3 DUP6 ADD PUSH2 0x23B0 JUMP JUMPDEST SWAP2 POP POP SWAP3 SWAP2 POP POP JUMP JUMPDEST PUSH0 PUSH1 0xA0 DUP3 ADD SWAP1 POP PUSH2 0x2402 PUSH0 DUP4 ADD DUP9 PUSH2 0x21E5 JUMP JUMPDEST PUSH2 0x240F PUSH1 0x20 DUP4 ADD DUP8 PUSH2 0x21E5 JUMP JUMPDEST DUP2 DUP2 SUB PUSH1 0x40 DUP4 ADD MSTORE PUSH2 0x2421 DUP2 DUP7 PUSH2 0x1E68 JUMP JUMPDEST SWAP1 POP DUP2 DUP2 SUB PUSH1 0x60 DUP4 ADD MSTORE PUSH2 0x2435 DUP2 DUP6 PUSH2 0x1E68 JUMP JUMPDEST SWAP1 POP DUP2 DUP2 SUB PUSH1 0x80 DUP4 ADD MSTORE PUSH2 0x2449 DUP2 DUP5 PUSH2 0x2320 JUMP JUMPDEST SWAP1 POP SWAP7 SWAP6 POP POP POP POP POP POP JUMP INVALID LOG2 PUSH5 0x6970667358 0x22 SLT KECCAK256 PUSH28 0x41E5BA30345159827A6653EAC4B98E01A01F49E69D81E8E93013945F PUSH31 0x650264736F6C634300081A0033000000000000000000000000000000000000 "
				},
				"gasEstimates": {
					"creation": {
						"codeDepositCost": "1871000",
						"executionCost": "infinite",
						"totalCost": "infinite"
					},
					"external": {
						"balanceOf(address,uint256)": "infinite",
						"balanceOfBatch(address[],uint256[])": "infinite",
						"buyToken(uint256,uint256)": "infinite",
						"doublePrice()": "infinite",
						"getMintedAmount()": "210",
						"giveTokens()": "infinite",
						"isApprovedForAll(address,address)": "infinite",
						"safeBatchTransferFrom(address,address,uint256[],uint256[],bytes)": "infinite",
						"safeTransferFrom(address,address,uint256,uint256,bytes)": "infinite",
						"setApprovalForAll(address,bool)": "infinite",
						"supportsInterface(bytes4)": "786",
						"uri(uint256)": "infinite",
						"withdraw(uint256)": "infinite"
					}
				},
				"methodIdentifiers": {
					"balanceOf(address,uint256)": "00fdd58e",
					"balanceOfBatch(address[],uint256[])": "4e1273f4",
					"buyToken(uint256,uint256)": "057466ea",
					"doublePrice()": "0303c609",
					"getMintedAmount()": "88ab4168",
					"giveTokens()": "ae909cff",
					"isApprovedForAll(address,address)": "e985e9c5",
					"safeBatchTransferFrom(address,address,uint256[],uint256[],bytes)": "2eb2c2d6",
					"safeTransferFrom(address,address,uint256,uint256,bytes)": "f242432a",
					"setApprovalForAll(address,bool)": "a22cb465",
					"supportsInterface(bytes4)": "01ffc9a7",
					"uri(uint256)": "0e89341c",
					"withdraw(uint256)": "2e1a7d4d"
				}
			},
			"storageLayout": {
				"storage": [
					{
						"astId": 178,
						"contract": "ICO_Test.sol:ICO_Test",
						"label": "_balances",
						"offset": 0,
						"slot": "0",
						"type": "t_mapping(t_uint256,t_mapping(t_address,t_uint256))"
					},
					{
						"astId": 184,
						"contract": "ICO_Test.sol:ICO_Test",
						"label": "_operatorApprovals",
						"offset": 0,
						"slot": "1",
						"type": "t_mapping(t_address,t_mapping(t_address,t_bool))"
					},
					{
						"astId": 186,
						"contract": "ICO_Test.sol:ICO_Test",
						"label": "_uri",
						"offset": 0,
						"slot": "2",
						"type": "t_string_storage"
					},
					{
						"astId": 2801,
						"contract": "ICO_Test.sol:ICO_Test",
						"label": "tokenPrice",
						"offset": 0,
						"slot": "3",
						"type": "t_array(t_uint256)4_storage"
					},
					{
						"astId": 2803,
						"contract": "ICO_Test.sol:ICO_Test",
						"label": "owner",
						"offset": 0,
						"slot": "7",
						"type": "t_address"
					},
					{
						"astId": 2807,
						"contract": "ICO_Test.sol:ICO_Test",
						"label": "users",
						"offset": 0,
						"slot": "8",
						"type": "t_array(t_struct(User)2792_storage)dyn_storage"
					}
				],
				"types": {
					"t_address": {
						"encoding": "inplace",
						"label": "address",
						"numberOfBytes": "20"
					},
					"t_array(t_struct(User)2792_storage)dyn_storage": {
						"base": "t_struct(User)2792_storage",
						"encoding": "dynamic_array",
						"label": "struct ICO_Test.User[]",
						"numberOfBytes": "32"
					},
					"t_array(t_uint256)4_storage": {
						"base": "t_uint256",
						"encoding": "inplace",
						"label": "uint256[4]",
						"numberOfBytes": "128"
					},
					"t_array(t_uint256)dyn_storage": {
						"base": "t_uint256",
						"encoding": "dynamic_array",
						"label": "uint256[]",
						"numberOfBytes": "32"
					},
					"t_bool": {
						"encoding": "inplace",
						"label": "bool",
						"numberOfBytes": "1"
					},
					"t_mapping(t_address,t_bool)": {
						"encoding": "mapping",
						"key": "t_address",
						"label": "mapping(address => bool)",
						"numberOfBytes": "32",
						"value": "t_bool"
					},
					"t_mapping(t_address,t_mapping(t_address,t_bool))": {
						"encoding": "mapping",
						"key": "t_address",
						"label": "mapping(address => mapping(address => bool))",
						"numberOfBytes": "32",
						"value": "t_mapping(t_address,t_bool)"
					},
					"t_mapping(t_address,t_uint256)": {
						"encoding": "mapping",
						"key": "t_address",
						"label": "mapping(address => uint256)",
						"numberOfBytes": "32",
						"value": "t_uint256"
					},
					"t_mapping(t_uint256,t_mapping(t_address,t_uint256))": {
						"encoding": "mapping",
						"key": "t_uint256",
						"label": "mapping(uint256 => mapping(address => uint256))",
						"numberOfBytes": "32",
						"value": "t_mapping(t_address,t_uint256)"
					},
					"t_string_storage": {
						"encoding": "bytes",
						"label": "string",
						"numberOfBytes": "32"
					},
					"t_struct(User)2792_storage": {
						"encoding": "inplace",
						"label": "struct ICO_Test.User",
						"members": [
							{
								"astId": 2788,
								"contract": "ICO_Test.sol:ICO_Test",
								"label": "addr",
								"offset": 0,
								"slot": "0",
								"type": "t_address"
							},
							{
								"astId": 2791,
								"contract": "ICO_Test.sol:ICO_Test",
								"label": "tokensBought",
								"offset": 0,
								"slot": "1",
								"type": "t_array(t_uint256)dyn_storage"
							}
						],
						"numberOfBytes": "64"
					},
					"t_uint256": {
						"encoding": "inplace",
						"label": "uint256",
						"numberOfBytes": "32"
					}
				}
			},
			"userdoc": {
				"kind": "user",
				"methods": {},
				"version": 1
			}
		}
	}
}