{
	"data": {
		"bytecode": {
			"linkReferences": {},
			"object": "6080604052604051600e906075565b604051809103905ff0801580156026573d5f803e3d5ffd5b5060095f6101000a81548173ffffffffffffffffffffffffffffffffffffffff021916908373ffffffffffffffffffffffffffffffffffffffff1602179055503480156070575f80fd5b506082565b61032380610a2183390190565b6109928061008f5f395ff3fe608060405234801561000f575f80fd5b5060043610610034575f3560e01c806323e898e914610038578063e45bbec714610042575b5f80fd5b610040610060565b005b61004a610220565b60405161005791906104fe565b60405180910390f35b60405180606001604052806040518060400160405280600481526020017f7061756c000000000000000000000000000000000000000000000000000000008152508152602001607b8152602001602d8152505f80600381106100c5576100c461051e565b5b600302015f820151815f0190816100dc9190610772565b50602082015181600101556040820151816002015590505060405180606001604052806040518060400160405280600581526020017f6161726f6e0000000000000000000000000000000000000000000000000000008152508152602001607b815260200160388152505f60016003811061015a5761015961051e565b5b600302015f820151815f0190816101719190610772565b50602082015181600101556040820151816002015590505060405180606001604052806040518060400160405280600381526020017f6a6f6500000000000000000000000000000000000000000000000000000000008152508152602001607b8152602001600c8152505f6002600381106101ef576101ee61051e565b5b600302015f820151815f0190816102069190610772565b506020820151816001015560408201518160020155905050565b6102286103e8565b610230610407565b5f5b600381101561027f575f816003811061024e5761024d61051e565b5b60030201600201548282600381106102695761026861051e565b5b6020020181815250508080600101915050610232565b505f60095f9054906101000a900473ffffffffffffffffffffffffffffffffffffffff1673ffffffffffffffffffffffffffffffffffffffff16632429da8c836040518263ffffffff1660e01b81526004016102db91906108d7565b6040805180830381865afa1580156102f5573d5f803e3d5ffd5b505050506040513d601f19601f82011682018060405250810190610319919061091e565b9150505f816003811061032f5761032e61051e565b5b600302016040518060600160405290815f8201805461034d906105a5565b80601f0160208091040260200160405190810160405280929190818152602001828054610379906105a5565b80156103c45780601f1061039b576101008083540402835291602001916103c4565b820191905f5260205f20905b8154815290600101906020018083116103a757829003601f168201915b50505050508152602001600182015481526020016002820154815250509250505090565b6040518060600160405280606081526020015f81526020015f81525090565b6040518060600160405280600390602082028036833780820191505090505090565b5f81519050919050565b5f82825260208201905092915050565b8281835e5f83830152505050565b5f601f19601f8301169050919050565b5f61046b82610429565b6104758185610433565b9350610485818560208601610443565b61048e81610451565b840191505092915050565b5f819050919050565b6104ab81610499565b82525050565b5f606083015f8301518482035f8601526104cb8282610461565b91505060208301516104e060208601826104a2565b5060408301516104f360408601826104a2565b508091505092915050565b5f6020820190508181035f83015261051681846104b1565b905092915050565b7f4e487b71000000000000000000000000000000000000000000000000000000005f52603260045260245ffd5b7f4e487b71000000000000000000000000000000000000000000000000000000005f52604160045260245ffd5b7f4e487b71000000000000000000000000000000000000000000000000000000005f52602260045260245ffd5b5f60028204905060018216806105bc57607f821691505b6020821081036105cf576105ce610578565b5b50919050565b5f819050815f5260205f209050919050565b5f6020601f8301049050919050565b5f82821b905092915050565b5f600883026106317fffffffffffffffffffffffffffffffffffffffffffffffffffffffffffffffff826105f6565b61063b86836105f6565b95508019841693508086168417925050509392505050565b5f819050919050565b5f61067661067161066c84610499565b610653565b610499565b9050919050565b5f819050919050565b61068f8361065c565b6106a361069b8261067d565b848454610602565b825550505050565b5f90565b6106b76106ab565b6106c2818484610686565b505050565b5b818110156106e5576106da5f826106af565b6001810190506106c8565b5050565b601f82111561072a576106fb816105d5565b610704846105e7565b81016020851015610713578190505b61072761071f856105e7565b8301826106c7565b50505b505050565b5f82821c905092915050565b5f61074a5f198460080261072f565b1980831691505092915050565b5f610762838361073b565b9150826002028217905092915050565b61077b82610429565b67ffffffffffffffff8111156107945761079361054b565b5b61079e82546105a5565b6107a98282856106e9565b5f60209050601f8311600181146107da575f84156107c8578287015190505b6107d28582610757565b865550610839565b601f1984166107e8866105d5565b5f5b8281101561080f578489015182556001820191506020850194506020810190506107ea565b8683101561082c5784890151610828601f89168261073b565b8355505b6001600288020188555050505b505050505050565b5f60039050919050565b5f81905092915050565b5f819050919050565b5f61086983836104a2565b60208301905092915050565b5f602082019050919050565b61088a81610841565b610894818461084b565b925061089f82610855565b805f5b838110156108cf5781516108b6878261085e565b96506108c183610875565b9250506001810190506108a2565b505050505050565b5f6060820190506108ea5f830184610881565b92915050565b5f80fd5b6108fd81610499565b8114610907575f80fd5b50565b5f81519050610918816108f4565b92915050565b5f8060408385031215610934576109336108f0565b5b5f6109418582860161090a565b92505060206109528582860161090a565b915050925092905056fea264697066735822122093429333cbba545364b779d3b9e3f9d97a02ff11851ec7111571db0a939937e264736f6c634300081a00336080604052348015600e575f80fd5b506103078061001c5f395ff3fe608060405234801561000f575f80fd5b5060043610610029575f3560e01c80632429da8c1461002d575b5f80fd5b61004760048036038101906100429190610243565b61005e565b60405161005592919061027d565b60405180910390f35b5f805f805f5b60038110156100b7578581600381106100805761007f6102a4565b5b60200201518310156100aa5785816003811061009f5761009e6102a4565b5b602002015192508091505b8080600101915050610064565b508181935093505050915091565b5f604051905090565b5f80fd5b5f80fd5b5f601f19601f8301169050919050565b7f4e487b71000000000000000000000000000000000000000000000000000000005f52604160045260245ffd5b61011c826100d6565b810181811067ffffffffffffffff8211171561013b5761013a6100e6565b5b80604052505050565b5f61014d6100c5565b90506101598282610113565b919050565b5f67ffffffffffffffff821115610178576101776100e6565b5b602082029050919050565b5f80fd5b5f819050919050565b61019981610187565b81146101a3575f80fd5b50565b5f813590506101b481610190565b92915050565b5f6101cc6101c78461015e565b610144565b905080602084028301858111156101e6576101e5610183565b5b835b8181101561020f57806101fb88826101a6565b8452602084019350506020810190506101e8565b5050509392505050565b5f82601f83011261022d5761022c6100d2565b5b600361023a8482856101ba565b91505092915050565b5f60608284031215610258576102576100ce565b5b5f61026584828501610219565b91505092915050565b61027781610187565b82525050565b5f6040820190506102905f83018561026e565b61029d602083018461026e565b9392505050565b7f4e487b71000000000000000000000000000000000000000000000000000000005f52603260045260245ffdfea26469706673582212206ab815fbd43f8e958f1be650478e1634c1aafce8f99157e5951517eb7a2c769164736f6c634300081a0033",
			"opcodes": "PUSH1 0x80 PUSH1 0x40 MSTORE PUSH1 0x40 MLOAD PUSH1 0xE SWAP1 PUSH1 0x75 JUMP JUMPDEST PUSH1 0x40 MLOAD DUP1 SWAP2 SUB SWAP1 PUSH0 CREATE DUP1 ISZERO DUP1 ISZERO PUSH1 0x26 JUMPI RETURNDATASIZE PUSH0 DUP1 RETURNDATACOPY RETURNDATASIZE PUSH0 REVERT JUMPDEST POP PUSH1 0x9 PUSH0 PUSH2 0x100 EXP DUP2 SLOAD DUP2 PUSH20 0xFFFFFFFFFFFFFFFFFFFFFFFFFFFFFFFFFFFFFFFF MUL NOT AND SWAP1 DUP4 PUSH20 0xFFFFFFFFFFFFFFFFFFFFFFFFFFFFFFFFFFFFFFFF AND MUL OR SWAP1 SSTORE POP CALLVALUE DUP1 ISZERO PUSH1 0x70 JUMPI PUSH0 DUP1 REVERT JUMPDEST POP PUSH1 0x82 JUMP JUMPDEST PUSH2 0x323 DUP1 PUSH2 0xA21 DUP4 CODECOPY ADD SWAP1 JUMP JUMPDEST PUSH2 0x992 DUP1 PUSH2 0x8F PUSH0 CODECOPY PUSH0 RETURN INVALID PUSH1 0x80 PUSH1 0x40 MSTORE CALLVALUE DUP1 ISZERO PUSH2 0xF JUMPI PUSH0 DUP1 REVERT JUMPDEST POP PUSH1 0x4 CALLDATASIZE LT PUSH2 0x34 JUMPI PUSH0 CALLDATALOAD PUSH1 0xE0 SHR DUP1 PUSH4 0x23E898E9 EQ PUSH2 0x38 JUMPI DUP1 PUSH4 0xE45BBEC7 EQ PUSH2 0x42 JUMPI JUMPDEST PUSH0 DUP1 REVERT JUMPDEST PUSH2 0x40 PUSH2 0x60 JUMP JUMPDEST STOP JUMPDEST PUSH2 0x4A PUSH2 0x220 JUMP JUMPDEST PUSH1 0x40 MLOAD PUSH2 0x57 SWAP2 SWAP1 PUSH2 0x4FE JUMP JUMPDEST PUSH1 0x40 MLOAD DUP1 SWAP2 SUB SWAP1 RETURN JUMPDEST PUSH1 0x40 MLOAD DUP1 PUSH1 0x60 ADD PUSH1 0x40 MSTORE DUP1 PUSH1 0x40 MLOAD DUP1 PUSH1 0x40 ADD PUSH1 0x40 MSTORE DUP1 PUSH1 0x4 DUP2 MSTORE PUSH1 0x20 ADD PUSH32 0x7061756C00000000000000000000000000000000000000000000000000000000 DUP2 MSTORE POP DUP2 MSTORE PUSH1 0x20 ADD PUSH1 0x7B DUP2 MSTORE PUSH1 0x20 ADD PUSH1 0x2D DUP2 MSTORE POP PUSH0 DUP1 PUSH1 0x3 DUP2 LT PUSH2 0xC5 JUMPI PUSH2 0xC4 PUSH2 0x51E JUMP JUMPDEST JUMPDEST PUSH1 0x3 MUL ADD PUSH0 DUP3 ADD MLOAD DUP2 PUSH0 ADD SWAP1 DUP2 PUSH2 0xDC SWAP2 SWAP1 PUSH2 0x772 JUMP JUMPDEST POP PUSH1 0x20 DUP3 ADD MLOAD DUP2 PUSH1 0x1 ADD SSTORE PUSH1 0x40 DUP3 ADD MLOAD DUP2 PUSH1 0x2 ADD SSTORE SWAP1 POP POP PUSH1 0x40 MLOAD DUP1 PUSH1 0x60 ADD PUSH1 0x40 MSTORE DUP1 PUSH1 0x40 MLOAD DUP1 PUSH1 0x40 ADD PUSH1 0x40 MSTORE DUP1 PUSH1 0x5 DUP2 MSTORE PUSH1 0x20 ADD PUSH32 0x6161726F6E000000000000000000000000000000000000000000000000000000 DUP2 MSTORE POP DUP2 MSTORE PUSH1 0x20 ADD PUSH1 0x7B DUP2 MSTORE PUSH1 0x20 ADD PUSH1 0x38 DUP2 MSTORE POP PUSH0 PUSH1 0x1 PUSH1 0x3 DUP2 LT PUSH2 0x15A JUMPI PUSH2 0x159 PUSH2 0x51E JUMP JUMPDEST JUMPDEST PUSH1 0x3 MUL ADD PUSH0 DUP3 ADD MLOAD DUP2 PUSH0 ADD SWAP1 DUP2 PUSH2 0x171 SWAP2 SWAP1 PUSH2 0x772 JUMP JUMPDEST POP PUSH1 0x20 DUP3 ADD MLOAD DUP2 PUSH1 0x1 ADD SSTORE PUSH1 0x40 DUP3 ADD MLOAD DUP2 PUSH1 0x2 ADD SSTORE SWAP1 POP POP PUSH1 0x40 MLOAD DUP1 PUSH1 0x60 ADD PUSH1 0x40 MSTORE DUP1 PUSH1 0x40 MLOAD DUP1 PUSH1 0x40 ADD PUSH1 0x40 MSTORE DUP1 PUSH1 0x3 DUP2 MSTORE PUSH1 0x20 ADD PUSH32 0x6A6F650000000000000000000000000000000000000000000000000000000000 DUP2 MSTORE POP DUP2 MSTORE PUSH1 0x20 ADD PUSH1 0x7B DUP2 MSTORE PUSH1 0x20 ADD PUSH1 0xC DUP2 MSTORE POP PUSH0 PUSH1 0x2 PUSH1 0x3 DUP2 LT PUSH2 0x1EF JUMPI PUSH2 0x1EE PUSH2 0x51E JUMP JUMPDEST JUMPDEST PUSH1 0x3 MUL ADD PUSH0 DUP3 ADD MLOAD DUP2 PUSH0 ADD SWAP1 DUP2 PUSH2 0x206 SWAP2 SWAP1 PUSH2 0x772 JUMP JUMPDEST POP PUSH1 0x20 DUP3 ADD MLOAD DUP2 PUSH1 0x1 ADD SSTORE PUSH1 0x40 DUP3 ADD MLOAD DUP2 PUSH1 0x2 ADD SSTORE SWAP1 POP POP JUMP JUMPDEST PUSH2 0x228 PUSH2 0x3E8 JUMP JUMPDEST PUSH2 0x230 PUSH2 0x407 JUMP JUMPDEST PUSH0 JUMPDEST PUSH1 0x3 DUP2 LT ISZERO PUSH2 0x27F JUMPI PUSH0 DUP2 PUSH1 0x3 DUP2 LT PUSH2 0x24E JUMPI PUSH2 0x24D PUSH2 0x51E JUMP JUMPDEST JUMPDEST PUSH1 0x3 MUL ADD PUSH1 0x2 ADD SLOAD DUP3 DUP3 PUSH1 0x3 DUP2 LT PUSH2 0x269 JUMPI PUSH2 0x268 PUSH2 0x51E JUMP JUMPDEST JUMPDEST PUSH1 0x20 MUL ADD DUP2 DUP2 MSTORE POP POP DUP1 DUP1 PUSH1 0x1 ADD SWAP2 POP POP PUSH2 0x232 JUMP JUMPDEST POP PUSH0 PUSH1 0x9 PUSH0 SWAP1 SLOAD SWAP1 PUSH2 0x100 EXP SWAP1 DIV PUSH20 0xFFFFFFFFFFFFFFFFFFFFFFFFFFFFFFFFFFFFFFFF AND PUSH20 0xFFFFFFFFFFFFFFFFFFFFFFFFFFFFFFFFFFFFFFFF AND PUSH4 0x2429DA8C DUP4 PUSH1 0x40 MLOAD DUP3 PUSH4 0xFFFFFFFF AND PUSH1 0xE0 SHL DUP2 MSTORE PUSH1 0x4 ADD PUSH2 0x2DB SWAP2 SWAP1 PUSH2 0x8D7 JUMP JUMPDEST PUSH1 0x40 DUP1 MLOAD DUP1 DUP4 SUB DUP2 DUP7 GAS STATICCALL ISZERO DUP1 ISZERO PUSH2 0x2F5 JUMPI RETURNDATASIZE PUSH0 DUP1 RETURNDATACOPY RETURNDATASIZE PUSH0 REVERT JUMPDEST POP POP POP POP PUSH1 0x40 MLOAD RETURNDATASIZE PUSH1 0x1F NOT PUSH1 0x1F DUP3 ADD AND DUP3 ADD DUP1 PUSH1 0x40 MSTORE POP DUP2 ADD SWAP1 PUSH2 0x319 SWAP2 SWAP1 PUSH2 0x91E JUMP JUMPDEST SWAP2 POP POP PUSH0 DUP2 PUSH1 0x3 DUP2 LT PUSH2 0x32F JUMPI PUSH2 0x32E PUSH2 0x51E JUMP JUMPDEST JUMPDEST PUSH1 0x3 MUL ADD PUSH1 0x40 MLOAD DUP1 PUSH1 0x60 ADD PUSH1 0x40 MSTORE SWAP1 DUP2 PUSH0 DUP3 ADD DUP1 SLOAD PUSH2 0x34D SWAP1 PUSH2 0x5A5 JUMP JUMPDEST DUP1 PUSH1 0x1F ADD PUSH1 0x20 DUP1 SWAP2 DIV MUL PUSH1 0x20 ADD PUSH1 0x40 MLOAD SWAP1 DUP2 ADD PUSH1 0x40 MSTORE DUP1 SWAP3 SWAP2 SWAP1 DUP2 DUP2 MSTORE PUSH1 0x20 ADD DUP3 DUP1 SLOAD PUSH2 0x379 SWAP1 PUSH2 0x5A5 JUMP JUMPDEST DUP1 ISZERO PUSH2 0x3C4 JUMPI DUP1 PUSH1 0x1F LT PUSH2 0x39B JUMPI PUSH2 0x100 DUP1 DUP4 SLOAD DIV MUL DUP4 MSTORE SWAP2 PUSH1 0x20 ADD SWAP2 PUSH2 0x3C4 JUMP JUMPDEST DUP3 ADD SWAP2 SWAP1 PUSH0 MSTORE PUSH1 0x20 PUSH0 KECCAK256 SWAP1 JUMPDEST DUP2 SLOAD DUP2 MSTORE SWAP1 PUSH1 0x1 ADD SWAP1 PUSH1 0x20 ADD DUP1 DUP4 GT PUSH2 0x3A7 JUMPI DUP3 SWAP1 SUB PUSH1 0x1F AND DUP3 ADD SWAP2 JUMPDEST POP POP POP POP POP DUP2 MSTORE PUSH1 0x20 ADD PUSH1 0x1 DUP3 ADD SLOAD DUP2 MSTORE PUSH1 0x20 ADD PUSH1 0x2 DUP3 ADD SLOAD DUP2 MSTORE POP POP SWAP3 POP POP POP SWAP1 JUMP JUMPDEST PUSH1 0x40 MLOAD DUP1 PUSH1 0x60 ADD PUSH1 0x40 MSTORE DUP1 PUSH1 0x60 DUP2 MSTORE PUSH1 0x20 ADD PUSH0 DUP2 MSTORE PUSH1 0x20 ADD PUSH0 DUP2 MSTORE POP SWAP1 JUMP JUMPDEST PUSH1 0x40 MLOAD DUP1 PUSH1 0x60 ADD PUSH1 0x40 MSTORE DUP1 PUSH1 0x3 SWAP1 PUSH1 0x20 DUP3 MUL DUP1 CALLDATASIZE DUP4 CALLDATACOPY DUP1 DUP3 ADD SWAP2 POP POP SWAP1 POP POP SWAP1 JUMP JUMPDEST PUSH0 DUP2 MLOAD SWAP1 POP SWAP2 SWAP1 POP JUMP JUMPDEST PUSH0 DUP3 DUP3 MSTORE PUSH1 0x20 DUP3 ADD SWAP1 POP SWAP3 SWAP2 POP POP JUMP JUMPDEST DUP3 DUP2 DUP4 MCOPY PUSH0 DUP4 DUP4 ADD MSTORE POP POP POP JUMP JUMPDEST PUSH0 PUSH1 0x1F NOT PUSH1 0x1F DUP4 ADD AND SWAP1 POP SWAP2 SWAP1 POP JUMP JUMPDEST PUSH0 PUSH2 0x46B DUP3 PUSH2 0x429 JUMP JUMPDEST PUSH2 0x475 DUP2 DUP6 PUSH2 0x433 JUMP JUMPDEST SWAP4 POP PUSH2 0x485 DUP2 DUP6 PUSH1 0x20 DUP7 ADD PUSH2 0x443 JUMP JUMPDEST PUSH2 0x48E DUP2 PUSH2 0x451 JUMP JUMPDEST DUP5 ADD SWAP2 POP POP SWAP3 SWAP2 POP POP JUMP JUMPDEST PUSH0 DUP2 SWAP1 POP SWAP2 SWAP1 POP JUMP JUMPDEST PUSH2 0x4AB DUP2 PUSH2 0x499 JUMP JUMPDEST DUP3 MSTORE POP POP JUMP JUMPDEST PUSH0 PUSH1 0x60 DUP4 ADD PUSH0 DUP4 ADD MLOAD DUP5 DUP3 SUB PUSH0 DUP7 ADD MSTORE PUSH2 0x4CB DUP3 DUP3 PUSH2 0x461 JUMP JUMPDEST SWAP2 POP POP PUSH1 0x20 DUP4 ADD MLOAD PUSH2 0x4E0 PUSH1 0x20 DUP7 ADD DUP3 PUSH2 0x4A2 JUMP JUMPDEST POP PUSH1 0x40 DUP4 ADD MLOAD PUSH2 0x4F3 PUSH1 0x40 DUP7 ADD DUP3 PUSH2 0x4A2 JUMP JUMPDEST POP DUP1 SWAP2 POP POP SWAP3 SWAP2 POP POP JUMP JUMPDEST PUSH0 PUSH1 0x20 DUP3 ADD SWAP1 POP DUP2 DUP2 SUB PUSH0 DUP4 ADD MSTORE PUSH2 0x516 DUP2 DUP5 PUSH2 0x4B1 JUMP JUMPDEST SWAP1 POP SWAP3 SWAP2 POP POP JUMP JUMPDEST PUSH32 0x4E487B7100000000000000000000000000000000000000000000000000000000 PUSH0 MSTORE PUSH1 0x32 PUSH1 0x4 MSTORE PUSH1 0x24 PUSH0 REVERT JUMPDEST PUSH32 0x4E487B7100000000000000000000000000000000000000000000000000000000 PUSH0 MSTORE PUSH1 0x41 PUSH1 0x4 MSTORE PUSH1 0x24 PUSH0 REVERT JUMPDEST PUSH32 0x4E487B7100000000000000000000000000000000000000000000000000000000 PUSH0 MSTORE PUSH1 0x22 PUSH1 0x4 MSTORE PUSH1 0x24 PUSH0 REVERT JUMPDEST PUSH0 PUSH1 0x2 DUP3 DIV SWAP1 POP PUSH1 0x1 DUP3 AND DUP1 PUSH2 0x5BC JUMPI PUSH1 0x7F DUP3 AND SWAP2 POP JUMPDEST PUSH1 0x20 DUP3 LT DUP2 SUB PUSH2 0x5CF JUMPI PUSH2 0x5CE PUSH2 0x578 JUMP JUMPDEST JUMPDEST POP SWAP2 SWAP1 POP JUMP JUMPDEST PUSH0 DUP2 SWAP1 POP DUP2 PUSH0 MSTORE PUSH1 0x20 PUSH0 KECCAK256 SWAP1 POP SWAP2 SWAP1 POP JUMP JUMPDEST PUSH0 PUSH1 0x20 PUSH1 0x1F DUP4 ADD DIV SWAP1 POP SWAP2 SWAP1 POP JUMP JUMPDEST PUSH0 DUP3 DUP3 SHL SWAP1 POP SWAP3 SWAP2 POP POP JUMP JUMPDEST PUSH0 PUSH1 0x8 DUP4 MUL PUSH2 0x631 PUSH32 0xFFFFFFFFFFFFFFFFFFFFFFFFFFFFFFFFFFFFFFFFFFFFFFFFFFFFFFFFFFFFFFFF DUP3 PUSH2 0x5F6 JUMP JUMPDEST PUSH2 0x63B DUP7 DUP4 PUSH2 0x5F6 JUMP JUMPDEST SWAP6 POP DUP1 NOT DUP5 AND SWAP4 POP DUP1 DUP7 AND DUP5 OR SWAP3 POP POP POP SWAP4 SWAP3 POP POP POP JUMP JUMPDEST PUSH0 DUP2 SWAP1 POP SWAP2 SWAP1 POP JUMP JUMPDEST PUSH0 PUSH2 0x676 PUSH2 0x671 PUSH2 0x66C DUP5 PUSH2 0x499 JUMP JUMPDEST PUSH2 0x653 JUMP JUMPDEST PUSH2 0x499 JUMP JUMPDEST SWAP1 POP SWAP2 SWAP1 POP JUMP JUMPDEST PUSH0 DUP2 SWAP1 POP SWAP2 SWAP1 POP JUMP JUMPDEST PUSH2 0x68F DUP4 PUSH2 0x65C JUMP JUMPDEST PUSH2 0x6A3 PUSH2 0x69B DUP3 PUSH2 0x67D JUMP JUMPDEST DUP5 DUP5 SLOAD PUSH2 0x602 JUMP JUMPDEST DUP3 SSTORE POP POP POP POP JUMP JUMPDEST PUSH0 SWAP1 JUMP JUMPDEST PUSH2 0x6B7 PUSH2 0x6AB JUMP JUMPDEST PUSH2 0x6C2 DUP2 DUP5 DUP5 PUSH2 0x686 JUMP JUMPDEST POP POP POP JUMP JUMPDEST JUMPDEST DUP2 DUP2 LT ISZERO PUSH2 0x6E5 JUMPI PUSH2 0x6DA PUSH0 DUP3 PUSH2 0x6AF JUMP JUMPDEST PUSH1 0x1 DUP2 ADD SWAP1 POP PUSH2 0x6C8 JUMP JUMPDEST POP POP JUMP JUMPDEST PUSH1 0x1F DUP3 GT ISZERO PUSH2 0x72A JUMPI PUSH2 0x6FB DUP2 PUSH2 0x5D5 JUMP JUMPDEST PUSH2 0x704 DUP5 PUSH2 0x5E7 JUMP JUMPDEST DUP2 ADD PUSH1 0x20 DUP6 LT ISZERO PUSH2 0x713 JUMPI DUP2 SWAP1 POP JUMPDEST PUSH2 0x727 PUSH2 0x71F DUP6 PUSH2 0x5E7 JUMP JUMPDEST DUP4 ADD DUP3 PUSH2 0x6C7 JUMP JUMPDEST POP POP JUMPDEST POP POP POP JUMP JUMPDEST PUSH0 DUP3 DUP3 SHR SWAP1 POP SWAP3 SWAP2 POP POP JUMP JUMPDEST PUSH0 PUSH2 0x74A PUSH0 NOT DUP5 PUSH1 0x8 MUL PUSH2 0x72F JUMP JUMPDEST NOT DUP1 DUP4 AND SWAP2 POP POP SWAP3 SWAP2 POP POP JUMP JUMPDEST PUSH0 PUSH2 0x762 DUP4 DUP4 PUSH2 0x73B JUMP JUMPDEST SWAP2 POP DUP3 PUSH1 0x2 MUL DUP3 OR SWAP1 POP SWAP3 SWAP2 POP POP JUMP JUMPDEST PUSH2 0x77B DUP3 PUSH2 0x429 JUMP JUMPDEST PUSH8 0xFFFFFFFFFFFFFFFF DUP2 GT ISZERO PUSH2 0x794 JUMPI PUSH2 0x793 PUSH2 0x54B JUMP JUMPDEST JUMPDEST PUSH2 0x79E DUP3 SLOAD PUSH2 0x5A5 JUMP JUMPDEST PUSH2 0x7A9 DUP3 DUP3 DUP6 PUSH2 0x6E9 JUMP JUMPDEST PUSH0 PUSH1 0x20 SWAP1 POP PUSH1 0x1F DUP4 GT PUSH1 0x1 DUP2 EQ PUSH2 0x7DA JUMPI PUSH0 DUP5 ISZERO PUSH2 0x7C8 JUMPI DUP3 DUP8 ADD MLOAD SWAP1 POP JUMPDEST PUSH2 0x7D2 DUP6 DUP3 PUSH2 0x757 JUMP JUMPDEST DUP7 SSTORE POP PUSH2 0x839 JUMP JUMPDEST PUSH1 0x1F NOT DUP5 AND PUSH2 0x7E8 DUP7 PUSH2 0x5D5 JUMP JUMPDEST PUSH0 JUMPDEST DUP3 DUP2 LT ISZERO PUSH2 0x80F JUMPI DUP5 DUP10 ADD MLOAD DUP3 SSTORE PUSH1 0x1 DUP3 ADD SWAP2 POP PUSH1 0x20 DUP6 ADD SWAP5 POP PUSH1 0x20 DUP2 ADD SWAP1 POP PUSH2 0x7EA JUMP JUMPDEST DUP7 DUP4 LT ISZERO PUSH2 0x82C JUMPI DUP5 DUP10 ADD MLOAD PUSH2 0x828 PUSH1 0x1F DUP10 AND DUP3 PUSH2 0x73B JUMP JUMPDEST DUP4 SSTORE POP JUMPDEST PUSH1 0x1 PUSH1 0x2 DUP9 MUL ADD DUP9 SSTORE POP POP POP JUMPDEST POP POP POP POP POP POP JUMP JUMPDEST PUSH0 PUSH1 0x3 SWAP1 POP SWAP2 SWAP1 POP JUMP JUMPDEST PUSH0 DUP2 SWAP1 POP SWAP3 SWAP2 POP POP JUMP JUMPDEST PUSH0 DUP2 SWAP1 POP SWAP2 SWAP1 POP JUMP JUMPDEST PUSH0 PUSH2 0x869 DUP4 DUP4 PUSH2 0x4A2 JUMP JUMPDEST PUSH1 0x20 DUP4 ADD SWAP1 POP SWAP3 SWAP2 POP POP JUMP JUMPDEST PUSH0 PUSH1 0x20 DUP3 ADD SWAP1 POP SWAP2 SWAP1 POP JUMP JUMPDEST PUSH2 0x88A DUP2 PUSH2 0x841 JUMP JUMPDEST PUSH2 0x894 DUP2 DUP5 PUSH2 0x84B JUMP JUMPDEST SWAP3 POP PUSH2 0x89F DUP3 PUSH2 0x855 JUMP JUMPDEST DUP1 PUSH0 JUMPDEST DUP4 DUP2 LT ISZERO PUSH2 0x8CF JUMPI DUP2 MLOAD PUSH2 0x8B6 DUP8 DUP3 PUSH2 0x85E JUMP JUMPDEST SWAP7 POP PUSH2 0x8C1 DUP4 PUSH2 0x875 JUMP JUMPDEST SWAP3 POP POP PUSH1 0x1 DUP2 ADD SWAP1 POP PUSH2 0x8A2 JUMP JUMPDEST POP POP POP POP POP POP JUMP JUMPDEST PUSH0 PUSH1 0x60 DUP3 ADD SWAP1 POP PUSH2 0x8EA PUSH0 DUP4 ADD DUP5 PUSH2 0x881 JUMP JUMPDEST SWAP3 SWAP2 POP POP JUMP JUMPDEST PUSH0 DUP1 REVERT JUMPDEST PUSH2 0x8FD DUP2 PUSH2 0x499 JUMP JUMPDEST DUP2 EQ PUSH2 0x907 JUMPI PUSH0 DUP1 REVERT JUMPDEST POP JUMP JUMPDEST PUSH0 DUP2 MLOAD SWAP1 POP PUSH2 0x918 DUP2 PUSH2 0x8F4 JUMP JUMPDEST SWAP3 SWAP2 POP POP JUMP JUMPDEST PUSH0 DUP1 PUSH1 0x40 DUP4 DUP6 SUB SLT ISZERO PUSH2 0x934 JUMPI PUSH2 0x933 PUSH2 0x8F0 JUMP JUMPDEST JUMPDEST PUSH0 PUSH2 0x941 DUP6 DUP3 DUP7 ADD PUSH2 0x90A JUMP JUMPDEST SWAP3 POP POP PUSH1 0x20 PUSH2 0x952 DUP6 DUP3 DUP7 ADD PUSH2 0x90A JUMP JUMPDEST SWAP2 POP POP SWAP3 POP SWAP3 SWAP1 POP JUMP INVALID LOG2 PUSH5 0x6970667358 0x22 SLT KECCAK256 SWAP4 TIMESTAMP SWAP4 CALLER 0xCB 0xBA SLOAD MSTORE8 PUSH5 0xB779D3B9E3 0xF9 0xD9 PUSH27 0x2FF11851EC7111571DB0A939937E264736F6C634300081A003360 DUP1 PUSH1 0x40 MSTORE CALLVALUE DUP1 ISZERO PUSH1 0xE JUMPI PUSH0 DUP1 REVERT JUMPDEST POP PUSH2 0x307 DUP1 PUSH2 0x1C PUSH0 CODECOPY PUSH0 RETURN INVALID PUSH1 0x80 PUSH1 0x40 MSTORE CALLVALUE DUP1 ISZERO PUSH2 0xF JUMPI PUSH0 DUP1 REVERT JUMPDEST POP PUSH1 0x4 CALLDATASIZE LT PUSH2 0x29 JUMPI PUSH0 CALLDATALOAD PUSH1 0xE0 SHR DUP1 PUSH4 0x2429DA8C EQ PUSH2 0x2D JUMPI JUMPDEST PUSH0 DUP1 REVERT JUMPDEST PUSH2 0x47 PUSH1 0x4 DUP1 CALLDATASIZE SUB DUP2 ADD SWAP1 PUSH2 0x42 SWAP2 SWAP1 PUSH2 0x243 JUMP JUMPDEST PUSH2 0x5E JUMP JUMPDEST PUSH1 0x40 MLOAD PUSH2 0x55 SWAP3 SWAP2 SWAP1 PUSH2 0x27D JUMP JUMPDEST PUSH1 0x40 MLOAD DUP1 SWAP2 SUB SWAP1 RETURN JUMPDEST PUSH0 DUP1 PUSH0 DUP1 PUSH0 JUMPDEST PUSH1 0x3 DUP2 LT ISZERO PUSH2 0xB7 JUMPI DUP6 DUP2 PUSH1 0x3 DUP2 LT PUSH2 0x80 JUMPI PUSH2 0x7F PUSH2 0x2A4 JUMP JUMPDEST JUMPDEST PUSH1 0x20 MUL ADD MLOAD DUP4 LT ISZERO PUSH2 0xAA JUMPI DUP6 DUP2 PUSH1 0x3 DUP2 LT PUSH2 0x9F JUMPI PUSH2 0x9E PUSH2 0x2A4 JUMP JUMPDEST JUMPDEST PUSH1 0x20 MUL ADD MLOAD SWAP3 POP DUP1 SWAP2 POP JUMPDEST DUP1 DUP1 PUSH1 0x1 ADD SWAP2 POP POP PUSH2 0x64 JUMP JUMPDEST POP DUP2 DUP2 SWAP4 POP SWAP4 POP POP POP SWAP2 POP SWAP2 JUMP JUMPDEST PUSH0 PUSH1 0x40 MLOAD SWAP1 POP SWAP1 JUMP JUMPDEST PUSH0 DUP1 REVERT JUMPDEST PUSH0 DUP1 REVERT JUMPDEST PUSH0 PUSH1 0x1F NOT PUSH1 0x1F DUP4 ADD AND SWAP1 POP SWAP2 SWAP1 POP JUMP JUMPDEST PUSH32 0x4E487B7100000000000000000000000000000000000000000000000000000000 PUSH0 MSTORE PUSH1 0x41 PUSH1 0x4 MSTORE PUSH1 0x24 PUSH0 REVERT JUMPDEST PUSH2 0x11C DUP3 PUSH2 0xD6 JUMP JUMPDEST DUP2 ADD DUP2 DUP2 LT PUSH8 0xFFFFFFFFFFFFFFFF DUP3 GT OR ISZERO PUSH2 0x13B JUMPI PUSH2 0x13A PUSH2 0xE6 JUMP JUMPDEST JUMPDEST DUP1 PUSH1 0x40 MSTORE POP POP POP JUMP JUMPDEST PUSH0 PUSH2 0x14D PUSH2 0xC5 JUMP JUMPDEST SWAP1 POP PUSH2 0x159 DUP3 DUP3 PUSH2 0x113 JUMP JUMPDEST SWAP2 SWAP1 POP JUMP JUMPDEST PUSH0 PUSH8 0xFFFFFFFFFFFFFFFF DUP3 GT ISZERO PUSH2 0x178 JUMPI PUSH2 0x177 PUSH2 0xE6 JUMP JUMPDEST JUMPDEST PUSH1 0x20 DUP3 MUL SWAP1 POP SWAP2 SWAP1 POP JUMP JUMPDEST PUSH0 DUP1 REVERT JUMPDEST PUSH0 DUP2 SWAP1 POP SWAP2 SWAP1 POP JUMP JUMPDEST PUSH2 0x199 DUP2 PUSH2 0x187 JUMP JUMPDEST DUP2 EQ PUSH2 0x1A3 JUMPI PUSH0 DUP1 REVERT JUMPDEST POP JUMP JUMPDEST PUSH0 DUP2 CALLDATALOAD SWAP1 POP PUSH2 0x1B4 DUP2 PUSH2 0x190 JUMP JUMPDEST SWAP3 SWAP2 POP POP JUMP JUMPDEST PUSH0 PUSH2 0x1CC PUSH2 0x1C7 DUP5 PUSH2 0x15E JUMP JUMPDEST PUSH2 0x144 JUMP JUMPDEST SWAP1 POP DUP1 PUSH1 0x20 DUP5 MUL DUP4 ADD DUP6 DUP2 GT ISZERO PUSH2 0x1E6 JUMPI PUSH2 0x1E5 PUSH2 0x183 JUMP JUMPDEST JUMPDEST DUP4 JUMPDEST DUP2 DUP2 LT ISZERO PUSH2 0x20F JUMPI DUP1 PUSH2 0x1FB DUP9 DUP3 PUSH2 0x1A6 JUMP JUMPDEST DUP5 MSTORE PUSH1 0x20 DUP5 ADD SWAP4 POP POP PUSH1 0x20 DUP2 ADD SWAP1 POP PUSH2 0x1E8 JUMP JUMPDEST POP POP POP SWAP4 SWAP3 POP POP POP JUMP JUMPDEST PUSH0 DUP3 PUSH1 0x1F DUP4 ADD SLT PUSH2 0x22D JUMPI PUSH2 0x22C PUSH2 0xD2 JUMP JUMPDEST JUMPDEST PUSH1 0x3 PUSH2 0x23A DUP5 DUP3 DUP6 PUSH2 0x1BA JUMP JUMPDEST SWAP2 POP POP SWAP3 SWAP2 POP POP JUMP JUMPDEST PUSH0 PUSH1 0x60 DUP3 DUP5 SUB SLT ISZERO PUSH2 0x258 JUMPI PUSH2 0x257 PUSH2 0xCE JUMP JUMPDEST JUMPDEST PUSH0 PUSH2 0x265 DUP5 DUP3 DUP6 ADD PUSH2 0x219 JUMP JUMPDEST SWAP2 POP POP SWAP3 SWAP2 POP POP JUMP JUMPDEST PUSH2 0x277 DUP2 PUSH2 0x187 JUMP JUMPDEST DUP3 MSTORE POP POP JUMP JUMPDEST PUSH0 PUSH1 0x40 DUP3 ADD SWAP1 POP PUSH2 0x290 PUSH0 DUP4 ADD DUP6 PUSH2 0x26E JUMP JUMPDEST PUSH2 0x29D PUSH1 0x20 DUP4 ADD DUP5 PUSH2 0x26E JUMP JUMPDEST SWAP4 SWAP3 POP POP POP JUMP JUMPDEST PUSH32 0x4E487B7100000000000000000000000000000000000000000000000000000000 PUSH0 MSTORE PUSH1 0x32 PUSH1 0x4 MSTORE PUSH1 0x24 PUSH0 REVERT INVALID LOG2 PUSH5 0x6970667358 0x22 SLT KECCAK256 PUSH11 0xB815FBD43F8E958F1BE650 SELFBALANCE DUP15 AND CALLVALUE 0xC1 0xAA 0xFC 0xE8 0xF9 SWAP2 JUMPI 0xE5 SWAP6 ISZERO OR 0xEB PUSH27 0x2C769164736F6C634300081A003300000000000000000000000000 "
		},
		"gasEstimates": {
			"creation": {
				"codeDepositCost": "490000",
				"executionCost": "infinite",
				"totalCost": "infinite"
			},
			"external": {
				"setStudent()": "infinite",
				"topStudent()": "infinite"
			}
		},
		"methodIdentifiers": {
			"setStudent()": "23e898e9",
			"topStudent()": "e45bbec7"
		}
	},
	"abi": [
		{
			"inputs": [],
			"name": "setStudent",
			"outputs": [],
			"stateMutability": "nonpayable",
			"type": "function"
		},
		{
			"inputs": [],
			"name": "topStudent",
			"outputs": [
				{
					"components": [
						{
							"internalType": "string",
							"name": "name",
							"type": "string"
						},
						{
							"internalType": "uint256",
							"name": "number",
							"type": "uint256"
						},
						{
							"internalType": "uint256",
							"name": "score",
							"type": "uint256"
						}
					],
					"internalType": "struct Question79_B.Student",
					"name": "",
					"type": "tuple"
				}
			],
			"stateMutability": "view",
			"type": "function"
		}
	]
}