{
	"data": {
		"bytecode": {
			"linkReferences": {},
			"object": "608060405234801561000f575f80fd5b50604051610761380380610761833981810160405281019061003191906101ce565b815f819055508060019081610046919061042c565b5050506104fb565b5f604051905090565b5f80fd5b5f80fd5b5f819050919050565b6100718161005f565b811461007b575f80fd5b50565b5f8151905061008c81610068565b92915050565b5f80fd5b5f80fd5b5f601f19601f8301169050919050565b7f4e487b71000000000000000000000000000000000000000000000000000000005f52604160045260245ffd5b6100e08261009a565b810181811067ffffffffffffffff821117156100ff576100fe6100aa565b5b80604052505050565b5f61011161004e565b905061011d82826100d7565b919050565b5f67ffffffffffffffff82111561013c5761013b6100aa565b5b6101458261009a565b9050602081019050919050565b8281835e5f83830152505050565b5f61017261016d84610122565b610108565b90508281526020810184848401111561018e5761018d610096565b5b610199848285610152565b509392505050565b5f82601f8301126101b5576101b4610092565b5b81516101c5848260208601610160565b91505092915050565b5f80604083850312156101e4576101e3610057565b5b5f6101f18582860161007e565b925050602083015167ffffffffffffffff8111156102125761021161005b565b5b61021e858286016101a1565b9150509250929050565b5f81519050919050565b7f4e487b71000000000000000000000000000000000000000000000000000000005f52602260045260245ffd5b5f600282049050600182168061027657607f821691505b60208210810361028957610288610232565b5b50919050565b5f819050815f5260205f209050919050565b5f6020601f8301049050919050565b5f82821b905092915050565b5f600883026102eb7fffffffffffffffffffffffffffffffffffffffffffffffffffffffffffffffff826102b0565b6102f586836102b0565b95508019841693508086168417925050509392505050565b5f819050919050565b5f61033061032b6103268461005f565b61030d565b61005f565b9050919050565b5f819050919050565b61034983610316565b61035d61035582610337565b8484546102bc565b825550505050565b5f90565b610371610365565b61037c818484610340565b505050565b5b8181101561039f576103945f82610369565b600181019050610382565b5050565b601f8211156103e4576103b58161028f565b6103be846102a1565b810160208510156103cd578190505b6103e16103d9856102a1565b830182610381565b50505b505050565b5f82821c905092915050565b5f6104045f19846008026103e9565b1980831691505092915050565b5f61041c83836103f5565b9150826002028217905092915050565b61043582610228565b67ffffffffffffffff81111561044e5761044d6100aa565b5b610458825461025f565b6104638282856103a3565b5f60209050601f831160018114610494575f8415610482578287015190505b61048c8582610411565b8655506104f3565b601f1984166104a28661028f565b5f5b828110156104c9578489015182556001820191506020850194506020810190506104a4565b868310156104e657848901516104e2601f8916826103f5565b8355505b6001600288020188555050505b505050505050565b610259806105085f395ff3fe608060405234801561000f575f80fd5b5060043610610034575f3560e01c80630dbe671f146100385780634df7e3d014610056575b5f80fd5b610040610074565b60405161004d919061011d565b60405180910390f35b61005e610079565b60405161006b91906101a6565b60405180910390f35b5f5481565b60018054610086906101f3565b80601f01602080910402602001604051908101604052809291908181526020018280546100b2906101f3565b80156100fd5780601f106100d4576101008083540402835291602001916100fd565b820191905f5260205f20905b8154815290600101906020018083116100e057829003601f168201915b505050505081565b5f819050919050565b61011781610105565b82525050565b5f6020820190506101305f83018461010e565b92915050565b5f81519050919050565b5f82825260208201905092915050565b8281835e5f83830152505050565b5f601f19601f8301169050919050565b5f61017882610136565b6101828185610140565b9350610192818560208601610150565b61019b8161015e565b840191505092915050565b5f6020820190508181035f8301526101be818461016e565b905092915050565b7f4e487b71000000000000000000000000000000000000000000000000000000005f52602260045260245ffd5b5f600282049050600182168061020a57607f821691505b60208210810361021d5761021c6101c6565b5b5091905056fea2646970667358221220b506d918cffdaa8d12f967c9be9222151c400dac88c8d04dfede0108d5dcb77964736f6c634300081a0033",
			"opcodes": "PUSH1 0x80 PUSH1 0x40 MSTORE CALLVALUE DUP1 ISZERO PUSH2 0xF JUMPI PUSH0 DUP1 REVERT JUMPDEST POP PUSH1 0x40 MLOAD PUSH2 0x761 CODESIZE SUB DUP1 PUSH2 0x761 DUP4 CODECOPY DUP2 DUP2 ADD PUSH1 0x40 MSTORE DUP2 ADD SWAP1 PUSH2 0x31 SWAP2 SWAP1 PUSH2 0x1CE JUMP JUMPDEST DUP2 PUSH0 DUP2 SWAP1 SSTORE POP DUP1 PUSH1 0x1 SWAP1 DUP2 PUSH2 0x46 SWAP2 SWAP1 PUSH2 0x42C JUMP JUMPDEST POP POP POP PUSH2 0x4FB JUMP JUMPDEST PUSH0 PUSH1 0x40 MLOAD SWAP1 POP SWAP1 JUMP JUMPDEST PUSH0 DUP1 REVERT JUMPDEST PUSH0 DUP1 REVERT JUMPDEST PUSH0 DUP2 SWAP1 POP SWAP2 SWAP1 POP JUMP JUMPDEST PUSH2 0x71 DUP2 PUSH2 0x5F JUMP JUMPDEST DUP2 EQ PUSH2 0x7B JUMPI PUSH0 DUP1 REVERT JUMPDEST POP JUMP JUMPDEST PUSH0 DUP2 MLOAD SWAP1 POP PUSH2 0x8C DUP2 PUSH2 0x68 JUMP JUMPDEST SWAP3 SWAP2 POP POP JUMP JUMPDEST PUSH0 DUP1 REVERT JUMPDEST PUSH0 DUP1 REVERT JUMPDEST PUSH0 PUSH1 0x1F NOT PUSH1 0x1F DUP4 ADD AND SWAP1 POP SWAP2 SWAP1 POP JUMP JUMPDEST PUSH32 0x4E487B7100000000000000000000000000000000000000000000000000000000 PUSH0 MSTORE PUSH1 0x41 PUSH1 0x4 MSTORE PUSH1 0x24 PUSH0 REVERT JUMPDEST PUSH2 0xE0 DUP3 PUSH2 0x9A JUMP JUMPDEST DUP2 ADD DUP2 DUP2 LT PUSH8 0xFFFFFFFFFFFFFFFF DUP3 GT OR ISZERO PUSH2 0xFF JUMPI PUSH2 0xFE PUSH2 0xAA JUMP JUMPDEST JUMPDEST DUP1 PUSH1 0x40 MSTORE POP POP POP JUMP JUMPDEST PUSH0 PUSH2 0x111 PUSH2 0x4E JUMP JUMPDEST SWAP1 POP PUSH2 0x11D DUP3 DUP3 PUSH2 0xD7 JUMP JUMPDEST SWAP2 SWAP1 POP JUMP JUMPDEST PUSH0 PUSH8 0xFFFFFFFFFFFFFFFF DUP3 GT ISZERO PUSH2 0x13C JUMPI PUSH2 0x13B PUSH2 0xAA JUMP JUMPDEST JUMPDEST PUSH2 0x145 DUP3 PUSH2 0x9A JUMP JUMPDEST SWAP1 POP PUSH1 0x20 DUP2 ADD SWAP1 POP SWAP2 SWAP1 POP JUMP JUMPDEST DUP3 DUP2 DUP4 MCOPY PUSH0 DUP4 DUP4 ADD MSTORE POP POP POP JUMP JUMPDEST PUSH0 PUSH2 0x172 PUSH2 0x16D DUP5 PUSH2 0x122 JUMP JUMPDEST PUSH2 0x108 JUMP JUMPDEST SWAP1 POP DUP3 DUP2 MSTORE PUSH1 0x20 DUP2 ADD DUP5 DUP5 DUP5 ADD GT ISZERO PUSH2 0x18E JUMPI PUSH2 0x18D PUSH2 0x96 JUMP JUMPDEST JUMPDEST PUSH2 0x199 DUP5 DUP3 DUP6 PUSH2 0x152 JUMP JUMPDEST POP SWAP4 SWAP3 POP POP POP JUMP JUMPDEST PUSH0 DUP3 PUSH1 0x1F DUP4 ADD SLT PUSH2 0x1B5 JUMPI PUSH2 0x1B4 PUSH2 0x92 JUMP JUMPDEST JUMPDEST DUP2 MLOAD PUSH2 0x1C5 DUP5 DUP3 PUSH1 0x20 DUP7 ADD PUSH2 0x160 JUMP JUMPDEST SWAP2 POP POP SWAP3 SWAP2 POP POP JUMP JUMPDEST PUSH0 DUP1 PUSH1 0x40 DUP4 DUP6 SUB SLT ISZERO PUSH2 0x1E4 JUMPI PUSH2 0x1E3 PUSH2 0x57 JUMP JUMPDEST JUMPDEST PUSH0 PUSH2 0x1F1 DUP6 DUP3 DUP7 ADD PUSH2 0x7E JUMP JUMPDEST SWAP3 POP POP PUSH1 0x20 DUP4 ADD MLOAD PUSH8 0xFFFFFFFFFFFFFFFF DUP2 GT ISZERO PUSH2 0x212 JUMPI PUSH2 0x211 PUSH2 0x5B JUMP JUMPDEST JUMPDEST PUSH2 0x21E DUP6 DUP3 DUP7 ADD PUSH2 0x1A1 JUMP JUMPDEST SWAP2 POP POP SWAP3 POP SWAP3 SWAP1 POP JUMP JUMPDEST PUSH0 DUP2 MLOAD SWAP1 POP SWAP2 SWAP1 POP JUMP JUMPDEST PUSH32 0x4E487B7100000000000000000000000000000000000000000000000000000000 PUSH0 MSTORE PUSH1 0x22 PUSH1 0x4 MSTORE PUSH1 0x24 PUSH0 REVERT JUMPDEST PUSH0 PUSH1 0x2 DUP3 DIV SWAP1 POP PUSH1 0x1 DUP3 AND DUP1 PUSH2 0x276 JUMPI PUSH1 0x7F DUP3 AND SWAP2 POP JUMPDEST PUSH1 0x20 DUP3 LT DUP2 SUB PUSH2 0x289 JUMPI PUSH2 0x288 PUSH2 0x232 JUMP JUMPDEST JUMPDEST POP SWAP2 SWAP1 POP JUMP JUMPDEST PUSH0 DUP2 SWAP1 POP DUP2 PUSH0 MSTORE PUSH1 0x20 PUSH0 KECCAK256 SWAP1 POP SWAP2 SWAP1 POP JUMP JUMPDEST PUSH0 PUSH1 0x20 PUSH1 0x1F DUP4 ADD DIV SWAP1 POP SWAP2 SWAP1 POP JUMP JUMPDEST PUSH0 DUP3 DUP3 SHL SWAP1 POP SWAP3 SWAP2 POP POP JUMP JUMPDEST PUSH0 PUSH1 0x8 DUP4 MUL PUSH2 0x2EB PUSH32 0xFFFFFFFFFFFFFFFFFFFFFFFFFFFFFFFFFFFFFFFFFFFFFFFFFFFFFFFFFFFFFFFF DUP3 PUSH2 0x2B0 JUMP JUMPDEST PUSH2 0x2F5 DUP7 DUP4 PUSH2 0x2B0 JUMP JUMPDEST SWAP6 POP DUP1 NOT DUP5 AND SWAP4 POP DUP1 DUP7 AND DUP5 OR SWAP3 POP POP POP SWAP4 SWAP3 POP POP POP JUMP JUMPDEST PUSH0 DUP2 SWAP1 POP SWAP2 SWAP1 POP JUMP JUMPDEST PUSH0 PUSH2 0x330 PUSH2 0x32B PUSH2 0x326 DUP5 PUSH2 0x5F JUMP JUMPDEST PUSH2 0x30D JUMP JUMPDEST PUSH2 0x5F JUMP JUMPDEST SWAP1 POP SWAP2 SWAP1 POP JUMP JUMPDEST PUSH0 DUP2 SWAP1 POP SWAP2 SWAP1 POP JUMP JUMPDEST PUSH2 0x349 DUP4 PUSH2 0x316 JUMP JUMPDEST PUSH2 0x35D PUSH2 0x355 DUP3 PUSH2 0x337 JUMP JUMPDEST DUP5 DUP5 SLOAD PUSH2 0x2BC JUMP JUMPDEST DUP3 SSTORE POP POP POP POP JUMP JUMPDEST PUSH0 SWAP1 JUMP JUMPDEST PUSH2 0x371 PUSH2 0x365 JUMP JUMPDEST PUSH2 0x37C DUP2 DUP5 DUP5 PUSH2 0x340 JUMP JUMPDEST POP POP POP JUMP JUMPDEST JUMPDEST DUP2 DUP2 LT ISZERO PUSH2 0x39F JUMPI PUSH2 0x394 PUSH0 DUP3 PUSH2 0x369 JUMP JUMPDEST PUSH1 0x1 DUP2 ADD SWAP1 POP PUSH2 0x382 JUMP JUMPDEST POP POP JUMP JUMPDEST PUSH1 0x1F DUP3 GT ISZERO PUSH2 0x3E4 JUMPI PUSH2 0x3B5 DUP2 PUSH2 0x28F JUMP JUMPDEST PUSH2 0x3BE DUP5 PUSH2 0x2A1 JUMP JUMPDEST DUP2 ADD PUSH1 0x20 DUP6 LT ISZERO PUSH2 0x3CD JUMPI DUP2 SWAP1 POP JUMPDEST PUSH2 0x3E1 PUSH2 0x3D9 DUP6 PUSH2 0x2A1 JUMP JUMPDEST DUP4 ADD DUP3 PUSH2 0x381 JUMP JUMPDEST POP POP JUMPDEST POP POP POP JUMP JUMPDEST PUSH0 DUP3 DUP3 SHR SWAP1 POP SWAP3 SWAP2 POP POP JUMP JUMPDEST PUSH0 PUSH2 0x404 PUSH0 NOT DUP5 PUSH1 0x8 MUL PUSH2 0x3E9 JUMP JUMPDEST NOT DUP1 DUP4 AND SWAP2 POP POP SWAP3 SWAP2 POP POP JUMP JUMPDEST PUSH0 PUSH2 0x41C DUP4 DUP4 PUSH2 0x3F5 JUMP JUMPDEST SWAP2 POP DUP3 PUSH1 0x2 MUL DUP3 OR SWAP1 POP SWAP3 SWAP2 POP POP JUMP JUMPDEST PUSH2 0x435 DUP3 PUSH2 0x228 JUMP JUMPDEST PUSH8 0xFFFFFFFFFFFFFFFF DUP2 GT ISZERO PUSH2 0x44E JUMPI PUSH2 0x44D PUSH2 0xAA JUMP JUMPDEST JUMPDEST PUSH2 0x458 DUP3 SLOAD PUSH2 0x25F JUMP JUMPDEST PUSH2 0x463 DUP3 DUP3 DUP6 PUSH2 0x3A3 JUMP JUMPDEST PUSH0 PUSH1 0x20 SWAP1 POP PUSH1 0x1F DUP4 GT PUSH1 0x1 DUP2 EQ PUSH2 0x494 JUMPI PUSH0 DUP5 ISZERO PUSH2 0x482 JUMPI DUP3 DUP8 ADD MLOAD SWAP1 POP JUMPDEST PUSH2 0x48C DUP6 DUP3 PUSH2 0x411 JUMP JUMPDEST DUP7 SSTORE POP PUSH2 0x4F3 JUMP JUMPDEST PUSH1 0x1F NOT DUP5 AND PUSH2 0x4A2 DUP7 PUSH2 0x28F JUMP JUMPDEST PUSH0 JUMPDEST DUP3 DUP2 LT ISZERO PUSH2 0x4C9 JUMPI DUP5 DUP10 ADD MLOAD DUP3 SSTORE PUSH1 0x1 DUP3 ADD SWAP2 POP PUSH1 0x20 DUP6 ADD SWAP5 POP PUSH1 0x20 DUP2 ADD SWAP1 POP PUSH2 0x4A4 JUMP JUMPDEST DUP7 DUP4 LT ISZERO PUSH2 0x4E6 JUMPI DUP5 DUP10 ADD MLOAD PUSH2 0x4E2 PUSH1 0x1F DUP10 AND DUP3 PUSH2 0x3F5 JUMP JUMPDEST DUP4 SSTORE POP JUMPDEST PUSH1 0x1 PUSH1 0x2 DUP9 MUL ADD DUP9 SSTORE POP POP POP JUMPDEST POP POP POP POP POP POP JUMP JUMPDEST PUSH2 0x259 DUP1 PUSH2 0x508 PUSH0 CODECOPY PUSH0 RETURN INVALID PUSH1 0x80 PUSH1 0x40 MSTORE CALLVALUE DUP1 ISZERO PUSH2 0xF JUMPI PUSH0 DUP1 REVERT JUMPDEST POP PUSH1 0x4 CALLDATASIZE LT PUSH2 0x34 JUMPI PUSH0 CALLDATALOAD PUSH1 0xE0 SHR DUP1 PUSH4 0xDBE671F EQ PUSH2 0x38 JUMPI DUP1 PUSH4 0x4DF7E3D0 EQ PUSH2 0x56 JUMPI JUMPDEST PUSH0 DUP1 REVERT JUMPDEST PUSH2 0x40 PUSH2 0x74 JUMP JUMPDEST PUSH1 0x40 MLOAD PUSH2 0x4D SWAP2 SWAP1 PUSH2 0x11D JUMP JUMPDEST PUSH1 0x40 MLOAD DUP1 SWAP2 SUB SWAP1 RETURN JUMPDEST PUSH2 0x5E PUSH2 0x79 JUMP JUMPDEST PUSH1 0x40 MLOAD PUSH2 0x6B SWAP2 SWAP1 PUSH2 0x1A6 JUMP JUMPDEST PUSH1 0x40 MLOAD DUP1 SWAP2 SUB SWAP1 RETURN JUMPDEST PUSH0 SLOAD DUP2 JUMP JUMPDEST PUSH1 0x1 DUP1 SLOAD PUSH2 0x86 SWAP1 PUSH2 0x1F3 JUMP JUMPDEST DUP1 PUSH1 0x1F ADD PUSH1 0x20 DUP1 SWAP2 DIV MUL PUSH1 0x20 ADD PUSH1 0x40 MLOAD SWAP1 DUP2 ADD PUSH1 0x40 MSTORE DUP1 SWAP3 SWAP2 SWAP1 DUP2 DUP2 MSTORE PUSH1 0x20 ADD DUP3 DUP1 SLOAD PUSH2 0xB2 SWAP1 PUSH2 0x1F3 JUMP JUMPDEST DUP1 ISZERO PUSH2 0xFD JUMPI DUP1 PUSH1 0x1F LT PUSH2 0xD4 JUMPI PUSH2 0x100 DUP1 DUP4 SLOAD DIV MUL DUP4 MSTORE SWAP2 PUSH1 0x20 ADD SWAP2 PUSH2 0xFD JUMP JUMPDEST DUP3 ADD SWAP2 SWAP1 PUSH0 MSTORE PUSH1 0x20 PUSH0 KECCAK256 SWAP1 JUMPDEST DUP2 SLOAD DUP2 MSTORE SWAP1 PUSH1 0x1 ADD SWAP1 PUSH1 0x20 ADD DUP1 DUP4 GT PUSH2 0xE0 JUMPI DUP3 SWAP1 SUB PUSH1 0x1F AND DUP3 ADD SWAP2 JUMPDEST POP POP POP POP POP DUP2 JUMP JUMPDEST PUSH0 DUP2 SWAP1 POP SWAP2 SWAP1 POP JUMP JUMPDEST PUSH2 0x117 DUP2 PUSH2 0x105 JUMP JUMPDEST DUP3 MSTORE POP POP JUMP JUMPDEST PUSH0 PUSH1 0x20 DUP3 ADD SWAP1 POP PUSH2 0x130 PUSH0 DUP4 ADD DUP5 PUSH2 0x10E JUMP JUMPDEST SWAP3 SWAP2 POP POP JUMP JUMPDEST PUSH0 DUP2 MLOAD SWAP1 POP SWAP2 SWAP1 POP JUMP JUMPDEST PUSH0 DUP3 DUP3 MSTORE PUSH1 0x20 DUP3 ADD SWAP1 POP SWAP3 SWAP2 POP POP JUMP JUMPDEST DUP3 DUP2 DUP4 MCOPY PUSH0 DUP4 DUP4 ADD MSTORE POP POP POP JUMP JUMPDEST PUSH0 PUSH1 0x1F NOT PUSH1 0x1F DUP4 ADD AND SWAP1 POP SWAP2 SWAP1 POP JUMP JUMPDEST PUSH0 PUSH2 0x178 DUP3 PUSH2 0x136 JUMP JUMPDEST PUSH2 0x182 DUP2 DUP6 PUSH2 0x140 JUMP JUMPDEST SWAP4 POP PUSH2 0x192 DUP2 DUP6 PUSH1 0x20 DUP7 ADD PUSH2 0x150 JUMP JUMPDEST PUSH2 0x19B DUP2 PUSH2 0x15E JUMP JUMPDEST DUP5 ADD SWAP2 POP POP SWAP3 SWAP2 POP POP JUMP JUMPDEST PUSH0 PUSH1 0x20 DUP3 ADD SWAP1 POP DUP2 DUP2 SUB PUSH0 DUP4 ADD MSTORE PUSH2 0x1BE DUP2 DUP5 PUSH2 0x16E JUMP JUMPDEST SWAP1 POP SWAP3 SWAP2 POP POP JUMP JUMPDEST PUSH32 0x4E487B7100000000000000000000000000000000000000000000000000000000 PUSH0 MSTORE PUSH1 0x22 PUSH1 0x4 MSTORE PUSH1 0x24 PUSH0 REVERT JUMPDEST PUSH0 PUSH1 0x2 DUP3 DIV SWAP1 POP PUSH1 0x1 DUP3 AND DUP1 PUSH2 0x20A JUMPI PUSH1 0x7F DUP3 AND SWAP2 POP JUMPDEST PUSH1 0x20 DUP3 LT DUP2 SUB PUSH2 0x21D JUMPI PUSH2 0x21C PUSH2 0x1C6 JUMP JUMPDEST JUMPDEST POP SWAP2 SWAP1 POP JUMP INVALID LOG2 PUSH5 0x6970667358 0x22 SLT KECCAK256 0xB5 MOD 0xD9 XOR 0xCF REVERT 0xAA DUP14 SLT 0xF9 PUSH8 0xC9BE9222151C400D 0xAC DUP9 0xC8 0xD0 0x4D INVALID 0xDE ADD ADDMOD 0xD5 0xDC 0xB7 PUSH26 0x64736F6C634300081A0033000000000000000000000000000000 "
		},
		"gasEstimates": {
			"creation": {
				"codeDepositCost": "120200",
				"executionCost": "infinite",
				"totalCost": "infinite"
			},
			"external": {
				"a()": "2402",
				"b()": "infinite"
			}
		},
		"methodIdentifiers": {
			"a()": "0dbe671f",
			"b()": "4df7e3d0"
		}
	},
	"abi": [
		{
			"inputs": [
				{
					"internalType": "uint256",
					"name": "_a",
					"type": "uint256"
				},
				{
					"internalType": "string",
					"name": "_b",
					"type": "string"
				}
			],
			"stateMutability": "nonpayable",
			"type": "constructor"
		},
		{
			"inputs": [],
			"name": "a",
			"outputs": [
				{
					"internalType": "uint256",
					"name": "",
					"type": "uint256"
				}
			],
			"stateMutability": "view",
			"type": "function"
		},
		{
			"inputs": [],
			"name": "b",
			"outputs": [
				{
					"internalType": "string",
					"name": "",
					"type": "string"
				}
			],
			"stateMutability": "view",
			"type": "function"
		}
	]
}