{
	"data": {
		"bytecode": {
			"linkReferences": {},
			"object": "6080604052348015600e575f80fd5b506104c78061001c5f395ff3fe608060405234801561000f575f80fd5b506004361061004a575f3560e01c806316cdf8251461004e57806325427cd41461006a57806389f915f614610086578063ae713d2a146100a4575b5f80fd5b610068600480360381019061006391906101f8565b6100ae565b005b610084600480360381019061007f9190610373565b6100c6565b005b61008e6100df565b60405161009b9190610471565b60405180910390f35b6100ac610134565b005b5f80548060205f200160018201835583815550505050565b805f90805190602001906100db92919061014e565b5050565b60605f80548060200260200160405190810160405280929190818152602001828054801561012a57602002820191905f5260205f20905b815481526020019060010190808311610116575b5050505050905090565b5f80546001810360205f20015f8155600182038355505050565b828054828255905f5260205f20908101928215610188579160200282015b8281111561018757825182559160200191906001019061016c565b5b5090506101959190610199565b5090565b5b808211156101b0575f815f90555060010161019a565b5090565b5f604051905090565b5f80fd5b5f80fd5b5f819050919050565b6101d7816101c5565b81146101e1575f80fd5b50565b5f813590506101f2816101ce565b92915050565b5f6020828403121561020d5761020c6101bd565b5b5f61021a848285016101e4565b91505092915050565b5f80fd5b5f601f19601f8301169050919050565b7f4e487b71000000000000000000000000000000000000000000000000000000005f52604160045260245ffd5b61026d82610227565b810181811067ffffffffffffffff8211171561028c5761028b610237565b5b80604052505050565b5f61029e6101b4565b90506102aa8282610264565b919050565b5f67ffffffffffffffff8211156102c9576102c8610237565b5b602082029050602081019050919050565b5f80fd5b5f6102f06102eb846102af565b610295565b90508083825260208201905060208402830185811115610313576103126102da565b5b835b8181101561033c578061032888826101e4565b845260208401935050602081019050610315565b5050509392505050565b5f82601f83011261035a57610359610223565b5b813561036a8482602086016102de565b91505092915050565b5f60208284031215610388576103876101bd565b5b5f82013567ffffffffffffffff8111156103a5576103a46101c1565b5b6103b184828501610346565b91505092915050565b5f81519050919050565b5f82825260208201905092915050565b5f819050602082019050919050565b6103ec816101c5565b82525050565b5f6103fd83836103e3565b60208301905092915050565b5f602082019050919050565b5f61041f826103ba565b61042981856103c4565b9350610434836103d4565b805f5b8381101561046457815161044b88826103f2565b975061045683610409565b925050600181019050610437565b5085935050505092915050565b5f6020820190508181035f8301526104898184610415565b90509291505056fea26469706673582212201b855a6b33a2ccbdd7396ee61a924a628db885146083988c68eb4bd14fe955f964736f6c634300081a0033",
			"opcodes": "PUSH1 0x80 PUSH1 0x40 MSTORE CALLVALUE DUP1 ISZERO PUSH1 0xE JUMPI PUSH0 DUP1 REVERT JUMPDEST POP PUSH2 0x4C7 DUP1 PUSH2 0x1C PUSH0 CODECOPY PUSH0 RETURN INVALID PUSH1 0x80 PUSH1 0x40 MSTORE CALLVALUE DUP1 ISZERO PUSH2 0xF JUMPI PUSH0 DUP1 REVERT JUMPDEST POP PUSH1 0x4 CALLDATASIZE LT PUSH2 0x4A JUMPI PUSH0 CALLDATALOAD PUSH1 0xE0 SHR DUP1 PUSH4 0x16CDF825 EQ PUSH2 0x4E JUMPI DUP1 PUSH4 0x25427CD4 EQ PUSH2 0x6A JUMPI DUP1 PUSH4 0x89F915F6 EQ PUSH2 0x86 JUMPI DUP1 PUSH4 0xAE713D2A EQ PUSH2 0xA4 JUMPI JUMPDEST PUSH0 DUP1 REVERT JUMPDEST PUSH2 0x68 PUSH1 0x4 DUP1 CALLDATASIZE SUB DUP2 ADD SWAP1 PUSH2 0x63 SWAP2 SWAP1 PUSH2 0x1F8 JUMP JUMPDEST PUSH2 0xAE JUMP JUMPDEST STOP JUMPDEST PUSH2 0x84 PUSH1 0x4 DUP1 CALLDATASIZE SUB DUP2 ADD SWAP1 PUSH2 0x7F SWAP2 SWAP1 PUSH2 0x373 JUMP JUMPDEST PUSH2 0xC6 JUMP JUMPDEST STOP JUMPDEST PUSH2 0x8E PUSH2 0xDF JUMP JUMPDEST PUSH1 0x40 MLOAD PUSH2 0x9B SWAP2 SWAP1 PUSH2 0x471 JUMP JUMPDEST PUSH1 0x40 MLOAD DUP1 SWAP2 SUB SWAP1 RETURN JUMPDEST PUSH2 0xAC PUSH2 0x134 JUMP JUMPDEST STOP JUMPDEST PUSH0 DUP1 SLOAD DUP1 PUSH1 0x20 PUSH0 KECCAK256 ADD PUSH1 0x1 DUP3 ADD DUP4 SSTORE DUP4 DUP2 SSTORE POP POP POP POP JUMP JUMPDEST DUP1 PUSH0 SWAP1 DUP1 MLOAD SWAP1 PUSH1 0x20 ADD SWAP1 PUSH2 0xDB SWAP3 SWAP2 SWAP1 PUSH2 0x14E JUMP JUMPDEST POP POP JUMP JUMPDEST PUSH1 0x60 PUSH0 DUP1 SLOAD DUP1 PUSH1 0x20 MUL PUSH1 0x20 ADD PUSH1 0x40 MLOAD SWAP1 DUP2 ADD PUSH1 0x40 MSTORE DUP1 SWAP3 SWAP2 SWAP1 DUP2 DUP2 MSTORE PUSH1 0x20 ADD DUP3 DUP1 SLOAD DUP1 ISZERO PUSH2 0x12A JUMPI PUSH1 0x20 MUL DUP3 ADD SWAP2 SWAP1 PUSH0 MSTORE PUSH1 0x20 PUSH0 KECCAK256 SWAP1 JUMPDEST DUP2 SLOAD DUP2 MSTORE PUSH1 0x20 ADD SWAP1 PUSH1 0x1 ADD SWAP1 DUP1 DUP4 GT PUSH2 0x116 JUMPI JUMPDEST POP POP POP POP POP SWAP1 POP SWAP1 JUMP JUMPDEST PUSH0 DUP1 SLOAD PUSH1 0x1 DUP2 SUB PUSH1 0x20 PUSH0 KECCAK256 ADD PUSH0 DUP2 SSTORE PUSH1 0x1 DUP3 SUB DUP4 SSTORE POP POP POP JUMP JUMPDEST DUP3 DUP1 SLOAD DUP3 DUP3 SSTORE SWAP1 PUSH0 MSTORE PUSH1 0x20 PUSH0 KECCAK256 SWAP1 DUP2 ADD SWAP3 DUP3 ISZERO PUSH2 0x188 JUMPI SWAP2 PUSH1 0x20 MUL DUP3 ADD JUMPDEST DUP3 DUP2 GT ISZERO PUSH2 0x187 JUMPI DUP3 MLOAD DUP3 SSTORE SWAP2 PUSH1 0x20 ADD SWAP2 SWAP1 PUSH1 0x1 ADD SWAP1 PUSH2 0x16C JUMP JUMPDEST JUMPDEST POP SWAP1 POP PUSH2 0x195 SWAP2 SWAP1 PUSH2 0x199 JUMP JUMPDEST POP SWAP1 JUMP JUMPDEST JUMPDEST DUP1 DUP3 GT ISZERO PUSH2 0x1B0 JUMPI PUSH0 DUP2 PUSH0 SWAP1 SSTORE POP PUSH1 0x1 ADD PUSH2 0x19A JUMP JUMPDEST POP SWAP1 JUMP JUMPDEST PUSH0 PUSH1 0x40 MLOAD SWAP1 POP SWAP1 JUMP JUMPDEST PUSH0 DUP1 REVERT JUMPDEST PUSH0 DUP1 REVERT JUMPDEST PUSH0 DUP2 SWAP1 POP SWAP2 SWAP1 POP JUMP JUMPDEST PUSH2 0x1D7 DUP2 PUSH2 0x1C5 JUMP JUMPDEST DUP2 EQ PUSH2 0x1E1 JUMPI PUSH0 DUP1 REVERT JUMPDEST POP JUMP JUMPDEST PUSH0 DUP2 CALLDATALOAD SWAP1 POP PUSH2 0x1F2 DUP2 PUSH2 0x1CE JUMP JUMPDEST SWAP3 SWAP2 POP POP JUMP JUMPDEST PUSH0 PUSH1 0x20 DUP3 DUP5 SUB SLT ISZERO PUSH2 0x20D JUMPI PUSH2 0x20C PUSH2 0x1BD JUMP JUMPDEST JUMPDEST PUSH0 PUSH2 0x21A DUP5 DUP3 DUP6 ADD PUSH2 0x1E4 JUMP JUMPDEST SWAP2 POP POP SWAP3 SWAP2 POP POP JUMP JUMPDEST PUSH0 DUP1 REVERT JUMPDEST PUSH0 PUSH1 0x1F NOT PUSH1 0x1F DUP4 ADD AND SWAP1 POP SWAP2 SWAP1 POP JUMP JUMPDEST PUSH32 0x4E487B7100000000000000000000000000000000000000000000000000000000 PUSH0 MSTORE PUSH1 0x41 PUSH1 0x4 MSTORE PUSH1 0x24 PUSH0 REVERT JUMPDEST PUSH2 0x26D DUP3 PUSH2 0x227 JUMP JUMPDEST DUP2 ADD DUP2 DUP2 LT PUSH8 0xFFFFFFFFFFFFFFFF DUP3 GT OR ISZERO PUSH2 0x28C JUMPI PUSH2 0x28B PUSH2 0x237 JUMP JUMPDEST JUMPDEST DUP1 PUSH1 0x40 MSTORE POP POP POP JUMP JUMPDEST PUSH0 PUSH2 0x29E PUSH2 0x1B4 JUMP JUMPDEST SWAP1 POP PUSH2 0x2AA DUP3 DUP3 PUSH2 0x264 JUMP JUMPDEST SWAP2 SWAP1 POP JUMP JUMPDEST PUSH0 PUSH8 0xFFFFFFFFFFFFFFFF DUP3 GT ISZERO PUSH2 0x2C9 JUMPI PUSH2 0x2C8 PUSH2 0x237 JUMP JUMPDEST JUMPDEST PUSH1 0x20 DUP3 MUL SWAP1 POP PUSH1 0x20 DUP2 ADD SWAP1 POP SWAP2 SWAP1 POP JUMP JUMPDEST PUSH0 DUP1 REVERT JUMPDEST PUSH0 PUSH2 0x2F0 PUSH2 0x2EB DUP5 PUSH2 0x2AF JUMP JUMPDEST PUSH2 0x295 JUMP JUMPDEST SWAP1 POP DUP1 DUP4 DUP3 MSTORE PUSH1 0x20 DUP3 ADD SWAP1 POP PUSH1 0x20 DUP5 MUL DUP4 ADD DUP6 DUP2 GT ISZERO PUSH2 0x313 JUMPI PUSH2 0x312 PUSH2 0x2DA JUMP JUMPDEST JUMPDEST DUP4 JUMPDEST DUP2 DUP2 LT ISZERO PUSH2 0x33C JUMPI DUP1 PUSH2 0x328 DUP9 DUP3 PUSH2 0x1E4 JUMP JUMPDEST DUP5 MSTORE PUSH1 0x20 DUP5 ADD SWAP4 POP POP PUSH1 0x20 DUP2 ADD SWAP1 POP PUSH2 0x315 JUMP JUMPDEST POP POP POP SWAP4 SWAP3 POP POP POP JUMP JUMPDEST PUSH0 DUP3 PUSH1 0x1F DUP4 ADD SLT PUSH2 0x35A JUMPI PUSH2 0x359 PUSH2 0x223 JUMP JUMPDEST JUMPDEST DUP2 CALLDATALOAD PUSH2 0x36A DUP5 DUP3 PUSH1 0x20 DUP7 ADD PUSH2 0x2DE JUMP JUMPDEST SWAP2 POP POP SWAP3 SWAP2 POP POP JUMP JUMPDEST PUSH0 PUSH1 0x20 DUP3 DUP5 SUB SLT ISZERO PUSH2 0x388 JUMPI PUSH2 0x387 PUSH2 0x1BD JUMP JUMPDEST JUMPDEST PUSH0 DUP3 ADD CALLDATALOAD PUSH8 0xFFFFFFFFFFFFFFFF DUP2 GT ISZERO PUSH2 0x3A5 JUMPI PUSH2 0x3A4 PUSH2 0x1C1 JUMP JUMPDEST JUMPDEST PUSH2 0x3B1 DUP5 DUP3 DUP6 ADD PUSH2 0x346 JUMP JUMPDEST SWAP2 POP POP SWAP3 SWAP2 POP POP JUMP JUMPDEST PUSH0 DUP2 MLOAD SWAP1 POP SWAP2 SWAP1 POP JUMP JUMPDEST PUSH0 DUP3 DUP3 MSTORE PUSH1 0x20 DUP3 ADD SWAP1 POP SWAP3 SWAP2 POP POP JUMP JUMPDEST PUSH0 DUP2 SWAP1 POP PUSH1 0x20 DUP3 ADD SWAP1 POP SWAP2 SWAP1 POP JUMP JUMPDEST PUSH2 0x3EC DUP2 PUSH2 0x1C5 JUMP JUMPDEST DUP3 MSTORE POP POP JUMP JUMPDEST PUSH0 PUSH2 0x3FD DUP4 DUP4 PUSH2 0x3E3 JUMP JUMPDEST PUSH1 0x20 DUP4 ADD SWAP1 POP SWAP3 SWAP2 POP POP JUMP JUMPDEST PUSH0 PUSH1 0x20 DUP3 ADD SWAP1 POP SWAP2 SWAP1 POP JUMP JUMPDEST PUSH0 PUSH2 0x41F DUP3 PUSH2 0x3BA JUMP JUMPDEST PUSH2 0x429 DUP2 DUP6 PUSH2 0x3C4 JUMP JUMPDEST SWAP4 POP PUSH2 0x434 DUP4 PUSH2 0x3D4 JUMP JUMPDEST DUP1 PUSH0 JUMPDEST DUP4 DUP2 LT ISZERO PUSH2 0x464 JUMPI DUP2 MLOAD PUSH2 0x44B DUP9 DUP3 PUSH2 0x3F2 JUMP JUMPDEST SWAP8 POP PUSH2 0x456 DUP4 PUSH2 0x409 JUMP JUMPDEST SWAP3 POP POP PUSH1 0x1 DUP2 ADD SWAP1 POP PUSH2 0x437 JUMP JUMPDEST POP DUP6 SWAP4 POP POP POP POP SWAP3 SWAP2 POP POP JUMP JUMPDEST PUSH0 PUSH1 0x20 DUP3 ADD SWAP1 POP DUP2 DUP2 SUB PUSH0 DUP4 ADD MSTORE PUSH2 0x489 DUP2 DUP5 PUSH2 0x415 JUMP JUMPDEST SWAP1 POP SWAP3 SWAP2 POP POP JUMP INVALID LOG2 PUSH5 0x6970667358 0x22 SLT KECCAK256 SHL DUP6 GAS PUSH12 0x33A2CCBDD7396EE61A924A62 DUP14 0xB8 DUP6 EQ PUSH1 0x83 SWAP9 DUP13 PUSH9 0xEB4BD14FE955F96473 PUSH16 0x6C634300081A00330000000000000000 "
		},
		"gasEstimates": {
			"creation": {
				"codeDepositCost": "244600",
				"executionCost": "285",
				"totalCost": "244885"
			},
			"external": {
				"getNumbers()": "infinite",
				"popArray()": "29468",
				"pushArray(uint256)": "46755",
				"setNumbers(uint256[])": "infinite"
			}
		},
		"methodIdentifiers": {
			"getNumbers()": "89f915f6",
			"popArray()": "ae713d2a",
			"pushArray(uint256)": "16cdf825",
			"setNumbers(uint256[])": "25427cd4"
		}
	},
	"abi": [
		{
			"inputs": [],
			"name": "getNumbers",
			"outputs": [
				{
					"internalType": "uint256[]",
					"name": "",
					"type": "uint256[]"
				}
			],
			"stateMutability": "view",
			"type": "function"
		},
		{
			"inputs": [],
			"name": "popArray",
			"outputs": [],
			"stateMutability": "nonpayable",
			"type": "function"
		},
		{
			"inputs": [
				{
					"internalType": "uint256",
					"name": "_number",
					"type": "uint256"
				}
			],
			"name": "pushArray",
			"outputs": [],
			"stateMutability": "nonpayable",
			"type": "function"
		},
		{
			"inputs": [
				{
					"internalType": "uint256[]",
					"name": "_numbers",
					"type": "uint256[]"
				}
			],
			"name": "setNumbers",
			"outputs": [],
			"stateMutability": "nonpayable",
			"type": "function"
		}
	]
}