{
	"data": {
		"bytecode": {
			"linkReferences": {},
			"object": "6080604052348015600e575f80fd5b506106068061001c5f395ff3fe608060405234801561000f575f80fd5b506004361061003f575f3560e01c806325427cd4146100435780634cc822151461005f57806389f915f61461007b575b5f80fd5b61005d6004803603810190610058919061039a565b610099565b005b610079600480360381019061007491906103e1565b6100b2565b005b61008361014b565b60405161009091906104c3565b60405180910390f35b805f90805190602001906100ae9291906101a0565b5050565b5f8190505b60015f805490506100c89190610510565b811015610123575f6001826100dd9190610543565b815481106100ee576100ed610576565b5b905f5260205f2001545f828154811061010a57610109610576565b5b905f5260205f20018190555080806001019150506100b7565b505f805480610135576101346105a3565b5b600190038181905f5260205f20015f9055905550565b60605f80548060200260200160405190810160405280929190818152602001828054801561019657602002820191905f5260205f20905b815481526020019060010190808311610182575b5050505050905090565b828054828255905f5260205f209081019282156101da579160200282015b828111156101d95782518255916020019190600101906101be565b5b5090506101e791906101eb565b5090565b5b80821115610202575f815f9055506001016101ec565b5090565b5f604051905090565b5f80fd5b5f80fd5b5f80fd5b5f601f19601f8301169050919050565b7f4e487b71000000000000000000000000000000000000000000000000000000005f52604160045260245ffd5b6102618261021b565b810181811067ffffffffffffffff821117156102805761027f61022b565b5b80604052505050565b5f610292610206565b905061029e8282610258565b919050565b5f67ffffffffffffffff8211156102bd576102bc61022b565b5b602082029050602081019050919050565b5f80fd5b5f819050919050565b6102e4816102d2565b81146102ee575f80fd5b50565b5f813590506102ff816102db565b92915050565b5f610317610312846102a3565b610289565b9050808382526020820190506020840283018581111561033a576103396102ce565b5b835b81811015610363578061034f88826102f1565b84526020840193505060208101905061033c565b5050509392505050565b5f82601f83011261038157610380610217565b5b8135610391848260208601610305565b91505092915050565b5f602082840312156103af576103ae61020f565b5b5f82013567ffffffffffffffff8111156103cc576103cb610213565b5b6103d88482850161036d565b91505092915050565b5f602082840312156103f6576103f561020f565b5b5f610403848285016102f1565b91505092915050565b5f81519050919050565b5f82825260208201905092915050565b5f819050602082019050919050565b61043e816102d2565b82525050565b5f61044f8383610435565b60208301905092915050565b5f602082019050919050565b5f6104718261040c565b61047b8185610416565b935061048683610426565b805f5b838110156104b657815161049d8882610444565b97506104a88361045b565b925050600181019050610489565b5085935050505092915050565b5f6020820190508181035f8301526104db8184610467565b905092915050565b7f4e487b71000000000000000000000000000000000000000000000000000000005f52601160045260245ffd5b5f61051a826102d2565b9150610525836102d2565b925082820390508181111561053d5761053c6104e3565b5b92915050565b5f61054d826102d2565b9150610558836102d2565b92508282019050808211156105705761056f6104e3565b5b92915050565b7f4e487b71000000000000000000000000000000000000000000000000000000005f52603260045260245ffd5b7f4e487b71000000000000000000000000000000000000000000000000000000005f52603160045260245ffdfea26469706673582212204d486f72ec513cf79a6c3aed3191a8b5d303e86ff2c2d3a0e8b84026a4cd4faf64736f6c634300081a0033",
			"opcodes": "PUSH1 0x80 PUSH1 0x40 MSTORE CALLVALUE DUP1 ISZERO PUSH1 0xE JUMPI PUSH0 DUP1 REVERT JUMPDEST POP PUSH2 0x606 DUP1 PUSH2 0x1C PUSH0 CODECOPY PUSH0 RETURN INVALID PUSH1 0x80 PUSH1 0x40 MSTORE CALLVALUE DUP1 ISZERO PUSH2 0xF JUMPI PUSH0 DUP1 REVERT JUMPDEST POP PUSH1 0x4 CALLDATASIZE LT PUSH2 0x3F JUMPI PUSH0 CALLDATALOAD PUSH1 0xE0 SHR DUP1 PUSH4 0x25427CD4 EQ PUSH2 0x43 JUMPI DUP1 PUSH4 0x4CC82215 EQ PUSH2 0x5F JUMPI DUP1 PUSH4 0x89F915F6 EQ PUSH2 0x7B JUMPI JUMPDEST PUSH0 DUP1 REVERT JUMPDEST PUSH2 0x5D PUSH1 0x4 DUP1 CALLDATASIZE SUB DUP2 ADD SWAP1 PUSH2 0x58 SWAP2 SWAP1 PUSH2 0x39A JUMP JUMPDEST PUSH2 0x99 JUMP JUMPDEST STOP JUMPDEST PUSH2 0x79 PUSH1 0x4 DUP1 CALLDATASIZE SUB DUP2 ADD SWAP1 PUSH2 0x74 SWAP2 SWAP1 PUSH2 0x3E1 JUMP JUMPDEST PUSH2 0xB2 JUMP JUMPDEST STOP JUMPDEST PUSH2 0x83 PUSH2 0x14B JUMP JUMPDEST PUSH1 0x40 MLOAD PUSH2 0x90 SWAP2 SWAP1 PUSH2 0x4C3 JUMP JUMPDEST PUSH1 0x40 MLOAD DUP1 SWAP2 SUB SWAP1 RETURN JUMPDEST DUP1 PUSH0 SWAP1 DUP1 MLOAD SWAP1 PUSH1 0x20 ADD SWAP1 PUSH2 0xAE SWAP3 SWAP2 SWAP1 PUSH2 0x1A0 JUMP JUMPDEST POP POP JUMP JUMPDEST PUSH0 DUP2 SWAP1 POP JUMPDEST PUSH1 0x1 PUSH0 DUP1 SLOAD SWAP1 POP PUSH2 0xC8 SWAP2 SWAP1 PUSH2 0x510 JUMP JUMPDEST DUP2 LT ISZERO PUSH2 0x123 JUMPI PUSH0 PUSH1 0x1 DUP3 PUSH2 0xDD SWAP2 SWAP1 PUSH2 0x543 JUMP JUMPDEST DUP2 SLOAD DUP2 LT PUSH2 0xEE JUMPI PUSH2 0xED PUSH2 0x576 JUMP JUMPDEST JUMPDEST SWAP1 PUSH0 MSTORE PUSH1 0x20 PUSH0 KECCAK256 ADD SLOAD PUSH0 DUP3 DUP2 SLOAD DUP2 LT PUSH2 0x10A JUMPI PUSH2 0x109 PUSH2 0x576 JUMP JUMPDEST JUMPDEST SWAP1 PUSH0 MSTORE PUSH1 0x20 PUSH0 KECCAK256 ADD DUP2 SWAP1 SSTORE POP DUP1 DUP1 PUSH1 0x1 ADD SWAP2 POP POP PUSH2 0xB7 JUMP JUMPDEST POP PUSH0 DUP1 SLOAD DUP1 PUSH2 0x135 JUMPI PUSH2 0x134 PUSH2 0x5A3 JUMP JUMPDEST JUMPDEST PUSH1 0x1 SWAP1 SUB DUP2 DUP2 SWAP1 PUSH0 MSTORE PUSH1 0x20 PUSH0 KECCAK256 ADD PUSH0 SWAP1 SSTORE SWAP1 SSTORE POP JUMP JUMPDEST PUSH1 0x60 PUSH0 DUP1 SLOAD DUP1 PUSH1 0x20 MUL PUSH1 0x20 ADD PUSH1 0x40 MLOAD SWAP1 DUP2 ADD PUSH1 0x40 MSTORE DUP1 SWAP3 SWAP2 SWAP1 DUP2 DUP2 MSTORE PUSH1 0x20 ADD DUP3 DUP1 SLOAD DUP1 ISZERO PUSH2 0x196 JUMPI PUSH1 0x20 MUL DUP3 ADD SWAP2 SWAP1 PUSH0 MSTORE PUSH1 0x20 PUSH0 KECCAK256 SWAP1 JUMPDEST DUP2 SLOAD DUP2 MSTORE PUSH1 0x20 ADD SWAP1 PUSH1 0x1 ADD SWAP1 DUP1 DUP4 GT PUSH2 0x182 JUMPI JUMPDEST POP POP POP POP POP SWAP1 POP SWAP1 JUMP JUMPDEST DUP3 DUP1 SLOAD DUP3 DUP3 SSTORE SWAP1 PUSH0 MSTORE PUSH1 0x20 PUSH0 KECCAK256 SWAP1 DUP2 ADD SWAP3 DUP3 ISZERO PUSH2 0x1DA JUMPI SWAP2 PUSH1 0x20 MUL DUP3 ADD JUMPDEST DUP3 DUP2 GT ISZERO PUSH2 0x1D9 JUMPI DUP3 MLOAD DUP3 SSTORE SWAP2 PUSH1 0x20 ADD SWAP2 SWAP1 PUSH1 0x1 ADD SWAP1 PUSH2 0x1BE JUMP JUMPDEST JUMPDEST POP SWAP1 POP PUSH2 0x1E7 SWAP2 SWAP1 PUSH2 0x1EB JUMP JUMPDEST POP SWAP1 JUMP JUMPDEST JUMPDEST DUP1 DUP3 GT ISZERO PUSH2 0x202 JUMPI PUSH0 DUP2 PUSH0 SWAP1 SSTORE POP PUSH1 0x1 ADD PUSH2 0x1EC JUMP JUMPDEST POP SWAP1 JUMP JUMPDEST PUSH0 PUSH1 0x40 MLOAD SWAP1 POP SWAP1 JUMP JUMPDEST PUSH0 DUP1 REVERT JUMPDEST PUSH0 DUP1 REVERT JUMPDEST PUSH0 DUP1 REVERT JUMPDEST PUSH0 PUSH1 0x1F NOT PUSH1 0x1F DUP4 ADD AND SWAP1 POP SWAP2 SWAP1 POP JUMP JUMPDEST PUSH32 0x4E487B7100000000000000000000000000000000000000000000000000000000 PUSH0 MSTORE PUSH1 0x41 PUSH1 0x4 MSTORE PUSH1 0x24 PUSH0 REVERT JUMPDEST PUSH2 0x261 DUP3 PUSH2 0x21B JUMP JUMPDEST DUP2 ADD DUP2 DUP2 LT PUSH8 0xFFFFFFFFFFFFFFFF DUP3 GT OR ISZERO PUSH2 0x280 JUMPI PUSH2 0x27F PUSH2 0x22B JUMP JUMPDEST JUMPDEST DUP1 PUSH1 0x40 MSTORE POP POP POP JUMP JUMPDEST PUSH0 PUSH2 0x292 PUSH2 0x206 JUMP JUMPDEST SWAP1 POP PUSH2 0x29E DUP3 DUP3 PUSH2 0x258 JUMP JUMPDEST SWAP2 SWAP1 POP JUMP JUMPDEST PUSH0 PUSH8 0xFFFFFFFFFFFFFFFF DUP3 GT ISZERO PUSH2 0x2BD JUMPI PUSH2 0x2BC PUSH2 0x22B JUMP JUMPDEST JUMPDEST PUSH1 0x20 DUP3 MUL SWAP1 POP PUSH1 0x20 DUP2 ADD SWAP1 POP SWAP2 SWAP1 POP JUMP JUMPDEST PUSH0 DUP1 REVERT JUMPDEST PUSH0 DUP2 SWAP1 POP SWAP2 SWAP1 POP JUMP JUMPDEST PUSH2 0x2E4 DUP2 PUSH2 0x2D2 JUMP JUMPDEST DUP2 EQ PUSH2 0x2EE JUMPI PUSH0 DUP1 REVERT JUMPDEST POP JUMP JUMPDEST PUSH0 DUP2 CALLDATALOAD SWAP1 POP PUSH2 0x2FF DUP2 PUSH2 0x2DB JUMP JUMPDEST SWAP3 SWAP2 POP POP JUMP JUMPDEST PUSH0 PUSH2 0x317 PUSH2 0x312 DUP5 PUSH2 0x2A3 JUMP JUMPDEST PUSH2 0x289 JUMP JUMPDEST SWAP1 POP DUP1 DUP4 DUP3 MSTORE PUSH1 0x20 DUP3 ADD SWAP1 POP PUSH1 0x20 DUP5 MUL DUP4 ADD DUP6 DUP2 GT ISZERO PUSH2 0x33A JUMPI PUSH2 0x339 PUSH2 0x2CE JUMP JUMPDEST JUMPDEST DUP4 JUMPDEST DUP2 DUP2 LT ISZERO PUSH2 0x363 JUMPI DUP1 PUSH2 0x34F DUP9 DUP3 PUSH2 0x2F1 JUMP JUMPDEST DUP5 MSTORE PUSH1 0x20 DUP5 ADD SWAP4 POP POP PUSH1 0x20 DUP2 ADD SWAP1 POP PUSH2 0x33C JUMP JUMPDEST POP POP POP SWAP4 SWAP3 POP POP POP JUMP JUMPDEST PUSH0 DUP3 PUSH1 0x1F DUP4 ADD SLT PUSH2 0x381 JUMPI PUSH2 0x380 PUSH2 0x217 JUMP JUMPDEST JUMPDEST DUP2 CALLDATALOAD PUSH2 0x391 DUP5 DUP3 PUSH1 0x20 DUP7 ADD PUSH2 0x305 JUMP JUMPDEST SWAP2 POP POP SWAP3 SWAP2 POP POP JUMP JUMPDEST PUSH0 PUSH1 0x20 DUP3 DUP5 SUB SLT ISZERO PUSH2 0x3AF JUMPI PUSH2 0x3AE PUSH2 0x20F JUMP JUMPDEST JUMPDEST PUSH0 DUP3 ADD CALLDATALOAD PUSH8 0xFFFFFFFFFFFFFFFF DUP2 GT ISZERO PUSH2 0x3CC JUMPI PUSH2 0x3CB PUSH2 0x213 JUMP JUMPDEST JUMPDEST PUSH2 0x3D8 DUP5 DUP3 DUP6 ADD PUSH2 0x36D JUMP JUMPDEST SWAP2 POP POP SWAP3 SWAP2 POP POP JUMP JUMPDEST PUSH0 PUSH1 0x20 DUP3 DUP5 SUB SLT ISZERO PUSH2 0x3F6 JUMPI PUSH2 0x3F5 PUSH2 0x20F JUMP JUMPDEST JUMPDEST PUSH0 PUSH2 0x403 DUP5 DUP3 DUP6 ADD PUSH2 0x2F1 JUMP JUMPDEST SWAP2 POP POP SWAP3 SWAP2 POP POP JUMP JUMPDEST PUSH0 DUP2 MLOAD SWAP1 POP SWAP2 SWAP1 POP JUMP JUMPDEST PUSH0 DUP3 DUP3 MSTORE PUSH1 0x20 DUP3 ADD SWAP1 POP SWAP3 SWAP2 POP POP JUMP JUMPDEST PUSH0 DUP2 SWAP1 POP PUSH1 0x20 DUP3 ADD SWAP1 POP SWAP2 SWAP1 POP JUMP JUMPDEST PUSH2 0x43E DUP2 PUSH2 0x2D2 JUMP JUMPDEST DUP3 MSTORE POP POP JUMP JUMPDEST PUSH0 PUSH2 0x44F DUP4 DUP4 PUSH2 0x435 JUMP JUMPDEST PUSH1 0x20 DUP4 ADD SWAP1 POP SWAP3 SWAP2 POP POP JUMP JUMPDEST PUSH0 PUSH1 0x20 DUP3 ADD SWAP1 POP SWAP2 SWAP1 POP JUMP JUMPDEST PUSH0 PUSH2 0x471 DUP3 PUSH2 0x40C JUMP JUMPDEST PUSH2 0x47B DUP2 DUP6 PUSH2 0x416 JUMP JUMPDEST SWAP4 POP PUSH2 0x486 DUP4 PUSH2 0x426 JUMP JUMPDEST DUP1 PUSH0 JUMPDEST DUP4 DUP2 LT ISZERO PUSH2 0x4B6 JUMPI DUP2 MLOAD PUSH2 0x49D DUP9 DUP3 PUSH2 0x444 JUMP JUMPDEST SWAP8 POP PUSH2 0x4A8 DUP4 PUSH2 0x45B JUMP JUMPDEST SWAP3 POP POP PUSH1 0x1 DUP2 ADD SWAP1 POP PUSH2 0x489 JUMP JUMPDEST POP DUP6 SWAP4 POP POP POP POP SWAP3 SWAP2 POP POP JUMP JUMPDEST PUSH0 PUSH1 0x20 DUP3 ADD SWAP1 POP DUP2 DUP2 SUB PUSH0 DUP4 ADD MSTORE PUSH2 0x4DB DUP2 DUP5 PUSH2 0x467 JUMP JUMPDEST SWAP1 POP SWAP3 SWAP2 POP POP JUMP JUMPDEST PUSH32 0x4E487B7100000000000000000000000000000000000000000000000000000000 PUSH0 MSTORE PUSH1 0x11 PUSH1 0x4 MSTORE PUSH1 0x24 PUSH0 REVERT JUMPDEST PUSH0 PUSH2 0x51A DUP3 PUSH2 0x2D2 JUMP JUMPDEST SWAP2 POP PUSH2 0x525 DUP4 PUSH2 0x2D2 JUMP JUMPDEST SWAP3 POP DUP3 DUP3 SUB SWAP1 POP DUP2 DUP2 GT ISZERO PUSH2 0x53D JUMPI PUSH2 0x53C PUSH2 0x4E3 JUMP JUMPDEST JUMPDEST SWAP3 SWAP2 POP POP JUMP JUMPDEST PUSH0 PUSH2 0x54D DUP3 PUSH2 0x2D2 JUMP JUMPDEST SWAP2 POP PUSH2 0x558 DUP4 PUSH2 0x2D2 JUMP JUMPDEST SWAP3 POP DUP3 DUP3 ADD SWAP1 POP DUP1 DUP3 GT ISZERO PUSH2 0x570 JUMPI PUSH2 0x56F PUSH2 0x4E3 JUMP JUMPDEST JUMPDEST SWAP3 SWAP2 POP POP JUMP JUMPDEST PUSH32 0x4E487B7100000000000000000000000000000000000000000000000000000000 PUSH0 MSTORE PUSH1 0x32 PUSH1 0x4 MSTORE PUSH1 0x24 PUSH0 REVERT JUMPDEST PUSH32 0x4E487B7100000000000000000000000000000000000000000000000000000000 PUSH0 MSTORE PUSH1 0x31 PUSH1 0x4 MSTORE PUSH1 0x24 PUSH0 REVERT INVALID LOG2 PUSH5 0x6970667358 0x22 SLT KECCAK256 0x4D BASEFEE PUSH16 0x72EC513CF79A6C3AED3191A8B5D303E8 PUSH16 0xF2C2D3A0E8B84026A4CD4FAF64736F6C PUSH4 0x4300081A STOP CALLER "
		},
		"gasEstimates": {
			"creation": {
				"codeDepositCost": "308400",
				"executionCost": "347",
				"totalCost": "308747"
			},
			"external": {
				"getNumbers()": "infinite",
				"remove(uint256)": "infinite",
				"setNumbers(uint256[])": "infinite"
			}
		},
		"methodIdentifiers": {
			"getNumbers()": "89f915f6",
			"remove(uint256)": "4cc82215",
			"setNumbers(uint256[])": "25427cd4"
		}
	},
	"abi": [
		{
			"inputs": [],
			"name": "getNumbers",
			"outputs": [
				{
					"internalType": "uint256[]",
					"name": "",
					"type": "uint256[]"
				}
			],
			"stateMutability": "view",
			"type": "function"
		},
		{
			"inputs": [
				{
					"internalType": "uint256",
					"name": "_k",
					"type": "uint256"
				}
			],
			"name": "remove",
			"outputs": [],
			"stateMutability": "nonpayable",
			"type": "function"
		},
		{
			"inputs": [
				{
					"internalType": "uint256[]",
					"name": "_numbers",
					"type": "uint256[]"
				}
			],
			"name": "setNumbers",
			"outputs": [],
			"stateMutability": "nonpayable",
			"type": "function"
		}
	]
}