{
	"data": {
		"bytecode": {
			"linkReferences": {},
			"object": "6080604052348015600e575f80fd5b506102098061001c5f395ff3fe608060405234801561000f575f80fd5b5060043610610029575f3560e01c8063131e2f181461002d575b5f80fd5b610047600480360381019061004291906100b5565b61005d565b60405161005491906100ef565b60405180910390f35b5f600a600b8361006d9190610135565b61007791906101a3565b9050919050565b5f80fd5b5f819050919050565b61009481610082565b811461009e575f80fd5b50565b5f813590506100af8161008b565b92915050565b5f602082840312156100ca576100c961007e565b5b5f6100d7848285016100a1565b91505092915050565b6100e981610082565b82525050565b5f6020820190506101025f8301846100e0565b92915050565b7f4e487b71000000000000000000000000000000000000000000000000000000005f52601160045260245ffd5b5f61013f82610082565b915061014a83610082565b925082820261015881610082565b9150828204841483151761016f5761016e610108565b5b5092915050565b7f4e487b71000000000000000000000000000000000000000000000000000000005f52601260045260245ffd5b5f6101ad82610082565b91506101b883610082565b9250826101c8576101c7610176565b5b82820490509291505056fea26469706673582212200dc312c0ec726a6a9977c2129ce7ec2bad825355531dd33016321669e4d8519a64736f6c634300081a0033",
			"opcodes": "PUSH1 0x80 PUSH1 0x40 MSTORE CALLVALUE DUP1 ISZERO PUSH1 0xE JUMPI PUSH0 DUP1 REVERT JUMPDEST POP PUSH2 0x209 DUP1 PUSH2 0x1C PUSH0 CODECOPY PUSH0 RETURN INVALID PUSH1 0x80 PUSH1 0x40 MSTORE CALLVALUE DUP1 ISZERO PUSH2 0xF JUMPI PUSH0 DUP1 REVERT JUMPDEST POP PUSH1 0x4 CALLDATASIZE LT PUSH2 0x29 JUMPI PUSH0 CALLDATALOAD PUSH1 0xE0 SHR DUP1 PUSH4 0x131E2F18 EQ PUSH2 0x2D JUMPI JUMPDEST PUSH0 DUP1 REVERT JUMPDEST PUSH2 0x47 PUSH1 0x4 DUP1 CALLDATASIZE SUB DUP2 ADD SWAP1 PUSH2 0x42 SWAP2 SWAP1 PUSH2 0xB5 JUMP JUMPDEST PUSH2 0x5D JUMP JUMPDEST PUSH1 0x40 MLOAD PUSH2 0x54 SWAP2 SWAP1 PUSH2 0xEF JUMP JUMPDEST PUSH1 0x40 MLOAD DUP1 SWAP2 SUB SWAP1 RETURN JUMPDEST PUSH0 PUSH1 0xA PUSH1 0xB DUP4 PUSH2 0x6D SWAP2 SWAP1 PUSH2 0x135 JUMP JUMPDEST PUSH2 0x77 SWAP2 SWAP1 PUSH2 0x1A3 JUMP JUMPDEST SWAP1 POP SWAP2 SWAP1 POP JUMP JUMPDEST PUSH0 DUP1 REVERT JUMPDEST PUSH0 DUP2 SWAP1 POP SWAP2 SWAP1 POP JUMP JUMPDEST PUSH2 0x94 DUP2 PUSH2 0x82 JUMP JUMPDEST DUP2 EQ PUSH2 0x9E JUMPI PUSH0 DUP1 REVERT JUMPDEST POP JUMP JUMPDEST PUSH0 DUP2 CALLDATALOAD SWAP1 POP PUSH2 0xAF DUP2 PUSH2 0x8B JUMP JUMPDEST SWAP3 SWAP2 POP POP JUMP JUMPDEST PUSH0 PUSH1 0x20 DUP3 DUP5 SUB SLT ISZERO PUSH2 0xCA JUMPI PUSH2 0xC9 PUSH2 0x7E JUMP JUMPDEST JUMPDEST PUSH0 PUSH2 0xD7 DUP5 DUP3 DUP6 ADD PUSH2 0xA1 JUMP JUMPDEST SWAP2 POP POP SWAP3 SWAP2 POP POP JUMP JUMPDEST PUSH2 0xE9 DUP2 PUSH2 0x82 JUMP JUMPDEST DUP3 MSTORE POP POP JUMP JUMPDEST PUSH0 PUSH1 0x20 DUP3 ADD SWAP1 POP PUSH2 0x102 PUSH0 DUP4 ADD DUP5 PUSH2 0xE0 JUMP JUMPDEST SWAP3 SWAP2 POP POP JUMP JUMPDEST PUSH32 0x4E487B7100000000000000000000000000000000000000000000000000000000 PUSH0 MSTORE PUSH1 0x11 PUSH1 0x4 MSTORE PUSH1 0x24 PUSH0 REVERT JUMPDEST PUSH0 PUSH2 0x13F DUP3 PUSH2 0x82 JUMP JUMPDEST SWAP2 POP PUSH2 0x14A DUP4 PUSH2 0x82 JUMP JUMPDEST SWAP3 POP DUP3 DUP3 MUL PUSH2 0x158 DUP2 PUSH2 0x82 JUMP JUMPDEST SWAP2 POP DUP3 DUP3 DIV DUP5 EQ DUP4 ISZERO OR PUSH2 0x16F JUMPI PUSH2 0x16E PUSH2 0x108 JUMP JUMPDEST JUMPDEST POP SWAP3 SWAP2 POP POP JUMP JUMPDEST PUSH32 0x4E487B7100000000000000000000000000000000000000000000000000000000 PUSH0 MSTORE PUSH1 0x12 PUSH1 0x4 MSTORE PUSH1 0x24 PUSH0 REVERT JUMPDEST PUSH0 PUSH2 0x1AD DUP3 PUSH2 0x82 JUMP JUMPDEST SWAP2 POP PUSH2 0x1B8 DUP4 PUSH2 0x82 JUMP JUMPDEST SWAP3 POP DUP3 PUSH2 0x1C8 JUMPI PUSH2 0x1C7 PUSH2 0x176 JUMP JUMPDEST JUMPDEST DUP3 DUP3 DIV SWAP1 POP SWAP3 SWAP2 POP POP JUMP INVALID LOG2 PUSH5 0x6970667358 0x22 SLT KECCAK256 0xD 0xC3 SLT 0xC0 0xEC PUSH19 0x6A6A9977C2129CE7EC2BAD825355531DD33016 ORIGIN AND PUSH10 0xE4D8519A64736F6C6343 STOP ADDMOD BYTE STOP CALLER "
		},
		"gasEstimates": {
			"creation": {
				"codeDepositCost": "104200",
				"executionCost": "151",
				"totalCost": "104351"
			},
			"external": {
				"mul(uint256)": "infinite"
			}
		},
		"methodIdentifiers": {
			"mul(uint256)": "131e2f18"
		}
	},
	"abi": [
		{
			"inputs": [
				{
					"internalType": "uint256",
					"name": "_num",
					"type": "uint256"
				}
			],
			"name": "mul",
			"outputs": [
				{
					"internalType": "uint256",
					"name": "",
					"type": "uint256"
				}
			],
			"stateMutability": "pure",
			"type": "function"
		}
	]
}