{
	"data": {
		"bytecode": {
			"linkReferences": {},
			"object": "6080604052348015600e575f80fd5b506105f58061001c5f395ff3fe608060405234801561000f575f80fd5b5060043610610034575f3560e01c806345c0b1dc146100385780639f2d4a2114610068575b5f80fd5b610052600480360381019061004d91906102cf565b610098565b60405161005f9190610309565b60405180910390f35b610082600480360381019061007d91906102cf565b6100c1565b60405161008f91906103c7565b60405180910390f35b5f6100a2826100c1565b6001600381106100b5576100b46103e0565b5b60200201519050919050565b6100c961012f565b5f8290505f5b60038110156101255760028282600381106100ed576100ec6103e0565b5b60200201516100fc9190610575565b82826003811061010f5761010e6103e0565b5b60200201818152505080806001019150506100cf565b5080915050919050565b6040518060600160405280600390602082028036833780820191505090505090565b5f604051905090565b5f80fd5b5f80fd5b5f601f19601f8301169050919050565b7f4e487b71000000000000000000000000000000000000000000000000000000005f52604160045260245ffd5b6101a882610162565b810181811067ffffffffffffffff821117156101c7576101c6610172565b5b80604052505050565b5f6101d9610151565b90506101e5828261019f565b919050565b5f67ffffffffffffffff82111561020457610203610172565b5b602082029050919050565b5f80fd5b5f819050919050565b61022581610213565b811461022f575f80fd5b50565b5f813590506102408161021c565b92915050565b5f610258610253846101ea565b6101d0565b905080602084028301858111156102725761027161020f565b5b835b8181101561029b57806102878882610232565b845260208401935050602081019050610274565b5050509392505050565b5f82601f8301126102b9576102b861015e565b5b60036102c6848285610246565b91505092915050565b5f606082840312156102e4576102e361015a565b5b5f6102f1848285016102a5565b91505092915050565b61030381610213565b82525050565b5f60208201905061031c5f8301846102fa565b92915050565b5f60039050919050565b5f81905092915050565b5f819050919050565b61034881610213565b82525050565b5f610359838361033f565b60208301905092915050565b5f602082019050919050565b61037a81610322565b610384818461032c565b925061038f82610336565b805f5b838110156103bf5781516103a6878261034e565b96506103b183610365565b925050600181019050610392565b505050505050565b5f6060820190506103da5f830184610371565b92915050565b7f4e487b71000000000000000000000000000000000000000000000000000000005f52603260045260245ffd5b7f4e487b71000000000000000000000000000000000000000000000000000000005f52601160045260245ffd5b5f8160011c9050919050565b5f808291508390505b600185111561048f5780860481111561046b5761046a61040d565b5b600185161561047a5780820291505b80810290506104888561043a565b945061044f565b94509492505050565b5f826104a75760019050610562565b816104b4575f9050610562565b81600181146104ca57600281146104d457610503565b6001915050610562565b60ff8411156104e6576104e561040d565b5b8360020a9150848211156104fd576104fc61040d565b5b50610562565b5060208310610133831016604e8410600b84101617156105385782820a9050838111156105335761053261040d565b5b610562565b6105458484846001610446565b9250905081840481111561055c5761055b61040d565b5b81810290505b9392505050565b5f60ff82169050919050565b5f61057f82610213565b915061058a83610569565b92506105b77fffffffffffffffffffffffffffffffffffffffffffffffffffffffffffffffff8484610498565b90509291505056fea2646970667358221220a993d826d594b267bd3a9bf5aed898f16f91e928df1d88076421effb35d1bea864736f6c634300081a0033",
			"opcodes": "PUSH1 0x80 PUSH1 0x40 MSTORE CALLVALUE DUP1 ISZERO PUSH1 0xE JUMPI PUSH0 DUP1 REVERT JUMPDEST POP PUSH2 0x5F5 DUP1 PUSH2 0x1C PUSH0 CODECOPY PUSH0 RETURN INVALID PUSH1 0x80 PUSH1 0x40 MSTORE CALLVALUE DUP1 ISZERO PUSH2 0xF JUMPI PUSH0 DUP1 REVERT JUMPDEST POP PUSH1 0x4 CALLDATASIZE LT PUSH2 0x34 JUMPI PUSH0 CALLDATALOAD PUSH1 0xE0 SHR DUP1 PUSH4 0x45C0B1DC EQ PUSH2 0x38 JUMPI DUP1 PUSH4 0x9F2D4A21 EQ PUSH2 0x68 JUMPI JUMPDEST PUSH0 DUP1 REVERT JUMPDEST PUSH2 0x52 PUSH1 0x4 DUP1 CALLDATASIZE SUB DUP2 ADD SWAP1 PUSH2 0x4D SWAP2 SWAP1 PUSH2 0x2CF JUMP JUMPDEST PUSH2 0x98 JUMP JUMPDEST PUSH1 0x40 MLOAD PUSH2 0x5F SWAP2 SWAP1 PUSH2 0x309 JUMP JUMPDEST PUSH1 0x40 MLOAD DUP1 SWAP2 SUB SWAP1 RETURN JUMPDEST PUSH2 0x82 PUSH1 0x4 DUP1 CALLDATASIZE SUB DUP2 ADD SWAP1 PUSH2 0x7D SWAP2 SWAP1 PUSH2 0x2CF JUMP JUMPDEST PUSH2 0xC1 JUMP JUMPDEST PUSH1 0x40 MLOAD PUSH2 0x8F SWAP2 SWAP1 PUSH2 0x3C7 JUMP JUMPDEST PUSH1 0x40 MLOAD DUP1 SWAP2 SUB SWAP1 RETURN JUMPDEST PUSH0 PUSH2 0xA2 DUP3 PUSH2 0xC1 JUMP JUMPDEST PUSH1 0x1 PUSH1 0x3 DUP2 LT PUSH2 0xB5 JUMPI PUSH2 0xB4 PUSH2 0x3E0 JUMP JUMPDEST JUMPDEST PUSH1 0x20 MUL ADD MLOAD SWAP1 POP SWAP2 SWAP1 POP JUMP JUMPDEST PUSH2 0xC9 PUSH2 0x12F JUMP JUMPDEST PUSH0 DUP3 SWAP1 POP PUSH0 JUMPDEST PUSH1 0x3 DUP2 LT ISZERO PUSH2 0x125 JUMPI PUSH1 0x2 DUP3 DUP3 PUSH1 0x3 DUP2 LT PUSH2 0xED JUMPI PUSH2 0xEC PUSH2 0x3E0 JUMP JUMPDEST JUMPDEST PUSH1 0x20 MUL ADD MLOAD PUSH2 0xFC SWAP2 SWAP1 PUSH2 0x575 JUMP JUMPDEST DUP3 DUP3 PUSH1 0x3 DUP2 LT PUSH2 0x10F JUMPI PUSH2 0x10E PUSH2 0x3E0 JUMP JUMPDEST JUMPDEST PUSH1 0x20 MUL ADD DUP2 DUP2 MSTORE POP POP DUP1 DUP1 PUSH1 0x1 ADD SWAP2 POP POP PUSH2 0xCF JUMP JUMPDEST POP DUP1 SWAP2 POP POP SWAP2 SWAP1 POP JUMP JUMPDEST PUSH1 0x40 MLOAD DUP1 PUSH1 0x60 ADD PUSH1 0x40 MSTORE DUP1 PUSH1 0x3 SWAP1 PUSH1 0x20 DUP3 MUL DUP1 CALLDATASIZE DUP4 CALLDATACOPY DUP1 DUP3 ADD SWAP2 POP POP SWAP1 POP POP SWAP1 JUMP JUMPDEST PUSH0 PUSH1 0x40 MLOAD SWAP1 POP SWAP1 JUMP JUMPDEST PUSH0 DUP1 REVERT JUMPDEST PUSH0 DUP1 REVERT JUMPDEST PUSH0 PUSH1 0x1F NOT PUSH1 0x1F DUP4 ADD AND SWAP1 POP SWAP2 SWAP1 POP JUMP JUMPDEST PUSH32 0x4E487B7100000000000000000000000000000000000000000000000000000000 PUSH0 MSTORE PUSH1 0x41 PUSH1 0x4 MSTORE PUSH1 0x24 PUSH0 REVERT JUMPDEST PUSH2 0x1A8 DUP3 PUSH2 0x162 JUMP JUMPDEST DUP2 ADD DUP2 DUP2 LT PUSH8 0xFFFFFFFFFFFFFFFF DUP3 GT OR ISZERO PUSH2 0x1C7 JUMPI PUSH2 0x1C6 PUSH2 0x172 JUMP JUMPDEST JUMPDEST DUP1 PUSH1 0x40 MSTORE POP POP POP JUMP JUMPDEST PUSH0 PUSH2 0x1D9 PUSH2 0x151 JUMP JUMPDEST SWAP1 POP PUSH2 0x1E5 DUP3 DUP3 PUSH2 0x19F JUMP JUMPDEST SWAP2 SWAP1 POP JUMP JUMPDEST PUSH0 PUSH8 0xFFFFFFFFFFFFFFFF DUP3 GT ISZERO PUSH2 0x204 JUMPI PUSH2 0x203 PUSH2 0x172 JUMP JUMPDEST JUMPDEST PUSH1 0x20 DUP3 MUL SWAP1 POP SWAP2 SWAP1 POP JUMP JUMPDEST PUSH0 DUP1 REVERT JUMPDEST PUSH0 DUP2 SWAP1 POP SWAP2 SWAP1 POP JUMP JUMPDEST PUSH2 0x225 DUP2 PUSH2 0x213 JUMP JUMPDEST DUP2 EQ PUSH2 0x22F JUMPI PUSH0 DUP1 REVERT JUMPDEST POP JUMP JUMPDEST PUSH0 DUP2 CALLDATALOAD SWAP1 POP PUSH2 0x240 DUP2 PUSH2 0x21C JUMP JUMPDEST SWAP3 SWAP2 POP POP JUMP JUMPDEST PUSH0 PUSH2 0x258 PUSH2 0x253 DUP5 PUSH2 0x1EA JUMP JUMPDEST PUSH2 0x1D0 JUMP JUMPDEST SWAP1 POP DUP1 PUSH1 0x20 DUP5 MUL DUP4 ADD DUP6 DUP2 GT ISZERO PUSH2 0x272 JUMPI PUSH2 0x271 PUSH2 0x20F JUMP JUMPDEST JUMPDEST DUP4 JUMPDEST DUP2 DUP2 LT ISZERO PUSH2 0x29B JUMPI DUP1 PUSH2 0x287 DUP9 DUP3 PUSH2 0x232 JUMP JUMPDEST DUP5 MSTORE PUSH1 0x20 DUP5 ADD SWAP4 POP POP PUSH1 0x20 DUP2 ADD SWAP1 POP PUSH2 0x274 JUMP JUMPDEST POP POP POP SWAP4 SWAP3 POP POP POP JUMP JUMPDEST PUSH0 DUP3 PUSH1 0x1F DUP4 ADD SLT PUSH2 0x2B9 JUMPI PUSH2 0x2B8 PUSH2 0x15E JUMP JUMPDEST JUMPDEST PUSH1 0x3 PUSH2 0x2C6 DUP5 DUP3 DUP6 PUSH2 0x246 JUMP JUMPDEST SWAP2 POP POP SWAP3 SWAP2 POP POP JUMP JUMPDEST PUSH0 PUSH1 0x60 DUP3 DUP5 SUB SLT ISZERO PUSH2 0x2E4 JUMPI PUSH2 0x2E3 PUSH2 0x15A JUMP JUMPDEST JUMPDEST PUSH0 PUSH2 0x2F1 DUP5 DUP3 DUP6 ADD PUSH2 0x2A5 JUMP JUMPDEST SWAP2 POP POP SWAP3 SWAP2 POP POP JUMP JUMPDEST PUSH2 0x303 DUP2 PUSH2 0x213 JUMP JUMPDEST DUP3 MSTORE POP POP JUMP JUMPDEST PUSH0 PUSH1 0x20 DUP3 ADD SWAP1 POP PUSH2 0x31C PUSH0 DUP4 ADD DUP5 PUSH2 0x2FA JUMP JUMPDEST SWAP3 SWAP2 POP POP JUMP JUMPDEST PUSH0 PUSH1 0x3 SWAP1 POP SWAP2 SWAP1 POP JUMP JUMPDEST PUSH0 DUP2 SWAP1 POP SWAP3 SWAP2 POP POP JUMP JUMPDEST PUSH0 DUP2 SWAP1 POP SWAP2 SWAP1 POP JUMP JUMPDEST PUSH2 0x348 DUP2 PUSH2 0x213 JUMP JUMPDEST DUP3 MSTORE POP POP JUMP JUMPDEST PUSH0 PUSH2 0x359 DUP4 DUP4 PUSH2 0x33F JUMP JUMPDEST PUSH1 0x20 DUP4 ADD SWAP1 POP SWAP3 SWAP2 POP POP JUMP JUMPDEST PUSH0 PUSH1 0x20 DUP3 ADD SWAP1 POP SWAP2 SWAP1 POP JUMP JUMPDEST PUSH2 0x37A DUP2 PUSH2 0x322 JUMP JUMPDEST PUSH2 0x384 DUP2 DUP5 PUSH2 0x32C JUMP JUMPDEST SWAP3 POP PUSH2 0x38F DUP3 PUSH2 0x336 JUMP JUMPDEST DUP1 PUSH0 JUMPDEST DUP4 DUP2 LT ISZERO PUSH2 0x3BF JUMPI DUP2 MLOAD PUSH2 0x3A6 DUP8 DUP3 PUSH2 0x34E JUMP JUMPDEST SWAP7 POP PUSH2 0x3B1 DUP4 PUSH2 0x365 JUMP JUMPDEST SWAP3 POP POP PUSH1 0x1 DUP2 ADD SWAP1 POP PUSH2 0x392 JUMP JUMPDEST POP POP POP POP POP POP JUMP JUMPDEST PUSH0 PUSH1 0x60 DUP3 ADD SWAP1 POP PUSH2 0x3DA PUSH0 DUP4 ADD DUP5 PUSH2 0x371 JUMP JUMPDEST SWAP3 SWAP2 POP POP JUMP JUMPDEST PUSH32 0x4E487B7100000000000000000000000000000000000000000000000000000000 PUSH0 MSTORE PUSH1 0x32 PUSH1 0x4 MSTORE PUSH1 0x24 PUSH0 REVERT JUMPDEST PUSH32 0x4E487B7100000000000000000000000000000000000000000000000000000000 PUSH0 MSTORE PUSH1 0x11 PUSH1 0x4 MSTORE PUSH1 0x24 PUSH0 REVERT JUMPDEST PUSH0 DUP2 PUSH1 0x1 SHR SWAP1 POP SWAP2 SWAP1 POP JUMP JUMPDEST PUSH0 DUP1 DUP3 SWAP2 POP DUP4 SWAP1 POP JUMPDEST PUSH1 0x1 DUP6 GT ISZERO PUSH2 0x48F JUMPI DUP1 DUP7 DIV DUP2 GT ISZERO PUSH2 0x46B JUMPI PUSH2 0x46A PUSH2 0x40D JUMP JUMPDEST JUMPDEST PUSH1 0x1 DUP6 AND ISZERO PUSH2 0x47A JUMPI DUP1 DUP3 MUL SWAP2 POP JUMPDEST DUP1 DUP2 MUL SWAP1 POP PUSH2 0x488 DUP6 PUSH2 0x43A JUMP JUMPDEST SWAP5 POP PUSH2 0x44F JUMP JUMPDEST SWAP5 POP SWAP5 SWAP3 POP POP POP JUMP JUMPDEST PUSH0 DUP3 PUSH2 0x4A7 JUMPI PUSH1 0x1 SWAP1 POP PUSH2 0x562 JUMP JUMPDEST DUP2 PUSH2 0x4B4 JUMPI PUSH0 SWAP1 POP PUSH2 0x562 JUMP JUMPDEST DUP2 PUSH1 0x1 DUP2 EQ PUSH2 0x4CA JUMPI PUSH1 0x2 DUP2 EQ PUSH2 0x4D4 JUMPI PUSH2 0x503 JUMP JUMPDEST PUSH1 0x1 SWAP2 POP POP PUSH2 0x562 JUMP JUMPDEST PUSH1 0xFF DUP5 GT ISZERO PUSH2 0x4E6 JUMPI PUSH2 0x4E5 PUSH2 0x40D JUMP JUMPDEST JUMPDEST DUP4 PUSH1 0x2 EXP SWAP2 POP DUP5 DUP3 GT ISZERO PUSH2 0x4FD JUMPI PUSH2 0x4FC PUSH2 0x40D JUMP JUMPDEST JUMPDEST POP PUSH2 0x562 JUMP JUMPDEST POP PUSH1 0x20 DUP4 LT PUSH2 0x133 DUP4 LT AND PUSH1 0x4E DUP5 LT PUSH1 0xB DUP5 LT AND OR ISZERO PUSH2 0x538 JUMPI DUP3 DUP3 EXP SWAP1 POP DUP4 DUP2 GT ISZERO PUSH2 0x533 JUMPI PUSH2 0x532 PUSH2 0x40D JUMP JUMPDEST JUMPDEST PUSH2 0x562 JUMP JUMPDEST PUSH2 0x545 DUP5 DUP5 DUP5 PUSH1 0x1 PUSH2 0x446 JUMP JUMPDEST SWAP3 POP SWAP1 POP DUP2 DUP5 DIV DUP2 GT ISZERO PUSH2 0x55C JUMPI PUSH2 0x55B PUSH2 0x40D JUMP JUMPDEST JUMPDEST DUP2 DUP2 MUL SWAP1 POP JUMPDEST SWAP4 SWAP3 POP POP POP JUMP JUMPDEST PUSH0 PUSH1 0xFF DUP3 AND SWAP1 POP SWAP2 SWAP1 POP JUMP JUMPDEST PUSH0 PUSH2 0x57F DUP3 PUSH2 0x213 JUMP JUMPDEST SWAP2 POP PUSH2 0x58A DUP4 PUSH2 0x569 JUMP JUMPDEST SWAP3 POP PUSH2 0x5B7 PUSH32 0xFFFFFFFFFFFFFFFFFFFFFFFFFFFFFFFFFFFFFFFFFFFFFFFFFFFFFFFFFFFFFFFF DUP5 DUP5 PUSH2 0x498 JUMP JUMPDEST SWAP1 POP SWAP3 SWAP2 POP POP JUMP INVALID LOG2 PUSH5 0x6970667358 0x22 SLT KECCAK256 0xA9 SWAP4 0xD8 0x26 0xD5 SWAP5 0xB2 PUSH8 0xBD3A9BF5AED898F1 PUSH16 0x91E928DF1D88076421EFFB35D1BEA864 PUSH20 0x6F6C634300081A00330000000000000000000000 "
		},
		"gasEstimates": {
			"creation": {
				"codeDepositCost": "305000",
				"executionCost": "341",
				"totalCost": "305341"
			},
			"external": {
				"middleNumber(uint256[3])": "infinite",
				"power(uint256[3])": "infinite"
			}
		},
		"methodIdentifiers": {
			"middleNumber(uint256[3])": "45c0b1dc",
			"power(uint256[3])": "9f2d4a21"
		}
	},
	"abi": [
		{
			"inputs": [
				{
					"internalType": "uint256[3]",
					"name": "_numbers",
					"type": "uint256[3]"
				}
			],
			"name": "middleNumber",
			"outputs": [
				{
					"internalType": "uint256",
					"name": "",
					"type": "uint256"
				}
			],
			"stateMutability": "pure",
			"type": "function"
		},
		{
			"inputs": [
				{
					"internalType": "uint256[3]",
					"name": "_numbers",
					"type": "uint256[3]"
				}
			],
			"name": "power",
			"outputs": [
				{
					"internalType": "uint256[3]",
					"name": "",
					"type": "uint256[3]"
				}
			],
			"stateMutability": "pure",
			"type": "function"
		}
	]
}