{
	"data": {
		"bytecode": {
			"linkReferences": {},
			"object": "6080604052631234234260e01b5f806101000a81548163ffffffff021916908360e01c02179055503480156031575f80fd5b506101848061003f5f395ff3fe608060405234801561000f575f80fd5b5060043610610034575f3560e01c80634df7e3d0146100385780639167f11814610056575b5f80fd5b610040610072565b60405161004d91906100dc565b60405180910390f35b610070600480360381019061006b9190610123565b610082565b005b5f8054906101000a900460e01b81565b80515f600160208304016001600284020182558351602083205550505050565b5f7fffffffff0000000000000000000000000000000000000000000000000000000082169050919050565b6100d6816100a2565b82525050565b5f6020820190506100ef5f8301846100cd565b92915050565b5f80fd5b610102816100a2565b811461010c575f80fd5b50565b5f8135905061011d816100f9565b92915050565b5f60208284031215610138576101376100f5565b5b5f6101458482850161010f565b9150509291505056fea2646970667358221220bd2ebd88de66acb272499b645be8eab9c0172e3ed4b523b5e1f1b4af8d4251ff64736f6c634300081a0033",
			"opcodes": "PUSH1 0x80 PUSH1 0x40 MSTORE PUSH4 0x12342342 PUSH1 0xE0 SHL PUSH0 DUP1 PUSH2 0x100 EXP DUP2 SLOAD DUP2 PUSH4 0xFFFFFFFF MUL NOT AND SWAP1 DUP4 PUSH1 0xE0 SHR MUL OR SWAP1 SSTORE POP CALLVALUE DUP1 ISZERO PUSH1 0x31 JUMPI PUSH0 DUP1 REVERT JUMPDEST POP PUSH2 0x184 DUP1 PUSH2 0x3F PUSH0 CODECOPY PUSH0 RETURN INVALID PUSH1 0x80 PUSH1 0x40 MSTORE CALLVALUE DUP1 ISZERO PUSH2 0xF JUMPI PUSH0 DUP1 REVERT JUMPDEST POP PUSH1 0x4 CALLDATASIZE LT PUSH2 0x34 JUMPI PUSH0 CALLDATALOAD PUSH1 0xE0 SHR DUP1 PUSH4 0x4DF7E3D0 EQ PUSH2 0x38 JUMPI DUP1 PUSH4 0x9167F118 EQ PUSH2 0x56 JUMPI JUMPDEST PUSH0 DUP1 REVERT JUMPDEST PUSH2 0x40 PUSH2 0x72 JUMP JUMPDEST PUSH1 0x40 MLOAD PUSH2 0x4D SWAP2 SWAP1 PUSH2 0xDC JUMP JUMPDEST PUSH1 0x40 MLOAD DUP1 SWAP2 SUB SWAP1 RETURN JUMPDEST PUSH2 0x70 PUSH1 0x4 DUP1 CALLDATASIZE SUB DUP2 ADD SWAP1 PUSH2 0x6B SWAP2 SWAP1 PUSH2 0x123 JUMP JUMPDEST PUSH2 0x82 JUMP JUMPDEST STOP JUMPDEST PUSH0 DUP1 SLOAD SWAP1 PUSH2 0x100 EXP SWAP1 DIV PUSH1 0xE0 SHL DUP2 JUMP JUMPDEST DUP1 MLOAD PUSH0 PUSH1 0x1 PUSH1 0x20 DUP4 DIV ADD PUSH1 0x1 PUSH1 0x2 DUP5 MUL ADD DUP3 SSTORE DUP4 MLOAD PUSH1 0x20 DUP4 KECCAK256 SSTORE POP POP POP POP JUMP JUMPDEST PUSH0 PUSH32 0xFFFFFFFF00000000000000000000000000000000000000000000000000000000 DUP3 AND SWAP1 POP SWAP2 SWAP1 POP JUMP JUMPDEST PUSH2 0xD6 DUP2 PUSH2 0xA2 JUMP JUMPDEST DUP3 MSTORE POP POP JUMP JUMPDEST PUSH0 PUSH1 0x20 DUP3 ADD SWAP1 POP PUSH2 0xEF PUSH0 DUP4 ADD DUP5 PUSH2 0xCD JUMP JUMPDEST SWAP3 SWAP2 POP POP JUMP JUMPDEST PUSH0 DUP1 REVERT JUMPDEST PUSH2 0x102 DUP2 PUSH2 0xA2 JUMP JUMPDEST DUP2 EQ PUSH2 0x10C JUMPI PUSH0 DUP1 REVERT JUMPDEST POP JUMP JUMPDEST PUSH0 DUP2 CALLDATALOAD SWAP1 POP PUSH2 0x11D DUP2 PUSH2 0xF9 JUMP JUMPDEST SWAP3 SWAP2 POP POP JUMP JUMPDEST PUSH0 PUSH1 0x20 DUP3 DUP5 SUB SLT ISZERO PUSH2 0x138 JUMPI PUSH2 0x137 PUSH2 0xF5 JUMP JUMPDEST JUMPDEST PUSH0 PUSH2 0x145 DUP5 DUP3 DUP6 ADD PUSH2 0x10F JUMP JUMPDEST SWAP2 POP POP SWAP3 SWAP2 POP POP JUMP INVALID LOG2 PUSH5 0x6970667358 0x22 SLT KECCAK256 0xBD 0x2E 0xBD DUP9 0xDE PUSH7 0xACB272499B645B 0xE8 0xEA 0xB9 0xC0 OR 0x2E RETURNDATACOPY 0xD4 0xB5 0x23 0xB5 0xE1 CALL 0xB4 0xAF DUP14 TIMESTAMP MLOAD SELFDESTRUCT PUSH5 0x736F6C6343 STOP ADDMOD BYTE STOP CALLER "
		},
		"gasEstimates": {
			"creation": {
				"codeDepositCost": "77600",
				"executionCost": "24399",
				"totalCost": "101999"
			},
			"external": {
				"b()": "2441",
				"setB(bytes4)": "infinite"
			}
		},
		"methodIdentifiers": {
			"b()": "4df7e3d0",
			"setB(bytes4)": "9167f118"
		}
	},
	"abi": [
		{
			"inputs": [],
			"name": "b",
			"outputs": [
				{
					"internalType": "bytes4",
					"name": "",
					"type": "bytes4"
				}
			],
			"stateMutability": "view",
			"type": "function"
		},
		{
			"inputs": [
				{
					"internalType": "bytes4",
					"name": "_b",
					"type": "bytes4"
				}
			],
			"name": "setB",
			"outputs": [],
			"stateMutability": "nonpayable",
			"type": "function"
		}
	]
}