{
	"data": {
		"bytecode": {
			"linkReferences": {},
			"object": "6080604052348015600e575f80fd5b506104848061001c5f395ff3fe608060405234801561000f575f80fd5b5060043610610029575f3560e01c806338c9027a1461002d575b5f80fd5b61004760048036038101906100429190610133565b61005d565b604051610054919061016d565b60405180910390f35b5f60018210158015610070575060098211155b6100af576040517f08c379a00000000000000000000000000000000000000000000000000000000081526004016100a6906101e0565b60405180910390fd5b600382116100cb576002826100c49190610366565b90506100f7565b600682116100e7576002826100e091906103b0565b90506100f7565b6003826100f4919061041e565b90505b919050565b5f80fd5b5f819050919050565b61011281610100565b811461011c575f80fd5b50565b5f8135905061012d81610109565b92915050565b5f60208284031215610148576101476100fc565b5b5f6101558482850161011f565b91505092915050565b61016781610100565b82525050565b5f6020820190506101805f83018461015e565b92915050565b5f82825260208201905092915050565b7f696e7075742073686f756c64206265206265747765656e203120616e642039005f82015250565b5f6101ca601f83610186565b91506101d582610196565b602082019050919050565b5f6020820190508181035f8301526101f7816101be565b9050919050565b7f4e487b71000000000000000000000000000000000000000000000000000000005f52601160045260245ffd5b5f8160011c9050919050565b5f808291508390505b60018511156102805780860481111561025c5761025b6101fe565b5b600185161561026b5780820291505b80810290506102798561022b565b9450610240565b94509492505050565b5f826102985760019050610353565b816102a5575f9050610353565b81600181146102bb57600281146102c5576102f4565b6001915050610353565b60ff8411156102d7576102d66101fe565b5b8360020a9150848211156102ee576102ed6101fe565b5b50610353565b5060208310610133831016604e8410600b84101617156103295782820a905083811115610324576103236101fe565b5b610353565b6103368484846001610237565b9250905081840481111561034d5761034c6101fe565b5b81810290505b9392505050565b5f60ff82169050919050565b5f61037082610100565b915061037b8361035a565b92506103a87fffffffffffffffffffffffffffffffffffffffffffffffffffffffffffffffff8484610289565b905092915050565b5f6103ba82610100565b91506103c583610100565b92508282026103d381610100565b915082820484148315176103ea576103e96101fe565b5b5092915050565b7f4e487b71000000000000000000000000000000000000000000000000000000005f52601260045260245ffd5b5f61042882610100565b915061043383610100565b925082610443576104426103f1565b5b82820690509291505056fea2646970667358221220db6975fb1644411e02b2deed458367e62e53782fc14b2d8188e2d553547a5f2164736f6c634300081a0033",
			"opcodes": "PUSH1 0x80 PUSH1 0x40 MSTORE CALLVALUE DUP1 ISZERO PUSH1 0xE JUMPI PUSH0 DUP1 REVERT JUMPDEST POP PUSH2 0x484 DUP1 PUSH2 0x1C PUSH0 CODECOPY PUSH0 RETURN INVALID PUSH1 0x80 PUSH1 0x40 MSTORE CALLVALUE DUP1 ISZERO PUSH2 0xF JUMPI PUSH0 DUP1 REVERT JUMPDEST POP PUSH1 0x4 CALLDATASIZE LT PUSH2 0x29 JUMPI PUSH0 CALLDATALOAD PUSH1 0xE0 SHR DUP1 PUSH4 0x38C9027A EQ PUSH2 0x2D JUMPI JUMPDEST PUSH0 DUP1 REVERT JUMPDEST PUSH2 0x47 PUSH1 0x4 DUP1 CALLDATASIZE SUB DUP2 ADD SWAP1 PUSH2 0x42 SWAP2 SWAP1 PUSH2 0x133 JUMP JUMPDEST PUSH2 0x5D JUMP JUMPDEST PUSH1 0x40 MLOAD PUSH2 0x54 SWAP2 SWAP1 PUSH2 0x16D JUMP JUMPDEST PUSH1 0x40 MLOAD DUP1 SWAP2 SUB SWAP1 RETURN JUMPDEST PUSH0 PUSH1 0x1 DUP3 LT ISZERO DUP1 ISZERO PUSH2 0x70 JUMPI POP PUSH1 0x9 DUP3 GT ISZERO JUMPDEST PUSH2 0xAF JUMPI PUSH1 0x40 MLOAD PUSH32 0x8C379A000000000000000000000000000000000000000000000000000000000 DUP2 MSTORE PUSH1 0x4 ADD PUSH2 0xA6 SWAP1 PUSH2 0x1E0 JUMP JUMPDEST PUSH1 0x40 MLOAD DUP1 SWAP2 SUB SWAP1 REVERT JUMPDEST PUSH1 0x3 DUP3 GT PUSH2 0xCB JUMPI PUSH1 0x2 DUP3 PUSH2 0xC4 SWAP2 SWAP1 PUSH2 0x366 JUMP JUMPDEST SWAP1 POP PUSH2 0xF7 JUMP JUMPDEST PUSH1 0x6 DUP3 GT PUSH2 0xE7 JUMPI PUSH1 0x2 DUP3 PUSH2 0xE0 SWAP2 SWAP1 PUSH2 0x3B0 JUMP JUMPDEST SWAP1 POP PUSH2 0xF7 JUMP JUMPDEST PUSH1 0x3 DUP3 PUSH2 0xF4 SWAP2 SWAP1 PUSH2 0x41E JUMP JUMPDEST SWAP1 POP JUMPDEST SWAP2 SWAP1 POP JUMP JUMPDEST PUSH0 DUP1 REVERT JUMPDEST PUSH0 DUP2 SWAP1 POP SWAP2 SWAP1 POP JUMP JUMPDEST PUSH2 0x112 DUP2 PUSH2 0x100 JUMP JUMPDEST DUP2 EQ PUSH2 0x11C JUMPI PUSH0 DUP1 REVERT JUMPDEST POP JUMP JUMPDEST PUSH0 DUP2 CALLDATALOAD SWAP1 POP PUSH2 0x12D DUP2 PUSH2 0x109 JUMP JUMPDEST SWAP3 SWAP2 POP POP JUMP JUMPDEST PUSH0 PUSH1 0x20 DUP3 DUP5 SUB SLT ISZERO PUSH2 0x148 JUMPI PUSH2 0x147 PUSH2 0xFC JUMP JUMPDEST JUMPDEST PUSH0 PUSH2 0x155 DUP5 DUP3 DUP6 ADD PUSH2 0x11F JUMP JUMPDEST SWAP2 POP POP SWAP3 SWAP2 POP POP JUMP JUMPDEST PUSH2 0x167 DUP2 PUSH2 0x100 JUMP JUMPDEST DUP3 MSTORE POP POP JUMP JUMPDEST PUSH0 PUSH1 0x20 DUP3 ADD SWAP1 POP PUSH2 0x180 PUSH0 DUP4 ADD DUP5 PUSH2 0x15E JUMP JUMPDEST SWAP3 SWAP2 POP POP JUMP JUMPDEST PUSH0 DUP3 DUP3 MSTORE PUSH1 0x20 DUP3 ADD SWAP1 POP SWAP3 SWAP2 POP POP JUMP JUMPDEST PUSH32 0x696E7075742073686F756C64206265206265747765656E203120616E64203900 PUSH0 DUP3 ADD MSTORE POP JUMP JUMPDEST PUSH0 PUSH2 0x1CA PUSH1 0x1F DUP4 PUSH2 0x186 JUMP JUMPDEST SWAP2 POP PUSH2 0x1D5 DUP3 PUSH2 0x196 JUMP JUMPDEST PUSH1 0x20 DUP3 ADD SWAP1 POP SWAP2 SWAP1 POP JUMP JUMPDEST PUSH0 PUSH1 0x20 DUP3 ADD SWAP1 POP DUP2 DUP2 SUB PUSH0 DUP4 ADD MSTORE PUSH2 0x1F7 DUP2 PUSH2 0x1BE JUMP JUMPDEST SWAP1 POP SWAP2 SWAP1 POP JUMP JUMPDEST PUSH32 0x4E487B7100000000000000000000000000000000000000000000000000000000 PUSH0 MSTORE PUSH1 0x11 PUSH1 0x4 MSTORE PUSH1 0x24 PUSH0 REVERT JUMPDEST PUSH0 DUP2 PUSH1 0x1 SHR SWAP1 POP SWAP2 SWAP1 POP JUMP JUMPDEST PUSH0 DUP1 DUP3 SWAP2 POP DUP4 SWAP1 POP JUMPDEST PUSH1 0x1 DUP6 GT ISZERO PUSH2 0x280 JUMPI DUP1 DUP7 DIV DUP2 GT ISZERO PUSH2 0x25C JUMPI PUSH2 0x25B PUSH2 0x1FE JUMP JUMPDEST JUMPDEST PUSH1 0x1 DUP6 AND ISZERO PUSH2 0x26B JUMPI DUP1 DUP3 MUL SWAP2 POP JUMPDEST DUP1 DUP2 MUL SWAP1 POP PUSH2 0x279 DUP6 PUSH2 0x22B JUMP JUMPDEST SWAP5 POP PUSH2 0x240 JUMP JUMPDEST SWAP5 POP SWAP5 SWAP3 POP POP POP JUMP JUMPDEST PUSH0 DUP3 PUSH2 0x298 JUMPI PUSH1 0x1 SWAP1 POP PUSH2 0x353 JUMP JUMPDEST DUP2 PUSH2 0x2A5 JUMPI PUSH0 SWAP1 POP PUSH2 0x353 JUMP JUMPDEST DUP2 PUSH1 0x1 DUP2 EQ PUSH2 0x2BB JUMPI PUSH1 0x2 DUP2 EQ PUSH2 0x2C5 JUMPI PUSH2 0x2F4 JUMP JUMPDEST PUSH1 0x1 SWAP2 POP POP PUSH2 0x353 JUMP JUMPDEST PUSH1 0xFF DUP5 GT ISZERO PUSH2 0x2D7 JUMPI PUSH2 0x2D6 PUSH2 0x1FE JUMP JUMPDEST JUMPDEST DUP4 PUSH1 0x2 EXP SWAP2 POP DUP5 DUP3 GT ISZERO PUSH2 0x2EE JUMPI PUSH2 0x2ED PUSH2 0x1FE JUMP JUMPDEST JUMPDEST POP PUSH2 0x353 JUMP JUMPDEST POP PUSH1 0x20 DUP4 LT PUSH2 0x133 DUP4 LT AND PUSH1 0x4E DUP5 LT PUSH1 0xB DUP5 LT AND OR ISZERO PUSH2 0x329 JUMPI DUP3 DUP3 EXP SWAP1 POP DUP4 DUP2 GT ISZERO PUSH2 0x324 JUMPI PUSH2 0x323 PUSH2 0x1FE JUMP JUMPDEST JUMPDEST PUSH2 0x353 JUMP JUMPDEST PUSH2 0x336 DUP5 DUP5 DUP5 PUSH1 0x1 PUSH2 0x237 JUMP JUMPDEST SWAP3 POP SWAP1 POP DUP2 DUP5 DIV DUP2 GT ISZERO PUSH2 0x34D JUMPI PUSH2 0x34C PUSH2 0x1FE JUMP JUMPDEST JUMPDEST DUP2 DUP2 MUL SWAP1 POP JUMPDEST SWAP4 SWAP3 POP POP POP JUMP JUMPDEST PUSH0 PUSH1 0xFF DUP3 AND SWAP1 POP SWAP2 SWAP1 POP JUMP JUMPDEST PUSH0 PUSH2 0x370 DUP3 PUSH2 0x100 JUMP JUMPDEST SWAP2 POP PUSH2 0x37B DUP4 PUSH2 0x35A JUMP JUMPDEST SWAP3 POP PUSH2 0x3A8 PUSH32 0xFFFFFFFFFFFFFFFFFFFFFFFFFFFFFFFFFFFFFFFFFFFFFFFFFFFFFFFFFFFFFFFF DUP5 DUP5 PUSH2 0x289 JUMP JUMPDEST SWAP1 POP SWAP3 SWAP2 POP POP JUMP JUMPDEST PUSH0 PUSH2 0x3BA DUP3 PUSH2 0x100 JUMP JUMPDEST SWAP2 POP PUSH2 0x3C5 DUP4 PUSH2 0x100 JUMP JUMPDEST SWAP3 POP DUP3 DUP3 MUL PUSH2 0x3D3 DUP2 PUSH2 0x100 JUMP JUMPDEST SWAP2 POP DUP3 DUP3 DIV DUP5 EQ DUP4 ISZERO OR PUSH2 0x3EA JUMPI PUSH2 0x3E9 PUSH2 0x1FE JUMP JUMPDEST JUMPDEST POP SWAP3 SWAP2 POP POP JUMP JUMPDEST PUSH32 0x4E487B7100000000000000000000000000000000000000000000000000000000 PUSH0 MSTORE PUSH1 0x12 PUSH1 0x4 MSTORE PUSH1 0x24 PUSH0 REVERT JUMPDEST PUSH0 PUSH2 0x428 DUP3 PUSH2 0x100 JUMP JUMPDEST SWAP2 POP PUSH2 0x433 DUP4 PUSH2 0x100 JUMP JUMPDEST SWAP3 POP DUP3 PUSH2 0x443 JUMPI PUSH2 0x442 PUSH2 0x3F1 JUMP JUMPDEST JUMPDEST DUP3 DUP3 MOD SWAP1 POP SWAP3 SWAP2 POP POP JUMP INVALID LOG2 PUSH5 0x6970667358 0x22 SLT KECCAK256 0xDB PUSH10 0x75FB1644411E02B2DEED GASLIMIT DUP4 PUSH8 0xE62E53782FC14B2D DUP2 DUP9 0xE2 0xD5 MSTORE8 SLOAD PUSH27 0x5F2164736F6C634300081A00330000000000000000000000000000 "
		},
		"gasEstimates": {
			"creation": {
				"codeDepositCost": "231200",
				"executionCost": "273",
				"totalCost": "231473"
			},
			"external": {
				"calc(uint256)": "infinite"
			}
		},
		"methodIdentifiers": {
			"calc(uint256)": "38c9027a"
		}
	},
	"abi": [
		{
			"inputs": [
				{
					"internalType": "uint256",
					"name": "_a",
					"type": "uint256"
				}
			],
			"name": "calc",
			"outputs": [
				{
					"internalType": "uint256",
					"name": "",
					"type": "uint256"
				}
			],
			"stateMutability": "pure",
			"type": "function"
		}
	]
}