{
	"data": {
		"bytecode": {
			"linkReferences": {},
			"object": "6080604052348015600e575f80fd5b50610bbd8061001c5f395ff3fe608060405234801561000f575f80fd5b5060043610610034575f3560e01c80635a86bc9e1461003857806387fd66ae14610068575b5f80fd5b610052600480360381019061004d91906104e1565b610084565b60405161005f919061063f565b60405180910390f35b610082600480360381019061007d91906106b3565b610285565b005b61008c610359565b5f5b5f8054905081101561024457826040516020016100ab919061076d565b604051602081830303815290604052805190602001205f82815481106100d4576100d3610783565b5b905f5260205f2090600402015f016040516020016100f2919061089f565b6040516020818303038152906040528051906020012003610237575f81815481106101205761011f610783565b5b905f5260205f2090600402016040518060800160405290815f82018054610146906107dd565b80601f0160208091040260200160405190810160405280929190818152602001828054610172906107dd565b80156101bd5780601f10610194576101008083540402835291602001916101bd565b820191905f5260205f20905b8154815290600101906020018083116101a057829003601f168201915b5050505050815260200160018201548152602001600282015f9054906101000a900473ffffffffffffffffffffffffffffffffffffffff1673ffffffffffffffffffffffffffffffffffffffff1673ffffffffffffffffffffffffffffffffffffffff168152602001600382015481525050915050610280565b808060010191505061008e565b506040517f08c379a00000000000000000000000000000000000000000000000000000000081526004016102779061090f565b60405180910390fd5b919050565b5f60405180608001604052808681526020018581526020018473ffffffffffffffffffffffffffffffffffffffff16815260200183815250908060018154018082558091505060019003905f5260205f2090600402015f909190919091505f820151815f0190816102f69190610ab8565b50602082015181600101556040820151816002015f6101000a81548173ffffffffffffffffffffffffffffffffffffffff021916908373ffffffffffffffffffffffffffffffffffffffff16021790555060608201518160030155505050505050565b6040518060800160405280606081526020015f81526020015f73ffffffffffffffffffffffffffffffffffffffff1681526020015f81525090565b5f604051905090565b5f80fd5b5f80fd5b5f80fd5b5f80fd5b5f601f19601f8301169050919050565b7f4e487b71000000000000000000000000000000000000000000000000000000005f52604160045260245ffd5b6103f3826103ad565b810181811067ffffffffffffffff82111715610412576104116103bd565b5b80604052505050565b5f610424610394565b905061043082826103ea565b919050565b5f67ffffffffffffffff82111561044f5761044e6103bd565b5b610458826103ad565b9050602081019050919050565b828183375f83830152505050565b5f61048561048084610435565b61041b565b9050828152602081018484840111156104a1576104a06103a9565b5b6104ac848285610465565b509392505050565b5f82601f8301126104c8576104c76103a5565b5b81356104d8848260208601610473565b91505092915050565b5f602082840312156104f6576104f561039d565b5b5f82013567ffffffffffffffff811115610513576105126103a1565b5b61051f848285016104b4565b91505092915050565b5f81519050919050565b5f82825260208201905092915050565b8281835e5f83830152505050565b5f61055a82610528565b6105648185610532565b9350610574818560208601610542565b61057d816103ad565b840191505092915050565b5f819050919050565b61059a81610588565b82525050565b5f73ffffffffffffffffffffffffffffffffffffffff82169050919050565b5f6105c9826105a0565b9050919050565b6105d9816105bf565b82525050565b5f608083015f8301518482035f8601526105f98282610550565b915050602083015161060e6020860182610591565b50604083015161062160408601826105d0565b5060608301516106346060860182610591565b508091505092915050565b5f6020820190508181035f83015261065781846105df565b905092915050565b61066881610588565b8114610672575f80fd5b50565b5f813590506106838161065f565b92915050565b610692816105bf565b811461069c575f80fd5b50565b5f813590506106ad81610689565b92915050565b5f805f80608085870312156106cb576106ca61039d565b5b5f85013567ffffffffffffffff8111156106e8576106e76103a1565b5b6106f4878288016104b4565b945050602061070587828801610675565b93505060406107168782880161069f565b925050606061072787828801610675565b91505092959194509250565b5f81905092915050565b5f61074782610528565b6107518185610733565b9350610761818560208601610542565b80840191505092915050565b5f610778828461073d565b915081905092915050565b7f4e487b71000000000000000000000000000000000000000000000000000000005f52603260045260245ffd5b7f4e487b71000000000000000000000000000000000000000000000000000000005f52602260045260245ffd5b5f60028204905060018216806107f457607f821691505b602082108103610807576108066107b0565b5b50919050565b5f819050815f5260205f209050919050565b5f815461082b816107dd565b6108358186610733565b9450600182165f811461084f576001811461086457610896565b60ff1983168652811515820286019350610896565b61086d8561080d565b5f5b8381101561088e5781548189015260018201915060208101905061086f565b838801955050505b50505092915050565b5f6108aa828461081f565b915081905092915050565b5f82825260208201905092915050565b7f637573746f6d6572206e6f7420666f756e6400000000000000000000000000005f82015250565b5f6108f96012836108b5565b9150610904826108c5565b602082019050919050565b5f6020820190508181035f830152610926816108ed565b9050919050565b5f6020601f8301049050919050565b5f82821b905092915050565b5f600883026109777fffffffffffffffffffffffffffffffffffffffffffffffffffffffffffffffff8261093c565b610981868361093c565b95508019841693508086168417925050509392505050565b5f819050919050565b5f6109bc6109b76109b284610588565b610999565b610588565b9050919050565b5f819050919050565b6109d5836109a2565b6109e96109e1826109c3565b848454610948565b825550505050565b5f90565b6109fd6109f1565b610a088184846109cc565b505050565b5b81811015610a2b57610a205f826109f5565b600181019050610a0e565b5050565b601f821115610a7057610a418161080d565b610a4a8461092d565b81016020851015610a59578190505b610a6d610a658561092d565b830182610a0d565b50505b505050565b5f82821c905092915050565b5f610a905f1984600802610a75565b1980831691505092915050565b5f610aa88383610a81565b9150826002028217905092915050565b610ac182610528565b67ffffffffffffffff811115610ada57610ad96103bd565b5b610ae482546107dd565b610aef828285610a2f565b5f60209050601f831160018114610b20575f8415610b0e578287015190505b610b188582610a9d565b865550610b7f565b601f198416610b2e8661080d565b5f5b82811015610b5557848901518255600182019150602085019450602081019050610b30565b86831015610b725784890151610b6e601f891682610a81565b8355505b6001600288020188555050505b50505050505056fea2646970667358221220988c9f55ab5ee93332b1d6156943abec31a8a3cb56cd63e28fe6b66106f2b2b864736f6c634300081a0033",
			"opcodes": "PUSH1 0x80 PUSH1 0x40 MSTORE CALLVALUE DUP1 ISZERO PUSH1 0xE JUMPI PUSH0 DUP1 REVERT JUMPDEST POP PUSH2 0xBBD DUP1 PUSH2 0x1C PUSH0 CODECOPY PUSH0 RETURN INVALID PUSH1 0x80 PUSH1 0x40 MSTORE CALLVALUE DUP1 ISZERO PUSH2 0xF JUMPI PUSH0 DUP1 REVERT JUMPDEST POP PUSH1 0x4 CALLDATASIZE LT PUSH2 0x34 JUMPI PUSH0 CALLDATALOAD PUSH1 0xE0 SHR DUP1 PUSH4 0x5A86BC9E EQ PUSH2 0x38 JUMPI DUP1 PUSH4 0x87FD66AE EQ PUSH2 0x68 JUMPI JUMPDEST PUSH0 DUP1 REVERT JUMPDEST PUSH2 0x52 PUSH1 0x4 DUP1 CALLDATASIZE SUB DUP2 ADD SWAP1 PUSH2 0x4D SWAP2 SWAP1 PUSH2 0x4E1 JUMP JUMPDEST PUSH2 0x84 JUMP JUMPDEST PUSH1 0x40 MLOAD PUSH2 0x5F SWAP2 SWAP1 PUSH2 0x63F JUMP JUMPDEST PUSH1 0x40 MLOAD DUP1 SWAP2 SUB SWAP1 RETURN JUMPDEST PUSH2 0x82 PUSH1 0x4 DUP1 CALLDATASIZE SUB DUP2 ADD SWAP1 PUSH2 0x7D SWAP2 SWAP1 PUSH2 0x6B3 JUMP JUMPDEST PUSH2 0x285 JUMP JUMPDEST STOP JUMPDEST PUSH2 0x8C PUSH2 0x359 JUMP JUMPDEST PUSH0 JUMPDEST PUSH0 DUP1 SLOAD SWAP1 POP DUP2 LT ISZERO PUSH2 0x244 JUMPI DUP3 PUSH1 0x40 MLOAD PUSH1 0x20 ADD PUSH2 0xAB SWAP2 SWAP1 PUSH2 0x76D JUMP JUMPDEST PUSH1 0x40 MLOAD PUSH1 0x20 DUP2 DUP4 SUB SUB DUP2 MSTORE SWAP1 PUSH1 0x40 MSTORE DUP1 MLOAD SWAP1 PUSH1 0x20 ADD KECCAK256 PUSH0 DUP3 DUP2 SLOAD DUP2 LT PUSH2 0xD4 JUMPI PUSH2 0xD3 PUSH2 0x783 JUMP JUMPDEST JUMPDEST SWAP1 PUSH0 MSTORE PUSH1 0x20 PUSH0 KECCAK256 SWAP1 PUSH1 0x4 MUL ADD PUSH0 ADD PUSH1 0x40 MLOAD PUSH1 0x20 ADD PUSH2 0xF2 SWAP2 SWAP1 PUSH2 0x89F JUMP JUMPDEST PUSH1 0x40 MLOAD PUSH1 0x20 DUP2 DUP4 SUB SUB DUP2 MSTORE SWAP1 PUSH1 0x40 MSTORE DUP1 MLOAD SWAP1 PUSH1 0x20 ADD KECCAK256 SUB PUSH2 0x237 JUMPI PUSH0 DUP2 DUP2 SLOAD DUP2 LT PUSH2 0x120 JUMPI PUSH2 0x11F PUSH2 0x783 JUMP JUMPDEST JUMPDEST SWAP1 PUSH0 MSTORE PUSH1 0x20 PUSH0 KECCAK256 SWAP1 PUSH1 0x4 MUL ADD PUSH1 0x40 MLOAD DUP1 PUSH1 0x80 ADD PUSH1 0x40 MSTORE SWAP1 DUP2 PUSH0 DUP3 ADD DUP1 SLOAD PUSH2 0x146 SWAP1 PUSH2 0x7DD JUMP JUMPDEST DUP1 PUSH1 0x1F ADD PUSH1 0x20 DUP1 SWAP2 DIV MUL PUSH1 0x20 ADD PUSH1 0x40 MLOAD SWAP1 DUP2 ADD PUSH1 0x40 MSTORE DUP1 SWAP3 SWAP2 SWAP1 DUP2 DUP2 MSTORE PUSH1 0x20 ADD DUP3 DUP1 SLOAD PUSH2 0x172 SWAP1 PUSH2 0x7DD JUMP JUMPDEST DUP1 ISZERO PUSH2 0x1BD JUMPI DUP1 PUSH1 0x1F LT PUSH2 0x194 JUMPI PUSH2 0x100 DUP1 DUP4 SLOAD DIV MUL DUP4 MSTORE SWAP2 PUSH1 0x20 ADD SWAP2 PUSH2 0x1BD JUMP JUMPDEST DUP3 ADD SWAP2 SWAP1 PUSH0 MSTORE PUSH1 0x20 PUSH0 KECCAK256 SWAP1 JUMPDEST DUP2 SLOAD DUP2 MSTORE SWAP1 PUSH1 0x1 ADD SWAP1 PUSH1 0x20 ADD DUP1 DUP4 GT PUSH2 0x1A0 JUMPI DUP3 SWAP1 SUB PUSH1 0x1F AND DUP3 ADD SWAP2 JUMPDEST POP POP POP POP POP DUP2 MSTORE PUSH1 0x20 ADD PUSH1 0x1 DUP3 ADD SLOAD DUP2 MSTORE PUSH1 0x20 ADD PUSH1 0x2 DUP3 ADD PUSH0 SWAP1 SLOAD SWAP1 PUSH2 0x100 EXP SWAP1 DIV PUSH20 0xFFFFFFFFFFFFFFFFFFFFFFFFFFFFFFFFFFFFFFFF AND PUSH20 0xFFFFFFFFFFFFFFFFFFFFFFFFFFFFFFFFFFFFFFFF AND PUSH20 0xFFFFFFFFFFFFFFFFFFFFFFFFFFFFFFFFFFFFFFFF AND DUP2 MSTORE PUSH1 0x20 ADD PUSH1 0x3 DUP3 ADD SLOAD DUP2 MSTORE POP POP SWAP2 POP POP PUSH2 0x280 JUMP JUMPDEST DUP1 DUP1 PUSH1 0x1 ADD SWAP2 POP POP PUSH2 0x8E JUMP JUMPDEST POP PUSH1 0x40 MLOAD PUSH32 0x8C379A000000000000000000000000000000000000000000000000000000000 DUP2 MSTORE PUSH1 0x4 ADD PUSH2 0x277 SWAP1 PUSH2 0x90F JUMP JUMPDEST PUSH1 0x40 MLOAD DUP1 SWAP2 SUB SWAP1 REVERT JUMPDEST SWAP2 SWAP1 POP JUMP JUMPDEST PUSH0 PUSH1 0x40 MLOAD DUP1 PUSH1 0x80 ADD PUSH1 0x40 MSTORE DUP1 DUP7 DUP2 MSTORE PUSH1 0x20 ADD DUP6 DUP2 MSTORE PUSH1 0x20 ADD DUP5 PUSH20 0xFFFFFFFFFFFFFFFFFFFFFFFFFFFFFFFFFFFFFFFF AND DUP2 MSTORE PUSH1 0x20 ADD DUP4 DUP2 MSTORE POP SWAP1 DUP1 PUSH1 0x1 DUP2 SLOAD ADD DUP1 DUP3 SSTORE DUP1 SWAP2 POP POP PUSH1 0x1 SWAP1 SUB SWAP1 PUSH0 MSTORE PUSH1 0x20 PUSH0 KECCAK256 SWAP1 PUSH1 0x4 MUL ADD PUSH0 SWAP1 SWAP2 SWAP1 SWAP2 SWAP1 SWAP2 POP PUSH0 DUP3 ADD MLOAD DUP2 PUSH0 ADD SWAP1 DUP2 PUSH2 0x2F6 SWAP2 SWAP1 PUSH2 0xAB8 JUMP JUMPDEST POP PUSH1 0x20 DUP3 ADD MLOAD DUP2 PUSH1 0x1 ADD SSTORE PUSH1 0x40 DUP3 ADD MLOAD DUP2 PUSH1 0x2 ADD PUSH0 PUSH2 0x100 EXP DUP2 SLOAD DUP2 PUSH20 0xFFFFFFFFFFFFFFFFFFFFFFFFFFFFFFFFFFFFFFFF MUL NOT AND SWAP1 DUP4 PUSH20 0xFFFFFFFFFFFFFFFFFFFFFFFFFFFFFFFFFFFFFFFF AND MUL OR SWAP1 SSTORE POP PUSH1 0x60 DUP3 ADD MLOAD DUP2 PUSH1 0x3 ADD SSTORE POP POP POP POP POP POP JUMP JUMPDEST PUSH1 0x40 MLOAD DUP1 PUSH1 0x80 ADD PUSH1 0x40 MSTORE DUP1 PUSH1 0x60 DUP2 MSTORE PUSH1 0x20 ADD PUSH0 DUP2 MSTORE PUSH1 0x20 ADD PUSH0 PUSH20 0xFFFFFFFFFFFFFFFFFFFFFFFFFFFFFFFFFFFFFFFF AND DUP2 MSTORE PUSH1 0x20 ADD PUSH0 DUP2 MSTORE POP SWAP1 JUMP JUMPDEST PUSH0 PUSH1 0x40 MLOAD SWAP1 POP SWAP1 JUMP JUMPDEST PUSH0 DUP1 REVERT JUMPDEST PUSH0 DUP1 REVERT JUMPDEST PUSH0 DUP1 REVERT JUMPDEST PUSH0 DUP1 REVERT JUMPDEST PUSH0 PUSH1 0x1F NOT PUSH1 0x1F DUP4 ADD AND SWAP1 POP SWAP2 SWAP1 POP JUMP JUMPDEST PUSH32 0x4E487B7100000000000000000000000000000000000000000000000000000000 PUSH0 MSTORE PUSH1 0x41 PUSH1 0x4 MSTORE PUSH1 0x24 PUSH0 REVERT JUMPDEST PUSH2 0x3F3 DUP3 PUSH2 0x3AD JUMP JUMPDEST DUP2 ADD DUP2 DUP2 LT PUSH8 0xFFFFFFFFFFFFFFFF DUP3 GT OR ISZERO PUSH2 0x412 JUMPI PUSH2 0x411 PUSH2 0x3BD JUMP JUMPDEST JUMPDEST DUP1 PUSH1 0x40 MSTORE POP POP POP JUMP JUMPDEST PUSH0 PUSH2 0x424 PUSH2 0x394 JUMP JUMPDEST SWAP1 POP PUSH2 0x430 DUP3 DUP3 PUSH2 0x3EA JUMP JUMPDEST SWAP2 SWAP1 POP JUMP JUMPDEST PUSH0 PUSH8 0xFFFFFFFFFFFFFFFF DUP3 GT ISZERO PUSH2 0x44F JUMPI PUSH2 0x44E PUSH2 0x3BD JUMP JUMPDEST JUMPDEST PUSH2 0x458 DUP3 PUSH2 0x3AD JUMP JUMPDEST SWAP1 POP PUSH1 0x20 DUP2 ADD SWAP1 POP SWAP2 SWAP1 POP JUMP JUMPDEST DUP3 DUP2 DUP4 CALLDATACOPY PUSH0 DUP4 DUP4 ADD MSTORE POP POP POP JUMP JUMPDEST PUSH0 PUSH2 0x485 PUSH2 0x480 DUP5 PUSH2 0x435 JUMP JUMPDEST PUSH2 0x41B JUMP JUMPDEST SWAP1 POP DUP3 DUP2 MSTORE PUSH1 0x20 DUP2 ADD DUP5 DUP5 DUP5 ADD GT ISZERO PUSH2 0x4A1 JUMPI PUSH2 0x4A0 PUSH2 0x3A9 JUMP JUMPDEST JUMPDEST PUSH2 0x4AC DUP5 DUP3 DUP6 PUSH2 0x465 JUMP JUMPDEST POP SWAP4 SWAP3 POP POP POP JUMP JUMPDEST PUSH0 DUP3 PUSH1 0x1F DUP4 ADD SLT PUSH2 0x4C8 JUMPI PUSH2 0x4C7 PUSH2 0x3A5 JUMP JUMPDEST JUMPDEST DUP2 CALLDATALOAD PUSH2 0x4D8 DUP5 DUP3 PUSH1 0x20 DUP7 ADD PUSH2 0x473 JUMP JUMPDEST SWAP2 POP POP SWAP3 SWAP2 POP POP JUMP JUMPDEST PUSH0 PUSH1 0x20 DUP3 DUP5 SUB SLT ISZERO PUSH2 0x4F6 JUMPI PUSH2 0x4F5 PUSH2 0x39D JUMP JUMPDEST JUMPDEST PUSH0 DUP3 ADD CALLDATALOAD PUSH8 0xFFFFFFFFFFFFFFFF DUP2 GT ISZERO PUSH2 0x513 JUMPI PUSH2 0x512 PUSH2 0x3A1 JUMP JUMPDEST JUMPDEST PUSH2 0x51F DUP5 DUP3 DUP6 ADD PUSH2 0x4B4 JUMP JUMPDEST SWAP2 POP POP SWAP3 SWAP2 POP POP JUMP JUMPDEST PUSH0 DUP2 MLOAD SWAP1 POP SWAP2 SWAP1 POP JUMP JUMPDEST PUSH0 DUP3 DUP3 MSTORE PUSH1 0x20 DUP3 ADD SWAP1 POP SWAP3 SWAP2 POP POP JUMP JUMPDEST DUP3 DUP2 DUP4 MCOPY PUSH0 DUP4 DUP4 ADD MSTORE POP POP POP JUMP JUMPDEST PUSH0 PUSH2 0x55A DUP3 PUSH2 0x528 JUMP JUMPDEST PUSH2 0x564 DUP2 DUP6 PUSH2 0x532 JUMP JUMPDEST SWAP4 POP PUSH2 0x574 DUP2 DUP6 PUSH1 0x20 DUP7 ADD PUSH2 0x542 JUMP JUMPDEST PUSH2 0x57D DUP2 PUSH2 0x3AD JUMP JUMPDEST DUP5 ADD SWAP2 POP POP SWAP3 SWAP2 POP POP JUMP JUMPDEST PUSH0 DUP2 SWAP1 POP SWAP2 SWAP1 POP JUMP JUMPDEST PUSH2 0x59A DUP2 PUSH2 0x588 JUMP JUMPDEST DUP3 MSTORE POP POP JUMP JUMPDEST PUSH0 PUSH20 0xFFFFFFFFFFFFFFFFFFFFFFFFFFFFFFFFFFFFFFFF DUP3 AND SWAP1 POP SWAP2 SWAP1 POP JUMP JUMPDEST PUSH0 PUSH2 0x5C9 DUP3 PUSH2 0x5A0 JUMP JUMPDEST SWAP1 POP SWAP2 SWAP1 POP JUMP JUMPDEST PUSH2 0x5D9 DUP2 PUSH2 0x5BF JUMP JUMPDEST DUP3 MSTORE POP POP JUMP JUMPDEST PUSH0 PUSH1 0x80 DUP4 ADD PUSH0 DUP4 ADD MLOAD DUP5 DUP3 SUB PUSH0 DUP7 ADD MSTORE PUSH2 0x5F9 DUP3 DUP3 PUSH2 0x550 JUMP JUMPDEST SWAP2 POP POP PUSH1 0x20 DUP4 ADD MLOAD PUSH2 0x60E PUSH1 0x20 DUP7 ADD DUP3 PUSH2 0x591 JUMP JUMPDEST POP PUSH1 0x40 DUP4 ADD MLOAD PUSH2 0x621 PUSH1 0x40 DUP7 ADD DUP3 PUSH2 0x5D0 JUMP JUMPDEST POP PUSH1 0x60 DUP4 ADD MLOAD PUSH2 0x634 PUSH1 0x60 DUP7 ADD DUP3 PUSH2 0x591 JUMP JUMPDEST POP DUP1 SWAP2 POP POP SWAP3 SWAP2 POP POP JUMP JUMPDEST PUSH0 PUSH1 0x20 DUP3 ADD SWAP1 POP DUP2 DUP2 SUB PUSH0 DUP4 ADD MSTORE PUSH2 0x657 DUP2 DUP5 PUSH2 0x5DF JUMP JUMPDEST SWAP1 POP SWAP3 SWAP2 POP POP JUMP JUMPDEST PUSH2 0x668 DUP2 PUSH2 0x588 JUMP JUMPDEST DUP2 EQ PUSH2 0x672 JUMPI PUSH0 DUP1 REVERT JUMPDEST POP JUMP JUMPDEST PUSH0 DUP2 CALLDATALOAD SWAP1 POP PUSH2 0x683 DUP2 PUSH2 0x65F JUMP JUMPDEST SWAP3 SWAP2 POP POP JUMP JUMPDEST PUSH2 0x692 DUP2 PUSH2 0x5BF JUMP JUMPDEST DUP2 EQ PUSH2 0x69C JUMPI PUSH0 DUP1 REVERT JUMPDEST POP JUMP JUMPDEST PUSH0 DUP2 CALLDATALOAD SWAP1 POP PUSH2 0x6AD DUP2 PUSH2 0x689 JUMP JUMPDEST SWAP3 SWAP2 POP POP JUMP JUMPDEST PUSH0 DUP1 PUSH0 DUP1 PUSH1 0x80 DUP6 DUP8 SUB SLT ISZERO PUSH2 0x6CB JUMPI PUSH2 0x6CA PUSH2 0x39D JUMP JUMPDEST JUMPDEST PUSH0 DUP6 ADD CALLDATALOAD PUSH8 0xFFFFFFFFFFFFFFFF DUP2 GT ISZERO PUSH2 0x6E8 JUMPI PUSH2 0x6E7 PUSH2 0x3A1 JUMP JUMPDEST JUMPDEST PUSH2 0x6F4 DUP8 DUP3 DUP9 ADD PUSH2 0x4B4 JUMP JUMPDEST SWAP5 POP POP PUSH1 0x20 PUSH2 0x705 DUP8 DUP3 DUP9 ADD PUSH2 0x675 JUMP JUMPDEST SWAP4 POP POP PUSH1 0x40 PUSH2 0x716 DUP8 DUP3 DUP9 ADD PUSH2 0x69F JUMP JUMPDEST SWAP3 POP POP PUSH1 0x60 PUSH2 0x727 DUP8 DUP3 DUP9 ADD PUSH2 0x675 JUMP JUMPDEST SWAP2 POP POP SWAP3 SWAP6 SWAP2 SWAP5 POP SWAP3 POP JUMP JUMPDEST PUSH0 DUP2 SWAP1 POP SWAP3 SWAP2 POP POP JUMP JUMPDEST PUSH0 PUSH2 0x747 DUP3 PUSH2 0x528 JUMP JUMPDEST PUSH2 0x751 DUP2 DUP6 PUSH2 0x733 JUMP JUMPDEST SWAP4 POP PUSH2 0x761 DUP2 DUP6 PUSH1 0x20 DUP7 ADD PUSH2 0x542 JUMP JUMPDEST DUP1 DUP5 ADD SWAP2 POP POP SWAP3 SWAP2 POP POP JUMP JUMPDEST PUSH0 PUSH2 0x778 DUP3 DUP5 PUSH2 0x73D JUMP JUMPDEST SWAP2 POP DUP2 SWAP1 POP SWAP3 SWAP2 POP POP JUMP JUMPDEST PUSH32 0x4E487B7100000000000000000000000000000000000000000000000000000000 PUSH0 MSTORE PUSH1 0x32 PUSH1 0x4 MSTORE PUSH1 0x24 PUSH0 REVERT JUMPDEST PUSH32 0x4E487B7100000000000000000000000000000000000000000000000000000000 PUSH0 MSTORE PUSH1 0x22 PUSH1 0x4 MSTORE PUSH1 0x24 PUSH0 REVERT JUMPDEST PUSH0 PUSH1 0x2 DUP3 DIV SWAP1 POP PUSH1 0x1 DUP3 AND DUP1 PUSH2 0x7F4 JUMPI PUSH1 0x7F DUP3 AND SWAP2 POP JUMPDEST PUSH1 0x20 DUP3 LT DUP2 SUB PUSH2 0x807 JUMPI PUSH2 0x806 PUSH2 0x7B0 JUMP JUMPDEST JUMPDEST POP SWAP2 SWAP1 POP JUMP JUMPDEST PUSH0 DUP2 SWAP1 POP DUP2 PUSH0 MSTORE PUSH1 0x20 PUSH0 KECCAK256 SWAP1 POP SWAP2 SWAP1 POP JUMP JUMPDEST PUSH0 DUP2 SLOAD PUSH2 0x82B DUP2 PUSH2 0x7DD JUMP JUMPDEST PUSH2 0x835 DUP2 DUP7 PUSH2 0x733 JUMP JUMPDEST SWAP5 POP PUSH1 0x1 DUP3 AND PUSH0 DUP2 EQ PUSH2 0x84F JUMPI PUSH1 0x1 DUP2 EQ PUSH2 0x864 JUMPI PUSH2 0x896 JUMP JUMPDEST PUSH1 0xFF NOT DUP4 AND DUP7 MSTORE DUP2 ISZERO ISZERO DUP3 MUL DUP7 ADD SWAP4 POP PUSH2 0x896 JUMP JUMPDEST PUSH2 0x86D DUP6 PUSH2 0x80D JUMP JUMPDEST PUSH0 JUMPDEST DUP4 DUP2 LT ISZERO PUSH2 0x88E JUMPI DUP2 SLOAD DUP2 DUP10 ADD MSTORE PUSH1 0x1 DUP3 ADD SWAP2 POP PUSH1 0x20 DUP2 ADD SWAP1 POP PUSH2 0x86F JUMP JUMPDEST DUP4 DUP9 ADD SWAP6 POP POP POP JUMPDEST POP POP POP SWAP3 SWAP2 POP POP JUMP JUMPDEST PUSH0 PUSH2 0x8AA DUP3 DUP5 PUSH2 0x81F JUMP JUMPDEST SWAP2 POP DUP2 SWAP1 POP SWAP3 SWAP2 POP POP JUMP JUMPDEST PUSH0 DUP3 DUP3 MSTORE PUSH1 0x20 DUP3 ADD SWAP1 POP SWAP3 SWAP2 POP POP JUMP JUMPDEST PUSH32 0x637573746F6D6572206E6F7420666F756E640000000000000000000000000000 PUSH0 DUP3 ADD MSTORE POP JUMP JUMPDEST PUSH0 PUSH2 0x8F9 PUSH1 0x12 DUP4 PUSH2 0x8B5 JUMP JUMPDEST SWAP2 POP PUSH2 0x904 DUP3 PUSH2 0x8C5 JUMP JUMPDEST PUSH1 0x20 DUP3 ADD SWAP1 POP SWAP2 SWAP1 POP JUMP JUMPDEST PUSH0 PUSH1 0x20 DUP3 ADD SWAP1 POP DUP2 DUP2 SUB PUSH0 DUP4 ADD MSTORE PUSH2 0x926 DUP2 PUSH2 0x8ED JUMP JUMPDEST SWAP1 POP SWAP2 SWAP1 POP JUMP JUMPDEST PUSH0 PUSH1 0x20 PUSH1 0x1F DUP4 ADD DIV SWAP1 POP SWAP2 SWAP1 POP JUMP JUMPDEST PUSH0 DUP3 DUP3 SHL SWAP1 POP SWAP3 SWAP2 POP POP JUMP JUMPDEST PUSH0 PUSH1 0x8 DUP4 MUL PUSH2 0x977 PUSH32 0xFFFFFFFFFFFFFFFFFFFFFFFFFFFFFFFFFFFFFFFFFFFFFFFFFFFFFFFFFFFFFFFF DUP3 PUSH2 0x93C JUMP JUMPDEST PUSH2 0x981 DUP7 DUP4 PUSH2 0x93C JUMP JUMPDEST SWAP6 POP DUP1 NOT DUP5 AND SWAP4 POP DUP1 DUP7 AND DUP5 OR SWAP3 POP POP POP SWAP4 SWAP3 POP POP POP JUMP JUMPDEST PUSH0 DUP2 SWAP1 POP SWAP2 SWAP1 POP JUMP JUMPDEST PUSH0 PUSH2 0x9BC PUSH2 0x9B7 PUSH2 0x9B2 DUP5 PUSH2 0x588 JUMP JUMPDEST PUSH2 0x999 JUMP JUMPDEST PUSH2 0x588 JUMP JUMPDEST SWAP1 POP SWAP2 SWAP1 POP JUMP JUMPDEST PUSH0 DUP2 SWAP1 POP SWAP2 SWAP1 POP JUMP JUMPDEST PUSH2 0x9D5 DUP4 PUSH2 0x9A2 JUMP JUMPDEST PUSH2 0x9E9 PUSH2 0x9E1 DUP3 PUSH2 0x9C3 JUMP JUMPDEST DUP5 DUP5 SLOAD PUSH2 0x948 JUMP JUMPDEST DUP3 SSTORE POP POP POP POP JUMP JUMPDEST PUSH0 SWAP1 JUMP JUMPDEST PUSH2 0x9FD PUSH2 0x9F1 JUMP JUMPDEST PUSH2 0xA08 DUP2 DUP5 DUP5 PUSH2 0x9CC JUMP JUMPDEST POP POP POP JUMP JUMPDEST JUMPDEST DUP2 DUP2 LT ISZERO PUSH2 0xA2B JUMPI PUSH2 0xA20 PUSH0 DUP3 PUSH2 0x9F5 JUMP JUMPDEST PUSH1 0x1 DUP2 ADD SWAP1 POP PUSH2 0xA0E JUMP JUMPDEST POP POP JUMP JUMPDEST PUSH1 0x1F DUP3 GT ISZERO PUSH2 0xA70 JUMPI PUSH2 0xA41 DUP2 PUSH2 0x80D JUMP JUMPDEST PUSH2 0xA4A DUP5 PUSH2 0x92D JUMP JUMPDEST DUP2 ADD PUSH1 0x20 DUP6 LT ISZERO PUSH2 0xA59 JUMPI DUP2 SWAP1 POP JUMPDEST PUSH2 0xA6D PUSH2 0xA65 DUP6 PUSH2 0x92D JUMP JUMPDEST DUP4 ADD DUP3 PUSH2 0xA0D JUMP JUMPDEST POP POP JUMPDEST POP POP POP JUMP JUMPDEST PUSH0 DUP3 DUP3 SHR SWAP1 POP SWAP3 SWAP2 POP POP JUMP JUMPDEST PUSH0 PUSH2 0xA90 PUSH0 NOT DUP5 PUSH1 0x8 MUL PUSH2 0xA75 JUMP JUMPDEST NOT DUP1 DUP4 AND SWAP2 POP POP SWAP3 SWAP2 POP POP JUMP JUMPDEST PUSH0 PUSH2 0xAA8 DUP4 DUP4 PUSH2 0xA81 JUMP JUMPDEST SWAP2 POP DUP3 PUSH1 0x2 MUL DUP3 OR SWAP1 POP SWAP3 SWAP2 POP POP JUMP JUMPDEST PUSH2 0xAC1 DUP3 PUSH2 0x528 JUMP JUMPDEST PUSH8 0xFFFFFFFFFFFFFFFF DUP2 GT ISZERO PUSH2 0xADA JUMPI PUSH2 0xAD9 PUSH2 0x3BD JUMP JUMPDEST JUMPDEST PUSH2 0xAE4 DUP3 SLOAD PUSH2 0x7DD JUMP JUMPDEST PUSH2 0xAEF DUP3 DUP3 DUP6 PUSH2 0xA2F JUMP JUMPDEST PUSH0 PUSH1 0x20 SWAP1 POP PUSH1 0x1F DUP4 GT PUSH1 0x1 DUP2 EQ PUSH2 0xB20 JUMPI PUSH0 DUP5 ISZERO PUSH2 0xB0E JUMPI DUP3 DUP8 ADD MLOAD SWAP1 POP JUMPDEST PUSH2 0xB18 DUP6 DUP3 PUSH2 0xA9D JUMP JUMPDEST DUP7 SSTORE POP PUSH2 0xB7F JUMP JUMPDEST PUSH1 0x1F NOT DUP5 AND PUSH2 0xB2E DUP7 PUSH2 0x80D JUMP JUMPDEST PUSH0 JUMPDEST DUP3 DUP2 LT ISZERO PUSH2 0xB55 JUMPI DUP5 DUP10 ADD MLOAD DUP3 SSTORE PUSH1 0x1 DUP3 ADD SWAP2 POP PUSH1 0x20 DUP6 ADD SWAP5 POP PUSH1 0x20 DUP2 ADD SWAP1 POP PUSH2 0xB30 JUMP JUMPDEST DUP7 DUP4 LT ISZERO PUSH2 0xB72 JUMPI DUP5 DUP10 ADD MLOAD PUSH2 0xB6E PUSH1 0x1F DUP10 AND DUP3 PUSH2 0xA81 JUMP JUMPDEST DUP4 SSTORE POP JUMPDEST PUSH1 0x1 PUSH1 0x2 DUP9 MUL ADD DUP9 SSTORE POP POP POP JUMPDEST POP POP POP POP POP POP JUMP INVALID LOG2 PUSH5 0x6970667358 0x22 SLT KECCAK256 SWAP9 DUP13 SWAP16 SSTORE 0xAB MCOPY 0xE9 CALLER ORIGIN 0xB1 0xD6 ISZERO PUSH10 0x43ABEC31A8A3CB56CD63 0xE2 DUP16 0xE6 0xB6 PUSH2 0x6F2 0xB2 0xB8 PUSH5 0x736F6C6343 STOP ADDMOD BYTE STOP CALLER "
		},
		"gasEstimates": {
			"creation": {
				"codeDepositCost": "601000",
				"executionCost": "630",
				"totalCost": "601630"
			},
			"external": {
				"pushCustomer(string,uint256,address,uint256)": "infinite",
				"searchCustomer(string)": "infinite"
			}
		},
		"methodIdentifiers": {
			"pushCustomer(string,uint256,address,uint256)": "87fd66ae",
			"searchCustomer(string)": "5a86bc9e"
		}
	},
	"abi": [
		{
			"inputs": [
				{
					"internalType": "string",
					"name": "_name",
					"type": "string"
				},
				{
					"internalType": "uint256",
					"name": "_number",
					"type": "uint256"
				},
				{
					"internalType": "address",
					"name": "_addr",
					"type": "address"
				},
				{
					"internalType": "uint256",
					"name": "_birthday",
					"type": "uint256"
				}
			],
			"name": "pushCustomer",
			"outputs": [],
			"stateMutability": "nonpayable",
			"type": "function"
		},
		{
			"inputs": [
				{
					"internalType": "string",
					"name": "_name",
					"type": "string"
				}
			],
			"name": "searchCustomer",
			"outputs": [
				{
					"components": [
						{
							"internalType": "string",
							"name": "name",
							"type": "string"
						},
						{
							"internalType": "uint256",
							"name": "number",
							"type": "uint256"
						},
						{
							"internalType": "address",
							"name": "addr",
							"type": "address"
						},
						{
							"internalType": "uint256",
							"name": "birthday",
							"type": "uint256"
						}
					],
					"internalType": "struct Question33.customer",
					"name": "",
					"type": "tuple"
				}
			],
			"stateMutability": "view",
			"type": "function"
		}
	]
}