{
	"data": {
		"bytecode": {
			"linkReferences": {},
			"object": "6080604052348015600e575f80fd5b50436002819055506103de806100235f395ff3fe608060405234801561000f575f80fd5b5060043610610029575f3560e01c80634b9f5c981461002d575b5f80fd5b610047600480360381019061004291906101ed565b610049565b005b436014600254610059919061024e565b11610099576040517f08c379a0000000000000000000000000000000000000000000000000000000008152600401610090906102db565b60405180910390fd5b60035f3373ffffffffffffffffffffffffffffffffffffffff1673ffffffffffffffffffffffffffffffffffffffff1681526020019081526020015f205f9054906101000a900460ff1615610123576040517f08c379a000000000000000000000000000000000000000000000000000000000815260040161011a90610343565b60405180910390fd5b8015610144575f8081548092919061013a90610361565b919050555061015c565b60015f81548092919061015690610361565b91905055505b600160035f3373ffffffffffffffffffffffffffffffffffffffff1673ffffffffffffffffffffffffffffffffffffffff1681526020019081526020015f205f6101000a81548160ff02191690831515021790555050565b5f80fd5b5f8115159050919050565b6101cc816101b8565b81146101d6575f80fd5b50565b5f813590506101e7816101c3565b92915050565b5f60208284031215610202576102016101b4565b5b5f61020f848285016101d9565b91505092915050565b5f819050919050565b7f4e487b71000000000000000000000000000000000000000000000000000000005f52601160045260245ffd5b5f61025882610218565b915061026383610218565b925082820190508082111561027b5761027a610221565b5b92915050565b5f82825260208201905092915050565b7f63616e6e6f7420766f74650000000000000000000000000000000000000000005f82015250565b5f6102c5600b83610281565b91506102d082610291565b602082019050919050565b5f6020820190508181035f8301526102f2816102b9565b9050919050565b7f616c726561647920766f746564000000000000000000000000000000000000005f82015250565b5f61032d600d83610281565b9150610338826102f9565b602082019050919050565b5f6020820190508181035f83015261035a81610321565b9050919050565b5f61036b82610218565b91507fffffffffffffffffffffffffffffffffffffffffffffffffffffffffffffffff820361039d5761039c610221565b5b60018201905091905056fea26469706673582212207a1bcf435807ccdec70856e12f02a6eba10dc8a0e1f4450082f5b49119dd589464736f6c634300081a0033",
			"opcodes": "PUSH1 0x80 PUSH1 0x40 MSTORE CALLVALUE DUP1 ISZERO PUSH1 0xE JUMPI PUSH0 DUP1 REVERT JUMPDEST POP NUMBER PUSH1 0x2 DUP2 SWAP1 SSTORE POP PUSH2 0x3DE DUP1 PUSH2 0x23 PUSH0 CODECOPY PUSH0 RETURN INVALID PUSH1 0x80 PUSH1 0x40 MSTORE CALLVALUE DUP1 ISZERO PUSH2 0xF JUMPI PUSH0 DUP1 REVERT JUMPDEST POP PUSH1 0x4 CALLDATASIZE LT PUSH2 0x29 JUMPI PUSH0 CALLDATALOAD PUSH1 0xE0 SHR DUP1 PUSH4 0x4B9F5C98 EQ PUSH2 0x2D JUMPI JUMPDEST PUSH0 DUP1 REVERT JUMPDEST PUSH2 0x47 PUSH1 0x4 DUP1 CALLDATASIZE SUB DUP2 ADD SWAP1 PUSH2 0x42 SWAP2 SWAP1 PUSH2 0x1ED JUMP JUMPDEST PUSH2 0x49 JUMP JUMPDEST STOP JUMPDEST NUMBER PUSH1 0x14 PUSH1 0x2 SLOAD PUSH2 0x59 SWAP2 SWAP1 PUSH2 0x24E JUMP JUMPDEST GT PUSH2 0x99 JUMPI PUSH1 0x40 MLOAD PUSH32 0x8C379A000000000000000000000000000000000000000000000000000000000 DUP2 MSTORE PUSH1 0x4 ADD PUSH2 0x90 SWAP1 PUSH2 0x2DB JUMP JUMPDEST PUSH1 0x40 MLOAD DUP1 SWAP2 SUB SWAP1 REVERT JUMPDEST PUSH1 0x3 PUSH0 CALLER PUSH20 0xFFFFFFFFFFFFFFFFFFFFFFFFFFFFFFFFFFFFFFFF AND PUSH20 0xFFFFFFFFFFFFFFFFFFFFFFFFFFFFFFFFFFFFFFFF AND DUP2 MSTORE PUSH1 0x20 ADD SWAP1 DUP2 MSTORE PUSH1 0x20 ADD PUSH0 KECCAK256 PUSH0 SWAP1 SLOAD SWAP1 PUSH2 0x100 EXP SWAP1 DIV PUSH1 0xFF AND ISZERO PUSH2 0x123 JUMPI PUSH1 0x40 MLOAD PUSH32 0x8C379A000000000000000000000000000000000000000000000000000000000 DUP2 MSTORE PUSH1 0x4 ADD PUSH2 0x11A SWAP1 PUSH2 0x343 JUMP JUMPDEST PUSH1 0x40 MLOAD DUP1 SWAP2 SUB SWAP1 REVERT JUMPDEST DUP1 ISZERO PUSH2 0x144 JUMPI PUSH0 DUP1 DUP2 SLOAD DUP1 SWAP3 SWAP2 SWAP1 PUSH2 0x13A SWAP1 PUSH2 0x361 JUMP JUMPDEST SWAP2 SWAP1 POP SSTORE POP PUSH2 0x15C JUMP JUMPDEST PUSH1 0x1 PUSH0 DUP2 SLOAD DUP1 SWAP3 SWAP2 SWAP1 PUSH2 0x156 SWAP1 PUSH2 0x361 JUMP JUMPDEST SWAP2 SWAP1 POP SSTORE POP JUMPDEST PUSH1 0x1 PUSH1 0x3 PUSH0 CALLER PUSH20 0xFFFFFFFFFFFFFFFFFFFFFFFFFFFFFFFFFFFFFFFF AND PUSH20 0xFFFFFFFFFFFFFFFFFFFFFFFFFFFFFFFFFFFFFFFF AND DUP2 MSTORE PUSH1 0x20 ADD SWAP1 DUP2 MSTORE PUSH1 0x20 ADD PUSH0 KECCAK256 PUSH0 PUSH2 0x100 EXP DUP2 SLOAD DUP2 PUSH1 0xFF MUL NOT AND SWAP1 DUP4 ISZERO ISZERO MUL OR SWAP1 SSTORE POP POP JUMP JUMPDEST PUSH0 DUP1 REVERT JUMPDEST PUSH0 DUP2 ISZERO ISZERO SWAP1 POP SWAP2 SWAP1 POP JUMP JUMPDEST PUSH2 0x1CC DUP2 PUSH2 0x1B8 JUMP JUMPDEST DUP2 EQ PUSH2 0x1D6 JUMPI PUSH0 DUP1 REVERT JUMPDEST POP JUMP JUMPDEST PUSH0 DUP2 CALLDATALOAD SWAP1 POP PUSH2 0x1E7 DUP2 PUSH2 0x1C3 JUMP JUMPDEST SWAP3 SWAP2 POP POP JUMP JUMPDEST PUSH0 PUSH1 0x20 DUP3 DUP5 SUB SLT ISZERO PUSH2 0x202 JUMPI PUSH2 0x201 PUSH2 0x1B4 JUMP JUMPDEST JUMPDEST PUSH0 PUSH2 0x20F DUP5 DUP3 DUP6 ADD PUSH2 0x1D9 JUMP JUMPDEST SWAP2 POP POP SWAP3 SWAP2 POP POP JUMP JUMPDEST PUSH0 DUP2 SWAP1 POP SWAP2 SWAP1 POP JUMP JUMPDEST PUSH32 0x4E487B7100000000000000000000000000000000000000000000000000000000 PUSH0 MSTORE PUSH1 0x11 PUSH1 0x4 MSTORE PUSH1 0x24 PUSH0 REVERT JUMPDEST PUSH0 PUSH2 0x258 DUP3 PUSH2 0x218 JUMP JUMPDEST SWAP2 POP PUSH2 0x263 DUP4 PUSH2 0x218 JUMP JUMPDEST SWAP3 POP DUP3 DUP3 ADD SWAP1 POP DUP1 DUP3 GT ISZERO PUSH2 0x27B JUMPI PUSH2 0x27A PUSH2 0x221 JUMP JUMPDEST JUMPDEST SWAP3 SWAP2 POP POP JUMP JUMPDEST PUSH0 DUP3 DUP3 MSTORE PUSH1 0x20 DUP3 ADD SWAP1 POP SWAP3 SWAP2 POP POP JUMP JUMPDEST PUSH32 0x63616E6E6F7420766F7465000000000000000000000000000000000000000000 PUSH0 DUP3 ADD MSTORE POP JUMP JUMPDEST PUSH0 PUSH2 0x2C5 PUSH1 0xB DUP4 PUSH2 0x281 JUMP JUMPDEST SWAP2 POP PUSH2 0x2D0 DUP3 PUSH2 0x291 JUMP JUMPDEST PUSH1 0x20 DUP3 ADD SWAP1 POP SWAP2 SWAP1 POP JUMP JUMPDEST PUSH0 PUSH1 0x20 DUP3 ADD SWAP1 POP DUP2 DUP2 SUB PUSH0 DUP4 ADD MSTORE PUSH2 0x2F2 DUP2 PUSH2 0x2B9 JUMP JUMPDEST SWAP1 POP SWAP2 SWAP1 POP JUMP JUMPDEST PUSH32 0x616C726561647920766F74656400000000000000000000000000000000000000 PUSH0 DUP3 ADD MSTORE POP JUMP JUMPDEST PUSH0 PUSH2 0x32D PUSH1 0xD DUP4 PUSH2 0x281 JUMP JUMPDEST SWAP2 POP PUSH2 0x338 DUP3 PUSH2 0x2F9 JUMP JUMPDEST PUSH1 0x20 DUP3 ADD SWAP1 POP SWAP2 SWAP1 POP JUMP JUMPDEST PUSH0 PUSH1 0x20 DUP3 ADD SWAP1 POP DUP2 DUP2 SUB PUSH0 DUP4 ADD MSTORE PUSH2 0x35A DUP2 PUSH2 0x321 JUMP JUMPDEST SWAP1 POP SWAP2 SWAP1 POP JUMP JUMPDEST PUSH0 PUSH2 0x36B DUP3 PUSH2 0x218 JUMP JUMPDEST SWAP2 POP PUSH32 0xFFFFFFFFFFFFFFFFFFFFFFFFFFFFFFFFFFFFFFFFFFFFFFFFFFFFFFFFFFFFFFFF DUP3 SUB PUSH2 0x39D JUMPI PUSH2 0x39C PUSH2 0x221 JUMP JUMPDEST JUMPDEST PUSH1 0x1 DUP3 ADD SWAP1 POP SWAP2 SWAP1 POP JUMP INVALID LOG2 PUSH5 0x6970667358 0x22 SLT KECCAK256 PUSH27 0x1BCF435807CCDEC70856E12F02A6EBA10DC8A0E1F4450082F5B491 NOT 0xDD PC SWAP5 PUSH5 0x736F6C6343 STOP ADDMOD BYTE STOP CALLER "
		},
		"gasEstimates": {
			"creation": {
				"codeDepositCost": "198000",
				"executionCost": "22349",
				"totalCost": "220349"
			},
			"external": {
				"vote(bool)": "infinite"
			}
		},
		"methodIdentifiers": {
			"vote(bool)": "4b9f5c98"
		}
	},
	"abi": [
		{
			"inputs": [],
			"stateMutability": "nonpayable",
			"type": "constructor"
		},
		{
			"inputs": [
				{
					"internalType": "bool",
					"name": "_vote",
					"type": "bool"
				}
			],
			"name": "vote",
			"outputs": [],
			"stateMutability": "nonpayable",
			"type": "function"
		}
	]
}