{
	"data": {
		"bytecode": {
			"linkReferences": {},
			"object": "6080604052348015600e575f80fd5b506108718061001c5f395ff3fe608060405234801561000f575f80fd5b5060043610610034575f3560e01c80639e7a13ad14610038578063ba5896561461006a575b5f80fd5b610052600480360381019061004d9190610248565b610086565b60405161006193929190610331565b60405180910390f35b610084600480360381019061007f91906104c3565b61015f565b005b5f8181548110610094575f80fd5b905f5260205f2090600402015f91509050805f0180546100b39061059f565b80601f01602080910402602001604051908101604052809291908181526020018280546100df9061059f565b801561012a5780601f106101015761010080835404028352916020019161012a565b820191905f5260205f20905b81548152906001019060200180831161010d57829003601f168201915b505050505090806001015490806002015f9054906101000a900473ffffffffffffffffffffffffffffffffffffffff16905083565b5f8060018160018154018082558091505003905f5260205f209060040201905085815f01908161018f919061076c565b5084816001018190555083816002015f6101000a81548173ffffffffffffffffffffffffffffffffffffffff021916908373ffffffffffffffffffffffffffffffffffffffff16021790555081816003015f8581526020019081526020015f2090816101fb919061076c565b50505050505050565b5f604051905090565b5f80fd5b5f80fd5b5f819050919050565b61022781610215565b8114610231575f80fd5b50565b5f813590506102428161021e565b92915050565b5f6020828403121561025d5761025c61020d565b5b5f61026a84828501610234565b91505092915050565b5f81519050919050565b5f82825260208201905092915050565b8281835e5f83830152505050565b5f601f19601f8301169050919050565b5f6102b582610273565b6102bf818561027d565b93506102cf81856020860161028d565b6102d88161029b565b840191505092915050565b6102ec81610215565b82525050565b5f73ffffffffffffffffffffffffffffffffffffffff82169050919050565b5f61031b826102f2565b9050919050565b61032b81610311565b82525050565b5f6060820190508181035f83015261034981866102ab565b905061035860208301856102e3565b6103656040830184610322565b949350505050565b5f80fd5b5f80fd5b7f4e487b71000000000000000000000000000000000000000000000000000000005f52604160045260245ffd5b6103ab8261029b565b810181811067ffffffffffffffff821117156103ca576103c9610375565b5b80604052505050565b5f6103dc610204565b90506103e882826103a2565b919050565b5f67ffffffffffffffff82111561040757610406610375565b5b6104108261029b565b9050602081019050919050565b828183375f83830152505050565b5f61043d610438846103ed565b6103d3565b90508281526020810184848401111561045957610458610371565b5b61046484828561041d565b509392505050565b5f82601f8301126104805761047f61036d565b5b813561049084826020860161042b565b91505092915050565b6104a281610311565b81146104ac575f80fd5b50565b5f813590506104bd81610499565b92915050565b5f805f805f60a086880312156104dc576104db61020d565b5b5f86013567ffffffffffffffff8111156104f9576104f8610211565b5b6105058882890161046c565b955050602061051688828901610234565b9450506040610527888289016104af565b935050606061053888828901610234565b925050608086013567ffffffffffffffff81111561055957610558610211565b5b6105658882890161046c565b9150509295509295909350565b7f4e487b71000000000000000000000000000000000000000000000000000000005f52602260045260245ffd5b5f60028204905060018216806105b657607f821691505b6020821081036105c9576105c8610572565b5b50919050565b5f819050815f5260205f209050919050565b5f6020601f8301049050919050565b5f82821b905092915050565b5f6008830261062b7fffffffffffffffffffffffffffffffffffffffffffffffffffffffffffffffff826105f0565b61063586836105f0565b95508019841693508086168417925050509392505050565b5f819050919050565b5f61067061066b61066684610215565b61064d565b610215565b9050919050565b5f819050919050565b61068983610656565b61069d61069582610677565b8484546105fc565b825550505050565b5f90565b6106b16106a5565b6106bc818484610680565b505050565b5b818110156106df576106d45f826106a9565b6001810190506106c2565b5050565b601f821115610724576106f5816105cf565b6106fe846105e1565b8101602085101561070d578190505b610721610719856105e1565b8301826106c1565b50505b505050565b5f82821c905092915050565b5f6107445f1984600802610729565b1980831691505092915050565b5f61075c8383610735565b9150826002028217905092915050565b61077582610273565b67ffffffffffffffff81111561078e5761078d610375565b5b610798825461059f565b6107a38282856106e3565b5f60209050601f8311600181146107d4575f84156107c2578287015190505b6107cc8582610751565b865550610833565b601f1984166107e2866105cf565b5f5b82811015610809578489015182556001820191506020850194506020810190506107e4565b868310156108265784890151610822601f891682610735565b8355505b6001600288020188555050505b50505050505056fea2646970667358221220c8b49614214f4086dfe1a2c6de86228035de846eb3a6ded0e81d57fc3bf3363f64736f6c634300081a0033",
			"opcodes": "PUSH1 0x80 PUSH1 0x40 MSTORE CALLVALUE DUP1 ISZERO PUSH1 0xE JUMPI PUSH0 DUP1 REVERT JUMPDEST POP PUSH2 0x871 DUP1 PUSH2 0x1C PUSH0 CODECOPY PUSH0 RETURN INVALID PUSH1 0x80 PUSH1 0x40 MSTORE CALLVALUE DUP1 ISZERO PUSH2 0xF JUMPI PUSH0 DUP1 REVERT JUMPDEST POP PUSH1 0x4 CALLDATASIZE LT PUSH2 0x34 JUMPI PUSH0 CALLDATALOAD PUSH1 0xE0 SHR DUP1 PUSH4 0x9E7A13AD EQ PUSH2 0x38 JUMPI DUP1 PUSH4 0xBA589656 EQ PUSH2 0x6A JUMPI JUMPDEST PUSH0 DUP1 REVERT JUMPDEST PUSH2 0x52 PUSH1 0x4 DUP1 CALLDATASIZE SUB DUP2 ADD SWAP1 PUSH2 0x4D SWAP2 SWAP1 PUSH2 0x248 JUMP JUMPDEST PUSH2 0x86 JUMP JUMPDEST PUSH1 0x40 MLOAD PUSH2 0x61 SWAP4 SWAP3 SWAP2 SWAP1 PUSH2 0x331 JUMP JUMPDEST PUSH1 0x40 MLOAD DUP1 SWAP2 SUB SWAP1 RETURN JUMPDEST PUSH2 0x84 PUSH1 0x4 DUP1 CALLDATASIZE SUB DUP2 ADD SWAP1 PUSH2 0x7F SWAP2 SWAP1 PUSH2 0x4C3 JUMP JUMPDEST PUSH2 0x15F JUMP JUMPDEST STOP JUMPDEST PUSH0 DUP2 DUP2 SLOAD DUP2 LT PUSH2 0x94 JUMPI PUSH0 DUP1 REVERT JUMPDEST SWAP1 PUSH0 MSTORE PUSH1 0x20 PUSH0 KECCAK256 SWAP1 PUSH1 0x4 MUL ADD PUSH0 SWAP2 POP SWAP1 POP DUP1 PUSH0 ADD DUP1 SLOAD PUSH2 0xB3 SWAP1 PUSH2 0x59F JUMP JUMPDEST DUP1 PUSH1 0x1F ADD PUSH1 0x20 DUP1 SWAP2 DIV MUL PUSH1 0x20 ADD PUSH1 0x40 MLOAD SWAP1 DUP2 ADD PUSH1 0x40 MSTORE DUP1 SWAP3 SWAP2 SWAP1 DUP2 DUP2 MSTORE PUSH1 0x20 ADD DUP3 DUP1 SLOAD PUSH2 0xDF SWAP1 PUSH2 0x59F JUMP JUMPDEST DUP1 ISZERO PUSH2 0x12A JUMPI DUP1 PUSH1 0x1F LT PUSH2 0x101 JUMPI PUSH2 0x100 DUP1 DUP4 SLOAD DIV MUL DUP4 MSTORE SWAP2 PUSH1 0x20 ADD SWAP2 PUSH2 0x12A JUMP JUMPDEST DUP3 ADD SWAP2 SWAP1 PUSH0 MSTORE PUSH1 0x20 PUSH0 KECCAK256 SWAP1 JUMPDEST DUP2 SLOAD DUP2 MSTORE SWAP1 PUSH1 0x1 ADD SWAP1 PUSH1 0x20 ADD DUP1 DUP4 GT PUSH2 0x10D JUMPI DUP3 SWAP1 SUB PUSH1 0x1F AND DUP3 ADD SWAP2 JUMPDEST POP POP POP POP POP SWAP1 DUP1 PUSH1 0x1 ADD SLOAD SWAP1 DUP1 PUSH1 0x2 ADD PUSH0 SWAP1 SLOAD SWAP1 PUSH2 0x100 EXP SWAP1 DIV PUSH20 0xFFFFFFFFFFFFFFFFFFFFFFFFFFFFFFFFFFFFFFFF AND SWAP1 POP DUP4 JUMP JUMPDEST PUSH0 DUP1 PUSH1 0x1 DUP2 PUSH1 0x1 DUP2 SLOAD ADD DUP1 DUP3 SSTORE DUP1 SWAP2 POP POP SUB SWAP1 PUSH0 MSTORE PUSH1 0x20 PUSH0 KECCAK256 SWAP1 PUSH1 0x4 MUL ADD SWAP1 POP DUP6 DUP2 PUSH0 ADD SWAP1 DUP2 PUSH2 0x18F SWAP2 SWAP1 PUSH2 0x76C JUMP JUMPDEST POP DUP5 DUP2 PUSH1 0x1 ADD DUP2 SWAP1 SSTORE POP DUP4 DUP2 PUSH1 0x2 ADD PUSH0 PUSH2 0x100 EXP DUP2 SLOAD DUP2 PUSH20 0xFFFFFFFFFFFFFFFFFFFFFFFFFFFFFFFFFFFFFFFF MUL NOT AND SWAP1 DUP4 PUSH20 0xFFFFFFFFFFFFFFFFFFFFFFFFFFFFFFFFFFFFFFFF AND MUL OR SWAP1 SSTORE POP DUP2 DUP2 PUSH1 0x3 ADD PUSH0 DUP6 DUP2 MSTORE PUSH1 0x20 ADD SWAP1 DUP2 MSTORE PUSH1 0x20 ADD PUSH0 KECCAK256 SWAP1 DUP2 PUSH2 0x1FB SWAP2 SWAP1 PUSH2 0x76C JUMP JUMPDEST POP POP POP POP POP POP POP JUMP JUMPDEST PUSH0 PUSH1 0x40 MLOAD SWAP1 POP SWAP1 JUMP JUMPDEST PUSH0 DUP1 REVERT JUMPDEST PUSH0 DUP1 REVERT JUMPDEST PUSH0 DUP2 SWAP1 POP SWAP2 SWAP1 POP JUMP JUMPDEST PUSH2 0x227 DUP2 PUSH2 0x215 JUMP JUMPDEST DUP2 EQ PUSH2 0x231 JUMPI PUSH0 DUP1 REVERT JUMPDEST POP JUMP JUMPDEST PUSH0 DUP2 CALLDATALOAD SWAP1 POP PUSH2 0x242 DUP2 PUSH2 0x21E JUMP JUMPDEST SWAP3 SWAP2 POP POP JUMP JUMPDEST PUSH0 PUSH1 0x20 DUP3 DUP5 SUB SLT ISZERO PUSH2 0x25D JUMPI PUSH2 0x25C PUSH2 0x20D JUMP JUMPDEST JUMPDEST PUSH0 PUSH2 0x26A DUP5 DUP3 DUP6 ADD PUSH2 0x234 JUMP JUMPDEST SWAP2 POP POP SWAP3 SWAP2 POP POP JUMP JUMPDEST PUSH0 DUP2 MLOAD SWAP1 POP SWAP2 SWAP1 POP JUMP JUMPDEST PUSH0 DUP3 DUP3 MSTORE PUSH1 0x20 DUP3 ADD SWAP1 POP SWAP3 SWAP2 POP POP JUMP JUMPDEST DUP3 DUP2 DUP4 MCOPY PUSH0 DUP4 DUP4 ADD MSTORE POP POP POP JUMP JUMPDEST PUSH0 PUSH1 0x1F NOT PUSH1 0x1F DUP4 ADD AND SWAP1 POP SWAP2 SWAP1 POP JUMP JUMPDEST PUSH0 PUSH2 0x2B5 DUP3 PUSH2 0x273 JUMP JUMPDEST PUSH2 0x2BF DUP2 DUP6 PUSH2 0x27D JUMP JUMPDEST SWAP4 POP PUSH2 0x2CF DUP2 DUP6 PUSH1 0x20 DUP7 ADD PUSH2 0x28D JUMP JUMPDEST PUSH2 0x2D8 DUP2 PUSH2 0x29B JUMP JUMPDEST DUP5 ADD SWAP2 POP POP SWAP3 SWAP2 POP POP JUMP JUMPDEST PUSH2 0x2EC DUP2 PUSH2 0x215 JUMP JUMPDEST DUP3 MSTORE POP POP JUMP JUMPDEST PUSH0 PUSH20 0xFFFFFFFFFFFFFFFFFFFFFFFFFFFFFFFFFFFFFFFF DUP3 AND SWAP1 POP SWAP2 SWAP1 POP JUMP JUMPDEST PUSH0 PUSH2 0x31B DUP3 PUSH2 0x2F2 JUMP JUMPDEST SWAP1 POP SWAP2 SWAP1 POP JUMP JUMPDEST PUSH2 0x32B DUP2 PUSH2 0x311 JUMP JUMPDEST DUP3 MSTORE POP POP JUMP JUMPDEST PUSH0 PUSH1 0x60 DUP3 ADD SWAP1 POP DUP2 DUP2 SUB PUSH0 DUP4 ADD MSTORE PUSH2 0x349 DUP2 DUP7 PUSH2 0x2AB JUMP JUMPDEST SWAP1 POP PUSH2 0x358 PUSH1 0x20 DUP4 ADD DUP6 PUSH2 0x2E3 JUMP JUMPDEST PUSH2 0x365 PUSH1 0x40 DUP4 ADD DUP5 PUSH2 0x322 JUMP JUMPDEST SWAP5 SWAP4 POP POP POP POP JUMP JUMPDEST PUSH0 DUP1 REVERT JUMPDEST PUSH0 DUP1 REVERT JUMPDEST PUSH32 0x4E487B7100000000000000000000000000000000000000000000000000000000 PUSH0 MSTORE PUSH1 0x41 PUSH1 0x4 MSTORE PUSH1 0x24 PUSH0 REVERT JUMPDEST PUSH2 0x3AB DUP3 PUSH2 0x29B JUMP JUMPDEST DUP2 ADD DUP2 DUP2 LT PUSH8 0xFFFFFFFFFFFFFFFF DUP3 GT OR ISZERO PUSH2 0x3CA JUMPI PUSH2 0x3C9 PUSH2 0x375 JUMP JUMPDEST JUMPDEST DUP1 PUSH1 0x40 MSTORE POP POP POP JUMP JUMPDEST PUSH0 PUSH2 0x3DC PUSH2 0x204 JUMP JUMPDEST SWAP1 POP PUSH2 0x3E8 DUP3 DUP3 PUSH2 0x3A2 JUMP JUMPDEST SWAP2 SWAP1 POP JUMP JUMPDEST PUSH0 PUSH8 0xFFFFFFFFFFFFFFFF DUP3 GT ISZERO PUSH2 0x407 JUMPI PUSH2 0x406 PUSH2 0x375 JUMP JUMPDEST JUMPDEST PUSH2 0x410 DUP3 PUSH2 0x29B JUMP JUMPDEST SWAP1 POP PUSH1 0x20 DUP2 ADD SWAP1 POP SWAP2 SWAP1 POP JUMP JUMPDEST DUP3 DUP2 DUP4 CALLDATACOPY PUSH0 DUP4 DUP4 ADD MSTORE POP POP POP JUMP JUMPDEST PUSH0 PUSH2 0x43D PUSH2 0x438 DUP5 PUSH2 0x3ED JUMP JUMPDEST PUSH2 0x3D3 JUMP JUMPDEST SWAP1 POP DUP3 DUP2 MSTORE PUSH1 0x20 DUP2 ADD DUP5 DUP5 DUP5 ADD GT ISZERO PUSH2 0x459 JUMPI PUSH2 0x458 PUSH2 0x371 JUMP JUMPDEST JUMPDEST PUSH2 0x464 DUP5 DUP3 DUP6 PUSH2 0x41D JUMP JUMPDEST POP SWAP4 SWAP3 POP POP POP JUMP JUMPDEST PUSH0 DUP3 PUSH1 0x1F DUP4 ADD SLT PUSH2 0x480 JUMPI PUSH2 0x47F PUSH2 0x36D JUMP JUMPDEST JUMPDEST DUP2 CALLDATALOAD PUSH2 0x490 DUP5 DUP3 PUSH1 0x20 DUP7 ADD PUSH2 0x42B JUMP JUMPDEST SWAP2 POP POP SWAP3 SWAP2 POP POP JUMP JUMPDEST PUSH2 0x4A2 DUP2 PUSH2 0x311 JUMP JUMPDEST DUP2 EQ PUSH2 0x4AC JUMPI PUSH0 DUP1 REVERT JUMPDEST POP JUMP JUMPDEST PUSH0 DUP2 CALLDATALOAD SWAP1 POP PUSH2 0x4BD DUP2 PUSH2 0x499 JUMP JUMPDEST SWAP3 SWAP2 POP POP JUMP JUMPDEST PUSH0 DUP1 PUSH0 DUP1 PUSH0 PUSH1 0xA0 DUP7 DUP9 SUB SLT ISZERO PUSH2 0x4DC JUMPI PUSH2 0x4DB PUSH2 0x20D JUMP JUMPDEST JUMPDEST PUSH0 DUP7 ADD CALLDATALOAD PUSH8 0xFFFFFFFFFFFFFFFF DUP2 GT ISZERO PUSH2 0x4F9 JUMPI PUSH2 0x4F8 PUSH2 0x211 JUMP JUMPDEST JUMPDEST PUSH2 0x505 DUP9 DUP3 DUP10 ADD PUSH2 0x46C JUMP JUMPDEST SWAP6 POP POP PUSH1 0x20 PUSH2 0x516 DUP9 DUP3 DUP10 ADD PUSH2 0x234 JUMP JUMPDEST SWAP5 POP POP PUSH1 0x40 PUSH2 0x527 DUP9 DUP3 DUP10 ADD PUSH2 0x4AF JUMP JUMPDEST SWAP4 POP POP PUSH1 0x60 PUSH2 0x538 DUP9 DUP3 DUP10 ADD PUSH2 0x234 JUMP JUMPDEST SWAP3 POP POP PUSH1 0x80 DUP7 ADD CALLDATALOAD PUSH8 0xFFFFFFFFFFFFFFFF DUP2 GT ISZERO PUSH2 0x559 JUMPI PUSH2 0x558 PUSH2 0x211 JUMP JUMPDEST JUMPDEST PUSH2 0x565 DUP9 DUP3 DUP10 ADD PUSH2 0x46C JUMP JUMPDEST SWAP2 POP POP SWAP3 SWAP6 POP SWAP3 SWAP6 SWAP1 SWAP4 POP JUMP JUMPDEST PUSH32 0x4E487B7100000000000000000000000000000000000000000000000000000000 PUSH0 MSTORE PUSH1 0x22 PUSH1 0x4 MSTORE PUSH1 0x24 PUSH0 REVERT JUMPDEST PUSH0 PUSH1 0x2 DUP3 DIV SWAP1 POP PUSH1 0x1 DUP3 AND DUP1 PUSH2 0x5B6 JUMPI PUSH1 0x7F DUP3 AND SWAP2 POP JUMPDEST PUSH1 0x20 DUP3 LT DUP2 SUB PUSH2 0x5C9 JUMPI PUSH2 0x5C8 PUSH2 0x572 JUMP JUMPDEST JUMPDEST POP SWAP2 SWAP1 POP JUMP JUMPDEST PUSH0 DUP2 SWAP1 POP DUP2 PUSH0 MSTORE PUSH1 0x20 PUSH0 KECCAK256 SWAP1 POP SWAP2 SWAP1 POP JUMP JUMPDEST PUSH0 PUSH1 0x20 PUSH1 0x1F DUP4 ADD DIV SWAP1 POP SWAP2 SWAP1 POP JUMP JUMPDEST PUSH0 DUP3 DUP3 SHL SWAP1 POP SWAP3 SWAP2 POP POP JUMP JUMPDEST PUSH0 PUSH1 0x8 DUP4 MUL PUSH2 0x62B PUSH32 0xFFFFFFFFFFFFFFFFFFFFFFFFFFFFFFFFFFFFFFFFFFFFFFFFFFFFFFFFFFFFFFFF DUP3 PUSH2 0x5F0 JUMP JUMPDEST PUSH2 0x635 DUP7 DUP4 PUSH2 0x5F0 JUMP JUMPDEST SWAP6 POP DUP1 NOT DUP5 AND SWAP4 POP DUP1 DUP7 AND DUP5 OR SWAP3 POP POP POP SWAP4 SWAP3 POP POP POP JUMP JUMPDEST PUSH0 DUP2 SWAP1 POP SWAP2 SWAP1 POP JUMP JUMPDEST PUSH0 PUSH2 0x670 PUSH2 0x66B PUSH2 0x666 DUP5 PUSH2 0x215 JUMP JUMPDEST PUSH2 0x64D JUMP JUMPDEST PUSH2 0x215 JUMP JUMPDEST SWAP1 POP SWAP2 SWAP1 POP JUMP JUMPDEST PUSH0 DUP2 SWAP1 POP SWAP2 SWAP1 POP JUMP JUMPDEST PUSH2 0x689 DUP4 PUSH2 0x656 JUMP JUMPDEST PUSH2 0x69D PUSH2 0x695 DUP3 PUSH2 0x677 JUMP JUMPDEST DUP5 DUP5 SLOAD PUSH2 0x5FC JUMP JUMPDEST DUP3 SSTORE POP POP POP POP JUMP JUMPDEST PUSH0 SWAP1 JUMP JUMPDEST PUSH2 0x6B1 PUSH2 0x6A5 JUMP JUMPDEST PUSH2 0x6BC DUP2 DUP5 DUP5 PUSH2 0x680 JUMP JUMPDEST POP POP POP JUMP JUMPDEST JUMPDEST DUP2 DUP2 LT ISZERO PUSH2 0x6DF JUMPI PUSH2 0x6D4 PUSH0 DUP3 PUSH2 0x6A9 JUMP JUMPDEST PUSH1 0x1 DUP2 ADD SWAP1 POP PUSH2 0x6C2 JUMP JUMPDEST POP POP JUMP JUMPDEST PUSH1 0x1F DUP3 GT ISZERO PUSH2 0x724 JUMPI PUSH2 0x6F5 DUP2 PUSH2 0x5CF JUMP JUMPDEST PUSH2 0x6FE DUP5 PUSH2 0x5E1 JUMP JUMPDEST DUP2 ADD PUSH1 0x20 DUP6 LT ISZERO PUSH2 0x70D JUMPI DUP2 SWAP1 POP JUMPDEST PUSH2 0x721 PUSH2 0x719 DUP6 PUSH2 0x5E1 JUMP JUMPDEST DUP4 ADD DUP3 PUSH2 0x6C1 JUMP JUMPDEST POP POP JUMPDEST POP POP POP JUMP JUMPDEST PUSH0 DUP3 DUP3 SHR SWAP1 POP SWAP3 SWAP2 POP POP JUMP JUMPDEST PUSH0 PUSH2 0x744 PUSH0 NOT DUP5 PUSH1 0x8 MUL PUSH2 0x729 JUMP JUMPDEST NOT DUP1 DUP4 AND SWAP2 POP POP SWAP3 SWAP2 POP POP JUMP JUMPDEST PUSH0 PUSH2 0x75C DUP4 DUP4 PUSH2 0x735 JUMP JUMPDEST SWAP2 POP DUP3 PUSH1 0x2 MUL DUP3 OR SWAP1 POP SWAP3 SWAP2 POP POP JUMP JUMPDEST PUSH2 0x775 DUP3 PUSH2 0x273 JUMP JUMPDEST PUSH8 0xFFFFFFFFFFFFFFFF DUP2 GT ISZERO PUSH2 0x78E JUMPI PUSH2 0x78D PUSH2 0x375 JUMP JUMPDEST JUMPDEST PUSH2 0x798 DUP3 SLOAD PUSH2 0x59F JUMP JUMPDEST PUSH2 0x7A3 DUP3 DUP3 DUP6 PUSH2 0x6E3 JUMP JUMPDEST PUSH0 PUSH1 0x20 SWAP1 POP PUSH1 0x1F DUP4 GT PUSH1 0x1 DUP2 EQ PUSH2 0x7D4 JUMPI PUSH0 DUP5 ISZERO PUSH2 0x7C2 JUMPI DUP3 DUP8 ADD MLOAD SWAP1 POP JUMPDEST PUSH2 0x7CC DUP6 DUP3 PUSH2 0x751 JUMP JUMPDEST DUP7 SSTORE POP PUSH2 0x833 JUMP JUMPDEST PUSH1 0x1F NOT DUP5 AND PUSH2 0x7E2 DUP7 PUSH2 0x5CF JUMP JUMPDEST PUSH0 JUMPDEST DUP3 DUP2 LT ISZERO PUSH2 0x809 JUMPI DUP5 DUP10 ADD MLOAD DUP3 SSTORE PUSH1 0x1 DUP3 ADD SWAP2 POP PUSH1 0x20 DUP6 ADD SWAP5 POP PUSH1 0x20 DUP2 ADD SWAP1 POP PUSH2 0x7E4 JUMP JUMPDEST DUP7 DUP4 LT ISZERO PUSH2 0x826 JUMPI DUP5 DUP10 ADD MLOAD PUSH2 0x822 PUSH1 0x1F DUP10 AND DUP3 PUSH2 0x735 JUMP JUMPDEST DUP4 SSTORE POP JUMPDEST PUSH1 0x1 PUSH1 0x2 DUP9 MUL ADD DUP9 SSTORE POP POP POP JUMPDEST POP POP POP POP POP POP JUMP INVALID LOG2 PUSH5 0x6970667358 0x22 SLT KECCAK256 0xC8 0xB4 SWAP7 EQ 0x21 0x4F BLOCKHASH DUP7 0xDF 0xE1 LOG2 0xC6 0xDE DUP7 0x22 DUP1 CALLDATALOAD 0xDE DUP5 PUSH15 0xB3A6DED0E81D57FC3BF3363F64736F PUSH13 0x634300081A0033000000000000 "
		},
		"gasEstimates": {
			"creation": {
				"codeDepositCost": "432200",
				"executionCost": "466",
				"totalCost": "432666"
			},
			"external": {
				"people(uint256)": "infinite",
				"pushPerson(string,uint256,address,uint256,string)": "infinite"
			}
		},
		"methodIdentifiers": {
			"people(uint256)": "9e7a13ad",
			"pushPerson(string,uint256,address,uint256,string)": "ba589656"
		}
	},
	"abi": [
		{
			"inputs": [
				{
					"internalType": "uint256",
					"name": "",
					"type": "uint256"
				}
			],
			"name": "people",
			"outputs": [
				{
					"internalType": "string",
					"name": "name",
					"type": "string"
				},
				{
					"internalType": "uint256",
					"name": "number",
					"type": "uint256"
				},
				{
					"internalType": "address",
					"name": "addr",
					"type": "address"
				}
			],
			"stateMutability": "view",
			"type": "function"
		},
		{
			"inputs": [
				{
					"internalType": "string",
					"name": "_name",
					"type": "string"
				},
				{
					"internalType": "uint256",
					"name": "_number",
					"type": "uint256"
				},
				{
					"internalType": "address",
					"name": "_addr",
					"type": "address"
				},
				{
					"internalType": "uint256",
					"name": "_n",
					"type": "uint256"
				},
				{
					"internalType": "string",
					"name": "_s",
					"type": "string"
				}
			],
			"name": "pushPerson",
			"outputs": [],
			"stateMutability": "nonpayable",
			"type": "function"
		}
	]
}