{
	"data": {
		"bytecode": {
			"linkReferences": {},
			"object": "6080604052348015600e575f80fd5b5061023f8061001c5f395ff3fe608060405234801561000f575f80fd5b5060043610610034575f3560e01c806345f09ce91461003857806369ba1a7514610056575b5f80fd5b610040610072565b60405161004d919061018e565b60405180910390f35b610070600480360381019061006b91906101de565b610082565b005b5f8054906101000a900460ff1681565b600781106100b7575f805f6101000a81548160ff021916908360028111156100ad576100ac61011b565b5b0217905550610118565b600481106100ed5760015f806101000a81548160ff021916908360028111156100e3576100e261011b565b5b0217905550610117565b60025f806101000a81548160ff021916908360028111156101115761011061011b565b5b02179055505b5b50565b7f4e487b71000000000000000000000000000000000000000000000000000000005f52602160045260245ffd5b600381106101595761015861011b565b5b50565b5f81905061016982610148565b919050565b5f6101788261015c565b9050919050565b6101888161016e565b82525050565b5f6020820190506101a15f83018461017f565b92915050565b5f80fd5b5f819050919050565b6101bd816101ab565b81146101c7575f80fd5b50565b5f813590506101d8816101b4565b92915050565b5f602082840312156101f3576101f26101a7565b5b5f610200848285016101ca565b9150509291505056fea2646970667358221220eafffae7968a875f45f57872801cb0f564310e2bd311554765fef24fa6b619e064736f6c634300081a0033",
			"opcodes": "PUSH1 0x80 PUSH1 0x40 MSTORE CALLVALUE DUP1 ISZERO PUSH1 0xE JUMPI PUSH0 DUP1 REVERT JUMPDEST POP PUSH2 0x23F DUP1 PUSH2 0x1C PUSH0 CODECOPY PUSH0 RETURN INVALID PUSH1 0x80 PUSH1 0x40 MSTORE CALLVALUE DUP1 ISZERO PUSH2 0xF JUMPI PUSH0 DUP1 REVERT JUMPDEST POP PUSH1 0x4 CALLDATASIZE LT PUSH2 0x34 JUMPI PUSH0 CALLDATALOAD PUSH1 0xE0 SHR DUP1 PUSH4 0x45F09CE9 EQ PUSH2 0x38 JUMPI DUP1 PUSH4 0x69BA1A75 EQ PUSH2 0x56 JUMPI JUMPDEST PUSH0 DUP1 REVERT JUMPDEST PUSH2 0x40 PUSH2 0x72 JUMP JUMPDEST PUSH1 0x40 MLOAD PUSH2 0x4D SWAP2 SWAP1 PUSH2 0x18E JUMP JUMPDEST PUSH1 0x40 MLOAD DUP1 SWAP2 SUB SWAP1 RETURN JUMPDEST PUSH2 0x70 PUSH1 0x4 DUP1 CALLDATASIZE SUB DUP2 ADD SWAP1 PUSH2 0x6B SWAP2 SWAP1 PUSH2 0x1DE JUMP JUMPDEST PUSH2 0x82 JUMP JUMPDEST STOP JUMPDEST PUSH0 DUP1 SLOAD SWAP1 PUSH2 0x100 EXP SWAP1 DIV PUSH1 0xFF AND DUP2 JUMP JUMPDEST PUSH1 0x7 DUP2 LT PUSH2 0xB7 JUMPI PUSH0 DUP1 PUSH0 PUSH2 0x100 EXP DUP2 SLOAD DUP2 PUSH1 0xFF MUL NOT AND SWAP1 DUP4 PUSH1 0x2 DUP2 GT ISZERO PUSH2 0xAD JUMPI PUSH2 0xAC PUSH2 0x11B JUMP JUMPDEST JUMPDEST MUL OR SWAP1 SSTORE POP PUSH2 0x118 JUMP JUMPDEST PUSH1 0x4 DUP2 LT PUSH2 0xED JUMPI PUSH1 0x1 PUSH0 DUP1 PUSH2 0x100 EXP DUP2 SLOAD DUP2 PUSH1 0xFF MUL NOT AND SWAP1 DUP4 PUSH1 0x2 DUP2 GT ISZERO PUSH2 0xE3 JUMPI PUSH2 0xE2 PUSH2 0x11B JUMP JUMPDEST JUMPDEST MUL OR SWAP1 SSTORE POP PUSH2 0x117 JUMP JUMPDEST PUSH1 0x2 PUSH0 DUP1 PUSH2 0x100 EXP DUP2 SLOAD DUP2 PUSH1 0xFF MUL NOT AND SWAP1 DUP4 PUSH1 0x2 DUP2 GT ISZERO PUSH2 0x111 JUMPI PUSH2 0x110 PUSH2 0x11B JUMP JUMPDEST JUMPDEST MUL OR SWAP1 SSTORE POP JUMPDEST JUMPDEST POP JUMP JUMPDEST PUSH32 0x4E487B7100000000000000000000000000000000000000000000000000000000 PUSH0 MSTORE PUSH1 0x21 PUSH1 0x4 MSTORE PUSH1 0x24 PUSH0 REVERT JUMPDEST PUSH1 0x3 DUP2 LT PUSH2 0x159 JUMPI PUSH2 0x158 PUSH2 0x11B JUMP JUMPDEST JUMPDEST POP JUMP JUMPDEST PUSH0 DUP2 SWAP1 POP PUSH2 0x169 DUP3 PUSH2 0x148 JUMP JUMPDEST SWAP2 SWAP1 POP JUMP JUMPDEST PUSH0 PUSH2 0x178 DUP3 PUSH2 0x15C JUMP JUMPDEST SWAP1 POP SWAP2 SWAP1 POP JUMP JUMPDEST PUSH2 0x188 DUP2 PUSH2 0x16E JUMP JUMPDEST DUP3 MSTORE POP POP JUMP JUMPDEST PUSH0 PUSH1 0x20 DUP3 ADD SWAP1 POP PUSH2 0x1A1 PUSH0 DUP4 ADD DUP5 PUSH2 0x17F JUMP JUMPDEST SWAP3 SWAP2 POP POP JUMP JUMPDEST PUSH0 DUP1 REVERT JUMPDEST PUSH0 DUP2 SWAP1 POP SWAP2 SWAP1 POP JUMP JUMPDEST PUSH2 0x1BD DUP2 PUSH2 0x1AB JUMP JUMPDEST DUP2 EQ PUSH2 0x1C7 JUMPI PUSH0 DUP1 REVERT JUMPDEST POP JUMP JUMPDEST PUSH0 DUP2 CALLDATALOAD SWAP1 POP PUSH2 0x1D8 DUP2 PUSH2 0x1B4 JUMP JUMPDEST SWAP3 SWAP2 POP POP JUMP JUMPDEST PUSH0 PUSH1 0x20 DUP3 DUP5 SUB SLT ISZERO PUSH2 0x1F3 JUMPI PUSH2 0x1F2 PUSH2 0x1A7 JUMP JUMPDEST JUMPDEST PUSH0 PUSH2 0x200 DUP5 DUP3 DUP6 ADD PUSH2 0x1CA JUMP JUMPDEST SWAP2 POP POP SWAP3 SWAP2 POP POP JUMP INVALID LOG2 PUSH5 0x6970667358 0x22 SLT KECCAK256 0xEA SELFDESTRUCT STATICCALL 0xE7 SWAP7 DUP11 DUP8 PUSH0 GASLIMIT CREATE2 PUSH25 0x72801CB0F564310E2BD311554765FEF24FA6B619E064736F6C PUSH4 0x4300081A STOP CALLER "
		},
		"gasEstimates": {
			"creation": {
				"codeDepositCost": "115000",
				"executionCost": "157",
				"totalCost": "115157"
			},
			"external": {
				"Status()": "2529",
				"setStatus(uint256)": "24745"
			}
		},
		"methodIdentifiers": {
			"Status()": "45f09ce9",
			"setStatus(uint256)": "69ba1a75"
		}
	},
	"abi": [
		{
			"inputs": [],
			"name": "Status",
			"outputs": [
				{
					"internalType": "enum Question36.status",
					"name": "",
					"type": "uint8"
				}
			],
			"stateMutability": "view",
			"type": "function"
		},
		{
			"inputs": [
				{
					"internalType": "uint256",
					"name": "_a",
					"type": "uint256"
				}
			],
			"name": "setStatus",
			"outputs": [],
			"stateMutability": "nonpayable",
			"type": "function"
		}
	]
}