{
	"data": {
		"bytecode": {
			"linkReferences": {},
			"object": "6080604052348015600e575f80fd5b5061046d8061001c5f395ff3fe608060405234801561000f575f80fd5b5060043610610029575f3560e01c806314a84bbf1461002d575b5f80fd5b610047600480360381019061004291906102db565b61005d565b6040516100549190610382565b60405180910390f35b60606001825f81518110610074576100736103a2565b5b60200260200101511480156100a4575060028260018151811061009a576100996103a2565b5b6020026020010151145b80156100cb57506003826002815181106100c1576100c06103a2565b5b6020026020010151145b61010a576040517f08c379a000000000000000000000000000000000000000000000000000000000815260040161010190610419565b60405180910390fd5b6040518060400160405280600c81526020017f3120616e642032206f72203300000000000000000000000000000000000000008152509050919050565b5f604051905090565b5f80fd5b5f80fd5b5f80fd5b5f601f19601f8301169050919050565b7f4e487b71000000000000000000000000000000000000000000000000000000005f52604160045260245ffd5b6101a28261015c565b810181811067ffffffffffffffff821117156101c1576101c061016c565b5b80604052505050565b5f6101d3610147565b90506101df8282610199565b919050565b5f67ffffffffffffffff8211156101fe576101fd61016c565b5b602082029050602081019050919050565b5f80fd5b5f819050919050565b61022581610213565b811461022f575f80fd5b50565b5f813590506102408161021c565b92915050565b5f610258610253846101e4565b6101ca565b9050808382526020820190506020840283018581111561027b5761027a61020f565b5b835b818110156102a457806102908882610232565b84526020840193505060208101905061027d565b5050509392505050565b5f82601f8301126102c2576102c1610158565b5b81356102d2848260208601610246565b91505092915050565b5f602082840312156102f0576102ef610150565b5b5f82013567ffffffffffffffff81111561030d5761030c610154565b5b610319848285016102ae565b91505092915050565b5f81519050919050565b5f82825260208201905092915050565b8281835e5f83830152505050565b5f61035482610322565b61035e818561032c565b935061036e81856020860161033c565b6103778161015c565b840191505092915050565b5f6020820190508181035f83015261039a818461034a565b905092915050565b7f4e487b71000000000000000000000000000000000000000000000000000000005f52603260045260245ffd5b7f4e756d62657273206d75737420626520312c20322c203320696e206f726465725f82015250565b5f61040360208361032c565b915061040e826103cf565b602082019050919050565b5f6020820190508181035f830152610430816103f7565b905091905056fea264697066735822122082fb70bef6f6c62007462cca6d0b5c65046f97cdea7dd9b9b6348957404b301964736f6c634300081a0033",
			"opcodes": "PUSH1 0x80 PUSH1 0x40 MSTORE CALLVALUE DUP1 ISZERO PUSH1 0xE JUMPI PUSH0 DUP1 REVERT JUMPDEST POP PUSH2 0x46D DUP1 PUSH2 0x1C PUSH0 CODECOPY PUSH0 RETURN INVALID PUSH1 0x80 PUSH1 0x40 MSTORE CALLVALUE DUP1 ISZERO PUSH2 0xF JUMPI PUSH0 DUP1 REVERT JUMPDEST POP PUSH1 0x4 CALLDATASIZE LT PUSH2 0x29 JUMPI PUSH0 CALLDATALOAD PUSH1 0xE0 SHR DUP1 PUSH4 0x14A84BBF EQ PUSH2 0x2D JUMPI JUMPDEST PUSH0 DUP1 REVERT JUMPDEST PUSH2 0x47 PUSH1 0x4 DUP1 CALLDATASIZE SUB DUP2 ADD SWAP1 PUSH2 0x42 SWAP2 SWAP1 PUSH2 0x2DB JUMP JUMPDEST PUSH2 0x5D JUMP JUMPDEST PUSH1 0x40 MLOAD PUSH2 0x54 SWAP2 SWAP1 PUSH2 0x382 JUMP JUMPDEST PUSH1 0x40 MLOAD DUP1 SWAP2 SUB SWAP1 RETURN JUMPDEST PUSH1 0x60 PUSH1 0x1 DUP3 PUSH0 DUP2 MLOAD DUP2 LT PUSH2 0x74 JUMPI PUSH2 0x73 PUSH2 0x3A2 JUMP JUMPDEST JUMPDEST PUSH1 0x20 MUL PUSH1 0x20 ADD ADD MLOAD EQ DUP1 ISZERO PUSH2 0xA4 JUMPI POP PUSH1 0x2 DUP3 PUSH1 0x1 DUP2 MLOAD DUP2 LT PUSH2 0x9A JUMPI PUSH2 0x99 PUSH2 0x3A2 JUMP JUMPDEST JUMPDEST PUSH1 0x20 MUL PUSH1 0x20 ADD ADD MLOAD EQ JUMPDEST DUP1 ISZERO PUSH2 0xCB JUMPI POP PUSH1 0x3 DUP3 PUSH1 0x2 DUP2 MLOAD DUP2 LT PUSH2 0xC1 JUMPI PUSH2 0xC0 PUSH2 0x3A2 JUMP JUMPDEST JUMPDEST PUSH1 0x20 MUL PUSH1 0x20 ADD ADD MLOAD EQ JUMPDEST PUSH2 0x10A JUMPI PUSH1 0x40 MLOAD PUSH32 0x8C379A000000000000000000000000000000000000000000000000000000000 DUP2 MSTORE PUSH1 0x4 ADD PUSH2 0x101 SWAP1 PUSH2 0x419 JUMP JUMPDEST PUSH1 0x40 MLOAD DUP1 SWAP2 SUB SWAP1 REVERT JUMPDEST PUSH1 0x40 MLOAD DUP1 PUSH1 0x40 ADD PUSH1 0x40 MSTORE DUP1 PUSH1 0xC DUP2 MSTORE PUSH1 0x20 ADD PUSH32 0x3120616E642032206F7220330000000000000000000000000000000000000000 DUP2 MSTORE POP SWAP1 POP SWAP2 SWAP1 POP JUMP JUMPDEST PUSH0 PUSH1 0x40 MLOAD SWAP1 POP SWAP1 JUMP JUMPDEST PUSH0 DUP1 REVERT JUMPDEST PUSH0 DUP1 REVERT JUMPDEST PUSH0 DUP1 REVERT JUMPDEST PUSH0 PUSH1 0x1F NOT PUSH1 0x1F DUP4 ADD AND SWAP1 POP SWAP2 SWAP1 POP JUMP JUMPDEST PUSH32 0x4E487B7100000000000000000000000000000000000000000000000000000000 PUSH0 MSTORE PUSH1 0x41 PUSH1 0x4 MSTORE PUSH1 0x24 PUSH0 REVERT JUMPDEST PUSH2 0x1A2 DUP3 PUSH2 0x15C JUMP JUMPDEST DUP2 ADD DUP2 DUP2 LT PUSH8 0xFFFFFFFFFFFFFFFF DUP3 GT OR ISZERO PUSH2 0x1C1 JUMPI PUSH2 0x1C0 PUSH2 0x16C JUMP JUMPDEST JUMPDEST DUP1 PUSH1 0x40 MSTORE POP POP POP JUMP JUMPDEST PUSH0 PUSH2 0x1D3 PUSH2 0x147 JUMP JUMPDEST SWAP1 POP PUSH2 0x1DF DUP3 DUP3 PUSH2 0x199 JUMP JUMPDEST SWAP2 SWAP1 POP JUMP JUMPDEST PUSH0 PUSH8 0xFFFFFFFFFFFFFFFF DUP3 GT ISZERO PUSH2 0x1FE JUMPI PUSH2 0x1FD PUSH2 0x16C JUMP JUMPDEST JUMPDEST PUSH1 0x20 DUP3 MUL SWAP1 POP PUSH1 0x20 DUP2 ADD SWAP1 POP SWAP2 SWAP1 POP JUMP JUMPDEST PUSH0 DUP1 REVERT JUMPDEST PUSH0 DUP2 SWAP1 POP SWAP2 SWAP1 POP JUMP JUMPDEST PUSH2 0x225 DUP2 PUSH2 0x213 JUMP JUMPDEST DUP2 EQ PUSH2 0x22F JUMPI PUSH0 DUP1 REVERT JUMPDEST POP JUMP JUMPDEST PUSH0 DUP2 CALLDATALOAD SWAP1 POP PUSH2 0x240 DUP2 PUSH2 0x21C JUMP JUMPDEST SWAP3 SWAP2 POP POP JUMP JUMPDEST PUSH0 PUSH2 0x258 PUSH2 0x253 DUP5 PUSH2 0x1E4 JUMP JUMPDEST PUSH2 0x1CA JUMP JUMPDEST SWAP1 POP DUP1 DUP4 DUP3 MSTORE PUSH1 0x20 DUP3 ADD SWAP1 POP PUSH1 0x20 DUP5 MUL DUP4 ADD DUP6 DUP2 GT ISZERO PUSH2 0x27B JUMPI PUSH2 0x27A PUSH2 0x20F JUMP JUMPDEST JUMPDEST DUP4 JUMPDEST DUP2 DUP2 LT ISZERO PUSH2 0x2A4 JUMPI DUP1 PUSH2 0x290 DUP9 DUP3 PUSH2 0x232 JUMP JUMPDEST DUP5 MSTORE PUSH1 0x20 DUP5 ADD SWAP4 POP POP PUSH1 0x20 DUP2 ADD SWAP1 POP PUSH2 0x27D JUMP JUMPDEST POP POP POP SWAP4 SWAP3 POP POP POP JUMP JUMPDEST PUSH0 DUP3 PUSH1 0x1F DUP4 ADD SLT PUSH2 0x2C2 JUMPI PUSH2 0x2C1 PUSH2 0x158 JUMP JUMPDEST JUMPDEST DUP2 CALLDATALOAD PUSH2 0x2D2 DUP5 DUP3 PUSH1 0x20 DUP7 ADD PUSH2 0x246 JUMP JUMPDEST SWAP2 POP POP SWAP3 SWAP2 POP POP JUMP JUMPDEST PUSH0 PUSH1 0x20 DUP3 DUP5 SUB SLT ISZERO PUSH2 0x2F0 JUMPI PUSH2 0x2EF PUSH2 0x150 JUMP JUMPDEST JUMPDEST PUSH0 DUP3 ADD CALLDATALOAD PUSH8 0xFFFFFFFFFFFFFFFF DUP2 GT ISZERO PUSH2 0x30D JUMPI PUSH2 0x30C PUSH2 0x154 JUMP JUMPDEST JUMPDEST PUSH2 0x319 DUP5 DUP3 DUP6 ADD PUSH2 0x2AE JUMP JUMPDEST SWAP2 POP POP SWAP3 SWAP2 POP POP JUMP JUMPDEST PUSH0 DUP2 MLOAD SWAP1 POP SWAP2 SWAP1 POP JUMP JUMPDEST PUSH0 DUP3 DUP3 MSTORE PUSH1 0x20 DUP3 ADD SWAP1 POP SWAP3 SWAP2 POP POP JUMP JUMPDEST DUP3 DUP2 DUP4 MCOPY PUSH0 DUP4 DUP4 ADD MSTORE POP POP POP JUMP JUMPDEST PUSH0 PUSH2 0x354 DUP3 PUSH2 0x322 JUMP JUMPDEST PUSH2 0x35E DUP2 DUP6 PUSH2 0x32C JUMP JUMPDEST SWAP4 POP PUSH2 0x36E DUP2 DUP6 PUSH1 0x20 DUP7 ADD PUSH2 0x33C JUMP JUMPDEST PUSH2 0x377 DUP2 PUSH2 0x15C JUMP JUMPDEST DUP5 ADD SWAP2 POP POP SWAP3 SWAP2 POP POP JUMP JUMPDEST PUSH0 PUSH1 0x20 DUP3 ADD SWAP1 POP DUP2 DUP2 SUB PUSH0 DUP4 ADD MSTORE PUSH2 0x39A DUP2 DUP5 PUSH2 0x34A JUMP JUMPDEST SWAP1 POP SWAP3 SWAP2 POP POP JUMP JUMPDEST PUSH32 0x4E487B7100000000000000000000000000000000000000000000000000000000 PUSH0 MSTORE PUSH1 0x32 PUSH1 0x4 MSTORE PUSH1 0x24 PUSH0 REVERT JUMPDEST PUSH32 0x4E756D62657273206D75737420626520312C20322C203320696E206F72646572 PUSH0 DUP3 ADD MSTORE POP JUMP JUMPDEST PUSH0 PUSH2 0x403 PUSH1 0x20 DUP4 PUSH2 0x32C JUMP JUMPDEST SWAP2 POP PUSH2 0x40E DUP3 PUSH2 0x3CF JUMP JUMPDEST PUSH1 0x20 DUP3 ADD SWAP1 POP SWAP2 SWAP1 POP JUMP JUMPDEST PUSH0 PUSH1 0x20 DUP3 ADD SWAP1 POP DUP2 DUP2 SUB PUSH0 DUP4 ADD MSTORE PUSH2 0x430 DUP2 PUSH2 0x3F7 JUMP JUMPDEST SWAP1 POP SWAP2 SWAP1 POP JUMP INVALID LOG2 PUSH5 0x6970667358 0x22 SLT KECCAK256 DUP3 0xFB PUSH17 0xBEF6F6C62007462CCA6D0B5C65046F97CD 0xEA PUSH30 0xD9B9B6348957404B301964736F6C634300081A0033000000000000000000 "
		},
		"gasEstimates": {
			"creation": {
				"codeDepositCost": "226600",
				"executionCost": "267",
				"totalCost": "226867"
			},
			"external": {
				"processNumbers(uint256[])": "infinite"
			}
		},
		"methodIdentifiers": {
			"processNumbers(uint256[])": "14a84bbf"
		}
	},
	"abi": [
		{
			"inputs": [
				{
					"internalType": "uint256[]",
					"name": "numbers",
					"type": "uint256[]"
				}
			],
			"name": "processNumbers",
			"outputs": [
				{
					"internalType": "string",
					"name": "",
					"type": "string"
				}
			],
			"stateMutability": "pure",
			"type": "function"
		}
	]
}