{
	"data": {
		"bytecode": {
			"linkReferences": {},
			"object": "6080604052348015600e575f80fd5b50610c6a8061001c5f395ff3fe608060405234801561000f575f80fd5b5060043610610060575f3560e01c806317ea209014610064578063589d60901461009457806382326726146100c4578063a17a9e66146100f4578063ce8bb06514610124578063e939567914610154575b5f80fd5b61007e60048036038101906100799190610804565b610184565b60405161008b91906108ab565b60405180910390f35b6100ae60048036038101906100a99190610901565b6101ef565b6040516100bb9190610966565b60405180910390f35b6100de60048036038101906100d99190610804565b6101fb565b6040516100eb91906108ab565b60405180910390f35b61010e6004803603810190610109919061097f565b6102d5565b60405161011b91906108ab565b60405180910390f35b61013e6004803603810190610139919061097f565b6102e7565b60405161014b91906109b9565b60405180910390f35b61016e6004803603810190610169919061097f565b610321565b60405161017b91906108ab565b60405180910390f35b6060805f5b83518110156101e557816101b68583815181106101a9576101a86109d2565b5b6020026020010151610455565b6040516020016101c7929190610a39565b60405160208183030381529060405291508080600101915050610189565b5080915050919050565b5f8160f81b9050919050565b60605f825167ffffffffffffffff81111561021957610218610695565b5b6040519080825280601f01601f19166020018201604052801561024b5781602001600182028036833780820191505090505b5090505f5b83518110156102ac578161027d8583815181106102705761026f6109d2565b5b6020026020010151610321565b60405160200161028e929190610aa0565b60405160208183030381529060405291508080600101915050610250565b50806040516020016102be9190610ac3565b604051602081830303815290604052915050919050565b60606102e082610455565b9050919050565b5f80600190505b600a831061031857600a836103039190610b33565b9250808061031090610b63565b9150506102ee565b80915050919050565b60605f8203610367576040518060400160405280600181526020017f30000000000000000000000000000000000000000000000000000000000000008152509050610450565b5f610371836102e7565b90505f8167ffffffffffffffff81111561038e5761038d610695565b5b6040519080825280601f01601f1916602001820160405280156103c05781602001600182028036833780820191505090505b5090505b5f841461044a5781806103d690610baa565b925050600a846103e69190610bd1565b60306103f29190610c01565b60f81b818381518110610408576104076109d2565b5b60200101907effffffffffffffffffffffffffffffffffffffffffffffffffffffffffffff191690815f1a905350600a846104439190610b33565b93506103c4565b80925050505b919050565b60605f60016104638461051f565b0190505f8167ffffffffffffffff81111561048157610480610695565b5b6040519080825280601f01601f1916602001820160405280156104b35781602001600182028036833780820191505090505b5090505f82602001820190505b600115610514578080600190039150507f3031323334353637383961626364656600000000000000000000000000000000600a86061a8153600a858161050957610508610ad9565b5b0494505f85036104c0575b819350505050919050565b5f805f90507a184f03e93ff9f4daa797ed6e38ed64bf6a1f010000000000000000831061057b577a184f03e93ff9f4daa797ed6e38ed64bf6a1f010000000000000000838161057157610570610ad9565b5b0492506040810190505b6d04ee2d6d415b85acef810000000083106105b8576d04ee2d6d415b85acef810000000083816105ae576105ad610ad9565b5b0492506020810190505b662386f26fc1000083106105e757662386f26fc1000083816105dd576105dc610ad9565b5b0492506010810190505b6305f5e1008310610610576305f5e100838161060657610605610ad9565b5b0492506008810190505b612710831061063557612710838161062b5761062a610ad9565b5b0492506004810190505b60648310610658576064838161064e5761064d610ad9565b5b0492506002810190505b600a8310610667576001810190505b80915050919050565b5f604051905090565b5f80fd5b5f80fd5b5f80fd5b5f601f19601f8301169050919050565b7f4e487b71000000000000000000000000000000000000000000000000000000005f52604160045260245ffd5b6106cb82610685565b810181811067ffffffffffffffff821117156106ea576106e9610695565b5b80604052505050565b5f6106fc610670565b905061070882826106c2565b919050565b5f67ffffffffffffffff82111561072757610726610695565b5b602082029050602081019050919050565b5f80fd5b5f819050919050565b61074e8161073c565b8114610758575f80fd5b50565b5f8135905061076981610745565b92915050565b5f61078161077c8461070d565b6106f3565b905080838252602082019050602084028301858111156107a4576107a3610738565b5b835b818110156107cd57806107b9888261075b565b8452602084019350506020810190506107a6565b5050509392505050565b5f82601f8301126107eb576107ea610681565b5b81356107fb84826020860161076f565b91505092915050565b5f6020828403121561081957610818610679565b5b5f82013567ffffffffffffffff8111156108365761083561067d565b5b610842848285016107d7565b91505092915050565b5f81519050919050565b5f82825260208201905092915050565b8281835e5f83830152505050565b5f61087d8261084b565b6108878185610855565b9350610897818560208601610865565b6108a081610685565b840191505092915050565b5f6020820190508181035f8301526108c38184610873565b905092915050565b5f60ff82169050919050565b6108e0816108cb565b81146108ea575f80fd5b50565b5f813590506108fb816108d7565b92915050565b5f6020828403121561091657610915610679565b5b5f610923848285016108ed565b91505092915050565b5f7fff0000000000000000000000000000000000000000000000000000000000000082169050919050565b6109608161092c565b82525050565b5f6020820190506109795f830184610957565b92915050565b5f6020828403121561099457610993610679565b5b5f6109a18482850161075b565b91505092915050565b6109b38161073c565b82525050565b5f6020820190506109cc5f8301846109aa565b92915050565b7f4e487b71000000000000000000000000000000000000000000000000000000005f52603260045260245ffd5b5f81905092915050565b5f610a138261084b565b610a1d81856109ff565b9350610a2d818560208601610865565b80840191505092915050565b5f610a448285610a09565b9150610a508284610a09565b91508190509392505050565b5f81519050919050565b5f81905092915050565b5f610a7a82610a5c565b610a848185610a66565b9350610a94818560208601610865565b80840191505092915050565b5f610aab8285610a70565b9150610ab78284610a09565b91508190509392505050565b5f610ace8284610a70565b915081905092915050565b7f4e487b71000000000000000000000000000000000000000000000000000000005f52601260045260245ffd5b7f4e487b71000000000000000000000000000000000000000000000000000000005f52601160045260245ffd5b5f610b3d8261073c565b9150610b488361073c565b925082610b5857610b57610ad9565b5b828204905092915050565b5f610b6d8261073c565b91507fffffffffffffffffffffffffffffffffffffffffffffffffffffffffffffffff8203610b9f57610b9e610b06565b5b600182019050919050565b5f610bb48261073c565b91505f8203610bc657610bc5610b06565b5b600182039050919050565b5f610bdb8261073c565b9150610be68361073c565b925082610bf657610bf5610ad9565b5b828206905092915050565b5f610c0b8261073c565b9150610c168361073c565b9250828201905080821115610c2e57610c2d610b06565b5b9291505056fea2646970667358221220e200408073dcce516b853f3bfa5f7f4ae87f98f38f62f3f9e5703ea0a7aa255364736f6c634300081a0033",
			"opcodes": "PUSH1 0x80 PUSH1 0x40 MSTORE CALLVALUE DUP1 ISZERO PUSH1 0xE JUMPI PUSH0 DUP1 REVERT JUMPDEST POP PUSH2 0xC6A DUP1 PUSH2 0x1C PUSH0 CODECOPY PUSH0 RETURN INVALID PUSH1 0x80 PUSH1 0x40 MSTORE CALLVALUE DUP1 ISZERO PUSH2 0xF JUMPI PUSH0 DUP1 REVERT JUMPDEST POP PUSH1 0x4 CALLDATASIZE LT PUSH2 0x60 JUMPI PUSH0 CALLDATALOAD PUSH1 0xE0 SHR DUP1 PUSH4 0x17EA2090 EQ PUSH2 0x64 JUMPI DUP1 PUSH4 0x589D6090 EQ PUSH2 0x94 JUMPI DUP1 PUSH4 0x82326726 EQ PUSH2 0xC4 JUMPI DUP1 PUSH4 0xA17A9E66 EQ PUSH2 0xF4 JUMPI DUP1 PUSH4 0xCE8BB065 EQ PUSH2 0x124 JUMPI DUP1 PUSH4 0xE9395679 EQ PUSH2 0x154 JUMPI JUMPDEST PUSH0 DUP1 REVERT JUMPDEST PUSH2 0x7E PUSH1 0x4 DUP1 CALLDATASIZE SUB DUP2 ADD SWAP1 PUSH2 0x79 SWAP2 SWAP1 PUSH2 0x804 JUMP JUMPDEST PUSH2 0x184 JUMP JUMPDEST PUSH1 0x40 MLOAD PUSH2 0x8B SWAP2 SWAP1 PUSH2 0x8AB JUMP JUMPDEST PUSH1 0x40 MLOAD DUP1 SWAP2 SUB SWAP1 RETURN JUMPDEST PUSH2 0xAE PUSH1 0x4 DUP1 CALLDATASIZE SUB DUP2 ADD SWAP1 PUSH2 0xA9 SWAP2 SWAP1 PUSH2 0x901 JUMP JUMPDEST PUSH2 0x1EF JUMP JUMPDEST PUSH1 0x40 MLOAD PUSH2 0xBB SWAP2 SWAP1 PUSH2 0x966 JUMP JUMPDEST PUSH1 0x40 MLOAD DUP1 SWAP2 SUB SWAP1 RETURN JUMPDEST PUSH2 0xDE PUSH1 0x4 DUP1 CALLDATASIZE SUB DUP2 ADD SWAP1 PUSH2 0xD9 SWAP2 SWAP1 PUSH2 0x804 JUMP JUMPDEST PUSH2 0x1FB JUMP JUMPDEST PUSH1 0x40 MLOAD PUSH2 0xEB SWAP2 SWAP1 PUSH2 0x8AB JUMP JUMPDEST PUSH1 0x40 MLOAD DUP1 SWAP2 SUB SWAP1 RETURN JUMPDEST PUSH2 0x10E PUSH1 0x4 DUP1 CALLDATASIZE SUB DUP2 ADD SWAP1 PUSH2 0x109 SWAP2 SWAP1 PUSH2 0x97F JUMP JUMPDEST PUSH2 0x2D5 JUMP JUMPDEST PUSH1 0x40 MLOAD PUSH2 0x11B SWAP2 SWAP1 PUSH2 0x8AB JUMP JUMPDEST PUSH1 0x40 MLOAD DUP1 SWAP2 SUB SWAP1 RETURN JUMPDEST PUSH2 0x13E PUSH1 0x4 DUP1 CALLDATASIZE SUB DUP2 ADD SWAP1 PUSH2 0x139 SWAP2 SWAP1 PUSH2 0x97F JUMP JUMPDEST PUSH2 0x2E7 JUMP JUMPDEST PUSH1 0x40 MLOAD PUSH2 0x14B SWAP2 SWAP1 PUSH2 0x9B9 JUMP JUMPDEST PUSH1 0x40 MLOAD DUP1 SWAP2 SUB SWAP1 RETURN JUMPDEST PUSH2 0x16E PUSH1 0x4 DUP1 CALLDATASIZE SUB DUP2 ADD SWAP1 PUSH2 0x169 SWAP2 SWAP1 PUSH2 0x97F JUMP JUMPDEST PUSH2 0x321 JUMP JUMPDEST PUSH1 0x40 MLOAD PUSH2 0x17B SWAP2 SWAP1 PUSH2 0x8AB JUMP JUMPDEST PUSH1 0x40 MLOAD DUP1 SWAP2 SUB SWAP1 RETURN JUMPDEST PUSH1 0x60 DUP1 PUSH0 JUMPDEST DUP4 MLOAD DUP2 LT ISZERO PUSH2 0x1E5 JUMPI DUP2 PUSH2 0x1B6 DUP6 DUP4 DUP2 MLOAD DUP2 LT PUSH2 0x1A9 JUMPI PUSH2 0x1A8 PUSH2 0x9D2 JUMP JUMPDEST JUMPDEST PUSH1 0x20 MUL PUSH1 0x20 ADD ADD MLOAD PUSH2 0x455 JUMP JUMPDEST PUSH1 0x40 MLOAD PUSH1 0x20 ADD PUSH2 0x1C7 SWAP3 SWAP2 SWAP1 PUSH2 0xA39 JUMP JUMPDEST PUSH1 0x40 MLOAD PUSH1 0x20 DUP2 DUP4 SUB SUB DUP2 MSTORE SWAP1 PUSH1 0x40 MSTORE SWAP2 POP DUP1 DUP1 PUSH1 0x1 ADD SWAP2 POP POP PUSH2 0x189 JUMP JUMPDEST POP DUP1 SWAP2 POP POP SWAP2 SWAP1 POP JUMP JUMPDEST PUSH0 DUP2 PUSH1 0xF8 SHL SWAP1 POP SWAP2 SWAP1 POP JUMP JUMPDEST PUSH1 0x60 PUSH0 DUP3 MLOAD PUSH8 0xFFFFFFFFFFFFFFFF DUP2 GT ISZERO PUSH2 0x219 JUMPI PUSH2 0x218 PUSH2 0x695 JUMP JUMPDEST JUMPDEST PUSH1 0x40 MLOAD SWAP1 DUP1 DUP3 MSTORE DUP1 PUSH1 0x1F ADD PUSH1 0x1F NOT AND PUSH1 0x20 ADD DUP3 ADD PUSH1 0x40 MSTORE DUP1 ISZERO PUSH2 0x24B JUMPI DUP2 PUSH1 0x20 ADD PUSH1 0x1 DUP3 MUL DUP1 CALLDATASIZE DUP4 CALLDATACOPY DUP1 DUP3 ADD SWAP2 POP POP SWAP1 POP JUMPDEST POP SWAP1 POP PUSH0 JUMPDEST DUP4 MLOAD DUP2 LT ISZERO PUSH2 0x2AC JUMPI DUP2 PUSH2 0x27D DUP6 DUP4 DUP2 MLOAD DUP2 LT PUSH2 0x270 JUMPI PUSH2 0x26F PUSH2 0x9D2 JUMP JUMPDEST JUMPDEST PUSH1 0x20 MUL PUSH1 0x20 ADD ADD MLOAD PUSH2 0x321 JUMP JUMPDEST PUSH1 0x40 MLOAD PUSH1 0x20 ADD PUSH2 0x28E SWAP3 SWAP2 SWAP1 PUSH2 0xAA0 JUMP JUMPDEST PUSH1 0x40 MLOAD PUSH1 0x20 DUP2 DUP4 SUB SUB DUP2 MSTORE SWAP1 PUSH1 0x40 MSTORE SWAP2 POP DUP1 DUP1 PUSH1 0x1 ADD SWAP2 POP POP PUSH2 0x250 JUMP JUMPDEST POP DUP1 PUSH1 0x40 MLOAD PUSH1 0x20 ADD PUSH2 0x2BE SWAP2 SWAP1 PUSH2 0xAC3 JUMP JUMPDEST PUSH1 0x40 MLOAD PUSH1 0x20 DUP2 DUP4 SUB SUB DUP2 MSTORE SWAP1 PUSH1 0x40 MSTORE SWAP2 POP POP SWAP2 SWAP1 POP JUMP JUMPDEST PUSH1 0x60 PUSH2 0x2E0 DUP3 PUSH2 0x455 JUMP JUMPDEST SWAP1 POP SWAP2 SWAP1 POP JUMP JUMPDEST PUSH0 DUP1 PUSH1 0x1 SWAP1 POP JUMPDEST PUSH1 0xA DUP4 LT PUSH2 0x318 JUMPI PUSH1 0xA DUP4 PUSH2 0x303 SWAP2 SWAP1 PUSH2 0xB33 JUMP JUMPDEST SWAP3 POP DUP1 DUP1 PUSH2 0x310 SWAP1 PUSH2 0xB63 JUMP JUMPDEST SWAP2 POP POP PUSH2 0x2EE JUMP JUMPDEST DUP1 SWAP2 POP POP SWAP2 SWAP1 POP JUMP JUMPDEST PUSH1 0x60 PUSH0 DUP3 SUB PUSH2 0x367 JUMPI PUSH1 0x40 MLOAD DUP1 PUSH1 0x40 ADD PUSH1 0x40 MSTORE DUP1 PUSH1 0x1 DUP2 MSTORE PUSH1 0x20 ADD PUSH32 0x3000000000000000000000000000000000000000000000000000000000000000 DUP2 MSTORE POP SWAP1 POP PUSH2 0x450 JUMP JUMPDEST PUSH0 PUSH2 0x371 DUP4 PUSH2 0x2E7 JUMP JUMPDEST SWAP1 POP PUSH0 DUP2 PUSH8 0xFFFFFFFFFFFFFFFF DUP2 GT ISZERO PUSH2 0x38E JUMPI PUSH2 0x38D PUSH2 0x695 JUMP JUMPDEST JUMPDEST PUSH1 0x40 MLOAD SWAP1 DUP1 DUP3 MSTORE DUP1 PUSH1 0x1F ADD PUSH1 0x1F NOT AND PUSH1 0x20 ADD DUP3 ADD PUSH1 0x40 MSTORE DUP1 ISZERO PUSH2 0x3C0 JUMPI DUP2 PUSH1 0x20 ADD PUSH1 0x1 DUP3 MUL DUP1 CALLDATASIZE DUP4 CALLDATACOPY DUP1 DUP3 ADD SWAP2 POP POP SWAP1 POP JUMPDEST POP SWAP1 POP JUMPDEST PUSH0 DUP5 EQ PUSH2 0x44A JUMPI DUP2 DUP1 PUSH2 0x3D6 SWAP1 PUSH2 0xBAA JUMP JUMPDEST SWAP3 POP POP PUSH1 0xA DUP5 PUSH2 0x3E6 SWAP2 SWAP1 PUSH2 0xBD1 JUMP JUMPDEST PUSH1 0x30 PUSH2 0x3F2 SWAP2 SWAP1 PUSH2 0xC01 JUMP JUMPDEST PUSH1 0xF8 SHL DUP2 DUP4 DUP2 MLOAD DUP2 LT PUSH2 0x408 JUMPI PUSH2 0x407 PUSH2 0x9D2 JUMP JUMPDEST JUMPDEST PUSH1 0x20 ADD ADD SWAP1 PUSH31 0xFFFFFFFFFFFFFFFFFFFFFFFFFFFFFFFFFFFFFFFFFFFFFFFFFFFFFFFFFFFFFF NOT AND SWAP1 DUP2 PUSH0 BYTE SWAP1 MSTORE8 POP PUSH1 0xA DUP5 PUSH2 0x443 SWAP2 SWAP1 PUSH2 0xB33 JUMP JUMPDEST SWAP4 POP PUSH2 0x3C4 JUMP JUMPDEST DUP1 SWAP3 POP POP POP JUMPDEST SWAP2 SWAP1 POP JUMP JUMPDEST PUSH1 0x60 PUSH0 PUSH1 0x1 PUSH2 0x463 DUP5 PUSH2 0x51F JUMP JUMPDEST ADD SWAP1 POP PUSH0 DUP2 PUSH8 0xFFFFFFFFFFFFFFFF DUP2 GT ISZERO PUSH2 0x481 JUMPI PUSH2 0x480 PUSH2 0x695 JUMP JUMPDEST JUMPDEST PUSH1 0x40 MLOAD SWAP1 DUP1 DUP3 MSTORE DUP1 PUSH1 0x1F ADD PUSH1 0x1F NOT AND PUSH1 0x20 ADD DUP3 ADD PUSH1 0x40 MSTORE DUP1 ISZERO PUSH2 0x4B3 JUMPI DUP2 PUSH1 0x20 ADD PUSH1 0x1 DUP3 MUL DUP1 CALLDATASIZE DUP4 CALLDATACOPY DUP1 DUP3 ADD SWAP2 POP POP SWAP1 POP JUMPDEST POP SWAP1 POP PUSH0 DUP3 PUSH1 0x20 ADD DUP3 ADD SWAP1 POP JUMPDEST PUSH1 0x1 ISZERO PUSH2 0x514 JUMPI DUP1 DUP1 PUSH1 0x1 SWAP1 SUB SWAP2 POP POP PUSH32 0x3031323334353637383961626364656600000000000000000000000000000000 PUSH1 0xA DUP7 MOD BYTE DUP2 MSTORE8 PUSH1 0xA DUP6 DUP2 PUSH2 0x509 JUMPI PUSH2 0x508 PUSH2 0xAD9 JUMP JUMPDEST JUMPDEST DIV SWAP5 POP PUSH0 DUP6 SUB PUSH2 0x4C0 JUMPI JUMPDEST DUP2 SWAP4 POP POP POP POP SWAP2 SWAP1 POP JUMP JUMPDEST PUSH0 DUP1 PUSH0 SWAP1 POP PUSH27 0x184F03E93FF9F4DAA797ED6E38ED64BF6A1F010000000000000000 DUP4 LT PUSH2 0x57B JUMPI PUSH27 0x184F03E93FF9F4DAA797ED6E38ED64BF6A1F010000000000000000 DUP4 DUP2 PUSH2 0x571 JUMPI PUSH2 0x570 PUSH2 0xAD9 JUMP JUMPDEST JUMPDEST DIV SWAP3 POP PUSH1 0x40 DUP2 ADD SWAP1 POP JUMPDEST PUSH14 0x4EE2D6D415B85ACEF8100000000 DUP4 LT PUSH2 0x5B8 JUMPI PUSH14 0x4EE2D6D415B85ACEF8100000000 DUP4 DUP2 PUSH2 0x5AE JUMPI PUSH2 0x5AD PUSH2 0xAD9 JUMP JUMPDEST JUMPDEST DIV SWAP3 POP PUSH1 0x20 DUP2 ADD SWAP1 POP JUMPDEST PUSH7 0x2386F26FC10000 DUP4 LT PUSH2 0x5E7 JUMPI PUSH7 0x2386F26FC10000 DUP4 DUP2 PUSH2 0x5DD JUMPI PUSH2 0x5DC PUSH2 0xAD9 JUMP JUMPDEST JUMPDEST DIV SWAP3 POP PUSH1 0x10 DUP2 ADD SWAP1 POP JUMPDEST PUSH4 0x5F5E100 DUP4 LT PUSH2 0x610 JUMPI PUSH4 0x5F5E100 DUP4 DUP2 PUSH2 0x606 JUMPI PUSH2 0x605 PUSH2 0xAD9 JUMP JUMPDEST JUMPDEST DIV SWAP3 POP PUSH1 0x8 DUP2 ADD SWAP1 POP JUMPDEST PUSH2 0x2710 DUP4 LT PUSH2 0x635 JUMPI PUSH2 0x2710 DUP4 DUP2 PUSH2 0x62B JUMPI PUSH2 0x62A PUSH2 0xAD9 JUMP JUMPDEST JUMPDEST DIV SWAP3 POP PUSH1 0x4 DUP2 ADD SWAP1 POP JUMPDEST PUSH1 0x64 DUP4 LT PUSH2 0x658 JUMPI PUSH1 0x64 DUP4 DUP2 PUSH2 0x64E JUMPI PUSH2 0x64D PUSH2 0xAD9 JUMP JUMPDEST JUMPDEST DIV SWAP3 POP PUSH1 0x2 DUP2 ADD SWAP1 POP JUMPDEST PUSH1 0xA DUP4 LT PUSH2 0x667 JUMPI PUSH1 0x1 DUP2 ADD SWAP1 POP JUMPDEST DUP1 SWAP2 POP POP SWAP2 SWAP1 POP JUMP JUMPDEST PUSH0 PUSH1 0x40 MLOAD SWAP1 POP SWAP1 JUMP JUMPDEST PUSH0 DUP1 REVERT JUMPDEST PUSH0 DUP1 REVERT JUMPDEST PUSH0 DUP1 REVERT JUMPDEST PUSH0 PUSH1 0x1F NOT PUSH1 0x1F DUP4 ADD AND SWAP1 POP SWAP2 SWAP1 POP JUMP JUMPDEST PUSH32 0x4E487B7100000000000000000000000000000000000000000000000000000000 PUSH0 MSTORE PUSH1 0x41 PUSH1 0x4 MSTORE PUSH1 0x24 PUSH0 REVERT JUMPDEST PUSH2 0x6CB DUP3 PUSH2 0x685 JUMP JUMPDEST DUP2 ADD DUP2 DUP2 LT PUSH8 0xFFFFFFFFFFFFFFFF DUP3 GT OR ISZERO PUSH2 0x6EA JUMPI PUSH2 0x6E9 PUSH2 0x695 JUMP JUMPDEST JUMPDEST DUP1 PUSH1 0x40 MSTORE POP POP POP JUMP JUMPDEST PUSH0 PUSH2 0x6FC PUSH2 0x670 JUMP JUMPDEST SWAP1 POP PUSH2 0x708 DUP3 DUP3 PUSH2 0x6C2 JUMP JUMPDEST SWAP2 SWAP1 POP JUMP JUMPDEST PUSH0 PUSH8 0xFFFFFFFFFFFFFFFF DUP3 GT ISZERO PUSH2 0x727 JUMPI PUSH2 0x726 PUSH2 0x695 JUMP JUMPDEST JUMPDEST PUSH1 0x20 DUP3 MUL SWAP1 POP PUSH1 0x20 DUP2 ADD SWAP1 POP SWAP2 SWAP1 POP JUMP JUMPDEST PUSH0 DUP1 REVERT JUMPDEST PUSH0 DUP2 SWAP1 POP SWAP2 SWAP1 POP JUMP JUMPDEST PUSH2 0x74E DUP2 PUSH2 0x73C JUMP JUMPDEST DUP2 EQ PUSH2 0x758 JUMPI PUSH0 DUP1 REVERT JUMPDEST POP JUMP JUMPDEST PUSH0 DUP2 CALLDATALOAD SWAP1 POP PUSH2 0x769 DUP2 PUSH2 0x745 JUMP JUMPDEST SWAP3 SWAP2 POP POP JUMP JUMPDEST PUSH0 PUSH2 0x781 PUSH2 0x77C DUP5 PUSH2 0x70D JUMP JUMPDEST PUSH2 0x6F3 JUMP JUMPDEST SWAP1 POP DUP1 DUP4 DUP3 MSTORE PUSH1 0x20 DUP3 ADD SWAP1 POP PUSH1 0x20 DUP5 MUL DUP4 ADD DUP6 DUP2 GT ISZERO PUSH2 0x7A4 JUMPI PUSH2 0x7A3 PUSH2 0x738 JUMP JUMPDEST JUMPDEST DUP4 JUMPDEST DUP2 DUP2 LT ISZERO PUSH2 0x7CD JUMPI DUP1 PUSH2 0x7B9 DUP9 DUP3 PUSH2 0x75B JUMP JUMPDEST DUP5 MSTORE PUSH1 0x20 DUP5 ADD SWAP4 POP POP PUSH1 0x20 DUP2 ADD SWAP1 POP PUSH2 0x7A6 JUMP JUMPDEST POP POP POP SWAP4 SWAP3 POP POP POP JUMP JUMPDEST PUSH0 DUP3 PUSH1 0x1F DUP4 ADD SLT PUSH2 0x7EB JUMPI PUSH2 0x7EA PUSH2 0x681 JUMP JUMPDEST JUMPDEST DUP2 CALLDATALOAD PUSH2 0x7FB DUP5 DUP3 PUSH1 0x20 DUP7 ADD PUSH2 0x76F JUMP JUMPDEST SWAP2 POP POP SWAP3 SWAP2 POP POP JUMP JUMPDEST PUSH0 PUSH1 0x20 DUP3 DUP5 SUB SLT ISZERO PUSH2 0x819 JUMPI PUSH2 0x818 PUSH2 0x679 JUMP JUMPDEST JUMPDEST PUSH0 DUP3 ADD CALLDATALOAD PUSH8 0xFFFFFFFFFFFFFFFF DUP2 GT ISZERO PUSH2 0x836 JUMPI PUSH2 0x835 PUSH2 0x67D JUMP JUMPDEST JUMPDEST PUSH2 0x842 DUP5 DUP3 DUP6 ADD PUSH2 0x7D7 JUMP JUMPDEST SWAP2 POP POP SWAP3 SWAP2 POP POP JUMP JUMPDEST PUSH0 DUP2 MLOAD SWAP1 POP SWAP2 SWAP1 POP JUMP JUMPDEST PUSH0 DUP3 DUP3 MSTORE PUSH1 0x20 DUP3 ADD SWAP1 POP SWAP3 SWAP2 POP POP JUMP JUMPDEST DUP3 DUP2 DUP4 MCOPY PUSH0 DUP4 DUP4 ADD MSTORE POP POP POP JUMP JUMPDEST PUSH0 PUSH2 0x87D DUP3 PUSH2 0x84B JUMP JUMPDEST PUSH2 0x887 DUP2 DUP6 PUSH2 0x855 JUMP JUMPDEST SWAP4 POP PUSH2 0x897 DUP2 DUP6 PUSH1 0x20 DUP7 ADD PUSH2 0x865 JUMP JUMPDEST PUSH2 0x8A0 DUP2 PUSH2 0x685 JUMP JUMPDEST DUP5 ADD SWAP2 POP POP SWAP3 SWAP2 POP POP JUMP JUMPDEST PUSH0 PUSH1 0x20 DUP3 ADD SWAP1 POP DUP2 DUP2 SUB PUSH0 DUP4 ADD MSTORE PUSH2 0x8C3 DUP2 DUP5 PUSH2 0x873 JUMP JUMPDEST SWAP1 POP SWAP3 SWAP2 POP POP JUMP JUMPDEST PUSH0 PUSH1 0xFF DUP3 AND SWAP1 POP SWAP2 SWAP1 POP JUMP JUMPDEST PUSH2 0x8E0 DUP2 PUSH2 0x8CB JUMP JUMPDEST DUP2 EQ PUSH2 0x8EA JUMPI PUSH0 DUP1 REVERT JUMPDEST POP JUMP JUMPDEST PUSH0 DUP2 CALLDATALOAD SWAP1 POP PUSH2 0x8FB DUP2 PUSH2 0x8D7 JUMP JUMPDEST SWAP3 SWAP2 POP POP JUMP JUMPDEST PUSH0 PUSH1 0x20 DUP3 DUP5 SUB SLT ISZERO PUSH2 0x916 JUMPI PUSH2 0x915 PUSH2 0x679 JUMP JUMPDEST JUMPDEST PUSH0 PUSH2 0x923 DUP5 DUP3 DUP6 ADD PUSH2 0x8ED JUMP JUMPDEST SWAP2 POP POP SWAP3 SWAP2 POP POP JUMP JUMPDEST PUSH0 PUSH32 0xFF00000000000000000000000000000000000000000000000000000000000000 DUP3 AND SWAP1 POP SWAP2 SWAP1 POP JUMP JUMPDEST PUSH2 0x960 DUP2 PUSH2 0x92C JUMP JUMPDEST DUP3 MSTORE POP POP JUMP JUMPDEST PUSH0 PUSH1 0x20 DUP3 ADD SWAP1 POP PUSH2 0x979 PUSH0 DUP4 ADD DUP5 PUSH2 0x957 JUMP JUMPDEST SWAP3 SWAP2 POP POP JUMP JUMPDEST PUSH0 PUSH1 0x20 DUP3 DUP5 SUB SLT ISZERO PUSH2 0x994 JUMPI PUSH2 0x993 PUSH2 0x679 JUMP JUMPDEST JUMPDEST PUSH0 PUSH2 0x9A1 DUP5 DUP3 DUP6 ADD PUSH2 0x75B JUMP JUMPDEST SWAP2 POP POP SWAP3 SWAP2 POP POP JUMP JUMPDEST PUSH2 0x9B3 DUP2 PUSH2 0x73C JUMP JUMPDEST DUP3 MSTORE POP POP JUMP JUMPDEST PUSH0 PUSH1 0x20 DUP3 ADD SWAP1 POP PUSH2 0x9CC PUSH0 DUP4 ADD DUP5 PUSH2 0x9AA JUMP JUMPDEST SWAP3 SWAP2 POP POP JUMP JUMPDEST PUSH32 0x4E487B7100000000000000000000000000000000000000000000000000000000 PUSH0 MSTORE PUSH1 0x32 PUSH1 0x4 MSTORE PUSH1 0x24 PUSH0 REVERT JUMPDEST PUSH0 DUP2 SWAP1 POP SWAP3 SWAP2 POP POP JUMP JUMPDEST PUSH0 PUSH2 0xA13 DUP3 PUSH2 0x84B JUMP JUMPDEST PUSH2 0xA1D DUP2 DUP6 PUSH2 0x9FF JUMP JUMPDEST SWAP4 POP PUSH2 0xA2D DUP2 DUP6 PUSH1 0x20 DUP7 ADD PUSH2 0x865 JUMP JUMPDEST DUP1 DUP5 ADD SWAP2 POP POP SWAP3 SWAP2 POP POP JUMP JUMPDEST PUSH0 PUSH2 0xA44 DUP3 DUP6 PUSH2 0xA09 JUMP JUMPDEST SWAP2 POP PUSH2 0xA50 DUP3 DUP5 PUSH2 0xA09 JUMP JUMPDEST SWAP2 POP DUP2 SWAP1 POP SWAP4 SWAP3 POP POP POP JUMP JUMPDEST PUSH0 DUP2 MLOAD SWAP1 POP SWAP2 SWAP1 POP JUMP JUMPDEST PUSH0 DUP2 SWAP1 POP SWAP3 SWAP2 POP POP JUMP JUMPDEST PUSH0 PUSH2 0xA7A DUP3 PUSH2 0xA5C JUMP JUMPDEST PUSH2 0xA84 DUP2 DUP6 PUSH2 0xA66 JUMP JUMPDEST SWAP4 POP PUSH2 0xA94 DUP2 DUP6 PUSH1 0x20 DUP7 ADD PUSH2 0x865 JUMP JUMPDEST DUP1 DUP5 ADD SWAP2 POP POP SWAP3 SWAP2 POP POP JUMP JUMPDEST PUSH0 PUSH2 0xAAB DUP3 DUP6 PUSH2 0xA70 JUMP JUMPDEST SWAP2 POP PUSH2 0xAB7 DUP3 DUP5 PUSH2 0xA09 JUMP JUMPDEST SWAP2 POP DUP2 SWAP1 POP SWAP4 SWAP3 POP POP POP JUMP JUMPDEST PUSH0 PUSH2 0xACE DUP3 DUP5 PUSH2 0xA70 JUMP JUMPDEST SWAP2 POP DUP2 SWAP1 POP SWAP3 SWAP2 POP POP JUMP JUMPDEST PUSH32 0x4E487B7100000000000000000000000000000000000000000000000000000000 PUSH0 MSTORE PUSH1 0x12 PUSH1 0x4 MSTORE PUSH1 0x24 PUSH0 REVERT JUMPDEST PUSH32 0x4E487B7100000000000000000000000000000000000000000000000000000000 PUSH0 MSTORE PUSH1 0x11 PUSH1 0x4 MSTORE PUSH1 0x24 PUSH0 REVERT JUMPDEST PUSH0 PUSH2 0xB3D DUP3 PUSH2 0x73C JUMP JUMPDEST SWAP2 POP PUSH2 0xB48 DUP4 PUSH2 0x73C JUMP JUMPDEST SWAP3 POP DUP3 PUSH2 0xB58 JUMPI PUSH2 0xB57 PUSH2 0xAD9 JUMP JUMPDEST JUMPDEST DUP3 DUP3 DIV SWAP1 POP SWAP3 SWAP2 POP POP JUMP JUMPDEST PUSH0 PUSH2 0xB6D DUP3 PUSH2 0x73C JUMP JUMPDEST SWAP2 POP PUSH32 0xFFFFFFFFFFFFFFFFFFFFFFFFFFFFFFFFFFFFFFFFFFFFFFFFFFFFFFFFFFFFFFFF DUP3 SUB PUSH2 0xB9F JUMPI PUSH2 0xB9E PUSH2 0xB06 JUMP JUMPDEST JUMPDEST PUSH1 0x1 DUP3 ADD SWAP1 POP SWAP2 SWAP1 POP JUMP JUMPDEST PUSH0 PUSH2 0xBB4 DUP3 PUSH2 0x73C JUMP JUMPDEST SWAP2 POP PUSH0 DUP3 SUB PUSH2 0xBC6 JUMPI PUSH2 0xBC5 PUSH2 0xB06 JUMP JUMPDEST JUMPDEST PUSH1 0x1 DUP3 SUB SWAP1 POP SWAP2 SWAP1 POP JUMP JUMPDEST PUSH0 PUSH2 0xBDB DUP3 PUSH2 0x73C JUMP JUMPDEST SWAP2 POP PUSH2 0xBE6 DUP4 PUSH2 0x73C JUMP JUMPDEST SWAP3 POP DUP3 PUSH2 0xBF6 JUMPI PUSH2 0xBF5 PUSH2 0xAD9 JUMP JUMPDEST JUMPDEST DUP3 DUP3 MOD SWAP1 POP SWAP3 SWAP2 POP POP JUMP JUMPDEST PUSH0 PUSH2 0xC0B DUP3 PUSH2 0x73C JUMP JUMPDEST SWAP2 POP PUSH2 0xC16 DUP4 PUSH2 0x73C JUMP JUMPDEST SWAP3 POP DUP3 DUP3 ADD SWAP1 POP DUP1 DUP3 GT ISZERO PUSH2 0xC2E JUMPI PUSH2 0xC2D PUSH2 0xB06 JUMP JUMPDEST JUMPDEST SWAP3 SWAP2 POP POP JUMP INVALID LOG2 PUSH5 0x6970667358 0x22 SLT KECCAK256 0xE2 STOP BLOCKHASH DUP1 PUSH20 0xDCCE516B853F3BFA5F7F4AE87F98F38F62F3F9E5 PUSH17 0x3EA0A7AA255364736F6C634300081A0033 "
		},
		"gasEstimates": {
			"creation": {
				"codeDepositCost": "635600",
				"executionCost": "668",
				"totalCost": "636268"
			},
			"external": {
				"A(uint256)": "infinite",
				"FINAL(uint256[])": "infinite",
				"getDigits(uint256)": "infinite",
				"getNumbers(uint256[])": "infinite",
				"uintToBytes(uint8)": "611",
				"uintToString(uint256)": "infinite"
			}
		},
		"methodIdentifiers": {
			"A(uint256)": "a17a9e66",
			"FINAL(uint256[])": "82326726",
			"getDigits(uint256)": "ce8bb065",
			"getNumbers(uint256[])": "17ea2090",
			"uintToBytes(uint8)": "589d6090",
			"uintToString(uint256)": "e9395679"
		}
	},
	"abi": [
		{
			"inputs": [
				{
					"internalType": "uint256",
					"name": "_a",
					"type": "uint256"
				}
			],
			"name": "A",
			"outputs": [
				{
					"internalType": "string",
					"name": "",
					"type": "string"
				}
			],
			"stateMutability": "pure",
			"type": "function"
		},
		{
			"inputs": [
				{
					"internalType": "uint256[]",
					"name": "_num",
					"type": "uint256[]"
				}
			],
			"name": "FINAL",
			"outputs": [
				{
					"internalType": "string",
					"name": "",
					"type": "string"
				}
			],
			"stateMutability": "pure",
			"type": "function"
		},
		{
			"inputs": [
				{
					"internalType": "uint256",
					"name": "_num",
					"type": "uint256"
				}
			],
			"name": "getDigits",
			"outputs": [
				{
					"internalType": "uint256",
					"name": "",
					"type": "uint256"
				}
			],
			"stateMutability": "pure",
			"type": "function"
		},
		{
			"inputs": [
				{
					"internalType": "uint256[]",
					"name": "_numbers",
					"type": "uint256[]"
				}
			],
			"name": "getNumbers",
			"outputs": [
				{
					"internalType": "string",
					"name": "",
					"type": "string"
				}
			],
			"stateMutability": "pure",
			"type": "function"
		},
		{
			"inputs": [
				{
					"internalType": "uint8",
					"name": "_num",
					"type": "uint8"
				}
			],
			"name": "uintToBytes",
			"outputs": [
				{
					"internalType": "bytes1",
					"name": "",
					"type": "bytes1"
				}
			],
			"stateMutability": "pure",
			"type": "function"
		},
		{
			"inputs": [
				{
					"internalType": "uint256",
					"name": "_num",
					"type": "uint256"
				}
			],
			"name": "uintToString",
			"outputs": [
				{
					"internalType": "string",
					"name": "",
					"type": "string"
				}
			],
			"stateMutability": "pure",
			"type": "function"
		}
	]
}