{
	"data": {
		"bytecode": {
			"linkReferences": {},
			"object": "6080604052348015600e575f80fd5b506107bc8061001c5f395ff3fe608060405234801561000f575f80fd5b506004361061004a575f3560e01c80634df7e3d01461004e57806368af37df1461006c57806375de1f001461008a5780638381f58a146100a6575b5f80fd5b6100566100c4565b60405161006391906101e6565b60405180910390f35b6100746100d6565b604051610081919061026f565b60405180910390f35b6100a4600480360381019061009f9190610429565b610162565b005b6100ae6101a7565b6040516100bb91906104a4565b60405180910390f35b60025f9054906101000a900460e01b81565b600180546100e3906104ea565b80601f016020809104026020016040519081016040528092919081815260200182805461010f906104ea565b801561015a5780601f106101315761010080835404028352916020019161015a565b820191905f5260205f20905b81548152906001019060200180831161013d57829003601f168201915b505050505081565b8282825f8060015f60025f8691906101000a81548163ffffffff021916908360e01c021790555085919050908161019991906106b7565b508491905055505050505050565b5f5481565b5f7fffffffff0000000000000000000000000000000000000000000000000000000082169050919050565b6101e0816101ac565b82525050565b5f6020820190506101f95f8301846101d7565b92915050565b5f81519050919050565b5f82825260208201905092915050565b8281835e5f83830152505050565b5f601f19601f8301169050919050565b5f610241826101ff565b61024b8185610209565b935061025b818560208601610219565b61026481610227565b840191505092915050565b5f6020820190508181035f8301526102878184610237565b905092915050565b5f604051905090565b5f80fd5b5f80fd5b5f819050919050565b6102b2816102a0565b81146102bc575f80fd5b50565b5f813590506102cd816102a9565b92915050565b5f80fd5b5f80fd5b7f4e487b71000000000000000000000000000000000000000000000000000000005f52604160045260245ffd5b61031182610227565b810181811067ffffffffffffffff821117156103305761032f6102db565b5b80604052505050565b5f61034261028f565b905061034e8282610308565b919050565b5f67ffffffffffffffff82111561036d5761036c6102db565b5b61037682610227565b9050602081019050919050565b828183375f83830152505050565b5f6103a361039e84610353565b610339565b9050828152602081018484840111156103bf576103be6102d7565b5b6103ca848285610383565b509392505050565b5f82601f8301126103e6576103e56102d3565b5b81356103f6848260208601610391565b91505092915050565b610408816101ac565b8114610412575f80fd5b50565b5f81359050610423816103ff565b92915050565b5f805f606084860312156104405761043f610298565b5b5f61044d868287016102bf565b935050602084013567ffffffffffffffff81111561046e5761046d61029c565b5b61047a868287016103d2565b925050604061048b86828701610415565b9150509250925092565b61049e816102a0565b82525050565b5f6020820190506104b75f830184610495565b92915050565b7f4e487b71000000000000000000000000000000000000000000000000000000005f52602260045260245ffd5b5f600282049050600182168061050157607f821691505b602082108103610514576105136104bd565b5b50919050565b5f819050815f5260205f209050919050565b5f6020601f8301049050919050565b5f82821b905092915050565b5f600883026105767fffffffffffffffffffffffffffffffffffffffffffffffffffffffffffffffff8261053b565b610580868361053b565b95508019841693508086168417925050509392505050565b5f819050919050565b5f6105bb6105b66105b1846102a0565b610598565b6102a0565b9050919050565b5f819050919050565b6105d4836105a1565b6105e86105e0826105c2565b848454610547565b825550505050565b5f90565b6105fc6105f0565b6106078184846105cb565b505050565b5b8181101561062a5761061f5f826105f4565b60018101905061060d565b5050565b601f82111561066f576106408161051a565b6106498461052c565b81016020851015610658578190505b61066c6106648561052c565b83018261060c565b50505b505050565b5f82821c905092915050565b5f61068f5f1984600802610674565b1980831691505092915050565b5f6106a78383610680565b9150826002028217905092915050565b6106c0826101ff565b67ffffffffffffffff8111156106d9576106d86102db565b5b6106e382546104ea565b6106ee82828561062e565b5f60209050601f83116001811461071f575f841561070d578287015190505b610717858261069c565b86555061077e565b601f19841661072d8661051a565b5f5b828110156107545784890151825560018201915060208501945060208101905061072f565b86831015610771578489015161076d601f891682610680565b8355505b6001600288020188555050505b50505050505056fea2646970667358221220d8ff9301fa129683322a256c6c7542da0f588a0274decbe59a66882fabb373a664736f6c634300081a0033",
			"opcodes": "PUSH1 0x80 PUSH1 0x40 MSTORE CALLVALUE DUP1 ISZERO PUSH1 0xE JUMPI PUSH0 DUP1 REVERT JUMPDEST POP PUSH2 0x7BC DUP1 PUSH2 0x1C PUSH0 CODECOPY PUSH0 RETURN INVALID PUSH1 0x80 PUSH1 0x40 MSTORE CALLVALUE DUP1 ISZERO PUSH2 0xF JUMPI PUSH0 DUP1 REVERT JUMPDEST POP PUSH1 0x4 CALLDATASIZE LT PUSH2 0x4A JUMPI PUSH0 CALLDATALOAD PUSH1 0xE0 SHR DUP1 PUSH4 0x4DF7E3D0 EQ PUSH2 0x4E JUMPI DUP1 PUSH4 0x68AF37DF EQ PUSH2 0x6C JUMPI DUP1 PUSH4 0x75DE1F00 EQ PUSH2 0x8A JUMPI DUP1 PUSH4 0x8381F58A EQ PUSH2 0xA6 JUMPI JUMPDEST PUSH0 DUP1 REVERT JUMPDEST PUSH2 0x56 PUSH2 0xC4 JUMP JUMPDEST PUSH1 0x40 MLOAD PUSH2 0x63 SWAP2 SWAP1 PUSH2 0x1E6 JUMP JUMPDEST PUSH1 0x40 MLOAD DUP1 SWAP2 SUB SWAP1 RETURN JUMPDEST PUSH2 0x74 PUSH2 0xD6 JUMP JUMPDEST PUSH1 0x40 MLOAD PUSH2 0x81 SWAP2 SWAP1 PUSH2 0x26F JUMP JUMPDEST PUSH1 0x40 MLOAD DUP1 SWAP2 SUB SWAP1 RETURN JUMPDEST PUSH2 0xA4 PUSH1 0x4 DUP1 CALLDATASIZE SUB DUP2 ADD SWAP1 PUSH2 0x9F SWAP2 SWAP1 PUSH2 0x429 JUMP JUMPDEST PUSH2 0x162 JUMP JUMPDEST STOP JUMPDEST PUSH2 0xAE PUSH2 0x1A7 JUMP JUMPDEST PUSH1 0x40 MLOAD PUSH2 0xBB SWAP2 SWAP1 PUSH2 0x4A4 JUMP JUMPDEST PUSH1 0x40 MLOAD DUP1 SWAP2 SUB SWAP1 RETURN JUMPDEST PUSH1 0x2 PUSH0 SWAP1 SLOAD SWAP1 PUSH2 0x100 EXP SWAP1 DIV PUSH1 0xE0 SHL DUP2 JUMP JUMPDEST PUSH1 0x1 DUP1 SLOAD PUSH2 0xE3 SWAP1 PUSH2 0x4EA JUMP JUMPDEST DUP1 PUSH1 0x1F ADD PUSH1 0x20 DUP1 SWAP2 DIV MUL PUSH1 0x20 ADD PUSH1 0x40 MLOAD SWAP1 DUP2 ADD PUSH1 0x40 MSTORE DUP1 SWAP3 SWAP2 SWAP1 DUP2 DUP2 MSTORE PUSH1 0x20 ADD DUP3 DUP1 SLOAD PUSH2 0x10F SWAP1 PUSH2 0x4EA JUMP JUMPDEST DUP1 ISZERO PUSH2 0x15A JUMPI DUP1 PUSH1 0x1F LT PUSH2 0x131 JUMPI PUSH2 0x100 DUP1 DUP4 SLOAD DIV MUL DUP4 MSTORE SWAP2 PUSH1 0x20 ADD SWAP2 PUSH2 0x15A JUMP JUMPDEST DUP3 ADD SWAP2 SWAP1 PUSH0 MSTORE PUSH1 0x20 PUSH0 KECCAK256 SWAP1 JUMPDEST DUP2 SLOAD DUP2 MSTORE SWAP1 PUSH1 0x1 ADD SWAP1 PUSH1 0x20 ADD DUP1 DUP4 GT PUSH2 0x13D JUMPI DUP3 SWAP1 SUB PUSH1 0x1F AND DUP3 ADD SWAP2 JUMPDEST POP POP POP POP POP DUP2 JUMP JUMPDEST DUP3 DUP3 DUP3 PUSH0 DUP1 PUSH1 0x1 PUSH0 PUSH1 0x2 PUSH0 DUP7 SWAP2 SWAP1 PUSH2 0x100 EXP DUP2 SLOAD DUP2 PUSH4 0xFFFFFFFF MUL NOT AND SWAP1 DUP4 PUSH1 0xE0 SHR MUL OR SWAP1 SSTORE POP DUP6 SWAP2 SWAP1 POP SWAP1 DUP2 PUSH2 0x199 SWAP2 SWAP1 PUSH2 0x6B7 JUMP JUMPDEST POP DUP5 SWAP2 SWAP1 POP SSTORE POP POP POP POP POP POP JUMP JUMPDEST PUSH0 SLOAD DUP2 JUMP JUMPDEST PUSH0 PUSH32 0xFFFFFFFF00000000000000000000000000000000000000000000000000000000 DUP3 AND SWAP1 POP SWAP2 SWAP1 POP JUMP JUMPDEST PUSH2 0x1E0 DUP2 PUSH2 0x1AC JUMP JUMPDEST DUP3 MSTORE POP POP JUMP JUMPDEST PUSH0 PUSH1 0x20 DUP3 ADD SWAP1 POP PUSH2 0x1F9 PUSH0 DUP4 ADD DUP5 PUSH2 0x1D7 JUMP JUMPDEST SWAP3 SWAP2 POP POP JUMP JUMPDEST PUSH0 DUP2 MLOAD SWAP1 POP SWAP2 SWAP1 POP JUMP JUMPDEST PUSH0 DUP3 DUP3 MSTORE PUSH1 0x20 DUP3 ADD SWAP1 POP SWAP3 SWAP2 POP POP JUMP JUMPDEST DUP3 DUP2 DUP4 MCOPY PUSH0 DUP4 DUP4 ADD MSTORE POP POP POP JUMP JUMPDEST PUSH0 PUSH1 0x1F NOT PUSH1 0x1F DUP4 ADD AND SWAP1 POP SWAP2 SWAP1 POP JUMP JUMPDEST PUSH0 PUSH2 0x241 DUP3 PUSH2 0x1FF JUMP JUMPDEST PUSH2 0x24B DUP2 DUP6 PUSH2 0x209 JUMP JUMPDEST SWAP4 POP PUSH2 0x25B DUP2 DUP6 PUSH1 0x20 DUP7 ADD PUSH2 0x219 JUMP JUMPDEST PUSH2 0x264 DUP2 PUSH2 0x227 JUMP JUMPDEST DUP5 ADD SWAP2 POP POP SWAP3 SWAP2 POP POP JUMP JUMPDEST PUSH0 PUSH1 0x20 DUP3 ADD SWAP1 POP DUP2 DUP2 SUB PUSH0 DUP4 ADD MSTORE PUSH2 0x287 DUP2 DUP5 PUSH2 0x237 JUMP JUMPDEST SWAP1 POP SWAP3 SWAP2 POP POP JUMP JUMPDEST PUSH0 PUSH1 0x40 MLOAD SWAP1 POP SWAP1 JUMP JUMPDEST PUSH0 DUP1 REVERT JUMPDEST PUSH0 DUP1 REVERT JUMPDEST PUSH0 DUP2 SWAP1 POP SWAP2 SWAP1 POP JUMP JUMPDEST PUSH2 0x2B2 DUP2 PUSH2 0x2A0 JUMP JUMPDEST DUP2 EQ PUSH2 0x2BC JUMPI PUSH0 DUP1 REVERT JUMPDEST POP JUMP JUMPDEST PUSH0 DUP2 CALLDATALOAD SWAP1 POP PUSH2 0x2CD DUP2 PUSH2 0x2A9 JUMP JUMPDEST SWAP3 SWAP2 POP POP JUMP JUMPDEST PUSH0 DUP1 REVERT JUMPDEST PUSH0 DUP1 REVERT JUMPDEST PUSH32 0x4E487B7100000000000000000000000000000000000000000000000000000000 PUSH0 MSTORE PUSH1 0x41 PUSH1 0x4 MSTORE PUSH1 0x24 PUSH0 REVERT JUMPDEST PUSH2 0x311 DUP3 PUSH2 0x227 JUMP JUMPDEST DUP2 ADD DUP2 DUP2 LT PUSH8 0xFFFFFFFFFFFFFFFF DUP3 GT OR ISZERO PUSH2 0x330 JUMPI PUSH2 0x32F PUSH2 0x2DB JUMP JUMPDEST JUMPDEST DUP1 PUSH1 0x40 MSTORE POP POP POP JUMP JUMPDEST PUSH0 PUSH2 0x342 PUSH2 0x28F JUMP JUMPDEST SWAP1 POP PUSH2 0x34E DUP3 DUP3 PUSH2 0x308 JUMP JUMPDEST SWAP2 SWAP1 POP JUMP JUMPDEST PUSH0 PUSH8 0xFFFFFFFFFFFFFFFF DUP3 GT ISZERO PUSH2 0x36D JUMPI PUSH2 0x36C PUSH2 0x2DB JUMP JUMPDEST JUMPDEST PUSH2 0x376 DUP3 PUSH2 0x227 JUMP JUMPDEST SWAP1 POP PUSH1 0x20 DUP2 ADD SWAP1 POP SWAP2 SWAP1 POP JUMP JUMPDEST DUP3 DUP2 DUP4 CALLDATACOPY PUSH0 DUP4 DUP4 ADD MSTORE POP POP POP JUMP JUMPDEST PUSH0 PUSH2 0x3A3 PUSH2 0x39E DUP5 PUSH2 0x353 JUMP JUMPDEST PUSH2 0x339 JUMP JUMPDEST SWAP1 POP DUP3 DUP2 MSTORE PUSH1 0x20 DUP2 ADD DUP5 DUP5 DUP5 ADD GT ISZERO PUSH2 0x3BF JUMPI PUSH2 0x3BE PUSH2 0x2D7 JUMP JUMPDEST JUMPDEST PUSH2 0x3CA DUP5 DUP3 DUP6 PUSH2 0x383 JUMP JUMPDEST POP SWAP4 SWAP3 POP POP POP JUMP JUMPDEST PUSH0 DUP3 PUSH1 0x1F DUP4 ADD SLT PUSH2 0x3E6 JUMPI PUSH2 0x3E5 PUSH2 0x2D3 JUMP JUMPDEST JUMPDEST DUP2 CALLDATALOAD PUSH2 0x3F6 DUP5 DUP3 PUSH1 0x20 DUP7 ADD PUSH2 0x391 JUMP JUMPDEST SWAP2 POP POP SWAP3 SWAP2 POP POP JUMP JUMPDEST PUSH2 0x408 DUP2 PUSH2 0x1AC JUMP JUMPDEST DUP2 EQ PUSH2 0x412 JUMPI PUSH0 DUP1 REVERT JUMPDEST POP JUMP JUMPDEST PUSH0 DUP2 CALLDATALOAD SWAP1 POP PUSH2 0x423 DUP2 PUSH2 0x3FF JUMP JUMPDEST SWAP3 SWAP2 POP POP JUMP JUMPDEST PUSH0 DUP1 PUSH0 PUSH1 0x60 DUP5 DUP7 SUB SLT ISZERO PUSH2 0x440 JUMPI PUSH2 0x43F PUSH2 0x298 JUMP JUMPDEST JUMPDEST PUSH0 PUSH2 0x44D DUP7 DUP3 DUP8 ADD PUSH2 0x2BF JUMP JUMPDEST SWAP4 POP POP PUSH1 0x20 DUP5 ADD CALLDATALOAD PUSH8 0xFFFFFFFFFFFFFFFF DUP2 GT ISZERO PUSH2 0x46E JUMPI PUSH2 0x46D PUSH2 0x29C JUMP JUMPDEST JUMPDEST PUSH2 0x47A DUP7 DUP3 DUP8 ADD PUSH2 0x3D2 JUMP JUMPDEST SWAP3 POP POP PUSH1 0x40 PUSH2 0x48B DUP7 DUP3 DUP8 ADD PUSH2 0x415 JUMP JUMPDEST SWAP2 POP POP SWAP3 POP SWAP3 POP SWAP3 JUMP JUMPDEST PUSH2 0x49E DUP2 PUSH2 0x2A0 JUMP JUMPDEST DUP3 MSTORE POP POP JUMP JUMPDEST PUSH0 PUSH1 0x20 DUP3 ADD SWAP1 POP PUSH2 0x4B7 PUSH0 DUP4 ADD DUP5 PUSH2 0x495 JUMP JUMPDEST SWAP3 SWAP2 POP POP JUMP JUMPDEST PUSH32 0x4E487B7100000000000000000000000000000000000000000000000000000000 PUSH0 MSTORE PUSH1 0x22 PUSH1 0x4 MSTORE PUSH1 0x24 PUSH0 REVERT JUMPDEST PUSH0 PUSH1 0x2 DUP3 DIV SWAP1 POP PUSH1 0x1 DUP3 AND DUP1 PUSH2 0x501 JUMPI PUSH1 0x7F DUP3 AND SWAP2 POP JUMPDEST PUSH1 0x20 DUP3 LT DUP2 SUB PUSH2 0x514 JUMPI PUSH2 0x513 PUSH2 0x4BD JUMP JUMPDEST JUMPDEST POP SWAP2 SWAP1 POP JUMP JUMPDEST PUSH0 DUP2 SWAP1 POP DUP2 PUSH0 MSTORE PUSH1 0x20 PUSH0 KECCAK256 SWAP1 POP SWAP2 SWAP1 POP JUMP JUMPDEST PUSH0 PUSH1 0x20 PUSH1 0x1F DUP4 ADD DIV SWAP1 POP SWAP2 SWAP1 POP JUMP JUMPDEST PUSH0 DUP3 DUP3 SHL SWAP1 POP SWAP3 SWAP2 POP POP JUMP JUMPDEST PUSH0 PUSH1 0x8 DUP4 MUL PUSH2 0x576 PUSH32 0xFFFFFFFFFFFFFFFFFFFFFFFFFFFFFFFFFFFFFFFFFFFFFFFFFFFFFFFFFFFFFFFF DUP3 PUSH2 0x53B JUMP JUMPDEST PUSH2 0x580 DUP7 DUP4 PUSH2 0x53B JUMP JUMPDEST SWAP6 POP DUP1 NOT DUP5 AND SWAP4 POP DUP1 DUP7 AND DUP5 OR SWAP3 POP POP POP SWAP4 SWAP3 POP POP POP JUMP JUMPDEST PUSH0 DUP2 SWAP1 POP SWAP2 SWAP1 POP JUMP JUMPDEST PUSH0 PUSH2 0x5BB PUSH2 0x5B6 PUSH2 0x5B1 DUP5 PUSH2 0x2A0 JUMP JUMPDEST PUSH2 0x598 JUMP JUMPDEST PUSH2 0x2A0 JUMP JUMPDEST SWAP1 POP SWAP2 SWAP1 POP JUMP JUMPDEST PUSH0 DUP2 SWAP1 POP SWAP2 SWAP1 POP JUMP JUMPDEST PUSH2 0x5D4 DUP4 PUSH2 0x5A1 JUMP JUMPDEST PUSH2 0x5E8 PUSH2 0x5E0 DUP3 PUSH2 0x5C2 JUMP JUMPDEST DUP5 DUP5 SLOAD PUSH2 0x547 JUMP JUMPDEST DUP3 SSTORE POP POP POP POP JUMP JUMPDEST PUSH0 SWAP1 JUMP JUMPDEST PUSH2 0x5FC PUSH2 0x5F0 JUMP JUMPDEST PUSH2 0x607 DUP2 DUP5 DUP5 PUSH2 0x5CB JUMP JUMPDEST POP POP POP JUMP JUMPDEST JUMPDEST DUP2 DUP2 LT ISZERO PUSH2 0x62A JUMPI PUSH2 0x61F PUSH0 DUP3 PUSH2 0x5F4 JUMP JUMPDEST PUSH1 0x1 DUP2 ADD SWAP1 POP PUSH2 0x60D JUMP JUMPDEST POP POP JUMP JUMPDEST PUSH1 0x1F DUP3 GT ISZERO PUSH2 0x66F JUMPI PUSH2 0x640 DUP2 PUSH2 0x51A JUMP JUMPDEST PUSH2 0x649 DUP5 PUSH2 0x52C JUMP JUMPDEST DUP2 ADD PUSH1 0x20 DUP6 LT ISZERO PUSH2 0x658 JUMPI DUP2 SWAP1 POP JUMPDEST PUSH2 0x66C PUSH2 0x664 DUP6 PUSH2 0x52C JUMP JUMPDEST DUP4 ADD DUP3 PUSH2 0x60C JUMP JUMPDEST POP POP JUMPDEST POP POP POP JUMP JUMPDEST PUSH0 DUP3 DUP3 SHR SWAP1 POP SWAP3 SWAP2 POP POP JUMP JUMPDEST PUSH0 PUSH2 0x68F PUSH0 NOT DUP5 PUSH1 0x8 MUL PUSH2 0x674 JUMP JUMPDEST NOT DUP1 DUP4 AND SWAP2 POP POP SWAP3 SWAP2 POP POP JUMP JUMPDEST PUSH0 PUSH2 0x6A7 DUP4 DUP4 PUSH2 0x680 JUMP JUMPDEST SWAP2 POP DUP3 PUSH1 0x2 MUL DUP3 OR SWAP1 POP SWAP3 SWAP2 POP POP JUMP JUMPDEST PUSH2 0x6C0 DUP3 PUSH2 0x1FF JUMP JUMPDEST PUSH8 0xFFFFFFFFFFFFFFFF DUP2 GT ISZERO PUSH2 0x6D9 JUMPI PUSH2 0x6D8 PUSH2 0x2DB JUMP JUMPDEST JUMPDEST PUSH2 0x6E3 DUP3 SLOAD PUSH2 0x4EA JUMP JUMPDEST PUSH2 0x6EE DUP3 DUP3 DUP6 PUSH2 0x62E JUMP JUMPDEST PUSH0 PUSH1 0x20 SWAP1 POP PUSH1 0x1F DUP4 GT PUSH1 0x1 DUP2 EQ PUSH2 0x71F JUMPI PUSH0 DUP5 ISZERO PUSH2 0x70D JUMPI DUP3 DUP8 ADD MLOAD SWAP1 POP JUMPDEST PUSH2 0x717 DUP6 DUP3 PUSH2 0x69C JUMP JUMPDEST DUP7 SSTORE POP PUSH2 0x77E JUMP JUMPDEST PUSH1 0x1F NOT DUP5 AND PUSH2 0x72D DUP7 PUSH2 0x51A JUMP JUMPDEST PUSH0 JUMPDEST DUP3 DUP2 LT ISZERO PUSH2 0x754 JUMPI DUP5 DUP10 ADD MLOAD DUP3 SSTORE PUSH1 0x1 DUP3 ADD SWAP2 POP PUSH1 0x20 DUP6 ADD SWAP5 POP PUSH1 0x20 DUP2 ADD SWAP1 POP PUSH2 0x72F JUMP JUMPDEST DUP7 DUP4 LT ISZERO PUSH2 0x771 JUMPI DUP5 DUP10 ADD MLOAD PUSH2 0x76D PUSH1 0x1F DUP10 AND DUP3 PUSH2 0x680 JUMP JUMPDEST DUP4 SSTORE POP JUMPDEST PUSH1 0x1 PUSH1 0x2 DUP9 MUL ADD DUP9 SSTORE POP POP POP JUMPDEST POP POP POP POP POP POP JUMP INVALID LOG2 PUSH5 0x6970667358 0x22 SLT KECCAK256 0xD8 SELFDESTRUCT SWAP4 ADD STATICCALL SLT SWAP7 DUP4 ORIGIN 0x2A 0x25 PUSH13 0x6C7542DA0F588A0274DECBE59A PUSH7 0x882FABB373A664 PUSH20 0x6F6C634300081A00330000000000000000000000 "
		},
		"gasEstimates": {
			"creation": {
				"codeDepositCost": "396000",
				"executionCost": "428",
				"totalCost": "396428"
			},
			"external": {
				"b()": "2444",
				"letter()": "infinite",
				"number()": "2468",
				"setAll(uint256,string,bytes4)": "infinite"
			}
		},
		"methodIdentifiers": {
			"b()": "4df7e3d0",
			"letter()": "68af37df",
			"number()": "8381f58a",
			"setAll(uint256,string,bytes4)": "75de1f00"
		}
	},
	"abi": [
		{
			"inputs": [],
			"name": "b",
			"outputs": [
				{
					"internalType": "bytes4",
					"name": "",
					"type": "bytes4"
				}
			],
			"stateMutability": "view",
			"type": "function"
		},
		{
			"inputs": [],
			"name": "letter",
			"outputs": [
				{
					"internalType": "string",
					"name": "",
					"type": "string"
				}
			],
			"stateMutability": "view",
			"type": "function"
		},
		{
			"inputs": [],
			"name": "number",
			"outputs": [
				{
					"internalType": "uint256",
					"name": "",
					"type": "uint256"
				}
			],
			"stateMutability": "view",
			"type": "function"
		},
		{
			"inputs": [
				{
					"internalType": "uint256",
					"name": "_number",
					"type": "uint256"
				},
				{
					"internalType": "string",
					"name": "_letter",
					"type": "string"
				},
				{
					"internalType": "bytes4",
					"name": "_b",
					"type": "bytes4"
				}
			],
			"name": "setAll",
			"outputs": [],
			"stateMutability": "nonpayable",
			"type": "function"
		}
	]
}