{
	"Upgradable_Contract/call.sol": {
		"call_addr": {
			"abi": [
				{
					"inputs": [],
					"name": "addr",
					"outputs": [
						{
							"internalType": "address",
							"name": "",
							"type": "address"
						}
					],
					"stateMutability": "view",
					"type": "function"
				},
				{
					"inputs": [
						{
							"internalType": "address",
							"name": "_original",
							"type": "address"
						}
					],
					"name": "callSetAddress",
					"outputs": [],
					"stateMutability": "nonpayable",
					"type": "function"
				}
			],
			"devdoc": {
				"kind": "dev",
				"methods": {},
				"version": 1
			},
			"evm": {
				"assembly": "    /* \"Upgradable_Contract/call.sol\":2159:2387  contract call_addr {... */\n  mstore(0x40, 0x80)\n  callvalue\n  dup1\n  iszero\n  tag_1\n  jumpi\n  0x00\n  dup1\n  revert\ntag_1:\n  pop\n  dataSize(sub_0)\n  dup1\n  dataOffset(sub_0)\n  0x00\n  codecopy\n  0x00\n  return\nstop\n\nsub_0: assembly {\n        /* \"Upgradable_Contract/call.sol\":2159:2387  contract call_addr {... */\n      mstore(0x40, 0x80)\n      callvalue\n      dup1\n      iszero\n      tag_1\n      jumpi\n      0x00\n      dup1\n      revert\n    tag_1:\n      pop\n      jumpi(tag_2, lt(calldatasize, 0x04))\n      shr(0xe0, calldataload(0x00))\n      dup1\n      0x767800de\n      eq\n      tag_3\n      jumpi\n      dup1\n      0xc9fbd561\n      eq\n      tag_4\n      jumpi\n    tag_2:\n      0x00\n      dup1\n      revert\n        /* \"Upgradable_Contract/call.sol\":2184:2203  address public addr */\n    tag_3:\n      tag_5\n      tag_6\n      jump\t// in\n    tag_5:\n      mload(0x40)\n      tag_7\n      swap2\n      swap1\n      tag_8\n      jump\t// in\n    tag_7:\n      mload(0x40)\n      dup1\n      swap2\n      sub\n      swap1\n      return\n        /* \"Upgradable_Contract/call.sol\":2210:2385  function callSetAddress(address _original) public {... */\n    tag_4:\n      tag_9\n      0x04\n      dup1\n      calldatasize\n      sub\n      dup2\n      add\n      swap1\n      tag_10\n      swap2\n      swap1\n      tag_11\n      jump\t// in\n    tag_10:\n      tag_12\n      jump\t// in\n    tag_9:\n      stop\n        /* \"Upgradable_Contract/call.sol\":2184:2203  address public addr */\n    tag_6:\n      0x00\n      dup1\n      sload\n      swap1\n      0x0100\n      exp\n      swap1\n      div\n      0xffffffffffffffffffffffffffffffffffffffff\n      and\n      dup2\n      jump\t// out\n        /* \"Upgradable_Contract/call.sol\":2210:2385  function callSetAddress(address _original) public {... */\n    tag_12:\n        /* \"Upgradable_Contract/call.sol\":2271:2283  bool success */\n      0x00\n        /* \"Upgradable_Contract/call.sol\":2289:2298  _original */\n      dup2\n        /* \"Upgradable_Contract/call.sol\":2289:2303  _original.call */\n      0xffffffffffffffffffffffffffffffffffffffff\n      and\n        /* \"Upgradable_Contract/call.sol\":2304:2343  abi.encodeWithSignature(\"setAddress()\") */\n      add(0x24, mload(0x40))\n      mload(0x40)\n      0x20\n      dup2\n      dup4\n      sub\n      sub\n      dup2\n      mstore\n      swap1\n      0x40\n      mstore\n      and(not(0xffffffffffffffffffffffffffffffffffffffffffffffffffffffff), 0xe656927500000000000000000000000000000000000000000000000000000000)\n      0x20\n      dup3\n      add\n      dup1\n      mload\n      0xffffffffffffffffffffffffffffffffffffffffffffffffffffffff\n      dup4\n      dup2\n      dup4\n      and\n      or\n      dup4\n      mstore\n      pop\n      pop\n      pop\n      pop\n        /* \"Upgradable_Contract/call.sol\":2289:2344  _original.call(abi.encodeWithSignature(\"setAddress()\")) */\n      mload(0x40)\n      tag_14\n      swap2\n      swap1\n      tag_15\n      jump\t// in\n    tag_14:\n      0x00\n      mload(0x40)\n      dup1\n      dup4\n      sub\n      dup2\n      0x00\n      dup7\n      gas\n      call\n      swap2\n      pop\n      pop\n      returndatasize\n      dup1\n      0x00\n      dup2\n      eq\n      tag_18\n      jumpi\n      mload(0x40)\n      swap2\n      pop\n      and(add(returndatasize, 0x3f), not(0x1f))\n      dup3\n      add\n      0x40\n      mstore\n      returndatasize\n      dup3\n      mstore\n      returndatasize\n      0x00\n      0x20\n      dup5\n      add\n      returndatacopy\n      jump(tag_17)\n    tag_18:\n      0x60\n      swap2\n      pop\n    tag_17:\n      pop\n        /* \"Upgradable_Contract/call.sol\":2270:2344  (bool success, ) = _original.call(abi.encodeWithSignature(\"setAddress()\")) */\n      pop\n      swap1\n      pop\n        /* \"Upgradable_Contract/call.sol\":2362:2369  success */\n      dup1\n        /* \"Upgradable_Contract/call.sol\":2354:2378  require(success, \"nope\") */\n      tag_19\n      jumpi\n      mload(0x40)\n      0x08c379a000000000000000000000000000000000000000000000000000000000\n      dup2\n      mstore\n      0x04\n      add\n      tag_20\n      swap1\n      tag_21\n      jump\t// in\n    tag_20:\n      mload(0x40)\n      dup1\n      swap2\n      sub\n      swap1\n      revert\n    tag_19:\n        /* \"Upgradable_Contract/call.sol\":2260:2385  {... */\n      pop\n        /* \"Upgradable_Contract/call.sol\":2210:2385  function callSetAddress(address _original) public {... */\n      pop\n      jump\t// out\n        /* \"#utility.yul\":7:133   */\n    tag_22:\n        /* \"#utility.yul\":44:51   */\n      0x00\n        /* \"#utility.yul\":84:126   */\n      0xffffffffffffffffffffffffffffffffffffffff\n        /* \"#utility.yul\":77:82   */\n      dup3\n        /* \"#utility.yul\":73:127   */\n      and\n        /* \"#utility.yul\":62:127   */\n      swap1\n      pop\n        /* \"#utility.yul\":7:133   */\n      swap2\n      swap1\n      pop\n      jump\t// out\n        /* \"#utility.yul\":139:235   */\n    tag_23:\n        /* \"#utility.yul\":176:183   */\n      0x00\n        /* \"#utility.yul\":205:229   */\n      tag_40\n        /* \"#utility.yul\":223:228   */\n      dup3\n        /* \"#utility.yul\":205:229   */\n      tag_22\n      jump\t// in\n    tag_40:\n        /* \"#utility.yul\":194:229   */\n      swap1\n      pop\n        /* \"#utility.yul\":139:235   */\n      swap2\n      swap1\n      pop\n      jump\t// out\n        /* \"#utility.yul\":241:359   */\n    tag_24:\n        /* \"#utility.yul\":328:352   */\n      tag_42\n        /* \"#utility.yul\":346:351   */\n      dup2\n        /* \"#utility.yul\":328:352   */\n      tag_23\n      jump\t// in\n    tag_42:\n        /* \"#utility.yul\":323:326   */\n      dup3\n        /* \"#utility.yul\":316:353   */\n      mstore\n        /* \"#utility.yul\":241:359   */\n      pop\n      pop\n      jump\t// out\n        /* \"#utility.yul\":365:587   */\n    tag_8:\n        /* \"#utility.yul\":458:462   */\n      0x00\n        /* \"#utility.yul\":496:498   */\n      0x20\n        /* \"#utility.yul\":485:494   */\n      dup3\n        /* \"#utility.yul\":481:499   */\n      add\n        /* \"#utility.yul\":473:499   */\n      swap1\n      pop\n        /* \"#utility.yul\":509:580   */\n      tag_44\n        /* \"#utility.yul\":577:578   */\n      0x00\n        /* \"#utility.yul\":566:575   */\n      dup4\n        /* \"#utility.yul\":562:579   */\n      add\n        /* \"#utility.yul\":553:559   */\n      dup5\n        /* \"#utility.yul\":509:580   */\n      tag_24\n      jump\t// in\n    tag_44:\n        /* \"#utility.yul\":365:587   */\n      swap3\n      swap2\n      pop\n      pop\n      jump\t// out\n        /* \"#utility.yul\":674:791   */\n    tag_26:\n        /* \"#utility.yul\":783:784   */\n      0x00\n        /* \"#utility.yul\":780:781   */\n      dup1\n        /* \"#utility.yul\":773:785   */\n      revert\n        /* \"#utility.yul\":920:1042   */\n    tag_28:\n        /* \"#utility.yul\":993:1017   */\n      tag_49\n        /* \"#utility.yul\":1011:1016   */\n      dup2\n        /* \"#utility.yul\":993:1017   */\n      tag_23\n      jump\t// in\n    tag_49:\n        /* \"#utility.yul\":986:991   */\n      dup2\n        /* \"#utility.yul\":983:1018   */\n      eq\n        /* \"#utility.yul\":973:1036   */\n      tag_50\n      jumpi\n        /* \"#utility.yul\":1032:1033   */\n      0x00\n        /* \"#utility.yul\":1029:1030   */\n      dup1\n        /* \"#utility.yul\":1022:1034   */\n      revert\n        /* \"#utility.yul\":973:1036   */\n    tag_50:\n        /* \"#utility.yul\":920:1042   */\n      pop\n      jump\t// out\n        /* \"#utility.yul\":1048:1187   */\n    tag_29:\n        /* \"#utility.yul\":1094:1099   */\n      0x00\n        /* \"#utility.yul\":1132:1138   */\n      dup2\n        /* \"#utility.yul\":1119:1139   */\n      calldataload\n        /* \"#utility.yul\":1110:1139   */\n      swap1\n      pop\n        /* \"#utility.yul\":1148:1181   */\n      tag_52\n        /* \"#utility.yul\":1175:1180   */\n      dup2\n        /* \"#utility.yul\":1148:1181   */\n      tag_28\n      jump\t// in\n    tag_52:\n        /* \"#utility.yul\":1048:1187   */\n      swap3\n      swap2\n      pop\n      pop\n      jump\t// out\n        /* \"#utility.yul\":1193:1522   */\n    tag_11:\n        /* \"#utility.yul\":1252:1258   */\n      0x00\n        /* \"#utility.yul\":1301:1303   */\n      0x20\n        /* \"#utility.yul\":1289:1298   */\n      dup3\n        /* \"#utility.yul\":1280:1287   */\n      dup5\n        /* \"#utility.yul\":1276:1299   */\n      sub\n        /* \"#utility.yul\":1272:1304   */\n      slt\n        /* \"#utility.yul\":1269:1388   */\n      iszero\n      tag_54\n      jumpi\n        /* \"#utility.yul\":1307:1386   */\n      tag_55\n      tag_26\n      jump\t// in\n    tag_55:\n        /* \"#utility.yul\":1269:1388   */\n    tag_54:\n        /* \"#utility.yul\":1427:1428   */\n      0x00\n        /* \"#utility.yul\":1452:1505   */\n      tag_56\n        /* \"#utility.yul\":1497:1504   */\n      dup5\n        /* \"#utility.yul\":1488:1494   */\n      dup3\n        /* \"#utility.yul\":1477:1486   */\n      dup6\n        /* \"#utility.yul\":1473:1495   */\n      add\n        /* \"#utility.yul\":1452:1505   */\n      tag_29\n      jump\t// in\n    tag_56:\n        /* \"#utility.yul\":1442:1505   */\n      swap2\n      pop\n        /* \"#utility.yul\":1398:1515   */\n      pop\n        /* \"#utility.yul\":1193:1522   */\n      swap3\n      swap2\n      pop\n      pop\n      jump\t// out\n        /* \"#utility.yul\":1528:1626   */\n    tag_30:\n        /* \"#utility.yul\":1579:1585   */\n      0x00\n        /* \"#utility.yul\":1613:1618   */\n      dup2\n        /* \"#utility.yul\":1607:1619   */\n      mload\n        /* \"#utility.yul\":1597:1619   */\n      swap1\n      pop\n        /* \"#utility.yul\":1528:1626   */\n      swap2\n      swap1\n      pop\n      jump\t// out\n        /* \"#utility.yul\":1632:1779   */\n    tag_31:\n        /* \"#utility.yul\":1733:1744   */\n      0x00\n        /* \"#utility.yul\":1770:1773   */\n      dup2\n        /* \"#utility.yul\":1755:1773   */\n      swap1\n      pop\n        /* \"#utility.yul\":1632:1779   */\n      swap3\n      swap2\n      pop\n      pop\n      jump\t// out\n        /* \"#utility.yul\":1785:1924   */\n    tag_32:\n        /* \"#utility.yul\":1874:1880   */\n      dup3\n        /* \"#utility.yul\":1869:1872   */\n      dup2\n        /* \"#utility.yul\":1864:1867   */\n      dup4\n        /* \"#utility.yul\":1858:1881   */\n      mcopy\n        /* \"#utility.yul\":1915:1916   */\n      0x00\n        /* \"#utility.yul\":1906:1912   */\n      dup4\n        /* \"#utility.yul\":1901:1904   */\n      dup4\n        /* \"#utility.yul\":1897:1913   */\n      add\n        /* \"#utility.yul\":1890:1917   */\n      mstore\n        /* \"#utility.yul\":1785:1924   */\n      pop\n      pop\n      pop\n      jump\t// out\n        /* \"#utility.yul\":1930:2316   */\n    tag_33:\n        /* \"#utility.yul\":2034:2037   */\n      0x00\n        /* \"#utility.yul\":2062:2100   */\n      tag_61\n        /* \"#utility.yul\":2094:2099   */\n      dup3\n        /* \"#utility.yul\":2062:2100   */\n      tag_30\n      jump\t// in\n    tag_61:\n        /* \"#utility.yul\":2116:2204   */\n      tag_62\n        /* \"#utility.yul\":2197:2203   */\n      dup2\n        /* \"#utility.yul\":2192:2195   */\n      dup6\n        /* \"#utility.yul\":2116:2204   */\n      tag_31\n      jump\t// in\n    tag_62:\n        /* \"#utility.yul\":2109:2204   */\n      swap4\n      pop\n        /* \"#utility.yul\":2213:2278   */\n      tag_63\n        /* \"#utility.yul\":2271:2277   */\n      dup2\n        /* \"#utility.yul\":2266:2269   */\n      dup6\n        /* \"#utility.yul\":2259:2263   */\n      0x20\n        /* \"#utility.yul\":2252:2257   */\n      dup7\n        /* \"#utility.yul\":2248:2264   */\n      add\n        /* \"#utility.yul\":2213:2278   */\n      tag_32\n      jump\t// in\n    tag_63:\n        /* \"#utility.yul\":2303:2309   */\n      dup1\n        /* \"#utility.yul\":2298:2301   */\n      dup5\n        /* \"#utility.yul\":2294:2310   */\n      add\n        /* \"#utility.yul\":2287:2310   */\n      swap2\n      pop\n        /* \"#utility.yul\":2038:2316   */\n      pop\n        /* \"#utility.yul\":1930:2316   */\n      swap3\n      swap2\n      pop\n      pop\n      jump\t// out\n        /* \"#utility.yul\":2322:2593   */\n    tag_15:\n        /* \"#utility.yul\":2452:2455   */\n      0x00\n        /* \"#utility.yul\":2474:2567   */\n      tag_65\n        /* \"#utility.yul\":2563:2566   */\n      dup3\n        /* \"#utility.yul\":2554:2560   */\n      dup5\n        /* \"#utility.yul\":2474:2567   */\n      tag_33\n      jump\t// in\n    tag_65:\n        /* \"#utility.yul\":2467:2567   */\n      swap2\n      pop\n        /* \"#utility.yul\":2584:2587   */\n      dup2\n        /* \"#utility.yul\":2577:2587   */\n      swap1\n      pop\n        /* \"#utility.yul\":2322:2593   */\n      swap3\n      swap2\n      pop\n      pop\n      jump\t// out\n        /* \"#utility.yul\":2599:2768   */\n    tag_34:\n        /* \"#utility.yul\":2683:2694   */\n      0x00\n        /* \"#utility.yul\":2717:2723   */\n      dup3\n        /* \"#utility.yul\":2712:2715   */\n      dup3\n        /* \"#utility.yul\":2705:2724   */\n      mstore\n        /* \"#utility.yul\":2757:2761   */\n      0x20\n        /* \"#utility.yul\":2752:2755   */\n      dup3\n        /* \"#utility.yul\":2748:2762   */\n      add\n        /* \"#utility.yul\":2733:2762   */\n      swap1\n      pop\n        /* \"#utility.yul\":2599:2768   */\n      swap3\n      swap2\n      pop\n      pop\n      jump\t// out\n        /* \"#utility.yul\":2774:2928   */\n    tag_35:\n        /* \"#utility.yul\":2914:2920   */\n      0x6e6f706500000000000000000000000000000000000000000000000000000000\n        /* \"#utility.yul\":2910:2911   */\n      0x00\n        /* \"#utility.yul\":2902:2908   */\n      dup3\n        /* \"#utility.yul\":2898:2912   */\n      add\n        /* \"#utility.yul\":2891:2921   */\n      mstore\n        /* \"#utility.yul\":2774:2928   */\n      pop\n      jump\t// out\n        /* \"#utility.yul\":2934:3299   */\n    tag_36:\n        /* \"#utility.yul\":3076:3079   */\n      0x00\n        /* \"#utility.yul\":3097:3163   */\n      tag_69\n        /* \"#utility.yul\":3161:3162   */\n      0x04\n        /* \"#utility.yul\":3156:3159   */\n      dup4\n        /* \"#utility.yul\":3097:3163   */\n      tag_34\n      jump\t// in\n    tag_69:\n        /* \"#utility.yul\":3090:3163   */\n      swap2\n      pop\n        /* \"#utility.yul\":3172:3265   */\n      tag_70\n        /* \"#utility.yul\":3261:3264   */\n      dup3\n        /* \"#utility.yul\":3172:3265   */\n      tag_35\n      jump\t// in\n    tag_70:\n        /* \"#utility.yul\":3290:3292   */\n      0x20\n        /* \"#utility.yul\":3285:3288   */\n      dup3\n        /* \"#utility.yul\":3281:3293   */\n      add\n        /* \"#utility.yul\":3274:3293   */\n      swap1\n      pop\n        /* \"#utility.yul\":2934:3299   */\n      swap2\n      swap1\n      pop\n      jump\t// out\n        /* \"#utility.yul\":3305:3724   */\n    tag_21:\n        /* \"#utility.yul\":3471:3475   */\n      0x00\n        /* \"#utility.yul\":3509:3511   */\n      0x20\n        /* \"#utility.yul\":3498:3507   */\n      dup3\n        /* \"#utility.yul\":3494:3512   */\n      add\n        /* \"#utility.yul\":3486:3512   */\n      swap1\n      pop\n        /* \"#utility.yul\":3558:3567   */\n      dup2\n        /* \"#utility.yul\":3552:3556   */\n      dup2\n        /* \"#utility.yul\":3548:3568   */\n      sub\n        /* \"#utility.yul\":3544:3545   */\n      0x00\n        /* \"#utility.yul\":3533:3542   */\n      dup4\n        /* \"#utility.yul\":3529:3546   */\n      add\n        /* \"#utility.yul\":3522:3569   */\n      mstore\n        /* \"#utility.yul\":3586:3717   */\n      tag_72\n        /* \"#utility.yul\":3712:3716   */\n      dup2\n        /* \"#utility.yul\":3586:3717   */\n      tag_36\n      jump\t// in\n    tag_72:\n        /* \"#utility.yul\":3578:3717   */\n      swap1\n      pop\n        /* \"#utility.yul\":3305:3724   */\n      swap2\n      swap1\n      pop\n      jump\t// out\n\n    auxdata: 0xa2646970667358221220ab4c651f6ad0d4fbe48664f6de4a2098a2f844aa618d99de0d3f5237ab8b320164736f6c634300081a0033\n}\n",
				"bytecode": {
					"linkReferences": {},
					"object": "6080604052348015600e575f80fd5b5061038a8061001c5f395ff3fe608060405234801561000f575f80fd5b5060043610610034575f3560e01c8063767800de14610038578063c9fbd56114610056575b5f80fd5b610040610072565b60405161004d9190610202565b60405180910390f35b610070600480360381019061006b9190610249565b610095565b005b5f8054906101000a900473ffffffffffffffffffffffffffffffffffffffff1681565b5f8173ffffffffffffffffffffffffffffffffffffffff166040516024016040516020818303038152906040527fe6569275000000000000000000000000000000000000000000000000000000007bffffffffffffffffffffffffffffffffffffffffffffffffffffffff19166020820180517bffffffffffffffffffffffffffffffffffffffffffffffffffffffff838183161783525050505060405161013d91906102c6565b5f604051808303815f865af19150503d805f8114610176576040519150601f19603f3d011682016040523d82523d5f602084013e61017b565b606091505b50509050806101bf576040517f08c379a00000000000000000000000000000000000000000000000000000000081526004016101b690610336565b60405180910390fd5b5050565b5f73ffffffffffffffffffffffffffffffffffffffff82169050919050565b5f6101ec826101c3565b9050919050565b6101fc816101e2565b82525050565b5f6020820190506102155f8301846101f3565b92915050565b5f80fd5b610228816101e2565b8114610232575f80fd5b50565b5f813590506102438161021f565b92915050565b5f6020828403121561025e5761025d61021b565b5b5f61026b84828501610235565b91505092915050565b5f81519050919050565b5f81905092915050565b8281835e5f83830152505050565b5f6102a082610274565b6102aa818561027e565b93506102ba818560208601610288565b80840191505092915050565b5f6102d18284610296565b915081905092915050565b5f82825260208201905092915050565b7f6e6f7065000000000000000000000000000000000000000000000000000000005f82015250565b5f6103206004836102dc565b915061032b826102ec565b602082019050919050565b5f6020820190508181035f83015261034d81610314565b905091905056fea2646970667358221220ab4c651f6ad0d4fbe48664f6de4a2098a2f844aa618d99de0d3f5237ab8b320164736f6c634300081a0033",
					"opcodes": "PUSH1 0x80 PUSH1 0x40 MSTORE CALLVALUE DUP1 ISZERO PUSH1 0xE JUMPI PUSH0 DUP1 REVERT JUMPDEST POP PUSH2 0x38A DUP1 PUSH2 0x1C PUSH0 CODECOPY PUSH0 RETURN INVALID PUSH1 0x80 PUSH1 0x40 MSTORE CALLVALUE DUP1 ISZERO PUSH2 0xF JUMPI PUSH0 DUP1 REVERT JUMPDEST POP PUSH1 0x4 CALLDATASIZE LT PUSH2 0x34 JUMPI PUSH0 CALLDATALOAD PUSH1 0xE0 SHR DUP1 PUSH4 0x767800DE EQ PUSH2 0x38 JUMPI DUP1 PUSH4 0xC9FBD561 EQ PUSH2 0x56 JUMPI JUMPDEST PUSH0 DUP1 REVERT JUMPDEST PUSH2 0x40 PUSH2 0x72 JUMP JUMPDEST PUSH1 0x40 MLOAD PUSH2 0x4D SWAP2 SWAP1 PUSH2 0x202 JUMP JUMPDEST PUSH1 0x40 MLOAD DUP1 SWAP2 SUB SWAP1 RETURN JUMPDEST PUSH2 0x70 PUSH1 0x4 DUP1 CALLDATASIZE SUB DUP2 ADD SWAP1 PUSH2 0x6B SWAP2 SWAP1 PUSH2 0x249 JUMP JUMPDEST PUSH2 0x95 JUMP JUMPDEST STOP JUMPDEST PUSH0 DUP1 SLOAD SWAP1 PUSH2 0x100 EXP SWAP1 DIV PUSH20 0xFFFFFFFFFFFFFFFFFFFFFFFFFFFFFFFFFFFFFFFF AND DUP2 JUMP JUMPDEST PUSH0 DUP2 PUSH20 0xFFFFFFFFFFFFFFFFFFFFFFFFFFFFFFFFFFFFFFFF AND PUSH1 0x40 MLOAD PUSH1 0x24 ADD PUSH1 0x40 MLOAD PUSH1 0x20 DUP2 DUP4 SUB SUB DUP2 MSTORE SWAP1 PUSH1 0x40 MSTORE PUSH32 0xE656927500000000000000000000000000000000000000000000000000000000 PUSH28 0xFFFFFFFFFFFFFFFFFFFFFFFFFFFFFFFFFFFFFFFFFFFFFFFFFFFFFFFF NOT AND PUSH1 0x20 DUP3 ADD DUP1 MLOAD PUSH28 0xFFFFFFFFFFFFFFFFFFFFFFFFFFFFFFFFFFFFFFFFFFFFFFFFFFFFFFFF DUP4 DUP2 DUP4 AND OR DUP4 MSTORE POP POP POP POP PUSH1 0x40 MLOAD PUSH2 0x13D SWAP2 SWAP1 PUSH2 0x2C6 JUMP JUMPDEST PUSH0 PUSH1 0x40 MLOAD DUP1 DUP4 SUB DUP2 PUSH0 DUP7 GAS CALL SWAP2 POP POP RETURNDATASIZE DUP1 PUSH0 DUP2 EQ PUSH2 0x176 JUMPI PUSH1 0x40 MLOAD SWAP2 POP PUSH1 0x1F NOT PUSH1 0x3F RETURNDATASIZE ADD AND DUP3 ADD PUSH1 0x40 MSTORE RETURNDATASIZE DUP3 MSTORE RETURNDATASIZE PUSH0 PUSH1 0x20 DUP5 ADD RETURNDATACOPY PUSH2 0x17B JUMP JUMPDEST PUSH1 0x60 SWAP2 POP JUMPDEST POP POP SWAP1 POP DUP1 PUSH2 0x1BF JUMPI PUSH1 0x40 MLOAD PUSH32 0x8C379A000000000000000000000000000000000000000000000000000000000 DUP2 MSTORE PUSH1 0x4 ADD PUSH2 0x1B6 SWAP1 PUSH2 0x336 JUMP JUMPDEST PUSH1 0x40 MLOAD DUP1 SWAP2 SUB SWAP1 REVERT JUMPDEST POP POP JUMP JUMPDEST PUSH0 PUSH20 0xFFFFFFFFFFFFFFFFFFFFFFFFFFFFFFFFFFFFFFFF DUP3 AND SWAP1 POP SWAP2 SWAP1 POP JUMP JUMPDEST PUSH0 PUSH2 0x1EC DUP3 PUSH2 0x1C3 JUMP JUMPDEST SWAP1 POP SWAP2 SWAP1 POP JUMP JUMPDEST PUSH2 0x1FC DUP2 PUSH2 0x1E2 JUMP JUMPDEST DUP3 MSTORE POP POP JUMP JUMPDEST PUSH0 PUSH1 0x20 DUP3 ADD SWAP1 POP PUSH2 0x215 PUSH0 DUP4 ADD DUP5 PUSH2 0x1F3 JUMP JUMPDEST SWAP3 SWAP2 POP POP JUMP JUMPDEST PUSH0 DUP1 REVERT JUMPDEST PUSH2 0x228 DUP2 PUSH2 0x1E2 JUMP JUMPDEST DUP2 EQ PUSH2 0x232 JUMPI PUSH0 DUP1 REVERT JUMPDEST POP JUMP JUMPDEST PUSH0 DUP2 CALLDATALOAD SWAP1 POP PUSH2 0x243 DUP2 PUSH2 0x21F JUMP JUMPDEST SWAP3 SWAP2 POP POP JUMP JUMPDEST PUSH0 PUSH1 0x20 DUP3 DUP5 SUB SLT ISZERO PUSH2 0x25E JUMPI PUSH2 0x25D PUSH2 0x21B JUMP JUMPDEST JUMPDEST PUSH0 PUSH2 0x26B DUP5 DUP3 DUP6 ADD PUSH2 0x235 JUMP JUMPDEST SWAP2 POP POP SWAP3 SWAP2 POP POP JUMP JUMPDEST PUSH0 DUP2 MLOAD SWAP1 POP SWAP2 SWAP1 POP JUMP JUMPDEST PUSH0 DUP2 SWAP1 POP SWAP3 SWAP2 POP POP JUMP JUMPDEST DUP3 DUP2 DUP4 MCOPY PUSH0 DUP4 DUP4 ADD MSTORE POP POP POP JUMP JUMPDEST PUSH0 PUSH2 0x2A0 DUP3 PUSH2 0x274 JUMP JUMPDEST PUSH2 0x2AA DUP2 DUP6 PUSH2 0x27E JUMP JUMPDEST SWAP4 POP PUSH2 0x2BA DUP2 DUP6 PUSH1 0x20 DUP7 ADD PUSH2 0x288 JUMP JUMPDEST DUP1 DUP5 ADD SWAP2 POP POP SWAP3 SWAP2 POP POP JUMP JUMPDEST PUSH0 PUSH2 0x2D1 DUP3 DUP5 PUSH2 0x296 JUMP JUMPDEST SWAP2 POP DUP2 SWAP1 POP SWAP3 SWAP2 POP POP JUMP JUMPDEST PUSH0 DUP3 DUP3 MSTORE PUSH1 0x20 DUP3 ADD SWAP1 POP SWAP3 SWAP2 POP POP JUMP JUMPDEST PUSH32 0x6E6F706500000000000000000000000000000000000000000000000000000000 PUSH0 DUP3 ADD MSTORE POP JUMP JUMPDEST PUSH0 PUSH2 0x320 PUSH1 0x4 DUP4 PUSH2 0x2DC JUMP JUMPDEST SWAP2 POP PUSH2 0x32B DUP3 PUSH2 0x2EC JUMP JUMPDEST PUSH1 0x20 DUP3 ADD SWAP1 POP SWAP2 SWAP1 POP JUMP JUMPDEST PUSH0 PUSH1 0x20 DUP3 ADD SWAP1 POP DUP2 DUP2 SUB PUSH0 DUP4 ADD MSTORE PUSH2 0x34D DUP2 PUSH2 0x314 JUMP JUMPDEST SWAP1 POP SWAP2 SWAP1 POP JUMP INVALID LOG2 PUSH5 0x6970667358 0x22 SLT KECCAK256 0xAB 0x4C PUSH6 0x1F6AD0D4FBE4 DUP7 PUSH5 0xF6DE4A2098 LOG2 0xF8 PREVRANDAO 0xAA PUSH2 0x8D99 0xDE 0xD EXTCODEHASH MSTORE CALLDATACOPY 0xAB DUP12 ORIGIN ADD PUSH5 0x736F6C6343 STOP ADDMOD BYTE STOP CALLER "
				},
				"gasEstimates": {
					"creation": {
						"codeDepositCost": "181200",
						"executionCost": "224",
						"totalCost": "181424"
					},
					"external": {
						"addr()": "2483",
						"callSetAddress(address)": "infinite"
					}
				},
				"methodIdentifiers": {
					"addr()": "767800de",
					"callSetAddress(address)": "c9fbd561"
				}
			},
			"storageLayout": {
				"storage": [
					{
						"astId": 183,
						"contract": "Upgradable_Contract/call.sol:call_addr",
						"label": "addr",
						"offset": 0,
						"slot": "0",
						"type": "t_address"
					}
				],
				"types": {
					"t_address": {
						"encoding": "inplace",
						"label": "address",
						"numberOfBytes": "20"
					}
				}
			},
			"userdoc": {
				"kind": "user",
				"methods": {},
				"version": 1
			}
		}
	}
}