{
	"Solidity100/Solidity71-80.sol": {
		"Question71": {
			"abi": [
				{
					"inputs": [],
					"stateMutability": "nonpayable",
					"type": "constructor"
				},
				{
					"inputs": [],
					"name": "a",
					"outputs": [
						{
							"internalType": "uint256",
							"name": "",
							"type": "uint256"
						}
					],
					"stateMutability": "view",
					"type": "function"
				},
				{
					"inputs": [
						{
							"internalType": "uint256",
							"name": "_a",
							"type": "uint256"
						}
					],
					"name": "setA",
					"outputs": [],
					"stateMutability": "nonpayable",
					"type": "function"
				},
				{
					"inputs": [],
					"name": "timer",
					"outputs": [
						{
							"internalType": "uint256",
							"name": "",
							"type": "uint256"
						}
					],
					"stateMutability": "view",
					"type": "function"
				}
			],
			"devdoc": {
				"kind": "dev",
				"methods": {},
				"version": 1
			},
			"evm": {
				"assembly": "    /* \"Solidity100/Solidity71-80.sol\":58:557  contract Question71 {... */\n  mstore(0x40, 0x80)\n    /* \"Solidity100/Solidity71-80.sol\":335:390  constructor () {... */\n  callvalue\n  dup1\n  iszero\n  tag_1\n  jumpi\n  0x00\n  dup1\n  revert\ntag_1:\n  pop\n    /* \"Solidity100/Solidity71-80.sol\":368:383  block.timestamp */\n  timestamp\n    /* \"Solidity100/Solidity71-80.sol\":360:365  timer */\n  0x01\n    /* \"Solidity100/Solidity71-80.sol\":360:383  timer = block.timestamp */\n  dup2\n  swap1\n  sstore\n  pop\n    /* \"Solidity100/Solidity71-80.sol\":58:557  contract Question71 {... */\n  dataSize(sub_0)\n  dup1\n  dataOffset(sub_0)\n  0x00\n  codecopy\n  0x00\n  return\nstop\n\nsub_0: assembly {\n        /* \"Solidity100/Solidity71-80.sol\":58:557  contract Question71 {... */\n      mstore(0x40, 0x80)\n      callvalue\n      dup1\n      iszero\n      tag_1\n      jumpi\n      0x00\n      dup1\n      revert\n    tag_1:\n      pop\n      jumpi(tag_2, lt(calldatasize, 0x04))\n      shr(0xe0, calldataload(0x00))\n      dup1\n      0x0dbe671f\n      eq\n      tag_3\n      jumpi\n      dup1\n      0x88c9cb3c\n      eq\n      tag_4\n      jumpi\n      dup1\n      0xee919d50\n      eq\n      tag_5\n      jumpi\n    tag_2:\n      0x00\n      dup1\n      revert\n        /* \"Solidity100/Solidity71-80.sol\":292:305  uint public a */\n    tag_3:\n      tag_6\n      tag_7\n      jump\t// in\n    tag_6:\n      mload(0x40)\n      tag_8\n      swap2\n      swap1\n      tag_9\n      jump\t// in\n    tag_8:\n      mload(0x40)\n      dup1\n      swap2\n      sub\n      swap1\n      return\n        /* \"Solidity100/Solidity71-80.sol\":311:328  uint public timer */\n    tag_4:\n      tag_10\n      tag_11\n      jump\t// in\n    tag_10:\n      mload(0x40)\n      tag_12\n      swap2\n      swap1\n      tag_9\n      jump\t// in\n    tag_12:\n      mload(0x40)\n      dup1\n      swap2\n      sub\n      swap1\n      return\n        /* \"Solidity100/Solidity71-80.sol\":400:555  function setA(uint _a) public {... */\n    tag_5:\n      tag_13\n      0x04\n      dup1\n      calldatasize\n      sub\n      dup2\n      add\n      swap1\n      tag_14\n      swap2\n      swap1\n      tag_15\n      jump\t// in\n    tag_14:\n      tag_16\n      jump\t// in\n    tag_13:\n      stop\n        /* \"Solidity100/Solidity71-80.sol\":292:305  uint public a */\n    tag_7:\n      sload(0x00)\n      dup2\n      jump\t// out\n        /* \"Solidity100/Solidity71-80.sol\":311:328  uint public timer */\n    tag_11:\n      sload(0x01)\n      dup2\n      jump\t// out\n        /* \"Solidity100/Solidity71-80.sol\":400:555  function setA(uint _a) public {... */\n    tag_16:\n        /* \"Solidity100/Solidity71-80.sol\":466:471  timer */\n      sload(0x01)\n        /* \"Solidity100/Solidity71-80.sol\":448:463  block.timestamp */\n      timestamp\n        /* \"Solidity100/Solidity71-80.sol\":448:471  block.timestamp > timer */\n      gt\n        /* \"Solidity100/Solidity71-80.sol\":440:486  require(block.timestamp > timer, \"10 minutes\") */\n      tag_18\n      jumpi\n      mload(0x40)\n      0x08c379a000000000000000000000000000000000000000000000000000000000\n      dup2\n      mstore\n      0x04\n      add\n      tag_19\n      swap1\n      tag_20\n      jump\t// in\n    tag_19:\n      mload(0x40)\n      dup1\n      swap2\n      sub\n      swap1\n      revert\n    tag_18:\n        /* \"Solidity100/Solidity71-80.sol\":500:502  _a */\n      dup1\n        /* \"Solidity100/Solidity71-80.sol\":496:497  a */\n      0x00\n        /* \"Solidity100/Solidity71-80.sol\":496:502  a = _a */\n      dup2\n      swap1\n      sstore\n      pop\n        /* \"Solidity100/Solidity71-80.sol\":538:548  10 minutes */\n      0x0258\n        /* \"Solidity100/Solidity71-80.sol\":520:535  block.timestamp */\n      timestamp\n        /* \"Solidity100/Solidity71-80.sol\":520:548  block.timestamp + 10 minutes */\n      tag_21\n      swap2\n      swap1\n      tag_22\n      jump\t// in\n    tag_21:\n        /* \"Solidity100/Solidity71-80.sol\":512:517  timer */\n      0x01\n        /* \"Solidity100/Solidity71-80.sol\":512:548  timer = block.timestamp + 10 minutes */\n      dup2\n      swap1\n      sstore\n      pop\n        /* \"Solidity100/Solidity71-80.sol\":400:555  function setA(uint _a) public {... */\n      pop\n      jump\t// out\n        /* \"#utility.yul\":7:84   */\n    tag_23:\n        /* \"#utility.yul\":44:51   */\n      0x00\n        /* \"#utility.yul\":73:78   */\n      dup2\n        /* \"#utility.yul\":62:78   */\n      swap1\n      pop\n        /* \"#utility.yul\":7:84   */\n      swap2\n      swap1\n      pop\n      jump\t// out\n        /* \"#utility.yul\":90:208   */\n    tag_24:\n        /* \"#utility.yul\":177:201   */\n      tag_37\n        /* \"#utility.yul\":195:200   */\n      dup2\n        /* \"#utility.yul\":177:201   */\n      tag_23\n      jump\t// in\n    tag_37:\n        /* \"#utility.yul\":172:175   */\n      dup3\n        /* \"#utility.yul\":165:202   */\n      mstore\n        /* \"#utility.yul\":90:208   */\n      pop\n      pop\n      jump\t// out\n        /* \"#utility.yul\":214:436   */\n    tag_9:\n        /* \"#utility.yul\":307:311   */\n      0x00\n        /* \"#utility.yul\":345:347   */\n      0x20\n        /* \"#utility.yul\":334:343   */\n      dup3\n        /* \"#utility.yul\":330:348   */\n      add\n        /* \"#utility.yul\":322:348   */\n      swap1\n      pop\n        /* \"#utility.yul\":358:429   */\n      tag_39\n        /* \"#utility.yul\":426:427   */\n      0x00\n        /* \"#utility.yul\":415:424   */\n      dup4\n        /* \"#utility.yul\":411:428   */\n      add\n        /* \"#utility.yul\":402:408   */\n      dup5\n        /* \"#utility.yul\":358:429   */\n      tag_24\n      jump\t// in\n    tag_39:\n        /* \"#utility.yul\":214:436   */\n      swap3\n      swap2\n      pop\n      pop\n      jump\t// out\n        /* \"#utility.yul\":523:640   */\n    tag_26:\n        /* \"#utility.yul\":632:633   */\n      0x00\n        /* \"#utility.yul\":629:630   */\n      dup1\n        /* \"#utility.yul\":622:634   */\n      revert\n        /* \"#utility.yul\":769:891   */\n    tag_28:\n        /* \"#utility.yul\":842:866   */\n      tag_44\n        /* \"#utility.yul\":860:865   */\n      dup2\n        /* \"#utility.yul\":842:866   */\n      tag_23\n      jump\t// in\n    tag_44:\n        /* \"#utility.yul\":835:840   */\n      dup2\n        /* \"#utility.yul\":832:867   */\n      eq\n        /* \"#utility.yul\":822:885   */\n      tag_45\n      jumpi\n        /* \"#utility.yul\":881:882   */\n      0x00\n        /* \"#utility.yul\":878:879   */\n      dup1\n        /* \"#utility.yul\":871:883   */\n      revert\n        /* \"#utility.yul\":822:885   */\n    tag_45:\n        /* \"#utility.yul\":769:891   */\n      pop\n      jump\t// out\n        /* \"#utility.yul\":897:1036   */\n    tag_29:\n        /* \"#utility.yul\":943:948   */\n      0x00\n        /* \"#utility.yul\":981:987   */\n      dup2\n        /* \"#utility.yul\":968:988   */\n      calldataload\n        /* \"#utility.yul\":959:988   */\n      swap1\n      pop\n        /* \"#utility.yul\":997:1030   */\n      tag_47\n        /* \"#utility.yul\":1024:1029   */\n      dup2\n        /* \"#utility.yul\":997:1030   */\n      tag_28\n      jump\t// in\n    tag_47:\n        /* \"#utility.yul\":897:1036   */\n      swap3\n      swap2\n      pop\n      pop\n      jump\t// out\n        /* \"#utility.yul\":1042:1371   */\n    tag_15:\n        /* \"#utility.yul\":1101:1107   */\n      0x00\n        /* \"#utility.yul\":1150:1152   */\n      0x20\n        /* \"#utility.yul\":1138:1147   */\n      dup3\n        /* \"#utility.yul\":1129:1136   */\n      dup5\n        /* \"#utility.yul\":1125:1148   */\n      sub\n        /* \"#utility.yul\":1121:1153   */\n      slt\n        /* \"#utility.yul\":1118:1237   */\n      iszero\n      tag_49\n      jumpi\n        /* \"#utility.yul\":1156:1235   */\n      tag_50\n      tag_26\n      jump\t// in\n    tag_50:\n        /* \"#utility.yul\":1118:1237   */\n    tag_49:\n        /* \"#utility.yul\":1276:1277   */\n      0x00\n        /* \"#utility.yul\":1301:1354   */\n      tag_51\n        /* \"#utility.yul\":1346:1353   */\n      dup5\n        /* \"#utility.yul\":1337:1343   */\n      dup3\n        /* \"#utility.yul\":1326:1335   */\n      dup6\n        /* \"#utility.yul\":1322:1344   */\n      add\n        /* \"#utility.yul\":1301:1354   */\n      tag_29\n      jump\t// in\n    tag_51:\n        /* \"#utility.yul\":1291:1354   */\n      swap2\n      pop\n        /* \"#utility.yul\":1247:1364   */\n      pop\n        /* \"#utility.yul\":1042:1371   */\n      swap3\n      swap2\n      pop\n      pop\n      jump\t// out\n        /* \"#utility.yul\":1377:1546   */\n    tag_30:\n        /* \"#utility.yul\":1461:1472   */\n      0x00\n        /* \"#utility.yul\":1495:1501   */\n      dup3\n        /* \"#utility.yul\":1490:1493   */\n      dup3\n        /* \"#utility.yul\":1483:1502   */\n      mstore\n        /* \"#utility.yul\":1535:1539   */\n      0x20\n        /* \"#utility.yul\":1530:1533   */\n      dup3\n        /* \"#utility.yul\":1526:1540   */\n      add\n        /* \"#utility.yul\":1511:1540   */\n      swap1\n      pop\n        /* \"#utility.yul\":1377:1546   */\n      swap3\n      swap2\n      pop\n      pop\n      jump\t// out\n        /* \"#utility.yul\":1552:1712   */\n    tag_31:\n        /* \"#utility.yul\":1692:1704   */\n      0x3130206d696e7574657300000000000000000000000000000000000000000000\n        /* \"#utility.yul\":1688:1689   */\n      0x00\n        /* \"#utility.yul\":1680:1686   */\n      dup3\n        /* \"#utility.yul\":1676:1690   */\n      add\n        /* \"#utility.yul\":1669:1705   */\n      mstore\n        /* \"#utility.yul\":1552:1712   */\n      pop\n      jump\t// out\n        /* \"#utility.yul\":1718:2084   */\n    tag_32:\n        /* \"#utility.yul\":1860:1863   */\n      0x00\n        /* \"#utility.yul\":1881:1948   */\n      tag_55\n        /* \"#utility.yul\":1945:1947   */\n      0x0a\n        /* \"#utility.yul\":1940:1943   */\n      dup4\n        /* \"#utility.yul\":1881:1948   */\n      tag_30\n      jump\t// in\n    tag_55:\n        /* \"#utility.yul\":1874:1948   */\n      swap2\n      pop\n        /* \"#utility.yul\":1957:2050   */\n      tag_56\n        /* \"#utility.yul\":2046:2049   */\n      dup3\n        /* \"#utility.yul\":1957:2050   */\n      tag_31\n      jump\t// in\n    tag_56:\n        /* \"#utility.yul\":2075:2077   */\n      0x20\n        /* \"#utility.yul\":2070:2073   */\n      dup3\n        /* \"#utility.yul\":2066:2078   */\n      add\n        /* \"#utility.yul\":2059:2078   */\n      swap1\n      pop\n        /* \"#utility.yul\":1718:2084   */\n      swap2\n      swap1\n      pop\n      jump\t// out\n        /* \"#utility.yul\":2090:2509   */\n    tag_20:\n        /* \"#utility.yul\":2256:2260   */\n      0x00\n        /* \"#utility.yul\":2294:2296   */\n      0x20\n        /* \"#utility.yul\":2283:2292   */\n      dup3\n        /* \"#utility.yul\":2279:2297   */\n      add\n        /* \"#utility.yul\":2271:2297   */\n      swap1\n      pop\n        /* \"#utility.yul\":2343:2352   */\n      dup2\n        /* \"#utility.yul\":2337:2341   */\n      dup2\n        /* \"#utility.yul\":2333:2353   */\n      sub\n        /* \"#utility.yul\":2329:2330   */\n      0x00\n        /* \"#utility.yul\":2318:2327   */\n      dup4\n        /* \"#utility.yul\":2314:2331   */\n      add\n        /* \"#utility.yul\":2307:2354   */\n      mstore\n        /* \"#utility.yul\":2371:2502   */\n      tag_58\n        /* \"#utility.yul\":2497:2501   */\n      dup2\n        /* \"#utility.yul\":2371:2502   */\n      tag_32\n      jump\t// in\n    tag_58:\n        /* \"#utility.yul\":2363:2502   */\n      swap1\n      pop\n        /* \"#utility.yul\":2090:2509   */\n      swap2\n      swap1\n      pop\n      jump\t// out\n        /* \"#utility.yul\":2515:2695   */\n    tag_33:\n        /* \"#utility.yul\":2563:2640   */\n      0x4e487b7100000000000000000000000000000000000000000000000000000000\n        /* \"#utility.yul\":2560:2561   */\n      0x00\n        /* \"#utility.yul\":2553:2641   */\n      mstore\n        /* \"#utility.yul\":2660:2664   */\n      0x11\n        /* \"#utility.yul\":2657:2658   */\n      0x04\n        /* \"#utility.yul\":2650:2665   */\n      mstore\n        /* \"#utility.yul\":2684:2688   */\n      0x24\n        /* \"#utility.yul\":2681:2682   */\n      0x00\n        /* \"#utility.yul\":2674:2689   */\n      revert\n        /* \"#utility.yul\":2701:2892   */\n    tag_22:\n        /* \"#utility.yul\":2741:2744   */\n      0x00\n        /* \"#utility.yul\":2760:2780   */\n      tag_61\n        /* \"#utility.yul\":2778:2779   */\n      dup3\n        /* \"#utility.yul\":2760:2780   */\n      tag_23\n      jump\t// in\n    tag_61:\n        /* \"#utility.yul\":2755:2780   */\n      swap2\n      pop\n        /* \"#utility.yul\":2794:2814   */\n      tag_62\n        /* \"#utility.yul\":2812:2813   */\n      dup4\n        /* \"#utility.yul\":2794:2814   */\n      tag_23\n      jump\t// in\n    tag_62:\n        /* \"#utility.yul\":2789:2814   */\n      swap3\n      pop\n        /* \"#utility.yul\":2837:2838   */\n      dup3\n        /* \"#utility.yul\":2834:2835   */\n      dup3\n        /* \"#utility.yul\":2830:2839   */\n      add\n        /* \"#utility.yul\":2823:2839   */\n      swap1\n      pop\n        /* \"#utility.yul\":2858:2861   */\n      dup1\n        /* \"#utility.yul\":2855:2856   */\n      dup3\n        /* \"#utility.yul\":2852:2862   */\n      gt\n        /* \"#utility.yul\":2849:2885   */\n      iszero\n      tag_63\n      jumpi\n        /* \"#utility.yul\":2865:2883   */\n      tag_64\n      tag_33\n      jump\t// in\n    tag_64:\n        /* \"#utility.yul\":2849:2885   */\n    tag_63:\n        /* \"#utility.yul\":2701:2892   */\n      swap3\n      swap2\n      pop\n      pop\n      jump\t// out\n\n    auxdata: 0xa2646970667358221220e7a22eea58698d050b08d175649f102b4705f1f75d2d860a0f35fbfcdcd3424964736f6c634300081a0033\n}\n",
				"bytecode": {
					"linkReferences": {},
					"object": "6080604052348015600e575f80fd5b504260018190555061029f806100235f395ff3fe608060405234801561000f575f80fd5b506004361061003f575f3560e01c80630dbe671f1461004357806388c9cb3c14610061578063ee919d501461007f575b5f80fd5b61004b61009b565b604051610058919061011f565b60405180910390f35b6100696100a0565b604051610076919061011f565b60405180910390f35b61009960048036038101906100949190610166565b6100a6565b005b5f5481565b60015481565b60015442116100ea576040517f08c379a00000000000000000000000000000000000000000000000000000000081526004016100e1906101eb565b60405180910390fd5b805f81905550610258426100fe9190610236565b60018190555050565b5f819050919050565b61011981610107565b82525050565b5f6020820190506101325f830184610110565b92915050565b5f80fd5b61014581610107565b811461014f575f80fd5b50565b5f813590506101608161013c565b92915050565b5f6020828403121561017b5761017a610138565b5b5f61018884828501610152565b91505092915050565b5f82825260208201905092915050565b7f3130206d696e75746573000000000000000000000000000000000000000000005f82015250565b5f6101d5600a83610191565b91506101e0826101a1565b602082019050919050565b5f6020820190508181035f830152610202816101c9565b9050919050565b7f4e487b71000000000000000000000000000000000000000000000000000000005f52601160045260245ffd5b5f61024082610107565b915061024b83610107565b925082820190508082111561026357610262610209565b5b9291505056fea2646970667358221220e7a22eea58698d050b08d175649f102b4705f1f75d2d860a0f35fbfcdcd3424964736f6c634300081a0033",
					"opcodes": "PUSH1 0x80 PUSH1 0x40 MSTORE CALLVALUE DUP1 ISZERO PUSH1 0xE JUMPI PUSH0 DUP1 REVERT JUMPDEST POP TIMESTAMP PUSH1 0x1 DUP2 SWAP1 SSTORE POP PUSH2 0x29F DUP1 PUSH2 0x23 PUSH0 CODECOPY PUSH0 RETURN INVALID PUSH1 0x80 PUSH1 0x40 MSTORE CALLVALUE DUP1 ISZERO PUSH2 0xF JUMPI PUSH0 DUP1 REVERT JUMPDEST POP PUSH1 0x4 CALLDATASIZE LT PUSH2 0x3F JUMPI PUSH0 CALLDATALOAD PUSH1 0xE0 SHR DUP1 PUSH4 0xDBE671F EQ PUSH2 0x43 JUMPI DUP1 PUSH4 0x88C9CB3C EQ PUSH2 0x61 JUMPI DUP1 PUSH4 0xEE919D50 EQ PUSH2 0x7F JUMPI JUMPDEST PUSH0 DUP1 REVERT JUMPDEST PUSH2 0x4B PUSH2 0x9B JUMP JUMPDEST PUSH1 0x40 MLOAD PUSH2 0x58 SWAP2 SWAP1 PUSH2 0x11F JUMP JUMPDEST PUSH1 0x40 MLOAD DUP1 SWAP2 SUB SWAP1 RETURN JUMPDEST PUSH2 0x69 PUSH2 0xA0 JUMP JUMPDEST PUSH1 0x40 MLOAD PUSH2 0x76 SWAP2 SWAP1 PUSH2 0x11F JUMP JUMPDEST PUSH1 0x40 MLOAD DUP1 SWAP2 SUB SWAP1 RETURN JUMPDEST PUSH2 0x99 PUSH1 0x4 DUP1 CALLDATASIZE SUB DUP2 ADD SWAP1 PUSH2 0x94 SWAP2 SWAP1 PUSH2 0x166 JUMP JUMPDEST PUSH2 0xA6 JUMP JUMPDEST STOP JUMPDEST PUSH0 SLOAD DUP2 JUMP JUMPDEST PUSH1 0x1 SLOAD DUP2 JUMP JUMPDEST PUSH1 0x1 SLOAD TIMESTAMP GT PUSH2 0xEA JUMPI PUSH1 0x40 MLOAD PUSH32 0x8C379A000000000000000000000000000000000000000000000000000000000 DUP2 MSTORE PUSH1 0x4 ADD PUSH2 0xE1 SWAP1 PUSH2 0x1EB JUMP JUMPDEST PUSH1 0x40 MLOAD DUP1 SWAP2 SUB SWAP1 REVERT JUMPDEST DUP1 PUSH0 DUP2 SWAP1 SSTORE POP PUSH2 0x258 TIMESTAMP PUSH2 0xFE SWAP2 SWAP1 PUSH2 0x236 JUMP JUMPDEST PUSH1 0x1 DUP2 SWAP1 SSTORE POP POP JUMP JUMPDEST PUSH0 DUP2 SWAP1 POP SWAP2 SWAP1 POP JUMP JUMPDEST PUSH2 0x119 DUP2 PUSH2 0x107 JUMP JUMPDEST DUP3 MSTORE POP POP JUMP JUMPDEST PUSH0 PUSH1 0x20 DUP3 ADD SWAP1 POP PUSH2 0x132 PUSH0 DUP4 ADD DUP5 PUSH2 0x110 JUMP JUMPDEST SWAP3 SWAP2 POP POP JUMP JUMPDEST PUSH0 DUP1 REVERT JUMPDEST PUSH2 0x145 DUP2 PUSH2 0x107 JUMP JUMPDEST DUP2 EQ PUSH2 0x14F JUMPI PUSH0 DUP1 REVERT JUMPDEST POP JUMP JUMPDEST PUSH0 DUP2 CALLDATALOAD SWAP1 POP PUSH2 0x160 DUP2 PUSH2 0x13C JUMP JUMPDEST SWAP3 SWAP2 POP POP JUMP JUMPDEST PUSH0 PUSH1 0x20 DUP3 DUP5 SUB SLT ISZERO PUSH2 0x17B JUMPI PUSH2 0x17A PUSH2 0x138 JUMP JUMPDEST JUMPDEST PUSH0 PUSH2 0x188 DUP5 DUP3 DUP6 ADD PUSH2 0x152 JUMP JUMPDEST SWAP2 POP POP SWAP3 SWAP2 POP POP JUMP JUMPDEST PUSH0 DUP3 DUP3 MSTORE PUSH1 0x20 DUP3 ADD SWAP1 POP SWAP3 SWAP2 POP POP JUMP JUMPDEST PUSH32 0x3130206D696E7574657300000000000000000000000000000000000000000000 PUSH0 DUP3 ADD MSTORE POP JUMP JUMPDEST PUSH0 PUSH2 0x1D5 PUSH1 0xA DUP4 PUSH2 0x191 JUMP JUMPDEST SWAP2 POP PUSH2 0x1E0 DUP3 PUSH2 0x1A1 JUMP JUMPDEST PUSH1 0x20 DUP3 ADD SWAP1 POP SWAP2 SWAP1 POP JUMP JUMPDEST PUSH0 PUSH1 0x20 DUP3 ADD SWAP1 POP DUP2 DUP2 SUB PUSH0 DUP4 ADD MSTORE PUSH2 0x202 DUP2 PUSH2 0x1C9 JUMP JUMPDEST SWAP1 POP SWAP2 SWAP1 POP JUMP JUMPDEST PUSH32 0x4E487B7100000000000000000000000000000000000000000000000000000000 PUSH0 MSTORE PUSH1 0x11 PUSH1 0x4 MSTORE PUSH1 0x24 PUSH0 REVERT JUMPDEST PUSH0 PUSH2 0x240 DUP3 PUSH2 0x107 JUMP JUMPDEST SWAP2 POP PUSH2 0x24B DUP4 PUSH2 0x107 JUMP JUMPDEST SWAP3 POP DUP3 DUP3 ADD SWAP1 POP DUP1 DUP3 GT ISZERO PUSH2 0x263 JUMPI PUSH2 0x262 PUSH2 0x209 JUMP JUMPDEST JUMPDEST SWAP3 SWAP2 POP POP JUMP INVALID LOG2 PUSH5 0x6970667358 0x22 SLT KECCAK256 0xE7 LOG2 0x2E 0xEA PC PUSH10 0x8D050B08D175649F102B SELFBALANCE SDIV CALL 0xF7 TSTORE 0x2D DUP7 EXP 0xF CALLDATALOAD 0xFB 0xFC 0xDC 0xD3 TIMESTAMP BLOBHASH PUSH5 0x736F6C6343 STOP ADDMOD BYTE STOP CALLER "
				},
				"gasEstimates": {
					"creation": {
						"codeDepositCost": "134200",
						"executionCost": "22288",
						"totalCost": "156488"
					},
					"external": {
						"a()": "2402",
						"setA(uint256)": "infinite",
						"timer()": "2425"
					}
				},
				"methodIdentifiers": {
					"a()": "0dbe671f",
					"setA(uint256)": "ee919d50",
					"timer()": "88c9cb3c"
				}
			},
			"storageLayout": {
				"storage": [
					{
						"astId": 1417,
						"contract": "Solidity100/Solidity71-80.sol:Question71",
						"label": "a",
						"offset": 0,
						"slot": "0",
						"type": "t_uint256"
					},
					{
						"astId": 1419,
						"contract": "Solidity100/Solidity71-80.sol:Question71",
						"label": "timer",
						"offset": 0,
						"slot": "1",
						"type": "t_uint256"
					}
				],
				"types": {
					"t_uint256": {
						"encoding": "inplace",
						"label": "uint256",
						"numberOfBytes": "32"
					}
				}
			},
			"userdoc": {
				"kind": "user",
				"methods": {},
				"version": 1
			}
		}
	}
}