{
	"Solidity100/Solidity71-80.sol": {
		"Question78": {
			"abi": [
				{
					"inputs": [],
					"name": "between10and25",
					"outputs": [
						{
							"internalType": "bool",
							"name": "",
							"type": "bool"
						}
					],
					"stateMutability": "view",
					"type": "function"
				}
			],
			"devdoc": {
				"kind": "dev",
				"methods": {},
				"version": 1
			},
			"evm": {
				"assembly": "    /* \"Solidity100/Solidity71-80.sol\":5841:6448  contract Question78 {... */\n  mstore(0x40, 0x80)\n    /* \"Solidity100/Solidity71-80.sol\":6180:6206  uint[] numbers = [1,2,3,9] */\n  mload(0x40)\n  dup1\n  0x80\n  add\n  0x40\n  mstore\n  dup1\n    /* \"Solidity100/Solidity71-80.sol\":6198:6199  1 */\n  0x01\n    /* \"Solidity100/Solidity71-80.sol\":6180:6206  uint[] numbers = [1,2,3,9] */\n  0xff\n  and\n  dup2\n  mstore\n  0x20\n  add\n    /* \"Solidity100/Solidity71-80.sol\":6200:6201  2 */\n  0x02\n    /* \"Solidity100/Solidity71-80.sol\":6180:6206  uint[] numbers = [1,2,3,9] */\n  0xff\n  and\n  dup2\n  mstore\n  0x20\n  add\n    /* \"Solidity100/Solidity71-80.sol\":6202:6203  3 */\n  0x03\n    /* \"Solidity100/Solidity71-80.sol\":6180:6206  uint[] numbers = [1,2,3,9] */\n  0xff\n  and\n  dup2\n  mstore\n  0x20\n  add\n    /* \"Solidity100/Solidity71-80.sol\":6204:6205  9 */\n  0x09\n    /* \"Solidity100/Solidity71-80.sol\":6180:6206  uint[] numbers = [1,2,3,9] */\n  0xff\n  and\n  dup2\n  mstore\n  pop\n  0x00\n  swap1\n  0x04\n  tag_1\n  swap3\n  swap2\n  swap1\n  tag_2\n  jump\t// in\ntag_1:\n  pop\n    /* \"Solidity100/Solidity71-80.sol\":5841:6448  contract Question78 {... */\n  callvalue\n  dup1\n  iszero\n  tag_3\n  jumpi\n  0x00\n  dup1\n  revert\ntag_3:\n  pop\n  jump(tag_4)\ntag_2:\n  dup3\n  dup1\n  sload\n  dup3\n  dup3\n  sstore\n  swap1\n  0x00\n  mstore\n  keccak256(0x00, 0x20)\n  swap1\n  dup2\n  add\n  swap3\n  dup3\n  iszero\n  tag_5\n  jumpi\n  swap2\n  0x20\n  mul\n  dup3\n  add\ntag_6:\n  dup3\n  dup2\n  gt\n  iszero\n  tag_7\n  jumpi\n  dup3\n  mload\n  dup3\n  swap1\n  0xff\n  and\n  swap1\n  sstore\n  swap2\n  0x20\n  add\n  swap2\n  swap1\n  0x01\n  add\n  swap1\n  jump(tag_6)\ntag_7:\ntag_5:\n  pop\n  swap1\n  pop\n  tag_8\n  swap2\n  swap1\n  tag_9\n  jump\t// in\ntag_8:\n  pop\n  swap1\n  jump\t// out\ntag_9:\ntag_10:\n  dup1\n  dup3\n  gt\n  iszero\n  tag_11\n  jumpi\n  0x00\n  dup2\n  0x00\n  swap1\n  sstore\n  pop\n  0x01\n  add\n  jump(tag_10)\ntag_11:\n  pop\n  swap1\n  jump\t// out\ntag_4:\n  dataSize(sub_0)\n  dup1\n  dataOffset(sub_0)\n  0x00\n  codecopy\n  0x00\n  return\nstop\n\nsub_0: assembly {\n        /* \"Solidity100/Solidity71-80.sol\":5841:6448  contract Question78 {... */\n      mstore(0x40, 0x80)\n      callvalue\n      dup1\n      iszero\n      tag_1\n      jumpi\n      0x00\n      dup1\n      revert\n    tag_1:\n      pop\n      jumpi(tag_2, lt(calldatasize, 0x04))\n      shr(0xe0, calldataload(0x00))\n      dup1\n      0xc9181a77\n      eq\n      tag_3\n      jumpi\n    tag_2:\n      0x00\n      dup1\n      revert\n        /* \"Solidity100/Solidity71-80.sol\":6213:6446  function between10and25() public view returns(bool) {... */\n    tag_3:\n      tag_4\n      tag_5\n      jump\t// in\n    tag_4:\n      mload(0x40)\n      tag_6\n      swap2\n      swap1\n      tag_7\n      jump\t// in\n    tag_6:\n      mload(0x40)\n      dup1\n      swap2\n      sub\n      swap1\n      return\n    tag_5:\n        /* \"Solidity100/Solidity71-80.sol\":6259:6263  bool */\n      0x00\n        /* \"Solidity100/Solidity71-80.sol\":6279:6285  uint i */\n      dup1\n        /* \"Solidity100/Solidity71-80.sol\":6286:6287  0 */\n      0x00\n        /* \"Solidity100/Solidity71-80.sol\":6279:6287  uint i=0 */\n      swap1\n      pop\n        /* \"Solidity100/Solidity71-80.sol\":6275:6418  for(uint i=0;i<numbers.length;i++) {... */\n    tag_9:\n        /* \"Solidity100/Solidity71-80.sol\":6290:6297  numbers */\n      0x00\n        /* \"Solidity100/Solidity71-80.sol\":6290:6304  numbers.length */\n      dup1\n      sload\n      swap1\n      pop\n        /* \"Solidity100/Solidity71-80.sol\":6288:6289  i */\n      dup2\n        /* \"Solidity100/Solidity71-80.sol\":6288:6304  i<numbers.length */\n      lt\n        /* \"Solidity100/Solidity71-80.sol\":6275:6418  for(uint i=0;i<numbers.length;i++) {... */\n      iszero\n      tag_10\n      jumpi\n        /* \"Solidity100/Solidity71-80.sol\":6341:6343  10 */\n      0x0a\n        /* \"Solidity100/Solidity71-80.sol\":6327:6334  numbers */\n      0x00\n        /* \"Solidity100/Solidity71-80.sol\":6335:6336  i */\n      dup3\n        /* \"Solidity100/Solidity71-80.sol\":6327:6337  numbers[i] */\n      dup2\n      sload\n      dup2\n      lt\n      tag_12\n      jumpi\n      tag_13\n      tag_14\n      jump\t// in\n    tag_13:\n    tag_12:\n      swap1\n      0x00\n      mstore\n      keccak256(0x00, 0x20)\n      add\n      sload\n        /* \"Solidity100/Solidity71-80.sol\":6327:6343  numbers[i] >= 10 */\n      lt\n      iszero\n        /* \"Solidity100/Solidity71-80.sol\":6327:6362  numbers[i] >= 10 && numbers[i] <=25 */\n      dup1\n      iszero\n      tag_16\n      jumpi\n      pop\n        /* \"Solidity100/Solidity71-80.sol\":6360:6362  25 */\n      0x19\n        /* \"Solidity100/Solidity71-80.sol\":6347:6354  numbers */\n      0x00\n        /* \"Solidity100/Solidity71-80.sol\":6355:6356  i */\n      dup3\n        /* \"Solidity100/Solidity71-80.sol\":6347:6357  numbers[i] */\n      dup2\n      sload\n      dup2\n      lt\n      tag_17\n      jumpi\n      tag_18\n      tag_14\n      jump\t// in\n    tag_18:\n    tag_17:\n      swap1\n      0x00\n      mstore\n      keccak256(0x00, 0x20)\n      add\n      sload\n        /* \"Solidity100/Solidity71-80.sol\":6347:6362  numbers[i] <=25 */\n      gt\n      iszero\n        /* \"Solidity100/Solidity71-80.sol\":6327:6362  numbers[i] >= 10 && numbers[i] <=25 */\n    tag_16:\n        /* \"Solidity100/Solidity71-80.sol\":6324:6408  if(numbers[i] >= 10 && numbers[i] <=25) {... */\n      iszero\n      tag_20\n      jumpi\n        /* \"Solidity100/Solidity71-80.sol\":6389:6393  true */\n      0x01\n        /* \"Solidity100/Solidity71-80.sol\":6382:6393  return true */\n      swap2\n      pop\n      pop\n      jump(tag_8)\n        /* \"Solidity100/Solidity71-80.sol\":6324:6408  if(numbers[i] >= 10 && numbers[i] <=25) {... */\n    tag_20:\n        /* \"Solidity100/Solidity71-80.sol\":6305:6308  i++ */\n      dup1\n      dup1\n      0x01\n      add\n      swap2\n      pop\n      pop\n        /* \"Solidity100/Solidity71-80.sol\":6275:6418  for(uint i=0;i<numbers.length;i++) {... */\n      jump(tag_9)\n    tag_10:\n      pop\n        /* \"Solidity100/Solidity71-80.sol\":6434:6439  false */\n      0x00\n        /* \"Solidity100/Solidity71-80.sol\":6427:6439  return false */\n      swap1\n      pop\n        /* \"Solidity100/Solidity71-80.sol\":6213:6446  function between10and25() public view returns(bool) {... */\n    tag_8:\n      swap1\n      jump\t// out\n        /* \"#utility.yul\":7:97   */\n    tag_21:\n        /* \"#utility.yul\":41:48   */\n      0x00\n        /* \"#utility.yul\":84:89   */\n      dup2\n        /* \"#utility.yul\":77:90   */\n      iszero\n        /* \"#utility.yul\":70:91   */\n      iszero\n        /* \"#utility.yul\":59:91   */\n      swap1\n      pop\n        /* \"#utility.yul\":7:97   */\n      swap2\n      swap1\n      pop\n      jump\t// out\n        /* \"#utility.yul\":103:212   */\n    tag_22:\n        /* \"#utility.yul\":184:205   */\n      tag_26\n        /* \"#utility.yul\":199:204   */\n      dup2\n        /* \"#utility.yul\":184:205   */\n      tag_21\n      jump\t// in\n    tag_26:\n        /* \"#utility.yul\":179:182   */\n      dup3\n        /* \"#utility.yul\":172:206   */\n      mstore\n        /* \"#utility.yul\":103:212   */\n      pop\n      pop\n      jump\t// out\n        /* \"#utility.yul\":218:428   */\n    tag_7:\n        /* \"#utility.yul\":305:309   */\n      0x00\n        /* \"#utility.yul\":343:345   */\n      0x20\n        /* \"#utility.yul\":332:341   */\n      dup3\n        /* \"#utility.yul\":328:346   */\n      add\n        /* \"#utility.yul\":320:346   */\n      swap1\n      pop\n        /* \"#utility.yul\":356:421   */\n      tag_28\n        /* \"#utility.yul\":418:419   */\n      0x00\n        /* \"#utility.yul\":407:416   */\n      dup4\n        /* \"#utility.yul\":403:420   */\n      add\n        /* \"#utility.yul\":394:400   */\n      dup5\n        /* \"#utility.yul\":356:421   */\n      tag_22\n      jump\t// in\n    tag_28:\n        /* \"#utility.yul\":218:428   */\n      swap3\n      swap2\n      pop\n      pop\n      jump\t// out\n        /* \"#utility.yul\":434:614   */\n    tag_14:\n        /* \"#utility.yul\":482:559   */\n      0x4e487b7100000000000000000000000000000000000000000000000000000000\n        /* \"#utility.yul\":479:480   */\n      0x00\n        /* \"#utility.yul\":472:560   */\n      mstore\n        /* \"#utility.yul\":579:583   */\n      0x32\n        /* \"#utility.yul\":576:577   */\n      0x04\n        /* \"#utility.yul\":569:584   */\n      mstore\n        /* \"#utility.yul\":603:607   */\n      0x24\n        /* \"#utility.yul\":600:601   */\n      0x00\n        /* \"#utility.yul\":593:608   */\n      revert\n\n    auxdata: 0xa26469706673582212207e660042c08be2914f1a313a6df93f9a4c483969a91bcc3d9ed37902e11c18e564736f6c634300081a0033\n}\n",
				"bytecode": {
					"linkReferences": {},
					"object": "60806040526040518060800160405280600160ff168152602001600260ff168152602001600360ff168152602001600960ff168152505f90600460429291906052565b50348015604d575f80fd5b5060b6565b828054828255905f5260205f20908101928215608e579160200282015b82811115608d578251829060ff16905591602001919060010190606f565b5b50905060999190609d565b5090565b5b8082111560b2575f815f905550600101609e565b5090565b61015f806100c35f395ff3fe608060405234801561000f575f80fd5b5060043610610029575f3560e01c8063c9181a771461002d575b5f80fd5b61003561004b565b60405161004291906100e3565b60405180910390f35b5f805f90505b5f805490508110156100c157600a5f8281548110610072576100716100fc565b5b905f5260205f200154101580156100a5575060195f8281548110610099576100986100fc565b5b905f5260205f20015411155b156100b45760019150506100c6565b8080600101915050610051565b505f90505b90565b5f8115159050919050565b6100dd816100c9565b82525050565b5f6020820190506100f65f8301846100d4565b92915050565b7f4e487b71000000000000000000000000000000000000000000000000000000005f52603260045260245ffdfea26469706673582212207e660042c08be2914f1a313a6df93f9a4c483969a91bcc3d9ed37902e11c18e564736f6c634300081a0033",
					"opcodes": "PUSH1 0x80 PUSH1 0x40 MSTORE PUSH1 0x40 MLOAD DUP1 PUSH1 0x80 ADD PUSH1 0x40 MSTORE DUP1 PUSH1 0x1 PUSH1 0xFF AND DUP2 MSTORE PUSH1 0x20 ADD PUSH1 0x2 PUSH1 0xFF AND DUP2 MSTORE PUSH1 0x20 ADD PUSH1 0x3 PUSH1 0xFF AND DUP2 MSTORE PUSH1 0x20 ADD PUSH1 0x9 PUSH1 0xFF AND DUP2 MSTORE POP PUSH0 SWAP1 PUSH1 0x4 PUSH1 0x42 SWAP3 SWAP2 SWAP1 PUSH1 0x52 JUMP JUMPDEST POP CALLVALUE DUP1 ISZERO PUSH1 0x4D JUMPI PUSH0 DUP1 REVERT JUMPDEST POP PUSH1 0xB6 JUMP JUMPDEST DUP3 DUP1 SLOAD DUP3 DUP3 SSTORE SWAP1 PUSH0 MSTORE PUSH1 0x20 PUSH0 KECCAK256 SWAP1 DUP2 ADD SWAP3 DUP3 ISZERO PUSH1 0x8E JUMPI SWAP2 PUSH1 0x20 MUL DUP3 ADD JUMPDEST DUP3 DUP2 GT ISZERO PUSH1 0x8D JUMPI DUP3 MLOAD DUP3 SWAP1 PUSH1 0xFF AND SWAP1 SSTORE SWAP2 PUSH1 0x20 ADD SWAP2 SWAP1 PUSH1 0x1 ADD SWAP1 PUSH1 0x6F JUMP JUMPDEST JUMPDEST POP SWAP1 POP PUSH1 0x99 SWAP2 SWAP1 PUSH1 0x9D JUMP JUMPDEST POP SWAP1 JUMP JUMPDEST JUMPDEST DUP1 DUP3 GT ISZERO PUSH1 0xB2 JUMPI PUSH0 DUP2 PUSH0 SWAP1 SSTORE POP PUSH1 0x1 ADD PUSH1 0x9E JUMP JUMPDEST POP SWAP1 JUMP JUMPDEST PUSH2 0x15F DUP1 PUSH2 0xC3 PUSH0 CODECOPY PUSH0 RETURN INVALID PUSH1 0x80 PUSH1 0x40 MSTORE CALLVALUE DUP1 ISZERO PUSH2 0xF JUMPI PUSH0 DUP1 REVERT JUMPDEST POP PUSH1 0x4 CALLDATASIZE LT PUSH2 0x29 JUMPI PUSH0 CALLDATALOAD PUSH1 0xE0 SHR DUP1 PUSH4 0xC9181A77 EQ PUSH2 0x2D JUMPI JUMPDEST PUSH0 DUP1 REVERT JUMPDEST PUSH2 0x35 PUSH2 0x4B JUMP JUMPDEST PUSH1 0x40 MLOAD PUSH2 0x42 SWAP2 SWAP1 PUSH2 0xE3 JUMP JUMPDEST PUSH1 0x40 MLOAD DUP1 SWAP2 SUB SWAP1 RETURN JUMPDEST PUSH0 DUP1 PUSH0 SWAP1 POP JUMPDEST PUSH0 DUP1 SLOAD SWAP1 POP DUP2 LT ISZERO PUSH2 0xC1 JUMPI PUSH1 0xA PUSH0 DUP3 DUP2 SLOAD DUP2 LT PUSH2 0x72 JUMPI PUSH2 0x71 PUSH2 0xFC JUMP JUMPDEST JUMPDEST SWAP1 PUSH0 MSTORE PUSH1 0x20 PUSH0 KECCAK256 ADD SLOAD LT ISZERO DUP1 ISZERO PUSH2 0xA5 JUMPI POP PUSH1 0x19 PUSH0 DUP3 DUP2 SLOAD DUP2 LT PUSH2 0x99 JUMPI PUSH2 0x98 PUSH2 0xFC JUMP JUMPDEST JUMPDEST SWAP1 PUSH0 MSTORE PUSH1 0x20 PUSH0 KECCAK256 ADD SLOAD GT ISZERO JUMPDEST ISZERO PUSH2 0xB4 JUMPI PUSH1 0x1 SWAP2 POP POP PUSH2 0xC6 JUMP JUMPDEST DUP1 DUP1 PUSH1 0x1 ADD SWAP2 POP POP PUSH2 0x51 JUMP JUMPDEST POP PUSH0 SWAP1 POP JUMPDEST SWAP1 JUMP JUMPDEST PUSH0 DUP2 ISZERO ISZERO SWAP1 POP SWAP2 SWAP1 POP JUMP JUMPDEST PUSH2 0xDD DUP2 PUSH2 0xC9 JUMP JUMPDEST DUP3 MSTORE POP POP JUMP JUMPDEST PUSH0 PUSH1 0x20 DUP3 ADD SWAP1 POP PUSH2 0xF6 PUSH0 DUP4 ADD DUP5 PUSH2 0xD4 JUMP JUMPDEST SWAP3 SWAP2 POP POP JUMP JUMPDEST PUSH32 0x4E487B7100000000000000000000000000000000000000000000000000000000 PUSH0 MSTORE PUSH1 0x32 PUSH1 0x4 MSTORE PUSH1 0x24 PUSH0 REVERT INVALID LOG2 PUSH5 0x6970667358 0x22 SLT KECCAK256 PUSH31 0x660042C08BE2914F1A313A6DF93F9A4C483969A91BCC3D9ED37902E11C18E5 PUSH5 0x736F6C6343 STOP ADDMOD BYTE STOP CALLER "
				},
				"gasEstimates": {
					"creation": {
						"codeDepositCost": "70200",
						"executionCost": "infinite",
						"totalCost": "infinite"
					},
					"external": {
						"between10and25()": "infinite"
					}
				},
				"methodIdentifiers": {
					"between10and25()": "c9181a77"
				}
			},
			"storageLayout": {
				"storage": [
					{
						"astId": 1923,
						"contract": "Solidity100/Solidity71-80.sol:Question78",
						"label": "numbers",
						"offset": 0,
						"slot": "0",
						"type": "t_array(t_uint256)dyn_storage"
					}
				],
				"types": {
					"t_array(t_uint256)dyn_storage": {
						"base": "t_uint256",
						"encoding": "dynamic_array",
						"label": "uint256[]",
						"numberOfBytes": "32"
					},
					"t_uint256": {
						"encoding": "inplace",
						"label": "uint256",
						"numberOfBytes": "32"
					}
				}
			},
			"userdoc": {
				"kind": "user",
				"methods": {},
				"version": 1
			}
		}
	}
}