{
	"Solidity100/Solidity71-80.sol": {
		"Question73": {
			"abi": [
				{
					"inputs": [],
					"stateMutability": "nonpayable",
					"type": "constructor"
				},
				{
					"inputs": [],
					"name": "deposit",
					"outputs": [],
					"stateMutability": "payable",
					"type": "function"
				},
				{
					"inputs": [],
					"name": "getCustomers",
					"outputs": [
						{
							"components": [
								{
									"internalType": "address",
									"name": "addr",
									"type": "address"
								},
								{
									"internalType": "uint256",
									"name": "totalAmount",
									"type": "uint256"
								}
							],
							"internalType": "struct Question73.Customer[]",
							"name": "",
							"type": "tuple[]"
						}
					],
					"stateMutability": "view",
					"type": "function"
				},
				{
					"inputs": [],
					"name": "owner",
					"outputs": [
						{
							"internalType": "address",
							"name": "addr",
							"type": "address"
						},
						{
							"internalType": "uint256",
							"name": "totalAmount",
							"type": "uint256"
						}
					],
					"stateMutability": "view",
					"type": "function"
				},
				{
					"inputs": [
						{
							"internalType": "uint256",
							"name": "_amount",
							"type": "uint256"
						}
					],
					"name": "withdraw",
					"outputs": [],
					"stateMutability": "nonpayable",
					"type": "function"
				}
			],
			"devdoc": {
				"kind": "dev",
				"methods": {},
				"version": 1
			},
			"evm": {
				"assembly": "    /* \"Solidity100/Solidity71-80.sol\":2293:3857  contract Question73 {... */\n  mstore(0x40, 0x80)\n    /* \"Solidity100/Solidity71-80.sol\":2867:2927  constructor () {... */\n  callvalue\n  dup1\n  iszero\n  tag_1\n  jumpi\n  0x00\n  dup1\n  revert\ntag_1:\n  pop\n    /* \"Solidity100/Solidity71-80.sol\":2900:2920  Owner(msg.sender, 0) */\n  mload(0x40)\n  dup1\n  0x40\n  add\n  0x40\n  mstore\n  dup1\n    /* \"Solidity100/Solidity71-80.sol\":2906:2916  msg.sender */\n  caller\n    /* \"Solidity100/Solidity71-80.sol\":2900:2920  Owner(msg.sender, 0) */\n  0xffffffffffffffffffffffffffffffffffffffff\n  and\n  dup2\n  mstore\n  0x20\n  add\n    /* \"Solidity100/Solidity71-80.sol\":2918:2919  0 */\n  0x00\n    /* \"Solidity100/Solidity71-80.sol\":2900:2920  Owner(msg.sender, 0) */\n  dup2\n  mstore\n  pop\n    /* \"Solidity100/Solidity71-80.sol\":2892:2897  owner */\n  0x01\n    /* \"Solidity100/Solidity71-80.sol\":2892:2920  owner = Owner(msg.sender, 0) */\n  0x00\n  dup3\n  add\n  mload\n  dup2\n  0x00\n  add\n  exp(0x0100, 0x00)\n  dup2\n  sload\n  dup2\n  0xffffffffffffffffffffffffffffffffffffffff\n  mul\n  not\n  and\n  swap1\n  dup4\n  0xffffffffffffffffffffffffffffffffffffffff\n  and\n  mul\n  or\n  swap1\n  sstore\n  pop\n  0x20\n  dup3\n  add\n  mload\n  dup2\n  0x01\n  add\n  sstore\n  swap1\n  pop\n  pop\n    /* \"Solidity100/Solidity71-80.sol\":2293:3857  contract Question73 {... */\n  dataSize(sub_0)\n  dup1\n  dataOffset(sub_0)\n  0x00\n  codecopy\n  0x00\n  return\nstop\n\nsub_0: assembly {\n        /* \"Solidity100/Solidity71-80.sol\":2293:3857  contract Question73 {... */\n      mstore(0x40, 0x80)\n      jumpi(tag_1, lt(calldatasize, 0x04))\n      shr(0xe0, calldataload(0x00))\n      dup1\n      0x2e1a7d4d\n      eq\n      tag_2\n      jumpi\n      dup1\n      0x8da5cb5b\n      eq\n      tag_3\n      jumpi\n      dup1\n      0xd0e30db0\n      eq\n      tag_4\n      jumpi\n      dup1\n      0xf1ba7127\n      eq\n      tag_5\n      jumpi\n    tag_1:\n      0x00\n      dup1\n      revert\n        /* \"Solidity100/Solidity71-80.sol\":3702:3853  function withdraw(uint _amount) public {... */\n    tag_2:\n      callvalue\n      dup1\n      iszero\n      tag_6\n      jumpi\n      0x00\n      dup1\n      revert\n    tag_6:\n      pop\n      tag_7\n      0x04\n      dup1\n      calldatasize\n      sub\n      dup2\n      add\n      swap1\n      tag_8\n      swap2\n      swap1\n      tag_9\n      jump\t// in\n    tag_8:\n      tag_10\n      jump\t// in\n    tag_7:\n      stop\n        /* \"Solidity100/Solidity71-80.sol\":2842:2860  Owner public owner */\n    tag_3:\n      callvalue\n      dup1\n      iszero\n      tag_11\n      jumpi\n      0x00\n      dup1\n      revert\n    tag_11:\n      pop\n      tag_12\n      tag_13\n      jump\t// in\n    tag_12:\n      mload(0x40)\n      tag_14\n      swap3\n      swap2\n      swap1\n      tag_15\n      jump\t// in\n    tag_14:\n      mload(0x40)\n      dup1\n      swap2\n      sub\n      swap1\n      return\n        /* \"Solidity100/Solidity71-80.sol\":3035:3696  function deposit() public payable {... */\n    tag_4:\n      tag_16\n      tag_17\n      jump\t// in\n    tag_16:\n      stop\n        /* \"Solidity100/Solidity71-80.sol\":2933:3029  function getCustomers() public view returns(Customer[] memory){ ... */\n    tag_5:\n      callvalue\n      dup1\n      iszero\n      tag_18\n      jumpi\n      0x00\n      dup1\n      revert\n    tag_18:\n      pop\n      tag_19\n      tag_20\n      jump\t// in\n    tag_19:\n      mload(0x40)\n      tag_21\n      swap2\n      swap1\n      tag_22\n      jump\t// in\n    tag_21:\n      mload(0x40)\n      dup1\n      swap2\n      sub\n      swap1\n      return\n        /* \"Solidity100/Solidity71-80.sol\":3702:3853  function withdraw(uint _amount) public {... */\n    tag_10:\n        /* \"Solidity100/Solidity71-80.sol\":3773:3783  msg.sender */\n      caller\n        /* \"Solidity100/Solidity71-80.sol\":3759:3783  owner.addr == msg.sender */\n      0xffffffffffffffffffffffffffffffffffffffff\n      and\n        /* \"Solidity100/Solidity71-80.sol\":3759:3764  owner */\n      0x01\n        /* \"Solidity100/Solidity71-80.sol\":3759:3769  owner.addr */\n      0x00\n      add\n      0x00\n      swap1\n      sload\n      swap1\n      0x0100\n      exp\n      swap1\n      div\n      0xffffffffffffffffffffffffffffffffffffffff\n      and\n        /* \"Solidity100/Solidity71-80.sol\":3759:3783  owner.addr == msg.sender */\n      0xffffffffffffffffffffffffffffffffffffffff\n      and\n      eq\n        /* \"Solidity100/Solidity71-80.sol\":3751:3798  require(owner.addr == msg.sender, \"only owner\") */\n      tag_24\n      jumpi\n      mload(0x40)\n      0x08c379a000000000000000000000000000000000000000000000000000000000\n      dup2\n      mstore\n      0x04\n      add\n      tag_25\n      swap1\n      tag_26\n      jump\t// in\n    tag_25:\n      mload(0x40)\n      dup1\n      swap2\n      sub\n      swap1\n      revert\n    tag_24:\n        /* \"Solidity100/Solidity71-80.sol\":3817:3822  owner */\n      0x01\n        /* \"Solidity100/Solidity71-80.sol\":3817:3827  owner.addr */\n      0x00\n      add\n      0x00\n      swap1\n      sload\n      swap1\n      0x0100\n      exp\n      swap1\n      div\n      0xffffffffffffffffffffffffffffffffffffffff\n      and\n        /* \"Solidity100/Solidity71-80.sol\":3809:3837  payable(owner.addr).transfer */\n      0xffffffffffffffffffffffffffffffffffffffff\n      and\n        /* \"Solidity100/Solidity71-80.sol\":3809:3846  payable(owner.addr).transfer(_amount) */\n      0x08fc\n        /* \"Solidity100/Solidity71-80.sol\":3838:3845  _amount */\n      dup3\n        /* \"Solidity100/Solidity71-80.sol\":3809:3846  payable(owner.addr).transfer(_amount) */\n      swap1\n      dup2\n      iszero\n      mul\n      swap1\n      mload(0x40)\n      0x00\n      mload(0x40)\n      dup1\n      dup4\n      sub\n      dup2\n      dup6\n      dup9\n      dup9\n      call\n      swap4\n      pop\n      pop\n      pop\n      pop\n      iszero\n      dup1\n      iszero\n      tag_28\n      jumpi\n      returndatasize\n      0x00\n      dup1\n      returndatacopy\n      revert(0x00, returndatasize)\n    tag_28:\n      pop\n        /* \"Solidity100/Solidity71-80.sol\":3702:3853  function withdraw(uint _amount) public {... */\n      pop\n      jump\t// out\n        /* \"Solidity100/Solidity71-80.sol\":2842:2860  Owner public owner */\n    tag_13:\n      0x01\n      dup1\n      0x00\n      add\n      0x00\n      swap1\n      sload\n      swap1\n      0x0100\n      exp\n      swap1\n      div\n      0xffffffffffffffffffffffffffffffffffffffff\n      and\n      swap1\n      dup1\n      0x01\n      add\n      sload\n      swap1\n      pop\n      dup3\n      jump\t// out\n        /* \"Solidity100/Solidity71-80.sol\":3035:3696  function deposit() public payable {... */\n    tag_17:\n        /* \"Solidity100/Solidity71-80.sol\":3079:3097  bool alreadyExists */\n      0x00\n        /* \"Solidity100/Solidity71-80.sol\":3111:3117  uint i */\n      dup1\n        /* \"Solidity100/Solidity71-80.sol\":3118:3119  0 */\n      0x00\n        /* \"Solidity100/Solidity71-80.sol\":3111:3119  uint i=0 */\n      swap1\n      pop\n        /* \"Solidity100/Solidity71-80.sol\":3107:3472  for(uint i=0; i<customers.length; i++) {... */\n    tag_30:\n        /* \"Solidity100/Solidity71-80.sol\":3123:3132  customers */\n      0x00\n        /* \"Solidity100/Solidity71-80.sol\":3123:3139  customers.length */\n      dup1\n      sload\n      swap1\n      pop\n        /* \"Solidity100/Solidity71-80.sol\":3121:3122  i */\n      dup2\n        /* \"Solidity100/Solidity71-80.sol\":3121:3139  i<customers.length */\n      lt\n        /* \"Solidity100/Solidity71-80.sol\":3107:3472  for(uint i=0; i<customers.length; i++) {... */\n      iszero\n      tag_31\n      jumpi\n        /* \"Solidity100/Solidity71-80.sol\":3184:3194  msg.sender */\n      caller\n        /* \"Solidity100/Solidity71-80.sol\":3163:3194  customers[i].addr == msg.sender */\n      0xffffffffffffffffffffffffffffffffffffffff\n      and\n        /* \"Solidity100/Solidity71-80.sol\":3163:3172  customers */\n      0x00\n        /* \"Solidity100/Solidity71-80.sol\":3173:3174  i */\n      dup3\n        /* \"Solidity100/Solidity71-80.sol\":3163:3175  customers[i] */\n      dup2\n      sload\n      dup2\n      lt\n      tag_33\n      jumpi\n      tag_34\n      tag_35\n      jump\t// in\n    tag_34:\n    tag_33:\n      swap1\n      0x00\n      mstore\n      keccak256(0x00, 0x20)\n      swap1\n      0x02\n      mul\n      add\n        /* \"Solidity100/Solidity71-80.sol\":3163:3180  customers[i].addr */\n      0x00\n      add\n      0x00\n      swap1\n      sload\n      swap1\n      0x0100\n      exp\n      swap1\n      div\n      0xffffffffffffffffffffffffffffffffffffffff\n      and\n        /* \"Solidity100/Solidity71-80.sol\":3163:3194  customers[i].addr == msg.sender */\n      0xffffffffffffffffffffffffffffffffffffffff\n      and\n      sub\n        /* \"Solidity100/Solidity71-80.sol\":3160:3462  if(customers[i].addr == msg.sender) {... */\n      tag_37\n      jumpi\n        /* \"Solidity100/Solidity71-80.sol\":3242:3251  msg.value */\n      callvalue\n        /* \"Solidity100/Solidity71-80.sol\":3214:3223  customers */\n      0x00\n        /* \"Solidity100/Solidity71-80.sol\":3224:3225  i */\n      dup3\n        /* \"Solidity100/Solidity71-80.sol\":3214:3226  customers[i] */\n      dup2\n      sload\n      dup2\n      lt\n      tag_38\n      jumpi\n      tag_39\n      tag_35\n      jump\t// in\n    tag_39:\n    tag_38:\n      swap1\n      0x00\n      mstore\n      keccak256(0x00, 0x20)\n      swap1\n      0x02\n      mul\n      add\n        /* \"Solidity100/Solidity71-80.sol\":3214:3238  customers[i].totalAmount */\n      0x01\n      add\n      0x00\n        /* \"Solidity100/Solidity71-80.sol\":3214:3251  customers[i].totalAmount += msg.value */\n      dup3\n      dup3\n      sload\n      tag_41\n      swap2\n      swap1\n      tag_42\n      jump\t// in\n    tag_41:\n      swap3\n      pop\n      pop\n      dup2\n      swap1\n      sstore\n      pop\n        /* \"Solidity100/Solidity71-80.sol\":3285:3289  true */\n      0x01\n        /* \"Solidity100/Solidity71-80.sol\":3269:3289  alreadyExists = true */\n      swap2\n      pop\n        /* \"Solidity100/Solidity71-80.sol\":3337:3342  owner */\n      0x01\n        /* \"Solidity100/Solidity71-80.sol\":3337:3354  owner.totalAmount */\n      dup1\n      add\n      sload\n        /* \"Solidity100/Solidity71-80.sol\":3310:3319  customers */\n      0x00\n        /* \"Solidity100/Solidity71-80.sol\":3320:3321  i */\n      dup3\n        /* \"Solidity100/Solidity71-80.sol\":3310:3322  customers[i] */\n      dup2\n      sload\n      dup2\n      lt\n      tag_43\n      jumpi\n      tag_44\n      tag_35\n      jump\t// in\n    tag_44:\n    tag_43:\n      swap1\n      0x00\n      mstore\n      keccak256(0x00, 0x20)\n      swap1\n      0x02\n      mul\n      add\n        /* \"Solidity100/Solidity71-80.sol\":3310:3334  customers[i].totalAmount */\n      0x01\n      add\n      sload\n        /* \"Solidity100/Solidity71-80.sol\":3310:3354  customers[i].totalAmount > owner.totalAmount */\n      gt\n        /* \"Solidity100/Solidity71-80.sol\":3307:3448  if(customers[i].totalAmount > owner.totalAmount) {... */\n      iszero\n      tag_46\n      jumpi\n        /* \"Solidity100/Solidity71-80.sol\":3386:3429  Owner(msg.sender, customers[i].totalAmount) */\n      mload(0x40)\n      dup1\n      0x40\n      add\n      0x40\n      mstore\n      dup1\n        /* \"Solidity100/Solidity71-80.sol\":3392:3402  msg.sender */\n      caller\n        /* \"Solidity100/Solidity71-80.sol\":3386:3429  Owner(msg.sender, customers[i].totalAmount) */\n      0xffffffffffffffffffffffffffffffffffffffff\n      and\n      dup2\n      mstore\n      0x20\n      add\n        /* \"Solidity100/Solidity71-80.sol\":3404:3413  customers */\n      0x00\n        /* \"Solidity100/Solidity71-80.sol\":3414:3415  i */\n      dup4\n        /* \"Solidity100/Solidity71-80.sol\":3404:3416  customers[i] */\n      dup2\n      sload\n      dup2\n      lt\n      tag_47\n      jumpi\n      tag_48\n      tag_35\n      jump\t// in\n    tag_48:\n    tag_47:\n      swap1\n      0x00\n      mstore\n      keccak256(0x00, 0x20)\n      swap1\n      0x02\n      mul\n      add\n        /* \"Solidity100/Solidity71-80.sol\":3404:3428  customers[i].totalAmount */\n      0x01\n      add\n      sload\n        /* \"Solidity100/Solidity71-80.sol\":3386:3429  Owner(msg.sender, customers[i].totalAmount) */\n      dup2\n      mstore\n      pop\n        /* \"Solidity100/Solidity71-80.sol\":3378:3383  owner */\n      0x01\n        /* \"Solidity100/Solidity71-80.sol\":3378:3429  owner = Owner(msg.sender, customers[i].totalAmount) */\n      0x00\n      dup3\n      add\n      mload\n      dup2\n      0x00\n      add\n      exp(0x0100, 0x00)\n      dup2\n      sload\n      dup2\n      0xffffffffffffffffffffffffffffffffffffffff\n      mul\n      not\n      and\n      swap1\n      dup4\n      0xffffffffffffffffffffffffffffffffffffffff\n      and\n      mul\n      or\n      swap1\n      sstore\n      pop\n      0x20\n      dup3\n      add\n      mload\n      dup2\n      0x01\n      add\n      sstore\n      swap1\n      pop\n      pop\n        /* \"Solidity100/Solidity71-80.sol\":3307:3448  if(customers[i].totalAmount > owner.totalAmount) {... */\n    tag_46:\n        /* \"Solidity100/Solidity71-80.sol\":3160:3462  if(customers[i].addr == msg.sender) {... */\n    tag_37:\n        /* \"Solidity100/Solidity71-80.sol\":3141:3144  i++ */\n      dup1\n      dup1\n      0x01\n      add\n      swap2\n      pop\n      pop\n        /* \"Solidity100/Solidity71-80.sol\":3107:3472  for(uint i=0; i<customers.length; i++) {... */\n      jump(tag_30)\n    tag_31:\n      pop\n        /* \"Solidity100/Solidity71-80.sol\":3486:3499  alreadyExists */\n      dup1\n        /* \"Solidity100/Solidity71-80.sol\":3482:3689  if(!alreadyExists) {... */\n      tag_50\n      jumpi\n        /* \"Solidity100/Solidity71-80.sol\":3515:3524  customers */\n      0x00\n        /* \"Solidity100/Solidity71-80.sol\":3530:3561  Customer(msg.sender, msg.value) */\n      mload(0x40)\n      dup1\n      0x40\n      add\n      0x40\n      mstore\n      dup1\n        /* \"Solidity100/Solidity71-80.sol\":3539:3549  msg.sender */\n      caller\n        /* \"Solidity100/Solidity71-80.sol\":3530:3561  Customer(msg.sender, msg.value) */\n      0xffffffffffffffffffffffffffffffffffffffff\n      and\n      dup2\n      mstore\n      0x20\n      add\n        /* \"Solidity100/Solidity71-80.sol\":3551:3560  msg.value */\n      callvalue\n        /* \"Solidity100/Solidity71-80.sol\":3530:3561  Customer(msg.sender, msg.value) */\n      dup2\n      mstore\n      pop\n        /* \"Solidity100/Solidity71-80.sol\":3515:3562  customers.push(Customer(msg.sender, msg.value)) */\n      swap1\n      dup1\n      0x01\n      dup2\n      sload\n      add\n      dup1\n      dup3\n      sstore\n      dup1\n      swap2\n      pop\n      pop\n      0x01\n      swap1\n      sub\n      swap1\n      0x00\n      mstore\n      keccak256(0x00, 0x20)\n      swap1\n      0x02\n      mul\n      add\n      0x00\n      swap1\n      swap2\n      swap1\n      swap2\n      swap1\n      swap2\n      pop\n      0x00\n      dup3\n      add\n      mload\n      dup2\n      0x00\n      add\n      exp(0x0100, 0x00)\n      dup2\n      sload\n      dup2\n      0xffffffffffffffffffffffffffffffffffffffff\n      mul\n      not\n      and\n      swap1\n      dup4\n      0xffffffffffffffffffffffffffffffffffffffff\n      and\n      mul\n      or\n      swap1\n      sstore\n      pop\n      0x20\n      dup3\n      add\n      mload\n      dup2\n      0x01\n      add\n      sstore\n      pop\n      pop\n        /* \"Solidity100/Solidity71-80.sol\":3591:3596  owner */\n      0x01\n        /* \"Solidity100/Solidity71-80.sol\":3591:3608  owner.totalAmount */\n      dup1\n      add\n      sload\n        /* \"Solidity100/Solidity71-80.sol\":3579:3588  msg.value */\n      callvalue\n        /* \"Solidity100/Solidity71-80.sol\":3579:3608  msg.value > owner.totalAmount */\n      gt\n        /* \"Solidity100/Solidity71-80.sol\":3576:3679  if(msg.value > owner.totalAmount) {... */\n      iszero\n      tag_52\n      jumpi\n        /* \"Solidity100/Solidity71-80.sol\":3636:3664  Owner(msg.sender, msg.value) */\n      mload(0x40)\n      dup1\n      0x40\n      add\n      0x40\n      mstore\n      dup1\n        /* \"Solidity100/Solidity71-80.sol\":3642:3652  msg.sender */\n      caller\n        /* \"Solidity100/Solidity71-80.sol\":3636:3664  Owner(msg.sender, msg.value) */\n      0xffffffffffffffffffffffffffffffffffffffff\n      and\n      dup2\n      mstore\n      0x20\n      add\n        /* \"Solidity100/Solidity71-80.sol\":3654:3663  msg.value */\n      callvalue\n        /* \"Solidity100/Solidity71-80.sol\":3636:3664  Owner(msg.sender, msg.value) */\n      dup2\n      mstore\n      pop\n        /* \"Solidity100/Solidity71-80.sol\":3628:3633  owner */\n      0x01\n        /* \"Solidity100/Solidity71-80.sol\":3628:3664  owner = Owner(msg.sender, msg.value) */\n      0x00\n      dup3\n      add\n      mload\n      dup2\n      0x00\n      add\n      exp(0x0100, 0x00)\n      dup2\n      sload\n      dup2\n      0xffffffffffffffffffffffffffffffffffffffff\n      mul\n      not\n      and\n      swap1\n      dup4\n      0xffffffffffffffffffffffffffffffffffffffff\n      and\n      mul\n      or\n      swap1\n      sstore\n      pop\n      0x20\n      dup3\n      add\n      mload\n      dup2\n      0x01\n      add\n      sstore\n      swap1\n      pop\n      pop\n        /* \"Solidity100/Solidity71-80.sol\":3576:3679  if(msg.value > owner.totalAmount) {... */\n    tag_52:\n        /* \"Solidity100/Solidity71-80.sol\":3482:3689  if(!alreadyExists) {... */\n    tag_50:\n        /* \"Solidity100/Solidity71-80.sol\":3069:3696  {... */\n      pop\n        /* \"Solidity100/Solidity71-80.sol\":3035:3696  function deposit() public payable {... */\n      jump\t// out\n        /* \"Solidity100/Solidity71-80.sol\":2933:3029  function getCustomers() public view returns(Customer[] memory){ ... */\n    tag_20:\n        /* \"Solidity100/Solidity71-80.sol\":2977:2994  Customer[] memory */\n      0x60\n        /* \"Solidity100/Solidity71-80.sol\":3013:3022  customers */\n      0x00\n        /* \"Solidity100/Solidity71-80.sol\":3006:3022  return customers */\n      dup1\n      sload\n      dup1\n      0x20\n      mul\n      0x20\n      add\n      mload(0x40)\n      swap1\n      dup2\n      add\n      0x40\n      mstore\n      dup1\n      swap3\n      swap2\n      swap1\n      dup2\n      dup2\n      mstore\n      0x20\n      add\n      0x00\n      swap1\n    tag_54:\n      dup3\n      dup3\n      lt\n      iszero\n      tag_55\n      jumpi\n      dup4\n      dup3\n      swap1\n      0x00\n      mstore\n      keccak256(0x00, 0x20)\n      swap1\n      0x02\n      mul\n      add\n      mload(0x40)\n      dup1\n      0x40\n      add\n      0x40\n      mstore\n      swap1\n      dup2\n      0x00\n      dup3\n      add\n      0x00\n      swap1\n      sload\n      swap1\n      0x0100\n      exp\n      swap1\n      div\n      0xffffffffffffffffffffffffffffffffffffffff\n      and\n      0xffffffffffffffffffffffffffffffffffffffff\n      and\n      0xffffffffffffffffffffffffffffffffffffffff\n      and\n      dup2\n      mstore\n      0x20\n      add\n      0x01\n      dup3\n      add\n      sload\n      dup2\n      mstore\n      pop\n      pop\n      dup2\n      mstore\n      0x20\n      add\n      swap1\n      0x01\n      add\n      swap1\n      jump(tag_54)\n    tag_55:\n      pop\n      pop\n      pop\n      pop\n      swap1\n      pop\n        /* \"Solidity100/Solidity71-80.sol\":2933:3029  function getCustomers() public view returns(Customer[] memory){ ... */\n      swap1\n      jump\t// out\n        /* \"#utility.yul\":88:205   */\n    tag_58:\n        /* \"#utility.yul\":197:198   */\n      0x00\n        /* \"#utility.yul\":194:195   */\n      dup1\n        /* \"#utility.yul\":187:199   */\n      revert\n        /* \"#utility.yul\":334:411   */\n    tag_60:\n        /* \"#utility.yul\":371:378   */\n      0x00\n        /* \"#utility.yul\":400:405   */\n      dup2\n        /* \"#utility.yul\":389:405   */\n      swap1\n      pop\n        /* \"#utility.yul\":334:411   */\n      swap2\n      swap1\n      pop\n      jump\t// out\n        /* \"#utility.yul\":417:539   */\n    tag_61:\n        /* \"#utility.yul\":490:514   */\n      tag_86\n        /* \"#utility.yul\":508:513   */\n      dup2\n        /* \"#utility.yul\":490:514   */\n      tag_60\n      jump\t// in\n    tag_86:\n        /* \"#utility.yul\":483:488   */\n      dup2\n        /* \"#utility.yul\":480:515   */\n      eq\n        /* \"#utility.yul\":470:533   */\n      tag_87\n      jumpi\n        /* \"#utility.yul\":529:530   */\n      0x00\n        /* \"#utility.yul\":526:527   */\n      dup1\n        /* \"#utility.yul\":519:531   */\n      revert\n        /* \"#utility.yul\":470:533   */\n    tag_87:\n        /* \"#utility.yul\":417:539   */\n      pop\n      jump\t// out\n        /* \"#utility.yul\":545:684   */\n    tag_62:\n        /* \"#utility.yul\":591:596   */\n      0x00\n        /* \"#utility.yul\":629:635   */\n      dup2\n        /* \"#utility.yul\":616:636   */\n      calldataload\n        /* \"#utility.yul\":607:636   */\n      swap1\n      pop\n        /* \"#utility.yul\":645:678   */\n      tag_89\n        /* \"#utility.yul\":672:677   */\n      dup2\n        /* \"#utility.yul\":645:678   */\n      tag_61\n      jump\t// in\n    tag_89:\n        /* \"#utility.yul\":545:684   */\n      swap3\n      swap2\n      pop\n      pop\n      jump\t// out\n        /* \"#utility.yul\":690:1019   */\n    tag_9:\n        /* \"#utility.yul\":749:755   */\n      0x00\n        /* \"#utility.yul\":798:800   */\n      0x20\n        /* \"#utility.yul\":786:795   */\n      dup3\n        /* \"#utility.yul\":777:784   */\n      dup5\n        /* \"#utility.yul\":773:796   */\n      sub\n        /* \"#utility.yul\":769:801   */\n      slt\n        /* \"#utility.yul\":766:885   */\n      iszero\n      tag_91\n      jumpi\n        /* \"#utility.yul\":804:883   */\n      tag_92\n      tag_58\n      jump\t// in\n    tag_92:\n        /* \"#utility.yul\":766:885   */\n    tag_91:\n        /* \"#utility.yul\":924:925   */\n      0x00\n        /* \"#utility.yul\":949:1002   */\n      tag_93\n        /* \"#utility.yul\":994:1001   */\n      dup5\n        /* \"#utility.yul\":985:991   */\n      dup3\n        /* \"#utility.yul\":974:983   */\n      dup6\n        /* \"#utility.yul\":970:992   */\n      add\n        /* \"#utility.yul\":949:1002   */\n      tag_62\n      jump\t// in\n    tag_93:\n        /* \"#utility.yul\":939:1002   */\n      swap2\n      pop\n        /* \"#utility.yul\":895:1012   */\n      pop\n        /* \"#utility.yul\":690:1019   */\n      swap3\n      swap2\n      pop\n      pop\n      jump\t// out\n        /* \"#utility.yul\":1025:1151   */\n    tag_63:\n        /* \"#utility.yul\":1062:1069   */\n      0x00\n        /* \"#utility.yul\":1102:1144   */\n      0xffffffffffffffffffffffffffffffffffffffff\n        /* \"#utility.yul\":1095:1100   */\n      dup3\n        /* \"#utility.yul\":1091:1145   */\n      and\n        /* \"#utility.yul\":1080:1145   */\n      swap1\n      pop\n        /* \"#utility.yul\":1025:1151   */\n      swap2\n      swap1\n      pop\n      jump\t// out\n        /* \"#utility.yul\":1157:1253   */\n    tag_64:\n        /* \"#utility.yul\":1194:1201   */\n      0x00\n        /* \"#utility.yul\":1223:1247   */\n      tag_96\n        /* \"#utility.yul\":1241:1246   */\n      dup3\n        /* \"#utility.yul\":1223:1247   */\n      tag_63\n      jump\t// in\n    tag_96:\n        /* \"#utility.yul\":1212:1247   */\n      swap1\n      pop\n        /* \"#utility.yul\":1157:1253   */\n      swap2\n      swap1\n      pop\n      jump\t// out\n        /* \"#utility.yul\":1259:1377   */\n    tag_65:\n        /* \"#utility.yul\":1346:1370   */\n      tag_98\n        /* \"#utility.yul\":1364:1369   */\n      dup2\n        /* \"#utility.yul\":1346:1370   */\n      tag_64\n      jump\t// in\n    tag_98:\n        /* \"#utility.yul\":1341:1344   */\n      dup3\n        /* \"#utility.yul\":1334:1371   */\n      mstore\n        /* \"#utility.yul\":1259:1377   */\n      pop\n      pop\n      jump\t// out\n        /* \"#utility.yul\":1383:1501   */\n    tag_66:\n        /* \"#utility.yul\":1470:1494   */\n      tag_100\n        /* \"#utility.yul\":1488:1493   */\n      dup2\n        /* \"#utility.yul\":1470:1494   */\n      tag_60\n      jump\t// in\n    tag_100:\n        /* \"#utility.yul\":1465:1468   */\n      dup3\n        /* \"#utility.yul\":1458:1495   */\n      mstore\n        /* \"#utility.yul\":1383:1501   */\n      pop\n      pop\n      jump\t// out\n        /* \"#utility.yul\":1507:1839   */\n    tag_15:\n        /* \"#utility.yul\":1628:1632   */\n      0x00\n        /* \"#utility.yul\":1666:1668   */\n      0x40\n        /* \"#utility.yul\":1655:1664   */\n      dup3\n        /* \"#utility.yul\":1651:1669   */\n      add\n        /* \"#utility.yul\":1643:1669   */\n      swap1\n      pop\n        /* \"#utility.yul\":1679:1750   */\n      tag_102\n        /* \"#utility.yul\":1747:1748   */\n      0x00\n        /* \"#utility.yul\":1736:1745   */\n      dup4\n        /* \"#utility.yul\":1732:1749   */\n      add\n        /* \"#utility.yul\":1723:1729   */\n      dup6\n        /* \"#utility.yul\":1679:1750   */\n      tag_65\n      jump\t// in\n    tag_102:\n        /* \"#utility.yul\":1760:1832   */\n      tag_103\n        /* \"#utility.yul\":1828:1830   */\n      0x20\n        /* \"#utility.yul\":1817:1826   */\n      dup4\n        /* \"#utility.yul\":1813:1831   */\n      add\n        /* \"#utility.yul\":1804:1810   */\n      dup5\n        /* \"#utility.yul\":1760:1832   */\n      tag_66\n      jump\t// in\n    tag_103:\n        /* \"#utility.yul\":1507:1839   */\n      swap4\n      swap3\n      pop\n      pop\n      pop\n      jump\t// out\n        /* \"#utility.yul\":1845:1985   */\n    tag_67:\n        /* \"#utility.yul\":1938:1944   */\n      0x00\n        /* \"#utility.yul\":1972:1977   */\n      dup2\n        /* \"#utility.yul\":1966:1978   */\n      mload\n        /* \"#utility.yul\":1956:1978   */\n      swap1\n      pop\n        /* \"#utility.yul\":1845:1985   */\n      swap2\n      swap1\n      pop\n      jump\t// out\n        /* \"#utility.yul\":1991:2201   */\n    tag_68:\n        /* \"#utility.yul\":2116:2127   */\n      0x00\n        /* \"#utility.yul\":2150:2156   */\n      dup3\n        /* \"#utility.yul\":2145:2148   */\n      dup3\n        /* \"#utility.yul\":2138:2157   */\n      mstore\n        /* \"#utility.yul\":2190:2194   */\n      0x20\n        /* \"#utility.yul\":2185:2188   */\n      dup3\n        /* \"#utility.yul\":2181:2195   */\n      add\n        /* \"#utility.yul\":2166:2195   */\n      swap1\n      pop\n        /* \"#utility.yul\":1991:2201   */\n      swap3\n      swap2\n      pop\n      pop\n      jump\t// out\n        /* \"#utility.yul\":2207:2365   */\n    tag_69:\n        /* \"#utility.yul\":2300:2304   */\n      0x00\n        /* \"#utility.yul\":2323:2326   */\n      dup2\n        /* \"#utility.yul\":2315:2326   */\n      swap1\n      pop\n        /* \"#utility.yul\":2353:2357   */\n      0x20\n        /* \"#utility.yul\":2348:2351   */\n      dup3\n        /* \"#utility.yul\":2344:2358   */\n      add\n        /* \"#utility.yul\":2336:2358   */\n      swap1\n      pop\n        /* \"#utility.yul\":2207:2365   */\n      swap2\n      swap1\n      pop\n      jump\t// out\n        /* \"#utility.yul\":2371:2479   */\n    tag_70:\n        /* \"#utility.yul\":2448:2472   */\n      tag_108\n        /* \"#utility.yul\":2466:2471   */\n      dup2\n        /* \"#utility.yul\":2448:2472   */\n      tag_64\n      jump\t// in\n    tag_108:\n        /* \"#utility.yul\":2443:2446   */\n      dup3\n        /* \"#utility.yul\":2436:2473   */\n      mstore\n        /* \"#utility.yul\":2371:2479   */\n      pop\n      pop\n      jump\t// out\n        /* \"#utility.yul\":2485:2593   */\n    tag_71:\n        /* \"#utility.yul\":2562:2586   */\n      tag_110\n        /* \"#utility.yul\":2580:2585   */\n      dup2\n        /* \"#utility.yul\":2562:2586   */\n      tag_60\n      jump\t// in\n    tag_110:\n        /* \"#utility.yul\":2557:2560   */\n      dup3\n        /* \"#utility.yul\":2550:2587   */\n      mstore\n        /* \"#utility.yul\":2485:2593   */\n      pop\n      pop\n      jump\t// out\n        /* \"#utility.yul\":2663:3169   */\n    tag_72:\n        /* \"#utility.yul\":2802:2806   */\n      0x40\n        /* \"#utility.yul\":2797:2800   */\n      dup3\n        /* \"#utility.yul\":2793:2807   */\n      add\n        /* \"#utility.yul\":2889:2893   */\n      0x00\n        /* \"#utility.yul\":2882:2887   */\n      dup3\n        /* \"#utility.yul\":2878:2894   */\n      add\n        /* \"#utility.yul\":2872:2895   */\n      mload\n        /* \"#utility.yul\":2908:2971   */\n      tag_112\n        /* \"#utility.yul\":2965:2969   */\n      0x00\n        /* \"#utility.yul\":2960:2963   */\n      dup6\n        /* \"#utility.yul\":2956:2970   */\n      add\n        /* \"#utility.yul\":2942:2954   */\n      dup3\n        /* \"#utility.yul\":2908:2971   */\n      tag_70\n      jump\t// in\n    tag_112:\n        /* \"#utility.yul\":2817:2981   */\n      pop\n        /* \"#utility.yul\":3070:3074   */\n      0x20\n        /* \"#utility.yul\":3063:3068   */\n      dup3\n        /* \"#utility.yul\":3059:3075   */\n      add\n        /* \"#utility.yul\":3053:3076   */\n      mload\n        /* \"#utility.yul\":3089:3152   */\n      tag_113\n        /* \"#utility.yul\":3146:3150   */\n      0x20\n        /* \"#utility.yul\":3141:3144   */\n      dup6\n        /* \"#utility.yul\":3137:3151   */\n      add\n        /* \"#utility.yul\":3123:3135   */\n      dup3\n        /* \"#utility.yul\":3089:3152   */\n      tag_71\n      jump\t// in\n    tag_113:\n        /* \"#utility.yul\":2991:3162   */\n      pop\n        /* \"#utility.yul\":2771:3169   */\n      pop\n        /* \"#utility.yul\":2663:3169   */\n      pop\n      pop\n      jump\t// out\n        /* \"#utility.yul\":3175:3458   */\n    tag_73:\n        /* \"#utility.yul\":3296:3306   */\n      0x00\n        /* \"#utility.yul\":3317:3415   */\n      tag_115\n        /* \"#utility.yul\":3411:3414   */\n      dup4\n        /* \"#utility.yul\":3403:3409   */\n      dup4\n        /* \"#utility.yul\":3317:3415   */\n      tag_72\n      jump\t// in\n    tag_115:\n        /* \"#utility.yul\":3447:3451   */\n      0x40\n        /* \"#utility.yul\":3442:3445   */\n      dup4\n        /* \"#utility.yul\":3438:3452   */\n      add\n        /* \"#utility.yul\":3424:3452   */\n      swap1\n      pop\n        /* \"#utility.yul\":3175:3458   */\n      swap3\n      swap2\n      pop\n      pop\n      jump\t// out\n        /* \"#utility.yul\":3464:3603   */\n    tag_74:\n        /* \"#utility.yul\":3560:3564   */\n      0x00\n        /* \"#utility.yul\":3592:3596   */\n      0x20\n        /* \"#utility.yul\":3587:3590   */\n      dup3\n        /* \"#utility.yul\":3583:3597   */\n      add\n        /* \"#utility.yul\":3575:3597   */\n      swap1\n      pop\n        /* \"#utility.yul\":3464:3603   */\n      swap2\n      swap1\n      pop\n      jump\t// out\n        /* \"#utility.yul\":3677:4617   */\n    tag_75:\n        /* \"#utility.yul\":3848:3851   */\n      0x00\n        /* \"#utility.yul\":3877:3957   */\n      tag_118\n        /* \"#utility.yul\":3951:3956   */\n      dup3\n        /* \"#utility.yul\":3877:3957   */\n      tag_67\n      jump\t// in\n    tag_118:\n        /* \"#utility.yul\":3973:4085   */\n      tag_119\n        /* \"#utility.yul\":4078:4084   */\n      dup2\n        /* \"#utility.yul\":4073:4076   */\n      dup6\n        /* \"#utility.yul\":3973:4085   */\n      tag_68\n      jump\t// in\n    tag_119:\n        /* \"#utility.yul\":3966:4085   */\n      swap4\n      pop\n        /* \"#utility.yul\":4109:4191   */\n      tag_120\n        /* \"#utility.yul\":4185:4190   */\n      dup4\n        /* \"#utility.yul\":4109:4191   */\n      tag_69\n      jump\t// in\n    tag_120:\n        /* \"#utility.yul\":4214:4221   */\n      dup1\n        /* \"#utility.yul\":4245:4246   */\n      0x00\n        /* \"#utility.yul\":4230:4592   */\n    tag_121:\n        /* \"#utility.yul\":4255:4261   */\n      dup4\n        /* \"#utility.yul\":4252:4253   */\n      dup2\n        /* \"#utility.yul\":4249:4262   */\n      lt\n        /* \"#utility.yul\":4230:4592   */\n      iszero\n      tag_123\n      jumpi\n        /* \"#utility.yul\":4331:4337   */\n      dup2\n        /* \"#utility.yul\":4325:4338   */\n      mload\n        /* \"#utility.yul\":4358:4473   */\n      tag_124\n        /* \"#utility.yul\":4469:4472   */\n      dup9\n        /* \"#utility.yul\":4454:4467   */\n      dup3\n        /* \"#utility.yul\":4358:4473   */\n      tag_73\n      jump\t// in\n    tag_124:\n        /* \"#utility.yul\":4351:4473   */\n      swap8\n      pop\n        /* \"#utility.yul\":4496:4582   */\n      tag_125\n        /* \"#utility.yul\":4575:4581   */\n      dup4\n        /* \"#utility.yul\":4496:4582   */\n      tag_74\n      jump\t// in\n    tag_125:\n        /* \"#utility.yul\":4486:4582   */\n      swap3\n      pop\n        /* \"#utility.yul\":4290:4592   */\n      pop\n        /* \"#utility.yul\":4277:4278   */\n      0x01\n        /* \"#utility.yul\":4274:4275   */\n      dup2\n        /* \"#utility.yul\":4270:4279   */\n      add\n        /* \"#utility.yul\":4265:4279   */\n      swap1\n      pop\n        /* \"#utility.yul\":4230:4592   */\n      jump(tag_121)\n    tag_123:\n        /* \"#utility.yul\":4234:4248   */\n      pop\n        /* \"#utility.yul\":4608:4611   */\n      dup6\n        /* \"#utility.yul\":4601:4611   */\n      swap4\n      pop\n        /* \"#utility.yul\":3853:4617   */\n      pop\n      pop\n      pop\n        /* \"#utility.yul\":3677:4617   */\n      swap3\n      swap2\n      pop\n      pop\n      jump\t// out\n        /* \"#utility.yul\":4623:5100   */\n    tag_22:\n        /* \"#utility.yul\":4818:4822   */\n      0x00\n        /* \"#utility.yul\":4856:4858   */\n      0x20\n        /* \"#utility.yul\":4845:4854   */\n      dup3\n        /* \"#utility.yul\":4841:4859   */\n      add\n        /* \"#utility.yul\":4833:4859   */\n      swap1\n      pop\n        /* \"#utility.yul\":4905:4914   */\n      dup2\n        /* \"#utility.yul\":4899:4903   */\n      dup2\n        /* \"#utility.yul\":4895:4915   */\n      sub\n        /* \"#utility.yul\":4891:4892   */\n      0x00\n        /* \"#utility.yul\":4880:4889   */\n      dup4\n        /* \"#utility.yul\":4876:4893   */\n      add\n        /* \"#utility.yul\":4869:4916   */\n      mstore\n        /* \"#utility.yul\":4933:5093   */\n      tag_127\n        /* \"#utility.yul\":5088:5092   */\n      dup2\n        /* \"#utility.yul\":5079:5085   */\n      dup5\n        /* \"#utility.yul\":4933:5093   */\n      tag_75\n      jump\t// in\n    tag_127:\n        /* \"#utility.yul\":4925:5093   */\n      swap1\n      pop\n        /* \"#utility.yul\":4623:5100   */\n      swap3\n      swap2\n      pop\n      pop\n      jump\t// out\n        /* \"#utility.yul\":5106:5275   */\n    tag_76:\n        /* \"#utility.yul\":5190:5201   */\n      0x00\n        /* \"#utility.yul\":5224:5230   */\n      dup3\n        /* \"#utility.yul\":5219:5222   */\n      dup3\n        /* \"#utility.yul\":5212:5231   */\n      mstore\n        /* \"#utility.yul\":5264:5268   */\n      0x20\n        /* \"#utility.yul\":5259:5262   */\n      dup3\n        /* \"#utility.yul\":5255:5269   */\n      add\n        /* \"#utility.yul\":5240:5269   */\n      swap1\n      pop\n        /* \"#utility.yul\":5106:5275   */\n      swap3\n      swap2\n      pop\n      pop\n      jump\t// out\n        /* \"#utility.yul\":5281:5441   */\n    tag_77:\n        /* \"#utility.yul\":5421:5433   */\n      0x6f6e6c79206f776e657200000000000000000000000000000000000000000000\n        /* \"#utility.yul\":5417:5418   */\n      0x00\n        /* \"#utility.yul\":5409:5415   */\n      dup3\n        /* \"#utility.yul\":5405:5419   */\n      add\n        /* \"#utility.yul\":5398:5434   */\n      mstore\n        /* \"#utility.yul\":5281:5441   */\n      pop\n      jump\t// out\n        /* \"#utility.yul\":5447:5813   */\n    tag_78:\n        /* \"#utility.yul\":5589:5592   */\n      0x00\n        /* \"#utility.yul\":5610:5677   */\n      tag_131\n        /* \"#utility.yul\":5674:5676   */\n      0x0a\n        /* \"#utility.yul\":5669:5672   */\n      dup4\n        /* \"#utility.yul\":5610:5677   */\n      tag_76\n      jump\t// in\n    tag_131:\n        /* \"#utility.yul\":5603:5677   */\n      swap2\n      pop\n        /* \"#utility.yul\":5686:5779   */\n      tag_132\n        /* \"#utility.yul\":5775:5778   */\n      dup3\n        /* \"#utility.yul\":5686:5779   */\n      tag_77\n      jump\t// in\n    tag_132:\n        /* \"#utility.yul\":5804:5806   */\n      0x20\n        /* \"#utility.yul\":5799:5802   */\n      dup3\n        /* \"#utility.yul\":5795:5807   */\n      add\n        /* \"#utility.yul\":5788:5807   */\n      swap1\n      pop\n        /* \"#utility.yul\":5447:5813   */\n      swap2\n      swap1\n      pop\n      jump\t// out\n        /* \"#utility.yul\":5819:6238   */\n    tag_26:\n        /* \"#utility.yul\":5985:5989   */\n      0x00\n        /* \"#utility.yul\":6023:6025   */\n      0x20\n        /* \"#utility.yul\":6012:6021   */\n      dup3\n        /* \"#utility.yul\":6008:6026   */\n      add\n        /* \"#utility.yul\":6000:6026   */\n      swap1\n      pop\n        /* \"#utility.yul\":6072:6081   */\n      dup2\n        /* \"#utility.yul\":6066:6070   */\n      dup2\n        /* \"#utility.yul\":6062:6082   */\n      sub\n        /* \"#utility.yul\":6058:6059   */\n      0x00\n        /* \"#utility.yul\":6047:6056   */\n      dup4\n        /* \"#utility.yul\":6043:6060   */\n      add\n        /* \"#utility.yul\":6036:6083   */\n      mstore\n        /* \"#utility.yul\":6100:6231   */\n      tag_134\n        /* \"#utility.yul\":6226:6230   */\n      dup2\n        /* \"#utility.yul\":6100:6231   */\n      tag_78\n      jump\t// in\n    tag_134:\n        /* \"#utility.yul\":6092:6231   */\n      swap1\n      pop\n        /* \"#utility.yul\":5819:6238   */\n      swap2\n      swap1\n      pop\n      jump\t// out\n        /* \"#utility.yul\":6244:6424   */\n    tag_35:\n        /* \"#utility.yul\":6292:6369   */\n      0x4e487b7100000000000000000000000000000000000000000000000000000000\n        /* \"#utility.yul\":6289:6290   */\n      0x00\n        /* \"#utility.yul\":6282:6370   */\n      mstore\n        /* \"#utility.yul\":6389:6393   */\n      0x32\n        /* \"#utility.yul\":6386:6387   */\n      0x04\n        /* \"#utility.yul\":6379:6394   */\n      mstore\n        /* \"#utility.yul\":6413:6417   */\n      0x24\n        /* \"#utility.yul\":6410:6411   */\n      0x00\n        /* \"#utility.yul\":6403:6418   */\n      revert\n        /* \"#utility.yul\":6430:6610   */\n    tag_79:\n        /* \"#utility.yul\":6478:6555   */\n      0x4e487b7100000000000000000000000000000000000000000000000000000000\n        /* \"#utility.yul\":6475:6476   */\n      0x00\n        /* \"#utility.yul\":6468:6556   */\n      mstore\n        /* \"#utility.yul\":6575:6579   */\n      0x11\n        /* \"#utility.yul\":6572:6573   */\n      0x04\n        /* \"#utility.yul\":6565:6580   */\n      mstore\n        /* \"#utility.yul\":6599:6603   */\n      0x24\n        /* \"#utility.yul\":6596:6597   */\n      0x00\n        /* \"#utility.yul\":6589:6604   */\n      revert\n        /* \"#utility.yul\":6616:6807   */\n    tag_42:\n        /* \"#utility.yul\":6656:6659   */\n      0x00\n        /* \"#utility.yul\":6675:6695   */\n      tag_138\n        /* \"#utility.yul\":6693:6694   */\n      dup3\n        /* \"#utility.yul\":6675:6695   */\n      tag_60\n      jump\t// in\n    tag_138:\n        /* \"#utility.yul\":6670:6695   */\n      swap2\n      pop\n        /* \"#utility.yul\":6709:6729   */\n      tag_139\n        /* \"#utility.yul\":6727:6728   */\n      dup4\n        /* \"#utility.yul\":6709:6729   */\n      tag_60\n      jump\t// in\n    tag_139:\n        /* \"#utility.yul\":6704:6729   */\n      swap3\n      pop\n        /* \"#utility.yul\":6752:6753   */\n      dup3\n        /* \"#utility.yul\":6749:6750   */\n      dup3\n        /* \"#utility.yul\":6745:6754   */\n      add\n        /* \"#utility.yul\":6738:6754   */\n      swap1\n      pop\n        /* \"#utility.yul\":6773:6776   */\n      dup1\n        /* \"#utility.yul\":6770:6771   */\n      dup3\n        /* \"#utility.yul\":6767:6777   */\n      gt\n        /* \"#utility.yul\":6764:6800   */\n      iszero\n      tag_140\n      jumpi\n        /* \"#utility.yul\":6780:6798   */\n      tag_141\n      tag_79\n      jump\t// in\n    tag_141:\n        /* \"#utility.yul\":6764:6800   */\n    tag_140:\n        /* \"#utility.yul\":6616:6807   */\n      swap3\n      swap2\n      pop\n      pop\n      jump\t// out\n\n    auxdata: 0xa2646970667358221220fd72fc202a66530391025246f564581bfb5241bb7ef2ef553f02a2ade118a96964736f6c634300081a0033\n}\n",
				"bytecode": {
					"linkReferences": {},
					"object": "6080604052348015600e575f80fd5b5060405180604001604052803373ffffffffffffffffffffffffffffffffffffffff1681526020015f81525060015f820151815f015f6101000a81548173ffffffffffffffffffffffffffffffffffffffff021916908373ffffffffffffffffffffffffffffffffffffffff160217905550602082015181600101559050506108a78061009a5f395ff3fe60806040526004361061003e575f3560e01c80632e1a7d4d146100425780638da5cb5b1461006a578063d0e30db014610095578063f1ba71271461009f575b5f80fd5b34801561004d575f80fd5b50610068600480360381019061006391906105b9565b6100c9565b005b348015610075575f80fd5b5061007e6101c4565b60405161008c929190610632565b60405180910390f35b61009d6101f4565b005b3480156100aa575f80fd5b506100b36104c9565b6040516100c0919061074c565b60405180910390f35b3373ffffffffffffffffffffffffffffffffffffffff1660015f015f9054906101000a900473ffffffffffffffffffffffffffffffffffffffff1673ffffffffffffffffffffffffffffffffffffffff161461015a576040517f08c379a0000000000000000000000000000000000000000000000000000000008152600401610151906107c6565b60405180910390fd5b60015f015f9054906101000a900473ffffffffffffffffffffffffffffffffffffffff1673ffffffffffffffffffffffffffffffffffffffff166108fc8290811502906040515f60405180830381858888f193505050501580156101c0573d5f803e3d5ffd5b5050565b6001805f015f9054906101000a900473ffffffffffffffffffffffffffffffffffffffff16908060010154905082565b5f805f90505b5f80549050811015610392573373ffffffffffffffffffffffffffffffffffffffff165f82815481106102305761022f6107e4565b5b905f5260205f2090600202015f015f9054906101000a900473ffffffffffffffffffffffffffffffffffffffff1673ffffffffffffffffffffffffffffffffffffffff160361038557345f828154811061028d5761028c6107e4565b5b905f5260205f2090600202016001015f8282546102aa919061083e565b925050819055506001915060018001545f82815481106102cd576102cc6107e4565b5b905f5260205f2090600202016001015411156103845760405180604001604052803373ffffffffffffffffffffffffffffffffffffffff1681526020015f838154811061031d5761031c6107e4565b5b905f5260205f2090600202016001015481525060015f820151815f015f6101000a81548173ffffffffffffffffffffffffffffffffffffffff021916908373ffffffffffffffffffffffffffffffffffffffff160217905550602082015181600101559050505b5b80806001019150506101fa565b50806104c6575f60405180604001604052803373ffffffffffffffffffffffffffffffffffffffff16815260200134815250908060018154018082558091505060019003905f5260205f2090600202015f909190919091505f820151815f015f6101000a81548173ffffffffffffffffffffffffffffffffffffffff021916908373ffffffffffffffffffffffffffffffffffffffff16021790555060208201518160010155505060018001543411156104c55760405180604001604052803373ffffffffffffffffffffffffffffffffffffffff1681526020013481525060015f820151815f015f6101000a81548173ffffffffffffffffffffffffffffffffffffffff021916908373ffffffffffffffffffffffffffffffffffffffff160217905550602082015181600101559050505b5b50565b60605f805480602002602001604051908101604052809291908181526020015f905b82821015610579578382905f5260205f2090600202016040518060400160405290815f82015f9054906101000a900473ffffffffffffffffffffffffffffffffffffffff1673ffffffffffffffffffffffffffffffffffffffff1673ffffffffffffffffffffffffffffffffffffffff168152602001600182015481525050815260200190600101906104eb565b50505050905090565b5f80fd5b5f819050919050565b61059881610586565b81146105a2575f80fd5b50565b5f813590506105b38161058f565b92915050565b5f602082840312156105ce576105cd610582565b5b5f6105db848285016105a5565b91505092915050565b5f73ffffffffffffffffffffffffffffffffffffffff82169050919050565b5f61060d826105e4565b9050919050565b61061d81610603565b82525050565b61062c81610586565b82525050565b5f6040820190506106455f830185610614565b6106526020830184610623565b9392505050565b5f81519050919050565b5f82825260208201905092915050565b5f819050602082019050919050565b61068b81610603565b82525050565b61069a81610586565b82525050565b604082015f8201516106b45f850182610682565b5060208201516106c76020850182610691565b50505050565b5f6106d883836106a0565b60408301905092915050565b5f602082019050919050565b5f6106fa82610659565b6107048185610663565b935061070f83610673565b805f5b8381101561073f57815161072688826106cd565b9750610731836106e4565b925050600181019050610712565b5085935050505092915050565b5f6020820190508181035f83015261076481846106f0565b905092915050565b5f82825260208201905092915050565b7f6f6e6c79206f776e6572000000000000000000000000000000000000000000005f82015250565b5f6107b0600a8361076c565b91506107bb8261077c565b602082019050919050565b5f6020820190508181035f8301526107dd816107a4565b9050919050565b7f4e487b71000000000000000000000000000000000000000000000000000000005f52603260045260245ffd5b7f4e487b71000000000000000000000000000000000000000000000000000000005f52601160045260245ffd5b5f61084882610586565b915061085383610586565b925082820190508082111561086b5761086a610811565b5b9291505056fea2646970667358221220fd72fc202a66530391025246f564581bfb5241bb7ef2ef553f02a2ade118a96964736f6c634300081a0033",
					"opcodes": "PUSH1 0x80 PUSH1 0x40 MSTORE CALLVALUE DUP1 ISZERO PUSH1 0xE JUMPI PUSH0 DUP1 REVERT JUMPDEST POP PUSH1 0x40 MLOAD DUP1 PUSH1 0x40 ADD PUSH1 0x40 MSTORE DUP1 CALLER PUSH20 0xFFFFFFFFFFFFFFFFFFFFFFFFFFFFFFFFFFFFFFFF AND DUP2 MSTORE PUSH1 0x20 ADD PUSH0 DUP2 MSTORE POP PUSH1 0x1 PUSH0 DUP3 ADD MLOAD DUP2 PUSH0 ADD PUSH0 PUSH2 0x100 EXP DUP2 SLOAD DUP2 PUSH20 0xFFFFFFFFFFFFFFFFFFFFFFFFFFFFFFFFFFFFFFFF MUL NOT AND SWAP1 DUP4 PUSH20 0xFFFFFFFFFFFFFFFFFFFFFFFFFFFFFFFFFFFFFFFF AND MUL OR SWAP1 SSTORE POP PUSH1 0x20 DUP3 ADD MLOAD DUP2 PUSH1 0x1 ADD SSTORE SWAP1 POP POP PUSH2 0x8A7 DUP1 PUSH2 0x9A PUSH0 CODECOPY PUSH0 RETURN INVALID PUSH1 0x80 PUSH1 0x40 MSTORE PUSH1 0x4 CALLDATASIZE LT PUSH2 0x3E JUMPI PUSH0 CALLDATALOAD PUSH1 0xE0 SHR DUP1 PUSH4 0x2E1A7D4D EQ PUSH2 0x42 JUMPI DUP1 PUSH4 0x8DA5CB5B EQ PUSH2 0x6A JUMPI DUP1 PUSH4 0xD0E30DB0 EQ PUSH2 0x95 JUMPI DUP1 PUSH4 0xF1BA7127 EQ PUSH2 0x9F JUMPI JUMPDEST PUSH0 DUP1 REVERT JUMPDEST CALLVALUE DUP1 ISZERO PUSH2 0x4D JUMPI PUSH0 DUP1 REVERT JUMPDEST POP PUSH2 0x68 PUSH1 0x4 DUP1 CALLDATASIZE SUB DUP2 ADD SWAP1 PUSH2 0x63 SWAP2 SWAP1 PUSH2 0x5B9 JUMP JUMPDEST PUSH2 0xC9 JUMP JUMPDEST STOP JUMPDEST CALLVALUE DUP1 ISZERO PUSH2 0x75 JUMPI PUSH0 DUP1 REVERT JUMPDEST POP PUSH2 0x7E PUSH2 0x1C4 JUMP JUMPDEST PUSH1 0x40 MLOAD PUSH2 0x8C SWAP3 SWAP2 SWAP1 PUSH2 0x632 JUMP JUMPDEST PUSH1 0x40 MLOAD DUP1 SWAP2 SUB SWAP1 RETURN JUMPDEST PUSH2 0x9D PUSH2 0x1F4 JUMP JUMPDEST STOP JUMPDEST CALLVALUE DUP1 ISZERO PUSH2 0xAA JUMPI PUSH0 DUP1 REVERT JUMPDEST POP PUSH2 0xB3 PUSH2 0x4C9 JUMP JUMPDEST PUSH1 0x40 MLOAD PUSH2 0xC0 SWAP2 SWAP1 PUSH2 0x74C JUMP JUMPDEST PUSH1 0x40 MLOAD DUP1 SWAP2 SUB SWAP1 RETURN JUMPDEST CALLER PUSH20 0xFFFFFFFFFFFFFFFFFFFFFFFFFFFFFFFFFFFFFFFF AND PUSH1 0x1 PUSH0 ADD PUSH0 SWAP1 SLOAD SWAP1 PUSH2 0x100 EXP SWAP1 DIV PUSH20 0xFFFFFFFFFFFFFFFFFFFFFFFFFFFFFFFFFFFFFFFF AND PUSH20 0xFFFFFFFFFFFFFFFFFFFFFFFFFFFFFFFFFFFFFFFF AND EQ PUSH2 0x15A JUMPI PUSH1 0x40 MLOAD PUSH32 0x8C379A000000000000000000000000000000000000000000000000000000000 DUP2 MSTORE PUSH1 0x4 ADD PUSH2 0x151 SWAP1 PUSH2 0x7C6 JUMP JUMPDEST PUSH1 0x40 MLOAD DUP1 SWAP2 SUB SWAP1 REVERT JUMPDEST PUSH1 0x1 PUSH0 ADD PUSH0 SWAP1 SLOAD SWAP1 PUSH2 0x100 EXP SWAP1 DIV PUSH20 0xFFFFFFFFFFFFFFFFFFFFFFFFFFFFFFFFFFFFFFFF AND PUSH20 0xFFFFFFFFFFFFFFFFFFFFFFFFFFFFFFFFFFFFFFFF AND PUSH2 0x8FC DUP3 SWAP1 DUP2 ISZERO MUL SWAP1 PUSH1 0x40 MLOAD PUSH0 PUSH1 0x40 MLOAD DUP1 DUP4 SUB DUP2 DUP6 DUP9 DUP9 CALL SWAP4 POP POP POP POP ISZERO DUP1 ISZERO PUSH2 0x1C0 JUMPI RETURNDATASIZE PUSH0 DUP1 RETURNDATACOPY RETURNDATASIZE PUSH0 REVERT JUMPDEST POP POP JUMP JUMPDEST PUSH1 0x1 DUP1 PUSH0 ADD PUSH0 SWAP1 SLOAD SWAP1 PUSH2 0x100 EXP SWAP1 DIV PUSH20 0xFFFFFFFFFFFFFFFFFFFFFFFFFFFFFFFFFFFFFFFF AND SWAP1 DUP1 PUSH1 0x1 ADD SLOAD SWAP1 POP DUP3 JUMP JUMPDEST PUSH0 DUP1 PUSH0 SWAP1 POP JUMPDEST PUSH0 DUP1 SLOAD SWAP1 POP DUP2 LT ISZERO PUSH2 0x392 JUMPI CALLER PUSH20 0xFFFFFFFFFFFFFFFFFFFFFFFFFFFFFFFFFFFFFFFF AND PUSH0 DUP3 DUP2 SLOAD DUP2 LT PUSH2 0x230 JUMPI PUSH2 0x22F PUSH2 0x7E4 JUMP JUMPDEST JUMPDEST SWAP1 PUSH0 MSTORE PUSH1 0x20 PUSH0 KECCAK256 SWAP1 PUSH1 0x2 MUL ADD PUSH0 ADD PUSH0 SWAP1 SLOAD SWAP1 PUSH2 0x100 EXP SWAP1 DIV PUSH20 0xFFFFFFFFFFFFFFFFFFFFFFFFFFFFFFFFFFFFFFFF AND PUSH20 0xFFFFFFFFFFFFFFFFFFFFFFFFFFFFFFFFFFFFFFFF AND SUB PUSH2 0x385 JUMPI CALLVALUE PUSH0 DUP3 DUP2 SLOAD DUP2 LT PUSH2 0x28D JUMPI PUSH2 0x28C PUSH2 0x7E4 JUMP JUMPDEST JUMPDEST SWAP1 PUSH0 MSTORE PUSH1 0x20 PUSH0 KECCAK256 SWAP1 PUSH1 0x2 MUL ADD PUSH1 0x1 ADD PUSH0 DUP3 DUP3 SLOAD PUSH2 0x2AA SWAP2 SWAP1 PUSH2 0x83E JUMP JUMPDEST SWAP3 POP POP DUP2 SWAP1 SSTORE POP PUSH1 0x1 SWAP2 POP PUSH1 0x1 DUP1 ADD SLOAD PUSH0 DUP3 DUP2 SLOAD DUP2 LT PUSH2 0x2CD JUMPI PUSH2 0x2CC PUSH2 0x7E4 JUMP JUMPDEST JUMPDEST SWAP1 PUSH0 MSTORE PUSH1 0x20 PUSH0 KECCAK256 SWAP1 PUSH1 0x2 MUL ADD PUSH1 0x1 ADD SLOAD GT ISZERO PUSH2 0x384 JUMPI PUSH1 0x40 MLOAD DUP1 PUSH1 0x40 ADD PUSH1 0x40 MSTORE DUP1 CALLER PUSH20 0xFFFFFFFFFFFFFFFFFFFFFFFFFFFFFFFFFFFFFFFF AND DUP2 MSTORE PUSH1 0x20 ADD PUSH0 DUP4 DUP2 SLOAD DUP2 LT PUSH2 0x31D JUMPI PUSH2 0x31C PUSH2 0x7E4 JUMP JUMPDEST JUMPDEST SWAP1 PUSH0 MSTORE PUSH1 0x20 PUSH0 KECCAK256 SWAP1 PUSH1 0x2 MUL ADD PUSH1 0x1 ADD SLOAD DUP2 MSTORE POP PUSH1 0x1 PUSH0 DUP3 ADD MLOAD DUP2 PUSH0 ADD PUSH0 PUSH2 0x100 EXP DUP2 SLOAD DUP2 PUSH20 0xFFFFFFFFFFFFFFFFFFFFFFFFFFFFFFFFFFFFFFFF MUL NOT AND SWAP1 DUP4 PUSH20 0xFFFFFFFFFFFFFFFFFFFFFFFFFFFFFFFFFFFFFFFF AND MUL OR SWAP1 SSTORE POP PUSH1 0x20 DUP3 ADD MLOAD DUP2 PUSH1 0x1 ADD SSTORE SWAP1 POP POP JUMPDEST JUMPDEST DUP1 DUP1 PUSH1 0x1 ADD SWAP2 POP POP PUSH2 0x1FA JUMP JUMPDEST POP DUP1 PUSH2 0x4C6 JUMPI PUSH0 PUSH1 0x40 MLOAD DUP1 PUSH1 0x40 ADD PUSH1 0x40 MSTORE DUP1 CALLER PUSH20 0xFFFFFFFFFFFFFFFFFFFFFFFFFFFFFFFFFFFFFFFF AND DUP2 MSTORE PUSH1 0x20 ADD CALLVALUE DUP2 MSTORE POP SWAP1 DUP1 PUSH1 0x1 DUP2 SLOAD ADD DUP1 DUP3 SSTORE DUP1 SWAP2 POP POP PUSH1 0x1 SWAP1 SUB SWAP1 PUSH0 MSTORE PUSH1 0x20 PUSH0 KECCAK256 SWAP1 PUSH1 0x2 MUL ADD PUSH0 SWAP1 SWAP2 SWAP1 SWAP2 SWAP1 SWAP2 POP PUSH0 DUP3 ADD MLOAD DUP2 PUSH0 ADD PUSH0 PUSH2 0x100 EXP DUP2 SLOAD DUP2 PUSH20 0xFFFFFFFFFFFFFFFFFFFFFFFFFFFFFFFFFFFFFFFF MUL NOT AND SWAP1 DUP4 PUSH20 0xFFFFFFFFFFFFFFFFFFFFFFFFFFFFFFFFFFFFFFFF AND MUL OR SWAP1 SSTORE POP PUSH1 0x20 DUP3 ADD MLOAD DUP2 PUSH1 0x1 ADD SSTORE POP POP PUSH1 0x1 DUP1 ADD SLOAD CALLVALUE GT ISZERO PUSH2 0x4C5 JUMPI PUSH1 0x40 MLOAD DUP1 PUSH1 0x40 ADD PUSH1 0x40 MSTORE DUP1 CALLER PUSH20 0xFFFFFFFFFFFFFFFFFFFFFFFFFFFFFFFFFFFFFFFF AND DUP2 MSTORE PUSH1 0x20 ADD CALLVALUE DUP2 MSTORE POP PUSH1 0x1 PUSH0 DUP3 ADD MLOAD DUP2 PUSH0 ADD PUSH0 PUSH2 0x100 EXP DUP2 SLOAD DUP2 PUSH20 0xFFFFFFFFFFFFFFFFFFFFFFFFFFFFFFFFFFFFFFFF MUL NOT AND SWAP1 DUP4 PUSH20 0xFFFFFFFFFFFFFFFFFFFFFFFFFFFFFFFFFFFFFFFF AND MUL OR SWAP1 SSTORE POP PUSH1 0x20 DUP3 ADD MLOAD DUP2 PUSH1 0x1 ADD SSTORE SWAP1 POP POP JUMPDEST JUMPDEST POP JUMP JUMPDEST PUSH1 0x60 PUSH0 DUP1 SLOAD DUP1 PUSH1 0x20 MUL PUSH1 0x20 ADD PUSH1 0x40 MLOAD SWAP1 DUP2 ADD PUSH1 0x40 MSTORE DUP1 SWAP3 SWAP2 SWAP1 DUP2 DUP2 MSTORE PUSH1 0x20 ADD PUSH0 SWAP1 JUMPDEST DUP3 DUP3 LT ISZERO PUSH2 0x579 JUMPI DUP4 DUP3 SWAP1 PUSH0 MSTORE PUSH1 0x20 PUSH0 KECCAK256 SWAP1 PUSH1 0x2 MUL ADD PUSH1 0x40 MLOAD DUP1 PUSH1 0x40 ADD PUSH1 0x40 MSTORE SWAP1 DUP2 PUSH0 DUP3 ADD PUSH0 SWAP1 SLOAD SWAP1 PUSH2 0x100 EXP SWAP1 DIV PUSH20 0xFFFFFFFFFFFFFFFFFFFFFFFFFFFFFFFFFFFFFFFF AND PUSH20 0xFFFFFFFFFFFFFFFFFFFFFFFFFFFFFFFFFFFFFFFF AND PUSH20 0xFFFFFFFFFFFFFFFFFFFFFFFFFFFFFFFFFFFFFFFF AND DUP2 MSTORE PUSH1 0x20 ADD PUSH1 0x1 DUP3 ADD SLOAD DUP2 MSTORE POP POP DUP2 MSTORE PUSH1 0x20 ADD SWAP1 PUSH1 0x1 ADD SWAP1 PUSH2 0x4EB JUMP JUMPDEST POP POP POP POP SWAP1 POP SWAP1 JUMP JUMPDEST PUSH0 DUP1 REVERT JUMPDEST PUSH0 DUP2 SWAP1 POP SWAP2 SWAP1 POP JUMP JUMPDEST PUSH2 0x598 DUP2 PUSH2 0x586 JUMP JUMPDEST DUP2 EQ PUSH2 0x5A2 JUMPI PUSH0 DUP1 REVERT JUMPDEST POP JUMP JUMPDEST PUSH0 DUP2 CALLDATALOAD SWAP1 POP PUSH2 0x5B3 DUP2 PUSH2 0x58F JUMP JUMPDEST SWAP3 SWAP2 POP POP JUMP JUMPDEST PUSH0 PUSH1 0x20 DUP3 DUP5 SUB SLT ISZERO PUSH2 0x5CE JUMPI PUSH2 0x5CD PUSH2 0x582 JUMP JUMPDEST JUMPDEST PUSH0 PUSH2 0x5DB DUP5 DUP3 DUP6 ADD PUSH2 0x5A5 JUMP JUMPDEST SWAP2 POP POP SWAP3 SWAP2 POP POP JUMP JUMPDEST PUSH0 PUSH20 0xFFFFFFFFFFFFFFFFFFFFFFFFFFFFFFFFFFFFFFFF DUP3 AND SWAP1 POP SWAP2 SWAP1 POP JUMP JUMPDEST PUSH0 PUSH2 0x60D DUP3 PUSH2 0x5E4 JUMP JUMPDEST SWAP1 POP SWAP2 SWAP1 POP JUMP JUMPDEST PUSH2 0x61D DUP2 PUSH2 0x603 JUMP JUMPDEST DUP3 MSTORE POP POP JUMP JUMPDEST PUSH2 0x62C DUP2 PUSH2 0x586 JUMP JUMPDEST DUP3 MSTORE POP POP JUMP JUMPDEST PUSH0 PUSH1 0x40 DUP3 ADD SWAP1 POP PUSH2 0x645 PUSH0 DUP4 ADD DUP6 PUSH2 0x614 JUMP JUMPDEST PUSH2 0x652 PUSH1 0x20 DUP4 ADD DUP5 PUSH2 0x623 JUMP JUMPDEST SWAP4 SWAP3 POP POP POP JUMP JUMPDEST PUSH0 DUP2 MLOAD SWAP1 POP SWAP2 SWAP1 POP JUMP JUMPDEST PUSH0 DUP3 DUP3 MSTORE PUSH1 0x20 DUP3 ADD SWAP1 POP SWAP3 SWAP2 POP POP JUMP JUMPDEST PUSH0 DUP2 SWAP1 POP PUSH1 0x20 DUP3 ADD SWAP1 POP SWAP2 SWAP1 POP JUMP JUMPDEST PUSH2 0x68B DUP2 PUSH2 0x603 JUMP JUMPDEST DUP3 MSTORE POP POP JUMP JUMPDEST PUSH2 0x69A DUP2 PUSH2 0x586 JUMP JUMPDEST DUP3 MSTORE POP POP JUMP JUMPDEST PUSH1 0x40 DUP3 ADD PUSH0 DUP3 ADD MLOAD PUSH2 0x6B4 PUSH0 DUP6 ADD DUP3 PUSH2 0x682 JUMP JUMPDEST POP PUSH1 0x20 DUP3 ADD MLOAD PUSH2 0x6C7 PUSH1 0x20 DUP6 ADD DUP3 PUSH2 0x691 JUMP JUMPDEST POP POP POP POP JUMP JUMPDEST PUSH0 PUSH2 0x6D8 DUP4 DUP4 PUSH2 0x6A0 JUMP JUMPDEST PUSH1 0x40 DUP4 ADD SWAP1 POP SWAP3 SWAP2 POP POP JUMP JUMPDEST PUSH0 PUSH1 0x20 DUP3 ADD SWAP1 POP SWAP2 SWAP1 POP JUMP JUMPDEST PUSH0 PUSH2 0x6FA DUP3 PUSH2 0x659 JUMP JUMPDEST PUSH2 0x704 DUP2 DUP6 PUSH2 0x663 JUMP JUMPDEST SWAP4 POP PUSH2 0x70F DUP4 PUSH2 0x673 JUMP JUMPDEST DUP1 PUSH0 JUMPDEST DUP4 DUP2 LT ISZERO PUSH2 0x73F JUMPI DUP2 MLOAD PUSH2 0x726 DUP9 DUP3 PUSH2 0x6CD JUMP JUMPDEST SWAP8 POP PUSH2 0x731 DUP4 PUSH2 0x6E4 JUMP JUMPDEST SWAP3 POP POP PUSH1 0x1 DUP2 ADD SWAP1 POP PUSH2 0x712 JUMP JUMPDEST POP DUP6 SWAP4 POP POP POP POP SWAP3 SWAP2 POP POP JUMP JUMPDEST PUSH0 PUSH1 0x20 DUP3 ADD SWAP1 POP DUP2 DUP2 SUB PUSH0 DUP4 ADD MSTORE PUSH2 0x764 DUP2 DUP5 PUSH2 0x6F0 JUMP JUMPDEST SWAP1 POP SWAP3 SWAP2 POP POP JUMP JUMPDEST PUSH0 DUP3 DUP3 MSTORE PUSH1 0x20 DUP3 ADD SWAP1 POP SWAP3 SWAP2 POP POP JUMP JUMPDEST PUSH32 0x6F6E6C79206F776E657200000000000000000000000000000000000000000000 PUSH0 DUP3 ADD MSTORE POP JUMP JUMPDEST PUSH0 PUSH2 0x7B0 PUSH1 0xA DUP4 PUSH2 0x76C JUMP JUMPDEST SWAP2 POP PUSH2 0x7BB DUP3 PUSH2 0x77C JUMP JUMPDEST PUSH1 0x20 DUP3 ADD SWAP1 POP SWAP2 SWAP1 POP JUMP JUMPDEST PUSH0 PUSH1 0x20 DUP3 ADD SWAP1 POP DUP2 DUP2 SUB PUSH0 DUP4 ADD MSTORE PUSH2 0x7DD DUP2 PUSH2 0x7A4 JUMP JUMPDEST SWAP1 POP SWAP2 SWAP1 POP JUMP JUMPDEST PUSH32 0x4E487B7100000000000000000000000000000000000000000000000000000000 PUSH0 MSTORE PUSH1 0x32 PUSH1 0x4 MSTORE PUSH1 0x24 PUSH0 REVERT JUMPDEST PUSH32 0x4E487B7100000000000000000000000000000000000000000000000000000000 PUSH0 MSTORE PUSH1 0x11 PUSH1 0x4 MSTORE PUSH1 0x24 PUSH0 REVERT JUMPDEST PUSH0 PUSH2 0x848 DUP3 PUSH2 0x586 JUMP JUMPDEST SWAP2 POP PUSH2 0x853 DUP4 PUSH2 0x586 JUMP JUMPDEST SWAP3 POP DUP3 DUP3 ADD SWAP1 POP DUP1 DUP3 GT ISZERO PUSH2 0x86B JUMPI PUSH2 0x86A PUSH2 0x811 JUMP JUMPDEST JUMPDEST SWAP3 SWAP2 POP POP JUMP INVALID LOG2 PUSH5 0x6970667358 0x22 SLT KECCAK256 REVERT PUSH19 0xFC202A66530391025246F564581BFB5241BB7E CALLCODE 0xEF SSTORE EXTCODEHASH MUL LOG2 0xAD 0xE1 XOR 0xA9 PUSH10 0x64736F6C634300081A00 CALLER "
				},
				"gasEstimates": {
					"creation": {
						"codeDepositCost": "443000",
						"executionCost": "29842",
						"totalCost": "472842"
					},
					"external": {
						"deposit()": "infinite",
						"getCustomers()": "infinite",
						"owner()": "4732",
						"withdraw(uint256)": "infinite"
					}
				},
				"methodIdentifiers": {
					"deposit()": "d0e30db0",
					"getCustomers()": "f1ba7127",
					"owner()": "8da5cb5b",
					"withdraw(uint256)": "2e1a7d4d"
				}
			},
			"storageLayout": {
				"storage": [
					{
						"astId": 1620,
						"contract": "Solidity100/Solidity71-80.sol:Question73",
						"label": "customers",
						"offset": 0,
						"slot": "0",
						"type": "t_array(t_struct(Customer)1611_storage)dyn_storage"
					},
					{
						"astId": 1623,
						"contract": "Solidity100/Solidity71-80.sol:Question73",
						"label": "owner",
						"offset": 0,
						"slot": "1",
						"type": "t_struct(Owner)1616_storage"
					}
				],
				"types": {
					"t_address": {
						"encoding": "inplace",
						"label": "address",
						"numberOfBytes": "20"
					},
					"t_array(t_struct(Customer)1611_storage)dyn_storage": {
						"base": "t_struct(Customer)1611_storage",
						"encoding": "dynamic_array",
						"label": "struct Question73.Customer[]",
						"numberOfBytes": "32"
					},
					"t_struct(Customer)1611_storage": {
						"encoding": "inplace",
						"label": "struct Question73.Customer",
						"members": [
							{
								"astId": 1608,
								"contract": "Solidity100/Solidity71-80.sol:Question73",
								"label": "addr",
								"offset": 0,
								"slot": "0",
								"type": "t_address"
							},
							{
								"astId": 1610,
								"contract": "Solidity100/Solidity71-80.sol:Question73",
								"label": "totalAmount",
								"offset": 0,
								"slot": "1",
								"type": "t_uint256"
							}
						],
						"numberOfBytes": "64"
					},
					"t_struct(Owner)1616_storage": {
						"encoding": "inplace",
						"label": "struct Question73.Owner",
						"members": [
							{
								"astId": 1613,
								"contract": "Solidity100/Solidity71-80.sol:Question73",
								"label": "addr",
								"offset": 0,
								"slot": "0",
								"type": "t_address"
							},
							{
								"astId": 1615,
								"contract": "Solidity100/Solidity71-80.sol:Question73",
								"label": "totalAmount",
								"offset": 0,
								"slot": "1",
								"type": "t_uint256"
							}
						],
						"numberOfBytes": "64"
					},
					"t_uint256": {
						"encoding": "inplace",
						"label": "uint256",
						"numberOfBytes": "32"
					}
				}
			},
			"userdoc": {
				"kind": "user",
				"methods": {},
				"version": 1
			}
		}
	}
}