{
	"Solidity100/Solidity71-80.sol": {
		"Question80": {
			"abi": [
				{
					"inputs": [],
					"name": "getNumbers",
					"outputs": [
						{
							"internalType": "uint256[]",
							"name": "",
							"type": "uint256[]"
						}
					],
					"stateMutability": "view",
					"type": "function"
				},
				{
					"inputs": [],
					"name": "popNumber",
					"outputs": [],
					"stateMutability": "nonpayable",
					"type": "function"
				},
				{
					"inputs": [
						{
							"internalType": "uint256",
							"name": "number",
							"type": "uint256"
						}
					],
					"name": "pushNumber",
					"outputs": [],
					"stateMutability": "nonpayable",
					"type": "function"
				}
			],
			"devdoc": {
				"kind": "dev",
				"methods": {},
				"version": 1
			},
			"evm": {
				"assembly": "    /* \"Solidity100/Solidity71-80.sol\":7807:8810  contract Question80 {... */\n  mstore(0x40, 0x80)\n  callvalue\n  dup1\n  iszero\n  tag_1\n  jumpi\n  0x00\n  dup1\n  revert\ntag_1:\n  pop\n  dataSize(sub_0)\n  dup1\n  dataOffset(sub_0)\n  0x00\n  codecopy\n  0x00\n  return\nstop\n\nsub_0: assembly {\n        /* \"Solidity100/Solidity71-80.sol\":7807:8810  contract Question80 {... */\n      mstore(0x40, 0x80)\n      callvalue\n      dup1\n      iszero\n      tag_1\n      jumpi\n      0x00\n      dup1\n      revert\n    tag_1:\n      pop\n      jumpi(tag_2, lt(calldatasize, 0x04))\n      shr(0xe0, calldataload(0x00))\n      dup1\n      0x2705f37f\n      eq\n      tag_3\n      jumpi\n      dup1\n      0x2bfe1805\n      eq\n      tag_4\n      jumpi\n      dup1\n      0x89f915f6\n      eq\n      tag_5\n      jumpi\n    tag_2:\n      0x00\n      dup1\n      revert\n        /* \"Solidity100/Solidity71-80.sol\":8507:8713  function popNumber() public {... */\n    tag_3:\n      tag_6\n      tag_7\n      jump\t// in\n    tag_6:\n      stop\n        /* \"Solidity100/Solidity71-80.sol\":8424:8501  function pushNumber(uint number) public {... */\n    tag_4:\n      tag_8\n      0x04\n      dup1\n      calldatasize\n      sub\n      dup2\n      add\n      swap1\n      tag_9\n      swap2\n      swap1\n      tag_10\n      jump\t// in\n    tag_9:\n      tag_11\n      jump\t// in\n    tag_8:\n      stop\n        /* \"Solidity100/Solidity71-80.sol\":8719:8808  function getNumbers() public view returns (uint[] memory) {... */\n    tag_5:\n      tag_12\n      tag_13\n      jump\t// in\n    tag_12:\n      mload(0x40)\n      tag_14\n      swap2\n      swap1\n      tag_15\n      jump\t// in\n    tag_14:\n      mload(0x40)\n      dup1\n      swap2\n      sub\n      swap1\n      return\n        /* \"Solidity100/Solidity71-80.sol\":8507:8713  function popNumber() public {... */\n    tag_7:\n        /* \"Solidity100/Solidity71-80.sol\":8570:8571  0 */\n      0x00\n        /* \"Solidity100/Solidity71-80.sol\":8553:8560  numbers */\n      dup1\n        /* \"Solidity100/Solidity71-80.sol\":8553:8567  numbers.length */\n      dup1\n      sload\n      swap1\n      pop\n        /* \"Solidity100/Solidity71-80.sol\":8553:8571  numbers.length > 0 */\n      gt\n        /* \"Solidity100/Solidity71-80.sol\":8545:8583  require(numbers.length > 0, \"no data\") */\n      tag_17\n      jumpi\n      mload(0x40)\n      0x08c379a000000000000000000000000000000000000000000000000000000000\n      dup2\n      mstore\n      0x04\n      add\n      tag_18\n      swap1\n      tag_19\n      jump\t// in\n    tag_18:\n      mload(0x40)\n      dup1\n      swap2\n      sub\n      swap1\n      revert\n    tag_17:\n        /* \"Solidity100/Solidity71-80.sol\":8597:8603  uint i */\n      0x00\n        /* \"Solidity100/Solidity71-80.sol\":8593:8684  for(uint i=0; i<numbers.length - 1; i++) {... */\n    tag_20:\n        /* \"Solidity100/Solidity71-80.sol\":8626:8627  1 */\n      0x01\n        /* \"Solidity100/Solidity71-80.sol\":8609:8616  numbers */\n      0x00\n        /* \"Solidity100/Solidity71-80.sol\":8609:8623  numbers.length */\n      dup1\n      sload\n      swap1\n      pop\n        /* \"Solidity100/Solidity71-80.sol\":8609:8627  numbers.length - 1 */\n      tag_23\n      swap2\n      swap1\n      tag_24\n      jump\t// in\n    tag_23:\n        /* \"Solidity100/Solidity71-80.sol\":8607:8608  i */\n      dup2\n        /* \"Solidity100/Solidity71-80.sol\":8607:8627  i<numbers.length - 1 */\n      lt\n        /* \"Solidity100/Solidity71-80.sol\":8593:8684  for(uint i=0; i<numbers.length - 1; i++) {... */\n      iszero\n      tag_21\n      jumpi\n        /* \"Solidity100/Solidity71-80.sol\":8661:8668  numbers */\n      0x00\n        /* \"Solidity100/Solidity71-80.sol\":8671:8672  1 */\n      0x01\n        /* \"Solidity100/Solidity71-80.sol\":8669:8670  i */\n      dup3\n        /* \"Solidity100/Solidity71-80.sol\":8669:8672  i+1 */\n      tag_25\n      swap2\n      swap1\n      tag_26\n      jump\t// in\n    tag_25:\n        /* \"Solidity100/Solidity71-80.sol\":8661:8673  numbers[i+1] */\n      dup2\n      sload\n      dup2\n      lt\n      tag_27\n      jumpi\n      tag_28\n      tag_29\n      jump\t// in\n    tag_28:\n    tag_27:\n      swap1\n      0x00\n      mstore\n      keccak256(0x00, 0x20)\n      add\n      sload\n        /* \"Solidity100/Solidity71-80.sol\":8648:8655  numbers */\n      0x00\n        /* \"Solidity100/Solidity71-80.sol\":8656:8657  i */\n      dup3\n        /* \"Solidity100/Solidity71-80.sol\":8648:8658  numbers[i] */\n      dup2\n      sload\n      dup2\n      lt\n      tag_31\n      jumpi\n      tag_32\n      tag_29\n      jump\t// in\n    tag_32:\n    tag_31:\n      swap1\n      0x00\n      mstore\n      keccak256(0x00, 0x20)\n      add\n        /* \"Solidity100/Solidity71-80.sol\":8648:8673  numbers[i] = numbers[i+1] */\n      dup2\n      swap1\n      sstore\n      pop\n        /* \"Solidity100/Solidity71-80.sol\":8629:8632  i++ */\n      dup1\n      dup1\n      0x01\n      add\n      swap2\n      pop\n      pop\n        /* \"Solidity100/Solidity71-80.sol\":8593:8684  for(uint i=0; i<numbers.length - 1; i++) {... */\n      jump(tag_20)\n    tag_21:\n      pop\n        /* \"Solidity100/Solidity71-80.sol\":8693:8700  numbers */\n      0x00\n        /* \"Solidity100/Solidity71-80.sol\":8693:8706  numbers.pop() */\n      dup1\n      sload\n      dup1\n      tag_34\n      jumpi\n      tag_35\n      tag_36\n      jump\t// in\n    tag_35:\n    tag_34:\n      0x01\n      swap1\n      sub\n      dup2\n      dup2\n      swap1\n      0x00\n      mstore\n      keccak256(0x00, 0x20)\n      add\n      0x00\n      swap1\n      sstore\n      swap1\n      sstore\n        /* \"Solidity100/Solidity71-80.sol\":8507:8713  function popNumber() public {... */\n      jump\t// out\n        /* \"Solidity100/Solidity71-80.sol\":8424:8501  function pushNumber(uint number) public {... */\n    tag_11:\n        /* \"Solidity100/Solidity71-80.sol\":8474:8481  numbers */\n      0x00\n        /* \"Solidity100/Solidity71-80.sol\":8487:8493  number */\n      dup2\n        /* \"Solidity100/Solidity71-80.sol\":8474:8494  numbers.push(number) */\n      swap1\n      dup1\n      0x01\n      dup2\n      sload\n      add\n      dup1\n      dup3\n      sstore\n      dup1\n      swap2\n      pop\n      pop\n      0x01\n      swap1\n      sub\n      swap1\n      0x00\n      mstore\n      keccak256(0x00, 0x20)\n      add\n      0x00\n      swap1\n      swap2\n      swap1\n      swap2\n      swap1\n      swap2\n      pop\n      sstore\n        /* \"Solidity100/Solidity71-80.sol\":8424:8501  function pushNumber(uint number) public {... */\n      pop\n      jump\t// out\n        /* \"Solidity100/Solidity71-80.sol\":8719:8808  function getNumbers() public view returns (uint[] memory) {... */\n    tag_13:\n        /* \"Solidity100/Solidity71-80.sol\":8762:8775  uint[] memory */\n      0x60\n        /* \"Solidity100/Solidity71-80.sol\":8794:8801  numbers */\n      0x00\n        /* \"Solidity100/Solidity71-80.sol\":8787:8801  return numbers */\n      dup1\n      sload\n      dup1\n      0x20\n      mul\n      0x20\n      add\n      mload(0x40)\n      swap1\n      dup2\n      add\n      0x40\n      mstore\n      dup1\n      swap3\n      swap2\n      swap1\n      dup2\n      dup2\n      mstore\n      0x20\n      add\n      dup3\n      dup1\n      sload\n      dup1\n      iszero\n      tag_41\n      jumpi\n      0x20\n      mul\n      dup3\n      add\n      swap2\n      swap1\n      0x00\n      mstore\n      keccak256(0x00, 0x20)\n      swap1\n    tag_42:\n      dup2\n      sload\n      dup2\n      mstore\n      0x20\n      add\n      swap1\n      0x01\n      add\n      swap1\n      dup1\n      dup4\n      gt\n      tag_42\n      jumpi\n    tag_41:\n      pop\n      pop\n      pop\n      pop\n      pop\n      swap1\n      pop\n        /* \"Solidity100/Solidity71-80.sol\":8719:8808  function getNumbers() public view returns (uint[] memory) {... */\n      swap1\n      jump\t// out\n        /* \"#utility.yul\":88:205   */\n    tag_44:\n        /* \"#utility.yul\":197:198   */\n      0x00\n        /* \"#utility.yul\":194:195   */\n      dup1\n        /* \"#utility.yul\":187:199   */\n      revert\n        /* \"#utility.yul\":334:411   */\n    tag_46:\n        /* \"#utility.yul\":371:378   */\n      0x00\n        /* \"#utility.yul\":400:405   */\n      dup2\n        /* \"#utility.yul\":389:405   */\n      swap1\n      pop\n        /* \"#utility.yul\":334:411   */\n      swap2\n      swap1\n      pop\n      jump\t// out\n        /* \"#utility.yul\":417:539   */\n    tag_47:\n        /* \"#utility.yul\":490:514   */\n      tag_66\n        /* \"#utility.yul\":508:513   */\n      dup2\n        /* \"#utility.yul\":490:514   */\n      tag_46\n      jump\t// in\n    tag_66:\n        /* \"#utility.yul\":483:488   */\n      dup2\n        /* \"#utility.yul\":480:515   */\n      eq\n        /* \"#utility.yul\":470:533   */\n      tag_67\n      jumpi\n        /* \"#utility.yul\":529:530   */\n      0x00\n        /* \"#utility.yul\":526:527   */\n      dup1\n        /* \"#utility.yul\":519:531   */\n      revert\n        /* \"#utility.yul\":470:533   */\n    tag_67:\n        /* \"#utility.yul\":417:539   */\n      pop\n      jump\t// out\n        /* \"#utility.yul\":545:684   */\n    tag_48:\n        /* \"#utility.yul\":591:596   */\n      0x00\n        /* \"#utility.yul\":629:635   */\n      dup2\n        /* \"#utility.yul\":616:636   */\n      calldataload\n        /* \"#utility.yul\":607:636   */\n      swap1\n      pop\n        /* \"#utility.yul\":645:678   */\n      tag_69\n        /* \"#utility.yul\":672:677   */\n      dup2\n        /* \"#utility.yul\":645:678   */\n      tag_47\n      jump\t// in\n    tag_69:\n        /* \"#utility.yul\":545:684   */\n      swap3\n      swap2\n      pop\n      pop\n      jump\t// out\n        /* \"#utility.yul\":690:1019   */\n    tag_10:\n        /* \"#utility.yul\":749:755   */\n      0x00\n        /* \"#utility.yul\":798:800   */\n      0x20\n        /* \"#utility.yul\":786:795   */\n      dup3\n        /* \"#utility.yul\":777:784   */\n      dup5\n        /* \"#utility.yul\":773:796   */\n      sub\n        /* \"#utility.yul\":769:801   */\n      slt\n        /* \"#utility.yul\":766:885   */\n      iszero\n      tag_71\n      jumpi\n        /* \"#utility.yul\":804:883   */\n      tag_72\n      tag_44\n      jump\t// in\n    tag_72:\n        /* \"#utility.yul\":766:885   */\n    tag_71:\n        /* \"#utility.yul\":924:925   */\n      0x00\n        /* \"#utility.yul\":949:1002   */\n      tag_73\n        /* \"#utility.yul\":994:1001   */\n      dup5\n        /* \"#utility.yul\":985:991   */\n      dup3\n        /* \"#utility.yul\":974:983   */\n      dup6\n        /* \"#utility.yul\":970:992   */\n      add\n        /* \"#utility.yul\":949:1002   */\n      tag_48\n      jump\t// in\n    tag_73:\n        /* \"#utility.yul\":939:1002   */\n      swap2\n      pop\n        /* \"#utility.yul\":895:1012   */\n      pop\n        /* \"#utility.yul\":690:1019   */\n      swap3\n      swap2\n      pop\n      pop\n      jump\t// out\n        /* \"#utility.yul\":1025:1139   */\n    tag_49:\n        /* \"#utility.yul\":1092:1098   */\n      0x00\n        /* \"#utility.yul\":1126:1131   */\n      dup2\n        /* \"#utility.yul\":1120:1132   */\n      mload\n        /* \"#utility.yul\":1110:1132   */\n      swap1\n      pop\n        /* \"#utility.yul\":1025:1139   */\n      swap2\n      swap1\n      pop\n      jump\t// out\n        /* \"#utility.yul\":1145:1329   */\n    tag_50:\n        /* \"#utility.yul\":1244:1255   */\n      0x00\n        /* \"#utility.yul\":1278:1284   */\n      dup3\n        /* \"#utility.yul\":1273:1276   */\n      dup3\n        /* \"#utility.yul\":1266:1285   */\n      mstore\n        /* \"#utility.yul\":1318:1322   */\n      0x20\n        /* \"#utility.yul\":1313:1316   */\n      dup3\n        /* \"#utility.yul\":1309:1323   */\n      add\n        /* \"#utility.yul\":1294:1323   */\n      swap1\n      pop\n        /* \"#utility.yul\":1145:1329   */\n      swap3\n      swap2\n      pop\n      pop\n      jump\t// out\n        /* \"#utility.yul\":1335:1467   */\n    tag_51:\n        /* \"#utility.yul\":1402:1406   */\n      0x00\n        /* \"#utility.yul\":1425:1428   */\n      dup2\n        /* \"#utility.yul\":1417:1428   */\n      swap1\n      pop\n        /* \"#utility.yul\":1455:1459   */\n      0x20\n        /* \"#utility.yul\":1450:1453   */\n      dup3\n        /* \"#utility.yul\":1446:1460   */\n      add\n        /* \"#utility.yul\":1438:1460   */\n      swap1\n      pop\n        /* \"#utility.yul\":1335:1467   */\n      swap2\n      swap1\n      pop\n      jump\t// out\n        /* \"#utility.yul\":1473:1581   */\n    tag_52:\n        /* \"#utility.yul\":1550:1574   */\n      tag_78\n        /* \"#utility.yul\":1568:1573   */\n      dup2\n        /* \"#utility.yul\":1550:1574   */\n      tag_46\n      jump\t// in\n    tag_78:\n        /* \"#utility.yul\":1545:1548   */\n      dup3\n        /* \"#utility.yul\":1538:1575   */\n      mstore\n        /* \"#utility.yul\":1473:1581   */\n      pop\n      pop\n      jump\t// out\n        /* \"#utility.yul\":1587:1766   */\n    tag_53:\n        /* \"#utility.yul\":1656:1666   */\n      0x00\n        /* \"#utility.yul\":1677:1723   */\n      tag_80\n        /* \"#utility.yul\":1719:1722   */\n      dup4\n        /* \"#utility.yul\":1711:1717   */\n      dup4\n        /* \"#utility.yul\":1677:1723   */\n      tag_52\n      jump\t// in\n    tag_80:\n        /* \"#utility.yul\":1755:1759   */\n      0x20\n        /* \"#utility.yul\":1750:1753   */\n      dup4\n        /* \"#utility.yul\":1746:1760   */\n      add\n        /* \"#utility.yul\":1732:1760   */\n      swap1\n      pop\n        /* \"#utility.yul\":1587:1766   */\n      swap3\n      swap2\n      pop\n      pop\n      jump\t// out\n        /* \"#utility.yul\":1772:1885   */\n    tag_54:\n        /* \"#utility.yul\":1842:1846   */\n      0x00\n        /* \"#utility.yul\":1874:1878   */\n      0x20\n        /* \"#utility.yul\":1869:1872   */\n      dup3\n        /* \"#utility.yul\":1865:1879   */\n      add\n        /* \"#utility.yul\":1857:1879   */\n      swap1\n      pop\n        /* \"#utility.yul\":1772:1885   */\n      swap2\n      swap1\n      pop\n      jump\t// out\n        /* \"#utility.yul\":1921:2653   */\n    tag_55:\n        /* \"#utility.yul\":2040:2043   */\n      0x00\n        /* \"#utility.yul\":2069:2123   */\n      tag_83\n        /* \"#utility.yul\":2117:2122   */\n      dup3\n        /* \"#utility.yul\":2069:2123   */\n      tag_49\n      jump\t// in\n    tag_83:\n        /* \"#utility.yul\":2139:2225   */\n      tag_84\n        /* \"#utility.yul\":2218:2224   */\n      dup2\n        /* \"#utility.yul\":2213:2216   */\n      dup6\n        /* \"#utility.yul\":2139:2225   */\n      tag_50\n      jump\t// in\n    tag_84:\n        /* \"#utility.yul\":2132:2225   */\n      swap4\n      pop\n        /* \"#utility.yul\":2249:2305   */\n      tag_85\n        /* \"#utility.yul\":2299:2304   */\n      dup4\n        /* \"#utility.yul\":2249:2305   */\n      tag_51\n      jump\t// in\n    tag_85:\n        /* \"#utility.yul\":2328:2335   */\n      dup1\n        /* \"#utility.yul\":2359:2360   */\n      0x00\n        /* \"#utility.yul\":2344:2628   */\n    tag_86:\n        /* \"#utility.yul\":2369:2375   */\n      dup4\n        /* \"#utility.yul\":2366:2367   */\n      dup2\n        /* \"#utility.yul\":2363:2376   */\n      lt\n        /* \"#utility.yul\":2344:2628   */\n      iszero\n      tag_88\n      jumpi\n        /* \"#utility.yul\":2445:2451   */\n      dup2\n        /* \"#utility.yul\":2439:2452   */\n      mload\n        /* \"#utility.yul\":2472:2535   */\n      tag_89\n        /* \"#utility.yul\":2531:2534   */\n      dup9\n        /* \"#utility.yul\":2516:2529   */\n      dup3\n        /* \"#utility.yul\":2472:2535   */\n      tag_53\n      jump\t// in\n    tag_89:\n        /* \"#utility.yul\":2465:2535   */\n      swap8\n      pop\n        /* \"#utility.yul\":2558:2618   */\n      tag_90\n        /* \"#utility.yul\":2611:2617   */\n      dup4\n        /* \"#utility.yul\":2558:2618   */\n      tag_54\n      jump\t// in\n    tag_90:\n        /* \"#utility.yul\":2548:2618   */\n      swap3\n      pop\n        /* \"#utility.yul\":2404:2628   */\n      pop\n        /* \"#utility.yul\":2391:2392   */\n      0x01\n        /* \"#utility.yul\":2388:2389   */\n      dup2\n        /* \"#utility.yul\":2384:2393   */\n      add\n        /* \"#utility.yul\":2379:2393   */\n      swap1\n      pop\n        /* \"#utility.yul\":2344:2628   */\n      jump(tag_86)\n    tag_88:\n        /* \"#utility.yul\":2348:2362   */\n      pop\n        /* \"#utility.yul\":2644:2647   */\n      dup6\n        /* \"#utility.yul\":2637:2647   */\n      swap4\n      pop\n        /* \"#utility.yul\":2045:2653   */\n      pop\n      pop\n      pop\n        /* \"#utility.yul\":1921:2653   */\n      swap3\n      swap2\n      pop\n      pop\n      jump\t// out\n        /* \"#utility.yul\":2659:3032   */\n    tag_15:\n        /* \"#utility.yul\":2802:2806   */\n      0x00\n        /* \"#utility.yul\":2840:2842   */\n      0x20\n        /* \"#utility.yul\":2829:2838   */\n      dup3\n        /* \"#utility.yul\":2825:2843   */\n      add\n        /* \"#utility.yul\":2817:2843   */\n      swap1\n      pop\n        /* \"#utility.yul\":2889:2898   */\n      dup2\n        /* \"#utility.yul\":2883:2887   */\n      dup2\n        /* \"#utility.yul\":2879:2899   */\n      sub\n        /* \"#utility.yul\":2875:2876   */\n      0x00\n        /* \"#utility.yul\":2864:2873   */\n      dup4\n        /* \"#utility.yul\":2860:2877   */\n      add\n        /* \"#utility.yul\":2853:2900   */\n      mstore\n        /* \"#utility.yul\":2917:3025   */\n      tag_92\n        /* \"#utility.yul\":3020:3024   */\n      dup2\n        /* \"#utility.yul\":3011:3017   */\n      dup5\n        /* \"#utility.yul\":2917:3025   */\n      tag_55\n      jump\t// in\n    tag_92:\n        /* \"#utility.yul\":2909:3025   */\n      swap1\n      pop\n        /* \"#utility.yul\":2659:3032   */\n      swap3\n      swap2\n      pop\n      pop\n      jump\t// out\n        /* \"#utility.yul\":3038:3207   */\n    tag_56:\n        /* \"#utility.yul\":3122:3133   */\n      0x00\n        /* \"#utility.yul\":3156:3162   */\n      dup3\n        /* \"#utility.yul\":3151:3154   */\n      dup3\n        /* \"#utility.yul\":3144:3163   */\n      mstore\n        /* \"#utility.yul\":3196:3200   */\n      0x20\n        /* \"#utility.yul\":3191:3194   */\n      dup3\n        /* \"#utility.yul\":3187:3201   */\n      add\n        /* \"#utility.yul\":3172:3201   */\n      swap1\n      pop\n        /* \"#utility.yul\":3038:3207   */\n      swap3\n      swap2\n      pop\n      pop\n      jump\t// out\n        /* \"#utility.yul\":3213:3370   */\n    tag_57:\n        /* \"#utility.yul\":3353:3362   */\n      0x6e6f206461746100000000000000000000000000000000000000000000000000\n        /* \"#utility.yul\":3349:3350   */\n      0x00\n        /* \"#utility.yul\":3341:3347   */\n      dup3\n        /* \"#utility.yul\":3337:3351   */\n      add\n        /* \"#utility.yul\":3330:3363   */\n      mstore\n        /* \"#utility.yul\":3213:3370   */\n      pop\n      jump\t// out\n        /* \"#utility.yul\":3376:3741   */\n    tag_58:\n        /* \"#utility.yul\":3518:3521   */\n      0x00\n        /* \"#utility.yul\":3539:3605   */\n      tag_96\n        /* \"#utility.yul\":3603:3604   */\n      0x07\n        /* \"#utility.yul\":3598:3601   */\n      dup4\n        /* \"#utility.yul\":3539:3605   */\n      tag_56\n      jump\t// in\n    tag_96:\n        /* \"#utility.yul\":3532:3605   */\n      swap2\n      pop\n        /* \"#utility.yul\":3614:3707   */\n      tag_97\n        /* \"#utility.yul\":3703:3706   */\n      dup3\n        /* \"#utility.yul\":3614:3707   */\n      tag_57\n      jump\t// in\n    tag_97:\n        /* \"#utility.yul\":3732:3734   */\n      0x20\n        /* \"#utility.yul\":3727:3730   */\n      dup3\n        /* \"#utility.yul\":3723:3735   */\n      add\n        /* \"#utility.yul\":3716:3735   */\n      swap1\n      pop\n        /* \"#utility.yul\":3376:3741   */\n      swap2\n      swap1\n      pop\n      jump\t// out\n        /* \"#utility.yul\":3747:4166   */\n    tag_19:\n        /* \"#utility.yul\":3913:3917   */\n      0x00\n        /* \"#utility.yul\":3951:3953   */\n      0x20\n        /* \"#utility.yul\":3940:3949   */\n      dup3\n        /* \"#utility.yul\":3936:3954   */\n      add\n        /* \"#utility.yul\":3928:3954   */\n      swap1\n      pop\n        /* \"#utility.yul\":4000:4009   */\n      dup2\n        /* \"#utility.yul\":3994:3998   */\n      dup2\n        /* \"#utility.yul\":3990:4010   */\n      sub\n        /* \"#utility.yul\":3986:3987   */\n      0x00\n        /* \"#utility.yul\":3975:3984   */\n      dup4\n        /* \"#utility.yul\":3971:3988   */\n      add\n        /* \"#utility.yul\":3964:4011   */\n      mstore\n        /* \"#utility.yul\":4028:4159   */\n      tag_99\n        /* \"#utility.yul\":4154:4158   */\n      dup2\n        /* \"#utility.yul\":4028:4159   */\n      tag_58\n      jump\t// in\n    tag_99:\n        /* \"#utility.yul\":4020:4159   */\n      swap1\n      pop\n        /* \"#utility.yul\":3747:4166   */\n      swap2\n      swap1\n      pop\n      jump\t// out\n        /* \"#utility.yul\":4172:4352   */\n    tag_59:\n        /* \"#utility.yul\":4220:4297   */\n      0x4e487b7100000000000000000000000000000000000000000000000000000000\n        /* \"#utility.yul\":4217:4218   */\n      0x00\n        /* \"#utility.yul\":4210:4298   */\n      mstore\n        /* \"#utility.yul\":4317:4321   */\n      0x11\n        /* \"#utility.yul\":4314:4315   */\n      0x04\n        /* \"#utility.yul\":4307:4322   */\n      mstore\n        /* \"#utility.yul\":4341:4345   */\n      0x24\n        /* \"#utility.yul\":4338:4339   */\n      0x00\n        /* \"#utility.yul\":4331:4346   */\n      revert\n        /* \"#utility.yul\":4358:4552   */\n    tag_24:\n        /* \"#utility.yul\":4398:4402   */\n      0x00\n        /* \"#utility.yul\":4418:4438   */\n      tag_102\n        /* \"#utility.yul\":4436:4437   */\n      dup3\n        /* \"#utility.yul\":4418:4438   */\n      tag_46\n      jump\t// in\n    tag_102:\n        /* \"#utility.yul\":4413:4438   */\n      swap2\n      pop\n        /* \"#utility.yul\":4452:4472   */\n      tag_103\n        /* \"#utility.yul\":4470:4471   */\n      dup4\n        /* \"#utility.yul\":4452:4472   */\n      tag_46\n      jump\t// in\n    tag_103:\n        /* \"#utility.yul\":4447:4472   */\n      swap3\n      pop\n        /* \"#utility.yul\":4496:4497   */\n      dup3\n        /* \"#utility.yul\":4493:4494   */\n      dup3\n        /* \"#utility.yul\":4489:4498   */\n      sub\n        /* \"#utility.yul\":4481:4498   */\n      swap1\n      pop\n        /* \"#utility.yul\":4520:4521   */\n      dup2\n        /* \"#utility.yul\":4514:4518   */\n      dup2\n        /* \"#utility.yul\":4511:4522   */\n      gt\n        /* \"#utility.yul\":4508:4545   */\n      iszero\n      tag_104\n      jumpi\n        /* \"#utility.yul\":4525:4543   */\n      tag_105\n      tag_59\n      jump\t// in\n    tag_105:\n        /* \"#utility.yul\":4508:4545   */\n    tag_104:\n        /* \"#utility.yul\":4358:4552   */\n      swap3\n      swap2\n      pop\n      pop\n      jump\t// out\n        /* \"#utility.yul\":4558:4749   */\n    tag_26:\n        /* \"#utility.yul\":4598:4601   */\n      0x00\n        /* \"#utility.yul\":4617:4637   */\n      tag_107\n        /* \"#utility.yul\":4635:4636   */\n      dup3\n        /* \"#utility.yul\":4617:4637   */\n      tag_46\n      jump\t// in\n    tag_107:\n        /* \"#utility.yul\":4612:4637   */\n      swap2\n      pop\n        /* \"#utility.yul\":4651:4671   */\n      tag_108\n        /* \"#utility.yul\":4669:4670   */\n      dup4\n        /* \"#utility.yul\":4651:4671   */\n      tag_46\n      jump\t// in\n    tag_108:\n        /* \"#utility.yul\":4646:4671   */\n      swap3\n      pop\n        /* \"#utility.yul\":4694:4695   */\n      dup3\n        /* \"#utility.yul\":4691:4692   */\n      dup3\n        /* \"#utility.yul\":4687:4696   */\n      add\n        /* \"#utility.yul\":4680:4696   */\n      swap1\n      pop\n        /* \"#utility.yul\":4715:4718   */\n      dup1\n        /* \"#utility.yul\":4712:4713   */\n      dup3\n        /* \"#utility.yul\":4709:4719   */\n      gt\n        /* \"#utility.yul\":4706:4742   */\n      iszero\n      tag_109\n      jumpi\n        /* \"#utility.yul\":4722:4740   */\n      tag_110\n      tag_59\n      jump\t// in\n    tag_110:\n        /* \"#utility.yul\":4706:4742   */\n    tag_109:\n        /* \"#utility.yul\":4558:4749   */\n      swap3\n      swap2\n      pop\n      pop\n      jump\t// out\n        /* \"#utility.yul\":4755:4935   */\n    tag_29:\n        /* \"#utility.yul\":4803:4880   */\n      0x4e487b7100000000000000000000000000000000000000000000000000000000\n        /* \"#utility.yul\":4800:4801   */\n      0x00\n        /* \"#utility.yul\":4793:4881   */\n      mstore\n        /* \"#utility.yul\":4900:4904   */\n      0x32\n        /* \"#utility.yul\":4897:4898   */\n      0x04\n        /* \"#utility.yul\":4890:4905   */\n      mstore\n        /* \"#utility.yul\":4924:4928   */\n      0x24\n        /* \"#utility.yul\":4921:4922   */\n      0x00\n        /* \"#utility.yul\":4914:4929   */\n      revert\n        /* \"#utility.yul\":4941:5121   */\n    tag_36:\n        /* \"#utility.yul\":4989:5066   */\n      0x4e487b7100000000000000000000000000000000000000000000000000000000\n        /* \"#utility.yul\":4986:4987   */\n      0x00\n        /* \"#utility.yul\":4979:5067   */\n      mstore\n        /* \"#utility.yul\":5086:5090   */\n      0x31\n        /* \"#utility.yul\":5083:5084   */\n      0x04\n        /* \"#utility.yul\":5076:5091   */\n      mstore\n        /* \"#utility.yul\":5110:5114   */\n      0x24\n        /* \"#utility.yul\":5107:5108   */\n      0x00\n        /* \"#utility.yul\":5100:5115   */\n      revert\n\n    auxdata: 0xa2646970667358221220e07a6af0911f74fdeffd54cea4cf7c589fb5d3d09bfbb319718661001b4c240f64736f6c634300081a0033\n}\n",
				"bytecode": {
					"linkReferences": {},
					"object": "6080604052348015600e575f80fd5b506104b38061001c5f395ff3fe608060405234801561000f575f80fd5b506004361061003f575f3560e01c80632705f37f146100435780632bfe18051461004d57806389f915f614610069575b5f80fd5b61004b610087565b005b61006760048036038101906100629190610216565b610162565b005b61007161018a565b60405161007e91906102f8565b60405180910390f35b5f8080549050116100cd576040517f08c379a00000000000000000000000000000000000000000000000000000000081526004016100c490610372565b60405180910390fd5b5f5b60015f805490506100e091906103bd565b81101561013b575f6001826100f591906103f0565b8154811061010657610105610423565b5b905f5260205f2001545f828154811061012257610121610423565b5b905f5260205f20018190555080806001019150506100cf565b505f80548061014d5761014c610450565b5b600190038181905f5260205f20015f90559055565b5f81908060018154018082558091505060019003905f5260205f20015f909190919091505550565b60605f8054806020026020016040519081016040528092919081815260200182805480156101d557602002820191905f5260205f20905b8154815260200190600101908083116101c1575b5050505050905090565b5f80fd5b5f819050919050565b6101f5816101e3565b81146101ff575f80fd5b50565b5f81359050610210816101ec565b92915050565b5f6020828403121561022b5761022a6101df565b5b5f61023884828501610202565b91505092915050565b5f81519050919050565b5f82825260208201905092915050565b5f819050602082019050919050565b610273816101e3565b82525050565b5f610284838361026a565b60208301905092915050565b5f602082019050919050565b5f6102a682610241565b6102b0818561024b565b93506102bb8361025b565b805f5b838110156102eb5781516102d28882610279565b97506102dd83610290565b9250506001810190506102be565b5085935050505092915050565b5f6020820190508181035f830152610310818461029c565b905092915050565b5f82825260208201905092915050565b7f6e6f2064617461000000000000000000000000000000000000000000000000005f82015250565b5f61035c600783610318565b915061036782610328565b602082019050919050565b5f6020820190508181035f83015261038981610350565b9050919050565b7f4e487b71000000000000000000000000000000000000000000000000000000005f52601160045260245ffd5b5f6103c7826101e3565b91506103d2836101e3565b92508282039050818111156103ea576103e9610390565b5b92915050565b5f6103fa826101e3565b9150610405836101e3565b925082820190508082111561041d5761041c610390565b5b92915050565b7f4e487b71000000000000000000000000000000000000000000000000000000005f52603260045260245ffd5b7f4e487b71000000000000000000000000000000000000000000000000000000005f52603160045260245ffdfea2646970667358221220e07a6af0911f74fdeffd54cea4cf7c589fb5d3d09bfbb319718661001b4c240f64736f6c634300081a0033",
					"opcodes": "PUSH1 0x80 PUSH1 0x40 MSTORE CALLVALUE DUP1 ISZERO PUSH1 0xE JUMPI PUSH0 DUP1 REVERT JUMPDEST POP PUSH2 0x4B3 DUP1 PUSH2 0x1C PUSH0 CODECOPY PUSH0 RETURN INVALID PUSH1 0x80 PUSH1 0x40 MSTORE CALLVALUE DUP1 ISZERO PUSH2 0xF JUMPI PUSH0 DUP1 REVERT JUMPDEST POP PUSH1 0x4 CALLDATASIZE LT PUSH2 0x3F JUMPI PUSH0 CALLDATALOAD PUSH1 0xE0 SHR DUP1 PUSH4 0x2705F37F EQ PUSH2 0x43 JUMPI DUP1 PUSH4 0x2BFE1805 EQ PUSH2 0x4D JUMPI DUP1 PUSH4 0x89F915F6 EQ PUSH2 0x69 JUMPI JUMPDEST PUSH0 DUP1 REVERT JUMPDEST PUSH2 0x4B PUSH2 0x87 JUMP JUMPDEST STOP JUMPDEST PUSH2 0x67 PUSH1 0x4 DUP1 CALLDATASIZE SUB DUP2 ADD SWAP1 PUSH2 0x62 SWAP2 SWAP1 PUSH2 0x216 JUMP JUMPDEST PUSH2 0x162 JUMP JUMPDEST STOP JUMPDEST PUSH2 0x71 PUSH2 0x18A JUMP JUMPDEST PUSH1 0x40 MLOAD PUSH2 0x7E SWAP2 SWAP1 PUSH2 0x2F8 JUMP JUMPDEST PUSH1 0x40 MLOAD DUP1 SWAP2 SUB SWAP1 RETURN JUMPDEST PUSH0 DUP1 DUP1 SLOAD SWAP1 POP GT PUSH2 0xCD JUMPI PUSH1 0x40 MLOAD PUSH32 0x8C379A000000000000000000000000000000000000000000000000000000000 DUP2 MSTORE PUSH1 0x4 ADD PUSH2 0xC4 SWAP1 PUSH2 0x372 JUMP JUMPDEST PUSH1 0x40 MLOAD DUP1 SWAP2 SUB SWAP1 REVERT JUMPDEST PUSH0 JUMPDEST PUSH1 0x1 PUSH0 DUP1 SLOAD SWAP1 POP PUSH2 0xE0 SWAP2 SWAP1 PUSH2 0x3BD JUMP JUMPDEST DUP2 LT ISZERO PUSH2 0x13B JUMPI PUSH0 PUSH1 0x1 DUP3 PUSH2 0xF5 SWAP2 SWAP1 PUSH2 0x3F0 JUMP JUMPDEST DUP2 SLOAD DUP2 LT PUSH2 0x106 JUMPI PUSH2 0x105 PUSH2 0x423 JUMP JUMPDEST JUMPDEST SWAP1 PUSH0 MSTORE PUSH1 0x20 PUSH0 KECCAK256 ADD SLOAD PUSH0 DUP3 DUP2 SLOAD DUP2 LT PUSH2 0x122 JUMPI PUSH2 0x121 PUSH2 0x423 JUMP JUMPDEST JUMPDEST SWAP1 PUSH0 MSTORE PUSH1 0x20 PUSH0 KECCAK256 ADD DUP2 SWAP1 SSTORE POP DUP1 DUP1 PUSH1 0x1 ADD SWAP2 POP POP PUSH2 0xCF JUMP JUMPDEST POP PUSH0 DUP1 SLOAD DUP1 PUSH2 0x14D JUMPI PUSH2 0x14C PUSH2 0x450 JUMP JUMPDEST JUMPDEST PUSH1 0x1 SWAP1 SUB DUP2 DUP2 SWAP1 PUSH0 MSTORE PUSH1 0x20 PUSH0 KECCAK256 ADD PUSH0 SWAP1 SSTORE SWAP1 SSTORE JUMP JUMPDEST PUSH0 DUP2 SWAP1 DUP1 PUSH1 0x1 DUP2 SLOAD ADD DUP1 DUP3 SSTORE DUP1 SWAP2 POP POP PUSH1 0x1 SWAP1 SUB SWAP1 PUSH0 MSTORE PUSH1 0x20 PUSH0 KECCAK256 ADD PUSH0 SWAP1 SWAP2 SWAP1 SWAP2 SWAP1 SWAP2 POP SSTORE POP JUMP JUMPDEST PUSH1 0x60 PUSH0 DUP1 SLOAD DUP1 PUSH1 0x20 MUL PUSH1 0x20 ADD PUSH1 0x40 MLOAD SWAP1 DUP2 ADD PUSH1 0x40 MSTORE DUP1 SWAP3 SWAP2 SWAP1 DUP2 DUP2 MSTORE PUSH1 0x20 ADD DUP3 DUP1 SLOAD DUP1 ISZERO PUSH2 0x1D5 JUMPI PUSH1 0x20 MUL DUP3 ADD SWAP2 SWAP1 PUSH0 MSTORE PUSH1 0x20 PUSH0 KECCAK256 SWAP1 JUMPDEST DUP2 SLOAD DUP2 MSTORE PUSH1 0x20 ADD SWAP1 PUSH1 0x1 ADD SWAP1 DUP1 DUP4 GT PUSH2 0x1C1 JUMPI JUMPDEST POP POP POP POP POP SWAP1 POP SWAP1 JUMP JUMPDEST PUSH0 DUP1 REVERT JUMPDEST PUSH0 DUP2 SWAP1 POP SWAP2 SWAP1 POP JUMP JUMPDEST PUSH2 0x1F5 DUP2 PUSH2 0x1E3 JUMP JUMPDEST DUP2 EQ PUSH2 0x1FF JUMPI PUSH0 DUP1 REVERT JUMPDEST POP JUMP JUMPDEST PUSH0 DUP2 CALLDATALOAD SWAP1 POP PUSH2 0x210 DUP2 PUSH2 0x1EC JUMP JUMPDEST SWAP3 SWAP2 POP POP JUMP JUMPDEST PUSH0 PUSH1 0x20 DUP3 DUP5 SUB SLT ISZERO PUSH2 0x22B JUMPI PUSH2 0x22A PUSH2 0x1DF JUMP JUMPDEST JUMPDEST PUSH0 PUSH2 0x238 DUP5 DUP3 DUP6 ADD PUSH2 0x202 JUMP JUMPDEST SWAP2 POP POP SWAP3 SWAP2 POP POP JUMP JUMPDEST PUSH0 DUP2 MLOAD SWAP1 POP SWAP2 SWAP1 POP JUMP JUMPDEST PUSH0 DUP3 DUP3 MSTORE PUSH1 0x20 DUP3 ADD SWAP1 POP SWAP3 SWAP2 POP POP JUMP JUMPDEST PUSH0 DUP2 SWAP1 POP PUSH1 0x20 DUP3 ADD SWAP1 POP SWAP2 SWAP1 POP JUMP JUMPDEST PUSH2 0x273 DUP2 PUSH2 0x1E3 JUMP JUMPDEST DUP3 MSTORE POP POP JUMP JUMPDEST PUSH0 PUSH2 0x284 DUP4 DUP4 PUSH2 0x26A JUMP JUMPDEST PUSH1 0x20 DUP4 ADD SWAP1 POP SWAP3 SWAP2 POP POP JUMP JUMPDEST PUSH0 PUSH1 0x20 DUP3 ADD SWAP1 POP SWAP2 SWAP1 POP JUMP JUMPDEST PUSH0 PUSH2 0x2A6 DUP3 PUSH2 0x241 JUMP JUMPDEST PUSH2 0x2B0 DUP2 DUP6 PUSH2 0x24B JUMP JUMPDEST SWAP4 POP PUSH2 0x2BB DUP4 PUSH2 0x25B JUMP JUMPDEST DUP1 PUSH0 JUMPDEST DUP4 DUP2 LT ISZERO PUSH2 0x2EB JUMPI DUP2 MLOAD PUSH2 0x2D2 DUP9 DUP3 PUSH2 0x279 JUMP JUMPDEST SWAP8 POP PUSH2 0x2DD DUP4 PUSH2 0x290 JUMP JUMPDEST SWAP3 POP POP PUSH1 0x1 DUP2 ADD SWAP1 POP PUSH2 0x2BE JUMP JUMPDEST POP DUP6 SWAP4 POP POP POP POP SWAP3 SWAP2 POP POP JUMP JUMPDEST PUSH0 PUSH1 0x20 DUP3 ADD SWAP1 POP DUP2 DUP2 SUB PUSH0 DUP4 ADD MSTORE PUSH2 0x310 DUP2 DUP5 PUSH2 0x29C JUMP JUMPDEST SWAP1 POP SWAP3 SWAP2 POP POP JUMP JUMPDEST PUSH0 DUP3 DUP3 MSTORE PUSH1 0x20 DUP3 ADD SWAP1 POP SWAP3 SWAP2 POP POP JUMP JUMPDEST PUSH32 0x6E6F206461746100000000000000000000000000000000000000000000000000 PUSH0 DUP3 ADD MSTORE POP JUMP JUMPDEST PUSH0 PUSH2 0x35C PUSH1 0x7 DUP4 PUSH2 0x318 JUMP JUMPDEST SWAP2 POP PUSH2 0x367 DUP3 PUSH2 0x328 JUMP JUMPDEST PUSH1 0x20 DUP3 ADD SWAP1 POP SWAP2 SWAP1 POP JUMP JUMPDEST PUSH0 PUSH1 0x20 DUP3 ADD SWAP1 POP DUP2 DUP2 SUB PUSH0 DUP4 ADD MSTORE PUSH2 0x389 DUP2 PUSH2 0x350 JUMP JUMPDEST SWAP1 POP SWAP2 SWAP1 POP JUMP JUMPDEST PUSH32 0x4E487B7100000000000000000000000000000000000000000000000000000000 PUSH0 MSTORE PUSH1 0x11 PUSH1 0x4 MSTORE PUSH1 0x24 PUSH0 REVERT JUMPDEST PUSH0 PUSH2 0x3C7 DUP3 PUSH2 0x1E3 JUMP JUMPDEST SWAP2 POP PUSH2 0x3D2 DUP4 PUSH2 0x1E3 JUMP JUMPDEST SWAP3 POP DUP3 DUP3 SUB SWAP1 POP DUP2 DUP2 GT ISZERO PUSH2 0x3EA JUMPI PUSH2 0x3E9 PUSH2 0x390 JUMP JUMPDEST JUMPDEST SWAP3 SWAP2 POP POP JUMP JUMPDEST PUSH0 PUSH2 0x3FA DUP3 PUSH2 0x1E3 JUMP JUMPDEST SWAP2 POP PUSH2 0x405 DUP4 PUSH2 0x1E3 JUMP JUMPDEST SWAP3 POP DUP3 DUP3 ADD SWAP1 POP DUP1 DUP3 GT ISZERO PUSH2 0x41D JUMPI PUSH2 0x41C PUSH2 0x390 JUMP JUMPDEST JUMPDEST SWAP3 SWAP2 POP POP JUMP JUMPDEST PUSH32 0x4E487B7100000000000000000000000000000000000000000000000000000000 PUSH0 MSTORE PUSH1 0x32 PUSH1 0x4 MSTORE PUSH1 0x24 PUSH0 REVERT JUMPDEST PUSH32 0x4E487B7100000000000000000000000000000000000000000000000000000000 PUSH0 MSTORE PUSH1 0x31 PUSH1 0x4 MSTORE PUSH1 0x24 PUSH0 REVERT INVALID LOG2 PUSH5 0x6970667358 0x22 SLT KECCAK256 0xE0 PUSH27 0x6AF0911F74FDEFFD54CEA4CF7C589FB5D3D09BFBB319718661001B 0x4C 0x24 0xF PUSH5 0x736F6C6343 STOP ADDMOD BYTE STOP CALLER "
				},
				"gasEstimates": {
					"creation": {
						"codeDepositCost": "240600",
						"executionCost": "279",
						"totalCost": "240879"
					},
					"external": {
						"getNumbers()": "infinite",
						"popNumber()": "infinite",
						"pushNumber(uint256)": "46820"
					}
				},
				"methodIdentifiers": {
					"getNumbers()": "89f915f6",
					"popNumber()": "2705f37f",
					"pushNumber(uint256)": "2bfe1805"
				}
			},
			"storageLayout": {
				"storage": [
					{
						"astId": 2115,
						"contract": "Solidity100/Solidity71-80.sol:Question80",
						"label": "numbers",
						"offset": 0,
						"slot": "0",
						"type": "t_array(t_uint256)dyn_storage"
					}
				],
				"types": {
					"t_array(t_uint256)dyn_storage": {
						"base": "t_uint256",
						"encoding": "dynamic_array",
						"label": "uint256[]",
						"numberOfBytes": "32"
					},
					"t_uint256": {
						"encoding": "inplace",
						"label": "uint256",
						"numberOfBytes": "32"
					}
				}
			},
			"userdoc": {
				"kind": "user",
				"methods": {},
				"version": 1
			}
		}
	}
}