{
	"Solidity100/Solidity11-20.sol": {
		"Question19": {
			"abi": [
				{
					"inputs": [
						{
							"internalType": "uint256",
							"name": "_n",
							"type": "uint256"
						}
					],
					"name": "doubleNumber",
					"outputs": [
						{
							"internalType": "uint256",
							"name": "",
							"type": "uint256"
						}
					],
					"stateMutability": "pure",
					"type": "function"
				}
			],
			"devdoc": {
				"kind": "dev",
				"methods": {},
				"version": 1
			},
			"evm": {
				"assembly": "    /* \"Solidity100/Solidity11-20.sol\":3759:4108  contract Question19{... */\n  mstore(0x40, 0x80)\n  callvalue\n  dup1\n  iszero\n  tag_1\n  jumpi\n  0x00\n  dup1\n  revert\ntag_1:\n  pop\n  dataSize(sub_0)\n  dup1\n  dataOffset(sub_0)\n  0x00\n  codecopy\n  0x00\n  return\nstop\n\nsub_0: assembly {\n        /* \"Solidity100/Solidity11-20.sol\":3759:4108  contract Question19{... */\n      mstore(0x40, 0x80)\n      callvalue\n      dup1\n      iszero\n      tag_1\n      jumpi\n      0x00\n      dup1\n      revert\n    tag_1:\n      pop\n      jumpi(tag_2, lt(calldatasize, 0x04))\n      shr(0xe0, calldataload(0x00))\n      dup1\n      0xd30a6c84\n      eq\n      tag_3\n      jumpi\n    tag_2:\n      0x00\n      dup1\n      revert\n        /* \"Solidity100/Solidity11-20.sol\":3959:4106  function doubleNumber(uint _n) public pure returns(uint) {... */\n    tag_3:\n      tag_4\n      0x04\n      dup1\n      calldatasize\n      sub\n      dup2\n      add\n      swap1\n      tag_5\n      swap2\n      swap1\n      tag_6\n      jump\t// in\n    tag_5:\n      tag_7\n      jump\t// in\n    tag_4:\n      mload(0x40)\n      tag_8\n      swap2\n      swap1\n      tag_9\n      jump\t// in\n    tag_8:\n      mload(0x40)\n      dup1\n      swap2\n      sub\n      swap1\n      return\n    tag_7:\n        /* \"Solidity100/Solidity11-20.sol\":4010:4014  uint */\n      0x00\n        /* \"Solidity100/Solidity11-20.sol\":4039:4043  1000 */\n      0x03e8\n        /* \"Solidity100/Solidity11-20.sol\":4034:4036  _n */\n      dup3\n        /* \"Solidity100/Solidity11-20.sol\":4034:4043  _n < 1000 */\n      lt\n        /* \"Solidity100/Solidity11-20.sol\":4026:4075  require(_n < 1000, \"number should be under 1000\") */\n      tag_11\n      jumpi\n      mload(0x40)\n      0x08c379a000000000000000000000000000000000000000000000000000000000\n      dup2\n      mstore\n      0x04\n      add\n      tag_12\n      swap1\n      tag_13\n      jump\t// in\n    tag_12:\n      mload(0x40)\n      dup1\n      swap2\n      sub\n      swap1\n      revert\n    tag_11:\n        /* \"Solidity100/Solidity11-20.sol\":4098:4099  2 */\n      0x02\n        /* \"Solidity100/Solidity11-20.sol\":4093:4095  _n */\n      dup3\n        /* \"Solidity100/Solidity11-20.sol\":4093:4099  _n * 2 */\n      tag_14\n      swap2\n      swap1\n      tag_15\n      jump\t// in\n    tag_14:\n        /* \"Solidity100/Solidity11-20.sol\":4086:4099  return _n * 2 */\n      swap1\n      pop\n        /* \"Solidity100/Solidity11-20.sol\":3959:4106  function doubleNumber(uint _n) public pure returns(uint) {... */\n      swap2\n      swap1\n      pop\n      jump\t// out\n        /* \"#utility.yul\":88:205   */\n    tag_17:\n        /* \"#utility.yul\":197:198   */\n      0x00\n        /* \"#utility.yul\":194:195   */\n      dup1\n        /* \"#utility.yul\":187:199   */\n      revert\n        /* \"#utility.yul\":334:411   */\n    tag_19:\n        /* \"#utility.yul\":371:378   */\n      0x00\n        /* \"#utility.yul\":400:405   */\n      dup2\n        /* \"#utility.yul\":389:405   */\n      swap1\n      pop\n        /* \"#utility.yul\":334:411   */\n      swap2\n      swap1\n      pop\n      jump\t// out\n        /* \"#utility.yul\":417:539   */\n    tag_20:\n        /* \"#utility.yul\":490:514   */\n      tag_33\n        /* \"#utility.yul\":508:513   */\n      dup2\n        /* \"#utility.yul\":490:514   */\n      tag_19\n      jump\t// in\n    tag_33:\n        /* \"#utility.yul\":483:488   */\n      dup2\n        /* \"#utility.yul\":480:515   */\n      eq\n        /* \"#utility.yul\":470:533   */\n      tag_34\n      jumpi\n        /* \"#utility.yul\":529:530   */\n      0x00\n        /* \"#utility.yul\":526:527   */\n      dup1\n        /* \"#utility.yul\":519:531   */\n      revert\n        /* \"#utility.yul\":470:533   */\n    tag_34:\n        /* \"#utility.yul\":417:539   */\n      pop\n      jump\t// out\n        /* \"#utility.yul\":545:684   */\n    tag_21:\n        /* \"#utility.yul\":591:596   */\n      0x00\n        /* \"#utility.yul\":629:635   */\n      dup2\n        /* \"#utility.yul\":616:636   */\n      calldataload\n        /* \"#utility.yul\":607:636   */\n      swap1\n      pop\n        /* \"#utility.yul\":645:678   */\n      tag_36\n        /* \"#utility.yul\":672:677   */\n      dup2\n        /* \"#utility.yul\":645:678   */\n      tag_20\n      jump\t// in\n    tag_36:\n        /* \"#utility.yul\":545:684   */\n      swap3\n      swap2\n      pop\n      pop\n      jump\t// out\n        /* \"#utility.yul\":690:1019   */\n    tag_6:\n        /* \"#utility.yul\":749:755   */\n      0x00\n        /* \"#utility.yul\":798:800   */\n      0x20\n        /* \"#utility.yul\":786:795   */\n      dup3\n        /* \"#utility.yul\":777:784   */\n      dup5\n        /* \"#utility.yul\":773:796   */\n      sub\n        /* \"#utility.yul\":769:801   */\n      slt\n        /* \"#utility.yul\":766:885   */\n      iszero\n      tag_38\n      jumpi\n        /* \"#utility.yul\":804:883   */\n      tag_39\n      tag_17\n      jump\t// in\n    tag_39:\n        /* \"#utility.yul\":766:885   */\n    tag_38:\n        /* \"#utility.yul\":924:925   */\n      0x00\n        /* \"#utility.yul\":949:1002   */\n      tag_40\n        /* \"#utility.yul\":994:1001   */\n      dup5\n        /* \"#utility.yul\":985:991   */\n      dup3\n        /* \"#utility.yul\":974:983   */\n      dup6\n        /* \"#utility.yul\":970:992   */\n      add\n        /* \"#utility.yul\":949:1002   */\n      tag_21\n      jump\t// in\n    tag_40:\n        /* \"#utility.yul\":939:1002   */\n      swap2\n      pop\n        /* \"#utility.yul\":895:1012   */\n      pop\n        /* \"#utility.yul\":690:1019   */\n      swap3\n      swap2\n      pop\n      pop\n      jump\t// out\n        /* \"#utility.yul\":1025:1143   */\n    tag_22:\n        /* \"#utility.yul\":1112:1136   */\n      tag_42\n        /* \"#utility.yul\":1130:1135   */\n      dup2\n        /* \"#utility.yul\":1112:1136   */\n      tag_19\n      jump\t// in\n    tag_42:\n        /* \"#utility.yul\":1107:1110   */\n      dup3\n        /* \"#utility.yul\":1100:1137   */\n      mstore\n        /* \"#utility.yul\":1025:1143   */\n      pop\n      pop\n      jump\t// out\n        /* \"#utility.yul\":1149:1371   */\n    tag_9:\n        /* \"#utility.yul\":1242:1246   */\n      0x00\n        /* \"#utility.yul\":1280:1282   */\n      0x20\n        /* \"#utility.yul\":1269:1278   */\n      dup3\n        /* \"#utility.yul\":1265:1283   */\n      add\n        /* \"#utility.yul\":1257:1283   */\n      swap1\n      pop\n        /* \"#utility.yul\":1293:1364   */\n      tag_44\n        /* \"#utility.yul\":1361:1362   */\n      0x00\n        /* \"#utility.yul\":1350:1359   */\n      dup4\n        /* \"#utility.yul\":1346:1363   */\n      add\n        /* \"#utility.yul\":1337:1343   */\n      dup5\n        /* \"#utility.yul\":1293:1364   */\n      tag_22\n      jump\t// in\n    tag_44:\n        /* \"#utility.yul\":1149:1371   */\n      swap3\n      swap2\n      pop\n      pop\n      jump\t// out\n        /* \"#utility.yul\":1377:1546   */\n    tag_23:\n        /* \"#utility.yul\":1461:1472   */\n      0x00\n        /* \"#utility.yul\":1495:1501   */\n      dup3\n        /* \"#utility.yul\":1490:1493   */\n      dup3\n        /* \"#utility.yul\":1483:1502   */\n      mstore\n        /* \"#utility.yul\":1535:1539   */\n      0x20\n        /* \"#utility.yul\":1530:1533   */\n      dup3\n        /* \"#utility.yul\":1526:1540   */\n      add\n        /* \"#utility.yul\":1511:1540   */\n      swap1\n      pop\n        /* \"#utility.yul\":1377:1546   */\n      swap3\n      swap2\n      pop\n      pop\n      jump\t// out\n        /* \"#utility.yul\":1552:1729   */\n    tag_24:\n        /* \"#utility.yul\":1692:1721   */\n      0x6e756d6265722073686f756c6420626520756e64657220313030300000000000\n        /* \"#utility.yul\":1688:1689   */\n      0x00\n        /* \"#utility.yul\":1680:1686   */\n      dup3\n        /* \"#utility.yul\":1676:1690   */\n      add\n        /* \"#utility.yul\":1669:1722   */\n      mstore\n        /* \"#utility.yul\":1552:1729   */\n      pop\n      jump\t// out\n        /* \"#utility.yul\":1735:2101   */\n    tag_25:\n        /* \"#utility.yul\":1877:1880   */\n      0x00\n        /* \"#utility.yul\":1898:1965   */\n      tag_48\n        /* \"#utility.yul\":1962:1964   */\n      0x1b\n        /* \"#utility.yul\":1957:1960   */\n      dup4\n        /* \"#utility.yul\":1898:1965   */\n      tag_23\n      jump\t// in\n    tag_48:\n        /* \"#utility.yul\":1891:1965   */\n      swap2\n      pop\n        /* \"#utility.yul\":1974:2067   */\n      tag_49\n        /* \"#utility.yul\":2063:2066   */\n      dup3\n        /* \"#utility.yul\":1974:2067   */\n      tag_24\n      jump\t// in\n    tag_49:\n        /* \"#utility.yul\":2092:2094   */\n      0x20\n        /* \"#utility.yul\":2087:2090   */\n      dup3\n        /* \"#utility.yul\":2083:2095   */\n      add\n        /* \"#utility.yul\":2076:2095   */\n      swap1\n      pop\n        /* \"#utility.yul\":1735:2101   */\n      swap2\n      swap1\n      pop\n      jump\t// out\n        /* \"#utility.yul\":2107:2526   */\n    tag_13:\n        /* \"#utility.yul\":2273:2277   */\n      0x00\n        /* \"#utility.yul\":2311:2313   */\n      0x20\n        /* \"#utility.yul\":2300:2309   */\n      dup3\n        /* \"#utility.yul\":2296:2314   */\n      add\n        /* \"#utility.yul\":2288:2314   */\n      swap1\n      pop\n        /* \"#utility.yul\":2360:2369   */\n      dup2\n        /* \"#utility.yul\":2354:2358   */\n      dup2\n        /* \"#utility.yul\":2350:2370   */\n      sub\n        /* \"#utility.yul\":2346:2347   */\n      0x00\n        /* \"#utility.yul\":2335:2344   */\n      dup4\n        /* \"#utility.yul\":2331:2348   */\n      add\n        /* \"#utility.yul\":2324:2371   */\n      mstore\n        /* \"#utility.yul\":2388:2519   */\n      tag_51\n        /* \"#utility.yul\":2514:2518   */\n      dup2\n        /* \"#utility.yul\":2388:2519   */\n      tag_25\n      jump\t// in\n    tag_51:\n        /* \"#utility.yul\":2380:2519   */\n      swap1\n      pop\n        /* \"#utility.yul\":2107:2526   */\n      swap2\n      swap1\n      pop\n      jump\t// out\n        /* \"#utility.yul\":2532:2712   */\n    tag_26:\n        /* \"#utility.yul\":2580:2657   */\n      0x4e487b7100000000000000000000000000000000000000000000000000000000\n        /* \"#utility.yul\":2577:2578   */\n      0x00\n        /* \"#utility.yul\":2570:2658   */\n      mstore\n        /* \"#utility.yul\":2677:2681   */\n      0x11\n        /* \"#utility.yul\":2674:2675   */\n      0x04\n        /* \"#utility.yul\":2667:2682   */\n      mstore\n        /* \"#utility.yul\":2701:2705   */\n      0x24\n        /* \"#utility.yul\":2698:2699   */\n      0x00\n        /* \"#utility.yul\":2691:2706   */\n      revert\n        /* \"#utility.yul\":2718:3128   */\n    tag_15:\n        /* \"#utility.yul\":2758:2765   */\n      0x00\n        /* \"#utility.yul\":2781:2801   */\n      tag_54\n        /* \"#utility.yul\":2799:2800   */\n      dup3\n        /* \"#utility.yul\":2781:2801   */\n      tag_19\n      jump\t// in\n    tag_54:\n        /* \"#utility.yul\":2776:2801   */\n      swap2\n      pop\n        /* \"#utility.yul\":2815:2835   */\n      tag_55\n        /* \"#utility.yul\":2833:2834   */\n      dup4\n        /* \"#utility.yul\":2815:2835   */\n      tag_19\n      jump\t// in\n    tag_55:\n        /* \"#utility.yul\":2810:2835   */\n      swap3\n      pop\n        /* \"#utility.yul\":2870:2871   */\n      dup3\n        /* \"#utility.yul\":2867:2868   */\n      dup3\n        /* \"#utility.yul\":2863:2872   */\n      mul\n        /* \"#utility.yul\":2892:2922   */\n      tag_56\n        /* \"#utility.yul\":2910:2921   */\n      dup2\n        /* \"#utility.yul\":2892:2922   */\n      tag_19\n      jump\t// in\n    tag_56:\n        /* \"#utility.yul\":2881:2922   */\n      swap2\n      pop\n        /* \"#utility.yul\":3071:3072   */\n      dup3\n        /* \"#utility.yul\":3062:3069   */\n      dup3\n        /* \"#utility.yul\":3058:3073   */\n      div\n        /* \"#utility.yul\":3055:3056   */\n      dup5\n        /* \"#utility.yul\":3052:3074   */\n      eq\n        /* \"#utility.yul\":3032:3033   */\n      dup4\n        /* \"#utility.yul\":3025:3034   */\n      iszero\n        /* \"#utility.yul\":3005:3088   */\n      or\n        /* \"#utility.yul\":2982:3121   */\n      tag_57\n      jumpi\n        /* \"#utility.yul\":3101:3119   */\n      tag_58\n      tag_26\n      jump\t// in\n    tag_58:\n        /* \"#utility.yul\":2982:3121   */\n    tag_57:\n        /* \"#utility.yul\":2766:3128   */\n      pop\n        /* \"#utility.yul\":2718:3128   */\n      swap3\n      swap2\n      pop\n      pop\n      jump\t// out\n\n    auxdata: 0xa2646970667358221220fa31cecfba33d906f24ee86ea8369fe21d116dc1883ead1d0c8d821fb86c7e9c64736f6c634300081a0033\n}\n",
				"bytecode": {
					"linkReferences": {},
					"object": "6080604052348015600e575f80fd5b5061025c8061001c5f395ff3fe608060405234801561000f575f80fd5b5060043610610029575f3560e01c8063d30a6c841461002d575b5f80fd5b610047600480360381019061004291906100ed565b61005d565b6040516100549190610127565b60405180910390f35b5f6103e882106100a2576040517f08c379a00000000000000000000000000000000000000000000000000000000081526004016100999061019a565b60405180910390fd5b6002826100af91906101e5565b9050919050565b5f80fd5b5f819050919050565b6100cc816100ba565b81146100d6575f80fd5b50565b5f813590506100e7816100c3565b92915050565b5f60208284031215610102576101016100b6565b5b5f61010f848285016100d9565b91505092915050565b610121816100ba565b82525050565b5f60208201905061013a5f830184610118565b92915050565b5f82825260208201905092915050565b7f6e756d6265722073686f756c6420626520756e646572203130303000000000005f82015250565b5f610184601b83610140565b915061018f82610150565b602082019050919050565b5f6020820190508181035f8301526101b181610178565b9050919050565b7f4e487b71000000000000000000000000000000000000000000000000000000005f52601160045260245ffd5b5f6101ef826100ba565b91506101fa836100ba565b9250828202610208816100ba565b9150828204841483151761021f5761021e6101b8565b5b509291505056fea2646970667358221220fa31cecfba33d906f24ee86ea8369fe21d116dc1883ead1d0c8d821fb86c7e9c64736f6c634300081a0033",
					"opcodes": "PUSH1 0x80 PUSH1 0x40 MSTORE CALLVALUE DUP1 ISZERO PUSH1 0xE JUMPI PUSH0 DUP1 REVERT JUMPDEST POP PUSH2 0x25C DUP1 PUSH2 0x1C PUSH0 CODECOPY PUSH0 RETURN INVALID PUSH1 0x80 PUSH1 0x40 MSTORE CALLVALUE DUP1 ISZERO PUSH2 0xF JUMPI PUSH0 DUP1 REVERT JUMPDEST POP PUSH1 0x4 CALLDATASIZE LT PUSH2 0x29 JUMPI PUSH0 CALLDATALOAD PUSH1 0xE0 SHR DUP1 PUSH4 0xD30A6C84 EQ PUSH2 0x2D JUMPI JUMPDEST PUSH0 DUP1 REVERT JUMPDEST PUSH2 0x47 PUSH1 0x4 DUP1 CALLDATASIZE SUB DUP2 ADD SWAP1 PUSH2 0x42 SWAP2 SWAP1 PUSH2 0xED JUMP JUMPDEST PUSH2 0x5D JUMP JUMPDEST PUSH1 0x40 MLOAD PUSH2 0x54 SWAP2 SWAP1 PUSH2 0x127 JUMP JUMPDEST PUSH1 0x40 MLOAD DUP1 SWAP2 SUB SWAP1 RETURN JUMPDEST PUSH0 PUSH2 0x3E8 DUP3 LT PUSH2 0xA2 JUMPI PUSH1 0x40 MLOAD PUSH32 0x8C379A000000000000000000000000000000000000000000000000000000000 DUP2 MSTORE PUSH1 0x4 ADD PUSH2 0x99 SWAP1 PUSH2 0x19A JUMP JUMPDEST PUSH1 0x40 MLOAD DUP1 SWAP2 SUB SWAP1 REVERT JUMPDEST PUSH1 0x2 DUP3 PUSH2 0xAF SWAP2 SWAP1 PUSH2 0x1E5 JUMP JUMPDEST SWAP1 POP SWAP2 SWAP1 POP JUMP JUMPDEST PUSH0 DUP1 REVERT JUMPDEST PUSH0 DUP2 SWAP1 POP SWAP2 SWAP1 POP JUMP JUMPDEST PUSH2 0xCC DUP2 PUSH2 0xBA JUMP JUMPDEST DUP2 EQ PUSH2 0xD6 JUMPI PUSH0 DUP1 REVERT JUMPDEST POP JUMP JUMPDEST PUSH0 DUP2 CALLDATALOAD SWAP1 POP PUSH2 0xE7 DUP2 PUSH2 0xC3 JUMP JUMPDEST SWAP3 SWAP2 POP POP JUMP JUMPDEST PUSH0 PUSH1 0x20 DUP3 DUP5 SUB SLT ISZERO PUSH2 0x102 JUMPI PUSH2 0x101 PUSH2 0xB6 JUMP JUMPDEST JUMPDEST PUSH0 PUSH2 0x10F DUP5 DUP3 DUP6 ADD PUSH2 0xD9 JUMP JUMPDEST SWAP2 POP POP SWAP3 SWAP2 POP POP JUMP JUMPDEST PUSH2 0x121 DUP2 PUSH2 0xBA JUMP JUMPDEST DUP3 MSTORE POP POP JUMP JUMPDEST PUSH0 PUSH1 0x20 DUP3 ADD SWAP1 POP PUSH2 0x13A PUSH0 DUP4 ADD DUP5 PUSH2 0x118 JUMP JUMPDEST SWAP3 SWAP2 POP POP JUMP JUMPDEST PUSH0 DUP3 DUP3 MSTORE PUSH1 0x20 DUP3 ADD SWAP1 POP SWAP3 SWAP2 POP POP JUMP JUMPDEST PUSH32 0x6E756D6265722073686F756C6420626520756E64657220313030300000000000 PUSH0 DUP3 ADD MSTORE POP JUMP JUMPDEST PUSH0 PUSH2 0x184 PUSH1 0x1B DUP4 PUSH2 0x140 JUMP JUMPDEST SWAP2 POP PUSH2 0x18F DUP3 PUSH2 0x150 JUMP JUMPDEST PUSH1 0x20 DUP3 ADD SWAP1 POP SWAP2 SWAP1 POP JUMP JUMPDEST PUSH0 PUSH1 0x20 DUP3 ADD SWAP1 POP DUP2 DUP2 SUB PUSH0 DUP4 ADD MSTORE PUSH2 0x1B1 DUP2 PUSH2 0x178 JUMP JUMPDEST SWAP1 POP SWAP2 SWAP1 POP JUMP JUMPDEST PUSH32 0x4E487B7100000000000000000000000000000000000000000000000000000000 PUSH0 MSTORE PUSH1 0x11 PUSH1 0x4 MSTORE PUSH1 0x24 PUSH0 REVERT JUMPDEST PUSH0 PUSH2 0x1EF DUP3 PUSH2 0xBA JUMP JUMPDEST SWAP2 POP PUSH2 0x1FA DUP4 PUSH2 0xBA JUMP JUMPDEST SWAP3 POP DUP3 DUP3 MUL PUSH2 0x208 DUP2 PUSH2 0xBA JUMP JUMPDEST SWAP2 POP DUP3 DUP3 DIV DUP5 EQ DUP4 ISZERO OR PUSH2 0x21F JUMPI PUSH2 0x21E PUSH2 0x1B8 JUMP JUMPDEST JUMPDEST POP SWAP3 SWAP2 POP POP JUMP INVALID LOG2 PUSH5 0x6970667358 0x22 SLT KECCAK256 STATICCALL BALANCE 0xCE 0xCF 0xBA CALLER 0xD9 MOD CALLCODE 0x4E 0xE8 PUSH15 0xA8369FE21D116DC1883EAD1D0C8D82 0x1F 0xB8 PUSH13 0x7E9C64736F6C634300081A0033 "
				},
				"gasEstimates": {
					"creation": {
						"codeDepositCost": "120800",
						"executionCost": "163",
						"totalCost": "120963"
					},
					"external": {
						"doubleNumber(uint256)": "infinite"
					}
				},
				"methodIdentifiers": {
					"doubleNumber(uint256)": "d30a6c84"
				}
			},
			"storageLayout": {
				"storage": [],
				"types": null
			},
			"userdoc": {
				"kind": "user",
				"methods": {},
				"version": 1
			}
		}
	}
}