{
	"Solidity100/Solidity11-20.sol": {
		"Question14": {
			"abi": [
				{
					"inputs": [
						{
							"internalType": "string",
							"name": "_name",
							"type": "string"
						},
						{
							"internalType": "string[]",
							"name": "_classLists",
							"type": "string[]"
						}
					],
					"name": "addStudent",
					"outputs": [],
					"stateMutability": "nonpayable",
					"type": "function"
				}
			],
			"devdoc": {
				"kind": "dev",
				"methods": {},
				"version": 1
			},
			"evm": {
				"assembly": "    /* \"Solidity100/Solidity11-20.sol\":1305:1994  contract Question14{... */\n  mstore(0x40, 0x80)\n  callvalue\n  dup1\n  iszero\n  tag_1\n  jumpi\n  0x00\n  dup1\n  revert\ntag_1:\n  pop\n  dataSize(sub_0)\n  dup1\n  dataOffset(sub_0)\n  0x00\n  codecopy\n  0x00\n  return\nstop\n\nsub_0: assembly {\n        /* \"Solidity100/Solidity11-20.sol\":1305:1994  contract Question14{... */\n      mstore(0x40, 0x80)\n      callvalue\n      dup1\n      iszero\n      tag_1\n      jumpi\n      0x00\n      dup1\n      revert\n    tag_1:\n      pop\n      jumpi(tag_2, lt(calldatasize, 0x04))\n      shr(0xe0, calldataload(0x00))\n      dup1\n      0x70d5e2fb\n      eq\n      tag_3\n      jumpi\n    tag_2:\n      0x00\n      dup1\n      revert\n        /* \"Solidity100/Solidity11-20.sol\":1799:1992  function addStudent(string memory _name, string[] memory _classLists) public {... */\n    tag_3:\n      tag_4\n      0x04\n      dup1\n      calldatasize\n      sub\n      dup2\n      add\n      swap1\n      tag_5\n      swap2\n      swap1\n      tag_6\n      jump\t// in\n    tag_5:\n      tag_7\n      jump\t// in\n    tag_4:\n      stop\n    tag_7:\n        /* \"Solidity100/Solidity11-20.sol\":1886:1900  uint studentId */\n      0x00\n        /* \"Solidity100/Solidity11-20.sol\":1921:1922  1 */\n      0x01\n        /* \"Solidity100/Solidity11-20.sol\":1903:1911  students */\n      0x00\n        /* \"Solidity100/Solidity11-20.sol\":1903:1918  students.length */\n      dup1\n      sload\n      swap1\n      pop\n        /* \"Solidity100/Solidity11-20.sol\":1903:1922  students.length + 1 */\n      tag_9\n      swap2\n      swap1\n      tag_10\n      jump\t// in\n    tag_9:\n        /* \"Solidity100/Solidity11-20.sol\":1886:1922  uint studentId = students.length + 1 */\n      swap1\n      pop\n        /* \"Solidity100/Solidity11-20.sol\":1932:1940  students */\n      0x00\n        /* \"Solidity100/Solidity11-20.sol\":1946:1984  student(studentId, _name, _classLists) */\n      mload(0x40)\n      dup1\n      0x60\n      add\n      0x40\n      mstore\n      dup1\n        /* \"Solidity100/Solidity11-20.sol\":1954:1963  studentId */\n      dup4\n        /* \"Solidity100/Solidity11-20.sol\":1946:1984  student(studentId, _name, _classLists) */\n      dup2\n      mstore\n      0x20\n      add\n        /* \"Solidity100/Solidity11-20.sol\":1965:1970  _name */\n      dup6\n        /* \"Solidity100/Solidity11-20.sol\":1946:1984  student(studentId, _name, _classLists) */\n      dup2\n      mstore\n      0x20\n      add\n        /* \"Solidity100/Solidity11-20.sol\":1972:1983  _classLists */\n      dup5\n        /* \"Solidity100/Solidity11-20.sol\":1946:1984  student(studentId, _name, _classLists) */\n      dup2\n      mstore\n      pop\n        /* \"Solidity100/Solidity11-20.sol\":1932:1985  students.push(student(studentId, _name, _classLists)) */\n      swap1\n      dup1\n      0x01\n      dup2\n      sload\n      add\n      dup1\n      dup3\n      sstore\n      dup1\n      swap2\n      pop\n      pop\n      0x01\n      swap1\n      sub\n      swap1\n      0x00\n      mstore\n      keccak256(0x00, 0x20)\n      swap1\n      0x03\n      mul\n      add\n      0x00\n      swap1\n      swap2\n      swap1\n      swap2\n      swap1\n      swap2\n      pop\n      0x00\n      dup3\n      add\n      mload\n      dup2\n      0x00\n      add\n      sstore\n      0x20\n      dup3\n      add\n      mload\n      dup2\n      0x01\n      add\n      swap1\n      dup2\n      tag_12\n      swap2\n      swap1\n      tag_13\n      jump\t// in\n    tag_12:\n      pop\n      0x40\n      dup3\n      add\n      mload\n      dup2\n      0x02\n      add\n      swap1\n      dup1\n      mload\n      swap1\n      0x20\n      add\n      swap1\n      tag_14\n      swap3\n      swap2\n      swap1\n      tag_15\n      jump\t// in\n    tag_14:\n      pop\n      pop\n      pop\n        /* \"Solidity100/Solidity11-20.sol\":1876:1992  {... */\n      pop\n        /* \"Solidity100/Solidity11-20.sol\":1799:1992  function addStudent(string memory _name, string[] memory _classLists) public {... */\n      pop\n      pop\n      jump\t// out\n    tag_15:\n      dup3\n      dup1\n      sload\n      dup3\n      dup3\n      sstore\n      swap1\n      0x00\n      mstore\n      keccak256(0x00, 0x20)\n      swap1\n      dup2\n      add\n      swap3\n      dup3\n      iszero\n      tag_16\n      jumpi\n      swap2\n      0x20\n      mul\n      dup3\n      add\n    tag_17:\n      dup3\n      dup2\n      gt\n      iszero\n      tag_18\n      jumpi\n      dup3\n      mload\n      dup3\n      swap1\n      dup2\n      tag_19\n      swap2\n      swap1\n      tag_13\n      jump\t// in\n    tag_19:\n      pop\n      swap2\n      0x20\n      add\n      swap2\n      swap1\n      0x01\n      add\n      swap1\n      jump(tag_17)\n    tag_18:\n    tag_16:\n      pop\n      swap1\n      pop\n      tag_20\n      swap2\n      swap1\n      tag_21\n      jump\t// in\n    tag_20:\n      pop\n      swap1\n      jump\t// out\n    tag_21:\n    tag_22:\n      dup1\n      dup3\n      gt\n      iszero\n      tag_23\n      jumpi\n      0x00\n      dup2\n      dup2\n      tag_24\n      swap2\n      swap1\n      tag_25\n      jump\t// in\n    tag_24:\n      pop\n      0x01\n      add\n      jump(tag_22)\n    tag_23:\n      pop\n      swap1\n      jump\t// out\n    tag_25:\n      pop\n      dup1\n      sload\n      tag_26\n      swap1\n      tag_27\n      jump\t// in\n    tag_26:\n      0x00\n      dup3\n      sstore\n      dup1\n      0x1f\n      lt\n      tag_29\n      jumpi\n      pop\n      jump(tag_28)\n    tag_29:\n      0x1f\n      add\n      0x20\n      swap1\n      div\n      swap1\n      0x00\n      mstore\n      keccak256(0x00, 0x20)\n      swap1\n      dup2\n      add\n      swap1\n      tag_30\n      swap2\n      swap1\n      tag_31\n      jump\t// in\n    tag_30:\n    tag_28:\n      pop\n      jump\t// out\n    tag_31:\n    tag_32:\n      dup1\n      dup3\n      gt\n      iszero\n      tag_33\n      jumpi\n      0x00\n      dup2\n      0x00\n      swap1\n      sstore\n      pop\n      0x01\n      add\n      jump(tag_32)\n    tag_33:\n      pop\n      swap1\n      jump\t// out\n        /* \"#utility.yul\":7:82   */\n    tag_34:\n        /* \"#utility.yul\":40:46   */\n      0x00\n        /* \"#utility.yul\":73:75   */\n      0x40\n        /* \"#utility.yul\":67:76   */\n      mload\n        /* \"#utility.yul\":57:76   */\n      swap1\n      pop\n        /* \"#utility.yul\":7:82   */\n      swap1\n      jump\t// out\n        /* \"#utility.yul\":88:205   */\n    tag_35:\n        /* \"#utility.yul\":197:198   */\n      0x00\n        /* \"#utility.yul\":194:195   */\n      dup1\n        /* \"#utility.yul\":187:199   */\n      revert\n        /* \"#utility.yul\":211:328   */\n    tag_36:\n        /* \"#utility.yul\":320:321   */\n      0x00\n        /* \"#utility.yul\":317:318   */\n      dup1\n        /* \"#utility.yul\":310:322   */\n      revert\n        /* \"#utility.yul\":334:451   */\n    tag_37:\n        /* \"#utility.yul\":443:444   */\n      0x00\n        /* \"#utility.yul\":440:441   */\n      dup1\n        /* \"#utility.yul\":433:445   */\n      revert\n        /* \"#utility.yul\":457:574   */\n    tag_38:\n        /* \"#utility.yul\":566:567   */\n      0x00\n        /* \"#utility.yul\":563:564   */\n      dup1\n        /* \"#utility.yul\":556:568   */\n      revert\n        /* \"#utility.yul\":580:682   */\n    tag_39:\n        /* \"#utility.yul\":621:627   */\n      0x00\n        /* \"#utility.yul\":672:674   */\n      0x1f\n        /* \"#utility.yul\":668:675   */\n      not\n        /* \"#utility.yul\":663:665   */\n      0x1f\n        /* \"#utility.yul\":656:661   */\n      dup4\n        /* \"#utility.yul\":652:666   */\n      add\n        /* \"#utility.yul\":648:676   */\n      and\n        /* \"#utility.yul\":638:676   */\n      swap1\n      pop\n        /* \"#utility.yul\":580:682   */\n      swap2\n      swap1\n      pop\n      jump\t// out\n        /* \"#utility.yul\":688:868   */\n    tag_40:\n        /* \"#utility.yul\":736:813   */\n      0x4e487b7100000000000000000000000000000000000000000000000000000000\n        /* \"#utility.yul\":733:734   */\n      0x00\n        /* \"#utility.yul\":726:814   */\n      mstore\n        /* \"#utility.yul\":833:837   */\n      0x41\n        /* \"#utility.yul\":830:831   */\n      0x04\n        /* \"#utility.yul\":823:838   */\n      mstore\n        /* \"#utility.yul\":857:861   */\n      0x24\n        /* \"#utility.yul\":854:855   */\n      0x00\n        /* \"#utility.yul\":847:862   */\n      revert\n        /* \"#utility.yul\":874:1155   */\n    tag_41:\n        /* \"#utility.yul\":957:984   */\n      tag_79\n        /* \"#utility.yul\":979:983   */\n      dup3\n        /* \"#utility.yul\":957:984   */\n      tag_39\n      jump\t// in\n    tag_79:\n        /* \"#utility.yul\":949:955   */\n      dup2\n        /* \"#utility.yul\":945:985   */\n      add\n        /* \"#utility.yul\":1087:1093   */\n      dup2\n        /* \"#utility.yul\":1075:1085   */\n      dup2\n        /* \"#utility.yul\":1072:1094   */\n      lt\n        /* \"#utility.yul\":1051:1069   */\n      0xffffffffffffffff\n        /* \"#utility.yul\":1039:1049   */\n      dup3\n        /* \"#utility.yul\":1036:1070   */\n      gt\n        /* \"#utility.yul\":1033:1095   */\n      or\n        /* \"#utility.yul\":1030:1118   */\n      iszero\n      tag_80\n      jumpi\n        /* \"#utility.yul\":1098:1116   */\n      tag_81\n      tag_40\n      jump\t// in\n    tag_81:\n        /* \"#utility.yul\":1030:1118   */\n    tag_80:\n        /* \"#utility.yul\":1138:1148   */\n      dup1\n        /* \"#utility.yul\":1134:1136   */\n      0x40\n        /* \"#utility.yul\":1127:1149   */\n      mstore\n        /* \"#utility.yul\":917:1155   */\n      pop\n        /* \"#utility.yul\":874:1155   */\n      pop\n      pop\n      jump\t// out\n        /* \"#utility.yul\":1161:1290   */\n    tag_42:\n        /* \"#utility.yul\":1195:1201   */\n      0x00\n        /* \"#utility.yul\":1222:1242   */\n      tag_83\n      tag_34\n      jump\t// in\n    tag_83:\n        /* \"#utility.yul\":1212:1242   */\n      swap1\n      pop\n        /* \"#utility.yul\":1251:1284   */\n      tag_84\n        /* \"#utility.yul\":1279:1283   */\n      dup3\n        /* \"#utility.yul\":1271:1277   */\n      dup3\n        /* \"#utility.yul\":1251:1284   */\n      tag_41\n      jump\t// in\n    tag_84:\n        /* \"#utility.yul\":1161:1290   */\n      swap2\n      swap1\n      pop\n      jump\t// out\n        /* \"#utility.yul\":1296:1604   */\n    tag_43:\n        /* \"#utility.yul\":1358:1362   */\n      0x00\n        /* \"#utility.yul\":1448:1466   */\n      0xffffffffffffffff\n        /* \"#utility.yul\":1440:1446   */\n      dup3\n        /* \"#utility.yul\":1437:1467   */\n      gt\n        /* \"#utility.yul\":1434:1490   */\n      iszero\n      tag_86\n      jumpi\n        /* \"#utility.yul\":1470:1488   */\n      tag_87\n      tag_40\n      jump\t// in\n    tag_87:\n        /* \"#utility.yul\":1434:1490   */\n    tag_86:\n        /* \"#utility.yul\":1508:1537   */\n      tag_88\n        /* \"#utility.yul\":1530:1536   */\n      dup3\n        /* \"#utility.yul\":1508:1537   */\n      tag_39\n      jump\t// in\n    tag_88:\n        /* \"#utility.yul\":1500:1537   */\n      swap1\n      pop\n        /* \"#utility.yul\":1592:1596   */\n      0x20\n        /* \"#utility.yul\":1586:1590   */\n      dup2\n        /* \"#utility.yul\":1582:1597   */\n      add\n        /* \"#utility.yul\":1574:1597   */\n      swap1\n      pop\n        /* \"#utility.yul\":1296:1604   */\n      swap2\n      swap1\n      pop\n      jump\t// out\n        /* \"#utility.yul\":1610:1758   */\n    tag_44:\n        /* \"#utility.yul\":1708:1714   */\n      dup3\n        /* \"#utility.yul\":1703:1706   */\n      dup2\n        /* \"#utility.yul\":1698:1701   */\n      dup4\n        /* \"#utility.yul\":1685:1715   */\n      calldatacopy\n        /* \"#utility.yul\":1749:1750   */\n      0x00\n        /* \"#utility.yul\":1740:1746   */\n      dup4\n        /* \"#utility.yul\":1735:1738   */\n      dup4\n        /* \"#utility.yul\":1731:1747   */\n      add\n        /* \"#utility.yul\":1724:1751   */\n      mstore\n        /* \"#utility.yul\":1610:1758   */\n      pop\n      pop\n      pop\n      jump\t// out\n        /* \"#utility.yul\":1764:2189   */\n    tag_45:\n        /* \"#utility.yul\":1842:1847   */\n      0x00\n        /* \"#utility.yul\":1867:1933   */\n      tag_91\n        /* \"#utility.yul\":1883:1932   */\n      tag_92\n        /* \"#utility.yul\":1925:1931   */\n      dup5\n        /* \"#utility.yul\":1883:1932   */\n      tag_43\n      jump\t// in\n    tag_92:\n        /* \"#utility.yul\":1867:1933   */\n      tag_42\n      jump\t// in\n    tag_91:\n        /* \"#utility.yul\":1858:1933   */\n      swap1\n      pop\n        /* \"#utility.yul\":1956:1962   */\n      dup3\n        /* \"#utility.yul\":1949:1954   */\n      dup2\n        /* \"#utility.yul\":1942:1963   */\n      mstore\n        /* \"#utility.yul\":1994:1998   */\n      0x20\n        /* \"#utility.yul\":1987:1992   */\n      dup2\n        /* \"#utility.yul\":1983:1999   */\n      add\n        /* \"#utility.yul\":2032:2035   */\n      dup5\n        /* \"#utility.yul\":2023:2029   */\n      dup5\n        /* \"#utility.yul\":2018:2021   */\n      dup5\n        /* \"#utility.yul\":2014:2030   */\n      add\n        /* \"#utility.yul\":2011:2036   */\n      gt\n        /* \"#utility.yul\":2008:2120   */\n      iszero\n      tag_93\n      jumpi\n        /* \"#utility.yul\":2039:2118   */\n      tag_94\n      tag_38\n      jump\t// in\n    tag_94:\n        /* \"#utility.yul\":2008:2120   */\n    tag_93:\n        /* \"#utility.yul\":2129:2183   */\n      tag_95\n        /* \"#utility.yul\":2176:2182   */\n      dup5\n        /* \"#utility.yul\":2171:2174   */\n      dup3\n        /* \"#utility.yul\":2166:2169   */\n      dup6\n        /* \"#utility.yul\":2129:2183   */\n      tag_44\n      jump\t// in\n    tag_95:\n        /* \"#utility.yul\":1848:2189   */\n      pop\n        /* \"#utility.yul\":1764:2189   */\n      swap4\n      swap3\n      pop\n      pop\n      pop\n      jump\t// out\n        /* \"#utility.yul\":2209:2549   */\n    tag_46:\n        /* \"#utility.yul\":2265:2270   */\n      0x00\n        /* \"#utility.yul\":2314:2317   */\n      dup3\n        /* \"#utility.yul\":2307:2311   */\n      0x1f\n        /* \"#utility.yul\":2299:2305   */\n      dup4\n        /* \"#utility.yul\":2295:2312   */\n      add\n        /* \"#utility.yul\":2291:2318   */\n      slt\n        /* \"#utility.yul\":2281:2403   */\n      tag_97\n      jumpi\n        /* \"#utility.yul\":2322:2401   */\n      tag_98\n      tag_37\n      jump\t// in\n    tag_98:\n        /* \"#utility.yul\":2281:2403   */\n    tag_97:\n        /* \"#utility.yul\":2439:2445   */\n      dup2\n        /* \"#utility.yul\":2426:2446   */\n      calldataload\n        /* \"#utility.yul\":2464:2543   */\n      tag_99\n        /* \"#utility.yul\":2539:2542   */\n      dup5\n        /* \"#utility.yul\":2531:2537   */\n      dup3\n        /* \"#utility.yul\":2524:2528   */\n      0x20\n        /* \"#utility.yul\":2516:2522   */\n      dup7\n        /* \"#utility.yul\":2512:2529   */\n      add\n        /* \"#utility.yul\":2464:2543   */\n      tag_45\n      jump\t// in\n    tag_99:\n        /* \"#utility.yul\":2455:2543   */\n      swap2\n      pop\n        /* \"#utility.yul\":2271:2549   */\n      pop\n        /* \"#utility.yul\":2209:2549   */\n      swap3\n      swap2\n      pop\n      pop\n      jump\t// out\n        /* \"#utility.yul\":2555:2876   */\n    tag_47:\n        /* \"#utility.yul\":2642:2646   */\n      0x00\n        /* \"#utility.yul\":2732:2750   */\n      0xffffffffffffffff\n        /* \"#utility.yul\":2724:2730   */\n      dup3\n        /* \"#utility.yul\":2721:2751   */\n      gt\n        /* \"#utility.yul\":2718:2774   */\n      iszero\n      tag_101\n      jumpi\n        /* \"#utility.yul\":2754:2772   */\n      tag_102\n      tag_40\n      jump\t// in\n    tag_102:\n        /* \"#utility.yul\":2718:2774   */\n    tag_101:\n        /* \"#utility.yul\":2804:2808   */\n      0x20\n        /* \"#utility.yul\":2796:2802   */\n      dup3\n        /* \"#utility.yul\":2792:2809   */\n      mul\n        /* \"#utility.yul\":2784:2809   */\n      swap1\n      pop\n        /* \"#utility.yul\":2864:2868   */\n      0x20\n        /* \"#utility.yul\":2858:2862   */\n      dup2\n        /* \"#utility.yul\":2854:2869   */\n      add\n        /* \"#utility.yul\":2846:2869   */\n      swap1\n      pop\n        /* \"#utility.yul\":2555:2876   */\n      swap2\n      swap1\n      pop\n      jump\t// out\n        /* \"#utility.yul\":2882:2999   */\n    tag_48:\n        /* \"#utility.yul\":2991:2992   */\n      0x00\n        /* \"#utility.yul\":2988:2989   */\n      dup1\n        /* \"#utility.yul\":2981:2993   */\n      revert\n        /* \"#utility.yul\":3021:3966   */\n    tag_49:\n        /* \"#utility.yul\":3127:3132   */\n      0x00\n        /* \"#utility.yul\":3152:3243   */\n      tag_105\n        /* \"#utility.yul\":3168:3242   */\n      tag_106\n        /* \"#utility.yul\":3235:3241   */\n      dup5\n        /* \"#utility.yul\":3168:3242   */\n      tag_47\n      jump\t// in\n    tag_106:\n        /* \"#utility.yul\":3152:3243   */\n      tag_42\n      jump\t// in\n    tag_105:\n        /* \"#utility.yul\":3143:3243   */\n      swap1\n      pop\n        /* \"#utility.yul\":3263:3268   */\n      dup1\n        /* \"#utility.yul\":3292:3298   */\n      dup4\n        /* \"#utility.yul\":3285:3290   */\n      dup3\n        /* \"#utility.yul\":3278:3299   */\n      mstore\n        /* \"#utility.yul\":3326:3330   */\n      0x20\n        /* \"#utility.yul\":3319:3324   */\n      dup3\n        /* \"#utility.yul\":3315:3331   */\n      add\n        /* \"#utility.yul\":3308:3331   */\n      swap1\n      pop\n        /* \"#utility.yul\":3379:3383   */\n      0x20\n        /* \"#utility.yul\":3371:3377   */\n      dup5\n        /* \"#utility.yul\":3367:3384   */\n      mul\n        /* \"#utility.yul\":3359:3365   */\n      dup4\n        /* \"#utility.yul\":3355:3385   */\n      add\n        /* \"#utility.yul\":3408:3411   */\n      dup6\n        /* \"#utility.yul\":3400:3406   */\n      dup2\n        /* \"#utility.yul\":3397:3412   */\n      gt\n        /* \"#utility.yul\":3394:3516   */\n      iszero\n      tag_107\n      jumpi\n        /* \"#utility.yul\":3427:3506   */\n      tag_108\n      tag_48\n      jump\t// in\n    tag_108:\n        /* \"#utility.yul\":3394:3516   */\n    tag_107:\n        /* \"#utility.yul\":3542:3548   */\n      dup4\n        /* \"#utility.yul\":3525:3960   */\n    tag_109:\n        /* \"#utility.yul\":3559:3565   */\n      dup2\n        /* \"#utility.yul\":3554:3557   */\n      dup2\n        /* \"#utility.yul\":3551:3566   */\n      lt\n        /* \"#utility.yul\":3525:3960   */\n      iszero\n      tag_111\n      jumpi\n        /* \"#utility.yul\":3648:3651   */\n      dup1\n        /* \"#utility.yul\":3635:3652   */\n      calldataload\n        /* \"#utility.yul\":3684:3702   */\n      0xffffffffffffffff\n        /* \"#utility.yul\":3671:3682   */\n      dup2\n        /* \"#utility.yul\":3668:3703   */\n      gt\n        /* \"#utility.yul\":3665:3787   */\n      iszero\n      tag_112\n      jumpi\n        /* \"#utility.yul\":3706:3785   */\n      tag_113\n      tag_37\n      jump\t// in\n    tag_113:\n        /* \"#utility.yul\":3665:3787   */\n    tag_112:\n        /* \"#utility.yul\":3830:3841   */\n      dup1\n        /* \"#utility.yul\":3822:3828   */\n      dup7\n        /* \"#utility.yul\":3818:3842   */\n      add\n        /* \"#utility.yul\":3868:3915   */\n      tag_114\n        /* \"#utility.yul\":3911:3914   */\n      dup10\n        /* \"#utility.yul\":3899:3909   */\n      dup3\n        /* \"#utility.yul\":3868:3915   */\n      tag_46\n      jump\t// in\n    tag_114:\n        /* \"#utility.yul\":3863:3866   */\n      dup6\n        /* \"#utility.yul\":3856:3916   */\n      mstore\n        /* \"#utility.yul\":3945:3949   */\n      0x20\n        /* \"#utility.yul\":3940:3943   */\n      dup6\n        /* \"#utility.yul\":3936:3950   */\n      add\n        /* \"#utility.yul\":3929:3950   */\n      swap5\n      pop\n        /* \"#utility.yul\":3601:3960   */\n      pop\n      pop\n        /* \"#utility.yul\":3585:3589   */\n      0x20\n        /* \"#utility.yul\":3580:3583   */\n      dup2\n        /* \"#utility.yul\":3576:3590   */\n      add\n        /* \"#utility.yul\":3569:3590   */\n      swap1\n      pop\n        /* \"#utility.yul\":3525:3960   */\n      jump(tag_109)\n    tag_111:\n        /* \"#utility.yul\":3529:3550   */\n      pop\n        /* \"#utility.yul\":3133:3966   */\n      pop\n      pop\n        /* \"#utility.yul\":3021:3966   */\n      swap4\n      swap3\n      pop\n      pop\n      pop\n      jump\t// out\n        /* \"#utility.yul\":3988:4378   */\n    tag_50:\n        /* \"#utility.yul\":4069:4074   */\n      0x00\n        /* \"#utility.yul\":4118:4121   */\n      dup3\n        /* \"#utility.yul\":4111:4115   */\n      0x1f\n        /* \"#utility.yul\":4103:4109   */\n      dup4\n        /* \"#utility.yul\":4099:4116   */\n      add\n        /* \"#utility.yul\":4095:4122   */\n      slt\n        /* \"#utility.yul\":4085:4207   */\n      tag_116\n      jumpi\n        /* \"#utility.yul\":4126:4205   */\n      tag_117\n      tag_37\n      jump\t// in\n    tag_117:\n        /* \"#utility.yul\":4085:4207   */\n    tag_116:\n        /* \"#utility.yul\":4243:4249   */\n      dup2\n        /* \"#utility.yul\":4230:4250   */\n      calldataload\n        /* \"#utility.yul\":4268:4372   */\n      tag_118\n        /* \"#utility.yul\":4368:4371   */\n      dup5\n        /* \"#utility.yul\":4360:4366   */\n      dup3\n        /* \"#utility.yul\":4353:4357   */\n      0x20\n        /* \"#utility.yul\":4345:4351   */\n      dup7\n        /* \"#utility.yul\":4341:4358   */\n      add\n        /* \"#utility.yul\":4268:4372   */\n      tag_49\n      jump\t// in\n    tag_118:\n        /* \"#utility.yul\":4259:4372   */\n      swap2\n      pop\n        /* \"#utility.yul\":4075:4378   */\n      pop\n        /* \"#utility.yul\":3988:4378   */\n      swap3\n      swap2\n      pop\n      pop\n      jump\t// out\n        /* \"#utility.yul\":4384:5268   */\n    tag_6:\n        /* \"#utility.yul\":4497:4503   */\n      0x00\n        /* \"#utility.yul\":4505:4511   */\n      dup1\n        /* \"#utility.yul\":4554:4556   */\n      0x40\n        /* \"#utility.yul\":4542:4551   */\n      dup4\n        /* \"#utility.yul\":4533:4540   */\n      dup6\n        /* \"#utility.yul\":4529:4552   */\n      sub\n        /* \"#utility.yul\":4525:4557   */\n      slt\n        /* \"#utility.yul\":4522:4641   */\n      iszero\n      tag_120\n      jumpi\n        /* \"#utility.yul\":4560:4639   */\n      tag_121\n      tag_35\n      jump\t// in\n    tag_121:\n        /* \"#utility.yul\":4522:4641   */\n    tag_120:\n        /* \"#utility.yul\":4708:4709   */\n      0x00\n        /* \"#utility.yul\":4697:4706   */\n      dup4\n        /* \"#utility.yul\":4693:4710   */\n      add\n        /* \"#utility.yul\":4680:4711   */\n      calldataload\n        /* \"#utility.yul\":4738:4756   */\n      0xffffffffffffffff\n        /* \"#utility.yul\":4730:4736   */\n      dup2\n        /* \"#utility.yul\":4727:4757   */\n      gt\n        /* \"#utility.yul\":4724:4841   */\n      iszero\n      tag_122\n      jumpi\n        /* \"#utility.yul\":4760:4839   */\n      tag_123\n      tag_36\n      jump\t// in\n    tag_123:\n        /* \"#utility.yul\":4724:4841   */\n    tag_122:\n        /* \"#utility.yul\":4865:4928   */\n      tag_124\n        /* \"#utility.yul\":4920:4927   */\n      dup6\n        /* \"#utility.yul\":4911:4917   */\n      dup3\n        /* \"#utility.yul\":4900:4909   */\n      dup7\n        /* \"#utility.yul\":4896:4918   */\n      add\n        /* \"#utility.yul\":4865:4928   */\n      tag_46\n      jump\t// in\n    tag_124:\n        /* \"#utility.yul\":4855:4928   */\n      swap3\n      pop\n        /* \"#utility.yul\":4651:4938   */\n      pop\n        /* \"#utility.yul\":5005:5007   */\n      0x20\n        /* \"#utility.yul\":4994:5003   */\n      dup4\n        /* \"#utility.yul\":4990:5008   */\n      add\n        /* \"#utility.yul\":4977:5009   */\n      calldataload\n        /* \"#utility.yul\":5036:5054   */\n      0xffffffffffffffff\n        /* \"#utility.yul\":5028:5034   */\n      dup2\n        /* \"#utility.yul\":5025:5055   */\n      gt\n        /* \"#utility.yul\":5022:5139   */\n      iszero\n      tag_125\n      jumpi\n        /* \"#utility.yul\":5058:5137   */\n      tag_126\n      tag_36\n      jump\t// in\n    tag_126:\n        /* \"#utility.yul\":5022:5139   */\n    tag_125:\n        /* \"#utility.yul\":5163:5251   */\n      tag_127\n        /* \"#utility.yul\":5243:5250   */\n      dup6\n        /* \"#utility.yul\":5234:5240   */\n      dup3\n        /* \"#utility.yul\":5223:5232   */\n      dup7\n        /* \"#utility.yul\":5219:5241   */\n      add\n        /* \"#utility.yul\":5163:5251   */\n      tag_50\n      jump\t// in\n    tag_127:\n        /* \"#utility.yul\":5153:5251   */\n      swap2\n      pop\n        /* \"#utility.yul\":4948:5261   */\n      pop\n        /* \"#utility.yul\":4384:5268   */\n      swap3\n      pop\n      swap3\n      swap1\n      pop\n      jump\t// out\n        /* \"#utility.yul\":5274:5351   */\n    tag_51:\n        /* \"#utility.yul\":5311:5318   */\n      0x00\n        /* \"#utility.yul\":5340:5345   */\n      dup2\n        /* \"#utility.yul\":5329:5345   */\n      swap1\n      pop\n        /* \"#utility.yul\":5274:5351   */\n      swap2\n      swap1\n      pop\n      jump\t// out\n        /* \"#utility.yul\":5357:5537   */\n    tag_52:\n        /* \"#utility.yul\":5405:5482   */\n      0x4e487b7100000000000000000000000000000000000000000000000000000000\n        /* \"#utility.yul\":5402:5403   */\n      0x00\n        /* \"#utility.yul\":5395:5483   */\n      mstore\n        /* \"#utility.yul\":5502:5506   */\n      0x11\n        /* \"#utility.yul\":5499:5500   */\n      0x04\n        /* \"#utility.yul\":5492:5507   */\n      mstore\n        /* \"#utility.yul\":5526:5530   */\n      0x24\n        /* \"#utility.yul\":5523:5524   */\n      0x00\n        /* \"#utility.yul\":5516:5531   */\n      revert\n        /* \"#utility.yul\":5543:5734   */\n    tag_10:\n        /* \"#utility.yul\":5583:5586   */\n      0x00\n        /* \"#utility.yul\":5602:5622   */\n      tag_131\n        /* \"#utility.yul\":5620:5621   */\n      dup3\n        /* \"#utility.yul\":5602:5622   */\n      tag_51\n      jump\t// in\n    tag_131:\n        /* \"#utility.yul\":5597:5622   */\n      swap2\n      pop\n        /* \"#utility.yul\":5636:5656   */\n      tag_132\n        /* \"#utility.yul\":5654:5655   */\n      dup4\n        /* \"#utility.yul\":5636:5656   */\n      tag_51\n      jump\t// in\n    tag_132:\n        /* \"#utility.yul\":5631:5656   */\n      swap3\n      pop\n        /* \"#utility.yul\":5679:5680   */\n      dup3\n        /* \"#utility.yul\":5676:5677   */\n      dup3\n        /* \"#utility.yul\":5672:5681   */\n      add\n        /* \"#utility.yul\":5665:5681   */\n      swap1\n      pop\n        /* \"#utility.yul\":5700:5703   */\n      dup1\n        /* \"#utility.yul\":5697:5698   */\n      dup3\n        /* \"#utility.yul\":5694:5704   */\n      gt\n        /* \"#utility.yul\":5691:5727   */\n      iszero\n      tag_133\n      jumpi\n        /* \"#utility.yul\":5707:5725   */\n      tag_134\n      tag_52\n      jump\t// in\n    tag_134:\n        /* \"#utility.yul\":5691:5727   */\n    tag_133:\n        /* \"#utility.yul\":5543:5734   */\n      swap3\n      swap2\n      pop\n      pop\n      jump\t// out\n        /* \"#utility.yul\":5740:5839   */\n    tag_53:\n        /* \"#utility.yul\":5792:5798   */\n      0x00\n        /* \"#utility.yul\":5826:5831   */\n      dup2\n        /* \"#utility.yul\":5820:5832   */\n      mload\n        /* \"#utility.yul\":5810:5832   */\n      swap1\n      pop\n        /* \"#utility.yul\":5740:5839   */\n      swap2\n      swap1\n      pop\n      jump\t// out\n        /* \"#utility.yul\":5845:6025   */\n    tag_54:\n        /* \"#utility.yul\":5893:5970   */\n      0x4e487b7100000000000000000000000000000000000000000000000000000000\n        /* \"#utility.yul\":5890:5891   */\n      0x00\n        /* \"#utility.yul\":5883:5971   */\n      mstore\n        /* \"#utility.yul\":5990:5994   */\n      0x22\n        /* \"#utility.yul\":5987:5988   */\n      0x04\n        /* \"#utility.yul\":5980:5995   */\n      mstore\n        /* \"#utility.yul\":6014:6018   */\n      0x24\n        /* \"#utility.yul\":6011:6012   */\n      0x00\n        /* \"#utility.yul\":6004:6019   */\n      revert\n        /* \"#utility.yul\":6031:6351   */\n    tag_27:\n        /* \"#utility.yul\":6075:6081   */\n      0x00\n        /* \"#utility.yul\":6112:6113   */\n      0x02\n        /* \"#utility.yul\":6106:6110   */\n      dup3\n        /* \"#utility.yul\":6102:6114   */\n      div\n        /* \"#utility.yul\":6092:6114   */\n      swap1\n      pop\n        /* \"#utility.yul\":6159:6160   */\n      0x01\n        /* \"#utility.yul\":6153:6157   */\n      dup3\n        /* \"#utility.yul\":6149:6161   */\n      and\n        /* \"#utility.yul\":6180:6198   */\n      dup1\n        /* \"#utility.yul\":6170:6251   */\n      tag_138\n      jumpi\n        /* \"#utility.yul\":6236:6240   */\n      0x7f\n        /* \"#utility.yul\":6228:6234   */\n      dup3\n        /* \"#utility.yul\":6224:6241   */\n      and\n        /* \"#utility.yul\":6214:6241   */\n      swap2\n      pop\n        /* \"#utility.yul\":6170:6251   */\n    tag_138:\n        /* \"#utility.yul\":6298:6300   */\n      0x20\n        /* \"#utility.yul\":6290:6296   */\n      dup3\n        /* \"#utility.yul\":6287:6301   */\n      lt\n        /* \"#utility.yul\":6267:6285   */\n      dup2\n        /* \"#utility.yul\":6264:6302   */\n      sub\n        /* \"#utility.yul\":6261:6345   */\n      tag_139\n      jumpi\n        /* \"#utility.yul\":6317:6335   */\n      tag_140\n      tag_54\n      jump\t// in\n    tag_140:\n        /* \"#utility.yul\":6261:6345   */\n    tag_139:\n        /* \"#utility.yul\":6082:6351   */\n      pop\n        /* \"#utility.yul\":6031:6351   */\n      swap2\n      swap1\n      pop\n      jump\t// out\n        /* \"#utility.yul\":6357:6498   */\n    tag_55:\n        /* \"#utility.yul\":6406:6410   */\n      0x00\n        /* \"#utility.yul\":6429:6432   */\n      dup2\n        /* \"#utility.yul\":6421:6432   */\n      swap1\n      pop\n        /* \"#utility.yul\":6452:6455   */\n      dup2\n        /* \"#utility.yul\":6449:6450   */\n      0x00\n        /* \"#utility.yul\":6442:6456   */\n      mstore\n        /* \"#utility.yul\":6486:6490   */\n      0x20\n        /* \"#utility.yul\":6483:6484   */\n      0x00\n        /* \"#utility.yul\":6473:6491   */\n      keccak256\n        /* \"#utility.yul\":6465:6491   */\n      swap1\n      pop\n        /* \"#utility.yul\":6357:6498   */\n      swap2\n      swap1\n      pop\n      jump\t// out\n        /* \"#utility.yul\":6504:6597   */\n    tag_56:\n        /* \"#utility.yul\":6541:6547   */\n      0x00\n        /* \"#utility.yul\":6588:6590   */\n      0x20\n        /* \"#utility.yul\":6583:6585   */\n      0x1f\n        /* \"#utility.yul\":6576:6581   */\n      dup4\n        /* \"#utility.yul\":6572:6586   */\n      add\n        /* \"#utility.yul\":6568:6591   */\n      div\n        /* \"#utility.yul\":6558:6591   */\n      swap1\n      pop\n        /* \"#utility.yul\":6504:6597   */\n      swap2\n      swap1\n      pop\n      jump\t// out\n        /* \"#utility.yul\":6603:6710   */\n    tag_57:\n        /* \"#utility.yul\":6647:6655   */\n      0x00\n        /* \"#utility.yul\":6697:6702   */\n      dup3\n        /* \"#utility.yul\":6691:6695   */\n      dup3\n        /* \"#utility.yul\":6687:6703   */\n      shl\n        /* \"#utility.yul\":6666:6703   */\n      swap1\n      pop\n        /* \"#utility.yul\":6603:6710   */\n      swap3\n      swap2\n      pop\n      pop\n      jump\t// out\n        /* \"#utility.yul\":6716:7109   */\n    tag_58:\n        /* \"#utility.yul\":6785:6791   */\n      0x00\n        /* \"#utility.yul\":6835:6836   */\n      0x08\n        /* \"#utility.yul\":6823:6833   */\n      dup4\n        /* \"#utility.yul\":6819:6837   */\n      mul\n        /* \"#utility.yul\":6858:6955   */\n      tag_145\n        /* \"#utility.yul\":6888:6954   */\n      0xffffffffffffffffffffffffffffffffffffffffffffffffffffffffffffffff\n        /* \"#utility.yul\":6877:6886   */\n      dup3\n        /* \"#utility.yul\":6858:6955   */\n      tag_57\n      jump\t// in\n    tag_145:\n        /* \"#utility.yul\":6976:7015   */\n      tag_146\n        /* \"#utility.yul\":7006:7014   */\n      dup7\n        /* \"#utility.yul\":6995:7004   */\n      dup4\n        /* \"#utility.yul\":6976:7015   */\n      tag_57\n      jump\t// in\n    tag_146:\n        /* \"#utility.yul\":6964:7015   */\n      swap6\n      pop\n        /* \"#utility.yul\":7048:7052   */\n      dup1\n        /* \"#utility.yul\":7044:7053   */\n      not\n        /* \"#utility.yul\":7037:7042   */\n      dup5\n        /* \"#utility.yul\":7033:7054   */\n      and\n        /* \"#utility.yul\":7024:7054   */\n      swap4\n      pop\n        /* \"#utility.yul\":7097:7101   */\n      dup1\n        /* \"#utility.yul\":7087:7095   */\n      dup7\n        /* \"#utility.yul\":7083:7102   */\n      and\n        /* \"#utility.yul\":7076:7081   */\n      dup5\n        /* \"#utility.yul\":7073:7103   */\n      or\n        /* \"#utility.yul\":7063:7103   */\n      swap3\n      pop\n        /* \"#utility.yul\":6792:7109   */\n      pop\n      pop\n        /* \"#utility.yul\":6716:7109   */\n      swap4\n      swap3\n      pop\n      pop\n      pop\n      jump\t// out\n        /* \"#utility.yul\":7115:7175   */\n    tag_59:\n        /* \"#utility.yul\":7143:7146   */\n      0x00\n        /* \"#utility.yul\":7164:7169   */\n      dup2\n        /* \"#utility.yul\":7157:7169   */\n      swap1\n      pop\n        /* \"#utility.yul\":7115:7175   */\n      swap2\n      swap1\n      pop\n      jump\t// out\n        /* \"#utility.yul\":7181:7323   */\n    tag_60:\n        /* \"#utility.yul\":7231:7240   */\n      0x00\n        /* \"#utility.yul\":7264:7317   */\n      tag_149\n        /* \"#utility.yul\":7282:7316   */\n      tag_150\n        /* \"#utility.yul\":7291:7315   */\n      tag_151\n        /* \"#utility.yul\":7309:7314   */\n      dup5\n        /* \"#utility.yul\":7291:7315   */\n      tag_51\n      jump\t// in\n    tag_151:\n        /* \"#utility.yul\":7282:7316   */\n      tag_59\n      jump\t// in\n    tag_150:\n        /* \"#utility.yul\":7264:7317   */\n      tag_51\n      jump\t// in\n    tag_149:\n        /* \"#utility.yul\":7251:7317   */\n      swap1\n      pop\n        /* \"#utility.yul\":7181:7323   */\n      swap2\n      swap1\n      pop\n      jump\t// out\n        /* \"#utility.yul\":7329:7404   */\n    tag_61:\n        /* \"#utility.yul\":7372:7375   */\n      0x00\n        /* \"#utility.yul\":7393:7398   */\n      dup2\n        /* \"#utility.yul\":7386:7398   */\n      swap1\n      pop\n        /* \"#utility.yul\":7329:7404   */\n      swap2\n      swap1\n      pop\n      jump\t// out\n        /* \"#utility.yul\":7410:7679   */\n    tag_62:\n        /* \"#utility.yul\":7520:7559   */\n      tag_154\n        /* \"#utility.yul\":7551:7558   */\n      dup4\n        /* \"#utility.yul\":7520:7559   */\n      tag_60\n      jump\t// in\n    tag_154:\n        /* \"#utility.yul\":7581:7672   */\n      tag_155\n        /* \"#utility.yul\":7630:7671   */\n      tag_156\n        /* \"#utility.yul\":7654:7670   */\n      dup3\n        /* \"#utility.yul\":7630:7671   */\n      tag_61\n      jump\t// in\n    tag_156:\n        /* \"#utility.yul\":7622:7628   */\n      dup5\n        /* \"#utility.yul\":7615:7619   */\n      dup5\n        /* \"#utility.yul\":7609:7620   */\n      sload\n        /* \"#utility.yul\":7581:7672   */\n      tag_58\n      jump\t// in\n    tag_155:\n        /* \"#utility.yul\":7575:7579   */\n      dup3\n        /* \"#utility.yul\":7568:7673   */\n      sstore\n        /* \"#utility.yul\":7486:7679   */\n      pop\n        /* \"#utility.yul\":7410:7679   */\n      pop\n      pop\n      pop\n      jump\t// out\n        /* \"#utility.yul\":7685:7758   */\n    tag_63:\n        /* \"#utility.yul\":7730:7733   */\n      0x00\n        /* \"#utility.yul\":7685:7758   */\n      swap1\n      jump\t// out\n        /* \"#utility.yul\":7764:7953   */\n    tag_64:\n        /* \"#utility.yul\":7841:7873   */\n      tag_159\n      tag_63\n      jump\t// in\n    tag_159:\n        /* \"#utility.yul\":7882:7947   */\n      tag_160\n        /* \"#utility.yul\":7940:7946   */\n      dup2\n        /* \"#utility.yul\":7932:7938   */\n      dup5\n        /* \"#utility.yul\":7926:7930   */\n      dup5\n        /* \"#utility.yul\":7882:7947   */\n      tag_62\n      jump\t// in\n    tag_160:\n        /* \"#utility.yul\":7817:7953   */\n      pop\n        /* \"#utility.yul\":7764:7953   */\n      pop\n      pop\n      jump\t// out\n        /* \"#utility.yul\":7959:8145   */\n    tag_65:\n        /* \"#utility.yul\":8019:8139   */\n    tag_162:\n        /* \"#utility.yul\":8036:8039   */\n      dup2\n        /* \"#utility.yul\":8029:8034   */\n      dup2\n        /* \"#utility.yul\":8026:8040   */\n      lt\n        /* \"#utility.yul\":8019:8139   */\n      iszero\n      tag_164\n      jumpi\n        /* \"#utility.yul\":8090:8129   */\n      tag_165\n        /* \"#utility.yul\":8127:8128   */\n      0x00\n        /* \"#utility.yul\":8120:8125   */\n      dup3\n        /* \"#utility.yul\":8090:8129   */\n      tag_64\n      jump\t// in\n    tag_165:\n        /* \"#utility.yul\":8063:8064   */\n      0x01\n        /* \"#utility.yul\":8056:8061   */\n      dup2\n        /* \"#utility.yul\":8052:8065   */\n      add\n        /* \"#utility.yul\":8043:8065   */\n      swap1\n      pop\n        /* \"#utility.yul\":8019:8139   */\n      jump(tag_162)\n    tag_164:\n        /* \"#utility.yul\":7959:8145   */\n      pop\n      pop\n      jump\t// out\n        /* \"#utility.yul\":8151:8694   */\n    tag_66:\n        /* \"#utility.yul\":8252:8254   */\n      0x1f\n        /* \"#utility.yul\":8247:8250   */\n      dup3\n        /* \"#utility.yul\":8244:8255   */\n      gt\n        /* \"#utility.yul\":8241:8687   */\n      iszero\n      tag_167\n      jumpi\n        /* \"#utility.yul\":8286:8324   */\n      tag_168\n        /* \"#utility.yul\":8318:8323   */\n      dup2\n        /* \"#utility.yul\":8286:8324   */\n      tag_55\n      jump\t// in\n    tag_168:\n        /* \"#utility.yul\":8370:8399   */\n      tag_169\n        /* \"#utility.yul\":8388:8398   */\n      dup5\n        /* \"#utility.yul\":8370:8399   */\n      tag_56\n      jump\t// in\n    tag_169:\n        /* \"#utility.yul\":8360:8368   */\n      dup2\n        /* \"#utility.yul\":8356:8400   */\n      add\n        /* \"#utility.yul\":8553:8555   */\n      0x20\n        /* \"#utility.yul\":8541:8551   */\n      dup6\n        /* \"#utility.yul\":8538:8556   */\n      lt\n        /* \"#utility.yul\":8535:8584   */\n      iszero\n      tag_170\n      jumpi\n        /* \"#utility.yul\":8574:8582   */\n      dup2\n        /* \"#utility.yul\":8559:8582   */\n      swap1\n      pop\n        /* \"#utility.yul\":8535:8584   */\n    tag_170:\n        /* \"#utility.yul\":8597:8677   */\n      tag_171\n        /* \"#utility.yul\":8653:8675   */\n      tag_172\n        /* \"#utility.yul\":8671:8674   */\n      dup6\n        /* \"#utility.yul\":8653:8675   */\n      tag_56\n      jump\t// in\n    tag_172:\n        /* \"#utility.yul\":8643:8651   */\n      dup4\n        /* \"#utility.yul\":8639:8676   */\n      add\n        /* \"#utility.yul\":8626:8637   */\n      dup3\n        /* \"#utility.yul\":8597:8677   */\n      tag_65\n      jump\t// in\n    tag_171:\n        /* \"#utility.yul\":8256:8687   */\n      pop\n      pop\n        /* \"#utility.yul\":8241:8687   */\n    tag_167:\n        /* \"#utility.yul\":8151:8694   */\n      pop\n      pop\n      pop\n      jump\t// out\n        /* \"#utility.yul\":8700:8817   */\n    tag_67:\n        /* \"#utility.yul\":8754:8762   */\n      0x00\n        /* \"#utility.yul\":8804:8809   */\n      dup3\n        /* \"#utility.yul\":8798:8802   */\n      dup3\n        /* \"#utility.yul\":8794:8810   */\n      shr\n        /* \"#utility.yul\":8773:8810   */\n      swap1\n      pop\n        /* \"#utility.yul\":8700:8817   */\n      swap3\n      swap2\n      pop\n      pop\n      jump\t// out\n        /* \"#utility.yul\":8823:8992   */\n    tag_68:\n        /* \"#utility.yul\":8867:8873   */\n      0x00\n        /* \"#utility.yul\":8900:8951   */\n      tag_175\n        /* \"#utility.yul\":8948:8949   */\n      0x00\n        /* \"#utility.yul\":8944:8950   */\n      not\n        /* \"#utility.yul\":8936:8941   */\n      dup5\n        /* \"#utility.yul\":8933:8934   */\n      0x08\n        /* \"#utility.yul\":8929:8942   */\n      mul\n        /* \"#utility.yul\":8900:8951   */\n      tag_67\n      jump\t// in\n    tag_175:\n        /* \"#utility.yul\":8896:8952   */\n      not\n        /* \"#utility.yul\":8981:8985   */\n      dup1\n        /* \"#utility.yul\":8975:8979   */\n      dup4\n        /* \"#utility.yul\":8971:8986   */\n      and\n        /* \"#utility.yul\":8961:8986   */\n      swap2\n      pop\n        /* \"#utility.yul\":8874:8992   */\n      pop\n        /* \"#utility.yul\":8823:8992   */\n      swap3\n      swap2\n      pop\n      pop\n      jump\t// out\n        /* \"#utility.yul\":8997:9292   */\n    tag_69:\n        /* \"#utility.yul\":9073:9077   */\n      0x00\n        /* \"#utility.yul\":9219:9248   */\n      tag_177\n        /* \"#utility.yul\":9244:9247   */\n      dup4\n        /* \"#utility.yul\":9238:9242   */\n      dup4\n        /* \"#utility.yul\":9219:9248   */\n      tag_68\n      jump\t// in\n    tag_177:\n        /* \"#utility.yul\":9211:9248   */\n      swap2\n      pop\n        /* \"#utility.yul\":9281:9284   */\n      dup3\n        /* \"#utility.yul\":9278:9279   */\n      0x02\n        /* \"#utility.yul\":9274:9285   */\n      mul\n        /* \"#utility.yul\":9268:9272   */\n      dup3\n        /* \"#utility.yul\":9265:9286   */\n      or\n        /* \"#utility.yul\":9257:9286   */\n      swap1\n      pop\n        /* \"#utility.yul\":8997:9292   */\n      swap3\n      swap2\n      pop\n      pop\n      jump\t// out\n        /* \"#utility.yul\":9297:10692   */\n    tag_13:\n        /* \"#utility.yul\":9414:9451   */\n      tag_179\n        /* \"#utility.yul\":9447:9450   */\n      dup3\n        /* \"#utility.yul\":9414:9451   */\n      tag_53\n      jump\t// in\n    tag_179:\n        /* \"#utility.yul\":9516:9534   */\n      0xffffffffffffffff\n        /* \"#utility.yul\":9508:9514   */\n      dup2\n        /* \"#utility.yul\":9505:9535   */\n      gt\n        /* \"#utility.yul\":9502:9558   */\n      iszero\n      tag_180\n      jumpi\n        /* \"#utility.yul\":9538:9556   */\n      tag_181\n      tag_40\n      jump\t// in\n    tag_181:\n        /* \"#utility.yul\":9502:9558   */\n    tag_180:\n        /* \"#utility.yul\":9582:9620   */\n      tag_182\n        /* \"#utility.yul\":9614:9618   */\n      dup3\n        /* \"#utility.yul\":9608:9619   */\n      sload\n        /* \"#utility.yul\":9582:9620   */\n      tag_27\n      jump\t// in\n    tag_182:\n        /* \"#utility.yul\":9667:9734   */\n      tag_183\n        /* \"#utility.yul\":9727:9733   */\n      dup3\n        /* \"#utility.yul\":9719:9725   */\n      dup3\n        /* \"#utility.yul\":9713:9717   */\n      dup6\n        /* \"#utility.yul\":9667:9734   */\n      tag_66\n      jump\t// in\n    tag_183:\n        /* \"#utility.yul\":9761:9762   */\n      0x00\n        /* \"#utility.yul\":9785:9789   */\n      0x20\n        /* \"#utility.yul\":9772:9789   */\n      swap1\n      pop\n        /* \"#utility.yul\":9817:9819   */\n      0x1f\n        /* \"#utility.yul\":9809:9815   */\n      dup4\n        /* \"#utility.yul\":9806:9820   */\n      gt\n        /* \"#utility.yul\":9834:9835   */\n      0x01\n        /* \"#utility.yul\":9829:10447   */\n      dup2\n      eq\n      tag_185\n      jumpi\n        /* \"#utility.yul\":10491:10492   */\n      0x00\n        /* \"#utility.yul\":10508:10514   */\n      dup5\n        /* \"#utility.yul\":10505:10582   */\n      iszero\n      tag_186\n      jumpi\n        /* \"#utility.yul\":10557:10566   */\n      dup3\n        /* \"#utility.yul\":10552:10555   */\n      dup8\n        /* \"#utility.yul\":10548:10567   */\n      add\n        /* \"#utility.yul\":10542:10568   */\n      mload\n        /* \"#utility.yul\":10533:10568   */\n      swap1\n      pop\n        /* \"#utility.yul\":10505:10582   */\n    tag_186:\n        /* \"#utility.yul\":10608:10675   */\n      tag_187\n        /* \"#utility.yul\":10668:10674   */\n      dup6\n        /* \"#utility.yul\":10661:10666   */\n      dup3\n        /* \"#utility.yul\":10608:10675   */\n      tag_69\n      jump\t// in\n    tag_187:\n        /* \"#utility.yul\":10602:10606   */\n      dup7\n        /* \"#utility.yul\":10595:10676   */\n      sstore\n        /* \"#utility.yul\":10464:10686   */\n      pop\n        /* \"#utility.yul\":9799:10686   */\n      jump(tag_184)\n        /* \"#utility.yul\":9829:10447   */\n    tag_185:\n        /* \"#utility.yul\":9881:9885   */\n      0x1f\n        /* \"#utility.yul\":9877:9886   */\n      not\n        /* \"#utility.yul\":9869:9875   */\n      dup5\n        /* \"#utility.yul\":9865:9887   */\n      and\n        /* \"#utility.yul\":9915:9952   */\n      tag_188\n        /* \"#utility.yul\":9947:9951   */\n      dup7\n        /* \"#utility.yul\":9915:9952   */\n      tag_55\n      jump\t// in\n    tag_188:\n        /* \"#utility.yul\":9974:9975   */\n      0x00\n        /* \"#utility.yul\":9988:10196   */\n    tag_189:\n        /* \"#utility.yul\":10002:10009   */\n      dup3\n        /* \"#utility.yul\":9999:10000   */\n      dup2\n        /* \"#utility.yul\":9996:10010   */\n      lt\n        /* \"#utility.yul\":9988:10196   */\n      iszero\n      tag_191\n      jumpi\n        /* \"#utility.yul\":10081:10090   */\n      dup5\n        /* \"#utility.yul\":10076:10079   */\n      dup10\n        /* \"#utility.yul\":10072:10091   */\n      add\n        /* \"#utility.yul\":10066:10092   */\n      mload\n        /* \"#utility.yul\":10058:10064   */\n      dup3\n        /* \"#utility.yul\":10051:10093   */\n      sstore\n        /* \"#utility.yul\":10132:10133   */\n      0x01\n        /* \"#utility.yul\":10124:10130   */\n      dup3\n        /* \"#utility.yul\":10120:10134   */\n      add\n        /* \"#utility.yul\":10110:10134   */\n      swap2\n      pop\n        /* \"#utility.yul\":10179:10181   */\n      0x20\n        /* \"#utility.yul\":10168:10177   */\n      dup6\n        /* \"#utility.yul\":10164:10182   */\n      add\n        /* \"#utility.yul\":10151:10182   */\n      swap5\n      pop\n        /* \"#utility.yul\":10025:10029   */\n      0x20\n        /* \"#utility.yul\":10022:10023   */\n      dup2\n        /* \"#utility.yul\":10018:10030   */\n      add\n        /* \"#utility.yul\":10013:10030   */\n      swap1\n      pop\n        /* \"#utility.yul\":9988:10196   */\n      jump(tag_189)\n    tag_191:\n        /* \"#utility.yul\":10224:10230   */\n      dup7\n        /* \"#utility.yul\":10215:10222   */\n      dup4\n        /* \"#utility.yul\":10212:10231   */\n      lt\n        /* \"#utility.yul\":10209:10388   */\n      iszero\n      tag_192\n      jumpi\n        /* \"#utility.yul\":10282:10291   */\n      dup5\n        /* \"#utility.yul\":10277:10280   */\n      dup10\n        /* \"#utility.yul\":10273:10292   */\n      add\n        /* \"#utility.yul\":10267:10293   */\n      mload\n        /* \"#utility.yul\":10325:10373   */\n      tag_193\n        /* \"#utility.yul\":10367:10371   */\n      0x1f\n        /* \"#utility.yul\":10359:10365   */\n      dup10\n        /* \"#utility.yul\":10355:10372   */\n      and\n        /* \"#utility.yul\":10344:10353   */\n      dup3\n        /* \"#utility.yul\":10325:10373   */\n      tag_68\n      jump\t// in\n    tag_193:\n        /* \"#utility.yul\":10317:10323   */\n      dup4\n        /* \"#utility.yul\":10310:10374   */\n      sstore\n        /* \"#utility.yul\":10232:10388   */\n      pop\n        /* \"#utility.yul\":10209:10388   */\n    tag_192:\n        /* \"#utility.yul\":10434:10435   */\n      0x01\n        /* \"#utility.yul\":10430:10431   */\n      0x02\n        /* \"#utility.yul\":10422:10428   */\n      dup9\n        /* \"#utility.yul\":10418:10432   */\n      mul\n        /* \"#utility.yul\":10414:10436   */\n      add\n        /* \"#utility.yul\":10408:10412   */\n      dup9\n        /* \"#utility.yul\":10401:10437   */\n      sstore\n        /* \"#utility.yul\":9836:10447   */\n      pop\n      pop\n      pop\n        /* \"#utility.yul\":9799:10686   */\n    tag_184:\n      pop\n        /* \"#utility.yul\":9389:10692   */\n      pop\n      pop\n      pop\n        /* \"#utility.yul\":9297:10692   */\n      pop\n      pop\n      jump\t// out\n\n    auxdata: 0xa2646970667358221220c16dd5ae57a5c6a7948c94487d8a8750c49e4a4d8cc720c278701b35827650de64736f6c634300081a0033\n}\n",
				"bytecode": {
					"linkReferences": {},
					"object": "6080604052348015600e575f80fd5b506107ca8061001c5f395ff3fe608060405234801561000f575f80fd5b5060043610610029575f3560e01c806370d5e2fb1461002d575b5f80fd5b610047600480360381019061004291906103e2565b610049565b005b5f60015f8054905061005b919061048e565b90505f604051806060016040528083815260200185815260200184815250908060018154018082558091505060019003905f5260205f2090600302015f909190919091505f820151815f015560208201518160010190816100bc91906106c5565b5060408201518160020190805190602001906100d99291906100e1565b505050505050565b828054828255905f5260205f20908101928215610127579160200282015b8281111561012657825182908161011691906106c5565b50916020019190600101906100ff565b5b5090506101349190610138565b5090565b5b80821115610157575f818161014e919061015b565b50600101610139565b5090565b508054610167906104f8565b5f825580601f106101785750610195565b601f0160209004905f5260205f20908101906101949190610198565b5b50565b5b808211156101af575f815f905550600101610199565b5090565b5f604051905090565b5f80fd5b5f80fd5b5f80fd5b5f80fd5b5f601f19601f8301169050919050565b7f4e487b71000000000000000000000000000000000000000000000000000000005f52604160045260245ffd5b610212826101cc565b810181811067ffffffffffffffff82111715610231576102306101dc565b5b80604052505050565b5f6102436101b3565b905061024f8282610209565b919050565b5f67ffffffffffffffff82111561026e5761026d6101dc565b5b610277826101cc565b9050602081019050919050565b828183375f83830152505050565b5f6102a461029f84610254565b61023a565b9050828152602081018484840111156102c0576102bf6101c8565b5b6102cb848285610284565b509392505050565b5f82601f8301126102e7576102e66101c4565b5b81356102f7848260208601610292565b91505092915050565b5f67ffffffffffffffff82111561031a576103196101dc565b5b602082029050602081019050919050565b5f80fd5b5f61034161033c84610300565b61023a565b905080838252602082019050602084028301858111156103645761036361032b565b5b835b818110156103ab57803567ffffffffffffffff811115610389576103886101c4565b5b80860161039689826102d3565b85526020850194505050602081019050610366565b5050509392505050565b5f82601f8301126103c9576103c86101c4565b5b81356103d984826020860161032f565b91505092915050565b5f80604083850312156103f8576103f76101bc565b5b5f83013567ffffffffffffffff811115610415576104146101c0565b5b610421858286016102d3565b925050602083013567ffffffffffffffff811115610442576104416101c0565b5b61044e858286016103b5565b9150509250929050565b5f819050919050565b7f4e487b71000000000000000000000000000000000000000000000000000000005f52601160045260245ffd5b5f61049882610458565b91506104a383610458565b92508282019050808211156104bb576104ba610461565b5b92915050565b5f81519050919050565b7f4e487b71000000000000000000000000000000000000000000000000000000005f52602260045260245ffd5b5f600282049050600182168061050f57607f821691505b602082108103610522576105216104cb565b5b50919050565b5f819050815f5260205f209050919050565b5f6020601f8301049050919050565b5f82821b905092915050565b5f600883026105847fffffffffffffffffffffffffffffffffffffffffffffffffffffffffffffffff82610549565b61058e8683610549565b95508019841693508086168417925050509392505050565b5f819050919050565b5f6105c96105c46105bf84610458565b6105a6565b610458565b9050919050565b5f819050919050565b6105e2836105af565b6105f66105ee826105d0565b848454610555565b825550505050565b5f90565b61060a6105fe565b6106158184846105d9565b505050565b5b818110156106385761062d5f82610602565b60018101905061061b565b5050565b601f82111561067d5761064e81610528565b6106578461053a565b81016020851015610666578190505b61067a6106728561053a565b83018261061a565b50505b505050565b5f82821c905092915050565b5f61069d5f1984600802610682565b1980831691505092915050565b5f6106b5838361068e565b9150826002028217905092915050565b6106ce826104c1565b67ffffffffffffffff8111156106e7576106e66101dc565b5b6106f182546104f8565b6106fc82828561063c565b5f60209050601f83116001811461072d575f841561071b578287015190505b61072585826106aa565b86555061078c565b601f19841661073b86610528565b5f5b828110156107625784890151825560018201915060208501945060208101905061073d565b8683101561077f578489015161077b601f89168261068e565b8355505b6001600288020188555050505b50505050505056fea2646970667358221220c16dd5ae57a5c6a7948c94487d8a8750c49e4a4d8cc720c278701b35827650de64736f6c634300081a0033",
					"opcodes": "PUSH1 0x80 PUSH1 0x40 MSTORE CALLVALUE DUP1 ISZERO PUSH1 0xE JUMPI PUSH0 DUP1 REVERT JUMPDEST POP PUSH2 0x7CA DUP1 PUSH2 0x1C PUSH0 CODECOPY PUSH0 RETURN INVALID PUSH1 0x80 PUSH1 0x40 MSTORE CALLVALUE DUP1 ISZERO PUSH2 0xF JUMPI PUSH0 DUP1 REVERT JUMPDEST POP PUSH1 0x4 CALLDATASIZE LT PUSH2 0x29 JUMPI PUSH0 CALLDATALOAD PUSH1 0xE0 SHR DUP1 PUSH4 0x70D5E2FB EQ PUSH2 0x2D JUMPI JUMPDEST PUSH0 DUP1 REVERT JUMPDEST PUSH2 0x47 PUSH1 0x4 DUP1 CALLDATASIZE SUB DUP2 ADD SWAP1 PUSH2 0x42 SWAP2 SWAP1 PUSH2 0x3E2 JUMP JUMPDEST PUSH2 0x49 JUMP JUMPDEST STOP JUMPDEST PUSH0 PUSH1 0x1 PUSH0 DUP1 SLOAD SWAP1 POP PUSH2 0x5B SWAP2 SWAP1 PUSH2 0x48E JUMP JUMPDEST SWAP1 POP PUSH0 PUSH1 0x40 MLOAD DUP1 PUSH1 0x60 ADD PUSH1 0x40 MSTORE DUP1 DUP4 DUP2 MSTORE PUSH1 0x20 ADD DUP6 DUP2 MSTORE PUSH1 0x20 ADD DUP5 DUP2 MSTORE POP SWAP1 DUP1 PUSH1 0x1 DUP2 SLOAD ADD DUP1 DUP3 SSTORE DUP1 SWAP2 POP POP PUSH1 0x1 SWAP1 SUB SWAP1 PUSH0 MSTORE PUSH1 0x20 PUSH0 KECCAK256 SWAP1 PUSH1 0x3 MUL ADD PUSH0 SWAP1 SWAP2 SWAP1 SWAP2 SWAP1 SWAP2 POP PUSH0 DUP3 ADD MLOAD DUP2 PUSH0 ADD SSTORE PUSH1 0x20 DUP3 ADD MLOAD DUP2 PUSH1 0x1 ADD SWAP1 DUP2 PUSH2 0xBC SWAP2 SWAP1 PUSH2 0x6C5 JUMP JUMPDEST POP PUSH1 0x40 DUP3 ADD MLOAD DUP2 PUSH1 0x2 ADD SWAP1 DUP1 MLOAD SWAP1 PUSH1 0x20 ADD SWAP1 PUSH2 0xD9 SWAP3 SWAP2 SWAP1 PUSH2 0xE1 JUMP JUMPDEST POP POP POP POP POP POP JUMP JUMPDEST DUP3 DUP1 SLOAD DUP3 DUP3 SSTORE SWAP1 PUSH0 MSTORE PUSH1 0x20 PUSH0 KECCAK256 SWAP1 DUP2 ADD SWAP3 DUP3 ISZERO PUSH2 0x127 JUMPI SWAP2 PUSH1 0x20 MUL DUP3 ADD JUMPDEST DUP3 DUP2 GT ISZERO PUSH2 0x126 JUMPI DUP3 MLOAD DUP3 SWAP1 DUP2 PUSH2 0x116 SWAP2 SWAP1 PUSH2 0x6C5 JUMP JUMPDEST POP SWAP2 PUSH1 0x20 ADD SWAP2 SWAP1 PUSH1 0x1 ADD SWAP1 PUSH2 0xFF JUMP JUMPDEST JUMPDEST POP SWAP1 POP PUSH2 0x134 SWAP2 SWAP1 PUSH2 0x138 JUMP JUMPDEST POP SWAP1 JUMP JUMPDEST JUMPDEST DUP1 DUP3 GT ISZERO PUSH2 0x157 JUMPI PUSH0 DUP2 DUP2 PUSH2 0x14E SWAP2 SWAP1 PUSH2 0x15B JUMP JUMPDEST POP PUSH1 0x1 ADD PUSH2 0x139 JUMP JUMPDEST POP SWAP1 JUMP JUMPDEST POP DUP1 SLOAD PUSH2 0x167 SWAP1 PUSH2 0x4F8 JUMP JUMPDEST PUSH0 DUP3 SSTORE DUP1 PUSH1 0x1F LT PUSH2 0x178 JUMPI POP PUSH2 0x195 JUMP JUMPDEST PUSH1 0x1F ADD PUSH1 0x20 SWAP1 DIV SWAP1 PUSH0 MSTORE PUSH1 0x20 PUSH0 KECCAK256 SWAP1 DUP2 ADD SWAP1 PUSH2 0x194 SWAP2 SWAP1 PUSH2 0x198 JUMP JUMPDEST JUMPDEST POP JUMP JUMPDEST JUMPDEST DUP1 DUP3 GT ISZERO PUSH2 0x1AF JUMPI PUSH0 DUP2 PUSH0 SWAP1 SSTORE POP PUSH1 0x1 ADD PUSH2 0x199 JUMP JUMPDEST POP SWAP1 JUMP JUMPDEST PUSH0 PUSH1 0x40 MLOAD SWAP1 POP SWAP1 JUMP JUMPDEST PUSH0 DUP1 REVERT JUMPDEST PUSH0 DUP1 REVERT JUMPDEST PUSH0 DUP1 REVERT JUMPDEST PUSH0 DUP1 REVERT JUMPDEST PUSH0 PUSH1 0x1F NOT PUSH1 0x1F DUP4 ADD AND SWAP1 POP SWAP2 SWAP1 POP JUMP JUMPDEST PUSH32 0x4E487B7100000000000000000000000000000000000000000000000000000000 PUSH0 MSTORE PUSH1 0x41 PUSH1 0x4 MSTORE PUSH1 0x24 PUSH0 REVERT JUMPDEST PUSH2 0x212 DUP3 PUSH2 0x1CC JUMP JUMPDEST DUP2 ADD DUP2 DUP2 LT PUSH8 0xFFFFFFFFFFFFFFFF DUP3 GT OR ISZERO PUSH2 0x231 JUMPI PUSH2 0x230 PUSH2 0x1DC JUMP JUMPDEST JUMPDEST DUP1 PUSH1 0x40 MSTORE POP POP POP JUMP JUMPDEST PUSH0 PUSH2 0x243 PUSH2 0x1B3 JUMP JUMPDEST SWAP1 POP PUSH2 0x24F DUP3 DUP3 PUSH2 0x209 JUMP JUMPDEST SWAP2 SWAP1 POP JUMP JUMPDEST PUSH0 PUSH8 0xFFFFFFFFFFFFFFFF DUP3 GT ISZERO PUSH2 0x26E JUMPI PUSH2 0x26D PUSH2 0x1DC JUMP JUMPDEST JUMPDEST PUSH2 0x277 DUP3 PUSH2 0x1CC JUMP JUMPDEST SWAP1 POP PUSH1 0x20 DUP2 ADD SWAP1 POP SWAP2 SWAP1 POP JUMP JUMPDEST DUP3 DUP2 DUP4 CALLDATACOPY PUSH0 DUP4 DUP4 ADD MSTORE POP POP POP JUMP JUMPDEST PUSH0 PUSH2 0x2A4 PUSH2 0x29F DUP5 PUSH2 0x254 JUMP JUMPDEST PUSH2 0x23A JUMP JUMPDEST SWAP1 POP DUP3 DUP2 MSTORE PUSH1 0x20 DUP2 ADD DUP5 DUP5 DUP5 ADD GT ISZERO PUSH2 0x2C0 JUMPI PUSH2 0x2BF PUSH2 0x1C8 JUMP JUMPDEST JUMPDEST PUSH2 0x2CB DUP5 DUP3 DUP6 PUSH2 0x284 JUMP JUMPDEST POP SWAP4 SWAP3 POP POP POP JUMP JUMPDEST PUSH0 DUP3 PUSH1 0x1F DUP4 ADD SLT PUSH2 0x2E7 JUMPI PUSH2 0x2E6 PUSH2 0x1C4 JUMP JUMPDEST JUMPDEST DUP2 CALLDATALOAD PUSH2 0x2F7 DUP5 DUP3 PUSH1 0x20 DUP7 ADD PUSH2 0x292 JUMP JUMPDEST SWAP2 POP POP SWAP3 SWAP2 POP POP JUMP JUMPDEST PUSH0 PUSH8 0xFFFFFFFFFFFFFFFF DUP3 GT ISZERO PUSH2 0x31A JUMPI PUSH2 0x319 PUSH2 0x1DC JUMP JUMPDEST JUMPDEST PUSH1 0x20 DUP3 MUL SWAP1 POP PUSH1 0x20 DUP2 ADD SWAP1 POP SWAP2 SWAP1 POP JUMP JUMPDEST PUSH0 DUP1 REVERT JUMPDEST PUSH0 PUSH2 0x341 PUSH2 0x33C DUP5 PUSH2 0x300 JUMP JUMPDEST PUSH2 0x23A JUMP JUMPDEST SWAP1 POP DUP1 DUP4 DUP3 MSTORE PUSH1 0x20 DUP3 ADD SWAP1 POP PUSH1 0x20 DUP5 MUL DUP4 ADD DUP6 DUP2 GT ISZERO PUSH2 0x364 JUMPI PUSH2 0x363 PUSH2 0x32B JUMP JUMPDEST JUMPDEST DUP4 JUMPDEST DUP2 DUP2 LT ISZERO PUSH2 0x3AB JUMPI DUP1 CALLDATALOAD PUSH8 0xFFFFFFFFFFFFFFFF DUP2 GT ISZERO PUSH2 0x389 JUMPI PUSH2 0x388 PUSH2 0x1C4 JUMP JUMPDEST JUMPDEST DUP1 DUP7 ADD PUSH2 0x396 DUP10 DUP3 PUSH2 0x2D3 JUMP JUMPDEST DUP6 MSTORE PUSH1 0x20 DUP6 ADD SWAP5 POP POP POP PUSH1 0x20 DUP2 ADD SWAP1 POP PUSH2 0x366 JUMP JUMPDEST POP POP POP SWAP4 SWAP3 POP POP POP JUMP JUMPDEST PUSH0 DUP3 PUSH1 0x1F DUP4 ADD SLT PUSH2 0x3C9 JUMPI PUSH2 0x3C8 PUSH2 0x1C4 JUMP JUMPDEST JUMPDEST DUP2 CALLDATALOAD PUSH2 0x3D9 DUP5 DUP3 PUSH1 0x20 DUP7 ADD PUSH2 0x32F JUMP JUMPDEST SWAP2 POP POP SWAP3 SWAP2 POP POP JUMP JUMPDEST PUSH0 DUP1 PUSH1 0x40 DUP4 DUP6 SUB SLT ISZERO PUSH2 0x3F8 JUMPI PUSH2 0x3F7 PUSH2 0x1BC JUMP JUMPDEST JUMPDEST PUSH0 DUP4 ADD CALLDATALOAD PUSH8 0xFFFFFFFFFFFFFFFF DUP2 GT ISZERO PUSH2 0x415 JUMPI PUSH2 0x414 PUSH2 0x1C0 JUMP JUMPDEST JUMPDEST PUSH2 0x421 DUP6 DUP3 DUP7 ADD PUSH2 0x2D3 JUMP JUMPDEST SWAP3 POP POP PUSH1 0x20 DUP4 ADD CALLDATALOAD PUSH8 0xFFFFFFFFFFFFFFFF DUP2 GT ISZERO PUSH2 0x442 JUMPI PUSH2 0x441 PUSH2 0x1C0 JUMP JUMPDEST JUMPDEST PUSH2 0x44E DUP6 DUP3 DUP7 ADD PUSH2 0x3B5 JUMP JUMPDEST SWAP2 POP POP SWAP3 POP SWAP3 SWAP1 POP JUMP JUMPDEST PUSH0 DUP2 SWAP1 POP SWAP2 SWAP1 POP JUMP JUMPDEST PUSH32 0x4E487B7100000000000000000000000000000000000000000000000000000000 PUSH0 MSTORE PUSH1 0x11 PUSH1 0x4 MSTORE PUSH1 0x24 PUSH0 REVERT JUMPDEST PUSH0 PUSH2 0x498 DUP3 PUSH2 0x458 JUMP JUMPDEST SWAP2 POP PUSH2 0x4A3 DUP4 PUSH2 0x458 JUMP JUMPDEST SWAP3 POP DUP3 DUP3 ADD SWAP1 POP DUP1 DUP3 GT ISZERO PUSH2 0x4BB JUMPI PUSH2 0x4BA PUSH2 0x461 JUMP JUMPDEST JUMPDEST SWAP3 SWAP2 POP POP JUMP JUMPDEST PUSH0 DUP2 MLOAD SWAP1 POP SWAP2 SWAP1 POP JUMP JUMPDEST PUSH32 0x4E487B7100000000000000000000000000000000000000000000000000000000 PUSH0 MSTORE PUSH1 0x22 PUSH1 0x4 MSTORE PUSH1 0x24 PUSH0 REVERT JUMPDEST PUSH0 PUSH1 0x2 DUP3 DIV SWAP1 POP PUSH1 0x1 DUP3 AND DUP1 PUSH2 0x50F JUMPI PUSH1 0x7F DUP3 AND SWAP2 POP JUMPDEST PUSH1 0x20 DUP3 LT DUP2 SUB PUSH2 0x522 JUMPI PUSH2 0x521 PUSH2 0x4CB JUMP JUMPDEST JUMPDEST POP SWAP2 SWAP1 POP JUMP JUMPDEST PUSH0 DUP2 SWAP1 POP DUP2 PUSH0 MSTORE PUSH1 0x20 PUSH0 KECCAK256 SWAP1 POP SWAP2 SWAP1 POP JUMP JUMPDEST PUSH0 PUSH1 0x20 PUSH1 0x1F DUP4 ADD DIV SWAP1 POP SWAP2 SWAP1 POP JUMP JUMPDEST PUSH0 DUP3 DUP3 SHL SWAP1 POP SWAP3 SWAP2 POP POP JUMP JUMPDEST PUSH0 PUSH1 0x8 DUP4 MUL PUSH2 0x584 PUSH32 0xFFFFFFFFFFFFFFFFFFFFFFFFFFFFFFFFFFFFFFFFFFFFFFFFFFFFFFFFFFFFFFFF DUP3 PUSH2 0x549 JUMP JUMPDEST PUSH2 0x58E DUP7 DUP4 PUSH2 0x549 JUMP JUMPDEST SWAP6 POP DUP1 NOT DUP5 AND SWAP4 POP DUP1 DUP7 AND DUP5 OR SWAP3 POP POP POP SWAP4 SWAP3 POP POP POP JUMP JUMPDEST PUSH0 DUP2 SWAP1 POP SWAP2 SWAP1 POP JUMP JUMPDEST PUSH0 PUSH2 0x5C9 PUSH2 0x5C4 PUSH2 0x5BF DUP5 PUSH2 0x458 JUMP JUMPDEST PUSH2 0x5A6 JUMP JUMPDEST PUSH2 0x458 JUMP JUMPDEST SWAP1 POP SWAP2 SWAP1 POP JUMP JUMPDEST PUSH0 DUP2 SWAP1 POP SWAP2 SWAP1 POP JUMP JUMPDEST PUSH2 0x5E2 DUP4 PUSH2 0x5AF JUMP JUMPDEST PUSH2 0x5F6 PUSH2 0x5EE DUP3 PUSH2 0x5D0 JUMP JUMPDEST DUP5 DUP5 SLOAD PUSH2 0x555 JUMP JUMPDEST DUP3 SSTORE POP POP POP POP JUMP JUMPDEST PUSH0 SWAP1 JUMP JUMPDEST PUSH2 0x60A PUSH2 0x5FE JUMP JUMPDEST PUSH2 0x615 DUP2 DUP5 DUP5 PUSH2 0x5D9 JUMP JUMPDEST POP POP POP JUMP JUMPDEST JUMPDEST DUP2 DUP2 LT ISZERO PUSH2 0x638 JUMPI PUSH2 0x62D PUSH0 DUP3 PUSH2 0x602 JUMP JUMPDEST PUSH1 0x1 DUP2 ADD SWAP1 POP PUSH2 0x61B JUMP JUMPDEST POP POP JUMP JUMPDEST PUSH1 0x1F DUP3 GT ISZERO PUSH2 0x67D JUMPI PUSH2 0x64E DUP2 PUSH2 0x528 JUMP JUMPDEST PUSH2 0x657 DUP5 PUSH2 0x53A JUMP JUMPDEST DUP2 ADD PUSH1 0x20 DUP6 LT ISZERO PUSH2 0x666 JUMPI DUP2 SWAP1 POP JUMPDEST PUSH2 0x67A PUSH2 0x672 DUP6 PUSH2 0x53A JUMP JUMPDEST DUP4 ADD DUP3 PUSH2 0x61A JUMP JUMPDEST POP POP JUMPDEST POP POP POP JUMP JUMPDEST PUSH0 DUP3 DUP3 SHR SWAP1 POP SWAP3 SWAP2 POP POP JUMP JUMPDEST PUSH0 PUSH2 0x69D PUSH0 NOT DUP5 PUSH1 0x8 MUL PUSH2 0x682 JUMP JUMPDEST NOT DUP1 DUP4 AND SWAP2 POP POP SWAP3 SWAP2 POP POP JUMP JUMPDEST PUSH0 PUSH2 0x6B5 DUP4 DUP4 PUSH2 0x68E JUMP JUMPDEST SWAP2 POP DUP3 PUSH1 0x2 MUL DUP3 OR SWAP1 POP SWAP3 SWAP2 POP POP JUMP JUMPDEST PUSH2 0x6CE DUP3 PUSH2 0x4C1 JUMP JUMPDEST PUSH8 0xFFFFFFFFFFFFFFFF DUP2 GT ISZERO PUSH2 0x6E7 JUMPI PUSH2 0x6E6 PUSH2 0x1DC JUMP JUMPDEST JUMPDEST PUSH2 0x6F1 DUP3 SLOAD PUSH2 0x4F8 JUMP JUMPDEST PUSH2 0x6FC DUP3 DUP3 DUP6 PUSH2 0x63C JUMP JUMPDEST PUSH0 PUSH1 0x20 SWAP1 POP PUSH1 0x1F DUP4 GT PUSH1 0x1 DUP2 EQ PUSH2 0x72D JUMPI PUSH0 DUP5 ISZERO PUSH2 0x71B JUMPI DUP3 DUP8 ADD MLOAD SWAP1 POP JUMPDEST PUSH2 0x725 DUP6 DUP3 PUSH2 0x6AA JUMP JUMPDEST DUP7 SSTORE POP PUSH2 0x78C JUMP JUMPDEST PUSH1 0x1F NOT DUP5 AND PUSH2 0x73B DUP7 PUSH2 0x528 JUMP JUMPDEST PUSH0 JUMPDEST DUP3 DUP2 LT ISZERO PUSH2 0x762 JUMPI DUP5 DUP10 ADD MLOAD DUP3 SSTORE PUSH1 0x1 DUP3 ADD SWAP2 POP PUSH1 0x20 DUP6 ADD SWAP5 POP PUSH1 0x20 DUP2 ADD SWAP1 POP PUSH2 0x73D JUMP JUMPDEST DUP7 DUP4 LT ISZERO PUSH2 0x77F JUMPI DUP5 DUP10 ADD MLOAD PUSH2 0x77B PUSH1 0x1F DUP10 AND DUP3 PUSH2 0x68E JUMP JUMPDEST DUP4 SSTORE POP JUMPDEST PUSH1 0x1 PUSH1 0x2 DUP9 MUL ADD DUP9 SSTORE POP POP POP JUMPDEST POP POP POP POP POP POP JUMP INVALID LOG2 PUSH5 0x6970667358 0x22 SLT KECCAK256 0xC1 PUSH14 0xD5AE57A5C6A7948C94487D8A8750 0xC4 SWAP15 BLOBBASEFEE 0x4D DUP13 0xC7 KECCAK256 0xC2 PUSH25 0x701B35827650DE64736F6C634300081A003300000000000000 "
				},
				"gasEstimates": {
					"creation": {
						"codeDepositCost": "398800",
						"executionCost": "434",
						"totalCost": "399234"
					},
					"external": {
						"addStudent(string,string[])": "infinite"
					}
				},
				"methodIdentifiers": {
					"addStudent(string,string[])": "70d5e2fb"
				}
			},
			"storageLayout": {
				"storage": [
					{
						"astId": 122,
						"contract": "Solidity100/Solidity11-20.sol:Question14",
						"label": "students",
						"offset": 0,
						"slot": "0",
						"type": "t_array(t_struct(student)118_storage)dyn_storage"
					}
				],
				"types": {
					"t_array(t_string_storage)dyn_storage": {
						"base": "t_string_storage",
						"encoding": "dynamic_array",
						"label": "string[]",
						"numberOfBytes": "32"
					},
					"t_array(t_struct(student)118_storage)dyn_storage": {
						"base": "t_struct(student)118_storage",
						"encoding": "dynamic_array",
						"label": "struct Question14.student[]",
						"numberOfBytes": "32"
					},
					"t_string_storage": {
						"encoding": "bytes",
						"label": "string",
						"numberOfBytes": "32"
					},
					"t_struct(student)118_storage": {
						"encoding": "inplace",
						"label": "struct Question14.student",
						"members": [
							{
								"astId": 112,
								"contract": "Solidity100/Solidity11-20.sol:Question14",
								"label": "studentId",
								"offset": 0,
								"slot": "0",
								"type": "t_uint256"
							},
							{
								"astId": 114,
								"contract": "Solidity100/Solidity11-20.sol:Question14",
								"label": "name",
								"offset": 0,
								"slot": "1",
								"type": "t_string_storage"
							},
							{
								"astId": 117,
								"contract": "Solidity100/Solidity11-20.sol:Question14",
								"label": "classLists",
								"offset": 0,
								"slot": "2",
								"type": "t_array(t_string_storage)dyn_storage"
							}
						],
						"numberOfBytes": "96"
					},
					"t_uint256": {
						"encoding": "inplace",
						"label": "uint256",
						"numberOfBytes": "32"
					}
				}
			},
			"userdoc": {
				"kind": "user",
				"methods": {},
				"version": 1
			}
		}
	}
}