{
	"Solidity100/Solidity11-20.sol": {
		"Question11": {
			"abi": [
				{
					"inputs": [
						{
							"internalType": "uint256",
							"name": "_a",
							"type": "uint256"
						}
					],
					"name": "onlyEvenNumbers",
					"outputs": [],
					"stateMutability": "nonpayable",
					"type": "function"
				}
			],
			"devdoc": {
				"kind": "dev",
				"methods": {},
				"version": 1
			},
			"evm": {
				"assembly": "    /* \"Solidity100/Solidity11-20.sol\":58:369  contract Question11{... */\n  mstore(0x40, 0x80)\n  callvalue\n  dup1\n  iszero\n  tag_1\n  jumpi\n  0x00\n  dup1\n  revert\ntag_1:\n  pop\n  dataSize(sub_0)\n  dup1\n  dataOffset(sub_0)\n  0x00\n  codecopy\n  0x00\n  return\nstop\n\nsub_0: assembly {\n        /* \"Solidity100/Solidity11-20.sol\":58:369  contract Question11{... */\n      mstore(0x40, 0x80)\n      callvalue\n      dup1\n      iszero\n      tag_1\n      jumpi\n      0x00\n      dup1\n      revert\n    tag_1:\n      pop\n      jumpi(tag_2, lt(calldatasize, 0x04))\n      shr(0xe0, calldataload(0x00))\n      dup1\n      0xf4bdfd7b\n      eq\n      tag_3\n      jumpi\n    tag_2:\n      0x00\n      dup1\n      revert\n        /* \"Solidity100/Solidity11-20.sol\":241:367  function onlyEvenNumbers(uint _a) public {... */\n    tag_3:\n      tag_4\n      0x04\n      dup1\n      calldatasize\n      sub\n      dup2\n      add\n      swap1\n      tag_5\n      swap2\n      swap1\n      tag_6\n      jump\t// in\n    tag_5:\n      tag_7\n      jump\t// in\n    tag_4:\n      stop\n    tag_7:\n        /* \"Solidity100/Solidity11-20.sol\":310:311  0 */\n      0x00\n        /* \"Solidity100/Solidity11-20.sol\":305:306  2 */\n      0x02\n        /* \"Solidity100/Solidity11-20.sol\":300:302  _a */\n      dup3\n        /* \"Solidity100/Solidity11-20.sol\":300:306  _a % 2 */\n      tag_9\n      swap2\n      swap1\n      tag_10\n      jump\t// in\n    tag_9:\n        /* \"Solidity100/Solidity11-20.sol\":300:311  _a % 2 == 0 */\n      eq\n        /* \"Solidity100/Solidity11-20.sol\":292:334  require(_a % 2 == 0, \"not an even number\") */\n      tag_11\n      jumpi\n      mload(0x40)\n      0x08c379a000000000000000000000000000000000000000000000000000000000\n      dup2\n      mstore\n      0x04\n      add\n      tag_12\n      swap1\n      tag_13\n      jump\t// in\n    tag_12:\n      mload(0x40)\n      dup1\n      swap2\n      sub\n      swap1\n      revert\n    tag_11:\n        /* \"Solidity100/Solidity11-20.sol\":344:351  numbers */\n      0x00\n        /* \"Solidity100/Solidity11-20.sol\":357:359  _a */\n      dup2\n        /* \"Solidity100/Solidity11-20.sol\":344:360  numbers.push(_a) */\n      swap1\n      dup1\n      0x01\n      dup2\n      sload\n      add\n      dup1\n      dup3\n      sstore\n      dup1\n      swap2\n      pop\n      pop\n      0x01\n      swap1\n      sub\n      swap1\n      0x00\n      mstore\n      keccak256(0x00, 0x20)\n      add\n      0x00\n      swap1\n      swap2\n      swap1\n      swap2\n      swap1\n      swap2\n      pop\n      sstore\n        /* \"Solidity100/Solidity11-20.sol\":241:367  function onlyEvenNumbers(uint _a) public {... */\n      pop\n      jump\t// out\n        /* \"#utility.yul\":88:205   */\n    tag_16:\n        /* \"#utility.yul\":197:198   */\n      0x00\n        /* \"#utility.yul\":194:195   */\n      dup1\n        /* \"#utility.yul\":187:199   */\n      revert\n        /* \"#utility.yul\":334:411   */\n    tag_18:\n        /* \"#utility.yul\":371:378   */\n      0x00\n        /* \"#utility.yul\":400:405   */\n      dup2\n        /* \"#utility.yul\":389:405   */\n      swap1\n      pop\n        /* \"#utility.yul\":334:411   */\n      swap2\n      swap1\n      pop\n      jump\t// out\n        /* \"#utility.yul\":417:539   */\n    tag_19:\n        /* \"#utility.yul\":490:514   */\n      tag_31\n        /* \"#utility.yul\":508:513   */\n      dup2\n        /* \"#utility.yul\":490:514   */\n      tag_18\n      jump\t// in\n    tag_31:\n        /* \"#utility.yul\":483:488   */\n      dup2\n        /* \"#utility.yul\":480:515   */\n      eq\n        /* \"#utility.yul\":470:533   */\n      tag_32\n      jumpi\n        /* \"#utility.yul\":529:530   */\n      0x00\n        /* \"#utility.yul\":526:527   */\n      dup1\n        /* \"#utility.yul\":519:531   */\n      revert\n        /* \"#utility.yul\":470:533   */\n    tag_32:\n        /* \"#utility.yul\":417:539   */\n      pop\n      jump\t// out\n        /* \"#utility.yul\":545:684   */\n    tag_20:\n        /* \"#utility.yul\":591:596   */\n      0x00\n        /* \"#utility.yul\":629:635   */\n      dup2\n        /* \"#utility.yul\":616:636   */\n      calldataload\n        /* \"#utility.yul\":607:636   */\n      swap1\n      pop\n        /* \"#utility.yul\":645:678   */\n      tag_34\n        /* \"#utility.yul\":672:677   */\n      dup2\n        /* \"#utility.yul\":645:678   */\n      tag_19\n      jump\t// in\n    tag_34:\n        /* \"#utility.yul\":545:684   */\n      swap3\n      swap2\n      pop\n      pop\n      jump\t// out\n        /* \"#utility.yul\":690:1019   */\n    tag_6:\n        /* \"#utility.yul\":749:755   */\n      0x00\n        /* \"#utility.yul\":798:800   */\n      0x20\n        /* \"#utility.yul\":786:795   */\n      dup3\n        /* \"#utility.yul\":777:784   */\n      dup5\n        /* \"#utility.yul\":773:796   */\n      sub\n        /* \"#utility.yul\":769:801   */\n      slt\n        /* \"#utility.yul\":766:885   */\n      iszero\n      tag_36\n      jumpi\n        /* \"#utility.yul\":804:883   */\n      tag_37\n      tag_16\n      jump\t// in\n    tag_37:\n        /* \"#utility.yul\":766:885   */\n    tag_36:\n        /* \"#utility.yul\":924:925   */\n      0x00\n        /* \"#utility.yul\":949:1002   */\n      tag_38\n        /* \"#utility.yul\":994:1001   */\n      dup5\n        /* \"#utility.yul\":985:991   */\n      dup3\n        /* \"#utility.yul\":974:983   */\n      dup6\n        /* \"#utility.yul\":970:992   */\n      add\n        /* \"#utility.yul\":949:1002   */\n      tag_20\n      jump\t// in\n    tag_38:\n        /* \"#utility.yul\":939:1002   */\n      swap2\n      pop\n        /* \"#utility.yul\":895:1012   */\n      pop\n        /* \"#utility.yul\":690:1019   */\n      swap3\n      swap2\n      pop\n      pop\n      jump\t// out\n        /* \"#utility.yul\":1025:1205   */\n    tag_21:\n        /* \"#utility.yul\":1073:1150   */\n      0x4e487b7100000000000000000000000000000000000000000000000000000000\n        /* \"#utility.yul\":1070:1071   */\n      0x00\n        /* \"#utility.yul\":1063:1151   */\n      mstore\n        /* \"#utility.yul\":1170:1174   */\n      0x12\n        /* \"#utility.yul\":1167:1168   */\n      0x04\n        /* \"#utility.yul\":1160:1175   */\n      mstore\n        /* \"#utility.yul\":1194:1198   */\n      0x24\n        /* \"#utility.yul\":1191:1192   */\n      0x00\n        /* \"#utility.yul\":1184:1199   */\n      revert\n        /* \"#utility.yul\":1211:1387   */\n    tag_10:\n        /* \"#utility.yul\":1243:1244   */\n      0x00\n        /* \"#utility.yul\":1260:1280   */\n      tag_41\n        /* \"#utility.yul\":1278:1279   */\n      dup3\n        /* \"#utility.yul\":1260:1280   */\n      tag_18\n      jump\t// in\n    tag_41:\n        /* \"#utility.yul\":1255:1280   */\n      swap2\n      pop\n        /* \"#utility.yul\":1294:1314   */\n      tag_42\n        /* \"#utility.yul\":1312:1313   */\n      dup4\n        /* \"#utility.yul\":1294:1314   */\n      tag_18\n      jump\t// in\n    tag_42:\n        /* \"#utility.yul\":1289:1314   */\n      swap3\n      pop\n        /* \"#utility.yul\":1333:1334   */\n      dup3\n        /* \"#utility.yul\":1323:1358   */\n      tag_43\n      jumpi\n        /* \"#utility.yul\":1338:1356   */\n      tag_44\n      tag_21\n      jump\t// in\n    tag_44:\n        /* \"#utility.yul\":1323:1358   */\n    tag_43:\n        /* \"#utility.yul\":1379:1380   */\n      dup3\n        /* \"#utility.yul\":1376:1377   */\n      dup3\n        /* \"#utility.yul\":1372:1381   */\n      mod\n        /* \"#utility.yul\":1367:1381   */\n      swap1\n      pop\n        /* \"#utility.yul\":1211:1387   */\n      swap3\n      swap2\n      pop\n      pop\n      jump\t// out\n        /* \"#utility.yul\":1393:1562   */\n    tag_22:\n        /* \"#utility.yul\":1477:1488   */\n      0x00\n        /* \"#utility.yul\":1511:1517   */\n      dup3\n        /* \"#utility.yul\":1506:1509   */\n      dup3\n        /* \"#utility.yul\":1499:1518   */\n      mstore\n        /* \"#utility.yul\":1551:1555   */\n      0x20\n        /* \"#utility.yul\":1546:1549   */\n      dup3\n        /* \"#utility.yul\":1542:1556   */\n      add\n        /* \"#utility.yul\":1527:1556   */\n      swap1\n      pop\n        /* \"#utility.yul\":1393:1562   */\n      swap3\n      swap2\n      pop\n      pop\n      jump\t// out\n        /* \"#utility.yul\":1568:1736   */\n    tag_23:\n        /* \"#utility.yul\":1708:1728   */\n      0x6e6f7420616e206576656e206e756d6265720000000000000000000000000000\n        /* \"#utility.yul\":1704:1705   */\n      0x00\n        /* \"#utility.yul\":1696:1702   */\n      dup3\n        /* \"#utility.yul\":1692:1706   */\n      add\n        /* \"#utility.yul\":1685:1729   */\n      mstore\n        /* \"#utility.yul\":1568:1736   */\n      pop\n      jump\t// out\n        /* \"#utility.yul\":1742:2108   */\n    tag_24:\n        /* \"#utility.yul\":1884:1887   */\n      0x00\n        /* \"#utility.yul\":1905:1972   */\n      tag_48\n        /* \"#utility.yul\":1969:1971   */\n      0x12\n        /* \"#utility.yul\":1964:1967   */\n      dup4\n        /* \"#utility.yul\":1905:1972   */\n      tag_22\n      jump\t// in\n    tag_48:\n        /* \"#utility.yul\":1898:1972   */\n      swap2\n      pop\n        /* \"#utility.yul\":1981:2074   */\n      tag_49\n        /* \"#utility.yul\":2070:2073   */\n      dup3\n        /* \"#utility.yul\":1981:2074   */\n      tag_23\n      jump\t// in\n    tag_49:\n        /* \"#utility.yul\":2099:2101   */\n      0x20\n        /* \"#utility.yul\":2094:2097   */\n      dup3\n        /* \"#utility.yul\":2090:2102   */\n      add\n        /* \"#utility.yul\":2083:2102   */\n      swap1\n      pop\n        /* \"#utility.yul\":1742:2108   */\n      swap2\n      swap1\n      pop\n      jump\t// out\n        /* \"#utility.yul\":2114:2533   */\n    tag_13:\n        /* \"#utility.yul\":2280:2284   */\n      0x00\n        /* \"#utility.yul\":2318:2320   */\n      0x20\n        /* \"#utility.yul\":2307:2316   */\n      dup3\n        /* \"#utility.yul\":2303:2321   */\n      add\n        /* \"#utility.yul\":2295:2321   */\n      swap1\n      pop\n        /* \"#utility.yul\":2367:2376   */\n      dup2\n        /* \"#utility.yul\":2361:2365   */\n      dup2\n        /* \"#utility.yul\":2357:2377   */\n      sub\n        /* \"#utility.yul\":2353:2354   */\n      0x00\n        /* \"#utility.yul\":2342:2351   */\n      dup4\n        /* \"#utility.yul\":2338:2355   */\n      add\n        /* \"#utility.yul\":2331:2378   */\n      mstore\n        /* \"#utility.yul\":2395:2526   */\n      tag_51\n        /* \"#utility.yul\":2521:2525   */\n      dup2\n        /* \"#utility.yul\":2395:2526   */\n      tag_24\n      jump\t// in\n    tag_51:\n        /* \"#utility.yul\":2387:2526   */\n      swap1\n      pop\n        /* \"#utility.yul\":2114:2533   */\n      swap2\n      swap1\n      pop\n      jump\t// out\n\n    auxdata: 0xa2646970667358221220d8b4953e8dc099ebd5e11f73dda3b37529e474a98d6ccc1bfc0e321c265e09b064736f6c634300081a0033\n}\n",
				"bytecode": {
					"linkReferences": {},
					"object": "6080604052348015600e575f80fd5b5061022c8061001c5f395ff3fe608060405234801561000f575f80fd5b5060043610610029575f3560e01c8063f4bdfd7b1461002d575b5f80fd5b610047600480360381019061004291906100f6565b610049565b005b5f600282610057919061014e565b14610097576040517f08c379a000000000000000000000000000000000000000000000000000000000815260040161008e906101d8565b60405180910390fd5b5f81908060018154018082558091505060019003905f5260205f20015f909190919091505550565b5f80fd5b5f819050919050565b6100d5816100c3565b81146100df575f80fd5b50565b5f813590506100f0816100cc565b92915050565b5f6020828403121561010b5761010a6100bf565b5b5f610118848285016100e2565b91505092915050565b7f4e487b71000000000000000000000000000000000000000000000000000000005f52601260045260245ffd5b5f610158826100c3565b9150610163836100c3565b92508261017357610172610121565b5b828206905092915050565b5f82825260208201905092915050565b7f6e6f7420616e206576656e206e756d62657200000000000000000000000000005f82015250565b5f6101c260128361017e565b91506101cd8261018e565b602082019050919050565b5f6020820190508181035f8301526101ef816101b6565b905091905056fea2646970667358221220d8b4953e8dc099ebd5e11f73dda3b37529e474a98d6ccc1bfc0e321c265e09b064736f6c634300081a0033",
					"opcodes": "PUSH1 0x80 PUSH1 0x40 MSTORE CALLVALUE DUP1 ISZERO PUSH1 0xE JUMPI PUSH0 DUP1 REVERT JUMPDEST POP PUSH2 0x22C DUP1 PUSH2 0x1C PUSH0 CODECOPY PUSH0 RETURN INVALID PUSH1 0x80 PUSH1 0x40 MSTORE CALLVALUE DUP1 ISZERO PUSH2 0xF JUMPI PUSH0 DUP1 REVERT JUMPDEST POP PUSH1 0x4 CALLDATASIZE LT PUSH2 0x29 JUMPI PUSH0 CALLDATALOAD PUSH1 0xE0 SHR DUP1 PUSH4 0xF4BDFD7B EQ PUSH2 0x2D JUMPI JUMPDEST PUSH0 DUP1 REVERT JUMPDEST PUSH2 0x47 PUSH1 0x4 DUP1 CALLDATASIZE SUB DUP2 ADD SWAP1 PUSH2 0x42 SWAP2 SWAP1 PUSH2 0xF6 JUMP JUMPDEST PUSH2 0x49 JUMP JUMPDEST STOP JUMPDEST PUSH0 PUSH1 0x2 DUP3 PUSH2 0x57 SWAP2 SWAP1 PUSH2 0x14E JUMP JUMPDEST EQ PUSH2 0x97 JUMPI PUSH1 0x40 MLOAD PUSH32 0x8C379A000000000000000000000000000000000000000000000000000000000 DUP2 MSTORE PUSH1 0x4 ADD PUSH2 0x8E SWAP1 PUSH2 0x1D8 JUMP JUMPDEST PUSH1 0x40 MLOAD DUP1 SWAP2 SUB SWAP1 REVERT JUMPDEST PUSH0 DUP2 SWAP1 DUP1 PUSH1 0x1 DUP2 SLOAD ADD DUP1 DUP3 SSTORE DUP1 SWAP2 POP POP PUSH1 0x1 SWAP1 SUB SWAP1 PUSH0 MSTORE PUSH1 0x20 PUSH0 KECCAK256 ADD PUSH0 SWAP1 SWAP2 SWAP1 SWAP2 SWAP1 SWAP2 POP SSTORE POP JUMP JUMPDEST PUSH0 DUP1 REVERT JUMPDEST PUSH0 DUP2 SWAP1 POP SWAP2 SWAP1 POP JUMP JUMPDEST PUSH2 0xD5 DUP2 PUSH2 0xC3 JUMP JUMPDEST DUP2 EQ PUSH2 0xDF JUMPI PUSH0 DUP1 REVERT JUMPDEST POP JUMP JUMPDEST PUSH0 DUP2 CALLDATALOAD SWAP1 POP PUSH2 0xF0 DUP2 PUSH2 0xCC JUMP JUMPDEST SWAP3 SWAP2 POP POP JUMP JUMPDEST PUSH0 PUSH1 0x20 DUP3 DUP5 SUB SLT ISZERO PUSH2 0x10B JUMPI PUSH2 0x10A PUSH2 0xBF JUMP JUMPDEST JUMPDEST PUSH0 PUSH2 0x118 DUP5 DUP3 DUP6 ADD PUSH2 0xE2 JUMP JUMPDEST SWAP2 POP POP SWAP3 SWAP2 POP POP JUMP JUMPDEST PUSH32 0x4E487B7100000000000000000000000000000000000000000000000000000000 PUSH0 MSTORE PUSH1 0x12 PUSH1 0x4 MSTORE PUSH1 0x24 PUSH0 REVERT JUMPDEST PUSH0 PUSH2 0x158 DUP3 PUSH2 0xC3 JUMP JUMPDEST SWAP2 POP PUSH2 0x163 DUP4 PUSH2 0xC3 JUMP JUMPDEST SWAP3 POP DUP3 PUSH2 0x173 JUMPI PUSH2 0x172 PUSH2 0x121 JUMP JUMPDEST JUMPDEST DUP3 DUP3 MOD SWAP1 POP SWAP3 SWAP2 POP POP JUMP JUMPDEST PUSH0 DUP3 DUP3 MSTORE PUSH1 0x20 DUP3 ADD SWAP1 POP SWAP3 SWAP2 POP POP JUMP JUMPDEST PUSH32 0x6E6F7420616E206576656E206E756D6265720000000000000000000000000000 PUSH0 DUP3 ADD MSTORE POP JUMP JUMPDEST PUSH0 PUSH2 0x1C2 PUSH1 0x12 DUP4 PUSH2 0x17E JUMP JUMPDEST SWAP2 POP PUSH2 0x1CD DUP3 PUSH2 0x18E JUMP JUMPDEST PUSH1 0x20 DUP3 ADD SWAP1 POP SWAP2 SWAP1 POP JUMP JUMPDEST PUSH0 PUSH1 0x20 DUP3 ADD SWAP1 POP DUP2 DUP2 SUB PUSH0 DUP4 ADD MSTORE PUSH2 0x1EF DUP2 PUSH2 0x1B6 JUMP JUMPDEST SWAP1 POP SWAP2 SWAP1 POP JUMP INVALID LOG2 PUSH5 0x6970667358 0x22 SLT KECCAK256 0xD8 0xB4 SWAP6 RETURNDATACOPY DUP14 0xC0 SWAP10 0xEB 0xD5 0xE1 0x1F PUSH20 0xDDA3B37529E474A98D6CCC1BFC0E321C265E09B0 PUSH5 0x736F6C6343 STOP ADDMOD BYTE STOP CALLER "
				},
				"gasEstimates": {
					"creation": {
						"codeDepositCost": "111200",
						"executionCost": "157",
						"totalCost": "111357"
					},
					"external": {
						"onlyEvenNumbers(uint256)": "infinite"
					}
				},
				"methodIdentifiers": {
					"onlyEvenNumbers(uint256)": "f4bdfd7b"
				}
			},
			"storageLayout": {
				"storage": [
					{
						"astId": 4,
						"contract": "Solidity100/Solidity11-20.sol:Question11",
						"label": "numbers",
						"offset": 0,
						"slot": "0",
						"type": "t_array(t_uint256)dyn_storage"
					}
				],
				"types": {
					"t_array(t_uint256)dyn_storage": {
						"base": "t_uint256",
						"encoding": "dynamic_array",
						"label": "uint256[]",
						"numberOfBytes": "32"
					},
					"t_uint256": {
						"encoding": "inplace",
						"label": "uint256",
						"numberOfBytes": "32"
					}
				}
			},
			"userdoc": {
				"kind": "user",
				"methods": {},
				"version": 1
			}
		}
	}
}