{
	"Solidity100/Solidity11-20.sol": {
		"Question12": {
			"abi": [
				{
					"inputs": [
						{
							"internalType": "uint256",
							"name": "_a",
							"type": "uint256"
						},
						{
							"internalType": "uint256",
							"name": "_b",
							"type": "uint256"
						},
						{
							"internalType": "uint256",
							"name": "_c",
							"type": "uint256"
						}
					],
					"name": "add",
					"outputs": [
						{
							"internalType": "uint256",
							"name": "",
							"type": "uint256"
						}
					],
					"stateMutability": "pure",
					"type": "function"
				},
				{
					"inputs": [
						{
							"internalType": "uint256",
							"name": "_a",
							"type": "uint256"
						},
						{
							"internalType": "uint256",
							"name": "_b",
							"type": "uint256"
						},
						{
							"internalType": "uint256",
							"name": "_c",
							"type": "uint256"
						}
					],
					"name": "addAndMultiply",
					"outputs": [
						{
							"internalType": "uint256",
							"name": "",
							"type": "uint256"
						}
					],
					"stateMutability": "pure",
					"type": "function"
				},
				{
					"inputs": [
						{
							"internalType": "uint256",
							"name": "_a",
							"type": "uint256"
						},
						{
							"internalType": "uint256",
							"name": "_b",
							"type": "uint256"
						},
						{
							"internalType": "uint256",
							"name": "_c",
							"type": "uint256"
						}
					],
					"name": "multiply",
					"outputs": [
						{
							"internalType": "uint256",
							"name": "",
							"type": "uint256"
						}
					],
					"stateMutability": "pure",
					"type": "function"
				}
			],
			"devdoc": {
				"kind": "dev",
				"methods": {},
				"version": 1
			},
			"evm": {
				"assembly": "    /* \"Solidity100/Solidity11-20.sol\":371:903  contract Question12{... */\n  mstore(0x40, 0x80)\n  callvalue\n  dup1\n  iszero\n  tag_1\n  jumpi\n  0x00\n  dup1\n  revert\ntag_1:\n  pop\n  dataSize(sub_0)\n  dup1\n  dataOffset(sub_0)\n  0x00\n  codecopy\n  0x00\n  return\nstop\n\nsub_0: assembly {\n        /* \"Solidity100/Solidity11-20.sol\":371:903  contract Question12{... */\n      mstore(0x40, 0x80)\n      callvalue\n      dup1\n      iszero\n      tag_1\n      jumpi\n      0x00\n      dup1\n      revert\n    tag_1:\n      pop\n      jumpi(tag_2, lt(calldatasize, 0x04))\n      shr(0xe0, calldataload(0x00))\n      dup1\n      0x17699f22\n      eq\n      tag_3\n      jumpi\n      dup1\n      0x505fb46c\n      eq\n      tag_4\n      jumpi\n      dup1\n      0xb3a9b5f6\n      eq\n      tag_5\n      jumpi\n    tag_2:\n      0x00\n      dup1\n      revert\n        /* \"Solidity100/Solidity11-20.sol\":787:901  function addAndMultiply(uint _a, uint _b, uint _c) public pure returns (uint) {... */\n    tag_3:\n      tag_6\n      0x04\n      dup1\n      calldatasize\n      sub\n      dup2\n      add\n      swap1\n      tag_7\n      swap2\n      swap1\n      tag_8\n      jump\t// in\n    tag_7:\n      tag_9\n      jump\t// in\n    tag_6:\n      mload(0x40)\n      tag_10\n      swap2\n      swap1\n      tag_11\n      jump\t// in\n    tag_10:\n      mload(0x40)\n      dup1\n      swap2\n      sub\n      swap1\n      return\n        /* \"Solidity100/Solidity11-20.sol\":564:667  function add(uint _a, uint _b, uint _c) public pure returns (uint) {... */\n    tag_4:\n      tag_12\n      0x04\n      dup1\n      calldatasize\n      sub\n      dup2\n      add\n      swap1\n      tag_13\n      swap2\n      swap1\n      tag_8\n      jump\t// in\n    tag_13:\n      tag_14\n      jump\t// in\n    tag_12:\n      mload(0x40)\n      tag_15\n      swap2\n      swap1\n      tag_11\n      jump\t// in\n    tag_15:\n      mload(0x40)\n      dup1\n      swap2\n      sub\n      swap1\n      return\n        /* \"Solidity100/Solidity11-20.sol\":673:781  function multiply(uint _a, uint _b, uint _c) public pure returns (uint) {... */\n    tag_5:\n      tag_16\n      0x04\n      dup1\n      calldatasize\n      sub\n      dup2\n      add\n      swap1\n      tag_17\n      swap2\n      swap1\n      tag_8\n      jump\t// in\n    tag_17:\n      tag_18\n      jump\t// in\n    tag_16:\n      mload(0x40)\n      tag_19\n      swap2\n      swap1\n      tag_11\n      jump\t// in\n    tag_19:\n      mload(0x40)\n      dup1\n      swap2\n      sub\n      swap1\n      return\n        /* \"Solidity100/Solidity11-20.sol\":787:901  function addAndMultiply(uint _a, uint _b, uint _c) public pure returns (uint) {... */\n    tag_9:\n        /* \"Solidity100/Solidity11-20.sol\":859:863  uint */\n      0x00\n        /* \"Solidity100/Solidity11-20.sol\":892:894  _c */\n      dup2\n        /* \"Solidity100/Solidity11-20.sol\":887:889  _b */\n      dup4\n        /* \"Solidity100/Solidity11-20.sol\":882:884  _a */\n      dup6\n        /* \"Solidity100/Solidity11-20.sol\":882:889  _a * _b */\n      tag_21\n      swap2\n      swap1\n      tag_22\n      jump\t// in\n    tag_21:\n        /* \"Solidity100/Solidity11-20.sol\":882:894  _a * _b + _c */\n      tag_23\n      swap2\n      swap1\n      tag_24\n      jump\t// in\n    tag_23:\n        /* \"Solidity100/Solidity11-20.sol\":875:894  return _a * _b + _c */\n      swap1\n      pop\n        /* \"Solidity100/Solidity11-20.sol\":787:901  function addAndMultiply(uint _a, uint _b, uint _c) public pure returns (uint) {... */\n      swap4\n      swap3\n      pop\n      pop\n      pop\n      jump\t// out\n        /* \"Solidity100/Solidity11-20.sol\":564:667  function add(uint _a, uint _b, uint _c) public pure returns (uint) {... */\n    tag_14:\n        /* \"Solidity100/Solidity11-20.sol\":625:629  uint */\n      0x00\n        /* \"Solidity100/Solidity11-20.sol\":658:660  _c */\n      dup2\n        /* \"Solidity100/Solidity11-20.sol\":653:655  _b */\n      dup4\n        /* \"Solidity100/Solidity11-20.sol\":648:650  _a */\n      dup6\n        /* \"Solidity100/Solidity11-20.sol\":648:655  _a + _b */\n      tag_26\n      swap2\n      swap1\n      tag_24\n      jump\t// in\n    tag_26:\n        /* \"Solidity100/Solidity11-20.sol\":648:660  _a + _b + _c */\n      tag_27\n      swap2\n      swap1\n      tag_24\n      jump\t// in\n    tag_27:\n        /* \"Solidity100/Solidity11-20.sol\":641:660  return _a + _b + _c */\n      swap1\n      pop\n        /* \"Solidity100/Solidity11-20.sol\":564:667  function add(uint _a, uint _b, uint _c) public pure returns (uint) {... */\n      swap4\n      swap3\n      pop\n      pop\n      pop\n      jump\t// out\n        /* \"Solidity100/Solidity11-20.sol\":673:781  function multiply(uint _a, uint _b, uint _c) public pure returns (uint) {... */\n    tag_18:\n        /* \"Solidity100/Solidity11-20.sol\":739:743  uint */\n      0x00\n        /* \"Solidity100/Solidity11-20.sol\":772:774  _c */\n      dup2\n        /* \"Solidity100/Solidity11-20.sol\":767:769  _b */\n      dup4\n        /* \"Solidity100/Solidity11-20.sol\":762:764  _a */\n      dup6\n        /* \"Solidity100/Solidity11-20.sol\":762:769  _a * _b */\n      tag_29\n      swap2\n      swap1\n      tag_22\n      jump\t// in\n    tag_29:\n        /* \"Solidity100/Solidity11-20.sol\":762:774  _a * _b * _c */\n      tag_30\n      swap2\n      swap1\n      tag_22\n      jump\t// in\n    tag_30:\n        /* \"Solidity100/Solidity11-20.sol\":755:774  return _a * _b * _c */\n      swap1\n      pop\n        /* \"Solidity100/Solidity11-20.sol\":673:781  function multiply(uint _a, uint _b, uint _c) public pure returns (uint) {... */\n      swap4\n      swap3\n      pop\n      pop\n      pop\n      jump\t// out\n        /* \"#utility.yul\":88:205   */\n    tag_32:\n        /* \"#utility.yul\":197:198   */\n      0x00\n        /* \"#utility.yul\":194:195   */\n      dup1\n        /* \"#utility.yul\":187:199   */\n      revert\n        /* \"#utility.yul\":334:411   */\n    tag_34:\n        /* \"#utility.yul\":371:378   */\n      0x00\n        /* \"#utility.yul\":400:405   */\n      dup2\n        /* \"#utility.yul\":389:405   */\n      swap1\n      pop\n        /* \"#utility.yul\":334:411   */\n      swap2\n      swap1\n      pop\n      jump\t// out\n        /* \"#utility.yul\":417:539   */\n    tag_35:\n        /* \"#utility.yul\":490:514   */\n      tag_45\n        /* \"#utility.yul\":508:513   */\n      dup2\n        /* \"#utility.yul\":490:514   */\n      tag_34\n      jump\t// in\n    tag_45:\n        /* \"#utility.yul\":483:488   */\n      dup2\n        /* \"#utility.yul\":480:515   */\n      eq\n        /* \"#utility.yul\":470:533   */\n      tag_46\n      jumpi\n        /* \"#utility.yul\":529:530   */\n      0x00\n        /* \"#utility.yul\":526:527   */\n      dup1\n        /* \"#utility.yul\":519:531   */\n      revert\n        /* \"#utility.yul\":470:533   */\n    tag_46:\n        /* \"#utility.yul\":417:539   */\n      pop\n      jump\t// out\n        /* \"#utility.yul\":545:684   */\n    tag_36:\n        /* \"#utility.yul\":591:596   */\n      0x00\n        /* \"#utility.yul\":629:635   */\n      dup2\n        /* \"#utility.yul\":616:636   */\n      calldataload\n        /* \"#utility.yul\":607:636   */\n      swap1\n      pop\n        /* \"#utility.yul\":645:678   */\n      tag_48\n        /* \"#utility.yul\":672:677   */\n      dup2\n        /* \"#utility.yul\":645:678   */\n      tag_35\n      jump\t// in\n    tag_48:\n        /* \"#utility.yul\":545:684   */\n      swap3\n      swap2\n      pop\n      pop\n      jump\t// out\n        /* \"#utility.yul\":690:1309   */\n    tag_8:\n        /* \"#utility.yul\":767:773   */\n      0x00\n        /* \"#utility.yul\":775:781   */\n      dup1\n        /* \"#utility.yul\":783:789   */\n      0x00\n        /* \"#utility.yul\":832:834   */\n      0x60\n        /* \"#utility.yul\":820:829   */\n      dup5\n        /* \"#utility.yul\":811:818   */\n      dup7\n        /* \"#utility.yul\":807:830   */\n      sub\n        /* \"#utility.yul\":803:835   */\n      slt\n        /* \"#utility.yul\":800:919   */\n      iszero\n      tag_50\n      jumpi\n        /* \"#utility.yul\":838:917   */\n      tag_51\n      tag_32\n      jump\t// in\n    tag_51:\n        /* \"#utility.yul\":800:919   */\n    tag_50:\n        /* \"#utility.yul\":958:959   */\n      0x00\n        /* \"#utility.yul\":983:1036   */\n      tag_52\n        /* \"#utility.yul\":1028:1035   */\n      dup7\n        /* \"#utility.yul\":1019:1025   */\n      dup3\n        /* \"#utility.yul\":1008:1017   */\n      dup8\n        /* \"#utility.yul\":1004:1026   */\n      add\n        /* \"#utility.yul\":983:1036   */\n      tag_36\n      jump\t// in\n    tag_52:\n        /* \"#utility.yul\":973:1036   */\n      swap4\n      pop\n        /* \"#utility.yul\":929:1046   */\n      pop\n        /* \"#utility.yul\":1085:1087   */\n      0x20\n        /* \"#utility.yul\":1111:1164   */\n      tag_53\n        /* \"#utility.yul\":1156:1163   */\n      dup7\n        /* \"#utility.yul\":1147:1153   */\n      dup3\n        /* \"#utility.yul\":1136:1145   */\n      dup8\n        /* \"#utility.yul\":1132:1154   */\n      add\n        /* \"#utility.yul\":1111:1164   */\n      tag_36\n      jump\t// in\n    tag_53:\n        /* \"#utility.yul\":1101:1164   */\n      swap3\n      pop\n        /* \"#utility.yul\":1056:1174   */\n      pop\n        /* \"#utility.yul\":1213:1215   */\n      0x40\n        /* \"#utility.yul\":1239:1292   */\n      tag_54\n        /* \"#utility.yul\":1284:1291   */\n      dup7\n        /* \"#utility.yul\":1275:1281   */\n      dup3\n        /* \"#utility.yul\":1264:1273   */\n      dup8\n        /* \"#utility.yul\":1260:1282   */\n      add\n        /* \"#utility.yul\":1239:1292   */\n      tag_36\n      jump\t// in\n    tag_54:\n        /* \"#utility.yul\":1229:1292   */\n      swap2\n      pop\n        /* \"#utility.yul\":1184:1302   */\n      pop\n        /* \"#utility.yul\":690:1309   */\n      swap3\n      pop\n      swap3\n      pop\n      swap3\n      jump\t// out\n        /* \"#utility.yul\":1315:1433   */\n    tag_37:\n        /* \"#utility.yul\":1402:1426   */\n      tag_56\n        /* \"#utility.yul\":1420:1425   */\n      dup2\n        /* \"#utility.yul\":1402:1426   */\n      tag_34\n      jump\t// in\n    tag_56:\n        /* \"#utility.yul\":1397:1400   */\n      dup3\n        /* \"#utility.yul\":1390:1427   */\n      mstore\n        /* \"#utility.yul\":1315:1433   */\n      pop\n      pop\n      jump\t// out\n        /* \"#utility.yul\":1439:1661   */\n    tag_11:\n        /* \"#utility.yul\":1532:1536   */\n      0x00\n        /* \"#utility.yul\":1570:1572   */\n      0x20\n        /* \"#utility.yul\":1559:1568   */\n      dup3\n        /* \"#utility.yul\":1555:1573   */\n      add\n        /* \"#utility.yul\":1547:1573   */\n      swap1\n      pop\n        /* \"#utility.yul\":1583:1654   */\n      tag_58\n        /* \"#utility.yul\":1651:1652   */\n      0x00\n        /* \"#utility.yul\":1640:1649   */\n      dup4\n        /* \"#utility.yul\":1636:1653   */\n      add\n        /* \"#utility.yul\":1627:1633   */\n      dup5\n        /* \"#utility.yul\":1583:1654   */\n      tag_37\n      jump\t// in\n    tag_58:\n        /* \"#utility.yul\":1439:1661   */\n      swap3\n      swap2\n      pop\n      pop\n      jump\t// out\n        /* \"#utility.yul\":1667:1847   */\n    tag_38:\n        /* \"#utility.yul\":1715:1792   */\n      0x4e487b7100000000000000000000000000000000000000000000000000000000\n        /* \"#utility.yul\":1712:1713   */\n      0x00\n        /* \"#utility.yul\":1705:1793   */\n      mstore\n        /* \"#utility.yul\":1812:1816   */\n      0x11\n        /* \"#utility.yul\":1809:1810   */\n      0x04\n        /* \"#utility.yul\":1802:1817   */\n      mstore\n        /* \"#utility.yul\":1836:1840   */\n      0x24\n        /* \"#utility.yul\":1833:1834   */\n      0x00\n        /* \"#utility.yul\":1826:1841   */\n      revert\n        /* \"#utility.yul\":1853:2263   */\n    tag_22:\n        /* \"#utility.yul\":1893:1900   */\n      0x00\n        /* \"#utility.yul\":1916:1936   */\n      tag_61\n        /* \"#utility.yul\":1934:1935   */\n      dup3\n        /* \"#utility.yul\":1916:1936   */\n      tag_34\n      jump\t// in\n    tag_61:\n        /* \"#utility.yul\":1911:1936   */\n      swap2\n      pop\n        /* \"#utility.yul\":1950:1970   */\n      tag_62\n        /* \"#utility.yul\":1968:1969   */\n      dup4\n        /* \"#utility.yul\":1950:1970   */\n      tag_34\n      jump\t// in\n    tag_62:\n        /* \"#utility.yul\":1945:1970   */\n      swap3\n      pop\n        /* \"#utility.yul\":2005:2006   */\n      dup3\n        /* \"#utility.yul\":2002:2003   */\n      dup3\n        /* \"#utility.yul\":1998:2007   */\n      mul\n        /* \"#utility.yul\":2027:2057   */\n      tag_63\n        /* \"#utility.yul\":2045:2056   */\n      dup2\n        /* \"#utility.yul\":2027:2057   */\n      tag_34\n      jump\t// in\n    tag_63:\n        /* \"#utility.yul\":2016:2057   */\n      swap2\n      pop\n        /* \"#utility.yul\":2206:2207   */\n      dup3\n        /* \"#utility.yul\":2197:2204   */\n      dup3\n        /* \"#utility.yul\":2193:2208   */\n      div\n        /* \"#utility.yul\":2190:2191   */\n      dup5\n        /* \"#utility.yul\":2187:2209   */\n      eq\n        /* \"#utility.yul\":2167:2168   */\n      dup4\n        /* \"#utility.yul\":2160:2169   */\n      iszero\n        /* \"#utility.yul\":2140:2223   */\n      or\n        /* \"#utility.yul\":2117:2256   */\n      tag_64\n      jumpi\n        /* \"#utility.yul\":2236:2254   */\n      tag_65\n      tag_38\n      jump\t// in\n    tag_65:\n        /* \"#utility.yul\":2117:2256   */\n    tag_64:\n        /* \"#utility.yul\":1901:2263   */\n      pop\n        /* \"#utility.yul\":1853:2263   */\n      swap3\n      swap2\n      pop\n      pop\n      jump\t// out\n        /* \"#utility.yul\":2269:2460   */\n    tag_24:\n        /* \"#utility.yul\":2309:2312   */\n      0x00\n        /* \"#utility.yul\":2328:2348   */\n      tag_67\n        /* \"#utility.yul\":2346:2347   */\n      dup3\n        /* \"#utility.yul\":2328:2348   */\n      tag_34\n      jump\t// in\n    tag_67:\n        /* \"#utility.yul\":2323:2348   */\n      swap2\n      pop\n        /* \"#utility.yul\":2362:2382   */\n      tag_68\n        /* \"#utility.yul\":2380:2381   */\n      dup4\n        /* \"#utility.yul\":2362:2382   */\n      tag_34\n      jump\t// in\n    tag_68:\n        /* \"#utility.yul\":2357:2382   */\n      swap3\n      pop\n        /* \"#utility.yul\":2405:2406   */\n      dup3\n        /* \"#utility.yul\":2402:2403   */\n      dup3\n        /* \"#utility.yul\":2398:2407   */\n      add\n        /* \"#utility.yul\":2391:2407   */\n      swap1\n      pop\n        /* \"#utility.yul\":2426:2429   */\n      dup1\n        /* \"#utility.yul\":2423:2424   */\n      dup3\n        /* \"#utility.yul\":2420:2430   */\n      gt\n        /* \"#utility.yul\":2417:2453   */\n      iszero\n      tag_69\n      jumpi\n        /* \"#utility.yul\":2433:2451   */\n      tag_70\n      tag_38\n      jump\t// in\n    tag_70:\n        /* \"#utility.yul\":2417:2453   */\n    tag_69:\n        /* \"#utility.yul\":2269:2460   */\n      swap3\n      swap2\n      pop\n      pop\n      jump\t// out\n\n    auxdata: 0xa264697066735822122086b43d90c26f835d82f377dcb1eb99e914308f36968fde5c16fc26c5067b54ae64736f6c634300081a0033\n}\n",
				"bytecode": {
					"linkReferences": {},
					"object": "6080604052348015600e575f80fd5b506102bc8061001c5f395ff3fe608060405234801561000f575f80fd5b506004361061003f575f3560e01c806317699f2214610043578063505fb46c14610073578063b3a9b5f6146100a3575b5f80fd5b61005d6004803603810190610058919061016d565b6100d3565b60405161006a91906101cc565b60405180910390f35b61008d6004803603810190610088919061016d565b6100f4565b60405161009a91906101cc565b60405180910390f35b6100bd60048036038101906100b8919061016d565b610115565b6040516100ca91906101cc565b60405180910390f35b5f8183856100e19190610212565b6100eb9190610253565b90509392505050565b5f8183856101029190610253565b61010c9190610253565b90509392505050565b5f8183856101239190610212565b61012d9190610212565b90509392505050565b5f80fd5b5f819050919050565b61014c8161013a565b8114610156575f80fd5b50565b5f8135905061016781610143565b92915050565b5f805f6060848603121561018457610183610136565b5b5f61019186828701610159565b93505060206101a286828701610159565b92505060406101b386828701610159565b9150509250925092565b6101c68161013a565b82525050565b5f6020820190506101df5f8301846101bd565b92915050565b7f4e487b71000000000000000000000000000000000000000000000000000000005f52601160045260245ffd5b5f61021c8261013a565b91506102278361013a565b92508282026102358161013a565b9150828204841483151761024c5761024b6101e5565b5b5092915050565b5f61025d8261013a565b91506102688361013a565b92508282019050808211156102805761027f6101e5565b5b9291505056fea264697066735822122086b43d90c26f835d82f377dcb1eb99e914308f36968fde5c16fc26c5067b54ae64736f6c634300081a0033",
					"opcodes": "PUSH1 0x80 PUSH1 0x40 MSTORE CALLVALUE DUP1 ISZERO PUSH1 0xE JUMPI PUSH0 DUP1 REVERT JUMPDEST POP PUSH2 0x2BC DUP1 PUSH2 0x1C PUSH0 CODECOPY PUSH0 RETURN INVALID PUSH1 0x80 PUSH1 0x40 MSTORE CALLVALUE DUP1 ISZERO PUSH2 0xF JUMPI PUSH0 DUP1 REVERT JUMPDEST POP PUSH1 0x4 CALLDATASIZE LT PUSH2 0x3F JUMPI PUSH0 CALLDATALOAD PUSH1 0xE0 SHR DUP1 PUSH4 0x17699F22 EQ PUSH2 0x43 JUMPI DUP1 PUSH4 0x505FB46C EQ PUSH2 0x73 JUMPI DUP1 PUSH4 0xB3A9B5F6 EQ PUSH2 0xA3 JUMPI JUMPDEST PUSH0 DUP1 REVERT JUMPDEST PUSH2 0x5D PUSH1 0x4 DUP1 CALLDATASIZE SUB DUP2 ADD SWAP1 PUSH2 0x58 SWAP2 SWAP1 PUSH2 0x16D JUMP JUMPDEST PUSH2 0xD3 JUMP JUMPDEST PUSH1 0x40 MLOAD PUSH2 0x6A SWAP2 SWAP1 PUSH2 0x1CC JUMP JUMPDEST PUSH1 0x40 MLOAD DUP1 SWAP2 SUB SWAP1 RETURN JUMPDEST PUSH2 0x8D PUSH1 0x4 DUP1 CALLDATASIZE SUB DUP2 ADD SWAP1 PUSH2 0x88 SWAP2 SWAP1 PUSH2 0x16D JUMP JUMPDEST PUSH2 0xF4 JUMP JUMPDEST PUSH1 0x40 MLOAD PUSH2 0x9A SWAP2 SWAP1 PUSH2 0x1CC JUMP JUMPDEST PUSH1 0x40 MLOAD DUP1 SWAP2 SUB SWAP1 RETURN JUMPDEST PUSH2 0xBD PUSH1 0x4 DUP1 CALLDATASIZE SUB DUP2 ADD SWAP1 PUSH2 0xB8 SWAP2 SWAP1 PUSH2 0x16D JUMP JUMPDEST PUSH2 0x115 JUMP JUMPDEST PUSH1 0x40 MLOAD PUSH2 0xCA SWAP2 SWAP1 PUSH2 0x1CC JUMP JUMPDEST PUSH1 0x40 MLOAD DUP1 SWAP2 SUB SWAP1 RETURN JUMPDEST PUSH0 DUP2 DUP4 DUP6 PUSH2 0xE1 SWAP2 SWAP1 PUSH2 0x212 JUMP JUMPDEST PUSH2 0xEB SWAP2 SWAP1 PUSH2 0x253 JUMP JUMPDEST SWAP1 POP SWAP4 SWAP3 POP POP POP JUMP JUMPDEST PUSH0 DUP2 DUP4 DUP6 PUSH2 0x102 SWAP2 SWAP1 PUSH2 0x253 JUMP JUMPDEST PUSH2 0x10C SWAP2 SWAP1 PUSH2 0x253 JUMP JUMPDEST SWAP1 POP SWAP4 SWAP3 POP POP POP JUMP JUMPDEST PUSH0 DUP2 DUP4 DUP6 PUSH2 0x123 SWAP2 SWAP1 PUSH2 0x212 JUMP JUMPDEST PUSH2 0x12D SWAP2 SWAP1 PUSH2 0x212 JUMP JUMPDEST SWAP1 POP SWAP4 SWAP3 POP POP POP JUMP JUMPDEST PUSH0 DUP1 REVERT JUMPDEST PUSH0 DUP2 SWAP1 POP SWAP2 SWAP1 POP JUMP JUMPDEST PUSH2 0x14C DUP2 PUSH2 0x13A JUMP JUMPDEST DUP2 EQ PUSH2 0x156 JUMPI PUSH0 DUP1 REVERT JUMPDEST POP JUMP JUMPDEST PUSH0 DUP2 CALLDATALOAD SWAP1 POP PUSH2 0x167 DUP2 PUSH2 0x143 JUMP JUMPDEST SWAP3 SWAP2 POP POP JUMP JUMPDEST PUSH0 DUP1 PUSH0 PUSH1 0x60 DUP5 DUP7 SUB SLT ISZERO PUSH2 0x184 JUMPI PUSH2 0x183 PUSH2 0x136 JUMP JUMPDEST JUMPDEST PUSH0 PUSH2 0x191 DUP7 DUP3 DUP8 ADD PUSH2 0x159 JUMP JUMPDEST SWAP4 POP POP PUSH1 0x20 PUSH2 0x1A2 DUP7 DUP3 DUP8 ADD PUSH2 0x159 JUMP JUMPDEST SWAP3 POP POP PUSH1 0x40 PUSH2 0x1B3 DUP7 DUP3 DUP8 ADD PUSH2 0x159 JUMP JUMPDEST SWAP2 POP POP SWAP3 POP SWAP3 POP SWAP3 JUMP JUMPDEST PUSH2 0x1C6 DUP2 PUSH2 0x13A JUMP JUMPDEST DUP3 MSTORE POP POP JUMP JUMPDEST PUSH0 PUSH1 0x20 DUP3 ADD SWAP1 POP PUSH2 0x1DF PUSH0 DUP4 ADD DUP5 PUSH2 0x1BD JUMP JUMPDEST SWAP3 SWAP2 POP POP JUMP JUMPDEST PUSH32 0x4E487B7100000000000000000000000000000000000000000000000000000000 PUSH0 MSTORE PUSH1 0x11 PUSH1 0x4 MSTORE PUSH1 0x24 PUSH0 REVERT JUMPDEST PUSH0 PUSH2 0x21C DUP3 PUSH2 0x13A JUMP JUMPDEST SWAP2 POP PUSH2 0x227 DUP4 PUSH2 0x13A JUMP JUMPDEST SWAP3 POP DUP3 DUP3 MUL PUSH2 0x235 DUP2 PUSH2 0x13A JUMP JUMPDEST SWAP2 POP DUP3 DUP3 DIV DUP5 EQ DUP4 ISZERO OR PUSH2 0x24C JUMPI PUSH2 0x24B PUSH2 0x1E5 JUMP JUMPDEST JUMPDEST POP SWAP3 SWAP2 POP POP JUMP JUMPDEST PUSH0 PUSH2 0x25D DUP3 PUSH2 0x13A JUMP JUMPDEST SWAP2 POP PUSH2 0x268 DUP4 PUSH2 0x13A JUMP JUMPDEST SWAP3 POP DUP3 DUP3 ADD SWAP1 POP DUP1 DUP3 GT ISZERO PUSH2 0x280 JUMPI PUSH2 0x27F PUSH2 0x1E5 JUMP JUMPDEST JUMPDEST SWAP3 SWAP2 POP POP JUMP INVALID LOG2 PUSH5 0x6970667358 0x22 SLT KECCAK256 DUP7 0xB4 RETURNDATASIZE SWAP1 0xC2 PUSH16 0x835D82F377DCB1EB99E914308F36968F 0xDE TLOAD AND 0xFC 0x26 0xC5 MOD PUSH28 0x54AE64736F6C634300081A0033000000000000000000000000000000 "
				},
				"gasEstimates": {
					"creation": {
						"codeDepositCost": "140000",
						"executionCost": "181",
						"totalCost": "140181"
					},
					"external": {
						"add(uint256,uint256,uint256)": "infinite",
						"addAndMultiply(uint256,uint256,uint256)": "infinite",
						"multiply(uint256,uint256,uint256)": "infinite"
					}
				},
				"methodIdentifiers": {
					"add(uint256,uint256,uint256)": "505fb46c",
					"addAndMultiply(uint256,uint256,uint256)": "17699f22",
					"multiply(uint256,uint256,uint256)": "b3a9b5f6"
				}
			},
			"storageLayout": {
				"storage": [],
				"types": null
			},
			"userdoc": {
				"kind": "user",
				"methods": {},
				"version": 1
			}
		}
	}
}