{
	"Solidity100/Solidity81-90.sol": {
		"Question82": {
			"abi": [
				{
					"inputs": [
						{
							"internalType": "uint256",
							"name": "_number",
							"type": "uint256"
						}
					],
					"name": "multiples",
					"outputs": [
						{
							"internalType": "uint256",
							"name": "",
							"type": "uint256"
						},
						{
							"internalType": "uint256",
							"name": "",
							"type": "uint256"
						},
						{
							"internalType": "uint256",
							"name": "",
							"type": "uint256"
						}
					],
					"stateMutability": "pure",
					"type": "function"
				}
			],
			"devdoc": {
				"kind": "dev",
				"methods": {},
				"version": 1
			},
			"evm": {
				"assembly": "    /* \"Solidity100/Solidity81-90.sol\":752:1054  contract Question82{... */\n  mstore(0x40, 0x80)\n  callvalue\n  dup1\n  iszero\n  tag_1\n  jumpi\n  0x00\n  dup1\n  revert\ntag_1:\n  pop\n  dataSize(sub_0)\n  dup1\n  dataOffset(sub_0)\n  0x00\n  codecopy\n  0x00\n  return\nstop\n\nsub_0: assembly {\n        /* \"Solidity100/Solidity81-90.sol\":752:1054  contract Question82{... */\n      mstore(0x40, 0x80)\n      callvalue\n      dup1\n      iszero\n      tag_1\n      jumpi\n      0x00\n      dup1\n      revert\n    tag_1:\n      pop\n      jumpi(tag_2, lt(calldatasize, 0x04))\n      shr(0xe0, calldataload(0x00))\n      dup1\n      0x91bc2089\n      eq\n      tag_3\n      jumpi\n    tag_2:\n      0x00\n      dup1\n      revert\n        /* \"Solidity100/Solidity81-90.sol\":918:1052  function multiples(uint _number) public pure returns(uint, uint, uint) {... */\n    tag_3:\n      tag_4\n      0x04\n      dup1\n      calldatasize\n      sub\n      dup2\n      add\n      swap1\n      tag_5\n      swap2\n      swap1\n      tag_6\n      jump\t// in\n    tag_5:\n      tag_7\n      jump\t// in\n    tag_4:\n      mload(0x40)\n      tag_8\n      swap4\n      swap3\n      swap2\n      swap1\n      tag_9\n      jump\t// in\n    tag_8:\n      mload(0x40)\n      dup1\n      swap2\n      sub\n      swap1\n      return\n    tag_7:\n        /* \"Solidity100/Solidity81-90.sol\":971:975  uint */\n      0x00\n        /* \"Solidity100/Solidity81-90.sol\":977:981  uint */\n      dup1\n        /* \"Solidity100/Solidity81-90.sol\":983:987  uint */\n      0x00\n        /* \"Solidity100/Solidity81-90.sol\":1017:1018  3 */\n      0x03\n        /* \"Solidity100/Solidity81-90.sol\":1007:1014  _number */\n      dup5\n        /* \"Solidity100/Solidity81-90.sol\":1007:1018  _number / 3 */\n      tag_11\n      swap2\n      swap1\n      tag_12\n      jump\t// in\n    tag_11:\n        /* \"Solidity100/Solidity81-90.sol\":1030:1031  5 */\n      0x05\n        /* \"Solidity100/Solidity81-90.sol\":1020:1027  _number */\n      dup6\n        /* \"Solidity100/Solidity81-90.sol\":1020:1031  _number / 5 */\n      tag_13\n      swap2\n      swap1\n      tag_12\n      jump\t// in\n    tag_13:\n        /* \"Solidity100/Solidity81-90.sol\":1043:1044  8 */\n      0x08\n        /* \"Solidity100/Solidity81-90.sol\":1033:1040  _number */\n      dup7\n        /* \"Solidity100/Solidity81-90.sol\":1033:1044  _number / 8 */\n      tag_14\n      swap2\n      swap1\n      tag_12\n      jump\t// in\n    tag_14:\n        /* \"Solidity100/Solidity81-90.sol\":999:1045  return (_number / 3, _number / 5, _number / 8) */\n      swap3\n      pop\n      swap3\n      pop\n      swap3\n      pop\n        /* \"Solidity100/Solidity81-90.sol\":918:1052  function multiples(uint _number) public pure returns(uint, uint, uint) {... */\n      swap2\n      swap4\n      swap1\n      swap3\n      pop\n      jump\t// out\n        /* \"#utility.yul\":88:205   */\n    tag_16:\n        /* \"#utility.yul\":197:198   */\n      0x00\n        /* \"#utility.yul\":194:195   */\n      dup1\n        /* \"#utility.yul\":187:199   */\n      revert\n        /* \"#utility.yul\":334:411   */\n    tag_18:\n        /* \"#utility.yul\":371:378   */\n      0x00\n        /* \"#utility.yul\":400:405   */\n      dup2\n        /* \"#utility.yul\":389:405   */\n      swap1\n      pop\n        /* \"#utility.yul\":334:411   */\n      swap2\n      swap1\n      pop\n      jump\t// out\n        /* \"#utility.yul\":417:539   */\n    tag_19:\n        /* \"#utility.yul\":490:514   */\n      tag_30\n        /* \"#utility.yul\":508:513   */\n      dup2\n        /* \"#utility.yul\":490:514   */\n      tag_18\n      jump\t// in\n    tag_30:\n        /* \"#utility.yul\":483:488   */\n      dup2\n        /* \"#utility.yul\":480:515   */\n      eq\n        /* \"#utility.yul\":470:533   */\n      tag_31\n      jumpi\n        /* \"#utility.yul\":529:530   */\n      0x00\n        /* \"#utility.yul\":526:527   */\n      dup1\n        /* \"#utility.yul\":519:531   */\n      revert\n        /* \"#utility.yul\":470:533   */\n    tag_31:\n        /* \"#utility.yul\":417:539   */\n      pop\n      jump\t// out\n        /* \"#utility.yul\":545:684   */\n    tag_20:\n        /* \"#utility.yul\":591:596   */\n      0x00\n        /* \"#utility.yul\":629:635   */\n      dup2\n        /* \"#utility.yul\":616:636   */\n      calldataload\n        /* \"#utility.yul\":607:636   */\n      swap1\n      pop\n        /* \"#utility.yul\":645:678   */\n      tag_33\n        /* \"#utility.yul\":672:677   */\n      dup2\n        /* \"#utility.yul\":645:678   */\n      tag_19\n      jump\t// in\n    tag_33:\n        /* \"#utility.yul\":545:684   */\n      swap3\n      swap2\n      pop\n      pop\n      jump\t// out\n        /* \"#utility.yul\":690:1019   */\n    tag_6:\n        /* \"#utility.yul\":749:755   */\n      0x00\n        /* \"#utility.yul\":798:800   */\n      0x20\n        /* \"#utility.yul\":786:795   */\n      dup3\n        /* \"#utility.yul\":777:784   */\n      dup5\n        /* \"#utility.yul\":773:796   */\n      sub\n        /* \"#utility.yul\":769:801   */\n      slt\n        /* \"#utility.yul\":766:885   */\n      iszero\n      tag_35\n      jumpi\n        /* \"#utility.yul\":804:883   */\n      tag_36\n      tag_16\n      jump\t// in\n    tag_36:\n        /* \"#utility.yul\":766:885   */\n    tag_35:\n        /* \"#utility.yul\":924:925   */\n      0x00\n        /* \"#utility.yul\":949:1002   */\n      tag_37\n        /* \"#utility.yul\":994:1001   */\n      dup5\n        /* \"#utility.yul\":985:991   */\n      dup3\n        /* \"#utility.yul\":974:983   */\n      dup6\n        /* \"#utility.yul\":970:992   */\n      add\n        /* \"#utility.yul\":949:1002   */\n      tag_20\n      jump\t// in\n    tag_37:\n        /* \"#utility.yul\":939:1002   */\n      swap2\n      pop\n        /* \"#utility.yul\":895:1012   */\n      pop\n        /* \"#utility.yul\":690:1019   */\n      swap3\n      swap2\n      pop\n      pop\n      jump\t// out\n        /* \"#utility.yul\":1025:1143   */\n    tag_21:\n        /* \"#utility.yul\":1112:1136   */\n      tag_39\n        /* \"#utility.yul\":1130:1135   */\n      dup2\n        /* \"#utility.yul\":1112:1136   */\n      tag_18\n      jump\t// in\n    tag_39:\n        /* \"#utility.yul\":1107:1110   */\n      dup3\n        /* \"#utility.yul\":1100:1137   */\n      mstore\n        /* \"#utility.yul\":1025:1143   */\n      pop\n      pop\n      jump\t// out\n        /* \"#utility.yul\":1149:1591   */\n    tag_9:\n        /* \"#utility.yul\":1298:1302   */\n      0x00\n        /* \"#utility.yul\":1336:1338   */\n      0x60\n        /* \"#utility.yul\":1325:1334   */\n      dup3\n        /* \"#utility.yul\":1321:1339   */\n      add\n        /* \"#utility.yul\":1313:1339   */\n      swap1\n      pop\n        /* \"#utility.yul\":1349:1420   */\n      tag_41\n        /* \"#utility.yul\":1417:1418   */\n      0x00\n        /* \"#utility.yul\":1406:1415   */\n      dup4\n        /* \"#utility.yul\":1402:1419   */\n      add\n        /* \"#utility.yul\":1393:1399   */\n      dup7\n        /* \"#utility.yul\":1349:1420   */\n      tag_21\n      jump\t// in\n    tag_41:\n        /* \"#utility.yul\":1430:1502   */\n      tag_42\n        /* \"#utility.yul\":1498:1500   */\n      0x20\n        /* \"#utility.yul\":1487:1496   */\n      dup4\n        /* \"#utility.yul\":1483:1501   */\n      add\n        /* \"#utility.yul\":1474:1480   */\n      dup6\n        /* \"#utility.yul\":1430:1502   */\n      tag_21\n      jump\t// in\n    tag_42:\n        /* \"#utility.yul\":1512:1584   */\n      tag_43\n        /* \"#utility.yul\":1580:1582   */\n      0x40\n        /* \"#utility.yul\":1569:1578   */\n      dup4\n        /* \"#utility.yul\":1565:1583   */\n      add\n        /* \"#utility.yul\":1556:1562   */\n      dup5\n        /* \"#utility.yul\":1512:1584   */\n      tag_21\n      jump\t// in\n    tag_43:\n        /* \"#utility.yul\":1149:1591   */\n      swap5\n      swap4\n      pop\n      pop\n      pop\n      pop\n      jump\t// out\n        /* \"#utility.yul\":1597:1777   */\n    tag_22:\n        /* \"#utility.yul\":1645:1722   */\n      0x4e487b7100000000000000000000000000000000000000000000000000000000\n        /* \"#utility.yul\":1642:1643   */\n      0x00\n        /* \"#utility.yul\":1635:1723   */\n      mstore\n        /* \"#utility.yul\":1742:1746   */\n      0x12\n        /* \"#utility.yul\":1739:1740   */\n      0x04\n        /* \"#utility.yul\":1732:1747   */\n      mstore\n        /* \"#utility.yul\":1766:1770   */\n      0x24\n        /* \"#utility.yul\":1763:1764   */\n      0x00\n        /* \"#utility.yul\":1756:1771   */\n      revert\n        /* \"#utility.yul\":1969:2154   */\n    tag_12:\n        /* \"#utility.yul\":2009:2010   */\n      0x00\n        /* \"#utility.yul\":2026:2046   */\n      tag_47\n        /* \"#utility.yul\":2044:2045   */\n      dup3\n        /* \"#utility.yul\":2026:2046   */\n      tag_18\n      jump\t// in\n    tag_47:\n        /* \"#utility.yul\":2021:2046   */\n      swap2\n      pop\n        /* \"#utility.yul\":2060:2080   */\n      tag_48\n        /* \"#utility.yul\":2078:2079   */\n      dup4\n        /* \"#utility.yul\":2060:2080   */\n      tag_18\n      jump\t// in\n    tag_48:\n        /* \"#utility.yul\":2055:2080   */\n      swap3\n      pop\n        /* \"#utility.yul\":2099:2100   */\n      dup3\n        /* \"#utility.yul\":2089:2124   */\n      tag_49\n      jumpi\n        /* \"#utility.yul\":2104:2122   */\n      tag_50\n      tag_22\n      jump\t// in\n    tag_50:\n        /* \"#utility.yul\":2089:2124   */\n    tag_49:\n        /* \"#utility.yul\":2146:2147   */\n      dup3\n        /* \"#utility.yul\":2143:2144   */\n      dup3\n        /* \"#utility.yul\":2139:2148   */\n      div\n        /* \"#utility.yul\":2134:2148   */\n      swap1\n      pop\n        /* \"#utility.yul\":1969:2154   */\n      swap3\n      swap2\n      pop\n      pop\n      jump\t// out\n\n    auxdata: 0xa264697066735822122032eb800c9e65c38870bca0e5c2d46cf4a2aabd6e811feb38b115a9760b7c5cdc64736f6c634300081a0033\n}\n",
				"bytecode": {
					"linkReferences": {},
					"object": "6080604052348015600e575f80fd5b506101cf8061001c5f395ff3fe608060405234801561000f575f80fd5b5060043610610029575f3560e01c806391bc20891461002d575b5f80fd5b610047600480360381019061004291906100cd565b61005f565b60405161005693929190610107565b60405180910390f35b5f805f60038461006f9190610169565b60058561007c9190610169565b6008866100899190610169565b9250925092509193909250565b5f80fd5b5f819050919050565b6100ac8161009a565b81146100b6575f80fd5b50565b5f813590506100c7816100a3565b92915050565b5f602082840312156100e2576100e1610096565b5b5f6100ef848285016100b9565b91505092915050565b6101018161009a565b82525050565b5f60608201905061011a5f8301866100f8565b61012760208301856100f8565b61013460408301846100f8565b949350505050565b7f4e487b71000000000000000000000000000000000000000000000000000000005f52601260045260245ffd5b5f6101738261009a565b915061017e8361009a565b92508261018e5761018d61013c565b5b82820490509291505056fea264697066735822122032eb800c9e65c38870bca0e5c2d46cf4a2aabd6e811feb38b115a9760b7c5cdc64736f6c634300081a0033",
					"opcodes": "PUSH1 0x80 PUSH1 0x40 MSTORE CALLVALUE DUP1 ISZERO PUSH1 0xE JUMPI PUSH0 DUP1 REVERT JUMPDEST POP PUSH2 0x1CF DUP1 PUSH2 0x1C PUSH0 CODECOPY PUSH0 RETURN INVALID PUSH1 0x80 PUSH1 0x40 MSTORE CALLVALUE DUP1 ISZERO PUSH2 0xF JUMPI PUSH0 DUP1 REVERT JUMPDEST POP PUSH1 0x4 CALLDATASIZE LT PUSH2 0x29 JUMPI PUSH0 CALLDATALOAD PUSH1 0xE0 SHR DUP1 PUSH4 0x91BC2089 EQ PUSH2 0x2D JUMPI JUMPDEST PUSH0 DUP1 REVERT JUMPDEST PUSH2 0x47 PUSH1 0x4 DUP1 CALLDATASIZE SUB DUP2 ADD SWAP1 PUSH2 0x42 SWAP2 SWAP1 PUSH2 0xCD JUMP JUMPDEST PUSH2 0x5F JUMP JUMPDEST PUSH1 0x40 MLOAD PUSH2 0x56 SWAP4 SWAP3 SWAP2 SWAP1 PUSH2 0x107 JUMP JUMPDEST PUSH1 0x40 MLOAD DUP1 SWAP2 SUB SWAP1 RETURN JUMPDEST PUSH0 DUP1 PUSH0 PUSH1 0x3 DUP5 PUSH2 0x6F SWAP2 SWAP1 PUSH2 0x169 JUMP JUMPDEST PUSH1 0x5 DUP6 PUSH2 0x7C SWAP2 SWAP1 PUSH2 0x169 JUMP JUMPDEST PUSH1 0x8 DUP7 PUSH2 0x89 SWAP2 SWAP1 PUSH2 0x169 JUMP JUMPDEST SWAP3 POP SWAP3 POP SWAP3 POP SWAP2 SWAP4 SWAP1 SWAP3 POP JUMP JUMPDEST PUSH0 DUP1 REVERT JUMPDEST PUSH0 DUP2 SWAP1 POP SWAP2 SWAP1 POP JUMP JUMPDEST PUSH2 0xAC DUP2 PUSH2 0x9A JUMP JUMPDEST DUP2 EQ PUSH2 0xB6 JUMPI PUSH0 DUP1 REVERT JUMPDEST POP JUMP JUMPDEST PUSH0 DUP2 CALLDATALOAD SWAP1 POP PUSH2 0xC7 DUP2 PUSH2 0xA3 JUMP JUMPDEST SWAP3 SWAP2 POP POP JUMP JUMPDEST PUSH0 PUSH1 0x20 DUP3 DUP5 SUB SLT ISZERO PUSH2 0xE2 JUMPI PUSH2 0xE1 PUSH2 0x96 JUMP JUMPDEST JUMPDEST PUSH0 PUSH2 0xEF DUP5 DUP3 DUP6 ADD PUSH2 0xB9 JUMP JUMPDEST SWAP2 POP POP SWAP3 SWAP2 POP POP JUMP JUMPDEST PUSH2 0x101 DUP2 PUSH2 0x9A JUMP JUMPDEST DUP3 MSTORE POP POP JUMP JUMPDEST PUSH0 PUSH1 0x60 DUP3 ADD SWAP1 POP PUSH2 0x11A PUSH0 DUP4 ADD DUP7 PUSH2 0xF8 JUMP JUMPDEST PUSH2 0x127 PUSH1 0x20 DUP4 ADD DUP6 PUSH2 0xF8 JUMP JUMPDEST PUSH2 0x134 PUSH1 0x40 DUP4 ADD DUP5 PUSH2 0xF8 JUMP JUMPDEST SWAP5 SWAP4 POP POP POP POP JUMP JUMPDEST PUSH32 0x4E487B7100000000000000000000000000000000000000000000000000000000 PUSH0 MSTORE PUSH1 0x12 PUSH1 0x4 MSTORE PUSH1 0x24 PUSH0 REVERT JUMPDEST PUSH0 PUSH2 0x173 DUP3 PUSH2 0x9A JUMP JUMPDEST SWAP2 POP PUSH2 0x17E DUP4 PUSH2 0x9A JUMP JUMPDEST SWAP3 POP DUP3 PUSH2 0x18E JUMPI PUSH2 0x18D PUSH2 0x13C JUMP JUMPDEST JUMPDEST DUP3 DUP3 DIV SWAP1 POP SWAP3 SWAP2 POP POP JUMP INVALID LOG2 PUSH5 0x6970667358 0x22 SLT KECCAK256 ORIGIN 0xEB DUP1 0xC SWAP15 PUSH6 0xC38870BCA0E5 0xC2 0xD4 PUSH13 0xF4A2AABD6E811FEB38B115A976 SIGNEXTEND PUSH29 0x5CDC64736F6C634300081A003300000000000000000000000000000000 "
				},
				"gasEstimates": {
					"creation": {
						"codeDepositCost": "92600",
						"executionCost": "139",
						"totalCost": "92739"
					},
					"external": {
						"multiples(uint256)": "infinite"
					}
				},
				"methodIdentifiers": {
					"multiples(uint256)": "91bc2089"
				}
			},
			"storageLayout": {
				"storage": [],
				"types": null
			},
			"userdoc": {
				"kind": "user",
				"methods": {},
				"version": 1
			}
		}
	}
}