{
	"Solidity100/Solidity81-90.sol": {
		"Question84": {
			"abi": [
				{
					"inputs": [
						{
							"internalType": "uint256",
							"name": "_a",
							"type": "uint256"
						},
						{
							"internalType": "uint256",
							"name": "_b",
							"type": "uint256"
						}
					],
					"name": "add",
					"outputs": [
						{
							"internalType": "uint256",
							"name": "",
							"type": "uint256"
						}
					],
					"stateMutability": "view",
					"type": "function"
				},
				{
					"inputs": [
						{
							"internalType": "uint256",
							"name": "_a",
							"type": "uint256"
						},
						{
							"internalType": "uint256",
							"name": "_b",
							"type": "uint256"
						}
					],
					"name": "mul",
					"outputs": [
						{
							"internalType": "uint256",
							"name": "",
							"type": "uint256"
						}
					],
					"stateMutability": "view",
					"type": "function"
				},
				{
					"inputs": [
						{
							"internalType": "address",
							"name": "_addr",
							"type": "address"
						}
					],
					"name": "setBlacklist",
					"outputs": [],
					"stateMutability": "nonpayable",
					"type": "function"
				},
				{
					"inputs": [
						{
							"internalType": "uint256",
							"name": "_a",
							"type": "uint256"
						},
						{
							"internalType": "uint256",
							"name": "_b",
							"type": "uint256"
						}
					],
					"name": "sub",
					"outputs": [
						{
							"internalType": "uint256",
							"name": "",
							"type": "uint256"
						}
					],
					"stateMutability": "view",
					"type": "function"
				}
			],
			"devdoc": {
				"kind": "dev",
				"methods": {},
				"version": 1
			},
			"evm": {
				"assembly": "    /* \"Solidity100/Solidity81-90.sol\":1781:2567  contract Question84{... */\n  mstore(0x40, 0x80)\n  callvalue\n  dup1\n  iszero\n  tag_1\n  jumpi\n  0x00\n  dup1\n  revert\ntag_1:\n  pop\n  dataSize(sub_0)\n  dup1\n  dataOffset(sub_0)\n  0x00\n  codecopy\n  0x00\n  return\nstop\n\nsub_0: assembly {\n        /* \"Solidity100/Solidity81-90.sol\":1781:2567  contract Question84{... */\n      mstore(0x40, 0x80)\n      callvalue\n      dup1\n      iszero\n      tag_1\n      jumpi\n      0x00\n      dup1\n      revert\n    tag_1:\n      pop\n      jumpi(tag_2, lt(calldatasize, 0x04))\n      shr(0xe0, calldataload(0x00))\n      dup1\n      0x4e054a67\n      eq\n      tag_3\n      jumpi\n      dup1\n      0x771602f7\n      eq\n      tag_4\n      jumpi\n      dup1\n      0xb67d77c5\n      eq\n      tag_5\n      jumpi\n      dup1\n      0xc8a4ac9c\n      eq\n      tag_6\n      jumpi\n    tag_2:\n      0x00\n      dup1\n      revert\n        /* \"Solidity100/Solidity81-90.sol\":2050:2134  function setBlacklist(address _addr) public {... */\n    tag_3:\n      tag_7\n      0x04\n      dup1\n      calldatasize\n      sub\n      dup2\n      add\n      swap1\n      tag_8\n      swap2\n      swap1\n      tag_9\n      jump\t// in\n    tag_8:\n      tag_10\n      jump\t// in\n    tag_7:\n      stop\n        /* \"Solidity100/Solidity81-90.sol\":2239:2342  function add(uint _a, uint _b) public view checkBlacklist returns(uint) {... */\n    tag_4:\n      tag_11\n      0x04\n      dup1\n      calldatasize\n      sub\n      dup2\n      add\n      swap1\n      tag_12\n      swap2\n      swap1\n      tag_13\n      jump\t// in\n    tag_12:\n      tag_14\n      jump\t// in\n    tag_11:\n      mload(0x40)\n      tag_15\n      swap2\n      swap1\n      tag_16\n      jump\t// in\n    tag_15:\n      mload(0x40)\n      dup1\n      swap2\n      sub\n      swap1\n      return\n        /* \"Solidity100/Solidity81-90.sol\":2348:2451  function sub(uint _a, uint _b) public view checkBlacklist returns(uint) {... */\n    tag_5:\n      tag_17\n      0x04\n      dup1\n      calldatasize\n      sub\n      dup2\n      add\n      swap1\n      tag_18\n      swap2\n      swap1\n      tag_13\n      jump\t// in\n    tag_18:\n      tag_19\n      jump\t// in\n    tag_17:\n      mload(0x40)\n      tag_20\n      swap2\n      swap1\n      tag_16\n      jump\t// in\n    tag_20:\n      mload(0x40)\n      dup1\n      swap2\n      sub\n      swap1\n      return\n        /* \"Solidity100/Solidity81-90.sol\":2457:2560  function mul(uint _a, uint _b) public view checkBlacklist returns(uint) {... */\n    tag_6:\n      tag_21\n      0x04\n      dup1\n      calldatasize\n      sub\n      dup2\n      add\n      swap1\n      tag_22\n      swap2\n      swap1\n      tag_13\n      jump\t// in\n    tag_22:\n      tag_23\n      jump\t// in\n    tag_21:\n      mload(0x40)\n      tag_24\n      swap2\n      swap1\n      tag_16\n      jump\t// in\n    tag_24:\n      mload(0x40)\n      dup1\n      swap2\n      sub\n      swap1\n      return\n        /* \"Solidity100/Solidity81-90.sol\":2050:2134  function setBlacklist(address _addr) public {... */\n    tag_10:\n        /* \"Solidity100/Solidity81-90.sol\":2123:2127  true */\n      0x01\n        /* \"Solidity100/Solidity81-90.sol\":2104:2113  blacklist */\n      0x00\n        /* \"Solidity100/Solidity81-90.sol\":2104:2120  blacklist[_addr] */\n      dup1\n        /* \"Solidity100/Solidity81-90.sol\":2114:2119  _addr */\n      dup4\n        /* \"Solidity100/Solidity81-90.sol\":2104:2120  blacklist[_addr] */\n      0xffffffffffffffffffffffffffffffffffffffff\n      and\n      0xffffffffffffffffffffffffffffffffffffffff\n      and\n      dup2\n      mstore\n      0x20\n      add\n      swap1\n      dup2\n      mstore\n      0x20\n      add\n      0x00\n      keccak256\n      0x00\n        /* \"Solidity100/Solidity81-90.sol\":2104:2127  blacklist[_addr] = true */\n      0x0100\n      exp\n      dup2\n      sload\n      dup2\n      0xff\n      mul\n      not\n      and\n      swap1\n      dup4\n      iszero\n      iszero\n      mul\n      or\n      swap1\n      sstore\n      pop\n        /* \"Solidity100/Solidity81-90.sol\":2050:2134  function setBlacklist(address _addr) public {... */\n      pop\n      jump\t// out\n        /* \"Solidity100/Solidity81-90.sol\":2239:2342  function add(uint _a, uint _b) public view checkBlacklist returns(uint) {... */\n    tag_14:\n        /* \"Solidity100/Solidity81-90.sol\":2305:2309  uint */\n      0x00\n        /* \"Solidity100/Solidity81-90.sol\":2185:2194  blacklist */\n      dup1\n        /* \"Solidity100/Solidity81-90.sol\":2185:2206  blacklist[msg.sender] */\n      0x00\n        /* \"Solidity100/Solidity81-90.sol\":2195:2205  msg.sender */\n      caller\n        /* \"Solidity100/Solidity81-90.sol\":2185:2206  blacklist[msg.sender] */\n      0xffffffffffffffffffffffffffffffffffffffff\n      and\n      0xffffffffffffffffffffffffffffffffffffffff\n      and\n      dup2\n      mstore\n      0x20\n      add\n      swap1\n      dup2\n      mstore\n      0x20\n      add\n      0x00\n      keccak256\n      0x00\n      swap1\n      sload\n      swap1\n      0x0100\n      exp\n      swap1\n      div\n      0xff\n      and\n        /* \"Solidity100/Solidity81-90.sol\":2184:2206  !blacklist[msg.sender] */\n      iszero\n        /* \"Solidity100/Solidity81-90.sol\":2176:2215  require(!blacklist[msg.sender], \"nope\") */\n      tag_27\n      jumpi\n      mload(0x40)\n      0x08c379a000000000000000000000000000000000000000000000000000000000\n      dup2\n      mstore\n      0x04\n      add\n      tag_28\n      swap1\n      tag_29\n      jump\t// in\n    tag_28:\n      mload(0x40)\n      dup1\n      swap2\n      sub\n      swap1\n      revert\n    tag_27:\n        /* \"Solidity100/Solidity81-90.sol\":2333:2335  _b */\n      dup2\n        /* \"Solidity100/Solidity81-90.sol\":2328:2330  _a */\n      dup4\n        /* \"Solidity100/Solidity81-90.sol\":2328:2335  _a + _b */\n      tag_31\n      swap2\n      swap1\n      tag_32\n      jump\t// in\n    tag_31:\n        /* \"Solidity100/Solidity81-90.sol\":2321:2335  return _a + _b */\n      swap1\n      pop\n        /* \"Solidity100/Solidity81-90.sol\":2239:2342  function add(uint _a, uint _b) public view checkBlacklist returns(uint) {... */\n      swap3\n      swap2\n      pop\n      pop\n      jump\t// out\n        /* \"Solidity100/Solidity81-90.sol\":2348:2451  function sub(uint _a, uint _b) public view checkBlacklist returns(uint) {... */\n    tag_19:\n        /* \"Solidity100/Solidity81-90.sol\":2414:2418  uint */\n      0x00\n        /* \"Solidity100/Solidity81-90.sol\":2185:2194  blacklist */\n      dup1\n        /* \"Solidity100/Solidity81-90.sol\":2185:2206  blacklist[msg.sender] */\n      0x00\n        /* \"Solidity100/Solidity81-90.sol\":2195:2205  msg.sender */\n      caller\n        /* \"Solidity100/Solidity81-90.sol\":2185:2206  blacklist[msg.sender] */\n      0xffffffffffffffffffffffffffffffffffffffff\n      and\n      0xffffffffffffffffffffffffffffffffffffffff\n      and\n      dup2\n      mstore\n      0x20\n      add\n      swap1\n      dup2\n      mstore\n      0x20\n      add\n      0x00\n      keccak256\n      0x00\n      swap1\n      sload\n      swap1\n      0x0100\n      exp\n      swap1\n      div\n      0xff\n      and\n        /* \"Solidity100/Solidity81-90.sol\":2184:2206  !blacklist[msg.sender] */\n      iszero\n        /* \"Solidity100/Solidity81-90.sol\":2176:2215  require(!blacklist[msg.sender], \"nope\") */\n      tag_34\n      jumpi\n      mload(0x40)\n      0x08c379a000000000000000000000000000000000000000000000000000000000\n      dup2\n      mstore\n      0x04\n      add\n      tag_35\n      swap1\n      tag_29\n      jump\t// in\n    tag_35:\n      mload(0x40)\n      dup1\n      swap2\n      sub\n      swap1\n      revert\n    tag_34:\n        /* \"Solidity100/Solidity81-90.sol\":2442:2444  _b */\n      dup2\n        /* \"Solidity100/Solidity81-90.sol\":2437:2439  _a */\n      dup4\n        /* \"Solidity100/Solidity81-90.sol\":2437:2444  _a - _b */\n      tag_37\n      swap2\n      swap1\n      tag_38\n      jump\t// in\n    tag_37:\n        /* \"Solidity100/Solidity81-90.sol\":2430:2444  return _a - _b */\n      swap1\n      pop\n        /* \"Solidity100/Solidity81-90.sol\":2348:2451  function sub(uint _a, uint _b) public view checkBlacklist returns(uint) {... */\n      swap3\n      swap2\n      pop\n      pop\n      jump\t// out\n        /* \"Solidity100/Solidity81-90.sol\":2457:2560  function mul(uint _a, uint _b) public view checkBlacklist returns(uint) {... */\n    tag_23:\n        /* \"Solidity100/Solidity81-90.sol\":2523:2527  uint */\n      0x00\n        /* \"Solidity100/Solidity81-90.sol\":2185:2194  blacklist */\n      dup1\n        /* \"Solidity100/Solidity81-90.sol\":2185:2206  blacklist[msg.sender] */\n      0x00\n        /* \"Solidity100/Solidity81-90.sol\":2195:2205  msg.sender */\n      caller\n        /* \"Solidity100/Solidity81-90.sol\":2185:2206  blacklist[msg.sender] */\n      0xffffffffffffffffffffffffffffffffffffffff\n      and\n      0xffffffffffffffffffffffffffffffffffffffff\n      and\n      dup2\n      mstore\n      0x20\n      add\n      swap1\n      dup2\n      mstore\n      0x20\n      add\n      0x00\n      keccak256\n      0x00\n      swap1\n      sload\n      swap1\n      0x0100\n      exp\n      swap1\n      div\n      0xff\n      and\n        /* \"Solidity100/Solidity81-90.sol\":2184:2206  !blacklist[msg.sender] */\n      iszero\n        /* \"Solidity100/Solidity81-90.sol\":2176:2215  require(!blacklist[msg.sender], \"nope\") */\n      tag_40\n      jumpi\n      mload(0x40)\n      0x08c379a000000000000000000000000000000000000000000000000000000000\n      dup2\n      mstore\n      0x04\n      add\n      tag_41\n      swap1\n      tag_29\n      jump\t// in\n    tag_41:\n      mload(0x40)\n      dup1\n      swap2\n      sub\n      swap1\n      revert\n    tag_40:\n        /* \"Solidity100/Solidity81-90.sol\":2551:2553  _b */\n      dup2\n        /* \"Solidity100/Solidity81-90.sol\":2546:2548  _a */\n      dup4\n        /* \"Solidity100/Solidity81-90.sol\":2546:2553  _a * _b */\n      tag_43\n      swap2\n      swap1\n      tag_44\n      jump\t// in\n    tag_43:\n        /* \"Solidity100/Solidity81-90.sol\":2539:2553  return _a * _b */\n      swap1\n      pop\n        /* \"Solidity100/Solidity81-90.sol\":2457:2560  function mul(uint _a, uint _b) public view checkBlacklist returns(uint) {... */\n      swap3\n      swap2\n      pop\n      pop\n      jump\t// out\n        /* \"#utility.yul\":88:205   */\n    tag_46:\n        /* \"#utility.yul\":197:198   */\n      0x00\n        /* \"#utility.yul\":194:195   */\n      dup1\n        /* \"#utility.yul\":187:199   */\n      revert\n        /* \"#utility.yul\":334:460   */\n    tag_48:\n        /* \"#utility.yul\":371:378   */\n      0x00\n        /* \"#utility.yul\":411:453   */\n      0xffffffffffffffffffffffffffffffffffffffff\n        /* \"#utility.yul\":404:409   */\n      dup3\n        /* \"#utility.yul\":400:454   */\n      and\n        /* \"#utility.yul\":389:454   */\n      swap1\n      pop\n        /* \"#utility.yul\":334:460   */\n      swap2\n      swap1\n      pop\n      jump\t// out\n        /* \"#utility.yul\":466:562   */\n    tag_49:\n        /* \"#utility.yul\":503:510   */\n      0x00\n        /* \"#utility.yul\":532:556   */\n      tag_66\n        /* \"#utility.yul\":550:555   */\n      dup3\n        /* \"#utility.yul\":532:556   */\n      tag_48\n      jump\t// in\n    tag_66:\n        /* \"#utility.yul\":521:556   */\n      swap1\n      pop\n        /* \"#utility.yul\":466:562   */\n      swap2\n      swap1\n      pop\n      jump\t// out\n        /* \"#utility.yul\":568:690   */\n    tag_50:\n        /* \"#utility.yul\":641:665   */\n      tag_68\n        /* \"#utility.yul\":659:664   */\n      dup2\n        /* \"#utility.yul\":641:665   */\n      tag_49\n      jump\t// in\n    tag_68:\n        /* \"#utility.yul\":634:639   */\n      dup2\n        /* \"#utility.yul\":631:666   */\n      eq\n        /* \"#utility.yul\":621:684   */\n      tag_69\n      jumpi\n        /* \"#utility.yul\":680:681   */\n      0x00\n        /* \"#utility.yul\":677:678   */\n      dup1\n        /* \"#utility.yul\":670:682   */\n      revert\n        /* \"#utility.yul\":621:684   */\n    tag_69:\n        /* \"#utility.yul\":568:690   */\n      pop\n      jump\t// out\n        /* \"#utility.yul\":696:835   */\n    tag_51:\n        /* \"#utility.yul\":742:747   */\n      0x00\n        /* \"#utility.yul\":780:786   */\n      dup2\n        /* \"#utility.yul\":767:787   */\n      calldataload\n        /* \"#utility.yul\":758:787   */\n      swap1\n      pop\n        /* \"#utility.yul\":796:829   */\n      tag_71\n        /* \"#utility.yul\":823:828   */\n      dup2\n        /* \"#utility.yul\":796:829   */\n      tag_50\n      jump\t// in\n    tag_71:\n        /* \"#utility.yul\":696:835   */\n      swap3\n      swap2\n      pop\n      pop\n      jump\t// out\n        /* \"#utility.yul\":841:1170   */\n    tag_9:\n        /* \"#utility.yul\":900:906   */\n      0x00\n        /* \"#utility.yul\":949:951   */\n      0x20\n        /* \"#utility.yul\":937:946   */\n      dup3\n        /* \"#utility.yul\":928:935   */\n      dup5\n        /* \"#utility.yul\":924:947   */\n      sub\n        /* \"#utility.yul\":920:952   */\n      slt\n        /* \"#utility.yul\":917:1036   */\n      iszero\n      tag_73\n      jumpi\n        /* \"#utility.yul\":955:1034   */\n      tag_74\n      tag_46\n      jump\t// in\n    tag_74:\n        /* \"#utility.yul\":917:1036   */\n    tag_73:\n        /* \"#utility.yul\":1075:1076   */\n      0x00\n        /* \"#utility.yul\":1100:1153   */\n      tag_75\n        /* \"#utility.yul\":1145:1152   */\n      dup5\n        /* \"#utility.yul\":1136:1142   */\n      dup3\n        /* \"#utility.yul\":1125:1134   */\n      dup6\n        /* \"#utility.yul\":1121:1143   */\n      add\n        /* \"#utility.yul\":1100:1153   */\n      tag_51\n      jump\t// in\n    tag_75:\n        /* \"#utility.yul\":1090:1153   */\n      swap2\n      pop\n        /* \"#utility.yul\":1046:1163   */\n      pop\n        /* \"#utility.yul\":841:1170   */\n      swap3\n      swap2\n      pop\n      pop\n      jump\t// out\n        /* \"#utility.yul\":1176:1253   */\n    tag_52:\n        /* \"#utility.yul\":1213:1220   */\n      0x00\n        /* \"#utility.yul\":1242:1247   */\n      dup2\n        /* \"#utility.yul\":1231:1247   */\n      swap1\n      pop\n        /* \"#utility.yul\":1176:1253   */\n      swap2\n      swap1\n      pop\n      jump\t// out\n        /* \"#utility.yul\":1259:1381   */\n    tag_53:\n        /* \"#utility.yul\":1332:1356   */\n      tag_78\n        /* \"#utility.yul\":1350:1355   */\n      dup2\n        /* \"#utility.yul\":1332:1356   */\n      tag_52\n      jump\t// in\n    tag_78:\n        /* \"#utility.yul\":1325:1330   */\n      dup2\n        /* \"#utility.yul\":1322:1357   */\n      eq\n        /* \"#utility.yul\":1312:1375   */\n      tag_79\n      jumpi\n        /* \"#utility.yul\":1371:1372   */\n      0x00\n        /* \"#utility.yul\":1368:1369   */\n      dup1\n        /* \"#utility.yul\":1361:1373   */\n      revert\n        /* \"#utility.yul\":1312:1375   */\n    tag_79:\n        /* \"#utility.yul\":1259:1381   */\n      pop\n      jump\t// out\n        /* \"#utility.yul\":1387:1526   */\n    tag_54:\n        /* \"#utility.yul\":1433:1438   */\n      0x00\n        /* \"#utility.yul\":1471:1477   */\n      dup2\n        /* \"#utility.yul\":1458:1478   */\n      calldataload\n        /* \"#utility.yul\":1449:1478   */\n      swap1\n      pop\n        /* \"#utility.yul\":1487:1520   */\n      tag_81\n        /* \"#utility.yul\":1514:1519   */\n      dup2\n        /* \"#utility.yul\":1487:1520   */\n      tag_53\n      jump\t// in\n    tag_81:\n        /* \"#utility.yul\":1387:1526   */\n      swap3\n      swap2\n      pop\n      pop\n      jump\t// out\n        /* \"#utility.yul\":1532:2006   */\n    tag_13:\n        /* \"#utility.yul\":1600:1606   */\n      0x00\n        /* \"#utility.yul\":1608:1614   */\n      dup1\n        /* \"#utility.yul\":1657:1659   */\n      0x40\n        /* \"#utility.yul\":1645:1654   */\n      dup4\n        /* \"#utility.yul\":1636:1643   */\n      dup6\n        /* \"#utility.yul\":1632:1655   */\n      sub\n        /* \"#utility.yul\":1628:1660   */\n      slt\n        /* \"#utility.yul\":1625:1744   */\n      iszero\n      tag_83\n      jumpi\n        /* \"#utility.yul\":1663:1742   */\n      tag_84\n      tag_46\n      jump\t// in\n    tag_84:\n        /* \"#utility.yul\":1625:1744   */\n    tag_83:\n        /* \"#utility.yul\":1783:1784   */\n      0x00\n        /* \"#utility.yul\":1808:1861   */\n      tag_85\n        /* \"#utility.yul\":1853:1860   */\n      dup6\n        /* \"#utility.yul\":1844:1850   */\n      dup3\n        /* \"#utility.yul\":1833:1842   */\n      dup7\n        /* \"#utility.yul\":1829:1851   */\n      add\n        /* \"#utility.yul\":1808:1861   */\n      tag_54\n      jump\t// in\n    tag_85:\n        /* \"#utility.yul\":1798:1861   */\n      swap3\n      pop\n        /* \"#utility.yul\":1754:1871   */\n      pop\n        /* \"#utility.yul\":1910:1912   */\n      0x20\n        /* \"#utility.yul\":1936:1989   */\n      tag_86\n        /* \"#utility.yul\":1981:1988   */\n      dup6\n        /* \"#utility.yul\":1972:1978   */\n      dup3\n        /* \"#utility.yul\":1961:1970   */\n      dup7\n        /* \"#utility.yul\":1957:1979   */\n      add\n        /* \"#utility.yul\":1936:1989   */\n      tag_54\n      jump\t// in\n    tag_86:\n        /* \"#utility.yul\":1926:1989   */\n      swap2\n      pop\n        /* \"#utility.yul\":1881:1999   */\n      pop\n        /* \"#utility.yul\":1532:2006   */\n      swap3\n      pop\n      swap3\n      swap1\n      pop\n      jump\t// out\n        /* \"#utility.yul\":2012:2130   */\n    tag_55:\n        /* \"#utility.yul\":2099:2123   */\n      tag_88\n        /* \"#utility.yul\":2117:2122   */\n      dup2\n        /* \"#utility.yul\":2099:2123   */\n      tag_52\n      jump\t// in\n    tag_88:\n        /* \"#utility.yul\":2094:2097   */\n      dup3\n        /* \"#utility.yul\":2087:2124   */\n      mstore\n        /* \"#utility.yul\":2012:2130   */\n      pop\n      pop\n      jump\t// out\n        /* \"#utility.yul\":2136:2358   */\n    tag_16:\n        /* \"#utility.yul\":2229:2233   */\n      0x00\n        /* \"#utility.yul\":2267:2269   */\n      0x20\n        /* \"#utility.yul\":2256:2265   */\n      dup3\n        /* \"#utility.yul\":2252:2270   */\n      add\n        /* \"#utility.yul\":2244:2270   */\n      swap1\n      pop\n        /* \"#utility.yul\":2280:2351   */\n      tag_90\n        /* \"#utility.yul\":2348:2349   */\n      0x00\n        /* \"#utility.yul\":2337:2346   */\n      dup4\n        /* \"#utility.yul\":2333:2350   */\n      add\n        /* \"#utility.yul\":2324:2330   */\n      dup5\n        /* \"#utility.yul\":2280:2351   */\n      tag_55\n      jump\t// in\n    tag_90:\n        /* \"#utility.yul\":2136:2358   */\n      swap3\n      swap2\n      pop\n      pop\n      jump\t// out\n        /* \"#utility.yul\":2364:2533   */\n    tag_56:\n        /* \"#utility.yul\":2448:2459   */\n      0x00\n        /* \"#utility.yul\":2482:2488   */\n      dup3\n        /* \"#utility.yul\":2477:2480   */\n      dup3\n        /* \"#utility.yul\":2470:2489   */\n      mstore\n        /* \"#utility.yul\":2522:2526   */\n      0x20\n        /* \"#utility.yul\":2517:2520   */\n      dup3\n        /* \"#utility.yul\":2513:2527   */\n      add\n        /* \"#utility.yul\":2498:2527   */\n      swap1\n      pop\n        /* \"#utility.yul\":2364:2533   */\n      swap3\n      swap2\n      pop\n      pop\n      jump\t// out\n        /* \"#utility.yul\":2539:2693   */\n    tag_57:\n        /* \"#utility.yul\":2679:2685   */\n      0x6e6f706500000000000000000000000000000000000000000000000000000000\n        /* \"#utility.yul\":2675:2676   */\n      0x00\n        /* \"#utility.yul\":2667:2673   */\n      dup3\n        /* \"#utility.yul\":2663:2677   */\n      add\n        /* \"#utility.yul\":2656:2686   */\n      mstore\n        /* \"#utility.yul\":2539:2693   */\n      pop\n      jump\t// out\n        /* \"#utility.yul\":2699:3064   */\n    tag_58:\n        /* \"#utility.yul\":2841:2844   */\n      0x00\n        /* \"#utility.yul\":2862:2928   */\n      tag_94\n        /* \"#utility.yul\":2926:2927   */\n      0x04\n        /* \"#utility.yul\":2921:2924   */\n      dup4\n        /* \"#utility.yul\":2862:2928   */\n      tag_56\n      jump\t// in\n    tag_94:\n        /* \"#utility.yul\":2855:2928   */\n      swap2\n      pop\n        /* \"#utility.yul\":2937:3030   */\n      tag_95\n        /* \"#utility.yul\":3026:3029   */\n      dup3\n        /* \"#utility.yul\":2937:3030   */\n      tag_57\n      jump\t// in\n    tag_95:\n        /* \"#utility.yul\":3055:3057   */\n      0x20\n        /* \"#utility.yul\":3050:3053   */\n      dup3\n        /* \"#utility.yul\":3046:3058   */\n      add\n        /* \"#utility.yul\":3039:3058   */\n      swap1\n      pop\n        /* \"#utility.yul\":2699:3064   */\n      swap2\n      swap1\n      pop\n      jump\t// out\n        /* \"#utility.yul\":3070:3489   */\n    tag_29:\n        /* \"#utility.yul\":3236:3240   */\n      0x00\n        /* \"#utility.yul\":3274:3276   */\n      0x20\n        /* \"#utility.yul\":3263:3272   */\n      dup3\n        /* \"#utility.yul\":3259:3277   */\n      add\n        /* \"#utility.yul\":3251:3277   */\n      swap1\n      pop\n        /* \"#utility.yul\":3323:3332   */\n      dup2\n        /* \"#utility.yul\":3317:3321   */\n      dup2\n        /* \"#utility.yul\":3313:3333   */\n      sub\n        /* \"#utility.yul\":3309:3310   */\n      0x00\n        /* \"#utility.yul\":3298:3307   */\n      dup4\n        /* \"#utility.yul\":3294:3311   */\n      add\n        /* \"#utility.yul\":3287:3334   */\n      mstore\n        /* \"#utility.yul\":3351:3482   */\n      tag_97\n        /* \"#utility.yul\":3477:3481   */\n      dup2\n        /* \"#utility.yul\":3351:3482   */\n      tag_58\n      jump\t// in\n    tag_97:\n        /* \"#utility.yul\":3343:3482   */\n      swap1\n      pop\n        /* \"#utility.yul\":3070:3489   */\n      swap2\n      swap1\n      pop\n      jump\t// out\n        /* \"#utility.yul\":3495:3675   */\n    tag_59:\n        /* \"#utility.yul\":3543:3620   */\n      0x4e487b7100000000000000000000000000000000000000000000000000000000\n        /* \"#utility.yul\":3540:3541   */\n      0x00\n        /* \"#utility.yul\":3533:3621   */\n      mstore\n        /* \"#utility.yul\":3640:3644   */\n      0x11\n        /* \"#utility.yul\":3637:3638   */\n      0x04\n        /* \"#utility.yul\":3630:3645   */\n      mstore\n        /* \"#utility.yul\":3664:3668   */\n      0x24\n        /* \"#utility.yul\":3661:3662   */\n      0x00\n        /* \"#utility.yul\":3654:3669   */\n      revert\n        /* \"#utility.yul\":3681:3872   */\n    tag_32:\n        /* \"#utility.yul\":3721:3724   */\n      0x00\n        /* \"#utility.yul\":3740:3760   */\n      tag_100\n        /* \"#utility.yul\":3758:3759   */\n      dup3\n        /* \"#utility.yul\":3740:3760   */\n      tag_52\n      jump\t// in\n    tag_100:\n        /* \"#utility.yul\":3735:3760   */\n      swap2\n      pop\n        /* \"#utility.yul\":3774:3794   */\n      tag_101\n        /* \"#utility.yul\":3792:3793   */\n      dup4\n        /* \"#utility.yul\":3774:3794   */\n      tag_52\n      jump\t// in\n    tag_101:\n        /* \"#utility.yul\":3769:3794   */\n      swap3\n      pop\n        /* \"#utility.yul\":3817:3818   */\n      dup3\n        /* \"#utility.yul\":3814:3815   */\n      dup3\n        /* \"#utility.yul\":3810:3819   */\n      add\n        /* \"#utility.yul\":3803:3819   */\n      swap1\n      pop\n        /* \"#utility.yul\":3838:3841   */\n      dup1\n        /* \"#utility.yul\":3835:3836   */\n      dup3\n        /* \"#utility.yul\":3832:3842   */\n      gt\n        /* \"#utility.yul\":3829:3865   */\n      iszero\n      tag_102\n      jumpi\n        /* \"#utility.yul\":3845:3863   */\n      tag_103\n      tag_59\n      jump\t// in\n    tag_103:\n        /* \"#utility.yul\":3829:3865   */\n    tag_102:\n        /* \"#utility.yul\":3681:3872   */\n      swap3\n      swap2\n      pop\n      pop\n      jump\t// out\n        /* \"#utility.yul\":3878:4072   */\n    tag_38:\n        /* \"#utility.yul\":3918:3922   */\n      0x00\n        /* \"#utility.yul\":3938:3958   */\n      tag_105\n        /* \"#utility.yul\":3956:3957   */\n      dup3\n        /* \"#utility.yul\":3938:3958   */\n      tag_52\n      jump\t// in\n    tag_105:\n        /* \"#utility.yul\":3933:3958   */\n      swap2\n      pop\n        /* \"#utility.yul\":3972:3992   */\n      tag_106\n        /* \"#utility.yul\":3990:3991   */\n      dup4\n        /* \"#utility.yul\":3972:3992   */\n      tag_52\n      jump\t// in\n    tag_106:\n        /* \"#utility.yul\":3967:3992   */\n      swap3\n      pop\n        /* \"#utility.yul\":4016:4017   */\n      dup3\n        /* \"#utility.yul\":4013:4014   */\n      dup3\n        /* \"#utility.yul\":4009:4018   */\n      sub\n        /* \"#utility.yul\":4001:4018   */\n      swap1\n      pop\n        /* \"#utility.yul\":4040:4041   */\n      dup2\n        /* \"#utility.yul\":4034:4038   */\n      dup2\n        /* \"#utility.yul\":4031:4042   */\n      gt\n        /* \"#utility.yul\":4028:4065   */\n      iszero\n      tag_107\n      jumpi\n        /* \"#utility.yul\":4045:4063   */\n      tag_108\n      tag_59\n      jump\t// in\n    tag_108:\n        /* \"#utility.yul\":4028:4065   */\n    tag_107:\n        /* \"#utility.yul\":3878:4072   */\n      swap3\n      swap2\n      pop\n      pop\n      jump\t// out\n        /* \"#utility.yul\":4078:4488   */\n    tag_44:\n        /* \"#utility.yul\":4118:4125   */\n      0x00\n        /* \"#utility.yul\":4141:4161   */\n      tag_110\n        /* \"#utility.yul\":4159:4160   */\n      dup3\n        /* \"#utility.yul\":4141:4161   */\n      tag_52\n      jump\t// in\n    tag_110:\n        /* \"#utility.yul\":4136:4161   */\n      swap2\n      pop\n        /* \"#utility.yul\":4175:4195   */\n      tag_111\n        /* \"#utility.yul\":4193:4194   */\n      dup4\n        /* \"#utility.yul\":4175:4195   */\n      tag_52\n      jump\t// in\n    tag_111:\n        /* \"#utility.yul\":4170:4195   */\n      swap3\n      pop\n        /* \"#utility.yul\":4230:4231   */\n      dup3\n        /* \"#utility.yul\":4227:4228   */\n      dup3\n        /* \"#utility.yul\":4223:4232   */\n      mul\n        /* \"#utility.yul\":4252:4282   */\n      tag_112\n        /* \"#utility.yul\":4270:4281   */\n      dup2\n        /* \"#utility.yul\":4252:4282   */\n      tag_52\n      jump\t// in\n    tag_112:\n        /* \"#utility.yul\":4241:4282   */\n      swap2\n      pop\n        /* \"#utility.yul\":4431:4432   */\n      dup3\n        /* \"#utility.yul\":4422:4429   */\n      dup3\n        /* \"#utility.yul\":4418:4433   */\n      div\n        /* \"#utility.yul\":4415:4416   */\n      dup5\n        /* \"#utility.yul\":4412:4434   */\n      eq\n        /* \"#utility.yul\":4392:4393   */\n      dup4\n        /* \"#utility.yul\":4385:4394   */\n      iszero\n        /* \"#utility.yul\":4365:4448   */\n      or\n        /* \"#utility.yul\":4342:4481   */\n      tag_113\n      jumpi\n        /* \"#utility.yul\":4461:4479   */\n      tag_114\n      tag_59\n      jump\t// in\n    tag_114:\n        /* \"#utility.yul\":4342:4481   */\n    tag_113:\n        /* \"#utility.yul\":4126:4488   */\n      pop\n        /* \"#utility.yul\":4078:4488   */\n      swap3\n      swap2\n      pop\n      pop\n      jump\t// out\n\n    auxdata: 0xa264697066735822122017ae3147a982b5a1eec51c5ed4912c7ca87eac5b66898cda8e3a691d728df85e64736f6c634300081a0033\n}\n",
				"bytecode": {
					"linkReferences": {},
					"object": "6080604052348015600e575f80fd5b506105cf8061001c5f395ff3fe608060405234801561000f575f80fd5b506004361061004a575f3560e01c80634e054a671461004e578063771602f71461006a578063b67d77c51461009a578063c8a4ac9c146100ca575b5f80fd5b61006860048036038101906100639190610389565b6100fa565b005b610084600480360381019061007f91906103e7565b610151565b6040516100919190610434565b60405180910390f35b6100b460048036038101906100af91906103e7565b6101ef565b6040516100c19190610434565b60405180910390f35b6100e460048036038101906100df91906103e7565b61028d565b6040516100f19190610434565b60405180910390f35b60015f808373ffffffffffffffffffffffffffffffffffffffff1673ffffffffffffffffffffffffffffffffffffffff1681526020019081526020015f205f6101000a81548160ff02191690831515021790555050565b5f805f3373ffffffffffffffffffffffffffffffffffffffff1673ffffffffffffffffffffffffffffffffffffffff1681526020019081526020015f205f9054906101000a900460ff16156101db576040517f08c379a00000000000000000000000000000000000000000000000000000000081526004016101d2906104a7565b60405180910390fd5b81836101e791906104f2565b905092915050565b5f805f3373ffffffffffffffffffffffffffffffffffffffff1673ffffffffffffffffffffffffffffffffffffffff1681526020019081526020015f205f9054906101000a900460ff1615610279576040517f08c379a0000000000000000000000000000000000000000000000000000000008152600401610270906104a7565b60405180910390fd5b81836102859190610525565b905092915050565b5f805f3373ffffffffffffffffffffffffffffffffffffffff1673ffffffffffffffffffffffffffffffffffffffff1681526020019081526020015f205f9054906101000a900460ff1615610317576040517f08c379a000000000000000000000000000000000000000000000000000000000815260040161030e906104a7565b60405180910390fd5b81836103239190610558565b905092915050565b5f80fd5b5f73ffffffffffffffffffffffffffffffffffffffff82169050919050565b5f6103588261032f565b9050919050565b6103688161034e565b8114610372575f80fd5b50565b5f813590506103838161035f565b92915050565b5f6020828403121561039e5761039d61032b565b5b5f6103ab84828501610375565b91505092915050565b5f819050919050565b6103c6816103b4565b81146103d0575f80fd5b50565b5f813590506103e1816103bd565b92915050565b5f80604083850312156103fd576103fc61032b565b5b5f61040a858286016103d3565b925050602061041b858286016103d3565b9150509250929050565b61042e816103b4565b82525050565b5f6020820190506104475f830184610425565b92915050565b5f82825260208201905092915050565b7f6e6f7065000000000000000000000000000000000000000000000000000000005f82015250565b5f61049160048361044d565b915061049c8261045d565b602082019050919050565b5f6020820190508181035f8301526104be81610485565b9050919050565b7f4e487b71000000000000000000000000000000000000000000000000000000005f52601160045260245ffd5b5f6104fc826103b4565b9150610507836103b4565b925082820190508082111561051f5761051e6104c5565b5b92915050565b5f61052f826103b4565b915061053a836103b4565b9250828203905081811115610552576105516104c5565b5b92915050565b5f610562826103b4565b915061056d836103b4565b925082820261057b816103b4565b91508282048414831517610592576105916104c5565b5b509291505056fea264697066735822122017ae3147a982b5a1eec51c5ed4912c7ca87eac5b66898cda8e3a691d728df85e64736f6c634300081a0033",
					"opcodes": "PUSH1 0x80 PUSH1 0x40 MSTORE CALLVALUE DUP1 ISZERO PUSH1 0xE JUMPI PUSH0 DUP1 REVERT JUMPDEST POP PUSH2 0x5CF DUP1 PUSH2 0x1C PUSH0 CODECOPY PUSH0 RETURN INVALID PUSH1 0x80 PUSH1 0x40 MSTORE CALLVALUE DUP1 ISZERO PUSH2 0xF JUMPI PUSH0 DUP1 REVERT JUMPDEST POP PUSH1 0x4 CALLDATASIZE LT PUSH2 0x4A JUMPI PUSH0 CALLDATALOAD PUSH1 0xE0 SHR DUP1 PUSH4 0x4E054A67 EQ PUSH2 0x4E JUMPI DUP1 PUSH4 0x771602F7 EQ PUSH2 0x6A JUMPI DUP1 PUSH4 0xB67D77C5 EQ PUSH2 0x9A JUMPI DUP1 PUSH4 0xC8A4AC9C EQ PUSH2 0xCA JUMPI JUMPDEST PUSH0 DUP1 REVERT JUMPDEST PUSH2 0x68 PUSH1 0x4 DUP1 CALLDATASIZE SUB DUP2 ADD SWAP1 PUSH2 0x63 SWAP2 SWAP1 PUSH2 0x389 JUMP JUMPDEST PUSH2 0xFA JUMP JUMPDEST STOP JUMPDEST PUSH2 0x84 PUSH1 0x4 DUP1 CALLDATASIZE SUB DUP2 ADD SWAP1 PUSH2 0x7F SWAP2 SWAP1 PUSH2 0x3E7 JUMP JUMPDEST PUSH2 0x151 JUMP JUMPDEST PUSH1 0x40 MLOAD PUSH2 0x91 SWAP2 SWAP1 PUSH2 0x434 JUMP JUMPDEST PUSH1 0x40 MLOAD DUP1 SWAP2 SUB SWAP1 RETURN JUMPDEST PUSH2 0xB4 PUSH1 0x4 DUP1 CALLDATASIZE SUB DUP2 ADD SWAP1 PUSH2 0xAF SWAP2 SWAP1 PUSH2 0x3E7 JUMP JUMPDEST PUSH2 0x1EF JUMP JUMPDEST PUSH1 0x40 MLOAD PUSH2 0xC1 SWAP2 SWAP1 PUSH2 0x434 JUMP JUMPDEST PUSH1 0x40 MLOAD DUP1 SWAP2 SUB SWAP1 RETURN JUMPDEST PUSH2 0xE4 PUSH1 0x4 DUP1 CALLDATASIZE SUB DUP2 ADD SWAP1 PUSH2 0xDF SWAP2 SWAP1 PUSH2 0x3E7 JUMP JUMPDEST PUSH2 0x28D JUMP JUMPDEST PUSH1 0x40 MLOAD PUSH2 0xF1 SWAP2 SWAP1 PUSH2 0x434 JUMP JUMPDEST PUSH1 0x40 MLOAD DUP1 SWAP2 SUB SWAP1 RETURN JUMPDEST PUSH1 0x1 PUSH0 DUP1 DUP4 PUSH20 0xFFFFFFFFFFFFFFFFFFFFFFFFFFFFFFFFFFFFFFFF AND PUSH20 0xFFFFFFFFFFFFFFFFFFFFFFFFFFFFFFFFFFFFFFFF AND DUP2 MSTORE PUSH1 0x20 ADD SWAP1 DUP2 MSTORE PUSH1 0x20 ADD PUSH0 KECCAK256 PUSH0 PUSH2 0x100 EXP DUP2 SLOAD DUP2 PUSH1 0xFF MUL NOT AND SWAP1 DUP4 ISZERO ISZERO MUL OR SWAP1 SSTORE POP POP JUMP JUMPDEST PUSH0 DUP1 PUSH0 CALLER PUSH20 0xFFFFFFFFFFFFFFFFFFFFFFFFFFFFFFFFFFFFFFFF AND PUSH20 0xFFFFFFFFFFFFFFFFFFFFFFFFFFFFFFFFFFFFFFFF AND DUP2 MSTORE PUSH1 0x20 ADD SWAP1 DUP2 MSTORE PUSH1 0x20 ADD PUSH0 KECCAK256 PUSH0 SWAP1 SLOAD SWAP1 PUSH2 0x100 EXP SWAP1 DIV PUSH1 0xFF AND ISZERO PUSH2 0x1DB JUMPI PUSH1 0x40 MLOAD PUSH32 0x8C379A000000000000000000000000000000000000000000000000000000000 DUP2 MSTORE PUSH1 0x4 ADD PUSH2 0x1D2 SWAP1 PUSH2 0x4A7 JUMP JUMPDEST PUSH1 0x40 MLOAD DUP1 SWAP2 SUB SWAP1 REVERT JUMPDEST DUP2 DUP4 PUSH2 0x1E7 SWAP2 SWAP1 PUSH2 0x4F2 JUMP JUMPDEST SWAP1 POP SWAP3 SWAP2 POP POP JUMP JUMPDEST PUSH0 DUP1 PUSH0 CALLER PUSH20 0xFFFFFFFFFFFFFFFFFFFFFFFFFFFFFFFFFFFFFFFF AND PUSH20 0xFFFFFFFFFFFFFFFFFFFFFFFFFFFFFFFFFFFFFFFF AND DUP2 MSTORE PUSH1 0x20 ADD SWAP1 DUP2 MSTORE PUSH1 0x20 ADD PUSH0 KECCAK256 PUSH0 SWAP1 SLOAD SWAP1 PUSH2 0x100 EXP SWAP1 DIV PUSH1 0xFF AND ISZERO PUSH2 0x279 JUMPI PUSH1 0x40 MLOAD PUSH32 0x8C379A000000000000000000000000000000000000000000000000000000000 DUP2 MSTORE PUSH1 0x4 ADD PUSH2 0x270 SWAP1 PUSH2 0x4A7 JUMP JUMPDEST PUSH1 0x40 MLOAD DUP1 SWAP2 SUB SWAP1 REVERT JUMPDEST DUP2 DUP4 PUSH2 0x285 SWAP2 SWAP1 PUSH2 0x525 JUMP JUMPDEST SWAP1 POP SWAP3 SWAP2 POP POP JUMP JUMPDEST PUSH0 DUP1 PUSH0 CALLER PUSH20 0xFFFFFFFFFFFFFFFFFFFFFFFFFFFFFFFFFFFFFFFF AND PUSH20 0xFFFFFFFFFFFFFFFFFFFFFFFFFFFFFFFFFFFFFFFF AND DUP2 MSTORE PUSH1 0x20 ADD SWAP1 DUP2 MSTORE PUSH1 0x20 ADD PUSH0 KECCAK256 PUSH0 SWAP1 SLOAD SWAP1 PUSH2 0x100 EXP SWAP1 DIV PUSH1 0xFF AND ISZERO PUSH2 0x317 JUMPI PUSH1 0x40 MLOAD PUSH32 0x8C379A000000000000000000000000000000000000000000000000000000000 DUP2 MSTORE PUSH1 0x4 ADD PUSH2 0x30E SWAP1 PUSH2 0x4A7 JUMP JUMPDEST PUSH1 0x40 MLOAD DUP1 SWAP2 SUB SWAP1 REVERT JUMPDEST DUP2 DUP4 PUSH2 0x323 SWAP2 SWAP1 PUSH2 0x558 JUMP JUMPDEST SWAP1 POP SWAP3 SWAP2 POP POP JUMP JUMPDEST PUSH0 DUP1 REVERT JUMPDEST PUSH0 PUSH20 0xFFFFFFFFFFFFFFFFFFFFFFFFFFFFFFFFFFFFFFFF DUP3 AND SWAP1 POP SWAP2 SWAP1 POP JUMP JUMPDEST PUSH0 PUSH2 0x358 DUP3 PUSH2 0x32F JUMP JUMPDEST SWAP1 POP SWAP2 SWAP1 POP JUMP JUMPDEST PUSH2 0x368 DUP2 PUSH2 0x34E JUMP JUMPDEST DUP2 EQ PUSH2 0x372 JUMPI PUSH0 DUP1 REVERT JUMPDEST POP JUMP JUMPDEST PUSH0 DUP2 CALLDATALOAD SWAP1 POP PUSH2 0x383 DUP2 PUSH2 0x35F JUMP JUMPDEST SWAP3 SWAP2 POP POP JUMP JUMPDEST PUSH0 PUSH1 0x20 DUP3 DUP5 SUB SLT ISZERO PUSH2 0x39E JUMPI PUSH2 0x39D PUSH2 0x32B JUMP JUMPDEST JUMPDEST PUSH0 PUSH2 0x3AB DUP5 DUP3 DUP6 ADD PUSH2 0x375 JUMP JUMPDEST SWAP2 POP POP SWAP3 SWAP2 POP POP JUMP JUMPDEST PUSH0 DUP2 SWAP1 POP SWAP2 SWAP1 POP JUMP JUMPDEST PUSH2 0x3C6 DUP2 PUSH2 0x3B4 JUMP JUMPDEST DUP2 EQ PUSH2 0x3D0 JUMPI PUSH0 DUP1 REVERT JUMPDEST POP JUMP JUMPDEST PUSH0 DUP2 CALLDATALOAD SWAP1 POP PUSH2 0x3E1 DUP2 PUSH2 0x3BD JUMP JUMPDEST SWAP3 SWAP2 POP POP JUMP JUMPDEST PUSH0 DUP1 PUSH1 0x40 DUP4 DUP6 SUB SLT ISZERO PUSH2 0x3FD JUMPI PUSH2 0x3FC PUSH2 0x32B JUMP JUMPDEST JUMPDEST PUSH0 PUSH2 0x40A DUP6 DUP3 DUP7 ADD PUSH2 0x3D3 JUMP JUMPDEST SWAP3 POP POP PUSH1 0x20 PUSH2 0x41B DUP6 DUP3 DUP7 ADD PUSH2 0x3D3 JUMP JUMPDEST SWAP2 POP POP SWAP3 POP SWAP3 SWAP1 POP JUMP JUMPDEST PUSH2 0x42E DUP2 PUSH2 0x3B4 JUMP JUMPDEST DUP3 MSTORE POP POP JUMP JUMPDEST PUSH0 PUSH1 0x20 DUP3 ADD SWAP1 POP PUSH2 0x447 PUSH0 DUP4 ADD DUP5 PUSH2 0x425 JUMP JUMPDEST SWAP3 SWAP2 POP POP JUMP JUMPDEST PUSH0 DUP3 DUP3 MSTORE PUSH1 0x20 DUP3 ADD SWAP1 POP SWAP3 SWAP2 POP POP JUMP JUMPDEST PUSH32 0x6E6F706500000000000000000000000000000000000000000000000000000000 PUSH0 DUP3 ADD MSTORE POP JUMP JUMPDEST PUSH0 PUSH2 0x491 PUSH1 0x4 DUP4 PUSH2 0x44D JUMP JUMPDEST SWAP2 POP PUSH2 0x49C DUP3 PUSH2 0x45D JUMP JUMPDEST PUSH1 0x20 DUP3 ADD SWAP1 POP SWAP2 SWAP1 POP JUMP JUMPDEST PUSH0 PUSH1 0x20 DUP3 ADD SWAP1 POP DUP2 DUP2 SUB PUSH0 DUP4 ADD MSTORE PUSH2 0x4BE DUP2 PUSH2 0x485 JUMP JUMPDEST SWAP1 POP SWAP2 SWAP1 POP JUMP JUMPDEST PUSH32 0x4E487B7100000000000000000000000000000000000000000000000000000000 PUSH0 MSTORE PUSH1 0x11 PUSH1 0x4 MSTORE PUSH1 0x24 PUSH0 REVERT JUMPDEST PUSH0 PUSH2 0x4FC DUP3 PUSH2 0x3B4 JUMP JUMPDEST SWAP2 POP PUSH2 0x507 DUP4 PUSH2 0x3B4 JUMP JUMPDEST SWAP3 POP DUP3 DUP3 ADD SWAP1 POP DUP1 DUP3 GT ISZERO PUSH2 0x51F JUMPI PUSH2 0x51E PUSH2 0x4C5 JUMP JUMPDEST JUMPDEST SWAP3 SWAP2 POP POP JUMP JUMPDEST PUSH0 PUSH2 0x52F DUP3 PUSH2 0x3B4 JUMP JUMPDEST SWAP2 POP PUSH2 0x53A DUP4 PUSH2 0x3B4 JUMP JUMPDEST SWAP3 POP DUP3 DUP3 SUB SWAP1 POP DUP2 DUP2 GT ISZERO PUSH2 0x552 JUMPI PUSH2 0x551 PUSH2 0x4C5 JUMP JUMPDEST JUMPDEST SWAP3 SWAP2 POP POP JUMP JUMPDEST PUSH0 PUSH2 0x562 DUP3 PUSH2 0x3B4 JUMP JUMPDEST SWAP2 POP PUSH2 0x56D DUP4 PUSH2 0x3B4 JUMP JUMPDEST SWAP3 POP DUP3 DUP3 MUL PUSH2 0x57B DUP2 PUSH2 0x3B4 JUMP JUMPDEST SWAP2 POP DUP3 DUP3 DIV DUP5 EQ DUP4 ISZERO OR PUSH2 0x592 JUMPI PUSH2 0x591 PUSH2 0x4C5 JUMP JUMPDEST JUMPDEST POP SWAP3 SWAP2 POP POP JUMP INVALID LOG2 PUSH5 0x6970667358 0x22 SLT KECCAK256 OR 0xAE BALANCE SELFBALANCE 0xA9 DUP3 0xB5 LOG1 0xEE 0xC5 SHR MCOPY 0xD4 SWAP2 0x2C PUSH29 0xA87EAC5B66898CDA8E3A691D728DF85E64736F6C634300081A00330000 "
				},
				"gasEstimates": {
					"creation": {
						"codeDepositCost": "297400",
						"executionCost": "335",
						"totalCost": "297735"
					},
					"external": {
						"add(uint256,uint256)": "infinite",
						"mul(uint256,uint256)": "infinite",
						"setBlacklist(address)": "24781",
						"sub(uint256,uint256)": "infinite"
					}
				},
				"methodIdentifiers": {
					"add(uint256,uint256)": "771602f7",
					"mul(uint256,uint256)": "c8a4ac9c",
					"setBlacklist(address)": "4e054a67",
					"sub(uint256,uint256)": "b67d77c5"
				}
			},
			"storageLayout": {
				"storage": [
					{
						"astId": 158,
						"contract": "Solidity100/Solidity81-90.sol:Question84",
						"label": "blacklist",
						"offset": 0,
						"slot": "0",
						"type": "t_mapping(t_address,t_bool)"
					}
				],
				"types": {
					"t_address": {
						"encoding": "inplace",
						"label": "address",
						"numberOfBytes": "20"
					},
					"t_bool": {
						"encoding": "inplace",
						"label": "bool",
						"numberOfBytes": "1"
					},
					"t_mapping(t_address,t_bool)": {
						"encoding": "mapping",
						"key": "t_address",
						"label": "mapping(address => bool)",
						"numberOfBytes": "32",
						"value": "t_bool"
					}
				}
			},
			"userdoc": {
				"kind": "user",
				"methods": {},
				"version": 1
			}
		}
	}
}