{
	"Solidity100/Solidity81-90.sol": {
		"Question88": {
			"abi": [
				{
					"inputs": [
						{
							"internalType": "address",
							"name": "_a",
							"type": "address"
						}
					],
					"name": "callInternal",
					"outputs": [],
					"stateMutability": "nonpayable",
					"type": "function"
				},
				{
					"inputs": [],
					"name": "getOwner",
					"outputs": [
						{
							"internalType": "address",
							"name": "",
							"type": "address"
						}
					],
					"stateMutability": "view",
					"type": "function"
				}
			],
			"devdoc": {
				"kind": "dev",
				"methods": {},
				"version": 1
			},
			"evm": {
				"assembly": "    /* \"Solidity100/Solidity81-90.sol\":4660:5289  contract Question88 is OWNER{    ... */\n  mstore(0x40, 0x80)\n  callvalue\n  dup1\n  iszero\n  tag_1\n  jumpi\n  0x00\n  dup1\n  revert\ntag_1:\n  pop\n    /* \"Solidity100/Solidity81-90.sol\":4480:4490  msg.sender */\n  caller\n    /* \"Solidity100/Solidity81-90.sol\":4472:4477  owner */\n  0x00\n  dup1\n    /* \"Solidity100/Solidity81-90.sol\":4472:4490  owner = msg.sender */\n  0x0100\n  exp\n  dup2\n  sload\n  dup2\n  0xffffffffffffffffffffffffffffffffffffffff\n  mul\n  not\n  and\n  swap1\n  dup4\n  0xffffffffffffffffffffffffffffffffffffffff\n  and\n  mul\n  or\n  swap1\n  sstore\n  pop\n    /* \"Solidity100/Solidity81-90.sol\":4660:5289  contract Question88 is OWNER{    ... */\n  dataSize(sub_0)\n  dup1\n  dataOffset(sub_0)\n  0x00\n  codecopy\n  0x00\n  return\nstop\n\nsub_0: assembly {\n        /* \"Solidity100/Solidity81-90.sol\":4660:5289  contract Question88 is OWNER{    ... */\n      mstore(0x40, 0x80)\n      callvalue\n      dup1\n      iszero\n      tag_1\n      jumpi\n      0x00\n      dup1\n      revert\n    tag_1:\n      pop\n      jumpi(tag_2, lt(calldatasize, 0x04))\n      shr(0xe0, calldataload(0x00))\n      dup1\n      0x310d6c0f\n      eq\n      tag_3\n      jumpi\n      dup1\n      0x893d20e8\n      eq\n      tag_4\n      jumpi\n    tag_2:\n      0x00\n      dup1\n      revert\n        /* \"Solidity100/Solidity81-90.sol\":5213:5286  function callInternal(address _a) public {... */\n    tag_3:\n      tag_5\n      0x04\n      dup1\n      calldatasize\n      sub\n      dup2\n      add\n      swap1\n      tag_6\n      swap2\n      swap1\n      tag_7\n      jump\t// in\n    tag_6:\n      tag_8\n      jump\t// in\n    tag_5:\n      stop\n        /* \"Solidity100/Solidity81-90.sol\":4578:4656  function getOwner() public view returns(address) {... */\n    tag_4:\n      tag_9\n      tag_10\n      jump\t// in\n    tag_9:\n      mload(0x40)\n      tag_11\n      swap2\n      swap1\n      tag_12\n      jump\t// in\n    tag_11:\n      mload(0x40)\n      dup1\n      swap2\n      sub\n      swap1\n      return\n        /* \"Solidity100/Solidity81-90.sol\":5213:5286  function callInternal(address _a) public {... */\n    tag_8:\n        /* \"Solidity100/Solidity81-90.sol\":5264:5279  setInternal(_a) */\n      tag_14\n        /* \"Solidity100/Solidity81-90.sol\":5276:5278  _a */\n      dup2\n        /* \"Solidity100/Solidity81-90.sol\":5264:5275  setInternal */\n      tag_15\n        /* \"Solidity100/Solidity81-90.sol\":5264:5279  setInternal(_a) */\n      jump\t// in\n    tag_14:\n        /* \"Solidity100/Solidity81-90.sol\":5213:5286  function callInternal(address _a) public {... */\n      pop\n      jump\t// out\n        /* \"Solidity100/Solidity81-90.sol\":4578:4656  function getOwner() public view returns(address) {... */\n    tag_10:\n        /* \"Solidity100/Solidity81-90.sol\":4618:4625  address */\n      0x00\n        /* \"Solidity100/Solidity81-90.sol\":4644:4649  owner */\n      dup1\n      0x00\n      swap1\n      sload\n      swap1\n      0x0100\n      exp\n      swap1\n      div\n      0xffffffffffffffffffffffffffffffffffffffff\n      and\n        /* \"Solidity100/Solidity81-90.sol\":4637:4649  return owner */\n      swap1\n      pop\n        /* \"Solidity100/Solidity81-90.sol\":4578:4656  function getOwner() public view returns(address) {... */\n      swap1\n      jump\t// out\n        /* \"Solidity100/Solidity81-90.sol\":4503:4572  function setInternal(address _a) internal {... */\n    tag_15:\n        /* \"Solidity100/Solidity81-90.sol\":4563:4565  _a */\n      dup1\n        /* \"Solidity100/Solidity81-90.sol\":4555:4560  owner */\n      0x00\n      dup1\n        /* \"Solidity100/Solidity81-90.sol\":4555:4565  owner = _a */\n      0x0100\n      exp\n      dup2\n      sload\n      dup2\n      0xffffffffffffffffffffffffffffffffffffffff\n      mul\n      not\n      and\n      swap1\n      dup4\n      0xffffffffffffffffffffffffffffffffffffffff\n      and\n      mul\n      or\n      swap1\n      sstore\n      pop\n        /* \"Solidity100/Solidity81-90.sol\":4503:4572  function setInternal(address _a) internal {... */\n      pop\n      jump\t// out\n        /* \"#utility.yul\":88:205   */\n    tag_19:\n        /* \"#utility.yul\":197:198   */\n      0x00\n        /* \"#utility.yul\":194:195   */\n      dup1\n        /* \"#utility.yul\":187:199   */\n      revert\n        /* \"#utility.yul\":334:460   */\n    tag_21:\n        /* \"#utility.yul\":371:378   */\n      0x00\n        /* \"#utility.yul\":411:453   */\n      0xffffffffffffffffffffffffffffffffffffffff\n        /* \"#utility.yul\":404:409   */\n      dup3\n        /* \"#utility.yul\":400:454   */\n      and\n        /* \"#utility.yul\":389:454   */\n      swap1\n      pop\n        /* \"#utility.yul\":334:460   */\n      swap2\n      swap1\n      pop\n      jump\t// out\n        /* \"#utility.yul\":466:562   */\n    tag_22:\n        /* \"#utility.yul\":503:510   */\n      0x00\n        /* \"#utility.yul\":532:556   */\n      tag_32\n        /* \"#utility.yul\":550:555   */\n      dup3\n        /* \"#utility.yul\":532:556   */\n      tag_21\n      jump\t// in\n    tag_32:\n        /* \"#utility.yul\":521:556   */\n      swap1\n      pop\n        /* \"#utility.yul\":466:562   */\n      swap2\n      swap1\n      pop\n      jump\t// out\n        /* \"#utility.yul\":568:690   */\n    tag_23:\n        /* \"#utility.yul\":641:665   */\n      tag_34\n        /* \"#utility.yul\":659:664   */\n      dup2\n        /* \"#utility.yul\":641:665   */\n      tag_22\n      jump\t// in\n    tag_34:\n        /* \"#utility.yul\":634:639   */\n      dup2\n        /* \"#utility.yul\":631:666   */\n      eq\n        /* \"#utility.yul\":621:684   */\n      tag_35\n      jumpi\n        /* \"#utility.yul\":680:681   */\n      0x00\n        /* \"#utility.yul\":677:678   */\n      dup1\n        /* \"#utility.yul\":670:682   */\n      revert\n        /* \"#utility.yul\":621:684   */\n    tag_35:\n        /* \"#utility.yul\":568:690   */\n      pop\n      jump\t// out\n        /* \"#utility.yul\":696:835   */\n    tag_24:\n        /* \"#utility.yul\":742:747   */\n      0x00\n        /* \"#utility.yul\":780:786   */\n      dup2\n        /* \"#utility.yul\":767:787   */\n      calldataload\n        /* \"#utility.yul\":758:787   */\n      swap1\n      pop\n        /* \"#utility.yul\":796:829   */\n      tag_37\n        /* \"#utility.yul\":823:828   */\n      dup2\n        /* \"#utility.yul\":796:829   */\n      tag_23\n      jump\t// in\n    tag_37:\n        /* \"#utility.yul\":696:835   */\n      swap3\n      swap2\n      pop\n      pop\n      jump\t// out\n        /* \"#utility.yul\":841:1170   */\n    tag_7:\n        /* \"#utility.yul\":900:906   */\n      0x00\n        /* \"#utility.yul\":949:951   */\n      0x20\n        /* \"#utility.yul\":937:946   */\n      dup3\n        /* \"#utility.yul\":928:935   */\n      dup5\n        /* \"#utility.yul\":924:947   */\n      sub\n        /* \"#utility.yul\":920:952   */\n      slt\n        /* \"#utility.yul\":917:1036   */\n      iszero\n      tag_39\n      jumpi\n        /* \"#utility.yul\":955:1034   */\n      tag_40\n      tag_19\n      jump\t// in\n    tag_40:\n        /* \"#utility.yul\":917:1036   */\n    tag_39:\n        /* \"#utility.yul\":1075:1076   */\n      0x00\n        /* \"#utility.yul\":1100:1153   */\n      tag_41\n        /* \"#utility.yul\":1145:1152   */\n      dup5\n        /* \"#utility.yul\":1136:1142   */\n      dup3\n        /* \"#utility.yul\":1125:1134   */\n      dup6\n        /* \"#utility.yul\":1121:1143   */\n      add\n        /* \"#utility.yul\":1100:1153   */\n      tag_24\n      jump\t// in\n    tag_41:\n        /* \"#utility.yul\":1090:1153   */\n      swap2\n      pop\n        /* \"#utility.yul\":1046:1163   */\n      pop\n        /* \"#utility.yul\":841:1170   */\n      swap3\n      swap2\n      pop\n      pop\n      jump\t// out\n        /* \"#utility.yul\":1176:1294   */\n    tag_25:\n        /* \"#utility.yul\":1263:1287   */\n      tag_43\n        /* \"#utility.yul\":1281:1286   */\n      dup2\n        /* \"#utility.yul\":1263:1287   */\n      tag_22\n      jump\t// in\n    tag_43:\n        /* \"#utility.yul\":1258:1261   */\n      dup3\n        /* \"#utility.yul\":1251:1288   */\n      mstore\n        /* \"#utility.yul\":1176:1294   */\n      pop\n      pop\n      jump\t// out\n        /* \"#utility.yul\":1300:1522   */\n    tag_12:\n        /* \"#utility.yul\":1393:1397   */\n      0x00\n        /* \"#utility.yul\":1431:1433   */\n      0x20\n        /* \"#utility.yul\":1420:1429   */\n      dup3\n        /* \"#utility.yul\":1416:1434   */\n      add\n        /* \"#utility.yul\":1408:1434   */\n      swap1\n      pop\n        /* \"#utility.yul\":1444:1515   */\n      tag_45\n        /* \"#utility.yul\":1512:1513   */\n      0x00\n        /* \"#utility.yul\":1501:1510   */\n      dup4\n        /* \"#utility.yul\":1497:1514   */\n      add\n        /* \"#utility.yul\":1488:1494   */\n      dup5\n        /* \"#utility.yul\":1444:1515   */\n      tag_25\n      jump\t// in\n    tag_45:\n        /* \"#utility.yul\":1300:1522   */\n      swap3\n      swap2\n      pop\n      pop\n      jump\t// out\n\n    auxdata: 0xa2646970667358221220b6cd5fc58495c56d009797019e3d83ff5fe1ac19e042f9987054c66c4047abcf64736f6c634300081a0033\n}\n",
				"bytecode": {
					"linkReferences": {},
					"object": "6080604052348015600e575f80fd5b50335f806101000a81548173ffffffffffffffffffffffffffffffffffffffff021916908373ffffffffffffffffffffffffffffffffffffffff1602179055506101ce8061005b5f395ff3fe608060405234801561000f575f80fd5b5060043610610034575f3560e01c8063310d6c0f14610038578063893d20e814610054575b5f80fd5b610052600480360381019061004d9190610145565b610072565b005b61005c61007e565b604051610069919061017f565b60405180910390f35b61007b816100a5565b50565b5f805f9054906101000a900473ffffffffffffffffffffffffffffffffffffffff16905090565b805f806101000a81548173ffffffffffffffffffffffffffffffffffffffff021916908373ffffffffffffffffffffffffffffffffffffffff16021790555050565b5f80fd5b5f73ffffffffffffffffffffffffffffffffffffffff82169050919050565b5f610114826100eb565b9050919050565b6101248161010a565b811461012e575f80fd5b50565b5f8135905061013f8161011b565b92915050565b5f6020828403121561015a576101596100e7565b5b5f61016784828501610131565b91505092915050565b6101798161010a565b82525050565b5f6020820190506101925f830184610170565b9291505056fea2646970667358221220b6cd5fc58495c56d009797019e3d83ff5fe1ac19e042f9987054c66c4047abcf64736f6c634300081a0033",
					"opcodes": "PUSH1 0x80 PUSH1 0x40 MSTORE CALLVALUE DUP1 ISZERO PUSH1 0xE JUMPI PUSH0 DUP1 REVERT JUMPDEST POP CALLER PUSH0 DUP1 PUSH2 0x100 EXP DUP2 SLOAD DUP2 PUSH20 0xFFFFFFFFFFFFFFFFFFFFFFFFFFFFFFFFFFFFFFFF MUL NOT AND SWAP1 DUP4 PUSH20 0xFFFFFFFFFFFFFFFFFFFFFFFFFFFFFFFFFFFFFFFF AND MUL OR SWAP1 SSTORE POP PUSH2 0x1CE DUP1 PUSH2 0x5B PUSH0 CODECOPY PUSH0 RETURN INVALID PUSH1 0x80 PUSH1 0x40 MSTORE CALLVALUE DUP1 ISZERO PUSH2 0xF JUMPI PUSH0 DUP1 REVERT JUMPDEST POP PUSH1 0x4 CALLDATASIZE LT PUSH2 0x34 JUMPI PUSH0 CALLDATALOAD PUSH1 0xE0 SHR DUP1 PUSH4 0x310D6C0F EQ PUSH2 0x38 JUMPI DUP1 PUSH4 0x893D20E8 EQ PUSH2 0x54 JUMPI JUMPDEST PUSH0 DUP1 REVERT JUMPDEST PUSH2 0x52 PUSH1 0x4 DUP1 CALLDATASIZE SUB DUP2 ADD SWAP1 PUSH2 0x4D SWAP2 SWAP1 PUSH2 0x145 JUMP JUMPDEST PUSH2 0x72 JUMP JUMPDEST STOP JUMPDEST PUSH2 0x5C PUSH2 0x7E JUMP JUMPDEST PUSH1 0x40 MLOAD PUSH2 0x69 SWAP2 SWAP1 PUSH2 0x17F JUMP JUMPDEST PUSH1 0x40 MLOAD DUP1 SWAP2 SUB SWAP1 RETURN JUMPDEST PUSH2 0x7B DUP2 PUSH2 0xA5 JUMP JUMPDEST POP JUMP JUMPDEST PUSH0 DUP1 PUSH0 SWAP1 SLOAD SWAP1 PUSH2 0x100 EXP SWAP1 DIV PUSH20 0xFFFFFFFFFFFFFFFFFFFFFFFFFFFFFFFFFFFFFFFF AND SWAP1 POP SWAP1 JUMP JUMPDEST DUP1 PUSH0 DUP1 PUSH2 0x100 EXP DUP2 SLOAD DUP2 PUSH20 0xFFFFFFFFFFFFFFFFFFFFFFFFFFFFFFFFFFFFFFFF MUL NOT AND SWAP1 DUP4 PUSH20 0xFFFFFFFFFFFFFFFFFFFFFFFFFFFFFFFFFFFFFFFF AND MUL OR SWAP1 SSTORE POP POP JUMP JUMPDEST PUSH0 DUP1 REVERT JUMPDEST PUSH0 PUSH20 0xFFFFFFFFFFFFFFFFFFFFFFFFFFFFFFFFFFFFFFFF DUP3 AND SWAP1 POP SWAP2 SWAP1 POP JUMP JUMPDEST PUSH0 PUSH2 0x114 DUP3 PUSH2 0xEB JUMP JUMPDEST SWAP1 POP SWAP2 SWAP1 POP JUMP JUMPDEST PUSH2 0x124 DUP2 PUSH2 0x10A JUMP JUMPDEST DUP2 EQ PUSH2 0x12E JUMPI PUSH0 DUP1 REVERT JUMPDEST POP JUMP JUMPDEST PUSH0 DUP2 CALLDATALOAD SWAP1 POP PUSH2 0x13F DUP2 PUSH2 0x11B JUMP JUMPDEST SWAP3 SWAP2 POP POP JUMP JUMPDEST PUSH0 PUSH1 0x20 DUP3 DUP5 SUB SLT ISZERO PUSH2 0x15A JUMPI PUSH2 0x159 PUSH2 0xE7 JUMP JUMPDEST JUMPDEST PUSH0 PUSH2 0x167 DUP5 DUP3 DUP6 ADD PUSH2 0x131 JUMP JUMPDEST SWAP2 POP POP SWAP3 SWAP2 POP POP JUMP JUMPDEST PUSH2 0x179 DUP2 PUSH2 0x10A JUMP JUMPDEST DUP3 MSTORE POP POP JUMP JUMPDEST PUSH0 PUSH1 0x20 DUP3 ADD SWAP1 POP PUSH2 0x192 PUSH0 DUP4 ADD DUP5 PUSH2 0x170 JUMP JUMPDEST SWAP3 SWAP2 POP POP JUMP INVALID LOG2 PUSH5 0x6970667358 0x22 SLT KECCAK256 0xB6 0xCD PUSH0 0xC5 DUP5 SWAP6 0xC5 PUSH14 0x9797019E3D83FF5FE1AC19E042 0xF9 SWAP9 PUSH17 0x54C66C4047ABCF64736F6C634300081A00 CALLER "
				},
				"gasEstimates": {
					"creation": {
						"codeDepositCost": "92400",
						"executionCost": "24404",
						"totalCost": "116804"
					},
					"external": {
						"callInternal(address)": "24722",
						"getOwner()": "2515"
					}
				},
				"methodIdentifiers": {
					"callInternal(address)": "310d6c0f",
					"getOwner()": "893d20e8"
				}
			},
			"storageLayout": {
				"storage": [
					{
						"astId": 376,
						"contract": "Solidity100/Solidity81-90.sol:Question88",
						"label": "owner",
						"offset": 0,
						"slot": "0",
						"type": "t_address"
					}
				],
				"types": {
					"t_address": {
						"encoding": "inplace",
						"label": "address",
						"numberOfBytes": "20"
					}
				}
			},
			"userdoc": {
				"kind": "user",
				"methods": {},
				"version": 1
			}
		}
	}
}