{
	"Solidity100/Solidity81-90.sol": {
		"Question89": {
			"abi": [
				{
					"inputs": [
						{
							"internalType": "string",
							"name": "_name",
							"type": "string"
						},
						{
							"internalType": "string",
							"name": "_description",
							"type": "string"
						}
					],
					"name": "setCustomer",
					"outputs": [
						{
							"internalType": "uint256",
							"name": "",
							"type": "uint256"
						}
					],
					"stateMutability": "nonpayable",
					"type": "function"
				}
			],
			"devdoc": {
				"kind": "dev",
				"methods": {},
				"version": 1
			},
			"evm": {
				"assembly": "    /* \"Solidity100/Solidity81-90.sol\":5291:6102  contract Question89{    ... */\n  mstore(0x40, 0x80)\n  callvalue\n  dup1\n  iszero\n  tag_1\n  jumpi\n  0x00\n  dup1\n  revert\ntag_1:\n  pop\n  dataSize(sub_0)\n  dup1\n  dataOffset(sub_0)\n  0x00\n  codecopy\n  0x00\n  return\nstop\n\nsub_0: assembly {\n        /* \"Solidity100/Solidity81-90.sol\":5291:6102  contract Question89{    ... */\n      mstore(0x40, 0x80)\n      callvalue\n      dup1\n      iszero\n      tag_1\n      jumpi\n      0x00\n      dup1\n      revert\n    tag_1:\n      pop\n      jumpi(tag_2, lt(calldatasize, 0x04))\n      shr(0xe0, calldataload(0x00))\n      dup1\n      0xb7da9926\n      eq\n      tag_3\n      jumpi\n    tag_2:\n      0x00\n      dup1\n      revert\n        /* \"Solidity100/Solidity81-90.sol\":5727:6100  function setCustomer(string memory _name, string memory _description) public returns (uint) {... */\n    tag_3:\n      tag_4\n      0x04\n      dup1\n      calldatasize\n      sub\n      dup2\n      add\n      swap1\n      tag_5\n      swap2\n      swap1\n      tag_6\n      jump\t// in\n    tag_5:\n      tag_7\n      jump\t// in\n    tag_4:\n      mload(0x40)\n      tag_8\n      swap2\n      swap1\n      tag_9\n      jump\t// in\n    tag_8:\n      mload(0x40)\n      dup1\n      swap2\n      sub\n      swap1\n      return\n    tag_7:\n        /* \"Solidity100/Solidity81-90.sol\":5813:5817  uint */\n      0x00\n        /* \"Solidity100/Solidity81-90.sol\":5860:5861  5 */\n      0x05\n        /* \"Solidity100/Solidity81-90.sol\":5843:5848  _name */\n      dup4\n        /* \"Solidity100/Solidity81-90.sol\":5837:5856  bytes(_name).length */\n      mload\n        /* \"Solidity100/Solidity81-90.sol\":5837:5861  bytes(_name).length >= 5 */\n      lt\n      iszero\n        /* \"Solidity100/Solidity81-90.sol\":5837:5890  bytes(_name).length >= 5 && bytes(_name).length <= 10 */\n      dup1\n      iszero\n      tag_11\n      jumpi\n      pop\n        /* \"Solidity100/Solidity81-90.sol\":5888:5890  10 */\n      0x0a\n        /* \"Solidity100/Solidity81-90.sol\":5871:5876  _name */\n      dup4\n        /* \"Solidity100/Solidity81-90.sol\":5865:5884  bytes(_name).length */\n      mload\n        /* \"Solidity100/Solidity81-90.sol\":5865:5890  bytes(_name).length <= 10 */\n      gt\n      iszero\n        /* \"Solidity100/Solidity81-90.sol\":5837:5890  bytes(_name).length >= 5 && bytes(_name).length <= 10 */\n    tag_11:\n        /* \"Solidity100/Solidity81-90.sol\":5829:5899  require(bytes(_name).length >= 5 && bytes(_name).length <= 10, \"name\") */\n      tag_12\n      jumpi\n      mload(0x40)\n      0x08c379a000000000000000000000000000000000000000000000000000000000\n      dup2\n      mstore\n      0x04\n      add\n      tag_13\n      swap1\n      tag_14\n      jump\t// in\n    tag_13:\n      mload(0x40)\n      dup1\n      swap2\n      sub\n      swap1\n      revert\n    tag_12:\n        /* \"Solidity100/Solidity81-90.sol\":5947:5949  20 */\n      0x14\n        /* \"Solidity100/Solidity81-90.sol\":5923:5935  _description */\n      dup3\n        /* \"Solidity100/Solidity81-90.sol\":5917:5943  bytes(_description).length */\n      mload\n        /* \"Solidity100/Solidity81-90.sol\":5917:5949  bytes(_description).length >= 20 */\n      lt\n      iszero\n        /* \"Solidity100/Solidity81-90.sol\":5917:5985  bytes(_description).length >= 20 && bytes(_description).length <= 50 */\n      dup1\n      iszero\n      tag_15\n      jumpi\n      pop\n        /* \"Solidity100/Solidity81-90.sol\":5983:5985  50 */\n      0x32\n        /* \"Solidity100/Solidity81-90.sol\":5959:5971  _description */\n      dup3\n        /* \"Solidity100/Solidity81-90.sol\":5953:5979  bytes(_description).length */\n      mload\n        /* \"Solidity100/Solidity81-90.sol\":5953:5985  bytes(_description).length <= 50 */\n      gt\n      iszero\n        /* \"Solidity100/Solidity81-90.sol\":5917:5985  bytes(_description).length >= 20 && bytes(_description).length <= 50 */\n    tag_15:\n        /* \"Solidity100/Solidity81-90.sol\":5909:6001  require(bytes(_description).length >= 20 && bytes(_description).length <= 50, \"description\") */\n      tag_16\n      jumpi\n      mload(0x40)\n      0x08c379a000000000000000000000000000000000000000000000000000000000\n      dup2\n      mstore\n      0x04\n      add\n      tag_17\n      swap1\n      tag_18\n      jump\t// in\n    tag_17:\n      mload(0x40)\n      dup1\n      swap2\n      sub\n      swap1\n      revert\n    tag_16:\n        /* \"Solidity100/Solidity81-90.sol\":6012:6021  customers */\n      0x00\n        /* \"Solidity100/Solidity81-90.sol\":6027:6056  Customer(_name, _description) */\n      mload(0x40)\n      dup1\n      0x40\n      add\n      0x40\n      mstore\n      dup1\n        /* \"Solidity100/Solidity81-90.sol\":6036:6041  _name */\n      dup6\n        /* \"Solidity100/Solidity81-90.sol\":6027:6056  Customer(_name, _description) */\n      dup2\n      mstore\n      0x20\n      add\n        /* \"Solidity100/Solidity81-90.sol\":6043:6055  _description */\n      dup5\n        /* \"Solidity100/Solidity81-90.sol\":6027:6056  Customer(_name, _description) */\n      dup2\n      mstore\n      pop\n        /* \"Solidity100/Solidity81-90.sol\":6012:6057  customers.push(Customer(_name, _description)) */\n      swap1\n      dup1\n      0x01\n      dup2\n      sload\n      add\n      dup1\n      dup3\n      sstore\n      dup1\n      swap2\n      pop\n      pop\n      0x01\n      swap1\n      sub\n      swap1\n      0x00\n      mstore\n      keccak256(0x00, 0x20)\n      swap1\n      0x02\n      mul\n      add\n      0x00\n      swap1\n      swap2\n      swap1\n      swap2\n      swap1\n      swap2\n      pop\n      0x00\n      dup3\n      add\n      mload\n      dup2\n      0x00\n      add\n      swap1\n      dup2\n      tag_20\n      swap2\n      swap1\n      tag_21\n      jump\t// in\n    tag_20:\n      pop\n      0x20\n      dup3\n      add\n      mload\n      dup2\n      0x01\n      add\n      swap1\n      dup2\n      tag_22\n      swap2\n      swap1\n      tag_21\n      jump\t// in\n    tag_22:\n      pop\n      pop\n      pop\n        /* \"Solidity100/Solidity81-90.sol\":6080:6085  _name */\n      dup3\n        /* \"Solidity100/Solidity81-90.sol\":6074:6093  bytes(_name).length */\n      mload\n        /* \"Solidity100/Solidity81-90.sol\":6067:6093  return bytes(_name).length */\n      swap1\n      pop\n        /* \"Solidity100/Solidity81-90.sol\":5727:6100  function setCustomer(string memory _name, string memory _description) public returns (uint) {... */\n      swap3\n      swap2\n      pop\n      pop\n      jump\t// out\n        /* \"#utility.yul\":7:82   */\n    tag_23:\n        /* \"#utility.yul\":40:46   */\n      0x00\n        /* \"#utility.yul\":73:75   */\n      0x40\n        /* \"#utility.yul\":67:76   */\n      mload\n        /* \"#utility.yul\":57:76   */\n      swap1\n      pop\n        /* \"#utility.yul\":7:82   */\n      swap1\n      jump\t// out\n        /* \"#utility.yul\":88:205   */\n    tag_24:\n        /* \"#utility.yul\":197:198   */\n      0x00\n        /* \"#utility.yul\":194:195   */\n      dup1\n        /* \"#utility.yul\":187:199   */\n      revert\n        /* \"#utility.yul\":211:328   */\n    tag_25:\n        /* \"#utility.yul\":320:321   */\n      0x00\n        /* \"#utility.yul\":317:318   */\n      dup1\n        /* \"#utility.yul\":310:322   */\n      revert\n        /* \"#utility.yul\":334:451   */\n    tag_26:\n        /* \"#utility.yul\":443:444   */\n      0x00\n        /* \"#utility.yul\":440:441   */\n      dup1\n        /* \"#utility.yul\":433:445   */\n      revert\n        /* \"#utility.yul\":457:574   */\n    tag_27:\n        /* \"#utility.yul\":566:567   */\n      0x00\n        /* \"#utility.yul\":563:564   */\n      dup1\n        /* \"#utility.yul\":556:568   */\n      revert\n        /* \"#utility.yul\":580:682   */\n    tag_28:\n        /* \"#utility.yul\":621:627   */\n      0x00\n        /* \"#utility.yul\":672:674   */\n      0x1f\n        /* \"#utility.yul\":668:675   */\n      not\n        /* \"#utility.yul\":663:665   */\n      0x1f\n        /* \"#utility.yul\":656:661   */\n      dup4\n        /* \"#utility.yul\":652:666   */\n      add\n        /* \"#utility.yul\":648:676   */\n      and\n        /* \"#utility.yul\":638:676   */\n      swap1\n      pop\n        /* \"#utility.yul\":580:682   */\n      swap2\n      swap1\n      pop\n      jump\t// out\n        /* \"#utility.yul\":688:868   */\n    tag_29:\n        /* \"#utility.yul\":736:813   */\n      0x4e487b7100000000000000000000000000000000000000000000000000000000\n        /* \"#utility.yul\":733:734   */\n      0x00\n        /* \"#utility.yul\":726:814   */\n      mstore\n        /* \"#utility.yul\":833:837   */\n      0x41\n        /* \"#utility.yul\":830:831   */\n      0x04\n        /* \"#utility.yul\":823:838   */\n      mstore\n        /* \"#utility.yul\":857:861   */\n      0x24\n        /* \"#utility.yul\":854:855   */\n      0x00\n        /* \"#utility.yul\":847:862   */\n      revert\n        /* \"#utility.yul\":874:1155   */\n    tag_30:\n        /* \"#utility.yul\":957:984   */\n      tag_70\n        /* \"#utility.yul\":979:983   */\n      dup3\n        /* \"#utility.yul\":957:984   */\n      tag_28\n      jump\t// in\n    tag_70:\n        /* \"#utility.yul\":949:955   */\n      dup2\n        /* \"#utility.yul\":945:985   */\n      add\n        /* \"#utility.yul\":1087:1093   */\n      dup2\n        /* \"#utility.yul\":1075:1085   */\n      dup2\n        /* \"#utility.yul\":1072:1094   */\n      lt\n        /* \"#utility.yul\":1051:1069   */\n      0xffffffffffffffff\n        /* \"#utility.yul\":1039:1049   */\n      dup3\n        /* \"#utility.yul\":1036:1070   */\n      gt\n        /* \"#utility.yul\":1033:1095   */\n      or\n        /* \"#utility.yul\":1030:1118   */\n      iszero\n      tag_71\n      jumpi\n        /* \"#utility.yul\":1098:1116   */\n      tag_72\n      tag_29\n      jump\t// in\n    tag_72:\n        /* \"#utility.yul\":1030:1118   */\n    tag_71:\n        /* \"#utility.yul\":1138:1148   */\n      dup1\n        /* \"#utility.yul\":1134:1136   */\n      0x40\n        /* \"#utility.yul\":1127:1149   */\n      mstore\n        /* \"#utility.yul\":917:1155   */\n      pop\n        /* \"#utility.yul\":874:1155   */\n      pop\n      pop\n      jump\t// out\n        /* \"#utility.yul\":1161:1290   */\n    tag_31:\n        /* \"#utility.yul\":1195:1201   */\n      0x00\n        /* \"#utility.yul\":1222:1242   */\n      tag_74\n      tag_23\n      jump\t// in\n    tag_74:\n        /* \"#utility.yul\":1212:1242   */\n      swap1\n      pop\n        /* \"#utility.yul\":1251:1284   */\n      tag_75\n        /* \"#utility.yul\":1279:1283   */\n      dup3\n        /* \"#utility.yul\":1271:1277   */\n      dup3\n        /* \"#utility.yul\":1251:1284   */\n      tag_30\n      jump\t// in\n    tag_75:\n        /* \"#utility.yul\":1161:1290   */\n      swap2\n      swap1\n      pop\n      jump\t// out\n        /* \"#utility.yul\":1296:1604   */\n    tag_32:\n        /* \"#utility.yul\":1358:1362   */\n      0x00\n        /* \"#utility.yul\":1448:1466   */\n      0xffffffffffffffff\n        /* \"#utility.yul\":1440:1446   */\n      dup3\n        /* \"#utility.yul\":1437:1467   */\n      gt\n        /* \"#utility.yul\":1434:1490   */\n      iszero\n      tag_77\n      jumpi\n        /* \"#utility.yul\":1470:1488   */\n      tag_78\n      tag_29\n      jump\t// in\n    tag_78:\n        /* \"#utility.yul\":1434:1490   */\n    tag_77:\n        /* \"#utility.yul\":1508:1537   */\n      tag_79\n        /* \"#utility.yul\":1530:1536   */\n      dup3\n        /* \"#utility.yul\":1508:1537   */\n      tag_28\n      jump\t// in\n    tag_79:\n        /* \"#utility.yul\":1500:1537   */\n      swap1\n      pop\n        /* \"#utility.yul\":1592:1596   */\n      0x20\n        /* \"#utility.yul\":1586:1590   */\n      dup2\n        /* \"#utility.yul\":1582:1597   */\n      add\n        /* \"#utility.yul\":1574:1597   */\n      swap1\n      pop\n        /* \"#utility.yul\":1296:1604   */\n      swap2\n      swap1\n      pop\n      jump\t// out\n        /* \"#utility.yul\":1610:1758   */\n    tag_33:\n        /* \"#utility.yul\":1708:1714   */\n      dup3\n        /* \"#utility.yul\":1703:1706   */\n      dup2\n        /* \"#utility.yul\":1698:1701   */\n      dup4\n        /* \"#utility.yul\":1685:1715   */\n      calldatacopy\n        /* \"#utility.yul\":1749:1750   */\n      0x00\n        /* \"#utility.yul\":1740:1746   */\n      dup4\n        /* \"#utility.yul\":1735:1738   */\n      dup4\n        /* \"#utility.yul\":1731:1747   */\n      add\n        /* \"#utility.yul\":1724:1751   */\n      mstore\n        /* \"#utility.yul\":1610:1758   */\n      pop\n      pop\n      pop\n      jump\t// out\n        /* \"#utility.yul\":1764:2189   */\n    tag_34:\n        /* \"#utility.yul\":1842:1847   */\n      0x00\n        /* \"#utility.yul\":1867:1933   */\n      tag_82\n        /* \"#utility.yul\":1883:1932   */\n      tag_83\n        /* \"#utility.yul\":1925:1931   */\n      dup5\n        /* \"#utility.yul\":1883:1932   */\n      tag_32\n      jump\t// in\n    tag_83:\n        /* \"#utility.yul\":1867:1933   */\n      tag_31\n      jump\t// in\n    tag_82:\n        /* \"#utility.yul\":1858:1933   */\n      swap1\n      pop\n        /* \"#utility.yul\":1956:1962   */\n      dup3\n        /* \"#utility.yul\":1949:1954   */\n      dup2\n        /* \"#utility.yul\":1942:1963   */\n      mstore\n        /* \"#utility.yul\":1994:1998   */\n      0x20\n        /* \"#utility.yul\":1987:1992   */\n      dup2\n        /* \"#utility.yul\":1983:1999   */\n      add\n        /* \"#utility.yul\":2032:2035   */\n      dup5\n        /* \"#utility.yul\":2023:2029   */\n      dup5\n        /* \"#utility.yul\":2018:2021   */\n      dup5\n        /* \"#utility.yul\":2014:2030   */\n      add\n        /* \"#utility.yul\":2011:2036   */\n      gt\n        /* \"#utility.yul\":2008:2120   */\n      iszero\n      tag_84\n      jumpi\n        /* \"#utility.yul\":2039:2118   */\n      tag_85\n      tag_27\n      jump\t// in\n    tag_85:\n        /* \"#utility.yul\":2008:2120   */\n    tag_84:\n        /* \"#utility.yul\":2129:2183   */\n      tag_86\n        /* \"#utility.yul\":2176:2182   */\n      dup5\n        /* \"#utility.yul\":2171:2174   */\n      dup3\n        /* \"#utility.yul\":2166:2169   */\n      dup6\n        /* \"#utility.yul\":2129:2183   */\n      tag_33\n      jump\t// in\n    tag_86:\n        /* \"#utility.yul\":1848:2189   */\n      pop\n        /* \"#utility.yul\":1764:2189   */\n      swap4\n      swap3\n      pop\n      pop\n      pop\n      jump\t// out\n        /* \"#utility.yul\":2209:2549   */\n    tag_35:\n        /* \"#utility.yul\":2265:2270   */\n      0x00\n        /* \"#utility.yul\":2314:2317   */\n      dup3\n        /* \"#utility.yul\":2307:2311   */\n      0x1f\n        /* \"#utility.yul\":2299:2305   */\n      dup4\n        /* \"#utility.yul\":2295:2312   */\n      add\n        /* \"#utility.yul\":2291:2318   */\n      slt\n        /* \"#utility.yul\":2281:2403   */\n      tag_88\n      jumpi\n        /* \"#utility.yul\":2322:2401   */\n      tag_89\n      tag_26\n      jump\t// in\n    tag_89:\n        /* \"#utility.yul\":2281:2403   */\n    tag_88:\n        /* \"#utility.yul\":2439:2445   */\n      dup2\n        /* \"#utility.yul\":2426:2446   */\n      calldataload\n        /* \"#utility.yul\":2464:2543   */\n      tag_90\n        /* \"#utility.yul\":2539:2542   */\n      dup5\n        /* \"#utility.yul\":2531:2537   */\n      dup3\n        /* \"#utility.yul\":2524:2528   */\n      0x20\n        /* \"#utility.yul\":2516:2522   */\n      dup7\n        /* \"#utility.yul\":2512:2529   */\n      add\n        /* \"#utility.yul\":2464:2543   */\n      tag_34\n      jump\t// in\n    tag_90:\n        /* \"#utility.yul\":2455:2543   */\n      swap2\n      pop\n        /* \"#utility.yul\":2271:2549   */\n      pop\n        /* \"#utility.yul\":2209:2549   */\n      swap3\n      swap2\n      pop\n      pop\n      jump\t// out\n        /* \"#utility.yul\":2555:3389   */\n    tag_6:\n        /* \"#utility.yul\":2643:2649   */\n      0x00\n        /* \"#utility.yul\":2651:2657   */\n      dup1\n        /* \"#utility.yul\":2700:2702   */\n      0x40\n        /* \"#utility.yul\":2688:2697   */\n      dup4\n        /* \"#utility.yul\":2679:2686   */\n      dup6\n        /* \"#utility.yul\":2675:2698   */\n      sub\n        /* \"#utility.yul\":2671:2703   */\n      slt\n        /* \"#utility.yul\":2668:2787   */\n      iszero\n      tag_92\n      jumpi\n        /* \"#utility.yul\":2706:2785   */\n      tag_93\n      tag_24\n      jump\t// in\n    tag_93:\n        /* \"#utility.yul\":2668:2787   */\n    tag_92:\n        /* \"#utility.yul\":2854:2855   */\n      0x00\n        /* \"#utility.yul\":2843:2852   */\n      dup4\n        /* \"#utility.yul\":2839:2856   */\n      add\n        /* \"#utility.yul\":2826:2857   */\n      calldataload\n        /* \"#utility.yul\":2884:2902   */\n      0xffffffffffffffff\n        /* \"#utility.yul\":2876:2882   */\n      dup2\n        /* \"#utility.yul\":2873:2903   */\n      gt\n        /* \"#utility.yul\":2870:2987   */\n      iszero\n      tag_94\n      jumpi\n        /* \"#utility.yul\":2906:2985   */\n      tag_95\n      tag_25\n      jump\t// in\n    tag_95:\n        /* \"#utility.yul\":2870:2987   */\n    tag_94:\n        /* \"#utility.yul\":3011:3074   */\n      tag_96\n        /* \"#utility.yul\":3066:3073   */\n      dup6\n        /* \"#utility.yul\":3057:3063   */\n      dup3\n        /* \"#utility.yul\":3046:3055   */\n      dup7\n        /* \"#utility.yul\":3042:3064   */\n      add\n        /* \"#utility.yul\":3011:3074   */\n      tag_35\n      jump\t// in\n    tag_96:\n        /* \"#utility.yul\":3001:3074   */\n      swap3\n      pop\n        /* \"#utility.yul\":2797:3084   */\n      pop\n        /* \"#utility.yul\":3151:3153   */\n      0x20\n        /* \"#utility.yul\":3140:3149   */\n      dup4\n        /* \"#utility.yul\":3136:3154   */\n      add\n        /* \"#utility.yul\":3123:3155   */\n      calldataload\n        /* \"#utility.yul\":3182:3200   */\n      0xffffffffffffffff\n        /* \"#utility.yul\":3174:3180   */\n      dup2\n        /* \"#utility.yul\":3171:3201   */\n      gt\n        /* \"#utility.yul\":3168:3285   */\n      iszero\n      tag_97\n      jumpi\n        /* \"#utility.yul\":3204:3283   */\n      tag_98\n      tag_25\n      jump\t// in\n    tag_98:\n        /* \"#utility.yul\":3168:3285   */\n    tag_97:\n        /* \"#utility.yul\":3309:3372   */\n      tag_99\n        /* \"#utility.yul\":3364:3371   */\n      dup6\n        /* \"#utility.yul\":3355:3361   */\n      dup3\n        /* \"#utility.yul\":3344:3353   */\n      dup7\n        /* \"#utility.yul\":3340:3362   */\n      add\n        /* \"#utility.yul\":3309:3372   */\n      tag_35\n      jump\t// in\n    tag_99:\n        /* \"#utility.yul\":3299:3372   */\n      swap2\n      pop\n        /* \"#utility.yul\":3094:3382   */\n      pop\n        /* \"#utility.yul\":2555:3389   */\n      swap3\n      pop\n      swap3\n      swap1\n      pop\n      jump\t// out\n        /* \"#utility.yul\":3395:3472   */\n    tag_36:\n        /* \"#utility.yul\":3432:3439   */\n      0x00\n        /* \"#utility.yul\":3461:3466   */\n      dup2\n        /* \"#utility.yul\":3450:3466   */\n      swap1\n      pop\n        /* \"#utility.yul\":3395:3472   */\n      swap2\n      swap1\n      pop\n      jump\t// out\n        /* \"#utility.yul\":3478:3596   */\n    tag_37:\n        /* \"#utility.yul\":3565:3589   */\n      tag_102\n        /* \"#utility.yul\":3583:3588   */\n      dup2\n        /* \"#utility.yul\":3565:3589   */\n      tag_36\n      jump\t// in\n    tag_102:\n        /* \"#utility.yul\":3560:3563   */\n      dup3\n        /* \"#utility.yul\":3553:3590   */\n      mstore\n        /* \"#utility.yul\":3478:3596   */\n      pop\n      pop\n      jump\t// out\n        /* \"#utility.yul\":3602:3824   */\n    tag_9:\n        /* \"#utility.yul\":3695:3699   */\n      0x00\n        /* \"#utility.yul\":3733:3735   */\n      0x20\n        /* \"#utility.yul\":3722:3731   */\n      dup3\n        /* \"#utility.yul\":3718:3736   */\n      add\n        /* \"#utility.yul\":3710:3736   */\n      swap1\n      pop\n        /* \"#utility.yul\":3746:3817   */\n      tag_104\n        /* \"#utility.yul\":3814:3815   */\n      0x00\n        /* \"#utility.yul\":3803:3812   */\n      dup4\n        /* \"#utility.yul\":3799:3816   */\n      add\n        /* \"#utility.yul\":3790:3796   */\n      dup5\n        /* \"#utility.yul\":3746:3817   */\n      tag_37\n      jump\t// in\n    tag_104:\n        /* \"#utility.yul\":3602:3824   */\n      swap3\n      swap2\n      pop\n      pop\n      jump\t// out\n        /* \"#utility.yul\":3830:3999   */\n    tag_38:\n        /* \"#utility.yul\":3914:3925   */\n      0x00\n        /* \"#utility.yul\":3948:3954   */\n      dup3\n        /* \"#utility.yul\":3943:3946   */\n      dup3\n        /* \"#utility.yul\":3936:3955   */\n      mstore\n        /* \"#utility.yul\":3988:3992   */\n      0x20\n        /* \"#utility.yul\":3983:3986   */\n      dup3\n        /* \"#utility.yul\":3979:3993   */\n      add\n        /* \"#utility.yul\":3964:3993   */\n      swap1\n      pop\n        /* \"#utility.yul\":3830:3999   */\n      swap3\n      swap2\n      pop\n      pop\n      jump\t// out\n        /* \"#utility.yul\":4005:4159   */\n    tag_39:\n        /* \"#utility.yul\":4145:4151   */\n      0x6e616d6500000000000000000000000000000000000000000000000000000000\n        /* \"#utility.yul\":4141:4142   */\n      0x00\n        /* \"#utility.yul\":4133:4139   */\n      dup3\n        /* \"#utility.yul\":4129:4143   */\n      add\n        /* \"#utility.yul\":4122:4152   */\n      mstore\n        /* \"#utility.yul\":4005:4159   */\n      pop\n      jump\t// out\n        /* \"#utility.yul\":4165:4530   */\n    tag_40:\n        /* \"#utility.yul\":4307:4310   */\n      0x00\n        /* \"#utility.yul\":4328:4394   */\n      tag_108\n        /* \"#utility.yul\":4392:4393   */\n      0x04\n        /* \"#utility.yul\":4387:4390   */\n      dup4\n        /* \"#utility.yul\":4328:4394   */\n      tag_38\n      jump\t// in\n    tag_108:\n        /* \"#utility.yul\":4321:4394   */\n      swap2\n      pop\n        /* \"#utility.yul\":4403:4496   */\n      tag_109\n        /* \"#utility.yul\":4492:4495   */\n      dup3\n        /* \"#utility.yul\":4403:4496   */\n      tag_39\n      jump\t// in\n    tag_109:\n        /* \"#utility.yul\":4521:4523   */\n      0x20\n        /* \"#utility.yul\":4516:4519   */\n      dup3\n        /* \"#utility.yul\":4512:4524   */\n      add\n        /* \"#utility.yul\":4505:4524   */\n      swap1\n      pop\n        /* \"#utility.yul\":4165:4530   */\n      swap2\n      swap1\n      pop\n      jump\t// out\n        /* \"#utility.yul\":4536:4955   */\n    tag_14:\n        /* \"#utility.yul\":4702:4706   */\n      0x00\n        /* \"#utility.yul\":4740:4742   */\n      0x20\n        /* \"#utility.yul\":4729:4738   */\n      dup3\n        /* \"#utility.yul\":4725:4743   */\n      add\n        /* \"#utility.yul\":4717:4743   */\n      swap1\n      pop\n        /* \"#utility.yul\":4789:4798   */\n      dup2\n        /* \"#utility.yul\":4783:4787   */\n      dup2\n        /* \"#utility.yul\":4779:4799   */\n      sub\n        /* \"#utility.yul\":4775:4776   */\n      0x00\n        /* \"#utility.yul\":4764:4773   */\n      dup4\n        /* \"#utility.yul\":4760:4777   */\n      add\n        /* \"#utility.yul\":4753:4800   */\n      mstore\n        /* \"#utility.yul\":4817:4948   */\n      tag_111\n        /* \"#utility.yul\":4943:4947   */\n      dup2\n        /* \"#utility.yul\":4817:4948   */\n      tag_40\n      jump\t// in\n    tag_111:\n        /* \"#utility.yul\":4809:4948   */\n      swap1\n      pop\n        /* \"#utility.yul\":4536:4955   */\n      swap2\n      swap1\n      pop\n      jump\t// out\n        /* \"#utility.yul\":4961:5122   */\n    tag_41:\n        /* \"#utility.yul\":5101:5114   */\n      0x6465736372697074696f6e000000000000000000000000000000000000000000\n        /* \"#utility.yul\":5097:5098   */\n      0x00\n        /* \"#utility.yul\":5089:5095   */\n      dup3\n        /* \"#utility.yul\":5085:5099   */\n      add\n        /* \"#utility.yul\":5078:5115   */\n      mstore\n        /* \"#utility.yul\":4961:5122   */\n      pop\n      jump\t// out\n        /* \"#utility.yul\":5128:5494   */\n    tag_42:\n        /* \"#utility.yul\":5270:5273   */\n      0x00\n        /* \"#utility.yul\":5291:5358   */\n      tag_114\n        /* \"#utility.yul\":5355:5357   */\n      0x0b\n        /* \"#utility.yul\":5350:5353   */\n      dup4\n        /* \"#utility.yul\":5291:5358   */\n      tag_38\n      jump\t// in\n    tag_114:\n        /* \"#utility.yul\":5284:5358   */\n      swap2\n      pop\n        /* \"#utility.yul\":5367:5460   */\n      tag_115\n        /* \"#utility.yul\":5456:5459   */\n      dup3\n        /* \"#utility.yul\":5367:5460   */\n      tag_41\n      jump\t// in\n    tag_115:\n        /* \"#utility.yul\":5485:5487   */\n      0x20\n        /* \"#utility.yul\":5480:5483   */\n      dup3\n        /* \"#utility.yul\":5476:5488   */\n      add\n        /* \"#utility.yul\":5469:5488   */\n      swap1\n      pop\n        /* \"#utility.yul\":5128:5494   */\n      swap2\n      swap1\n      pop\n      jump\t// out\n        /* \"#utility.yul\":5500:5919   */\n    tag_18:\n        /* \"#utility.yul\":5666:5670   */\n      0x00\n        /* \"#utility.yul\":5704:5706   */\n      0x20\n        /* \"#utility.yul\":5693:5702   */\n      dup3\n        /* \"#utility.yul\":5689:5707   */\n      add\n        /* \"#utility.yul\":5681:5707   */\n      swap1\n      pop\n        /* \"#utility.yul\":5753:5762   */\n      dup2\n        /* \"#utility.yul\":5747:5751   */\n      dup2\n        /* \"#utility.yul\":5743:5763   */\n      sub\n        /* \"#utility.yul\":5739:5740   */\n      0x00\n        /* \"#utility.yul\":5728:5737   */\n      dup4\n        /* \"#utility.yul\":5724:5741   */\n      add\n        /* \"#utility.yul\":5717:5764   */\n      mstore\n        /* \"#utility.yul\":5781:5912   */\n      tag_117\n        /* \"#utility.yul\":5907:5911   */\n      dup2\n        /* \"#utility.yul\":5781:5912   */\n      tag_42\n      jump\t// in\n    tag_117:\n        /* \"#utility.yul\":5773:5912   */\n      swap1\n      pop\n        /* \"#utility.yul\":5500:5919   */\n      swap2\n      swap1\n      pop\n      jump\t// out\n        /* \"#utility.yul\":5925:6024   */\n    tag_43:\n        /* \"#utility.yul\":5977:5983   */\n      0x00\n        /* \"#utility.yul\":6011:6016   */\n      dup2\n        /* \"#utility.yul\":6005:6017   */\n      mload\n        /* \"#utility.yul\":5995:6017   */\n      swap1\n      pop\n        /* \"#utility.yul\":5925:6024   */\n      swap2\n      swap1\n      pop\n      jump\t// out\n        /* \"#utility.yul\":6030:6210   */\n    tag_44:\n        /* \"#utility.yul\":6078:6155   */\n      0x4e487b7100000000000000000000000000000000000000000000000000000000\n        /* \"#utility.yul\":6075:6076   */\n      0x00\n        /* \"#utility.yul\":6068:6156   */\n      mstore\n        /* \"#utility.yul\":6175:6179   */\n      0x22\n        /* \"#utility.yul\":6172:6173   */\n      0x04\n        /* \"#utility.yul\":6165:6180   */\n      mstore\n        /* \"#utility.yul\":6199:6203   */\n      0x24\n        /* \"#utility.yul\":6196:6197   */\n      0x00\n        /* \"#utility.yul\":6189:6204   */\n      revert\n        /* \"#utility.yul\":6216:6536   */\n    tag_45:\n        /* \"#utility.yul\":6260:6266   */\n      0x00\n        /* \"#utility.yul\":6297:6298   */\n      0x02\n        /* \"#utility.yul\":6291:6295   */\n      dup3\n        /* \"#utility.yul\":6287:6299   */\n      div\n        /* \"#utility.yul\":6277:6299   */\n      swap1\n      pop\n        /* \"#utility.yul\":6344:6345   */\n      0x01\n        /* \"#utility.yul\":6338:6342   */\n      dup3\n        /* \"#utility.yul\":6334:6346   */\n      and\n        /* \"#utility.yul\":6365:6383   */\n      dup1\n        /* \"#utility.yul\":6355:6436   */\n      tag_121\n      jumpi\n        /* \"#utility.yul\":6421:6425   */\n      0x7f\n        /* \"#utility.yul\":6413:6419   */\n      dup3\n        /* \"#utility.yul\":6409:6426   */\n      and\n        /* \"#utility.yul\":6399:6426   */\n      swap2\n      pop\n        /* \"#utility.yul\":6355:6436   */\n    tag_121:\n        /* \"#utility.yul\":6483:6485   */\n      0x20\n        /* \"#utility.yul\":6475:6481   */\n      dup3\n        /* \"#utility.yul\":6472:6486   */\n      lt\n        /* \"#utility.yul\":6452:6470   */\n      dup2\n        /* \"#utility.yul\":6449:6487   */\n      sub\n        /* \"#utility.yul\":6446:6530   */\n      tag_122\n      jumpi\n        /* \"#utility.yul\":6502:6520   */\n      tag_123\n      tag_44\n      jump\t// in\n    tag_123:\n        /* \"#utility.yul\":6446:6530   */\n    tag_122:\n        /* \"#utility.yul\":6267:6536   */\n      pop\n        /* \"#utility.yul\":6216:6536   */\n      swap2\n      swap1\n      pop\n      jump\t// out\n        /* \"#utility.yul\":6542:6683   */\n    tag_46:\n        /* \"#utility.yul\":6591:6595   */\n      0x00\n        /* \"#utility.yul\":6614:6617   */\n      dup2\n        /* \"#utility.yul\":6606:6617   */\n      swap1\n      pop\n        /* \"#utility.yul\":6637:6640   */\n      dup2\n        /* \"#utility.yul\":6634:6635   */\n      0x00\n        /* \"#utility.yul\":6627:6641   */\n      mstore\n        /* \"#utility.yul\":6671:6675   */\n      0x20\n        /* \"#utility.yul\":6668:6669   */\n      0x00\n        /* \"#utility.yul\":6658:6676   */\n      keccak256\n        /* \"#utility.yul\":6650:6676   */\n      swap1\n      pop\n        /* \"#utility.yul\":6542:6683   */\n      swap2\n      swap1\n      pop\n      jump\t// out\n        /* \"#utility.yul\":6689:6782   */\n    tag_47:\n        /* \"#utility.yul\":6726:6732   */\n      0x00\n        /* \"#utility.yul\":6773:6775   */\n      0x20\n        /* \"#utility.yul\":6768:6770   */\n      0x1f\n        /* \"#utility.yul\":6761:6766   */\n      dup4\n        /* \"#utility.yul\":6757:6771   */\n      add\n        /* \"#utility.yul\":6753:6776   */\n      div\n        /* \"#utility.yul\":6743:6776   */\n      swap1\n      pop\n        /* \"#utility.yul\":6689:6782   */\n      swap2\n      swap1\n      pop\n      jump\t// out\n        /* \"#utility.yul\":6788:6895   */\n    tag_48:\n        /* \"#utility.yul\":6832:6840   */\n      0x00\n        /* \"#utility.yul\":6882:6887   */\n      dup3\n        /* \"#utility.yul\":6876:6880   */\n      dup3\n        /* \"#utility.yul\":6872:6888   */\n      shl\n        /* \"#utility.yul\":6851:6888   */\n      swap1\n      pop\n        /* \"#utility.yul\":6788:6895   */\n      swap3\n      swap2\n      pop\n      pop\n      jump\t// out\n        /* \"#utility.yul\":6901:7294   */\n    tag_49:\n        /* \"#utility.yul\":6970:6976   */\n      0x00\n        /* \"#utility.yul\":7020:7021   */\n      0x08\n        /* \"#utility.yul\":7008:7018   */\n      dup4\n        /* \"#utility.yul\":7004:7022   */\n      mul\n        /* \"#utility.yul\":7043:7140   */\n      tag_128\n        /* \"#utility.yul\":7073:7139   */\n      0xffffffffffffffffffffffffffffffffffffffffffffffffffffffffffffffff\n        /* \"#utility.yul\":7062:7071   */\n      dup3\n        /* \"#utility.yul\":7043:7140   */\n      tag_48\n      jump\t// in\n    tag_128:\n        /* \"#utility.yul\":7161:7200   */\n      tag_129\n        /* \"#utility.yul\":7191:7199   */\n      dup7\n        /* \"#utility.yul\":7180:7189   */\n      dup4\n        /* \"#utility.yul\":7161:7200   */\n      tag_48\n      jump\t// in\n    tag_129:\n        /* \"#utility.yul\":7149:7200   */\n      swap6\n      pop\n        /* \"#utility.yul\":7233:7237   */\n      dup1\n        /* \"#utility.yul\":7229:7238   */\n      not\n        /* \"#utility.yul\":7222:7227   */\n      dup5\n        /* \"#utility.yul\":7218:7239   */\n      and\n        /* \"#utility.yul\":7209:7239   */\n      swap4\n      pop\n        /* \"#utility.yul\":7282:7286   */\n      dup1\n        /* \"#utility.yul\":7272:7280   */\n      dup7\n        /* \"#utility.yul\":7268:7287   */\n      and\n        /* \"#utility.yul\":7261:7266   */\n      dup5\n        /* \"#utility.yul\":7258:7288   */\n      or\n        /* \"#utility.yul\":7248:7288   */\n      swap3\n      pop\n        /* \"#utility.yul\":6977:7294   */\n      pop\n      pop\n        /* \"#utility.yul\":6901:7294   */\n      swap4\n      swap3\n      pop\n      pop\n      pop\n      jump\t// out\n        /* \"#utility.yul\":7300:7360   */\n    tag_50:\n        /* \"#utility.yul\":7328:7331   */\n      0x00\n        /* \"#utility.yul\":7349:7354   */\n      dup2\n        /* \"#utility.yul\":7342:7354   */\n      swap1\n      pop\n        /* \"#utility.yul\":7300:7360   */\n      swap2\n      swap1\n      pop\n      jump\t// out\n        /* \"#utility.yul\":7366:7508   */\n    tag_51:\n        /* \"#utility.yul\":7416:7425   */\n      0x00\n        /* \"#utility.yul\":7449:7502   */\n      tag_132\n        /* \"#utility.yul\":7467:7501   */\n      tag_133\n        /* \"#utility.yul\":7476:7500   */\n      tag_134\n        /* \"#utility.yul\":7494:7499   */\n      dup5\n        /* \"#utility.yul\":7476:7500   */\n      tag_36\n      jump\t// in\n    tag_134:\n        /* \"#utility.yul\":7467:7501   */\n      tag_50\n      jump\t// in\n    tag_133:\n        /* \"#utility.yul\":7449:7502   */\n      tag_36\n      jump\t// in\n    tag_132:\n        /* \"#utility.yul\":7436:7502   */\n      swap1\n      pop\n        /* \"#utility.yul\":7366:7508   */\n      swap2\n      swap1\n      pop\n      jump\t// out\n        /* \"#utility.yul\":7514:7589   */\n    tag_52:\n        /* \"#utility.yul\":7557:7560   */\n      0x00\n        /* \"#utility.yul\":7578:7583   */\n      dup2\n        /* \"#utility.yul\":7571:7583   */\n      swap1\n      pop\n        /* \"#utility.yul\":7514:7589   */\n      swap2\n      swap1\n      pop\n      jump\t// out\n        /* \"#utility.yul\":7595:7864   */\n    tag_53:\n        /* \"#utility.yul\":7705:7744   */\n      tag_137\n        /* \"#utility.yul\":7736:7743   */\n      dup4\n        /* \"#utility.yul\":7705:7744   */\n      tag_51\n      jump\t// in\n    tag_137:\n        /* \"#utility.yul\":7766:7857   */\n      tag_138\n        /* \"#utility.yul\":7815:7856   */\n      tag_139\n        /* \"#utility.yul\":7839:7855   */\n      dup3\n        /* \"#utility.yul\":7815:7856   */\n      tag_52\n      jump\t// in\n    tag_139:\n        /* \"#utility.yul\":7807:7813   */\n      dup5\n        /* \"#utility.yul\":7800:7804   */\n      dup5\n        /* \"#utility.yul\":7794:7805   */\n      sload\n        /* \"#utility.yul\":7766:7857   */\n      tag_49\n      jump\t// in\n    tag_138:\n        /* \"#utility.yul\":7760:7764   */\n      dup3\n        /* \"#utility.yul\":7753:7858   */\n      sstore\n        /* \"#utility.yul\":7671:7864   */\n      pop\n        /* \"#utility.yul\":7595:7864   */\n      pop\n      pop\n      pop\n      jump\t// out\n        /* \"#utility.yul\":7870:7943   */\n    tag_54:\n        /* \"#utility.yul\":7915:7918   */\n      0x00\n        /* \"#utility.yul\":7870:7943   */\n      swap1\n      jump\t// out\n        /* \"#utility.yul\":7949:8138   */\n    tag_55:\n        /* \"#utility.yul\":8026:8058   */\n      tag_142\n      tag_54\n      jump\t// in\n    tag_142:\n        /* \"#utility.yul\":8067:8132   */\n      tag_143\n        /* \"#utility.yul\":8125:8131   */\n      dup2\n        /* \"#utility.yul\":8117:8123   */\n      dup5\n        /* \"#utility.yul\":8111:8115   */\n      dup5\n        /* \"#utility.yul\":8067:8132   */\n      tag_53\n      jump\t// in\n    tag_143:\n        /* \"#utility.yul\":8002:8138   */\n      pop\n        /* \"#utility.yul\":7949:8138   */\n      pop\n      pop\n      jump\t// out\n        /* \"#utility.yul\":8144:8330   */\n    tag_56:\n        /* \"#utility.yul\":8204:8324   */\n    tag_145:\n        /* \"#utility.yul\":8221:8224   */\n      dup2\n        /* \"#utility.yul\":8214:8219   */\n      dup2\n        /* \"#utility.yul\":8211:8225   */\n      lt\n        /* \"#utility.yul\":8204:8324   */\n      iszero\n      tag_147\n      jumpi\n        /* \"#utility.yul\":8275:8314   */\n      tag_148\n        /* \"#utility.yul\":8312:8313   */\n      0x00\n        /* \"#utility.yul\":8305:8310   */\n      dup3\n        /* \"#utility.yul\":8275:8314   */\n      tag_55\n      jump\t// in\n    tag_148:\n        /* \"#utility.yul\":8248:8249   */\n      0x01\n        /* \"#utility.yul\":8241:8246   */\n      dup2\n        /* \"#utility.yul\":8237:8250   */\n      add\n        /* \"#utility.yul\":8228:8250   */\n      swap1\n      pop\n        /* \"#utility.yul\":8204:8324   */\n      jump(tag_145)\n    tag_147:\n        /* \"#utility.yul\":8144:8330   */\n      pop\n      pop\n      jump\t// out\n        /* \"#utility.yul\":8336:8879   */\n    tag_57:\n        /* \"#utility.yul\":8437:8439   */\n      0x1f\n        /* \"#utility.yul\":8432:8435   */\n      dup3\n        /* \"#utility.yul\":8429:8440   */\n      gt\n        /* \"#utility.yul\":8426:8872   */\n      iszero\n      tag_150\n      jumpi\n        /* \"#utility.yul\":8471:8509   */\n      tag_151\n        /* \"#utility.yul\":8503:8508   */\n      dup2\n        /* \"#utility.yul\":8471:8509   */\n      tag_46\n      jump\t// in\n    tag_151:\n        /* \"#utility.yul\":8555:8584   */\n      tag_152\n        /* \"#utility.yul\":8573:8583   */\n      dup5\n        /* \"#utility.yul\":8555:8584   */\n      tag_47\n      jump\t// in\n    tag_152:\n        /* \"#utility.yul\":8545:8553   */\n      dup2\n        /* \"#utility.yul\":8541:8585   */\n      add\n        /* \"#utility.yul\":8738:8740   */\n      0x20\n        /* \"#utility.yul\":8726:8736   */\n      dup6\n        /* \"#utility.yul\":8723:8741   */\n      lt\n        /* \"#utility.yul\":8720:8769   */\n      iszero\n      tag_153\n      jumpi\n        /* \"#utility.yul\":8759:8767   */\n      dup2\n        /* \"#utility.yul\":8744:8767   */\n      swap1\n      pop\n        /* \"#utility.yul\":8720:8769   */\n    tag_153:\n        /* \"#utility.yul\":8782:8862   */\n      tag_154\n        /* \"#utility.yul\":8838:8860   */\n      tag_155\n        /* \"#utility.yul\":8856:8859   */\n      dup6\n        /* \"#utility.yul\":8838:8860   */\n      tag_47\n      jump\t// in\n    tag_155:\n        /* \"#utility.yul\":8828:8836   */\n      dup4\n        /* \"#utility.yul\":8824:8861   */\n      add\n        /* \"#utility.yul\":8811:8822   */\n      dup3\n        /* \"#utility.yul\":8782:8862   */\n      tag_56\n      jump\t// in\n    tag_154:\n        /* \"#utility.yul\":8441:8872   */\n      pop\n      pop\n        /* \"#utility.yul\":8426:8872   */\n    tag_150:\n        /* \"#utility.yul\":8336:8879   */\n      pop\n      pop\n      pop\n      jump\t// out\n        /* \"#utility.yul\":8885:9002   */\n    tag_58:\n        /* \"#utility.yul\":8939:8947   */\n      0x00\n        /* \"#utility.yul\":8989:8994   */\n      dup3\n        /* \"#utility.yul\":8983:8987   */\n      dup3\n        /* \"#utility.yul\":8979:8995   */\n      shr\n        /* \"#utility.yul\":8958:8995   */\n      swap1\n      pop\n        /* \"#utility.yul\":8885:9002   */\n      swap3\n      swap2\n      pop\n      pop\n      jump\t// out\n        /* \"#utility.yul\":9008:9177   */\n    tag_59:\n        /* \"#utility.yul\":9052:9058   */\n      0x00\n        /* \"#utility.yul\":9085:9136   */\n      tag_158\n        /* \"#utility.yul\":9133:9134   */\n      0x00\n        /* \"#utility.yul\":9129:9135   */\n      not\n        /* \"#utility.yul\":9121:9126   */\n      dup5\n        /* \"#utility.yul\":9118:9119   */\n      0x08\n        /* \"#utility.yul\":9114:9127   */\n      mul\n        /* \"#utility.yul\":9085:9136   */\n      tag_58\n      jump\t// in\n    tag_158:\n        /* \"#utility.yul\":9081:9137   */\n      not\n        /* \"#utility.yul\":9166:9170   */\n      dup1\n        /* \"#utility.yul\":9160:9164   */\n      dup4\n        /* \"#utility.yul\":9156:9171   */\n      and\n        /* \"#utility.yul\":9146:9171   */\n      swap2\n      pop\n        /* \"#utility.yul\":9059:9177   */\n      pop\n        /* \"#utility.yul\":9008:9177   */\n      swap3\n      swap2\n      pop\n      pop\n      jump\t// out\n        /* \"#utility.yul\":9182:9477   */\n    tag_60:\n        /* \"#utility.yul\":9258:9262   */\n      0x00\n        /* \"#utility.yul\":9404:9433   */\n      tag_160\n        /* \"#utility.yul\":9429:9432   */\n      dup4\n        /* \"#utility.yul\":9423:9427   */\n      dup4\n        /* \"#utility.yul\":9404:9433   */\n      tag_59\n      jump\t// in\n    tag_160:\n        /* \"#utility.yul\":9396:9433   */\n      swap2\n      pop\n        /* \"#utility.yul\":9466:9469   */\n      dup3\n        /* \"#utility.yul\":9463:9464   */\n      0x02\n        /* \"#utility.yul\":9459:9470   */\n      mul\n        /* \"#utility.yul\":9453:9457   */\n      dup3\n        /* \"#utility.yul\":9450:9471   */\n      or\n        /* \"#utility.yul\":9442:9471   */\n      swap1\n      pop\n        /* \"#utility.yul\":9182:9477   */\n      swap3\n      swap2\n      pop\n      pop\n      jump\t// out\n        /* \"#utility.yul\":9482:10877   */\n    tag_21:\n        /* \"#utility.yul\":9599:9636   */\n      tag_162\n        /* \"#utility.yul\":9632:9635   */\n      dup3\n        /* \"#utility.yul\":9599:9636   */\n      tag_43\n      jump\t// in\n    tag_162:\n        /* \"#utility.yul\":9701:9719   */\n      0xffffffffffffffff\n        /* \"#utility.yul\":9693:9699   */\n      dup2\n        /* \"#utility.yul\":9690:9720   */\n      gt\n        /* \"#utility.yul\":9687:9743   */\n      iszero\n      tag_163\n      jumpi\n        /* \"#utility.yul\":9723:9741   */\n      tag_164\n      tag_29\n      jump\t// in\n    tag_164:\n        /* \"#utility.yul\":9687:9743   */\n    tag_163:\n        /* \"#utility.yul\":9767:9805   */\n      tag_165\n        /* \"#utility.yul\":9799:9803   */\n      dup3\n        /* \"#utility.yul\":9793:9804   */\n      sload\n        /* \"#utility.yul\":9767:9805   */\n      tag_45\n      jump\t// in\n    tag_165:\n        /* \"#utility.yul\":9852:9919   */\n      tag_166\n        /* \"#utility.yul\":9912:9918   */\n      dup3\n        /* \"#utility.yul\":9904:9910   */\n      dup3\n        /* \"#utility.yul\":9898:9902   */\n      dup6\n        /* \"#utility.yul\":9852:9919   */\n      tag_57\n      jump\t// in\n    tag_166:\n        /* \"#utility.yul\":9946:9947   */\n      0x00\n        /* \"#utility.yul\":9970:9974   */\n      0x20\n        /* \"#utility.yul\":9957:9974   */\n      swap1\n      pop\n        /* \"#utility.yul\":10002:10004   */\n      0x1f\n        /* \"#utility.yul\":9994:10000   */\n      dup4\n        /* \"#utility.yul\":9991:10005   */\n      gt\n        /* \"#utility.yul\":10019:10020   */\n      0x01\n        /* \"#utility.yul\":10014:10632   */\n      dup2\n      eq\n      tag_168\n      jumpi\n        /* \"#utility.yul\":10676:10677   */\n      0x00\n        /* \"#utility.yul\":10693:10699   */\n      dup5\n        /* \"#utility.yul\":10690:10767   */\n      iszero\n      tag_169\n      jumpi\n        /* \"#utility.yul\":10742:10751   */\n      dup3\n        /* \"#utility.yul\":10737:10740   */\n      dup8\n        /* \"#utility.yul\":10733:10752   */\n      add\n        /* \"#utility.yul\":10727:10753   */\n      mload\n        /* \"#utility.yul\":10718:10753   */\n      swap1\n      pop\n        /* \"#utility.yul\":10690:10767   */\n    tag_169:\n        /* \"#utility.yul\":10793:10860   */\n      tag_170\n        /* \"#utility.yul\":10853:10859   */\n      dup6\n        /* \"#utility.yul\":10846:10851   */\n      dup3\n        /* \"#utility.yul\":10793:10860   */\n      tag_60\n      jump\t// in\n    tag_170:\n        /* \"#utility.yul\":10787:10791   */\n      dup7\n        /* \"#utility.yul\":10780:10861   */\n      sstore\n        /* \"#utility.yul\":10649:10871   */\n      pop\n        /* \"#utility.yul\":9984:10871   */\n      jump(tag_167)\n        /* \"#utility.yul\":10014:10632   */\n    tag_168:\n        /* \"#utility.yul\":10066:10070   */\n      0x1f\n        /* \"#utility.yul\":10062:10071   */\n      not\n        /* \"#utility.yul\":10054:10060   */\n      dup5\n        /* \"#utility.yul\":10050:10072   */\n      and\n        /* \"#utility.yul\":10100:10137   */\n      tag_171\n        /* \"#utility.yul\":10132:10136   */\n      dup7\n        /* \"#utility.yul\":10100:10137   */\n      tag_46\n      jump\t// in\n    tag_171:\n        /* \"#utility.yul\":10159:10160   */\n      0x00\n        /* \"#utility.yul\":10173:10381   */\n    tag_172:\n        /* \"#utility.yul\":10187:10194   */\n      dup3\n        /* \"#utility.yul\":10184:10185   */\n      dup2\n        /* \"#utility.yul\":10181:10195   */\n      lt\n        /* \"#utility.yul\":10173:10381   */\n      iszero\n      tag_174\n      jumpi\n        /* \"#utility.yul\":10266:10275   */\n      dup5\n        /* \"#utility.yul\":10261:10264   */\n      dup10\n        /* \"#utility.yul\":10257:10276   */\n      add\n        /* \"#utility.yul\":10251:10277   */\n      mload\n        /* \"#utility.yul\":10243:10249   */\n      dup3\n        /* \"#utility.yul\":10236:10278   */\n      sstore\n        /* \"#utility.yul\":10317:10318   */\n      0x01\n        /* \"#utility.yul\":10309:10315   */\n      dup3\n        /* \"#utility.yul\":10305:10319   */\n      add\n        /* \"#utility.yul\":10295:10319   */\n      swap2\n      pop\n        /* \"#utility.yul\":10364:10366   */\n      0x20\n        /* \"#utility.yul\":10353:10362   */\n      dup6\n        /* \"#utility.yul\":10349:10367   */\n      add\n        /* \"#utility.yul\":10336:10367   */\n      swap5\n      pop\n        /* \"#utility.yul\":10210:10214   */\n      0x20\n        /* \"#utility.yul\":10207:10208   */\n      dup2\n        /* \"#utility.yul\":10203:10215   */\n      add\n        /* \"#utility.yul\":10198:10215   */\n      swap1\n      pop\n        /* \"#utility.yul\":10173:10381   */\n      jump(tag_172)\n    tag_174:\n        /* \"#utility.yul\":10409:10415   */\n      dup7\n        /* \"#utility.yul\":10400:10407   */\n      dup4\n        /* \"#utility.yul\":10397:10416   */\n      lt\n        /* \"#utility.yul\":10394:10573   */\n      iszero\n      tag_175\n      jumpi\n        /* \"#utility.yul\":10467:10476   */\n      dup5\n        /* \"#utility.yul\":10462:10465   */\n      dup10\n        /* \"#utility.yul\":10458:10477   */\n      add\n        /* \"#utility.yul\":10452:10478   */\n      mload\n        /* \"#utility.yul\":10510:10558   */\n      tag_176\n        /* \"#utility.yul\":10552:10556   */\n      0x1f\n        /* \"#utility.yul\":10544:10550   */\n      dup10\n        /* \"#utility.yul\":10540:10557   */\n      and\n        /* \"#utility.yul\":10529:10538   */\n      dup3\n        /* \"#utility.yul\":10510:10558   */\n      tag_59\n      jump\t// in\n    tag_176:\n        /* \"#utility.yul\":10502:10508   */\n      dup4\n        /* \"#utility.yul\":10495:10559   */\n      sstore\n        /* \"#utility.yul\":10417:10573   */\n      pop\n        /* \"#utility.yul\":10394:10573   */\n    tag_175:\n        /* \"#utility.yul\":10619:10620   */\n      0x01\n        /* \"#utility.yul\":10615:10616   */\n      0x02\n        /* \"#utility.yul\":10607:10613   */\n      dup9\n        /* \"#utility.yul\":10603:10617   */\n      mul\n        /* \"#utility.yul\":10599:10621   */\n      add\n        /* \"#utility.yul\":10593:10597   */\n      dup9\n        /* \"#utility.yul\":10586:10622   */\n      sstore\n        /* \"#utility.yul\":10021:10632   */\n      pop\n      pop\n      pop\n        /* \"#utility.yul\":9984:10871   */\n    tag_167:\n      pop\n        /* \"#utility.yul\":9574:10877   */\n      pop\n      pop\n      pop\n        /* \"#utility.yul\":9482:10877   */\n      pop\n      pop\n      jump\t// out\n\n    auxdata: 0xa2646970667358221220e82087a715820abd8497793ee42c25e849b72342700dfca4316db19d197983d364736f6c634300081a0033\n}\n",
				"bytecode": {
					"linkReferences": {},
					"object": "6080604052348015600e575f80fd5b506107538061001c5f395ff3fe608060405234801561000f575f80fd5b5060043610610029575f3560e01c8063b7da99261461002d575b5f80fd5b610047600480360381019061004291906102c3565b61005d565b6040516100549190610351565b60405180910390f35b5f60058351101580156100725750600a835111155b6100b1576040517f08c379a00000000000000000000000000000000000000000000000000000000081526004016100a8906103c4565b60405180910390fd5b60148251101580156100c557506032825111155b610104576040517f08c379a00000000000000000000000000000000000000000000000000000000081526004016100fb9061042c565b60405180910390fd5b5f604051806040016040528085815260200184815250908060018154018082558091505060019003905f5260205f2090600202015f909190919091505f820151815f019081610153919061064e565b506020820151816001019081610169919061064e565b5050508251905092915050565b5f604051905090565b5f80fd5b5f80fd5b5f80fd5b5f80fd5b5f601f19601f8301169050919050565b7f4e487b71000000000000000000000000000000000000000000000000000000005f52604160045260245ffd5b6101d58261018f565b810181811067ffffffffffffffff821117156101f4576101f361019f565b5b80604052505050565b5f610206610176565b905061021282826101cc565b919050565b5f67ffffffffffffffff8211156102315761023061019f565b5b61023a8261018f565b9050602081019050919050565b828183375f83830152505050565b5f61026761026284610217565b6101fd565b9050828152602081018484840111156102835761028261018b565b5b61028e848285610247565b509392505050565b5f82601f8301126102aa576102a9610187565b5b81356102ba848260208601610255565b91505092915050565b5f80604083850312156102d9576102d861017f565b5b5f83013567ffffffffffffffff8111156102f6576102f5610183565b5b61030285828601610296565b925050602083013567ffffffffffffffff81111561032357610322610183565b5b61032f85828601610296565b9150509250929050565b5f819050919050565b61034b81610339565b82525050565b5f6020820190506103645f830184610342565b92915050565b5f82825260208201905092915050565b7f6e616d65000000000000000000000000000000000000000000000000000000005f82015250565b5f6103ae60048361036a565b91506103b98261037a565b602082019050919050565b5f6020820190508181035f8301526103db816103a2565b9050919050565b7f6465736372697074696f6e0000000000000000000000000000000000000000005f82015250565b5f610416600b8361036a565b9150610421826103e2565b602082019050919050565b5f6020820190508181035f8301526104438161040a565b9050919050565b5f81519050919050565b7f4e487b71000000000000000000000000000000000000000000000000000000005f52602260045260245ffd5b5f600282049050600182168061049857607f821691505b6020821081036104ab576104aa610454565b5b50919050565b5f819050815f5260205f209050919050565b5f6020601f8301049050919050565b5f82821b905092915050565b5f6008830261050d7fffffffffffffffffffffffffffffffffffffffffffffffffffffffffffffffff826104d2565b61051786836104d2565b95508019841693508086168417925050509392505050565b5f819050919050565b5f61055261054d61054884610339565b61052f565b610339565b9050919050565b5f819050919050565b61056b83610538565b61057f61057782610559565b8484546104de565b825550505050565b5f90565b610593610587565b61059e818484610562565b505050565b5b818110156105c1576105b65f8261058b565b6001810190506105a4565b5050565b601f821115610606576105d7816104b1565b6105e0846104c3565b810160208510156105ef578190505b6106036105fb856104c3565b8301826105a3565b50505b505050565b5f82821c905092915050565b5f6106265f198460080261060b565b1980831691505092915050565b5f61063e8383610617565b9150826002028217905092915050565b6106578261044a565b67ffffffffffffffff8111156106705761066f61019f565b5b61067a8254610481565b6106858282856105c5565b5f60209050601f8311600181146106b6575f84156106a4578287015190505b6106ae8582610633565b865550610715565b601f1984166106c4866104b1565b5f5b828110156106eb578489015182556001820191506020850194506020810190506106c6565b868310156107085784890151610704601f891682610617565b8355505b6001600288020188555050505b50505050505056fea2646970667358221220e82087a715820abd8497793ee42c25e849b72342700dfca4316db19d197983d364736f6c634300081a0033",
					"opcodes": "PUSH1 0x80 PUSH1 0x40 MSTORE CALLVALUE DUP1 ISZERO PUSH1 0xE JUMPI PUSH0 DUP1 REVERT JUMPDEST POP PUSH2 0x753 DUP1 PUSH2 0x1C PUSH0 CODECOPY PUSH0 RETURN INVALID PUSH1 0x80 PUSH1 0x40 MSTORE CALLVALUE DUP1 ISZERO PUSH2 0xF JUMPI PUSH0 DUP1 REVERT JUMPDEST POP PUSH1 0x4 CALLDATASIZE LT PUSH2 0x29 JUMPI PUSH0 CALLDATALOAD PUSH1 0xE0 SHR DUP1 PUSH4 0xB7DA9926 EQ PUSH2 0x2D JUMPI JUMPDEST PUSH0 DUP1 REVERT JUMPDEST PUSH2 0x47 PUSH1 0x4 DUP1 CALLDATASIZE SUB DUP2 ADD SWAP1 PUSH2 0x42 SWAP2 SWAP1 PUSH2 0x2C3 JUMP JUMPDEST PUSH2 0x5D JUMP JUMPDEST PUSH1 0x40 MLOAD PUSH2 0x54 SWAP2 SWAP1 PUSH2 0x351 JUMP JUMPDEST PUSH1 0x40 MLOAD DUP1 SWAP2 SUB SWAP1 RETURN JUMPDEST PUSH0 PUSH1 0x5 DUP4 MLOAD LT ISZERO DUP1 ISZERO PUSH2 0x72 JUMPI POP PUSH1 0xA DUP4 MLOAD GT ISZERO JUMPDEST PUSH2 0xB1 JUMPI PUSH1 0x40 MLOAD PUSH32 0x8C379A000000000000000000000000000000000000000000000000000000000 DUP2 MSTORE PUSH1 0x4 ADD PUSH2 0xA8 SWAP1 PUSH2 0x3C4 JUMP JUMPDEST PUSH1 0x40 MLOAD DUP1 SWAP2 SUB SWAP1 REVERT JUMPDEST PUSH1 0x14 DUP3 MLOAD LT ISZERO DUP1 ISZERO PUSH2 0xC5 JUMPI POP PUSH1 0x32 DUP3 MLOAD GT ISZERO JUMPDEST PUSH2 0x104 JUMPI PUSH1 0x40 MLOAD PUSH32 0x8C379A000000000000000000000000000000000000000000000000000000000 DUP2 MSTORE PUSH1 0x4 ADD PUSH2 0xFB SWAP1 PUSH2 0x42C JUMP JUMPDEST PUSH1 0x40 MLOAD DUP1 SWAP2 SUB SWAP1 REVERT JUMPDEST PUSH0 PUSH1 0x40 MLOAD DUP1 PUSH1 0x40 ADD PUSH1 0x40 MSTORE DUP1 DUP6 DUP2 MSTORE PUSH1 0x20 ADD DUP5 DUP2 MSTORE POP SWAP1 DUP1 PUSH1 0x1 DUP2 SLOAD ADD DUP1 DUP3 SSTORE DUP1 SWAP2 POP POP PUSH1 0x1 SWAP1 SUB SWAP1 PUSH0 MSTORE PUSH1 0x20 PUSH0 KECCAK256 SWAP1 PUSH1 0x2 MUL ADD PUSH0 SWAP1 SWAP2 SWAP1 SWAP2 SWAP1 SWAP2 POP PUSH0 DUP3 ADD MLOAD DUP2 PUSH0 ADD SWAP1 DUP2 PUSH2 0x153 SWAP2 SWAP1 PUSH2 0x64E JUMP JUMPDEST POP PUSH1 0x20 DUP3 ADD MLOAD DUP2 PUSH1 0x1 ADD SWAP1 DUP2 PUSH2 0x169 SWAP2 SWAP1 PUSH2 0x64E JUMP JUMPDEST POP POP POP DUP3 MLOAD SWAP1 POP SWAP3 SWAP2 POP POP JUMP JUMPDEST PUSH0 PUSH1 0x40 MLOAD SWAP1 POP SWAP1 JUMP JUMPDEST PUSH0 DUP1 REVERT JUMPDEST PUSH0 DUP1 REVERT JUMPDEST PUSH0 DUP1 REVERT JUMPDEST PUSH0 DUP1 REVERT JUMPDEST PUSH0 PUSH1 0x1F NOT PUSH1 0x1F DUP4 ADD AND SWAP1 POP SWAP2 SWAP1 POP JUMP JUMPDEST PUSH32 0x4E487B7100000000000000000000000000000000000000000000000000000000 PUSH0 MSTORE PUSH1 0x41 PUSH1 0x4 MSTORE PUSH1 0x24 PUSH0 REVERT JUMPDEST PUSH2 0x1D5 DUP3 PUSH2 0x18F JUMP JUMPDEST DUP2 ADD DUP2 DUP2 LT PUSH8 0xFFFFFFFFFFFFFFFF DUP3 GT OR ISZERO PUSH2 0x1F4 JUMPI PUSH2 0x1F3 PUSH2 0x19F JUMP JUMPDEST JUMPDEST DUP1 PUSH1 0x40 MSTORE POP POP POP JUMP JUMPDEST PUSH0 PUSH2 0x206 PUSH2 0x176 JUMP JUMPDEST SWAP1 POP PUSH2 0x212 DUP3 DUP3 PUSH2 0x1CC JUMP JUMPDEST SWAP2 SWAP1 POP JUMP JUMPDEST PUSH0 PUSH8 0xFFFFFFFFFFFFFFFF DUP3 GT ISZERO PUSH2 0x231 JUMPI PUSH2 0x230 PUSH2 0x19F JUMP JUMPDEST JUMPDEST PUSH2 0x23A DUP3 PUSH2 0x18F JUMP JUMPDEST SWAP1 POP PUSH1 0x20 DUP2 ADD SWAP1 POP SWAP2 SWAP1 POP JUMP JUMPDEST DUP3 DUP2 DUP4 CALLDATACOPY PUSH0 DUP4 DUP4 ADD MSTORE POP POP POP JUMP JUMPDEST PUSH0 PUSH2 0x267 PUSH2 0x262 DUP5 PUSH2 0x217 JUMP JUMPDEST PUSH2 0x1FD JUMP JUMPDEST SWAP1 POP DUP3 DUP2 MSTORE PUSH1 0x20 DUP2 ADD DUP5 DUP5 DUP5 ADD GT ISZERO PUSH2 0x283 JUMPI PUSH2 0x282 PUSH2 0x18B JUMP JUMPDEST JUMPDEST PUSH2 0x28E DUP5 DUP3 DUP6 PUSH2 0x247 JUMP JUMPDEST POP SWAP4 SWAP3 POP POP POP JUMP JUMPDEST PUSH0 DUP3 PUSH1 0x1F DUP4 ADD SLT PUSH2 0x2AA JUMPI PUSH2 0x2A9 PUSH2 0x187 JUMP JUMPDEST JUMPDEST DUP2 CALLDATALOAD PUSH2 0x2BA DUP5 DUP3 PUSH1 0x20 DUP7 ADD PUSH2 0x255 JUMP JUMPDEST SWAP2 POP POP SWAP3 SWAP2 POP POP JUMP JUMPDEST PUSH0 DUP1 PUSH1 0x40 DUP4 DUP6 SUB SLT ISZERO PUSH2 0x2D9 JUMPI PUSH2 0x2D8 PUSH2 0x17F JUMP JUMPDEST JUMPDEST PUSH0 DUP4 ADD CALLDATALOAD PUSH8 0xFFFFFFFFFFFFFFFF DUP2 GT ISZERO PUSH2 0x2F6 JUMPI PUSH2 0x2F5 PUSH2 0x183 JUMP JUMPDEST JUMPDEST PUSH2 0x302 DUP6 DUP3 DUP7 ADD PUSH2 0x296 JUMP JUMPDEST SWAP3 POP POP PUSH1 0x20 DUP4 ADD CALLDATALOAD PUSH8 0xFFFFFFFFFFFFFFFF DUP2 GT ISZERO PUSH2 0x323 JUMPI PUSH2 0x322 PUSH2 0x183 JUMP JUMPDEST JUMPDEST PUSH2 0x32F DUP6 DUP3 DUP7 ADD PUSH2 0x296 JUMP JUMPDEST SWAP2 POP POP SWAP3 POP SWAP3 SWAP1 POP JUMP JUMPDEST PUSH0 DUP2 SWAP1 POP SWAP2 SWAP1 POP JUMP JUMPDEST PUSH2 0x34B DUP2 PUSH2 0x339 JUMP JUMPDEST DUP3 MSTORE POP POP JUMP JUMPDEST PUSH0 PUSH1 0x20 DUP3 ADD SWAP1 POP PUSH2 0x364 PUSH0 DUP4 ADD DUP5 PUSH2 0x342 JUMP JUMPDEST SWAP3 SWAP2 POP POP JUMP JUMPDEST PUSH0 DUP3 DUP3 MSTORE PUSH1 0x20 DUP3 ADD SWAP1 POP SWAP3 SWAP2 POP POP JUMP JUMPDEST PUSH32 0x6E616D6500000000000000000000000000000000000000000000000000000000 PUSH0 DUP3 ADD MSTORE POP JUMP JUMPDEST PUSH0 PUSH2 0x3AE PUSH1 0x4 DUP4 PUSH2 0x36A JUMP JUMPDEST SWAP2 POP PUSH2 0x3B9 DUP3 PUSH2 0x37A JUMP JUMPDEST PUSH1 0x20 DUP3 ADD SWAP1 POP SWAP2 SWAP1 POP JUMP JUMPDEST PUSH0 PUSH1 0x20 DUP3 ADD SWAP1 POP DUP2 DUP2 SUB PUSH0 DUP4 ADD MSTORE PUSH2 0x3DB DUP2 PUSH2 0x3A2 JUMP JUMPDEST SWAP1 POP SWAP2 SWAP1 POP JUMP JUMPDEST PUSH32 0x6465736372697074696F6E000000000000000000000000000000000000000000 PUSH0 DUP3 ADD MSTORE POP JUMP JUMPDEST PUSH0 PUSH2 0x416 PUSH1 0xB DUP4 PUSH2 0x36A JUMP JUMPDEST SWAP2 POP PUSH2 0x421 DUP3 PUSH2 0x3E2 JUMP JUMPDEST PUSH1 0x20 DUP3 ADD SWAP1 POP SWAP2 SWAP1 POP JUMP JUMPDEST PUSH0 PUSH1 0x20 DUP3 ADD SWAP1 POP DUP2 DUP2 SUB PUSH0 DUP4 ADD MSTORE PUSH2 0x443 DUP2 PUSH2 0x40A JUMP JUMPDEST SWAP1 POP SWAP2 SWAP1 POP JUMP JUMPDEST PUSH0 DUP2 MLOAD SWAP1 POP SWAP2 SWAP1 POP JUMP JUMPDEST PUSH32 0x4E487B7100000000000000000000000000000000000000000000000000000000 PUSH0 MSTORE PUSH1 0x22 PUSH1 0x4 MSTORE PUSH1 0x24 PUSH0 REVERT JUMPDEST PUSH0 PUSH1 0x2 DUP3 DIV SWAP1 POP PUSH1 0x1 DUP3 AND DUP1 PUSH2 0x498 JUMPI PUSH1 0x7F DUP3 AND SWAP2 POP JUMPDEST PUSH1 0x20 DUP3 LT DUP2 SUB PUSH2 0x4AB JUMPI PUSH2 0x4AA PUSH2 0x454 JUMP JUMPDEST JUMPDEST POP SWAP2 SWAP1 POP JUMP JUMPDEST PUSH0 DUP2 SWAP1 POP DUP2 PUSH0 MSTORE PUSH1 0x20 PUSH0 KECCAK256 SWAP1 POP SWAP2 SWAP1 POP JUMP JUMPDEST PUSH0 PUSH1 0x20 PUSH1 0x1F DUP4 ADD DIV SWAP1 POP SWAP2 SWAP1 POP JUMP JUMPDEST PUSH0 DUP3 DUP3 SHL SWAP1 POP SWAP3 SWAP2 POP POP JUMP JUMPDEST PUSH0 PUSH1 0x8 DUP4 MUL PUSH2 0x50D PUSH32 0xFFFFFFFFFFFFFFFFFFFFFFFFFFFFFFFFFFFFFFFFFFFFFFFFFFFFFFFFFFFFFFFF DUP3 PUSH2 0x4D2 JUMP JUMPDEST PUSH2 0x517 DUP7 DUP4 PUSH2 0x4D2 JUMP JUMPDEST SWAP6 POP DUP1 NOT DUP5 AND SWAP4 POP DUP1 DUP7 AND DUP5 OR SWAP3 POP POP POP SWAP4 SWAP3 POP POP POP JUMP JUMPDEST PUSH0 DUP2 SWAP1 POP SWAP2 SWAP1 POP JUMP JUMPDEST PUSH0 PUSH2 0x552 PUSH2 0x54D PUSH2 0x548 DUP5 PUSH2 0x339 JUMP JUMPDEST PUSH2 0x52F JUMP JUMPDEST PUSH2 0x339 JUMP JUMPDEST SWAP1 POP SWAP2 SWAP1 POP JUMP JUMPDEST PUSH0 DUP2 SWAP1 POP SWAP2 SWAP1 POP JUMP JUMPDEST PUSH2 0x56B DUP4 PUSH2 0x538 JUMP JUMPDEST PUSH2 0x57F PUSH2 0x577 DUP3 PUSH2 0x559 JUMP JUMPDEST DUP5 DUP5 SLOAD PUSH2 0x4DE JUMP JUMPDEST DUP3 SSTORE POP POP POP POP JUMP JUMPDEST PUSH0 SWAP1 JUMP JUMPDEST PUSH2 0x593 PUSH2 0x587 JUMP JUMPDEST PUSH2 0x59E DUP2 DUP5 DUP5 PUSH2 0x562 JUMP JUMPDEST POP POP POP JUMP JUMPDEST JUMPDEST DUP2 DUP2 LT ISZERO PUSH2 0x5C1 JUMPI PUSH2 0x5B6 PUSH0 DUP3 PUSH2 0x58B JUMP JUMPDEST PUSH1 0x1 DUP2 ADD SWAP1 POP PUSH2 0x5A4 JUMP JUMPDEST POP POP JUMP JUMPDEST PUSH1 0x1F DUP3 GT ISZERO PUSH2 0x606 JUMPI PUSH2 0x5D7 DUP2 PUSH2 0x4B1 JUMP JUMPDEST PUSH2 0x5E0 DUP5 PUSH2 0x4C3 JUMP JUMPDEST DUP2 ADD PUSH1 0x20 DUP6 LT ISZERO PUSH2 0x5EF JUMPI DUP2 SWAP1 POP JUMPDEST PUSH2 0x603 PUSH2 0x5FB DUP6 PUSH2 0x4C3 JUMP JUMPDEST DUP4 ADD DUP3 PUSH2 0x5A3 JUMP JUMPDEST POP POP JUMPDEST POP POP POP JUMP JUMPDEST PUSH0 DUP3 DUP3 SHR SWAP1 POP SWAP3 SWAP2 POP POP JUMP JUMPDEST PUSH0 PUSH2 0x626 PUSH0 NOT DUP5 PUSH1 0x8 MUL PUSH2 0x60B JUMP JUMPDEST NOT DUP1 DUP4 AND SWAP2 POP POP SWAP3 SWAP2 POP POP JUMP JUMPDEST PUSH0 PUSH2 0x63E DUP4 DUP4 PUSH2 0x617 JUMP JUMPDEST SWAP2 POP DUP3 PUSH1 0x2 MUL DUP3 OR SWAP1 POP SWAP3 SWAP2 POP POP JUMP JUMPDEST PUSH2 0x657 DUP3 PUSH2 0x44A JUMP JUMPDEST PUSH8 0xFFFFFFFFFFFFFFFF DUP2 GT ISZERO PUSH2 0x670 JUMPI PUSH2 0x66F PUSH2 0x19F JUMP JUMPDEST JUMPDEST PUSH2 0x67A DUP3 SLOAD PUSH2 0x481 JUMP JUMPDEST PUSH2 0x685 DUP3 DUP3 DUP6 PUSH2 0x5C5 JUMP JUMPDEST PUSH0 PUSH1 0x20 SWAP1 POP PUSH1 0x1F DUP4 GT PUSH1 0x1 DUP2 EQ PUSH2 0x6B6 JUMPI PUSH0 DUP5 ISZERO PUSH2 0x6A4 JUMPI DUP3 DUP8 ADD MLOAD SWAP1 POP JUMPDEST PUSH2 0x6AE DUP6 DUP3 PUSH2 0x633 JUMP JUMPDEST DUP7 SSTORE POP PUSH2 0x715 JUMP JUMPDEST PUSH1 0x1F NOT DUP5 AND PUSH2 0x6C4 DUP7 PUSH2 0x4B1 JUMP JUMPDEST PUSH0 JUMPDEST DUP3 DUP2 LT ISZERO PUSH2 0x6EB JUMPI DUP5 DUP10 ADD MLOAD DUP3 SSTORE PUSH1 0x1 DUP3 ADD SWAP2 POP PUSH1 0x20 DUP6 ADD SWAP5 POP PUSH1 0x20 DUP2 ADD SWAP1 POP PUSH2 0x6C6 JUMP JUMPDEST DUP7 DUP4 LT ISZERO PUSH2 0x708 JUMPI DUP5 DUP10 ADD MLOAD PUSH2 0x704 PUSH1 0x1F DUP10 AND DUP3 PUSH2 0x617 JUMP JUMPDEST DUP4 SSTORE POP JUMPDEST PUSH1 0x1 PUSH1 0x2 DUP9 MUL ADD DUP9 SSTORE POP POP POP JUMPDEST POP POP POP POP POP POP JUMP INVALID LOG2 PUSH5 0x6970667358 0x22 SLT KECCAK256 0xE8 KECCAK256 DUP8 0xA7 ISZERO DUP3 EXP 0xBD DUP5 SWAP8 PUSH26 0x3EE42C25E849B72342700DFCA4316DB19D197983D364736F6C63 NUMBER STOP ADDMOD BYTE STOP CALLER "
				},
				"gasEstimates": {
					"creation": {
						"codeDepositCost": "375000",
						"executionCost": "409",
						"totalCost": "375409"
					},
					"external": {
						"setCustomer(string,string)": "infinite"
					}
				},
				"methodIdentifiers": {
					"setCustomer(string,string)": "b7da9926"
				}
			},
			"storageLayout": {
				"storage": [
					{
						"astId": 426,
						"contract": "Solidity100/Solidity81-90.sol:Question89",
						"label": "customers",
						"offset": 0,
						"slot": "0",
						"type": "t_array(t_struct(Customer)422_storage)dyn_storage"
					}
				],
				"types": {
					"t_array(t_struct(Customer)422_storage)dyn_storage": {
						"base": "t_struct(Customer)422_storage",
						"encoding": "dynamic_array",
						"label": "struct Question89.Customer[]",
						"numberOfBytes": "32"
					},
					"t_string_storage": {
						"encoding": "bytes",
						"label": "string",
						"numberOfBytes": "32"
					},
					"t_struct(Customer)422_storage": {
						"encoding": "inplace",
						"label": "struct Question89.Customer",
						"members": [
							{
								"astId": 419,
								"contract": "Solidity100/Solidity81-90.sol:Question89",
								"label": "name",
								"offset": 0,
								"slot": "0",
								"type": "t_string_storage"
							},
							{
								"astId": 421,
								"contract": "Solidity100/Solidity81-90.sol:Question89",
								"label": "description",
								"offset": 0,
								"slot": "1",
								"type": "t_string_storage"
							}
						],
						"numberOfBytes": "64"
					}
				}
			},
			"userdoc": {
				"kind": "user",
				"methods": {},
				"version": 1
			}
		}
	}
}