{
	"Solidity100/Solidity1-10.sol": {
		"Question3": {
			"abi": [
				{
					"inputs": [
						{
							"internalType": "uint256",
							"name": "_a",
							"type": "uint256"
						}
					],
					"name": "squaredCubed",
					"outputs": [
						{
							"internalType": "uint256",
							"name": "",
							"type": "uint256"
						},
						{
							"internalType": "uint256",
							"name": "",
							"type": "uint256"
						}
					],
					"stateMutability": "pure",
					"type": "function"
				}
			],
			"devdoc": {
				"kind": "dev",
				"methods": {},
				"version": 1
			},
			"evm": {
				"assembly": "    /* \"Solidity100/Solidity1-10.sol\":1390:1690  contract Question3{... */\n  mstore(0x40, 0x80)\n  callvalue\n  dup1\n  iszero\n  tag_1\n  jumpi\n  0x00\n  dup1\n  revert\ntag_1:\n  pop\n  dataSize(sub_0)\n  dup1\n  dataOffset(sub_0)\n  0x00\n  codecopy\n  0x00\n  return\nstop\n\nsub_0: assembly {\n        /* \"Solidity100/Solidity1-10.sol\":1390:1690  contract Question3{... */\n      mstore(0x40, 0x80)\n      callvalue\n      dup1\n      iszero\n      tag_1\n      jumpi\n      0x00\n      dup1\n      revert\n    tag_1:\n      pop\n      jumpi(tag_2, lt(calldatasize, 0x04))\n      shr(0xe0, calldataload(0x00))\n      dup1\n      0x19976566\n      eq\n      tag_3\n      jumpi\n    tag_2:\n      0x00\n      dup1\n      revert\n        /* \"Solidity100/Solidity1-10.sol\":1583:1688  function squaredCubed(uint _a) public pure returns(uint, uint) {... */\n    tag_3:\n      tag_4\n      0x04\n      dup1\n      calldatasize\n      sub\n      dup2\n      add\n      swap1\n      tag_5\n      swap2\n      swap1\n      tag_6\n      jump\t// in\n    tag_5:\n      tag_7\n      jump\t// in\n    tag_4:\n      mload(0x40)\n      tag_8\n      swap3\n      swap2\n      swap1\n      tag_9\n      jump\t// in\n    tag_8:\n      mload(0x40)\n      dup1\n      swap2\n      sub\n      swap1\n      return\n    tag_7:\n        /* \"Solidity100/Solidity1-10.sol\":1634:1638  uint */\n      0x00\n        /* \"Solidity100/Solidity1-10.sol\":1640:1644  uint */\n      dup1\n        /* \"Solidity100/Solidity1-10.sol\":1670:1671  2 */\n      0x02\n        /* \"Solidity100/Solidity1-10.sol\":1664:1666  _a */\n      dup4\n        /* \"Solidity100/Solidity1-10.sol\":1664:1671  _a ** 2 */\n      tag_11\n      swap2\n      swap1\n      tag_12\n      jump\t// in\n    tag_11:\n        /* \"Solidity100/Solidity1-10.sol\":1679:1680  3 */\n      0x03\n        /* \"Solidity100/Solidity1-10.sol\":1673:1675  _a */\n      dup5\n        /* \"Solidity100/Solidity1-10.sol\":1673:1680  _a ** 3 */\n      tag_13\n      swap2\n      swap1\n      tag_12\n      jump\t// in\n    tag_13:\n        /* \"Solidity100/Solidity1-10.sol\":1656:1681  return (_a ** 2, _a ** 3) */\n      swap2\n      pop\n      swap2\n      pop\n        /* \"Solidity100/Solidity1-10.sol\":1583:1688  function squaredCubed(uint _a) public pure returns(uint, uint) {... */\n      swap2\n      pop\n      swap2\n      jump\t// out\n        /* \"#utility.yul\":88:205   */\n    tag_15:\n        /* \"#utility.yul\":197:198   */\n      0x00\n        /* \"#utility.yul\":194:195   */\n      dup1\n        /* \"#utility.yul\":187:199   */\n      revert\n        /* \"#utility.yul\":334:411   */\n    tag_17:\n        /* \"#utility.yul\":371:378   */\n      0x00\n        /* \"#utility.yul\":400:405   */\n      dup2\n        /* \"#utility.yul\":389:405   */\n      swap1\n      pop\n        /* \"#utility.yul\":334:411   */\n      swap2\n      swap1\n      pop\n      jump\t// out\n        /* \"#utility.yul\":417:539   */\n    tag_18:\n        /* \"#utility.yul\":490:514   */\n      tag_32\n        /* \"#utility.yul\":508:513   */\n      dup2\n        /* \"#utility.yul\":490:514   */\n      tag_17\n      jump\t// in\n    tag_32:\n        /* \"#utility.yul\":483:488   */\n      dup2\n        /* \"#utility.yul\":480:515   */\n      eq\n        /* \"#utility.yul\":470:533   */\n      tag_33\n      jumpi\n        /* \"#utility.yul\":529:530   */\n      0x00\n        /* \"#utility.yul\":526:527   */\n      dup1\n        /* \"#utility.yul\":519:531   */\n      revert\n        /* \"#utility.yul\":470:533   */\n    tag_33:\n        /* \"#utility.yul\":417:539   */\n      pop\n      jump\t// out\n        /* \"#utility.yul\":545:684   */\n    tag_19:\n        /* \"#utility.yul\":591:596   */\n      0x00\n        /* \"#utility.yul\":629:635   */\n      dup2\n        /* \"#utility.yul\":616:636   */\n      calldataload\n        /* \"#utility.yul\":607:636   */\n      swap1\n      pop\n        /* \"#utility.yul\":645:678   */\n      tag_35\n        /* \"#utility.yul\":672:677   */\n      dup2\n        /* \"#utility.yul\":645:678   */\n      tag_18\n      jump\t// in\n    tag_35:\n        /* \"#utility.yul\":545:684   */\n      swap3\n      swap2\n      pop\n      pop\n      jump\t// out\n        /* \"#utility.yul\":690:1019   */\n    tag_6:\n        /* \"#utility.yul\":749:755   */\n      0x00\n        /* \"#utility.yul\":798:800   */\n      0x20\n        /* \"#utility.yul\":786:795   */\n      dup3\n        /* \"#utility.yul\":777:784   */\n      dup5\n        /* \"#utility.yul\":773:796   */\n      sub\n        /* \"#utility.yul\":769:801   */\n      slt\n        /* \"#utility.yul\":766:885   */\n      iszero\n      tag_37\n      jumpi\n        /* \"#utility.yul\":804:883   */\n      tag_38\n      tag_15\n      jump\t// in\n    tag_38:\n        /* \"#utility.yul\":766:885   */\n    tag_37:\n        /* \"#utility.yul\":924:925   */\n      0x00\n        /* \"#utility.yul\":949:1002   */\n      tag_39\n        /* \"#utility.yul\":994:1001   */\n      dup5\n        /* \"#utility.yul\":985:991   */\n      dup3\n        /* \"#utility.yul\":974:983   */\n      dup6\n        /* \"#utility.yul\":970:992   */\n      add\n        /* \"#utility.yul\":949:1002   */\n      tag_19\n      jump\t// in\n    tag_39:\n        /* \"#utility.yul\":939:1002   */\n      swap2\n      pop\n        /* \"#utility.yul\":895:1012   */\n      pop\n        /* \"#utility.yul\":690:1019   */\n      swap3\n      swap2\n      pop\n      pop\n      jump\t// out\n        /* \"#utility.yul\":1025:1143   */\n    tag_20:\n        /* \"#utility.yul\":1112:1136   */\n      tag_41\n        /* \"#utility.yul\":1130:1135   */\n      dup2\n        /* \"#utility.yul\":1112:1136   */\n      tag_17\n      jump\t// in\n    tag_41:\n        /* \"#utility.yul\":1107:1110   */\n      dup3\n        /* \"#utility.yul\":1100:1137   */\n      mstore\n        /* \"#utility.yul\":1025:1143   */\n      pop\n      pop\n      jump\t// out\n        /* \"#utility.yul\":1149:1481   */\n    tag_9:\n        /* \"#utility.yul\":1270:1274   */\n      0x00\n        /* \"#utility.yul\":1308:1310   */\n      0x40\n        /* \"#utility.yul\":1297:1306   */\n      dup3\n        /* \"#utility.yul\":1293:1311   */\n      add\n        /* \"#utility.yul\":1285:1311   */\n      swap1\n      pop\n        /* \"#utility.yul\":1321:1392   */\n      tag_43\n        /* \"#utility.yul\":1389:1390   */\n      0x00\n        /* \"#utility.yul\":1378:1387   */\n      dup4\n        /* \"#utility.yul\":1374:1391   */\n      add\n        /* \"#utility.yul\":1365:1371   */\n      dup6\n        /* \"#utility.yul\":1321:1392   */\n      tag_20\n      jump\t// in\n    tag_43:\n        /* \"#utility.yul\":1402:1474   */\n      tag_44\n        /* \"#utility.yul\":1470:1472   */\n      0x20\n        /* \"#utility.yul\":1459:1468   */\n      dup4\n        /* \"#utility.yul\":1455:1473   */\n      add\n        /* \"#utility.yul\":1446:1452   */\n      dup5\n        /* \"#utility.yul\":1402:1474   */\n      tag_20\n      jump\t// in\n    tag_44:\n        /* \"#utility.yul\":1149:1481   */\n      swap4\n      swap3\n      pop\n      pop\n      pop\n      jump\t// out\n        /* \"#utility.yul\":1487:1667   */\n    tag_21:\n        /* \"#utility.yul\":1535:1612   */\n      0x4e487b7100000000000000000000000000000000000000000000000000000000\n        /* \"#utility.yul\":1532:1533   */\n      0x00\n        /* \"#utility.yul\":1525:1613   */\n      mstore\n        /* \"#utility.yul\":1632:1636   */\n      0x11\n        /* \"#utility.yul\":1629:1630   */\n      0x04\n        /* \"#utility.yul\":1622:1637   */\n      mstore\n        /* \"#utility.yul\":1656:1660   */\n      0x24\n        /* \"#utility.yul\":1653:1654   */\n      0x00\n        /* \"#utility.yul\":1646:1661   */\n      revert\n        /* \"#utility.yul\":1673:1775   */\n    tag_22:\n        /* \"#utility.yul\":1715:1723   */\n      0x00\n        /* \"#utility.yul\":1762:1767   */\n      dup2\n        /* \"#utility.yul\":1759:1760   */\n      0x01\n        /* \"#utility.yul\":1755:1768   */\n      shr\n        /* \"#utility.yul\":1734:1768   */\n      swap1\n      pop\n        /* \"#utility.yul\":1673:1775   */\n      swap2\n      swap1\n      pop\n      jump\t// out\n        /* \"#utility.yul\":1781:2629   */\n    tag_23:\n        /* \"#utility.yul\":1842:1847   */\n      0x00\n        /* \"#utility.yul\":1849:1853   */\n      dup1\n        /* \"#utility.yul\":1873:1879   */\n      dup3\n        /* \"#utility.yul\":1864:1879   */\n      swap2\n      pop\n        /* \"#utility.yul\":1897:1902   */\n      dup4\n        /* \"#utility.yul\":1888:1902   */\n      swap1\n      pop\n        /* \"#utility.yul\":1911:2623   */\n    tag_48:\n        /* \"#utility.yul\":1932:1933   */\n      0x01\n        /* \"#utility.yul\":1922:1930   */\n      dup6\n        /* \"#utility.yul\":1919:1934   */\n      gt\n        /* \"#utility.yul\":1911:2623   */\n      iszero\n      tag_50\n      jumpi\n        /* \"#utility.yul\":2027:2031   */\n      dup1\n        /* \"#utility.yul\":2022:2025   */\n      dup7\n        /* \"#utility.yul\":2018:2032   */\n      div\n        /* \"#utility.yul\":2012:2016   */\n      dup2\n        /* \"#utility.yul\":2009:2033   */\n      gt\n        /* \"#utility.yul\":2006:2056   */\n      iszero\n      tag_51\n      jumpi\n        /* \"#utility.yul\":2036:2054   */\n      tag_52\n      tag_21\n      jump\t// in\n    tag_52:\n        /* \"#utility.yul\":2006:2056   */\n    tag_51:\n        /* \"#utility.yul\":2086:2087   */\n      0x01\n        /* \"#utility.yul\":2076:2084   */\n      dup6\n        /* \"#utility.yul\":2072:2088   */\n      and\n        /* \"#utility.yul\":2069:2520   */\n      iszero\n      tag_53\n      jumpi\n        /* \"#utility.yul\":2501:2505   */\n      dup1\n        /* \"#utility.yul\":2494:2499   */\n      dup3\n        /* \"#utility.yul\":2490:2506   */\n      mul\n        /* \"#utility.yul\":2481:2506   */\n      swap2\n      pop\n        /* \"#utility.yul\":2069:2520   */\n    tag_53:\n        /* \"#utility.yul\":2551:2555   */\n      dup1\n        /* \"#utility.yul\":2545:2549   */\n      dup2\n        /* \"#utility.yul\":2541:2556   */\n      mul\n        /* \"#utility.yul\":2533:2556   */\n      swap1\n      pop\n        /* \"#utility.yul\":2581:2613   */\n      tag_54\n        /* \"#utility.yul\":2604:2612   */\n      dup6\n        /* \"#utility.yul\":2581:2613   */\n      tag_22\n      jump\t// in\n    tag_54:\n        /* \"#utility.yul\":2569:2613   */\n      swap5\n      pop\n        /* \"#utility.yul\":1911:2623   */\n      jump(tag_48)\n    tag_50:\n        /* \"#utility.yul\":1781:2629   */\n      swap5\n      pop\n      swap5\n      swap3\n      pop\n      pop\n      pop\n      jump\t// out\n        /* \"#utility.yul\":2635:3708   */\n    tag_24:\n        /* \"#utility.yul\":2689:2694   */\n      0x00\n        /* \"#utility.yul\":2880:2888   */\n      dup3\n        /* \"#utility.yul\":2870:2910   */\n      tag_56\n      jumpi\n        /* \"#utility.yul\":2901:2902   */\n      0x01\n        /* \"#utility.yul\":2892:2902   */\n      swap1\n      pop\n        /* \"#utility.yul\":2903:2908   */\n      jump(tag_55)\n        /* \"#utility.yul\":2870:2910   */\n    tag_56:\n        /* \"#utility.yul\":2929:2933   */\n      dup2\n        /* \"#utility.yul\":2919:2955   */\n      tag_57\n      jumpi\n        /* \"#utility.yul\":2946:2947   */\n      0x00\n        /* \"#utility.yul\":2937:2947   */\n      swap1\n      pop\n        /* \"#utility.yul\":2948:2953   */\n      jump(tag_55)\n        /* \"#utility.yul\":2919:2955   */\n    tag_57:\n        /* \"#utility.yul\":3015:3019   */\n      dup2\n        /* \"#utility.yul\":3063:3064   */\n      0x01\n        /* \"#utility.yul\":3058:3085   */\n      dup2\n      eq\n      tag_59\n      jumpi\n        /* \"#utility.yul\":3099:3100   */\n      0x02\n        /* \"#utility.yul\":3094:3285   */\n      dup2\n      eq\n      tag_60\n      jumpi\n        /* \"#utility.yul\":3008:3285   */\n      jump(tag_58)\n        /* \"#utility.yul\":3058:3085   */\n    tag_59:\n        /* \"#utility.yul\":3076:3077   */\n      0x01\n        /* \"#utility.yul\":3067:3077   */\n      swap2\n      pop\n        /* \"#utility.yul\":3078:3083   */\n      pop\n      jump(tag_55)\n        /* \"#utility.yul\":3094:3285   */\n    tag_60:\n        /* \"#utility.yul\":3139:3142   */\n      0xff\n        /* \"#utility.yul\":3129:3137   */\n      dup5\n        /* \"#utility.yul\":3126:3143   */\n      gt\n        /* \"#utility.yul\":3123:3166   */\n      iszero\n      tag_61\n      jumpi\n        /* \"#utility.yul\":3146:3164   */\n      tag_62\n      tag_21\n      jump\t// in\n    tag_62:\n        /* \"#utility.yul\":3123:3166   */\n    tag_61:\n        /* \"#utility.yul\":3195:3203   */\n      dup4\n        /* \"#utility.yul\":3192:3193   */\n      0x02\n        /* \"#utility.yul\":3188:3204   */\n      exp\n        /* \"#utility.yul\":3179:3204   */\n      swap2\n      pop\n        /* \"#utility.yul\":3230:3233   */\n      dup5\n        /* \"#utility.yul\":3223:3228   */\n      dup3\n        /* \"#utility.yul\":3220:3234   */\n      gt\n        /* \"#utility.yul\":3217:3257   */\n      iszero\n      tag_63\n      jumpi\n        /* \"#utility.yul\":3237:3255   */\n      tag_64\n      tag_21\n      jump\t// in\n    tag_64:\n        /* \"#utility.yul\":3217:3257   */\n    tag_63:\n        /* \"#utility.yul\":3270:3275   */\n      pop\n      jump(tag_55)\n        /* \"#utility.yul\":3008:3285   */\n    tag_58:\n      pop\n        /* \"#utility.yul\":3394:3396   */\n      0x20\n        /* \"#utility.yul\":3384:3392   */\n      dup4\n        /* \"#utility.yul\":3381:3397   */\n      lt\n        /* \"#utility.yul\":3375:3378   */\n      0x0133\n        /* \"#utility.yul\":3369:3373   */\n      dup4\n        /* \"#utility.yul\":3366:3379   */\n      lt\n        /* \"#utility.yul\":3362:3398   */\n      and\n        /* \"#utility.yul\":3344:3346   */\n      0x4e\n        /* \"#utility.yul\":3334:3342   */\n      dup5\n        /* \"#utility.yul\":3331:3347   */\n      lt\n        /* \"#utility.yul\":3326:3328   */\n      0x0b\n        /* \"#utility.yul\":3320:3324   */\n      dup5\n        /* \"#utility.yul\":3317:3329   */\n      lt\n        /* \"#utility.yul\":3313:3348   */\n      and\n        /* \"#utility.yul\":3297:3408   */\n      or\n        /* \"#utility.yul\":3294:3540   */\n      iszero\n      tag_65\n      jumpi\n        /* \"#utility.yul\":3450:3458   */\n      dup3\n        /* \"#utility.yul\":3444:3448   */\n      dup3\n        /* \"#utility.yul\":3440:3459   */\n      exp\n        /* \"#utility.yul\":3431:3459   */\n      swap1\n      pop\n        /* \"#utility.yul\":3485:3488   */\n      dup4\n        /* \"#utility.yul\":3478:3483   */\n      dup2\n        /* \"#utility.yul\":3475:3489   */\n      gt\n        /* \"#utility.yul\":3472:3512   */\n      iszero\n      tag_66\n      jumpi\n        /* \"#utility.yul\":3492:3510   */\n      tag_67\n      tag_21\n      jump\t// in\n    tag_67:\n        /* \"#utility.yul\":3472:3512   */\n    tag_66:\n        /* \"#utility.yul\":3525:3530   */\n      jump(tag_55)\n        /* \"#utility.yul\":3294:3540   */\n    tag_65:\n        /* \"#utility.yul\":3565:3607   */\n      tag_68\n        /* \"#utility.yul\":3603:3606   */\n      dup5\n        /* \"#utility.yul\":3593:3601   */\n      dup5\n        /* \"#utility.yul\":3587:3591   */\n      dup5\n        /* \"#utility.yul\":3584:3585   */\n      0x01\n        /* \"#utility.yul\":3565:3607   */\n      tag_23\n      jump\t// in\n    tag_68:\n        /* \"#utility.yul\":3550:3607   */\n      swap3\n      pop\n      swap1\n      pop\n        /* \"#utility.yul\":3639:3643   */\n      dup2\n        /* \"#utility.yul\":3634:3637   */\n      dup5\n        /* \"#utility.yul\":3630:3644   */\n      div\n        /* \"#utility.yul\":3623:3628   */\n      dup2\n        /* \"#utility.yul\":3620:3645   */\n      gt\n        /* \"#utility.yul\":3617:3668   */\n      iszero\n      tag_69\n      jumpi\n        /* \"#utility.yul\":3648:3666   */\n      tag_70\n      tag_21\n      jump\t// in\n    tag_70:\n        /* \"#utility.yul\":3617:3668   */\n    tag_69:\n        /* \"#utility.yul\":3697:3701   */\n      dup2\n        /* \"#utility.yul\":3690:3695   */\n      dup2\n        /* \"#utility.yul\":3686:3702   */\n      mul\n        /* \"#utility.yul\":3677:3702   */\n      swap1\n      pop\n        /* \"#utility.yul\":2635:3708   */\n    tag_55:\n      swap4\n      swap3\n      pop\n      pop\n      pop\n      jump\t// out\n        /* \"#utility.yul\":3714:3800   */\n    tag_25:\n        /* \"#utility.yul\":3749:3756   */\n      0x00\n        /* \"#utility.yul\":3789:3793   */\n      0xff\n        /* \"#utility.yul\":3782:3787   */\n      dup3\n        /* \"#utility.yul\":3778:3794   */\n      and\n        /* \"#utility.yul\":3767:3794   */\n      swap1\n      pop\n        /* \"#utility.yul\":3714:3800   */\n      swap2\n      swap1\n      pop\n      jump\t// out\n        /* \"#utility.yul\":3806:4087   */\n    tag_12:\n        /* \"#utility.yul\":3864:3869   */\n      0x00\n        /* \"#utility.yul\":3888:3911   */\n      tag_73\n        /* \"#utility.yul\":3906:3910   */\n      dup3\n        /* \"#utility.yul\":3888:3911   */\n      tag_17\n      jump\t// in\n    tag_73:\n        /* \"#utility.yul\":3880:3911   */\n      swap2\n      pop\n        /* \"#utility.yul\":3932:3957   */\n      tag_74\n        /* \"#utility.yul\":3948:3956   */\n      dup4\n        /* \"#utility.yul\":3932:3957   */\n      tag_25\n      jump\t// in\n    tag_74:\n        /* \"#utility.yul\":3920:3957   */\n      swap3\n      pop\n        /* \"#utility.yul\":3976:4080   */\n      tag_75\n        /* \"#utility.yul\":4013:4079   */\n      0xffffffffffffffffffffffffffffffffffffffffffffffffffffffffffffffff\n        /* \"#utility.yul\":4003:4011   */\n      dup5\n        /* \"#utility.yul\":3997:4001   */\n      dup5\n        /* \"#utility.yul\":3976:4080   */\n      tag_24\n      jump\t// in\n    tag_75:\n        /* \"#utility.yul\":3967:4080   */\n      swap1\n      pop\n        /* \"#utility.yul\":3806:4087   */\n      swap3\n      swap2\n      pop\n      pop\n      jump\t// out\n\n    auxdata: 0xa2646970667358221220f358d4008bb20ab2642d72eec86afcd8ff87076c01fc71cff8e1a05b25ba9b9e64736f6c634300081a0033\n}\n",
				"bytecode": {
					"linkReferences": {},
					"object": "6080604052348015600e575f80fd5b506103038061001c5f395ff3fe608060405234801561000f575f80fd5b5060043610610029575f3560e01c8063199765661461002d575b5f80fd5b610047600480360381019061004291906100ba565b61005e565b6040516100559291906100f4565b60405180910390f35b5f8060028361006d9190610283565b60038461007a9190610283565b91509150915091565b5f80fd5b5f819050919050565b61009981610087565b81146100a3575f80fd5b50565b5f813590506100b481610090565b92915050565b5f602082840312156100cf576100ce610083565b5b5f6100dc848285016100a6565b91505092915050565b6100ee81610087565b82525050565b5f6040820190506101075f8301856100e5565b61011460208301846100e5565b9392505050565b7f4e487b71000000000000000000000000000000000000000000000000000000005f52601160045260245ffd5b5f8160011c9050919050565b5f808291508390505b600185111561019d578086048111156101795761017861011b565b5b60018516156101885780820291505b808102905061019685610148565b945061015d565b94509492505050565b5f826101b55760019050610270565b816101c2575f9050610270565b81600181146101d857600281146101e257610211565b6001915050610270565b60ff8411156101f4576101f361011b565b5b8360020a91508482111561020b5761020a61011b565b5b50610270565b5060208310610133831016604e8410600b84101617156102465782820a9050838111156102415761024061011b565b5b610270565b6102538484846001610154565b9250905081840481111561026a5761026961011b565b5b81810290505b9392505050565b5f60ff82169050919050565b5f61028d82610087565b915061029883610277565b92506102c57fffffffffffffffffffffffffffffffffffffffffffffffffffffffffffffffff84846101a6565b90509291505056fea2646970667358221220f358d4008bb20ab2642d72eec86afcd8ff87076c01fc71cff8e1a05b25ba9b9e64736f6c634300081a0033",
					"opcodes": "PUSH1 0x80 PUSH1 0x40 MSTORE CALLVALUE DUP1 ISZERO PUSH1 0xE JUMPI PUSH0 DUP1 REVERT JUMPDEST POP PUSH2 0x303 DUP1 PUSH2 0x1C PUSH0 CODECOPY PUSH0 RETURN INVALID PUSH1 0x80 PUSH1 0x40 MSTORE CALLVALUE DUP1 ISZERO PUSH2 0xF JUMPI PUSH0 DUP1 REVERT JUMPDEST POP PUSH1 0x4 CALLDATASIZE LT PUSH2 0x29 JUMPI PUSH0 CALLDATALOAD PUSH1 0xE0 SHR DUP1 PUSH4 0x19976566 EQ PUSH2 0x2D JUMPI JUMPDEST PUSH0 DUP1 REVERT JUMPDEST PUSH2 0x47 PUSH1 0x4 DUP1 CALLDATASIZE SUB DUP2 ADD SWAP1 PUSH2 0x42 SWAP2 SWAP1 PUSH2 0xBA JUMP JUMPDEST PUSH2 0x5E JUMP JUMPDEST PUSH1 0x40 MLOAD PUSH2 0x55 SWAP3 SWAP2 SWAP1 PUSH2 0xF4 JUMP JUMPDEST PUSH1 0x40 MLOAD DUP1 SWAP2 SUB SWAP1 RETURN JUMPDEST PUSH0 DUP1 PUSH1 0x2 DUP4 PUSH2 0x6D SWAP2 SWAP1 PUSH2 0x283 JUMP JUMPDEST PUSH1 0x3 DUP5 PUSH2 0x7A SWAP2 SWAP1 PUSH2 0x283 JUMP JUMPDEST SWAP2 POP SWAP2 POP SWAP2 POP SWAP2 JUMP JUMPDEST PUSH0 DUP1 REVERT JUMPDEST PUSH0 DUP2 SWAP1 POP SWAP2 SWAP1 POP JUMP JUMPDEST PUSH2 0x99 DUP2 PUSH2 0x87 JUMP JUMPDEST DUP2 EQ PUSH2 0xA3 JUMPI PUSH0 DUP1 REVERT JUMPDEST POP JUMP JUMPDEST PUSH0 DUP2 CALLDATALOAD SWAP1 POP PUSH2 0xB4 DUP2 PUSH2 0x90 JUMP JUMPDEST SWAP3 SWAP2 POP POP JUMP JUMPDEST PUSH0 PUSH1 0x20 DUP3 DUP5 SUB SLT ISZERO PUSH2 0xCF JUMPI PUSH2 0xCE PUSH2 0x83 JUMP JUMPDEST JUMPDEST PUSH0 PUSH2 0xDC DUP5 DUP3 DUP6 ADD PUSH2 0xA6 JUMP JUMPDEST SWAP2 POP POP SWAP3 SWAP2 POP POP JUMP JUMPDEST PUSH2 0xEE DUP2 PUSH2 0x87 JUMP JUMPDEST DUP3 MSTORE POP POP JUMP JUMPDEST PUSH0 PUSH1 0x40 DUP3 ADD SWAP1 POP PUSH2 0x107 PUSH0 DUP4 ADD DUP6 PUSH2 0xE5 JUMP JUMPDEST PUSH2 0x114 PUSH1 0x20 DUP4 ADD DUP5 PUSH2 0xE5 JUMP JUMPDEST SWAP4 SWAP3 POP POP POP JUMP JUMPDEST PUSH32 0x4E487B7100000000000000000000000000000000000000000000000000000000 PUSH0 MSTORE PUSH1 0x11 PUSH1 0x4 MSTORE PUSH1 0x24 PUSH0 REVERT JUMPDEST PUSH0 DUP2 PUSH1 0x1 SHR SWAP1 POP SWAP2 SWAP1 POP JUMP JUMPDEST PUSH0 DUP1 DUP3 SWAP2 POP DUP4 SWAP1 POP JUMPDEST PUSH1 0x1 DUP6 GT ISZERO PUSH2 0x19D JUMPI DUP1 DUP7 DIV DUP2 GT ISZERO PUSH2 0x179 JUMPI PUSH2 0x178 PUSH2 0x11B JUMP JUMPDEST JUMPDEST PUSH1 0x1 DUP6 AND ISZERO PUSH2 0x188 JUMPI DUP1 DUP3 MUL SWAP2 POP JUMPDEST DUP1 DUP2 MUL SWAP1 POP PUSH2 0x196 DUP6 PUSH2 0x148 JUMP JUMPDEST SWAP5 POP PUSH2 0x15D JUMP JUMPDEST SWAP5 POP SWAP5 SWAP3 POP POP POP JUMP JUMPDEST PUSH0 DUP3 PUSH2 0x1B5 JUMPI PUSH1 0x1 SWAP1 POP PUSH2 0x270 JUMP JUMPDEST DUP2 PUSH2 0x1C2 JUMPI PUSH0 SWAP1 POP PUSH2 0x270 JUMP JUMPDEST DUP2 PUSH1 0x1 DUP2 EQ PUSH2 0x1D8 JUMPI PUSH1 0x2 DUP2 EQ PUSH2 0x1E2 JUMPI PUSH2 0x211 JUMP JUMPDEST PUSH1 0x1 SWAP2 POP POP PUSH2 0x270 JUMP JUMPDEST PUSH1 0xFF DUP5 GT ISZERO PUSH2 0x1F4 JUMPI PUSH2 0x1F3 PUSH2 0x11B JUMP JUMPDEST JUMPDEST DUP4 PUSH1 0x2 EXP SWAP2 POP DUP5 DUP3 GT ISZERO PUSH2 0x20B JUMPI PUSH2 0x20A PUSH2 0x11B JUMP JUMPDEST JUMPDEST POP PUSH2 0x270 JUMP JUMPDEST POP PUSH1 0x20 DUP4 LT PUSH2 0x133 DUP4 LT AND PUSH1 0x4E DUP5 LT PUSH1 0xB DUP5 LT AND OR ISZERO PUSH2 0x246 JUMPI DUP3 DUP3 EXP SWAP1 POP DUP4 DUP2 GT ISZERO PUSH2 0x241 JUMPI PUSH2 0x240 PUSH2 0x11B JUMP JUMPDEST JUMPDEST PUSH2 0x270 JUMP JUMPDEST PUSH2 0x253 DUP5 DUP5 DUP5 PUSH1 0x1 PUSH2 0x154 JUMP JUMPDEST SWAP3 POP SWAP1 POP DUP2 DUP5 DIV DUP2 GT ISZERO PUSH2 0x26A JUMPI PUSH2 0x269 PUSH2 0x11B JUMP JUMPDEST JUMPDEST DUP2 DUP2 MUL SWAP1 POP JUMPDEST SWAP4 SWAP3 POP POP POP JUMP JUMPDEST PUSH0 PUSH1 0xFF DUP3 AND SWAP1 POP SWAP2 SWAP1 POP JUMP JUMPDEST PUSH0 PUSH2 0x28D DUP3 PUSH2 0x87 JUMP JUMPDEST SWAP2 POP PUSH2 0x298 DUP4 PUSH2 0x277 JUMP JUMPDEST SWAP3 POP PUSH2 0x2C5 PUSH32 0xFFFFFFFFFFFFFFFFFFFFFFFFFFFFFFFFFFFFFFFFFFFFFFFFFFFFFFFFFFFFFFFF DUP5 DUP5 PUSH2 0x1A6 JUMP JUMPDEST SWAP1 POP SWAP3 SWAP2 POP POP JUMP INVALID LOG2 PUSH5 0x6970667358 0x22 SLT KECCAK256 RETURN PC 0xD4 STOP DUP12 0xB2 EXP 0xB2 PUSH5 0x2D72EEC86A 0xFC 0xD8 SELFDESTRUCT DUP8 SMOD PUSH13 0x1FC71CFF8E1A05B25BA9B9E64 PUSH20 0x6F6C634300081A00330000000000000000000000 "
				},
				"gasEstimates": {
					"creation": {
						"codeDepositCost": "154200",
						"executionCost": "200",
						"totalCost": "154400"
					},
					"external": {
						"squaredCubed(uint256)": "infinite"
					}
				},
				"methodIdentifiers": {
					"squaredCubed(uint256)": "19976566"
				}
			},
			"storageLayout": {
				"storage": [],
				"types": null
			},
			"userdoc": {
				"kind": "user",
				"methods": {},
				"version": 1
			}
		}
	}
}