{
	"Solidity100/Solidity1-10.sol": {
		"Question7": {
			"abi": [
				{
					"inputs": [],
					"name": "addArrayNumbers",
					"outputs": [
						{
							"internalType": "uint256",
							"name": "",
							"type": "uint256"
						}
					],
					"stateMutability": "view",
					"type": "function"
				},
				{
					"inputs": [
						{
							"internalType": "uint256",
							"name": "",
							"type": "uint256"
						}
					],
					"name": "numbers",
					"outputs": [
						{
							"internalType": "uint256",
							"name": "",
							"type": "uint256"
						}
					],
					"stateMutability": "view",
					"type": "function"
				},
				{
					"inputs": [],
					"name": "pushNumbers",
					"outputs": [],
					"stateMutability": "nonpayable",
					"type": "function"
				}
			],
			"devdoc": {
				"kind": "dev",
				"methods": {},
				"version": 1
			},
			"evm": {
				"assembly": "    /* \"Solidity100/Solidity1-10.sol\":2946:3550  contract Question7{... */\n  mstore(0x40, 0x80)\n  callvalue\n  dup1\n  iszero\n  tag_1\n  jumpi\n  0x00\n  dup1\n  revert\ntag_1:\n  pop\n  dataSize(sub_0)\n  dup1\n  dataOffset(sub_0)\n  0x00\n  codecopy\n  0x00\n  return\nstop\n\nsub_0: assembly {\n        /* \"Solidity100/Solidity1-10.sol\":2946:3550  contract Question7{... */\n      mstore(0x40, 0x80)\n      callvalue\n      dup1\n      iszero\n      tag_1\n      jumpi\n      0x00\n      dup1\n      revert\n    tag_1:\n      pop\n      jumpi(tag_2, lt(calldatasize, 0x04))\n      shr(0xe0, calldataload(0x00))\n      dup1\n      0x8f2e7a2c\n      eq\n      tag_3\n      jumpi\n      dup1\n      0xce7fd430\n      eq\n      tag_4\n      jumpi\n      dup1\n      0xd39fa233\n      eq\n      tag_5\n      jumpi\n    tag_2:\n      0x00\n      dup1\n      revert\n        /* \"Solidity100/Solidity1-10.sol\":3354:3548  function addArrayNumbers() public view returns(uint) {... */\n    tag_3:\n      tag_6\n      tag_7\n      jump\t// in\n    tag_6:\n      mload(0x40)\n      tag_8\n      swap2\n      swap1\n      tag_9\n      jump\t// in\n    tag_8:\n      mload(0x40)\n      dup1\n      swap2\n      sub\n      swap1\n      return\n        /* \"Solidity100/Solidity1-10.sol\":3238:3348  function pushNumbers() public {... */\n    tag_4:\n      tag_10\n      tag_11\n      jump\t// in\n    tag_10:\n      stop\n        /* \"Solidity100/Solidity1-10.sol\":3210:3231  uint[] public numbers */\n    tag_5:\n      tag_12\n      0x04\n      dup1\n      calldatasize\n      sub\n      dup2\n      add\n      swap1\n      tag_13\n      swap2\n      swap1\n      tag_14\n      jump\t// in\n    tag_13:\n      tag_15\n      jump\t// in\n    tag_12:\n      mload(0x40)\n      tag_16\n      swap2\n      swap1\n      tag_9\n      jump\t// in\n    tag_16:\n      mload(0x40)\n      dup1\n      swap2\n      sub\n      swap1\n      return\n        /* \"Solidity100/Solidity1-10.sol\":3354:3548  function addArrayNumbers() public view returns(uint) {... */\n    tag_7:\n        /* \"Solidity100/Solidity1-10.sol\":3401:3405  uint */\n      0x00\n        /* \"Solidity100/Solidity1-10.sol\":3417:3428  uint result */\n      dup1\n        /* \"Solidity100/Solidity1-10.sol\":3442:3448  uint i */\n      0x00\n        /* \"Solidity100/Solidity1-10.sol\":3438:3519  for(uint i=0; i<numbers.length;i++) {... */\n    tag_18:\n        /* \"Solidity100/Solidity1-10.sol\":3454:3461  numbers */\n      0x00\n        /* \"Solidity100/Solidity1-10.sol\":3454:3468  numbers.length */\n      dup1\n      sload\n      swap1\n      pop\n        /* \"Solidity100/Solidity1-10.sol\":3452:3453  i */\n      dup2\n        /* \"Solidity100/Solidity1-10.sol\":3452:3468  i<numbers.length */\n      lt\n        /* \"Solidity100/Solidity1-10.sol\":3438:3519  for(uint i=0; i<numbers.length;i++) {... */\n      iszero\n      tag_19\n      jumpi\n        /* \"Solidity100/Solidity1-10.sol\":3498:3505  numbers */\n      0x00\n        /* \"Solidity100/Solidity1-10.sol\":3506:3507  i */\n      dup2\n        /* \"Solidity100/Solidity1-10.sol\":3498:3508  numbers[i] */\n      dup2\n      sload\n      dup2\n      lt\n      tag_21\n      jumpi\n      tag_22\n      tag_23\n      jump\t// in\n    tag_22:\n    tag_21:\n      swap1\n      0x00\n      mstore\n      keccak256(0x00, 0x20)\n      add\n      sload\n        /* \"Solidity100/Solidity1-10.sol\":3488:3508  result += numbers[i] */\n      dup3\n      tag_25\n      swap2\n      swap1\n      tag_26\n      jump\t// in\n    tag_25:\n      swap2\n      pop\n        /* \"Solidity100/Solidity1-10.sol\":3469:3472  i++ */\n      dup1\n      dup1\n      0x01\n      add\n      swap2\n      pop\n      pop\n        /* \"Solidity100/Solidity1-10.sol\":3438:3519  for(uint i=0; i<numbers.length;i++) {... */\n      jump(tag_18)\n    tag_19:\n      pop\n        /* \"Solidity100/Solidity1-10.sol\":3535:3541  result */\n      dup1\n        /* \"Solidity100/Solidity1-10.sol\":3528:3541  return result */\n      swap2\n      pop\n      pop\n        /* \"Solidity100/Solidity1-10.sol\":3354:3548  function addArrayNumbers() public view returns(uint) {... */\n      swap1\n      jump\t// out\n        /* \"Solidity100/Solidity1-10.sol\":3238:3348  function pushNumbers() public {... */\n    tag_11:\n        /* \"Solidity100/Solidity1-10.sol\":3282:3288  uint i */\n      0x00\n        /* \"Solidity100/Solidity1-10.sol\":3278:3342  for(uint i=0; i<6; i++) {... */\n    tag_28:\n        /* \"Solidity100/Solidity1-10.sol\":3294:3295  6 */\n      0x06\n        /* \"Solidity100/Solidity1-10.sol\":3292:3293  i */\n      dup2\n        /* \"Solidity100/Solidity1-10.sol\":3292:3295  i<6 */\n      lt\n        /* \"Solidity100/Solidity1-10.sol\":3278:3342  for(uint i=0; i<6; i++) {... */\n      iszero\n      tag_29\n      jumpi\n        /* \"Solidity100/Solidity1-10.sol\":3316:3323  numbers */\n      0x00\n        /* \"Solidity100/Solidity1-10.sol\":3329:3330  i */\n      dup2\n        /* \"Solidity100/Solidity1-10.sol\":3316:3331  numbers.push(i) */\n      swap1\n      dup1\n      0x01\n      dup2\n      sload\n      add\n      dup1\n      dup3\n      sstore\n      dup1\n      swap2\n      pop\n      pop\n      0x01\n      swap1\n      sub\n      swap1\n      0x00\n      mstore\n      keccak256(0x00, 0x20)\n      add\n      0x00\n      swap1\n      swap2\n      swap1\n      swap2\n      swap1\n      swap2\n      pop\n      sstore\n        /* \"Solidity100/Solidity1-10.sol\":3297:3300  i++ */\n      dup1\n      dup1\n      0x01\n      add\n      swap2\n      pop\n      pop\n        /* \"Solidity100/Solidity1-10.sol\":3278:3342  for(uint i=0; i<6; i++) {... */\n      jump(tag_28)\n    tag_29:\n      pop\n        /* \"Solidity100/Solidity1-10.sol\":3238:3348  function pushNumbers() public {... */\n      jump\t// out\n        /* \"Solidity100/Solidity1-10.sol\":3210:3231  uint[] public numbers */\n    tag_15:\n      0x00\n      dup2\n      dup2\n      sload\n      dup2\n      lt\n      tag_32\n      jumpi\n      0x00\n      dup1\n      revert\n    tag_32:\n      swap1\n      0x00\n      mstore\n      keccak256(0x00, 0x20)\n      add\n      0x00\n      swap2\n      pop\n      swap1\n      pop\n      sload\n      dup2\n      jump\t// out\n        /* \"#utility.yul\":7:84   */\n    tag_34:\n        /* \"#utility.yul\":44:51   */\n      0x00\n        /* \"#utility.yul\":73:78   */\n      dup2\n        /* \"#utility.yul\":62:78   */\n      swap1\n      pop\n        /* \"#utility.yul\":7:84   */\n      swap2\n      swap1\n      pop\n      jump\t// out\n        /* \"#utility.yul\":90:208   */\n    tag_35:\n        /* \"#utility.yul\":177:201   */\n      tag_45\n        /* \"#utility.yul\":195:200   */\n      dup2\n        /* \"#utility.yul\":177:201   */\n      tag_34\n      jump\t// in\n    tag_45:\n        /* \"#utility.yul\":172:175   */\n      dup3\n        /* \"#utility.yul\":165:202   */\n      mstore\n        /* \"#utility.yul\":90:208   */\n      pop\n      pop\n      jump\t// out\n        /* \"#utility.yul\":214:436   */\n    tag_9:\n        /* \"#utility.yul\":307:311   */\n      0x00\n        /* \"#utility.yul\":345:347   */\n      0x20\n        /* \"#utility.yul\":334:343   */\n      dup3\n        /* \"#utility.yul\":330:348   */\n      add\n        /* \"#utility.yul\":322:348   */\n      swap1\n      pop\n        /* \"#utility.yul\":358:429   */\n      tag_47\n        /* \"#utility.yul\":426:427   */\n      0x00\n        /* \"#utility.yul\":415:424   */\n      dup4\n        /* \"#utility.yul\":411:428   */\n      add\n        /* \"#utility.yul\":402:408   */\n      dup5\n        /* \"#utility.yul\":358:429   */\n      tag_35\n      jump\t// in\n    tag_47:\n        /* \"#utility.yul\":214:436   */\n      swap3\n      swap2\n      pop\n      pop\n      jump\t// out\n        /* \"#utility.yul\":523:640   */\n    tag_37:\n        /* \"#utility.yul\":632:633   */\n      0x00\n        /* \"#utility.yul\":629:630   */\n      dup1\n        /* \"#utility.yul\":622:634   */\n      revert\n        /* \"#utility.yul\":769:891   */\n    tag_39:\n        /* \"#utility.yul\":842:866   */\n      tag_52\n        /* \"#utility.yul\":860:865   */\n      dup2\n        /* \"#utility.yul\":842:866   */\n      tag_34\n      jump\t// in\n    tag_52:\n        /* \"#utility.yul\":835:840   */\n      dup2\n        /* \"#utility.yul\":832:867   */\n      eq\n        /* \"#utility.yul\":822:885   */\n      tag_53\n      jumpi\n        /* \"#utility.yul\":881:882   */\n      0x00\n        /* \"#utility.yul\":878:879   */\n      dup1\n        /* \"#utility.yul\":871:883   */\n      revert\n        /* \"#utility.yul\":822:885   */\n    tag_53:\n        /* \"#utility.yul\":769:891   */\n      pop\n      jump\t// out\n        /* \"#utility.yul\":897:1036   */\n    tag_40:\n        /* \"#utility.yul\":943:948   */\n      0x00\n        /* \"#utility.yul\":981:987   */\n      dup2\n        /* \"#utility.yul\":968:988   */\n      calldataload\n        /* \"#utility.yul\":959:988   */\n      swap1\n      pop\n        /* \"#utility.yul\":997:1030   */\n      tag_55\n        /* \"#utility.yul\":1024:1029   */\n      dup2\n        /* \"#utility.yul\":997:1030   */\n      tag_39\n      jump\t// in\n    tag_55:\n        /* \"#utility.yul\":897:1036   */\n      swap3\n      swap2\n      pop\n      pop\n      jump\t// out\n        /* \"#utility.yul\":1042:1371   */\n    tag_14:\n        /* \"#utility.yul\":1101:1107   */\n      0x00\n        /* \"#utility.yul\":1150:1152   */\n      0x20\n        /* \"#utility.yul\":1138:1147   */\n      dup3\n        /* \"#utility.yul\":1129:1136   */\n      dup5\n        /* \"#utility.yul\":1125:1148   */\n      sub\n        /* \"#utility.yul\":1121:1153   */\n      slt\n        /* \"#utility.yul\":1118:1237   */\n      iszero\n      tag_57\n      jumpi\n        /* \"#utility.yul\":1156:1235   */\n      tag_58\n      tag_37\n      jump\t// in\n    tag_58:\n        /* \"#utility.yul\":1118:1237   */\n    tag_57:\n        /* \"#utility.yul\":1276:1277   */\n      0x00\n        /* \"#utility.yul\":1301:1354   */\n      tag_59\n        /* \"#utility.yul\":1346:1353   */\n      dup5\n        /* \"#utility.yul\":1337:1343   */\n      dup3\n        /* \"#utility.yul\":1326:1335   */\n      dup6\n        /* \"#utility.yul\":1322:1344   */\n      add\n        /* \"#utility.yul\":1301:1354   */\n      tag_40\n      jump\t// in\n    tag_59:\n        /* \"#utility.yul\":1291:1354   */\n      swap2\n      pop\n        /* \"#utility.yul\":1247:1364   */\n      pop\n        /* \"#utility.yul\":1042:1371   */\n      swap3\n      swap2\n      pop\n      pop\n      jump\t// out\n        /* \"#utility.yul\":1377:1557   */\n    tag_23:\n        /* \"#utility.yul\":1425:1502   */\n      0x4e487b7100000000000000000000000000000000000000000000000000000000\n        /* \"#utility.yul\":1422:1423   */\n      0x00\n        /* \"#utility.yul\":1415:1503   */\n      mstore\n        /* \"#utility.yul\":1522:1526   */\n      0x32\n        /* \"#utility.yul\":1519:1520   */\n      0x04\n        /* \"#utility.yul\":1512:1527   */\n      mstore\n        /* \"#utility.yul\":1546:1550   */\n      0x24\n        /* \"#utility.yul\":1543:1544   */\n      0x00\n        /* \"#utility.yul\":1536:1551   */\n      revert\n        /* \"#utility.yul\":1563:1743   */\n    tag_41:\n        /* \"#utility.yul\":1611:1688   */\n      0x4e487b7100000000000000000000000000000000000000000000000000000000\n        /* \"#utility.yul\":1608:1609   */\n      0x00\n        /* \"#utility.yul\":1601:1689   */\n      mstore\n        /* \"#utility.yul\":1708:1712   */\n      0x11\n        /* \"#utility.yul\":1705:1706   */\n      0x04\n        /* \"#utility.yul\":1698:1713   */\n      mstore\n        /* \"#utility.yul\":1732:1736   */\n      0x24\n        /* \"#utility.yul\":1729:1730   */\n      0x00\n        /* \"#utility.yul\":1722:1737   */\n      revert\n        /* \"#utility.yul\":1749:1940   */\n    tag_26:\n        /* \"#utility.yul\":1789:1792   */\n      0x00\n        /* \"#utility.yul\":1808:1828   */\n      tag_63\n        /* \"#utility.yul\":1826:1827   */\n      dup3\n        /* \"#utility.yul\":1808:1828   */\n      tag_34\n      jump\t// in\n    tag_63:\n        /* \"#utility.yul\":1803:1828   */\n      swap2\n      pop\n        /* \"#utility.yul\":1842:1862   */\n      tag_64\n        /* \"#utility.yul\":1860:1861   */\n      dup4\n        /* \"#utility.yul\":1842:1862   */\n      tag_34\n      jump\t// in\n    tag_64:\n        /* \"#utility.yul\":1837:1862   */\n      swap3\n      pop\n        /* \"#utility.yul\":1885:1886   */\n      dup3\n        /* \"#utility.yul\":1882:1883   */\n      dup3\n        /* \"#utility.yul\":1878:1887   */\n      add\n        /* \"#utility.yul\":1871:1887   */\n      swap1\n      pop\n        /* \"#utility.yul\":1906:1909   */\n      dup1\n        /* \"#utility.yul\":1903:1904   */\n      dup3\n        /* \"#utility.yul\":1900:1910   */\n      gt\n        /* \"#utility.yul\":1897:1933   */\n      iszero\n      tag_65\n      jumpi\n        /* \"#utility.yul\":1913:1931   */\n      tag_66\n      tag_41\n      jump\t// in\n    tag_66:\n        /* \"#utility.yul\":1897:1933   */\n    tag_65:\n        /* \"#utility.yul\":1749:1940   */\n      swap3\n      swap2\n      pop\n      pop\n      jump\t// out\n\n    auxdata: 0xa2646970667358221220689455d5e5f9ba07f0d475bfeef4ee9fae1d226189adc99a1ca2f510f46fc15f64736f6c634300081a0033\n}\n",
				"bytecode": {
					"linkReferences": {},
					"object": "6080604052348015600e575f80fd5b506102958061001c5f395ff3fe608060405234801561000f575f80fd5b506004361061003f575f3560e01c80638f2e7a2c14610043578063ce7fd43014610061578063d39fa2331461006b575b5f80fd5b61004b61009b565b6040516100589190610160565b60405180910390f35b6100696100e9565b005b610085600480360381019061008091906101a7565b610129565b6040516100929190610160565b60405180910390f35b5f805f5b5f805490508110156100e1575f81815481106100be576100bd6101d2565b5b905f5260205f200154826100d2919061022c565b9150808060010191505061009f565b508091505090565b5f5b6006811015610126575f81908060018154018082558091505060019003905f5260205f20015f909190919091505580806001019150506100eb565b50565b5f8181548110610137575f80fd5b905f5260205f20015f915090505481565b5f819050919050565b61015a81610148565b82525050565b5f6020820190506101735f830184610151565b92915050565b5f80fd5b61018681610148565b8114610190575f80fd5b50565b5f813590506101a18161017d565b92915050565b5f602082840312156101bc576101bb610179565b5b5f6101c984828501610193565b91505092915050565b7f4e487b71000000000000000000000000000000000000000000000000000000005f52603260045260245ffd5b7f4e487b71000000000000000000000000000000000000000000000000000000005f52601160045260245ffd5b5f61023682610148565b915061024183610148565b9250828201905080821115610259576102586101ff565b5b9291505056fea2646970667358221220689455d5e5f9ba07f0d475bfeef4ee9fae1d226189adc99a1ca2f510f46fc15f64736f6c634300081a0033",
					"opcodes": "PUSH1 0x80 PUSH1 0x40 MSTORE CALLVALUE DUP1 ISZERO PUSH1 0xE JUMPI PUSH0 DUP1 REVERT JUMPDEST POP PUSH2 0x295 DUP1 PUSH2 0x1C PUSH0 CODECOPY PUSH0 RETURN INVALID PUSH1 0x80 PUSH1 0x40 MSTORE CALLVALUE DUP1 ISZERO PUSH2 0xF JUMPI PUSH0 DUP1 REVERT JUMPDEST POP PUSH1 0x4 CALLDATASIZE LT PUSH2 0x3F JUMPI PUSH0 CALLDATALOAD PUSH1 0xE0 SHR DUP1 PUSH4 0x8F2E7A2C EQ PUSH2 0x43 JUMPI DUP1 PUSH4 0xCE7FD430 EQ PUSH2 0x61 JUMPI DUP1 PUSH4 0xD39FA233 EQ PUSH2 0x6B JUMPI JUMPDEST PUSH0 DUP1 REVERT JUMPDEST PUSH2 0x4B PUSH2 0x9B JUMP JUMPDEST PUSH1 0x40 MLOAD PUSH2 0x58 SWAP2 SWAP1 PUSH2 0x160 JUMP JUMPDEST PUSH1 0x40 MLOAD DUP1 SWAP2 SUB SWAP1 RETURN JUMPDEST PUSH2 0x69 PUSH2 0xE9 JUMP JUMPDEST STOP JUMPDEST PUSH2 0x85 PUSH1 0x4 DUP1 CALLDATASIZE SUB DUP2 ADD SWAP1 PUSH2 0x80 SWAP2 SWAP1 PUSH2 0x1A7 JUMP JUMPDEST PUSH2 0x129 JUMP JUMPDEST PUSH1 0x40 MLOAD PUSH2 0x92 SWAP2 SWAP1 PUSH2 0x160 JUMP JUMPDEST PUSH1 0x40 MLOAD DUP1 SWAP2 SUB SWAP1 RETURN JUMPDEST PUSH0 DUP1 PUSH0 JUMPDEST PUSH0 DUP1 SLOAD SWAP1 POP DUP2 LT ISZERO PUSH2 0xE1 JUMPI PUSH0 DUP2 DUP2 SLOAD DUP2 LT PUSH2 0xBE JUMPI PUSH2 0xBD PUSH2 0x1D2 JUMP JUMPDEST JUMPDEST SWAP1 PUSH0 MSTORE PUSH1 0x20 PUSH0 KECCAK256 ADD SLOAD DUP3 PUSH2 0xD2 SWAP2 SWAP1 PUSH2 0x22C JUMP JUMPDEST SWAP2 POP DUP1 DUP1 PUSH1 0x1 ADD SWAP2 POP POP PUSH2 0x9F JUMP JUMPDEST POP DUP1 SWAP2 POP POP SWAP1 JUMP JUMPDEST PUSH0 JUMPDEST PUSH1 0x6 DUP2 LT ISZERO PUSH2 0x126 JUMPI PUSH0 DUP2 SWAP1 DUP1 PUSH1 0x1 DUP2 SLOAD ADD DUP1 DUP3 SSTORE DUP1 SWAP2 POP POP PUSH1 0x1 SWAP1 SUB SWAP1 PUSH0 MSTORE PUSH1 0x20 PUSH0 KECCAK256 ADD PUSH0 SWAP1 SWAP2 SWAP1 SWAP2 SWAP1 SWAP2 POP SSTORE DUP1 DUP1 PUSH1 0x1 ADD SWAP2 POP POP PUSH2 0xEB JUMP JUMPDEST POP JUMP JUMPDEST PUSH0 DUP2 DUP2 SLOAD DUP2 LT PUSH2 0x137 JUMPI PUSH0 DUP1 REVERT JUMPDEST SWAP1 PUSH0 MSTORE PUSH1 0x20 PUSH0 KECCAK256 ADD PUSH0 SWAP2 POP SWAP1 POP SLOAD DUP2 JUMP JUMPDEST PUSH0 DUP2 SWAP1 POP SWAP2 SWAP1 POP JUMP JUMPDEST PUSH2 0x15A DUP2 PUSH2 0x148 JUMP JUMPDEST DUP3 MSTORE POP POP JUMP JUMPDEST PUSH0 PUSH1 0x20 DUP3 ADD SWAP1 POP PUSH2 0x173 PUSH0 DUP4 ADD DUP5 PUSH2 0x151 JUMP JUMPDEST SWAP3 SWAP2 POP POP JUMP JUMPDEST PUSH0 DUP1 REVERT JUMPDEST PUSH2 0x186 DUP2 PUSH2 0x148 JUMP JUMPDEST DUP2 EQ PUSH2 0x190 JUMPI PUSH0 DUP1 REVERT JUMPDEST POP JUMP JUMPDEST PUSH0 DUP2 CALLDATALOAD SWAP1 POP PUSH2 0x1A1 DUP2 PUSH2 0x17D JUMP JUMPDEST SWAP3 SWAP2 POP POP JUMP JUMPDEST PUSH0 PUSH1 0x20 DUP3 DUP5 SUB SLT ISZERO PUSH2 0x1BC JUMPI PUSH2 0x1BB PUSH2 0x179 JUMP JUMPDEST JUMPDEST PUSH0 PUSH2 0x1C9 DUP5 DUP3 DUP6 ADD PUSH2 0x193 JUMP JUMPDEST SWAP2 POP POP SWAP3 SWAP2 POP POP JUMP JUMPDEST PUSH32 0x4E487B7100000000000000000000000000000000000000000000000000000000 PUSH0 MSTORE PUSH1 0x32 PUSH1 0x4 MSTORE PUSH1 0x24 PUSH0 REVERT JUMPDEST PUSH32 0x4E487B7100000000000000000000000000000000000000000000000000000000 PUSH0 MSTORE PUSH1 0x11 PUSH1 0x4 MSTORE PUSH1 0x24 PUSH0 REVERT JUMPDEST PUSH0 PUSH2 0x236 DUP3 PUSH2 0x148 JUMP JUMPDEST SWAP2 POP PUSH2 0x241 DUP4 PUSH2 0x148 JUMP JUMPDEST SWAP3 POP DUP3 DUP3 ADD SWAP1 POP DUP1 DUP3 GT ISZERO PUSH2 0x259 JUMPI PUSH2 0x258 PUSH2 0x1FF JUMP JUMPDEST JUMPDEST SWAP3 SWAP2 POP POP JUMP INVALID LOG2 PUSH5 0x6970667358 0x22 SLT KECCAK256 PUSH9 0x9455D5E5F9BA07F0D4 PUSH22 0xBFEEF4EE9FAE1D226189ADC99A1CA2F510F46FC15F64 PUSH20 0x6F6C634300081A00330000000000000000000000 "
				},
				"gasEstimates": {
					"creation": {
						"codeDepositCost": "132200",
						"executionCost": "175",
						"totalCost": "132375"
					},
					"external": {
						"addArrayNumbers()": "infinite",
						"numbers(uint256)": "infinite",
						"pushNumbers()": "infinite"
					}
				},
				"methodIdentifiers": {
					"addArrayNumbers()": "8f2e7a2c",
					"numbers(uint256)": "d39fa233",
					"pushNumbers()": "ce7fd430"
				}
			},
			"storageLayout": {
				"storage": [
					{
						"astId": 246,
						"contract": "Solidity100/Solidity1-10.sol:Question7",
						"label": "numbers",
						"offset": 0,
						"slot": "0",
						"type": "t_array(t_uint256)dyn_storage"
					}
				],
				"types": {
					"t_array(t_uint256)dyn_storage": {
						"base": "t_uint256",
						"encoding": "dynamic_array",
						"label": "uint256[]",
						"numberOfBytes": "32"
					},
					"t_uint256": {
						"encoding": "inplace",
						"label": "uint256",
						"numberOfBytes": "32"
					}
				}
			},
			"userdoc": {
				"kind": "user",
				"methods": {},
				"version": 1
			}
		}
	}
}