{
	"Solidity100/Solidity1-10.sol": {
		"Question1": {
			"abi": [
				{
					"inputs": [
						{
							"internalType": "uint256",
							"name": "_a",
							"type": "uint256"
						},
						{
							"internalType": "uint256",
							"name": "_b",
							"type": "uint256"
						}
					],
					"name": "add",
					"outputs": [
						{
							"internalType": "uint256",
							"name": "",
							"type": "uint256"
						}
					],
					"stateMutability": "pure",
					"type": "function"
				},
				{
					"inputs": [
						{
							"internalType": "uint256",
							"name": "_a",
							"type": "uint256"
						},
						{
							"internalType": "uint256",
							"name": "_b",
							"type": "uint256"
						}
					],
					"name": "divide",
					"outputs": [
						{
							"internalType": "uint256",
							"name": "",
							"type": "uint256"
						}
					],
					"stateMutability": "pure",
					"type": "function"
				},
				{
					"inputs": [
						{
							"internalType": "uint256",
							"name": "_a",
							"type": "uint256"
						},
						{
							"internalType": "uint256",
							"name": "_b",
							"type": "uint256"
						}
					],
					"name": "multiply",
					"outputs": [
						{
							"internalType": "uint256",
							"name": "",
							"type": "uint256"
						}
					],
					"stateMutability": "pure",
					"type": "function"
				},
				{
					"inputs": [
						{
							"internalType": "uint256",
							"name": "_a",
							"type": "uint256"
						},
						{
							"internalType": "uint256",
							"name": "_b",
							"type": "uint256"
						}
					],
					"name": "power",
					"outputs": [
						{
							"internalType": "uint256",
							"name": "",
							"type": "uint256"
						}
					],
					"stateMutability": "pure",
					"type": "function"
				},
				{
					"inputs": [
						{
							"internalType": "uint256",
							"name": "_a",
							"type": "uint256"
						},
						{
							"internalType": "uint256",
							"name": "_b",
							"type": "uint256"
						}
					],
					"name": "subtract",
					"outputs": [
						{
							"internalType": "uint256",
							"name": "",
							"type": "uint256"
						}
					],
					"stateMutability": "pure",
					"type": "function"
				}
			],
			"devdoc": {
				"kind": "dev",
				"methods": {},
				"version": 1
			},
			"evm": {
				"assembly": "    /* \"Solidity100/Solidity1-10.sol\":58:734  contract Question1{... */\n  mstore(0x40, 0x80)\n  callvalue\n  dup1\n  iszero\n  tag_1\n  jumpi\n  0x00\n  dup1\n  revert\ntag_1:\n  pop\n  dataSize(sub_0)\n  dup1\n  dataOffset(sub_0)\n  0x00\n  codecopy\n  0x00\n  return\nstop\n\nsub_0: assembly {\n        /* \"Solidity100/Solidity1-10.sol\":58:734  contract Question1{... */\n      mstore(0x40, 0x80)\n      callvalue\n      dup1\n      iszero\n      tag_1\n      jumpi\n      0x00\n      dup1\n      revert\n    tag_1:\n      pop\n      jumpi(tag_2, lt(calldatasize, 0x04))\n      shr(0xe0, calldataload(0x00))\n      dup1\n      0x165c4a16\n      eq\n      tag_3\n      jumpi\n      dup1\n      0x3ef5e445\n      eq\n      tag_4\n      jumpi\n      dup1\n      0x771602f7\n      eq\n      tag_5\n      jumpi\n      dup1\n      0xc04f01fc\n      eq\n      tag_6\n      jumpi\n      dup1\n      0xf88e9fbf\n      eq\n      tag_7\n      jumpi\n    tag_2:\n      0x00\n      dup1\n      revert\n        /* \"Solidity100/Solidity1-10.sol\":396:490  function multiply(uint _a, uint _b) public pure returns (uint) {... */\n    tag_3:\n      tag_8\n      0x04\n      dup1\n      calldatasize\n      sub\n      dup2\n      add\n      swap1\n      tag_9\n      swap2\n      swap1\n      tag_10\n      jump\t// in\n    tag_9:\n      tag_11\n      jump\t// in\n    tag_8:\n      mload(0x40)\n      tag_12\n      swap2\n      swap1\n      tag_13\n      jump\t// in\n    tag_12:\n      mload(0x40)\n      dup1\n      swap2\n      sub\n      swap1\n      return\n        /* \"Solidity100/Solidity1-10.sol\":296:390  function subtract(uint _a, uint _b) public pure returns (uint) {... */\n    tag_4:\n      tag_14\n      0x04\n      dup1\n      calldatasize\n      sub\n      dup2\n      add\n      swap1\n      tag_15\n      swap2\n      swap1\n      tag_10\n      jump\t// in\n    tag_15:\n      tag_16\n      jump\t// in\n    tag_14:\n      mload(0x40)\n      tag_17\n      swap2\n      swap1\n      tag_13\n      jump\t// in\n    tag_17:\n      mload(0x40)\n      dup1\n      swap2\n      sub\n      swap1\n      return\n        /* \"Solidity100/Solidity1-10.sol\":201:290  function add(uint _a, uint _b) public pure returns (uint) {... */\n    tag_5:\n      tag_18\n      0x04\n      dup1\n      calldatasize\n      sub\n      dup2\n      add\n      swap1\n      tag_19\n      swap2\n      swap1\n      tag_10\n      jump\t// in\n    tag_19:\n      tag_20\n      jump\t// in\n    tag_18:\n      mload(0x40)\n      tag_21\n      swap2\n      swap1\n      tag_13\n      jump\t// in\n    tag_21:\n      mload(0x40)\n      dup1\n      swap2\n      sub\n      swap1\n      return\n        /* \"Solidity100/Solidity1-10.sol\":640:732  function power(uint _a, uint _b) public pure returns (uint) {... */\n    tag_6:\n      tag_22\n      0x04\n      dup1\n      calldatasize\n      sub\n      dup2\n      add\n      swap1\n      tag_23\n      swap2\n      swap1\n      tag_10\n      jump\t// in\n    tag_23:\n      tag_24\n      jump\t// in\n    tag_22:\n      mload(0x40)\n      tag_25\n      swap2\n      swap1\n      tag_13\n      jump\t// in\n    tag_25:\n      mload(0x40)\n      dup1\n      swap2\n      sub\n      swap1\n      return\n        /* \"Solidity100/Solidity1-10.sol\":496:634  function divide(uint _a, uint _b) public pure returns (uint) {... */\n    tag_7:\n      tag_26\n      0x04\n      dup1\n      calldatasize\n      sub\n      dup2\n      add\n      swap1\n      tag_27\n      swap2\n      swap1\n      tag_10\n      jump\t// in\n    tag_27:\n      tag_28\n      jump\t// in\n    tag_26:\n      mload(0x40)\n      tag_29\n      swap2\n      swap1\n      tag_13\n      jump\t// in\n    tag_29:\n      mload(0x40)\n      dup1\n      swap2\n      sub\n      swap1\n      return\n        /* \"Solidity100/Solidity1-10.sol\":396:490  function multiply(uint _a, uint _b) public pure returns (uint) {... */\n    tag_11:\n        /* \"Solidity100/Solidity1-10.sol\":453:457  uint */\n      0x00\n        /* \"Solidity100/Solidity1-10.sol\":481:483  _b */\n      dup2\n        /* \"Solidity100/Solidity1-10.sol\":476:478  _a */\n      dup4\n        /* \"Solidity100/Solidity1-10.sol\":476:483  _a * _b */\n      tag_31\n      swap2\n      swap1\n      tag_32\n      jump\t// in\n    tag_31:\n        /* \"Solidity100/Solidity1-10.sol\":469:483  return _a * _b */\n      swap1\n      pop\n        /* \"Solidity100/Solidity1-10.sol\":396:490  function multiply(uint _a, uint _b) public pure returns (uint) {... */\n      swap3\n      swap2\n      pop\n      pop\n      jump\t// out\n        /* \"Solidity100/Solidity1-10.sol\":296:390  function subtract(uint _a, uint _b) public pure returns (uint) {... */\n    tag_16:\n        /* \"Solidity100/Solidity1-10.sol\":353:357  uint */\n      0x00\n        /* \"Solidity100/Solidity1-10.sol\":381:383  _b */\n      dup2\n        /* \"Solidity100/Solidity1-10.sol\":376:378  _a */\n      dup4\n        /* \"Solidity100/Solidity1-10.sol\":376:383  _a - _b */\n      tag_34\n      swap2\n      swap1\n      tag_35\n      jump\t// in\n    tag_34:\n        /* \"Solidity100/Solidity1-10.sol\":369:383  return _a - _b */\n      swap1\n      pop\n        /* \"Solidity100/Solidity1-10.sol\":296:390  function subtract(uint _a, uint _b) public pure returns (uint) {... */\n      swap3\n      swap2\n      pop\n      pop\n      jump\t// out\n        /* \"Solidity100/Solidity1-10.sol\":201:290  function add(uint _a, uint _b) public pure returns (uint) {... */\n    tag_20:\n        /* \"Solidity100/Solidity1-10.sol\":253:257  uint */\n      0x00\n        /* \"Solidity100/Solidity1-10.sol\":281:283  _b */\n      dup2\n        /* \"Solidity100/Solidity1-10.sol\":276:278  _a */\n      dup4\n        /* \"Solidity100/Solidity1-10.sol\":276:283  _a + _b */\n      tag_37\n      swap2\n      swap1\n      tag_38\n      jump\t// in\n    tag_37:\n        /* \"Solidity100/Solidity1-10.sol\":269:283  return _a + _b */\n      swap1\n      pop\n        /* \"Solidity100/Solidity1-10.sol\":201:290  function add(uint _a, uint _b) public pure returns (uint) {... */\n      swap3\n      swap2\n      pop\n      pop\n      jump\t// out\n        /* \"Solidity100/Solidity1-10.sol\":640:732  function power(uint _a, uint _b) public pure returns (uint) {... */\n    tag_24:\n        /* \"Solidity100/Solidity1-10.sol\":694:698  uint */\n      0x00\n        /* \"Solidity100/Solidity1-10.sol\":723:725  _b */\n      dup2\n        /* \"Solidity100/Solidity1-10.sol\":717:719  _a */\n      dup4\n        /* \"Solidity100/Solidity1-10.sol\":717:725  _a ** _b */\n      tag_40\n      swap2\n      swap1\n      tag_41\n      jump\t// in\n    tag_40:\n        /* \"Solidity100/Solidity1-10.sol\":710:725  return _a ** _b */\n      swap1\n      pop\n        /* \"Solidity100/Solidity1-10.sol\":640:732  function power(uint _a, uint _b) public pure returns (uint) {... */\n      swap3\n      swap2\n      pop\n      pop\n      jump\t// out\n        /* \"Solidity100/Solidity1-10.sol\":496:634  function divide(uint _a, uint _b) public pure returns (uint) {... */\n    tag_28:\n        /* \"Solidity100/Solidity1-10.sol\":551:555  uint */\n      0x00\n        /* \"Solidity100/Solidity1-10.sol\":581:582  0 */\n      dup1\n        /* \"Solidity100/Solidity1-10.sol\":575:577  _b */\n      dup3\n        /* \"Solidity100/Solidity1-10.sol\":575:582  _b != 0 */\n      sub\n        /* \"Solidity100/Solidity1-10.sol\":567:603  require(_b != 0, \"Division by zero\") */\n      tag_43\n      jumpi\n      mload(0x40)\n      0x08c379a000000000000000000000000000000000000000000000000000000000\n      dup2\n      mstore\n      0x04\n      add\n      tag_44\n      swap1\n      tag_45\n      jump\t// in\n    tag_44:\n      mload(0x40)\n      dup1\n      swap2\n      sub\n      swap1\n      revert\n    tag_43:\n        /* \"Solidity100/Solidity1-10.sol\":625:627  _b */\n      dup2\n        /* \"Solidity100/Solidity1-10.sol\":620:622  _a */\n      dup4\n        /* \"Solidity100/Solidity1-10.sol\":620:627  _a / _b */\n      tag_46\n      swap2\n      swap1\n      tag_47\n      jump\t// in\n    tag_46:\n        /* \"Solidity100/Solidity1-10.sol\":613:627  return _a / _b */\n      swap1\n      pop\n        /* \"Solidity100/Solidity1-10.sol\":496:634  function divide(uint _a, uint _b) public pure returns (uint) {... */\n      swap3\n      swap2\n      pop\n      pop\n      jump\t// out\n        /* \"#utility.yul\":88:205   */\n    tag_49:\n        /* \"#utility.yul\":197:198   */\n      0x00\n        /* \"#utility.yul\":194:195   */\n      dup1\n        /* \"#utility.yul\":187:199   */\n      revert\n        /* \"#utility.yul\":334:411   */\n    tag_51:\n        /* \"#utility.yul\":371:378   */\n      0x00\n        /* \"#utility.yul\":400:405   */\n      dup2\n        /* \"#utility.yul\":389:405   */\n      swap1\n      pop\n        /* \"#utility.yul\":334:411   */\n      swap2\n      swap1\n      pop\n      jump\t// out\n        /* \"#utility.yul\":417:539   */\n    tag_52:\n        /* \"#utility.yul\":490:514   */\n      tag_69\n        /* \"#utility.yul\":508:513   */\n      dup2\n        /* \"#utility.yul\":490:514   */\n      tag_51\n      jump\t// in\n    tag_69:\n        /* \"#utility.yul\":483:488   */\n      dup2\n        /* \"#utility.yul\":480:515   */\n      eq\n        /* \"#utility.yul\":470:533   */\n      tag_70\n      jumpi\n        /* \"#utility.yul\":529:530   */\n      0x00\n        /* \"#utility.yul\":526:527   */\n      dup1\n        /* \"#utility.yul\":519:531   */\n      revert\n        /* \"#utility.yul\":470:533   */\n    tag_70:\n        /* \"#utility.yul\":417:539   */\n      pop\n      jump\t// out\n        /* \"#utility.yul\":545:684   */\n    tag_53:\n        /* \"#utility.yul\":591:596   */\n      0x00\n        /* \"#utility.yul\":629:635   */\n      dup2\n        /* \"#utility.yul\":616:636   */\n      calldataload\n        /* \"#utility.yul\":607:636   */\n      swap1\n      pop\n        /* \"#utility.yul\":645:678   */\n      tag_72\n        /* \"#utility.yul\":672:677   */\n      dup2\n        /* \"#utility.yul\":645:678   */\n      tag_52\n      jump\t// in\n    tag_72:\n        /* \"#utility.yul\":545:684   */\n      swap3\n      swap2\n      pop\n      pop\n      jump\t// out\n        /* \"#utility.yul\":690:1164   */\n    tag_10:\n        /* \"#utility.yul\":758:764   */\n      0x00\n        /* \"#utility.yul\":766:772   */\n      dup1\n        /* \"#utility.yul\":815:817   */\n      0x40\n        /* \"#utility.yul\":803:812   */\n      dup4\n        /* \"#utility.yul\":794:801   */\n      dup6\n        /* \"#utility.yul\":790:813   */\n      sub\n        /* \"#utility.yul\":786:818   */\n      slt\n        /* \"#utility.yul\":783:902   */\n      iszero\n      tag_74\n      jumpi\n        /* \"#utility.yul\":821:900   */\n      tag_75\n      tag_49\n      jump\t// in\n    tag_75:\n        /* \"#utility.yul\":783:902   */\n    tag_74:\n        /* \"#utility.yul\":941:942   */\n      0x00\n        /* \"#utility.yul\":966:1019   */\n      tag_76\n        /* \"#utility.yul\":1011:1018   */\n      dup6\n        /* \"#utility.yul\":1002:1008   */\n      dup3\n        /* \"#utility.yul\":991:1000   */\n      dup7\n        /* \"#utility.yul\":987:1009   */\n      add\n        /* \"#utility.yul\":966:1019   */\n      tag_53\n      jump\t// in\n    tag_76:\n        /* \"#utility.yul\":956:1019   */\n      swap3\n      pop\n        /* \"#utility.yul\":912:1029   */\n      pop\n        /* \"#utility.yul\":1068:1070   */\n      0x20\n        /* \"#utility.yul\":1094:1147   */\n      tag_77\n        /* \"#utility.yul\":1139:1146   */\n      dup6\n        /* \"#utility.yul\":1130:1136   */\n      dup3\n        /* \"#utility.yul\":1119:1128   */\n      dup7\n        /* \"#utility.yul\":1115:1137   */\n      add\n        /* \"#utility.yul\":1094:1147   */\n      tag_53\n      jump\t// in\n    tag_77:\n        /* \"#utility.yul\":1084:1147   */\n      swap2\n      pop\n        /* \"#utility.yul\":1039:1157   */\n      pop\n        /* \"#utility.yul\":690:1164   */\n      swap3\n      pop\n      swap3\n      swap1\n      pop\n      jump\t// out\n        /* \"#utility.yul\":1170:1288   */\n    tag_54:\n        /* \"#utility.yul\":1257:1281   */\n      tag_79\n        /* \"#utility.yul\":1275:1280   */\n      dup2\n        /* \"#utility.yul\":1257:1281   */\n      tag_51\n      jump\t// in\n    tag_79:\n        /* \"#utility.yul\":1252:1255   */\n      dup3\n        /* \"#utility.yul\":1245:1282   */\n      mstore\n        /* \"#utility.yul\":1170:1288   */\n      pop\n      pop\n      jump\t// out\n        /* \"#utility.yul\":1294:1516   */\n    tag_13:\n        /* \"#utility.yul\":1387:1391   */\n      0x00\n        /* \"#utility.yul\":1425:1427   */\n      0x20\n        /* \"#utility.yul\":1414:1423   */\n      dup3\n        /* \"#utility.yul\":1410:1428   */\n      add\n        /* \"#utility.yul\":1402:1428   */\n      swap1\n      pop\n        /* \"#utility.yul\":1438:1509   */\n      tag_81\n        /* \"#utility.yul\":1506:1507   */\n      0x00\n        /* \"#utility.yul\":1495:1504   */\n      dup4\n        /* \"#utility.yul\":1491:1508   */\n      add\n        /* \"#utility.yul\":1482:1488   */\n      dup5\n        /* \"#utility.yul\":1438:1509   */\n      tag_54\n      jump\t// in\n    tag_81:\n        /* \"#utility.yul\":1294:1516   */\n      swap3\n      swap2\n      pop\n      pop\n      jump\t// out\n        /* \"#utility.yul\":1522:1702   */\n    tag_55:\n        /* \"#utility.yul\":1570:1647   */\n      0x4e487b7100000000000000000000000000000000000000000000000000000000\n        /* \"#utility.yul\":1567:1568   */\n      0x00\n        /* \"#utility.yul\":1560:1648   */\n      mstore\n        /* \"#utility.yul\":1667:1671   */\n      0x11\n        /* \"#utility.yul\":1664:1665   */\n      0x04\n        /* \"#utility.yul\":1657:1672   */\n      mstore\n        /* \"#utility.yul\":1691:1695   */\n      0x24\n        /* \"#utility.yul\":1688:1689   */\n      0x00\n        /* \"#utility.yul\":1681:1696   */\n      revert\n        /* \"#utility.yul\":1708:2118   */\n    tag_32:\n        /* \"#utility.yul\":1748:1755   */\n      0x00\n        /* \"#utility.yul\":1771:1791   */\n      tag_84\n        /* \"#utility.yul\":1789:1790   */\n      dup3\n        /* \"#utility.yul\":1771:1791   */\n      tag_51\n      jump\t// in\n    tag_84:\n        /* \"#utility.yul\":1766:1791   */\n      swap2\n      pop\n        /* \"#utility.yul\":1805:1825   */\n      tag_85\n        /* \"#utility.yul\":1823:1824   */\n      dup4\n        /* \"#utility.yul\":1805:1825   */\n      tag_51\n      jump\t// in\n    tag_85:\n        /* \"#utility.yul\":1800:1825   */\n      swap3\n      pop\n        /* \"#utility.yul\":1860:1861   */\n      dup3\n        /* \"#utility.yul\":1857:1858   */\n      dup3\n        /* \"#utility.yul\":1853:1862   */\n      mul\n        /* \"#utility.yul\":1882:1912   */\n      tag_86\n        /* \"#utility.yul\":1900:1911   */\n      dup2\n        /* \"#utility.yul\":1882:1912   */\n      tag_51\n      jump\t// in\n    tag_86:\n        /* \"#utility.yul\":1871:1912   */\n      swap2\n      pop\n        /* \"#utility.yul\":2061:2062   */\n      dup3\n        /* \"#utility.yul\":2052:2059   */\n      dup3\n        /* \"#utility.yul\":2048:2063   */\n      div\n        /* \"#utility.yul\":2045:2046   */\n      dup5\n        /* \"#utility.yul\":2042:2064   */\n      eq\n        /* \"#utility.yul\":2022:2023   */\n      dup4\n        /* \"#utility.yul\":2015:2024   */\n      iszero\n        /* \"#utility.yul\":1995:2078   */\n      or\n        /* \"#utility.yul\":1972:2111   */\n      tag_87\n      jumpi\n        /* \"#utility.yul\":2091:2109   */\n      tag_88\n      tag_55\n      jump\t// in\n    tag_88:\n        /* \"#utility.yul\":1972:2111   */\n    tag_87:\n        /* \"#utility.yul\":1756:2118   */\n      pop\n        /* \"#utility.yul\":1708:2118   */\n      swap3\n      swap2\n      pop\n      pop\n      jump\t// out\n        /* \"#utility.yul\":2124:2318   */\n    tag_35:\n        /* \"#utility.yul\":2164:2168   */\n      0x00\n        /* \"#utility.yul\":2184:2204   */\n      tag_90\n        /* \"#utility.yul\":2202:2203   */\n      dup3\n        /* \"#utility.yul\":2184:2204   */\n      tag_51\n      jump\t// in\n    tag_90:\n        /* \"#utility.yul\":2179:2204   */\n      swap2\n      pop\n        /* \"#utility.yul\":2218:2238   */\n      tag_91\n        /* \"#utility.yul\":2236:2237   */\n      dup4\n        /* \"#utility.yul\":2218:2238   */\n      tag_51\n      jump\t// in\n    tag_91:\n        /* \"#utility.yul\":2213:2238   */\n      swap3\n      pop\n        /* \"#utility.yul\":2262:2263   */\n      dup3\n        /* \"#utility.yul\":2259:2260   */\n      dup3\n        /* \"#utility.yul\":2255:2264   */\n      sub\n        /* \"#utility.yul\":2247:2264   */\n      swap1\n      pop\n        /* \"#utility.yul\":2286:2287   */\n      dup2\n        /* \"#utility.yul\":2280:2284   */\n      dup2\n        /* \"#utility.yul\":2277:2288   */\n      gt\n        /* \"#utility.yul\":2274:2311   */\n      iszero\n      tag_92\n      jumpi\n        /* \"#utility.yul\":2291:2309   */\n      tag_93\n      tag_55\n      jump\t// in\n    tag_93:\n        /* \"#utility.yul\":2274:2311   */\n    tag_92:\n        /* \"#utility.yul\":2124:2318   */\n      swap3\n      swap2\n      pop\n      pop\n      jump\t// out\n        /* \"#utility.yul\":2324:2515   */\n    tag_38:\n        /* \"#utility.yul\":2364:2367   */\n      0x00\n        /* \"#utility.yul\":2383:2403   */\n      tag_95\n        /* \"#utility.yul\":2401:2402   */\n      dup3\n        /* \"#utility.yul\":2383:2403   */\n      tag_51\n      jump\t// in\n    tag_95:\n        /* \"#utility.yul\":2378:2403   */\n      swap2\n      pop\n        /* \"#utility.yul\":2417:2437   */\n      tag_96\n        /* \"#utility.yul\":2435:2436   */\n      dup4\n        /* \"#utility.yul\":2417:2437   */\n      tag_51\n      jump\t// in\n    tag_96:\n        /* \"#utility.yul\":2412:2437   */\n      swap3\n      pop\n        /* \"#utility.yul\":2460:2461   */\n      dup3\n        /* \"#utility.yul\":2457:2458   */\n      dup3\n        /* \"#utility.yul\":2453:2462   */\n      add\n        /* \"#utility.yul\":2446:2462   */\n      swap1\n      pop\n        /* \"#utility.yul\":2481:2484   */\n      dup1\n        /* \"#utility.yul\":2478:2479   */\n      dup3\n        /* \"#utility.yul\":2475:2485   */\n      gt\n        /* \"#utility.yul\":2472:2508   */\n      iszero\n      tag_97\n      jumpi\n        /* \"#utility.yul\":2488:2506   */\n      tag_98\n      tag_55\n      jump\t// in\n    tag_98:\n        /* \"#utility.yul\":2472:2508   */\n    tag_97:\n        /* \"#utility.yul\":2324:2515   */\n      swap3\n      swap2\n      pop\n      pop\n      jump\t// out\n        /* \"#utility.yul\":2521:2623   */\n    tag_56:\n        /* \"#utility.yul\":2563:2571   */\n      0x00\n        /* \"#utility.yul\":2610:2615   */\n      dup2\n        /* \"#utility.yul\":2607:2608   */\n      0x01\n        /* \"#utility.yul\":2603:2616   */\n      shr\n        /* \"#utility.yul\":2582:2616   */\n      swap1\n      pop\n        /* \"#utility.yul\":2521:2623   */\n      swap2\n      swap1\n      pop\n      jump\t// out\n        /* \"#utility.yul\":2629:3477   */\n    tag_57:\n        /* \"#utility.yul\":2690:2695   */\n      0x00\n        /* \"#utility.yul\":2697:2701   */\n      dup1\n        /* \"#utility.yul\":2721:2727   */\n      dup3\n        /* \"#utility.yul\":2712:2727   */\n      swap2\n      pop\n        /* \"#utility.yul\":2745:2750   */\n      dup4\n        /* \"#utility.yul\":2736:2750   */\n      swap1\n      pop\n        /* \"#utility.yul\":2759:3471   */\n    tag_101:\n        /* \"#utility.yul\":2780:2781   */\n      0x01\n        /* \"#utility.yul\":2770:2778   */\n      dup6\n        /* \"#utility.yul\":2767:2782   */\n      gt\n        /* \"#utility.yul\":2759:3471   */\n      iszero\n      tag_103\n      jumpi\n        /* \"#utility.yul\":2875:2879   */\n      dup1\n        /* \"#utility.yul\":2870:2873   */\n      dup7\n        /* \"#utility.yul\":2866:2880   */\n      div\n        /* \"#utility.yul\":2860:2864   */\n      dup2\n        /* \"#utility.yul\":2857:2881   */\n      gt\n        /* \"#utility.yul\":2854:2904   */\n      iszero\n      tag_104\n      jumpi\n        /* \"#utility.yul\":2884:2902   */\n      tag_105\n      tag_55\n      jump\t// in\n    tag_105:\n        /* \"#utility.yul\":2854:2904   */\n    tag_104:\n        /* \"#utility.yul\":2934:2935   */\n      0x01\n        /* \"#utility.yul\":2924:2932   */\n      dup6\n        /* \"#utility.yul\":2920:2936   */\n      and\n        /* \"#utility.yul\":2917:3368   */\n      iszero\n      tag_106\n      jumpi\n        /* \"#utility.yul\":3349:3353   */\n      dup1\n        /* \"#utility.yul\":3342:3347   */\n      dup3\n        /* \"#utility.yul\":3338:3354   */\n      mul\n        /* \"#utility.yul\":3329:3354   */\n      swap2\n      pop\n        /* \"#utility.yul\":2917:3368   */\n    tag_106:\n        /* \"#utility.yul\":3399:3403   */\n      dup1\n        /* \"#utility.yul\":3393:3397   */\n      dup2\n        /* \"#utility.yul\":3389:3404   */\n      mul\n        /* \"#utility.yul\":3381:3404   */\n      swap1\n      pop\n        /* \"#utility.yul\":3429:3461   */\n      tag_107\n        /* \"#utility.yul\":3452:3460   */\n      dup6\n        /* \"#utility.yul\":3429:3461   */\n      tag_56\n      jump\t// in\n    tag_107:\n        /* \"#utility.yul\":3417:3461   */\n      swap5\n      pop\n        /* \"#utility.yul\":2759:3471   */\n      jump(tag_101)\n    tag_103:\n        /* \"#utility.yul\":2629:3477   */\n      swap5\n      pop\n      swap5\n      swap3\n      pop\n      pop\n      pop\n      jump\t// out\n        /* \"#utility.yul\":3483:4556   */\n    tag_58:\n        /* \"#utility.yul\":3537:3542   */\n      0x00\n        /* \"#utility.yul\":3728:3736   */\n      dup3\n        /* \"#utility.yul\":3718:3758   */\n      tag_109\n      jumpi\n        /* \"#utility.yul\":3749:3750   */\n      0x01\n        /* \"#utility.yul\":3740:3750   */\n      swap1\n      pop\n        /* \"#utility.yul\":3751:3756   */\n      jump(tag_108)\n        /* \"#utility.yul\":3718:3758   */\n    tag_109:\n        /* \"#utility.yul\":3777:3781   */\n      dup2\n        /* \"#utility.yul\":3767:3803   */\n      tag_110\n      jumpi\n        /* \"#utility.yul\":3794:3795   */\n      0x00\n        /* \"#utility.yul\":3785:3795   */\n      swap1\n      pop\n        /* \"#utility.yul\":3796:3801   */\n      jump(tag_108)\n        /* \"#utility.yul\":3767:3803   */\n    tag_110:\n        /* \"#utility.yul\":3863:3867   */\n      dup2\n        /* \"#utility.yul\":3911:3912   */\n      0x01\n        /* \"#utility.yul\":3906:3933   */\n      dup2\n      eq\n      tag_112\n      jumpi\n        /* \"#utility.yul\":3947:3948   */\n      0x02\n        /* \"#utility.yul\":3942:4133   */\n      dup2\n      eq\n      tag_113\n      jumpi\n        /* \"#utility.yul\":3856:4133   */\n      jump(tag_111)\n        /* \"#utility.yul\":3906:3933   */\n    tag_112:\n        /* \"#utility.yul\":3924:3925   */\n      0x01\n        /* \"#utility.yul\":3915:3925   */\n      swap2\n      pop\n        /* \"#utility.yul\":3926:3931   */\n      pop\n      jump(tag_108)\n        /* \"#utility.yul\":3942:4133   */\n    tag_113:\n        /* \"#utility.yul\":3987:3990   */\n      0xff\n        /* \"#utility.yul\":3977:3985   */\n      dup5\n        /* \"#utility.yul\":3974:3991   */\n      gt\n        /* \"#utility.yul\":3971:4014   */\n      iszero\n      tag_114\n      jumpi\n        /* \"#utility.yul\":3994:4012   */\n      tag_115\n      tag_55\n      jump\t// in\n    tag_115:\n        /* \"#utility.yul\":3971:4014   */\n    tag_114:\n        /* \"#utility.yul\":4043:4051   */\n      dup4\n        /* \"#utility.yul\":4040:4041   */\n      0x02\n        /* \"#utility.yul\":4036:4052   */\n      exp\n        /* \"#utility.yul\":4027:4052   */\n      swap2\n      pop\n        /* \"#utility.yul\":4078:4081   */\n      dup5\n        /* \"#utility.yul\":4071:4076   */\n      dup3\n        /* \"#utility.yul\":4068:4082   */\n      gt\n        /* \"#utility.yul\":4065:4105   */\n      iszero\n      tag_116\n      jumpi\n        /* \"#utility.yul\":4085:4103   */\n      tag_117\n      tag_55\n      jump\t// in\n    tag_117:\n        /* \"#utility.yul\":4065:4105   */\n    tag_116:\n        /* \"#utility.yul\":4118:4123   */\n      pop\n      jump(tag_108)\n        /* \"#utility.yul\":3856:4133   */\n    tag_111:\n      pop\n        /* \"#utility.yul\":4242:4244   */\n      0x20\n        /* \"#utility.yul\":4232:4240   */\n      dup4\n        /* \"#utility.yul\":4229:4245   */\n      lt\n        /* \"#utility.yul\":4223:4226   */\n      0x0133\n        /* \"#utility.yul\":4217:4221   */\n      dup4\n        /* \"#utility.yul\":4214:4227   */\n      lt\n        /* \"#utility.yul\":4210:4246   */\n      and\n        /* \"#utility.yul\":4192:4194   */\n      0x4e\n        /* \"#utility.yul\":4182:4190   */\n      dup5\n        /* \"#utility.yul\":4179:4195   */\n      lt\n        /* \"#utility.yul\":4174:4176   */\n      0x0b\n        /* \"#utility.yul\":4168:4172   */\n      dup5\n        /* \"#utility.yul\":4165:4177   */\n      lt\n        /* \"#utility.yul\":4161:4196   */\n      and\n        /* \"#utility.yul\":4145:4256   */\n      or\n        /* \"#utility.yul\":4142:4388   */\n      iszero\n      tag_118\n      jumpi\n        /* \"#utility.yul\":4298:4306   */\n      dup3\n        /* \"#utility.yul\":4292:4296   */\n      dup3\n        /* \"#utility.yul\":4288:4307   */\n      exp\n        /* \"#utility.yul\":4279:4307   */\n      swap1\n      pop\n        /* \"#utility.yul\":4333:4336   */\n      dup4\n        /* \"#utility.yul\":4326:4331   */\n      dup2\n        /* \"#utility.yul\":4323:4337   */\n      gt\n        /* \"#utility.yul\":4320:4360   */\n      iszero\n      tag_119\n      jumpi\n        /* \"#utility.yul\":4340:4358   */\n      tag_120\n      tag_55\n      jump\t// in\n    tag_120:\n        /* \"#utility.yul\":4320:4360   */\n    tag_119:\n        /* \"#utility.yul\":4373:4378   */\n      jump(tag_108)\n        /* \"#utility.yul\":4142:4388   */\n    tag_118:\n        /* \"#utility.yul\":4413:4455   */\n      tag_121\n        /* \"#utility.yul\":4451:4454   */\n      dup5\n        /* \"#utility.yul\":4441:4449   */\n      dup5\n        /* \"#utility.yul\":4435:4439   */\n      dup5\n        /* \"#utility.yul\":4432:4433   */\n      0x01\n        /* \"#utility.yul\":4413:4455   */\n      tag_57\n      jump\t// in\n    tag_121:\n        /* \"#utility.yul\":4398:4455   */\n      swap3\n      pop\n      swap1\n      pop\n        /* \"#utility.yul\":4487:4491   */\n      dup2\n        /* \"#utility.yul\":4482:4485   */\n      dup5\n        /* \"#utility.yul\":4478:4492   */\n      div\n        /* \"#utility.yul\":4471:4476   */\n      dup2\n        /* \"#utility.yul\":4468:4493   */\n      gt\n        /* \"#utility.yul\":4465:4516   */\n      iszero\n      tag_122\n      jumpi\n        /* \"#utility.yul\":4496:4514   */\n      tag_123\n      tag_55\n      jump\t// in\n    tag_123:\n        /* \"#utility.yul\":4465:4516   */\n    tag_122:\n        /* \"#utility.yul\":4545:4549   */\n      dup2\n        /* \"#utility.yul\":4538:4543   */\n      dup2\n        /* \"#utility.yul\":4534:4550   */\n      mul\n        /* \"#utility.yul\":4525:4550   */\n      swap1\n      pop\n        /* \"#utility.yul\":3483:4556   */\n    tag_108:\n      swap4\n      swap3\n      pop\n      pop\n      pop\n      jump\t// out\n        /* \"#utility.yul\":4562:4847   */\n    tag_41:\n        /* \"#utility.yul\":4622:4627   */\n      0x00\n        /* \"#utility.yul\":4646:4669   */\n      tag_125\n        /* \"#utility.yul\":4664:4668   */\n      dup3\n        /* \"#utility.yul\":4646:4669   */\n      tag_51\n      jump\t// in\n    tag_125:\n        /* \"#utility.yul\":4638:4669   */\n      swap2\n      pop\n        /* \"#utility.yul\":4690:4717   */\n      tag_126\n        /* \"#utility.yul\":4708:4716   */\n      dup4\n        /* \"#utility.yul\":4690:4717   */\n      tag_51\n      jump\t// in\n    tag_126:\n        /* \"#utility.yul\":4678:4717   */\n      swap3\n      pop\n        /* \"#utility.yul\":4736:4840   */\n      tag_127\n        /* \"#utility.yul\":4773:4839   */\n      0xffffffffffffffffffffffffffffffffffffffffffffffffffffffffffffffff\n        /* \"#utility.yul\":4763:4771   */\n      dup5\n        /* \"#utility.yul\":4757:4761   */\n      dup5\n        /* \"#utility.yul\":4736:4840   */\n      tag_58\n      jump\t// in\n    tag_127:\n        /* \"#utility.yul\":4727:4840   */\n      swap1\n      pop\n        /* \"#utility.yul\":4562:4847   */\n      swap3\n      swap2\n      pop\n      pop\n      jump\t// out\n        /* \"#utility.yul\":4853:5022   */\n    tag_59:\n        /* \"#utility.yul\":4937:4948   */\n      0x00\n        /* \"#utility.yul\":4971:4977   */\n      dup3\n        /* \"#utility.yul\":4966:4969   */\n      dup3\n        /* \"#utility.yul\":4959:4978   */\n      mstore\n        /* \"#utility.yul\":5011:5015   */\n      0x20\n        /* \"#utility.yul\":5006:5009   */\n      dup3\n        /* \"#utility.yul\":5002:5016   */\n      add\n        /* \"#utility.yul\":4987:5016   */\n      swap1\n      pop\n        /* \"#utility.yul\":4853:5022   */\n      swap3\n      swap2\n      pop\n      pop\n      jump\t// out\n        /* \"#utility.yul\":5028:5194   */\n    tag_60:\n        /* \"#utility.yul\":5168:5186   */\n      0x4469766973696f6e206279207a65726f00000000000000000000000000000000\n        /* \"#utility.yul\":5164:5165   */\n      0x00\n        /* \"#utility.yul\":5156:5162   */\n      dup3\n        /* \"#utility.yul\":5152:5166   */\n      add\n        /* \"#utility.yul\":5145:5187   */\n      mstore\n        /* \"#utility.yul\":5028:5194   */\n      pop\n      jump\t// out\n        /* \"#utility.yul\":5200:5566   */\n    tag_61:\n        /* \"#utility.yul\":5342:5345   */\n      0x00\n        /* \"#utility.yul\":5363:5430   */\n      tag_131\n        /* \"#utility.yul\":5427:5429   */\n      0x10\n        /* \"#utility.yul\":5422:5425   */\n      dup4\n        /* \"#utility.yul\":5363:5430   */\n      tag_59\n      jump\t// in\n    tag_131:\n        /* \"#utility.yul\":5356:5430   */\n      swap2\n      pop\n        /* \"#utility.yul\":5439:5532   */\n      tag_132\n        /* \"#utility.yul\":5528:5531   */\n      dup3\n        /* \"#utility.yul\":5439:5532   */\n      tag_60\n      jump\t// in\n    tag_132:\n        /* \"#utility.yul\":5557:5559   */\n      0x20\n        /* \"#utility.yul\":5552:5555   */\n      dup3\n        /* \"#utility.yul\":5548:5560   */\n      add\n        /* \"#utility.yul\":5541:5560   */\n      swap1\n      pop\n        /* \"#utility.yul\":5200:5566   */\n      swap2\n      swap1\n      pop\n      jump\t// out\n        /* \"#utility.yul\":5572:5991   */\n    tag_45:\n        /* \"#utility.yul\":5738:5742   */\n      0x00\n        /* \"#utility.yul\":5776:5778   */\n      0x20\n        /* \"#utility.yul\":5765:5774   */\n      dup3\n        /* \"#utility.yul\":5761:5779   */\n      add\n        /* \"#utility.yul\":5753:5779   */\n      swap1\n      pop\n        /* \"#utility.yul\":5825:5834   */\n      dup2\n        /* \"#utility.yul\":5819:5823   */\n      dup2\n        /* \"#utility.yul\":5815:5835   */\n      sub\n        /* \"#utility.yul\":5811:5812   */\n      0x00\n        /* \"#utility.yul\":5800:5809   */\n      dup4\n        /* \"#utility.yul\":5796:5813   */\n      add\n        /* \"#utility.yul\":5789:5836   */\n      mstore\n        /* \"#utility.yul\":5853:5984   */\n      tag_134\n        /* \"#utility.yul\":5979:5983   */\n      dup2\n        /* \"#utility.yul\":5853:5984   */\n      tag_61\n      jump\t// in\n    tag_134:\n        /* \"#utility.yul\":5845:5984   */\n      swap1\n      pop\n        /* \"#utility.yul\":5572:5991   */\n      swap2\n      swap1\n      pop\n      jump\t// out\n        /* \"#utility.yul\":5997:6177   */\n    tag_62:\n        /* \"#utility.yul\":6045:6122   */\n      0x4e487b7100000000000000000000000000000000000000000000000000000000\n        /* \"#utility.yul\":6042:6043   */\n      0x00\n        /* \"#utility.yul\":6035:6123   */\n      mstore\n        /* \"#utility.yul\":6142:6146   */\n      0x12\n        /* \"#utility.yul\":6139:6140   */\n      0x04\n        /* \"#utility.yul\":6132:6147   */\n      mstore\n        /* \"#utility.yul\":6166:6170   */\n      0x24\n        /* \"#utility.yul\":6163:6164   */\n      0x00\n        /* \"#utility.yul\":6156:6171   */\n      revert\n        /* \"#utility.yul\":6183:6368   */\n    tag_47:\n        /* \"#utility.yul\":6223:6224   */\n      0x00\n        /* \"#utility.yul\":6240:6260   */\n      tag_137\n        /* \"#utility.yul\":6258:6259   */\n      dup3\n        /* \"#utility.yul\":6240:6260   */\n      tag_51\n      jump\t// in\n    tag_137:\n        /* \"#utility.yul\":6235:6260   */\n      swap2\n      pop\n        /* \"#utility.yul\":6274:6294   */\n      tag_138\n        /* \"#utility.yul\":6292:6293   */\n      dup4\n        /* \"#utility.yul\":6274:6294   */\n      tag_51\n      jump\t// in\n    tag_138:\n        /* \"#utility.yul\":6269:6294   */\n      swap3\n      pop\n        /* \"#utility.yul\":6313:6314   */\n      dup3\n        /* \"#utility.yul\":6303:6338   */\n      tag_139\n      jumpi\n        /* \"#utility.yul\":6318:6336   */\n      tag_140\n      tag_62\n      jump\t// in\n    tag_140:\n        /* \"#utility.yul\":6303:6338   */\n    tag_139:\n        /* \"#utility.yul\":6360:6361   */\n      dup3\n        /* \"#utility.yul\":6357:6358   */\n      dup3\n        /* \"#utility.yul\":6353:6362   */\n      div\n        /* \"#utility.yul\":6348:6362   */\n      swap1\n      pop\n        /* \"#utility.yul\":6183:6368   */\n      swap3\n      swap2\n      pop\n      pop\n      jump\t// out\n\n    auxdata: 0xa2646970667358221220af75fbb1d76adfc780a4ef068acdb67318e0a941c23e1d00698c7c07e04b28a464736f6c634300081a0033\n}\n",
				"bytecode": {
					"linkReferences": {},
					"object": "6080604052348015600e575f80fd5b506105e98061001c5f395ff3fe608060405234801561000f575f80fd5b5060043610610055575f3560e01c8063165c4a16146100595780633ef5e44514610089578063771602f7146100b9578063c04f01fc146100e9578063f88e9fbf14610119575b5f80fd5b610073600480360381019061006e919061022b565b610149565b6040516100809190610278565b60405180910390f35b6100a3600480360381019061009e919061022b565b61015e565b6040516100b09190610278565b60405180910390f35b6100d360048036038101906100ce919061022b565b610173565b6040516100e09190610278565b60405180910390f35b61010360048036038101906100fe919061022b565b610188565b6040516101109190610278565b60405180910390f35b610133600480360381019061012e919061022b565b61019d565b6040516101409190610278565b60405180910390f35b5f818361015691906102be565b905092915050565b5f818361016b91906102ff565b905092915050565b5f81836101809190610332565b905092915050565b5f81836101959190610494565b905092915050565b5f8082036101e0576040517f08c379a00000000000000000000000000000000000000000000000000000000081526004016101d790610538565b60405180910390fd5b81836101ec9190610583565b905092915050565b5f80fd5b5f819050919050565b61020a816101f8565b8114610214575f80fd5b50565b5f8135905061022581610201565b92915050565b5f8060408385031215610241576102406101f4565b5b5f61024e85828601610217565b925050602061025f85828601610217565b9150509250929050565b610272816101f8565b82525050565b5f60208201905061028b5f830184610269565b92915050565b7f4e487b71000000000000000000000000000000000000000000000000000000005f52601160045260245ffd5b5f6102c8826101f8565b91506102d3836101f8565b92508282026102e1816101f8565b915082820484148315176102f8576102f7610291565b5b5092915050565b5f610309826101f8565b9150610314836101f8565b925082820390508181111561032c5761032b610291565b5b92915050565b5f61033c826101f8565b9150610347836101f8565b925082820190508082111561035f5761035e610291565b5b92915050565b5f8160011c9050919050565b5f808291508390505b60018511156103ba5780860481111561039657610395610291565b5b60018516156103a55780820291505b80810290506103b385610365565b945061037a565b94509492505050565b5f826103d2576001905061048d565b816103df575f905061048d565b81600181146103f557600281146103ff5761042e565b600191505061048d565b60ff84111561041157610410610291565b5b8360020a91508482111561042857610427610291565b5b5061048d565b5060208310610133831016604e8410600b84101617156104635782820a90508381111561045e5761045d610291565b5b61048d565b6104708484846001610371565b9250905081840481111561048757610486610291565b5b81810290505b9392505050565b5f61049e826101f8565b91506104a9836101f8565b92506104d67fffffffffffffffffffffffffffffffffffffffffffffffffffffffffffffffff84846103c3565b905092915050565b5f82825260208201905092915050565b7f4469766973696f6e206279207a65726f000000000000000000000000000000005f82015250565b5f6105226010836104de565b915061052d826104ee565b602082019050919050565b5f6020820190508181035f83015261054f81610516565b9050919050565b7f4e487b71000000000000000000000000000000000000000000000000000000005f52601260045260245ffd5b5f61058d826101f8565b9150610598836101f8565b9250826105a8576105a7610556565b5b82820490509291505056fea2646970667358221220af75fbb1d76adfc780a4ef068acdb67318e0a941c23e1d00698c7c07e04b28a464736f6c634300081a0033",
					"opcodes": "PUSH1 0x80 PUSH1 0x40 MSTORE CALLVALUE DUP1 ISZERO PUSH1 0xE JUMPI PUSH0 DUP1 REVERT JUMPDEST POP PUSH2 0x5E9 DUP1 PUSH2 0x1C PUSH0 CODECOPY PUSH0 RETURN INVALID PUSH1 0x80 PUSH1 0x40 MSTORE CALLVALUE DUP1 ISZERO PUSH2 0xF JUMPI PUSH0 DUP1 REVERT JUMPDEST POP PUSH1 0x4 CALLDATASIZE LT PUSH2 0x55 JUMPI PUSH0 CALLDATALOAD PUSH1 0xE0 SHR DUP1 PUSH4 0x165C4A16 EQ PUSH2 0x59 JUMPI DUP1 PUSH4 0x3EF5E445 EQ PUSH2 0x89 JUMPI DUP1 PUSH4 0x771602F7 EQ PUSH2 0xB9 JUMPI DUP1 PUSH4 0xC04F01FC EQ PUSH2 0xE9 JUMPI DUP1 PUSH4 0xF88E9FBF EQ PUSH2 0x119 JUMPI JUMPDEST PUSH0 DUP1 REVERT JUMPDEST PUSH2 0x73 PUSH1 0x4 DUP1 CALLDATASIZE SUB DUP2 ADD SWAP1 PUSH2 0x6E SWAP2 SWAP1 PUSH2 0x22B JUMP JUMPDEST PUSH2 0x149 JUMP JUMPDEST PUSH1 0x40 MLOAD PUSH2 0x80 SWAP2 SWAP1 PUSH2 0x278 JUMP JUMPDEST PUSH1 0x40 MLOAD DUP1 SWAP2 SUB SWAP1 RETURN JUMPDEST PUSH2 0xA3 PUSH1 0x4 DUP1 CALLDATASIZE SUB DUP2 ADD SWAP1 PUSH2 0x9E SWAP2 SWAP1 PUSH2 0x22B JUMP JUMPDEST PUSH2 0x15E JUMP JUMPDEST PUSH1 0x40 MLOAD PUSH2 0xB0 SWAP2 SWAP1 PUSH2 0x278 JUMP JUMPDEST PUSH1 0x40 MLOAD DUP1 SWAP2 SUB SWAP1 RETURN JUMPDEST PUSH2 0xD3 PUSH1 0x4 DUP1 CALLDATASIZE SUB DUP2 ADD SWAP1 PUSH2 0xCE SWAP2 SWAP1 PUSH2 0x22B JUMP JUMPDEST PUSH2 0x173 JUMP JUMPDEST PUSH1 0x40 MLOAD PUSH2 0xE0 SWAP2 SWAP1 PUSH2 0x278 JUMP JUMPDEST PUSH1 0x40 MLOAD DUP1 SWAP2 SUB SWAP1 RETURN JUMPDEST PUSH2 0x103 PUSH1 0x4 DUP1 CALLDATASIZE SUB DUP2 ADD SWAP1 PUSH2 0xFE SWAP2 SWAP1 PUSH2 0x22B JUMP JUMPDEST PUSH2 0x188 JUMP JUMPDEST PUSH1 0x40 MLOAD PUSH2 0x110 SWAP2 SWAP1 PUSH2 0x278 JUMP JUMPDEST PUSH1 0x40 MLOAD DUP1 SWAP2 SUB SWAP1 RETURN JUMPDEST PUSH2 0x133 PUSH1 0x4 DUP1 CALLDATASIZE SUB DUP2 ADD SWAP1 PUSH2 0x12E SWAP2 SWAP1 PUSH2 0x22B JUMP JUMPDEST PUSH2 0x19D JUMP JUMPDEST PUSH1 0x40 MLOAD PUSH2 0x140 SWAP2 SWAP1 PUSH2 0x278 JUMP JUMPDEST PUSH1 0x40 MLOAD DUP1 SWAP2 SUB SWAP1 RETURN JUMPDEST PUSH0 DUP2 DUP4 PUSH2 0x156 SWAP2 SWAP1 PUSH2 0x2BE JUMP JUMPDEST SWAP1 POP SWAP3 SWAP2 POP POP JUMP JUMPDEST PUSH0 DUP2 DUP4 PUSH2 0x16B SWAP2 SWAP1 PUSH2 0x2FF JUMP JUMPDEST SWAP1 POP SWAP3 SWAP2 POP POP JUMP JUMPDEST PUSH0 DUP2 DUP4 PUSH2 0x180 SWAP2 SWAP1 PUSH2 0x332 JUMP JUMPDEST SWAP1 POP SWAP3 SWAP2 POP POP JUMP JUMPDEST PUSH0 DUP2 DUP4 PUSH2 0x195 SWAP2 SWAP1 PUSH2 0x494 JUMP JUMPDEST SWAP1 POP SWAP3 SWAP2 POP POP JUMP JUMPDEST PUSH0 DUP1 DUP3 SUB PUSH2 0x1E0 JUMPI PUSH1 0x40 MLOAD PUSH32 0x8C379A000000000000000000000000000000000000000000000000000000000 DUP2 MSTORE PUSH1 0x4 ADD PUSH2 0x1D7 SWAP1 PUSH2 0x538 JUMP JUMPDEST PUSH1 0x40 MLOAD DUP1 SWAP2 SUB SWAP1 REVERT JUMPDEST DUP2 DUP4 PUSH2 0x1EC SWAP2 SWAP1 PUSH2 0x583 JUMP JUMPDEST SWAP1 POP SWAP3 SWAP2 POP POP JUMP JUMPDEST PUSH0 DUP1 REVERT JUMPDEST PUSH0 DUP2 SWAP1 POP SWAP2 SWAP1 POP JUMP JUMPDEST PUSH2 0x20A DUP2 PUSH2 0x1F8 JUMP JUMPDEST DUP2 EQ PUSH2 0x214 JUMPI PUSH0 DUP1 REVERT JUMPDEST POP JUMP JUMPDEST PUSH0 DUP2 CALLDATALOAD SWAP1 POP PUSH2 0x225 DUP2 PUSH2 0x201 JUMP JUMPDEST SWAP3 SWAP2 POP POP JUMP JUMPDEST PUSH0 DUP1 PUSH1 0x40 DUP4 DUP6 SUB SLT ISZERO PUSH2 0x241 JUMPI PUSH2 0x240 PUSH2 0x1F4 JUMP JUMPDEST JUMPDEST PUSH0 PUSH2 0x24E DUP6 DUP3 DUP7 ADD PUSH2 0x217 JUMP JUMPDEST SWAP3 POP POP PUSH1 0x20 PUSH2 0x25F DUP6 DUP3 DUP7 ADD PUSH2 0x217 JUMP JUMPDEST SWAP2 POP POP SWAP3 POP SWAP3 SWAP1 POP JUMP JUMPDEST PUSH2 0x272 DUP2 PUSH2 0x1F8 JUMP JUMPDEST DUP3 MSTORE POP POP JUMP JUMPDEST PUSH0 PUSH1 0x20 DUP3 ADD SWAP1 POP PUSH2 0x28B PUSH0 DUP4 ADD DUP5 PUSH2 0x269 JUMP JUMPDEST SWAP3 SWAP2 POP POP JUMP JUMPDEST PUSH32 0x4E487B7100000000000000000000000000000000000000000000000000000000 PUSH0 MSTORE PUSH1 0x11 PUSH1 0x4 MSTORE PUSH1 0x24 PUSH0 REVERT JUMPDEST PUSH0 PUSH2 0x2C8 DUP3 PUSH2 0x1F8 JUMP JUMPDEST SWAP2 POP PUSH2 0x2D3 DUP4 PUSH2 0x1F8 JUMP JUMPDEST SWAP3 POP DUP3 DUP3 MUL PUSH2 0x2E1 DUP2 PUSH2 0x1F8 JUMP JUMPDEST SWAP2 POP DUP3 DUP3 DIV DUP5 EQ DUP4 ISZERO OR PUSH2 0x2F8 JUMPI PUSH2 0x2F7 PUSH2 0x291 JUMP JUMPDEST JUMPDEST POP SWAP3 SWAP2 POP POP JUMP JUMPDEST PUSH0 PUSH2 0x309 DUP3 PUSH2 0x1F8 JUMP JUMPDEST SWAP2 POP PUSH2 0x314 DUP4 PUSH2 0x1F8 JUMP JUMPDEST SWAP3 POP DUP3 DUP3 SUB SWAP1 POP DUP2 DUP2 GT ISZERO PUSH2 0x32C JUMPI PUSH2 0x32B PUSH2 0x291 JUMP JUMPDEST JUMPDEST SWAP3 SWAP2 POP POP JUMP JUMPDEST PUSH0 PUSH2 0x33C DUP3 PUSH2 0x1F8 JUMP JUMPDEST SWAP2 POP PUSH2 0x347 DUP4 PUSH2 0x1F8 JUMP JUMPDEST SWAP3 POP DUP3 DUP3 ADD SWAP1 POP DUP1 DUP3 GT ISZERO PUSH2 0x35F JUMPI PUSH2 0x35E PUSH2 0x291 JUMP JUMPDEST JUMPDEST SWAP3 SWAP2 POP POP JUMP JUMPDEST PUSH0 DUP2 PUSH1 0x1 SHR SWAP1 POP SWAP2 SWAP1 POP JUMP JUMPDEST PUSH0 DUP1 DUP3 SWAP2 POP DUP4 SWAP1 POP JUMPDEST PUSH1 0x1 DUP6 GT ISZERO PUSH2 0x3BA JUMPI DUP1 DUP7 DIV DUP2 GT ISZERO PUSH2 0x396 JUMPI PUSH2 0x395 PUSH2 0x291 JUMP JUMPDEST JUMPDEST PUSH1 0x1 DUP6 AND ISZERO PUSH2 0x3A5 JUMPI DUP1 DUP3 MUL SWAP2 POP JUMPDEST DUP1 DUP2 MUL SWAP1 POP PUSH2 0x3B3 DUP6 PUSH2 0x365 JUMP JUMPDEST SWAP5 POP PUSH2 0x37A JUMP JUMPDEST SWAP5 POP SWAP5 SWAP3 POP POP POP JUMP JUMPDEST PUSH0 DUP3 PUSH2 0x3D2 JUMPI PUSH1 0x1 SWAP1 POP PUSH2 0x48D JUMP JUMPDEST DUP2 PUSH2 0x3DF JUMPI PUSH0 SWAP1 POP PUSH2 0x48D JUMP JUMPDEST DUP2 PUSH1 0x1 DUP2 EQ PUSH2 0x3F5 JUMPI PUSH1 0x2 DUP2 EQ PUSH2 0x3FF JUMPI PUSH2 0x42E JUMP JUMPDEST PUSH1 0x1 SWAP2 POP POP PUSH2 0x48D JUMP JUMPDEST PUSH1 0xFF DUP5 GT ISZERO PUSH2 0x411 JUMPI PUSH2 0x410 PUSH2 0x291 JUMP JUMPDEST JUMPDEST DUP4 PUSH1 0x2 EXP SWAP2 POP DUP5 DUP3 GT ISZERO PUSH2 0x428 JUMPI PUSH2 0x427 PUSH2 0x291 JUMP JUMPDEST JUMPDEST POP PUSH2 0x48D JUMP JUMPDEST POP PUSH1 0x20 DUP4 LT PUSH2 0x133 DUP4 LT AND PUSH1 0x4E DUP5 LT PUSH1 0xB DUP5 LT AND OR ISZERO PUSH2 0x463 JUMPI DUP3 DUP3 EXP SWAP1 POP DUP4 DUP2 GT ISZERO PUSH2 0x45E JUMPI PUSH2 0x45D PUSH2 0x291 JUMP JUMPDEST JUMPDEST PUSH2 0x48D JUMP JUMPDEST PUSH2 0x470 DUP5 DUP5 DUP5 PUSH1 0x1 PUSH2 0x371 JUMP JUMPDEST SWAP3 POP SWAP1 POP DUP2 DUP5 DIV DUP2 GT ISZERO PUSH2 0x487 JUMPI PUSH2 0x486 PUSH2 0x291 JUMP JUMPDEST JUMPDEST DUP2 DUP2 MUL SWAP1 POP JUMPDEST SWAP4 SWAP3 POP POP POP JUMP JUMPDEST PUSH0 PUSH2 0x49E DUP3 PUSH2 0x1F8 JUMP JUMPDEST SWAP2 POP PUSH2 0x4A9 DUP4 PUSH2 0x1F8 JUMP JUMPDEST SWAP3 POP PUSH2 0x4D6 PUSH32 0xFFFFFFFFFFFFFFFFFFFFFFFFFFFFFFFFFFFFFFFFFFFFFFFFFFFFFFFFFFFFFFFF DUP5 DUP5 PUSH2 0x3C3 JUMP JUMPDEST SWAP1 POP SWAP3 SWAP2 POP POP JUMP JUMPDEST PUSH0 DUP3 DUP3 MSTORE PUSH1 0x20 DUP3 ADD SWAP1 POP SWAP3 SWAP2 POP POP JUMP JUMPDEST PUSH32 0x4469766973696F6E206279207A65726F00000000000000000000000000000000 PUSH0 DUP3 ADD MSTORE POP JUMP JUMPDEST PUSH0 PUSH2 0x522 PUSH1 0x10 DUP4 PUSH2 0x4DE JUMP JUMPDEST SWAP2 POP PUSH2 0x52D DUP3 PUSH2 0x4EE JUMP JUMPDEST PUSH1 0x20 DUP3 ADD SWAP1 POP SWAP2 SWAP1 POP JUMP JUMPDEST PUSH0 PUSH1 0x20 DUP3 ADD SWAP1 POP DUP2 DUP2 SUB PUSH0 DUP4 ADD MSTORE PUSH2 0x54F DUP2 PUSH2 0x516 JUMP JUMPDEST SWAP1 POP SWAP2 SWAP1 POP JUMP JUMPDEST PUSH32 0x4E487B7100000000000000000000000000000000000000000000000000000000 PUSH0 MSTORE PUSH1 0x12 PUSH1 0x4 MSTORE PUSH1 0x24 PUSH0 REVERT JUMPDEST PUSH0 PUSH2 0x58D DUP3 PUSH2 0x1F8 JUMP JUMPDEST SWAP2 POP PUSH2 0x598 DUP4 PUSH2 0x1F8 JUMP JUMPDEST SWAP3 POP DUP3 PUSH2 0x5A8 JUMPI PUSH2 0x5A7 PUSH2 0x556 JUMP JUMPDEST JUMPDEST DUP3 DUP3 DIV SWAP1 POP SWAP3 SWAP2 POP POP JUMP INVALID LOG2 PUSH5 0x6970667358 0x22 SLT KECCAK256 0xAF PUSH22 0xFBB1D76ADFC780A4EF068ACDB67318E0A941C23E1D00 PUSH10 0x8C7C07E04B28A464736F PUSH13 0x634300081A0033000000000000 "
				},
				"gasEstimates": {
					"creation": {
						"codeDepositCost": "302600",
						"executionCost": "341",
						"totalCost": "302941"
					},
					"external": {
						"add(uint256,uint256)": "infinite",
						"divide(uint256,uint256)": "infinite",
						"multiply(uint256,uint256)": "infinite",
						"power(uint256,uint256)": "infinite",
						"subtract(uint256,uint256)": "infinite"
					}
				},
				"methodIdentifiers": {
					"add(uint256,uint256)": "771602f7",
					"divide(uint256,uint256)": "f88e9fbf",
					"multiply(uint256,uint256)": "165c4a16",
					"power(uint256,uint256)": "c04f01fc",
					"subtract(uint256,uint256)": "3ef5e445"
				}
			},
			"storageLayout": {
				"storage": [],
				"types": null
			},
			"userdoc": {
				"kind": "user",
				"methods": {},
				"version": 1
			}
		}
	}
}