{
	"Solidity100/Solidity51-60.sol": {
		"Question51": {
			"abi": [
				{
					"inputs": [],
					"name": "getNumbers",
					"outputs": [
						{
							"internalType": "uint256[]",
							"name": "",
							"type": "uint256[]"
						}
					],
					"stateMutability": "view",
					"type": "function"
				},
				{
					"inputs": [
						{
							"internalType": "uint256",
							"name": "",
							"type": "uint256"
						}
					],
					"name": "numbers",
					"outputs": [
						{
							"internalType": "uint256",
							"name": "",
							"type": "uint256"
						}
					],
					"stateMutability": "view",
					"type": "function"
				},
				{
					"inputs": [
						{
							"internalType": "uint256",
							"name": "_num",
							"type": "uint256"
						}
					],
					"name": "pushNumber",
					"outputs": [],
					"stateMutability": "nonpayable",
					"type": "function"
				},
				{
					"inputs": [],
					"name": "third",
					"outputs": [
						{
							"internalType": "uint256",
							"name": "",
							"type": "uint256"
						}
					],
					"stateMutability": "view",
					"type": "function"
				}
			],
			"devdoc": {
				"kind": "dev",
				"methods": {},
				"version": 1
			},
			"evm": {
				"assembly": "    /* \"Solidity100/Solidity51-60.sol\":58:796  contract Question51{... */\n  mstore(0x40, 0x80)\n  callvalue\n  dup1\n  iszero\n  tag_1\n  jumpi\n  0x00\n  dup1\n  revert\ntag_1:\n  pop\n  dataSize(sub_0)\n  dup1\n  dataOffset(sub_0)\n  0x00\n  codecopy\n  0x00\n  return\nstop\n\nsub_0: assembly {\n        /* \"Solidity100/Solidity51-60.sol\":58:796  contract Question51{... */\n      mstore(0x40, 0x80)\n      callvalue\n      dup1\n      iszero\n      tag_1\n      jumpi\n      0x00\n      dup1\n      revert\n    tag_1:\n      pop\n      jumpi(tag_2, lt(calldatasize, 0x04))\n      shr(0xe0, calldataload(0x00))\n      dup1\n      0x2bfe1805\n      eq\n      tag_3\n      jumpi\n      dup1\n      0x89f915f6\n      eq\n      tag_4\n      jumpi\n      dup1\n      0xa6dc6771\n      eq\n      tag_5\n      jumpi\n      dup1\n      0xd39fa233\n      eq\n      tag_6\n      jumpi\n    tag_2:\n      0x00\n      dup1\n      revert\n        /* \"Solidity100/Solidity51-60.sol\":231:304  function pushNumber(uint _num) public {... */\n    tag_3:\n      tag_7\n      0x04\n      dup1\n      calldatasize\n      sub\n      dup2\n      add\n      swap1\n      tag_8\n      swap2\n      swap1\n      tag_9\n      jump\t// in\n    tag_8:\n      tag_10\n      jump\t// in\n    tag_7:\n      stop\n        /* \"Solidity100/Solidity51-60.sol\":314:402  function getNumbers() public view returns(uint[] memory) {... */\n    tag_4:\n      tag_11\n      tag_12\n      jump\t// in\n    tag_11:\n      mload(0x40)\n      tag_13\n      swap2\n      swap1\n      tag_14\n      jump\t// in\n    tag_13:\n      mload(0x40)\n      dup1\n      swap2\n      sub\n      swap1\n      return\n        /* \"Solidity100/Solidity51-60.sol\":409:794  function third() public view returns (uint) {... */\n    tag_5:\n      tag_15\n      tag_16\n      jump\t// in\n    tag_15:\n      mload(0x40)\n      tag_17\n      swap2\n      swap1\n      tag_18\n      jump\t// in\n    tag_17:\n      mload(0x40)\n      dup1\n      swap2\n      sub\n      swap1\n      return\n        /* \"Solidity100/Solidity51-60.sol\":203:224  uint[] public numbers */\n    tag_6:\n      tag_19\n      0x04\n      dup1\n      calldatasize\n      sub\n      dup2\n      add\n      swap1\n      tag_20\n      swap2\n      swap1\n      tag_9\n      jump\t// in\n    tag_20:\n      tag_21\n      jump\t// in\n    tag_19:\n      mload(0x40)\n      tag_22\n      swap2\n      swap1\n      tag_18\n      jump\t// in\n    tag_22:\n      mload(0x40)\n      dup1\n      swap2\n      sub\n      swap1\n      return\n        /* \"Solidity100/Solidity51-60.sol\":231:304  function pushNumber(uint _num) public {... */\n    tag_10:\n        /* \"Solidity100/Solidity51-60.sol\":279:286  numbers */\n      0x00\n        /* \"Solidity100/Solidity51-60.sol\":292:296  _num */\n      dup2\n        /* \"Solidity100/Solidity51-60.sol\":279:297  numbers.push(_num) */\n      swap1\n      dup1\n      0x01\n      dup2\n      sload\n      add\n      dup1\n      dup3\n      sstore\n      dup1\n      swap2\n      pop\n      pop\n      0x01\n      swap1\n      sub\n      swap1\n      0x00\n      mstore\n      keccak256(0x00, 0x20)\n      add\n      0x00\n      swap1\n      swap2\n      swap1\n      swap2\n      swap1\n      swap2\n      pop\n      sstore\n        /* \"Solidity100/Solidity51-60.sol\":231:304  function pushNumber(uint _num) public {... */\n      pop\n      jump\t// out\n        /* \"Solidity100/Solidity51-60.sol\":314:402  function getNumbers() public view returns(uint[] memory) {... */\n    tag_12:\n        /* \"Solidity100/Solidity51-60.sol\":356:369  uint[] memory */\n      0x60\n        /* \"Solidity100/Solidity51-60.sol\":388:395  numbers */\n      0x00\n        /* \"Solidity100/Solidity51-60.sol\":381:395  return numbers */\n      dup1\n      sload\n      dup1\n      0x20\n      mul\n      0x20\n      add\n      mload(0x40)\n      swap1\n      dup2\n      add\n      0x40\n      mstore\n      dup1\n      swap3\n      swap2\n      swap1\n      dup2\n      dup2\n      mstore\n      0x20\n      add\n      dup3\n      dup1\n      sload\n      dup1\n      iszero\n      tag_26\n      jumpi\n      0x20\n      mul\n      dup3\n      add\n      swap2\n      swap1\n      0x00\n      mstore\n      keccak256(0x00, 0x20)\n      swap1\n    tag_27:\n      dup2\n      sload\n      dup2\n      mstore\n      0x20\n      add\n      swap1\n      0x01\n      add\n      swap1\n      dup1\n      dup4\n      gt\n      tag_27\n      jumpi\n    tag_26:\n      pop\n      pop\n      pop\n      pop\n      pop\n      swap1\n      pop\n        /* \"Solidity100/Solidity51-60.sol\":314:402  function getNumbers() public view returns(uint[] memory) {... */\n      swap1\n      jump\t// out\n        /* \"Solidity100/Solidity51-60.sol\":409:794  function third() public view returns (uint) {... */\n    tag_16:\n        /* \"Solidity100/Solidity51-60.sol\":447:451  uint */\n      0x00\n        /* \"Solidity100/Solidity51-60.sol\":488:489  3 */\n      0x03\n        /* \"Solidity100/Solidity51-60.sol\":471:478  numbers */\n      0x00\n        /* \"Solidity100/Solidity51-60.sol\":471:485  numbers.length */\n      dup1\n      sload\n      swap1\n      pop\n        /* \"Solidity100/Solidity51-60.sol\":471:489  numbers.length > 3 */\n      gt\n        /* \"Solidity100/Solidity51-60.sol\":463:503  require(numbers.length > 3, \"too short\") */\n      tag_29\n      jumpi\n      mload(0x40)\n      0x08c379a000000000000000000000000000000000000000000000000000000000\n      dup2\n      mstore\n      0x04\n      add\n      tag_30\n      swap1\n      tag_31\n      jump\t// in\n    tag_30:\n      mload(0x40)\n      dup1\n      swap2\n      sub\n      swap1\n      revert\n    tag_29:\n        /* \"Solidity100/Solidity51-60.sol\":513:530  uint[] memory tmp */\n      0x00\n        /* \"Solidity100/Solidity51-60.sol\":533:540  numbers */\n      dup1\n        /* \"Solidity100/Solidity51-60.sol\":513:540  uint[] memory tmp = numbers */\n      dup1\n      sload\n      dup1\n      0x20\n      mul\n      0x20\n      add\n      mload(0x40)\n      swap1\n      dup2\n      add\n      0x40\n      mstore\n      dup1\n      swap3\n      swap2\n      swap1\n      dup2\n      dup2\n      mstore\n      0x20\n      add\n      dup3\n      dup1\n      sload\n      dup1\n      iszero\n      tag_32\n      jumpi\n      0x20\n      mul\n      dup3\n      add\n      swap2\n      swap1\n      0x00\n      mstore\n      keccak256(0x00, 0x20)\n      swap1\n    tag_33:\n      dup2\n      sload\n      dup2\n      mstore\n      0x20\n      add\n      swap1\n      0x01\n      add\n      swap1\n      dup1\n      dup4\n      gt\n      tag_33\n      jumpi\n    tag_32:\n      pop\n      pop\n      pop\n      pop\n      pop\n      swap1\n      pop\n        /* \"Solidity100/Solidity51-60.sol\":554:560  uint i */\n      0x00\n        /* \"Solidity100/Solidity51-60.sol\":550:765  for(uint i=0; i<tmp.length; i++) {... */\n    tag_34:\n        /* \"Solidity100/Solidity51-60.sol\":566:569  tmp */\n      dup2\n        /* \"Solidity100/Solidity51-60.sol\":566:576  tmp.length */\n      mload\n        /* \"Solidity100/Solidity51-60.sol\":564:565  i */\n      dup2\n        /* \"Solidity100/Solidity51-60.sol\":564:576  i<tmp.length */\n      lt\n        /* \"Solidity100/Solidity51-60.sol\":550:765  for(uint i=0; i<tmp.length; i++) {... */\n      iszero\n      tag_35\n      jumpi\n        /* \"Solidity100/Solidity51-60.sol\":601:607  uint j */\n      0x00\n        /* \"Solidity100/Solidity51-60.sol\":610:611  1 */\n      0x01\n        /* \"Solidity100/Solidity51-60.sol\":608:609  i */\n      dup3\n        /* \"Solidity100/Solidity51-60.sol\":608:611  i+1 */\n      tag_40\n      swap2\n      swap1\n      tag_41\n      jump\t// in\n    tag_40:\n        /* \"Solidity100/Solidity51-60.sol\":601:611  uint j=i+1 */\n      swap1\n      pop\n        /* \"Solidity100/Solidity51-60.sol\":597:755  for(uint j=i+1; j<tmp.length;j++) {... */\n    tag_37:\n        /* \"Solidity100/Solidity51-60.sol\":615:618  tmp */\n      dup3\n        /* \"Solidity100/Solidity51-60.sol\":615:625  tmp.length */\n      mload\n        /* \"Solidity100/Solidity51-60.sol\":613:614  j */\n      dup2\n        /* \"Solidity100/Solidity51-60.sol\":613:625  j<tmp.length */\n      lt\n        /* \"Solidity100/Solidity51-60.sol\":597:755  for(uint j=i+1; j<tmp.length;j++) {... */\n      iszero\n      tag_38\n      jumpi\n        /* \"Solidity100/Solidity51-60.sol\":661:664  tmp */\n      dup3\n        /* \"Solidity100/Solidity51-60.sol\":665:666  i */\n      dup3\n        /* \"Solidity100/Solidity51-60.sol\":661:667  tmp[i] */\n      dup2\n      mload\n      dup2\n      lt\n      tag_42\n      jumpi\n      tag_43\n      tag_44\n      jump\t// in\n    tag_43:\n    tag_42:\n      0x20\n      mul\n      0x20\n      add\n      add\n      mload\n        /* \"Solidity100/Solidity51-60.sol\":652:655  tmp */\n      dup4\n        /* \"Solidity100/Solidity51-60.sol\":656:657  j */\n      dup3\n        /* \"Solidity100/Solidity51-60.sol\":652:658  tmp[j] */\n      dup2\n      mload\n      dup2\n      lt\n      tag_45\n      jumpi\n      tag_46\n      tag_44\n      jump\t// in\n    tag_46:\n    tag_45:\n      0x20\n      mul\n      0x20\n      add\n      add\n      mload\n        /* \"Solidity100/Solidity51-60.sol\":652:667  tmp[j] > tmp[i] */\n      gt\n        /* \"Solidity100/Solidity51-60.sol\":649:741  if(tmp[j] > tmp[i]) {... */\n      iszero\n      tag_47\n      jumpi\n        /* \"Solidity100/Solidity51-60.sol\":707:710  tmp */\n      dup3\n        /* \"Solidity100/Solidity51-60.sol\":711:712  i */\n      dup3\n        /* \"Solidity100/Solidity51-60.sol\":707:713  tmp[i] */\n      dup2\n      mload\n      dup2\n      lt\n      tag_48\n      jumpi\n      tag_49\n      tag_44\n      jump\t// in\n    tag_49:\n    tag_48:\n      0x20\n      mul\n      0x20\n      add\n      add\n      mload\n        /* \"Solidity100/Solidity51-60.sol\":715:718  tmp */\n      dup4\n        /* \"Solidity100/Solidity51-60.sol\":719:720  j */\n      dup3\n        /* \"Solidity100/Solidity51-60.sol\":715:721  tmp[j] */\n      dup2\n      mload\n      dup2\n      lt\n      tag_50\n      jumpi\n      tag_51\n      tag_44\n      jump\t// in\n    tag_51:\n    tag_50:\n      0x20\n      mul\n      0x20\n      add\n      add\n      mload\n        /* \"Solidity100/Solidity51-60.sol\":688:691  tmp */\n      dup5\n        /* \"Solidity100/Solidity51-60.sol\":692:693  j */\n      dup4\n        /* \"Solidity100/Solidity51-60.sol\":688:694  tmp[j] */\n      dup2\n      mload\n      dup2\n      lt\n      tag_52\n      jumpi\n      tag_53\n      tag_44\n      jump\t// in\n    tag_53:\n    tag_52:\n      0x20\n      mul\n      0x20\n      add\n      add\n        /* \"Solidity100/Solidity51-60.sol\":696:699  tmp */\n      dup6\n        /* \"Solidity100/Solidity51-60.sol\":700:701  i */\n      dup6\n        /* \"Solidity100/Solidity51-60.sol\":696:702  tmp[i] */\n      dup2\n      mload\n      dup2\n      lt\n      tag_54\n      jumpi\n      tag_55\n      tag_44\n      jump\t// in\n    tag_55:\n    tag_54:\n      0x20\n      mul\n      0x20\n      add\n      add\n        /* \"Solidity100/Solidity51-60.sol\":687:722  (tmp[j], tmp[i]) = (tmp[i], tmp[j]) */\n      dup3\n      dup2\n      mstore\n      pop\n      dup3\n      dup2\n      mstore\n      pop\n      pop\n      pop\n        /* \"Solidity100/Solidity51-60.sol\":649:741  if(tmp[j] > tmp[i]) {... */\n    tag_47:\n        /* \"Solidity100/Solidity51-60.sol\":626:629  j++ */\n      dup1\n      dup1\n      0x01\n      add\n      swap2\n      pop\n      pop\n        /* \"Solidity100/Solidity51-60.sol\":597:755  for(uint j=i+1; j<tmp.length;j++) {... */\n      jump(tag_37)\n    tag_38:\n      pop\n        /* \"Solidity100/Solidity51-60.sol\":578:581  i++ */\n      dup1\n      dup1\n      0x01\n      add\n      swap2\n      pop\n      pop\n        /* \"Solidity100/Solidity51-60.sol\":550:765  for(uint i=0; i<tmp.length; i++) {... */\n      jump(tag_34)\n    tag_35:\n      pop\n        /* \"Solidity100/Solidity51-60.sol\":781:784  tmp */\n      dup1\n        /* \"Solidity100/Solidity51-60.sol\":785:786  2 */\n      0x02\n        /* \"Solidity100/Solidity51-60.sol\":781:787  tmp[2] */\n      dup2\n      mload\n      dup2\n      lt\n      tag_56\n      jumpi\n      tag_57\n      tag_44\n      jump\t// in\n    tag_57:\n    tag_56:\n      0x20\n      mul\n      0x20\n      add\n      add\n      mload\n        /* \"Solidity100/Solidity51-60.sol\":774:787  return tmp[2] */\n      swap2\n      pop\n      pop\n        /* \"Solidity100/Solidity51-60.sol\":409:794  function third() public view returns (uint) {... */\n      swap1\n      jump\t// out\n        /* \"Solidity100/Solidity51-60.sol\":203:224  uint[] public numbers */\n    tag_21:\n      0x00\n      dup2\n      dup2\n      sload\n      dup2\n      lt\n      tag_58\n      jumpi\n      0x00\n      dup1\n      revert\n    tag_58:\n      swap1\n      0x00\n      mstore\n      keccak256(0x00, 0x20)\n      add\n      0x00\n      swap2\n      pop\n      swap1\n      pop\n      sload\n      dup2\n      jump\t// out\n        /* \"#utility.yul\":88:205   */\n    tag_61:\n        /* \"#utility.yul\":197:198   */\n      0x00\n        /* \"#utility.yul\":194:195   */\n      dup1\n        /* \"#utility.yul\":187:199   */\n      revert\n        /* \"#utility.yul\":334:411   */\n    tag_63:\n        /* \"#utility.yul\":371:378   */\n      0x00\n        /* \"#utility.yul\":400:405   */\n      dup2\n        /* \"#utility.yul\":389:405   */\n      swap1\n      pop\n        /* \"#utility.yul\":334:411   */\n      swap2\n      swap1\n      pop\n      jump\t// out\n        /* \"#utility.yul\":417:539   */\n    tag_64:\n        /* \"#utility.yul\":490:514   */\n      tag_84\n        /* \"#utility.yul\":508:513   */\n      dup2\n        /* \"#utility.yul\":490:514   */\n      tag_63\n      jump\t// in\n    tag_84:\n        /* \"#utility.yul\":483:488   */\n      dup2\n        /* \"#utility.yul\":480:515   */\n      eq\n        /* \"#utility.yul\":470:533   */\n      tag_85\n      jumpi\n        /* \"#utility.yul\":529:530   */\n      0x00\n        /* \"#utility.yul\":526:527   */\n      dup1\n        /* \"#utility.yul\":519:531   */\n      revert\n        /* \"#utility.yul\":470:533   */\n    tag_85:\n        /* \"#utility.yul\":417:539   */\n      pop\n      jump\t// out\n        /* \"#utility.yul\":545:684   */\n    tag_65:\n        /* \"#utility.yul\":591:596   */\n      0x00\n        /* \"#utility.yul\":629:635   */\n      dup2\n        /* \"#utility.yul\":616:636   */\n      calldataload\n        /* \"#utility.yul\":607:636   */\n      swap1\n      pop\n        /* \"#utility.yul\":645:678   */\n      tag_87\n        /* \"#utility.yul\":672:677   */\n      dup2\n        /* \"#utility.yul\":645:678   */\n      tag_64\n      jump\t// in\n    tag_87:\n        /* \"#utility.yul\":545:684   */\n      swap3\n      swap2\n      pop\n      pop\n      jump\t// out\n        /* \"#utility.yul\":690:1019   */\n    tag_9:\n        /* \"#utility.yul\":749:755   */\n      0x00\n        /* \"#utility.yul\":798:800   */\n      0x20\n        /* \"#utility.yul\":786:795   */\n      dup3\n        /* \"#utility.yul\":777:784   */\n      dup5\n        /* \"#utility.yul\":773:796   */\n      sub\n        /* \"#utility.yul\":769:801   */\n      slt\n        /* \"#utility.yul\":766:885   */\n      iszero\n      tag_89\n      jumpi\n        /* \"#utility.yul\":804:883   */\n      tag_90\n      tag_61\n      jump\t// in\n    tag_90:\n        /* \"#utility.yul\":766:885   */\n    tag_89:\n        /* \"#utility.yul\":924:925   */\n      0x00\n        /* \"#utility.yul\":949:1002   */\n      tag_91\n        /* \"#utility.yul\":994:1001   */\n      dup5\n        /* \"#utility.yul\":985:991   */\n      dup3\n        /* \"#utility.yul\":974:983   */\n      dup6\n        /* \"#utility.yul\":970:992   */\n      add\n        /* \"#utility.yul\":949:1002   */\n      tag_65\n      jump\t// in\n    tag_91:\n        /* \"#utility.yul\":939:1002   */\n      swap2\n      pop\n        /* \"#utility.yul\":895:1012   */\n      pop\n        /* \"#utility.yul\":690:1019   */\n      swap3\n      swap2\n      pop\n      pop\n      jump\t// out\n        /* \"#utility.yul\":1025:1139   */\n    tag_66:\n        /* \"#utility.yul\":1092:1098   */\n      0x00\n        /* \"#utility.yul\":1126:1131   */\n      dup2\n        /* \"#utility.yul\":1120:1132   */\n      mload\n        /* \"#utility.yul\":1110:1132   */\n      swap1\n      pop\n        /* \"#utility.yul\":1025:1139   */\n      swap2\n      swap1\n      pop\n      jump\t// out\n        /* \"#utility.yul\":1145:1329   */\n    tag_67:\n        /* \"#utility.yul\":1244:1255   */\n      0x00\n        /* \"#utility.yul\":1278:1284   */\n      dup3\n        /* \"#utility.yul\":1273:1276   */\n      dup3\n        /* \"#utility.yul\":1266:1285   */\n      mstore\n        /* \"#utility.yul\":1318:1322   */\n      0x20\n        /* \"#utility.yul\":1313:1316   */\n      dup3\n        /* \"#utility.yul\":1309:1323   */\n      add\n        /* \"#utility.yul\":1294:1323   */\n      swap1\n      pop\n        /* \"#utility.yul\":1145:1329   */\n      swap3\n      swap2\n      pop\n      pop\n      jump\t// out\n        /* \"#utility.yul\":1335:1467   */\n    tag_68:\n        /* \"#utility.yul\":1402:1406   */\n      0x00\n        /* \"#utility.yul\":1425:1428   */\n      dup2\n        /* \"#utility.yul\":1417:1428   */\n      swap1\n      pop\n        /* \"#utility.yul\":1455:1459   */\n      0x20\n        /* \"#utility.yul\":1450:1453   */\n      dup3\n        /* \"#utility.yul\":1446:1460   */\n      add\n        /* \"#utility.yul\":1438:1460   */\n      swap1\n      pop\n        /* \"#utility.yul\":1335:1467   */\n      swap2\n      swap1\n      pop\n      jump\t// out\n        /* \"#utility.yul\":1473:1581   */\n    tag_69:\n        /* \"#utility.yul\":1550:1574   */\n      tag_96\n        /* \"#utility.yul\":1568:1573   */\n      dup2\n        /* \"#utility.yul\":1550:1574   */\n      tag_63\n      jump\t// in\n    tag_96:\n        /* \"#utility.yul\":1545:1548   */\n      dup3\n        /* \"#utility.yul\":1538:1575   */\n      mstore\n        /* \"#utility.yul\":1473:1581   */\n      pop\n      pop\n      jump\t// out\n        /* \"#utility.yul\":1587:1766   */\n    tag_70:\n        /* \"#utility.yul\":1656:1666   */\n      0x00\n        /* \"#utility.yul\":1677:1723   */\n      tag_98\n        /* \"#utility.yul\":1719:1722   */\n      dup4\n        /* \"#utility.yul\":1711:1717   */\n      dup4\n        /* \"#utility.yul\":1677:1723   */\n      tag_69\n      jump\t// in\n    tag_98:\n        /* \"#utility.yul\":1755:1759   */\n      0x20\n        /* \"#utility.yul\":1750:1753   */\n      dup4\n        /* \"#utility.yul\":1746:1760   */\n      add\n        /* \"#utility.yul\":1732:1760   */\n      swap1\n      pop\n        /* \"#utility.yul\":1587:1766   */\n      swap3\n      swap2\n      pop\n      pop\n      jump\t// out\n        /* \"#utility.yul\":1772:1885   */\n    tag_71:\n        /* \"#utility.yul\":1842:1846   */\n      0x00\n        /* \"#utility.yul\":1874:1878   */\n      0x20\n        /* \"#utility.yul\":1869:1872   */\n      dup3\n        /* \"#utility.yul\":1865:1879   */\n      add\n        /* \"#utility.yul\":1857:1879   */\n      swap1\n      pop\n        /* \"#utility.yul\":1772:1885   */\n      swap2\n      swap1\n      pop\n      jump\t// out\n        /* \"#utility.yul\":1921:2653   */\n    tag_72:\n        /* \"#utility.yul\":2040:2043   */\n      0x00\n        /* \"#utility.yul\":2069:2123   */\n      tag_101\n        /* \"#utility.yul\":2117:2122   */\n      dup3\n        /* \"#utility.yul\":2069:2123   */\n      tag_66\n      jump\t// in\n    tag_101:\n        /* \"#utility.yul\":2139:2225   */\n      tag_102\n        /* \"#utility.yul\":2218:2224   */\n      dup2\n        /* \"#utility.yul\":2213:2216   */\n      dup6\n        /* \"#utility.yul\":2139:2225   */\n      tag_67\n      jump\t// in\n    tag_102:\n        /* \"#utility.yul\":2132:2225   */\n      swap4\n      pop\n        /* \"#utility.yul\":2249:2305   */\n      tag_103\n        /* \"#utility.yul\":2299:2304   */\n      dup4\n        /* \"#utility.yul\":2249:2305   */\n      tag_68\n      jump\t// in\n    tag_103:\n        /* \"#utility.yul\":2328:2335   */\n      dup1\n        /* \"#utility.yul\":2359:2360   */\n      0x00\n        /* \"#utility.yul\":2344:2628   */\n    tag_104:\n        /* \"#utility.yul\":2369:2375   */\n      dup4\n        /* \"#utility.yul\":2366:2367   */\n      dup2\n        /* \"#utility.yul\":2363:2376   */\n      lt\n        /* \"#utility.yul\":2344:2628   */\n      iszero\n      tag_106\n      jumpi\n        /* \"#utility.yul\":2445:2451   */\n      dup2\n        /* \"#utility.yul\":2439:2452   */\n      mload\n        /* \"#utility.yul\":2472:2535   */\n      tag_107\n        /* \"#utility.yul\":2531:2534   */\n      dup9\n        /* \"#utility.yul\":2516:2529   */\n      dup3\n        /* \"#utility.yul\":2472:2535   */\n      tag_70\n      jump\t// in\n    tag_107:\n        /* \"#utility.yul\":2465:2535   */\n      swap8\n      pop\n        /* \"#utility.yul\":2558:2618   */\n      tag_108\n        /* \"#utility.yul\":2611:2617   */\n      dup4\n        /* \"#utility.yul\":2558:2618   */\n      tag_71\n      jump\t// in\n    tag_108:\n        /* \"#utility.yul\":2548:2618   */\n      swap3\n      pop\n        /* \"#utility.yul\":2404:2628   */\n      pop\n        /* \"#utility.yul\":2391:2392   */\n      0x01\n        /* \"#utility.yul\":2388:2389   */\n      dup2\n        /* \"#utility.yul\":2384:2393   */\n      add\n        /* \"#utility.yul\":2379:2393   */\n      swap1\n      pop\n        /* \"#utility.yul\":2344:2628   */\n      jump(tag_104)\n    tag_106:\n        /* \"#utility.yul\":2348:2362   */\n      pop\n        /* \"#utility.yul\":2644:2647   */\n      dup6\n        /* \"#utility.yul\":2637:2647   */\n      swap4\n      pop\n        /* \"#utility.yul\":2045:2653   */\n      pop\n      pop\n      pop\n        /* \"#utility.yul\":1921:2653   */\n      swap3\n      swap2\n      pop\n      pop\n      jump\t// out\n        /* \"#utility.yul\":2659:3032   */\n    tag_14:\n        /* \"#utility.yul\":2802:2806   */\n      0x00\n        /* \"#utility.yul\":2840:2842   */\n      0x20\n        /* \"#utility.yul\":2829:2838   */\n      dup3\n        /* \"#utility.yul\":2825:2843   */\n      add\n        /* \"#utility.yul\":2817:2843   */\n      swap1\n      pop\n        /* \"#utility.yul\":2889:2898   */\n      dup2\n        /* \"#utility.yul\":2883:2887   */\n      dup2\n        /* \"#utility.yul\":2879:2899   */\n      sub\n        /* \"#utility.yul\":2875:2876   */\n      0x00\n        /* \"#utility.yul\":2864:2873   */\n      dup4\n        /* \"#utility.yul\":2860:2877   */\n      add\n        /* \"#utility.yul\":2853:2900   */\n      mstore\n        /* \"#utility.yul\":2917:3025   */\n      tag_110\n        /* \"#utility.yul\":3020:3024   */\n      dup2\n        /* \"#utility.yul\":3011:3017   */\n      dup5\n        /* \"#utility.yul\":2917:3025   */\n      tag_72\n      jump\t// in\n    tag_110:\n        /* \"#utility.yul\":2909:3025   */\n      swap1\n      pop\n        /* \"#utility.yul\":2659:3032   */\n      swap3\n      swap2\n      pop\n      pop\n      jump\t// out\n        /* \"#utility.yul\":3038:3156   */\n    tag_73:\n        /* \"#utility.yul\":3125:3149   */\n      tag_112\n        /* \"#utility.yul\":3143:3148   */\n      dup2\n        /* \"#utility.yul\":3125:3149   */\n      tag_63\n      jump\t// in\n    tag_112:\n        /* \"#utility.yul\":3120:3123   */\n      dup3\n        /* \"#utility.yul\":3113:3150   */\n      mstore\n        /* \"#utility.yul\":3038:3156   */\n      pop\n      pop\n      jump\t// out\n        /* \"#utility.yul\":3162:3384   */\n    tag_18:\n        /* \"#utility.yul\":3255:3259   */\n      0x00\n        /* \"#utility.yul\":3293:3295   */\n      0x20\n        /* \"#utility.yul\":3282:3291   */\n      dup3\n        /* \"#utility.yul\":3278:3296   */\n      add\n        /* \"#utility.yul\":3270:3296   */\n      swap1\n      pop\n        /* \"#utility.yul\":3306:3377   */\n      tag_114\n        /* \"#utility.yul\":3374:3375   */\n      0x00\n        /* \"#utility.yul\":3363:3372   */\n      dup4\n        /* \"#utility.yul\":3359:3376   */\n      add\n        /* \"#utility.yul\":3350:3356   */\n      dup5\n        /* \"#utility.yul\":3306:3377   */\n      tag_73\n      jump\t// in\n    tag_114:\n        /* \"#utility.yul\":3162:3384   */\n      swap3\n      swap2\n      pop\n      pop\n      jump\t// out\n        /* \"#utility.yul\":3390:3559   */\n    tag_74:\n        /* \"#utility.yul\":3474:3485   */\n      0x00\n        /* \"#utility.yul\":3508:3514   */\n      dup3\n        /* \"#utility.yul\":3503:3506   */\n      dup3\n        /* \"#utility.yul\":3496:3515   */\n      mstore\n        /* \"#utility.yul\":3548:3552   */\n      0x20\n        /* \"#utility.yul\":3543:3546   */\n      dup3\n        /* \"#utility.yul\":3539:3553   */\n      add\n        /* \"#utility.yul\":3524:3553   */\n      swap1\n      pop\n        /* \"#utility.yul\":3390:3559   */\n      swap3\n      swap2\n      pop\n      pop\n      jump\t// out\n        /* \"#utility.yul\":3565:3724   */\n    tag_75:\n        /* \"#utility.yul\":3705:3716   */\n      0x746f6f2073686f72740000000000000000000000000000000000000000000000\n        /* \"#utility.yul\":3701:3702   */\n      0x00\n        /* \"#utility.yul\":3693:3699   */\n      dup3\n        /* \"#utility.yul\":3689:3703   */\n      add\n        /* \"#utility.yul\":3682:3717   */\n      mstore\n        /* \"#utility.yul\":3565:3724   */\n      pop\n      jump\t// out\n        /* \"#utility.yul\":3730:4095   */\n    tag_76:\n        /* \"#utility.yul\":3872:3875   */\n      0x00\n        /* \"#utility.yul\":3893:3959   */\n      tag_118\n        /* \"#utility.yul\":3957:3958   */\n      0x09\n        /* \"#utility.yul\":3952:3955   */\n      dup4\n        /* \"#utility.yul\":3893:3959   */\n      tag_74\n      jump\t// in\n    tag_118:\n        /* \"#utility.yul\":3886:3959   */\n      swap2\n      pop\n        /* \"#utility.yul\":3968:4061   */\n      tag_119\n        /* \"#utility.yul\":4057:4060   */\n      dup3\n        /* \"#utility.yul\":3968:4061   */\n      tag_75\n      jump\t// in\n    tag_119:\n        /* \"#utility.yul\":4086:4088   */\n      0x20\n        /* \"#utility.yul\":4081:4084   */\n      dup3\n        /* \"#utility.yul\":4077:4089   */\n      add\n        /* \"#utility.yul\":4070:4089   */\n      swap1\n      pop\n        /* \"#utility.yul\":3730:4095   */\n      swap2\n      swap1\n      pop\n      jump\t// out\n        /* \"#utility.yul\":4101:4520   */\n    tag_31:\n        /* \"#utility.yul\":4267:4271   */\n      0x00\n        /* \"#utility.yul\":4305:4307   */\n      0x20\n        /* \"#utility.yul\":4294:4303   */\n      dup3\n        /* \"#utility.yul\":4290:4308   */\n      add\n        /* \"#utility.yul\":4282:4308   */\n      swap1\n      pop\n        /* \"#utility.yul\":4354:4363   */\n      dup2\n        /* \"#utility.yul\":4348:4352   */\n      dup2\n        /* \"#utility.yul\":4344:4364   */\n      sub\n        /* \"#utility.yul\":4340:4341   */\n      0x00\n        /* \"#utility.yul\":4329:4338   */\n      dup4\n        /* \"#utility.yul\":4325:4342   */\n      add\n        /* \"#utility.yul\":4318:4365   */\n      mstore\n        /* \"#utility.yul\":4382:4513   */\n      tag_121\n        /* \"#utility.yul\":4508:4512   */\n      dup2\n        /* \"#utility.yul\":4382:4513   */\n      tag_76\n      jump\t// in\n    tag_121:\n        /* \"#utility.yul\":4374:4513   */\n      swap1\n      pop\n        /* \"#utility.yul\":4101:4520   */\n      swap2\n      swap1\n      pop\n      jump\t// out\n        /* \"#utility.yul\":4526:4706   */\n    tag_77:\n        /* \"#utility.yul\":4574:4651   */\n      0x4e487b7100000000000000000000000000000000000000000000000000000000\n        /* \"#utility.yul\":4571:4572   */\n      0x00\n        /* \"#utility.yul\":4564:4652   */\n      mstore\n        /* \"#utility.yul\":4671:4675   */\n      0x11\n        /* \"#utility.yul\":4668:4669   */\n      0x04\n        /* \"#utility.yul\":4661:4676   */\n      mstore\n        /* \"#utility.yul\":4695:4699   */\n      0x24\n        /* \"#utility.yul\":4692:4693   */\n      0x00\n        /* \"#utility.yul\":4685:4700   */\n      revert\n        /* \"#utility.yul\":4712:4903   */\n    tag_41:\n        /* \"#utility.yul\":4752:4755   */\n      0x00\n        /* \"#utility.yul\":4771:4791   */\n      tag_124\n        /* \"#utility.yul\":4789:4790   */\n      dup3\n        /* \"#utility.yul\":4771:4791   */\n      tag_63\n      jump\t// in\n    tag_124:\n        /* \"#utility.yul\":4766:4791   */\n      swap2\n      pop\n        /* \"#utility.yul\":4805:4825   */\n      tag_125\n        /* \"#utility.yul\":4823:4824   */\n      dup4\n        /* \"#utility.yul\":4805:4825   */\n      tag_63\n      jump\t// in\n    tag_125:\n        /* \"#utility.yul\":4800:4825   */\n      swap3\n      pop\n        /* \"#utility.yul\":4848:4849   */\n      dup3\n        /* \"#utility.yul\":4845:4846   */\n      dup3\n        /* \"#utility.yul\":4841:4850   */\n      add\n        /* \"#utility.yul\":4834:4850   */\n      swap1\n      pop\n        /* \"#utility.yul\":4869:4872   */\n      dup1\n        /* \"#utility.yul\":4866:4867   */\n      dup3\n        /* \"#utility.yul\":4863:4873   */\n      gt\n        /* \"#utility.yul\":4860:4896   */\n      iszero\n      tag_126\n      jumpi\n        /* \"#utility.yul\":4876:4894   */\n      tag_127\n      tag_77\n      jump\t// in\n    tag_127:\n        /* \"#utility.yul\":4860:4896   */\n    tag_126:\n        /* \"#utility.yul\":4712:4903   */\n      swap3\n      swap2\n      pop\n      pop\n      jump\t// out\n        /* \"#utility.yul\":4909:5089   */\n    tag_44:\n        /* \"#utility.yul\":4957:5034   */\n      0x4e487b7100000000000000000000000000000000000000000000000000000000\n        /* \"#utility.yul\":4954:4955   */\n      0x00\n        /* \"#utility.yul\":4947:5035   */\n      mstore\n        /* \"#utility.yul\":5054:5058   */\n      0x32\n        /* \"#utility.yul\":5051:5052   */\n      0x04\n        /* \"#utility.yul\":5044:5059   */\n      mstore\n        /* \"#utility.yul\":5078:5082   */\n      0x24\n        /* \"#utility.yul\":5075:5076   */\n      0x00\n        /* \"#utility.yul\":5068:5083   */\n      revert\n\n    auxdata: 0xa2646970667358221220453d74b9b70f96eab9afbc0c406d4594546cd892010016c8a92e7cde112cef8864736f6c634300081a0033\n}\n",
				"bytecode": {
					"linkReferences": {},
					"object": "6080604052348015600e575f80fd5b506105bb8061001c5f395ff3fe608060405234801561000f575f80fd5b506004361061004a575f3560e01c80632bfe18051461004e57806389f915f61461006a578063a6dc677114610088578063d39fa233146100a6575b5f80fd5b61006860048036038101906100639190610356565b6100d6565b005b6100726100fe565b60405161007f9190610438565b60405180910390f35b610090610153565b60405161009d9190610467565b60405180910390f35b6100c060048036038101906100bb9190610356565b610300565b6040516100cd9190610467565b60405180910390f35b5f81908060018154018082558091505060019003905f5260205f20015f909190919091505550565b60605f80548060200260200160405190810160405280929190818152602001828054801561014957602002820191905f5260205f20905b815481526020019060010190808311610135575b5050505050905090565b5f60035f805490501161019b576040517f08c379a0000000000000000000000000000000000000000000000000000000008152600401610192906104da565b60405180910390fd5b5f808054806020026020016040519081016040528092919081815260200182805480156101e557602002820191905f5260205f20905b8154815260200190600101908083116101d1575b505050505090505f5b81518110156102dd575f6001826102059190610525565b90505b82518110156102cf5782828151811061022457610223610558565b5b602002602001015183828151811061023f5761023e610558565b5b602002602001015111156102c2578282815181106102605761025f610558565b5b602002602001015183828151811061027b5761027a610558565b5b602002602001015184838151811061029657610295610558565b5b602002602001018585815181106102b0576102af610558565b5b60200260200101828152508281525050505b8080600101915050610208565b5080806001019150506101ee565b50806002815181106102f2576102f1610558565b5b602002602001015191505090565b5f818154811061030e575f80fd5b905f5260205f20015f915090505481565b5f80fd5b5f819050919050565b61033581610323565b811461033f575f80fd5b50565b5f813590506103508161032c565b92915050565b5f6020828403121561036b5761036a61031f565b5b5f61037884828501610342565b91505092915050565b5f81519050919050565b5f82825260208201905092915050565b5f819050602082019050919050565b6103b381610323565b82525050565b5f6103c483836103aa565b60208301905092915050565b5f602082019050919050565b5f6103e682610381565b6103f0818561038b565b93506103fb8361039b565b805f5b8381101561042b57815161041288826103b9565b975061041d836103d0565b9250506001810190506103fe565b5085935050505092915050565b5f6020820190508181035f83015261045081846103dc565b905092915050565b61046181610323565b82525050565b5f60208201905061047a5f830184610458565b92915050565b5f82825260208201905092915050565b7f746f6f2073686f727400000000000000000000000000000000000000000000005f82015250565b5f6104c4600983610480565b91506104cf82610490565b602082019050919050565b5f6020820190508181035f8301526104f1816104b8565b9050919050565b7f4e487b71000000000000000000000000000000000000000000000000000000005f52601160045260245ffd5b5f61052f82610323565b915061053a83610323565b9250828201905080821115610552576105516104f8565b5b92915050565b7f4e487b71000000000000000000000000000000000000000000000000000000005f52603260045260245ffdfea2646970667358221220453d74b9b70f96eab9afbc0c406d4594546cd892010016c8a92e7cde112cef8864736f6c634300081a0033",
					"opcodes": "PUSH1 0x80 PUSH1 0x40 MSTORE CALLVALUE DUP1 ISZERO PUSH1 0xE JUMPI PUSH0 DUP1 REVERT JUMPDEST POP PUSH2 0x5BB DUP1 PUSH2 0x1C PUSH0 CODECOPY PUSH0 RETURN INVALID PUSH1 0x80 PUSH1 0x40 MSTORE CALLVALUE DUP1 ISZERO PUSH2 0xF JUMPI PUSH0 DUP1 REVERT JUMPDEST POP PUSH1 0x4 CALLDATASIZE LT PUSH2 0x4A JUMPI PUSH0 CALLDATALOAD PUSH1 0xE0 SHR DUP1 PUSH4 0x2BFE1805 EQ PUSH2 0x4E JUMPI DUP1 PUSH4 0x89F915F6 EQ PUSH2 0x6A JUMPI DUP1 PUSH4 0xA6DC6771 EQ PUSH2 0x88 JUMPI DUP1 PUSH4 0xD39FA233 EQ PUSH2 0xA6 JUMPI JUMPDEST PUSH0 DUP1 REVERT JUMPDEST PUSH2 0x68 PUSH1 0x4 DUP1 CALLDATASIZE SUB DUP2 ADD SWAP1 PUSH2 0x63 SWAP2 SWAP1 PUSH2 0x356 JUMP JUMPDEST PUSH2 0xD6 JUMP JUMPDEST STOP JUMPDEST PUSH2 0x72 PUSH2 0xFE JUMP JUMPDEST PUSH1 0x40 MLOAD PUSH2 0x7F SWAP2 SWAP1 PUSH2 0x438 JUMP JUMPDEST PUSH1 0x40 MLOAD DUP1 SWAP2 SUB SWAP1 RETURN JUMPDEST PUSH2 0x90 PUSH2 0x153 JUMP JUMPDEST PUSH1 0x40 MLOAD PUSH2 0x9D SWAP2 SWAP1 PUSH2 0x467 JUMP JUMPDEST PUSH1 0x40 MLOAD DUP1 SWAP2 SUB SWAP1 RETURN JUMPDEST PUSH2 0xC0 PUSH1 0x4 DUP1 CALLDATASIZE SUB DUP2 ADD SWAP1 PUSH2 0xBB SWAP2 SWAP1 PUSH2 0x356 JUMP JUMPDEST PUSH2 0x300 JUMP JUMPDEST PUSH1 0x40 MLOAD PUSH2 0xCD SWAP2 SWAP1 PUSH2 0x467 JUMP JUMPDEST PUSH1 0x40 MLOAD DUP1 SWAP2 SUB SWAP1 RETURN JUMPDEST PUSH0 DUP2 SWAP1 DUP1 PUSH1 0x1 DUP2 SLOAD ADD DUP1 DUP3 SSTORE DUP1 SWAP2 POP POP PUSH1 0x1 SWAP1 SUB SWAP1 PUSH0 MSTORE PUSH1 0x20 PUSH0 KECCAK256 ADD PUSH0 SWAP1 SWAP2 SWAP1 SWAP2 SWAP1 SWAP2 POP SSTORE POP JUMP JUMPDEST PUSH1 0x60 PUSH0 DUP1 SLOAD DUP1 PUSH1 0x20 MUL PUSH1 0x20 ADD PUSH1 0x40 MLOAD SWAP1 DUP2 ADD PUSH1 0x40 MSTORE DUP1 SWAP3 SWAP2 SWAP1 DUP2 DUP2 MSTORE PUSH1 0x20 ADD DUP3 DUP1 SLOAD DUP1 ISZERO PUSH2 0x149 JUMPI PUSH1 0x20 MUL DUP3 ADD SWAP2 SWAP1 PUSH0 MSTORE PUSH1 0x20 PUSH0 KECCAK256 SWAP1 JUMPDEST DUP2 SLOAD DUP2 MSTORE PUSH1 0x20 ADD SWAP1 PUSH1 0x1 ADD SWAP1 DUP1 DUP4 GT PUSH2 0x135 JUMPI JUMPDEST POP POP POP POP POP SWAP1 POP SWAP1 JUMP JUMPDEST PUSH0 PUSH1 0x3 PUSH0 DUP1 SLOAD SWAP1 POP GT PUSH2 0x19B JUMPI PUSH1 0x40 MLOAD PUSH32 0x8C379A000000000000000000000000000000000000000000000000000000000 DUP2 MSTORE PUSH1 0x4 ADD PUSH2 0x192 SWAP1 PUSH2 0x4DA JUMP JUMPDEST PUSH1 0x40 MLOAD DUP1 SWAP2 SUB SWAP1 REVERT JUMPDEST PUSH0 DUP1 DUP1 SLOAD DUP1 PUSH1 0x20 MUL PUSH1 0x20 ADD PUSH1 0x40 MLOAD SWAP1 DUP2 ADD PUSH1 0x40 MSTORE DUP1 SWAP3 SWAP2 SWAP1 DUP2 DUP2 MSTORE PUSH1 0x20 ADD DUP3 DUP1 SLOAD DUP1 ISZERO PUSH2 0x1E5 JUMPI PUSH1 0x20 MUL DUP3 ADD SWAP2 SWAP1 PUSH0 MSTORE PUSH1 0x20 PUSH0 KECCAK256 SWAP1 JUMPDEST DUP2 SLOAD DUP2 MSTORE PUSH1 0x20 ADD SWAP1 PUSH1 0x1 ADD SWAP1 DUP1 DUP4 GT PUSH2 0x1D1 JUMPI JUMPDEST POP POP POP POP POP SWAP1 POP PUSH0 JUMPDEST DUP2 MLOAD DUP2 LT ISZERO PUSH2 0x2DD JUMPI PUSH0 PUSH1 0x1 DUP3 PUSH2 0x205 SWAP2 SWAP1 PUSH2 0x525 JUMP JUMPDEST SWAP1 POP JUMPDEST DUP3 MLOAD DUP2 LT ISZERO PUSH2 0x2CF JUMPI DUP3 DUP3 DUP2 MLOAD DUP2 LT PUSH2 0x224 JUMPI PUSH2 0x223 PUSH2 0x558 JUMP JUMPDEST JUMPDEST PUSH1 0x20 MUL PUSH1 0x20 ADD ADD MLOAD DUP4 DUP3 DUP2 MLOAD DUP2 LT PUSH2 0x23F JUMPI PUSH2 0x23E PUSH2 0x558 JUMP JUMPDEST JUMPDEST PUSH1 0x20 MUL PUSH1 0x20 ADD ADD MLOAD GT ISZERO PUSH2 0x2C2 JUMPI DUP3 DUP3 DUP2 MLOAD DUP2 LT PUSH2 0x260 JUMPI PUSH2 0x25F PUSH2 0x558 JUMP JUMPDEST JUMPDEST PUSH1 0x20 MUL PUSH1 0x20 ADD ADD MLOAD DUP4 DUP3 DUP2 MLOAD DUP2 LT PUSH2 0x27B JUMPI PUSH2 0x27A PUSH2 0x558 JUMP JUMPDEST JUMPDEST PUSH1 0x20 MUL PUSH1 0x20 ADD ADD MLOAD DUP5 DUP4 DUP2 MLOAD DUP2 LT PUSH2 0x296 JUMPI PUSH2 0x295 PUSH2 0x558 JUMP JUMPDEST JUMPDEST PUSH1 0x20 MUL PUSH1 0x20 ADD ADD DUP6 DUP6 DUP2 MLOAD DUP2 LT PUSH2 0x2B0 JUMPI PUSH2 0x2AF PUSH2 0x558 JUMP JUMPDEST JUMPDEST PUSH1 0x20 MUL PUSH1 0x20 ADD ADD DUP3 DUP2 MSTORE POP DUP3 DUP2 MSTORE POP POP POP JUMPDEST DUP1 DUP1 PUSH1 0x1 ADD SWAP2 POP POP PUSH2 0x208 JUMP JUMPDEST POP DUP1 DUP1 PUSH1 0x1 ADD SWAP2 POP POP PUSH2 0x1EE JUMP JUMPDEST POP DUP1 PUSH1 0x2 DUP2 MLOAD DUP2 LT PUSH2 0x2F2 JUMPI PUSH2 0x2F1 PUSH2 0x558 JUMP JUMPDEST JUMPDEST PUSH1 0x20 MUL PUSH1 0x20 ADD ADD MLOAD SWAP2 POP POP SWAP1 JUMP JUMPDEST PUSH0 DUP2 DUP2 SLOAD DUP2 LT PUSH2 0x30E JUMPI PUSH0 DUP1 REVERT JUMPDEST SWAP1 PUSH0 MSTORE PUSH1 0x20 PUSH0 KECCAK256 ADD PUSH0 SWAP2 POP SWAP1 POP SLOAD DUP2 JUMP JUMPDEST PUSH0 DUP1 REVERT JUMPDEST PUSH0 DUP2 SWAP1 POP SWAP2 SWAP1 POP JUMP JUMPDEST PUSH2 0x335 DUP2 PUSH2 0x323 JUMP JUMPDEST DUP2 EQ PUSH2 0x33F JUMPI PUSH0 DUP1 REVERT JUMPDEST POP JUMP JUMPDEST PUSH0 DUP2 CALLDATALOAD SWAP1 POP PUSH2 0x350 DUP2 PUSH2 0x32C JUMP JUMPDEST SWAP3 SWAP2 POP POP JUMP JUMPDEST PUSH0 PUSH1 0x20 DUP3 DUP5 SUB SLT ISZERO PUSH2 0x36B JUMPI PUSH2 0x36A PUSH2 0x31F JUMP JUMPDEST JUMPDEST PUSH0 PUSH2 0x378 DUP5 DUP3 DUP6 ADD PUSH2 0x342 JUMP JUMPDEST SWAP2 POP POP SWAP3 SWAP2 POP POP JUMP JUMPDEST PUSH0 DUP2 MLOAD SWAP1 POP SWAP2 SWAP1 POP JUMP JUMPDEST PUSH0 DUP3 DUP3 MSTORE PUSH1 0x20 DUP3 ADD SWAP1 POP SWAP3 SWAP2 POP POP JUMP JUMPDEST PUSH0 DUP2 SWAP1 POP PUSH1 0x20 DUP3 ADD SWAP1 POP SWAP2 SWAP1 POP JUMP JUMPDEST PUSH2 0x3B3 DUP2 PUSH2 0x323 JUMP JUMPDEST DUP3 MSTORE POP POP JUMP JUMPDEST PUSH0 PUSH2 0x3C4 DUP4 DUP4 PUSH2 0x3AA JUMP JUMPDEST PUSH1 0x20 DUP4 ADD SWAP1 POP SWAP3 SWAP2 POP POP JUMP JUMPDEST PUSH0 PUSH1 0x20 DUP3 ADD SWAP1 POP SWAP2 SWAP1 POP JUMP JUMPDEST PUSH0 PUSH2 0x3E6 DUP3 PUSH2 0x381 JUMP JUMPDEST PUSH2 0x3F0 DUP2 DUP6 PUSH2 0x38B JUMP JUMPDEST SWAP4 POP PUSH2 0x3FB DUP4 PUSH2 0x39B JUMP JUMPDEST DUP1 PUSH0 JUMPDEST DUP4 DUP2 LT ISZERO PUSH2 0x42B JUMPI DUP2 MLOAD PUSH2 0x412 DUP9 DUP3 PUSH2 0x3B9 JUMP JUMPDEST SWAP8 POP PUSH2 0x41D DUP4 PUSH2 0x3D0 JUMP JUMPDEST SWAP3 POP POP PUSH1 0x1 DUP2 ADD SWAP1 POP PUSH2 0x3FE JUMP JUMPDEST POP DUP6 SWAP4 POP POP POP POP SWAP3 SWAP2 POP POP JUMP JUMPDEST PUSH0 PUSH1 0x20 DUP3 ADD SWAP1 POP DUP2 DUP2 SUB PUSH0 DUP4 ADD MSTORE PUSH2 0x450 DUP2 DUP5 PUSH2 0x3DC JUMP JUMPDEST SWAP1 POP SWAP3 SWAP2 POP POP JUMP JUMPDEST PUSH2 0x461 DUP2 PUSH2 0x323 JUMP JUMPDEST DUP3 MSTORE POP POP JUMP JUMPDEST PUSH0 PUSH1 0x20 DUP3 ADD SWAP1 POP PUSH2 0x47A PUSH0 DUP4 ADD DUP5 PUSH2 0x458 JUMP JUMPDEST SWAP3 SWAP2 POP POP JUMP JUMPDEST PUSH0 DUP3 DUP3 MSTORE PUSH1 0x20 DUP3 ADD SWAP1 POP SWAP3 SWAP2 POP POP JUMP JUMPDEST PUSH32 0x746F6F2073686F72740000000000000000000000000000000000000000000000 PUSH0 DUP3 ADD MSTORE POP JUMP JUMPDEST PUSH0 PUSH2 0x4C4 PUSH1 0x9 DUP4 PUSH2 0x480 JUMP JUMPDEST SWAP2 POP PUSH2 0x4CF DUP3 PUSH2 0x490 JUMP JUMPDEST PUSH1 0x20 DUP3 ADD SWAP1 POP SWAP2 SWAP1 POP JUMP JUMPDEST PUSH0 PUSH1 0x20 DUP3 ADD SWAP1 POP DUP2 DUP2 SUB PUSH0 DUP4 ADD MSTORE PUSH2 0x4F1 DUP2 PUSH2 0x4B8 JUMP JUMPDEST SWAP1 POP SWAP2 SWAP1 POP JUMP JUMPDEST PUSH32 0x4E487B7100000000000000000000000000000000000000000000000000000000 PUSH0 MSTORE PUSH1 0x11 PUSH1 0x4 MSTORE PUSH1 0x24 PUSH0 REVERT JUMPDEST PUSH0 PUSH2 0x52F DUP3 PUSH2 0x323 JUMP JUMPDEST SWAP2 POP PUSH2 0x53A DUP4 PUSH2 0x323 JUMP JUMPDEST SWAP3 POP DUP3 DUP3 ADD SWAP1 POP DUP1 DUP3 GT ISZERO PUSH2 0x552 JUMPI PUSH2 0x551 PUSH2 0x4F8 JUMP JUMPDEST JUMPDEST SWAP3 SWAP2 POP POP JUMP JUMPDEST PUSH32 0x4E487B7100000000000000000000000000000000000000000000000000000000 PUSH0 MSTORE PUSH1 0x32 PUSH1 0x4 MSTORE PUSH1 0x24 PUSH0 REVERT INVALID LOG2 PUSH5 0x6970667358 0x22 SLT KECCAK256 GASLIMIT RETURNDATASIZE PUSH21 0xB9B70F96EAB9AFBC0C406D4594546CD892010016C8 0xA9 0x2E PUSH29 0xDE112CEF8864736F6C634300081A003300000000000000000000000000 "
				},
				"gasEstimates": {
					"creation": {
						"codeDepositCost": "293400",
						"executionCost": "329",
						"totalCost": "293729"
					},
					"external": {
						"getNumbers()": "infinite",
						"numbers(uint256)": "infinite",
						"pushNumber(uint256)": "46798",
						"third()": "infinite"
					}
				},
				"methodIdentifiers": {
					"getNumbers()": "89f915f6",
					"numbers(uint256)": "d39fa233",
					"pushNumber(uint256)": "2bfe1805",
					"third()": "a6dc6771"
				}
			},
			"storageLayout": {
				"storage": [
					{
						"astId": 4,
						"contract": "Solidity100/Solidity51-60.sol:Question51",
						"label": "numbers",
						"offset": 0,
						"slot": "0",
						"type": "t_array(t_uint256)dyn_storage"
					}
				],
				"types": {
					"t_array(t_uint256)dyn_storage": {
						"base": "t_uint256",
						"encoding": "dynamic_array",
						"label": "uint256[]",
						"numberOfBytes": "32"
					},
					"t_uint256": {
						"encoding": "inplace",
						"label": "uint256",
						"numberOfBytes": "32"
					}
				}
			},
			"userdoc": {
				"kind": "user",
				"methods": {},
				"version": 1
			}
		}
	}
}