{
	"Solidity100/Solidity51-60.sol": {
		"Question53": {
			"abi": [
				{
					"inputs": [
						{
							"internalType": "string",
							"name": "_bank",
							"type": "string"
						}
					],
					"name": "deposit",
					"outputs": [],
					"stateMutability": "payable",
					"type": "function"
				},
				{
					"inputs": [
						{
							"internalType": "string",
							"name": "_bank",
							"type": "string"
						}
					],
					"name": "myBalances",
					"outputs": [
						{
							"internalType": "uint256",
							"name": "",
							"type": "uint256"
						}
					],
					"stateMutability": "view",
					"type": "function"
				},
				{
					"inputs": [
						{
							"internalType": "string",
							"name": "_bank",
							"type": "string"
						},
						{
							"internalType": "uint256",
							"name": "_amount",
							"type": "uint256"
						}
					],
					"name": "withdraw",
					"outputs": [],
					"stateMutability": "nonpayable",
					"type": "function"
				}
			],
			"devdoc": {
				"kind": "dev",
				"methods": {},
				"version": 1
			},
			"evm": {
				"assembly": "    /* \"Solidity100/Solidity51-60.sol\":1635:2978  contract Question53{... */\n  mstore(0x40, 0x80)\n  callvalue\n  dup1\n  iszero\n  tag_1\n  jumpi\n  0x00\n  dup1\n  revert\ntag_1:\n  pop\n  dataSize(sub_0)\n  dup1\n  dataOffset(sub_0)\n  0x00\n  codecopy\n  0x00\n  return\nstop\n\nsub_0: assembly {\n        /* \"Solidity100/Solidity51-60.sol\":1635:2978  contract Question53{... */\n      mstore(0x40, 0x80)\n      jumpi(tag_1, lt(calldatasize, 0x04))\n      shr(0xe0, calldataload(0x00))\n      dup1\n      0x068d8df9\n      eq\n      tag_2\n      jumpi\n      dup1\n      0x30b39a62\n      eq\n      tag_3\n      jumpi\n      dup1\n      0xa26e1186\n      eq\n      tag_4\n      jumpi\n    tag_1:\n      0x00\n      dup1\n      revert\n        /* \"Solidity100/Solidity51-60.sol\":2840:2975  function myBalances(string memory _bank) public view checkBank(_bank) returns(uint) {... */\n    tag_2:\n      callvalue\n      dup1\n      iszero\n      tag_5\n      jumpi\n      0x00\n      dup1\n      revert\n    tag_5:\n      pop\n      tag_6\n      0x04\n      dup1\n      calldatasize\n      sub\n      dup2\n      add\n      swap1\n      tag_7\n      swap2\n      swap1\n      tag_8\n      jump\t// in\n    tag_7:\n      tag_9\n      jump\t// in\n    tag_6:\n      mload(0x40)\n      tag_10\n      swap2\n      swap1\n      tag_11\n      jump\t// in\n    tag_10:\n      mload(0x40)\n      dup1\n      swap2\n      sub\n      swap1\n      return\n        /* \"Solidity100/Solidity51-60.sol\":2655:2834  function withdraw(string memory _bank, uint _amount) public checkBank(_bank) {... */\n    tag_3:\n      callvalue\n      dup1\n      iszero\n      tag_12\n      jumpi\n      0x00\n      dup1\n      revert\n    tag_12:\n      pop\n      tag_13\n      0x04\n      dup1\n      calldatasize\n      sub\n      dup2\n      add\n      swap1\n      tag_14\n      swap2\n      swap1\n      tag_15\n      jump\t// in\n    tag_14:\n      tag_16\n      jump\t// in\n    tag_13:\n      stop\n        /* \"Solidity100/Solidity51-60.sol\":2522:2649  function deposit(string memory _bank) public payable checkBank(_bank) {... */\n    tag_4:\n      tag_17\n      0x04\n      dup1\n      calldatasize\n      sub\n      dup2\n      add\n      swap1\n      tag_18\n      swap2\n      swap1\n      tag_8\n      jump\t// in\n    tag_18:\n      tag_19\n      jump\t// in\n    tag_17:\n      stop\n        /* \"Solidity100/Solidity51-60.sol\":2840:2975  function myBalances(string memory _bank) public view checkBank(_bank) returns(uint) {... */\n    tag_9:\n        /* \"Solidity100/Solidity51-60.sol\":2918:2922  uint */\n      0x00\n        /* \"Solidity100/Solidity51-60.sol\":2903:2908  _bank */\n      dup2\n        /* \"Solidity100/Solidity51-60.sol\":2129:2150  abi.encodePacked(\"A\") */\n      add(0x20, mload(0x40))\n      tag_21\n      swap1\n      tag_22\n      jump\t// in\n    tag_21:\n      mload(0x40)\n      0x20\n      dup2\n      dup4\n      sub\n      sub\n      dup2\n      mstore\n      swap1\n      0x40\n      mstore\n        /* \"Solidity100/Solidity51-60.sol\":2119:2151  keccak256(abi.encodePacked(\"A\")) */\n      dup1\n      mload\n      swap1\n      0x20\n      add\n      keccak256\n        /* \"Solidity100/Solidity51-60.sol\":2108:2113  _bank */\n      dup2\n        /* \"Solidity100/Solidity51-60.sol\":2091:2114  abi.encodePacked(_bank) */\n      add(0x20, mload(0x40))\n      tag_23\n      swap2\n      swap1\n      tag_24\n      jump\t// in\n    tag_23:\n      mload(0x40)\n      0x20\n      dup2\n      dup4\n      sub\n      sub\n      dup2\n      mstore\n      swap1\n      0x40\n      mstore\n        /* \"Solidity100/Solidity51-60.sol\":2081:2115  keccak256(abi.encodePacked(_bank)) */\n      dup1\n      mload\n      swap1\n      0x20\n      add\n      keccak256\n        /* \"Solidity100/Solidity51-60.sol\":2081:2151  keccak256(abi.encodePacked(_bank)) == keccak256(abi.encodePacked(\"A\")) */\n      eq\n        /* \"Solidity100/Solidity51-60.sol\":2081:2233  keccak256(abi.encodePacked(_bank)) == keccak256(abi.encodePacked(\"A\"))... */\n      dup1\n      tag_25\n      jumpi\n      pop\n        /* \"Solidity100/Solidity51-60.sol\":2211:2232  abi.encodePacked(\"B\") */\n      add(0x20, mload(0x40))\n      tag_26\n      swap1\n      tag_27\n      jump\t// in\n    tag_26:\n      mload(0x40)\n      0x20\n      dup2\n      dup4\n      sub\n      sub\n      dup2\n      mstore\n      swap1\n      0x40\n      mstore\n        /* \"Solidity100/Solidity51-60.sol\":2201:2233  keccak256(abi.encodePacked(\"B\")) */\n      dup1\n      mload\n      swap1\n      0x20\n      add\n      keccak256\n        /* \"Solidity100/Solidity51-60.sol\":2190:2195  _bank */\n      dup2\n        /* \"Solidity100/Solidity51-60.sol\":2173:2196  abi.encodePacked(_bank) */\n      add(0x20, mload(0x40))\n      tag_28\n      swap2\n      swap1\n      tag_24\n      jump\t// in\n    tag_28:\n      mload(0x40)\n      0x20\n      dup2\n      dup4\n      sub\n      sub\n      dup2\n      mstore\n      swap1\n      0x40\n      mstore\n        /* \"Solidity100/Solidity51-60.sol\":2163:2197  keccak256(abi.encodePacked(_bank)) */\n      dup1\n      mload\n      swap1\n      0x20\n      add\n      keccak256\n        /* \"Solidity100/Solidity51-60.sol\":2163:2233  keccak256(abi.encodePacked(_bank)) == keccak256(abi.encodePacked(\"B\")) */\n      eq\n        /* \"Solidity100/Solidity51-60.sol\":2081:2233  keccak256(abi.encodePacked(_bank)) == keccak256(abi.encodePacked(\"A\"))... */\n    tag_25:\n        /* \"Solidity100/Solidity51-60.sol\":2081:2315  keccak256(abi.encodePacked(_bank)) == keccak256(abi.encodePacked(\"A\"))... */\n      dup1\n      tag_29\n      jumpi\n      pop\n        /* \"Solidity100/Solidity51-60.sol\":2293:2314  abi.encodePacked(\"C\") */\n      add(0x20, mload(0x40))\n      tag_30\n      swap1\n      tag_31\n      jump\t// in\n    tag_30:\n      mload(0x40)\n      0x20\n      dup2\n      dup4\n      sub\n      sub\n      dup2\n      mstore\n      swap1\n      0x40\n      mstore\n        /* \"Solidity100/Solidity51-60.sol\":2283:2315  keccak256(abi.encodePacked(\"C\")) */\n      dup1\n      mload\n      swap1\n      0x20\n      add\n      keccak256\n        /* \"Solidity100/Solidity51-60.sol\":2272:2277  _bank */\n      dup2\n        /* \"Solidity100/Solidity51-60.sol\":2255:2278  abi.encodePacked(_bank) */\n      add(0x20, mload(0x40))\n      tag_32\n      swap2\n      swap1\n      tag_24\n      jump\t// in\n    tag_32:\n      mload(0x40)\n      0x20\n      dup2\n      dup4\n      sub\n      sub\n      dup2\n      mstore\n      swap1\n      0x40\n      mstore\n        /* \"Solidity100/Solidity51-60.sol\":2245:2279  keccak256(abi.encodePacked(_bank)) */\n      dup1\n      mload\n      swap1\n      0x20\n      add\n      keccak256\n        /* \"Solidity100/Solidity51-60.sol\":2245:2315  keccak256(abi.encodePacked(_bank)) == keccak256(abi.encodePacked(\"C\")) */\n      eq\n        /* \"Solidity100/Solidity51-60.sol\":2081:2315  keccak256(abi.encodePacked(_bank)) == keccak256(abi.encodePacked(\"A\"))... */\n    tag_29:\n        /* \"Solidity100/Solidity51-60.sol\":2081:2397  keccak256(abi.encodePacked(_bank)) == keccak256(abi.encodePacked(\"A\"))... */\n      dup1\n      tag_33\n      jumpi\n      pop\n        /* \"Solidity100/Solidity51-60.sol\":2375:2396  abi.encodePacked(\"D\") */\n      add(0x20, mload(0x40))\n      tag_34\n      swap1\n      tag_35\n      jump\t// in\n    tag_34:\n      mload(0x40)\n      0x20\n      dup2\n      dup4\n      sub\n      sub\n      dup2\n      mstore\n      swap1\n      0x40\n      mstore\n        /* \"Solidity100/Solidity51-60.sol\":2365:2397  keccak256(abi.encodePacked(\"D\")) */\n      dup1\n      mload\n      swap1\n      0x20\n      add\n      keccak256\n        /* \"Solidity100/Solidity51-60.sol\":2354:2359  _bank */\n      dup2\n        /* \"Solidity100/Solidity51-60.sol\":2337:2360  abi.encodePacked(_bank) */\n      add(0x20, mload(0x40))\n      tag_36\n      swap2\n      swap1\n      tag_24\n      jump\t// in\n    tag_36:\n      mload(0x40)\n      0x20\n      dup2\n      dup4\n      sub\n      sub\n      dup2\n      mstore\n      swap1\n      0x40\n      mstore\n        /* \"Solidity100/Solidity51-60.sol\":2327:2361  keccak256(abi.encodePacked(_bank)) */\n      dup1\n      mload\n      swap1\n      0x20\n      add\n      keccak256\n        /* \"Solidity100/Solidity51-60.sol\":2327:2397  keccak256(abi.encodePacked(_bank)) == keccak256(abi.encodePacked(\"D\")) */\n      eq\n        /* \"Solidity100/Solidity51-60.sol\":2081:2397  keccak256(abi.encodePacked(_bank)) == keccak256(abi.encodePacked(\"A\"))... */\n    tag_33:\n        /* \"Solidity100/Solidity51-60.sol\":2081:2479  keccak256(abi.encodePacked(_bank)) == keccak256(abi.encodePacked(\"A\"))... */\n      dup1\n      tag_37\n      jumpi\n      pop\n        /* \"Solidity100/Solidity51-60.sol\":2457:2478  abi.encodePacked(\"E\") */\n      add(0x20, mload(0x40))\n      tag_38\n      swap1\n      tag_39\n      jump\t// in\n    tag_38:\n      mload(0x40)\n      0x20\n      dup2\n      dup4\n      sub\n      sub\n      dup2\n      mstore\n      swap1\n      0x40\n      mstore\n        /* \"Solidity100/Solidity51-60.sol\":2447:2479  keccak256(abi.encodePacked(\"E\")) */\n      dup1\n      mload\n      swap1\n      0x20\n      add\n      keccak256\n        /* \"Solidity100/Solidity51-60.sol\":2436:2441  _bank */\n      dup2\n        /* \"Solidity100/Solidity51-60.sol\":2419:2442  abi.encodePacked(_bank) */\n      add(0x20, mload(0x40))\n      tag_40\n      swap2\n      swap1\n      tag_24\n      jump\t// in\n    tag_40:\n      mload(0x40)\n      0x20\n      dup2\n      dup4\n      sub\n      sub\n      dup2\n      mstore\n      swap1\n      0x40\n      mstore\n        /* \"Solidity100/Solidity51-60.sol\":2409:2443  keccak256(abi.encodePacked(_bank)) */\n      dup1\n      mload\n      swap1\n      0x20\n      add\n      keccak256\n        /* \"Solidity100/Solidity51-60.sol\":2409:2479  keccak256(abi.encodePacked(_bank)) == keccak256(abi.encodePacked(\"E\")) */\n      eq\n        /* \"Solidity100/Solidity51-60.sol\":2081:2479  keccak256(abi.encodePacked(_bank)) == keccak256(abi.encodePacked(\"A\"))... */\n    tag_37:\n        /* \"Solidity100/Solidity51-60.sol\":2073:2497  require(keccak256(abi.encodePacked(_bank)) == keccak256(abi.encodePacked(\"A\"))... */\n      tag_41\n      jumpi\n      mload(0x40)\n      0x08c379a000000000000000000000000000000000000000000000000000000000\n      dup2\n      mstore\n      0x04\n      add\n      tag_42\n      swap1\n      tag_43\n      jump\t// in\n    tag_42:\n      mload(0x40)\n      dup1\n      swap2\n      sub\n      swap1\n      revert\n    tag_41:\n        /* \"Solidity100/Solidity51-60.sol\":2941:2949  balances */\n      0x00\n        /* \"Solidity100/Solidity51-60.sol\":2950:2955  _bank */\n      dup4\n        /* \"Solidity100/Solidity51-60.sol\":2941:2956  balances[_bank] */\n      mload(0x40)\n      tag_45\n      swap2\n      swap1\n      tag_24\n      jump\t// in\n    tag_45:\n      swap1\n      dup2\n      mstore\n      0x20\n      add\n      mload(0x40)\n      dup1\n      swap2\n      sub\n      swap1\n      keccak256\n        /* \"Solidity100/Solidity51-60.sol\":2941:2968  balances[_bank][msg.sender] */\n      0x00\n        /* \"Solidity100/Solidity51-60.sol\":2957:2967  msg.sender */\n      caller\n        /* \"Solidity100/Solidity51-60.sol\":2941:2968  balances[_bank][msg.sender] */\n      0xffffffffffffffffffffffffffffffffffffffff\n      and\n      0xffffffffffffffffffffffffffffffffffffffff\n      and\n      dup2\n      mstore\n      0x20\n      add\n      swap1\n      dup2\n      mstore\n      0x20\n      add\n      0x00\n      keccak256\n      sload\n        /* \"Solidity100/Solidity51-60.sol\":2934:2968  return balances[_bank][msg.sender] */\n      swap2\n      pop\n        /* \"Solidity100/Solidity51-60.sol\":2840:2975  function myBalances(string memory _bank) public view checkBank(_bank) returns(uint) {... */\n      pop\n      swap2\n      swap1\n      pop\n      jump\t// out\n        /* \"Solidity100/Solidity51-60.sol\":2655:2834  function withdraw(string memory _bank, uint _amount) public checkBank(_bank) {... */\n    tag_16:\n        /* \"Solidity100/Solidity51-60.sol\":2725:2730  _bank */\n      dup2\n        /* \"Solidity100/Solidity51-60.sol\":2129:2150  abi.encodePacked(\"A\") */\n      add(0x20, mload(0x40))\n      tag_47\n      swap1\n      tag_22\n      jump\t// in\n    tag_47:\n      mload(0x40)\n      0x20\n      dup2\n      dup4\n      sub\n      sub\n      dup2\n      mstore\n      swap1\n      0x40\n      mstore\n        /* \"Solidity100/Solidity51-60.sol\":2119:2151  keccak256(abi.encodePacked(\"A\")) */\n      dup1\n      mload\n      swap1\n      0x20\n      add\n      keccak256\n        /* \"Solidity100/Solidity51-60.sol\":2108:2113  _bank */\n      dup2\n        /* \"Solidity100/Solidity51-60.sol\":2091:2114  abi.encodePacked(_bank) */\n      add(0x20, mload(0x40))\n      tag_48\n      swap2\n      swap1\n      tag_24\n      jump\t// in\n    tag_48:\n      mload(0x40)\n      0x20\n      dup2\n      dup4\n      sub\n      sub\n      dup2\n      mstore\n      swap1\n      0x40\n      mstore\n        /* \"Solidity100/Solidity51-60.sol\":2081:2115  keccak256(abi.encodePacked(_bank)) */\n      dup1\n      mload\n      swap1\n      0x20\n      add\n      keccak256\n        /* \"Solidity100/Solidity51-60.sol\":2081:2151  keccak256(abi.encodePacked(_bank)) == keccak256(abi.encodePacked(\"A\")) */\n      eq\n        /* \"Solidity100/Solidity51-60.sol\":2081:2233  keccak256(abi.encodePacked(_bank)) == keccak256(abi.encodePacked(\"A\"))... */\n      dup1\n      tag_49\n      jumpi\n      pop\n        /* \"Solidity100/Solidity51-60.sol\":2211:2232  abi.encodePacked(\"B\") */\n      add(0x20, mload(0x40))\n      tag_50\n      swap1\n      tag_27\n      jump\t// in\n    tag_50:\n      mload(0x40)\n      0x20\n      dup2\n      dup4\n      sub\n      sub\n      dup2\n      mstore\n      swap1\n      0x40\n      mstore\n        /* \"Solidity100/Solidity51-60.sol\":2201:2233  keccak256(abi.encodePacked(\"B\")) */\n      dup1\n      mload\n      swap1\n      0x20\n      add\n      keccak256\n        /* \"Solidity100/Solidity51-60.sol\":2190:2195  _bank */\n      dup2\n        /* \"Solidity100/Solidity51-60.sol\":2173:2196  abi.encodePacked(_bank) */\n      add(0x20, mload(0x40))\n      tag_51\n      swap2\n      swap1\n      tag_24\n      jump\t// in\n    tag_51:\n      mload(0x40)\n      0x20\n      dup2\n      dup4\n      sub\n      sub\n      dup2\n      mstore\n      swap1\n      0x40\n      mstore\n        /* \"Solidity100/Solidity51-60.sol\":2163:2197  keccak256(abi.encodePacked(_bank)) */\n      dup1\n      mload\n      swap1\n      0x20\n      add\n      keccak256\n        /* \"Solidity100/Solidity51-60.sol\":2163:2233  keccak256(abi.encodePacked(_bank)) == keccak256(abi.encodePacked(\"B\")) */\n      eq\n        /* \"Solidity100/Solidity51-60.sol\":2081:2233  keccak256(abi.encodePacked(_bank)) == keccak256(abi.encodePacked(\"A\"))... */\n    tag_49:\n        /* \"Solidity100/Solidity51-60.sol\":2081:2315  keccak256(abi.encodePacked(_bank)) == keccak256(abi.encodePacked(\"A\"))... */\n      dup1\n      tag_52\n      jumpi\n      pop\n        /* \"Solidity100/Solidity51-60.sol\":2293:2314  abi.encodePacked(\"C\") */\n      add(0x20, mload(0x40))\n      tag_53\n      swap1\n      tag_31\n      jump\t// in\n    tag_53:\n      mload(0x40)\n      0x20\n      dup2\n      dup4\n      sub\n      sub\n      dup2\n      mstore\n      swap1\n      0x40\n      mstore\n        /* \"Solidity100/Solidity51-60.sol\":2283:2315  keccak256(abi.encodePacked(\"C\")) */\n      dup1\n      mload\n      swap1\n      0x20\n      add\n      keccak256\n        /* \"Solidity100/Solidity51-60.sol\":2272:2277  _bank */\n      dup2\n        /* \"Solidity100/Solidity51-60.sol\":2255:2278  abi.encodePacked(_bank) */\n      add(0x20, mload(0x40))\n      tag_54\n      swap2\n      swap1\n      tag_24\n      jump\t// in\n    tag_54:\n      mload(0x40)\n      0x20\n      dup2\n      dup4\n      sub\n      sub\n      dup2\n      mstore\n      swap1\n      0x40\n      mstore\n        /* \"Solidity100/Solidity51-60.sol\":2245:2279  keccak256(abi.encodePacked(_bank)) */\n      dup1\n      mload\n      swap1\n      0x20\n      add\n      keccak256\n        /* \"Solidity100/Solidity51-60.sol\":2245:2315  keccak256(abi.encodePacked(_bank)) == keccak256(abi.encodePacked(\"C\")) */\n      eq\n        /* \"Solidity100/Solidity51-60.sol\":2081:2315  keccak256(abi.encodePacked(_bank)) == keccak256(abi.encodePacked(\"A\"))... */\n    tag_52:\n        /* \"Solidity100/Solidity51-60.sol\":2081:2397  keccak256(abi.encodePacked(_bank)) == keccak256(abi.encodePacked(\"A\"))... */\n      dup1\n      tag_55\n      jumpi\n      pop\n        /* \"Solidity100/Solidity51-60.sol\":2375:2396  abi.encodePacked(\"D\") */\n      add(0x20, mload(0x40))\n      tag_56\n      swap1\n      tag_35\n      jump\t// in\n    tag_56:\n      mload(0x40)\n      0x20\n      dup2\n      dup4\n      sub\n      sub\n      dup2\n      mstore\n      swap1\n      0x40\n      mstore\n        /* \"Solidity100/Solidity51-60.sol\":2365:2397  keccak256(abi.encodePacked(\"D\")) */\n      dup1\n      mload\n      swap1\n      0x20\n      add\n      keccak256\n        /* \"Solidity100/Solidity51-60.sol\":2354:2359  _bank */\n      dup2\n        /* \"Solidity100/Solidity51-60.sol\":2337:2360  abi.encodePacked(_bank) */\n      add(0x20, mload(0x40))\n      tag_57\n      swap2\n      swap1\n      tag_24\n      jump\t// in\n    tag_57:\n      mload(0x40)\n      0x20\n      dup2\n      dup4\n      sub\n      sub\n      dup2\n      mstore\n      swap1\n      0x40\n      mstore\n        /* \"Solidity100/Solidity51-60.sol\":2327:2361  keccak256(abi.encodePacked(_bank)) */\n      dup1\n      mload\n      swap1\n      0x20\n      add\n      keccak256\n        /* \"Solidity100/Solidity51-60.sol\":2327:2397  keccak256(abi.encodePacked(_bank)) == keccak256(abi.encodePacked(\"D\")) */\n      eq\n        /* \"Solidity100/Solidity51-60.sol\":2081:2397  keccak256(abi.encodePacked(_bank)) == keccak256(abi.encodePacked(\"A\"))... */\n    tag_55:\n        /* \"Solidity100/Solidity51-60.sol\":2081:2479  keccak256(abi.encodePacked(_bank)) == keccak256(abi.encodePacked(\"A\"))... */\n      dup1\n      tag_58\n      jumpi\n      pop\n        /* \"Solidity100/Solidity51-60.sol\":2457:2478  abi.encodePacked(\"E\") */\n      add(0x20, mload(0x40))\n      tag_59\n      swap1\n      tag_39\n      jump\t// in\n    tag_59:\n      mload(0x40)\n      0x20\n      dup2\n      dup4\n      sub\n      sub\n      dup2\n      mstore\n      swap1\n      0x40\n      mstore\n        /* \"Solidity100/Solidity51-60.sol\":2447:2479  keccak256(abi.encodePacked(\"E\")) */\n      dup1\n      mload\n      swap1\n      0x20\n      add\n      keccak256\n        /* \"Solidity100/Solidity51-60.sol\":2436:2441  _bank */\n      dup2\n        /* \"Solidity100/Solidity51-60.sol\":2419:2442  abi.encodePacked(_bank) */\n      add(0x20, mload(0x40))\n      tag_60\n      swap2\n      swap1\n      tag_24\n      jump\t// in\n    tag_60:\n      mload(0x40)\n      0x20\n      dup2\n      dup4\n      sub\n      sub\n      dup2\n      mstore\n      swap1\n      0x40\n      mstore\n        /* \"Solidity100/Solidity51-60.sol\":2409:2443  keccak256(abi.encodePacked(_bank)) */\n      dup1\n      mload\n      swap1\n      0x20\n      add\n      keccak256\n        /* \"Solidity100/Solidity51-60.sol\":2409:2479  keccak256(abi.encodePacked(_bank)) == keccak256(abi.encodePacked(\"E\")) */\n      eq\n        /* \"Solidity100/Solidity51-60.sol\":2081:2479  keccak256(abi.encodePacked(_bank)) == keccak256(abi.encodePacked(\"A\"))... */\n    tag_58:\n        /* \"Solidity100/Solidity51-60.sol\":2073:2497  require(keccak256(abi.encodePacked(_bank)) == keccak256(abi.encodePacked(\"A\"))... */\n      tag_61\n      jumpi\n      mload(0x40)\n      0x08c379a000000000000000000000000000000000000000000000000000000000\n      dup2\n      mstore\n      0x04\n      add\n      tag_62\n      swap1\n      tag_43\n      jump\t// in\n    tag_62:\n      mload(0x40)\n      dup1\n      swap2\n      sub\n      swap1\n      revert\n    tag_61:\n        /* \"Solidity100/Solidity51-60.sol\":2750:2760  msg.sender */\n      caller\n        /* \"Solidity100/Solidity51-60.sol\":2742:2770  payable(msg.sender).transfer */\n      0xffffffffffffffffffffffffffffffffffffffff\n      and\n        /* \"Solidity100/Solidity51-60.sol\":2742:2779  payable(msg.sender).transfer(_amount) */\n      0x08fc\n        /* \"Solidity100/Solidity51-60.sol\":2771:2778  _amount */\n      dup4\n        /* \"Solidity100/Solidity51-60.sol\":2742:2779  payable(msg.sender).transfer(_amount) */\n      swap1\n      dup2\n      iszero\n      mul\n      swap1\n      mload(0x40)\n      0x00\n      mload(0x40)\n      dup1\n      dup4\n      sub\n      dup2\n      dup6\n      dup9\n      dup9\n      call\n      swap4\n      pop\n      pop\n      pop\n      pop\n      iszero\n      dup1\n      iszero\n      tag_65\n      jumpi\n      returndatasize\n      0x00\n      dup1\n      returndatacopy\n      revert(0x00, returndatasize)\n    tag_65:\n      pop\n        /* \"Solidity100/Solidity51-60.sol\":2820:2827  _amount */\n      dup2\n        /* \"Solidity100/Solidity51-60.sol\":2789:2797  balances */\n      0x00\n        /* \"Solidity100/Solidity51-60.sol\":2798:2803  _bank */\n      dup5\n        /* \"Solidity100/Solidity51-60.sol\":2789:2804  balances[_bank] */\n      mload(0x40)\n      tag_66\n      swap2\n      swap1\n      tag_24\n      jump\t// in\n    tag_66:\n      swap1\n      dup2\n      mstore\n      0x20\n      add\n      mload(0x40)\n      dup1\n      swap2\n      sub\n      swap1\n      keccak256\n        /* \"Solidity100/Solidity51-60.sol\":2789:2816  balances[_bank][msg.sender] */\n      0x00\n        /* \"Solidity100/Solidity51-60.sol\":2805:2815  msg.sender */\n      caller\n        /* \"Solidity100/Solidity51-60.sol\":2789:2816  balances[_bank][msg.sender] */\n      0xffffffffffffffffffffffffffffffffffffffff\n      and\n      0xffffffffffffffffffffffffffffffffffffffff\n      and\n      dup2\n      mstore\n      0x20\n      add\n      swap1\n      dup2\n      mstore\n      0x20\n      add\n      0x00\n      keccak256\n      0x00\n        /* \"Solidity100/Solidity51-60.sol\":2789:2827  balances[_bank][msg.sender] -= _amount */\n      dup3\n      dup3\n      sload\n      tag_67\n      swap2\n      swap1\n      tag_68\n      jump\t// in\n    tag_67:\n      swap3\n      pop\n      pop\n      dup2\n      swap1\n      sstore\n      pop\n        /* \"Solidity100/Solidity51-60.sol\":2655:2834  function withdraw(string memory _bank, uint _amount) public checkBank(_bank) {... */\n      pop\n      pop\n      pop\n      jump\t// out\n        /* \"Solidity100/Solidity51-60.sol\":2522:2649  function deposit(string memory _bank) public payable checkBank(_bank) {... */\n    tag_19:\n        /* \"Solidity100/Solidity51-60.sol\":2585:2590  _bank */\n      dup1\n        /* \"Solidity100/Solidity51-60.sol\":2129:2150  abi.encodePacked(\"A\") */\n      add(0x20, mload(0x40))\n      tag_70\n      swap1\n      tag_22\n      jump\t// in\n    tag_70:\n      mload(0x40)\n      0x20\n      dup2\n      dup4\n      sub\n      sub\n      dup2\n      mstore\n      swap1\n      0x40\n      mstore\n        /* \"Solidity100/Solidity51-60.sol\":2119:2151  keccak256(abi.encodePacked(\"A\")) */\n      dup1\n      mload\n      swap1\n      0x20\n      add\n      keccak256\n        /* \"Solidity100/Solidity51-60.sol\":2108:2113  _bank */\n      dup2\n        /* \"Solidity100/Solidity51-60.sol\":2091:2114  abi.encodePacked(_bank) */\n      add(0x20, mload(0x40))\n      tag_71\n      swap2\n      swap1\n      tag_24\n      jump\t// in\n    tag_71:\n      mload(0x40)\n      0x20\n      dup2\n      dup4\n      sub\n      sub\n      dup2\n      mstore\n      swap1\n      0x40\n      mstore\n        /* \"Solidity100/Solidity51-60.sol\":2081:2115  keccak256(abi.encodePacked(_bank)) */\n      dup1\n      mload\n      swap1\n      0x20\n      add\n      keccak256\n        /* \"Solidity100/Solidity51-60.sol\":2081:2151  keccak256(abi.encodePacked(_bank)) == keccak256(abi.encodePacked(\"A\")) */\n      eq\n        /* \"Solidity100/Solidity51-60.sol\":2081:2233  keccak256(abi.encodePacked(_bank)) == keccak256(abi.encodePacked(\"A\"))... */\n      dup1\n      tag_72\n      jumpi\n      pop\n        /* \"Solidity100/Solidity51-60.sol\":2211:2232  abi.encodePacked(\"B\") */\n      add(0x20, mload(0x40))\n      tag_73\n      swap1\n      tag_27\n      jump\t// in\n    tag_73:\n      mload(0x40)\n      0x20\n      dup2\n      dup4\n      sub\n      sub\n      dup2\n      mstore\n      swap1\n      0x40\n      mstore\n        /* \"Solidity100/Solidity51-60.sol\":2201:2233  keccak256(abi.encodePacked(\"B\")) */\n      dup1\n      mload\n      swap1\n      0x20\n      add\n      keccak256\n        /* \"Solidity100/Solidity51-60.sol\":2190:2195  _bank */\n      dup2\n        /* \"Solidity100/Solidity51-60.sol\":2173:2196  abi.encodePacked(_bank) */\n      add(0x20, mload(0x40))\n      tag_74\n      swap2\n      swap1\n      tag_24\n      jump\t// in\n    tag_74:\n      mload(0x40)\n      0x20\n      dup2\n      dup4\n      sub\n      sub\n      dup2\n      mstore\n      swap1\n      0x40\n      mstore\n        /* \"Solidity100/Solidity51-60.sol\":2163:2197  keccak256(abi.encodePacked(_bank)) */\n      dup1\n      mload\n      swap1\n      0x20\n      add\n      keccak256\n        /* \"Solidity100/Solidity51-60.sol\":2163:2233  keccak256(abi.encodePacked(_bank)) == keccak256(abi.encodePacked(\"B\")) */\n      eq\n        /* \"Solidity100/Solidity51-60.sol\":2081:2233  keccak256(abi.encodePacked(_bank)) == keccak256(abi.encodePacked(\"A\"))... */\n    tag_72:\n        /* \"Solidity100/Solidity51-60.sol\":2081:2315  keccak256(abi.encodePacked(_bank)) == keccak256(abi.encodePacked(\"A\"))... */\n      dup1\n      tag_75\n      jumpi\n      pop\n        /* \"Solidity100/Solidity51-60.sol\":2293:2314  abi.encodePacked(\"C\") */\n      add(0x20, mload(0x40))\n      tag_76\n      swap1\n      tag_31\n      jump\t// in\n    tag_76:\n      mload(0x40)\n      0x20\n      dup2\n      dup4\n      sub\n      sub\n      dup2\n      mstore\n      swap1\n      0x40\n      mstore\n        /* \"Solidity100/Solidity51-60.sol\":2283:2315  keccak256(abi.encodePacked(\"C\")) */\n      dup1\n      mload\n      swap1\n      0x20\n      add\n      keccak256\n        /* \"Solidity100/Solidity51-60.sol\":2272:2277  _bank */\n      dup2\n        /* \"Solidity100/Solidity51-60.sol\":2255:2278  abi.encodePacked(_bank) */\n      add(0x20, mload(0x40))\n      tag_77\n      swap2\n      swap1\n      tag_24\n      jump\t// in\n    tag_77:\n      mload(0x40)\n      0x20\n      dup2\n      dup4\n      sub\n      sub\n      dup2\n      mstore\n      swap1\n      0x40\n      mstore\n        /* \"Solidity100/Solidity51-60.sol\":2245:2279  keccak256(abi.encodePacked(_bank)) */\n      dup1\n      mload\n      swap1\n      0x20\n      add\n      keccak256\n        /* \"Solidity100/Solidity51-60.sol\":2245:2315  keccak256(abi.encodePacked(_bank)) == keccak256(abi.encodePacked(\"C\")) */\n      eq\n        /* \"Solidity100/Solidity51-60.sol\":2081:2315  keccak256(abi.encodePacked(_bank)) == keccak256(abi.encodePacked(\"A\"))... */\n    tag_75:\n        /* \"Solidity100/Solidity51-60.sol\":2081:2397  keccak256(abi.encodePacked(_bank)) == keccak256(abi.encodePacked(\"A\"))... */\n      dup1\n      tag_78\n      jumpi\n      pop\n        /* \"Solidity100/Solidity51-60.sol\":2375:2396  abi.encodePacked(\"D\") */\n      add(0x20, mload(0x40))\n      tag_79\n      swap1\n      tag_35\n      jump\t// in\n    tag_79:\n      mload(0x40)\n      0x20\n      dup2\n      dup4\n      sub\n      sub\n      dup2\n      mstore\n      swap1\n      0x40\n      mstore\n        /* \"Solidity100/Solidity51-60.sol\":2365:2397  keccak256(abi.encodePacked(\"D\")) */\n      dup1\n      mload\n      swap1\n      0x20\n      add\n      keccak256\n        /* \"Solidity100/Solidity51-60.sol\":2354:2359  _bank */\n      dup2\n        /* \"Solidity100/Solidity51-60.sol\":2337:2360  abi.encodePacked(_bank) */\n      add(0x20, mload(0x40))\n      tag_80\n      swap2\n      swap1\n      tag_24\n      jump\t// in\n    tag_80:\n      mload(0x40)\n      0x20\n      dup2\n      dup4\n      sub\n      sub\n      dup2\n      mstore\n      swap1\n      0x40\n      mstore\n        /* \"Solidity100/Solidity51-60.sol\":2327:2361  keccak256(abi.encodePacked(_bank)) */\n      dup1\n      mload\n      swap1\n      0x20\n      add\n      keccak256\n        /* \"Solidity100/Solidity51-60.sol\":2327:2397  keccak256(abi.encodePacked(_bank)) == keccak256(abi.encodePacked(\"D\")) */\n      eq\n        /* \"Solidity100/Solidity51-60.sol\":2081:2397  keccak256(abi.encodePacked(_bank)) == keccak256(abi.encodePacked(\"A\"))... */\n    tag_78:\n        /* \"Solidity100/Solidity51-60.sol\":2081:2479  keccak256(abi.encodePacked(_bank)) == keccak256(abi.encodePacked(\"A\"))... */\n      dup1\n      tag_81\n      jumpi\n      pop\n        /* \"Solidity100/Solidity51-60.sol\":2457:2478  abi.encodePacked(\"E\") */\n      add(0x20, mload(0x40))\n      tag_82\n      swap1\n      tag_39\n      jump\t// in\n    tag_82:\n      mload(0x40)\n      0x20\n      dup2\n      dup4\n      sub\n      sub\n      dup2\n      mstore\n      swap1\n      0x40\n      mstore\n        /* \"Solidity100/Solidity51-60.sol\":2447:2479  keccak256(abi.encodePacked(\"E\")) */\n      dup1\n      mload\n      swap1\n      0x20\n      add\n      keccak256\n        /* \"Solidity100/Solidity51-60.sol\":2436:2441  _bank */\n      dup2\n        /* \"Solidity100/Solidity51-60.sol\":2419:2442  abi.encodePacked(_bank) */\n      add(0x20, mload(0x40))\n      tag_83\n      swap2\n      swap1\n      tag_24\n      jump\t// in\n    tag_83:\n      mload(0x40)\n      0x20\n      dup2\n      dup4\n      sub\n      sub\n      dup2\n      mstore\n      swap1\n      0x40\n      mstore\n        /* \"Solidity100/Solidity51-60.sol\":2409:2443  keccak256(abi.encodePacked(_bank)) */\n      dup1\n      mload\n      swap1\n      0x20\n      add\n      keccak256\n        /* \"Solidity100/Solidity51-60.sol\":2409:2479  keccak256(abi.encodePacked(_bank)) == keccak256(abi.encodePacked(\"E\")) */\n      eq\n        /* \"Solidity100/Solidity51-60.sol\":2081:2479  keccak256(abi.encodePacked(_bank)) == keccak256(abi.encodePacked(\"A\"))... */\n    tag_81:\n        /* \"Solidity100/Solidity51-60.sol\":2073:2497  require(keccak256(abi.encodePacked(_bank)) == keccak256(abi.encodePacked(\"A\"))... */\n      tag_84\n      jumpi\n      mload(0x40)\n      0x08c379a000000000000000000000000000000000000000000000000000000000\n      dup2\n      mstore\n      0x04\n      add\n      tag_85\n      swap1\n      tag_43\n      jump\t// in\n    tag_85:\n      mload(0x40)\n      dup1\n      swap2\n      sub\n      swap1\n      revert\n    tag_84:\n        /* \"Solidity100/Solidity51-60.sol\":2633:2642  msg.value */\n      callvalue\n        /* \"Solidity100/Solidity51-60.sol\":2602:2610  balances */\n      0x00\n        /* \"Solidity100/Solidity51-60.sol\":2611:2616  _bank */\n      dup4\n        /* \"Solidity100/Solidity51-60.sol\":2602:2617  balances[_bank] */\n      mload(0x40)\n      tag_87\n      swap2\n      swap1\n      tag_24\n      jump\t// in\n    tag_87:\n      swap1\n      dup2\n      mstore\n      0x20\n      add\n      mload(0x40)\n      dup1\n      swap2\n      sub\n      swap1\n      keccak256\n        /* \"Solidity100/Solidity51-60.sol\":2602:2629  balances[_bank][msg.sender] */\n      0x00\n        /* \"Solidity100/Solidity51-60.sol\":2618:2628  msg.sender */\n      caller\n        /* \"Solidity100/Solidity51-60.sol\":2602:2629  balances[_bank][msg.sender] */\n      0xffffffffffffffffffffffffffffffffffffffff\n      and\n      0xffffffffffffffffffffffffffffffffffffffff\n      and\n      dup2\n      mstore\n      0x20\n      add\n      swap1\n      dup2\n      mstore\n      0x20\n      add\n      0x00\n      keccak256\n      0x00\n        /* \"Solidity100/Solidity51-60.sol\":2602:2642  balances[_bank][msg.sender] += msg.value */\n      dup3\n      dup3\n      sload\n      tag_88\n      swap2\n      swap1\n      tag_89\n      jump\t// in\n    tag_88:\n      swap3\n      pop\n      pop\n      dup2\n      swap1\n      sstore\n      pop\n        /* \"Solidity100/Solidity51-60.sol\":2522:2649  function deposit(string memory _bank) public payable checkBank(_bank) {... */\n      pop\n      pop\n      jump\t// out\n        /* \"#utility.yul\":7:82   */\n    tag_90:\n        /* \"#utility.yul\":40:46   */\n      0x00\n        /* \"#utility.yul\":73:75   */\n      0x40\n        /* \"#utility.yul\":67:76   */\n      mload\n        /* \"#utility.yul\":57:76   */\n      swap1\n      pop\n        /* \"#utility.yul\":7:82   */\n      swap1\n      jump\t// out\n        /* \"#utility.yul\":88:205   */\n    tag_91:\n        /* \"#utility.yul\":197:198   */\n      0x00\n        /* \"#utility.yul\":194:195   */\n      dup1\n        /* \"#utility.yul\":187:199   */\n      revert\n        /* \"#utility.yul\":211:328   */\n    tag_92:\n        /* \"#utility.yul\":320:321   */\n      0x00\n        /* \"#utility.yul\":317:318   */\n      dup1\n        /* \"#utility.yul\":310:322   */\n      revert\n        /* \"#utility.yul\":334:451   */\n    tag_93:\n        /* \"#utility.yul\":443:444   */\n      0x00\n        /* \"#utility.yul\":440:441   */\n      dup1\n        /* \"#utility.yul\":433:445   */\n      revert\n        /* \"#utility.yul\":457:574   */\n    tag_94:\n        /* \"#utility.yul\":566:567   */\n      0x00\n        /* \"#utility.yul\":563:564   */\n      dup1\n        /* \"#utility.yul\":556:568   */\n      revert\n        /* \"#utility.yul\":580:682   */\n    tag_95:\n        /* \"#utility.yul\":621:627   */\n      0x00\n        /* \"#utility.yul\":672:674   */\n      0x1f\n        /* \"#utility.yul\":668:675   */\n      not\n        /* \"#utility.yul\":663:665   */\n      0x1f\n        /* \"#utility.yul\":656:661   */\n      dup4\n        /* \"#utility.yul\":652:666   */\n      add\n        /* \"#utility.yul\":648:676   */\n      and\n        /* \"#utility.yul\":638:676   */\n      swap1\n      pop\n        /* \"#utility.yul\":580:682   */\n      swap2\n      swap1\n      pop\n      jump\t// out\n        /* \"#utility.yul\":688:868   */\n    tag_96:\n        /* \"#utility.yul\":736:813   */\n      0x4e487b7100000000000000000000000000000000000000000000000000000000\n        /* \"#utility.yul\":733:734   */\n      0x00\n        /* \"#utility.yul\":726:814   */\n      mstore\n        /* \"#utility.yul\":833:837   */\n      0x41\n        /* \"#utility.yul\":830:831   */\n      0x04\n        /* \"#utility.yul\":823:838   */\n      mstore\n        /* \"#utility.yul\":857:861   */\n      0x24\n        /* \"#utility.yul\":854:855   */\n      0x00\n        /* \"#utility.yul\":847:862   */\n      revert\n        /* \"#utility.yul\":874:1155   */\n    tag_97:\n        /* \"#utility.yul\":957:984   */\n      tag_134\n        /* \"#utility.yul\":979:983   */\n      dup3\n        /* \"#utility.yul\":957:984   */\n      tag_95\n      jump\t// in\n    tag_134:\n        /* \"#utility.yul\":949:955   */\n      dup2\n        /* \"#utility.yul\":945:985   */\n      add\n        /* \"#utility.yul\":1087:1093   */\n      dup2\n        /* \"#utility.yul\":1075:1085   */\n      dup2\n        /* \"#utility.yul\":1072:1094   */\n      lt\n        /* \"#utility.yul\":1051:1069   */\n      0xffffffffffffffff\n        /* \"#utility.yul\":1039:1049   */\n      dup3\n        /* \"#utility.yul\":1036:1070   */\n      gt\n        /* \"#utility.yul\":1033:1095   */\n      or\n        /* \"#utility.yul\":1030:1118   */\n      iszero\n      tag_135\n      jumpi\n        /* \"#utility.yul\":1098:1116   */\n      tag_136\n      tag_96\n      jump\t// in\n    tag_136:\n        /* \"#utility.yul\":1030:1118   */\n    tag_135:\n        /* \"#utility.yul\":1138:1148   */\n      dup1\n        /* \"#utility.yul\":1134:1136   */\n      0x40\n        /* \"#utility.yul\":1127:1149   */\n      mstore\n        /* \"#utility.yul\":917:1155   */\n      pop\n        /* \"#utility.yul\":874:1155   */\n      pop\n      pop\n      jump\t// out\n        /* \"#utility.yul\":1161:1290   */\n    tag_98:\n        /* \"#utility.yul\":1195:1201   */\n      0x00\n        /* \"#utility.yul\":1222:1242   */\n      tag_138\n      tag_90\n      jump\t// in\n    tag_138:\n        /* \"#utility.yul\":1212:1242   */\n      swap1\n      pop\n        /* \"#utility.yul\":1251:1284   */\n      tag_139\n        /* \"#utility.yul\":1279:1283   */\n      dup3\n        /* \"#utility.yul\":1271:1277   */\n      dup3\n        /* \"#utility.yul\":1251:1284   */\n      tag_97\n      jump\t// in\n    tag_139:\n        /* \"#utility.yul\":1161:1290   */\n      swap2\n      swap1\n      pop\n      jump\t// out\n        /* \"#utility.yul\":1296:1604   */\n    tag_99:\n        /* \"#utility.yul\":1358:1362   */\n      0x00\n        /* \"#utility.yul\":1448:1466   */\n      0xffffffffffffffff\n        /* \"#utility.yul\":1440:1446   */\n      dup3\n        /* \"#utility.yul\":1437:1467   */\n      gt\n        /* \"#utility.yul\":1434:1490   */\n      iszero\n      tag_141\n      jumpi\n        /* \"#utility.yul\":1470:1488   */\n      tag_142\n      tag_96\n      jump\t// in\n    tag_142:\n        /* \"#utility.yul\":1434:1490   */\n    tag_141:\n        /* \"#utility.yul\":1508:1537   */\n      tag_143\n        /* \"#utility.yul\":1530:1536   */\n      dup3\n        /* \"#utility.yul\":1508:1537   */\n      tag_95\n      jump\t// in\n    tag_143:\n        /* \"#utility.yul\":1500:1537   */\n      swap1\n      pop\n        /* \"#utility.yul\":1592:1596   */\n      0x20\n        /* \"#utility.yul\":1586:1590   */\n      dup2\n        /* \"#utility.yul\":1582:1597   */\n      add\n        /* \"#utility.yul\":1574:1597   */\n      swap1\n      pop\n        /* \"#utility.yul\":1296:1604   */\n      swap2\n      swap1\n      pop\n      jump\t// out\n        /* \"#utility.yul\":1610:1758   */\n    tag_100:\n        /* \"#utility.yul\":1708:1714   */\n      dup3\n        /* \"#utility.yul\":1703:1706   */\n      dup2\n        /* \"#utility.yul\":1698:1701   */\n      dup4\n        /* \"#utility.yul\":1685:1715   */\n      calldatacopy\n        /* \"#utility.yul\":1749:1750   */\n      0x00\n        /* \"#utility.yul\":1740:1746   */\n      dup4\n        /* \"#utility.yul\":1735:1738   */\n      dup4\n        /* \"#utility.yul\":1731:1747   */\n      add\n        /* \"#utility.yul\":1724:1751   */\n      mstore\n        /* \"#utility.yul\":1610:1758   */\n      pop\n      pop\n      pop\n      jump\t// out\n        /* \"#utility.yul\":1764:2189   */\n    tag_101:\n        /* \"#utility.yul\":1842:1847   */\n      0x00\n        /* \"#utility.yul\":1867:1933   */\n      tag_146\n        /* \"#utility.yul\":1883:1932   */\n      tag_147\n        /* \"#utility.yul\":1925:1931   */\n      dup5\n        /* \"#utility.yul\":1883:1932   */\n      tag_99\n      jump\t// in\n    tag_147:\n        /* \"#utility.yul\":1867:1933   */\n      tag_98\n      jump\t// in\n    tag_146:\n        /* \"#utility.yul\":1858:1933   */\n      swap1\n      pop\n        /* \"#utility.yul\":1956:1962   */\n      dup3\n        /* \"#utility.yul\":1949:1954   */\n      dup2\n        /* \"#utility.yul\":1942:1963   */\n      mstore\n        /* \"#utility.yul\":1994:1998   */\n      0x20\n        /* \"#utility.yul\":1987:1992   */\n      dup2\n        /* \"#utility.yul\":1983:1999   */\n      add\n        /* \"#utility.yul\":2032:2035   */\n      dup5\n        /* \"#utility.yul\":2023:2029   */\n      dup5\n        /* \"#utility.yul\":2018:2021   */\n      dup5\n        /* \"#utility.yul\":2014:2030   */\n      add\n        /* \"#utility.yul\":2011:2036   */\n      gt\n        /* \"#utility.yul\":2008:2120   */\n      iszero\n      tag_148\n      jumpi\n        /* \"#utility.yul\":2039:2118   */\n      tag_149\n      tag_94\n      jump\t// in\n    tag_149:\n        /* \"#utility.yul\":2008:2120   */\n    tag_148:\n        /* \"#utility.yul\":2129:2183   */\n      tag_150\n        /* \"#utility.yul\":2176:2182   */\n      dup5\n        /* \"#utility.yul\":2171:2174   */\n      dup3\n        /* \"#utility.yul\":2166:2169   */\n      dup6\n        /* \"#utility.yul\":2129:2183   */\n      tag_100\n      jump\t// in\n    tag_150:\n        /* \"#utility.yul\":1848:2189   */\n      pop\n        /* \"#utility.yul\":1764:2189   */\n      swap4\n      swap3\n      pop\n      pop\n      pop\n      jump\t// out\n        /* \"#utility.yul\":2209:2549   */\n    tag_102:\n        /* \"#utility.yul\":2265:2270   */\n      0x00\n        /* \"#utility.yul\":2314:2317   */\n      dup3\n        /* \"#utility.yul\":2307:2311   */\n      0x1f\n        /* \"#utility.yul\":2299:2305   */\n      dup4\n        /* \"#utility.yul\":2295:2312   */\n      add\n        /* \"#utility.yul\":2291:2318   */\n      slt\n        /* \"#utility.yul\":2281:2403   */\n      tag_152\n      jumpi\n        /* \"#utility.yul\":2322:2401   */\n      tag_153\n      tag_93\n      jump\t// in\n    tag_153:\n        /* \"#utility.yul\":2281:2403   */\n    tag_152:\n        /* \"#utility.yul\":2439:2445   */\n      dup2\n        /* \"#utility.yul\":2426:2446   */\n      calldataload\n        /* \"#utility.yul\":2464:2543   */\n      tag_154\n        /* \"#utility.yul\":2539:2542   */\n      dup5\n        /* \"#utility.yul\":2531:2537   */\n      dup3\n        /* \"#utility.yul\":2524:2528   */\n      0x20\n        /* \"#utility.yul\":2516:2522   */\n      dup7\n        /* \"#utility.yul\":2512:2529   */\n      add\n        /* \"#utility.yul\":2464:2543   */\n      tag_101\n      jump\t// in\n    tag_154:\n        /* \"#utility.yul\":2455:2543   */\n      swap2\n      pop\n        /* \"#utility.yul\":2271:2549   */\n      pop\n        /* \"#utility.yul\":2209:2549   */\n      swap3\n      swap2\n      pop\n      pop\n      jump\t// out\n        /* \"#utility.yul\":2555:3064   */\n    tag_8:\n        /* \"#utility.yul\":2624:2630   */\n      0x00\n        /* \"#utility.yul\":2673:2675   */\n      0x20\n        /* \"#utility.yul\":2661:2670   */\n      dup3\n        /* \"#utility.yul\":2652:2659   */\n      dup5\n        /* \"#utility.yul\":2648:2671   */\n      sub\n        /* \"#utility.yul\":2644:2676   */\n      slt\n        /* \"#utility.yul\":2641:2760   */\n      iszero\n      tag_156\n      jumpi\n        /* \"#utility.yul\":2679:2758   */\n      tag_157\n      tag_91\n      jump\t// in\n    tag_157:\n        /* \"#utility.yul\":2641:2760   */\n    tag_156:\n        /* \"#utility.yul\":2827:2828   */\n      0x00\n        /* \"#utility.yul\":2816:2825   */\n      dup3\n        /* \"#utility.yul\":2812:2829   */\n      add\n        /* \"#utility.yul\":2799:2830   */\n      calldataload\n        /* \"#utility.yul\":2857:2875   */\n      0xffffffffffffffff\n        /* \"#utility.yul\":2849:2855   */\n      dup2\n        /* \"#utility.yul\":2846:2876   */\n      gt\n        /* \"#utility.yul\":2843:2960   */\n      iszero\n      tag_158\n      jumpi\n        /* \"#utility.yul\":2879:2958   */\n      tag_159\n      tag_92\n      jump\t// in\n    tag_159:\n        /* \"#utility.yul\":2843:2960   */\n    tag_158:\n        /* \"#utility.yul\":2984:3047   */\n      tag_160\n        /* \"#utility.yul\":3039:3046   */\n      dup5\n        /* \"#utility.yul\":3030:3036   */\n      dup3\n        /* \"#utility.yul\":3019:3028   */\n      dup6\n        /* \"#utility.yul\":3015:3037   */\n      add\n        /* \"#utility.yul\":2984:3047   */\n      tag_102\n      jump\t// in\n    tag_160:\n        /* \"#utility.yul\":2974:3047   */\n      swap2\n      pop\n        /* \"#utility.yul\":2770:3057   */\n      pop\n        /* \"#utility.yul\":2555:3064   */\n      swap3\n      swap2\n      pop\n      pop\n      jump\t// out\n        /* \"#utility.yul\":3070:3147   */\n    tag_103:\n        /* \"#utility.yul\":3107:3114   */\n      0x00\n        /* \"#utility.yul\":3136:3141   */\n      dup2\n        /* \"#utility.yul\":3125:3141   */\n      swap1\n      pop\n        /* \"#utility.yul\":3070:3147   */\n      swap2\n      swap1\n      pop\n      jump\t// out\n        /* \"#utility.yul\":3153:3271   */\n    tag_104:\n        /* \"#utility.yul\":3240:3264   */\n      tag_163\n        /* \"#utility.yul\":3258:3263   */\n      dup2\n        /* \"#utility.yul\":3240:3264   */\n      tag_103\n      jump\t// in\n    tag_163:\n        /* \"#utility.yul\":3235:3238   */\n      dup3\n        /* \"#utility.yul\":3228:3265   */\n      mstore\n        /* \"#utility.yul\":3153:3271   */\n      pop\n      pop\n      jump\t// out\n        /* \"#utility.yul\":3277:3499   */\n    tag_11:\n        /* \"#utility.yul\":3370:3374   */\n      0x00\n        /* \"#utility.yul\":3408:3410   */\n      0x20\n        /* \"#utility.yul\":3397:3406   */\n      dup3\n        /* \"#utility.yul\":3393:3411   */\n      add\n        /* \"#utility.yul\":3385:3411   */\n      swap1\n      pop\n        /* \"#utility.yul\":3421:3492   */\n      tag_165\n        /* \"#utility.yul\":3489:3490   */\n      0x00\n        /* \"#utility.yul\":3478:3487   */\n      dup4\n        /* \"#utility.yul\":3474:3491   */\n      add\n        /* \"#utility.yul\":3465:3471   */\n      dup5\n        /* \"#utility.yul\":3421:3492   */\n      tag_104\n      jump\t// in\n    tag_165:\n        /* \"#utility.yul\":3277:3499   */\n      swap3\n      swap2\n      pop\n      pop\n      jump\t// out\n        /* \"#utility.yul\":3505:3627   */\n    tag_105:\n        /* \"#utility.yul\":3578:3602   */\n      tag_167\n        /* \"#utility.yul\":3596:3601   */\n      dup2\n        /* \"#utility.yul\":3578:3602   */\n      tag_103\n      jump\t// in\n    tag_167:\n        /* \"#utility.yul\":3571:3576   */\n      dup2\n        /* \"#utility.yul\":3568:3603   */\n      eq\n        /* \"#utility.yul\":3558:3621   */\n      tag_168\n      jumpi\n        /* \"#utility.yul\":3617:3618   */\n      0x00\n        /* \"#utility.yul\":3614:3615   */\n      dup1\n        /* \"#utility.yul\":3607:3619   */\n      revert\n        /* \"#utility.yul\":3558:3621   */\n    tag_168:\n        /* \"#utility.yul\":3505:3627   */\n      pop\n      jump\t// out\n        /* \"#utility.yul\":3633:3772   */\n    tag_106:\n        /* \"#utility.yul\":3679:3684   */\n      0x00\n        /* \"#utility.yul\":3717:3723   */\n      dup2\n        /* \"#utility.yul\":3704:3724   */\n      calldataload\n        /* \"#utility.yul\":3695:3724   */\n      swap1\n      pop\n        /* \"#utility.yul\":3733:3766   */\n      tag_170\n        /* \"#utility.yul\":3760:3765   */\n      dup2\n        /* \"#utility.yul\":3733:3766   */\n      tag_105\n      jump\t// in\n    tag_170:\n        /* \"#utility.yul\":3633:3772   */\n      swap3\n      swap2\n      pop\n      pop\n      jump\t// out\n        /* \"#utility.yul\":3778:4432   */\n    tag_15:\n        /* \"#utility.yul\":3856:3862   */\n      0x00\n        /* \"#utility.yul\":3864:3870   */\n      dup1\n        /* \"#utility.yul\":3913:3915   */\n      0x40\n        /* \"#utility.yul\":3901:3910   */\n      dup4\n        /* \"#utility.yul\":3892:3899   */\n      dup6\n        /* \"#utility.yul\":3888:3911   */\n      sub\n        /* \"#utility.yul\":3884:3916   */\n      slt\n        /* \"#utility.yul\":3881:4000   */\n      iszero\n      tag_172\n      jumpi\n        /* \"#utility.yul\":3919:3998   */\n      tag_173\n      tag_91\n      jump\t// in\n    tag_173:\n        /* \"#utility.yul\":3881:4000   */\n    tag_172:\n        /* \"#utility.yul\":4067:4068   */\n      0x00\n        /* \"#utility.yul\":4056:4065   */\n      dup4\n        /* \"#utility.yul\":4052:4069   */\n      add\n        /* \"#utility.yul\":4039:4070   */\n      calldataload\n        /* \"#utility.yul\":4097:4115   */\n      0xffffffffffffffff\n        /* \"#utility.yul\":4089:4095   */\n      dup2\n        /* \"#utility.yul\":4086:4116   */\n      gt\n        /* \"#utility.yul\":4083:4200   */\n      iszero\n      tag_174\n      jumpi\n        /* \"#utility.yul\":4119:4198   */\n      tag_175\n      tag_92\n      jump\t// in\n    tag_175:\n        /* \"#utility.yul\":4083:4200   */\n    tag_174:\n        /* \"#utility.yul\":4224:4287   */\n      tag_176\n        /* \"#utility.yul\":4279:4286   */\n      dup6\n        /* \"#utility.yul\":4270:4276   */\n      dup3\n        /* \"#utility.yul\":4259:4268   */\n      dup7\n        /* \"#utility.yul\":4255:4277   */\n      add\n        /* \"#utility.yul\":4224:4287   */\n      tag_102\n      jump\t// in\n    tag_176:\n        /* \"#utility.yul\":4214:4287   */\n      swap3\n      pop\n        /* \"#utility.yul\":4010:4297   */\n      pop\n        /* \"#utility.yul\":4336:4338   */\n      0x20\n        /* \"#utility.yul\":4362:4415   */\n      tag_177\n        /* \"#utility.yul\":4407:4414   */\n      dup6\n        /* \"#utility.yul\":4398:4404   */\n      dup3\n        /* \"#utility.yul\":4387:4396   */\n      dup7\n        /* \"#utility.yul\":4383:4405   */\n      add\n        /* \"#utility.yul\":4362:4415   */\n      tag_106\n      jump\t// in\n    tag_177:\n        /* \"#utility.yul\":4352:4415   */\n      swap2\n      pop\n        /* \"#utility.yul\":4307:4425   */\n      pop\n        /* \"#utility.yul\":3778:4432   */\n      swap3\n      pop\n      swap3\n      swap1\n      pop\n      jump\t// out\n        /* \"#utility.yul\":4438:4586   */\n    tag_107:\n        /* \"#utility.yul\":4540:4551   */\n      0x00\n        /* \"#utility.yul\":4577:4580   */\n      dup2\n        /* \"#utility.yul\":4562:4580   */\n      swap1\n      pop\n        /* \"#utility.yul\":4438:4586   */\n      swap3\n      swap2\n      pop\n      pop\n      jump\t// out\n        /* \"#utility.yul\":4592:4743   */\n    tag_108:\n        /* \"#utility.yul\":4732:4735   */\n      0x4100000000000000000000000000000000000000000000000000000000000000\n        /* \"#utility.yul\":4728:4729   */\n      0x00\n        /* \"#utility.yul\":4720:4726   */\n      dup3\n        /* \"#utility.yul\":4716:4730   */\n      add\n        /* \"#utility.yul\":4709:4736   */\n      mstore\n        /* \"#utility.yul\":4592:4743   */\n      pop\n      jump\t// out\n        /* \"#utility.yul\":4749:5149   */\n    tag_109:\n        /* \"#utility.yul\":4909:4912   */\n      0x00\n        /* \"#utility.yul\":4930:5014   */\n      tag_181\n        /* \"#utility.yul\":5012:5013   */\n      0x01\n        /* \"#utility.yul\":5007:5010   */\n      dup4\n        /* \"#utility.yul\":4930:5014   */\n      tag_107\n      jump\t// in\n    tag_181:\n        /* \"#utility.yul\":4923:5014   */\n      swap2\n      pop\n        /* \"#utility.yul\":5023:5116   */\n      tag_182\n        /* \"#utility.yul\":5112:5115   */\n      dup3\n        /* \"#utility.yul\":5023:5116   */\n      tag_108\n      jump\t// in\n    tag_182:\n        /* \"#utility.yul\":5141:5142   */\n      0x01\n        /* \"#utility.yul\":5136:5139   */\n      dup3\n        /* \"#utility.yul\":5132:5143   */\n      add\n        /* \"#utility.yul\":5125:5143   */\n      swap1\n      pop\n        /* \"#utility.yul\":4749:5149   */\n      swap2\n      swap1\n      pop\n      jump\t// out\n        /* \"#utility.yul\":5155:5536   */\n    tag_22:\n        /* \"#utility.yul\":5340:5343   */\n      0x00\n        /* \"#utility.yul\":5362:5510   */\n      tag_184\n        /* \"#utility.yul\":5506:5509   */\n      dup3\n        /* \"#utility.yul\":5362:5510   */\n      tag_109\n      jump\t// in\n    tag_184:\n        /* \"#utility.yul\":5355:5510   */\n      swap2\n      pop\n        /* \"#utility.yul\":5527:5530   */\n      dup2\n        /* \"#utility.yul\":5520:5530   */\n      swap1\n      pop\n        /* \"#utility.yul\":5155:5536   */\n      swap2\n      swap1\n      pop\n      jump\t// out\n        /* \"#utility.yul\":5542:5641   */\n    tag_110:\n        /* \"#utility.yul\":5594:5600   */\n      0x00\n        /* \"#utility.yul\":5628:5633   */\n      dup2\n        /* \"#utility.yul\":5622:5634   */\n      mload\n        /* \"#utility.yul\":5612:5634   */\n      swap1\n      pop\n        /* \"#utility.yul\":5542:5641   */\n      swap2\n      swap1\n      pop\n      jump\t// out\n        /* \"#utility.yul\":5647:5786   */\n    tag_111:\n        /* \"#utility.yul\":5736:5742   */\n      dup3\n        /* \"#utility.yul\":5731:5734   */\n      dup2\n        /* \"#utility.yul\":5726:5729   */\n      dup4\n        /* \"#utility.yul\":5720:5743   */\n      mcopy\n        /* \"#utility.yul\":5777:5778   */\n      0x00\n        /* \"#utility.yul\":5768:5774   */\n      dup4\n        /* \"#utility.yul\":5763:5766   */\n      dup4\n        /* \"#utility.yul\":5759:5775   */\n      add\n        /* \"#utility.yul\":5752:5779   */\n      mstore\n        /* \"#utility.yul\":5647:5786   */\n      pop\n      pop\n      pop\n      jump\t// out\n        /* \"#utility.yul\":5792:6182   */\n    tag_112:\n        /* \"#utility.yul\":5898:5901   */\n      0x00\n        /* \"#utility.yul\":5926:5965   */\n      tag_188\n        /* \"#utility.yul\":5959:5964   */\n      dup3\n        /* \"#utility.yul\":5926:5965   */\n      tag_110\n      jump\t// in\n    tag_188:\n        /* \"#utility.yul\":5981:6070   */\n      tag_189\n        /* \"#utility.yul\":6063:6069   */\n      dup2\n        /* \"#utility.yul\":6058:6061   */\n      dup6\n        /* \"#utility.yul\":5981:6070   */\n      tag_107\n      jump\t// in\n    tag_189:\n        /* \"#utility.yul\":5974:6070   */\n      swap4\n      pop\n        /* \"#utility.yul\":6079:6144   */\n      tag_190\n        /* \"#utility.yul\":6137:6143   */\n      dup2\n        /* \"#utility.yul\":6132:6135   */\n      dup6\n        /* \"#utility.yul\":6125:6129   */\n      0x20\n        /* \"#utility.yul\":6118:6123   */\n      dup7\n        /* \"#utility.yul\":6114:6130   */\n      add\n        /* \"#utility.yul\":6079:6144   */\n      tag_111\n      jump\t// in\n    tag_190:\n        /* \"#utility.yul\":6169:6175   */\n      dup1\n        /* \"#utility.yul\":6164:6167   */\n      dup5\n        /* \"#utility.yul\":6160:6176   */\n      add\n        /* \"#utility.yul\":6153:6176   */\n      swap2\n      pop\n        /* \"#utility.yul\":5902:6182   */\n      pop\n        /* \"#utility.yul\":5792:6182   */\n      swap3\n      swap2\n      pop\n      pop\n      jump\t// out\n        /* \"#utility.yul\":6188:6463   */\n    tag_24:\n        /* \"#utility.yul\":6320:6323   */\n      0x00\n        /* \"#utility.yul\":6342:6437   */\n      tag_192\n        /* \"#utility.yul\":6433:6436   */\n      dup3\n        /* \"#utility.yul\":6424:6430   */\n      dup5\n        /* \"#utility.yul\":6342:6437   */\n      tag_112\n      jump\t// in\n    tag_192:\n        /* \"#utility.yul\":6335:6437   */\n      swap2\n      pop\n        /* \"#utility.yul\":6454:6457   */\n      dup2\n        /* \"#utility.yul\":6447:6457   */\n      swap1\n      pop\n        /* \"#utility.yul\":6188:6463   */\n      swap3\n      swap2\n      pop\n      pop\n      jump\t// out\n        /* \"#utility.yul\":6469:6620   */\n    tag_113:\n        /* \"#utility.yul\":6609:6612   */\n      0x4200000000000000000000000000000000000000000000000000000000000000\n        /* \"#utility.yul\":6605:6606   */\n      0x00\n        /* \"#utility.yul\":6597:6603   */\n      dup3\n        /* \"#utility.yul\":6593:6607   */\n      add\n        /* \"#utility.yul\":6586:6613   */\n      mstore\n        /* \"#utility.yul\":6469:6620   */\n      pop\n      jump\t// out\n        /* \"#utility.yul\":6626:7026   */\n    tag_114:\n        /* \"#utility.yul\":6786:6789   */\n      0x00\n        /* \"#utility.yul\":6807:6891   */\n      tag_195\n        /* \"#utility.yul\":6889:6890   */\n      0x01\n        /* \"#utility.yul\":6884:6887   */\n      dup4\n        /* \"#utility.yul\":6807:6891   */\n      tag_107\n      jump\t// in\n    tag_195:\n        /* \"#utility.yul\":6800:6891   */\n      swap2\n      pop\n        /* \"#utility.yul\":6900:6993   */\n      tag_196\n        /* \"#utility.yul\":6989:6992   */\n      dup3\n        /* \"#utility.yul\":6900:6993   */\n      tag_113\n      jump\t// in\n    tag_196:\n        /* \"#utility.yul\":7018:7019   */\n      0x01\n        /* \"#utility.yul\":7013:7016   */\n      dup3\n        /* \"#utility.yul\":7009:7020   */\n      add\n        /* \"#utility.yul\":7002:7020   */\n      swap1\n      pop\n        /* \"#utility.yul\":6626:7026   */\n      swap2\n      swap1\n      pop\n      jump\t// out\n        /* \"#utility.yul\":7032:7413   */\n    tag_27:\n        /* \"#utility.yul\":7217:7220   */\n      0x00\n        /* \"#utility.yul\":7239:7387   */\n      tag_198\n        /* \"#utility.yul\":7383:7386   */\n      dup3\n        /* \"#utility.yul\":7239:7387   */\n      tag_114\n      jump\t// in\n    tag_198:\n        /* \"#utility.yul\":7232:7387   */\n      swap2\n      pop\n        /* \"#utility.yul\":7404:7407   */\n      dup2\n        /* \"#utility.yul\":7397:7407   */\n      swap1\n      pop\n        /* \"#utility.yul\":7032:7413   */\n      swap2\n      swap1\n      pop\n      jump\t// out\n        /* \"#utility.yul\":7419:7570   */\n    tag_115:\n        /* \"#utility.yul\":7559:7562   */\n      0x4300000000000000000000000000000000000000000000000000000000000000\n        /* \"#utility.yul\":7555:7556   */\n      0x00\n        /* \"#utility.yul\":7547:7553   */\n      dup3\n        /* \"#utility.yul\":7543:7557   */\n      add\n        /* \"#utility.yul\":7536:7563   */\n      mstore\n        /* \"#utility.yul\":7419:7570   */\n      pop\n      jump\t// out\n        /* \"#utility.yul\":7576:7976   */\n    tag_116:\n        /* \"#utility.yul\":7736:7739   */\n      0x00\n        /* \"#utility.yul\":7757:7841   */\n      tag_201\n        /* \"#utility.yul\":7839:7840   */\n      0x01\n        /* \"#utility.yul\":7834:7837   */\n      dup4\n        /* \"#utility.yul\":7757:7841   */\n      tag_107\n      jump\t// in\n    tag_201:\n        /* \"#utility.yul\":7750:7841   */\n      swap2\n      pop\n        /* \"#utility.yul\":7850:7943   */\n      tag_202\n        /* \"#utility.yul\":7939:7942   */\n      dup3\n        /* \"#utility.yul\":7850:7943   */\n      tag_115\n      jump\t// in\n    tag_202:\n        /* \"#utility.yul\":7968:7969   */\n      0x01\n        /* \"#utility.yul\":7963:7966   */\n      dup3\n        /* \"#utility.yul\":7959:7970   */\n      add\n        /* \"#utility.yul\":7952:7970   */\n      swap1\n      pop\n        /* \"#utility.yul\":7576:7976   */\n      swap2\n      swap1\n      pop\n      jump\t// out\n        /* \"#utility.yul\":7982:8363   */\n    tag_31:\n        /* \"#utility.yul\":8167:8170   */\n      0x00\n        /* \"#utility.yul\":8189:8337   */\n      tag_204\n        /* \"#utility.yul\":8333:8336   */\n      dup3\n        /* \"#utility.yul\":8189:8337   */\n      tag_116\n      jump\t// in\n    tag_204:\n        /* \"#utility.yul\":8182:8337   */\n      swap2\n      pop\n        /* \"#utility.yul\":8354:8357   */\n      dup2\n        /* \"#utility.yul\":8347:8357   */\n      swap1\n      pop\n        /* \"#utility.yul\":7982:8363   */\n      swap2\n      swap1\n      pop\n      jump\t// out\n        /* \"#utility.yul\":8369:8520   */\n    tag_117:\n        /* \"#utility.yul\":8509:8512   */\n      0x4400000000000000000000000000000000000000000000000000000000000000\n        /* \"#utility.yul\":8505:8506   */\n      0x00\n        /* \"#utility.yul\":8497:8503   */\n      dup3\n        /* \"#utility.yul\":8493:8507   */\n      add\n        /* \"#utility.yul\":8486:8513   */\n      mstore\n        /* \"#utility.yul\":8369:8520   */\n      pop\n      jump\t// out\n        /* \"#utility.yul\":8526:8926   */\n    tag_118:\n        /* \"#utility.yul\":8686:8689   */\n      0x00\n        /* \"#utility.yul\":8707:8791   */\n      tag_207\n        /* \"#utility.yul\":8789:8790   */\n      0x01\n        /* \"#utility.yul\":8784:8787   */\n      dup4\n        /* \"#utility.yul\":8707:8791   */\n      tag_107\n      jump\t// in\n    tag_207:\n        /* \"#utility.yul\":8700:8791   */\n      swap2\n      pop\n        /* \"#utility.yul\":8800:8893   */\n      tag_208\n        /* \"#utility.yul\":8889:8892   */\n      dup3\n        /* \"#utility.yul\":8800:8893   */\n      tag_117\n      jump\t// in\n    tag_208:\n        /* \"#utility.yul\":8918:8919   */\n      0x01\n        /* \"#utility.yul\":8913:8916   */\n      dup3\n        /* \"#utility.yul\":8909:8920   */\n      add\n        /* \"#utility.yul\":8902:8920   */\n      swap1\n      pop\n        /* \"#utility.yul\":8526:8926   */\n      swap2\n      swap1\n      pop\n      jump\t// out\n        /* \"#utility.yul\":8932:9313   */\n    tag_35:\n        /* \"#utility.yul\":9117:9120   */\n      0x00\n        /* \"#utility.yul\":9139:9287   */\n      tag_210\n        /* \"#utility.yul\":9283:9286   */\n      dup3\n        /* \"#utility.yul\":9139:9287   */\n      tag_118\n      jump\t// in\n    tag_210:\n        /* \"#utility.yul\":9132:9287   */\n      swap2\n      pop\n        /* \"#utility.yul\":9304:9307   */\n      dup2\n        /* \"#utility.yul\":9297:9307   */\n      swap1\n      pop\n        /* \"#utility.yul\":8932:9313   */\n      swap2\n      swap1\n      pop\n      jump\t// out\n        /* \"#utility.yul\":9319:9470   */\n    tag_119:\n        /* \"#utility.yul\":9459:9462   */\n      0x4500000000000000000000000000000000000000000000000000000000000000\n        /* \"#utility.yul\":9455:9456   */\n      0x00\n        /* \"#utility.yul\":9447:9453   */\n      dup3\n        /* \"#utility.yul\":9443:9457   */\n      add\n        /* \"#utility.yul\":9436:9463   */\n      mstore\n        /* \"#utility.yul\":9319:9470   */\n      pop\n      jump\t// out\n        /* \"#utility.yul\":9476:9876   */\n    tag_120:\n        /* \"#utility.yul\":9636:9639   */\n      0x00\n        /* \"#utility.yul\":9657:9741   */\n      tag_213\n        /* \"#utility.yul\":9739:9740   */\n      0x01\n        /* \"#utility.yul\":9734:9737   */\n      dup4\n        /* \"#utility.yul\":9657:9741   */\n      tag_107\n      jump\t// in\n    tag_213:\n        /* \"#utility.yul\":9650:9741   */\n      swap2\n      pop\n        /* \"#utility.yul\":9750:9843   */\n      tag_214\n        /* \"#utility.yul\":9839:9842   */\n      dup3\n        /* \"#utility.yul\":9750:9843   */\n      tag_119\n      jump\t// in\n    tag_214:\n        /* \"#utility.yul\":9868:9869   */\n      0x01\n        /* \"#utility.yul\":9863:9866   */\n      dup3\n        /* \"#utility.yul\":9859:9870   */\n      add\n        /* \"#utility.yul\":9852:9870   */\n      swap1\n      pop\n        /* \"#utility.yul\":9476:9876   */\n      swap2\n      swap1\n      pop\n      jump\t// out\n        /* \"#utility.yul\":9882:10263   */\n    tag_39:\n        /* \"#utility.yul\":10067:10070   */\n      0x00\n        /* \"#utility.yul\":10089:10237   */\n      tag_216\n        /* \"#utility.yul\":10233:10236   */\n      dup3\n        /* \"#utility.yul\":10089:10237   */\n      tag_120\n      jump\t// in\n    tag_216:\n        /* \"#utility.yul\":10082:10237   */\n      swap2\n      pop\n        /* \"#utility.yul\":10254:10257   */\n      dup2\n        /* \"#utility.yul\":10247:10257   */\n      swap1\n      pop\n        /* \"#utility.yul\":9882:10263   */\n      swap2\n      swap1\n      pop\n      jump\t// out\n        /* \"#utility.yul\":10269:10438   */\n    tag_121:\n        /* \"#utility.yul\":10353:10364   */\n      0x00\n        /* \"#utility.yul\":10387:10393   */\n      dup3\n        /* \"#utility.yul\":10382:10385   */\n      dup3\n        /* \"#utility.yul\":10375:10394   */\n      mstore\n        /* \"#utility.yul\":10427:10431   */\n      0x20\n        /* \"#utility.yul\":10422:10425   */\n      dup3\n        /* \"#utility.yul\":10418:10432   */\n      add\n        /* \"#utility.yul\":10403:10432   */\n      swap1\n      pop\n        /* \"#utility.yul\":10269:10438   */\n      swap3\n      swap2\n      pop\n      pop\n      jump\t// out\n        /* \"#utility.yul\":10444:10598   */\n    tag_122:\n        /* \"#utility.yul\":10584:10590   */\n      0x6e6f706500000000000000000000000000000000000000000000000000000000\n        /* \"#utility.yul\":10580:10581   */\n      0x00\n        /* \"#utility.yul\":10572:10578   */\n      dup3\n        /* \"#utility.yul\":10568:10582   */\n      add\n        /* \"#utility.yul\":10561:10591   */\n      mstore\n        /* \"#utility.yul\":10444:10598   */\n      pop\n      jump\t// out\n        /* \"#utility.yul\":10604:10969   */\n    tag_123:\n        /* \"#utility.yul\":10746:10749   */\n      0x00\n        /* \"#utility.yul\":10767:10833   */\n      tag_220\n        /* \"#utility.yul\":10831:10832   */\n      0x04\n        /* \"#utility.yul\":10826:10829   */\n      dup4\n        /* \"#utility.yul\":10767:10833   */\n      tag_121\n      jump\t// in\n    tag_220:\n        /* \"#utility.yul\":10760:10833   */\n      swap2\n      pop\n        /* \"#utility.yul\":10842:10935   */\n      tag_221\n        /* \"#utility.yul\":10931:10934   */\n      dup3\n        /* \"#utility.yul\":10842:10935   */\n      tag_122\n      jump\t// in\n    tag_221:\n        /* \"#utility.yul\":10960:10962   */\n      0x20\n        /* \"#utility.yul\":10955:10958   */\n      dup3\n        /* \"#utility.yul\":10951:10963   */\n      add\n        /* \"#utility.yul\":10944:10963   */\n      swap1\n      pop\n        /* \"#utility.yul\":10604:10969   */\n      swap2\n      swap1\n      pop\n      jump\t// out\n        /* \"#utility.yul\":10975:11394   */\n    tag_43:\n        /* \"#utility.yul\":11141:11145   */\n      0x00\n        /* \"#utility.yul\":11179:11181   */\n      0x20\n        /* \"#utility.yul\":11168:11177   */\n      dup3\n        /* \"#utility.yul\":11164:11182   */\n      add\n        /* \"#utility.yul\":11156:11182   */\n      swap1\n      pop\n        /* \"#utility.yul\":11228:11237   */\n      dup2\n        /* \"#utility.yul\":11222:11226   */\n      dup2\n        /* \"#utility.yul\":11218:11238   */\n      sub\n        /* \"#utility.yul\":11214:11215   */\n      0x00\n        /* \"#utility.yul\":11203:11212   */\n      dup4\n        /* \"#utility.yul\":11199:11216   */\n      add\n        /* \"#utility.yul\":11192:11239   */\n      mstore\n        /* \"#utility.yul\":11256:11387   */\n      tag_223\n        /* \"#utility.yul\":11382:11386   */\n      dup2\n        /* \"#utility.yul\":11256:11387   */\n      tag_123\n      jump\t// in\n    tag_223:\n        /* \"#utility.yul\":11248:11387   */\n      swap1\n      pop\n        /* \"#utility.yul\":10975:11394   */\n      swap2\n      swap1\n      pop\n      jump\t// out\n        /* \"#utility.yul\":11400:11580   */\n    tag_124:\n        /* \"#utility.yul\":11448:11525   */\n      0x4e487b7100000000000000000000000000000000000000000000000000000000\n        /* \"#utility.yul\":11445:11446   */\n      0x00\n        /* \"#utility.yul\":11438:11526   */\n      mstore\n        /* \"#utility.yul\":11545:11549   */\n      0x11\n        /* \"#utility.yul\":11542:11543   */\n      0x04\n        /* \"#utility.yul\":11535:11550   */\n      mstore\n        /* \"#utility.yul\":11569:11573   */\n      0x24\n        /* \"#utility.yul\":11566:11567   */\n      0x00\n        /* \"#utility.yul\":11559:11574   */\n      revert\n        /* \"#utility.yul\":11586:11780   */\n    tag_68:\n        /* \"#utility.yul\":11626:11630   */\n      0x00\n        /* \"#utility.yul\":11646:11666   */\n      tag_226\n        /* \"#utility.yul\":11664:11665   */\n      dup3\n        /* \"#utility.yul\":11646:11666   */\n      tag_103\n      jump\t// in\n    tag_226:\n        /* \"#utility.yul\":11641:11666   */\n      swap2\n      pop\n        /* \"#utility.yul\":11680:11700   */\n      tag_227\n        /* \"#utility.yul\":11698:11699   */\n      dup4\n        /* \"#utility.yul\":11680:11700   */\n      tag_103\n      jump\t// in\n    tag_227:\n        /* \"#utility.yul\":11675:11700   */\n      swap3\n      pop\n        /* \"#utility.yul\":11724:11725   */\n      dup3\n        /* \"#utility.yul\":11721:11722   */\n      dup3\n        /* \"#utility.yul\":11717:11726   */\n      sub\n        /* \"#utility.yul\":11709:11726   */\n      swap1\n      pop\n        /* \"#utility.yul\":11748:11749   */\n      dup2\n        /* \"#utility.yul\":11742:11746   */\n      dup2\n        /* \"#utility.yul\":11739:11750   */\n      gt\n        /* \"#utility.yul\":11736:11773   */\n      iszero\n      tag_228\n      jumpi\n        /* \"#utility.yul\":11753:11771   */\n      tag_229\n      tag_124\n      jump\t// in\n    tag_229:\n        /* \"#utility.yul\":11736:11773   */\n    tag_228:\n        /* \"#utility.yul\":11586:11780   */\n      swap3\n      swap2\n      pop\n      pop\n      jump\t// out\n        /* \"#utility.yul\":11786:11977   */\n    tag_89:\n        /* \"#utility.yul\":11826:11829   */\n      0x00\n        /* \"#utility.yul\":11845:11865   */\n      tag_231\n        /* \"#utility.yul\":11863:11864   */\n      dup3\n        /* \"#utility.yul\":11845:11865   */\n      tag_103\n      jump\t// in\n    tag_231:\n        /* \"#utility.yul\":11840:11865   */\n      swap2\n      pop\n        /* \"#utility.yul\":11879:11899   */\n      tag_232\n        /* \"#utility.yul\":11897:11898   */\n      dup4\n        /* \"#utility.yul\":11879:11899   */\n      tag_103\n      jump\t// in\n    tag_232:\n        /* \"#utility.yul\":11874:11899   */\n      swap3\n      pop\n        /* \"#utility.yul\":11922:11923   */\n      dup3\n        /* \"#utility.yul\":11919:11920   */\n      dup3\n        /* \"#utility.yul\":11915:11924   */\n      add\n        /* \"#utility.yul\":11908:11924   */\n      swap1\n      pop\n        /* \"#utility.yul\":11943:11946   */\n      dup1\n        /* \"#utility.yul\":11940:11941   */\n      dup3\n        /* \"#utility.yul\":11937:11947   */\n      gt\n        /* \"#utility.yul\":11934:11970   */\n      iszero\n      tag_233\n      jumpi\n        /* \"#utility.yul\":11950:11968   */\n      tag_234\n      tag_124\n      jump\t// in\n    tag_234:\n        /* \"#utility.yul\":11934:11970   */\n    tag_233:\n        /* \"#utility.yul\":11786:11977   */\n      swap3\n      swap2\n      pop\n      pop\n      jump\t// out\n\n    auxdata: 0xa2646970667358221220c646109c5e3b41d1d5a4855863c96b88998854cb5f9c420307f8c3928c9b837864736f6c634300081a0033\n}\n",
				"bytecode": {
					"linkReferences": {},
					"object": "6080604052348015600e575f80fd5b50610da18061001c5f395ff3fe608060405260043610610033575f3560e01c8063068d8df91461003757806330b39a6214610073578063a26e11861461009b575b5f80fd5b348015610042575f80fd5b5061005d60048036038101906100589190610926565b6100b7565b60405161006a9190610985565b60405180910390f35b34801561007e575f80fd5b50610099600480360381019061009491906109c8565b6102f6565b005b6100b560048036038101906100b09190610926565b61058a565b005b5f816040516020016100c890610a76565b60405160208183030381529060405280519060200120816040516020016100ef9190610ad2565b60405160208183030381529060405280519060200120148061015a575060405160200161011b90610b32565b60405160208183030381529060405280519060200120816040516020016101429190610ad2565b60405160208183030381529060405280519060200120145b806101ae575060405160200161016f90610b90565b60405160208183030381529060405280519060200120816040516020016101969190610ad2565b60405160208183030381529060405280519060200120145b8061020257506040516020016101c390610bee565b60405160208183030381529060405280519060200120816040516020016101ea9190610ad2565b60405160208183030381529060405280519060200120145b80610256575060405160200161021790610c4c565b604051602081830303815290604052805190602001208160405160200161023e9190610ad2565b60405160208183030381529060405280519060200120145b610295576040517f08c379a000000000000000000000000000000000000000000000000000000000815260040161028c90610cba565b60405180910390fd5b5f836040516102a49190610ad2565b90815260200160405180910390205f3373ffffffffffffffffffffffffffffffffffffffff1673ffffffffffffffffffffffffffffffffffffffff1681526020019081526020015f2054915050919050565b8160405160200161030690610a76565b604051602081830303815290604052805190602001208160405160200161032d9190610ad2565b604051602081830303815290604052805190602001201480610398575060405160200161035990610b32565b60405160208183030381529060405280519060200120816040516020016103809190610ad2565b60405160208183030381529060405280519060200120145b806103ec57506040516020016103ad90610b90565b60405160208183030381529060405280519060200120816040516020016103d49190610ad2565b60405160208183030381529060405280519060200120145b80610440575060405160200161040190610bee565b60405160208183030381529060405280519060200120816040516020016104289190610ad2565b60405160208183030381529060405280519060200120145b80610494575060405160200161045590610c4c565b604051602081830303815290604052805190602001208160405160200161047c9190610ad2565b60405160208183030381529060405280519060200120145b6104d3576040517f08c379a00000000000000000000000000000000000000000000000000000000081526004016104ca90610cba565b60405180910390fd5b3373ffffffffffffffffffffffffffffffffffffffff166108fc8390811502906040515f60405180830381858888f19350505050158015610516573d5f803e3d5ffd5b50815f846040516105279190610ad2565b90815260200160405180910390205f3373ffffffffffffffffffffffffffffffffffffffff1673ffffffffffffffffffffffffffffffffffffffff1681526020019081526020015f205f82825461057e9190610d05565b92505081905550505050565b8060405160200161059a90610a76565b60405160208183030381529060405280519060200120816040516020016105c19190610ad2565b60405160208183030381529060405280519060200120148061062c57506040516020016105ed90610b32565b60405160208183030381529060405280519060200120816040516020016106149190610ad2565b60405160208183030381529060405280519060200120145b80610680575060405160200161064190610b90565b60405160208183030381529060405280519060200120816040516020016106689190610ad2565b60405160208183030381529060405280519060200120145b806106d4575060405160200161069590610bee565b60405160208183030381529060405280519060200120816040516020016106bc9190610ad2565b60405160208183030381529060405280519060200120145b8061072857506040516020016106e990610c4c565b60405160208183030381529060405280519060200120816040516020016107109190610ad2565b60405160208183030381529060405280519060200120145b610767576040517f08c379a000000000000000000000000000000000000000000000000000000000815260040161075e90610cba565b60405180910390fd5b345f836040516107779190610ad2565b90815260200160405180910390205f3373ffffffffffffffffffffffffffffffffffffffff1673ffffffffffffffffffffffffffffffffffffffff1681526020019081526020015f205f8282546107ce9190610d38565b925050819055505050565b5f604051905090565b5f80fd5b5f80fd5b5f80fd5b5f80fd5b5f601f19601f8301169050919050565b7f4e487b71000000000000000000000000000000000000000000000000000000005f52604160045260245ffd5b610838826107f2565b810181811067ffffffffffffffff8211171561085757610856610802565b5b80604052505050565b5f6108696107d9565b9050610875828261082f565b919050565b5f67ffffffffffffffff82111561089457610893610802565b5b61089d826107f2565b9050602081019050919050565b828183375f83830152505050565b5f6108ca6108c58461087a565b610860565b9050828152602081018484840111156108e6576108e56107ee565b5b6108f18482856108aa565b509392505050565b5f82601f83011261090d5761090c6107ea565b5b813561091d8482602086016108b8565b91505092915050565b5f6020828403121561093b5761093a6107e2565b5b5f82013567ffffffffffffffff811115610958576109576107e6565b5b610964848285016108f9565b91505092915050565b5f819050919050565b61097f8161096d565b82525050565b5f6020820190506109985f830184610976565b92915050565b6109a78161096d565b81146109b1575f80fd5b50565b5f813590506109c28161099e565b92915050565b5f80604083850312156109de576109dd6107e2565b5b5f83013567ffffffffffffffff8111156109fb576109fa6107e6565b5b610a07858286016108f9565b9250506020610a18858286016109b4565b9150509250929050565b5f81905092915050565b7f41000000000000000000000000000000000000000000000000000000000000005f82015250565b5f610a60600183610a22565b9150610a6b82610a2c565b600182019050919050565b5f610a8082610a54565b9150819050919050565b5f81519050919050565b8281835e5f83830152505050565b5f610aac82610a8a565b610ab68185610a22565b9350610ac6818560208601610a94565b80840191505092915050565b5f610add8284610aa2565b915081905092915050565b7f42000000000000000000000000000000000000000000000000000000000000005f82015250565b5f610b1c600183610a22565b9150610b2782610ae8565b600182019050919050565b5f610b3c82610b10565b9150819050919050565b7f43000000000000000000000000000000000000000000000000000000000000005f82015250565b5f610b7a600183610a22565b9150610b8582610b46565b600182019050919050565b5f610b9a82610b6e565b9150819050919050565b7f44000000000000000000000000000000000000000000000000000000000000005f82015250565b5f610bd8600183610a22565b9150610be382610ba4565b600182019050919050565b5f610bf882610bcc565b9150819050919050565b7f45000000000000000000000000000000000000000000000000000000000000005f82015250565b5f610c36600183610a22565b9150610c4182610c02565b600182019050919050565b5f610c5682610c2a565b9150819050919050565b5f82825260208201905092915050565b7f6e6f7065000000000000000000000000000000000000000000000000000000005f82015250565b5f610ca4600483610c60565b9150610caf82610c70565b602082019050919050565b5f6020820190508181035f830152610cd181610c98565b9050919050565b7f4e487b71000000000000000000000000000000000000000000000000000000005f52601160045260245ffd5b5f610d0f8261096d565b9150610d1a8361096d565b9250828203905081811115610d3257610d31610cd8565b5b92915050565b5f610d428261096d565b9150610d4d8361096d565b9250828201905080821115610d6557610d64610cd8565b5b9291505056fea2646970667358221220c646109c5e3b41d1d5a4855863c96b88998854cb5f9c420307f8c3928c9b837864736f6c634300081a0033",
					"opcodes": "PUSH1 0x80 PUSH1 0x40 MSTORE CALLVALUE DUP1 ISZERO PUSH1 0xE JUMPI PUSH0 DUP1 REVERT JUMPDEST POP PUSH2 0xDA1 DUP1 PUSH2 0x1C PUSH0 CODECOPY PUSH0 RETURN INVALID PUSH1 0x80 PUSH1 0x40 MSTORE PUSH1 0x4 CALLDATASIZE LT PUSH2 0x33 JUMPI PUSH0 CALLDATALOAD PUSH1 0xE0 SHR DUP1 PUSH4 0x68D8DF9 EQ PUSH2 0x37 JUMPI DUP1 PUSH4 0x30B39A62 EQ PUSH2 0x73 JUMPI DUP1 PUSH4 0xA26E1186 EQ PUSH2 0x9B JUMPI JUMPDEST PUSH0 DUP1 REVERT JUMPDEST CALLVALUE DUP1 ISZERO PUSH2 0x42 JUMPI PUSH0 DUP1 REVERT JUMPDEST POP PUSH2 0x5D PUSH1 0x4 DUP1 CALLDATASIZE SUB DUP2 ADD SWAP1 PUSH2 0x58 SWAP2 SWAP1 PUSH2 0x926 JUMP JUMPDEST PUSH2 0xB7 JUMP JUMPDEST PUSH1 0x40 MLOAD PUSH2 0x6A SWAP2 SWAP1 PUSH2 0x985 JUMP JUMPDEST PUSH1 0x40 MLOAD DUP1 SWAP2 SUB SWAP1 RETURN JUMPDEST CALLVALUE DUP1 ISZERO PUSH2 0x7E JUMPI PUSH0 DUP1 REVERT JUMPDEST POP PUSH2 0x99 PUSH1 0x4 DUP1 CALLDATASIZE SUB DUP2 ADD SWAP1 PUSH2 0x94 SWAP2 SWAP1 PUSH2 0x9C8 JUMP JUMPDEST PUSH2 0x2F6 JUMP JUMPDEST STOP JUMPDEST PUSH2 0xB5 PUSH1 0x4 DUP1 CALLDATASIZE SUB DUP2 ADD SWAP1 PUSH2 0xB0 SWAP2 SWAP1 PUSH2 0x926 JUMP JUMPDEST PUSH2 0x58A JUMP JUMPDEST STOP JUMPDEST PUSH0 DUP2 PUSH1 0x40 MLOAD PUSH1 0x20 ADD PUSH2 0xC8 SWAP1 PUSH2 0xA76 JUMP JUMPDEST PUSH1 0x40 MLOAD PUSH1 0x20 DUP2 DUP4 SUB SUB DUP2 MSTORE SWAP1 PUSH1 0x40 MSTORE DUP1 MLOAD SWAP1 PUSH1 0x20 ADD KECCAK256 DUP2 PUSH1 0x40 MLOAD PUSH1 0x20 ADD PUSH2 0xEF SWAP2 SWAP1 PUSH2 0xAD2 JUMP JUMPDEST PUSH1 0x40 MLOAD PUSH1 0x20 DUP2 DUP4 SUB SUB DUP2 MSTORE SWAP1 PUSH1 0x40 MSTORE DUP1 MLOAD SWAP1 PUSH1 0x20 ADD KECCAK256 EQ DUP1 PUSH2 0x15A JUMPI POP PUSH1 0x40 MLOAD PUSH1 0x20 ADD PUSH2 0x11B SWAP1 PUSH2 0xB32 JUMP JUMPDEST PUSH1 0x40 MLOAD PUSH1 0x20 DUP2 DUP4 SUB SUB DUP2 MSTORE SWAP1 PUSH1 0x40 MSTORE DUP1 MLOAD SWAP1 PUSH1 0x20 ADD KECCAK256 DUP2 PUSH1 0x40 MLOAD PUSH1 0x20 ADD PUSH2 0x142 SWAP2 SWAP1 PUSH2 0xAD2 JUMP JUMPDEST PUSH1 0x40 MLOAD PUSH1 0x20 DUP2 DUP4 SUB SUB DUP2 MSTORE SWAP1 PUSH1 0x40 MSTORE DUP1 MLOAD SWAP1 PUSH1 0x20 ADD KECCAK256 EQ JUMPDEST DUP1 PUSH2 0x1AE JUMPI POP PUSH1 0x40 MLOAD PUSH1 0x20 ADD PUSH2 0x16F SWAP1 PUSH2 0xB90 JUMP JUMPDEST PUSH1 0x40 MLOAD PUSH1 0x20 DUP2 DUP4 SUB SUB DUP2 MSTORE SWAP1 PUSH1 0x40 MSTORE DUP1 MLOAD SWAP1 PUSH1 0x20 ADD KECCAK256 DUP2 PUSH1 0x40 MLOAD PUSH1 0x20 ADD PUSH2 0x196 SWAP2 SWAP1 PUSH2 0xAD2 JUMP JUMPDEST PUSH1 0x40 MLOAD PUSH1 0x20 DUP2 DUP4 SUB SUB DUP2 MSTORE SWAP1 PUSH1 0x40 MSTORE DUP1 MLOAD SWAP1 PUSH1 0x20 ADD KECCAK256 EQ JUMPDEST DUP1 PUSH2 0x202 JUMPI POP PUSH1 0x40 MLOAD PUSH1 0x20 ADD PUSH2 0x1C3 SWAP1 PUSH2 0xBEE JUMP JUMPDEST PUSH1 0x40 MLOAD PUSH1 0x20 DUP2 DUP4 SUB SUB DUP2 MSTORE SWAP1 PUSH1 0x40 MSTORE DUP1 MLOAD SWAP1 PUSH1 0x20 ADD KECCAK256 DUP2 PUSH1 0x40 MLOAD PUSH1 0x20 ADD PUSH2 0x1EA SWAP2 SWAP1 PUSH2 0xAD2 JUMP JUMPDEST PUSH1 0x40 MLOAD PUSH1 0x20 DUP2 DUP4 SUB SUB DUP2 MSTORE SWAP1 PUSH1 0x40 MSTORE DUP1 MLOAD SWAP1 PUSH1 0x20 ADD KECCAK256 EQ JUMPDEST DUP1 PUSH2 0x256 JUMPI POP PUSH1 0x40 MLOAD PUSH1 0x20 ADD PUSH2 0x217 SWAP1 PUSH2 0xC4C JUMP JUMPDEST PUSH1 0x40 MLOAD PUSH1 0x20 DUP2 DUP4 SUB SUB DUP2 MSTORE SWAP1 PUSH1 0x40 MSTORE DUP1 MLOAD SWAP1 PUSH1 0x20 ADD KECCAK256 DUP2 PUSH1 0x40 MLOAD PUSH1 0x20 ADD PUSH2 0x23E SWAP2 SWAP1 PUSH2 0xAD2 JUMP JUMPDEST PUSH1 0x40 MLOAD PUSH1 0x20 DUP2 DUP4 SUB SUB DUP2 MSTORE SWAP1 PUSH1 0x40 MSTORE DUP1 MLOAD SWAP1 PUSH1 0x20 ADD KECCAK256 EQ JUMPDEST PUSH2 0x295 JUMPI PUSH1 0x40 MLOAD PUSH32 0x8C379A000000000000000000000000000000000000000000000000000000000 DUP2 MSTORE PUSH1 0x4 ADD PUSH2 0x28C SWAP1 PUSH2 0xCBA JUMP JUMPDEST PUSH1 0x40 MLOAD DUP1 SWAP2 SUB SWAP1 REVERT JUMPDEST PUSH0 DUP4 PUSH1 0x40 MLOAD PUSH2 0x2A4 SWAP2 SWAP1 PUSH2 0xAD2 JUMP JUMPDEST SWAP1 DUP2 MSTORE PUSH1 0x20 ADD PUSH1 0x40 MLOAD DUP1 SWAP2 SUB SWAP1 KECCAK256 PUSH0 CALLER PUSH20 0xFFFFFFFFFFFFFFFFFFFFFFFFFFFFFFFFFFFFFFFF AND PUSH20 0xFFFFFFFFFFFFFFFFFFFFFFFFFFFFFFFFFFFFFFFF AND DUP2 MSTORE PUSH1 0x20 ADD SWAP1 DUP2 MSTORE PUSH1 0x20 ADD PUSH0 KECCAK256 SLOAD SWAP2 POP POP SWAP2 SWAP1 POP JUMP JUMPDEST DUP2 PUSH1 0x40 MLOAD PUSH1 0x20 ADD PUSH2 0x306 SWAP1 PUSH2 0xA76 JUMP JUMPDEST PUSH1 0x40 MLOAD PUSH1 0x20 DUP2 DUP4 SUB SUB DUP2 MSTORE SWAP1 PUSH1 0x40 MSTORE DUP1 MLOAD SWAP1 PUSH1 0x20 ADD KECCAK256 DUP2 PUSH1 0x40 MLOAD PUSH1 0x20 ADD PUSH2 0x32D SWAP2 SWAP1 PUSH2 0xAD2 JUMP JUMPDEST PUSH1 0x40 MLOAD PUSH1 0x20 DUP2 DUP4 SUB SUB DUP2 MSTORE SWAP1 PUSH1 0x40 MSTORE DUP1 MLOAD SWAP1 PUSH1 0x20 ADD KECCAK256 EQ DUP1 PUSH2 0x398 JUMPI POP PUSH1 0x40 MLOAD PUSH1 0x20 ADD PUSH2 0x359 SWAP1 PUSH2 0xB32 JUMP JUMPDEST PUSH1 0x40 MLOAD PUSH1 0x20 DUP2 DUP4 SUB SUB DUP2 MSTORE SWAP1 PUSH1 0x40 MSTORE DUP1 MLOAD SWAP1 PUSH1 0x20 ADD KECCAK256 DUP2 PUSH1 0x40 MLOAD PUSH1 0x20 ADD PUSH2 0x380 SWAP2 SWAP1 PUSH2 0xAD2 JUMP JUMPDEST PUSH1 0x40 MLOAD PUSH1 0x20 DUP2 DUP4 SUB SUB DUP2 MSTORE SWAP1 PUSH1 0x40 MSTORE DUP1 MLOAD SWAP1 PUSH1 0x20 ADD KECCAK256 EQ JUMPDEST DUP1 PUSH2 0x3EC JUMPI POP PUSH1 0x40 MLOAD PUSH1 0x20 ADD PUSH2 0x3AD SWAP1 PUSH2 0xB90 JUMP JUMPDEST PUSH1 0x40 MLOAD PUSH1 0x20 DUP2 DUP4 SUB SUB DUP2 MSTORE SWAP1 PUSH1 0x40 MSTORE DUP1 MLOAD SWAP1 PUSH1 0x20 ADD KECCAK256 DUP2 PUSH1 0x40 MLOAD PUSH1 0x20 ADD PUSH2 0x3D4 SWAP2 SWAP1 PUSH2 0xAD2 JUMP JUMPDEST PUSH1 0x40 MLOAD PUSH1 0x20 DUP2 DUP4 SUB SUB DUP2 MSTORE SWAP1 PUSH1 0x40 MSTORE DUP1 MLOAD SWAP1 PUSH1 0x20 ADD KECCAK256 EQ JUMPDEST DUP1 PUSH2 0x440 JUMPI POP PUSH1 0x40 MLOAD PUSH1 0x20 ADD PUSH2 0x401 SWAP1 PUSH2 0xBEE JUMP JUMPDEST PUSH1 0x40 MLOAD PUSH1 0x20 DUP2 DUP4 SUB SUB DUP2 MSTORE SWAP1 PUSH1 0x40 MSTORE DUP1 MLOAD SWAP1 PUSH1 0x20 ADD KECCAK256 DUP2 PUSH1 0x40 MLOAD PUSH1 0x20 ADD PUSH2 0x428 SWAP2 SWAP1 PUSH2 0xAD2 JUMP JUMPDEST PUSH1 0x40 MLOAD PUSH1 0x20 DUP2 DUP4 SUB SUB DUP2 MSTORE SWAP1 PUSH1 0x40 MSTORE DUP1 MLOAD SWAP1 PUSH1 0x20 ADD KECCAK256 EQ JUMPDEST DUP1 PUSH2 0x494 JUMPI POP PUSH1 0x40 MLOAD PUSH1 0x20 ADD PUSH2 0x455 SWAP1 PUSH2 0xC4C JUMP JUMPDEST PUSH1 0x40 MLOAD PUSH1 0x20 DUP2 DUP4 SUB SUB DUP2 MSTORE SWAP1 PUSH1 0x40 MSTORE DUP1 MLOAD SWAP1 PUSH1 0x20 ADD KECCAK256 DUP2 PUSH1 0x40 MLOAD PUSH1 0x20 ADD PUSH2 0x47C SWAP2 SWAP1 PUSH2 0xAD2 JUMP JUMPDEST PUSH1 0x40 MLOAD PUSH1 0x20 DUP2 DUP4 SUB SUB DUP2 MSTORE SWAP1 PUSH1 0x40 MSTORE DUP1 MLOAD SWAP1 PUSH1 0x20 ADD KECCAK256 EQ JUMPDEST PUSH2 0x4D3 JUMPI PUSH1 0x40 MLOAD PUSH32 0x8C379A000000000000000000000000000000000000000000000000000000000 DUP2 MSTORE PUSH1 0x4 ADD PUSH2 0x4CA SWAP1 PUSH2 0xCBA JUMP JUMPDEST PUSH1 0x40 MLOAD DUP1 SWAP2 SUB SWAP1 REVERT JUMPDEST CALLER PUSH20 0xFFFFFFFFFFFFFFFFFFFFFFFFFFFFFFFFFFFFFFFF AND PUSH2 0x8FC DUP4 SWAP1 DUP2 ISZERO MUL SWAP1 PUSH1 0x40 MLOAD PUSH0 PUSH1 0x40 MLOAD DUP1 DUP4 SUB DUP2 DUP6 DUP9 DUP9 CALL SWAP4 POP POP POP POP ISZERO DUP1 ISZERO PUSH2 0x516 JUMPI RETURNDATASIZE PUSH0 DUP1 RETURNDATACOPY RETURNDATASIZE PUSH0 REVERT JUMPDEST POP DUP2 PUSH0 DUP5 PUSH1 0x40 MLOAD PUSH2 0x527 SWAP2 SWAP1 PUSH2 0xAD2 JUMP JUMPDEST SWAP1 DUP2 MSTORE PUSH1 0x20 ADD PUSH1 0x40 MLOAD DUP1 SWAP2 SUB SWAP1 KECCAK256 PUSH0 CALLER PUSH20 0xFFFFFFFFFFFFFFFFFFFFFFFFFFFFFFFFFFFFFFFF AND PUSH20 0xFFFFFFFFFFFFFFFFFFFFFFFFFFFFFFFFFFFFFFFF AND DUP2 MSTORE PUSH1 0x20 ADD SWAP1 DUP2 MSTORE PUSH1 0x20 ADD PUSH0 KECCAK256 PUSH0 DUP3 DUP3 SLOAD PUSH2 0x57E SWAP2 SWAP1 PUSH2 0xD05 JUMP JUMPDEST SWAP3 POP POP DUP2 SWAP1 SSTORE POP POP POP POP JUMP JUMPDEST DUP1 PUSH1 0x40 MLOAD PUSH1 0x20 ADD PUSH2 0x59A SWAP1 PUSH2 0xA76 JUMP JUMPDEST PUSH1 0x40 MLOAD PUSH1 0x20 DUP2 DUP4 SUB SUB DUP2 MSTORE SWAP1 PUSH1 0x40 MSTORE DUP1 MLOAD SWAP1 PUSH1 0x20 ADD KECCAK256 DUP2 PUSH1 0x40 MLOAD PUSH1 0x20 ADD PUSH2 0x5C1 SWAP2 SWAP1 PUSH2 0xAD2 JUMP JUMPDEST PUSH1 0x40 MLOAD PUSH1 0x20 DUP2 DUP4 SUB SUB DUP2 MSTORE SWAP1 PUSH1 0x40 MSTORE DUP1 MLOAD SWAP1 PUSH1 0x20 ADD KECCAK256 EQ DUP1 PUSH2 0x62C JUMPI POP PUSH1 0x40 MLOAD PUSH1 0x20 ADD PUSH2 0x5ED SWAP1 PUSH2 0xB32 JUMP JUMPDEST PUSH1 0x40 MLOAD PUSH1 0x20 DUP2 DUP4 SUB SUB DUP2 MSTORE SWAP1 PUSH1 0x40 MSTORE DUP1 MLOAD SWAP1 PUSH1 0x20 ADD KECCAK256 DUP2 PUSH1 0x40 MLOAD PUSH1 0x20 ADD PUSH2 0x614 SWAP2 SWAP1 PUSH2 0xAD2 JUMP JUMPDEST PUSH1 0x40 MLOAD PUSH1 0x20 DUP2 DUP4 SUB SUB DUP2 MSTORE SWAP1 PUSH1 0x40 MSTORE DUP1 MLOAD SWAP1 PUSH1 0x20 ADD KECCAK256 EQ JUMPDEST DUP1 PUSH2 0x680 JUMPI POP PUSH1 0x40 MLOAD PUSH1 0x20 ADD PUSH2 0x641 SWAP1 PUSH2 0xB90 JUMP JUMPDEST PUSH1 0x40 MLOAD PUSH1 0x20 DUP2 DUP4 SUB SUB DUP2 MSTORE SWAP1 PUSH1 0x40 MSTORE DUP1 MLOAD SWAP1 PUSH1 0x20 ADD KECCAK256 DUP2 PUSH1 0x40 MLOAD PUSH1 0x20 ADD PUSH2 0x668 SWAP2 SWAP1 PUSH2 0xAD2 JUMP JUMPDEST PUSH1 0x40 MLOAD PUSH1 0x20 DUP2 DUP4 SUB SUB DUP2 MSTORE SWAP1 PUSH1 0x40 MSTORE DUP1 MLOAD SWAP1 PUSH1 0x20 ADD KECCAK256 EQ JUMPDEST DUP1 PUSH2 0x6D4 JUMPI POP PUSH1 0x40 MLOAD PUSH1 0x20 ADD PUSH2 0x695 SWAP1 PUSH2 0xBEE JUMP JUMPDEST PUSH1 0x40 MLOAD PUSH1 0x20 DUP2 DUP4 SUB SUB DUP2 MSTORE SWAP1 PUSH1 0x40 MSTORE DUP1 MLOAD SWAP1 PUSH1 0x20 ADD KECCAK256 DUP2 PUSH1 0x40 MLOAD PUSH1 0x20 ADD PUSH2 0x6BC SWAP2 SWAP1 PUSH2 0xAD2 JUMP JUMPDEST PUSH1 0x40 MLOAD PUSH1 0x20 DUP2 DUP4 SUB SUB DUP2 MSTORE SWAP1 PUSH1 0x40 MSTORE DUP1 MLOAD SWAP1 PUSH1 0x20 ADD KECCAK256 EQ JUMPDEST DUP1 PUSH2 0x728 JUMPI POP PUSH1 0x40 MLOAD PUSH1 0x20 ADD PUSH2 0x6E9 SWAP1 PUSH2 0xC4C JUMP JUMPDEST PUSH1 0x40 MLOAD PUSH1 0x20 DUP2 DUP4 SUB SUB DUP2 MSTORE SWAP1 PUSH1 0x40 MSTORE DUP1 MLOAD SWAP1 PUSH1 0x20 ADD KECCAK256 DUP2 PUSH1 0x40 MLOAD PUSH1 0x20 ADD PUSH2 0x710 SWAP2 SWAP1 PUSH2 0xAD2 JUMP JUMPDEST PUSH1 0x40 MLOAD PUSH1 0x20 DUP2 DUP4 SUB SUB DUP2 MSTORE SWAP1 PUSH1 0x40 MSTORE DUP1 MLOAD SWAP1 PUSH1 0x20 ADD KECCAK256 EQ JUMPDEST PUSH2 0x767 JUMPI PUSH1 0x40 MLOAD PUSH32 0x8C379A000000000000000000000000000000000000000000000000000000000 DUP2 MSTORE PUSH1 0x4 ADD PUSH2 0x75E SWAP1 PUSH2 0xCBA JUMP JUMPDEST PUSH1 0x40 MLOAD DUP1 SWAP2 SUB SWAP1 REVERT JUMPDEST CALLVALUE PUSH0 DUP4 PUSH1 0x40 MLOAD PUSH2 0x777 SWAP2 SWAP1 PUSH2 0xAD2 JUMP JUMPDEST SWAP1 DUP2 MSTORE PUSH1 0x20 ADD PUSH1 0x40 MLOAD DUP1 SWAP2 SUB SWAP1 KECCAK256 PUSH0 CALLER PUSH20 0xFFFFFFFFFFFFFFFFFFFFFFFFFFFFFFFFFFFFFFFF AND PUSH20 0xFFFFFFFFFFFFFFFFFFFFFFFFFFFFFFFFFFFFFFFF AND DUP2 MSTORE PUSH1 0x20 ADD SWAP1 DUP2 MSTORE PUSH1 0x20 ADD PUSH0 KECCAK256 PUSH0 DUP3 DUP3 SLOAD PUSH2 0x7CE SWAP2 SWAP1 PUSH2 0xD38 JUMP JUMPDEST SWAP3 POP POP DUP2 SWAP1 SSTORE POP POP POP JUMP JUMPDEST PUSH0 PUSH1 0x40 MLOAD SWAP1 POP SWAP1 JUMP JUMPDEST PUSH0 DUP1 REVERT JUMPDEST PUSH0 DUP1 REVERT JUMPDEST PUSH0 DUP1 REVERT JUMPDEST PUSH0 DUP1 REVERT JUMPDEST PUSH0 PUSH1 0x1F NOT PUSH1 0x1F DUP4 ADD AND SWAP1 POP SWAP2 SWAP1 POP JUMP JUMPDEST PUSH32 0x4E487B7100000000000000000000000000000000000000000000000000000000 PUSH0 MSTORE PUSH1 0x41 PUSH1 0x4 MSTORE PUSH1 0x24 PUSH0 REVERT JUMPDEST PUSH2 0x838 DUP3 PUSH2 0x7F2 JUMP JUMPDEST DUP2 ADD DUP2 DUP2 LT PUSH8 0xFFFFFFFFFFFFFFFF DUP3 GT OR ISZERO PUSH2 0x857 JUMPI PUSH2 0x856 PUSH2 0x802 JUMP JUMPDEST JUMPDEST DUP1 PUSH1 0x40 MSTORE POP POP POP JUMP JUMPDEST PUSH0 PUSH2 0x869 PUSH2 0x7D9 JUMP JUMPDEST SWAP1 POP PUSH2 0x875 DUP3 DUP3 PUSH2 0x82F JUMP JUMPDEST SWAP2 SWAP1 POP JUMP JUMPDEST PUSH0 PUSH8 0xFFFFFFFFFFFFFFFF DUP3 GT ISZERO PUSH2 0x894 JUMPI PUSH2 0x893 PUSH2 0x802 JUMP JUMPDEST JUMPDEST PUSH2 0x89D DUP3 PUSH2 0x7F2 JUMP JUMPDEST SWAP1 POP PUSH1 0x20 DUP2 ADD SWAP1 POP SWAP2 SWAP1 POP JUMP JUMPDEST DUP3 DUP2 DUP4 CALLDATACOPY PUSH0 DUP4 DUP4 ADD MSTORE POP POP POP JUMP JUMPDEST PUSH0 PUSH2 0x8CA PUSH2 0x8C5 DUP5 PUSH2 0x87A JUMP JUMPDEST PUSH2 0x860 JUMP JUMPDEST SWAP1 POP DUP3 DUP2 MSTORE PUSH1 0x20 DUP2 ADD DUP5 DUP5 DUP5 ADD GT ISZERO PUSH2 0x8E6 JUMPI PUSH2 0x8E5 PUSH2 0x7EE JUMP JUMPDEST JUMPDEST PUSH2 0x8F1 DUP5 DUP3 DUP6 PUSH2 0x8AA JUMP JUMPDEST POP SWAP4 SWAP3 POP POP POP JUMP JUMPDEST PUSH0 DUP3 PUSH1 0x1F DUP4 ADD SLT PUSH2 0x90D JUMPI PUSH2 0x90C PUSH2 0x7EA JUMP JUMPDEST JUMPDEST DUP2 CALLDATALOAD PUSH2 0x91D DUP5 DUP3 PUSH1 0x20 DUP7 ADD PUSH2 0x8B8 JUMP JUMPDEST SWAP2 POP POP SWAP3 SWAP2 POP POP JUMP JUMPDEST PUSH0 PUSH1 0x20 DUP3 DUP5 SUB SLT ISZERO PUSH2 0x93B JUMPI PUSH2 0x93A PUSH2 0x7E2 JUMP JUMPDEST JUMPDEST PUSH0 DUP3 ADD CALLDATALOAD PUSH8 0xFFFFFFFFFFFFFFFF DUP2 GT ISZERO PUSH2 0x958 JUMPI PUSH2 0x957 PUSH2 0x7E6 JUMP JUMPDEST JUMPDEST PUSH2 0x964 DUP5 DUP3 DUP6 ADD PUSH2 0x8F9 JUMP JUMPDEST SWAP2 POP POP SWAP3 SWAP2 POP POP JUMP JUMPDEST PUSH0 DUP2 SWAP1 POP SWAP2 SWAP1 POP JUMP JUMPDEST PUSH2 0x97F DUP2 PUSH2 0x96D JUMP JUMPDEST DUP3 MSTORE POP POP JUMP JUMPDEST PUSH0 PUSH1 0x20 DUP3 ADD SWAP1 POP PUSH2 0x998 PUSH0 DUP4 ADD DUP5 PUSH2 0x976 JUMP JUMPDEST SWAP3 SWAP2 POP POP JUMP JUMPDEST PUSH2 0x9A7 DUP2 PUSH2 0x96D JUMP JUMPDEST DUP2 EQ PUSH2 0x9B1 JUMPI PUSH0 DUP1 REVERT JUMPDEST POP JUMP JUMPDEST PUSH0 DUP2 CALLDATALOAD SWAP1 POP PUSH2 0x9C2 DUP2 PUSH2 0x99E JUMP JUMPDEST SWAP3 SWAP2 POP POP JUMP JUMPDEST PUSH0 DUP1 PUSH1 0x40 DUP4 DUP6 SUB SLT ISZERO PUSH2 0x9DE JUMPI PUSH2 0x9DD PUSH2 0x7E2 JUMP JUMPDEST JUMPDEST PUSH0 DUP4 ADD CALLDATALOAD PUSH8 0xFFFFFFFFFFFFFFFF DUP2 GT ISZERO PUSH2 0x9FB JUMPI PUSH2 0x9FA PUSH2 0x7E6 JUMP JUMPDEST JUMPDEST PUSH2 0xA07 DUP6 DUP3 DUP7 ADD PUSH2 0x8F9 JUMP JUMPDEST SWAP3 POP POP PUSH1 0x20 PUSH2 0xA18 DUP6 DUP3 DUP7 ADD PUSH2 0x9B4 JUMP JUMPDEST SWAP2 POP POP SWAP3 POP SWAP3 SWAP1 POP JUMP JUMPDEST PUSH0 DUP2 SWAP1 POP SWAP3 SWAP2 POP POP JUMP JUMPDEST PUSH32 0x4100000000000000000000000000000000000000000000000000000000000000 PUSH0 DUP3 ADD MSTORE POP JUMP JUMPDEST PUSH0 PUSH2 0xA60 PUSH1 0x1 DUP4 PUSH2 0xA22 JUMP JUMPDEST SWAP2 POP PUSH2 0xA6B DUP3 PUSH2 0xA2C JUMP JUMPDEST PUSH1 0x1 DUP3 ADD SWAP1 POP SWAP2 SWAP1 POP JUMP JUMPDEST PUSH0 PUSH2 0xA80 DUP3 PUSH2 0xA54 JUMP JUMPDEST SWAP2 POP DUP2 SWAP1 POP SWAP2 SWAP1 POP JUMP JUMPDEST PUSH0 DUP2 MLOAD SWAP1 POP SWAP2 SWAP1 POP JUMP JUMPDEST DUP3 DUP2 DUP4 MCOPY PUSH0 DUP4 DUP4 ADD MSTORE POP POP POP JUMP JUMPDEST PUSH0 PUSH2 0xAAC DUP3 PUSH2 0xA8A JUMP JUMPDEST PUSH2 0xAB6 DUP2 DUP6 PUSH2 0xA22 JUMP JUMPDEST SWAP4 POP PUSH2 0xAC6 DUP2 DUP6 PUSH1 0x20 DUP7 ADD PUSH2 0xA94 JUMP JUMPDEST DUP1 DUP5 ADD SWAP2 POP POP SWAP3 SWAP2 POP POP JUMP JUMPDEST PUSH0 PUSH2 0xADD DUP3 DUP5 PUSH2 0xAA2 JUMP JUMPDEST SWAP2 POP DUP2 SWAP1 POP SWAP3 SWAP2 POP POP JUMP JUMPDEST PUSH32 0x4200000000000000000000000000000000000000000000000000000000000000 PUSH0 DUP3 ADD MSTORE POP JUMP JUMPDEST PUSH0 PUSH2 0xB1C PUSH1 0x1 DUP4 PUSH2 0xA22 JUMP JUMPDEST SWAP2 POP PUSH2 0xB27 DUP3 PUSH2 0xAE8 JUMP JUMPDEST PUSH1 0x1 DUP3 ADD SWAP1 POP SWAP2 SWAP1 POP JUMP JUMPDEST PUSH0 PUSH2 0xB3C DUP3 PUSH2 0xB10 JUMP JUMPDEST SWAP2 POP DUP2 SWAP1 POP SWAP2 SWAP1 POP JUMP JUMPDEST PUSH32 0x4300000000000000000000000000000000000000000000000000000000000000 PUSH0 DUP3 ADD MSTORE POP JUMP JUMPDEST PUSH0 PUSH2 0xB7A PUSH1 0x1 DUP4 PUSH2 0xA22 JUMP JUMPDEST SWAP2 POP PUSH2 0xB85 DUP3 PUSH2 0xB46 JUMP JUMPDEST PUSH1 0x1 DUP3 ADD SWAP1 POP SWAP2 SWAP1 POP JUMP JUMPDEST PUSH0 PUSH2 0xB9A DUP3 PUSH2 0xB6E JUMP JUMPDEST SWAP2 POP DUP2 SWAP1 POP SWAP2 SWAP1 POP JUMP JUMPDEST PUSH32 0x4400000000000000000000000000000000000000000000000000000000000000 PUSH0 DUP3 ADD MSTORE POP JUMP JUMPDEST PUSH0 PUSH2 0xBD8 PUSH1 0x1 DUP4 PUSH2 0xA22 JUMP JUMPDEST SWAP2 POP PUSH2 0xBE3 DUP3 PUSH2 0xBA4 JUMP JUMPDEST PUSH1 0x1 DUP3 ADD SWAP1 POP SWAP2 SWAP1 POP JUMP JUMPDEST PUSH0 PUSH2 0xBF8 DUP3 PUSH2 0xBCC JUMP JUMPDEST SWAP2 POP DUP2 SWAP1 POP SWAP2 SWAP1 POP JUMP JUMPDEST PUSH32 0x4500000000000000000000000000000000000000000000000000000000000000 PUSH0 DUP3 ADD MSTORE POP JUMP JUMPDEST PUSH0 PUSH2 0xC36 PUSH1 0x1 DUP4 PUSH2 0xA22 JUMP JUMPDEST SWAP2 POP PUSH2 0xC41 DUP3 PUSH2 0xC02 JUMP JUMPDEST PUSH1 0x1 DUP3 ADD SWAP1 POP SWAP2 SWAP1 POP JUMP JUMPDEST PUSH0 PUSH2 0xC56 DUP3 PUSH2 0xC2A JUMP JUMPDEST SWAP2 POP DUP2 SWAP1 POP SWAP2 SWAP1 POP JUMP JUMPDEST PUSH0 DUP3 DUP3 MSTORE PUSH1 0x20 DUP3 ADD SWAP1 POP SWAP3 SWAP2 POP POP JUMP JUMPDEST PUSH32 0x6E6F706500000000000000000000000000000000000000000000000000000000 PUSH0 DUP3 ADD MSTORE POP JUMP JUMPDEST PUSH0 PUSH2 0xCA4 PUSH1 0x4 DUP4 PUSH2 0xC60 JUMP JUMPDEST SWAP2 POP PUSH2 0xCAF DUP3 PUSH2 0xC70 JUMP JUMPDEST PUSH1 0x20 DUP3 ADD SWAP1 POP SWAP2 SWAP1 POP JUMP JUMPDEST PUSH0 PUSH1 0x20 DUP3 ADD SWAP1 POP DUP2 DUP2 SUB PUSH0 DUP4 ADD MSTORE PUSH2 0xCD1 DUP2 PUSH2 0xC98 JUMP JUMPDEST SWAP1 POP SWAP2 SWAP1 POP JUMP JUMPDEST PUSH32 0x4E487B7100000000000000000000000000000000000000000000000000000000 PUSH0 MSTORE PUSH1 0x11 PUSH1 0x4 MSTORE PUSH1 0x24 PUSH0 REVERT JUMPDEST PUSH0 PUSH2 0xD0F DUP3 PUSH2 0x96D JUMP JUMPDEST SWAP2 POP PUSH2 0xD1A DUP4 PUSH2 0x96D JUMP JUMPDEST SWAP3 POP DUP3 DUP3 SUB SWAP1 POP DUP2 DUP2 GT ISZERO PUSH2 0xD32 JUMPI PUSH2 0xD31 PUSH2 0xCD8 JUMP JUMPDEST JUMPDEST SWAP3 SWAP2 POP POP JUMP JUMPDEST PUSH0 PUSH2 0xD42 DUP3 PUSH2 0x96D JUMP JUMPDEST SWAP2 POP PUSH2 0xD4D DUP4 PUSH2 0x96D JUMP JUMPDEST SWAP3 POP DUP3 DUP3 ADD SWAP1 POP DUP1 DUP3 GT ISZERO PUSH2 0xD65 JUMPI PUSH2 0xD64 PUSH2 0xCD8 JUMP JUMPDEST JUMPDEST SWAP3 SWAP2 POP POP JUMP INVALID LOG2 PUSH5 0x6970667358 0x22 SLT KECCAK256 0xC6 CHAINID LT SWAP13 MCOPY EXTCODESIZE COINBASE 0xD1 0xD5 LOG4 DUP6 PC PUSH4 0xC96B8899 DUP9 SLOAD 0xCB PUSH0 SWAP13 TIMESTAMP SUB SMOD 0xF8 0xC3 SWAP3 DUP13 SWAP12 DUP4 PUSH25 0x64736F6C634300081A00330000000000000000000000000000 "
				},
				"gasEstimates": {
					"creation": {
						"codeDepositCost": "697800",
						"executionCost": "732",
						"totalCost": "698532"
					},
					"external": {
						"deposit(string)": "infinite",
						"myBalances(string)": "infinite",
						"withdraw(string,uint256)": "infinite"
					}
				},
				"methodIdentifiers": {
					"deposit(string)": "a26e1186",
					"myBalances(string)": "068d8df9",
					"withdraw(string,uint256)": "30b39a62"
				}
			},
			"storageLayout": {
				"storage": [
					{
						"astId": 199,
						"contract": "Solidity100/Solidity51-60.sol:Question53",
						"label": "balances",
						"offset": 0,
						"slot": "0",
						"type": "t_mapping(t_string_memory_ptr,t_mapping(t_address,t_uint256))"
					}
				],
				"types": {
					"t_address": {
						"encoding": "inplace",
						"label": "address",
						"numberOfBytes": "20"
					},
					"t_mapping(t_address,t_uint256)": {
						"encoding": "mapping",
						"key": "t_address",
						"label": "mapping(address => uint256)",
						"numberOfBytes": "32",
						"value": "t_uint256"
					},
					"t_mapping(t_string_memory_ptr,t_mapping(t_address,t_uint256))": {
						"encoding": "mapping",
						"key": "t_string_memory_ptr",
						"label": "mapping(string => mapping(address => uint256))",
						"numberOfBytes": "32",
						"value": "t_mapping(t_address,t_uint256)"
					},
					"t_string_memory_ptr": {
						"encoding": "bytes",
						"label": "string",
						"numberOfBytes": "32"
					},
					"t_uint256": {
						"encoding": "inplace",
						"label": "uint256",
						"numberOfBytes": "32"
					}
				}
			},
			"userdoc": {
				"kind": "user",
				"methods": {},
				"version": 1
			}
		}
	}
}