{
	"Solidity100/Solidity51-60.sol": {
		"Question54": {
			"abi": [
				{
					"inputs": [
						{
							"internalType": "uint256",
							"name": "",
							"type": "uint256"
						}
					],
					"name": "Donators",
					"outputs": [
						{
							"internalType": "address",
							"name": "addr",
							"type": "address"
						},
						{
							"internalType": "uint256",
							"name": "amount",
							"type": "uint256"
						}
					],
					"stateMutability": "view",
					"type": "function"
				},
				{
					"inputs": [],
					"name": "Highest",
					"outputs": [
						{
							"internalType": "address",
							"name": "addr",
							"type": "address"
						},
						{
							"internalType": "uint256",
							"name": "amount",
							"type": "uint256"
						}
					],
					"stateMutability": "view",
					"type": "function"
				},
				{
					"inputs": [],
					"name": "setDonator",
					"outputs": [],
					"stateMutability": "payable",
					"type": "function"
				},
				{
					"inputs": [],
					"name": "setHighest",
					"outputs": [],
					"stateMutability": "nonpayable",
					"type": "function"
				}
			],
			"devdoc": {
				"kind": "dev",
				"methods": {},
				"version": 1
			},
			"evm": {
				"assembly": "    /* \"Solidity100/Solidity51-60.sol\":2980:3900  contract Question54{... */\n  mstore(0x40, 0x80)\n  callvalue\n  dup1\n  iszero\n  tag_1\n  jumpi\n  0x00\n  dup1\n  revert\ntag_1:\n  pop\n  dataSize(sub_0)\n  dup1\n  dataOffset(sub_0)\n  0x00\n  codecopy\n  0x00\n  return\nstop\n\nsub_0: assembly {\n        /* \"Solidity100/Solidity51-60.sol\":2980:3900  contract Question54{... */\n      mstore(0x40, 0x80)\n      jumpi(tag_1, lt(calldatasize, 0x04))\n      shr(0xe0, calldataload(0x00))\n      dup1\n      0x229a4080\n      eq\n      tag_2\n      jumpi\n      dup1\n      0x2e54fe7e\n      eq\n      tag_3\n      jumpi\n      dup1\n      0x8ca29631\n      eq\n      tag_4\n      jumpi\n      dup1\n      0xde8f1597\n      eq\n      tag_5\n      jumpi\n    tag_1:\n      0x00\n      dup1\n      revert\n        /* \"Solidity100/Solidity51-60.sol\":3326:3692  function setDonator() public payable {... */\n    tag_2:\n      tag_6\n      tag_7\n      jump\t// in\n    tag_6:\n      stop\n        /* \"Solidity100/Solidity51-60.sol\":3698:3897  function setHighest() public {... */\n    tag_3:\n      callvalue\n      dup1\n      iszero\n      tag_8\n      jumpi\n      0x00\n      dup1\n      revert\n    tag_8:\n      pop\n      tag_9\n      tag_10\n      jump\t// in\n    tag_9:\n      stop\n        /* \"Solidity100/Solidity51-60.sol\":3266:3291  Donator[] public Donators */\n    tag_4:\n      callvalue\n      dup1\n      iszero\n      tag_11\n      jumpi\n      0x00\n      dup1\n      revert\n    tag_11:\n      pop\n      tag_12\n      0x04\n      dup1\n      calldatasize\n      sub\n      dup2\n      add\n      swap1\n      tag_13\n      swap2\n      swap1\n      tag_14\n      jump\t// in\n    tag_13:\n      tag_15\n      jump\t// in\n    tag_12:\n      mload(0x40)\n      tag_16\n      swap3\n      swap2\n      swap1\n      tag_17\n      jump\t// in\n    tag_16:\n      mload(0x40)\n      dup1\n      swap2\n      sub\n      swap1\n      return\n        /* \"Solidity100/Solidity51-60.sol\":3297:3319  Donator public Highest */\n    tag_5:\n      callvalue\n      dup1\n      iszero\n      tag_18\n      jumpi\n      0x00\n      dup1\n      revert\n    tag_18:\n      pop\n      tag_19\n      tag_20\n      jump\t// in\n    tag_19:\n      mload(0x40)\n      tag_21\n      swap3\n      swap2\n      swap1\n      tag_17\n      jump\t// in\n    tag_21:\n      mload(0x40)\n      dup1\n      swap2\n      sub\n      swap1\n      return\n        /* \"Solidity100/Solidity51-60.sol\":3326:3692  function setDonator() public payable {... */\n    tag_7:\n        /* \"Solidity100/Solidity51-60.sol\":3373:3384  bool exists */\n      0x00\n        /* \"Solidity100/Solidity51-60.sol\":3407:3413  uint i */\n      dup1\n        /* \"Solidity100/Solidity51-60.sol\":3403:3593  for(uint i=0;i<Donators.length;i++) {... */\n    tag_23:\n        /* \"Solidity100/Solidity51-60.sol\":3418:3426  Donators */\n      0x00\n        /* \"Solidity100/Solidity51-60.sol\":3418:3433  Donators.length */\n      dup1\n      sload\n      swap1\n      pop\n        /* \"Solidity100/Solidity51-60.sol\":3416:3417  i */\n      dup2\n        /* \"Solidity100/Solidity51-60.sol\":3416:3433  i<Donators.length */\n      lt\n        /* \"Solidity100/Solidity51-60.sol\":3403:3593  for(uint i=0;i<Donators.length;i++) {... */\n      iszero\n      tag_24\n      jumpi\n        /* \"Solidity100/Solidity51-60.sol\":3476:3486  msg.sender */\n      caller\n        /* \"Solidity100/Solidity51-60.sol\":3456:3486  Donators[i].addr == msg.sender */\n      0xffffffffffffffffffffffffffffffffffffffff\n      and\n        /* \"Solidity100/Solidity51-60.sol\":3456:3464  Donators */\n      0x00\n        /* \"Solidity100/Solidity51-60.sol\":3465:3466  i */\n      dup3\n        /* \"Solidity100/Solidity51-60.sol\":3456:3467  Donators[i] */\n      dup2\n      sload\n      dup2\n      lt\n      tag_26\n      jumpi\n      tag_27\n      tag_28\n      jump\t// in\n    tag_27:\n    tag_26:\n      swap1\n      0x00\n      mstore\n      keccak256(0x00, 0x20)\n      swap1\n      0x02\n      mul\n      add\n        /* \"Solidity100/Solidity51-60.sol\":3456:3472  Donators[i].addr */\n      0x00\n      add\n      0x00\n      swap1\n      sload\n      swap1\n      0x0100\n      exp\n      swap1\n      div\n      0xffffffffffffffffffffffffffffffffffffffff\n      and\n        /* \"Solidity100/Solidity51-60.sol\":3456:3486  Donators[i].addr == msg.sender */\n      0xffffffffffffffffffffffffffffffffffffffff\n      and\n      sub\n        /* \"Solidity100/Solidity51-60.sol\":3453:3583  if(Donators[i].addr == msg.sender) {... */\n      tag_30\n      jumpi\n        /* \"Solidity100/Solidity51-60.sol\":3528:3537  msg.value */\n      callvalue\n        /* \"Solidity100/Solidity51-60.sol\":3506:3514  Donators */\n      0x00\n        /* \"Solidity100/Solidity51-60.sol\":3515:3516  i */\n      dup3\n        /* \"Solidity100/Solidity51-60.sol\":3506:3517  Donators[i] */\n      dup2\n      sload\n      dup2\n      lt\n      tag_31\n      jumpi\n      tag_32\n      tag_28\n      jump\t// in\n    tag_32:\n    tag_31:\n      swap1\n      0x00\n      mstore\n      keccak256(0x00, 0x20)\n      swap1\n      0x02\n      mul\n      add\n        /* \"Solidity100/Solidity51-60.sol\":3506:3524  Donators[i].amount */\n      0x01\n      add\n      0x00\n        /* \"Solidity100/Solidity51-60.sol\":3506:3537  Donators[i].amount += msg.value */\n      dup3\n      dup3\n      sload\n      tag_34\n      swap2\n      swap1\n      tag_35\n      jump\t// in\n    tag_34:\n      swap3\n      pop\n      pop\n      dup2\n      swap1\n      sstore\n      pop\n        /* \"Solidity100/Solidity51-60.sol\":3564:3568  true */\n      0x01\n        /* \"Solidity100/Solidity51-60.sol\":3555:3568  exists = true */\n      swap2\n      pop\n        /* \"Solidity100/Solidity51-60.sol\":3453:3583  if(Donators[i].addr == msg.sender) {... */\n    tag_30:\n        /* \"Solidity100/Solidity51-60.sol\":3434:3437  i++ */\n      dup1\n      dup1\n      0x01\n      add\n      swap2\n      pop\n      pop\n        /* \"Solidity100/Solidity51-60.sol\":3403:3593  for(uint i=0;i<Donators.length;i++) {... */\n      jump(tag_23)\n    tag_24:\n      pop\n        /* \"Solidity100/Solidity51-60.sol\":3607:3613  exists */\n      dup1\n        /* \"Solidity100/Solidity51-60.sol\":3603:3685  if(!exists) {... */\n      tag_36\n      jumpi\n        /* \"Solidity100/Solidity51-60.sol\":3629:3637  Donators */\n      0x00\n        /* \"Solidity100/Solidity51-60.sol\":3643:3673  Donator(msg.sender, msg.value) */\n      mload(0x40)\n      dup1\n      0x40\n      add\n      0x40\n      mstore\n      dup1\n        /* \"Solidity100/Solidity51-60.sol\":3651:3661  msg.sender */\n      caller\n        /* \"Solidity100/Solidity51-60.sol\":3643:3673  Donator(msg.sender, msg.value) */\n      0xffffffffffffffffffffffffffffffffffffffff\n      and\n      dup2\n      mstore\n      0x20\n      add\n        /* \"Solidity100/Solidity51-60.sol\":3663:3672  msg.value */\n      callvalue\n        /* \"Solidity100/Solidity51-60.sol\":3643:3673  Donator(msg.sender, msg.value) */\n      dup2\n      mstore\n      pop\n        /* \"Solidity100/Solidity51-60.sol\":3629:3674  Donators.push(Donator(msg.sender, msg.value)) */\n      swap1\n      dup1\n      0x01\n      dup2\n      sload\n      add\n      dup1\n      dup3\n      sstore\n      dup1\n      swap2\n      pop\n      pop\n      0x01\n      swap1\n      sub\n      swap1\n      0x00\n      mstore\n      keccak256(0x00, 0x20)\n      swap1\n      0x02\n      mul\n      add\n      0x00\n      swap1\n      swap2\n      swap1\n      swap2\n      swap1\n      swap2\n      pop\n      0x00\n      dup3\n      add\n      mload\n      dup2\n      0x00\n      add\n      exp(0x0100, 0x00)\n      dup2\n      sload\n      dup2\n      0xffffffffffffffffffffffffffffffffffffffff\n      mul\n      not\n      and\n      swap1\n      dup4\n      0xffffffffffffffffffffffffffffffffffffffff\n      and\n      mul\n      or\n      swap1\n      sstore\n      pop\n      0x20\n      dup3\n      add\n      mload\n      dup2\n      0x01\n      add\n      sstore\n      pop\n      pop\n        /* \"Solidity100/Solidity51-60.sol\":3603:3685  if(!exists) {... */\n    tag_36:\n        /* \"Solidity100/Solidity51-60.sol\":3363:3692  {... */\n      pop\n        /* \"Solidity100/Solidity51-60.sol\":3326:3692  function setDonator() public payable {... */\n      jump\t// out\n        /* \"Solidity100/Solidity51-60.sol\":3698:3897  function setHighest() public {... */\n    tag_10:\n        /* \"Solidity100/Solidity51-60.sol\":3741:3747  uint i */\n      0x00\n        /* \"Solidity100/Solidity51-60.sol\":3737:3891  for(uint i=0;i<Donators.length;i++) {... */\n    tag_39:\n        /* \"Solidity100/Solidity51-60.sol\":3752:3760  Donators */\n      0x00\n        /* \"Solidity100/Solidity51-60.sol\":3752:3767  Donators.length */\n      dup1\n      sload\n      swap1\n      pop\n        /* \"Solidity100/Solidity51-60.sol\":3750:3751  i */\n      dup2\n        /* \"Solidity100/Solidity51-60.sol\":3750:3767  i<Donators.length */\n      lt\n        /* \"Solidity100/Solidity51-60.sol\":3737:3891  for(uint i=0;i<Donators.length;i++) {... */\n      iszero\n      tag_40\n      jumpi\n        /* \"Solidity100/Solidity51-60.sol\":3807:3815  Donators */\n      0x00\n        /* \"Solidity100/Solidity51-60.sol\":3816:3817  i */\n      dup2\n        /* \"Solidity100/Solidity51-60.sol\":3807:3818  Donators[i] */\n      dup2\n      sload\n      dup2\n      lt\n      tag_42\n      jumpi\n      tag_43\n      tag_28\n      jump\t// in\n    tag_43:\n    tag_42:\n      swap1\n      0x00\n      mstore\n      keccak256(0x00, 0x20)\n      swap1\n      0x02\n      mul\n      add\n        /* \"Solidity100/Solidity51-60.sol\":3807:3825  Donators[i].amount */\n      0x01\n      add\n      sload\n        /* \"Solidity100/Solidity51-60.sol\":3790:3797  Highest */\n      0x01\n        /* \"Solidity100/Solidity51-60.sol\":3790:3804  Highest.amount */\n      dup1\n      add\n      sload\n        /* \"Solidity100/Solidity51-60.sol\":3790:3825  Highest.amount < Donators[i].amount */\n      lt\n        /* \"Solidity100/Solidity51-60.sol\":3787:3881  if(Highest.amount < Donators[i].amount) {... */\n      iszero\n      tag_45\n      jumpi\n        /* \"Solidity100/Solidity51-60.sol\":3855:3863  Donators */\n      0x00\n        /* \"Solidity100/Solidity51-60.sol\":3864:3865  i */\n      dup2\n        /* \"Solidity100/Solidity51-60.sol\":3855:3866  Donators[i] */\n      dup2\n      sload\n      dup2\n      lt\n      tag_46\n      jumpi\n      tag_47\n      tag_28\n      jump\t// in\n    tag_47:\n    tag_46:\n      swap1\n      0x00\n      mstore\n      keccak256(0x00, 0x20)\n      swap1\n      0x02\n      mul\n      add\n        /* \"Solidity100/Solidity51-60.sol\":3845:3852  Highest */\n      0x01\n        /* \"Solidity100/Solidity51-60.sol\":3845:3866  Highest = Donators[i] */\n      0x00\n      dup3\n      add\n      0x00\n      swap1\n      sload\n      swap1\n      0x0100\n      exp\n      swap1\n      div\n      0xffffffffffffffffffffffffffffffffffffffff\n      and\n      dup2\n      0x00\n      add\n      exp(0x0100, 0x00)\n      dup2\n      sload\n      dup2\n      0xffffffffffffffffffffffffffffffffffffffff\n      mul\n      not\n      and\n      swap1\n      dup4\n      0xffffffffffffffffffffffffffffffffffffffff\n      and\n      mul\n      or\n      swap1\n      sstore\n      pop\n      0x01\n      dup3\n      add\n      sload\n      dup2\n      0x01\n      add\n      sstore\n      swap1\n      pop\n      pop\n        /* \"Solidity100/Solidity51-60.sol\":3787:3881  if(Highest.amount < Donators[i].amount) {... */\n    tag_45:\n        /* \"Solidity100/Solidity51-60.sol\":3768:3771  i++ */\n      dup1\n      dup1\n      0x01\n      add\n      swap2\n      pop\n      pop\n        /* \"Solidity100/Solidity51-60.sol\":3737:3891  for(uint i=0;i<Donators.length;i++) {... */\n      jump(tag_39)\n    tag_40:\n      pop\n        /* \"Solidity100/Solidity51-60.sol\":3698:3897  function setHighest() public {... */\n      jump\t// out\n        /* \"Solidity100/Solidity51-60.sol\":3266:3291  Donator[] public Donators */\n    tag_15:\n      0x00\n      dup2\n      dup2\n      sload\n      dup2\n      lt\n      tag_49\n      jumpi\n      0x00\n      dup1\n      revert\n    tag_49:\n      swap1\n      0x00\n      mstore\n      keccak256(0x00, 0x20)\n      swap1\n      0x02\n      mul\n      add\n      0x00\n      swap2\n      pop\n      swap1\n      pop\n      dup1\n      0x00\n      add\n      0x00\n      swap1\n      sload\n      swap1\n      0x0100\n      exp\n      swap1\n      div\n      0xffffffffffffffffffffffffffffffffffffffff\n      and\n      swap1\n      dup1\n      0x01\n      add\n      sload\n      swap1\n      pop\n      dup3\n      jump\t// out\n        /* \"Solidity100/Solidity51-60.sol\":3297:3319  Donator public Highest */\n    tag_20:\n      0x01\n      dup1\n      0x00\n      add\n      0x00\n      swap1\n      sload\n      swap1\n      0x0100\n      exp\n      swap1\n      div\n      0xffffffffffffffffffffffffffffffffffffffff\n      and\n      swap1\n      dup1\n      0x01\n      add\n      sload\n      swap1\n      pop\n      dup3\n      jump\t// out\n        /* \"#utility.yul\":88:205   */\n    tag_52:\n        /* \"#utility.yul\":197:198   */\n      0x00\n        /* \"#utility.yul\":194:195   */\n      dup1\n        /* \"#utility.yul\":187:199   */\n      revert\n        /* \"#utility.yul\":334:411   */\n    tag_54:\n        /* \"#utility.yul\":371:378   */\n      0x00\n        /* \"#utility.yul\":400:405   */\n      dup2\n        /* \"#utility.yul\":389:405   */\n      swap1\n      pop\n        /* \"#utility.yul\":334:411   */\n      swap2\n      swap1\n      pop\n      jump\t// out\n        /* \"#utility.yul\":417:539   */\n    tag_55:\n        /* \"#utility.yul\":490:514   */\n      tag_68\n        /* \"#utility.yul\":508:513   */\n      dup2\n        /* \"#utility.yul\":490:514   */\n      tag_54\n      jump\t// in\n    tag_68:\n        /* \"#utility.yul\":483:488   */\n      dup2\n        /* \"#utility.yul\":480:515   */\n      eq\n        /* \"#utility.yul\":470:533   */\n      tag_69\n      jumpi\n        /* \"#utility.yul\":529:530   */\n      0x00\n        /* \"#utility.yul\":526:527   */\n      dup1\n        /* \"#utility.yul\":519:531   */\n      revert\n        /* \"#utility.yul\":470:533   */\n    tag_69:\n        /* \"#utility.yul\":417:539   */\n      pop\n      jump\t// out\n        /* \"#utility.yul\":545:684   */\n    tag_56:\n        /* \"#utility.yul\":591:596   */\n      0x00\n        /* \"#utility.yul\":629:635   */\n      dup2\n        /* \"#utility.yul\":616:636   */\n      calldataload\n        /* \"#utility.yul\":607:636   */\n      swap1\n      pop\n        /* \"#utility.yul\":645:678   */\n      tag_71\n        /* \"#utility.yul\":672:677   */\n      dup2\n        /* \"#utility.yul\":645:678   */\n      tag_55\n      jump\t// in\n    tag_71:\n        /* \"#utility.yul\":545:684   */\n      swap3\n      swap2\n      pop\n      pop\n      jump\t// out\n        /* \"#utility.yul\":690:1019   */\n    tag_14:\n        /* \"#utility.yul\":749:755   */\n      0x00\n        /* \"#utility.yul\":798:800   */\n      0x20\n        /* \"#utility.yul\":786:795   */\n      dup3\n        /* \"#utility.yul\":777:784   */\n      dup5\n        /* \"#utility.yul\":773:796   */\n      sub\n        /* \"#utility.yul\":769:801   */\n      slt\n        /* \"#utility.yul\":766:885   */\n      iszero\n      tag_73\n      jumpi\n        /* \"#utility.yul\":804:883   */\n      tag_74\n      tag_52\n      jump\t// in\n    tag_74:\n        /* \"#utility.yul\":766:885   */\n    tag_73:\n        /* \"#utility.yul\":924:925   */\n      0x00\n        /* \"#utility.yul\":949:1002   */\n      tag_75\n        /* \"#utility.yul\":994:1001   */\n      dup5\n        /* \"#utility.yul\":985:991   */\n      dup3\n        /* \"#utility.yul\":974:983   */\n      dup6\n        /* \"#utility.yul\":970:992   */\n      add\n        /* \"#utility.yul\":949:1002   */\n      tag_56\n      jump\t// in\n    tag_75:\n        /* \"#utility.yul\":939:1002   */\n      swap2\n      pop\n        /* \"#utility.yul\":895:1012   */\n      pop\n        /* \"#utility.yul\":690:1019   */\n      swap3\n      swap2\n      pop\n      pop\n      jump\t// out\n        /* \"#utility.yul\":1025:1151   */\n    tag_57:\n        /* \"#utility.yul\":1062:1069   */\n      0x00\n        /* \"#utility.yul\":1102:1144   */\n      0xffffffffffffffffffffffffffffffffffffffff\n        /* \"#utility.yul\":1095:1100   */\n      dup3\n        /* \"#utility.yul\":1091:1145   */\n      and\n        /* \"#utility.yul\":1080:1145   */\n      swap1\n      pop\n        /* \"#utility.yul\":1025:1151   */\n      swap2\n      swap1\n      pop\n      jump\t// out\n        /* \"#utility.yul\":1157:1253   */\n    tag_58:\n        /* \"#utility.yul\":1194:1201   */\n      0x00\n        /* \"#utility.yul\":1223:1247   */\n      tag_78\n        /* \"#utility.yul\":1241:1246   */\n      dup3\n        /* \"#utility.yul\":1223:1247   */\n      tag_57\n      jump\t// in\n    tag_78:\n        /* \"#utility.yul\":1212:1247   */\n      swap1\n      pop\n        /* \"#utility.yul\":1157:1253   */\n      swap2\n      swap1\n      pop\n      jump\t// out\n        /* \"#utility.yul\":1259:1377   */\n    tag_59:\n        /* \"#utility.yul\":1346:1370   */\n      tag_80\n        /* \"#utility.yul\":1364:1369   */\n      dup2\n        /* \"#utility.yul\":1346:1370   */\n      tag_58\n      jump\t// in\n    tag_80:\n        /* \"#utility.yul\":1341:1344   */\n      dup3\n        /* \"#utility.yul\":1334:1371   */\n      mstore\n        /* \"#utility.yul\":1259:1377   */\n      pop\n      pop\n      jump\t// out\n        /* \"#utility.yul\":1383:1501   */\n    tag_60:\n        /* \"#utility.yul\":1470:1494   */\n      tag_82\n        /* \"#utility.yul\":1488:1493   */\n      dup2\n        /* \"#utility.yul\":1470:1494   */\n      tag_54\n      jump\t// in\n    tag_82:\n        /* \"#utility.yul\":1465:1468   */\n      dup3\n        /* \"#utility.yul\":1458:1495   */\n      mstore\n        /* \"#utility.yul\":1383:1501   */\n      pop\n      pop\n      jump\t// out\n        /* \"#utility.yul\":1507:1839   */\n    tag_17:\n        /* \"#utility.yul\":1628:1632   */\n      0x00\n        /* \"#utility.yul\":1666:1668   */\n      0x40\n        /* \"#utility.yul\":1655:1664   */\n      dup3\n        /* \"#utility.yul\":1651:1669   */\n      add\n        /* \"#utility.yul\":1643:1669   */\n      swap1\n      pop\n        /* \"#utility.yul\":1679:1750   */\n      tag_84\n        /* \"#utility.yul\":1747:1748   */\n      0x00\n        /* \"#utility.yul\":1736:1745   */\n      dup4\n        /* \"#utility.yul\":1732:1749   */\n      add\n        /* \"#utility.yul\":1723:1729   */\n      dup6\n        /* \"#utility.yul\":1679:1750   */\n      tag_59\n      jump\t// in\n    tag_84:\n        /* \"#utility.yul\":1760:1832   */\n      tag_85\n        /* \"#utility.yul\":1828:1830   */\n      0x20\n        /* \"#utility.yul\":1817:1826   */\n      dup4\n        /* \"#utility.yul\":1813:1831   */\n      add\n        /* \"#utility.yul\":1804:1810   */\n      dup5\n        /* \"#utility.yul\":1760:1832   */\n      tag_60\n      jump\t// in\n    tag_85:\n        /* \"#utility.yul\":1507:1839   */\n      swap4\n      swap3\n      pop\n      pop\n      pop\n      jump\t// out\n        /* \"#utility.yul\":1845:2025   */\n    tag_28:\n        /* \"#utility.yul\":1893:1970   */\n      0x4e487b7100000000000000000000000000000000000000000000000000000000\n        /* \"#utility.yul\":1890:1891   */\n      0x00\n        /* \"#utility.yul\":1883:1971   */\n      mstore\n        /* \"#utility.yul\":1990:1994   */\n      0x32\n        /* \"#utility.yul\":1987:1988   */\n      0x04\n        /* \"#utility.yul\":1980:1995   */\n      mstore\n        /* \"#utility.yul\":2014:2018   */\n      0x24\n        /* \"#utility.yul\":2011:2012   */\n      0x00\n        /* \"#utility.yul\":2004:2019   */\n      revert\n        /* \"#utility.yul\":2031:2211   */\n    tag_61:\n        /* \"#utility.yul\":2079:2156   */\n      0x4e487b7100000000000000000000000000000000000000000000000000000000\n        /* \"#utility.yul\":2076:2077   */\n      0x00\n        /* \"#utility.yul\":2069:2157   */\n      mstore\n        /* \"#utility.yul\":2176:2180   */\n      0x11\n        /* \"#utility.yul\":2173:2174   */\n      0x04\n        /* \"#utility.yul\":2166:2181   */\n      mstore\n        /* \"#utility.yul\":2200:2204   */\n      0x24\n        /* \"#utility.yul\":2197:2198   */\n      0x00\n        /* \"#utility.yul\":2190:2205   */\n      revert\n        /* \"#utility.yul\":2217:2408   */\n    tag_35:\n        /* \"#utility.yul\":2257:2260   */\n      0x00\n        /* \"#utility.yul\":2276:2296   */\n      tag_89\n        /* \"#utility.yul\":2294:2295   */\n      dup3\n        /* \"#utility.yul\":2276:2296   */\n      tag_54\n      jump\t// in\n    tag_89:\n        /* \"#utility.yul\":2271:2296   */\n      swap2\n      pop\n        /* \"#utility.yul\":2310:2330   */\n      tag_90\n        /* \"#utility.yul\":2328:2329   */\n      dup4\n        /* \"#utility.yul\":2310:2330   */\n      tag_54\n      jump\t// in\n    tag_90:\n        /* \"#utility.yul\":2305:2330   */\n      swap3\n      pop\n        /* \"#utility.yul\":2353:2354   */\n      dup3\n        /* \"#utility.yul\":2350:2351   */\n      dup3\n        /* \"#utility.yul\":2346:2355   */\n      add\n        /* \"#utility.yul\":2339:2355   */\n      swap1\n      pop\n        /* \"#utility.yul\":2374:2377   */\n      dup1\n        /* \"#utility.yul\":2371:2372   */\n      dup3\n        /* \"#utility.yul\":2368:2378   */\n      gt\n        /* \"#utility.yul\":2365:2401   */\n      iszero\n      tag_91\n      jumpi\n        /* \"#utility.yul\":2381:2399   */\n      tag_92\n      tag_61\n      jump\t// in\n    tag_92:\n        /* \"#utility.yul\":2365:2401   */\n    tag_91:\n        /* \"#utility.yul\":2217:2408   */\n      swap3\n      swap2\n      pop\n      pop\n      jump\t// out\n\n    auxdata: 0xa26469706673582212205d025168a16bf557c8ebc04fc1b9d55304d1c5f857596563b00af776279270db64736f6c634300081a0033\n}\n",
				"bytecode": {
					"linkReferences": {},
					"object": "6080604052348015600e575f80fd5b506105378061001c5f395ff3fe60806040526004361061003e575f3560e01c8063229a4080146100425780632e54fe7e1461004c5780638ca2963114610062578063de8f15971461009f575b5f80fd5b61004a6100ca565b005b348015610057575f80fd5b50610060610242565b005b34801561006d575f80fd5b50610088600480360381019061008391906103d4565b610320565b60405161009692919061044d565b60405180910390f35b3480156100aa575f80fd5b506100b361036d565b6040516100c192919061044d565b60405180910390f35b5f805b5f80549050811015610196573373ffffffffffffffffffffffffffffffffffffffff165f828154811061010357610102610474565b5b905f5260205f2090600202015f015f9054906101000a900473ffffffffffffffffffffffffffffffffffffffff1673ffffffffffffffffffffffffffffffffffffffff160361018957345f82815481106101605761015f610474565b5b905f5260205f2090600202016001015f82825461017d91906104ce565b92505081905550600191505b80806001019150506100cd565b508061023f575f60405180604001604052803373ffffffffffffffffffffffffffffffffffffffff16815260200134815250908060018154018082558091505060019003905f5260205f2090600202015f909190919091505f820151815f015f6101000a81548173ffffffffffffffffffffffffffffffffffffffff021916908373ffffffffffffffffffffffffffffffffffffffff1602179055506020820151816001015550505b50565b5f5b5f8054905081101561031d575f818154811061026357610262610474565b5b905f5260205f2090600202016001015460018001541015610310575f818154811061029157610290610474565b5b905f5260205f20906002020160015f82015f9054906101000a900473ffffffffffffffffffffffffffffffffffffffff16815f015f6101000a81548173ffffffffffffffffffffffffffffffffffffffff021916908373ffffffffffffffffffffffffffffffffffffffff160217905550600182015481600101559050505b8080600101915050610244565b50565b5f818154811061032e575f80fd5b905f5260205f2090600202015f91509050805f015f9054906101000a900473ffffffffffffffffffffffffffffffffffffffff16908060010154905082565b6001805f015f9054906101000a900473ffffffffffffffffffffffffffffffffffffffff16908060010154905082565b5f80fd5b5f819050919050565b6103b3816103a1565b81146103bd575f80fd5b50565b5f813590506103ce816103aa565b92915050565b5f602082840312156103e9576103e861039d565b5b5f6103f6848285016103c0565b91505092915050565b5f73ffffffffffffffffffffffffffffffffffffffff82169050919050565b5f610428826103ff565b9050919050565b6104388161041e565b82525050565b610447816103a1565b82525050565b5f6040820190506104605f83018561042f565b61046d602083018461043e565b9392505050565b7f4e487b71000000000000000000000000000000000000000000000000000000005f52603260045260245ffd5b7f4e487b71000000000000000000000000000000000000000000000000000000005f52601160045260245ffd5b5f6104d8826103a1565b91506104e3836103a1565b92508282019050808211156104fb576104fa6104a1565b5b9291505056fea26469706673582212205d025168a16bf557c8ebc04fc1b9d55304d1c5f857596563b00af776279270db64736f6c634300081a0033",
					"opcodes": "PUSH1 0x80 PUSH1 0x40 MSTORE CALLVALUE DUP1 ISZERO PUSH1 0xE JUMPI PUSH0 DUP1 REVERT JUMPDEST POP PUSH2 0x537 DUP1 PUSH2 0x1C PUSH0 CODECOPY PUSH0 RETURN INVALID PUSH1 0x80 PUSH1 0x40 MSTORE PUSH1 0x4 CALLDATASIZE LT PUSH2 0x3E JUMPI PUSH0 CALLDATALOAD PUSH1 0xE0 SHR DUP1 PUSH4 0x229A4080 EQ PUSH2 0x42 JUMPI DUP1 PUSH4 0x2E54FE7E EQ PUSH2 0x4C JUMPI DUP1 PUSH4 0x8CA29631 EQ PUSH2 0x62 JUMPI DUP1 PUSH4 0xDE8F1597 EQ PUSH2 0x9F JUMPI JUMPDEST PUSH0 DUP1 REVERT JUMPDEST PUSH2 0x4A PUSH2 0xCA JUMP JUMPDEST STOP JUMPDEST CALLVALUE DUP1 ISZERO PUSH2 0x57 JUMPI PUSH0 DUP1 REVERT JUMPDEST POP PUSH2 0x60 PUSH2 0x242 JUMP JUMPDEST STOP JUMPDEST CALLVALUE DUP1 ISZERO PUSH2 0x6D JUMPI PUSH0 DUP1 REVERT JUMPDEST POP PUSH2 0x88 PUSH1 0x4 DUP1 CALLDATASIZE SUB DUP2 ADD SWAP1 PUSH2 0x83 SWAP2 SWAP1 PUSH2 0x3D4 JUMP JUMPDEST PUSH2 0x320 JUMP JUMPDEST PUSH1 0x40 MLOAD PUSH2 0x96 SWAP3 SWAP2 SWAP1 PUSH2 0x44D JUMP JUMPDEST PUSH1 0x40 MLOAD DUP1 SWAP2 SUB SWAP1 RETURN JUMPDEST CALLVALUE DUP1 ISZERO PUSH2 0xAA JUMPI PUSH0 DUP1 REVERT JUMPDEST POP PUSH2 0xB3 PUSH2 0x36D JUMP JUMPDEST PUSH1 0x40 MLOAD PUSH2 0xC1 SWAP3 SWAP2 SWAP1 PUSH2 0x44D JUMP JUMPDEST PUSH1 0x40 MLOAD DUP1 SWAP2 SUB SWAP1 RETURN JUMPDEST PUSH0 DUP1 JUMPDEST PUSH0 DUP1 SLOAD SWAP1 POP DUP2 LT ISZERO PUSH2 0x196 JUMPI CALLER PUSH20 0xFFFFFFFFFFFFFFFFFFFFFFFFFFFFFFFFFFFFFFFF AND PUSH0 DUP3 DUP2 SLOAD DUP2 LT PUSH2 0x103 JUMPI PUSH2 0x102 PUSH2 0x474 JUMP JUMPDEST JUMPDEST SWAP1 PUSH0 MSTORE PUSH1 0x20 PUSH0 KECCAK256 SWAP1 PUSH1 0x2 MUL ADD PUSH0 ADD PUSH0 SWAP1 SLOAD SWAP1 PUSH2 0x100 EXP SWAP1 DIV PUSH20 0xFFFFFFFFFFFFFFFFFFFFFFFFFFFFFFFFFFFFFFFF AND PUSH20 0xFFFFFFFFFFFFFFFFFFFFFFFFFFFFFFFFFFFFFFFF AND SUB PUSH2 0x189 JUMPI CALLVALUE PUSH0 DUP3 DUP2 SLOAD DUP2 LT PUSH2 0x160 JUMPI PUSH2 0x15F PUSH2 0x474 JUMP JUMPDEST JUMPDEST SWAP1 PUSH0 MSTORE PUSH1 0x20 PUSH0 KECCAK256 SWAP1 PUSH1 0x2 MUL ADD PUSH1 0x1 ADD PUSH0 DUP3 DUP3 SLOAD PUSH2 0x17D SWAP2 SWAP1 PUSH2 0x4CE JUMP JUMPDEST SWAP3 POP POP DUP2 SWAP1 SSTORE POP PUSH1 0x1 SWAP2 POP JUMPDEST DUP1 DUP1 PUSH1 0x1 ADD SWAP2 POP POP PUSH2 0xCD JUMP JUMPDEST POP DUP1 PUSH2 0x23F JUMPI PUSH0 PUSH1 0x40 MLOAD DUP1 PUSH1 0x40 ADD PUSH1 0x40 MSTORE DUP1 CALLER PUSH20 0xFFFFFFFFFFFFFFFFFFFFFFFFFFFFFFFFFFFFFFFF AND DUP2 MSTORE PUSH1 0x20 ADD CALLVALUE DUP2 MSTORE POP SWAP1 DUP1 PUSH1 0x1 DUP2 SLOAD ADD DUP1 DUP3 SSTORE DUP1 SWAP2 POP POP PUSH1 0x1 SWAP1 SUB SWAP1 PUSH0 MSTORE PUSH1 0x20 PUSH0 KECCAK256 SWAP1 PUSH1 0x2 MUL ADD PUSH0 SWAP1 SWAP2 SWAP1 SWAP2 SWAP1 SWAP2 POP PUSH0 DUP3 ADD MLOAD DUP2 PUSH0 ADD PUSH0 PUSH2 0x100 EXP DUP2 SLOAD DUP2 PUSH20 0xFFFFFFFFFFFFFFFFFFFFFFFFFFFFFFFFFFFFFFFF MUL NOT AND SWAP1 DUP4 PUSH20 0xFFFFFFFFFFFFFFFFFFFFFFFFFFFFFFFFFFFFFFFF AND MUL OR SWAP1 SSTORE POP PUSH1 0x20 DUP3 ADD MLOAD DUP2 PUSH1 0x1 ADD SSTORE POP POP JUMPDEST POP JUMP JUMPDEST PUSH0 JUMPDEST PUSH0 DUP1 SLOAD SWAP1 POP DUP2 LT ISZERO PUSH2 0x31D JUMPI PUSH0 DUP2 DUP2 SLOAD DUP2 LT PUSH2 0x263 JUMPI PUSH2 0x262 PUSH2 0x474 JUMP JUMPDEST JUMPDEST SWAP1 PUSH0 MSTORE PUSH1 0x20 PUSH0 KECCAK256 SWAP1 PUSH1 0x2 MUL ADD PUSH1 0x1 ADD SLOAD PUSH1 0x1 DUP1 ADD SLOAD LT ISZERO PUSH2 0x310 JUMPI PUSH0 DUP2 DUP2 SLOAD DUP2 LT PUSH2 0x291 JUMPI PUSH2 0x290 PUSH2 0x474 JUMP JUMPDEST JUMPDEST SWAP1 PUSH0 MSTORE PUSH1 0x20 PUSH0 KECCAK256 SWAP1 PUSH1 0x2 MUL ADD PUSH1 0x1 PUSH0 DUP3 ADD PUSH0 SWAP1 SLOAD SWAP1 PUSH2 0x100 EXP SWAP1 DIV PUSH20 0xFFFFFFFFFFFFFFFFFFFFFFFFFFFFFFFFFFFFFFFF AND DUP2 PUSH0 ADD PUSH0 PUSH2 0x100 EXP DUP2 SLOAD DUP2 PUSH20 0xFFFFFFFFFFFFFFFFFFFFFFFFFFFFFFFFFFFFFFFF MUL NOT AND SWAP1 DUP4 PUSH20 0xFFFFFFFFFFFFFFFFFFFFFFFFFFFFFFFFFFFFFFFF AND MUL OR SWAP1 SSTORE POP PUSH1 0x1 DUP3 ADD SLOAD DUP2 PUSH1 0x1 ADD SSTORE SWAP1 POP POP JUMPDEST DUP1 DUP1 PUSH1 0x1 ADD SWAP2 POP POP PUSH2 0x244 JUMP JUMPDEST POP JUMP JUMPDEST PUSH0 DUP2 DUP2 SLOAD DUP2 LT PUSH2 0x32E JUMPI PUSH0 DUP1 REVERT JUMPDEST SWAP1 PUSH0 MSTORE PUSH1 0x20 PUSH0 KECCAK256 SWAP1 PUSH1 0x2 MUL ADD PUSH0 SWAP2 POP SWAP1 POP DUP1 PUSH0 ADD PUSH0 SWAP1 SLOAD SWAP1 PUSH2 0x100 EXP SWAP1 DIV PUSH20 0xFFFFFFFFFFFFFFFFFFFFFFFFFFFFFFFFFFFFFFFF AND SWAP1 DUP1 PUSH1 0x1 ADD SLOAD SWAP1 POP DUP3 JUMP JUMPDEST PUSH1 0x1 DUP1 PUSH0 ADD PUSH0 SWAP1 SLOAD SWAP1 PUSH2 0x100 EXP SWAP1 DIV PUSH20 0xFFFFFFFFFFFFFFFFFFFFFFFFFFFFFFFFFFFFFFFF AND SWAP1 DUP1 PUSH1 0x1 ADD SLOAD SWAP1 POP DUP3 JUMP JUMPDEST PUSH0 DUP1 REVERT JUMPDEST PUSH0 DUP2 SWAP1 POP SWAP2 SWAP1 POP JUMP JUMPDEST PUSH2 0x3B3 DUP2 PUSH2 0x3A1 JUMP JUMPDEST DUP2 EQ PUSH2 0x3BD JUMPI PUSH0 DUP1 REVERT JUMPDEST POP JUMP JUMPDEST PUSH0 DUP2 CALLDATALOAD SWAP1 POP PUSH2 0x3CE DUP2 PUSH2 0x3AA JUMP JUMPDEST SWAP3 SWAP2 POP POP JUMP JUMPDEST PUSH0 PUSH1 0x20 DUP3 DUP5 SUB SLT ISZERO PUSH2 0x3E9 JUMPI PUSH2 0x3E8 PUSH2 0x39D JUMP JUMPDEST JUMPDEST PUSH0 PUSH2 0x3F6 DUP5 DUP3 DUP6 ADD PUSH2 0x3C0 JUMP JUMPDEST SWAP2 POP POP SWAP3 SWAP2 POP POP JUMP JUMPDEST PUSH0 PUSH20 0xFFFFFFFFFFFFFFFFFFFFFFFFFFFFFFFFFFFFFFFF DUP3 AND SWAP1 POP SWAP2 SWAP1 POP JUMP JUMPDEST PUSH0 PUSH2 0x428 DUP3 PUSH2 0x3FF JUMP JUMPDEST SWAP1 POP SWAP2 SWAP1 POP JUMP JUMPDEST PUSH2 0x438 DUP2 PUSH2 0x41E JUMP JUMPDEST DUP3 MSTORE POP POP JUMP JUMPDEST PUSH2 0x447 DUP2 PUSH2 0x3A1 JUMP JUMPDEST DUP3 MSTORE POP POP JUMP JUMPDEST PUSH0 PUSH1 0x40 DUP3 ADD SWAP1 POP PUSH2 0x460 PUSH0 DUP4 ADD DUP6 PUSH2 0x42F JUMP JUMPDEST PUSH2 0x46D PUSH1 0x20 DUP4 ADD DUP5 PUSH2 0x43E JUMP JUMPDEST SWAP4 SWAP3 POP POP POP JUMP JUMPDEST PUSH32 0x4E487B7100000000000000000000000000000000000000000000000000000000 PUSH0 MSTORE PUSH1 0x32 PUSH1 0x4 MSTORE PUSH1 0x24 PUSH0 REVERT JUMPDEST PUSH32 0x4E487B7100000000000000000000000000000000000000000000000000000000 PUSH0 MSTORE PUSH1 0x11 PUSH1 0x4 MSTORE PUSH1 0x24 PUSH0 REVERT JUMPDEST PUSH0 PUSH2 0x4D8 DUP3 PUSH2 0x3A1 JUMP JUMPDEST SWAP2 POP PUSH2 0x4E3 DUP4 PUSH2 0x3A1 JUMP JUMPDEST SWAP3 POP DUP3 DUP3 ADD SWAP1 POP DUP1 DUP3 GT ISZERO PUSH2 0x4FB JUMPI PUSH2 0x4FA PUSH2 0x4A1 JUMP JUMPDEST JUMPDEST SWAP3 SWAP2 POP POP JUMP INVALID LOG2 PUSH5 0x6970667358 0x22 SLT KECCAK256 TSTORE MUL MLOAD PUSH9 0xA16BF557C8EBC04FC1 0xB9 0xD5 MSTORE8 DIV 0xD1 0xC5 0xF8 JUMPI MSIZE PUSH6 0x63B00AF77627 SWAP3 PUSH17 0xDB64736F6C634300081A00330000000000 "
				},
				"gasEstimates": {
					"creation": {
						"codeDepositCost": "267000",
						"executionCost": "304",
						"totalCost": "267304"
					},
					"external": {
						"Donators(uint256)": "infinite",
						"Highest()": "4776",
						"setDonator()": "infinite",
						"setHighest()": "infinite"
					}
				},
				"methodIdentifiers": {
					"Donators(uint256)": "8ca29631",
					"Highest()": "de8f1597",
					"setDonator()": "229a4080",
					"setHighest()": "2e54fe7e"
				}
			},
			"storageLayout": {
				"storage": [
					{
						"astId": 354,
						"contract": "Solidity100/Solidity51-60.sol:Question54",
						"label": "Donators",
						"offset": 0,
						"slot": "0",
						"type": "t_array(t_struct(Donator)350_storage)dyn_storage"
					},
					{
						"astId": 357,
						"contract": "Solidity100/Solidity51-60.sol:Question54",
						"label": "Highest",
						"offset": 0,
						"slot": "1",
						"type": "t_struct(Donator)350_storage"
					}
				],
				"types": {
					"t_address": {
						"encoding": "inplace",
						"label": "address",
						"numberOfBytes": "20"
					},
					"t_array(t_struct(Donator)350_storage)dyn_storage": {
						"base": "t_struct(Donator)350_storage",
						"encoding": "dynamic_array",
						"label": "struct Question54.Donator[]",
						"numberOfBytes": "32"
					},
					"t_struct(Donator)350_storage": {
						"encoding": "inplace",
						"label": "struct Question54.Donator",
						"members": [
							{
								"astId": 347,
								"contract": "Solidity100/Solidity51-60.sol:Question54",
								"label": "addr",
								"offset": 0,
								"slot": "0",
								"type": "t_address"
							},
							{
								"astId": 349,
								"contract": "Solidity100/Solidity51-60.sol:Question54",
								"label": "amount",
								"offset": 0,
								"slot": "1",
								"type": "t_uint256"
							}
						],
						"numberOfBytes": "64"
					},
					"t_uint256": {
						"encoding": "inplace",
						"label": "uint256",
						"numberOfBytes": "32"
					}
				}
			},
			"userdoc": {
				"kind": "user",
				"methods": {},
				"version": 1
			}
		}
	}
}