{
	"Solidity100/Solidity51-60.sol": {
		"Question60": {
			"abi": [
				{
					"inputs": [
						{
							"internalType": "uint256",
							"name": "_date",
							"type": "uint256"
						}
					],
					"name": "getReservation",
					"outputs": [
						{
							"internalType": "string[2]",
							"name": "",
							"type": "string[2]"
						},
						{
							"internalType": "string[2]",
							"name": "",
							"type": "string[2]"
						}
					],
					"stateMutability": "view",
					"type": "function"
				},
				{
					"inputs": [
						{
							"internalType": "uint256",
							"name": "_date",
							"type": "uint256"
						},
						{
							"internalType": "uint256",
							"name": "_room",
							"type": "uint256"
						},
						{
							"internalType": "string[2]",
							"name": "_names",
							"type": "string[2]"
						}
					],
					"name": "setReservation",
					"outputs": [],
					"stateMutability": "nonpayable",
					"type": "function"
				}
			],
			"devdoc": {
				"kind": "dev",
				"methods": {},
				"version": 1
			},
			"evm": {
				"assembly": "    /* \"Solidity100/Solidity51-60.sol\":6638:7591  contract Question60{... */\n  mstore(0x40, 0x80)\n  callvalue\n  dup1\n  iszero\n  tag_1\n  jumpi\n  0x00\n  dup1\n  revert\ntag_1:\n  pop\n  dataSize(sub_0)\n  dup1\n  dataOffset(sub_0)\n  0x00\n  codecopy\n  0x00\n  return\nstop\n\nsub_0: assembly {\n        /* \"Solidity100/Solidity51-60.sol\":6638:7591  contract Question60{... */\n      mstore(0x40, 0x80)\n      callvalue\n      dup1\n      iszero\n      tag_1\n      jumpi\n      0x00\n      dup1\n      revert\n    tag_1:\n      pop\n      jumpi(tag_2, lt(calldatasize, 0x04))\n      shr(0xe0, calldataload(0x00))\n      dup1\n      0x554c9634\n      eq\n      tag_3\n      jumpi\n      dup1\n      0xd57763c3\n      eq\n      tag_4\n      jumpi\n    tag_2:\n      0x00\n      dup1\n      revert\n        /* \"Solidity100/Solidity51-60.sol\":7251:7421  function setReservation(uint _date, uint _room, string[2] memory _names) public {... */\n    tag_3:\n      tag_5\n      0x04\n      dup1\n      calldatasize\n      sub\n      dup2\n      add\n      swap1\n      tag_6\n      swap2\n      swap1\n      tag_7\n      jump\t// in\n    tag_6:\n      tag_8\n      jump\t// in\n    tag_5:\n      stop\n        /* \"Solidity100/Solidity51-60.sol\":7427:7589  function getReservation(uint _date) public view returns(string[2] memory, string[2] memory) {... */\n    tag_4:\n      tag_9\n      0x04\n      dup1\n      calldatasize\n      sub\n      dup2\n      add\n      swap1\n      tag_10\n      swap2\n      swap1\n      tag_11\n      jump\t// in\n    tag_10:\n      tag_12\n      jump\t// in\n    tag_9:\n      mload(0x40)\n      tag_13\n      swap3\n      swap2\n      swap1\n      tag_14\n      jump\t// in\n    tag_13:\n      mload(0x40)\n      dup1\n      swap2\n      sub\n      swap1\n      return\n        /* \"Solidity100/Solidity51-60.sol\":7251:7421  function setReservation(uint _date, uint _room, string[2] memory _names) public {... */\n    tag_8:\n        /* \"Solidity100/Solidity51-60.sol\":7357:7358  2 */\n      0x02\n        /* \"Solidity100/Solidity51-60.sol\":7349:7354  _room */\n      dup3\n        /* \"Solidity100/Solidity51-60.sol\":7349:7358  _room < 2 */\n      lt\n        /* \"Solidity100/Solidity51-60.sol\":7341:7370  require(_room < 2, \"no room\") */\n      tag_16\n      jumpi\n      mload(0x40)\n      0x08c379a000000000000000000000000000000000000000000000000000000000\n      dup2\n      mstore\n      0x04\n      add\n      tag_17\n      swap1\n      tag_18\n      jump\t// in\n    tag_17:\n      mload(0x40)\n      dup1\n      swap2\n      sub\n      swap1\n      revert\n    tag_16:\n        /* \"Solidity100/Solidity51-60.sol\":7408:7414  _names */\n      dup1\n        /* \"Solidity100/Solidity51-60.sol\":7380:7391  reservation */\n      0x00\n        /* \"Solidity100/Solidity51-60.sol\":7380:7398  reservation[_date] */\n      dup1\n        /* \"Solidity100/Solidity51-60.sol\":7392:7397  _date */\n      dup6\n        /* \"Solidity100/Solidity51-60.sol\":7380:7398  reservation[_date] */\n      dup2\n      mstore\n      0x20\n      add\n      swap1\n      dup2\n      mstore\n      0x20\n      add\n      0x00\n      keccak256\n        /* \"Solidity100/Solidity51-60.sol\":7380:7405  reservation[_date][_room] */\n      0x00\n        /* \"Solidity100/Solidity51-60.sol\":7399:7404  _room */\n      dup5\n        /* \"Solidity100/Solidity51-60.sol\":7380:7405  reservation[_date][_room] */\n      dup2\n      mstore\n      0x20\n      add\n      swap1\n      dup2\n      mstore\n      0x20\n      add\n      0x00\n      keccak256\n        /* \"Solidity100/Solidity51-60.sol\":7380:7414  reservation[_date][_room] = _names */\n      swap1\n      0x02\n      tag_19\n      swap3\n      swap2\n      swap1\n      tag_20\n      jump\t// in\n    tag_19:\n      pop\n        /* \"Solidity100/Solidity51-60.sol\":7251:7421  function setReservation(uint _date, uint _room, string[2] memory _names) public {... */\n      pop\n      pop\n      pop\n      jump\t// out\n        /* \"Solidity100/Solidity51-60.sol\":7427:7589  function getReservation(uint _date) public view returns(string[2] memory, string[2] memory) {... */\n    tag_12:\n        /* \"Solidity100/Solidity51-60.sol\":7483:7499  string[2] memory */\n      tag_21\n      tag_22\n      jump\t// in\n    tag_21:\n        /* \"Solidity100/Solidity51-60.sol\":7501:7517  string[2] memory */\n      tag_23\n      tag_22\n      jump\t// in\n    tag_23:\n        /* \"Solidity100/Solidity51-60.sol\":7537:7548  reservation */\n      0x00\n        /* \"Solidity100/Solidity51-60.sol\":7537:7555  reservation[_date] */\n      dup1\n        /* \"Solidity100/Solidity51-60.sol\":7549:7554  _date */\n      dup5\n        /* \"Solidity100/Solidity51-60.sol\":7537:7555  reservation[_date] */\n      dup2\n      mstore\n      0x20\n      add\n      swap1\n      dup2\n      mstore\n      0x20\n      add\n      0x00\n      keccak256\n        /* \"Solidity100/Solidity51-60.sol\":7537:7558  reservation[_date][0] */\n      0x00\n        /* \"Solidity100/Solidity51-60.sol\":7556:7557  0 */\n      dup1\n        /* \"Solidity100/Solidity51-60.sol\":7537:7558  reservation[_date][0] */\n      dup2\n      mstore\n      0x20\n      add\n      swap1\n      dup2\n      mstore\n      0x20\n      add\n      0x00\n      keccak256\n        /* \"Solidity100/Solidity51-60.sol\":7560:7571  reservation */\n      0x00\n        /* \"Solidity100/Solidity51-60.sol\":7560:7578  reservation[_date] */\n      dup1\n        /* \"Solidity100/Solidity51-60.sol\":7572:7577  _date */\n      dup6\n        /* \"Solidity100/Solidity51-60.sol\":7560:7578  reservation[_date] */\n      dup2\n      mstore\n      0x20\n      add\n      swap1\n      dup2\n      mstore\n      0x20\n      add\n      0x00\n      keccak256\n        /* \"Solidity100/Solidity51-60.sol\":7560:7581  reservation[_date][1] */\n      0x00\n        /* \"Solidity100/Solidity51-60.sol\":7579:7580  1 */\n      0x01\n        /* \"Solidity100/Solidity51-60.sol\":7560:7581  reservation[_date][1] */\n      dup2\n      mstore\n      0x20\n      add\n      swap1\n      dup2\n      mstore\n      0x20\n      add\n      0x00\n      keccak256\n        /* \"Solidity100/Solidity51-60.sol\":7529:7582  return (reservation[_date][0], reservation[_date][1]) */\n      dup2\n      0x02\n      dup1\n      0x20\n      mul\n      mload(0x40)\n      swap1\n      dup2\n      add\n      0x40\n      mstore\n      dup1\n      swap3\n      swap2\n      swap1\n      0x00\n      swap1\n    tag_25:\n      dup3\n      dup3\n      lt\n      iszero\n      tag_26\n      jumpi\n      dup4\n      dup3\n      add\n      dup1\n      sload\n      tag_28\n      swap1\n      tag_29\n      jump\t// in\n    tag_28:\n      dup1\n      0x1f\n      add\n      0x20\n      dup1\n      swap2\n      div\n      mul\n      0x20\n      add\n      mload(0x40)\n      swap1\n      dup2\n      add\n      0x40\n      mstore\n      dup1\n      swap3\n      swap2\n      swap1\n      dup2\n      dup2\n      mstore\n      0x20\n      add\n      dup3\n      dup1\n      sload\n      tag_30\n      swap1\n      tag_29\n      jump\t// in\n    tag_30:\n      dup1\n      iszero\n      tag_31\n      jumpi\n      dup1\n      0x1f\n      lt\n      tag_32\n      jumpi\n      0x0100\n      dup1\n      dup4\n      sload\n      div\n      mul\n      dup4\n      mstore\n      swap2\n      0x20\n      add\n      swap2\n      jump(tag_31)\n    tag_32:\n      dup3\n      add\n      swap2\n      swap1\n      0x00\n      mstore\n      keccak256(0x00, 0x20)\n      swap1\n    tag_33:\n      dup2\n      sload\n      dup2\n      mstore\n      swap1\n      0x01\n      add\n      swap1\n      0x20\n      add\n      dup1\n      dup4\n      gt\n      tag_33\n      jumpi\n      dup3\n      swap1\n      sub\n      0x1f\n      and\n      dup3\n      add\n      swap2\n    tag_31:\n      pop\n      pop\n      pop\n      pop\n      pop\n      dup2\n      mstore\n      0x20\n      add\n      swap1\n      0x01\n      add\n      swap1\n      jump(tag_25)\n    tag_26:\n      pop\n      pop\n      pop\n      pop\n      swap2\n      pop\n      dup1\n      0x02\n      dup1\n      0x20\n      mul\n      mload(0x40)\n      swap1\n      dup2\n      add\n      0x40\n      mstore\n      dup1\n      swap3\n      swap2\n      swap1\n      0x00\n      swap1\n    tag_34:\n      dup3\n      dup3\n      lt\n      iszero\n      tag_35\n      jumpi\n      dup4\n      dup3\n      add\n      dup1\n      sload\n      tag_37\n      swap1\n      tag_29\n      jump\t// in\n    tag_37:\n      dup1\n      0x1f\n      add\n      0x20\n      dup1\n      swap2\n      div\n      mul\n      0x20\n      add\n      mload(0x40)\n      swap1\n      dup2\n      add\n      0x40\n      mstore\n      dup1\n      swap3\n      swap2\n      swap1\n      dup2\n      dup2\n      mstore\n      0x20\n      add\n      dup3\n      dup1\n      sload\n      tag_38\n      swap1\n      tag_29\n      jump\t// in\n    tag_38:\n      dup1\n      iszero\n      tag_39\n      jumpi\n      dup1\n      0x1f\n      lt\n      tag_40\n      jumpi\n      0x0100\n      dup1\n      dup4\n      sload\n      div\n      mul\n      dup4\n      mstore\n      swap2\n      0x20\n      add\n      swap2\n      jump(tag_39)\n    tag_40:\n      dup3\n      add\n      swap2\n      swap1\n      0x00\n      mstore\n      keccak256(0x00, 0x20)\n      swap1\n    tag_41:\n      dup2\n      sload\n      dup2\n      mstore\n      swap1\n      0x01\n      add\n      swap1\n      0x20\n      add\n      dup1\n      dup4\n      gt\n      tag_41\n      jumpi\n      dup3\n      swap1\n      sub\n      0x1f\n      and\n      dup3\n      add\n      swap2\n    tag_39:\n      pop\n      pop\n      pop\n      pop\n      pop\n      dup2\n      mstore\n      0x20\n      add\n      swap1\n      0x01\n      add\n      swap1\n      jump(tag_34)\n    tag_35:\n      pop\n      pop\n      pop\n      pop\n      swap1\n      pop\n      swap2\n      pop\n      swap2\n      pop\n        /* \"Solidity100/Solidity51-60.sol\":7427:7589  function getReservation(uint _date) public view returns(string[2] memory, string[2] memory) {... */\n      swap2\n      pop\n      swap2\n      jump\t// out\n    tag_20:\n      dup3\n      0x02\n      dup2\n      add\n      swap3\n      dup3\n      iszero\n      tag_42\n      jumpi\n      swap2\n      0x20\n      mul\n      dup3\n      add\n    tag_43:\n      dup3\n      dup2\n      gt\n      iszero\n      tag_44\n      jumpi\n      dup3\n      mload\n      dup3\n      swap1\n      dup2\n      tag_45\n      swap2\n      swap1\n      tag_46\n      jump\t// in\n    tag_45:\n      pop\n      swap2\n      0x20\n      add\n      swap2\n      swap1\n      0x01\n      add\n      swap1\n      jump(tag_43)\n    tag_44:\n    tag_42:\n      pop\n      swap1\n      pop\n      tag_47\n      swap2\n      swap1\n      tag_48\n      jump\t// in\n    tag_47:\n      pop\n      swap1\n      jump\t// out\n    tag_22:\n      mload(0x40)\n      dup1\n      0x40\n      add\n      0x40\n      mstore\n      dup1\n      0x02\n      swap1\n    tag_49:\n      0x60\n      dup2\n      mstore\n      0x20\n      add\n      swap1\n      0x01\n      swap1\n      sub\n      swap1\n      dup2\n      tag_49\n      jumpi\n      swap1\n      pop\n      pop\n      swap1\n      jump\t// out\n    tag_48:\n    tag_50:\n      dup1\n      dup3\n      gt\n      iszero\n      tag_51\n      jumpi\n      0x00\n      dup2\n      dup2\n      tag_52\n      swap2\n      swap1\n      tag_53\n      jump\t// in\n    tag_52:\n      pop\n      0x01\n      add\n      jump(tag_50)\n    tag_51:\n      pop\n      swap1\n      jump\t// out\n    tag_53:\n      pop\n      dup1\n      sload\n      tag_54\n      swap1\n      tag_29\n      jump\t// in\n    tag_54:\n      0x00\n      dup3\n      sstore\n      dup1\n      0x1f\n      lt\n      tag_56\n      jumpi\n      pop\n      jump(tag_55)\n    tag_56:\n      0x1f\n      add\n      0x20\n      swap1\n      div\n      swap1\n      0x00\n      mstore\n      keccak256(0x00, 0x20)\n      swap1\n      dup2\n      add\n      swap1\n      tag_57\n      swap2\n      swap1\n      tag_58\n      jump\t// in\n    tag_57:\n    tag_55:\n      pop\n      jump\t// out\n    tag_58:\n    tag_59:\n      dup1\n      dup3\n      gt\n      iszero\n      tag_60\n      jumpi\n      0x00\n      dup2\n      0x00\n      swap1\n      sstore\n      pop\n      0x01\n      add\n      jump(tag_59)\n    tag_60:\n      pop\n      swap1\n      jump\t// out\n        /* \"#utility.yul\":7:82   */\n    tag_61:\n        /* \"#utility.yul\":40:46   */\n      0x00\n        /* \"#utility.yul\":73:75   */\n      0x40\n        /* \"#utility.yul\":67:76   */\n      mload\n        /* \"#utility.yul\":57:76   */\n      swap1\n      pop\n        /* \"#utility.yul\":7:82   */\n      swap1\n      jump\t// out\n        /* \"#utility.yul\":88:205   */\n    tag_62:\n        /* \"#utility.yul\":197:198   */\n      0x00\n        /* \"#utility.yul\":194:195   */\n      dup1\n        /* \"#utility.yul\":187:199   */\n      revert\n        /* \"#utility.yul\":211:328   */\n    tag_63:\n        /* \"#utility.yul\":320:321   */\n      0x00\n        /* \"#utility.yul\":317:318   */\n      dup1\n        /* \"#utility.yul\":310:322   */\n      revert\n        /* \"#utility.yul\":334:411   */\n    tag_64:\n        /* \"#utility.yul\":371:378   */\n      0x00\n        /* \"#utility.yul\":400:405   */\n      dup2\n        /* \"#utility.yul\":389:405   */\n      swap1\n      pop\n        /* \"#utility.yul\":334:411   */\n      swap2\n      swap1\n      pop\n      jump\t// out\n        /* \"#utility.yul\":417:539   */\n    tag_65:\n        /* \"#utility.yul\":490:514   */\n      tag_116\n        /* \"#utility.yul\":508:513   */\n      dup2\n        /* \"#utility.yul\":490:514   */\n      tag_64\n      jump\t// in\n    tag_116:\n        /* \"#utility.yul\":483:488   */\n      dup2\n        /* \"#utility.yul\":480:515   */\n      eq\n        /* \"#utility.yul\":470:533   */\n      tag_117\n      jumpi\n        /* \"#utility.yul\":529:530   */\n      0x00\n        /* \"#utility.yul\":526:527   */\n      dup1\n        /* \"#utility.yul\":519:531   */\n      revert\n        /* \"#utility.yul\":470:533   */\n    tag_117:\n        /* \"#utility.yul\":417:539   */\n      pop\n      jump\t// out\n        /* \"#utility.yul\":545:684   */\n    tag_66:\n        /* \"#utility.yul\":591:596   */\n      0x00\n        /* \"#utility.yul\":629:635   */\n      dup2\n        /* \"#utility.yul\":616:636   */\n      calldataload\n        /* \"#utility.yul\":607:636   */\n      swap1\n      pop\n        /* \"#utility.yul\":645:678   */\n      tag_119\n        /* \"#utility.yul\":672:677   */\n      dup2\n        /* \"#utility.yul\":645:678   */\n      tag_65\n      jump\t// in\n    tag_119:\n        /* \"#utility.yul\":545:684   */\n      swap3\n      swap2\n      pop\n      pop\n      jump\t// out\n        /* \"#utility.yul\":690:807   */\n    tag_67:\n        /* \"#utility.yul\":799:800   */\n      0x00\n        /* \"#utility.yul\":796:797   */\n      dup1\n        /* \"#utility.yul\":789:801   */\n      revert\n        /* \"#utility.yul\":813:915   */\n    tag_68:\n        /* \"#utility.yul\":854:860   */\n      0x00\n        /* \"#utility.yul\":905:907   */\n      0x1f\n        /* \"#utility.yul\":901:908   */\n      not\n        /* \"#utility.yul\":896:898   */\n      0x1f\n        /* \"#utility.yul\":889:894   */\n      dup4\n        /* \"#utility.yul\":885:899   */\n      add\n        /* \"#utility.yul\":881:909   */\n      and\n        /* \"#utility.yul\":871:909   */\n      swap1\n      pop\n        /* \"#utility.yul\":813:915   */\n      swap2\n      swap1\n      pop\n      jump\t// out\n        /* \"#utility.yul\":921:1101   */\n    tag_69:\n        /* \"#utility.yul\":969:1046   */\n      0x4e487b7100000000000000000000000000000000000000000000000000000000\n        /* \"#utility.yul\":966:967   */\n      0x00\n        /* \"#utility.yul\":959:1047   */\n      mstore\n        /* \"#utility.yul\":1066:1070   */\n      0x41\n        /* \"#utility.yul\":1063:1064   */\n      0x04\n        /* \"#utility.yul\":1056:1071   */\n      mstore\n        /* \"#utility.yul\":1090:1094   */\n      0x24\n        /* \"#utility.yul\":1087:1088   */\n      0x00\n        /* \"#utility.yul\":1080:1095   */\n      revert\n        /* \"#utility.yul\":1107:1388   */\n    tag_70:\n        /* \"#utility.yul\":1190:1217   */\n      tag_124\n        /* \"#utility.yul\":1212:1216   */\n      dup3\n        /* \"#utility.yul\":1190:1217   */\n      tag_68\n      jump\t// in\n    tag_124:\n        /* \"#utility.yul\":1182:1188   */\n      dup2\n        /* \"#utility.yul\":1178:1218   */\n      add\n        /* \"#utility.yul\":1320:1326   */\n      dup2\n        /* \"#utility.yul\":1308:1318   */\n      dup2\n        /* \"#utility.yul\":1305:1327   */\n      lt\n        /* \"#utility.yul\":1284:1302   */\n      0xffffffffffffffff\n        /* \"#utility.yul\":1272:1282   */\n      dup3\n        /* \"#utility.yul\":1269:1303   */\n      gt\n        /* \"#utility.yul\":1266:1328   */\n      or\n        /* \"#utility.yul\":1263:1351   */\n      iszero\n      tag_125\n      jumpi\n        /* \"#utility.yul\":1331:1349   */\n      tag_126\n      tag_69\n      jump\t// in\n    tag_126:\n        /* \"#utility.yul\":1263:1351   */\n    tag_125:\n        /* \"#utility.yul\":1371:1381   */\n      dup1\n        /* \"#utility.yul\":1367:1369   */\n      0x40\n        /* \"#utility.yul\":1360:1382   */\n      mstore\n        /* \"#utility.yul\":1150:1388   */\n      pop\n        /* \"#utility.yul\":1107:1388   */\n      pop\n      pop\n      jump\t// out\n        /* \"#utility.yul\":1394:1523   */\n    tag_71:\n        /* \"#utility.yul\":1428:1434   */\n      0x00\n        /* \"#utility.yul\":1455:1475   */\n      tag_128\n      tag_61\n      jump\t// in\n    tag_128:\n        /* \"#utility.yul\":1445:1475   */\n      swap1\n      pop\n        /* \"#utility.yul\":1484:1517   */\n      tag_129\n        /* \"#utility.yul\":1512:1516   */\n      dup3\n        /* \"#utility.yul\":1504:1510   */\n      dup3\n        /* \"#utility.yul\":1484:1517   */\n      tag_70\n      jump\t// in\n    tag_129:\n        /* \"#utility.yul\":1394:1523   */\n      swap2\n      swap1\n      pop\n      jump\t// out\n        /* \"#utility.yul\":1529:1788   */\n    tag_72:\n        /* \"#utility.yul\":1614:1618   */\n      0x00\n        /* \"#utility.yul\":1704:1722   */\n      0xffffffffffffffff\n        /* \"#utility.yul\":1696:1702   */\n      dup3\n        /* \"#utility.yul\":1693:1723   */\n      gt\n        /* \"#utility.yul\":1690:1746   */\n      iszero\n      tag_131\n      jumpi\n        /* \"#utility.yul\":1726:1744   */\n      tag_132\n      tag_69\n      jump\t// in\n    tag_132:\n        /* \"#utility.yul\":1690:1746   */\n    tag_131:\n        /* \"#utility.yul\":1776:1780   */\n      0x20\n        /* \"#utility.yul\":1768:1774   */\n      dup3\n        /* \"#utility.yul\":1764:1781   */\n      mul\n        /* \"#utility.yul\":1756:1781   */\n      swap1\n      pop\n        /* \"#utility.yul\":1529:1788   */\n      swap2\n      swap1\n      pop\n      jump\t// out\n        /* \"#utility.yul\":1794:1911   */\n    tag_73:\n        /* \"#utility.yul\":1903:1904   */\n      0x00\n        /* \"#utility.yul\":1900:1901   */\n      dup1\n        /* \"#utility.yul\":1893:1905   */\n      revert\n        /* \"#utility.yul\":1917:2034   */\n    tag_74:\n        /* \"#utility.yul\":2026:2027   */\n      0x00\n        /* \"#utility.yul\":2023:2024   */\n      dup1\n        /* \"#utility.yul\":2016:2028   */\n      revert\n        /* \"#utility.yul\":2040:2348   */\n    tag_75:\n        /* \"#utility.yul\":2102:2106   */\n      0x00\n        /* \"#utility.yul\":2192:2210   */\n      0xffffffffffffffff\n        /* \"#utility.yul\":2184:2190   */\n      dup3\n        /* \"#utility.yul\":2181:2211   */\n      gt\n        /* \"#utility.yul\":2178:2234   */\n      iszero\n      tag_136\n      jumpi\n        /* \"#utility.yul\":2214:2232   */\n      tag_137\n      tag_69\n      jump\t// in\n    tag_137:\n        /* \"#utility.yul\":2178:2234   */\n    tag_136:\n        /* \"#utility.yul\":2252:2281   */\n      tag_138\n        /* \"#utility.yul\":2274:2280   */\n      dup3\n        /* \"#utility.yul\":2252:2281   */\n      tag_68\n      jump\t// in\n    tag_138:\n        /* \"#utility.yul\":2244:2281   */\n      swap1\n      pop\n        /* \"#utility.yul\":2336:2340   */\n      0x20\n        /* \"#utility.yul\":2330:2334   */\n      dup2\n        /* \"#utility.yul\":2326:2341   */\n      add\n        /* \"#utility.yul\":2318:2341   */\n      swap1\n      pop\n        /* \"#utility.yul\":2040:2348   */\n      swap2\n      swap1\n      pop\n      jump\t// out\n        /* \"#utility.yul\":2354:2502   */\n    tag_76:\n        /* \"#utility.yul\":2452:2458   */\n      dup3\n        /* \"#utility.yul\":2447:2450   */\n      dup2\n        /* \"#utility.yul\":2442:2445   */\n      dup4\n        /* \"#utility.yul\":2429:2459   */\n      calldatacopy\n        /* \"#utility.yul\":2493:2494   */\n      0x00\n        /* \"#utility.yul\":2484:2490   */\n      dup4\n        /* \"#utility.yul\":2479:2482   */\n      dup4\n        /* \"#utility.yul\":2475:2491   */\n      add\n        /* \"#utility.yul\":2468:2495   */\n      mstore\n        /* \"#utility.yul\":2354:2502   */\n      pop\n      pop\n      pop\n      jump\t// out\n        /* \"#utility.yul\":2508:2933   */\n    tag_77:\n        /* \"#utility.yul\":2586:2591   */\n      0x00\n        /* \"#utility.yul\":2611:2677   */\n      tag_141\n        /* \"#utility.yul\":2627:2676   */\n      tag_142\n        /* \"#utility.yul\":2669:2675   */\n      dup5\n        /* \"#utility.yul\":2627:2676   */\n      tag_75\n      jump\t// in\n    tag_142:\n        /* \"#utility.yul\":2611:2677   */\n      tag_71\n      jump\t// in\n    tag_141:\n        /* \"#utility.yul\":2602:2677   */\n      swap1\n      pop\n        /* \"#utility.yul\":2700:2706   */\n      dup3\n        /* \"#utility.yul\":2693:2698   */\n      dup2\n        /* \"#utility.yul\":2686:2707   */\n      mstore\n        /* \"#utility.yul\":2738:2742   */\n      0x20\n        /* \"#utility.yul\":2731:2736   */\n      dup2\n        /* \"#utility.yul\":2727:2743   */\n      add\n        /* \"#utility.yul\":2776:2779   */\n      dup5\n        /* \"#utility.yul\":2767:2773   */\n      dup5\n        /* \"#utility.yul\":2762:2765   */\n      dup5\n        /* \"#utility.yul\":2758:2774   */\n      add\n        /* \"#utility.yul\":2755:2780   */\n      gt\n        /* \"#utility.yul\":2752:2864   */\n      iszero\n      tag_143\n      jumpi\n        /* \"#utility.yul\":2783:2862   */\n      tag_144\n      tag_74\n      jump\t// in\n    tag_144:\n        /* \"#utility.yul\":2752:2864   */\n    tag_143:\n        /* \"#utility.yul\":2873:2927   */\n      tag_145\n        /* \"#utility.yul\":2920:2926   */\n      dup5\n        /* \"#utility.yul\":2915:2918   */\n      dup3\n        /* \"#utility.yul\":2910:2913   */\n      dup6\n        /* \"#utility.yul\":2873:2927   */\n      tag_76\n      jump\t// in\n    tag_145:\n        /* \"#utility.yul\":2592:2933   */\n      pop\n        /* \"#utility.yul\":2508:2933   */\n      swap4\n      swap3\n      pop\n      pop\n      pop\n      jump\t// out\n        /* \"#utility.yul\":2953:3293   */\n    tag_78:\n        /* \"#utility.yul\":3009:3014   */\n      0x00\n        /* \"#utility.yul\":3058:3061   */\n      dup3\n        /* \"#utility.yul\":3051:3055   */\n      0x1f\n        /* \"#utility.yul\":3043:3049   */\n      dup4\n        /* \"#utility.yul\":3039:3056   */\n      add\n        /* \"#utility.yul\":3035:3062   */\n      slt\n        /* \"#utility.yul\":3025:3147   */\n      tag_147\n      jumpi\n        /* \"#utility.yul\":3066:3145   */\n      tag_148\n      tag_67\n      jump\t// in\n    tag_148:\n        /* \"#utility.yul\":3025:3147   */\n    tag_147:\n        /* \"#utility.yul\":3183:3189   */\n      dup2\n        /* \"#utility.yul\":3170:3190   */\n      calldataload\n        /* \"#utility.yul\":3208:3287   */\n      tag_149\n        /* \"#utility.yul\":3283:3286   */\n      dup5\n        /* \"#utility.yul\":3275:3281   */\n      dup3\n        /* \"#utility.yul\":3268:3272   */\n      0x20\n        /* \"#utility.yul\":3260:3266   */\n      dup7\n        /* \"#utility.yul\":3256:3273   */\n      add\n        /* \"#utility.yul\":3208:3287   */\n      tag_77\n      jump\t// in\n    tag_149:\n        /* \"#utility.yul\":3199:3287   */\n      swap2\n      pop\n        /* \"#utility.yul\":3015:3293   */\n      pop\n        /* \"#utility.yul\":2953:3293   */\n      swap3\n      swap2\n      pop\n      pop\n      jump\t// out\n        /* \"#utility.yul\":3316:4194   */\n    tag_79:\n        /* \"#utility.yul\":3420:3425   */\n      0x00\n        /* \"#utility.yul\":3445:3534   */\n      tag_151\n        /* \"#utility.yul\":3461:3533   */\n      tag_152\n        /* \"#utility.yul\":3526:3532   */\n      dup5\n        /* \"#utility.yul\":3461:3533   */\n      tag_72\n      jump\t// in\n    tag_152:\n        /* \"#utility.yul\":3445:3534   */\n      tag_71\n      jump\t// in\n    tag_151:\n        /* \"#utility.yul\":3436:3534   */\n      swap1\n      pop\n        /* \"#utility.yul\":3554:3559   */\n      dup1\n        /* \"#utility.yul\":3607:3611   */\n      0x20\n        /* \"#utility.yul\":3599:3605   */\n      dup5\n        /* \"#utility.yul\":3595:3612   */\n      mul\n        /* \"#utility.yul\":3587:3593   */\n      dup4\n        /* \"#utility.yul\":3583:3613   */\n      add\n        /* \"#utility.yul\":3636:3639   */\n      dup6\n        /* \"#utility.yul\":3628:3634   */\n      dup2\n        /* \"#utility.yul\":3625:3640   */\n      gt\n        /* \"#utility.yul\":3622:3744   */\n      iszero\n      tag_153\n      jumpi\n        /* \"#utility.yul\":3655:3734   */\n      tag_154\n      tag_73\n      jump\t// in\n    tag_154:\n        /* \"#utility.yul\":3622:3744   */\n    tag_153:\n        /* \"#utility.yul\":3770:3776   */\n      dup4\n        /* \"#utility.yul\":3753:4188   */\n    tag_155:\n        /* \"#utility.yul\":3787:3793   */\n      dup2\n        /* \"#utility.yul\":3782:3785   */\n      dup2\n        /* \"#utility.yul\":3779:3794   */\n      lt\n        /* \"#utility.yul\":3753:4188   */\n      iszero\n      tag_157\n      jumpi\n        /* \"#utility.yul\":3876:3879   */\n      dup1\n        /* \"#utility.yul\":3863:3880   */\n      calldataload\n        /* \"#utility.yul\":3912:3930   */\n      0xffffffffffffffff\n        /* \"#utility.yul\":3899:3910   */\n      dup2\n        /* \"#utility.yul\":3896:3931   */\n      gt\n        /* \"#utility.yul\":3893:4015   */\n      iszero\n      tag_158\n      jumpi\n        /* \"#utility.yul\":3934:4013   */\n      tag_159\n      tag_67\n      jump\t// in\n    tag_159:\n        /* \"#utility.yul\":3893:4015   */\n    tag_158:\n        /* \"#utility.yul\":4058:4069   */\n      dup1\n        /* \"#utility.yul\":4050:4056   */\n      dup7\n        /* \"#utility.yul\":4046:4070   */\n      add\n        /* \"#utility.yul\":4096:4143   */\n      tag_160\n        /* \"#utility.yul\":4139:4142   */\n      dup10\n        /* \"#utility.yul\":4127:4137   */\n      dup3\n        /* \"#utility.yul\":4096:4143   */\n      tag_78\n      jump\t// in\n    tag_160:\n        /* \"#utility.yul\":4091:4094   */\n      dup6\n        /* \"#utility.yul\":4084:4144   */\n      mstore\n        /* \"#utility.yul\":4173:4177   */\n      0x20\n        /* \"#utility.yul\":4168:4171   */\n      dup6\n        /* \"#utility.yul\":4164:4178   */\n      add\n        /* \"#utility.yul\":4157:4178   */\n      swap5\n      pop\n        /* \"#utility.yul\":3829:4188   */\n      pop\n      pop\n        /* \"#utility.yul\":3813:3817   */\n      0x20\n        /* \"#utility.yul\":3808:3811   */\n      dup2\n        /* \"#utility.yul\":3804:3818   */\n      add\n        /* \"#utility.yul\":3797:3818   */\n      swap1\n      pop\n        /* \"#utility.yul\":3753:4188   */\n      jump(tag_155)\n    tag_157:\n        /* \"#utility.yul\":3757:3778   */\n      pop\n        /* \"#utility.yul\":3426:4194   */\n      pop\n      pop\n        /* \"#utility.yul\":3316:4194   */\n      swap4\n      swap3\n      pop\n      pop\n      pop\n      jump\t// out\n        /* \"#utility.yul\":4217:4576   */\n    tag_80:\n        /* \"#utility.yul\":4296:4301   */\n      0x00\n        /* \"#utility.yul\":4345:4348   */\n      dup3\n        /* \"#utility.yul\":4338:4342   */\n      0x1f\n        /* \"#utility.yul\":4330:4336   */\n      dup4\n        /* \"#utility.yul\":4326:4343   */\n      add\n        /* \"#utility.yul\":4322:4349   */\n      slt\n        /* \"#utility.yul\":4312:4434   */\n      tag_162\n      jumpi\n        /* \"#utility.yul\":4353:4432   */\n      tag_163\n      tag_67\n      jump\t// in\n    tag_163:\n        /* \"#utility.yul\":4312:4434   */\n    tag_162:\n        /* \"#utility.yul\":4457:4461   */\n      0x02\n        /* \"#utility.yul\":4479:4570   */\n      tag_164\n        /* \"#utility.yul\":4566:4569   */\n      dup5\n        /* \"#utility.yul\":4558:4564   */\n      dup3\n        /* \"#utility.yul\":4550:4556   */\n      dup6\n        /* \"#utility.yul\":4479:4570   */\n      tag_79\n      jump\t// in\n    tag_164:\n        /* \"#utility.yul\":4470:4570   */\n      swap2\n      pop\n        /* \"#utility.yul\":4302:4576   */\n      pop\n        /* \"#utility.yul\":4217:4576   */\n      swap3\n      swap2\n      pop\n      pop\n      jump\t// out\n        /* \"#utility.yul\":4582:5427   */\n    tag_7:\n        /* \"#utility.yul\":4692:4698   */\n      0x00\n        /* \"#utility.yul\":4700:4706   */\n      dup1\n        /* \"#utility.yul\":4708:4714   */\n      0x00\n        /* \"#utility.yul\":4757:4759   */\n      0x60\n        /* \"#utility.yul\":4745:4754   */\n      dup5\n        /* \"#utility.yul\":4736:4743   */\n      dup7\n        /* \"#utility.yul\":4732:4755   */\n      sub\n        /* \"#utility.yul\":4728:4760   */\n      slt\n        /* \"#utility.yul\":4725:4844   */\n      iszero\n      tag_166\n      jumpi\n        /* \"#utility.yul\":4763:4842   */\n      tag_167\n      tag_62\n      jump\t// in\n    tag_167:\n        /* \"#utility.yul\":4725:4844   */\n    tag_166:\n        /* \"#utility.yul\":4883:4884   */\n      0x00\n        /* \"#utility.yul\":4908:4961   */\n      tag_168\n        /* \"#utility.yul\":4953:4960   */\n      dup7\n        /* \"#utility.yul\":4944:4950   */\n      dup3\n        /* \"#utility.yul\":4933:4942   */\n      dup8\n        /* \"#utility.yul\":4929:4951   */\n      add\n        /* \"#utility.yul\":4908:4961   */\n      tag_66\n      jump\t// in\n    tag_168:\n        /* \"#utility.yul\":4898:4961   */\n      swap4\n      pop\n        /* \"#utility.yul\":4854:4971   */\n      pop\n        /* \"#utility.yul\":5010:5012   */\n      0x20\n        /* \"#utility.yul\":5036:5089   */\n      tag_169\n        /* \"#utility.yul\":5081:5088   */\n      dup7\n        /* \"#utility.yul\":5072:5078   */\n      dup3\n        /* \"#utility.yul\":5061:5070   */\n      dup8\n        /* \"#utility.yul\":5057:5079   */\n      add\n        /* \"#utility.yul\":5036:5089   */\n      tag_66\n      jump\t// in\n    tag_169:\n        /* \"#utility.yul\":5026:5089   */\n      swap3\n      pop\n        /* \"#utility.yul\":4981:5099   */\n      pop\n        /* \"#utility.yul\":5166:5168   */\n      0x40\n        /* \"#utility.yul\":5155:5164   */\n      dup5\n        /* \"#utility.yul\":5151:5169   */\n      add\n        /* \"#utility.yul\":5138:5170   */\n      calldataload\n        /* \"#utility.yul\":5197:5215   */\n      0xffffffffffffffff\n        /* \"#utility.yul\":5189:5195   */\n      dup2\n        /* \"#utility.yul\":5186:5216   */\n      gt\n        /* \"#utility.yul\":5183:5300   */\n      iszero\n      tag_170\n      jumpi\n        /* \"#utility.yul\":5219:5298   */\n      tag_171\n      tag_63\n      jump\t// in\n    tag_171:\n        /* \"#utility.yul\":5183:5300   */\n    tag_170:\n        /* \"#utility.yul\":5324:5410   */\n      tag_172\n        /* \"#utility.yul\":5402:5409   */\n      dup7\n        /* \"#utility.yul\":5393:5399   */\n      dup3\n        /* \"#utility.yul\":5382:5391   */\n      dup8\n        /* \"#utility.yul\":5378:5400   */\n      add\n        /* \"#utility.yul\":5324:5410   */\n      tag_80\n      jump\t// in\n    tag_172:\n        /* \"#utility.yul\":5314:5410   */\n      swap2\n      pop\n        /* \"#utility.yul\":5109:5420   */\n      pop\n        /* \"#utility.yul\":4582:5427   */\n      swap3\n      pop\n      swap3\n      pop\n      swap3\n      jump\t// out\n        /* \"#utility.yul\":5433:5762   */\n    tag_11:\n        /* \"#utility.yul\":5492:5498   */\n      0x00\n        /* \"#utility.yul\":5541:5543   */\n      0x20\n        /* \"#utility.yul\":5529:5538   */\n      dup3\n        /* \"#utility.yul\":5520:5527   */\n      dup5\n        /* \"#utility.yul\":5516:5539   */\n      sub\n        /* \"#utility.yul\":5512:5544   */\n      slt\n        /* \"#utility.yul\":5509:5628   */\n      iszero\n      tag_174\n      jumpi\n        /* \"#utility.yul\":5547:5626   */\n      tag_175\n      tag_62\n      jump\t// in\n    tag_175:\n        /* \"#utility.yul\":5509:5628   */\n    tag_174:\n        /* \"#utility.yul\":5667:5668   */\n      0x00\n        /* \"#utility.yul\":5692:5745   */\n      tag_176\n        /* \"#utility.yul\":5737:5744   */\n      dup5\n        /* \"#utility.yul\":5728:5734   */\n      dup3\n        /* \"#utility.yul\":5717:5726   */\n      dup6\n        /* \"#utility.yul\":5713:5735   */\n      add\n        /* \"#utility.yul\":5692:5745   */\n      tag_66\n      jump\t// in\n    tag_176:\n        /* \"#utility.yul\":5682:5745   */\n      swap2\n      pop\n        /* \"#utility.yul\":5638:5755   */\n      pop\n        /* \"#utility.yul\":5433:5762   */\n      swap3\n      swap2\n      pop\n      pop\n      jump\t// out\n        /* \"#utility.yul\":5768:5882   */\n    tag_81:\n        /* \"#utility.yul\":5843:5849   */\n      0x00\n        /* \"#utility.yul\":5871:5875   */\n      0x02\n        /* \"#utility.yul\":5861:5875   */\n      swap1\n      pop\n        /* \"#utility.yul\":5768:5882   */\n      swap2\n      swap1\n      pop\n      jump\t// out\n        /* \"#utility.yul\":5888:6041   */\n    tag_82:\n        /* \"#utility.yul\":5995:6006   */\n      0x00\n        /* \"#utility.yul\":6032:6035   */\n      dup2\n        /* \"#utility.yul\":6017:6035   */\n      swap1\n      pop\n        /* \"#utility.yul\":5888:6041   */\n      swap3\n      swap2\n      pop\n      pop\n      jump\t// out\n        /* \"#utility.yul\":6047:6155   */\n    tag_83:\n        /* \"#utility.yul\":6122:6126   */\n      0x00\n        /* \"#utility.yul\":6145:6148   */\n      dup2\n        /* \"#utility.yul\":6137:6148   */\n      swap1\n      pop\n        /* \"#utility.yul\":6047:6155   */\n      swap2\n      swap1\n      pop\n      jump\t// out\n        /* \"#utility.yul\":6161:6260   */\n    tag_84:\n        /* \"#utility.yul\":6213:6219   */\n      0x00\n        /* \"#utility.yul\":6247:6252   */\n      dup2\n        /* \"#utility.yul\":6241:6253   */\n      mload\n        /* \"#utility.yul\":6231:6253   */\n      swap1\n      pop\n        /* \"#utility.yul\":6161:6260   */\n      swap2\n      swap1\n      pop\n      jump\t// out\n        /* \"#utility.yul\":6266:6425   */\n    tag_85:\n        /* \"#utility.yul\":6340:6351   */\n      0x00\n        /* \"#utility.yul\":6374:6380   */\n      dup3\n        /* \"#utility.yul\":6369:6372   */\n      dup3\n        /* \"#utility.yul\":6362:6381   */\n      mstore\n        /* \"#utility.yul\":6414:6418   */\n      0x20\n        /* \"#utility.yul\":6409:6412   */\n      dup3\n        /* \"#utility.yul\":6405:6419   */\n      add\n        /* \"#utility.yul\":6390:6419   */\n      swap1\n      pop\n        /* \"#utility.yul\":6266:6425   */\n      swap3\n      swap2\n      pop\n      pop\n      jump\t// out\n        /* \"#utility.yul\":6431:6570   */\n    tag_86:\n        /* \"#utility.yul\":6520:6526   */\n      dup3\n        /* \"#utility.yul\":6515:6518   */\n      dup2\n        /* \"#utility.yul\":6510:6513   */\n      dup4\n        /* \"#utility.yul\":6504:6527   */\n      mcopy\n        /* \"#utility.yul\":6561:6562   */\n      0x00\n        /* \"#utility.yul\":6552:6558   */\n      dup4\n        /* \"#utility.yul\":6547:6550   */\n      dup4\n        /* \"#utility.yul\":6543:6559   */\n      add\n        /* \"#utility.yul\":6536:6563   */\n      mstore\n        /* \"#utility.yul\":6431:6570   */\n      pop\n      pop\n      pop\n      jump\t// out\n        /* \"#utility.yul\":6576:6933   */\n    tag_87:\n        /* \"#utility.yul\":6654:6657   */\n      0x00\n        /* \"#utility.yul\":6682:6721   */\n      tag_184\n        /* \"#utility.yul\":6715:6720   */\n      dup3\n        /* \"#utility.yul\":6682:6721   */\n      tag_84\n      jump\t// in\n    tag_184:\n        /* \"#utility.yul\":6737:6798   */\n      tag_185\n        /* \"#utility.yul\":6791:6797   */\n      dup2\n        /* \"#utility.yul\":6786:6789   */\n      dup6\n        /* \"#utility.yul\":6737:6798   */\n      tag_85\n      jump\t// in\n    tag_185:\n        /* \"#utility.yul\":6730:6798   */\n      swap4\n      pop\n        /* \"#utility.yul\":6807:6872   */\n      tag_186\n        /* \"#utility.yul\":6865:6871   */\n      dup2\n        /* \"#utility.yul\":6860:6863   */\n      dup6\n        /* \"#utility.yul\":6853:6857   */\n      0x20\n        /* \"#utility.yul\":6846:6851   */\n      dup7\n        /* \"#utility.yul\":6842:6858   */\n      add\n        /* \"#utility.yul\":6807:6872   */\n      tag_86\n      jump\t// in\n    tag_186:\n        /* \"#utility.yul\":6897:6926   */\n      tag_187\n        /* \"#utility.yul\":6919:6925   */\n      dup2\n        /* \"#utility.yul\":6897:6926   */\n      tag_68\n      jump\t// in\n    tag_187:\n        /* \"#utility.yul\":6892:6895   */\n      dup5\n        /* \"#utility.yul\":6888:6927   */\n      add\n        /* \"#utility.yul\":6881:6927   */\n      swap2\n      pop\n        /* \"#utility.yul\":6658:6933   */\n      pop\n        /* \"#utility.yul\":6576:6933   */\n      swap3\n      swap2\n      pop\n      pop\n      jump\t// out\n        /* \"#utility.yul\":6939:7135   */\n    tag_88:\n        /* \"#utility.yul\":7028:7038   */\n      0x00\n        /* \"#utility.yul\":7063:7129   */\n      tag_189\n        /* \"#utility.yul\":7125:7128   */\n      dup4\n        /* \"#utility.yul\":7117:7123   */\n      dup4\n        /* \"#utility.yul\":7063:7129   */\n      tag_87\n      jump\t// in\n    tag_189:\n        /* \"#utility.yul\":7049:7129   */\n      swap1\n      pop\n        /* \"#utility.yul\":6939:7135   */\n      swap3\n      swap2\n      pop\n      pop\n      jump\t// out\n        /* \"#utility.yul\":7141:7262   */\n    tag_89:\n        /* \"#utility.yul\":7219:7223   */\n      0x00\n        /* \"#utility.yul\":7251:7255   */\n      0x20\n        /* \"#utility.yul\":7246:7249   */\n      dup3\n        /* \"#utility.yul\":7242:7256   */\n      add\n        /* \"#utility.yul\":7234:7256   */\n      swap1\n      pop\n        /* \"#utility.yul\":7141:7262   */\n      swap2\n      swap1\n      pop\n      jump\t// out\n        /* \"#utility.yul\":7298:8277   */\n    tag_90:\n        /* \"#utility.yul\":7433:7436   */\n      0x00\n        /* \"#utility.yul\":7462:7524   */\n      tag_192\n        /* \"#utility.yul\":7518:7523   */\n      dup3\n        /* \"#utility.yul\":7462:7524   */\n      tag_81\n      jump\t// in\n    tag_192:\n        /* \"#utility.yul\":7540:7634   */\n      tag_193\n        /* \"#utility.yul\":7627:7633   */\n      dup2\n        /* \"#utility.yul\":7622:7625   */\n      dup6\n        /* \"#utility.yul\":7540:7634   */\n      tag_82\n      jump\t// in\n    tag_193:\n        /* \"#utility.yul\":7533:7634   */\n      swap4\n      pop\n        /* \"#utility.yul\":7660:7663   */\n      dup4\n        /* \"#utility.yul\":7705:7709   */\n      0x20\n        /* \"#utility.yul\":7697:7703   */\n      dup3\n        /* \"#utility.yul\":7693:7710   */\n      mul\n        /* \"#utility.yul\":7688:7691   */\n      dup6\n        /* \"#utility.yul\":7684:7711   */\n      add\n        /* \"#utility.yul\":7735:7799   */\n      tag_194\n        /* \"#utility.yul\":7793:7798   */\n      dup6\n        /* \"#utility.yul\":7735:7799   */\n      tag_83\n      jump\t// in\n    tag_194:\n        /* \"#utility.yul\":7822:7829   */\n      dup1\n        /* \"#utility.yul\":7853:7854   */\n      0x00\n        /* \"#utility.yul\":7838:8232   */\n    tag_195:\n        /* \"#utility.yul\":7863:7869   */\n      dup6\n        /* \"#utility.yul\":7860:7861   */\n      dup2\n        /* \"#utility.yul\":7857:7870   */\n      lt\n        /* \"#utility.yul\":7838:8232   */\n      iszero\n      tag_197\n      jumpi\n        /* \"#utility.yul\":7934:7943   */\n      dup5\n        /* \"#utility.yul\":7928:7932   */\n      dup5\n        /* \"#utility.yul\":7924:7944   */\n      sub\n        /* \"#utility.yul\":7919:7922   */\n      dup10\n        /* \"#utility.yul\":7912:7945   */\n      mstore\n        /* \"#utility.yul\":7985:7991   */\n      dup2\n        /* \"#utility.yul\":7979:7992   */\n      mload\n        /* \"#utility.yul\":8013:8097   */\n      tag_198\n        /* \"#utility.yul\":8092:8096   */\n      dup6\n        /* \"#utility.yul\":8077:8090   */\n      dup3\n        /* \"#utility.yul\":8013:8097   */\n      tag_88\n      jump\t// in\n    tag_198:\n        /* \"#utility.yul\":8005:8097   */\n      swap5\n      pop\n        /* \"#utility.yul\":8120:8188   */\n      tag_199\n        /* \"#utility.yul\":8181:8187   */\n      dup4\n        /* \"#utility.yul\":8120:8188   */\n      tag_89\n      jump\t// in\n    tag_199:\n        /* \"#utility.yul\":8110:8188   */\n      swap3\n      pop\n        /* \"#utility.yul\":8217:8221   */\n      0x20\n        /* \"#utility.yul\":8212:8215   */\n      dup11\n        /* \"#utility.yul\":8208:8222   */\n      add\n        /* \"#utility.yul\":8201:8222   */\n      swap10\n      pop\n        /* \"#utility.yul\":7898:8232   */\n      pop\n        /* \"#utility.yul\":7885:7886   */\n      0x01\n        /* \"#utility.yul\":7882:7883   */\n      dup2\n        /* \"#utility.yul\":7878:7887   */\n      add\n        /* \"#utility.yul\":7873:7887   */\n      swap1\n      pop\n        /* \"#utility.yul\":7838:8232   */\n      jump(tag_195)\n    tag_197:\n        /* \"#utility.yul\":7842:7856   */\n      pop\n        /* \"#utility.yul\":8248:8252   */\n      dup3\n        /* \"#utility.yul\":8241:8252   */\n      swap8\n      pop\n        /* \"#utility.yul\":8268:8271   */\n      dup8\n        /* \"#utility.yul\":8261:8271   */\n      swap6\n      pop\n        /* \"#utility.yul\":7438:8277   */\n      pop\n      pop\n      pop\n      pop\n      pop\n        /* \"#utility.yul\":7298:8277   */\n      swap3\n      swap2\n      pop\n      pop\n      jump\t// out\n        /* \"#utility.yul\":8283:8981   */\n    tag_14:\n        /* \"#utility.yul\":8536:8540   */\n      0x00\n        /* \"#utility.yul\":8574:8576   */\n      0x40\n        /* \"#utility.yul\":8563:8572   */\n      dup3\n        /* \"#utility.yul\":8559:8577   */\n      add\n        /* \"#utility.yul\":8551:8577   */\n      swap1\n      pop\n        /* \"#utility.yul\":8623:8632   */\n      dup2\n        /* \"#utility.yul\":8617:8621   */\n      dup2\n        /* \"#utility.yul\":8613:8633   */\n      sub\n        /* \"#utility.yul\":8609:8610   */\n      0x00\n        /* \"#utility.yul\":8598:8607   */\n      dup4\n        /* \"#utility.yul\":8594:8611   */\n      add\n        /* \"#utility.yul\":8587:8634   */\n      mstore\n        /* \"#utility.yul\":8651:8775   */\n      tag_201\n        /* \"#utility.yul\":8770:8774   */\n      dup2\n        /* \"#utility.yul\":8761:8767   */\n      dup6\n        /* \"#utility.yul\":8651:8775   */\n      tag_90\n      jump\t// in\n    tag_201:\n        /* \"#utility.yul\":8643:8775   */\n      swap1\n      pop\n        /* \"#utility.yul\":8822:8831   */\n      dup2\n        /* \"#utility.yul\":8816:8820   */\n      dup2\n        /* \"#utility.yul\":8812:8832   */\n      sub\n        /* \"#utility.yul\":8807:8809   */\n      0x20\n        /* \"#utility.yul\":8796:8805   */\n      dup4\n        /* \"#utility.yul\":8792:8810   */\n      add\n        /* \"#utility.yul\":8785:8833   */\n      mstore\n        /* \"#utility.yul\":8850:8974   */\n      tag_202\n        /* \"#utility.yul\":8969:8973   */\n      dup2\n        /* \"#utility.yul\":8960:8966   */\n      dup5\n        /* \"#utility.yul\":8850:8974   */\n      tag_90\n      jump\t// in\n    tag_202:\n        /* \"#utility.yul\":8842:8974   */\n      swap1\n      pop\n        /* \"#utility.yul\":8283:8981   */\n      swap4\n      swap3\n      pop\n      pop\n      pop\n      jump\t// out\n        /* \"#utility.yul\":8987:9156   */\n    tag_91:\n        /* \"#utility.yul\":9071:9082   */\n      0x00\n        /* \"#utility.yul\":9105:9111   */\n      dup3\n        /* \"#utility.yul\":9100:9103   */\n      dup3\n        /* \"#utility.yul\":9093:9112   */\n      mstore\n        /* \"#utility.yul\":9145:9149   */\n      0x20\n        /* \"#utility.yul\":9140:9143   */\n      dup3\n        /* \"#utility.yul\":9136:9150   */\n      add\n        /* \"#utility.yul\":9121:9150   */\n      swap1\n      pop\n        /* \"#utility.yul\":8987:9156   */\n      swap3\n      swap2\n      pop\n      pop\n      jump\t// out\n        /* \"#utility.yul\":9162:9319   */\n    tag_92:\n        /* \"#utility.yul\":9302:9311   */\n      0x6e6f20726f6f6d00000000000000000000000000000000000000000000000000\n        /* \"#utility.yul\":9298:9299   */\n      0x00\n        /* \"#utility.yul\":9290:9296   */\n      dup3\n        /* \"#utility.yul\":9286:9300   */\n      add\n        /* \"#utility.yul\":9279:9312   */\n      mstore\n        /* \"#utility.yul\":9162:9319   */\n      pop\n      jump\t// out\n        /* \"#utility.yul\":9325:9690   */\n    tag_93:\n        /* \"#utility.yul\":9467:9470   */\n      0x00\n        /* \"#utility.yul\":9488:9554   */\n      tag_206\n        /* \"#utility.yul\":9552:9553   */\n      0x07\n        /* \"#utility.yul\":9547:9550   */\n      dup4\n        /* \"#utility.yul\":9488:9554   */\n      tag_91\n      jump\t// in\n    tag_206:\n        /* \"#utility.yul\":9481:9554   */\n      swap2\n      pop\n        /* \"#utility.yul\":9563:9656   */\n      tag_207\n        /* \"#utility.yul\":9652:9655   */\n      dup3\n        /* \"#utility.yul\":9563:9656   */\n      tag_92\n      jump\t// in\n    tag_207:\n        /* \"#utility.yul\":9681:9683   */\n      0x20\n        /* \"#utility.yul\":9676:9679   */\n      dup3\n        /* \"#utility.yul\":9672:9684   */\n      add\n        /* \"#utility.yul\":9665:9684   */\n      swap1\n      pop\n        /* \"#utility.yul\":9325:9690   */\n      swap2\n      swap1\n      pop\n      jump\t// out\n        /* \"#utility.yul\":9696:10115   */\n    tag_18:\n        /* \"#utility.yul\":9862:9866   */\n      0x00\n        /* \"#utility.yul\":9900:9902   */\n      0x20\n        /* \"#utility.yul\":9889:9898   */\n      dup3\n        /* \"#utility.yul\":9885:9903   */\n      add\n        /* \"#utility.yul\":9877:9903   */\n      swap1\n      pop\n        /* \"#utility.yul\":9949:9958   */\n      dup2\n        /* \"#utility.yul\":9943:9947   */\n      dup2\n        /* \"#utility.yul\":9939:9959   */\n      sub\n        /* \"#utility.yul\":9935:9936   */\n      0x00\n        /* \"#utility.yul\":9924:9933   */\n      dup4\n        /* \"#utility.yul\":9920:9937   */\n      add\n        /* \"#utility.yul\":9913:9960   */\n      mstore\n        /* \"#utility.yul\":9977:10108   */\n      tag_209\n        /* \"#utility.yul\":10103:10107   */\n      dup2\n        /* \"#utility.yul\":9977:10108   */\n      tag_93\n      jump\t// in\n    tag_209:\n        /* \"#utility.yul\":9969:10108   */\n      swap1\n      pop\n        /* \"#utility.yul\":9696:10115   */\n      swap2\n      swap1\n      pop\n      jump\t// out\n        /* \"#utility.yul\":10121:10301   */\n    tag_94:\n        /* \"#utility.yul\":10169:10246   */\n      0x4e487b7100000000000000000000000000000000000000000000000000000000\n        /* \"#utility.yul\":10166:10167   */\n      0x00\n        /* \"#utility.yul\":10159:10247   */\n      mstore\n        /* \"#utility.yul\":10266:10270   */\n      0x22\n        /* \"#utility.yul\":10263:10264   */\n      0x04\n        /* \"#utility.yul\":10256:10271   */\n      mstore\n        /* \"#utility.yul\":10290:10294   */\n      0x24\n        /* \"#utility.yul\":10287:10288   */\n      0x00\n        /* \"#utility.yul\":10280:10295   */\n      revert\n        /* \"#utility.yul\":10307:10627   */\n    tag_29:\n        /* \"#utility.yul\":10351:10357   */\n      0x00\n        /* \"#utility.yul\":10388:10389   */\n      0x02\n        /* \"#utility.yul\":10382:10386   */\n      dup3\n        /* \"#utility.yul\":10378:10390   */\n      div\n        /* \"#utility.yul\":10368:10390   */\n      swap1\n      pop\n        /* \"#utility.yul\":10435:10436   */\n      0x01\n        /* \"#utility.yul\":10429:10433   */\n      dup3\n        /* \"#utility.yul\":10425:10437   */\n      and\n        /* \"#utility.yul\":10456:10474   */\n      dup1\n        /* \"#utility.yul\":10446:10527   */\n      tag_212\n      jumpi\n        /* \"#utility.yul\":10512:10516   */\n      0x7f\n        /* \"#utility.yul\":10504:10510   */\n      dup3\n        /* \"#utility.yul\":10500:10517   */\n      and\n        /* \"#utility.yul\":10490:10517   */\n      swap2\n      pop\n        /* \"#utility.yul\":10446:10527   */\n    tag_212:\n        /* \"#utility.yul\":10574:10576   */\n      0x20\n        /* \"#utility.yul\":10566:10572   */\n      dup3\n        /* \"#utility.yul\":10563:10577   */\n      lt\n        /* \"#utility.yul\":10543:10561   */\n      dup2\n        /* \"#utility.yul\":10540:10578   */\n      sub\n        /* \"#utility.yul\":10537:10621   */\n      tag_213\n      jumpi\n        /* \"#utility.yul\":10593:10611   */\n      tag_214\n      tag_94\n      jump\t// in\n    tag_214:\n        /* \"#utility.yul\":10537:10621   */\n    tag_213:\n        /* \"#utility.yul\":10358:10627   */\n      pop\n        /* \"#utility.yul\":10307:10627   */\n      swap2\n      swap1\n      pop\n      jump\t// out\n        /* \"#utility.yul\":10633:10774   */\n    tag_95:\n        /* \"#utility.yul\":10682:10686   */\n      0x00\n        /* \"#utility.yul\":10705:10708   */\n      dup2\n        /* \"#utility.yul\":10697:10708   */\n      swap1\n      pop\n        /* \"#utility.yul\":10728:10731   */\n      dup2\n        /* \"#utility.yul\":10725:10726   */\n      0x00\n        /* \"#utility.yul\":10718:10732   */\n      mstore\n        /* \"#utility.yul\":10762:10766   */\n      0x20\n        /* \"#utility.yul\":10759:10760   */\n      0x00\n        /* \"#utility.yul\":10749:10767   */\n      keccak256\n        /* \"#utility.yul\":10741:10767   */\n      swap1\n      pop\n        /* \"#utility.yul\":10633:10774   */\n      swap2\n      swap1\n      pop\n      jump\t// out\n        /* \"#utility.yul\":10780:10873   */\n    tag_96:\n        /* \"#utility.yul\":10817:10823   */\n      0x00\n        /* \"#utility.yul\":10864:10866   */\n      0x20\n        /* \"#utility.yul\":10859:10861   */\n      0x1f\n        /* \"#utility.yul\":10852:10857   */\n      dup4\n        /* \"#utility.yul\":10848:10862   */\n      add\n        /* \"#utility.yul\":10844:10867   */\n      div\n        /* \"#utility.yul\":10834:10867   */\n      swap1\n      pop\n        /* \"#utility.yul\":10780:10873   */\n      swap2\n      swap1\n      pop\n      jump\t// out\n        /* \"#utility.yul\":10879:10986   */\n    tag_97:\n        /* \"#utility.yul\":10923:10931   */\n      0x00\n        /* \"#utility.yul\":10973:10978   */\n      dup3\n        /* \"#utility.yul\":10967:10971   */\n      dup3\n        /* \"#utility.yul\":10963:10979   */\n      shl\n        /* \"#utility.yul\":10942:10979   */\n      swap1\n      pop\n        /* \"#utility.yul\":10879:10986   */\n      swap3\n      swap2\n      pop\n      pop\n      jump\t// out\n        /* \"#utility.yul\":10992:11385   */\n    tag_98:\n        /* \"#utility.yul\":11061:11067   */\n      0x00\n        /* \"#utility.yul\":11111:11112   */\n      0x08\n        /* \"#utility.yul\":11099:11109   */\n      dup4\n        /* \"#utility.yul\":11095:11113   */\n      mul\n        /* \"#utility.yul\":11134:11231   */\n      tag_219\n        /* \"#utility.yul\":11164:11230   */\n      0xffffffffffffffffffffffffffffffffffffffffffffffffffffffffffffffff\n        /* \"#utility.yul\":11153:11162   */\n      dup3\n        /* \"#utility.yul\":11134:11231   */\n      tag_97\n      jump\t// in\n    tag_219:\n        /* \"#utility.yul\":11252:11291   */\n      tag_220\n        /* \"#utility.yul\":11282:11290   */\n      dup7\n        /* \"#utility.yul\":11271:11280   */\n      dup4\n        /* \"#utility.yul\":11252:11291   */\n      tag_97\n      jump\t// in\n    tag_220:\n        /* \"#utility.yul\":11240:11291   */\n      swap6\n      pop\n        /* \"#utility.yul\":11324:11328   */\n      dup1\n        /* \"#utility.yul\":11320:11329   */\n      not\n        /* \"#utility.yul\":11313:11318   */\n      dup5\n        /* \"#utility.yul\":11309:11330   */\n      and\n        /* \"#utility.yul\":11300:11330   */\n      swap4\n      pop\n        /* \"#utility.yul\":11373:11377   */\n      dup1\n        /* \"#utility.yul\":11363:11371   */\n      dup7\n        /* \"#utility.yul\":11359:11378   */\n      and\n        /* \"#utility.yul\":11352:11357   */\n      dup5\n        /* \"#utility.yul\":11349:11379   */\n      or\n        /* \"#utility.yul\":11339:11379   */\n      swap3\n      pop\n        /* \"#utility.yul\":11068:11385   */\n      pop\n      pop\n        /* \"#utility.yul\":10992:11385   */\n      swap4\n      swap3\n      pop\n      pop\n      pop\n      jump\t// out\n        /* \"#utility.yul\":11391:11451   */\n    tag_99:\n        /* \"#utility.yul\":11419:11422   */\n      0x00\n        /* \"#utility.yul\":11440:11445   */\n      dup2\n        /* \"#utility.yul\":11433:11445   */\n      swap1\n      pop\n        /* \"#utility.yul\":11391:11451   */\n      swap2\n      swap1\n      pop\n      jump\t// out\n        /* \"#utility.yul\":11457:11599   */\n    tag_100:\n        /* \"#utility.yul\":11507:11516   */\n      0x00\n        /* \"#utility.yul\":11540:11593   */\n      tag_223\n        /* \"#utility.yul\":11558:11592   */\n      tag_224\n        /* \"#utility.yul\":11567:11591   */\n      tag_225\n        /* \"#utility.yul\":11585:11590   */\n      dup5\n        /* \"#utility.yul\":11567:11591   */\n      tag_64\n      jump\t// in\n    tag_225:\n        /* \"#utility.yul\":11558:11592   */\n      tag_99\n      jump\t// in\n    tag_224:\n        /* \"#utility.yul\":11540:11593   */\n      tag_64\n      jump\t// in\n    tag_223:\n        /* \"#utility.yul\":11527:11593   */\n      swap1\n      pop\n        /* \"#utility.yul\":11457:11599   */\n      swap2\n      swap1\n      pop\n      jump\t// out\n        /* \"#utility.yul\":11605:11680   */\n    tag_101:\n        /* \"#utility.yul\":11648:11651   */\n      0x00\n        /* \"#utility.yul\":11669:11674   */\n      dup2\n        /* \"#utility.yul\":11662:11674   */\n      swap1\n      pop\n        /* \"#utility.yul\":11605:11680   */\n      swap2\n      swap1\n      pop\n      jump\t// out\n        /* \"#utility.yul\":11686:11955   */\n    tag_102:\n        /* \"#utility.yul\":11796:11835   */\n      tag_228\n        /* \"#utility.yul\":11827:11834   */\n      dup4\n        /* \"#utility.yul\":11796:11835   */\n      tag_100\n      jump\t// in\n    tag_228:\n        /* \"#utility.yul\":11857:11948   */\n      tag_229\n        /* \"#utility.yul\":11906:11947   */\n      tag_230\n        /* \"#utility.yul\":11930:11946   */\n      dup3\n        /* \"#utility.yul\":11906:11947   */\n      tag_101\n      jump\t// in\n    tag_230:\n        /* \"#utility.yul\":11898:11904   */\n      dup5\n        /* \"#utility.yul\":11891:11895   */\n      dup5\n        /* \"#utility.yul\":11885:11896   */\n      sload\n        /* \"#utility.yul\":11857:11948   */\n      tag_98\n      jump\t// in\n    tag_229:\n        /* \"#utility.yul\":11851:11855   */\n      dup3\n        /* \"#utility.yul\":11844:11949   */\n      sstore\n        /* \"#utility.yul\":11762:11955   */\n      pop\n        /* \"#utility.yul\":11686:11955   */\n      pop\n      pop\n      pop\n      jump\t// out\n        /* \"#utility.yul\":11961:12034   */\n    tag_103:\n        /* \"#utility.yul\":12006:12009   */\n      0x00\n        /* \"#utility.yul\":11961:12034   */\n      swap1\n      jump\t// out\n        /* \"#utility.yul\":12040:12229   */\n    tag_104:\n        /* \"#utility.yul\":12117:12149   */\n      tag_233\n      tag_103\n      jump\t// in\n    tag_233:\n        /* \"#utility.yul\":12158:12223   */\n      tag_234\n        /* \"#utility.yul\":12216:12222   */\n      dup2\n        /* \"#utility.yul\":12208:12214   */\n      dup5\n        /* \"#utility.yul\":12202:12206   */\n      dup5\n        /* \"#utility.yul\":12158:12223   */\n      tag_102\n      jump\t// in\n    tag_234:\n        /* \"#utility.yul\":12093:12229   */\n      pop\n        /* \"#utility.yul\":12040:12229   */\n      pop\n      pop\n      jump\t// out\n        /* \"#utility.yul\":12235:12421   */\n    tag_105:\n        /* \"#utility.yul\":12295:12415   */\n    tag_236:\n        /* \"#utility.yul\":12312:12315   */\n      dup2\n        /* \"#utility.yul\":12305:12310   */\n      dup2\n        /* \"#utility.yul\":12302:12316   */\n      lt\n        /* \"#utility.yul\":12295:12415   */\n      iszero\n      tag_238\n      jumpi\n        /* \"#utility.yul\":12366:12405   */\n      tag_239\n        /* \"#utility.yul\":12403:12404   */\n      0x00\n        /* \"#utility.yul\":12396:12401   */\n      dup3\n        /* \"#utility.yul\":12366:12405   */\n      tag_104\n      jump\t// in\n    tag_239:\n        /* \"#utility.yul\":12339:12340   */\n      0x01\n        /* \"#utility.yul\":12332:12337   */\n      dup2\n        /* \"#utility.yul\":12328:12341   */\n      add\n        /* \"#utility.yul\":12319:12341   */\n      swap1\n      pop\n        /* \"#utility.yul\":12295:12415   */\n      jump(tag_236)\n    tag_238:\n        /* \"#utility.yul\":12235:12421   */\n      pop\n      pop\n      jump\t// out\n        /* \"#utility.yul\":12427:12970   */\n    tag_106:\n        /* \"#utility.yul\":12528:12530   */\n      0x1f\n        /* \"#utility.yul\":12523:12526   */\n      dup3\n        /* \"#utility.yul\":12520:12531   */\n      gt\n        /* \"#utility.yul\":12517:12963   */\n      iszero\n      tag_241\n      jumpi\n        /* \"#utility.yul\":12562:12600   */\n      tag_242\n        /* \"#utility.yul\":12594:12599   */\n      dup2\n        /* \"#utility.yul\":12562:12600   */\n      tag_95\n      jump\t// in\n    tag_242:\n        /* \"#utility.yul\":12646:12675   */\n      tag_243\n        /* \"#utility.yul\":12664:12674   */\n      dup5\n        /* \"#utility.yul\":12646:12675   */\n      tag_96\n      jump\t// in\n    tag_243:\n        /* \"#utility.yul\":12636:12644   */\n      dup2\n        /* \"#utility.yul\":12632:12676   */\n      add\n        /* \"#utility.yul\":12829:12831   */\n      0x20\n        /* \"#utility.yul\":12817:12827   */\n      dup6\n        /* \"#utility.yul\":12814:12832   */\n      lt\n        /* \"#utility.yul\":12811:12860   */\n      iszero\n      tag_244\n      jumpi\n        /* \"#utility.yul\":12850:12858   */\n      dup2\n        /* \"#utility.yul\":12835:12858   */\n      swap1\n      pop\n        /* \"#utility.yul\":12811:12860   */\n    tag_244:\n        /* \"#utility.yul\":12873:12953   */\n      tag_245\n        /* \"#utility.yul\":12929:12951   */\n      tag_246\n        /* \"#utility.yul\":12947:12950   */\n      dup6\n        /* \"#utility.yul\":12929:12951   */\n      tag_96\n      jump\t// in\n    tag_246:\n        /* \"#utility.yul\":12919:12927   */\n      dup4\n        /* \"#utility.yul\":12915:12952   */\n      add\n        /* \"#utility.yul\":12902:12913   */\n      dup3\n        /* \"#utility.yul\":12873:12953   */\n      tag_105\n      jump\t// in\n    tag_245:\n        /* \"#utility.yul\":12532:12963   */\n      pop\n      pop\n        /* \"#utility.yul\":12517:12963   */\n    tag_241:\n        /* \"#utility.yul\":12427:12970   */\n      pop\n      pop\n      pop\n      jump\t// out\n        /* \"#utility.yul\":12976:13093   */\n    tag_107:\n        /* \"#utility.yul\":13030:13038   */\n      0x00\n        /* \"#utility.yul\":13080:13085   */\n      dup3\n        /* \"#utility.yul\":13074:13078   */\n      dup3\n        /* \"#utility.yul\":13070:13086   */\n      shr\n        /* \"#utility.yul\":13049:13086   */\n      swap1\n      pop\n        /* \"#utility.yul\":12976:13093   */\n      swap3\n      swap2\n      pop\n      pop\n      jump\t// out\n        /* \"#utility.yul\":13099:13268   */\n    tag_108:\n        /* \"#utility.yul\":13143:13149   */\n      0x00\n        /* \"#utility.yul\":13176:13227   */\n      tag_249\n        /* \"#utility.yul\":13224:13225   */\n      0x00\n        /* \"#utility.yul\":13220:13226   */\n      not\n        /* \"#utility.yul\":13212:13217   */\n      dup5\n        /* \"#utility.yul\":13209:13210   */\n      0x08\n        /* \"#utility.yul\":13205:13218   */\n      mul\n        /* \"#utility.yul\":13176:13227   */\n      tag_107\n      jump\t// in\n    tag_249:\n        /* \"#utility.yul\":13172:13228   */\n      not\n        /* \"#utility.yul\":13257:13261   */\n      dup1\n        /* \"#utility.yul\":13251:13255   */\n      dup4\n        /* \"#utility.yul\":13247:13262   */\n      and\n        /* \"#utility.yul\":13237:13262   */\n      swap2\n      pop\n        /* \"#utility.yul\":13150:13268   */\n      pop\n        /* \"#utility.yul\":13099:13268   */\n      swap3\n      swap2\n      pop\n      pop\n      jump\t// out\n        /* \"#utility.yul\":13273:13568   */\n    tag_109:\n        /* \"#utility.yul\":13349:13353   */\n      0x00\n        /* \"#utility.yul\":13495:13524   */\n      tag_251\n        /* \"#utility.yul\":13520:13523   */\n      dup4\n        /* \"#utility.yul\":13514:13518   */\n      dup4\n        /* \"#utility.yul\":13495:13524   */\n      tag_108\n      jump\t// in\n    tag_251:\n        /* \"#utility.yul\":13487:13524   */\n      swap2\n      pop\n        /* \"#utility.yul\":13557:13560   */\n      dup3\n        /* \"#utility.yul\":13554:13555   */\n      0x02\n        /* \"#utility.yul\":13550:13561   */\n      mul\n        /* \"#utility.yul\":13544:13548   */\n      dup3\n        /* \"#utility.yul\":13541:13562   */\n      or\n        /* \"#utility.yul\":13533:13562   */\n      swap1\n      pop\n        /* \"#utility.yul\":13273:13568   */\n      swap3\n      swap2\n      pop\n      pop\n      jump\t// out\n        /* \"#utility.yul\":13573:14968   */\n    tag_46:\n        /* \"#utility.yul\":13690:13727   */\n      tag_253\n        /* \"#utility.yul\":13723:13726   */\n      dup3\n        /* \"#utility.yul\":13690:13727   */\n      tag_84\n      jump\t// in\n    tag_253:\n        /* \"#utility.yul\":13792:13810   */\n      0xffffffffffffffff\n        /* \"#utility.yul\":13784:13790   */\n      dup2\n        /* \"#utility.yul\":13781:13811   */\n      gt\n        /* \"#utility.yul\":13778:13834   */\n      iszero\n      tag_254\n      jumpi\n        /* \"#utility.yul\":13814:13832   */\n      tag_255\n      tag_69\n      jump\t// in\n    tag_255:\n        /* \"#utility.yul\":13778:13834   */\n    tag_254:\n        /* \"#utility.yul\":13858:13896   */\n      tag_256\n        /* \"#utility.yul\":13890:13894   */\n      dup3\n        /* \"#utility.yul\":13884:13895   */\n      sload\n        /* \"#utility.yul\":13858:13896   */\n      tag_29\n      jump\t// in\n    tag_256:\n        /* \"#utility.yul\":13943:14010   */\n      tag_257\n        /* \"#utility.yul\":14003:14009   */\n      dup3\n        /* \"#utility.yul\":13995:14001   */\n      dup3\n        /* \"#utility.yul\":13989:13993   */\n      dup6\n        /* \"#utility.yul\":13943:14010   */\n      tag_106\n      jump\t// in\n    tag_257:\n        /* \"#utility.yul\":14037:14038   */\n      0x00\n        /* \"#utility.yul\":14061:14065   */\n      0x20\n        /* \"#utility.yul\":14048:14065   */\n      swap1\n      pop\n        /* \"#utility.yul\":14093:14095   */\n      0x1f\n        /* \"#utility.yul\":14085:14091   */\n      dup4\n        /* \"#utility.yul\":14082:14096   */\n      gt\n        /* \"#utility.yul\":14110:14111   */\n      0x01\n        /* \"#utility.yul\":14105:14723   */\n      dup2\n      eq\n      tag_259\n      jumpi\n        /* \"#utility.yul\":14767:14768   */\n      0x00\n        /* \"#utility.yul\":14784:14790   */\n      dup5\n        /* \"#utility.yul\":14781:14858   */\n      iszero\n      tag_260\n      jumpi\n        /* \"#utility.yul\":14833:14842   */\n      dup3\n        /* \"#utility.yul\":14828:14831   */\n      dup8\n        /* \"#utility.yul\":14824:14843   */\n      add\n        /* \"#utility.yul\":14818:14844   */\n      mload\n        /* \"#utility.yul\":14809:14844   */\n      swap1\n      pop\n        /* \"#utility.yul\":14781:14858   */\n    tag_260:\n        /* \"#utility.yul\":14884:14951   */\n      tag_261\n        /* \"#utility.yul\":14944:14950   */\n      dup6\n        /* \"#utility.yul\":14937:14942   */\n      dup3\n        /* \"#utility.yul\":14884:14951   */\n      tag_109\n      jump\t// in\n    tag_261:\n        /* \"#utility.yul\":14878:14882   */\n      dup7\n        /* \"#utility.yul\":14871:14952   */\n      sstore\n        /* \"#utility.yul\":14740:14962   */\n      pop\n        /* \"#utility.yul\":14075:14962   */\n      jump(tag_258)\n        /* \"#utility.yul\":14105:14723   */\n    tag_259:\n        /* \"#utility.yul\":14157:14161   */\n      0x1f\n        /* \"#utility.yul\":14153:14162   */\n      not\n        /* \"#utility.yul\":14145:14151   */\n      dup5\n        /* \"#utility.yul\":14141:14163   */\n      and\n        /* \"#utility.yul\":14191:14228   */\n      tag_262\n        /* \"#utility.yul\":14223:14227   */\n      dup7\n        /* \"#utility.yul\":14191:14228   */\n      tag_95\n      jump\t// in\n    tag_262:\n        /* \"#utility.yul\":14250:14251   */\n      0x00\n        /* \"#utility.yul\":14264:14472   */\n    tag_263:\n        /* \"#utility.yul\":14278:14285   */\n      dup3\n        /* \"#utility.yul\":14275:14276   */\n      dup2\n        /* \"#utility.yul\":14272:14286   */\n      lt\n        /* \"#utility.yul\":14264:14472   */\n      iszero\n      tag_265\n      jumpi\n        /* \"#utility.yul\":14357:14366   */\n      dup5\n        /* \"#utility.yul\":14352:14355   */\n      dup10\n        /* \"#utility.yul\":14348:14367   */\n      add\n        /* \"#utility.yul\":14342:14368   */\n      mload\n        /* \"#utility.yul\":14334:14340   */\n      dup3\n        /* \"#utility.yul\":14327:14369   */\n      sstore\n        /* \"#utility.yul\":14408:14409   */\n      0x01\n        /* \"#utility.yul\":14400:14406   */\n      dup3\n        /* \"#utility.yul\":14396:14410   */\n      add\n        /* \"#utility.yul\":14386:14410   */\n      swap2\n      pop\n        /* \"#utility.yul\":14455:14457   */\n      0x20\n        /* \"#utility.yul\":14444:14453   */\n      dup6\n        /* \"#utility.yul\":14440:14458   */\n      add\n        /* \"#utility.yul\":14427:14458   */\n      swap5\n      pop\n        /* \"#utility.yul\":14301:14305   */\n      0x20\n        /* \"#utility.yul\":14298:14299   */\n      dup2\n        /* \"#utility.yul\":14294:14306   */\n      add\n        /* \"#utility.yul\":14289:14306   */\n      swap1\n      pop\n        /* \"#utility.yul\":14264:14472   */\n      jump(tag_263)\n    tag_265:\n        /* \"#utility.yul\":14500:14506   */\n      dup7\n        /* \"#utility.yul\":14491:14498   */\n      dup4\n        /* \"#utility.yul\":14488:14507   */\n      lt\n        /* \"#utility.yul\":14485:14664   */\n      iszero\n      tag_266\n      jumpi\n        /* \"#utility.yul\":14558:14567   */\n      dup5\n        /* \"#utility.yul\":14553:14556   */\n      dup10\n        /* \"#utility.yul\":14549:14568   */\n      add\n        /* \"#utility.yul\":14543:14569   */\n      mload\n        /* \"#utility.yul\":14601:14649   */\n      tag_267\n        /* \"#utility.yul\":14643:14647   */\n      0x1f\n        /* \"#utility.yul\":14635:14641   */\n      dup10\n        /* \"#utility.yul\":14631:14648   */\n      and\n        /* \"#utility.yul\":14620:14629   */\n      dup3\n        /* \"#utility.yul\":14601:14649   */\n      tag_108\n      jump\t// in\n    tag_267:\n        /* \"#utility.yul\":14593:14599   */\n      dup4\n        /* \"#utility.yul\":14586:14650   */\n      sstore\n        /* \"#utility.yul\":14508:14664   */\n      pop\n        /* \"#utility.yul\":14485:14664   */\n    tag_266:\n        /* \"#utility.yul\":14710:14711   */\n      0x01\n        /* \"#utility.yul\":14706:14707   */\n      0x02\n        /* \"#utility.yul\":14698:14704   */\n      dup9\n        /* \"#utility.yul\":14694:14708   */\n      mul\n        /* \"#utility.yul\":14690:14712   */\n      add\n        /* \"#utility.yul\":14684:14688   */\n      dup9\n        /* \"#utility.yul\":14677:14713   */\n      sstore\n        /* \"#utility.yul\":14112:14723   */\n      pop\n      pop\n      pop\n        /* \"#utility.yul\":14075:14962   */\n    tag_258:\n      pop\n        /* \"#utility.yul\":13665:14968   */\n      pop\n      pop\n      pop\n        /* \"#utility.yul\":13573:14968   */\n      pop\n      pop\n      jump\t// out\n\n    auxdata: 0xa264697066735822122059380eb6c10935053cf85269b624d729d04fe35c6b16097d86bdeae23cdc4db164736f6c634300081a0033\n}\n",
				"bytecode": {
					"linkReferences": {},
					"object": "6080604052348015600e575f80fd5b50610b608061001c5f395ff3fe608060405234801561000f575f80fd5b5060043610610034575f3560e01c8063554c963414610038578063d57763c314610054575b5f80fd5b610052600480360381019061004d919061060e565b610085565b005b61006e6004803603810190610069919061067a565b6100fc565b60405161007c9291906107b4565b60405180910390f35b600282106100c8576040517f08c379a00000000000000000000000000000000000000000000000000000000081526004016100bf90610843565b60405180910390fd5b805f808581526020019081526020015f205f8481526020019081526020015f209060026100f69291906102d0565b50505050565b61010461031c565b61010c61031c565b5f808481526020019081526020015f205f8081526020019081526020015f205f808581526020019081526020015f205f600181526020019081526020015f2081600280602002604051908101604052809291905f905b828210156102035783820180546101789061088e565b80601f01602080910402602001604051908101604052809291908181526020018280546101a49061088e565b80156101ef5780601f106101c6576101008083540402835291602001916101ef565b820191905f5260205f20905b8154815290600101906020018083116101d257829003601f168201915b505050505081526020019060010190610162565b50505050915080600280602002604051908101604052809291905f905b828210156102c15783820180546102369061088e565b80601f01602080910402602001604051908101604052809291908181526020018280546102629061088e565b80156102ad5780601f10610284576101008083540402835291602001916102ad565b820191905f5260205f20905b81548152906001019060200180831161029057829003601f168201915b505050505081526020019060010190610220565b50505050905091509150915091565b826002810192821561030b579160200282015b8281111561030a5782518290816102fa9190610a5b565b50916020019190600101906102e3565b5b5090506103189190610343565b5090565b60405180604001604052806002905b606081526020019060019003908161032b5790505090565b5b80821115610362575f81816103599190610366565b50600101610344565b5090565b5080546103729061088e565b5f825580601f1061038357506103a0565b601f0160209004905f5260205f209081019061039f91906103a3565b5b50565b5b808211156103ba575f815f9055506001016103a4565b5090565b5f604051905090565b5f80fd5b5f80fd5b5f819050919050565b6103e1816103cf565b81146103eb575f80fd5b50565b5f813590506103fc816103d8565b92915050565b5f80fd5b5f601f19601f8301169050919050565b7f4e487b71000000000000000000000000000000000000000000000000000000005f52604160045260245ffd5b61044c82610406565b810181811067ffffffffffffffff8211171561046b5761046a610416565b5b80604052505050565b5f61047d6103be565b90506104898282610443565b919050565b5f67ffffffffffffffff8211156104a8576104a7610416565b5b602082029050919050565b5f80fd5b5f80fd5b5f67ffffffffffffffff8211156104d5576104d4610416565b5b6104de82610406565b9050602081019050919050565b828183375f83830152505050565b5f61050b610506846104bb565b610474565b905082815260208101848484011115610527576105266104b7565b5b6105328482856104eb565b509392505050565b5f82601f83011261054e5761054d610402565b5b813561055e8482602086016104f9565b91505092915050565b5f6105796105748461048e565b610474565b90508060208402830185811115610593576105926104b3565b5b835b818110156105da57803567ffffffffffffffff8111156105b8576105b7610402565b5b8086016105c5898261053a565b85526020850194505050602081019050610595565b5050509392505050565b5f82601f8301126105f8576105f7610402565b5b6002610605848285610567565b91505092915050565b5f805f60608486031215610625576106246103c7565b5b5f610632868287016103ee565b9350506020610643868287016103ee565b925050604084013567ffffffffffffffff811115610664576106636103cb565b5b610670868287016105e4565b9150509250925092565b5f6020828403121561068f5761068e6103c7565b5b5f61069c848285016103ee565b91505092915050565b5f60029050919050565b5f81905092915050565b5f819050919050565b5f81519050919050565b5f82825260208201905092915050565b8281835e5f83830152505050565b5f6106f4826106c2565b6106fe81856106cc565b935061070e8185602086016106dc565b61071781610406565b840191505092915050565b5f61072d83836106ea565b905092915050565b5f602082019050919050565b5f61074b826106a5565b61075581856106af565b935083602082028501610767856106b9565b805f5b858110156107a257848403895281516107838582610722565b945061078e83610735565b925060208a0199505060018101905061076a565b50829750879550505050505092915050565b5f6040820190508181035f8301526107cc8185610741565b905081810360208301526107e08184610741565b90509392505050565b5f82825260208201905092915050565b7f6e6f20726f6f6d000000000000000000000000000000000000000000000000005f82015250565b5f61082d6007836107e9565b9150610838826107f9565b602082019050919050565b5f6020820190508181035f83015261085a81610821565b9050919050565b7f4e487b71000000000000000000000000000000000000000000000000000000005f52602260045260245ffd5b5f60028204905060018216806108a557607f821691505b6020821081036108b8576108b7610861565b5b50919050565b5f819050815f5260205f209050919050565b5f6020601f8301049050919050565b5f82821b905092915050565b5f6008830261091a7fffffffffffffffffffffffffffffffffffffffffffffffffffffffffffffffff826108df565b61092486836108df565b95508019841693508086168417925050509392505050565b5f819050919050565b5f61095f61095a610955846103cf565b61093c565b6103cf565b9050919050565b5f819050919050565b61097883610945565b61098c61098482610966565b8484546108eb565b825550505050565b5f90565b6109a0610994565b6109ab81848461096f565b505050565b5b818110156109ce576109c35f82610998565b6001810190506109b1565b5050565b601f821115610a13576109e4816108be565b6109ed846108d0565b810160208510156109fc578190505b610a10610a08856108d0565b8301826109b0565b50505b505050565b5f82821c905092915050565b5f610a335f1984600802610a18565b1980831691505092915050565b5f610a4b8383610a24565b9150826002028217905092915050565b610a64826106c2565b67ffffffffffffffff811115610a7d57610a7c610416565b5b610a87825461088e565b610a928282856109d2565b5f60209050601f831160018114610ac3575f8415610ab1578287015190505b610abb8582610a40565b865550610b22565b601f198416610ad1866108be565b5f5b82811015610af857848901518255600182019150602085019450602081019050610ad3565b86831015610b155784890151610b11601f891682610a24565b8355505b6001600288020188555050505b50505050505056fea264697066735822122059380eb6c10935053cf85269b624d729d04fe35c6b16097d86bdeae23cdc4db164736f6c634300081a0033",
					"opcodes": "PUSH1 0x80 PUSH1 0x40 MSTORE CALLVALUE DUP1 ISZERO PUSH1 0xE JUMPI PUSH0 DUP1 REVERT JUMPDEST POP PUSH2 0xB60 DUP1 PUSH2 0x1C PUSH0 CODECOPY PUSH0 RETURN INVALID PUSH1 0x80 PUSH1 0x40 MSTORE CALLVALUE DUP1 ISZERO PUSH2 0xF JUMPI PUSH0 DUP1 REVERT JUMPDEST POP PUSH1 0x4 CALLDATASIZE LT PUSH2 0x34 JUMPI PUSH0 CALLDATALOAD PUSH1 0xE0 SHR DUP1 PUSH4 0x554C9634 EQ PUSH2 0x38 JUMPI DUP1 PUSH4 0xD57763C3 EQ PUSH2 0x54 JUMPI JUMPDEST PUSH0 DUP1 REVERT JUMPDEST PUSH2 0x52 PUSH1 0x4 DUP1 CALLDATASIZE SUB DUP2 ADD SWAP1 PUSH2 0x4D SWAP2 SWAP1 PUSH2 0x60E JUMP JUMPDEST PUSH2 0x85 JUMP JUMPDEST STOP JUMPDEST PUSH2 0x6E PUSH1 0x4 DUP1 CALLDATASIZE SUB DUP2 ADD SWAP1 PUSH2 0x69 SWAP2 SWAP1 PUSH2 0x67A JUMP JUMPDEST PUSH2 0xFC JUMP JUMPDEST PUSH1 0x40 MLOAD PUSH2 0x7C SWAP3 SWAP2 SWAP1 PUSH2 0x7B4 JUMP JUMPDEST PUSH1 0x40 MLOAD DUP1 SWAP2 SUB SWAP1 RETURN JUMPDEST PUSH1 0x2 DUP3 LT PUSH2 0xC8 JUMPI PUSH1 0x40 MLOAD PUSH32 0x8C379A000000000000000000000000000000000000000000000000000000000 DUP2 MSTORE PUSH1 0x4 ADD PUSH2 0xBF SWAP1 PUSH2 0x843 JUMP JUMPDEST PUSH1 0x40 MLOAD DUP1 SWAP2 SUB SWAP1 REVERT JUMPDEST DUP1 PUSH0 DUP1 DUP6 DUP2 MSTORE PUSH1 0x20 ADD SWAP1 DUP2 MSTORE PUSH1 0x20 ADD PUSH0 KECCAK256 PUSH0 DUP5 DUP2 MSTORE PUSH1 0x20 ADD SWAP1 DUP2 MSTORE PUSH1 0x20 ADD PUSH0 KECCAK256 SWAP1 PUSH1 0x2 PUSH2 0xF6 SWAP3 SWAP2 SWAP1 PUSH2 0x2D0 JUMP JUMPDEST POP POP POP POP JUMP JUMPDEST PUSH2 0x104 PUSH2 0x31C JUMP JUMPDEST PUSH2 0x10C PUSH2 0x31C JUMP JUMPDEST PUSH0 DUP1 DUP5 DUP2 MSTORE PUSH1 0x20 ADD SWAP1 DUP2 MSTORE PUSH1 0x20 ADD PUSH0 KECCAK256 PUSH0 DUP1 DUP2 MSTORE PUSH1 0x20 ADD SWAP1 DUP2 MSTORE PUSH1 0x20 ADD PUSH0 KECCAK256 PUSH0 DUP1 DUP6 DUP2 MSTORE PUSH1 0x20 ADD SWAP1 DUP2 MSTORE PUSH1 0x20 ADD PUSH0 KECCAK256 PUSH0 PUSH1 0x1 DUP2 MSTORE PUSH1 0x20 ADD SWAP1 DUP2 MSTORE PUSH1 0x20 ADD PUSH0 KECCAK256 DUP2 PUSH1 0x2 DUP1 PUSH1 0x20 MUL PUSH1 0x40 MLOAD SWAP1 DUP2 ADD PUSH1 0x40 MSTORE DUP1 SWAP3 SWAP2 SWAP1 PUSH0 SWAP1 JUMPDEST DUP3 DUP3 LT ISZERO PUSH2 0x203 JUMPI DUP4 DUP3 ADD DUP1 SLOAD PUSH2 0x178 SWAP1 PUSH2 0x88E JUMP JUMPDEST DUP1 PUSH1 0x1F ADD PUSH1 0x20 DUP1 SWAP2 DIV MUL PUSH1 0x20 ADD PUSH1 0x40 MLOAD SWAP1 DUP2 ADD PUSH1 0x40 MSTORE DUP1 SWAP3 SWAP2 SWAP1 DUP2 DUP2 MSTORE PUSH1 0x20 ADD DUP3 DUP1 SLOAD PUSH2 0x1A4 SWAP1 PUSH2 0x88E JUMP JUMPDEST DUP1 ISZERO PUSH2 0x1EF JUMPI DUP1 PUSH1 0x1F LT PUSH2 0x1C6 JUMPI PUSH2 0x100 DUP1 DUP4 SLOAD DIV MUL DUP4 MSTORE SWAP2 PUSH1 0x20 ADD SWAP2 PUSH2 0x1EF JUMP JUMPDEST DUP3 ADD SWAP2 SWAP1 PUSH0 MSTORE PUSH1 0x20 PUSH0 KECCAK256 SWAP1 JUMPDEST DUP2 SLOAD DUP2 MSTORE SWAP1 PUSH1 0x1 ADD SWAP1 PUSH1 0x20 ADD DUP1 DUP4 GT PUSH2 0x1D2 JUMPI DUP3 SWAP1 SUB PUSH1 0x1F AND DUP3 ADD SWAP2 JUMPDEST POP POP POP POP POP DUP2 MSTORE PUSH1 0x20 ADD SWAP1 PUSH1 0x1 ADD SWAP1 PUSH2 0x162 JUMP JUMPDEST POP POP POP POP SWAP2 POP DUP1 PUSH1 0x2 DUP1 PUSH1 0x20 MUL PUSH1 0x40 MLOAD SWAP1 DUP2 ADD PUSH1 0x40 MSTORE DUP1 SWAP3 SWAP2 SWAP1 PUSH0 SWAP1 JUMPDEST DUP3 DUP3 LT ISZERO PUSH2 0x2C1 JUMPI DUP4 DUP3 ADD DUP1 SLOAD PUSH2 0x236 SWAP1 PUSH2 0x88E JUMP JUMPDEST DUP1 PUSH1 0x1F ADD PUSH1 0x20 DUP1 SWAP2 DIV MUL PUSH1 0x20 ADD PUSH1 0x40 MLOAD SWAP1 DUP2 ADD PUSH1 0x40 MSTORE DUP1 SWAP3 SWAP2 SWAP1 DUP2 DUP2 MSTORE PUSH1 0x20 ADD DUP3 DUP1 SLOAD PUSH2 0x262 SWAP1 PUSH2 0x88E JUMP JUMPDEST DUP1 ISZERO PUSH2 0x2AD JUMPI DUP1 PUSH1 0x1F LT PUSH2 0x284 JUMPI PUSH2 0x100 DUP1 DUP4 SLOAD DIV MUL DUP4 MSTORE SWAP2 PUSH1 0x20 ADD SWAP2 PUSH2 0x2AD JUMP JUMPDEST DUP3 ADD SWAP2 SWAP1 PUSH0 MSTORE PUSH1 0x20 PUSH0 KECCAK256 SWAP1 JUMPDEST DUP2 SLOAD DUP2 MSTORE SWAP1 PUSH1 0x1 ADD SWAP1 PUSH1 0x20 ADD DUP1 DUP4 GT PUSH2 0x290 JUMPI DUP3 SWAP1 SUB PUSH1 0x1F AND DUP3 ADD SWAP2 JUMPDEST POP POP POP POP POP DUP2 MSTORE PUSH1 0x20 ADD SWAP1 PUSH1 0x1 ADD SWAP1 PUSH2 0x220 JUMP JUMPDEST POP POP POP POP SWAP1 POP SWAP2 POP SWAP2 POP SWAP2 POP SWAP2 JUMP JUMPDEST DUP3 PUSH1 0x2 DUP2 ADD SWAP3 DUP3 ISZERO PUSH2 0x30B JUMPI SWAP2 PUSH1 0x20 MUL DUP3 ADD JUMPDEST DUP3 DUP2 GT ISZERO PUSH2 0x30A JUMPI DUP3 MLOAD DUP3 SWAP1 DUP2 PUSH2 0x2FA SWAP2 SWAP1 PUSH2 0xA5B JUMP JUMPDEST POP SWAP2 PUSH1 0x20 ADD SWAP2 SWAP1 PUSH1 0x1 ADD SWAP1 PUSH2 0x2E3 JUMP JUMPDEST JUMPDEST POP SWAP1 POP PUSH2 0x318 SWAP2 SWAP1 PUSH2 0x343 JUMP JUMPDEST POP SWAP1 JUMP JUMPDEST PUSH1 0x40 MLOAD DUP1 PUSH1 0x40 ADD PUSH1 0x40 MSTORE DUP1 PUSH1 0x2 SWAP1 JUMPDEST PUSH1 0x60 DUP2 MSTORE PUSH1 0x20 ADD SWAP1 PUSH1 0x1 SWAP1 SUB SWAP1 DUP2 PUSH2 0x32B JUMPI SWAP1 POP POP SWAP1 JUMP JUMPDEST JUMPDEST DUP1 DUP3 GT ISZERO PUSH2 0x362 JUMPI PUSH0 DUP2 DUP2 PUSH2 0x359 SWAP2 SWAP1 PUSH2 0x366 JUMP JUMPDEST POP PUSH1 0x1 ADD PUSH2 0x344 JUMP JUMPDEST POP SWAP1 JUMP JUMPDEST POP DUP1 SLOAD PUSH2 0x372 SWAP1 PUSH2 0x88E JUMP JUMPDEST PUSH0 DUP3 SSTORE DUP1 PUSH1 0x1F LT PUSH2 0x383 JUMPI POP PUSH2 0x3A0 JUMP JUMPDEST PUSH1 0x1F ADD PUSH1 0x20 SWAP1 DIV SWAP1 PUSH0 MSTORE PUSH1 0x20 PUSH0 KECCAK256 SWAP1 DUP2 ADD SWAP1 PUSH2 0x39F SWAP2 SWAP1 PUSH2 0x3A3 JUMP JUMPDEST JUMPDEST POP JUMP JUMPDEST JUMPDEST DUP1 DUP3 GT ISZERO PUSH2 0x3BA JUMPI PUSH0 DUP2 PUSH0 SWAP1 SSTORE POP PUSH1 0x1 ADD PUSH2 0x3A4 JUMP JUMPDEST POP SWAP1 JUMP JUMPDEST PUSH0 PUSH1 0x40 MLOAD SWAP1 POP SWAP1 JUMP JUMPDEST PUSH0 DUP1 REVERT JUMPDEST PUSH0 DUP1 REVERT JUMPDEST PUSH0 DUP2 SWAP1 POP SWAP2 SWAP1 POP JUMP JUMPDEST PUSH2 0x3E1 DUP2 PUSH2 0x3CF JUMP JUMPDEST DUP2 EQ PUSH2 0x3EB JUMPI PUSH0 DUP1 REVERT JUMPDEST POP JUMP JUMPDEST PUSH0 DUP2 CALLDATALOAD SWAP1 POP PUSH2 0x3FC DUP2 PUSH2 0x3D8 JUMP JUMPDEST SWAP3 SWAP2 POP POP JUMP JUMPDEST PUSH0 DUP1 REVERT JUMPDEST PUSH0 PUSH1 0x1F NOT PUSH1 0x1F DUP4 ADD AND SWAP1 POP SWAP2 SWAP1 POP JUMP JUMPDEST PUSH32 0x4E487B7100000000000000000000000000000000000000000000000000000000 PUSH0 MSTORE PUSH1 0x41 PUSH1 0x4 MSTORE PUSH1 0x24 PUSH0 REVERT JUMPDEST PUSH2 0x44C DUP3 PUSH2 0x406 JUMP JUMPDEST DUP2 ADD DUP2 DUP2 LT PUSH8 0xFFFFFFFFFFFFFFFF DUP3 GT OR ISZERO PUSH2 0x46B JUMPI PUSH2 0x46A PUSH2 0x416 JUMP JUMPDEST JUMPDEST DUP1 PUSH1 0x40 MSTORE POP POP POP JUMP JUMPDEST PUSH0 PUSH2 0x47D PUSH2 0x3BE JUMP JUMPDEST SWAP1 POP PUSH2 0x489 DUP3 DUP3 PUSH2 0x443 JUMP JUMPDEST SWAP2 SWAP1 POP JUMP JUMPDEST PUSH0 PUSH8 0xFFFFFFFFFFFFFFFF DUP3 GT ISZERO PUSH2 0x4A8 JUMPI PUSH2 0x4A7 PUSH2 0x416 JUMP JUMPDEST JUMPDEST PUSH1 0x20 DUP3 MUL SWAP1 POP SWAP2 SWAP1 POP JUMP JUMPDEST PUSH0 DUP1 REVERT JUMPDEST PUSH0 DUP1 REVERT JUMPDEST PUSH0 PUSH8 0xFFFFFFFFFFFFFFFF DUP3 GT ISZERO PUSH2 0x4D5 JUMPI PUSH2 0x4D4 PUSH2 0x416 JUMP JUMPDEST JUMPDEST PUSH2 0x4DE DUP3 PUSH2 0x406 JUMP JUMPDEST SWAP1 POP PUSH1 0x20 DUP2 ADD SWAP1 POP SWAP2 SWAP1 POP JUMP JUMPDEST DUP3 DUP2 DUP4 CALLDATACOPY PUSH0 DUP4 DUP4 ADD MSTORE POP POP POP JUMP JUMPDEST PUSH0 PUSH2 0x50B PUSH2 0x506 DUP5 PUSH2 0x4BB JUMP JUMPDEST PUSH2 0x474 JUMP JUMPDEST SWAP1 POP DUP3 DUP2 MSTORE PUSH1 0x20 DUP2 ADD DUP5 DUP5 DUP5 ADD GT ISZERO PUSH2 0x527 JUMPI PUSH2 0x526 PUSH2 0x4B7 JUMP JUMPDEST JUMPDEST PUSH2 0x532 DUP5 DUP3 DUP6 PUSH2 0x4EB JUMP JUMPDEST POP SWAP4 SWAP3 POP POP POP JUMP JUMPDEST PUSH0 DUP3 PUSH1 0x1F DUP4 ADD SLT PUSH2 0x54E JUMPI PUSH2 0x54D PUSH2 0x402 JUMP JUMPDEST JUMPDEST DUP2 CALLDATALOAD PUSH2 0x55E DUP5 DUP3 PUSH1 0x20 DUP7 ADD PUSH2 0x4F9 JUMP JUMPDEST SWAP2 POP POP SWAP3 SWAP2 POP POP JUMP JUMPDEST PUSH0 PUSH2 0x579 PUSH2 0x574 DUP5 PUSH2 0x48E JUMP JUMPDEST PUSH2 0x474 JUMP JUMPDEST SWAP1 POP DUP1 PUSH1 0x20 DUP5 MUL DUP4 ADD DUP6 DUP2 GT ISZERO PUSH2 0x593 JUMPI PUSH2 0x592 PUSH2 0x4B3 JUMP JUMPDEST JUMPDEST DUP4 JUMPDEST DUP2 DUP2 LT ISZERO PUSH2 0x5DA JUMPI DUP1 CALLDATALOAD PUSH8 0xFFFFFFFFFFFFFFFF DUP2 GT ISZERO PUSH2 0x5B8 JUMPI PUSH2 0x5B7 PUSH2 0x402 JUMP JUMPDEST JUMPDEST DUP1 DUP7 ADD PUSH2 0x5C5 DUP10 DUP3 PUSH2 0x53A JUMP JUMPDEST DUP6 MSTORE PUSH1 0x20 DUP6 ADD SWAP5 POP POP POP PUSH1 0x20 DUP2 ADD SWAP1 POP PUSH2 0x595 JUMP JUMPDEST POP POP POP SWAP4 SWAP3 POP POP POP JUMP JUMPDEST PUSH0 DUP3 PUSH1 0x1F DUP4 ADD SLT PUSH2 0x5F8 JUMPI PUSH2 0x5F7 PUSH2 0x402 JUMP JUMPDEST JUMPDEST PUSH1 0x2 PUSH2 0x605 DUP5 DUP3 DUP6 PUSH2 0x567 JUMP JUMPDEST SWAP2 POP POP SWAP3 SWAP2 POP POP JUMP JUMPDEST PUSH0 DUP1 PUSH0 PUSH1 0x60 DUP5 DUP7 SUB SLT ISZERO PUSH2 0x625 JUMPI PUSH2 0x624 PUSH2 0x3C7 JUMP JUMPDEST JUMPDEST PUSH0 PUSH2 0x632 DUP7 DUP3 DUP8 ADD PUSH2 0x3EE JUMP JUMPDEST SWAP4 POP POP PUSH1 0x20 PUSH2 0x643 DUP7 DUP3 DUP8 ADD PUSH2 0x3EE JUMP JUMPDEST SWAP3 POP POP PUSH1 0x40 DUP5 ADD CALLDATALOAD PUSH8 0xFFFFFFFFFFFFFFFF DUP2 GT ISZERO PUSH2 0x664 JUMPI PUSH2 0x663 PUSH2 0x3CB JUMP JUMPDEST JUMPDEST PUSH2 0x670 DUP7 DUP3 DUP8 ADD PUSH2 0x5E4 JUMP JUMPDEST SWAP2 POP POP SWAP3 POP SWAP3 POP SWAP3 JUMP JUMPDEST PUSH0 PUSH1 0x20 DUP3 DUP5 SUB SLT ISZERO PUSH2 0x68F JUMPI PUSH2 0x68E PUSH2 0x3C7 JUMP JUMPDEST JUMPDEST PUSH0 PUSH2 0x69C DUP5 DUP3 DUP6 ADD PUSH2 0x3EE JUMP JUMPDEST SWAP2 POP POP SWAP3 SWAP2 POP POP JUMP JUMPDEST PUSH0 PUSH1 0x2 SWAP1 POP SWAP2 SWAP1 POP JUMP JUMPDEST PUSH0 DUP2 SWAP1 POP SWAP3 SWAP2 POP POP JUMP JUMPDEST PUSH0 DUP2 SWAP1 POP SWAP2 SWAP1 POP JUMP JUMPDEST PUSH0 DUP2 MLOAD SWAP1 POP SWAP2 SWAP1 POP JUMP JUMPDEST PUSH0 DUP3 DUP3 MSTORE PUSH1 0x20 DUP3 ADD SWAP1 POP SWAP3 SWAP2 POP POP JUMP JUMPDEST DUP3 DUP2 DUP4 MCOPY PUSH0 DUP4 DUP4 ADD MSTORE POP POP POP JUMP JUMPDEST PUSH0 PUSH2 0x6F4 DUP3 PUSH2 0x6C2 JUMP JUMPDEST PUSH2 0x6FE DUP2 DUP6 PUSH2 0x6CC JUMP JUMPDEST SWAP4 POP PUSH2 0x70E DUP2 DUP6 PUSH1 0x20 DUP7 ADD PUSH2 0x6DC JUMP JUMPDEST PUSH2 0x717 DUP2 PUSH2 0x406 JUMP JUMPDEST DUP5 ADD SWAP2 POP POP SWAP3 SWAP2 POP POP JUMP JUMPDEST PUSH0 PUSH2 0x72D DUP4 DUP4 PUSH2 0x6EA JUMP JUMPDEST SWAP1 POP SWAP3 SWAP2 POP POP JUMP JUMPDEST PUSH0 PUSH1 0x20 DUP3 ADD SWAP1 POP SWAP2 SWAP1 POP JUMP JUMPDEST PUSH0 PUSH2 0x74B DUP3 PUSH2 0x6A5 JUMP JUMPDEST PUSH2 0x755 DUP2 DUP6 PUSH2 0x6AF JUMP JUMPDEST SWAP4 POP DUP4 PUSH1 0x20 DUP3 MUL DUP6 ADD PUSH2 0x767 DUP6 PUSH2 0x6B9 JUMP JUMPDEST DUP1 PUSH0 JUMPDEST DUP6 DUP2 LT ISZERO PUSH2 0x7A2 JUMPI DUP5 DUP5 SUB DUP10 MSTORE DUP2 MLOAD PUSH2 0x783 DUP6 DUP3 PUSH2 0x722 JUMP JUMPDEST SWAP5 POP PUSH2 0x78E DUP4 PUSH2 0x735 JUMP JUMPDEST SWAP3 POP PUSH1 0x20 DUP11 ADD SWAP10 POP POP PUSH1 0x1 DUP2 ADD SWAP1 POP PUSH2 0x76A JUMP JUMPDEST POP DUP3 SWAP8 POP DUP8 SWAP6 POP POP POP POP POP POP SWAP3 SWAP2 POP POP JUMP JUMPDEST PUSH0 PUSH1 0x40 DUP3 ADD SWAP1 POP DUP2 DUP2 SUB PUSH0 DUP4 ADD MSTORE PUSH2 0x7CC DUP2 DUP6 PUSH2 0x741 JUMP JUMPDEST SWAP1 POP DUP2 DUP2 SUB PUSH1 0x20 DUP4 ADD MSTORE PUSH2 0x7E0 DUP2 DUP5 PUSH2 0x741 JUMP JUMPDEST SWAP1 POP SWAP4 SWAP3 POP POP POP JUMP JUMPDEST PUSH0 DUP3 DUP3 MSTORE PUSH1 0x20 DUP3 ADD SWAP1 POP SWAP3 SWAP2 POP POP JUMP JUMPDEST PUSH32 0x6E6F20726F6F6D00000000000000000000000000000000000000000000000000 PUSH0 DUP3 ADD MSTORE POP JUMP JUMPDEST PUSH0 PUSH2 0x82D PUSH1 0x7 DUP4 PUSH2 0x7E9 JUMP JUMPDEST SWAP2 POP PUSH2 0x838 DUP3 PUSH2 0x7F9 JUMP JUMPDEST PUSH1 0x20 DUP3 ADD SWAP1 POP SWAP2 SWAP1 POP JUMP JUMPDEST PUSH0 PUSH1 0x20 DUP3 ADD SWAP1 POP DUP2 DUP2 SUB PUSH0 DUP4 ADD MSTORE PUSH2 0x85A DUP2 PUSH2 0x821 JUMP JUMPDEST SWAP1 POP SWAP2 SWAP1 POP JUMP JUMPDEST PUSH32 0x4E487B7100000000000000000000000000000000000000000000000000000000 PUSH0 MSTORE PUSH1 0x22 PUSH1 0x4 MSTORE PUSH1 0x24 PUSH0 REVERT JUMPDEST PUSH0 PUSH1 0x2 DUP3 DIV SWAP1 POP PUSH1 0x1 DUP3 AND DUP1 PUSH2 0x8A5 JUMPI PUSH1 0x7F DUP3 AND SWAP2 POP JUMPDEST PUSH1 0x20 DUP3 LT DUP2 SUB PUSH2 0x8B8 JUMPI PUSH2 0x8B7 PUSH2 0x861 JUMP JUMPDEST JUMPDEST POP SWAP2 SWAP1 POP JUMP JUMPDEST PUSH0 DUP2 SWAP1 POP DUP2 PUSH0 MSTORE PUSH1 0x20 PUSH0 KECCAK256 SWAP1 POP SWAP2 SWAP1 POP JUMP JUMPDEST PUSH0 PUSH1 0x20 PUSH1 0x1F DUP4 ADD DIV SWAP1 POP SWAP2 SWAP1 POP JUMP JUMPDEST PUSH0 DUP3 DUP3 SHL SWAP1 POP SWAP3 SWAP2 POP POP JUMP JUMPDEST PUSH0 PUSH1 0x8 DUP4 MUL PUSH2 0x91A PUSH32 0xFFFFFFFFFFFFFFFFFFFFFFFFFFFFFFFFFFFFFFFFFFFFFFFFFFFFFFFFFFFFFFFF DUP3 PUSH2 0x8DF JUMP JUMPDEST PUSH2 0x924 DUP7 DUP4 PUSH2 0x8DF JUMP JUMPDEST SWAP6 POP DUP1 NOT DUP5 AND SWAP4 POP DUP1 DUP7 AND DUP5 OR SWAP3 POP POP POP SWAP4 SWAP3 POP POP POP JUMP JUMPDEST PUSH0 DUP2 SWAP1 POP SWAP2 SWAP1 POP JUMP JUMPDEST PUSH0 PUSH2 0x95F PUSH2 0x95A PUSH2 0x955 DUP5 PUSH2 0x3CF JUMP JUMPDEST PUSH2 0x93C JUMP JUMPDEST PUSH2 0x3CF JUMP JUMPDEST SWAP1 POP SWAP2 SWAP1 POP JUMP JUMPDEST PUSH0 DUP2 SWAP1 POP SWAP2 SWAP1 POP JUMP JUMPDEST PUSH2 0x978 DUP4 PUSH2 0x945 JUMP JUMPDEST PUSH2 0x98C PUSH2 0x984 DUP3 PUSH2 0x966 JUMP JUMPDEST DUP5 DUP5 SLOAD PUSH2 0x8EB JUMP JUMPDEST DUP3 SSTORE POP POP POP POP JUMP JUMPDEST PUSH0 SWAP1 JUMP JUMPDEST PUSH2 0x9A0 PUSH2 0x994 JUMP JUMPDEST PUSH2 0x9AB DUP2 DUP5 DUP5 PUSH2 0x96F JUMP JUMPDEST POP POP POP JUMP JUMPDEST JUMPDEST DUP2 DUP2 LT ISZERO PUSH2 0x9CE JUMPI PUSH2 0x9C3 PUSH0 DUP3 PUSH2 0x998 JUMP JUMPDEST PUSH1 0x1 DUP2 ADD SWAP1 POP PUSH2 0x9B1 JUMP JUMPDEST POP POP JUMP JUMPDEST PUSH1 0x1F DUP3 GT ISZERO PUSH2 0xA13 JUMPI PUSH2 0x9E4 DUP2 PUSH2 0x8BE JUMP JUMPDEST PUSH2 0x9ED DUP5 PUSH2 0x8D0 JUMP JUMPDEST DUP2 ADD PUSH1 0x20 DUP6 LT ISZERO PUSH2 0x9FC JUMPI DUP2 SWAP1 POP JUMPDEST PUSH2 0xA10 PUSH2 0xA08 DUP6 PUSH2 0x8D0 JUMP JUMPDEST DUP4 ADD DUP3 PUSH2 0x9B0 JUMP JUMPDEST POP POP JUMPDEST POP POP POP JUMP JUMPDEST PUSH0 DUP3 DUP3 SHR SWAP1 POP SWAP3 SWAP2 POP POP JUMP JUMPDEST PUSH0 PUSH2 0xA33 PUSH0 NOT DUP5 PUSH1 0x8 MUL PUSH2 0xA18 JUMP JUMPDEST NOT DUP1 DUP4 AND SWAP2 POP POP SWAP3 SWAP2 POP POP JUMP JUMPDEST PUSH0 PUSH2 0xA4B DUP4 DUP4 PUSH2 0xA24 JUMP JUMPDEST SWAP2 POP DUP3 PUSH1 0x2 MUL DUP3 OR SWAP1 POP SWAP3 SWAP2 POP POP JUMP JUMPDEST PUSH2 0xA64 DUP3 PUSH2 0x6C2 JUMP JUMPDEST PUSH8 0xFFFFFFFFFFFFFFFF DUP2 GT ISZERO PUSH2 0xA7D JUMPI PUSH2 0xA7C PUSH2 0x416 JUMP JUMPDEST JUMPDEST PUSH2 0xA87 DUP3 SLOAD PUSH2 0x88E JUMP JUMPDEST PUSH2 0xA92 DUP3 DUP3 DUP6 PUSH2 0x9D2 JUMP JUMPDEST PUSH0 PUSH1 0x20 SWAP1 POP PUSH1 0x1F DUP4 GT PUSH1 0x1 DUP2 EQ PUSH2 0xAC3 JUMPI PUSH0 DUP5 ISZERO PUSH2 0xAB1 JUMPI DUP3 DUP8 ADD MLOAD SWAP1 POP JUMPDEST PUSH2 0xABB DUP6 DUP3 PUSH2 0xA40 JUMP JUMPDEST DUP7 SSTORE POP PUSH2 0xB22 JUMP JUMPDEST PUSH1 0x1F NOT DUP5 AND PUSH2 0xAD1 DUP7 PUSH2 0x8BE JUMP JUMPDEST PUSH0 JUMPDEST DUP3 DUP2 LT ISZERO PUSH2 0xAF8 JUMPI DUP5 DUP10 ADD MLOAD DUP3 SSTORE PUSH1 0x1 DUP3 ADD SWAP2 POP PUSH1 0x20 DUP6 ADD SWAP5 POP PUSH1 0x20 DUP2 ADD SWAP1 POP PUSH2 0xAD3 JUMP JUMPDEST DUP7 DUP4 LT ISZERO PUSH2 0xB15 JUMPI DUP5 DUP10 ADD MLOAD PUSH2 0xB11 PUSH1 0x1F DUP10 AND DUP3 PUSH2 0xA24 JUMP JUMPDEST DUP4 SSTORE POP JUMPDEST PUSH1 0x1 PUSH1 0x2 DUP9 MUL ADD DUP9 SSTORE POP POP POP JUMPDEST POP POP POP POP POP POP JUMP INVALID LOG2 PUSH5 0x6970667358 0x22 SLT KECCAK256 MSIZE CODESIZE 0xE 0xB6 0xC1 MULMOD CALLDATALOAD SDIV EXTCODECOPY 0xF8 MSTORE PUSH10 0xB624D729D04FE35C6B16 MULMOD PUSH30 0x86BDEAE23CDC4DB164736F6C634300081A00330000000000000000000000 "
				},
				"gasEstimates": {
					"creation": {
						"codeDepositCost": "582400",
						"executionCost": "611",
						"totalCost": "583011"
					},
					"external": {
						"getReservation(uint256)": "infinite",
						"setReservation(uint256,uint256,string[2])": "infinite"
					}
				},
				"methodIdentifiers": {
					"getReservation(uint256)": "d57763c3",
					"setReservation(uint256,uint256,string[2])": "554c9634"
				}
			},
			"storageLayout": {
				"storage": [
					{
						"astId": 683,
						"contract": "Solidity100/Solidity51-60.sol:Question60",
						"label": "reservation",
						"offset": 0,
						"slot": "0",
						"type": "t_mapping(t_uint256,t_mapping(t_uint256,t_array(t_string_storage)2_storage))"
					}
				],
				"types": {
					"t_array(t_string_storage)2_storage": {
						"base": "t_string_storage",
						"encoding": "inplace",
						"label": "string[2]",
						"numberOfBytes": "64"
					},
					"t_mapping(t_uint256,t_array(t_string_storage)2_storage)": {
						"encoding": "mapping",
						"key": "t_uint256",
						"label": "mapping(uint256 => string[2])",
						"numberOfBytes": "32",
						"value": "t_array(t_string_storage)2_storage"
					},
					"t_mapping(t_uint256,t_mapping(t_uint256,t_array(t_string_storage)2_storage))": {
						"encoding": "mapping",
						"key": "t_uint256",
						"label": "mapping(uint256 => mapping(uint256 => string[2]))",
						"numberOfBytes": "32",
						"value": "t_mapping(t_uint256,t_array(t_string_storage)2_storage)"
					},
					"t_string_storage": {
						"encoding": "bytes",
						"label": "string",
						"numberOfBytes": "32"
					},
					"t_uint256": {
						"encoding": "inplace",
						"label": "uint256",
						"numberOfBytes": "32"
					}
				}
			},
			"userdoc": {
				"kind": "user",
				"methods": {},
				"version": 1
			}
		}
	}
}