{
	"Solidity100/Solidity51-60.sol": {
		"Question57": {
			"abi": [
				{
					"inputs": [
						{
							"internalType": "address",
							"name": "_addr",
							"type": "address"
						}
					],
					"stateMutability": "nonpayable",
					"type": "constructor"
				},
				{
					"inputs": [
						{
							"internalType": "address",
							"name": "_addr",
							"type": "address"
						}
					],
					"name": "changeOwner",
					"outputs": [],
					"stateMutability": "nonpayable",
					"type": "function"
				},
				{
					"inputs": [],
					"name": "getApproval",
					"outputs": [],
					"stateMutability": "nonpayable",
					"type": "function"
				},
				{
					"inputs": [],
					"name": "owner",
					"outputs": [
						{
							"internalType": "address",
							"name": "",
							"type": "address"
						}
					],
					"stateMutability": "view",
					"type": "function"
				},
				{
					"inputs": [],
					"name": "subowner",
					"outputs": [
						{
							"internalType": "address",
							"name": "",
							"type": "address"
						}
					],
					"stateMutability": "view",
					"type": "function"
				}
			],
			"devdoc": {
				"kind": "dev",
				"methods": {},
				"version": 1
			},
			"evm": {
				"assembly": "    /* \"Solidity100/Solidity51-60.sol\":5155:5981  contract Question57{... */\n  mstore(0x40, 0x80)\n    /* \"Solidity100/Solidity51-60.sol\":5474:5562  constructor(address _addr) {... */\n  callvalue\n  dup1\n  iszero\n  tag_1\n  jumpi\n  0x00\n  dup1\n  revert\ntag_1:\n  pop\n  mload(0x40)\n  sub(codesize, bytecodeSize)\n  dup1\n  bytecodeSize\n  dup4\n  codecopy\n  dup2\n  dup2\n  add\n  0x40\n  mstore\n  dup2\n  add\n  swap1\n  tag_2\n  swap2\n  swap1\n  tag_3\n  jump\t// in\ntag_2:\n    /* \"Solidity100/Solidity51-60.sol\":5519:5529  msg.sender */\n  caller\n    /* \"Solidity100/Solidity51-60.sol\":5511:5516  owner */\n  0x00\n  dup1\n    /* \"Solidity100/Solidity51-60.sol\":5511:5529  owner = msg.sender */\n  0x0100\n  exp\n  dup2\n  sload\n  dup2\n  0xffffffffffffffffffffffffffffffffffffffff\n  mul\n  not\n  and\n  swap1\n  dup4\n  0xffffffffffffffffffffffffffffffffffffffff\n  and\n  mul\n  or\n  swap1\n  sstore\n  pop\n    /* \"Solidity100/Solidity51-60.sol\":5550:5555  _addr */\n  dup1\n    /* \"Solidity100/Solidity51-60.sol\":5539:5547  subowner */\n  0x01\n  0x00\n    /* \"Solidity100/Solidity51-60.sol\":5539:5555  subowner = _addr */\n  0x0100\n  exp\n  dup2\n  sload\n  dup2\n  0xffffffffffffffffffffffffffffffffffffffff\n  mul\n  not\n  and\n  swap1\n  dup4\n  0xffffffffffffffffffffffffffffffffffffffff\n  and\n  mul\n  or\n  swap1\n  sstore\n  pop\n    /* \"Solidity100/Solidity51-60.sol\":5474:5562  constructor(address _addr) {... */\n  pop\n    /* \"Solidity100/Solidity51-60.sol\":5155:5981  contract Question57{... */\n  jump(tag_6)\n    /* \"#utility.yul\":88:205   */\ntag_8:\n    /* \"#utility.yul\":197:198   */\n  0x00\n    /* \"#utility.yul\":194:195   */\n  dup1\n    /* \"#utility.yul\":187:199   */\n  revert\n    /* \"#utility.yul\":334:460   */\ntag_10:\n    /* \"#utility.yul\":371:378   */\n  0x00\n    /* \"#utility.yul\":411:453   */\n  0xffffffffffffffffffffffffffffffffffffffff\n    /* \"#utility.yul\":404:409   */\n  dup3\n    /* \"#utility.yul\":400:454   */\n  and\n    /* \"#utility.yul\":389:454   */\n  swap1\n  pop\n    /* \"#utility.yul\":334:460   */\n  swap2\n  swap1\n  pop\n  jump\t// out\n    /* \"#utility.yul\":466:562   */\ntag_11:\n    /* \"#utility.yul\":503:510   */\n  0x00\n    /* \"#utility.yul\":532:556   */\n  tag_20\n    /* \"#utility.yul\":550:555   */\n  dup3\n    /* \"#utility.yul\":532:556   */\n  tag_10\n  jump\t// in\ntag_20:\n    /* \"#utility.yul\":521:556   */\n  swap1\n  pop\n    /* \"#utility.yul\":466:562   */\n  swap2\n  swap1\n  pop\n  jump\t// out\n    /* \"#utility.yul\":568:690   */\ntag_12:\n    /* \"#utility.yul\":641:665   */\n  tag_22\n    /* \"#utility.yul\":659:664   */\n  dup2\n    /* \"#utility.yul\":641:665   */\n  tag_11\n  jump\t// in\ntag_22:\n    /* \"#utility.yul\":634:639   */\n  dup2\n    /* \"#utility.yul\":631:666   */\n  eq\n    /* \"#utility.yul\":621:684   */\n  tag_23\n  jumpi\n    /* \"#utility.yul\":680:681   */\n  0x00\n    /* \"#utility.yul\":677:678   */\n  dup1\n    /* \"#utility.yul\":670:682   */\n  revert\n    /* \"#utility.yul\":621:684   */\ntag_23:\n    /* \"#utility.yul\":568:690   */\n  pop\n  jump\t// out\n    /* \"#utility.yul\":696:839   */\ntag_13:\n    /* \"#utility.yul\":753:758   */\n  0x00\n    /* \"#utility.yul\":784:790   */\n  dup2\n    /* \"#utility.yul\":778:791   */\n  mload\n    /* \"#utility.yul\":769:791   */\n  swap1\n  pop\n    /* \"#utility.yul\":800:833   */\n  tag_25\n    /* \"#utility.yul\":827:832   */\n  dup2\n    /* \"#utility.yul\":800:833   */\n  tag_12\n  jump\t// in\ntag_25:\n    /* \"#utility.yul\":696:839   */\n  swap3\n  swap2\n  pop\n  pop\n  jump\t// out\n    /* \"#utility.yul\":845:1196   */\ntag_3:\n    /* \"#utility.yul\":915:921   */\n  0x00\n    /* \"#utility.yul\":964:966   */\n  0x20\n    /* \"#utility.yul\":952:961   */\n  dup3\n    /* \"#utility.yul\":943:950   */\n  dup5\n    /* \"#utility.yul\":939:962   */\n  sub\n    /* \"#utility.yul\":935:967   */\n  slt\n    /* \"#utility.yul\":932:1051   */\n  iszero\n  tag_27\n  jumpi\n    /* \"#utility.yul\":970:1049   */\n  tag_28\n  tag_8\n  jump\t// in\ntag_28:\n    /* \"#utility.yul\":932:1051   */\ntag_27:\n    /* \"#utility.yul\":1090:1091   */\n  0x00\n    /* \"#utility.yul\":1115:1179   */\n  tag_29\n    /* \"#utility.yul\":1171:1178   */\n  dup5\n    /* \"#utility.yul\":1162:1168   */\n  dup3\n    /* \"#utility.yul\":1151:1160   */\n  dup6\n    /* \"#utility.yul\":1147:1169   */\n  add\n    /* \"#utility.yul\":1115:1179   */\n  tag_13\n  jump\t// in\ntag_29:\n    /* \"#utility.yul\":1105:1179   */\n  swap2\n  pop\n    /* \"#utility.yul\":1061:1189   */\n  pop\n    /* \"#utility.yul\":845:1196   */\n  swap3\n  swap2\n  pop\n  pop\n  jump\t// out\n    /* \"Solidity100/Solidity51-60.sol\":5155:5981  contract Question57{... */\ntag_6:\n  dataSize(sub_0)\n  dup1\n  dataOffset(sub_0)\n  0x00\n  codecopy\n  0x00\n  return\nstop\n\nsub_0: assembly {\n        /* \"Solidity100/Solidity51-60.sol\":5155:5981  contract Question57{... */\n      mstore(0x40, 0x80)\n      callvalue\n      dup1\n      iszero\n      tag_1\n      jumpi\n      0x00\n      dup1\n      revert\n    tag_1:\n      pop\n      jumpi(tag_2, lt(calldatasize, 0x04))\n      shr(0xe0, calldataload(0x00))\n      dup1\n      0x3e8c060e\n      eq\n      tag_3\n      jumpi\n      dup1\n      0x8da5cb5b\n      eq\n      tag_4\n      jumpi\n      dup1\n      0xa6f9dae1\n      eq\n      tag_5\n      jumpi\n      dup1\n      0xdfbd6150\n      eq\n      tag_6\n      jumpi\n    tag_2:\n      0x00\n      dup1\n      revert\n        /* \"Solidity100/Solidity51-60.sol\":5568:5694  function getApproval() public {... */\n    tag_3:\n      tag_7\n      tag_8\n      jump\t// in\n    tag_7:\n      stop\n        /* \"Solidity100/Solidity51-60.sol\":5379:5399  address public owner */\n    tag_4:\n      tag_9\n      tag_10\n      jump\t// in\n    tag_9:\n      mload(0x40)\n      tag_11\n      swap2\n      swap1\n      tag_12\n      jump\t// in\n    tag_11:\n      mload(0x40)\n      dup1\n      swap2\n      sub\n      swap1\n      return\n        /* \"Solidity100/Solidity51-60.sol\":5700:5979  function changeOwner(address _addr) public {... */\n    tag_5:\n      tag_13\n      0x04\n      dup1\n      calldatasize\n      sub\n      dup2\n      add\n      swap1\n      tag_14\n      swap2\n      swap1\n      tag_15\n      jump\t// in\n    tag_14:\n      tag_16\n      jump\t// in\n    tag_13:\n      stop\n        /* \"Solidity100/Solidity51-60.sol\":5405:5428  address public subowner */\n    tag_6:\n      tag_17\n      tag_18\n      jump\t// in\n    tag_17:\n      mload(0x40)\n      tag_19\n      swap2\n      swap1\n      tag_12\n      jump\t// in\n    tag_19:\n      mload(0x40)\n      dup1\n      swap2\n      sub\n      swap1\n      return\n        /* \"Solidity100/Solidity51-60.sol\":5568:5694  function getApproval() public {... */\n    tag_8:\n        /* \"Solidity100/Solidity51-60.sol\":5625:5635  msg.sender */\n      caller\n        /* \"Solidity100/Solidity51-60.sol\":5616:5635  owner == msg.sender */\n      0xffffffffffffffffffffffffffffffffffffffff\n      and\n        /* \"Solidity100/Solidity51-60.sol\":5616:5621  owner */\n      0x00\n      dup1\n      sload\n      swap1\n      0x0100\n      exp\n      swap1\n      div\n      0xffffffffffffffffffffffffffffffffffffffff\n      and\n        /* \"Solidity100/Solidity51-60.sol\":5616:5635  owner == msg.sender */\n      0xffffffffffffffffffffffffffffffffffffffff\n      and\n      eq\n        /* \"Solidity100/Solidity51-60.sol\":5608:5650  require(owner == msg.sender, \"only owner\") */\n      tag_21\n      jumpi\n      mload(0x40)\n      0x08c379a000000000000000000000000000000000000000000000000000000000\n      dup2\n      mstore\n      0x04\n      add\n      tag_22\n      swap1\n      tag_23\n      jump\t// in\n    tag_22:\n      mload(0x40)\n      dup1\n      swap2\n      sub\n      swap1\n      revert\n    tag_21:\n        /* \"Solidity100/Solidity51-60.sol\":5683:5687  true */\n      0x01\n        /* \"Solidity100/Solidity51-60.sol\":5660:5668  approval */\n      0x02\n        /* \"Solidity100/Solidity51-60.sol\":5660:5680  approval[msg.sender] */\n      0x00\n        /* \"Solidity100/Solidity51-60.sol\":5669:5679  msg.sender */\n      caller\n        /* \"Solidity100/Solidity51-60.sol\":5660:5680  approval[msg.sender] */\n      0xffffffffffffffffffffffffffffffffffffffff\n      and\n      0xffffffffffffffffffffffffffffffffffffffff\n      and\n      dup2\n      mstore\n      0x20\n      add\n      swap1\n      dup2\n      mstore\n      0x20\n      add\n      0x00\n      keccak256\n      0x00\n        /* \"Solidity100/Solidity51-60.sol\":5660:5687  approval[msg.sender] = true */\n      0x0100\n      exp\n      dup2\n      sload\n      dup2\n      0xff\n      mul\n      not\n      and\n      swap1\n      dup4\n      iszero\n      iszero\n      mul\n      or\n      swap1\n      sstore\n      pop\n        /* \"Solidity100/Solidity51-60.sol\":5568:5694  function getApproval() public {... */\n      jump\t// out\n        /* \"Solidity100/Solidity51-60.sol\":5379:5399  address public owner */\n    tag_10:\n      0x00\n      dup1\n      sload\n      swap1\n      0x0100\n      exp\n      swap1\n      div\n      0xffffffffffffffffffffffffffffffffffffffff\n      and\n      dup2\n      jump\t// out\n        /* \"Solidity100/Solidity51-60.sol\":5700:5979  function changeOwner(address _addr) public {... */\n    tag_16:\n        /* \"Solidity100/Solidity51-60.sol\":5770:5780  msg.sender */\n      caller\n        /* \"Solidity100/Solidity51-60.sol\":5761:5780  owner == msg.sender */\n      0xffffffffffffffffffffffffffffffffffffffff\n      and\n        /* \"Solidity100/Solidity51-60.sol\":5761:5766  owner */\n      0x00\n      dup1\n      sload\n      swap1\n      0x0100\n      exp\n      swap1\n      div\n      0xffffffffffffffffffffffffffffffffffffffff\n      and\n        /* \"Solidity100/Solidity51-60.sol\":5761:5780  owner == msg.sender */\n      0xffffffffffffffffffffffffffffffffffffffff\n      and\n      eq\n        /* \"Solidity100/Solidity51-60.sol\":5761:5806  owner == msg.sender || subowner == msg.sender */\n      dup1\n      tag_25\n      jumpi\n      pop\n        /* \"Solidity100/Solidity51-60.sol\":5796:5806  msg.sender */\n      caller\n        /* \"Solidity100/Solidity51-60.sol\":5784:5806  subowner == msg.sender */\n      0xffffffffffffffffffffffffffffffffffffffff\n      and\n        /* \"Solidity100/Solidity51-60.sol\":5784:5792  subowner */\n      0x01\n      0x00\n      swap1\n      sload\n      swap1\n      0x0100\n      exp\n      swap1\n      div\n      0xffffffffffffffffffffffffffffffffffffffff\n      and\n        /* \"Solidity100/Solidity51-60.sol\":5784:5806  subowner == msg.sender */\n      0xffffffffffffffffffffffffffffffffffffffff\n      and\n      eq\n        /* \"Solidity100/Solidity51-60.sol\":5761:5806  owner == msg.sender || subowner == msg.sender */\n    tag_25:\n        /* \"Solidity100/Solidity51-60.sol\":5753:5830  require(owner == msg.sender || subowner == msg.sender, \"only owner/subowner\") */\n      tag_26\n      jumpi\n      mload(0x40)\n      0x08c379a000000000000000000000000000000000000000000000000000000000\n      dup2\n      mstore\n      0x04\n      add\n      tag_27\n      swap1\n      tag_28\n      jump\t// in\n    tag_27:\n      mload(0x40)\n      dup1\n      swap2\n      sub\n      swap1\n      revert\n    tag_26:\n        /* \"Solidity100/Solidity51-60.sol\":5855:5865  msg.sender */\n      caller\n        /* \"Solidity100/Solidity51-60.sol\":5843:5865  subowner == msg.sender */\n      0xffffffffffffffffffffffffffffffffffffffff\n      and\n        /* \"Solidity100/Solidity51-60.sol\":5843:5851  subowner */\n      0x01\n      0x00\n      swap1\n      sload\n      swap1\n      0x0100\n      exp\n      swap1\n      div\n      0xffffffffffffffffffffffffffffffffffffffff\n      and\n        /* \"Solidity100/Solidity51-60.sol\":5843:5865  subowner == msg.sender */\n      0xffffffffffffffffffffffffffffffffffffffff\n      and\n      sub\n        /* \"Solidity100/Solidity51-60.sol\":5840:5916  if(subowner == msg.sender) require(approval[owner], \"need owner's approval\") */\n      tag_29\n      jumpi\n        /* \"Solidity100/Solidity51-60.sol\":5875:5883  approval */\n      0x02\n        /* \"Solidity100/Solidity51-60.sol\":5875:5890  approval[owner] */\n      0x00\n        /* \"Solidity100/Solidity51-60.sol\":5884:5889  owner */\n      dup1\n      0x00\n      swap1\n      sload\n      swap1\n      0x0100\n      exp\n      swap1\n      div\n      0xffffffffffffffffffffffffffffffffffffffff\n      and\n        /* \"Solidity100/Solidity51-60.sol\":5875:5890  approval[owner] */\n      0xffffffffffffffffffffffffffffffffffffffff\n      and\n      0xffffffffffffffffffffffffffffffffffffffff\n      and\n      dup2\n      mstore\n      0x20\n      add\n      swap1\n      dup2\n      mstore\n      0x20\n      add\n      0x00\n      keccak256\n      0x00\n      swap1\n      sload\n      swap1\n      0x0100\n      exp\n      swap1\n      div\n      0xff\n      and\n        /* \"Solidity100/Solidity51-60.sol\":5867:5916  require(approval[owner], \"need owner's approval\") */\n      tag_30\n      jumpi\n      mload(0x40)\n      0x08c379a000000000000000000000000000000000000000000000000000000000\n      dup2\n      mstore\n      0x04\n      add\n      tag_31\n      swap1\n      tag_32\n      jump\t// in\n    tag_31:\n      mload(0x40)\n      dup1\n      swap2\n      sub\n      swap1\n      revert\n    tag_30:\n        /* \"Solidity100/Solidity51-60.sol\":5840:5916  if(subowner == msg.sender) require(approval[owner], \"need owner's approval\") */\n    tag_29:\n        /* \"Solidity100/Solidity51-60.sol\":5934:5939  _addr */\n      dup1\n        /* \"Solidity100/Solidity51-60.sol\":5926:5931  owner */\n      0x00\n      dup1\n        /* \"Solidity100/Solidity51-60.sol\":5926:5939  owner = _addr */\n      0x0100\n      exp\n      dup2\n      sload\n      dup2\n      0xffffffffffffffffffffffffffffffffffffffff\n      mul\n      not\n      and\n      swap1\n      dup4\n      0xffffffffffffffffffffffffffffffffffffffff\n      and\n      mul\n      or\n      swap1\n      sstore\n      pop\n        /* \"Solidity100/Solidity51-60.sol\":5967:5972  false */\n      0x00\n        /* \"Solidity100/Solidity51-60.sol\":5949:5957  approval */\n      0x02\n        /* \"Solidity100/Solidity51-60.sol\":5949:5964  approval[owner] */\n      0x00\n        /* \"Solidity100/Solidity51-60.sol\":5958:5963  owner */\n      dup1\n      0x00\n      swap1\n      sload\n      swap1\n      0x0100\n      exp\n      swap1\n      div\n      0xffffffffffffffffffffffffffffffffffffffff\n      and\n        /* \"Solidity100/Solidity51-60.sol\":5949:5964  approval[owner] */\n      0xffffffffffffffffffffffffffffffffffffffff\n      and\n      0xffffffffffffffffffffffffffffffffffffffff\n      and\n      dup2\n      mstore\n      0x20\n      add\n      swap1\n      dup2\n      mstore\n      0x20\n      add\n      0x00\n      keccak256\n      0x00\n        /* \"Solidity100/Solidity51-60.sol\":5949:5972  approval[owner] = false */\n      0x0100\n      exp\n      dup2\n      sload\n      dup2\n      0xff\n      mul\n      not\n      and\n      swap1\n      dup4\n      iszero\n      iszero\n      mul\n      or\n      swap1\n      sstore\n      pop\n        /* \"Solidity100/Solidity51-60.sol\":5700:5979  function changeOwner(address _addr) public {... */\n      pop\n      jump\t// out\n        /* \"Solidity100/Solidity51-60.sol\":5405:5428  address public subowner */\n    tag_18:\n      0x01\n      0x00\n      swap1\n      sload\n      swap1\n      0x0100\n      exp\n      swap1\n      div\n      0xffffffffffffffffffffffffffffffffffffffff\n      and\n      dup2\n      jump\t// out\n        /* \"#utility.yul\":7:133   */\n    tag_33:\n        /* \"#utility.yul\":44:51   */\n      0x00\n        /* \"#utility.yul\":84:126   */\n      0xffffffffffffffffffffffffffffffffffffffff\n        /* \"#utility.yul\":77:82   */\n      dup3\n        /* \"#utility.yul\":73:127   */\n      and\n        /* \"#utility.yul\":62:127   */\n      swap1\n      pop\n        /* \"#utility.yul\":7:133   */\n      swap2\n      swap1\n      pop\n      jump\t// out\n        /* \"#utility.yul\":139:235   */\n    tag_34:\n        /* \"#utility.yul\":176:183   */\n      0x00\n        /* \"#utility.yul\":205:229   */\n      tag_51\n        /* \"#utility.yul\":223:228   */\n      dup3\n        /* \"#utility.yul\":205:229   */\n      tag_33\n      jump\t// in\n    tag_51:\n        /* \"#utility.yul\":194:229   */\n      swap1\n      pop\n        /* \"#utility.yul\":139:235   */\n      swap2\n      swap1\n      pop\n      jump\t// out\n        /* \"#utility.yul\":241:359   */\n    tag_35:\n        /* \"#utility.yul\":328:352   */\n      tag_53\n        /* \"#utility.yul\":346:351   */\n      dup2\n        /* \"#utility.yul\":328:352   */\n      tag_34\n      jump\t// in\n    tag_53:\n        /* \"#utility.yul\":323:326   */\n      dup3\n        /* \"#utility.yul\":316:353   */\n      mstore\n        /* \"#utility.yul\":241:359   */\n      pop\n      pop\n      jump\t// out\n        /* \"#utility.yul\":365:587   */\n    tag_12:\n        /* \"#utility.yul\":458:462   */\n      0x00\n        /* \"#utility.yul\":496:498   */\n      0x20\n        /* \"#utility.yul\":485:494   */\n      dup3\n        /* \"#utility.yul\":481:499   */\n      add\n        /* \"#utility.yul\":473:499   */\n      swap1\n      pop\n        /* \"#utility.yul\":509:580   */\n      tag_55\n        /* \"#utility.yul\":577:578   */\n      0x00\n        /* \"#utility.yul\":566:575   */\n      dup4\n        /* \"#utility.yul\":562:579   */\n      add\n        /* \"#utility.yul\":553:559   */\n      dup5\n        /* \"#utility.yul\":509:580   */\n      tag_35\n      jump\t// in\n    tag_55:\n        /* \"#utility.yul\":365:587   */\n      swap3\n      swap2\n      pop\n      pop\n      jump\t// out\n        /* \"#utility.yul\":674:791   */\n    tag_37:\n        /* \"#utility.yul\":783:784   */\n      0x00\n        /* \"#utility.yul\":780:781   */\n      dup1\n        /* \"#utility.yul\":773:785   */\n      revert\n        /* \"#utility.yul\":920:1042   */\n    tag_39:\n        /* \"#utility.yul\":993:1017   */\n      tag_60\n        /* \"#utility.yul\":1011:1016   */\n      dup2\n        /* \"#utility.yul\":993:1017   */\n      tag_34\n      jump\t// in\n    tag_60:\n        /* \"#utility.yul\":986:991   */\n      dup2\n        /* \"#utility.yul\":983:1018   */\n      eq\n        /* \"#utility.yul\":973:1036   */\n      tag_61\n      jumpi\n        /* \"#utility.yul\":1032:1033   */\n      0x00\n        /* \"#utility.yul\":1029:1030   */\n      dup1\n        /* \"#utility.yul\":1022:1034   */\n      revert\n        /* \"#utility.yul\":973:1036   */\n    tag_61:\n        /* \"#utility.yul\":920:1042   */\n      pop\n      jump\t// out\n        /* \"#utility.yul\":1048:1187   */\n    tag_40:\n        /* \"#utility.yul\":1094:1099   */\n      0x00\n        /* \"#utility.yul\":1132:1138   */\n      dup2\n        /* \"#utility.yul\":1119:1139   */\n      calldataload\n        /* \"#utility.yul\":1110:1139   */\n      swap1\n      pop\n        /* \"#utility.yul\":1148:1181   */\n      tag_63\n        /* \"#utility.yul\":1175:1180   */\n      dup2\n        /* \"#utility.yul\":1148:1181   */\n      tag_39\n      jump\t// in\n    tag_63:\n        /* \"#utility.yul\":1048:1187   */\n      swap3\n      swap2\n      pop\n      pop\n      jump\t// out\n        /* \"#utility.yul\":1193:1522   */\n    tag_15:\n        /* \"#utility.yul\":1252:1258   */\n      0x00\n        /* \"#utility.yul\":1301:1303   */\n      0x20\n        /* \"#utility.yul\":1289:1298   */\n      dup3\n        /* \"#utility.yul\":1280:1287   */\n      dup5\n        /* \"#utility.yul\":1276:1299   */\n      sub\n        /* \"#utility.yul\":1272:1304   */\n      slt\n        /* \"#utility.yul\":1269:1388   */\n      iszero\n      tag_65\n      jumpi\n        /* \"#utility.yul\":1307:1386   */\n      tag_66\n      tag_37\n      jump\t// in\n    tag_66:\n        /* \"#utility.yul\":1269:1388   */\n    tag_65:\n        /* \"#utility.yul\":1427:1428   */\n      0x00\n        /* \"#utility.yul\":1452:1505   */\n      tag_67\n        /* \"#utility.yul\":1497:1504   */\n      dup5\n        /* \"#utility.yul\":1488:1494   */\n      dup3\n        /* \"#utility.yul\":1477:1486   */\n      dup6\n        /* \"#utility.yul\":1473:1495   */\n      add\n        /* \"#utility.yul\":1452:1505   */\n      tag_40\n      jump\t// in\n    tag_67:\n        /* \"#utility.yul\":1442:1505   */\n      swap2\n      pop\n        /* \"#utility.yul\":1398:1515   */\n      pop\n        /* \"#utility.yul\":1193:1522   */\n      swap3\n      swap2\n      pop\n      pop\n      jump\t// out\n        /* \"#utility.yul\":1528:1697   */\n    tag_41:\n        /* \"#utility.yul\":1612:1623   */\n      0x00\n        /* \"#utility.yul\":1646:1652   */\n      dup3\n        /* \"#utility.yul\":1641:1644   */\n      dup3\n        /* \"#utility.yul\":1634:1653   */\n      mstore\n        /* \"#utility.yul\":1686:1690   */\n      0x20\n        /* \"#utility.yul\":1681:1684   */\n      dup3\n        /* \"#utility.yul\":1677:1691   */\n      add\n        /* \"#utility.yul\":1662:1691   */\n      swap1\n      pop\n        /* \"#utility.yul\":1528:1697   */\n      swap3\n      swap2\n      pop\n      pop\n      jump\t// out\n        /* \"#utility.yul\":1703:1863   */\n    tag_42:\n        /* \"#utility.yul\":1843:1855   */\n      0x6f6e6c79206f776e657200000000000000000000000000000000000000000000\n        /* \"#utility.yul\":1839:1840   */\n      0x00\n        /* \"#utility.yul\":1831:1837   */\n      dup3\n        /* \"#utility.yul\":1827:1841   */\n      add\n        /* \"#utility.yul\":1820:1856   */\n      mstore\n        /* \"#utility.yul\":1703:1863   */\n      pop\n      jump\t// out\n        /* \"#utility.yul\":1869:2235   */\n    tag_43:\n        /* \"#utility.yul\":2011:2014   */\n      0x00\n        /* \"#utility.yul\":2032:2099   */\n      tag_71\n        /* \"#utility.yul\":2096:2098   */\n      0x0a\n        /* \"#utility.yul\":2091:2094   */\n      dup4\n        /* \"#utility.yul\":2032:2099   */\n      tag_41\n      jump\t// in\n    tag_71:\n        /* \"#utility.yul\":2025:2099   */\n      swap2\n      pop\n        /* \"#utility.yul\":2108:2201   */\n      tag_72\n        /* \"#utility.yul\":2197:2200   */\n      dup3\n        /* \"#utility.yul\":2108:2201   */\n      tag_42\n      jump\t// in\n    tag_72:\n        /* \"#utility.yul\":2226:2228   */\n      0x20\n        /* \"#utility.yul\":2221:2224   */\n      dup3\n        /* \"#utility.yul\":2217:2229   */\n      add\n        /* \"#utility.yul\":2210:2229   */\n      swap1\n      pop\n        /* \"#utility.yul\":1869:2235   */\n      swap2\n      swap1\n      pop\n      jump\t// out\n        /* \"#utility.yul\":2241:2660   */\n    tag_23:\n        /* \"#utility.yul\":2407:2411   */\n      0x00\n        /* \"#utility.yul\":2445:2447   */\n      0x20\n        /* \"#utility.yul\":2434:2443   */\n      dup3\n        /* \"#utility.yul\":2430:2448   */\n      add\n        /* \"#utility.yul\":2422:2448   */\n      swap1\n      pop\n        /* \"#utility.yul\":2494:2503   */\n      dup2\n        /* \"#utility.yul\":2488:2492   */\n      dup2\n        /* \"#utility.yul\":2484:2504   */\n      sub\n        /* \"#utility.yul\":2480:2481   */\n      0x00\n        /* \"#utility.yul\":2469:2478   */\n      dup4\n        /* \"#utility.yul\":2465:2482   */\n      add\n        /* \"#utility.yul\":2458:2505   */\n      mstore\n        /* \"#utility.yul\":2522:2653   */\n      tag_74\n        /* \"#utility.yul\":2648:2652   */\n      dup2\n        /* \"#utility.yul\":2522:2653   */\n      tag_43\n      jump\t// in\n    tag_74:\n        /* \"#utility.yul\":2514:2653   */\n      swap1\n      pop\n        /* \"#utility.yul\":2241:2660   */\n      swap2\n      swap1\n      pop\n      jump\t// out\n        /* \"#utility.yul\":2666:2835   */\n    tag_44:\n        /* \"#utility.yul\":2806:2827   */\n      0x6f6e6c79206f776e65722f7375626f776e657200000000000000000000000000\n        /* \"#utility.yul\":2802:2803   */\n      0x00\n        /* \"#utility.yul\":2794:2800   */\n      dup3\n        /* \"#utility.yul\":2790:2804   */\n      add\n        /* \"#utility.yul\":2783:2828   */\n      mstore\n        /* \"#utility.yul\":2666:2835   */\n      pop\n      jump\t// out\n        /* \"#utility.yul\":2841:3207   */\n    tag_45:\n        /* \"#utility.yul\":2983:2986   */\n      0x00\n        /* \"#utility.yul\":3004:3071   */\n      tag_77\n        /* \"#utility.yul\":3068:3070   */\n      0x13\n        /* \"#utility.yul\":3063:3066   */\n      dup4\n        /* \"#utility.yul\":3004:3071   */\n      tag_41\n      jump\t// in\n    tag_77:\n        /* \"#utility.yul\":2997:3071   */\n      swap2\n      pop\n        /* \"#utility.yul\":3080:3173   */\n      tag_78\n        /* \"#utility.yul\":3169:3172   */\n      dup3\n        /* \"#utility.yul\":3080:3173   */\n      tag_44\n      jump\t// in\n    tag_78:\n        /* \"#utility.yul\":3198:3200   */\n      0x20\n        /* \"#utility.yul\":3193:3196   */\n      dup3\n        /* \"#utility.yul\":3189:3201   */\n      add\n        /* \"#utility.yul\":3182:3201   */\n      swap1\n      pop\n        /* \"#utility.yul\":2841:3207   */\n      swap2\n      swap1\n      pop\n      jump\t// out\n        /* \"#utility.yul\":3213:3632   */\n    tag_28:\n        /* \"#utility.yul\":3379:3383   */\n      0x00\n        /* \"#utility.yul\":3417:3419   */\n      0x20\n        /* \"#utility.yul\":3406:3415   */\n      dup3\n        /* \"#utility.yul\":3402:3420   */\n      add\n        /* \"#utility.yul\":3394:3420   */\n      swap1\n      pop\n        /* \"#utility.yul\":3466:3475   */\n      dup2\n        /* \"#utility.yul\":3460:3464   */\n      dup2\n        /* \"#utility.yul\":3456:3476   */\n      sub\n        /* \"#utility.yul\":3452:3453   */\n      0x00\n        /* \"#utility.yul\":3441:3450   */\n      dup4\n        /* \"#utility.yul\":3437:3454   */\n      add\n        /* \"#utility.yul\":3430:3477   */\n      mstore\n        /* \"#utility.yul\":3494:3625   */\n      tag_80\n        /* \"#utility.yul\":3620:3624   */\n      dup2\n        /* \"#utility.yul\":3494:3625   */\n      tag_45\n      jump\t// in\n    tag_80:\n        /* \"#utility.yul\":3486:3625   */\n      swap1\n      pop\n        /* \"#utility.yul\":3213:3632   */\n      swap2\n      swap1\n      pop\n      jump\t// out\n        /* \"#utility.yul\":3638:3809   */\n    tag_46:\n        /* \"#utility.yul\":3778:3801   */\n      0x6e656564206f776e6572277320617070726f76616c0000000000000000000000\n        /* \"#utility.yul\":3774:3775   */\n      0x00\n        /* \"#utility.yul\":3766:3772   */\n      dup3\n        /* \"#utility.yul\":3762:3776   */\n      add\n        /* \"#utility.yul\":3755:3802   */\n      mstore\n        /* \"#utility.yul\":3638:3809   */\n      pop\n      jump\t// out\n        /* \"#utility.yul\":3815:4181   */\n    tag_47:\n        /* \"#utility.yul\":3957:3960   */\n      0x00\n        /* \"#utility.yul\":3978:4045   */\n      tag_83\n        /* \"#utility.yul\":4042:4044   */\n      0x15\n        /* \"#utility.yul\":4037:4040   */\n      dup4\n        /* \"#utility.yul\":3978:4045   */\n      tag_41\n      jump\t// in\n    tag_83:\n        /* \"#utility.yul\":3971:4045   */\n      swap2\n      pop\n        /* \"#utility.yul\":4054:4147   */\n      tag_84\n        /* \"#utility.yul\":4143:4146   */\n      dup3\n        /* \"#utility.yul\":4054:4147   */\n      tag_46\n      jump\t// in\n    tag_84:\n        /* \"#utility.yul\":4172:4174   */\n      0x20\n        /* \"#utility.yul\":4167:4170   */\n      dup3\n        /* \"#utility.yul\":4163:4175   */\n      add\n        /* \"#utility.yul\":4156:4175   */\n      swap1\n      pop\n        /* \"#utility.yul\":3815:4181   */\n      swap2\n      swap1\n      pop\n      jump\t// out\n        /* \"#utility.yul\":4187:4606   */\n    tag_32:\n        /* \"#utility.yul\":4353:4357   */\n      0x00\n        /* \"#utility.yul\":4391:4393   */\n      0x20\n        /* \"#utility.yul\":4380:4389   */\n      dup3\n        /* \"#utility.yul\":4376:4394   */\n      add\n        /* \"#utility.yul\":4368:4394   */\n      swap1\n      pop\n        /* \"#utility.yul\":4440:4449   */\n      dup2\n        /* \"#utility.yul\":4434:4438   */\n      dup2\n        /* \"#utility.yul\":4430:4450   */\n      sub\n        /* \"#utility.yul\":4426:4427   */\n      0x00\n        /* \"#utility.yul\":4415:4424   */\n      dup4\n        /* \"#utility.yul\":4411:4428   */\n      add\n        /* \"#utility.yul\":4404:4451   */\n      mstore\n        /* \"#utility.yul\":4468:4599   */\n      tag_86\n        /* \"#utility.yul\":4594:4598   */\n      dup2\n        /* \"#utility.yul\":4468:4599   */\n      tag_47\n      jump\t// in\n    tag_86:\n        /* \"#utility.yul\":4460:4599   */\n      swap1\n      pop\n        /* \"#utility.yul\":4187:4606   */\n      swap2\n      swap1\n      pop\n      jump\t// out\n\n    auxdata: 0xa264697066735822122089c8b940ebd2c8fb3f36cccfba15b9db59d4e0f3aa7b9a190621c34145f1362664736f6c634300081a0033\n}\n",
				"bytecode": {
					"linkReferences": {},
					"object": "608060405234801561000f575f80fd5b506040516107ef3803806107ef83398181016040528101906100319190610114565b335f806101000a81548173ffffffffffffffffffffffffffffffffffffffff021916908373ffffffffffffffffffffffffffffffffffffffff1602179055508060015f6101000a81548173ffffffffffffffffffffffffffffffffffffffff021916908373ffffffffffffffffffffffffffffffffffffffff1602179055505061013f565b5f80fd5b5f73ffffffffffffffffffffffffffffffffffffffff82169050919050565b5f6100e3826100ba565b9050919050565b6100f3816100d9565b81146100fd575f80fd5b50565b5f8151905061010e816100ea565b92915050565b5f60208284031215610129576101286100b6565b5b5f61013684828501610100565b91505092915050565b6106a38061014c5f395ff3fe608060405234801561000f575f80fd5b506004361061004a575f3560e01c80633e8c060e1461004e5780638da5cb5b14610058578063a6f9dae114610076578063dfbd615014610092575b5f80fd5b6100566100b0565b005b610060610194565b60405161006d91906104b3565b60405180910390f35b610090600480360381019061008b91906104fa565b6101b7565b005b61009a61044f565b6040516100a791906104b3565b60405180910390f35b3373ffffffffffffffffffffffffffffffffffffffff165f8054906101000a900473ffffffffffffffffffffffffffffffffffffffff1673ffffffffffffffffffffffffffffffffffffffff161461013d576040517f08c379a00000000000000000000000000000000000000000000000000000000081526004016101349061057f565b60405180910390fd5b600160025f3373ffffffffffffffffffffffffffffffffffffffff1673ffffffffffffffffffffffffffffffffffffffff1681526020019081526020015f205f6101000a81548160ff021916908315150217905550565b5f8054906101000a900473ffffffffffffffffffffffffffffffffffffffff1681565b3373ffffffffffffffffffffffffffffffffffffffff165f8054906101000a900473ffffffffffffffffffffffffffffffffffffffff1673ffffffffffffffffffffffffffffffffffffffff16148061025c57503373ffffffffffffffffffffffffffffffffffffffff1660015f9054906101000a900473ffffffffffffffffffffffffffffffffffffffff1673ffffffffffffffffffffffffffffffffffffffff16145b61029b576040517f08c379a0000000000000000000000000000000000000000000000000000000008152600401610292906105e7565b60405180910390fd5b3373ffffffffffffffffffffffffffffffffffffffff1660015f9054906101000a900473ffffffffffffffffffffffffffffffffffffffff1673ffffffffffffffffffffffffffffffffffffffff16036103995760025f805f9054906101000a900473ffffffffffffffffffffffffffffffffffffffff1673ffffffffffffffffffffffffffffffffffffffff1673ffffffffffffffffffffffffffffffffffffffff1681526020019081526020015f205f9054906101000a900460ff16610398576040517f08c379a000000000000000000000000000000000000000000000000000000000815260040161038f9061064f565b60405180910390fd5b5b805f806101000a81548173ffffffffffffffffffffffffffffffffffffffff021916908373ffffffffffffffffffffffffffffffffffffffff1602179055505f60025f805f9054906101000a900473ffffffffffffffffffffffffffffffffffffffff1673ffffffffffffffffffffffffffffffffffffffff1673ffffffffffffffffffffffffffffffffffffffff1681526020019081526020015f205f6101000a81548160ff02191690831515021790555050565b60015f9054906101000a900473ffffffffffffffffffffffffffffffffffffffff1681565b5f73ffffffffffffffffffffffffffffffffffffffff82169050919050565b5f61049d82610474565b9050919050565b6104ad81610493565b82525050565b5f6020820190506104c65f8301846104a4565b92915050565b5f80fd5b6104d981610493565b81146104e3575f80fd5b50565b5f813590506104f4816104d0565b92915050565b5f6020828403121561050f5761050e6104cc565b5b5f61051c848285016104e6565b91505092915050565b5f82825260208201905092915050565b7f6f6e6c79206f776e6572000000000000000000000000000000000000000000005f82015250565b5f610569600a83610525565b915061057482610535565b602082019050919050565b5f6020820190508181035f8301526105968161055d565b9050919050565b7f6f6e6c79206f776e65722f7375626f776e6572000000000000000000000000005f82015250565b5f6105d1601383610525565b91506105dc8261059d565b602082019050919050565b5f6020820190508181035f8301526105fe816105c5565b9050919050565b7f6e656564206f776e6572277320617070726f76616c00000000000000000000005f82015250565b5f610639601583610525565b915061064482610605565b602082019050919050565b5f6020820190508181035f8301526106668161062d565b905091905056fea264697066735822122089c8b940ebd2c8fb3f36cccfba15b9db59d4e0f3aa7b9a190621c34145f1362664736f6c634300081a0033",
					"opcodes": "PUSH1 0x80 PUSH1 0x40 MSTORE CALLVALUE DUP1 ISZERO PUSH2 0xF JUMPI PUSH0 DUP1 REVERT JUMPDEST POP PUSH1 0x40 MLOAD PUSH2 0x7EF CODESIZE SUB DUP1 PUSH2 0x7EF DUP4 CODECOPY DUP2 DUP2 ADD PUSH1 0x40 MSTORE DUP2 ADD SWAP1 PUSH2 0x31 SWAP2 SWAP1 PUSH2 0x114 JUMP JUMPDEST CALLER PUSH0 DUP1 PUSH2 0x100 EXP DUP2 SLOAD DUP2 PUSH20 0xFFFFFFFFFFFFFFFFFFFFFFFFFFFFFFFFFFFFFFFF MUL NOT AND SWAP1 DUP4 PUSH20 0xFFFFFFFFFFFFFFFFFFFFFFFFFFFFFFFFFFFFFFFF AND MUL OR SWAP1 SSTORE POP DUP1 PUSH1 0x1 PUSH0 PUSH2 0x100 EXP DUP2 SLOAD DUP2 PUSH20 0xFFFFFFFFFFFFFFFFFFFFFFFFFFFFFFFFFFFFFFFF MUL NOT AND SWAP1 DUP4 PUSH20 0xFFFFFFFFFFFFFFFFFFFFFFFFFFFFFFFFFFFFFFFF AND MUL OR SWAP1 SSTORE POP POP PUSH2 0x13F JUMP JUMPDEST PUSH0 DUP1 REVERT JUMPDEST PUSH0 PUSH20 0xFFFFFFFFFFFFFFFFFFFFFFFFFFFFFFFFFFFFFFFF DUP3 AND SWAP1 POP SWAP2 SWAP1 POP JUMP JUMPDEST PUSH0 PUSH2 0xE3 DUP3 PUSH2 0xBA JUMP JUMPDEST SWAP1 POP SWAP2 SWAP1 POP JUMP JUMPDEST PUSH2 0xF3 DUP2 PUSH2 0xD9 JUMP JUMPDEST DUP2 EQ PUSH2 0xFD JUMPI PUSH0 DUP1 REVERT JUMPDEST POP JUMP JUMPDEST PUSH0 DUP2 MLOAD SWAP1 POP PUSH2 0x10E DUP2 PUSH2 0xEA JUMP JUMPDEST SWAP3 SWAP2 POP POP JUMP JUMPDEST PUSH0 PUSH1 0x20 DUP3 DUP5 SUB SLT ISZERO PUSH2 0x129 JUMPI PUSH2 0x128 PUSH2 0xB6 JUMP JUMPDEST JUMPDEST PUSH0 PUSH2 0x136 DUP5 DUP3 DUP6 ADD PUSH2 0x100 JUMP JUMPDEST SWAP2 POP POP SWAP3 SWAP2 POP POP JUMP JUMPDEST PUSH2 0x6A3 DUP1 PUSH2 0x14C PUSH0 CODECOPY PUSH0 RETURN INVALID PUSH1 0x80 PUSH1 0x40 MSTORE CALLVALUE DUP1 ISZERO PUSH2 0xF JUMPI PUSH0 DUP1 REVERT JUMPDEST POP PUSH1 0x4 CALLDATASIZE LT PUSH2 0x4A JUMPI PUSH0 CALLDATALOAD PUSH1 0xE0 SHR DUP1 PUSH4 0x3E8C060E EQ PUSH2 0x4E JUMPI DUP1 PUSH4 0x8DA5CB5B EQ PUSH2 0x58 JUMPI DUP1 PUSH4 0xA6F9DAE1 EQ PUSH2 0x76 JUMPI DUP1 PUSH4 0xDFBD6150 EQ PUSH2 0x92 JUMPI JUMPDEST PUSH0 DUP1 REVERT JUMPDEST PUSH2 0x56 PUSH2 0xB0 JUMP JUMPDEST STOP JUMPDEST PUSH2 0x60 PUSH2 0x194 JUMP JUMPDEST PUSH1 0x40 MLOAD PUSH2 0x6D SWAP2 SWAP1 PUSH2 0x4B3 JUMP JUMPDEST PUSH1 0x40 MLOAD DUP1 SWAP2 SUB SWAP1 RETURN JUMPDEST PUSH2 0x90 PUSH1 0x4 DUP1 CALLDATASIZE SUB DUP2 ADD SWAP1 PUSH2 0x8B SWAP2 SWAP1 PUSH2 0x4FA JUMP JUMPDEST PUSH2 0x1B7 JUMP JUMPDEST STOP JUMPDEST PUSH2 0x9A PUSH2 0x44F JUMP JUMPDEST PUSH1 0x40 MLOAD PUSH2 0xA7 SWAP2 SWAP1 PUSH2 0x4B3 JUMP JUMPDEST PUSH1 0x40 MLOAD DUP1 SWAP2 SUB SWAP1 RETURN JUMPDEST CALLER PUSH20 0xFFFFFFFFFFFFFFFFFFFFFFFFFFFFFFFFFFFFFFFF AND PUSH0 DUP1 SLOAD SWAP1 PUSH2 0x100 EXP SWAP1 DIV PUSH20 0xFFFFFFFFFFFFFFFFFFFFFFFFFFFFFFFFFFFFFFFF AND PUSH20 0xFFFFFFFFFFFFFFFFFFFFFFFFFFFFFFFFFFFFFFFF AND EQ PUSH2 0x13D JUMPI PUSH1 0x40 MLOAD PUSH32 0x8C379A000000000000000000000000000000000000000000000000000000000 DUP2 MSTORE PUSH1 0x4 ADD PUSH2 0x134 SWAP1 PUSH2 0x57F JUMP JUMPDEST PUSH1 0x40 MLOAD DUP1 SWAP2 SUB SWAP1 REVERT JUMPDEST PUSH1 0x1 PUSH1 0x2 PUSH0 CALLER PUSH20 0xFFFFFFFFFFFFFFFFFFFFFFFFFFFFFFFFFFFFFFFF AND PUSH20 0xFFFFFFFFFFFFFFFFFFFFFFFFFFFFFFFFFFFFFFFF AND DUP2 MSTORE PUSH1 0x20 ADD SWAP1 DUP2 MSTORE PUSH1 0x20 ADD PUSH0 KECCAK256 PUSH0 PUSH2 0x100 EXP DUP2 SLOAD DUP2 PUSH1 0xFF MUL NOT AND SWAP1 DUP4 ISZERO ISZERO MUL OR SWAP1 SSTORE POP JUMP JUMPDEST PUSH0 DUP1 SLOAD SWAP1 PUSH2 0x100 EXP SWAP1 DIV PUSH20 0xFFFFFFFFFFFFFFFFFFFFFFFFFFFFFFFFFFFFFFFF AND DUP2 JUMP JUMPDEST CALLER PUSH20 0xFFFFFFFFFFFFFFFFFFFFFFFFFFFFFFFFFFFFFFFF AND PUSH0 DUP1 SLOAD SWAP1 PUSH2 0x100 EXP SWAP1 DIV PUSH20 0xFFFFFFFFFFFFFFFFFFFFFFFFFFFFFFFFFFFFFFFF AND PUSH20 0xFFFFFFFFFFFFFFFFFFFFFFFFFFFFFFFFFFFFFFFF AND EQ DUP1 PUSH2 0x25C JUMPI POP CALLER PUSH20 0xFFFFFFFFFFFFFFFFFFFFFFFFFFFFFFFFFFFFFFFF AND PUSH1 0x1 PUSH0 SWAP1 SLOAD SWAP1 PUSH2 0x100 EXP SWAP1 DIV PUSH20 0xFFFFFFFFFFFFFFFFFFFFFFFFFFFFFFFFFFFFFFFF AND PUSH20 0xFFFFFFFFFFFFFFFFFFFFFFFFFFFFFFFFFFFFFFFF AND EQ JUMPDEST PUSH2 0x29B JUMPI PUSH1 0x40 MLOAD PUSH32 0x8C379A000000000000000000000000000000000000000000000000000000000 DUP2 MSTORE PUSH1 0x4 ADD PUSH2 0x292 SWAP1 PUSH2 0x5E7 JUMP JUMPDEST PUSH1 0x40 MLOAD DUP1 SWAP2 SUB SWAP1 REVERT JUMPDEST CALLER PUSH20 0xFFFFFFFFFFFFFFFFFFFFFFFFFFFFFFFFFFFFFFFF AND PUSH1 0x1 PUSH0 SWAP1 SLOAD SWAP1 PUSH2 0x100 EXP SWAP1 DIV PUSH20 0xFFFFFFFFFFFFFFFFFFFFFFFFFFFFFFFFFFFFFFFF AND PUSH20 0xFFFFFFFFFFFFFFFFFFFFFFFFFFFFFFFFFFFFFFFF AND SUB PUSH2 0x399 JUMPI PUSH1 0x2 PUSH0 DUP1 PUSH0 SWAP1 SLOAD SWAP1 PUSH2 0x100 EXP SWAP1 DIV PUSH20 0xFFFFFFFFFFFFFFFFFFFFFFFFFFFFFFFFFFFFFFFF AND PUSH20 0xFFFFFFFFFFFFFFFFFFFFFFFFFFFFFFFFFFFFFFFF AND PUSH20 0xFFFFFFFFFFFFFFFFFFFFFFFFFFFFFFFFFFFFFFFF AND DUP2 MSTORE PUSH1 0x20 ADD SWAP1 DUP2 MSTORE PUSH1 0x20 ADD PUSH0 KECCAK256 PUSH0 SWAP1 SLOAD SWAP1 PUSH2 0x100 EXP SWAP1 DIV PUSH1 0xFF AND PUSH2 0x398 JUMPI PUSH1 0x40 MLOAD PUSH32 0x8C379A000000000000000000000000000000000000000000000000000000000 DUP2 MSTORE PUSH1 0x4 ADD PUSH2 0x38F SWAP1 PUSH2 0x64F JUMP JUMPDEST PUSH1 0x40 MLOAD DUP1 SWAP2 SUB SWAP1 REVERT JUMPDEST JUMPDEST DUP1 PUSH0 DUP1 PUSH2 0x100 EXP DUP2 SLOAD DUP2 PUSH20 0xFFFFFFFFFFFFFFFFFFFFFFFFFFFFFFFFFFFFFFFF MUL NOT AND SWAP1 DUP4 PUSH20 0xFFFFFFFFFFFFFFFFFFFFFFFFFFFFFFFFFFFFFFFF AND MUL OR SWAP1 SSTORE POP PUSH0 PUSH1 0x2 PUSH0 DUP1 PUSH0 SWAP1 SLOAD SWAP1 PUSH2 0x100 EXP SWAP1 DIV PUSH20 0xFFFFFFFFFFFFFFFFFFFFFFFFFFFFFFFFFFFFFFFF AND PUSH20 0xFFFFFFFFFFFFFFFFFFFFFFFFFFFFFFFFFFFFFFFF AND PUSH20 0xFFFFFFFFFFFFFFFFFFFFFFFFFFFFFFFFFFFFFFFF AND DUP2 MSTORE PUSH1 0x20 ADD SWAP1 DUP2 MSTORE PUSH1 0x20 ADD PUSH0 KECCAK256 PUSH0 PUSH2 0x100 EXP DUP2 SLOAD DUP2 PUSH1 0xFF MUL NOT AND SWAP1 DUP4 ISZERO ISZERO MUL OR SWAP1 SSTORE POP POP JUMP JUMPDEST PUSH1 0x1 PUSH0 SWAP1 SLOAD SWAP1 PUSH2 0x100 EXP SWAP1 DIV PUSH20 0xFFFFFFFFFFFFFFFFFFFFFFFFFFFFFFFFFFFFFFFF AND DUP2 JUMP JUMPDEST PUSH0 PUSH20 0xFFFFFFFFFFFFFFFFFFFFFFFFFFFFFFFFFFFFFFFF DUP3 AND SWAP1 POP SWAP2 SWAP1 POP JUMP JUMPDEST PUSH0 PUSH2 0x49D DUP3 PUSH2 0x474 JUMP JUMPDEST SWAP1 POP SWAP2 SWAP1 POP JUMP JUMPDEST PUSH2 0x4AD DUP2 PUSH2 0x493 JUMP JUMPDEST DUP3 MSTORE POP POP JUMP JUMPDEST PUSH0 PUSH1 0x20 DUP3 ADD SWAP1 POP PUSH2 0x4C6 PUSH0 DUP4 ADD DUP5 PUSH2 0x4A4 JUMP JUMPDEST SWAP3 SWAP2 POP POP JUMP JUMPDEST PUSH0 DUP1 REVERT JUMPDEST PUSH2 0x4D9 DUP2 PUSH2 0x493 JUMP JUMPDEST DUP2 EQ PUSH2 0x4E3 JUMPI PUSH0 DUP1 REVERT JUMPDEST POP JUMP JUMPDEST PUSH0 DUP2 CALLDATALOAD SWAP1 POP PUSH2 0x4F4 DUP2 PUSH2 0x4D0 JUMP JUMPDEST SWAP3 SWAP2 POP POP JUMP JUMPDEST PUSH0 PUSH1 0x20 DUP3 DUP5 SUB SLT ISZERO PUSH2 0x50F JUMPI PUSH2 0x50E PUSH2 0x4CC JUMP JUMPDEST JUMPDEST PUSH0 PUSH2 0x51C DUP5 DUP3 DUP6 ADD PUSH2 0x4E6 JUMP JUMPDEST SWAP2 POP POP SWAP3 SWAP2 POP POP JUMP JUMPDEST PUSH0 DUP3 DUP3 MSTORE PUSH1 0x20 DUP3 ADD SWAP1 POP SWAP3 SWAP2 POP POP JUMP JUMPDEST PUSH32 0x6F6E6C79206F776E657200000000000000000000000000000000000000000000 PUSH0 DUP3 ADD MSTORE POP JUMP JUMPDEST PUSH0 PUSH2 0x569 PUSH1 0xA DUP4 PUSH2 0x525 JUMP JUMPDEST SWAP2 POP PUSH2 0x574 DUP3 PUSH2 0x535 JUMP JUMPDEST PUSH1 0x20 DUP3 ADD SWAP1 POP SWAP2 SWAP1 POP JUMP JUMPDEST PUSH0 PUSH1 0x20 DUP3 ADD SWAP1 POP DUP2 DUP2 SUB PUSH0 DUP4 ADD MSTORE PUSH2 0x596 DUP2 PUSH2 0x55D JUMP JUMPDEST SWAP1 POP SWAP2 SWAP1 POP JUMP JUMPDEST PUSH32 0x6F6E6C79206F776E65722F7375626F776E657200000000000000000000000000 PUSH0 DUP3 ADD MSTORE POP JUMP JUMPDEST PUSH0 PUSH2 0x5D1 PUSH1 0x13 DUP4 PUSH2 0x525 JUMP JUMPDEST SWAP2 POP PUSH2 0x5DC DUP3 PUSH2 0x59D JUMP JUMPDEST PUSH1 0x20 DUP3 ADD SWAP1 POP SWAP2 SWAP1 POP JUMP JUMPDEST PUSH0 PUSH1 0x20 DUP3 ADD SWAP1 POP DUP2 DUP2 SUB PUSH0 DUP4 ADD MSTORE PUSH2 0x5FE DUP2 PUSH2 0x5C5 JUMP JUMPDEST SWAP1 POP SWAP2 SWAP1 POP JUMP JUMPDEST PUSH32 0x6E656564206F776E6572277320617070726F76616C0000000000000000000000 PUSH0 DUP3 ADD MSTORE POP JUMP JUMPDEST PUSH0 PUSH2 0x639 PUSH1 0x15 DUP4 PUSH2 0x525 JUMP JUMPDEST SWAP2 POP PUSH2 0x644 DUP3 PUSH2 0x605 JUMP JUMPDEST PUSH1 0x20 DUP3 ADD SWAP1 POP SWAP2 SWAP1 POP JUMP JUMPDEST PUSH0 PUSH1 0x20 DUP3 ADD SWAP1 POP DUP2 DUP2 SUB PUSH0 DUP4 ADD MSTORE PUSH2 0x666 DUP2 PUSH2 0x62D JUMP JUMPDEST SWAP1 POP SWAP2 SWAP1 POP JUMP INVALID LOG2 PUSH5 0x6970667358 0x22 SLT KECCAK256 DUP10 0xC8 0xB9 BLOCKHASH 0xEB 0xD2 0xC8 0xFB EXTCODEHASH CALLDATASIZE 0xCC 0xCF 0xBA ISZERO 0xB9 0xDB MSIZE 0xD4 0xE0 RETURN 0xAA PUSH28 0x9A190621C34145F1362664736F6C634300081A003300000000000000 "
				},
				"gasEstimates": {
					"creation": {
						"codeDepositCost": "339800",
						"executionCost": "infinite",
						"totalCost": "infinite"
					},
					"external": {
						"changeOwner(address)": "62109",
						"getApproval()": "26640",
						"owner()": "2505",
						"subowner()": "2552"
					}
				},
				"methodIdentifiers": {
					"changeOwner(address)": "a6f9dae1",
					"getApproval()": "3e8c060e",
					"owner()": "8da5cb5b",
					"subowner()": "dfbd6150"
				}
			},
			"storageLayout": {
				"storage": [
					{
						"astId": 568,
						"contract": "Solidity100/Solidity51-60.sol:Question57",
						"label": "owner",
						"offset": 0,
						"slot": "0",
						"type": "t_address"
					},
					{
						"astId": 570,
						"contract": "Solidity100/Solidity51-60.sol:Question57",
						"label": "subowner",
						"offset": 0,
						"slot": "1",
						"type": "t_address"
					},
					{
						"astId": 574,
						"contract": "Solidity100/Solidity51-60.sol:Question57",
						"label": "approval",
						"offset": 0,
						"slot": "2",
						"type": "t_mapping(t_address,t_bool)"
					}
				],
				"types": {
					"t_address": {
						"encoding": "inplace",
						"label": "address",
						"numberOfBytes": "20"
					},
					"t_bool": {
						"encoding": "inplace",
						"label": "bool",
						"numberOfBytes": "1"
					},
					"t_mapping(t_address,t_bool)": {
						"encoding": "mapping",
						"key": "t_address",
						"label": "mapping(address => bool)",
						"numberOfBytes": "32",
						"value": "t_bool"
					}
				}
			},
			"userdoc": {
				"kind": "user",
				"methods": {},
				"version": 1
			}
		}
	}
}