{
	"Solidity100/Solidity61-70.sol": {
		"Question68": {
			"abi": [
				{
					"inputs": [
						{
							"internalType": "uint256",
							"name": "_number",
							"type": "uint256"
						}
					],
					"name": "factorial",
					"outputs": [
						{
							"internalType": "uint256",
							"name": "",
							"type": "uint256"
						}
					],
					"stateMutability": "pure",
					"type": "function"
				}
			],
			"devdoc": {
				"kind": "dev",
				"methods": {},
				"version": 1
			},
			"evm": {
				"assembly": "    /* \"Solidity100/Solidity61-70.sol\":3804:4283  contract Question68 {... */\n  mstore(0x40, 0x80)\n  callvalue\n  dup1\n  iszero\n  tag_1\n  jumpi\n  0x00\n  dup1\n  revert\ntag_1:\n  pop\n  dataSize(sub_0)\n  dup1\n  dataOffset(sub_0)\n  0x00\n  codecopy\n  0x00\n  return\nstop\n\nsub_0: assembly {\n        /* \"Solidity100/Solidity61-70.sol\":3804:4283  contract Question68 {... */\n      mstore(0x40, 0x80)\n      callvalue\n      dup1\n      iszero\n      tag_1\n      jumpi\n      0x00\n      dup1\n      revert\n    tag_1:\n      pop\n      jumpi(tag_2, lt(calldatasize, 0x04))\n      shr(0xe0, calldataload(0x00))\n      dup1\n      0x83714834\n      eq\n      tag_3\n      jumpi\n    tag_2:\n      0x00\n      dup1\n      revert\n        /* \"Solidity100/Solidity61-70.sol\":4093:4280  function factorial(uint _number) public pure returns(uint){... */\n    tag_3:\n      tag_4\n      0x04\n      dup1\n      calldatasize\n      sub\n      dup2\n      add\n      swap1\n      tag_5\n      swap2\n      swap1\n      tag_6\n      jump\t// in\n    tag_5:\n      tag_7\n      jump\t// in\n    tag_4:\n      mload(0x40)\n      tag_8\n      swap2\n      swap1\n      tag_9\n      jump\t// in\n    tag_8:\n      mload(0x40)\n      dup1\n      swap2\n      sub\n      swap1\n      return\n    tag_7:\n        /* \"Solidity100/Solidity61-70.sol\":4146:4150  uint */\n      0x00\n        /* \"Solidity100/Solidity61-70.sol\":4161:4172  uint result */\n      dup1\n        /* \"Solidity100/Solidity61-70.sol\":4175:4176  1 */\n      0x01\n        /* \"Solidity100/Solidity61-70.sol\":4161:4176  uint result = 1 */\n      swap1\n      pop\n        /* \"Solidity100/Solidity61-70.sol\":4190:4196  uint i */\n      0x00\n        /* \"Solidity100/Solidity61-70.sol\":4197:4198  2 */\n      0x02\n        /* \"Solidity100/Solidity61-70.sol\":4190:4198  uint i=2 */\n      swap1\n      pop\n        /* \"Solidity100/Solidity61-70.sol\":4186:4251  for(uint i=2;i<=_number;i++) {... */\n    tag_11:\n        /* \"Solidity100/Solidity61-70.sol\":4202:4209  _number */\n      dup4\n        /* \"Solidity100/Solidity61-70.sol\":4199:4200  i */\n      dup2\n        /* \"Solidity100/Solidity61-70.sol\":4199:4209  i<=_number */\n      gt\n        /* \"Solidity100/Solidity61-70.sol\":4186:4251  for(uint i=2;i<=_number;i++) {... */\n      tag_12\n      jumpi\n        /* \"Solidity100/Solidity61-70.sol\":4239:4240  i */\n      dup1\n        /* \"Solidity100/Solidity61-70.sol\":4229:4240  result *= i */\n      dup3\n      tag_14\n      swap2\n      swap1\n      tag_15\n      jump\t// in\n    tag_14:\n      swap2\n      pop\n        /* \"Solidity100/Solidity61-70.sol\":4210:4213  i++ */\n      dup1\n      dup1\n      tag_16\n      swap1\n      tag_17\n      jump\t// in\n    tag_16:\n      swap2\n      pop\n      pop\n        /* \"Solidity100/Solidity61-70.sol\":4186:4251  for(uint i=2;i<=_number;i++) {... */\n      jump(tag_11)\n    tag_12:\n      pop\n        /* \"Solidity100/Solidity61-70.sol\":4267:4273  result */\n      dup1\n        /* \"Solidity100/Solidity61-70.sol\":4260:4273  return result */\n      swap2\n      pop\n      pop\n        /* \"Solidity100/Solidity61-70.sol\":4093:4280  function factorial(uint _number) public pure returns(uint){... */\n      swap2\n      swap1\n      pop\n      jump\t// out\n        /* \"#utility.yul\":88:205   */\n    tag_19:\n        /* \"#utility.yul\":197:198   */\n      0x00\n        /* \"#utility.yul\":194:195   */\n      dup1\n        /* \"#utility.yul\":187:199   */\n      revert\n        /* \"#utility.yul\":334:411   */\n    tag_21:\n        /* \"#utility.yul\":371:378   */\n      0x00\n        /* \"#utility.yul\":400:405   */\n      dup2\n        /* \"#utility.yul\":389:405   */\n      swap1\n      pop\n        /* \"#utility.yul\":334:411   */\n      swap2\n      swap1\n      pop\n      jump\t// out\n        /* \"#utility.yul\":417:539   */\n    tag_22:\n        /* \"#utility.yul\":490:514   */\n      tag_32\n        /* \"#utility.yul\":508:513   */\n      dup2\n        /* \"#utility.yul\":490:514   */\n      tag_21\n      jump\t// in\n    tag_32:\n        /* \"#utility.yul\":483:488   */\n      dup2\n        /* \"#utility.yul\":480:515   */\n      eq\n        /* \"#utility.yul\":470:533   */\n      tag_33\n      jumpi\n        /* \"#utility.yul\":529:530   */\n      0x00\n        /* \"#utility.yul\":526:527   */\n      dup1\n        /* \"#utility.yul\":519:531   */\n      revert\n        /* \"#utility.yul\":470:533   */\n    tag_33:\n        /* \"#utility.yul\":417:539   */\n      pop\n      jump\t// out\n        /* \"#utility.yul\":545:684   */\n    tag_23:\n        /* \"#utility.yul\":591:596   */\n      0x00\n        /* \"#utility.yul\":629:635   */\n      dup2\n        /* \"#utility.yul\":616:636   */\n      calldataload\n        /* \"#utility.yul\":607:636   */\n      swap1\n      pop\n        /* \"#utility.yul\":645:678   */\n      tag_35\n        /* \"#utility.yul\":672:677   */\n      dup2\n        /* \"#utility.yul\":645:678   */\n      tag_22\n      jump\t// in\n    tag_35:\n        /* \"#utility.yul\":545:684   */\n      swap3\n      swap2\n      pop\n      pop\n      jump\t// out\n        /* \"#utility.yul\":690:1019   */\n    tag_6:\n        /* \"#utility.yul\":749:755   */\n      0x00\n        /* \"#utility.yul\":798:800   */\n      0x20\n        /* \"#utility.yul\":786:795   */\n      dup3\n        /* \"#utility.yul\":777:784   */\n      dup5\n        /* \"#utility.yul\":773:796   */\n      sub\n        /* \"#utility.yul\":769:801   */\n      slt\n        /* \"#utility.yul\":766:885   */\n      iszero\n      tag_37\n      jumpi\n        /* \"#utility.yul\":804:883   */\n      tag_38\n      tag_19\n      jump\t// in\n    tag_38:\n        /* \"#utility.yul\":766:885   */\n    tag_37:\n        /* \"#utility.yul\":924:925   */\n      0x00\n        /* \"#utility.yul\":949:1002   */\n      tag_39\n        /* \"#utility.yul\":994:1001   */\n      dup5\n        /* \"#utility.yul\":985:991   */\n      dup3\n        /* \"#utility.yul\":974:983   */\n      dup6\n        /* \"#utility.yul\":970:992   */\n      add\n        /* \"#utility.yul\":949:1002   */\n      tag_23\n      jump\t// in\n    tag_39:\n        /* \"#utility.yul\":939:1002   */\n      swap2\n      pop\n        /* \"#utility.yul\":895:1012   */\n      pop\n        /* \"#utility.yul\":690:1019   */\n      swap3\n      swap2\n      pop\n      pop\n      jump\t// out\n        /* \"#utility.yul\":1025:1143   */\n    tag_24:\n        /* \"#utility.yul\":1112:1136   */\n      tag_41\n        /* \"#utility.yul\":1130:1135   */\n      dup2\n        /* \"#utility.yul\":1112:1136   */\n      tag_21\n      jump\t// in\n    tag_41:\n        /* \"#utility.yul\":1107:1110   */\n      dup3\n        /* \"#utility.yul\":1100:1137   */\n      mstore\n        /* \"#utility.yul\":1025:1143   */\n      pop\n      pop\n      jump\t// out\n        /* \"#utility.yul\":1149:1371   */\n    tag_9:\n        /* \"#utility.yul\":1242:1246   */\n      0x00\n        /* \"#utility.yul\":1280:1282   */\n      0x20\n        /* \"#utility.yul\":1269:1278   */\n      dup3\n        /* \"#utility.yul\":1265:1283   */\n      add\n        /* \"#utility.yul\":1257:1283   */\n      swap1\n      pop\n        /* \"#utility.yul\":1293:1364   */\n      tag_43\n        /* \"#utility.yul\":1361:1362   */\n      0x00\n        /* \"#utility.yul\":1350:1359   */\n      dup4\n        /* \"#utility.yul\":1346:1363   */\n      add\n        /* \"#utility.yul\":1337:1343   */\n      dup5\n        /* \"#utility.yul\":1293:1364   */\n      tag_24\n      jump\t// in\n    tag_43:\n        /* \"#utility.yul\":1149:1371   */\n      swap3\n      swap2\n      pop\n      pop\n      jump\t// out\n        /* \"#utility.yul\":1377:1557   */\n    tag_25:\n        /* \"#utility.yul\":1425:1502   */\n      0x4e487b7100000000000000000000000000000000000000000000000000000000\n        /* \"#utility.yul\":1422:1423   */\n      0x00\n        /* \"#utility.yul\":1415:1503   */\n      mstore\n        /* \"#utility.yul\":1522:1526   */\n      0x11\n        /* \"#utility.yul\":1519:1520   */\n      0x04\n        /* \"#utility.yul\":1512:1527   */\n      mstore\n        /* \"#utility.yul\":1546:1550   */\n      0x24\n        /* \"#utility.yul\":1543:1544   */\n      0x00\n        /* \"#utility.yul\":1536:1551   */\n      revert\n        /* \"#utility.yul\":1563:1973   */\n    tag_15:\n        /* \"#utility.yul\":1603:1610   */\n      0x00\n        /* \"#utility.yul\":1626:1646   */\n      tag_46\n        /* \"#utility.yul\":1644:1645   */\n      dup3\n        /* \"#utility.yul\":1626:1646   */\n      tag_21\n      jump\t// in\n    tag_46:\n        /* \"#utility.yul\":1621:1646   */\n      swap2\n      pop\n        /* \"#utility.yul\":1660:1680   */\n      tag_47\n        /* \"#utility.yul\":1678:1679   */\n      dup4\n        /* \"#utility.yul\":1660:1680   */\n      tag_21\n      jump\t// in\n    tag_47:\n        /* \"#utility.yul\":1655:1680   */\n      swap3\n      pop\n        /* \"#utility.yul\":1715:1716   */\n      dup3\n        /* \"#utility.yul\":1712:1713   */\n      dup3\n        /* \"#utility.yul\":1708:1717   */\n      mul\n        /* \"#utility.yul\":1737:1767   */\n      tag_48\n        /* \"#utility.yul\":1755:1766   */\n      dup2\n        /* \"#utility.yul\":1737:1767   */\n      tag_21\n      jump\t// in\n    tag_48:\n        /* \"#utility.yul\":1726:1767   */\n      swap2\n      pop\n        /* \"#utility.yul\":1916:1917   */\n      dup3\n        /* \"#utility.yul\":1907:1914   */\n      dup3\n        /* \"#utility.yul\":1903:1918   */\n      div\n        /* \"#utility.yul\":1900:1901   */\n      dup5\n        /* \"#utility.yul\":1897:1919   */\n      eq\n        /* \"#utility.yul\":1877:1878   */\n      dup4\n        /* \"#utility.yul\":1870:1879   */\n      iszero\n        /* \"#utility.yul\":1850:1933   */\n      or\n        /* \"#utility.yul\":1827:1966   */\n      tag_49\n      jumpi\n        /* \"#utility.yul\":1946:1964   */\n      tag_50\n      tag_25\n      jump\t// in\n    tag_50:\n        /* \"#utility.yul\":1827:1966   */\n    tag_49:\n        /* \"#utility.yul\":1611:1973   */\n      pop\n        /* \"#utility.yul\":1563:1973   */\n      swap3\n      swap2\n      pop\n      pop\n      jump\t// out\n        /* \"#utility.yul\":1979:2212   */\n    tag_17:\n        /* \"#utility.yul\":2018:2021   */\n      0x00\n        /* \"#utility.yul\":2041:2065   */\n      tag_52\n        /* \"#utility.yul\":2059:2064   */\n      dup3\n        /* \"#utility.yul\":2041:2065   */\n      tag_21\n      jump\t// in\n    tag_52:\n        /* \"#utility.yul\":2032:2065   */\n      swap2\n      pop\n        /* \"#utility.yul\":2087:2153   */\n      0xffffffffffffffffffffffffffffffffffffffffffffffffffffffffffffffff\n        /* \"#utility.yul\":2080:2085   */\n      dup3\n        /* \"#utility.yul\":2077:2154   */\n      sub\n        /* \"#utility.yul\":2074:2177   */\n      tag_53\n      jumpi\n        /* \"#utility.yul\":2157:2175   */\n      tag_54\n      tag_25\n      jump\t// in\n    tag_54:\n        /* \"#utility.yul\":2074:2177   */\n    tag_53:\n        /* \"#utility.yul\":2204:2205   */\n      0x01\n        /* \"#utility.yul\":2197:2202   */\n      dup3\n        /* \"#utility.yul\":2193:2206   */\n      add\n        /* \"#utility.yul\":2186:2206   */\n      swap1\n      pop\n        /* \"#utility.yul\":1979:2212   */\n      swap2\n      swap1\n      pop\n      jump\t// out\n\n    auxdata: 0xa2646970667358221220adcf0f3101cd0fb1ad6dac39146c56063309d50e4c7c3d2b0f684e13ad8946c664736f6c634300081a0033\n}\n",
				"bytecode": {
					"linkReferences": {},
					"object": "6080604052348015600e575f80fd5b506102108061001c5f395ff3fe608060405234801561000f575f80fd5b5060043610610029575f3560e01c8063837148341461002d575b5f80fd5b610047600480360381019061004291906100d2565b61005d565b604051610054919061010c565b60405180910390f35b5f80600190505f600290505b83811161009157808261007c9190610152565b9150808061008990610193565b915050610069565b5080915050919050565b5f80fd5b5f819050919050565b6100b18161009f565b81146100bb575f80fd5b50565b5f813590506100cc816100a8565b92915050565b5f602082840312156100e7576100e661009b565b5b5f6100f4848285016100be565b91505092915050565b6101068161009f565b82525050565b5f60208201905061011f5f8301846100fd565b92915050565b7f4e487b71000000000000000000000000000000000000000000000000000000005f52601160045260245ffd5b5f61015c8261009f565b91506101678361009f565b92508282026101758161009f565b9150828204841483151761018c5761018b610125565b5b5092915050565b5f61019d8261009f565b91507fffffffffffffffffffffffffffffffffffffffffffffffffffffffffffffffff82036101cf576101ce610125565b5b60018201905091905056fea2646970667358221220adcf0f3101cd0fb1ad6dac39146c56063309d50e4c7c3d2b0f684e13ad8946c664736f6c634300081a0033",
					"opcodes": "PUSH1 0x80 PUSH1 0x40 MSTORE CALLVALUE DUP1 ISZERO PUSH1 0xE JUMPI PUSH0 DUP1 REVERT JUMPDEST POP PUSH2 0x210 DUP1 PUSH2 0x1C PUSH0 CODECOPY PUSH0 RETURN INVALID PUSH1 0x80 PUSH1 0x40 MSTORE CALLVALUE DUP1 ISZERO PUSH2 0xF JUMPI PUSH0 DUP1 REVERT JUMPDEST POP PUSH1 0x4 CALLDATASIZE LT PUSH2 0x29 JUMPI PUSH0 CALLDATALOAD PUSH1 0xE0 SHR DUP1 PUSH4 0x83714834 EQ PUSH2 0x2D JUMPI JUMPDEST PUSH0 DUP1 REVERT JUMPDEST PUSH2 0x47 PUSH1 0x4 DUP1 CALLDATASIZE SUB DUP2 ADD SWAP1 PUSH2 0x42 SWAP2 SWAP1 PUSH2 0xD2 JUMP JUMPDEST PUSH2 0x5D JUMP JUMPDEST PUSH1 0x40 MLOAD PUSH2 0x54 SWAP2 SWAP1 PUSH2 0x10C JUMP JUMPDEST PUSH1 0x40 MLOAD DUP1 SWAP2 SUB SWAP1 RETURN JUMPDEST PUSH0 DUP1 PUSH1 0x1 SWAP1 POP PUSH0 PUSH1 0x2 SWAP1 POP JUMPDEST DUP4 DUP2 GT PUSH2 0x91 JUMPI DUP1 DUP3 PUSH2 0x7C SWAP2 SWAP1 PUSH2 0x152 JUMP JUMPDEST SWAP2 POP DUP1 DUP1 PUSH2 0x89 SWAP1 PUSH2 0x193 JUMP JUMPDEST SWAP2 POP POP PUSH2 0x69 JUMP JUMPDEST POP DUP1 SWAP2 POP POP SWAP2 SWAP1 POP JUMP JUMPDEST PUSH0 DUP1 REVERT JUMPDEST PUSH0 DUP2 SWAP1 POP SWAP2 SWAP1 POP JUMP JUMPDEST PUSH2 0xB1 DUP2 PUSH2 0x9F JUMP JUMPDEST DUP2 EQ PUSH2 0xBB JUMPI PUSH0 DUP1 REVERT JUMPDEST POP JUMP JUMPDEST PUSH0 DUP2 CALLDATALOAD SWAP1 POP PUSH2 0xCC DUP2 PUSH2 0xA8 JUMP JUMPDEST SWAP3 SWAP2 POP POP JUMP JUMPDEST PUSH0 PUSH1 0x20 DUP3 DUP5 SUB SLT ISZERO PUSH2 0xE7 JUMPI PUSH2 0xE6 PUSH2 0x9B JUMP JUMPDEST JUMPDEST PUSH0 PUSH2 0xF4 DUP5 DUP3 DUP6 ADD PUSH2 0xBE JUMP JUMPDEST SWAP2 POP POP SWAP3 SWAP2 POP POP JUMP JUMPDEST PUSH2 0x106 DUP2 PUSH2 0x9F JUMP JUMPDEST DUP3 MSTORE POP POP JUMP JUMPDEST PUSH0 PUSH1 0x20 DUP3 ADD SWAP1 POP PUSH2 0x11F PUSH0 DUP4 ADD DUP5 PUSH2 0xFD JUMP JUMPDEST SWAP3 SWAP2 POP POP JUMP JUMPDEST PUSH32 0x4E487B7100000000000000000000000000000000000000000000000000000000 PUSH0 MSTORE PUSH1 0x11 PUSH1 0x4 MSTORE PUSH1 0x24 PUSH0 REVERT JUMPDEST PUSH0 PUSH2 0x15C DUP3 PUSH2 0x9F JUMP JUMPDEST SWAP2 POP PUSH2 0x167 DUP4 PUSH2 0x9F JUMP JUMPDEST SWAP3 POP DUP3 DUP3 MUL PUSH2 0x175 DUP2 PUSH2 0x9F JUMP JUMPDEST SWAP2 POP DUP3 DUP3 DIV DUP5 EQ DUP4 ISZERO OR PUSH2 0x18C JUMPI PUSH2 0x18B PUSH2 0x125 JUMP JUMPDEST JUMPDEST POP SWAP3 SWAP2 POP POP JUMP JUMPDEST PUSH0 PUSH2 0x19D DUP3 PUSH2 0x9F JUMP JUMPDEST SWAP2 POP PUSH32 0xFFFFFFFFFFFFFFFFFFFFFFFFFFFFFFFFFFFFFFFFFFFFFFFFFFFFFFFFFFFFFFFF DUP3 SUB PUSH2 0x1CF JUMPI PUSH2 0x1CE PUSH2 0x125 JUMP JUMPDEST JUMPDEST PUSH1 0x1 DUP3 ADD SWAP1 POP SWAP2 SWAP1 POP JUMP INVALID LOG2 PUSH5 0x6970667358 0x22 SLT KECCAK256 0xAD 0xCF 0xF BALANCE ADD 0xCD 0xF 0xB1 0xAD PUSH14 0xAC39146C56063309D50E4C7C3D2B 0xF PUSH9 0x4E13AD8946C664736F PUSH13 0x634300081A0033000000000000 "
				},
				"gasEstimates": {
					"creation": {
						"codeDepositCost": "105600",
						"executionCost": "151",
						"totalCost": "105751"
					},
					"external": {
						"factorial(uint256)": "infinite"
					}
				},
				"methodIdentifiers": {
					"factorial(uint256)": "83714834"
				}
			},
			"storageLayout": {
				"storage": [],
				"types": null
			},
			"userdoc": {
				"kind": "user",
				"methods": {},
				"version": 1
			}
		}
	}
}