{
	"Solidity100/Solidity61-70.sol": {
		"Question64": {
			"abi": [
				{
					"inputs": [
						{
							"internalType": "address",
							"name": "_addr",
							"type": "address"
						}
					],
					"name": "fourBytesAddress",
					"outputs": [
						{
							"internalType": "bytes4[5]",
							"name": "",
							"type": "bytes4[5]"
						}
					],
					"stateMutability": "pure",
					"type": "function"
				}
			],
			"devdoc": {
				"kind": "dev",
				"methods": {},
				"version": 1
			},
			"evm": {
				"assembly": "    /* \"Solidity100/Solidity61-70.sol\":1184:1702  contract Question64 {... */\n  mstore(0x40, 0x80)\n  callvalue\n  dup1\n  iszero\n  tag_1\n  jumpi\n  0x00\n  dup1\n  revert\ntag_1:\n  pop\n  dataSize(sub_0)\n  dup1\n  dataOffset(sub_0)\n  0x00\n  codecopy\n  0x00\n  return\nstop\n\nsub_0: assembly {\n        /* \"Solidity100/Solidity61-70.sol\":1184:1702  contract Question64 {... */\n      mstore(0x40, 0x80)\n      callvalue\n      dup1\n      iszero\n      tag_1\n      jumpi\n      0x00\n      dup1\n      revert\n    tag_1:\n      pop\n      jumpi(tag_2, lt(calldatasize, 0x04))\n      shr(0xe0, calldataload(0x00))\n      dup1\n      0xe15a11fe\n      eq\n      tag_3\n      jumpi\n    tag_2:\n      0x00\n      dup1\n      revert\n        /* \"Solidity100/Solidity61-70.sol\":1330:1694  function fourBytesAddress(address _addr) public pure returns(bytes4[5] memory) {... */\n    tag_3:\n      tag_4\n      0x04\n      dup1\n      calldatasize\n      sub\n      dup2\n      add\n      swap1\n      tag_5\n      swap2\n      swap1\n      tag_6\n      jump\t// in\n    tag_5:\n      tag_7\n      jump\t// in\n    tag_4:\n      mload(0x40)\n      tag_8\n      swap2\n      swap1\n      tag_9\n      jump\t// in\n    tag_8:\n      mload(0x40)\n      dup1\n      swap2\n      sub\n      swap1\n      return\n    tag_7:\n        /* \"Solidity100/Solidity61-70.sol\":1391:1407  bytes4[5] memory */\n      tag_10\n      tag_11\n      jump\t// in\n    tag_10:\n        /* \"Solidity100/Solidity61-70.sol\":1419:1431  bytes20 addr */\n      0x00\n        /* \"Solidity100/Solidity61-70.sol\":1442:1447  _addr */\n      dup3\n        /* \"Solidity100/Solidity61-70.sol\":1434:1448  bytes20(_addr) */\n      0x60\n      shl\n        /* \"Solidity100/Solidity61-70.sol\":1419:1448  bytes20 addr = bytes20(_addr) */\n      swap1\n      pop\n        /* \"Solidity100/Solidity61-70.sol\":1458:1481  bytes4[5] memory result */\n      tag_13\n      tag_11\n      jump\t// in\n    tag_13:\n        /* \"Solidity100/Solidity61-70.sol\":1496:1502  uint i */\n      0x00\n        /* \"Solidity100/Solidity61-70.sol\":1492:1656  for(uint i=0;i<addr.length;i+=4){... */\n    tag_14:\n        /* \"Solidity100/Solidity61-70.sol\":1507:1518  addr.length */\n      0x14\n        /* \"Solidity100/Solidity61-70.sol\":1505:1518  i<addr.length */\n      0xff\n      and\n        /* \"Solidity100/Solidity61-70.sol\":1505:1506  i */\n      dup2\n        /* \"Solidity100/Solidity61-70.sol\":1505:1518  i<addr.length */\n      lt\n        /* \"Solidity100/Solidity61-70.sol\":1492:1656  for(uint i=0;i<addr.length;i+=4){... */\n      iszero\n      tag_15\n      jumpi\n        /* \"Solidity100/Solidity61-70.sol\":1538:1548  bytes4 tmp */\n      0x00\n        /* \"Solidity100/Solidity61-70.sol\":1575:1579  addr */\n      dup4\n        /* \"Solidity100/Solidity61-70.sol\":1580:1581  i */\n      dup3\n        /* \"Solidity100/Solidity61-70.sol\":1575:1582  addr[i] */\n      0x14\n      dup2\n      lt\n      tag_17\n      jumpi\n      tag_18\n      tag_19\n      jump\t// in\n    tag_18:\n    tag_17:\n      byte\n      0xf8\n      shl\n        /* \"Solidity100/Solidity61-70.sol\":1583:1587  addr */\n      dup5\n        /* \"Solidity100/Solidity61-70.sol\":1590:1591  1 */\n      0x01\n        /* \"Solidity100/Solidity61-70.sol\":1588:1589  i */\n      dup5\n        /* \"Solidity100/Solidity61-70.sol\":1588:1591  i+1 */\n      tag_20\n      swap2\n      swap1\n      tag_21\n      jump\t// in\n    tag_20:\n        /* \"Solidity100/Solidity61-70.sol\":1583:1592  addr[i+1] */\n      0x14\n      dup2\n      lt\n      tag_22\n      jumpi\n      tag_23\n      tag_19\n      jump\t// in\n    tag_23:\n    tag_22:\n      byte\n      0xf8\n      shl\n        /* \"Solidity100/Solidity61-70.sol\":1593:1597  addr */\n      dup6\n        /* \"Solidity100/Solidity61-70.sol\":1600:1601  2 */\n      0x02\n        /* \"Solidity100/Solidity61-70.sol\":1598:1599  i */\n      dup6\n        /* \"Solidity100/Solidity61-70.sol\":1598:1601  i+2 */\n      tag_24\n      swap2\n      swap1\n      tag_21\n      jump\t// in\n    tag_24:\n        /* \"Solidity100/Solidity61-70.sol\":1593:1602  addr[i+2] */\n      0x14\n      dup2\n      lt\n      tag_25\n      jumpi\n      tag_26\n      tag_19\n      jump\t// in\n    tag_26:\n    tag_25:\n      byte\n      0xf8\n      shl\n        /* \"Solidity100/Solidity61-70.sol\":1603:1607  addr */\n      dup7\n        /* \"Solidity100/Solidity61-70.sol\":1610:1611  3 */\n      0x03\n        /* \"Solidity100/Solidity61-70.sol\":1608:1609  i */\n      dup7\n        /* \"Solidity100/Solidity61-70.sol\":1608:1611  i+3 */\n      tag_27\n      swap2\n      swap1\n      tag_21\n      jump\t// in\n    tag_27:\n        /* \"Solidity100/Solidity61-70.sol\":1603:1612  addr[i+3] */\n      0x14\n      dup2\n      lt\n      tag_28\n      jumpi\n      tag_29\n      tag_19\n      jump\t// in\n    tag_29:\n    tag_28:\n      byte\n      0xf8\n      shl\n        /* \"Solidity100/Solidity61-70.sol\":1558:1613  abi.encodePacked(addr[i],addr[i+1],addr[i+2],addr[i+3]) */\n      add(0x20, mload(0x40))\n      tag_30\n      swap5\n      swap4\n      swap3\n      swap2\n      swap1\n      tag_31\n      jump\t// in\n    tag_30:\n      mload(0x40)\n      0x20\n      dup2\n      dup4\n      sub\n      sub\n      dup2\n      mstore\n      swap1\n      0x40\n      mstore\n        /* \"Solidity100/Solidity61-70.sol\":1551:1614  bytes4(abi.encodePacked(addr[i],addr[i+1],addr[i+2],addr[i+3])) */\n      tag_32\n      swap1\n      tag_33\n      jump\t// in\n    tag_32:\n        /* \"Solidity100/Solidity61-70.sol\":1538:1614  bytes4 tmp = bytes4(abi.encodePacked(addr[i],addr[i+1],addr[i+2],addr[i+3])) */\n      swap1\n      pop\n        /* \"Solidity100/Solidity61-70.sol\":1642:1645  tmp */\n      dup1\n        /* \"Solidity100/Solidity61-70.sol\":1628:1634  result */\n      dup4\n        /* \"Solidity100/Solidity61-70.sol\":1637:1638  4 */\n      0x04\n        /* \"Solidity100/Solidity61-70.sol\":1635:1636  i */\n      dup5\n        /* \"Solidity100/Solidity61-70.sol\":1635:1638  i/4 */\n      tag_34\n      swap2\n      swap1\n      tag_35\n      jump\t// in\n    tag_34:\n        /* \"Solidity100/Solidity61-70.sol\":1628:1639  result[i/4] */\n      0x05\n      dup2\n      lt\n      tag_36\n      jumpi\n      tag_37\n      tag_19\n      jump\t// in\n    tag_37:\n    tag_36:\n      0x20\n      mul\n      add\n        /* \"Solidity100/Solidity61-70.sol\":1628:1645  result[i/4] = tmp */\n      swap1\n      not(0xffffffffffffffffffffffffffffffffffffffffffffffffffffffff)\n      and\n      swap1\n      dup2\n      not(0xffffffffffffffffffffffffffffffffffffffffffffffffffffffff)\n      and\n      dup2\n      mstore\n      pop\n      pop\n        /* \"Solidity100/Solidity61-70.sol\":1524:1656  {... */\n      pop\n        /* \"Solidity100/Solidity61-70.sol\":1522:1523  4 */\n      0x04\n        /* \"Solidity100/Solidity61-70.sol\":1519:1523  i+=4 */\n      dup2\n      tag_38\n      swap2\n      swap1\n      tag_21\n      jump\t// in\n    tag_38:\n      swap1\n      pop\n        /* \"Solidity100/Solidity61-70.sol\":1492:1656  for(uint i=0;i<addr.length;i+=4){... */\n      jump(tag_14)\n    tag_15:\n      pop\n        /* \"Solidity100/Solidity61-70.sol\":1681:1687  result */\n      dup1\n        /* \"Solidity100/Solidity61-70.sol\":1674:1687  return result */\n      swap3\n      pop\n      pop\n      pop\n        /* \"Solidity100/Solidity61-70.sol\":1330:1694  function fourBytesAddress(address _addr) public pure returns(bytes4[5] memory) {... */\n      swap2\n      swap1\n      pop\n      jump\t// out\n    tag_11:\n      mload(0x40)\n      dup1\n      0xa0\n      add\n      0x40\n      mstore\n      dup1\n      0x05\n      swap1\n      0x20\n      dup3\n      mul\n      dup1\n      calldatasize\n      dup4\n      calldatacopy\n      dup1\n      dup3\n      add\n      swap2\n      pop\n      pop\n      swap1\n      pop\n      pop\n      swap1\n      jump\t// out\n        /* \"#utility.yul\":88:205   */\n    tag_40:\n        /* \"#utility.yul\":197:198   */\n      0x00\n        /* \"#utility.yul\":194:195   */\n      dup1\n        /* \"#utility.yul\":187:199   */\n      revert\n        /* \"#utility.yul\":334:460   */\n    tag_42:\n        /* \"#utility.yul\":371:378   */\n      0x00\n        /* \"#utility.yul\":411:453   */\n      0xffffffffffffffffffffffffffffffffffffffff\n        /* \"#utility.yul\":404:409   */\n      dup3\n        /* \"#utility.yul\":400:454   */\n      and\n        /* \"#utility.yul\":389:454   */\n      swap1\n      pop\n        /* \"#utility.yul\":334:460   */\n      swap2\n      swap1\n      pop\n      jump\t// out\n        /* \"#utility.yul\":466:562   */\n    tag_43:\n        /* \"#utility.yul\":503:510   */\n      0x00\n        /* \"#utility.yul\":532:556   */\n      tag_70\n        /* \"#utility.yul\":550:555   */\n      dup3\n        /* \"#utility.yul\":532:556   */\n      tag_42\n      jump\t// in\n    tag_70:\n        /* \"#utility.yul\":521:556   */\n      swap1\n      pop\n        /* \"#utility.yul\":466:562   */\n      swap2\n      swap1\n      pop\n      jump\t// out\n        /* \"#utility.yul\":568:690   */\n    tag_44:\n        /* \"#utility.yul\":641:665   */\n      tag_72\n        /* \"#utility.yul\":659:664   */\n      dup2\n        /* \"#utility.yul\":641:665   */\n      tag_43\n      jump\t// in\n    tag_72:\n        /* \"#utility.yul\":634:639   */\n      dup2\n        /* \"#utility.yul\":631:666   */\n      eq\n        /* \"#utility.yul\":621:684   */\n      tag_73\n      jumpi\n        /* \"#utility.yul\":680:681   */\n      0x00\n        /* \"#utility.yul\":677:678   */\n      dup1\n        /* \"#utility.yul\":670:682   */\n      revert\n        /* \"#utility.yul\":621:684   */\n    tag_73:\n        /* \"#utility.yul\":568:690   */\n      pop\n      jump\t// out\n        /* \"#utility.yul\":696:835   */\n    tag_45:\n        /* \"#utility.yul\":742:747   */\n      0x00\n        /* \"#utility.yul\":780:786   */\n      dup2\n        /* \"#utility.yul\":767:787   */\n      calldataload\n        /* \"#utility.yul\":758:787   */\n      swap1\n      pop\n        /* \"#utility.yul\":796:829   */\n      tag_75\n        /* \"#utility.yul\":823:828   */\n      dup2\n        /* \"#utility.yul\":796:829   */\n      tag_44\n      jump\t// in\n    tag_75:\n        /* \"#utility.yul\":696:835   */\n      swap3\n      swap2\n      pop\n      pop\n      jump\t// out\n        /* \"#utility.yul\":841:1170   */\n    tag_6:\n        /* \"#utility.yul\":900:906   */\n      0x00\n        /* \"#utility.yul\":949:951   */\n      0x20\n        /* \"#utility.yul\":937:946   */\n      dup3\n        /* \"#utility.yul\":928:935   */\n      dup5\n        /* \"#utility.yul\":924:947   */\n      sub\n        /* \"#utility.yul\":920:952   */\n      slt\n        /* \"#utility.yul\":917:1036   */\n      iszero\n      tag_77\n      jumpi\n        /* \"#utility.yul\":955:1034   */\n      tag_78\n      tag_40\n      jump\t// in\n    tag_78:\n        /* \"#utility.yul\":917:1036   */\n    tag_77:\n        /* \"#utility.yul\":1075:1076   */\n      0x00\n        /* \"#utility.yul\":1100:1153   */\n      tag_79\n        /* \"#utility.yul\":1145:1152   */\n      dup5\n        /* \"#utility.yul\":1136:1142   */\n      dup3\n        /* \"#utility.yul\":1125:1134   */\n      dup6\n        /* \"#utility.yul\":1121:1143   */\n      add\n        /* \"#utility.yul\":1100:1153   */\n      tag_45\n      jump\t// in\n    tag_79:\n        /* \"#utility.yul\":1090:1153   */\n      swap2\n      pop\n        /* \"#utility.yul\":1046:1163   */\n      pop\n        /* \"#utility.yul\":841:1170   */\n      swap3\n      swap2\n      pop\n      pop\n      jump\t// out\n        /* \"#utility.yul\":1176:1279   */\n    tag_46:\n        /* \"#utility.yul\":1240:1246   */\n      0x00\n        /* \"#utility.yul\":1268:1272   */\n      0x05\n        /* \"#utility.yul\":1258:1272   */\n      swap1\n      pop\n        /* \"#utility.yul\":1176:1279   */\n      swap2\n      swap1\n      pop\n      jump\t// out\n        /* \"#utility.yul\":1285:1427   */\n    tag_47:\n        /* \"#utility.yul\":1381:1392   */\n      0x00\n        /* \"#utility.yul\":1418:1421   */\n      dup2\n        /* \"#utility.yul\":1403:1421   */\n      swap1\n      pop\n        /* \"#utility.yul\":1285:1427   */\n      swap3\n      swap2\n      pop\n      pop\n      jump\t// out\n        /* \"#utility.yul\":1433:1530   */\n    tag_48:\n        /* \"#utility.yul\":1497:1501   */\n      0x00\n        /* \"#utility.yul\":1520:1523   */\n      dup2\n        /* \"#utility.yul\":1512:1523   */\n      swap1\n      pop\n        /* \"#utility.yul\":1433:1530   */\n      swap2\n      swap1\n      pop\n      jump\t// out\n        /* \"#utility.yul\":1536:1685   */\n    tag_49:\n        /* \"#utility.yul\":1572:1579   */\n      0x00\n        /* \"#utility.yul\":1612:1678   */\n      0xffffffff00000000000000000000000000000000000000000000000000000000\n        /* \"#utility.yul\":1605:1610   */\n      dup3\n        /* \"#utility.yul\":1601:1679   */\n      and\n        /* \"#utility.yul\":1590:1679   */\n      swap1\n      pop\n        /* \"#utility.yul\":1536:1685   */\n      swap2\n      swap1\n      pop\n      jump\t// out\n        /* \"#utility.yul\":1691:1796   */\n    tag_50:\n        /* \"#utility.yul\":1766:1789   */\n      tag_85\n        /* \"#utility.yul\":1783:1788   */\n      dup2\n        /* \"#utility.yul\":1766:1789   */\n      tag_49\n      jump\t// in\n    tag_85:\n        /* \"#utility.yul\":1761:1764   */\n      dup3\n        /* \"#utility.yul\":1754:1790   */\n      mstore\n        /* \"#utility.yul\":1691:1796   */\n      pop\n      pop\n      jump\t// out\n        /* \"#utility.yul\":1802:1977   */\n    tag_51:\n        /* \"#utility.yul\":1869:1879   */\n      0x00\n        /* \"#utility.yul\":1890:1934   */\n      tag_87\n        /* \"#utility.yul\":1930:1933   */\n      dup4\n        /* \"#utility.yul\":1922:1928   */\n      dup4\n        /* \"#utility.yul\":1890:1934   */\n      tag_50\n      jump\t// in\n    tag_87:\n        /* \"#utility.yul\":1966:1970   */\n      0x20\n        /* \"#utility.yul\":1961:1964   */\n      dup4\n        /* \"#utility.yul\":1957:1971   */\n      add\n        /* \"#utility.yul\":1943:1971   */\n      swap1\n      pop\n        /* \"#utility.yul\":1802:1977   */\n      swap3\n      swap2\n      pop\n      pop\n      jump\t// out\n        /* \"#utility.yul\":1983:2093   */\n    tag_52:\n        /* \"#utility.yul\":2050:2054   */\n      0x00\n        /* \"#utility.yul\":2082:2086   */\n      0x20\n        /* \"#utility.yul\":2077:2080   */\n      dup3\n        /* \"#utility.yul\":2073:2087   */\n      add\n        /* \"#utility.yul\":2065:2087   */\n      swap1\n      pop\n        /* \"#utility.yul\":1983:2093   */\n      swap2\n      swap1\n      pop\n      jump\t// out\n        /* \"#utility.yul\":2129:2815   */\n    tag_53:\n        /* \"#utility.yul\":2263:2314   */\n      tag_90\n        /* \"#utility.yul\":2308:2313   */\n      dup2\n        /* \"#utility.yul\":2263:2314   */\n      tag_46\n      jump\t// in\n    tag_90:\n        /* \"#utility.yul\":2330:2413   */\n      tag_91\n        /* \"#utility.yul\":2406:2412   */\n      dup2\n        /* \"#utility.yul\":2401:2404   */\n      dup5\n        /* \"#utility.yul\":2330:2413   */\n      tag_47\n      jump\t// in\n    tag_91:\n        /* \"#utility.yul\":2323:2413   */\n      swap3\n      pop\n        /* \"#utility.yul\":2437:2490   */\n      tag_92\n        /* \"#utility.yul\":2484:2489   */\n      dup3\n        /* \"#utility.yul\":2437:2490   */\n      tag_48\n      jump\t// in\n    tag_92:\n        /* \"#utility.yul\":2513:2520   */\n      dup1\n        /* \"#utility.yul\":2544:2545   */\n      0x00\n        /* \"#utility.yul\":2529:2808   */\n    tag_93:\n        /* \"#utility.yul\":2554:2560   */\n      dup4\n        /* \"#utility.yul\":2551:2552   */\n      dup2\n        /* \"#utility.yul\":2548:2561   */\n      lt\n        /* \"#utility.yul\":2529:2808   */\n      iszero\n      tag_95\n      jumpi\n        /* \"#utility.yul\":2630:2636   */\n      dup2\n        /* \"#utility.yul\":2624:2637   */\n      mload\n        /* \"#utility.yul\":2657:2718   */\n      tag_96\n        /* \"#utility.yul\":2714:2717   */\n      dup8\n        /* \"#utility.yul\":2699:2712   */\n      dup3\n        /* \"#utility.yul\":2657:2718   */\n      tag_51\n      jump\t// in\n    tag_96:\n        /* \"#utility.yul\":2650:2718   */\n      swap7\n      pop\n        /* \"#utility.yul\":2741:2798   */\n      tag_97\n        /* \"#utility.yul\":2791:2797   */\n      dup4\n        /* \"#utility.yul\":2741:2798   */\n      tag_52\n      jump\t// in\n    tag_97:\n        /* \"#utility.yul\":2731:2798   */\n      swap3\n      pop\n        /* \"#utility.yul\":2589:2808   */\n      pop\n        /* \"#utility.yul\":2576:2577   */\n      0x01\n        /* \"#utility.yul\":2573:2574   */\n      dup2\n        /* \"#utility.yul\":2569:2578   */\n      add\n        /* \"#utility.yul\":2564:2578   */\n      swap1\n      pop\n        /* \"#utility.yul\":2529:2808   */\n      jump(tag_93)\n    tag_95:\n        /* \"#utility.yul\":2533:2547   */\n      pop\n        /* \"#utility.yul\":2239:2815   */\n      pop\n      pop\n      pop\n        /* \"#utility.yul\":2129:2815   */\n      pop\n      pop\n      jump\t// out\n        /* \"#utility.yul\":2821:3132   */\n    tag_9:\n        /* \"#utility.yul\":2958:2962   */\n      0x00\n        /* \"#utility.yul\":2996:2999   */\n      0xa0\n        /* \"#utility.yul\":2985:2994   */\n      dup3\n        /* \"#utility.yul\":2981:3000   */\n      add\n        /* \"#utility.yul\":2973:3000   */\n      swap1\n      pop\n        /* \"#utility.yul\":3010:3125   */\n      tag_99\n        /* \"#utility.yul\":3122:3123   */\n      0x00\n        /* \"#utility.yul\":3111:3120   */\n      dup4\n        /* \"#utility.yul\":3107:3124   */\n      add\n        /* \"#utility.yul\":3098:3104   */\n      dup5\n        /* \"#utility.yul\":3010:3125   */\n      tag_53\n      jump\t// in\n    tag_99:\n        /* \"#utility.yul\":2821:3132   */\n      swap3\n      swap2\n      pop\n      pop\n      jump\t// out\n        /* \"#utility.yul\":3138:3318   */\n    tag_19:\n        /* \"#utility.yul\":3186:3263   */\n      0x4e487b7100000000000000000000000000000000000000000000000000000000\n        /* \"#utility.yul\":3183:3184   */\n      0x00\n        /* \"#utility.yul\":3176:3264   */\n      mstore\n        /* \"#utility.yul\":3283:3287   */\n      0x32\n        /* \"#utility.yul\":3280:3281   */\n      0x04\n        /* \"#utility.yul\":3273:3288   */\n      mstore\n        /* \"#utility.yul\":3307:3311   */\n      0x24\n        /* \"#utility.yul\":3304:3305   */\n      0x00\n        /* \"#utility.yul\":3297:3312   */\n      revert\n        /* \"#utility.yul\":3324:3401   */\n    tag_54:\n        /* \"#utility.yul\":3361:3368   */\n      0x00\n        /* \"#utility.yul\":3390:3395   */\n      dup2\n        /* \"#utility.yul\":3379:3395   */\n      swap1\n      pop\n        /* \"#utility.yul\":3324:3401   */\n      swap2\n      swap1\n      pop\n      jump\t// out\n        /* \"#utility.yul\":3407:3587   */\n    tag_55:\n        /* \"#utility.yul\":3455:3532   */\n      0x4e487b7100000000000000000000000000000000000000000000000000000000\n        /* \"#utility.yul\":3452:3453   */\n      0x00\n        /* \"#utility.yul\":3445:3533   */\n      mstore\n        /* \"#utility.yul\":3552:3556   */\n      0x11\n        /* \"#utility.yul\":3549:3550   */\n      0x04\n        /* \"#utility.yul\":3542:3557   */\n      mstore\n        /* \"#utility.yul\":3576:3580   */\n      0x24\n        /* \"#utility.yul\":3573:3574   */\n      0x00\n        /* \"#utility.yul\":3566:3581   */\n      revert\n        /* \"#utility.yul\":3593:3784   */\n    tag_21:\n        /* \"#utility.yul\":3633:3636   */\n      0x00\n        /* \"#utility.yul\":3652:3672   */\n      tag_104\n        /* \"#utility.yul\":3670:3671   */\n      dup3\n        /* \"#utility.yul\":3652:3672   */\n      tag_54\n      jump\t// in\n    tag_104:\n        /* \"#utility.yul\":3647:3672   */\n      swap2\n      pop\n        /* \"#utility.yul\":3686:3706   */\n      tag_105\n        /* \"#utility.yul\":3704:3705   */\n      dup4\n        /* \"#utility.yul\":3686:3706   */\n      tag_54\n      jump\t// in\n    tag_105:\n        /* \"#utility.yul\":3681:3706   */\n      swap3\n      pop\n        /* \"#utility.yul\":3729:3730   */\n      dup3\n        /* \"#utility.yul\":3726:3727   */\n      dup3\n        /* \"#utility.yul\":3722:3731   */\n      add\n        /* \"#utility.yul\":3715:3731   */\n      swap1\n      pop\n        /* \"#utility.yul\":3750:3753   */\n      dup1\n        /* \"#utility.yul\":3747:3748   */\n      dup3\n        /* \"#utility.yul\":3744:3754   */\n      gt\n        /* \"#utility.yul\":3741:3777   */\n      iszero\n      tag_106\n      jumpi\n        /* \"#utility.yul\":3757:3775   */\n      tag_107\n      tag_55\n      jump\t// in\n    tag_107:\n        /* \"#utility.yul\":3741:3777   */\n    tag_106:\n        /* \"#utility.yul\":3593:3784   */\n      swap3\n      swap2\n      pop\n      pop\n      jump\t// out\n        /* \"#utility.yul\":3790:3939   */\n    tag_56:\n        /* \"#utility.yul\":3826:3833   */\n      0x00\n        /* \"#utility.yul\":3866:3932   */\n      0xff00000000000000000000000000000000000000000000000000000000000000\n        /* \"#utility.yul\":3859:3864   */\n      dup3\n        /* \"#utility.yul\":3855:3933   */\n      and\n        /* \"#utility.yul\":3844:3933   */\n      swap1\n      pop\n        /* \"#utility.yul\":3790:3939   */\n      swap2\n      swap1\n      pop\n      jump\t// out\n        /* \"#utility.yul\":3945:4023   */\n    tag_57:\n        /* \"#utility.yul\":3983:3990   */\n      0x00\n        /* \"#utility.yul\":4012:4017   */\n      dup2\n        /* \"#utility.yul\":4001:4017   */\n      swap1\n      pop\n        /* \"#utility.yul\":3945:4023   */\n      swap2\n      swap1\n      pop\n      jump\t// out\n        /* \"#utility.yul\":4029:4182   */\n    tag_58:\n        /* \"#utility.yul\":4132:4175   */\n      tag_111\n        /* \"#utility.yul\":4151:4174   */\n      tag_112\n        /* \"#utility.yul\":4168:4173   */\n      dup3\n        /* \"#utility.yul\":4151:4174   */\n      tag_56\n      jump\t// in\n    tag_112:\n        /* \"#utility.yul\":4132:4175   */\n      tag_57\n      jump\t// in\n    tag_111:\n        /* \"#utility.yul\":4127:4130   */\n      dup3\n        /* \"#utility.yul\":4120:4176   */\n      mstore\n        /* \"#utility.yul\":4029:4182   */\n      pop\n      pop\n      jump\t// out\n        /* \"#utility.yul\":4188:4847   */\n    tag_31:\n        /* \"#utility.yul\":4376:4379   */\n      0x00\n        /* \"#utility.yul\":4391:4464   */\n      tag_114\n        /* \"#utility.yul\":4460:4463   */\n      dup3\n        /* \"#utility.yul\":4451:4457   */\n      dup8\n        /* \"#utility.yul\":4391:4464   */\n      tag_58\n      jump\t// in\n    tag_114:\n        /* \"#utility.yul\":4489:4490   */\n      0x01\n        /* \"#utility.yul\":4484:4487   */\n      dup3\n        /* \"#utility.yul\":4480:4491   */\n      add\n        /* \"#utility.yul\":4473:4491   */\n      swap2\n      pop\n        /* \"#utility.yul\":4501:4574   */\n      tag_115\n        /* \"#utility.yul\":4570:4573   */\n      dup3\n        /* \"#utility.yul\":4561:4567   */\n      dup7\n        /* \"#utility.yul\":4501:4574   */\n      tag_58\n      jump\t// in\n    tag_115:\n        /* \"#utility.yul\":4599:4600   */\n      0x01\n        /* \"#utility.yul\":4594:4597   */\n      dup3\n        /* \"#utility.yul\":4590:4601   */\n      add\n        /* \"#utility.yul\":4583:4601   */\n      swap2\n      pop\n        /* \"#utility.yul\":4611:4684   */\n      tag_116\n        /* \"#utility.yul\":4680:4683   */\n      dup3\n        /* \"#utility.yul\":4671:4677   */\n      dup6\n        /* \"#utility.yul\":4611:4684   */\n      tag_58\n      jump\t// in\n    tag_116:\n        /* \"#utility.yul\":4709:4710   */\n      0x01\n        /* \"#utility.yul\":4704:4707   */\n      dup3\n        /* \"#utility.yul\":4700:4711   */\n      add\n        /* \"#utility.yul\":4693:4711   */\n      swap2\n      pop\n        /* \"#utility.yul\":4721:4794   */\n      tag_117\n        /* \"#utility.yul\":4790:4793   */\n      dup3\n        /* \"#utility.yul\":4781:4787   */\n      dup5\n        /* \"#utility.yul\":4721:4794   */\n      tag_58\n      jump\t// in\n    tag_117:\n        /* \"#utility.yul\":4819:4820   */\n      0x01\n        /* \"#utility.yul\":4814:4817   */\n      dup3\n        /* \"#utility.yul\":4810:4821   */\n      add\n        /* \"#utility.yul\":4803:4821   */\n      swap2\n      pop\n        /* \"#utility.yul\":4838:4841   */\n      dup2\n        /* \"#utility.yul\":4831:4841   */\n      swap1\n      pop\n        /* \"#utility.yul\":4188:4847   */\n      swap6\n      swap5\n      pop\n      pop\n      pop\n      pop\n      pop\n      jump\t// out\n        /* \"#utility.yul\":4853:4951   */\n    tag_59:\n        /* \"#utility.yul\":4904:4910   */\n      0x00\n        /* \"#utility.yul\":4938:4943   */\n      dup2\n        /* \"#utility.yul\":4932:4944   */\n      mload\n        /* \"#utility.yul\":4922:4944   */\n      swap1\n      pop\n        /* \"#utility.yul\":4853:4951   */\n      swap2\n      swap1\n      pop\n      jump\t// out\n        /* \"#utility.yul\":4957:5073   */\n    tag_60:\n        /* \"#utility.yul\":5008:5012   */\n      0x00\n        /* \"#utility.yul\":5031:5034   */\n      dup2\n        /* \"#utility.yul\":5023:5034   */\n      swap1\n      pop\n        /* \"#utility.yul\":5061:5065   */\n      0x20\n        /* \"#utility.yul\":5056:5059   */\n      dup3\n        /* \"#utility.yul\":5052:5066   */\n      add\n        /* \"#utility.yul\":5044:5066   */\n      swap1\n      pop\n        /* \"#utility.yul\":4957:5073   */\n      swap2\n      swap1\n      pop\n      jump\t// out\n        /* \"#utility.yul\":5079:5231   */\n    tag_61:\n        /* \"#utility.yul\":5121:5132   */\n      0x00\n        /* \"#utility.yul\":5157:5185   */\n      tag_121\n        /* \"#utility.yul\":5180:5183   */\n      dup3\n        /* \"#utility.yul\":5174:5184   */\n      mload\n        /* \"#utility.yul\":5157:5185   */\n      tag_49\n      jump\t// in\n    tag_121:\n        /* \"#utility.yul\":5219:5224   */\n      dup1\n        /* \"#utility.yul\":5195:5224   */\n      swap2\n      pop\n        /* \"#utility.yul\":5133:5231   */\n      pop\n        /* \"#utility.yul\":5079:5231   */\n      swap2\n      swap1\n      pop\n      jump\t// out\n        /* \"#utility.yul\":5237:5344   */\n    tag_62:\n        /* \"#utility.yul\":5281:5289   */\n      0x00\n        /* \"#utility.yul\":5331:5336   */\n      dup3\n        /* \"#utility.yul\":5325:5329   */\n      dup3\n        /* \"#utility.yul\":5321:5337   */\n      shl\n        /* \"#utility.yul\":5300:5337   */\n      swap1\n      pop\n        /* \"#utility.yul\":5237:5344   */\n      swap3\n      swap2\n      pop\n      pop\n      jump\t// out\n        /* \"#utility.yul\":5350:5940   */\n    tag_33:\n        /* \"#utility.yul\":5433:5438   */\n      0x00\n        /* \"#utility.yul\":5464:5502   */\n      tag_124\n        /* \"#utility.yul\":5496:5501   */\n      dup3\n        /* \"#utility.yul\":5464:5502   */\n      tag_59\n      jump\t// in\n    tag_124:\n        /* \"#utility.yul\":5527:5532   */\n      dup3\n        /* \"#utility.yul\":5554:5594   */\n      tag_125\n        /* \"#utility.yul\":5588:5593   */\n      dup5\n        /* \"#utility.yul\":5554:5594   */\n      tag_60\n      jump\t// in\n    tag_125:\n        /* \"#utility.yul\":5542:5594   */\n      swap1\n      pop\n        /* \"#utility.yul\":5613:5647   */\n      tag_126\n        /* \"#utility.yul\":5638:5646   */\n      dup2\n        /* \"#utility.yul\":5613:5647   */\n      tag_61\n      jump\t// in\n    tag_126:\n        /* \"#utility.yul\":5604:5647   */\n      swap3\n      pop\n        /* \"#utility.yul\":5671:5672   */\n      0x04\n        /* \"#utility.yul\":5663:5669   */\n      dup3\n        /* \"#utility.yul\":5660:5673   */\n      lt\n        /* \"#utility.yul\":5657:5933   */\n      iszero\n      tag_127\n      jumpi\n        /* \"#utility.yul\":5741:5909   */\n      tag_128\n        /* \"#utility.yul\":5825:5891   */\n      0xffffffff00000000000000000000000000000000000000000000000000000000\n        /* \"#utility.yul\":5795:5801   */\n      dup4\n        /* \"#utility.yul\":5792:5793   */\n      0x04\n        /* \"#utility.yul\":5788:5802   */\n      sub\n        /* \"#utility.yul\":5785:5786   */\n      0x08\n        /* \"#utility.yul\":5781:5803   */\n      mul\n        /* \"#utility.yul\":5741:5909   */\n      tag_62\n      jump\t// in\n    tag_128:\n        /* \"#utility.yul\":5718:5723   */\n      dup4\n        /* \"#utility.yul\":5697:5923   */\n      and\n        /* \"#utility.yul\":5688:5923   */\n      swap3\n      pop\n        /* \"#utility.yul\":5657:5933   */\n    tag_127:\n        /* \"#utility.yul\":5439:5940   */\n      pop\n      pop\n        /* \"#utility.yul\":5350:5940   */\n      swap2\n      swap1\n      pop\n      jump\t// out\n        /* \"#utility.yul\":5946:6126   */\n    tag_63:\n        /* \"#utility.yul\":5994:6071   */\n      0x4e487b7100000000000000000000000000000000000000000000000000000000\n        /* \"#utility.yul\":5991:5992   */\n      0x00\n        /* \"#utility.yul\":5984:6072   */\n      mstore\n        /* \"#utility.yul\":6091:6095   */\n      0x12\n        /* \"#utility.yul\":6088:6089   */\n      0x04\n        /* \"#utility.yul\":6081:6096   */\n      mstore\n        /* \"#utility.yul\":6115:6119   */\n      0x24\n        /* \"#utility.yul\":6112:6113   */\n      0x00\n        /* \"#utility.yul\":6105:6120   */\n      revert\n        /* \"#utility.yul\":6132:6317   */\n    tag_35:\n        /* \"#utility.yul\":6172:6173   */\n      0x00\n        /* \"#utility.yul\":6189:6209   */\n      tag_131\n        /* \"#utility.yul\":6207:6208   */\n      dup3\n        /* \"#utility.yul\":6189:6209   */\n      tag_54\n      jump\t// in\n    tag_131:\n        /* \"#utility.yul\":6184:6209   */\n      swap2\n      pop\n        /* \"#utility.yul\":6223:6243   */\n      tag_132\n        /* \"#utility.yul\":6241:6242   */\n      dup4\n        /* \"#utility.yul\":6223:6243   */\n      tag_54\n      jump\t// in\n    tag_132:\n        /* \"#utility.yul\":6218:6243   */\n      swap3\n      pop\n        /* \"#utility.yul\":6262:6263   */\n      dup3\n        /* \"#utility.yul\":6252:6287   */\n      tag_133\n      jumpi\n        /* \"#utility.yul\":6267:6285   */\n      tag_134\n      tag_63\n      jump\t// in\n    tag_134:\n        /* \"#utility.yul\":6252:6287   */\n    tag_133:\n        /* \"#utility.yul\":6309:6310   */\n      dup3\n        /* \"#utility.yul\":6306:6307   */\n      dup3\n        /* \"#utility.yul\":6302:6311   */\n      div\n        /* \"#utility.yul\":6297:6311   */\n      swap1\n      pop\n        /* \"#utility.yul\":6132:6317   */\n      swap3\n      swap2\n      pop\n      pop\n      jump\t// out\n\n    auxdata: 0xa2646970667358221220fa319f5cf8b0602a93232cf745c92ab4458b0bb8baca39e352f8f7782749892b64736f6c634300081a0033\n}\n",
				"bytecode": {
					"linkReferences": {},
					"object": "6080604052348015600e575f80fd5b506105ad8061001c5f395ff3fe608060405234801561000f575f80fd5b5060043610610029575f3560e01c8063e15a11fe1461002d575b5f80fd5b61004760048036038101906100429190610239565b61005d565b6040516100549190610334565b60405180910390f35b6100656101b9565b5f8260601b90506100746101b9565b5f5b601460ff168110156101ae575f8382601481106100965761009561034d565b5b1a60f81b846001846100a891906103b0565b601481106100b9576100b861034d565b5b1a60f81b856002856100cb91906103b0565b601481106100dc576100db61034d565b5b1a60f81b866003866100ee91906103b0565b601481106100ff576100fe61034d565b5b1a60f81b604051602001610116949392919061042e565b60405160208183030381529060405261012e906104b4565b9050808360048461013f9190610547565b600581106101505761014f61034d565b5b60200201907bffffffffffffffffffffffffffffffffffffffffffffffffffffffff191690817bffffffffffffffffffffffffffffffffffffffffffffffffffffffff191681525050506004816101a791906103b0565b9050610076565b508092505050919050565b6040518060a00160405280600590602082028036833780820191505090505090565b5f80fd5b5f73ffffffffffffffffffffffffffffffffffffffff82169050919050565b5f610208826101df565b9050919050565b610218816101fe565b8114610222575f80fd5b50565b5f813590506102338161020f565b92915050565b5f6020828403121561024e5761024d6101db565b5b5f61025b84828501610225565b91505092915050565b5f60059050919050565b5f81905092915050565b5f819050919050565b5f7fffffffff0000000000000000000000000000000000000000000000000000000082169050919050565b6102b581610281565b82525050565b5f6102c683836102ac565b60208301905092915050565b5f602082019050919050565b6102e781610264565b6102f1818461026e565b92506102fc82610278565b805f5b8381101561032c57815161031387826102bb565b965061031e836102d2565b9250506001810190506102ff565b505050505050565b5f60a0820190506103475f8301846102de565b92915050565b7f4e487b71000000000000000000000000000000000000000000000000000000005f52603260045260245ffd5b5f819050919050565b7f4e487b71000000000000000000000000000000000000000000000000000000005f52601160045260245ffd5b5f6103ba8261037a565b91506103c58361037a565b92508282019050808211156103dd576103dc610383565b5b92915050565b5f7fff0000000000000000000000000000000000000000000000000000000000000082169050919050565b5f819050919050565b610428610423826103e3565b61040e565b82525050565b5f6104398287610417565b6001820191506104498286610417565b6001820191506104598285610417565b6001820191506104698284610417565b60018201915081905095945050505050565b5f81519050919050565b5f819050602082019050919050565b5f61049f8251610281565b80915050919050565b5f82821b905092915050565b5f6104be8261047b565b826104c884610485565b90506104d381610494565b925060048210156105135761050e7fffffffff00000000000000000000000000000000000000000000000000000000836004036008026104a8565b831692505b5050919050565b7f4e487b71000000000000000000000000000000000000000000000000000000005f52601260045260245ffd5b5f6105518261037a565b915061055c8361037a565b92508261056c5761056b61051a565b5b82820490509291505056fea2646970667358221220fa319f5cf8b0602a93232cf745c92ab4458b0bb8baca39e352f8f7782749892b64736f6c634300081a0033",
					"opcodes": "PUSH1 0x80 PUSH1 0x40 MSTORE CALLVALUE DUP1 ISZERO PUSH1 0xE JUMPI PUSH0 DUP1 REVERT JUMPDEST POP PUSH2 0x5AD DUP1 PUSH2 0x1C PUSH0 CODECOPY PUSH0 RETURN INVALID PUSH1 0x80 PUSH1 0x40 MSTORE CALLVALUE DUP1 ISZERO PUSH2 0xF JUMPI PUSH0 DUP1 REVERT JUMPDEST POP PUSH1 0x4 CALLDATASIZE LT PUSH2 0x29 JUMPI PUSH0 CALLDATALOAD PUSH1 0xE0 SHR DUP1 PUSH4 0xE15A11FE EQ PUSH2 0x2D JUMPI JUMPDEST PUSH0 DUP1 REVERT JUMPDEST PUSH2 0x47 PUSH1 0x4 DUP1 CALLDATASIZE SUB DUP2 ADD SWAP1 PUSH2 0x42 SWAP2 SWAP1 PUSH2 0x239 JUMP JUMPDEST PUSH2 0x5D JUMP JUMPDEST PUSH1 0x40 MLOAD PUSH2 0x54 SWAP2 SWAP1 PUSH2 0x334 JUMP JUMPDEST PUSH1 0x40 MLOAD DUP1 SWAP2 SUB SWAP1 RETURN JUMPDEST PUSH2 0x65 PUSH2 0x1B9 JUMP JUMPDEST PUSH0 DUP3 PUSH1 0x60 SHL SWAP1 POP PUSH2 0x74 PUSH2 0x1B9 JUMP JUMPDEST PUSH0 JUMPDEST PUSH1 0x14 PUSH1 0xFF AND DUP2 LT ISZERO PUSH2 0x1AE JUMPI PUSH0 DUP4 DUP3 PUSH1 0x14 DUP2 LT PUSH2 0x96 JUMPI PUSH2 0x95 PUSH2 0x34D JUMP JUMPDEST JUMPDEST BYTE PUSH1 0xF8 SHL DUP5 PUSH1 0x1 DUP5 PUSH2 0xA8 SWAP2 SWAP1 PUSH2 0x3B0 JUMP JUMPDEST PUSH1 0x14 DUP2 LT PUSH2 0xB9 JUMPI PUSH2 0xB8 PUSH2 0x34D JUMP JUMPDEST JUMPDEST BYTE PUSH1 0xF8 SHL DUP6 PUSH1 0x2 DUP6 PUSH2 0xCB SWAP2 SWAP1 PUSH2 0x3B0 JUMP JUMPDEST PUSH1 0x14 DUP2 LT PUSH2 0xDC JUMPI PUSH2 0xDB PUSH2 0x34D JUMP JUMPDEST JUMPDEST BYTE PUSH1 0xF8 SHL DUP7 PUSH1 0x3 DUP7 PUSH2 0xEE SWAP2 SWAP1 PUSH2 0x3B0 JUMP JUMPDEST PUSH1 0x14 DUP2 LT PUSH2 0xFF JUMPI PUSH2 0xFE PUSH2 0x34D JUMP JUMPDEST JUMPDEST BYTE PUSH1 0xF8 SHL PUSH1 0x40 MLOAD PUSH1 0x20 ADD PUSH2 0x116 SWAP5 SWAP4 SWAP3 SWAP2 SWAP1 PUSH2 0x42E JUMP JUMPDEST PUSH1 0x40 MLOAD PUSH1 0x20 DUP2 DUP4 SUB SUB DUP2 MSTORE SWAP1 PUSH1 0x40 MSTORE PUSH2 0x12E SWAP1 PUSH2 0x4B4 JUMP JUMPDEST SWAP1 POP DUP1 DUP4 PUSH1 0x4 DUP5 PUSH2 0x13F SWAP2 SWAP1 PUSH2 0x547 JUMP JUMPDEST PUSH1 0x5 DUP2 LT PUSH2 0x150 JUMPI PUSH2 0x14F PUSH2 0x34D JUMP JUMPDEST JUMPDEST PUSH1 0x20 MUL ADD SWAP1 PUSH28 0xFFFFFFFFFFFFFFFFFFFFFFFFFFFFFFFFFFFFFFFFFFFFFFFFFFFFFFFF NOT AND SWAP1 DUP2 PUSH28 0xFFFFFFFFFFFFFFFFFFFFFFFFFFFFFFFFFFFFFFFFFFFFFFFFFFFFFFFF NOT AND DUP2 MSTORE POP POP POP PUSH1 0x4 DUP2 PUSH2 0x1A7 SWAP2 SWAP1 PUSH2 0x3B0 JUMP JUMPDEST SWAP1 POP PUSH2 0x76 JUMP JUMPDEST POP DUP1 SWAP3 POP POP POP SWAP2 SWAP1 POP JUMP JUMPDEST PUSH1 0x40 MLOAD DUP1 PUSH1 0xA0 ADD PUSH1 0x40 MSTORE DUP1 PUSH1 0x5 SWAP1 PUSH1 0x20 DUP3 MUL DUP1 CALLDATASIZE DUP4 CALLDATACOPY DUP1 DUP3 ADD SWAP2 POP POP SWAP1 POP POP SWAP1 JUMP JUMPDEST PUSH0 DUP1 REVERT JUMPDEST PUSH0 PUSH20 0xFFFFFFFFFFFFFFFFFFFFFFFFFFFFFFFFFFFFFFFF DUP3 AND SWAP1 POP SWAP2 SWAP1 POP JUMP JUMPDEST PUSH0 PUSH2 0x208 DUP3 PUSH2 0x1DF JUMP JUMPDEST SWAP1 POP SWAP2 SWAP1 POP JUMP JUMPDEST PUSH2 0x218 DUP2 PUSH2 0x1FE JUMP JUMPDEST DUP2 EQ PUSH2 0x222 JUMPI PUSH0 DUP1 REVERT JUMPDEST POP JUMP JUMPDEST PUSH0 DUP2 CALLDATALOAD SWAP1 POP PUSH2 0x233 DUP2 PUSH2 0x20F JUMP JUMPDEST SWAP3 SWAP2 POP POP JUMP JUMPDEST PUSH0 PUSH1 0x20 DUP3 DUP5 SUB SLT ISZERO PUSH2 0x24E JUMPI PUSH2 0x24D PUSH2 0x1DB JUMP JUMPDEST JUMPDEST PUSH0 PUSH2 0x25B DUP5 DUP3 DUP6 ADD PUSH2 0x225 JUMP JUMPDEST SWAP2 POP POP SWAP3 SWAP2 POP POP JUMP JUMPDEST PUSH0 PUSH1 0x5 SWAP1 POP SWAP2 SWAP1 POP JUMP JUMPDEST PUSH0 DUP2 SWAP1 POP SWAP3 SWAP2 POP POP JUMP JUMPDEST PUSH0 DUP2 SWAP1 POP SWAP2 SWAP1 POP JUMP JUMPDEST PUSH0 PUSH32 0xFFFFFFFF00000000000000000000000000000000000000000000000000000000 DUP3 AND SWAP1 POP SWAP2 SWAP1 POP JUMP JUMPDEST PUSH2 0x2B5 DUP2 PUSH2 0x281 JUMP JUMPDEST DUP3 MSTORE POP POP JUMP JUMPDEST PUSH0 PUSH2 0x2C6 DUP4 DUP4 PUSH2 0x2AC JUMP JUMPDEST PUSH1 0x20 DUP4 ADD SWAP1 POP SWAP3 SWAP2 POP POP JUMP JUMPDEST PUSH0 PUSH1 0x20 DUP3 ADD SWAP1 POP SWAP2 SWAP1 POP JUMP JUMPDEST PUSH2 0x2E7 DUP2 PUSH2 0x264 JUMP JUMPDEST PUSH2 0x2F1 DUP2 DUP5 PUSH2 0x26E JUMP JUMPDEST SWAP3 POP PUSH2 0x2FC DUP3 PUSH2 0x278 JUMP JUMPDEST DUP1 PUSH0 JUMPDEST DUP4 DUP2 LT ISZERO PUSH2 0x32C JUMPI DUP2 MLOAD PUSH2 0x313 DUP8 DUP3 PUSH2 0x2BB JUMP JUMPDEST SWAP7 POP PUSH2 0x31E DUP4 PUSH2 0x2D2 JUMP JUMPDEST SWAP3 POP POP PUSH1 0x1 DUP2 ADD SWAP1 POP PUSH2 0x2FF JUMP JUMPDEST POP POP POP POP POP POP JUMP JUMPDEST PUSH0 PUSH1 0xA0 DUP3 ADD SWAP1 POP PUSH2 0x347 PUSH0 DUP4 ADD DUP5 PUSH2 0x2DE JUMP JUMPDEST SWAP3 SWAP2 POP POP JUMP JUMPDEST PUSH32 0x4E487B7100000000000000000000000000000000000000000000000000000000 PUSH0 MSTORE PUSH1 0x32 PUSH1 0x4 MSTORE PUSH1 0x24 PUSH0 REVERT JUMPDEST PUSH0 DUP2 SWAP1 POP SWAP2 SWAP1 POP JUMP JUMPDEST PUSH32 0x4E487B7100000000000000000000000000000000000000000000000000000000 PUSH0 MSTORE PUSH1 0x11 PUSH1 0x4 MSTORE PUSH1 0x24 PUSH0 REVERT JUMPDEST PUSH0 PUSH2 0x3BA DUP3 PUSH2 0x37A JUMP JUMPDEST SWAP2 POP PUSH2 0x3C5 DUP4 PUSH2 0x37A JUMP JUMPDEST SWAP3 POP DUP3 DUP3 ADD SWAP1 POP DUP1 DUP3 GT ISZERO PUSH2 0x3DD JUMPI PUSH2 0x3DC PUSH2 0x383 JUMP JUMPDEST JUMPDEST SWAP3 SWAP2 POP POP JUMP JUMPDEST PUSH0 PUSH32 0xFF00000000000000000000000000000000000000000000000000000000000000 DUP3 AND SWAP1 POP SWAP2 SWAP1 POP JUMP JUMPDEST PUSH0 DUP2 SWAP1 POP SWAP2 SWAP1 POP JUMP JUMPDEST PUSH2 0x428 PUSH2 0x423 DUP3 PUSH2 0x3E3 JUMP JUMPDEST PUSH2 0x40E JUMP JUMPDEST DUP3 MSTORE POP POP JUMP JUMPDEST PUSH0 PUSH2 0x439 DUP3 DUP8 PUSH2 0x417 JUMP JUMPDEST PUSH1 0x1 DUP3 ADD SWAP2 POP PUSH2 0x449 DUP3 DUP7 PUSH2 0x417 JUMP JUMPDEST PUSH1 0x1 DUP3 ADD SWAP2 POP PUSH2 0x459 DUP3 DUP6 PUSH2 0x417 JUMP JUMPDEST PUSH1 0x1 DUP3 ADD SWAP2 POP PUSH2 0x469 DUP3 DUP5 PUSH2 0x417 JUMP JUMPDEST PUSH1 0x1 DUP3 ADD SWAP2 POP DUP2 SWAP1 POP SWAP6 SWAP5 POP POP POP POP POP JUMP JUMPDEST PUSH0 DUP2 MLOAD SWAP1 POP SWAP2 SWAP1 POP JUMP JUMPDEST PUSH0 DUP2 SWAP1 POP PUSH1 0x20 DUP3 ADD SWAP1 POP SWAP2 SWAP1 POP JUMP JUMPDEST PUSH0 PUSH2 0x49F DUP3 MLOAD PUSH2 0x281 JUMP JUMPDEST DUP1 SWAP2 POP POP SWAP2 SWAP1 POP JUMP JUMPDEST PUSH0 DUP3 DUP3 SHL SWAP1 POP SWAP3 SWAP2 POP POP JUMP JUMPDEST PUSH0 PUSH2 0x4BE DUP3 PUSH2 0x47B JUMP JUMPDEST DUP3 PUSH2 0x4C8 DUP5 PUSH2 0x485 JUMP JUMPDEST SWAP1 POP PUSH2 0x4D3 DUP2 PUSH2 0x494 JUMP JUMPDEST SWAP3 POP PUSH1 0x4 DUP3 LT ISZERO PUSH2 0x513 JUMPI PUSH2 0x50E PUSH32 0xFFFFFFFF00000000000000000000000000000000000000000000000000000000 DUP4 PUSH1 0x4 SUB PUSH1 0x8 MUL PUSH2 0x4A8 JUMP JUMPDEST DUP4 AND SWAP3 POP JUMPDEST POP POP SWAP2 SWAP1 POP JUMP JUMPDEST PUSH32 0x4E487B7100000000000000000000000000000000000000000000000000000000 PUSH0 MSTORE PUSH1 0x12 PUSH1 0x4 MSTORE PUSH1 0x24 PUSH0 REVERT JUMPDEST PUSH0 PUSH2 0x551 DUP3 PUSH2 0x37A JUMP JUMPDEST SWAP2 POP PUSH2 0x55C DUP4 PUSH2 0x37A JUMP JUMPDEST SWAP3 POP DUP3 PUSH2 0x56C JUMPI PUSH2 0x56B PUSH2 0x51A JUMP JUMPDEST JUMPDEST DUP3 DUP3 DIV SWAP1 POP SWAP3 SWAP2 POP POP JUMP INVALID LOG2 PUSH5 0x6970667358 0x22 SLT KECCAK256 STATICCALL BALANCE SWAP16 TLOAD 0xF8 0xB0 PUSH1 0x2A SWAP4 0x23 0x2C 0xF7 GASLIMIT 0xC9 0x2A 0xB4 GASLIMIT DUP12 SIGNEXTEND 0xB8 0xBA 0xCA CODECOPY 0xE3 MSTORE 0xF8 0xF7 PUSH25 0x2749892B64736F6C634300081A003300000000000000000000 "
				},
				"gasEstimates": {
					"creation": {
						"codeDepositCost": "290600",
						"executionCost": "329",
						"totalCost": "290929"
					},
					"external": {
						"fourBytesAddress(address)": "infinite"
					}
				},
				"methodIdentifiers": {
					"fourBytesAddress(address)": "e15a11fe"
				}
			},
			"storageLayout": {
				"storage": [],
				"types": null
			},
			"userdoc": {
				"kind": "user",
				"methods": {},
				"version": 1
			}
		}
	}
}