{
	"Solidity100/Solidity61-70.sol": {
		"Question67_B": {
			"abi": [
				{
					"inputs": [],
					"name": "receiveEther",
					"outputs": [
						{
							"internalType": "uint256",
							"name": "",
							"type": "uint256"
						}
					],
					"stateMutability": "payable",
					"type": "function"
				},
				{
					"inputs": [
						{
							"internalType": "address payable",
							"name": "_addr",
							"type": "address"
						},
						{
							"internalType": "uint256",
							"name": "_amount",
							"type": "uint256"
						}
					],
					"name": "sendEther",
					"outputs": [],
					"stateMutability": "nonpayable",
					"type": "function"
				}
			],
			"devdoc": {
				"kind": "dev",
				"methods": {},
				"version": 1
			},
			"evm": {
				"assembly": "    /* \"Solidity100/Solidity61-70.sol\":3502:3801  contract Question67_B {... */\n  mstore(0x40, 0x80)\n  callvalue\n  dup1\n  iszero\n  tag_1\n  jumpi\n  0x00\n  dup1\n  revert\ntag_1:\n  pop\n  dataSize(sub_0)\n  dup1\n  dataOffset(sub_0)\n  0x00\n  codecopy\n  0x00\n  return\nstop\n\nsub_0: assembly {\n        /* \"Solidity100/Solidity61-70.sol\":3502:3801  contract Question67_B {... */\n      mstore(0x40, 0x80)\n      jumpi(tag_1, lt(calldatasize, 0x04))\n      shr(0xe0, calldataload(0x00))\n      dup1\n      0xa3912ec8\n      eq\n      tag_2\n      jumpi\n      dup1\n      0xc1756a2c\n      eq\n      tag_3\n      jumpi\n    tag_1:\n      0x00\n      dup1\n      revert\n        /* \"Solidity100/Solidity61-70.sol\":3531:3616  function receiveEther() public payable returns(uint){... */\n    tag_2:\n      tag_4\n      tag_5\n      jump\t// in\n    tag_4:\n      mload(0x40)\n      tag_6\n      swap2\n      swap1\n      tag_7\n      jump\t// in\n    tag_6:\n      mload(0x40)\n      dup1\n      swap2\n      sub\n      swap1\n      return\n        /* \"Solidity100/Solidity61-70.sol\":3622:3798  function sendEther(address payable _addr, uint _amount) public {... */\n    tag_3:\n      callvalue\n      dup1\n      iszero\n      tag_8\n      jumpi\n      0x00\n      dup1\n      revert\n    tag_8:\n      pop\n      tag_9\n      0x04\n      dup1\n      calldatasize\n      sub\n      dup2\n      add\n      swap1\n      tag_10\n      swap2\n      swap1\n      tag_11\n      jump\t// in\n    tag_10:\n      tag_12\n      jump\t// in\n    tag_9:\n      stop\n        /* \"Solidity100/Solidity61-70.sol\":3531:3616  function receiveEther() public payable returns(uint){... */\n    tag_5:\n        /* \"Solidity100/Solidity61-70.sol\":3578:3582  uint */\n      0x00\n        /* \"Solidity100/Solidity61-70.sol\":3600:3609  msg.value */\n      callvalue\n        /* \"Solidity100/Solidity61-70.sol\":3593:3609  return msg.value */\n      swap1\n      pop\n        /* \"Solidity100/Solidity61-70.sol\":3531:3616  function receiveEther() public payable returns(uint){... */\n      swap1\n      jump\t// out\n        /* \"Solidity100/Solidity61-70.sol\":3622:3798  function sendEther(address payable _addr, uint _amount) public {... */\n    tag_12:\n        /* \"Solidity100/Solidity61-70.sol\":3728:3735  _amount */\n      dup1\n        /* \"Solidity100/Solidity61-70.sol\":3703:3724  address(this).balance */\n      selfbalance\n        /* \"Solidity100/Solidity61-70.sol\":3703:3735  address(this).balance >= _amount */\n      lt\n      iszero\n        /* \"Solidity100/Solidity61-70.sol\":3695:3758  require(address(this).balance >= _amount, \"not enough balance\") */\n      tag_15\n      jumpi\n      mload(0x40)\n      0x08c379a000000000000000000000000000000000000000000000000000000000\n      dup2\n      mstore\n      0x04\n      add\n      tag_16\n      swap1\n      tag_17\n      jump\t// in\n    tag_16:\n      mload(0x40)\n      dup1\n      swap2\n      sub\n      swap1\n      revert\n    tag_15:\n        /* \"Solidity100/Solidity61-70.sol\":3768:3773  _addr */\n      dup2\n        /* \"Solidity100/Solidity61-70.sol\":3768:3782  _addr.transfer */\n      0xffffffffffffffffffffffffffffffffffffffff\n      and\n        /* \"Solidity100/Solidity61-70.sol\":3768:3791  _addr.transfer(_amount) */\n      0x08fc\n        /* \"Solidity100/Solidity61-70.sol\":3783:3790  _amount */\n      dup3\n        /* \"Solidity100/Solidity61-70.sol\":3768:3791  _addr.transfer(_amount) */\n      swap1\n      dup2\n      iszero\n      mul\n      swap1\n      mload(0x40)\n      0x00\n      mload(0x40)\n      dup1\n      dup4\n      sub\n      dup2\n      dup6\n      dup9\n      dup9\n      call\n      swap4\n      pop\n      pop\n      pop\n      pop\n      iszero\n      dup1\n      iszero\n      tag_19\n      jumpi\n      returndatasize\n      0x00\n      dup1\n      returndatacopy\n      revert(0x00, returndatasize)\n    tag_19:\n      pop\n        /* \"Solidity100/Solidity61-70.sol\":3622:3798  function sendEther(address payable _addr, uint _amount) public {... */\n      pop\n      pop\n      jump\t// out\n        /* \"#utility.yul\":7:84   */\n    tag_20:\n        /* \"#utility.yul\":44:51   */\n      0x00\n        /* \"#utility.yul\":73:78   */\n      dup2\n        /* \"#utility.yul\":62:78   */\n      swap1\n      pop\n        /* \"#utility.yul\":7:84   */\n      swap2\n      swap1\n      pop\n      jump\t// out\n        /* \"#utility.yul\":90:208   */\n    tag_21:\n        /* \"#utility.yul\":177:201   */\n      tag_37\n        /* \"#utility.yul\":195:200   */\n      dup2\n        /* \"#utility.yul\":177:201   */\n      tag_20\n      jump\t// in\n    tag_37:\n        /* \"#utility.yul\":172:175   */\n      dup3\n        /* \"#utility.yul\":165:202   */\n      mstore\n        /* \"#utility.yul\":90:208   */\n      pop\n      pop\n      jump\t// out\n        /* \"#utility.yul\":214:436   */\n    tag_7:\n        /* \"#utility.yul\":307:311   */\n      0x00\n        /* \"#utility.yul\":345:347   */\n      0x20\n        /* \"#utility.yul\":334:343   */\n      dup3\n        /* \"#utility.yul\":330:348   */\n      add\n        /* \"#utility.yul\":322:348   */\n      swap1\n      pop\n        /* \"#utility.yul\":358:429   */\n      tag_39\n        /* \"#utility.yul\":426:427   */\n      0x00\n        /* \"#utility.yul\":415:424   */\n      dup4\n        /* \"#utility.yul\":411:428   */\n      add\n        /* \"#utility.yul\":402:408   */\n      dup5\n        /* \"#utility.yul\":358:429   */\n      tag_21\n      jump\t// in\n    tag_39:\n        /* \"#utility.yul\":214:436   */\n      swap3\n      swap2\n      pop\n      pop\n      jump\t// out\n        /* \"#utility.yul\":523:640   */\n    tag_23:\n        /* \"#utility.yul\":632:633   */\n      0x00\n        /* \"#utility.yul\":629:630   */\n      dup1\n        /* \"#utility.yul\":622:634   */\n      revert\n        /* \"#utility.yul\":769:895   */\n    tag_25:\n        /* \"#utility.yul\":806:813   */\n      0x00\n        /* \"#utility.yul\":846:888   */\n      0xffffffffffffffffffffffffffffffffffffffff\n        /* \"#utility.yul\":839:844   */\n      dup3\n        /* \"#utility.yul\":835:889   */\n      and\n        /* \"#utility.yul\":824:889   */\n      swap1\n      pop\n        /* \"#utility.yul\":769:895   */\n      swap2\n      swap1\n      pop\n      jump\t// out\n        /* \"#utility.yul\":901:1005   */\n    tag_26:\n        /* \"#utility.yul\":946:953   */\n      0x00\n        /* \"#utility.yul\":975:999   */\n      tag_45\n        /* \"#utility.yul\":993:998   */\n      dup3\n        /* \"#utility.yul\":975:999   */\n      tag_25\n      jump\t// in\n    tag_45:\n        /* \"#utility.yul\":964:999   */\n      swap1\n      pop\n        /* \"#utility.yul\":901:1005   */\n      swap2\n      swap1\n      pop\n      jump\t// out\n        /* \"#utility.yul\":1011:1149   */\n    tag_27:\n        /* \"#utility.yul\":1092:1124   */\n      tag_47\n        /* \"#utility.yul\":1118:1123   */\n      dup2\n        /* \"#utility.yul\":1092:1124   */\n      tag_26\n      jump\t// in\n    tag_47:\n        /* \"#utility.yul\":1085:1090   */\n      dup2\n        /* \"#utility.yul\":1082:1125   */\n      eq\n        /* \"#utility.yul\":1072:1143   */\n      tag_48\n      jumpi\n        /* \"#utility.yul\":1139:1140   */\n      0x00\n        /* \"#utility.yul\":1136:1137   */\n      dup1\n        /* \"#utility.yul\":1129:1141   */\n      revert\n        /* \"#utility.yul\":1072:1143   */\n    tag_48:\n        /* \"#utility.yul\":1011:1149   */\n      pop\n      jump\t// out\n        /* \"#utility.yul\":1155:1310   */\n    tag_28:\n        /* \"#utility.yul\":1209:1214   */\n      0x00\n        /* \"#utility.yul\":1247:1253   */\n      dup2\n        /* \"#utility.yul\":1234:1254   */\n      calldataload\n        /* \"#utility.yul\":1225:1254   */\n      swap1\n      pop\n        /* \"#utility.yul\":1263:1304   */\n      tag_50\n        /* \"#utility.yul\":1298:1303   */\n      dup2\n        /* \"#utility.yul\":1263:1304   */\n      tag_27\n      jump\t// in\n    tag_50:\n        /* \"#utility.yul\":1155:1310   */\n      swap3\n      swap2\n      pop\n      pop\n      jump\t// out\n        /* \"#utility.yul\":1316:1438   */\n    tag_29:\n        /* \"#utility.yul\":1389:1413   */\n      tag_52\n        /* \"#utility.yul\":1407:1412   */\n      dup2\n        /* \"#utility.yul\":1389:1413   */\n      tag_20\n      jump\t// in\n    tag_52:\n        /* \"#utility.yul\":1382:1387   */\n      dup2\n        /* \"#utility.yul\":1379:1414   */\n      eq\n        /* \"#utility.yul\":1369:1432   */\n      tag_53\n      jumpi\n        /* \"#utility.yul\":1428:1429   */\n      0x00\n        /* \"#utility.yul\":1425:1426   */\n      dup1\n        /* \"#utility.yul\":1418:1430   */\n      revert\n        /* \"#utility.yul\":1369:1432   */\n    tag_53:\n        /* \"#utility.yul\":1316:1438   */\n      pop\n      jump\t// out\n        /* \"#utility.yul\":1444:1583   */\n    tag_30:\n        /* \"#utility.yul\":1490:1495   */\n      0x00\n        /* \"#utility.yul\":1528:1534   */\n      dup2\n        /* \"#utility.yul\":1515:1535   */\n      calldataload\n        /* \"#utility.yul\":1506:1535   */\n      swap1\n      pop\n        /* \"#utility.yul\":1544:1577   */\n      tag_55\n        /* \"#utility.yul\":1571:1576   */\n      dup2\n        /* \"#utility.yul\":1544:1577   */\n      tag_29\n      jump\t// in\n    tag_55:\n        /* \"#utility.yul\":1444:1583   */\n      swap3\n      swap2\n      pop\n      pop\n      jump\t// out\n        /* \"#utility.yul\":1589:2079   */\n    tag_11:\n        /* \"#utility.yul\":1665:1671   */\n      0x00\n        /* \"#utility.yul\":1673:1679   */\n      dup1\n        /* \"#utility.yul\":1722:1724   */\n      0x40\n        /* \"#utility.yul\":1710:1719   */\n      dup4\n        /* \"#utility.yul\":1701:1708   */\n      dup6\n        /* \"#utility.yul\":1697:1720   */\n      sub\n        /* \"#utility.yul\":1693:1725   */\n      slt\n        /* \"#utility.yul\":1690:1809   */\n      iszero\n      tag_57\n      jumpi\n        /* \"#utility.yul\":1728:1807   */\n      tag_58\n      tag_23\n      jump\t// in\n    tag_58:\n        /* \"#utility.yul\":1690:1809   */\n    tag_57:\n        /* \"#utility.yul\":1848:1849   */\n      0x00\n        /* \"#utility.yul\":1873:1934   */\n      tag_59\n        /* \"#utility.yul\":1926:1933   */\n      dup6\n        /* \"#utility.yul\":1917:1923   */\n      dup3\n        /* \"#utility.yul\":1906:1915   */\n      dup7\n        /* \"#utility.yul\":1902:1924   */\n      add\n        /* \"#utility.yul\":1873:1934   */\n      tag_28\n      jump\t// in\n    tag_59:\n        /* \"#utility.yul\":1863:1934   */\n      swap3\n      pop\n        /* \"#utility.yul\":1819:1944   */\n      pop\n        /* \"#utility.yul\":1983:1985   */\n      0x20\n        /* \"#utility.yul\":2009:2062   */\n      tag_60\n        /* \"#utility.yul\":2054:2061   */\n      dup6\n        /* \"#utility.yul\":2045:2051   */\n      dup3\n        /* \"#utility.yul\":2034:2043   */\n      dup7\n        /* \"#utility.yul\":2030:2052   */\n      add\n        /* \"#utility.yul\":2009:2062   */\n      tag_30\n      jump\t// in\n    tag_60:\n        /* \"#utility.yul\":1999:2062   */\n      swap2\n      pop\n        /* \"#utility.yul\":1954:2072   */\n      pop\n        /* \"#utility.yul\":1589:2079   */\n      swap3\n      pop\n      swap3\n      swap1\n      pop\n      jump\t// out\n        /* \"#utility.yul\":2085:2254   */\n    tag_31:\n        /* \"#utility.yul\":2169:2180   */\n      0x00\n        /* \"#utility.yul\":2203:2209   */\n      dup3\n        /* \"#utility.yul\":2198:2201   */\n      dup3\n        /* \"#utility.yul\":2191:2210   */\n      mstore\n        /* \"#utility.yul\":2243:2247   */\n      0x20\n        /* \"#utility.yul\":2238:2241   */\n      dup3\n        /* \"#utility.yul\":2234:2248   */\n      add\n        /* \"#utility.yul\":2219:2248   */\n      swap1\n      pop\n        /* \"#utility.yul\":2085:2254   */\n      swap3\n      swap2\n      pop\n      pop\n      jump\t// out\n        /* \"#utility.yul\":2260:2428   */\n    tag_32:\n        /* \"#utility.yul\":2400:2420   */\n      0x6e6f7420656e6f7567682062616c616e63650000000000000000000000000000\n        /* \"#utility.yul\":2396:2397   */\n      0x00\n        /* \"#utility.yul\":2388:2394   */\n      dup3\n        /* \"#utility.yul\":2384:2398   */\n      add\n        /* \"#utility.yul\":2377:2421   */\n      mstore\n        /* \"#utility.yul\":2260:2428   */\n      pop\n      jump\t// out\n        /* \"#utility.yul\":2434:2800   */\n    tag_33:\n        /* \"#utility.yul\":2576:2579   */\n      0x00\n        /* \"#utility.yul\":2597:2664   */\n      tag_64\n        /* \"#utility.yul\":2661:2663   */\n      0x12\n        /* \"#utility.yul\":2656:2659   */\n      dup4\n        /* \"#utility.yul\":2597:2664   */\n      tag_31\n      jump\t// in\n    tag_64:\n        /* \"#utility.yul\":2590:2664   */\n      swap2\n      pop\n        /* \"#utility.yul\":2673:2766   */\n      tag_65\n        /* \"#utility.yul\":2762:2765   */\n      dup3\n        /* \"#utility.yul\":2673:2766   */\n      tag_32\n      jump\t// in\n    tag_65:\n        /* \"#utility.yul\":2791:2793   */\n      0x20\n        /* \"#utility.yul\":2786:2789   */\n      dup3\n        /* \"#utility.yul\":2782:2794   */\n      add\n        /* \"#utility.yul\":2775:2794   */\n      swap1\n      pop\n        /* \"#utility.yul\":2434:2800   */\n      swap2\n      swap1\n      pop\n      jump\t// out\n        /* \"#utility.yul\":2806:3225   */\n    tag_17:\n        /* \"#utility.yul\":2972:2976   */\n      0x00\n        /* \"#utility.yul\":3010:3012   */\n      0x20\n        /* \"#utility.yul\":2999:3008   */\n      dup3\n        /* \"#utility.yul\":2995:3013   */\n      add\n        /* \"#utility.yul\":2987:3013   */\n      swap1\n      pop\n        /* \"#utility.yul\":3059:3068   */\n      dup2\n        /* \"#utility.yul\":3053:3057   */\n      dup2\n        /* \"#utility.yul\":3049:3069   */\n      sub\n        /* \"#utility.yul\":3045:3046   */\n      0x00\n        /* \"#utility.yul\":3034:3043   */\n      dup4\n        /* \"#utility.yul\":3030:3047   */\n      add\n        /* \"#utility.yul\":3023:3070   */\n      mstore\n        /* \"#utility.yul\":3087:3218   */\n      tag_67\n        /* \"#utility.yul\":3213:3217   */\n      dup2\n        /* \"#utility.yul\":3087:3218   */\n      tag_33\n      jump\t// in\n    tag_67:\n        /* \"#utility.yul\":3079:3218   */\n      swap1\n      pop\n        /* \"#utility.yul\":2806:3225   */\n      swap2\n      swap1\n      pop\n      jump\t// out\n\n    auxdata: 0xa2646970667358221220e293162a2099752d62049273f401e66b042e7f409e17294a966c264860fc10d864736f6c634300081a0033\n}\n",
				"bytecode": {
					"linkReferences": {},
					"object": "6080604052348015600e575f80fd5b506102a98061001c5f395ff3fe608060405260043610610028575f3560e01c8063a3912ec81461002c578063c1756a2c1461004a575b5f80fd5b610034610072565b604051610041919061011c565b60405180910390f35b348015610055575f80fd5b50610070600480360381019061006b91906101bd565b610079565b005b5f34905090565b804710156100bc576040517f08c379a00000000000000000000000000000000000000000000000000000000081526004016100b390610255565b60405180910390fd5b8173ffffffffffffffffffffffffffffffffffffffff166108fc8290811502906040515f60405180830381858888f193505050501580156100ff573d5f803e3d5ffd5b505050565b5f819050919050565b61011681610104565b82525050565b5f60208201905061012f5f83018461010d565b92915050565b5f80fd5b5f73ffffffffffffffffffffffffffffffffffffffff82169050919050565b5f61016282610139565b9050919050565b61017281610158565b811461017c575f80fd5b50565b5f8135905061018d81610169565b92915050565b61019c81610104565b81146101a6575f80fd5b50565b5f813590506101b781610193565b92915050565b5f80604083850312156101d3576101d2610135565b5b5f6101e08582860161017f565b92505060206101f1858286016101a9565b9150509250929050565b5f82825260208201905092915050565b7f6e6f7420656e6f7567682062616c616e636500000000000000000000000000005f82015250565b5f61023f6012836101fb565b915061024a8261020b565b602082019050919050565b5f6020820190508181035f83015261026c81610233565b905091905056fea2646970667358221220e293162a2099752d62049273f401e66b042e7f409e17294a966c264860fc10d864736f6c634300081a0033",
					"opcodes": "PUSH1 0x80 PUSH1 0x40 MSTORE CALLVALUE DUP1 ISZERO PUSH1 0xE JUMPI PUSH0 DUP1 REVERT JUMPDEST POP PUSH2 0x2A9 DUP1 PUSH2 0x1C PUSH0 CODECOPY PUSH0 RETURN INVALID PUSH1 0x80 PUSH1 0x40 MSTORE PUSH1 0x4 CALLDATASIZE LT PUSH2 0x28 JUMPI PUSH0 CALLDATALOAD PUSH1 0xE0 SHR DUP1 PUSH4 0xA3912EC8 EQ PUSH2 0x2C JUMPI DUP1 PUSH4 0xC1756A2C EQ PUSH2 0x4A JUMPI JUMPDEST PUSH0 DUP1 REVERT JUMPDEST PUSH2 0x34 PUSH2 0x72 JUMP JUMPDEST PUSH1 0x40 MLOAD PUSH2 0x41 SWAP2 SWAP1 PUSH2 0x11C JUMP JUMPDEST PUSH1 0x40 MLOAD DUP1 SWAP2 SUB SWAP1 RETURN JUMPDEST CALLVALUE DUP1 ISZERO PUSH2 0x55 JUMPI PUSH0 DUP1 REVERT JUMPDEST POP PUSH2 0x70 PUSH1 0x4 DUP1 CALLDATASIZE SUB DUP2 ADD SWAP1 PUSH2 0x6B SWAP2 SWAP1 PUSH2 0x1BD JUMP JUMPDEST PUSH2 0x79 JUMP JUMPDEST STOP JUMPDEST PUSH0 CALLVALUE SWAP1 POP SWAP1 JUMP JUMPDEST DUP1 SELFBALANCE LT ISZERO PUSH2 0xBC JUMPI PUSH1 0x40 MLOAD PUSH32 0x8C379A000000000000000000000000000000000000000000000000000000000 DUP2 MSTORE PUSH1 0x4 ADD PUSH2 0xB3 SWAP1 PUSH2 0x255 JUMP JUMPDEST PUSH1 0x40 MLOAD DUP1 SWAP2 SUB SWAP1 REVERT JUMPDEST DUP2 PUSH20 0xFFFFFFFFFFFFFFFFFFFFFFFFFFFFFFFFFFFFFFFF AND PUSH2 0x8FC DUP3 SWAP1 DUP2 ISZERO MUL SWAP1 PUSH1 0x40 MLOAD PUSH0 PUSH1 0x40 MLOAD DUP1 DUP4 SUB DUP2 DUP6 DUP9 DUP9 CALL SWAP4 POP POP POP POP ISZERO DUP1 ISZERO PUSH2 0xFF JUMPI RETURNDATASIZE PUSH0 DUP1 RETURNDATACOPY RETURNDATASIZE PUSH0 REVERT JUMPDEST POP POP POP JUMP JUMPDEST PUSH0 DUP2 SWAP1 POP SWAP2 SWAP1 POP JUMP JUMPDEST PUSH2 0x116 DUP2 PUSH2 0x104 JUMP JUMPDEST DUP3 MSTORE POP POP JUMP JUMPDEST PUSH0 PUSH1 0x20 DUP3 ADD SWAP1 POP PUSH2 0x12F PUSH0 DUP4 ADD DUP5 PUSH2 0x10D JUMP JUMPDEST SWAP3 SWAP2 POP POP JUMP JUMPDEST PUSH0 DUP1 REVERT JUMPDEST PUSH0 PUSH20 0xFFFFFFFFFFFFFFFFFFFFFFFFFFFFFFFFFFFFFFFF DUP3 AND SWAP1 POP SWAP2 SWAP1 POP JUMP JUMPDEST PUSH0 PUSH2 0x162 DUP3 PUSH2 0x139 JUMP JUMPDEST SWAP1 POP SWAP2 SWAP1 POP JUMP JUMPDEST PUSH2 0x172 DUP2 PUSH2 0x158 JUMP JUMPDEST DUP2 EQ PUSH2 0x17C JUMPI PUSH0 DUP1 REVERT JUMPDEST POP JUMP JUMPDEST PUSH0 DUP2 CALLDATALOAD SWAP1 POP PUSH2 0x18D DUP2 PUSH2 0x169 JUMP JUMPDEST SWAP3 SWAP2 POP POP JUMP JUMPDEST PUSH2 0x19C DUP2 PUSH2 0x104 JUMP JUMPDEST DUP2 EQ PUSH2 0x1A6 JUMPI PUSH0 DUP1 REVERT JUMPDEST POP JUMP JUMPDEST PUSH0 DUP2 CALLDATALOAD SWAP1 POP PUSH2 0x1B7 DUP2 PUSH2 0x193 JUMP JUMPDEST SWAP3 SWAP2 POP POP JUMP JUMPDEST PUSH0 DUP1 PUSH1 0x40 DUP4 DUP6 SUB SLT ISZERO PUSH2 0x1D3 JUMPI PUSH2 0x1D2 PUSH2 0x135 JUMP JUMPDEST JUMPDEST PUSH0 PUSH2 0x1E0 DUP6 DUP3 DUP7 ADD PUSH2 0x17F JUMP JUMPDEST SWAP3 POP POP PUSH1 0x20 PUSH2 0x1F1 DUP6 DUP3 DUP7 ADD PUSH2 0x1A9 JUMP JUMPDEST SWAP2 POP POP SWAP3 POP SWAP3 SWAP1 POP JUMP JUMPDEST PUSH0 DUP3 DUP3 MSTORE PUSH1 0x20 DUP3 ADD SWAP1 POP SWAP3 SWAP2 POP POP JUMP JUMPDEST PUSH32 0x6E6F7420656E6F7567682062616C616E63650000000000000000000000000000 PUSH0 DUP3 ADD MSTORE POP JUMP JUMPDEST PUSH0 PUSH2 0x23F PUSH1 0x12 DUP4 PUSH2 0x1FB JUMP JUMPDEST SWAP2 POP PUSH2 0x24A DUP3 PUSH2 0x20B JUMP JUMPDEST PUSH1 0x20 DUP3 ADD SWAP1 POP SWAP2 SWAP1 POP JUMP JUMPDEST PUSH0 PUSH1 0x20 DUP3 ADD SWAP1 POP DUP2 DUP2 SUB PUSH0 DUP4 ADD MSTORE PUSH2 0x26C DUP2 PUSH2 0x233 JUMP JUMPDEST SWAP1 POP SWAP2 SWAP1 POP JUMP INVALID LOG2 PUSH5 0x6970667358 0x22 SLT KECCAK256 0xE2 SWAP4 AND 0x2A KECCAK256 SWAP10 PUSH22 0x2D62049273F401E66B042E7F409E17294A966C264860 0xFC LT 0xD8 PUSH5 0x736F6C6343 STOP ADDMOD BYTE STOP CALLER "
				},
				"gasEstimates": {
					"creation": {
						"codeDepositCost": "136200",
						"executionCost": "181",
						"totalCost": "136381"
					},
					"external": {
						"receiveEther()": "285",
						"sendEther(address,uint256)": "infinite"
					}
				},
				"methodIdentifiers": {
					"receiveEther()": "a3912ec8",
					"sendEther(address,uint256)": "c1756a2c"
				}
			},
			"storageLayout": {
				"storage": [],
				"types": null
			},
			"userdoc": {
				"kind": "user",
				"methods": {},
				"version": 1
			}
		}
	}
}