{
	"Solidity100/Solidity61-70.sol": {
		"Question70": {
			"abi": [
				{
					"inputs": [
						{
							"internalType": "uint256",
							"name": "_number",
							"type": "uint256"
						},
						{
							"internalType": "string",
							"name": "_name",
							"type": "string"
						}
					],
					"name": "setCustomer",
					"outputs": [],
					"stateMutability": "nonpayable",
					"type": "function"
				}
			],
			"devdoc": {
				"kind": "dev",
				"methods": {},
				"version": 1
			},
			"evm": {
				"assembly": "    /* \"Solidity100/Solidity61-70.sol\":4658:5318  contract Question70 {... */\n  mstore(0x40, 0x80)\n  callvalue\n  dup1\n  iszero\n  tag_1\n  jumpi\n  0x00\n  dup1\n  revert\ntag_1:\n  pop\n  dataSize(sub_0)\n  dup1\n  dataOffset(sub_0)\n  0x00\n  codecopy\n  0x00\n  return\nstop\n\nsub_0: assembly {\n        /* \"Solidity100/Solidity61-70.sol\":4658:5318  contract Question70 {... */\n      mstore(0x40, 0x80)\n      callvalue\n      dup1\n      iszero\n      tag_1\n      jumpi\n      0x00\n      dup1\n      revert\n    tag_1:\n      pop\n      jumpi(tag_2, lt(calldatasize, 0x04))\n      shr(0xe0, calldataload(0x00))\n      dup1\n      0xed4cad8a\n      eq\n      tag_3\n      jumpi\n    tag_2:\n      0x00\n      dup1\n      revert\n        /* \"Solidity100/Solidity61-70.sol\":5081:5315  function setCustomer(uint _number, string memory _name) public {... */\n    tag_3:\n      tag_4\n      0x04\n      dup1\n      calldatasize\n      sub\n      dup2\n      add\n      swap1\n      tag_5\n      swap2\n      swap1\n      tag_6\n      jump\t// in\n    tag_5:\n      tag_7\n      jump\t// in\n    tag_4:\n      stop\n    tag_7:\n        /* \"Solidity100/Solidity61-70.sol\":5154:5176  bytes memory something */\n      0x00\n        /* \"Solidity100/Solidity61-70.sol\":5229:5236  _number */\n      dup3\n        /* \"Solidity100/Solidity61-70.sol\":5238:5243  _name */\n      dup3\n        /* \"Solidity100/Solidity61-70.sol\":5212:5244  abi.encodePacked(_number, _name) */\n      add(0x20, mload(0x40))\n      tag_9\n      swap3\n      swap2\n      swap1\n      tag_10\n      jump\t// in\n    tag_9:\n      mload(0x40)\n      0x20\n      dup2\n      dup4\n      sub\n      sub\n      dup2\n      mstore\n      swap1\n      0x40\n      mstore\n        /* \"Solidity100/Solidity61-70.sol\":5202:5245  keccak256(abi.encodePacked(_number, _name)) */\n      dup1\n      mload\n      swap1\n      0x20\n      add\n      keccak256\n        /* \"Solidity100/Solidity61-70.sol\":5185:5246  abi.encodePacked(keccak256(abi.encodePacked(_number, _name))) */\n      add(0x20, mload(0x40))\n      tag_11\n      swap2\n      swap1\n      tag_12\n      jump\t// in\n    tag_11:\n      mload(0x40)\n      0x20\n      dup2\n      dup4\n      sub\n      sub\n      dup2\n      mstore\n      swap1\n      0x40\n      mstore\n        /* \"Solidity100/Solidity61-70.sol\":5154:5247  bytes memory something = bytes(abi.encodePacked(keccak256(abi.encodePacked(_number, _name)))) */\n      swap1\n      pop\n        /* \"Solidity100/Solidity61-70.sol\":5257:5266  customers */\n      0x00\n        /* \"Solidity100/Solidity61-70.sol\":5272:5307  Customer(_number, _name, something) */\n      mload(0x40)\n      dup1\n      0x60\n      add\n      0x40\n      mstore\n      dup1\n        /* \"Solidity100/Solidity61-70.sol\":5281:5288  _number */\n      dup6\n        /* \"Solidity100/Solidity61-70.sol\":5272:5307  Customer(_number, _name, something) */\n      dup2\n      mstore\n      0x20\n      add\n        /* \"Solidity100/Solidity61-70.sol\":5290:5295  _name */\n      dup5\n        /* \"Solidity100/Solidity61-70.sol\":5272:5307  Customer(_number, _name, something) */\n      dup2\n      mstore\n      0x20\n      add\n        /* \"Solidity100/Solidity61-70.sol\":5297:5306  something */\n      dup4\n        /* \"Solidity100/Solidity61-70.sol\":5272:5307  Customer(_number, _name, something) */\n      dup2\n      mstore\n      pop\n        /* \"Solidity100/Solidity61-70.sol\":5257:5308  customers.push(Customer(_number, _name, something)) */\n      swap1\n      dup1\n      0x01\n      dup2\n      sload\n      add\n      dup1\n      dup3\n      sstore\n      dup1\n      swap2\n      pop\n      pop\n      0x01\n      swap1\n      sub\n      swap1\n      0x00\n      mstore\n      keccak256(0x00, 0x20)\n      swap1\n      0x03\n      mul\n      add\n      0x00\n      swap1\n      swap2\n      swap1\n      swap2\n      swap1\n      swap2\n      pop\n      0x00\n      dup3\n      add\n      mload\n      dup2\n      0x00\n      add\n      sstore\n      0x20\n      dup3\n      add\n      mload\n      dup2\n      0x01\n      add\n      swap1\n      dup2\n      tag_14\n      swap2\n      swap1\n      tag_15\n      jump\t// in\n    tag_14:\n      pop\n      0x40\n      dup3\n      add\n      mload\n      dup2\n      0x02\n      add\n      swap1\n      dup2\n      tag_16\n      swap2\n      swap1\n      tag_17\n      jump\t// in\n    tag_16:\n      pop\n      pop\n      pop\n        /* \"Solidity100/Solidity61-70.sol\":5144:5315  {... */\n      pop\n        /* \"Solidity100/Solidity61-70.sol\":5081:5315  function setCustomer(uint _number, string memory _name) public {... */\n      pop\n      pop\n      jump\t// out\n        /* \"#utility.yul\":7:82   */\n    tag_18:\n        /* \"#utility.yul\":40:46   */\n      0x00\n        /* \"#utility.yul\":73:75   */\n      0x40\n        /* \"#utility.yul\":67:76   */\n      mload\n        /* \"#utility.yul\":57:76   */\n      swap1\n      pop\n        /* \"#utility.yul\":7:82   */\n      swap1\n      jump\t// out\n        /* \"#utility.yul\":88:205   */\n    tag_19:\n        /* \"#utility.yul\":197:198   */\n      0x00\n        /* \"#utility.yul\":194:195   */\n      dup1\n        /* \"#utility.yul\":187:199   */\n      revert\n        /* \"#utility.yul\":211:328   */\n    tag_20:\n        /* \"#utility.yul\":320:321   */\n      0x00\n        /* \"#utility.yul\":317:318   */\n      dup1\n        /* \"#utility.yul\":310:322   */\n      revert\n        /* \"#utility.yul\":334:411   */\n    tag_21:\n        /* \"#utility.yul\":371:378   */\n      0x00\n        /* \"#utility.yul\":400:405   */\n      dup2\n        /* \"#utility.yul\":389:405   */\n      swap1\n      pop\n        /* \"#utility.yul\":334:411   */\n      swap2\n      swap1\n      pop\n      jump\t// out\n        /* \"#utility.yul\":417:539   */\n    tag_22:\n        /* \"#utility.yul\":490:514   */\n      tag_69\n        /* \"#utility.yul\":508:513   */\n      dup2\n        /* \"#utility.yul\":490:514   */\n      tag_21\n      jump\t// in\n    tag_69:\n        /* \"#utility.yul\":483:488   */\n      dup2\n        /* \"#utility.yul\":480:515   */\n      eq\n        /* \"#utility.yul\":470:533   */\n      tag_70\n      jumpi\n        /* \"#utility.yul\":529:530   */\n      0x00\n        /* \"#utility.yul\":526:527   */\n      dup1\n        /* \"#utility.yul\":519:531   */\n      revert\n        /* \"#utility.yul\":470:533   */\n    tag_70:\n        /* \"#utility.yul\":417:539   */\n      pop\n      jump\t// out\n        /* \"#utility.yul\":545:684   */\n    tag_23:\n        /* \"#utility.yul\":591:596   */\n      0x00\n        /* \"#utility.yul\":629:635   */\n      dup2\n        /* \"#utility.yul\":616:636   */\n      calldataload\n        /* \"#utility.yul\":607:636   */\n      swap1\n      pop\n        /* \"#utility.yul\":645:678   */\n      tag_72\n        /* \"#utility.yul\":672:677   */\n      dup2\n        /* \"#utility.yul\":645:678   */\n      tag_22\n      jump\t// in\n    tag_72:\n        /* \"#utility.yul\":545:684   */\n      swap3\n      swap2\n      pop\n      pop\n      jump\t// out\n        /* \"#utility.yul\":690:807   */\n    tag_24:\n        /* \"#utility.yul\":799:800   */\n      0x00\n        /* \"#utility.yul\":796:797   */\n      dup1\n        /* \"#utility.yul\":789:801   */\n      revert\n        /* \"#utility.yul\":813:930   */\n    tag_25:\n        /* \"#utility.yul\":922:923   */\n      0x00\n        /* \"#utility.yul\":919:920   */\n      dup1\n        /* \"#utility.yul\":912:924   */\n      revert\n        /* \"#utility.yul\":936:1038   */\n    tag_26:\n        /* \"#utility.yul\":977:983   */\n      0x00\n        /* \"#utility.yul\":1028:1030   */\n      0x1f\n        /* \"#utility.yul\":1024:1031   */\n      not\n        /* \"#utility.yul\":1019:1021   */\n      0x1f\n        /* \"#utility.yul\":1012:1017   */\n      dup4\n        /* \"#utility.yul\":1008:1022   */\n      add\n        /* \"#utility.yul\":1004:1032   */\n      and\n        /* \"#utility.yul\":994:1032   */\n      swap1\n      pop\n        /* \"#utility.yul\":936:1038   */\n      swap2\n      swap1\n      pop\n      jump\t// out\n        /* \"#utility.yul\":1044:1224   */\n    tag_27:\n        /* \"#utility.yul\":1092:1169   */\n      0x4e487b7100000000000000000000000000000000000000000000000000000000\n        /* \"#utility.yul\":1089:1090   */\n      0x00\n        /* \"#utility.yul\":1082:1170   */\n      mstore\n        /* \"#utility.yul\":1189:1193   */\n      0x41\n        /* \"#utility.yul\":1186:1187   */\n      0x04\n        /* \"#utility.yul\":1179:1194   */\n      mstore\n        /* \"#utility.yul\":1213:1217   */\n      0x24\n        /* \"#utility.yul\":1210:1211   */\n      0x00\n        /* \"#utility.yul\":1203:1218   */\n      revert\n        /* \"#utility.yul\":1230:1511   */\n    tag_28:\n        /* \"#utility.yul\":1313:1340   */\n      tag_78\n        /* \"#utility.yul\":1335:1339   */\n      dup3\n        /* \"#utility.yul\":1313:1340   */\n      tag_26\n      jump\t// in\n    tag_78:\n        /* \"#utility.yul\":1305:1311   */\n      dup2\n        /* \"#utility.yul\":1301:1341   */\n      add\n        /* \"#utility.yul\":1443:1449   */\n      dup2\n        /* \"#utility.yul\":1431:1441   */\n      dup2\n        /* \"#utility.yul\":1428:1450   */\n      lt\n        /* \"#utility.yul\":1407:1425   */\n      0xffffffffffffffff\n        /* \"#utility.yul\":1395:1405   */\n      dup3\n        /* \"#utility.yul\":1392:1426   */\n      gt\n        /* \"#utility.yul\":1389:1451   */\n      or\n        /* \"#utility.yul\":1386:1474   */\n      iszero\n      tag_79\n      jumpi\n        /* \"#utility.yul\":1454:1472   */\n      tag_80\n      tag_27\n      jump\t// in\n    tag_80:\n        /* \"#utility.yul\":1386:1474   */\n    tag_79:\n        /* \"#utility.yul\":1494:1504   */\n      dup1\n        /* \"#utility.yul\":1490:1492   */\n      0x40\n        /* \"#utility.yul\":1483:1505   */\n      mstore\n        /* \"#utility.yul\":1273:1511   */\n      pop\n        /* \"#utility.yul\":1230:1511   */\n      pop\n      pop\n      jump\t// out\n        /* \"#utility.yul\":1517:1646   */\n    tag_29:\n        /* \"#utility.yul\":1551:1557   */\n      0x00\n        /* \"#utility.yul\":1578:1598   */\n      tag_82\n      tag_18\n      jump\t// in\n    tag_82:\n        /* \"#utility.yul\":1568:1598   */\n      swap1\n      pop\n        /* \"#utility.yul\":1607:1640   */\n      tag_83\n        /* \"#utility.yul\":1635:1639   */\n      dup3\n        /* \"#utility.yul\":1627:1633   */\n      dup3\n        /* \"#utility.yul\":1607:1640   */\n      tag_28\n      jump\t// in\n    tag_83:\n        /* \"#utility.yul\":1517:1646   */\n      swap2\n      swap1\n      pop\n      jump\t// out\n        /* \"#utility.yul\":1652:1960   */\n    tag_30:\n        /* \"#utility.yul\":1714:1718   */\n      0x00\n        /* \"#utility.yul\":1804:1822   */\n      0xffffffffffffffff\n        /* \"#utility.yul\":1796:1802   */\n      dup3\n        /* \"#utility.yul\":1793:1823   */\n      gt\n        /* \"#utility.yul\":1790:1846   */\n      iszero\n      tag_85\n      jumpi\n        /* \"#utility.yul\":1826:1844   */\n      tag_86\n      tag_27\n      jump\t// in\n    tag_86:\n        /* \"#utility.yul\":1790:1846   */\n    tag_85:\n        /* \"#utility.yul\":1864:1893   */\n      tag_87\n        /* \"#utility.yul\":1886:1892   */\n      dup3\n        /* \"#utility.yul\":1864:1893   */\n      tag_26\n      jump\t// in\n    tag_87:\n        /* \"#utility.yul\":1856:1893   */\n      swap1\n      pop\n        /* \"#utility.yul\":1948:1952   */\n      0x20\n        /* \"#utility.yul\":1942:1946   */\n      dup2\n        /* \"#utility.yul\":1938:1953   */\n      add\n        /* \"#utility.yul\":1930:1953   */\n      swap1\n      pop\n        /* \"#utility.yul\":1652:1960   */\n      swap2\n      swap1\n      pop\n      jump\t// out\n        /* \"#utility.yul\":1966:2114   */\n    tag_31:\n        /* \"#utility.yul\":2064:2070   */\n      dup3\n        /* \"#utility.yul\":2059:2062   */\n      dup2\n        /* \"#utility.yul\":2054:2057   */\n      dup4\n        /* \"#utility.yul\":2041:2071   */\n      calldatacopy\n        /* \"#utility.yul\":2105:2106   */\n      0x00\n        /* \"#utility.yul\":2096:2102   */\n      dup4\n        /* \"#utility.yul\":2091:2094   */\n      dup4\n        /* \"#utility.yul\":2087:2103   */\n      add\n        /* \"#utility.yul\":2080:2107   */\n      mstore\n        /* \"#utility.yul\":1966:2114   */\n      pop\n      pop\n      pop\n      jump\t// out\n        /* \"#utility.yul\":2120:2545   */\n    tag_32:\n        /* \"#utility.yul\":2198:2203   */\n      0x00\n        /* \"#utility.yul\":2223:2289   */\n      tag_90\n        /* \"#utility.yul\":2239:2288   */\n      tag_91\n        /* \"#utility.yul\":2281:2287   */\n      dup5\n        /* \"#utility.yul\":2239:2288   */\n      tag_30\n      jump\t// in\n    tag_91:\n        /* \"#utility.yul\":2223:2289   */\n      tag_29\n      jump\t// in\n    tag_90:\n        /* \"#utility.yul\":2214:2289   */\n      swap1\n      pop\n        /* \"#utility.yul\":2312:2318   */\n      dup3\n        /* \"#utility.yul\":2305:2310   */\n      dup2\n        /* \"#utility.yul\":2298:2319   */\n      mstore\n        /* \"#utility.yul\":2350:2354   */\n      0x20\n        /* \"#utility.yul\":2343:2348   */\n      dup2\n        /* \"#utility.yul\":2339:2355   */\n      add\n        /* \"#utility.yul\":2388:2391   */\n      dup5\n        /* \"#utility.yul\":2379:2385   */\n      dup5\n        /* \"#utility.yul\":2374:2377   */\n      dup5\n        /* \"#utility.yul\":2370:2386   */\n      add\n        /* \"#utility.yul\":2367:2392   */\n      gt\n        /* \"#utility.yul\":2364:2476   */\n      iszero\n      tag_92\n      jumpi\n        /* \"#utility.yul\":2395:2474   */\n      tag_93\n      tag_25\n      jump\t// in\n    tag_93:\n        /* \"#utility.yul\":2364:2476   */\n    tag_92:\n        /* \"#utility.yul\":2485:2539   */\n      tag_94\n        /* \"#utility.yul\":2532:2538   */\n      dup5\n        /* \"#utility.yul\":2527:2530   */\n      dup3\n        /* \"#utility.yul\":2522:2525   */\n      dup6\n        /* \"#utility.yul\":2485:2539   */\n      tag_31\n      jump\t// in\n    tag_94:\n        /* \"#utility.yul\":2204:2545   */\n      pop\n        /* \"#utility.yul\":2120:2545   */\n      swap4\n      swap3\n      pop\n      pop\n      pop\n      jump\t// out\n        /* \"#utility.yul\":2565:2905   */\n    tag_33:\n        /* \"#utility.yul\":2621:2626   */\n      0x00\n        /* \"#utility.yul\":2670:2673   */\n      dup3\n        /* \"#utility.yul\":2663:2667   */\n      0x1f\n        /* \"#utility.yul\":2655:2661   */\n      dup4\n        /* \"#utility.yul\":2651:2668   */\n      add\n        /* \"#utility.yul\":2647:2674   */\n      slt\n        /* \"#utility.yul\":2637:2759   */\n      tag_96\n      jumpi\n        /* \"#utility.yul\":2678:2757   */\n      tag_97\n      tag_24\n      jump\t// in\n    tag_97:\n        /* \"#utility.yul\":2637:2759   */\n    tag_96:\n        /* \"#utility.yul\":2795:2801   */\n      dup2\n        /* \"#utility.yul\":2782:2802   */\n      calldataload\n        /* \"#utility.yul\":2820:2899   */\n      tag_98\n        /* \"#utility.yul\":2895:2898   */\n      dup5\n        /* \"#utility.yul\":2887:2893   */\n      dup3\n        /* \"#utility.yul\":2880:2884   */\n      0x20\n        /* \"#utility.yul\":2872:2878   */\n      dup7\n        /* \"#utility.yul\":2868:2885   */\n      add\n        /* \"#utility.yul\":2820:2899   */\n      tag_32\n      jump\t// in\n    tag_98:\n        /* \"#utility.yul\":2811:2899   */\n      swap2\n      pop\n        /* \"#utility.yul\":2627:2905   */\n      pop\n        /* \"#utility.yul\":2565:2905   */\n      swap3\n      swap2\n      pop\n      pop\n      jump\t// out\n        /* \"#utility.yul\":2911:3565   */\n    tag_6:\n        /* \"#utility.yul\":2989:2995   */\n      0x00\n        /* \"#utility.yul\":2997:3003   */\n      dup1\n        /* \"#utility.yul\":3046:3048   */\n      0x40\n        /* \"#utility.yul\":3034:3043   */\n      dup4\n        /* \"#utility.yul\":3025:3032   */\n      dup6\n        /* \"#utility.yul\":3021:3044   */\n      sub\n        /* \"#utility.yul\":3017:3049   */\n      slt\n        /* \"#utility.yul\":3014:3133   */\n      iszero\n      tag_100\n      jumpi\n        /* \"#utility.yul\":3052:3131   */\n      tag_101\n      tag_19\n      jump\t// in\n    tag_101:\n        /* \"#utility.yul\":3014:3133   */\n    tag_100:\n        /* \"#utility.yul\":3172:3173   */\n      0x00\n        /* \"#utility.yul\":3197:3250   */\n      tag_102\n        /* \"#utility.yul\":3242:3249   */\n      dup6\n        /* \"#utility.yul\":3233:3239   */\n      dup3\n        /* \"#utility.yul\":3222:3231   */\n      dup7\n        /* \"#utility.yul\":3218:3240   */\n      add\n        /* \"#utility.yul\":3197:3250   */\n      tag_23\n      jump\t// in\n    tag_102:\n        /* \"#utility.yul\":3187:3250   */\n      swap3\n      pop\n        /* \"#utility.yul\":3143:3260   */\n      pop\n        /* \"#utility.yul\":3327:3329   */\n      0x20\n        /* \"#utility.yul\":3316:3325   */\n      dup4\n        /* \"#utility.yul\":3312:3330   */\n      add\n        /* \"#utility.yul\":3299:3331   */\n      calldataload\n        /* \"#utility.yul\":3358:3376   */\n      0xffffffffffffffff\n        /* \"#utility.yul\":3350:3356   */\n      dup2\n        /* \"#utility.yul\":3347:3377   */\n      gt\n        /* \"#utility.yul\":3344:3461   */\n      iszero\n      tag_103\n      jumpi\n        /* \"#utility.yul\":3380:3459   */\n      tag_104\n      tag_20\n      jump\t// in\n    tag_104:\n        /* \"#utility.yul\":3344:3461   */\n    tag_103:\n        /* \"#utility.yul\":3485:3548   */\n      tag_105\n        /* \"#utility.yul\":3540:3547   */\n      dup6\n        /* \"#utility.yul\":3531:3537   */\n      dup3\n        /* \"#utility.yul\":3520:3529   */\n      dup7\n        /* \"#utility.yul\":3516:3538   */\n      add\n        /* \"#utility.yul\":3485:3548   */\n      tag_33\n      jump\t// in\n    tag_105:\n        /* \"#utility.yul\":3475:3548   */\n      swap2\n      pop\n        /* \"#utility.yul\":3270:3558   */\n      pop\n        /* \"#utility.yul\":2911:3565   */\n      swap3\n      pop\n      swap3\n      swap1\n      pop\n      jump\t// out\n        /* \"#utility.yul\":3571:3650   */\n    tag_34:\n        /* \"#utility.yul\":3610:3617   */\n      0x00\n        /* \"#utility.yul\":3639:3644   */\n      dup2\n        /* \"#utility.yul\":3628:3644   */\n      swap1\n      pop\n        /* \"#utility.yul\":3571:3650   */\n      swap2\n      swap1\n      pop\n      jump\t// out\n        /* \"#utility.yul\":3656:3813   */\n    tag_35:\n        /* \"#utility.yul\":3761:3806   */\n      tag_108\n        /* \"#utility.yul\":3781:3805   */\n      tag_109\n        /* \"#utility.yul\":3799:3804   */\n      dup3\n        /* \"#utility.yul\":3781:3805   */\n      tag_21\n      jump\t// in\n    tag_109:\n        /* \"#utility.yul\":3761:3806   */\n      tag_34\n      jump\t// in\n    tag_108:\n        /* \"#utility.yul\":3756:3759   */\n      dup3\n        /* \"#utility.yul\":3749:3807   */\n      mstore\n        /* \"#utility.yul\":3656:3813   */\n      pop\n      pop\n      jump\t// out\n        /* \"#utility.yul\":3819:3918   */\n    tag_36:\n        /* \"#utility.yul\":3871:3877   */\n      0x00\n        /* \"#utility.yul\":3905:3910   */\n      dup2\n        /* \"#utility.yul\":3899:3911   */\n      mload\n        /* \"#utility.yul\":3889:3911   */\n      swap1\n      pop\n        /* \"#utility.yul\":3819:3918   */\n      swap2\n      swap1\n      pop\n      jump\t// out\n        /* \"#utility.yul\":3924:4072   */\n    tag_37:\n        /* \"#utility.yul\":4026:4037   */\n      0x00\n        /* \"#utility.yul\":4063:4066   */\n      dup2\n        /* \"#utility.yul\":4048:4066   */\n      swap1\n      pop\n        /* \"#utility.yul\":3924:4072   */\n      swap3\n      swap2\n      pop\n      pop\n      jump\t// out\n        /* \"#utility.yul\":4078:4217   */\n    tag_38:\n        /* \"#utility.yul\":4167:4173   */\n      dup3\n        /* \"#utility.yul\":4162:4165   */\n      dup2\n        /* \"#utility.yul\":4157:4160   */\n      dup4\n        /* \"#utility.yul\":4151:4174   */\n      mcopy\n        /* \"#utility.yul\":4208:4209   */\n      0x00\n        /* \"#utility.yul\":4199:4205   */\n      dup4\n        /* \"#utility.yul\":4194:4197   */\n      dup4\n        /* \"#utility.yul\":4190:4206   */\n      add\n        /* \"#utility.yul\":4183:4210   */\n      mstore\n        /* \"#utility.yul\":4078:4217   */\n      pop\n      pop\n      pop\n      jump\t// out\n        /* \"#utility.yul\":4223:4613   */\n    tag_39:\n        /* \"#utility.yul\":4329:4332   */\n      0x00\n        /* \"#utility.yul\":4357:4396   */\n      tag_114\n        /* \"#utility.yul\":4390:4395   */\n      dup3\n        /* \"#utility.yul\":4357:4396   */\n      tag_36\n      jump\t// in\n    tag_114:\n        /* \"#utility.yul\":4412:4501   */\n      tag_115\n        /* \"#utility.yul\":4494:4500   */\n      dup2\n        /* \"#utility.yul\":4489:4492   */\n      dup6\n        /* \"#utility.yul\":4412:4501   */\n      tag_37\n      jump\t// in\n    tag_115:\n        /* \"#utility.yul\":4405:4501   */\n      swap4\n      pop\n        /* \"#utility.yul\":4510:4575   */\n      tag_116\n        /* \"#utility.yul\":4568:4574   */\n      dup2\n        /* \"#utility.yul\":4563:4566   */\n      dup6\n        /* \"#utility.yul\":4556:4560   */\n      0x20\n        /* \"#utility.yul\":4549:4554   */\n      dup7\n        /* \"#utility.yul\":4545:4561   */\n      add\n        /* \"#utility.yul\":4510:4575   */\n      tag_38\n      jump\t// in\n    tag_116:\n        /* \"#utility.yul\":4600:4606   */\n      dup1\n        /* \"#utility.yul\":4595:4598   */\n      dup5\n        /* \"#utility.yul\":4591:4607   */\n      add\n        /* \"#utility.yul\":4584:4607   */\n      swap2\n      pop\n        /* \"#utility.yul\":4333:4613   */\n      pop\n        /* \"#utility.yul\":4223:4613   */\n      swap3\n      swap2\n      pop\n      pop\n      jump\t// out\n        /* \"#utility.yul\":4619:5035   */\n    tag_10:\n        /* \"#utility.yul\":4779:4782   */\n      0x00\n        /* \"#utility.yul\":4794:4869   */\n      tag_118\n        /* \"#utility.yul\":4865:4868   */\n      dup3\n        /* \"#utility.yul\":4856:4862   */\n      dup6\n        /* \"#utility.yul\":4794:4869   */\n      tag_35\n      jump\t// in\n    tag_118:\n        /* \"#utility.yul\":4894:4896   */\n      0x20\n        /* \"#utility.yul\":4889:4892   */\n      dup3\n        /* \"#utility.yul\":4885:4897   */\n      add\n        /* \"#utility.yul\":4878:4897   */\n      swap2\n      pop\n        /* \"#utility.yul\":4914:5009   */\n      tag_119\n        /* \"#utility.yul\":5005:5008   */\n      dup3\n        /* \"#utility.yul\":4996:5002   */\n      dup5\n        /* \"#utility.yul\":4914:5009   */\n      tag_39\n      jump\t// in\n    tag_119:\n        /* \"#utility.yul\":4907:5009   */\n      swap2\n      pop\n        /* \"#utility.yul\":5026:5029   */\n      dup2\n        /* \"#utility.yul\":5019:5029   */\n      swap1\n      pop\n        /* \"#utility.yul\":4619:5035   */\n      swap4\n      swap3\n      pop\n      pop\n      pop\n      jump\t// out\n        /* \"#utility.yul\":5041:5118   */\n    tag_40:\n        /* \"#utility.yul\":5078:5085   */\n      0x00\n        /* \"#utility.yul\":5107:5112   */\n      dup2\n        /* \"#utility.yul\":5096:5112   */\n      swap1\n      pop\n        /* \"#utility.yul\":5041:5118   */\n      swap2\n      swap1\n      pop\n      jump\t// out\n        /* \"#utility.yul\":5124:5203   */\n    tag_41:\n        /* \"#utility.yul\":5163:5170   */\n      0x00\n        /* \"#utility.yul\":5192:5197   */\n      dup2\n        /* \"#utility.yul\":5181:5197   */\n      swap1\n      pop\n        /* \"#utility.yul\":5124:5203   */\n      swap2\n      swap1\n      pop\n      jump\t// out\n        /* \"#utility.yul\":5209:5366   */\n    tag_42:\n        /* \"#utility.yul\":5314:5359   */\n      tag_123\n        /* \"#utility.yul\":5334:5358   */\n      tag_124\n        /* \"#utility.yul\":5352:5357   */\n      dup3\n        /* \"#utility.yul\":5334:5358   */\n      tag_40\n      jump\t// in\n    tag_124:\n        /* \"#utility.yul\":5314:5359   */\n      tag_41\n      jump\t// in\n    tag_123:\n        /* \"#utility.yul\":5309:5312   */\n      dup3\n        /* \"#utility.yul\":5302:5360   */\n      mstore\n        /* \"#utility.yul\":5209:5366   */\n      pop\n      pop\n      jump\t// out\n        /* \"#utility.yul\":5372:5628   */\n    tag_12:\n        /* \"#utility.yul\":5484:5487   */\n      0x00\n        /* \"#utility.yul\":5499:5574   */\n      tag_126\n        /* \"#utility.yul\":5570:5573   */\n      dup3\n        /* \"#utility.yul\":5561:5567   */\n      dup5\n        /* \"#utility.yul\":5499:5574   */\n      tag_42\n      jump\t// in\n    tag_126:\n        /* \"#utility.yul\":5599:5601   */\n      0x20\n        /* \"#utility.yul\":5594:5597   */\n      dup3\n        /* \"#utility.yul\":5590:5602   */\n      add\n        /* \"#utility.yul\":5583:5602   */\n      swap2\n      pop\n        /* \"#utility.yul\":5619:5622   */\n      dup2\n        /* \"#utility.yul\":5612:5622   */\n      swap1\n      pop\n        /* \"#utility.yul\":5372:5628   */\n      swap3\n      swap2\n      pop\n      pop\n      jump\t// out\n        /* \"#utility.yul\":5634:5814   */\n    tag_43:\n        /* \"#utility.yul\":5682:5759   */\n      0x4e487b7100000000000000000000000000000000000000000000000000000000\n        /* \"#utility.yul\":5679:5680   */\n      0x00\n        /* \"#utility.yul\":5672:5760   */\n      mstore\n        /* \"#utility.yul\":5779:5783   */\n      0x22\n        /* \"#utility.yul\":5776:5777   */\n      0x04\n        /* \"#utility.yul\":5769:5784   */\n      mstore\n        /* \"#utility.yul\":5803:5807   */\n      0x24\n        /* \"#utility.yul\":5800:5801   */\n      0x00\n        /* \"#utility.yul\":5793:5808   */\n      revert\n        /* \"#utility.yul\":5820:6140   */\n    tag_44:\n        /* \"#utility.yul\":5864:5870   */\n      0x00\n        /* \"#utility.yul\":5901:5902   */\n      0x02\n        /* \"#utility.yul\":5895:5899   */\n      dup3\n        /* \"#utility.yul\":5891:5903   */\n      div\n        /* \"#utility.yul\":5881:5903   */\n      swap1\n      pop\n        /* \"#utility.yul\":5948:5949   */\n      0x01\n        /* \"#utility.yul\":5942:5946   */\n      dup3\n        /* \"#utility.yul\":5938:5950   */\n      and\n        /* \"#utility.yul\":5969:5987   */\n      dup1\n        /* \"#utility.yul\":5959:6040   */\n      tag_129\n      jumpi\n        /* \"#utility.yul\":6025:6029   */\n      0x7f\n        /* \"#utility.yul\":6017:6023   */\n      dup3\n        /* \"#utility.yul\":6013:6030   */\n      and\n        /* \"#utility.yul\":6003:6030   */\n      swap2\n      pop\n        /* \"#utility.yul\":5959:6040   */\n    tag_129:\n        /* \"#utility.yul\":6087:6089   */\n      0x20\n        /* \"#utility.yul\":6079:6085   */\n      dup3\n        /* \"#utility.yul\":6076:6090   */\n      lt\n        /* \"#utility.yul\":6056:6074   */\n      dup2\n        /* \"#utility.yul\":6053:6091   */\n      sub\n        /* \"#utility.yul\":6050:6134   */\n      tag_130\n      jumpi\n        /* \"#utility.yul\":6106:6124   */\n      tag_131\n      tag_43\n      jump\t// in\n    tag_131:\n        /* \"#utility.yul\":6050:6134   */\n    tag_130:\n        /* \"#utility.yul\":5871:6140   */\n      pop\n        /* \"#utility.yul\":5820:6140   */\n      swap2\n      swap1\n      pop\n      jump\t// out\n        /* \"#utility.yul\":6146:6287   */\n    tag_45:\n        /* \"#utility.yul\":6195:6199   */\n      0x00\n        /* \"#utility.yul\":6218:6221   */\n      dup2\n        /* \"#utility.yul\":6210:6221   */\n      swap1\n      pop\n        /* \"#utility.yul\":6241:6244   */\n      dup2\n        /* \"#utility.yul\":6238:6239   */\n      0x00\n        /* \"#utility.yul\":6231:6245   */\n      mstore\n        /* \"#utility.yul\":6275:6279   */\n      0x20\n        /* \"#utility.yul\":6272:6273   */\n      0x00\n        /* \"#utility.yul\":6262:6280   */\n      keccak256\n        /* \"#utility.yul\":6254:6280   */\n      swap1\n      pop\n        /* \"#utility.yul\":6146:6287   */\n      swap2\n      swap1\n      pop\n      jump\t// out\n        /* \"#utility.yul\":6293:6386   */\n    tag_46:\n        /* \"#utility.yul\":6330:6336   */\n      0x00\n        /* \"#utility.yul\":6377:6379   */\n      0x20\n        /* \"#utility.yul\":6372:6374   */\n      0x1f\n        /* \"#utility.yul\":6365:6370   */\n      dup4\n        /* \"#utility.yul\":6361:6375   */\n      add\n        /* \"#utility.yul\":6357:6380   */\n      div\n        /* \"#utility.yul\":6347:6380   */\n      swap1\n      pop\n        /* \"#utility.yul\":6293:6386   */\n      swap2\n      swap1\n      pop\n      jump\t// out\n        /* \"#utility.yul\":6392:6499   */\n    tag_47:\n        /* \"#utility.yul\":6436:6444   */\n      0x00\n        /* \"#utility.yul\":6486:6491   */\n      dup3\n        /* \"#utility.yul\":6480:6484   */\n      dup3\n        /* \"#utility.yul\":6476:6492   */\n      shl\n        /* \"#utility.yul\":6455:6492   */\n      swap1\n      pop\n        /* \"#utility.yul\":6392:6499   */\n      swap3\n      swap2\n      pop\n      pop\n      jump\t// out\n        /* \"#utility.yul\":6505:6898   */\n    tag_48:\n        /* \"#utility.yul\":6574:6580   */\n      0x00\n        /* \"#utility.yul\":6624:6625   */\n      0x08\n        /* \"#utility.yul\":6612:6622   */\n      dup4\n        /* \"#utility.yul\":6608:6626   */\n      mul\n        /* \"#utility.yul\":6647:6744   */\n      tag_136\n        /* \"#utility.yul\":6677:6743   */\n      0xffffffffffffffffffffffffffffffffffffffffffffffffffffffffffffffff\n        /* \"#utility.yul\":6666:6675   */\n      dup3\n        /* \"#utility.yul\":6647:6744   */\n      tag_47\n      jump\t// in\n    tag_136:\n        /* \"#utility.yul\":6765:6804   */\n      tag_137\n        /* \"#utility.yul\":6795:6803   */\n      dup7\n        /* \"#utility.yul\":6784:6793   */\n      dup4\n        /* \"#utility.yul\":6765:6804   */\n      tag_47\n      jump\t// in\n    tag_137:\n        /* \"#utility.yul\":6753:6804   */\n      swap6\n      pop\n        /* \"#utility.yul\":6837:6841   */\n      dup1\n        /* \"#utility.yul\":6833:6842   */\n      not\n        /* \"#utility.yul\":6826:6831   */\n      dup5\n        /* \"#utility.yul\":6822:6843   */\n      and\n        /* \"#utility.yul\":6813:6843   */\n      swap4\n      pop\n        /* \"#utility.yul\":6886:6890   */\n      dup1\n        /* \"#utility.yul\":6876:6884   */\n      dup7\n        /* \"#utility.yul\":6872:6891   */\n      and\n        /* \"#utility.yul\":6865:6870   */\n      dup5\n        /* \"#utility.yul\":6862:6892   */\n      or\n        /* \"#utility.yul\":6852:6892   */\n      swap3\n      pop\n        /* \"#utility.yul\":6581:6898   */\n      pop\n      pop\n        /* \"#utility.yul\":6505:6898   */\n      swap4\n      swap3\n      pop\n      pop\n      pop\n      jump\t// out\n        /* \"#utility.yul\":6904:6964   */\n    tag_49:\n        /* \"#utility.yul\":6932:6935   */\n      0x00\n        /* \"#utility.yul\":6953:6958   */\n      dup2\n        /* \"#utility.yul\":6946:6958   */\n      swap1\n      pop\n        /* \"#utility.yul\":6904:6964   */\n      swap2\n      swap1\n      pop\n      jump\t// out\n        /* \"#utility.yul\":6970:7112   */\n    tag_50:\n        /* \"#utility.yul\":7020:7029   */\n      0x00\n        /* \"#utility.yul\":7053:7106   */\n      tag_140\n        /* \"#utility.yul\":7071:7105   */\n      tag_141\n        /* \"#utility.yul\":7080:7104   */\n      tag_142\n        /* \"#utility.yul\":7098:7103   */\n      dup5\n        /* \"#utility.yul\":7080:7104   */\n      tag_21\n      jump\t// in\n    tag_142:\n        /* \"#utility.yul\":7071:7105   */\n      tag_49\n      jump\t// in\n    tag_141:\n        /* \"#utility.yul\":7053:7106   */\n      tag_21\n      jump\t// in\n    tag_140:\n        /* \"#utility.yul\":7040:7106   */\n      swap1\n      pop\n        /* \"#utility.yul\":6970:7112   */\n      swap2\n      swap1\n      pop\n      jump\t// out\n        /* \"#utility.yul\":7118:7193   */\n    tag_51:\n        /* \"#utility.yul\":7161:7164   */\n      0x00\n        /* \"#utility.yul\":7182:7187   */\n      dup2\n        /* \"#utility.yul\":7175:7187   */\n      swap1\n      pop\n        /* \"#utility.yul\":7118:7193   */\n      swap2\n      swap1\n      pop\n      jump\t// out\n        /* \"#utility.yul\":7199:7468   */\n    tag_52:\n        /* \"#utility.yul\":7309:7348   */\n      tag_145\n        /* \"#utility.yul\":7340:7347   */\n      dup4\n        /* \"#utility.yul\":7309:7348   */\n      tag_50\n      jump\t// in\n    tag_145:\n        /* \"#utility.yul\":7370:7461   */\n      tag_146\n        /* \"#utility.yul\":7419:7460   */\n      tag_147\n        /* \"#utility.yul\":7443:7459   */\n      dup3\n        /* \"#utility.yul\":7419:7460   */\n      tag_51\n      jump\t// in\n    tag_147:\n        /* \"#utility.yul\":7411:7417   */\n      dup5\n        /* \"#utility.yul\":7404:7408   */\n      dup5\n        /* \"#utility.yul\":7398:7409   */\n      sload\n        /* \"#utility.yul\":7370:7461   */\n      tag_48\n      jump\t// in\n    tag_146:\n        /* \"#utility.yul\":7364:7368   */\n      dup3\n        /* \"#utility.yul\":7357:7462   */\n      sstore\n        /* \"#utility.yul\":7275:7468   */\n      pop\n        /* \"#utility.yul\":7199:7468   */\n      pop\n      pop\n      pop\n      jump\t// out\n        /* \"#utility.yul\":7474:7547   */\n    tag_53:\n        /* \"#utility.yul\":7519:7522   */\n      0x00\n        /* \"#utility.yul\":7474:7547   */\n      swap1\n      jump\t// out\n        /* \"#utility.yul\":7553:7742   */\n    tag_54:\n        /* \"#utility.yul\":7630:7662   */\n      tag_150\n      tag_53\n      jump\t// in\n    tag_150:\n        /* \"#utility.yul\":7671:7736   */\n      tag_151\n        /* \"#utility.yul\":7729:7735   */\n      dup2\n        /* \"#utility.yul\":7721:7727   */\n      dup5\n        /* \"#utility.yul\":7715:7719   */\n      dup5\n        /* \"#utility.yul\":7671:7736   */\n      tag_52\n      jump\t// in\n    tag_151:\n        /* \"#utility.yul\":7606:7742   */\n      pop\n        /* \"#utility.yul\":7553:7742   */\n      pop\n      pop\n      jump\t// out\n        /* \"#utility.yul\":7748:7934   */\n    tag_55:\n        /* \"#utility.yul\":7808:7928   */\n    tag_153:\n        /* \"#utility.yul\":7825:7828   */\n      dup2\n        /* \"#utility.yul\":7818:7823   */\n      dup2\n        /* \"#utility.yul\":7815:7829   */\n      lt\n        /* \"#utility.yul\":7808:7928   */\n      iszero\n      tag_155\n      jumpi\n        /* \"#utility.yul\":7879:7918   */\n      tag_156\n        /* \"#utility.yul\":7916:7917   */\n      0x00\n        /* \"#utility.yul\":7909:7914   */\n      dup3\n        /* \"#utility.yul\":7879:7918   */\n      tag_54\n      jump\t// in\n    tag_156:\n        /* \"#utility.yul\":7852:7853   */\n      0x01\n        /* \"#utility.yul\":7845:7850   */\n      dup2\n        /* \"#utility.yul\":7841:7854   */\n      add\n        /* \"#utility.yul\":7832:7854   */\n      swap1\n      pop\n        /* \"#utility.yul\":7808:7928   */\n      jump(tag_153)\n    tag_155:\n        /* \"#utility.yul\":7748:7934   */\n      pop\n      pop\n      jump\t// out\n        /* \"#utility.yul\":7940:8483   */\n    tag_56:\n        /* \"#utility.yul\":8041:8043   */\n      0x1f\n        /* \"#utility.yul\":8036:8039   */\n      dup3\n        /* \"#utility.yul\":8033:8044   */\n      gt\n        /* \"#utility.yul\":8030:8476   */\n      iszero\n      tag_158\n      jumpi\n        /* \"#utility.yul\":8075:8113   */\n      tag_159\n        /* \"#utility.yul\":8107:8112   */\n      dup2\n        /* \"#utility.yul\":8075:8113   */\n      tag_45\n      jump\t// in\n    tag_159:\n        /* \"#utility.yul\":8159:8188   */\n      tag_160\n        /* \"#utility.yul\":8177:8187   */\n      dup5\n        /* \"#utility.yul\":8159:8188   */\n      tag_46\n      jump\t// in\n    tag_160:\n        /* \"#utility.yul\":8149:8157   */\n      dup2\n        /* \"#utility.yul\":8145:8189   */\n      add\n        /* \"#utility.yul\":8342:8344   */\n      0x20\n        /* \"#utility.yul\":8330:8340   */\n      dup6\n        /* \"#utility.yul\":8327:8345   */\n      lt\n        /* \"#utility.yul\":8324:8373   */\n      iszero\n      tag_161\n      jumpi\n        /* \"#utility.yul\":8363:8371   */\n      dup2\n        /* \"#utility.yul\":8348:8371   */\n      swap1\n      pop\n        /* \"#utility.yul\":8324:8373   */\n    tag_161:\n        /* \"#utility.yul\":8386:8466   */\n      tag_162\n        /* \"#utility.yul\":8442:8464   */\n      tag_163\n        /* \"#utility.yul\":8460:8463   */\n      dup6\n        /* \"#utility.yul\":8442:8464   */\n      tag_46\n      jump\t// in\n    tag_163:\n        /* \"#utility.yul\":8432:8440   */\n      dup4\n        /* \"#utility.yul\":8428:8465   */\n      add\n        /* \"#utility.yul\":8415:8426   */\n      dup3\n        /* \"#utility.yul\":8386:8466   */\n      tag_55\n      jump\t// in\n    tag_162:\n        /* \"#utility.yul\":8045:8476   */\n      pop\n      pop\n        /* \"#utility.yul\":8030:8476   */\n    tag_158:\n        /* \"#utility.yul\":7940:8483   */\n      pop\n      pop\n      pop\n      jump\t// out\n        /* \"#utility.yul\":8489:8606   */\n    tag_57:\n        /* \"#utility.yul\":8543:8551   */\n      0x00\n        /* \"#utility.yul\":8593:8598   */\n      dup3\n        /* \"#utility.yul\":8587:8591   */\n      dup3\n        /* \"#utility.yul\":8583:8599   */\n      shr\n        /* \"#utility.yul\":8562:8599   */\n      swap1\n      pop\n        /* \"#utility.yul\":8489:8606   */\n      swap3\n      swap2\n      pop\n      pop\n      jump\t// out\n        /* \"#utility.yul\":8612:8781   */\n    tag_58:\n        /* \"#utility.yul\":8656:8662   */\n      0x00\n        /* \"#utility.yul\":8689:8740   */\n      tag_166\n        /* \"#utility.yul\":8737:8738   */\n      0x00\n        /* \"#utility.yul\":8733:8739   */\n      not\n        /* \"#utility.yul\":8725:8730   */\n      dup5\n        /* \"#utility.yul\":8722:8723   */\n      0x08\n        /* \"#utility.yul\":8718:8731   */\n      mul\n        /* \"#utility.yul\":8689:8740   */\n      tag_57\n      jump\t// in\n    tag_166:\n        /* \"#utility.yul\":8685:8741   */\n      not\n        /* \"#utility.yul\":8770:8774   */\n      dup1\n        /* \"#utility.yul\":8764:8768   */\n      dup4\n        /* \"#utility.yul\":8760:8775   */\n      and\n        /* \"#utility.yul\":8750:8775   */\n      swap2\n      pop\n        /* \"#utility.yul\":8663:8781   */\n      pop\n        /* \"#utility.yul\":8612:8781   */\n      swap3\n      swap2\n      pop\n      pop\n      jump\t// out\n        /* \"#utility.yul\":8786:9081   */\n    tag_59:\n        /* \"#utility.yul\":8862:8866   */\n      0x00\n        /* \"#utility.yul\":9008:9037   */\n      tag_168\n        /* \"#utility.yul\":9033:9036   */\n      dup4\n        /* \"#utility.yul\":9027:9031   */\n      dup4\n        /* \"#utility.yul\":9008:9037   */\n      tag_58\n      jump\t// in\n    tag_168:\n        /* \"#utility.yul\":9000:9037   */\n      swap2\n      pop\n        /* \"#utility.yul\":9070:9073   */\n      dup3\n        /* \"#utility.yul\":9067:9068   */\n      0x02\n        /* \"#utility.yul\":9063:9074   */\n      mul\n        /* \"#utility.yul\":9057:9061   */\n      dup3\n        /* \"#utility.yul\":9054:9075   */\n      or\n        /* \"#utility.yul\":9046:9075   */\n      swap1\n      pop\n        /* \"#utility.yul\":8786:9081   */\n      swap3\n      swap2\n      pop\n      pop\n      jump\t// out\n        /* \"#utility.yul\":9086:10481   */\n    tag_15:\n        /* \"#utility.yul\":9203:9240   */\n      tag_170\n        /* \"#utility.yul\":9236:9239   */\n      dup3\n        /* \"#utility.yul\":9203:9240   */\n      tag_36\n      jump\t// in\n    tag_170:\n        /* \"#utility.yul\":9305:9323   */\n      0xffffffffffffffff\n        /* \"#utility.yul\":9297:9303   */\n      dup2\n        /* \"#utility.yul\":9294:9324   */\n      gt\n        /* \"#utility.yul\":9291:9347   */\n      iszero\n      tag_171\n      jumpi\n        /* \"#utility.yul\":9327:9345   */\n      tag_172\n      tag_27\n      jump\t// in\n    tag_172:\n        /* \"#utility.yul\":9291:9347   */\n    tag_171:\n        /* \"#utility.yul\":9371:9409   */\n      tag_173\n        /* \"#utility.yul\":9403:9407   */\n      dup3\n        /* \"#utility.yul\":9397:9408   */\n      sload\n        /* \"#utility.yul\":9371:9409   */\n      tag_44\n      jump\t// in\n    tag_173:\n        /* \"#utility.yul\":9456:9523   */\n      tag_174\n        /* \"#utility.yul\":9516:9522   */\n      dup3\n        /* \"#utility.yul\":9508:9514   */\n      dup3\n        /* \"#utility.yul\":9502:9506   */\n      dup6\n        /* \"#utility.yul\":9456:9523   */\n      tag_56\n      jump\t// in\n    tag_174:\n        /* \"#utility.yul\":9550:9551   */\n      0x00\n        /* \"#utility.yul\":9574:9578   */\n      0x20\n        /* \"#utility.yul\":9561:9578   */\n      swap1\n      pop\n        /* \"#utility.yul\":9606:9608   */\n      0x1f\n        /* \"#utility.yul\":9598:9604   */\n      dup4\n        /* \"#utility.yul\":9595:9609   */\n      gt\n        /* \"#utility.yul\":9623:9624   */\n      0x01\n        /* \"#utility.yul\":9618:10236   */\n      dup2\n      eq\n      tag_176\n      jumpi\n        /* \"#utility.yul\":10280:10281   */\n      0x00\n        /* \"#utility.yul\":10297:10303   */\n      dup5\n        /* \"#utility.yul\":10294:10371   */\n      iszero\n      tag_177\n      jumpi\n        /* \"#utility.yul\":10346:10355   */\n      dup3\n        /* \"#utility.yul\":10341:10344   */\n      dup8\n        /* \"#utility.yul\":10337:10356   */\n      add\n        /* \"#utility.yul\":10331:10357   */\n      mload\n        /* \"#utility.yul\":10322:10357   */\n      swap1\n      pop\n        /* \"#utility.yul\":10294:10371   */\n    tag_177:\n        /* \"#utility.yul\":10397:10464   */\n      tag_178\n        /* \"#utility.yul\":10457:10463   */\n      dup6\n        /* \"#utility.yul\":10450:10455   */\n      dup3\n        /* \"#utility.yul\":10397:10464   */\n      tag_59\n      jump\t// in\n    tag_178:\n        /* \"#utility.yul\":10391:10395   */\n      dup7\n        /* \"#utility.yul\":10384:10465   */\n      sstore\n        /* \"#utility.yul\":10253:10475   */\n      pop\n        /* \"#utility.yul\":9588:10475   */\n      jump(tag_175)\n        /* \"#utility.yul\":9618:10236   */\n    tag_176:\n        /* \"#utility.yul\":9670:9674   */\n      0x1f\n        /* \"#utility.yul\":9666:9675   */\n      not\n        /* \"#utility.yul\":9658:9664   */\n      dup5\n        /* \"#utility.yul\":9654:9676   */\n      and\n        /* \"#utility.yul\":9704:9741   */\n      tag_179\n        /* \"#utility.yul\":9736:9740   */\n      dup7\n        /* \"#utility.yul\":9704:9741   */\n      tag_45\n      jump\t// in\n    tag_179:\n        /* \"#utility.yul\":9763:9764   */\n      0x00\n        /* \"#utility.yul\":9777:9985   */\n    tag_180:\n        /* \"#utility.yul\":9791:9798   */\n      dup3\n        /* \"#utility.yul\":9788:9789   */\n      dup2\n        /* \"#utility.yul\":9785:9799   */\n      lt\n        /* \"#utility.yul\":9777:9985   */\n      iszero\n      tag_182\n      jumpi\n        /* \"#utility.yul\":9870:9879   */\n      dup5\n        /* \"#utility.yul\":9865:9868   */\n      dup10\n        /* \"#utility.yul\":9861:9880   */\n      add\n        /* \"#utility.yul\":9855:9881   */\n      mload\n        /* \"#utility.yul\":9847:9853   */\n      dup3\n        /* \"#utility.yul\":9840:9882   */\n      sstore\n        /* \"#utility.yul\":9921:9922   */\n      0x01\n        /* \"#utility.yul\":9913:9919   */\n      dup3\n        /* \"#utility.yul\":9909:9923   */\n      add\n        /* \"#utility.yul\":9899:9923   */\n      swap2\n      pop\n        /* \"#utility.yul\":9968:9970   */\n      0x20\n        /* \"#utility.yul\":9957:9966   */\n      dup6\n        /* \"#utility.yul\":9953:9971   */\n      add\n        /* \"#utility.yul\":9940:9971   */\n      swap5\n      pop\n        /* \"#utility.yul\":9814:9818   */\n      0x20\n        /* \"#utility.yul\":9811:9812   */\n      dup2\n        /* \"#utility.yul\":9807:9819   */\n      add\n        /* \"#utility.yul\":9802:9819   */\n      swap1\n      pop\n        /* \"#utility.yul\":9777:9985   */\n      jump(tag_180)\n    tag_182:\n        /* \"#utility.yul\":10013:10019   */\n      dup7\n        /* \"#utility.yul\":10004:10011   */\n      dup4\n        /* \"#utility.yul\":10001:10020   */\n      lt\n        /* \"#utility.yul\":9998:10177   */\n      iszero\n      tag_183\n      jumpi\n        /* \"#utility.yul\":10071:10080   */\n      dup5\n        /* \"#utility.yul\":10066:10069   */\n      dup10\n        /* \"#utility.yul\":10062:10081   */\n      add\n        /* \"#utility.yul\":10056:10082   */\n      mload\n        /* \"#utility.yul\":10114:10162   */\n      tag_184\n        /* \"#utility.yul\":10156:10160   */\n      0x1f\n        /* \"#utility.yul\":10148:10154   */\n      dup10\n        /* \"#utility.yul\":10144:10161   */\n      and\n        /* \"#utility.yul\":10133:10142   */\n      dup3\n        /* \"#utility.yul\":10114:10162   */\n      tag_58\n      jump\t// in\n    tag_184:\n        /* \"#utility.yul\":10106:10112   */\n      dup4\n        /* \"#utility.yul\":10099:10163   */\n      sstore\n        /* \"#utility.yul\":10021:10177   */\n      pop\n        /* \"#utility.yul\":9998:10177   */\n    tag_183:\n        /* \"#utility.yul\":10223:10224   */\n      0x01\n        /* \"#utility.yul\":10219:10220   */\n      0x02\n        /* \"#utility.yul\":10211:10217   */\n      dup9\n        /* \"#utility.yul\":10207:10221   */\n      mul\n        /* \"#utility.yul\":10203:10225   */\n      add\n        /* \"#utility.yul\":10197:10201   */\n      dup9\n        /* \"#utility.yul\":10190:10226   */\n      sstore\n        /* \"#utility.yul\":9625:10236   */\n      pop\n      pop\n      pop\n        /* \"#utility.yul\":9588:10475   */\n    tag_175:\n      pop\n        /* \"#utility.yul\":9178:10481   */\n      pop\n      pop\n      pop\n        /* \"#utility.yul\":9086:10481   */\n      pop\n      pop\n      jump\t// out\n        /* \"#utility.yul\":10487:10585   */\n    tag_60:\n        /* \"#utility.yul\":10538:10544   */\n      0x00\n        /* \"#utility.yul\":10572:10577   */\n      dup2\n        /* \"#utility.yul\":10566:10578   */\n      mload\n        /* \"#utility.yul\":10556:10578   */\n      swap1\n      pop\n        /* \"#utility.yul\":10487:10585   */\n      swap2\n      swap1\n      pop\n      jump\t// out\n        /* \"#utility.yul\":10591:10731   */\n    tag_61:\n        /* \"#utility.yul\":10639:10643   */\n      0x00\n        /* \"#utility.yul\":10662:10665   */\n      dup2\n        /* \"#utility.yul\":10654:10665   */\n      swap1\n      pop\n        /* \"#utility.yul\":10685:10688   */\n      dup2\n        /* \"#utility.yul\":10682:10683   */\n      0x00\n        /* \"#utility.yul\":10675:10689   */\n      mstore\n        /* \"#utility.yul\":10719:10723   */\n      0x20\n        /* \"#utility.yul\":10716:10717   */\n      0x00\n        /* \"#utility.yul\":10706:10724   */\n      keccak256\n        /* \"#utility.yul\":10698:10724   */\n      swap1\n      pop\n        /* \"#utility.yul\":10591:10731   */\n      swap2\n      swap1\n      pop\n      jump\t// out\n        /* \"#utility.yul\":10737:11278   */\n    tag_62:\n        /* \"#utility.yul\":10837:10839   */\n      0x1f\n        /* \"#utility.yul\":10832:10835   */\n      dup3\n        /* \"#utility.yul\":10829:10840   */\n      gt\n        /* \"#utility.yul\":10826:11271   */\n      iszero\n      tag_188\n      jumpi\n        /* \"#utility.yul\":10871:10908   */\n      tag_189\n        /* \"#utility.yul\":10902:10907   */\n      dup2\n        /* \"#utility.yul\":10871:10908   */\n      tag_61\n      jump\t// in\n    tag_189:\n        /* \"#utility.yul\":10954:10983   */\n      tag_190\n        /* \"#utility.yul\":10972:10982   */\n      dup5\n        /* \"#utility.yul\":10954:10983   */\n      tag_46\n      jump\t// in\n    tag_190:\n        /* \"#utility.yul\":10944:10952   */\n      dup2\n        /* \"#utility.yul\":10940:10984   */\n      add\n        /* \"#utility.yul\":11137:11139   */\n      0x20\n        /* \"#utility.yul\":11125:11135   */\n      dup6\n        /* \"#utility.yul\":11122:11140   */\n      lt\n        /* \"#utility.yul\":11119:11168   */\n      iszero\n      tag_191\n      jumpi\n        /* \"#utility.yul\":11158:11166   */\n      dup2\n        /* \"#utility.yul\":11143:11166   */\n      swap1\n      pop\n        /* \"#utility.yul\":11119:11168   */\n    tag_191:\n        /* \"#utility.yul\":11181:11261   */\n      tag_192\n        /* \"#utility.yul\":11237:11259   */\n      tag_193\n        /* \"#utility.yul\":11255:11258   */\n      dup6\n        /* \"#utility.yul\":11237:11259   */\n      tag_46\n      jump\t// in\n    tag_193:\n        /* \"#utility.yul\":11227:11235   */\n      dup4\n        /* \"#utility.yul\":11223:11260   */\n      add\n        /* \"#utility.yul\":11210:11221   */\n      dup3\n        /* \"#utility.yul\":11181:11261   */\n      tag_55\n      jump\t// in\n    tag_192:\n        /* \"#utility.yul\":10841:11271   */\n      pop\n      pop\n        /* \"#utility.yul\":10826:11271   */\n    tag_188:\n        /* \"#utility.yul\":10737:11278   */\n      pop\n      pop\n      pop\n      jump\t// out\n        /* \"#utility.yul\":11284:12674   */\n    tag_17:\n        /* \"#utility.yul\":11399:11435   */\n      tag_195\n        /* \"#utility.yul\":11431:11434   */\n      dup3\n        /* \"#utility.yul\":11399:11435   */\n      tag_60\n      jump\t// in\n    tag_195:\n        /* \"#utility.yul\":11500:11518   */\n      0xffffffffffffffff\n        /* \"#utility.yul\":11492:11498   */\n      dup2\n        /* \"#utility.yul\":11489:11519   */\n      gt\n        /* \"#utility.yul\":11486:11542   */\n      iszero\n      tag_196\n      jumpi\n        /* \"#utility.yul\":11522:11540   */\n      tag_197\n      tag_27\n      jump\t// in\n    tag_197:\n        /* \"#utility.yul\":11486:11542   */\n    tag_196:\n        /* \"#utility.yul\":11566:11604   */\n      tag_198\n        /* \"#utility.yul\":11598:11602   */\n      dup3\n        /* \"#utility.yul\":11592:11603   */\n      sload\n        /* \"#utility.yul\":11566:11604   */\n      tag_44\n      jump\t// in\n    tag_198:\n        /* \"#utility.yul\":11651:11717   */\n      tag_199\n        /* \"#utility.yul\":11710:11716   */\n      dup3\n        /* \"#utility.yul\":11702:11708   */\n      dup3\n        /* \"#utility.yul\":11696:11700   */\n      dup6\n        /* \"#utility.yul\":11651:11717   */\n      tag_62\n      jump\t// in\n    tag_199:\n        /* \"#utility.yul\":11744:11745   */\n      0x00\n        /* \"#utility.yul\":11768:11772   */\n      0x20\n        /* \"#utility.yul\":11755:11772   */\n      swap1\n      pop\n        /* \"#utility.yul\":11800:11802   */\n      0x1f\n        /* \"#utility.yul\":11792:11798   */\n      dup4\n        /* \"#utility.yul\":11789:11803   */\n      gt\n        /* \"#utility.yul\":11817:11818   */\n      0x01\n        /* \"#utility.yul\":11812:12429   */\n      dup2\n      eq\n      tag_201\n      jumpi\n        /* \"#utility.yul\":12473:12474   */\n      0x00\n        /* \"#utility.yul\":12490:12496   */\n      dup5\n        /* \"#utility.yul\":12487:12564   */\n      iszero\n      tag_202\n      jumpi\n        /* \"#utility.yul\":12539:12548   */\n      dup3\n        /* \"#utility.yul\":12534:12537   */\n      dup8\n        /* \"#utility.yul\":12530:12549   */\n      add\n        /* \"#utility.yul\":12524:12550   */\n      mload\n        /* \"#utility.yul\":12515:12550   */\n      swap1\n      pop\n        /* \"#utility.yul\":12487:12564   */\n    tag_202:\n        /* \"#utility.yul\":12590:12657   */\n      tag_203\n        /* \"#utility.yul\":12650:12656   */\n      dup6\n        /* \"#utility.yul\":12643:12648   */\n      dup3\n        /* \"#utility.yul\":12590:12657   */\n      tag_59\n      jump\t// in\n    tag_203:\n        /* \"#utility.yul\":12584:12588   */\n      dup7\n        /* \"#utility.yul\":12577:12658   */\n      sstore\n        /* \"#utility.yul\":12446:12668   */\n      pop\n        /* \"#utility.yul\":11782:12668   */\n      jump(tag_200)\n        /* \"#utility.yul\":11812:12429   */\n    tag_201:\n        /* \"#utility.yul\":11864:11868   */\n      0x1f\n        /* \"#utility.yul\":11860:11869   */\n      not\n        /* \"#utility.yul\":11852:11858   */\n      dup5\n        /* \"#utility.yul\":11848:11870   */\n      and\n        /* \"#utility.yul\":11898:11934   */\n      tag_204\n        /* \"#utility.yul\":11929:11933   */\n      dup7\n        /* \"#utility.yul\":11898:11934   */\n      tag_61\n      jump\t// in\n    tag_204:\n        /* \"#utility.yul\":11956:11957   */\n      0x00\n        /* \"#utility.yul\":11970:12178   */\n    tag_205:\n        /* \"#utility.yul\":11984:11991   */\n      dup3\n        /* \"#utility.yul\":11981:11982   */\n      dup2\n        /* \"#utility.yul\":11978:11992   */\n      lt\n        /* \"#utility.yul\":11970:12178   */\n      iszero\n      tag_207\n      jumpi\n        /* \"#utility.yul\":12063:12072   */\n      dup5\n        /* \"#utility.yul\":12058:12061   */\n      dup10\n        /* \"#utility.yul\":12054:12073   */\n      add\n        /* \"#utility.yul\":12048:12074   */\n      mload\n        /* \"#utility.yul\":12040:12046   */\n      dup3\n        /* \"#utility.yul\":12033:12075   */\n      sstore\n        /* \"#utility.yul\":12114:12115   */\n      0x01\n        /* \"#utility.yul\":12106:12112   */\n      dup3\n        /* \"#utility.yul\":12102:12116   */\n      add\n        /* \"#utility.yul\":12092:12116   */\n      swap2\n      pop\n        /* \"#utility.yul\":12161:12163   */\n      0x20\n        /* \"#utility.yul\":12150:12159   */\n      dup6\n        /* \"#utility.yul\":12146:12164   */\n      add\n        /* \"#utility.yul\":12133:12164   */\n      swap5\n      pop\n        /* \"#utility.yul\":12007:12011   */\n      0x20\n        /* \"#utility.yul\":12004:12005   */\n      dup2\n        /* \"#utility.yul\":12000:12012   */\n      add\n        /* \"#utility.yul\":11995:12012   */\n      swap1\n      pop\n        /* \"#utility.yul\":11970:12178   */\n      jump(tag_205)\n    tag_207:\n        /* \"#utility.yul\":12206:12212   */\n      dup7\n        /* \"#utility.yul\":12197:12204   */\n      dup4\n        /* \"#utility.yul\":12194:12213   */\n      lt\n        /* \"#utility.yul\":12191:12370   */\n      iszero\n      tag_208\n      jumpi\n        /* \"#utility.yul\":12264:12273   */\n      dup5\n        /* \"#utility.yul\":12259:12262   */\n      dup10\n        /* \"#utility.yul\":12255:12274   */\n      add\n        /* \"#utility.yul\":12249:12275   */\n      mload\n        /* \"#utility.yul\":12307:12355   */\n      tag_209\n        /* \"#utility.yul\":12349:12353   */\n      0x1f\n        /* \"#utility.yul\":12341:12347   */\n      dup10\n        /* \"#utility.yul\":12337:12354   */\n      and\n        /* \"#utility.yul\":12326:12335   */\n      dup3\n        /* \"#utility.yul\":12307:12355   */\n      tag_58\n      jump\t// in\n    tag_209:\n        /* \"#utility.yul\":12299:12305   */\n      dup4\n        /* \"#utility.yul\":12292:12356   */\n      sstore\n        /* \"#utility.yul\":12214:12370   */\n      pop\n        /* \"#utility.yul\":12191:12370   */\n    tag_208:\n        /* \"#utility.yul\":12416:12417   */\n      0x01\n        /* \"#utility.yul\":12412:12413   */\n      0x02\n        /* \"#utility.yul\":12404:12410   */\n      dup9\n        /* \"#utility.yul\":12400:12414   */\n      mul\n        /* \"#utility.yul\":12396:12418   */\n      add\n        /* \"#utility.yul\":12390:12394   */\n      dup9\n        /* \"#utility.yul\":12383:12419   */\n      sstore\n        /* \"#utility.yul\":11819:12429   */\n      pop\n      pop\n      pop\n        /* \"#utility.yul\":11782:12668   */\n    tag_200:\n      pop\n        /* \"#utility.yul\":11374:12674   */\n      pop\n      pop\n      pop\n        /* \"#utility.yul\":11284:12674   */\n      pop\n      pop\n      jump\t// out\n\n    auxdata: 0xa264697066735822122040c9226c63123f90e511bd7a27d8fc4f908b8b2619a39e01e88b9a279b9cfcaa64736f6c634300081a0033\n}\n",
				"bytecode": {
					"linkReferences": {},
					"object": "6080604052348015600e575f80fd5b506107f78061001c5f395ff3fe608060405234801561000f575f80fd5b5060043610610029575f3560e01c8063ed4cad8a1461002d575b5f80fd5b61004760048036038101906100429190610291565b610049565b005b5f828260405160200161005d92919061035d565b6040516020818303038152906040528051906020012060405160200161008391906103ad565b60405160208183030381529060405290505f604051806060016040528085815260200184815260200183815250908060018154018082558091505060019003905f5260205f2090600302015f909190919091505f820151815f015560208201518160010190816100f391906105c1565b50604082015181600201908161010991906106f2565b505050505050565b5f604051905090565b5f80fd5b5f80fd5b5f819050919050565b61013481610122565b811461013e575f80fd5b50565b5f8135905061014f8161012b565b92915050565b5f80fd5b5f80fd5b5f601f19601f8301169050919050565b7f4e487b71000000000000000000000000000000000000000000000000000000005f52604160045260245ffd5b6101a38261015d565b810181811067ffffffffffffffff821117156101c2576101c161016d565b5b80604052505050565b5f6101d4610111565b90506101e0828261019a565b919050565b5f67ffffffffffffffff8211156101ff576101fe61016d565b5b6102088261015d565b9050602081019050919050565b828183375f83830152505050565b5f610235610230846101e5565b6101cb565b90508281526020810184848401111561025157610250610159565b5b61025c848285610215565b509392505050565b5f82601f83011261027857610277610155565b5b8135610288848260208601610223565b91505092915050565b5f80604083850312156102a7576102a661011a565b5b5f6102b485828601610141565b925050602083013567ffffffffffffffff8111156102d5576102d461011e565b5b6102e185828601610264565b9150509250929050565b5f819050919050565b61030561030082610122565b6102eb565b82525050565b5f81519050919050565b5f81905092915050565b8281835e5f83830152505050565b5f6103378261030b565b6103418185610315565b935061035181856020860161031f565b80840191505092915050565b5f61036882856102f4565b602082019150610378828461032d565b91508190509392505050565b5f819050919050565b5f819050919050565b6103a76103a282610384565b61038d565b82525050565b5f6103b88284610396565b60208201915081905092915050565b7f4e487b71000000000000000000000000000000000000000000000000000000005f52602260045260245ffd5b5f600282049050600182168061040b57607f821691505b60208210810361041e5761041d6103c7565b5b50919050565b5f819050815f5260205f209050919050565b5f6020601f8301049050919050565b5f82821b905092915050565b5f600883026104807fffffffffffffffffffffffffffffffffffffffffffffffffffffffffffffffff82610445565b61048a8683610445565b95508019841693508086168417925050509392505050565b5f819050919050565b5f6104c56104c06104bb84610122565b6104a2565b610122565b9050919050565b5f819050919050565b6104de836104ab565b6104f26104ea826104cc565b848454610451565b825550505050565b5f90565b6105066104fa565b6105118184846104d5565b505050565b5b81811015610534576105295f826104fe565b600181019050610517565b5050565b601f8211156105795761054a81610424565b61055384610436565b81016020851015610562578190505b61057661056e85610436565b830182610516565b50505b505050565b5f82821c905092915050565b5f6105995f198460080261057e565b1980831691505092915050565b5f6105b1838361058a565b9150826002028217905092915050565b6105ca8261030b565b67ffffffffffffffff8111156105e3576105e261016d565b5b6105ed82546103f4565b6105f8828285610538565b5f60209050601f831160018114610629575f8415610617578287015190505b61062185826105a6565b865550610688565b601f19841661063786610424565b5f5b8281101561065e57848901518255600182019150602085019450602081019050610639565b8683101561067b5784890151610677601f89168261058a565b8355505b6001600288020188555050505b505050505050565b5f81519050919050565b5f819050815f5260205f209050919050565b601f8211156106ed576106be8161069a565b6106c784610436565b810160208510156106d6578190505b6106ea6106e285610436565b830182610516565b50505b505050565b6106fb82610690565b67ffffffffffffffff8111156107145761071361016d565b5b61071e82546103f4565b6107298282856106ac565b5f60209050601f83116001811461075a575f8415610748578287015190505b61075285826105a6565b8655506107b9565b601f1984166107688661069a565b5f5b8281101561078f5784890151825560018201915060208501945060208101905061076a565b868310156107ac57848901516107a8601f89168261058a565b8355505b6001600288020188555050505b50505050505056fea264697066735822122040c9226c63123f90e511bd7a27d8fc4f908b8b2619a39e01e88b9a279b9cfcaa64736f6c634300081a0033",
					"opcodes": "PUSH1 0x80 PUSH1 0x40 MSTORE CALLVALUE DUP1 ISZERO PUSH1 0xE JUMPI PUSH0 DUP1 REVERT JUMPDEST POP PUSH2 0x7F7 DUP1 PUSH2 0x1C PUSH0 CODECOPY PUSH0 RETURN INVALID PUSH1 0x80 PUSH1 0x40 MSTORE CALLVALUE DUP1 ISZERO PUSH2 0xF JUMPI PUSH0 DUP1 REVERT JUMPDEST POP PUSH1 0x4 CALLDATASIZE LT PUSH2 0x29 JUMPI PUSH0 CALLDATALOAD PUSH1 0xE0 SHR DUP1 PUSH4 0xED4CAD8A EQ PUSH2 0x2D JUMPI JUMPDEST PUSH0 DUP1 REVERT JUMPDEST PUSH2 0x47 PUSH1 0x4 DUP1 CALLDATASIZE SUB DUP2 ADD SWAP1 PUSH2 0x42 SWAP2 SWAP1 PUSH2 0x291 JUMP JUMPDEST PUSH2 0x49 JUMP JUMPDEST STOP JUMPDEST PUSH0 DUP3 DUP3 PUSH1 0x40 MLOAD PUSH1 0x20 ADD PUSH2 0x5D SWAP3 SWAP2 SWAP1 PUSH2 0x35D JUMP JUMPDEST PUSH1 0x40 MLOAD PUSH1 0x20 DUP2 DUP4 SUB SUB DUP2 MSTORE SWAP1 PUSH1 0x40 MSTORE DUP1 MLOAD SWAP1 PUSH1 0x20 ADD KECCAK256 PUSH1 0x40 MLOAD PUSH1 0x20 ADD PUSH2 0x83 SWAP2 SWAP1 PUSH2 0x3AD JUMP JUMPDEST PUSH1 0x40 MLOAD PUSH1 0x20 DUP2 DUP4 SUB SUB DUP2 MSTORE SWAP1 PUSH1 0x40 MSTORE SWAP1 POP PUSH0 PUSH1 0x40 MLOAD DUP1 PUSH1 0x60 ADD PUSH1 0x40 MSTORE DUP1 DUP6 DUP2 MSTORE PUSH1 0x20 ADD DUP5 DUP2 MSTORE PUSH1 0x20 ADD DUP4 DUP2 MSTORE POP SWAP1 DUP1 PUSH1 0x1 DUP2 SLOAD ADD DUP1 DUP3 SSTORE DUP1 SWAP2 POP POP PUSH1 0x1 SWAP1 SUB SWAP1 PUSH0 MSTORE PUSH1 0x20 PUSH0 KECCAK256 SWAP1 PUSH1 0x3 MUL ADD PUSH0 SWAP1 SWAP2 SWAP1 SWAP2 SWAP1 SWAP2 POP PUSH0 DUP3 ADD MLOAD DUP2 PUSH0 ADD SSTORE PUSH1 0x20 DUP3 ADD MLOAD DUP2 PUSH1 0x1 ADD SWAP1 DUP2 PUSH2 0xF3 SWAP2 SWAP1 PUSH2 0x5C1 JUMP JUMPDEST POP PUSH1 0x40 DUP3 ADD MLOAD DUP2 PUSH1 0x2 ADD SWAP1 DUP2 PUSH2 0x109 SWAP2 SWAP1 PUSH2 0x6F2 JUMP JUMPDEST POP POP POP POP POP POP JUMP JUMPDEST PUSH0 PUSH1 0x40 MLOAD SWAP1 POP SWAP1 JUMP JUMPDEST PUSH0 DUP1 REVERT JUMPDEST PUSH0 DUP1 REVERT JUMPDEST PUSH0 DUP2 SWAP1 POP SWAP2 SWAP1 POP JUMP JUMPDEST PUSH2 0x134 DUP2 PUSH2 0x122 JUMP JUMPDEST DUP2 EQ PUSH2 0x13E JUMPI PUSH0 DUP1 REVERT JUMPDEST POP JUMP JUMPDEST PUSH0 DUP2 CALLDATALOAD SWAP1 POP PUSH2 0x14F DUP2 PUSH2 0x12B JUMP JUMPDEST SWAP3 SWAP2 POP POP JUMP JUMPDEST PUSH0 DUP1 REVERT JUMPDEST PUSH0 DUP1 REVERT JUMPDEST PUSH0 PUSH1 0x1F NOT PUSH1 0x1F DUP4 ADD AND SWAP1 POP SWAP2 SWAP1 POP JUMP JUMPDEST PUSH32 0x4E487B7100000000000000000000000000000000000000000000000000000000 PUSH0 MSTORE PUSH1 0x41 PUSH1 0x4 MSTORE PUSH1 0x24 PUSH0 REVERT JUMPDEST PUSH2 0x1A3 DUP3 PUSH2 0x15D JUMP JUMPDEST DUP2 ADD DUP2 DUP2 LT PUSH8 0xFFFFFFFFFFFFFFFF DUP3 GT OR ISZERO PUSH2 0x1C2 JUMPI PUSH2 0x1C1 PUSH2 0x16D JUMP JUMPDEST JUMPDEST DUP1 PUSH1 0x40 MSTORE POP POP POP JUMP JUMPDEST PUSH0 PUSH2 0x1D4 PUSH2 0x111 JUMP JUMPDEST SWAP1 POP PUSH2 0x1E0 DUP3 DUP3 PUSH2 0x19A JUMP JUMPDEST SWAP2 SWAP1 POP JUMP JUMPDEST PUSH0 PUSH8 0xFFFFFFFFFFFFFFFF DUP3 GT ISZERO PUSH2 0x1FF JUMPI PUSH2 0x1FE PUSH2 0x16D JUMP JUMPDEST JUMPDEST PUSH2 0x208 DUP3 PUSH2 0x15D JUMP JUMPDEST SWAP1 POP PUSH1 0x20 DUP2 ADD SWAP1 POP SWAP2 SWAP1 POP JUMP JUMPDEST DUP3 DUP2 DUP4 CALLDATACOPY PUSH0 DUP4 DUP4 ADD MSTORE POP POP POP JUMP JUMPDEST PUSH0 PUSH2 0x235 PUSH2 0x230 DUP5 PUSH2 0x1E5 JUMP JUMPDEST PUSH2 0x1CB JUMP JUMPDEST SWAP1 POP DUP3 DUP2 MSTORE PUSH1 0x20 DUP2 ADD DUP5 DUP5 DUP5 ADD GT ISZERO PUSH2 0x251 JUMPI PUSH2 0x250 PUSH2 0x159 JUMP JUMPDEST JUMPDEST PUSH2 0x25C DUP5 DUP3 DUP6 PUSH2 0x215 JUMP JUMPDEST POP SWAP4 SWAP3 POP POP POP JUMP JUMPDEST PUSH0 DUP3 PUSH1 0x1F DUP4 ADD SLT PUSH2 0x278 JUMPI PUSH2 0x277 PUSH2 0x155 JUMP JUMPDEST JUMPDEST DUP2 CALLDATALOAD PUSH2 0x288 DUP5 DUP3 PUSH1 0x20 DUP7 ADD PUSH2 0x223 JUMP JUMPDEST SWAP2 POP POP SWAP3 SWAP2 POP POP JUMP JUMPDEST PUSH0 DUP1 PUSH1 0x40 DUP4 DUP6 SUB SLT ISZERO PUSH2 0x2A7 JUMPI PUSH2 0x2A6 PUSH2 0x11A JUMP JUMPDEST JUMPDEST PUSH0 PUSH2 0x2B4 DUP6 DUP3 DUP7 ADD PUSH2 0x141 JUMP JUMPDEST SWAP3 POP POP PUSH1 0x20 DUP4 ADD CALLDATALOAD PUSH8 0xFFFFFFFFFFFFFFFF DUP2 GT ISZERO PUSH2 0x2D5 JUMPI PUSH2 0x2D4 PUSH2 0x11E JUMP JUMPDEST JUMPDEST PUSH2 0x2E1 DUP6 DUP3 DUP7 ADD PUSH2 0x264 JUMP JUMPDEST SWAP2 POP POP SWAP3 POP SWAP3 SWAP1 POP JUMP JUMPDEST PUSH0 DUP2 SWAP1 POP SWAP2 SWAP1 POP JUMP JUMPDEST PUSH2 0x305 PUSH2 0x300 DUP3 PUSH2 0x122 JUMP JUMPDEST PUSH2 0x2EB JUMP JUMPDEST DUP3 MSTORE POP POP JUMP JUMPDEST PUSH0 DUP2 MLOAD SWAP1 POP SWAP2 SWAP1 POP JUMP JUMPDEST PUSH0 DUP2 SWAP1 POP SWAP3 SWAP2 POP POP JUMP JUMPDEST DUP3 DUP2 DUP4 MCOPY PUSH0 DUP4 DUP4 ADD MSTORE POP POP POP JUMP JUMPDEST PUSH0 PUSH2 0x337 DUP3 PUSH2 0x30B JUMP JUMPDEST PUSH2 0x341 DUP2 DUP6 PUSH2 0x315 JUMP JUMPDEST SWAP4 POP PUSH2 0x351 DUP2 DUP6 PUSH1 0x20 DUP7 ADD PUSH2 0x31F JUMP JUMPDEST DUP1 DUP5 ADD SWAP2 POP POP SWAP3 SWAP2 POP POP JUMP JUMPDEST PUSH0 PUSH2 0x368 DUP3 DUP6 PUSH2 0x2F4 JUMP JUMPDEST PUSH1 0x20 DUP3 ADD SWAP2 POP PUSH2 0x378 DUP3 DUP5 PUSH2 0x32D JUMP JUMPDEST SWAP2 POP DUP2 SWAP1 POP SWAP4 SWAP3 POP POP POP JUMP JUMPDEST PUSH0 DUP2 SWAP1 POP SWAP2 SWAP1 POP JUMP JUMPDEST PUSH0 DUP2 SWAP1 POP SWAP2 SWAP1 POP JUMP JUMPDEST PUSH2 0x3A7 PUSH2 0x3A2 DUP3 PUSH2 0x384 JUMP JUMPDEST PUSH2 0x38D JUMP JUMPDEST DUP3 MSTORE POP POP JUMP JUMPDEST PUSH0 PUSH2 0x3B8 DUP3 DUP5 PUSH2 0x396 JUMP JUMPDEST PUSH1 0x20 DUP3 ADD SWAP2 POP DUP2 SWAP1 POP SWAP3 SWAP2 POP POP JUMP JUMPDEST PUSH32 0x4E487B7100000000000000000000000000000000000000000000000000000000 PUSH0 MSTORE PUSH1 0x22 PUSH1 0x4 MSTORE PUSH1 0x24 PUSH0 REVERT JUMPDEST PUSH0 PUSH1 0x2 DUP3 DIV SWAP1 POP PUSH1 0x1 DUP3 AND DUP1 PUSH2 0x40B JUMPI PUSH1 0x7F DUP3 AND SWAP2 POP JUMPDEST PUSH1 0x20 DUP3 LT DUP2 SUB PUSH2 0x41E JUMPI PUSH2 0x41D PUSH2 0x3C7 JUMP JUMPDEST JUMPDEST POP SWAP2 SWAP1 POP JUMP JUMPDEST PUSH0 DUP2 SWAP1 POP DUP2 PUSH0 MSTORE PUSH1 0x20 PUSH0 KECCAK256 SWAP1 POP SWAP2 SWAP1 POP JUMP JUMPDEST PUSH0 PUSH1 0x20 PUSH1 0x1F DUP4 ADD DIV SWAP1 POP SWAP2 SWAP1 POP JUMP JUMPDEST PUSH0 DUP3 DUP3 SHL SWAP1 POP SWAP3 SWAP2 POP POP JUMP JUMPDEST PUSH0 PUSH1 0x8 DUP4 MUL PUSH2 0x480 PUSH32 0xFFFFFFFFFFFFFFFFFFFFFFFFFFFFFFFFFFFFFFFFFFFFFFFFFFFFFFFFFFFFFFFF DUP3 PUSH2 0x445 JUMP JUMPDEST PUSH2 0x48A DUP7 DUP4 PUSH2 0x445 JUMP JUMPDEST SWAP6 POP DUP1 NOT DUP5 AND SWAP4 POP DUP1 DUP7 AND DUP5 OR SWAP3 POP POP POP SWAP4 SWAP3 POP POP POP JUMP JUMPDEST PUSH0 DUP2 SWAP1 POP SWAP2 SWAP1 POP JUMP JUMPDEST PUSH0 PUSH2 0x4C5 PUSH2 0x4C0 PUSH2 0x4BB DUP5 PUSH2 0x122 JUMP JUMPDEST PUSH2 0x4A2 JUMP JUMPDEST PUSH2 0x122 JUMP JUMPDEST SWAP1 POP SWAP2 SWAP1 POP JUMP JUMPDEST PUSH0 DUP2 SWAP1 POP SWAP2 SWAP1 POP JUMP JUMPDEST PUSH2 0x4DE DUP4 PUSH2 0x4AB JUMP JUMPDEST PUSH2 0x4F2 PUSH2 0x4EA DUP3 PUSH2 0x4CC JUMP JUMPDEST DUP5 DUP5 SLOAD PUSH2 0x451 JUMP JUMPDEST DUP3 SSTORE POP POP POP POP JUMP JUMPDEST PUSH0 SWAP1 JUMP JUMPDEST PUSH2 0x506 PUSH2 0x4FA JUMP JUMPDEST PUSH2 0x511 DUP2 DUP5 DUP5 PUSH2 0x4D5 JUMP JUMPDEST POP POP POP JUMP JUMPDEST JUMPDEST DUP2 DUP2 LT ISZERO PUSH2 0x534 JUMPI PUSH2 0x529 PUSH0 DUP3 PUSH2 0x4FE JUMP JUMPDEST PUSH1 0x1 DUP2 ADD SWAP1 POP PUSH2 0x517 JUMP JUMPDEST POP POP JUMP JUMPDEST PUSH1 0x1F DUP3 GT ISZERO PUSH2 0x579 JUMPI PUSH2 0x54A DUP2 PUSH2 0x424 JUMP JUMPDEST PUSH2 0x553 DUP5 PUSH2 0x436 JUMP JUMPDEST DUP2 ADD PUSH1 0x20 DUP6 LT ISZERO PUSH2 0x562 JUMPI DUP2 SWAP1 POP JUMPDEST PUSH2 0x576 PUSH2 0x56E DUP6 PUSH2 0x436 JUMP JUMPDEST DUP4 ADD DUP3 PUSH2 0x516 JUMP JUMPDEST POP POP JUMPDEST POP POP POP JUMP JUMPDEST PUSH0 DUP3 DUP3 SHR SWAP1 POP SWAP3 SWAP2 POP POP JUMP JUMPDEST PUSH0 PUSH2 0x599 PUSH0 NOT DUP5 PUSH1 0x8 MUL PUSH2 0x57E JUMP JUMPDEST NOT DUP1 DUP4 AND SWAP2 POP POP SWAP3 SWAP2 POP POP JUMP JUMPDEST PUSH0 PUSH2 0x5B1 DUP4 DUP4 PUSH2 0x58A JUMP JUMPDEST SWAP2 POP DUP3 PUSH1 0x2 MUL DUP3 OR SWAP1 POP SWAP3 SWAP2 POP POP JUMP JUMPDEST PUSH2 0x5CA DUP3 PUSH2 0x30B JUMP JUMPDEST PUSH8 0xFFFFFFFFFFFFFFFF DUP2 GT ISZERO PUSH2 0x5E3 JUMPI PUSH2 0x5E2 PUSH2 0x16D JUMP JUMPDEST JUMPDEST PUSH2 0x5ED DUP3 SLOAD PUSH2 0x3F4 JUMP JUMPDEST PUSH2 0x5F8 DUP3 DUP3 DUP6 PUSH2 0x538 JUMP JUMPDEST PUSH0 PUSH1 0x20 SWAP1 POP PUSH1 0x1F DUP4 GT PUSH1 0x1 DUP2 EQ PUSH2 0x629 JUMPI PUSH0 DUP5 ISZERO PUSH2 0x617 JUMPI DUP3 DUP8 ADD MLOAD SWAP1 POP JUMPDEST PUSH2 0x621 DUP6 DUP3 PUSH2 0x5A6 JUMP JUMPDEST DUP7 SSTORE POP PUSH2 0x688 JUMP JUMPDEST PUSH1 0x1F NOT DUP5 AND PUSH2 0x637 DUP7 PUSH2 0x424 JUMP JUMPDEST PUSH0 JUMPDEST DUP3 DUP2 LT ISZERO PUSH2 0x65E JUMPI DUP5 DUP10 ADD MLOAD DUP3 SSTORE PUSH1 0x1 DUP3 ADD SWAP2 POP PUSH1 0x20 DUP6 ADD SWAP5 POP PUSH1 0x20 DUP2 ADD SWAP1 POP PUSH2 0x639 JUMP JUMPDEST DUP7 DUP4 LT ISZERO PUSH2 0x67B JUMPI DUP5 DUP10 ADD MLOAD PUSH2 0x677 PUSH1 0x1F DUP10 AND DUP3 PUSH2 0x58A JUMP JUMPDEST DUP4 SSTORE POP JUMPDEST PUSH1 0x1 PUSH1 0x2 DUP9 MUL ADD DUP9 SSTORE POP POP POP JUMPDEST POP POP POP POP POP POP JUMP JUMPDEST PUSH0 DUP2 MLOAD SWAP1 POP SWAP2 SWAP1 POP JUMP JUMPDEST PUSH0 DUP2 SWAP1 POP DUP2 PUSH0 MSTORE PUSH1 0x20 PUSH0 KECCAK256 SWAP1 POP SWAP2 SWAP1 POP JUMP JUMPDEST PUSH1 0x1F DUP3 GT ISZERO PUSH2 0x6ED JUMPI PUSH2 0x6BE DUP2 PUSH2 0x69A JUMP JUMPDEST PUSH2 0x6C7 DUP5 PUSH2 0x436 JUMP JUMPDEST DUP2 ADD PUSH1 0x20 DUP6 LT ISZERO PUSH2 0x6D6 JUMPI DUP2 SWAP1 POP JUMPDEST PUSH2 0x6EA PUSH2 0x6E2 DUP6 PUSH2 0x436 JUMP JUMPDEST DUP4 ADD DUP3 PUSH2 0x516 JUMP JUMPDEST POP POP JUMPDEST POP POP POP JUMP JUMPDEST PUSH2 0x6FB DUP3 PUSH2 0x690 JUMP JUMPDEST PUSH8 0xFFFFFFFFFFFFFFFF DUP2 GT ISZERO PUSH2 0x714 JUMPI PUSH2 0x713 PUSH2 0x16D JUMP JUMPDEST JUMPDEST PUSH2 0x71E DUP3 SLOAD PUSH2 0x3F4 JUMP JUMPDEST PUSH2 0x729 DUP3 DUP3 DUP6 PUSH2 0x6AC JUMP JUMPDEST PUSH0 PUSH1 0x20 SWAP1 POP PUSH1 0x1F DUP4 GT PUSH1 0x1 DUP2 EQ PUSH2 0x75A JUMPI PUSH0 DUP5 ISZERO PUSH2 0x748 JUMPI DUP3 DUP8 ADD MLOAD SWAP1 POP JUMPDEST PUSH2 0x752 DUP6 DUP3 PUSH2 0x5A6 JUMP JUMPDEST DUP7 SSTORE POP PUSH2 0x7B9 JUMP JUMPDEST PUSH1 0x1F NOT DUP5 AND PUSH2 0x768 DUP7 PUSH2 0x69A JUMP JUMPDEST PUSH0 JUMPDEST DUP3 DUP2 LT ISZERO PUSH2 0x78F JUMPI DUP5 DUP10 ADD MLOAD DUP3 SSTORE PUSH1 0x1 DUP3 ADD SWAP2 POP PUSH1 0x20 DUP6 ADD SWAP5 POP PUSH1 0x20 DUP2 ADD SWAP1 POP PUSH2 0x76A JUMP JUMPDEST DUP7 DUP4 LT ISZERO PUSH2 0x7AC JUMPI DUP5 DUP10 ADD MLOAD PUSH2 0x7A8 PUSH1 0x1F DUP10 AND DUP3 PUSH2 0x58A JUMP JUMPDEST DUP4 SSTORE POP JUMPDEST PUSH1 0x1 PUSH1 0x2 DUP9 MUL ADD DUP9 SSTORE POP POP POP JUMPDEST POP POP POP POP POP POP JUMP INVALID LOG2 PUSH5 0x6970667358 0x22 SLT KECCAK256 BLOCKHASH 0xC9 0x22 PUSH13 0x63123F90E511BD7A27D8FC4F90 DUP12 DUP12 0x26 NOT LOG3 SWAP15 ADD 0xE8 DUP12 SWAP11 0x27 SWAP12 SWAP13 0xFC 0xAA PUSH5 0x736F6C6343 STOP ADDMOD BYTE STOP CALLER "
				},
				"gasEstimates": {
					"creation": {
						"codeDepositCost": "407800",
						"executionCost": "441",
						"totalCost": "408241"
					},
					"external": {
						"setCustomer(uint256,string)": "infinite"
					}
				},
				"methodIdentifiers": {
					"setCustomer(uint256,string)": "ed4cad8a"
				}
			},
			"storageLayout": {
				"storage": [
					{
						"astId": 421,
						"contract": "Solidity100/Solidity61-70.sol:Question70",
						"label": "customers",
						"offset": 0,
						"slot": "0",
						"type": "t_array(t_struct(Customer)417_storage)dyn_storage"
					}
				],
				"types": {
					"t_array(t_struct(Customer)417_storage)dyn_storage": {
						"base": "t_struct(Customer)417_storage",
						"encoding": "dynamic_array",
						"label": "struct Question70.Customer[]",
						"numberOfBytes": "32"
					},
					"t_bytes_storage": {
						"encoding": "bytes",
						"label": "bytes",
						"numberOfBytes": "32"
					},
					"t_string_storage": {
						"encoding": "bytes",
						"label": "string",
						"numberOfBytes": "32"
					},
					"t_struct(Customer)417_storage": {
						"encoding": "inplace",
						"label": "struct Question70.Customer",
						"members": [
							{
								"astId": 412,
								"contract": "Solidity100/Solidity61-70.sol:Question70",
								"label": "number",
								"offset": 0,
								"slot": "0",
								"type": "t_uint256"
							},
							{
								"astId": 414,
								"contract": "Solidity100/Solidity61-70.sol:Question70",
								"label": "name",
								"offset": 0,
								"slot": "1",
								"type": "t_string_storage"
							},
							{
								"astId": 416,
								"contract": "Solidity100/Solidity61-70.sol:Question70",
								"label": "something",
								"offset": 0,
								"slot": "2",
								"type": "t_bytes_storage"
							}
						],
						"numberOfBytes": "96"
					},
					"t_uint256": {
						"encoding": "inplace",
						"label": "uint256",
						"numberOfBytes": "32"
					}
				}
			},
			"userdoc": {
				"kind": "user",
				"methods": {},
				"version": 1
			}
		}
	}
}