{
	"Solidity100/Solidity61-70.sol": {
		"Question62": {
			"abi": [
				{
					"inputs": [
						{
							"internalType": "uint256",
							"name": "_a",
							"type": "uint256"
						},
						{
							"internalType": "uint256",
							"name": "_b",
							"type": "uint256"
						}
					],
					"name": "add",
					"outputs": [
						{
							"internalType": "uint256",
							"name": "",
							"type": "uint256"
						}
					],
					"stateMutability": "pure",
					"type": "function"
				},
				{
					"inputs": [
						{
							"internalType": "uint256",
							"name": "_a",
							"type": "uint256"
						},
						{
							"internalType": "uint256",
							"name": "_b",
							"type": "uint256"
						}
					],
					"name": "mul",
					"outputs": [
						{
							"internalType": "uint256",
							"name": "",
							"type": "uint256"
						}
					],
					"stateMutability": "pure",
					"type": "function"
				},
				{
					"inputs": [
						{
							"internalType": "uint256",
							"name": "_a",
							"type": "uint256"
						},
						{
							"internalType": "uint256",
							"name": "_b",
							"type": "uint256"
						}
					],
					"name": "power",
					"outputs": [
						{
							"internalType": "uint256",
							"name": "",
							"type": "uint256"
						}
					],
					"stateMutability": "pure",
					"type": "function"
				}
			],
			"devdoc": {
				"kind": "dev",
				"methods": {},
				"version": 1
			},
			"evm": {
				"assembly": "    /* \"Solidity100/Solidity61-70.sol\":252:983  contract Question62 {... */\n  mstore(0x40, 0x80)\n  callvalue\n  dup1\n  iszero\n  tag_1\n  jumpi\n  0x00\n  dup1\n  revert\ntag_1:\n  pop\n  dataSize(sub_0)\n  dup1\n  dataOffset(sub_0)\n  0x00\n  codecopy\n  0x00\n  return\nstop\n\nsub_0: assembly {\n        /* \"Solidity100/Solidity61-70.sol\":252:983  contract Question62 {... */\n      mstore(0x40, 0x80)\n      callvalue\n      dup1\n      iszero\n      tag_1\n      jumpi\n      0x00\n      dup1\n      revert\n    tag_1:\n      pop\n      jumpi(tag_2, lt(calldatasize, 0x04))\n      shr(0xe0, calldataload(0x00))\n      dup1\n      0x771602f7\n      eq\n      tag_3\n      jumpi\n      dup1\n      0xc04f01fc\n      eq\n      tag_4\n      jumpi\n      dup1\n      0xc8a4ac9c\n      eq\n      tag_5\n      jumpi\n    tag_2:\n      0x00\n      dup1\n      revert\n        /* \"Solidity100/Solidity61-70.sol\":645:752  function add(uint _a, uint _b) public pure lessThanTen(_a,_b) returns(uint) {... */\n    tag_3:\n      tag_6\n      0x04\n      dup1\n      calldatasize\n      sub\n      dup2\n      add\n      swap1\n      tag_7\n      swap2\n      swap1\n      tag_8\n      jump\t// in\n    tag_7:\n      tag_9\n      jump\t// in\n    tag_6:\n      mload(0x40)\n      tag_10\n      swap2\n      swap1\n      tag_11\n      jump\t// in\n    tag_10:\n      mload(0x40)\n      dup1\n      swap2\n      sub\n      swap1\n      return\n        /* \"Solidity100/Solidity61-70.sol\":871:981  function power(uint _a, uint _b) public pure lessThanTen(_a,_b) returns(uint) {... */\n    tag_4:\n      tag_12\n      0x04\n      dup1\n      calldatasize\n      sub\n      dup2\n      add\n      swap1\n      tag_13\n      swap2\n      swap1\n      tag_8\n      jump\t// in\n    tag_13:\n      tag_14\n      jump\t// in\n    tag_12:\n      mload(0x40)\n      tag_15\n      swap2\n      swap1\n      tag_11\n      jump\t// in\n    tag_15:\n      mload(0x40)\n      dup1\n      swap2\n      sub\n      swap1\n      return\n        /* \"Solidity100/Solidity61-70.sol\":758:865  function mul(uint _a, uint _b) public pure lessThanTen(_a,_b) returns(uint) {... */\n    tag_5:\n      tag_16\n      0x04\n      dup1\n      calldatasize\n      sub\n      dup2\n      add\n      swap1\n      tag_17\n      swap2\n      swap1\n      tag_8\n      jump\t// in\n    tag_17:\n      tag_18\n      jump\t// in\n    tag_16:\n      mload(0x40)\n      tag_19\n      swap2\n      swap1\n      tag_11\n      jump\t// in\n    tag_19:\n      mload(0x40)\n      dup1\n      swap2\n      sub\n      swap1\n      return\n        /* \"Solidity100/Solidity61-70.sol\":645:752  function add(uint _a, uint _b) public pure lessThanTen(_a,_b) returns(uint) {... */\n    tag_9:\n        /* \"Solidity100/Solidity61-70.sol\":715:719  uint */\n      0x00\n        /* \"Solidity100/Solidity61-70.sol\":700:702  _a */\n      dup3\n        /* \"Solidity100/Solidity61-70.sol\":703:705  _b */\n      dup3\n        /* \"Solidity100/Solidity61-70.sol\":590:592  10 */\n      0x0a\n        /* \"Solidity100/Solidity61-70.sol\":584:586  _a */\n      dup3\n        /* \"Solidity100/Solidity61-70.sol\":584:592  _a <= 10 */\n      gt\n      iszero\n        /* \"Solidity100/Solidity61-70.sol\":584:604  _a <= 10 && _b <= 10 */\n      dup1\n      iszero\n      tag_21\n      jumpi\n      pop\n        /* \"Solidity100/Solidity61-70.sol\":602:604  10 */\n      0x0a\n        /* \"Solidity100/Solidity61-70.sol\":596:598  _b */\n      dup2\n        /* \"Solidity100/Solidity61-70.sol\":596:604  _b <= 10 */\n      gt\n      iszero\n        /* \"Solidity100/Solidity61-70.sol\":584:604  _a <= 10 && _b <= 10 */\n    tag_21:\n        /* \"Solidity100/Solidity61-70.sol\":576:621  require(_a <= 10 && _b <= 10, \"less than 10\") */\n      tag_22\n      jumpi\n      mload(0x40)\n      0x08c379a000000000000000000000000000000000000000000000000000000000\n      dup2\n      mstore\n      0x04\n      add\n      tag_23\n      swap1\n      tag_24\n      jump\t// in\n    tag_23:\n      mload(0x40)\n      dup1\n      swap2\n      sub\n      swap1\n      revert\n    tag_22:\n        /* \"Solidity100/Solidity61-70.sol\":743:745  _b */\n      dup4\n        /* \"Solidity100/Solidity61-70.sol\":738:740  _a */\n      dup6\n        /* \"Solidity100/Solidity61-70.sol\":738:745  _a + _b */\n      tag_26\n      swap2\n      swap1\n      tag_27\n      jump\t// in\n    tag_26:\n        /* \"Solidity100/Solidity61-70.sol\":731:745  return _a + _b */\n      swap3\n      pop\n        /* \"Solidity100/Solidity61-70.sol\":645:752  function add(uint _a, uint _b) public pure lessThanTen(_a,_b) returns(uint) {... */\n      pop\n      pop\n      swap3\n      swap2\n      pop\n      pop\n      jump\t// out\n        /* \"Solidity100/Solidity61-70.sol\":871:981  function power(uint _a, uint _b) public pure lessThanTen(_a,_b) returns(uint) {... */\n    tag_14:\n        /* \"Solidity100/Solidity61-70.sol\":943:947  uint */\n      0x00\n        /* \"Solidity100/Solidity61-70.sol\":928:930  _a */\n      dup3\n        /* \"Solidity100/Solidity61-70.sol\":931:933  _b */\n      dup3\n        /* \"Solidity100/Solidity61-70.sol\":590:592  10 */\n      0x0a\n        /* \"Solidity100/Solidity61-70.sol\":584:586  _a */\n      dup3\n        /* \"Solidity100/Solidity61-70.sol\":584:592  _a <= 10 */\n      gt\n      iszero\n        /* \"Solidity100/Solidity61-70.sol\":584:604  _a <= 10 && _b <= 10 */\n      dup1\n      iszero\n      tag_29\n      jumpi\n      pop\n        /* \"Solidity100/Solidity61-70.sol\":602:604  10 */\n      0x0a\n        /* \"Solidity100/Solidity61-70.sol\":596:598  _b */\n      dup2\n        /* \"Solidity100/Solidity61-70.sol\":596:604  _b <= 10 */\n      gt\n      iszero\n        /* \"Solidity100/Solidity61-70.sol\":584:604  _a <= 10 && _b <= 10 */\n    tag_29:\n        /* \"Solidity100/Solidity61-70.sol\":576:621  require(_a <= 10 && _b <= 10, \"less than 10\") */\n      tag_30\n      jumpi\n      mload(0x40)\n      0x08c379a000000000000000000000000000000000000000000000000000000000\n      dup2\n      mstore\n      0x04\n      add\n      tag_31\n      swap1\n      tag_24\n      jump\t// in\n    tag_31:\n      mload(0x40)\n      dup1\n      swap2\n      sub\n      swap1\n      revert\n    tag_30:\n        /* \"Solidity100/Solidity61-70.sol\":972:974  _b */\n      dup4\n        /* \"Solidity100/Solidity61-70.sol\":966:968  _a */\n      dup6\n        /* \"Solidity100/Solidity61-70.sol\":966:974  _a ** _b */\n      tag_33\n      swap2\n      swap1\n      tag_34\n      jump\t// in\n    tag_33:\n        /* \"Solidity100/Solidity61-70.sol\":959:974  return _a ** _b */\n      swap3\n      pop\n        /* \"Solidity100/Solidity61-70.sol\":871:981  function power(uint _a, uint _b) public pure lessThanTen(_a,_b) returns(uint) {... */\n      pop\n      pop\n      swap3\n      swap2\n      pop\n      pop\n      jump\t// out\n        /* \"Solidity100/Solidity61-70.sol\":758:865  function mul(uint _a, uint _b) public pure lessThanTen(_a,_b) returns(uint) {... */\n    tag_18:\n        /* \"Solidity100/Solidity61-70.sol\":828:832  uint */\n      0x00\n        /* \"Solidity100/Solidity61-70.sol\":813:815  _a */\n      dup3\n        /* \"Solidity100/Solidity61-70.sol\":816:818  _b */\n      dup3\n        /* \"Solidity100/Solidity61-70.sol\":590:592  10 */\n      0x0a\n        /* \"Solidity100/Solidity61-70.sol\":584:586  _a */\n      dup3\n        /* \"Solidity100/Solidity61-70.sol\":584:592  _a <= 10 */\n      gt\n      iszero\n        /* \"Solidity100/Solidity61-70.sol\":584:604  _a <= 10 && _b <= 10 */\n      dup1\n      iszero\n      tag_36\n      jumpi\n      pop\n        /* \"Solidity100/Solidity61-70.sol\":602:604  10 */\n      0x0a\n        /* \"Solidity100/Solidity61-70.sol\":596:598  _b */\n      dup2\n        /* \"Solidity100/Solidity61-70.sol\":596:604  _b <= 10 */\n      gt\n      iszero\n        /* \"Solidity100/Solidity61-70.sol\":584:604  _a <= 10 && _b <= 10 */\n    tag_36:\n        /* \"Solidity100/Solidity61-70.sol\":576:621  require(_a <= 10 && _b <= 10, \"less than 10\") */\n      tag_37\n      jumpi\n      mload(0x40)\n      0x08c379a000000000000000000000000000000000000000000000000000000000\n      dup2\n      mstore\n      0x04\n      add\n      tag_38\n      swap1\n      tag_24\n      jump\t// in\n    tag_38:\n      mload(0x40)\n      dup1\n      swap2\n      sub\n      swap1\n      revert\n    tag_37:\n        /* \"Solidity100/Solidity61-70.sol\":856:858  _b */\n      dup4\n        /* \"Solidity100/Solidity61-70.sol\":851:853  _a */\n      dup6\n        /* \"Solidity100/Solidity61-70.sol\":851:858  _a * _b */\n      tag_40\n      swap2\n      swap1\n      tag_41\n      jump\t// in\n    tag_40:\n        /* \"Solidity100/Solidity61-70.sol\":844:858  return _a * _b */\n      swap3\n      pop\n        /* \"Solidity100/Solidity61-70.sol\":758:865  function mul(uint _a, uint _b) public pure lessThanTen(_a,_b) returns(uint) {... */\n      pop\n      pop\n      swap3\n      swap2\n      pop\n      pop\n      jump\t// out\n        /* \"#utility.yul\":88:205   */\n    tag_43:\n        /* \"#utility.yul\":197:198   */\n      0x00\n        /* \"#utility.yul\":194:195   */\n      dup1\n        /* \"#utility.yul\":187:199   */\n      revert\n        /* \"#utility.yul\":334:411   */\n    tag_45:\n        /* \"#utility.yul\":371:378   */\n      0x00\n        /* \"#utility.yul\":400:405   */\n      dup2\n        /* \"#utility.yul\":389:405   */\n      swap1\n      pop\n        /* \"#utility.yul\":334:411   */\n      swap2\n      swap1\n      pop\n      jump\t// out\n        /* \"#utility.yul\":417:539   */\n    tag_46:\n        /* \"#utility.yul\":490:514   */\n      tag_62\n        /* \"#utility.yul\":508:513   */\n      dup2\n        /* \"#utility.yul\":490:514   */\n      tag_45\n      jump\t// in\n    tag_62:\n        /* \"#utility.yul\":483:488   */\n      dup2\n        /* \"#utility.yul\":480:515   */\n      eq\n        /* \"#utility.yul\":470:533   */\n      tag_63\n      jumpi\n        /* \"#utility.yul\":529:530   */\n      0x00\n        /* \"#utility.yul\":526:527   */\n      dup1\n        /* \"#utility.yul\":519:531   */\n      revert\n        /* \"#utility.yul\":470:533   */\n    tag_63:\n        /* \"#utility.yul\":417:539   */\n      pop\n      jump\t// out\n        /* \"#utility.yul\":545:684   */\n    tag_47:\n        /* \"#utility.yul\":591:596   */\n      0x00\n        /* \"#utility.yul\":629:635   */\n      dup2\n        /* \"#utility.yul\":616:636   */\n      calldataload\n        /* \"#utility.yul\":607:636   */\n      swap1\n      pop\n        /* \"#utility.yul\":645:678   */\n      tag_65\n        /* \"#utility.yul\":672:677   */\n      dup2\n        /* \"#utility.yul\":645:678   */\n      tag_46\n      jump\t// in\n    tag_65:\n        /* \"#utility.yul\":545:684   */\n      swap3\n      swap2\n      pop\n      pop\n      jump\t// out\n        /* \"#utility.yul\":690:1164   */\n    tag_8:\n        /* \"#utility.yul\":758:764   */\n      0x00\n        /* \"#utility.yul\":766:772   */\n      dup1\n        /* \"#utility.yul\":815:817   */\n      0x40\n        /* \"#utility.yul\":803:812   */\n      dup4\n        /* \"#utility.yul\":794:801   */\n      dup6\n        /* \"#utility.yul\":790:813   */\n      sub\n        /* \"#utility.yul\":786:818   */\n      slt\n        /* \"#utility.yul\":783:902   */\n      iszero\n      tag_67\n      jumpi\n        /* \"#utility.yul\":821:900   */\n      tag_68\n      tag_43\n      jump\t// in\n    tag_68:\n        /* \"#utility.yul\":783:902   */\n    tag_67:\n        /* \"#utility.yul\":941:942   */\n      0x00\n        /* \"#utility.yul\":966:1019   */\n      tag_69\n        /* \"#utility.yul\":1011:1018   */\n      dup6\n        /* \"#utility.yul\":1002:1008   */\n      dup3\n        /* \"#utility.yul\":991:1000   */\n      dup7\n        /* \"#utility.yul\":987:1009   */\n      add\n        /* \"#utility.yul\":966:1019   */\n      tag_47\n      jump\t// in\n    tag_69:\n        /* \"#utility.yul\":956:1019   */\n      swap3\n      pop\n        /* \"#utility.yul\":912:1029   */\n      pop\n        /* \"#utility.yul\":1068:1070   */\n      0x20\n        /* \"#utility.yul\":1094:1147   */\n      tag_70\n        /* \"#utility.yul\":1139:1146   */\n      dup6\n        /* \"#utility.yul\":1130:1136   */\n      dup3\n        /* \"#utility.yul\":1119:1128   */\n      dup7\n        /* \"#utility.yul\":1115:1137   */\n      add\n        /* \"#utility.yul\":1094:1147   */\n      tag_47\n      jump\t// in\n    tag_70:\n        /* \"#utility.yul\":1084:1147   */\n      swap2\n      pop\n        /* \"#utility.yul\":1039:1157   */\n      pop\n        /* \"#utility.yul\":690:1164   */\n      swap3\n      pop\n      swap3\n      swap1\n      pop\n      jump\t// out\n        /* \"#utility.yul\":1170:1288   */\n    tag_48:\n        /* \"#utility.yul\":1257:1281   */\n      tag_72\n        /* \"#utility.yul\":1275:1280   */\n      dup2\n        /* \"#utility.yul\":1257:1281   */\n      tag_45\n      jump\t// in\n    tag_72:\n        /* \"#utility.yul\":1252:1255   */\n      dup3\n        /* \"#utility.yul\":1245:1282   */\n      mstore\n        /* \"#utility.yul\":1170:1288   */\n      pop\n      pop\n      jump\t// out\n        /* \"#utility.yul\":1294:1516   */\n    tag_11:\n        /* \"#utility.yul\":1387:1391   */\n      0x00\n        /* \"#utility.yul\":1425:1427   */\n      0x20\n        /* \"#utility.yul\":1414:1423   */\n      dup3\n        /* \"#utility.yul\":1410:1428   */\n      add\n        /* \"#utility.yul\":1402:1428   */\n      swap1\n      pop\n        /* \"#utility.yul\":1438:1509   */\n      tag_74\n        /* \"#utility.yul\":1506:1507   */\n      0x00\n        /* \"#utility.yul\":1495:1504   */\n      dup4\n        /* \"#utility.yul\":1491:1508   */\n      add\n        /* \"#utility.yul\":1482:1488   */\n      dup5\n        /* \"#utility.yul\":1438:1509   */\n      tag_48\n      jump\t// in\n    tag_74:\n        /* \"#utility.yul\":1294:1516   */\n      swap3\n      swap2\n      pop\n      pop\n      jump\t// out\n        /* \"#utility.yul\":1522:1691   */\n    tag_49:\n        /* \"#utility.yul\":1606:1617   */\n      0x00\n        /* \"#utility.yul\":1640:1646   */\n      dup3\n        /* \"#utility.yul\":1635:1638   */\n      dup3\n        /* \"#utility.yul\":1628:1647   */\n      mstore\n        /* \"#utility.yul\":1680:1684   */\n      0x20\n        /* \"#utility.yul\":1675:1678   */\n      dup3\n        /* \"#utility.yul\":1671:1685   */\n      add\n        /* \"#utility.yul\":1656:1685   */\n      swap1\n      pop\n        /* \"#utility.yul\":1522:1691   */\n      swap3\n      swap2\n      pop\n      pop\n      jump\t// out\n        /* \"#utility.yul\":1697:1859   */\n    tag_50:\n        /* \"#utility.yul\":1837:1851   */\n      0x6c657373207468616e2031300000000000000000000000000000000000000000\n        /* \"#utility.yul\":1833:1834   */\n      0x00\n        /* \"#utility.yul\":1825:1831   */\n      dup3\n        /* \"#utility.yul\":1821:1835   */\n      add\n        /* \"#utility.yul\":1814:1852   */\n      mstore\n        /* \"#utility.yul\":1697:1859   */\n      pop\n      jump\t// out\n        /* \"#utility.yul\":1865:2231   */\n    tag_51:\n        /* \"#utility.yul\":2007:2010   */\n      0x00\n        /* \"#utility.yul\":2028:2095   */\n      tag_78\n        /* \"#utility.yul\":2092:2094   */\n      0x0c\n        /* \"#utility.yul\":2087:2090   */\n      dup4\n        /* \"#utility.yul\":2028:2095   */\n      tag_49\n      jump\t// in\n    tag_78:\n        /* \"#utility.yul\":2021:2095   */\n      swap2\n      pop\n        /* \"#utility.yul\":2104:2197   */\n      tag_79\n        /* \"#utility.yul\":2193:2196   */\n      dup3\n        /* \"#utility.yul\":2104:2197   */\n      tag_50\n      jump\t// in\n    tag_79:\n        /* \"#utility.yul\":2222:2224   */\n      0x20\n        /* \"#utility.yul\":2217:2220   */\n      dup3\n        /* \"#utility.yul\":2213:2225   */\n      add\n        /* \"#utility.yul\":2206:2225   */\n      swap1\n      pop\n        /* \"#utility.yul\":1865:2231   */\n      swap2\n      swap1\n      pop\n      jump\t// out\n        /* \"#utility.yul\":2237:2656   */\n    tag_24:\n        /* \"#utility.yul\":2403:2407   */\n      0x00\n        /* \"#utility.yul\":2441:2443   */\n      0x20\n        /* \"#utility.yul\":2430:2439   */\n      dup3\n        /* \"#utility.yul\":2426:2444   */\n      add\n        /* \"#utility.yul\":2418:2444   */\n      swap1\n      pop\n        /* \"#utility.yul\":2490:2499   */\n      dup2\n        /* \"#utility.yul\":2484:2488   */\n      dup2\n        /* \"#utility.yul\":2480:2500   */\n      sub\n        /* \"#utility.yul\":2476:2477   */\n      0x00\n        /* \"#utility.yul\":2465:2474   */\n      dup4\n        /* \"#utility.yul\":2461:2478   */\n      add\n        /* \"#utility.yul\":2454:2501   */\n      mstore\n        /* \"#utility.yul\":2518:2649   */\n      tag_81\n        /* \"#utility.yul\":2644:2648   */\n      dup2\n        /* \"#utility.yul\":2518:2649   */\n      tag_51\n      jump\t// in\n    tag_81:\n        /* \"#utility.yul\":2510:2649   */\n      swap1\n      pop\n        /* \"#utility.yul\":2237:2656   */\n      swap2\n      swap1\n      pop\n      jump\t// out\n        /* \"#utility.yul\":2662:2842   */\n    tag_52:\n        /* \"#utility.yul\":2710:2787   */\n      0x4e487b7100000000000000000000000000000000000000000000000000000000\n        /* \"#utility.yul\":2707:2708   */\n      0x00\n        /* \"#utility.yul\":2700:2788   */\n      mstore\n        /* \"#utility.yul\":2807:2811   */\n      0x11\n        /* \"#utility.yul\":2804:2805   */\n      0x04\n        /* \"#utility.yul\":2797:2812   */\n      mstore\n        /* \"#utility.yul\":2831:2835   */\n      0x24\n        /* \"#utility.yul\":2828:2829   */\n      0x00\n        /* \"#utility.yul\":2821:2836   */\n      revert\n        /* \"#utility.yul\":2848:3039   */\n    tag_27:\n        /* \"#utility.yul\":2888:2891   */\n      0x00\n        /* \"#utility.yul\":2907:2927   */\n      tag_84\n        /* \"#utility.yul\":2925:2926   */\n      dup3\n        /* \"#utility.yul\":2907:2927   */\n      tag_45\n      jump\t// in\n    tag_84:\n        /* \"#utility.yul\":2902:2927   */\n      swap2\n      pop\n        /* \"#utility.yul\":2941:2961   */\n      tag_85\n        /* \"#utility.yul\":2959:2960   */\n      dup4\n        /* \"#utility.yul\":2941:2961   */\n      tag_45\n      jump\t// in\n    tag_85:\n        /* \"#utility.yul\":2936:2961   */\n      swap3\n      pop\n        /* \"#utility.yul\":2984:2985   */\n      dup3\n        /* \"#utility.yul\":2981:2982   */\n      dup3\n        /* \"#utility.yul\":2977:2986   */\n      add\n        /* \"#utility.yul\":2970:2986   */\n      swap1\n      pop\n        /* \"#utility.yul\":3005:3008   */\n      dup1\n        /* \"#utility.yul\":3002:3003   */\n      dup3\n        /* \"#utility.yul\":2999:3009   */\n      gt\n        /* \"#utility.yul\":2996:3032   */\n      iszero\n      tag_86\n      jumpi\n        /* \"#utility.yul\":3012:3030   */\n      tag_87\n      tag_52\n      jump\t// in\n    tag_87:\n        /* \"#utility.yul\":2996:3032   */\n    tag_86:\n        /* \"#utility.yul\":2848:3039   */\n      swap3\n      swap2\n      pop\n      pop\n      jump\t// out\n        /* \"#utility.yul\":3045:3147   */\n    tag_53:\n        /* \"#utility.yul\":3087:3095   */\n      0x00\n        /* \"#utility.yul\":3134:3139   */\n      dup2\n        /* \"#utility.yul\":3131:3132   */\n      0x01\n        /* \"#utility.yul\":3127:3140   */\n      shr\n        /* \"#utility.yul\":3106:3140   */\n      swap1\n      pop\n        /* \"#utility.yul\":3045:3147   */\n      swap2\n      swap1\n      pop\n      jump\t// out\n        /* \"#utility.yul\":3153:4001   */\n    tag_54:\n        /* \"#utility.yul\":3214:3219   */\n      0x00\n        /* \"#utility.yul\":3221:3225   */\n      dup1\n        /* \"#utility.yul\":3245:3251   */\n      dup3\n        /* \"#utility.yul\":3236:3251   */\n      swap2\n      pop\n        /* \"#utility.yul\":3269:3274   */\n      dup4\n        /* \"#utility.yul\":3260:3274   */\n      swap1\n      pop\n        /* \"#utility.yul\":3283:3995   */\n    tag_90:\n        /* \"#utility.yul\":3304:3305   */\n      0x01\n        /* \"#utility.yul\":3294:3302   */\n      dup6\n        /* \"#utility.yul\":3291:3306   */\n      gt\n        /* \"#utility.yul\":3283:3995   */\n      iszero\n      tag_92\n      jumpi\n        /* \"#utility.yul\":3399:3403   */\n      dup1\n        /* \"#utility.yul\":3394:3397   */\n      dup7\n        /* \"#utility.yul\":3390:3404   */\n      div\n        /* \"#utility.yul\":3384:3388   */\n      dup2\n        /* \"#utility.yul\":3381:3405   */\n      gt\n        /* \"#utility.yul\":3378:3428   */\n      iszero\n      tag_93\n      jumpi\n        /* \"#utility.yul\":3408:3426   */\n      tag_94\n      tag_52\n      jump\t// in\n    tag_94:\n        /* \"#utility.yul\":3378:3428   */\n    tag_93:\n        /* \"#utility.yul\":3458:3459   */\n      0x01\n        /* \"#utility.yul\":3448:3456   */\n      dup6\n        /* \"#utility.yul\":3444:3460   */\n      and\n        /* \"#utility.yul\":3441:3892   */\n      iszero\n      tag_95\n      jumpi\n        /* \"#utility.yul\":3873:3877   */\n      dup1\n        /* \"#utility.yul\":3866:3871   */\n      dup3\n        /* \"#utility.yul\":3862:3878   */\n      mul\n        /* \"#utility.yul\":3853:3878   */\n      swap2\n      pop\n        /* \"#utility.yul\":3441:3892   */\n    tag_95:\n        /* \"#utility.yul\":3923:3927   */\n      dup1\n        /* \"#utility.yul\":3917:3921   */\n      dup2\n        /* \"#utility.yul\":3913:3928   */\n      mul\n        /* \"#utility.yul\":3905:3928   */\n      swap1\n      pop\n        /* \"#utility.yul\":3953:3985   */\n      tag_96\n        /* \"#utility.yul\":3976:3984   */\n      dup6\n        /* \"#utility.yul\":3953:3985   */\n      tag_53\n      jump\t// in\n    tag_96:\n        /* \"#utility.yul\":3941:3985   */\n      swap5\n      pop\n        /* \"#utility.yul\":3283:3995   */\n      jump(tag_90)\n    tag_92:\n        /* \"#utility.yul\":3153:4001   */\n      swap5\n      pop\n      swap5\n      swap3\n      pop\n      pop\n      pop\n      jump\t// out\n        /* \"#utility.yul\":4007:5080   */\n    tag_55:\n        /* \"#utility.yul\":4061:4066   */\n      0x00\n        /* \"#utility.yul\":4252:4260   */\n      dup3\n        /* \"#utility.yul\":4242:4282   */\n      tag_98\n      jumpi\n        /* \"#utility.yul\":4273:4274   */\n      0x01\n        /* \"#utility.yul\":4264:4274   */\n      swap1\n      pop\n        /* \"#utility.yul\":4275:4280   */\n      jump(tag_97)\n        /* \"#utility.yul\":4242:4282   */\n    tag_98:\n        /* \"#utility.yul\":4301:4305   */\n      dup2\n        /* \"#utility.yul\":4291:4327   */\n      tag_99\n      jumpi\n        /* \"#utility.yul\":4318:4319   */\n      0x00\n        /* \"#utility.yul\":4309:4319   */\n      swap1\n      pop\n        /* \"#utility.yul\":4320:4325   */\n      jump(tag_97)\n        /* \"#utility.yul\":4291:4327   */\n    tag_99:\n        /* \"#utility.yul\":4387:4391   */\n      dup2\n        /* \"#utility.yul\":4435:4436   */\n      0x01\n        /* \"#utility.yul\":4430:4457   */\n      dup2\n      eq\n      tag_101\n      jumpi\n        /* \"#utility.yul\":4471:4472   */\n      0x02\n        /* \"#utility.yul\":4466:4657   */\n      dup2\n      eq\n      tag_102\n      jumpi\n        /* \"#utility.yul\":4380:4657   */\n      jump(tag_100)\n        /* \"#utility.yul\":4430:4457   */\n    tag_101:\n        /* \"#utility.yul\":4448:4449   */\n      0x01\n        /* \"#utility.yul\":4439:4449   */\n      swap2\n      pop\n        /* \"#utility.yul\":4450:4455   */\n      pop\n      jump(tag_97)\n        /* \"#utility.yul\":4466:4657   */\n    tag_102:\n        /* \"#utility.yul\":4511:4514   */\n      0xff\n        /* \"#utility.yul\":4501:4509   */\n      dup5\n        /* \"#utility.yul\":4498:4515   */\n      gt\n        /* \"#utility.yul\":4495:4538   */\n      iszero\n      tag_103\n      jumpi\n        /* \"#utility.yul\":4518:4536   */\n      tag_104\n      tag_52\n      jump\t// in\n    tag_104:\n        /* \"#utility.yul\":4495:4538   */\n    tag_103:\n        /* \"#utility.yul\":4567:4575   */\n      dup4\n        /* \"#utility.yul\":4564:4565   */\n      0x02\n        /* \"#utility.yul\":4560:4576   */\n      exp\n        /* \"#utility.yul\":4551:4576   */\n      swap2\n      pop\n        /* \"#utility.yul\":4602:4605   */\n      dup5\n        /* \"#utility.yul\":4595:4600   */\n      dup3\n        /* \"#utility.yul\":4592:4606   */\n      gt\n        /* \"#utility.yul\":4589:4629   */\n      iszero\n      tag_105\n      jumpi\n        /* \"#utility.yul\":4609:4627   */\n      tag_106\n      tag_52\n      jump\t// in\n    tag_106:\n        /* \"#utility.yul\":4589:4629   */\n    tag_105:\n        /* \"#utility.yul\":4642:4647   */\n      pop\n      jump(tag_97)\n        /* \"#utility.yul\":4380:4657   */\n    tag_100:\n      pop\n        /* \"#utility.yul\":4766:4768   */\n      0x20\n        /* \"#utility.yul\":4756:4764   */\n      dup4\n        /* \"#utility.yul\":4753:4769   */\n      lt\n        /* \"#utility.yul\":4747:4750   */\n      0x0133\n        /* \"#utility.yul\":4741:4745   */\n      dup4\n        /* \"#utility.yul\":4738:4751   */\n      lt\n        /* \"#utility.yul\":4734:4770   */\n      and\n        /* \"#utility.yul\":4716:4718   */\n      0x4e\n        /* \"#utility.yul\":4706:4714   */\n      dup5\n        /* \"#utility.yul\":4703:4719   */\n      lt\n        /* \"#utility.yul\":4698:4700   */\n      0x0b\n        /* \"#utility.yul\":4692:4696   */\n      dup5\n        /* \"#utility.yul\":4689:4701   */\n      lt\n        /* \"#utility.yul\":4685:4720   */\n      and\n        /* \"#utility.yul\":4669:4780   */\n      or\n        /* \"#utility.yul\":4666:4912   */\n      iszero\n      tag_107\n      jumpi\n        /* \"#utility.yul\":4822:4830   */\n      dup3\n        /* \"#utility.yul\":4816:4820   */\n      dup3\n        /* \"#utility.yul\":4812:4831   */\n      exp\n        /* \"#utility.yul\":4803:4831   */\n      swap1\n      pop\n        /* \"#utility.yul\":4857:4860   */\n      dup4\n        /* \"#utility.yul\":4850:4855   */\n      dup2\n        /* \"#utility.yul\":4847:4861   */\n      gt\n        /* \"#utility.yul\":4844:4884   */\n      iszero\n      tag_108\n      jumpi\n        /* \"#utility.yul\":4864:4882   */\n      tag_109\n      tag_52\n      jump\t// in\n    tag_109:\n        /* \"#utility.yul\":4844:4884   */\n    tag_108:\n        /* \"#utility.yul\":4897:4902   */\n      jump(tag_97)\n        /* \"#utility.yul\":4666:4912   */\n    tag_107:\n        /* \"#utility.yul\":4937:4979   */\n      tag_110\n        /* \"#utility.yul\":4975:4978   */\n      dup5\n        /* \"#utility.yul\":4965:4973   */\n      dup5\n        /* \"#utility.yul\":4959:4963   */\n      dup5\n        /* \"#utility.yul\":4956:4957   */\n      0x01\n        /* \"#utility.yul\":4937:4979   */\n      tag_54\n      jump\t// in\n    tag_110:\n        /* \"#utility.yul\":4922:4979   */\n      swap3\n      pop\n      swap1\n      pop\n        /* \"#utility.yul\":5011:5015   */\n      dup2\n        /* \"#utility.yul\":5006:5009   */\n      dup5\n        /* \"#utility.yul\":5002:5016   */\n      div\n        /* \"#utility.yul\":4995:5000   */\n      dup2\n        /* \"#utility.yul\":4992:5017   */\n      gt\n        /* \"#utility.yul\":4989:5040   */\n      iszero\n      tag_111\n      jumpi\n        /* \"#utility.yul\":5020:5038   */\n      tag_112\n      tag_52\n      jump\t// in\n    tag_112:\n        /* \"#utility.yul\":4989:5040   */\n    tag_111:\n        /* \"#utility.yul\":5069:5073   */\n      dup2\n        /* \"#utility.yul\":5062:5067   */\n      dup2\n        /* \"#utility.yul\":5058:5074   */\n      mul\n        /* \"#utility.yul\":5049:5074   */\n      swap1\n      pop\n        /* \"#utility.yul\":4007:5080   */\n    tag_97:\n      swap4\n      swap3\n      pop\n      pop\n      pop\n      jump\t// out\n        /* \"#utility.yul\":5086:5371   */\n    tag_34:\n        /* \"#utility.yul\":5146:5151   */\n      0x00\n        /* \"#utility.yul\":5170:5193   */\n      tag_114\n        /* \"#utility.yul\":5188:5192   */\n      dup3\n        /* \"#utility.yul\":5170:5193   */\n      tag_45\n      jump\t// in\n    tag_114:\n        /* \"#utility.yul\":5162:5193   */\n      swap2\n      pop\n        /* \"#utility.yul\":5214:5241   */\n      tag_115\n        /* \"#utility.yul\":5232:5240   */\n      dup4\n        /* \"#utility.yul\":5214:5241   */\n      tag_45\n      jump\t// in\n    tag_115:\n        /* \"#utility.yul\":5202:5241   */\n      swap3\n      pop\n        /* \"#utility.yul\":5260:5364   */\n      tag_116\n        /* \"#utility.yul\":5297:5363   */\n      0xffffffffffffffffffffffffffffffffffffffffffffffffffffffffffffffff\n        /* \"#utility.yul\":5287:5295   */\n      dup5\n        /* \"#utility.yul\":5281:5285   */\n      dup5\n        /* \"#utility.yul\":5260:5364   */\n      tag_55\n      jump\t// in\n    tag_116:\n        /* \"#utility.yul\":5251:5364   */\n      swap1\n      pop\n        /* \"#utility.yul\":5086:5371   */\n      swap3\n      swap2\n      pop\n      pop\n      jump\t// out\n        /* \"#utility.yul\":5377:5787   */\n    tag_41:\n        /* \"#utility.yul\":5417:5424   */\n      0x00\n        /* \"#utility.yul\":5440:5460   */\n      tag_118\n        /* \"#utility.yul\":5458:5459   */\n      dup3\n        /* \"#utility.yul\":5440:5460   */\n      tag_45\n      jump\t// in\n    tag_118:\n        /* \"#utility.yul\":5435:5460   */\n      swap2\n      pop\n        /* \"#utility.yul\":5474:5494   */\n      tag_119\n        /* \"#utility.yul\":5492:5493   */\n      dup4\n        /* \"#utility.yul\":5474:5494   */\n      tag_45\n      jump\t// in\n    tag_119:\n        /* \"#utility.yul\":5469:5494   */\n      swap3\n      pop\n        /* \"#utility.yul\":5529:5530   */\n      dup3\n        /* \"#utility.yul\":5526:5527   */\n      dup3\n        /* \"#utility.yul\":5522:5531   */\n      mul\n        /* \"#utility.yul\":5551:5581   */\n      tag_120\n        /* \"#utility.yul\":5569:5580   */\n      dup2\n        /* \"#utility.yul\":5551:5581   */\n      tag_45\n      jump\t// in\n    tag_120:\n        /* \"#utility.yul\":5540:5581   */\n      swap2\n      pop\n        /* \"#utility.yul\":5730:5731   */\n      dup3\n        /* \"#utility.yul\":5721:5728   */\n      dup3\n        /* \"#utility.yul\":5717:5732   */\n      div\n        /* \"#utility.yul\":5714:5715   */\n      dup5\n        /* \"#utility.yul\":5711:5733   */\n      eq\n        /* \"#utility.yul\":5691:5692   */\n      dup4\n        /* \"#utility.yul\":5684:5693   */\n      iszero\n        /* \"#utility.yul\":5664:5747   */\n      or\n        /* \"#utility.yul\":5641:5780   */\n      tag_121\n      jumpi\n        /* \"#utility.yul\":5760:5778   */\n      tag_122\n      tag_52\n      jump\t// in\n    tag_122:\n        /* \"#utility.yul\":5641:5780   */\n    tag_121:\n        /* \"#utility.yul\":5425:5787   */\n      pop\n        /* \"#utility.yul\":5377:5787   */\n      swap3\n      swap2\n      pop\n      pop\n      jump\t// out\n\n    auxdata: 0xa2646970667358221220ed067592f5146a88dc90e924415fe0cd93d11b5b72532a0dc44d70f43092e9da64736f6c634300081a0033\n}\n",
				"bytecode": {
					"linkReferences": {},
					"object": "6080604052348015600e575f80fd5b506105768061001c5f395ff3fe608060405234801561000f575f80fd5b506004361061003f575f3560e01c8063771602f714610043578063c04f01fc14610073578063c8a4ac9c146100a3575b5f80fd5b61005d60048036038101906100589190610248565b6100d3565b60405161006a9190610295565b60405180910390f35b61008d60048036038101906100889190610248565b61013d565b60405161009a9190610295565b60405180910390f35b6100bd60048036038101906100b89190610248565b6101a7565b6040516100ca9190610295565b60405180910390f35b5f8282600a82111580156100e85750600a8111155b610127576040517f08c379a000000000000000000000000000000000000000000000000000000000815260040161011e90610308565b60405180910390fd5b83856101339190610353565b9250505092915050565b5f8282600a82111580156101525750600a8111155b610191576040517f08c379a000000000000000000000000000000000000000000000000000000000815260040161018890610308565b60405180910390fd5b838561019d91906104b5565b9250505092915050565b5f8282600a82111580156101bc5750600a8111155b6101fb576040517f08c379a00000000000000000000000000000000000000000000000000000000081526004016101f290610308565b60405180910390fd5b838561020791906104ff565b9250505092915050565b5f80fd5b5f819050919050565b61022781610215565b8114610231575f80fd5b50565b5f813590506102428161021e565b92915050565b5f806040838503121561025e5761025d610211565b5b5f61026b85828601610234565b925050602061027c85828601610234565b9150509250929050565b61028f81610215565b82525050565b5f6020820190506102a85f830184610286565b92915050565b5f82825260208201905092915050565b7f6c657373207468616e20313000000000000000000000000000000000000000005f82015250565b5f6102f2600c836102ae565b91506102fd826102be565b602082019050919050565b5f6020820190508181035f83015261031f816102e6565b9050919050565b7f4e487b71000000000000000000000000000000000000000000000000000000005f52601160045260245ffd5b5f61035d82610215565b915061036883610215565b92508282019050808211156103805761037f610326565b5b92915050565b5f8160011c9050919050565b5f808291508390505b60018511156103db578086048111156103b7576103b6610326565b5b60018516156103c65780820291505b80810290506103d485610386565b945061039b565b94509492505050565b5f826103f357600190506104ae565b81610400575f90506104ae565b816001811461041657600281146104205761044f565b60019150506104ae565b60ff84111561043257610431610326565b5b8360020a91508482111561044957610448610326565b5b506104ae565b5060208310610133831016604e8410600b84101617156104845782820a90508381111561047f5761047e610326565b5b6104ae565b6104918484846001610392565b925090508184048111156104a8576104a7610326565b5b81810290505b9392505050565b5f6104bf82610215565b91506104ca83610215565b92506104f77fffffffffffffffffffffffffffffffffffffffffffffffffffffffffffffffff84846103e4565b905092915050565b5f61050982610215565b915061051483610215565b925082820261052281610215565b9150828204841483151761053957610538610326565b5b509291505056fea2646970667358221220ed067592f5146a88dc90e924415fe0cd93d11b5b72532a0dc44d70f43092e9da64736f6c634300081a0033",
					"opcodes": "PUSH1 0x80 PUSH1 0x40 MSTORE CALLVALUE DUP1 ISZERO PUSH1 0xE JUMPI PUSH0 DUP1 REVERT JUMPDEST POP PUSH2 0x576 DUP1 PUSH2 0x1C PUSH0 CODECOPY PUSH0 RETURN INVALID PUSH1 0x80 PUSH1 0x40 MSTORE CALLVALUE DUP1 ISZERO PUSH2 0xF JUMPI PUSH0 DUP1 REVERT JUMPDEST POP PUSH1 0x4 CALLDATASIZE LT PUSH2 0x3F JUMPI PUSH0 CALLDATALOAD PUSH1 0xE0 SHR DUP1 PUSH4 0x771602F7 EQ PUSH2 0x43 JUMPI DUP1 PUSH4 0xC04F01FC EQ PUSH2 0x73 JUMPI DUP1 PUSH4 0xC8A4AC9C EQ PUSH2 0xA3 JUMPI JUMPDEST PUSH0 DUP1 REVERT JUMPDEST PUSH2 0x5D PUSH1 0x4 DUP1 CALLDATASIZE SUB DUP2 ADD SWAP1 PUSH2 0x58 SWAP2 SWAP1 PUSH2 0x248 JUMP JUMPDEST PUSH2 0xD3 JUMP JUMPDEST PUSH1 0x40 MLOAD PUSH2 0x6A SWAP2 SWAP1 PUSH2 0x295 JUMP JUMPDEST PUSH1 0x40 MLOAD DUP1 SWAP2 SUB SWAP1 RETURN JUMPDEST PUSH2 0x8D PUSH1 0x4 DUP1 CALLDATASIZE SUB DUP2 ADD SWAP1 PUSH2 0x88 SWAP2 SWAP1 PUSH2 0x248 JUMP JUMPDEST PUSH2 0x13D JUMP JUMPDEST PUSH1 0x40 MLOAD PUSH2 0x9A SWAP2 SWAP1 PUSH2 0x295 JUMP JUMPDEST PUSH1 0x40 MLOAD DUP1 SWAP2 SUB SWAP1 RETURN JUMPDEST PUSH2 0xBD PUSH1 0x4 DUP1 CALLDATASIZE SUB DUP2 ADD SWAP1 PUSH2 0xB8 SWAP2 SWAP1 PUSH2 0x248 JUMP JUMPDEST PUSH2 0x1A7 JUMP JUMPDEST PUSH1 0x40 MLOAD PUSH2 0xCA SWAP2 SWAP1 PUSH2 0x295 JUMP JUMPDEST PUSH1 0x40 MLOAD DUP1 SWAP2 SUB SWAP1 RETURN JUMPDEST PUSH0 DUP3 DUP3 PUSH1 0xA DUP3 GT ISZERO DUP1 ISZERO PUSH2 0xE8 JUMPI POP PUSH1 0xA DUP2 GT ISZERO JUMPDEST PUSH2 0x127 JUMPI PUSH1 0x40 MLOAD PUSH32 0x8C379A000000000000000000000000000000000000000000000000000000000 DUP2 MSTORE PUSH1 0x4 ADD PUSH2 0x11E SWAP1 PUSH2 0x308 JUMP JUMPDEST PUSH1 0x40 MLOAD DUP1 SWAP2 SUB SWAP1 REVERT JUMPDEST DUP4 DUP6 PUSH2 0x133 SWAP2 SWAP1 PUSH2 0x353 JUMP JUMPDEST SWAP3 POP POP POP SWAP3 SWAP2 POP POP JUMP JUMPDEST PUSH0 DUP3 DUP3 PUSH1 0xA DUP3 GT ISZERO DUP1 ISZERO PUSH2 0x152 JUMPI POP PUSH1 0xA DUP2 GT ISZERO JUMPDEST PUSH2 0x191 JUMPI PUSH1 0x40 MLOAD PUSH32 0x8C379A000000000000000000000000000000000000000000000000000000000 DUP2 MSTORE PUSH1 0x4 ADD PUSH2 0x188 SWAP1 PUSH2 0x308 JUMP JUMPDEST PUSH1 0x40 MLOAD DUP1 SWAP2 SUB SWAP1 REVERT JUMPDEST DUP4 DUP6 PUSH2 0x19D SWAP2 SWAP1 PUSH2 0x4B5 JUMP JUMPDEST SWAP3 POP POP POP SWAP3 SWAP2 POP POP JUMP JUMPDEST PUSH0 DUP3 DUP3 PUSH1 0xA DUP3 GT ISZERO DUP1 ISZERO PUSH2 0x1BC JUMPI POP PUSH1 0xA DUP2 GT ISZERO JUMPDEST PUSH2 0x1FB JUMPI PUSH1 0x40 MLOAD PUSH32 0x8C379A000000000000000000000000000000000000000000000000000000000 DUP2 MSTORE PUSH1 0x4 ADD PUSH2 0x1F2 SWAP1 PUSH2 0x308 JUMP JUMPDEST PUSH1 0x40 MLOAD DUP1 SWAP2 SUB SWAP1 REVERT JUMPDEST DUP4 DUP6 PUSH2 0x207 SWAP2 SWAP1 PUSH2 0x4FF JUMP JUMPDEST SWAP3 POP POP POP SWAP3 SWAP2 POP POP JUMP JUMPDEST PUSH0 DUP1 REVERT JUMPDEST PUSH0 DUP2 SWAP1 POP SWAP2 SWAP1 POP JUMP JUMPDEST PUSH2 0x227 DUP2 PUSH2 0x215 JUMP JUMPDEST DUP2 EQ PUSH2 0x231 JUMPI PUSH0 DUP1 REVERT JUMPDEST POP JUMP JUMPDEST PUSH0 DUP2 CALLDATALOAD SWAP1 POP PUSH2 0x242 DUP2 PUSH2 0x21E JUMP JUMPDEST SWAP3 SWAP2 POP POP JUMP JUMPDEST PUSH0 DUP1 PUSH1 0x40 DUP4 DUP6 SUB SLT ISZERO PUSH2 0x25E JUMPI PUSH2 0x25D PUSH2 0x211 JUMP JUMPDEST JUMPDEST PUSH0 PUSH2 0x26B DUP6 DUP3 DUP7 ADD PUSH2 0x234 JUMP JUMPDEST SWAP3 POP POP PUSH1 0x20 PUSH2 0x27C DUP6 DUP3 DUP7 ADD PUSH2 0x234 JUMP JUMPDEST SWAP2 POP POP SWAP3 POP SWAP3 SWAP1 POP JUMP JUMPDEST PUSH2 0x28F DUP2 PUSH2 0x215 JUMP JUMPDEST DUP3 MSTORE POP POP JUMP JUMPDEST PUSH0 PUSH1 0x20 DUP3 ADD SWAP1 POP PUSH2 0x2A8 PUSH0 DUP4 ADD DUP5 PUSH2 0x286 JUMP JUMPDEST SWAP3 SWAP2 POP POP JUMP JUMPDEST PUSH0 DUP3 DUP3 MSTORE PUSH1 0x20 DUP3 ADD SWAP1 POP SWAP3 SWAP2 POP POP JUMP JUMPDEST PUSH32 0x6C657373207468616E2031300000000000000000000000000000000000000000 PUSH0 DUP3 ADD MSTORE POP JUMP JUMPDEST PUSH0 PUSH2 0x2F2 PUSH1 0xC DUP4 PUSH2 0x2AE JUMP JUMPDEST SWAP2 POP PUSH2 0x2FD DUP3 PUSH2 0x2BE JUMP JUMPDEST PUSH1 0x20 DUP3 ADD SWAP1 POP SWAP2 SWAP1 POP JUMP JUMPDEST PUSH0 PUSH1 0x20 DUP3 ADD SWAP1 POP DUP2 DUP2 SUB PUSH0 DUP4 ADD MSTORE PUSH2 0x31F DUP2 PUSH2 0x2E6 JUMP JUMPDEST SWAP1 POP SWAP2 SWAP1 POP JUMP JUMPDEST PUSH32 0x4E487B7100000000000000000000000000000000000000000000000000000000 PUSH0 MSTORE PUSH1 0x11 PUSH1 0x4 MSTORE PUSH1 0x24 PUSH0 REVERT JUMPDEST PUSH0 PUSH2 0x35D DUP3 PUSH2 0x215 JUMP JUMPDEST SWAP2 POP PUSH2 0x368 DUP4 PUSH2 0x215 JUMP JUMPDEST SWAP3 POP DUP3 DUP3 ADD SWAP1 POP DUP1 DUP3 GT ISZERO PUSH2 0x380 JUMPI PUSH2 0x37F PUSH2 0x326 JUMP JUMPDEST JUMPDEST SWAP3 SWAP2 POP POP JUMP JUMPDEST PUSH0 DUP2 PUSH1 0x1 SHR SWAP1 POP SWAP2 SWAP1 POP JUMP JUMPDEST PUSH0 DUP1 DUP3 SWAP2 POP DUP4 SWAP1 POP JUMPDEST PUSH1 0x1 DUP6 GT ISZERO PUSH2 0x3DB JUMPI DUP1 DUP7 DIV DUP2 GT ISZERO PUSH2 0x3B7 JUMPI PUSH2 0x3B6 PUSH2 0x326 JUMP JUMPDEST JUMPDEST PUSH1 0x1 DUP6 AND ISZERO PUSH2 0x3C6 JUMPI DUP1 DUP3 MUL SWAP2 POP JUMPDEST DUP1 DUP2 MUL SWAP1 POP PUSH2 0x3D4 DUP6 PUSH2 0x386 JUMP JUMPDEST SWAP5 POP PUSH2 0x39B JUMP JUMPDEST SWAP5 POP SWAP5 SWAP3 POP POP POP JUMP JUMPDEST PUSH0 DUP3 PUSH2 0x3F3 JUMPI PUSH1 0x1 SWAP1 POP PUSH2 0x4AE JUMP JUMPDEST DUP2 PUSH2 0x400 JUMPI PUSH0 SWAP1 POP PUSH2 0x4AE JUMP JUMPDEST DUP2 PUSH1 0x1 DUP2 EQ PUSH2 0x416 JUMPI PUSH1 0x2 DUP2 EQ PUSH2 0x420 JUMPI PUSH2 0x44F JUMP JUMPDEST PUSH1 0x1 SWAP2 POP POP PUSH2 0x4AE JUMP JUMPDEST PUSH1 0xFF DUP5 GT ISZERO PUSH2 0x432 JUMPI PUSH2 0x431 PUSH2 0x326 JUMP JUMPDEST JUMPDEST DUP4 PUSH1 0x2 EXP SWAP2 POP DUP5 DUP3 GT ISZERO PUSH2 0x449 JUMPI PUSH2 0x448 PUSH2 0x326 JUMP JUMPDEST JUMPDEST POP PUSH2 0x4AE JUMP JUMPDEST POP PUSH1 0x20 DUP4 LT PUSH2 0x133 DUP4 LT AND PUSH1 0x4E DUP5 LT PUSH1 0xB DUP5 LT AND OR ISZERO PUSH2 0x484 JUMPI DUP3 DUP3 EXP SWAP1 POP DUP4 DUP2 GT ISZERO PUSH2 0x47F JUMPI PUSH2 0x47E PUSH2 0x326 JUMP JUMPDEST JUMPDEST PUSH2 0x4AE JUMP JUMPDEST PUSH2 0x491 DUP5 DUP5 DUP5 PUSH1 0x1 PUSH2 0x392 JUMP JUMPDEST SWAP3 POP SWAP1 POP DUP2 DUP5 DIV DUP2 GT ISZERO PUSH2 0x4A8 JUMPI PUSH2 0x4A7 PUSH2 0x326 JUMP JUMPDEST JUMPDEST DUP2 DUP2 MUL SWAP1 POP JUMPDEST SWAP4 SWAP3 POP POP POP JUMP JUMPDEST PUSH0 PUSH2 0x4BF DUP3 PUSH2 0x215 JUMP JUMPDEST SWAP2 POP PUSH2 0x4CA DUP4 PUSH2 0x215 JUMP JUMPDEST SWAP3 POP PUSH2 0x4F7 PUSH32 0xFFFFFFFFFFFFFFFFFFFFFFFFFFFFFFFFFFFFFFFFFFFFFFFFFFFFFFFFFFFFFFFF DUP5 DUP5 PUSH2 0x3E4 JUMP JUMPDEST SWAP1 POP SWAP3 SWAP2 POP POP JUMP JUMPDEST PUSH0 PUSH2 0x509 DUP3 PUSH2 0x215 JUMP JUMPDEST SWAP2 POP PUSH2 0x514 DUP4 PUSH2 0x215 JUMP JUMPDEST SWAP3 POP DUP3 DUP3 MUL PUSH2 0x522 DUP2 PUSH2 0x215 JUMP JUMPDEST SWAP2 POP DUP3 DUP3 DIV DUP5 EQ DUP4 ISZERO OR PUSH2 0x539 JUMPI PUSH2 0x538 PUSH2 0x326 JUMP JUMPDEST JUMPDEST POP SWAP3 SWAP2 POP POP JUMP INVALID LOG2 PUSH5 0x6970667358 0x22 SLT KECCAK256 0xED MOD PUSH22 0x92F5146A88DC90E924415FE0CD93D11B5B72532A0DC4 0x4D PUSH17 0xF43092E9DA64736F6C634300081A003300 "
				},
				"gasEstimates": {
					"creation": {
						"codeDepositCost": "279600",
						"executionCost": "316",
						"totalCost": "279916"
					},
					"external": {
						"add(uint256,uint256)": "infinite",
						"mul(uint256,uint256)": "infinite",
						"power(uint256,uint256)": "infinite"
					}
				},
				"methodIdentifiers": {
					"add(uint256,uint256)": "771602f7",
					"mul(uint256,uint256)": "c8a4ac9c",
					"power(uint256,uint256)": "c04f01fc"
				}
			},
			"storageLayout": {
				"storage": [],
				"types": null
			},
			"userdoc": {
				"kind": "user",
				"methods": {},
				"version": 1
			}
		}
	}
}