{
	"Solidity100/Solidity91-100.sol": {
		"Question99": {
			"abi": [
				{
					"inputs": [
						{
							"internalType": "uint256[4]",
							"name": "_numbers",
							"type": "uint256[4]"
						}
					],
					"name": "highestLowest",
					"outputs": [
						{
							"internalType": "uint256",
							"name": "highest",
							"type": "uint256"
						},
						{
							"internalType": "uint256",
							"name": "lowest",
							"type": "uint256"
						}
					],
					"stateMutability": "pure",
					"type": "function"
				}
			],
			"devdoc": {
				"kind": "dev",
				"methods": {},
				"version": 1
			},
			"evm": {
				"assembly": "    /* \"Solidity100/Solidity91-100.sol\":5414:6297  contract Question99{    ... */\n  mstore(0x40, 0x80)\n  callvalue\n  dup1\n  iszero\n  tag_1\n  jumpi\n  0x00\n  dup1\n  revert\ntag_1:\n  pop\n  dataSize(sub_0)\n  dup1\n  dataOffset(sub_0)\n  0x00\n  codecopy\n  0x00\n  return\nstop\n\nsub_0: assembly {\n        /* \"Solidity100/Solidity91-100.sol\":5414:6297  contract Question99{    ... */\n      mstore(0x40, 0x80)\n      callvalue\n      dup1\n      iszero\n      tag_1\n      jumpi\n      0x00\n      dup1\n      revert\n    tag_1:\n      pop\n      jumpi(tag_2, lt(calldatasize, 0x04))\n      shr(0xe0, calldataload(0x00))\n      dup1\n      0x36fb68bb\n      eq\n      tag_3\n      jumpi\n    tag_2:\n      0x00\n      dup1\n      revert\n        /* \"Solidity100/Solidity91-100.sol\":5569:6295  function highestLowest(uint[4] memory _numbers) public pure returns(uint highest, uint lowest) {... */\n    tag_3:\n      tag_4\n      0x04\n      dup1\n      calldatasize\n      sub\n      dup2\n      add\n      swap1\n      tag_5\n      swap2\n      swap1\n      tag_6\n      jump\t// in\n    tag_5:\n      tag_7\n      jump\t// in\n    tag_4:\n      mload(0x40)\n      tag_8\n      swap3\n      swap2\n      swap1\n      tag_9\n      jump\t// in\n    tag_8:\n      mload(0x40)\n      dup1\n      swap2\n      sub\n      swap1\n      return\n    tag_7:\n        /* \"Solidity100/Solidity91-100.sol\":5637:5649  uint highest */\n      0x00\n        /* \"Solidity100/Solidity91-100.sol\":5651:5662  uint lowest */\n      dup1\n        /* \"Solidity100/Solidity91-100.sol\":5709:5717  _numbers */\n      dup3\n        /* \"Solidity100/Solidity91-100.sol\":5745:5746  0 */\n      0x00\n        /* \"Solidity100/Solidity91-100.sol\":5734:6191  for{let i:=0} lt(i,4) {i := add(i,1)} {... */\n    tag_11:\n        /* \"Solidity100/Solidity91-100.sol\":5753:5754  4 */\n      0x04\n        /* \"Solidity100/Solidity91-100.sol\":5751:5752  i */\n      dup2\n        /* \"Solidity100/Solidity91-100.sol\":5748:5755  lt(i,4) */\n      lt\n        /* \"Solidity100/Solidity91-100.sol\":5734:6191  for{let i:=0} lt(i,4) {i := add(i,1)} {... */\n      iszero\n      tag_13\n      jumpi\n        /* \"Solidity100/Solidity91-100.sol\":5808:5809  1 */\n      0x01\n        /* \"Solidity100/Solidity91-100.sol\":5806:5807  i */\n      dup2\n        /* \"Solidity100/Solidity91-100.sol\":5802:5810  add(i,1) */\n      add\n        /* \"Solidity100/Solidity91-100.sol\":5790:6177  for{let j:= add(i,1)} lt(j,4) {j := add(j,1)} {... */\n    tag_14:\n        /* \"Solidity100/Solidity91-100.sol\":5817:5818  4 */\n      0x04\n        /* \"Solidity100/Solidity91-100.sol\":5815:5816  j */\n      dup2\n        /* \"Solidity100/Solidity91-100.sol\":5812:5819  lt(j,4) */\n      lt\n        /* \"Solidity100/Solidity91-100.sol\":5790:6177  for{let j:= add(i,1)} lt(j,4) {j := add(j,1)} {... */\n      iszero\n      tag_16\n      jumpi\n        /* \"Solidity100/Solidity91-100.sol\":5919:5920  i */\n      dup2\n        /* \"Solidity100/Solidity91-100.sol\":5914:5918  0x20 */\n      0x20\n        /* \"Solidity100/Solidity91-100.sol\":5910:5921  mul(0x20,i) */\n      mul\n        /* \"Solidity100/Solidity91-100.sol\":5904:5909  start */\n      dup4\n        /* \"Solidity100/Solidity91-100.sol\":5900:5922  add(start,mul(0x20,i)) */\n      add\n        /* \"Solidity100/Solidity91-100.sol\":5894:5923  mload(add(start,mul(0x20,i))) */\n      mload\n        /* \"Solidity100/Solidity91-100.sol\":5889:5890  j */\n      dup2\n        /* \"Solidity100/Solidity91-100.sol\":5884:5888  0x20 */\n      0x20\n        /* \"Solidity100/Solidity91-100.sol\":5880:5891  mul(0x20,j) */\n      mul\n        /* \"Solidity100/Solidity91-100.sol\":5874:5879  start */\n      dup5\n        /* \"Solidity100/Solidity91-100.sol\":5870:5892  add(start,mul(0x20,j)) */\n      add\n        /* \"Solidity100/Solidity91-100.sol\":5864:5893  mload(add(start,mul(0x20,j))) */\n      mload\n        /* \"Solidity100/Solidity91-100.sol\":5861:5924  gt(mload(add(start,mul(0x20,j))),mload(add(start,mul(0x20,i)))) */\n      gt\n        /* \"Solidity100/Solidity91-100.sol\":5858:6159  if gt(mload(add(start,mul(0x20,j))),mload(add(start,mul(0x20,i)))) {... */\n      iszero\n      tag_17\n      jumpi\n        /* \"Solidity100/Solidity91-100.sol\":5987:5988  j */\n      dup1\n        /* \"Solidity100/Solidity91-100.sol\":5982:5986  0x20 */\n      0x20\n        /* \"Solidity100/Solidity91-100.sol\":5978:5989  mul(0x20,j) */\n      mul\n        /* \"Solidity100/Solidity91-100.sol\":5972:5977  start */\n      dup4\n        /* \"Solidity100/Solidity91-100.sol\":5968:5990  add(start,mul(0x20,j)) */\n      add\n        /* \"Solidity100/Solidity91-100.sol\":5962:5991  mload(add(start,mul(0x20,j))) */\n      mload\n        /* \"Solidity100/Solidity91-100.sol\":6072:6073  i */\n      dup3\n        /* \"Solidity100/Solidity91-100.sol\":6067:6071  0x20 */\n      0x20\n        /* \"Solidity100/Solidity91-100.sol\":6063:6074  mul(0x20,i) */\n      mul\n        /* \"Solidity100/Solidity91-100.sol\":6057:6062  start */\n      dup5\n        /* \"Solidity100/Solidity91-100.sol\":6053:6075  add(start,mul(0x20,i)) */\n      add\n        /* \"Solidity100/Solidity91-100.sol\":6047:6076  mload(add(start,mul(0x20,i))) */\n      mload\n        /* \"Solidity100/Solidity91-100.sol\":6042:6043  j */\n      dup3\n        /* \"Solidity100/Solidity91-100.sol\":6037:6041  0x20 */\n      0x20\n        /* \"Solidity100/Solidity91-100.sol\":6033:6044  mul(0x20,j) */\n      mul\n        /* \"Solidity100/Solidity91-100.sol\":6027:6032  start */\n      dup6\n        /* \"Solidity100/Solidity91-100.sol\":6023:6045  add(start,mul(0x20,j)) */\n      add\n        /* \"Solidity100/Solidity91-100.sol\":6016:6077  mstore(add(start,mul(0x20,j)), mload(add(start,mul(0x20,i)))) */\n      mstore\n        /* \"Solidity100/Solidity91-100.sol\":6133:6136  tmp */\n      dup1\n        /* \"Solidity100/Solidity91-100.sol\":6128:6129  i */\n      dup4\n        /* \"Solidity100/Solidity91-100.sol\":6123:6127  0x20 */\n      0x20\n        /* \"Solidity100/Solidity91-100.sol\":6119:6130  mul(0x20,i) */\n      mul\n        /* \"Solidity100/Solidity91-100.sol\":6113:6118  start */\n      dup6\n        /* \"Solidity100/Solidity91-100.sol\":6109:6131  add(start,mul(0x20,i)) */\n      add\n        /* \"Solidity100/Solidity91-100.sol\":6102:6137  mstore(add(start,mul(0x20,i)), tmp) */\n      mstore\n        /* \"Solidity100/Solidity91-100.sol\":5925:6159  {... */\n      pop\n        /* \"Solidity100/Solidity91-100.sol\":5858:6159  if gt(mload(add(start,mul(0x20,j))),mload(add(start,mul(0x20,i)))) {... */\n    tag_17:\n        /* \"Solidity100/Solidity91-100.sol\":5832:5833  1 */\n      0x01\n        /* \"Solidity100/Solidity91-100.sol\":5830:5831  j */\n      dup2\n        /* \"Solidity100/Solidity91-100.sol\":5826:5834  add(j,1) */\n      add\n        /* \"Solidity100/Solidity91-100.sol\":5821:5834  j := add(j,1) */\n      swap1\n      pop\n        /* \"Solidity100/Solidity91-100.sol\":5790:6177  for{let j:= add(i,1)} lt(j,4) {j := add(j,1)} {... */\n      jump(tag_14)\n    tag_16:\n        /* \"Solidity100/Solidity91-100.sol\":5793:5811  {let j:= add(i,1)} */\n      pop\n        /* \"Solidity100/Solidity91-100.sol\":5768:5769  1 */\n      0x01\n        /* \"Solidity100/Solidity91-100.sol\":5766:5767  i */\n      dup2\n        /* \"Solidity100/Solidity91-100.sol\":5762:5770  add(i,1) */\n      add\n        /* \"Solidity100/Solidity91-100.sol\":5757:5770  i := add(i,1) */\n      swap1\n      pop\n        /* \"Solidity100/Solidity91-100.sol\":5734:6191  for{let i:=0} lt(i,4) {i := add(i,1)} {... */\n      jump(tag_11)\n    tag_13:\n        /* \"Solidity100/Solidity91-100.sol\":5737:5747  {let i:=0} */\n      pop\n        /* \"Solidity100/Solidity91-100.sol\":6221:6226  start */\n      dup1\n        /* \"Solidity100/Solidity91-100.sol\":6215:6227  mload(start) */\n      mload\n        /* \"Solidity100/Solidity91-100.sol\":6204:6227  highest := mload(start) */\n      swap3\n      pop\n        /* \"Solidity100/Solidity91-100.sol\":6275:6276  3 */\n      0x03\n        /* \"Solidity100/Solidity91-100.sol\":6270:6274  0x20 */\n      0x20\n        /* \"Solidity100/Solidity91-100.sol\":6266:6277  mul(0x20,3) */\n      mul\n        /* \"Solidity100/Solidity91-100.sol\":6260:6265  start */\n      dup2\n        /* \"Solidity100/Solidity91-100.sol\":6256:6278  add(start,mul(0x20,3)) */\n      add\n        /* \"Solidity100/Solidity91-100.sol\":6250:6279  mload(add(start,mul(0x20,3))) */\n      mload\n        /* \"Solidity100/Solidity91-100.sol\":6240:6279  lowest := mload(add(start,mul(0x20,3))) */\n      swap2\n      pop\n        /* \"Solidity100/Solidity91-100.sol\":5682:6289  {... */\n      pop\n        /* \"Solidity100/Solidity91-100.sol\":5569:6295  function highestLowest(uint[4] memory _numbers) public pure returns(uint highest, uint lowest) {... */\n      swap2\n      pop\n      swap2\n      jump\t// out\n        /* \"#utility.yul\":7:82   */\n    tag_18:\n        /* \"#utility.yul\":40:46   */\n      0x00\n        /* \"#utility.yul\":73:75   */\n      0x40\n        /* \"#utility.yul\":67:76   */\n      mload\n        /* \"#utility.yul\":57:76   */\n      swap1\n      pop\n        /* \"#utility.yul\":7:82   */\n      swap1\n      jump\t// out\n        /* \"#utility.yul\":88:205   */\n    tag_19:\n        /* \"#utility.yul\":197:198   */\n      0x00\n        /* \"#utility.yul\":194:195   */\n      dup1\n        /* \"#utility.yul\":187:199   */\n      revert\n        /* \"#utility.yul\":334:451   */\n    tag_21:\n        /* \"#utility.yul\":443:444   */\n      0x00\n        /* \"#utility.yul\":440:441   */\n      dup1\n        /* \"#utility.yul\":433:445   */\n      revert\n        /* \"#utility.yul\":457:559   */\n    tag_22:\n        /* \"#utility.yul\":498:504   */\n      0x00\n        /* \"#utility.yul\":549:551   */\n      0x1f\n        /* \"#utility.yul\":545:552   */\n      not\n        /* \"#utility.yul\":540:542   */\n      0x1f\n        /* \"#utility.yul\":533:538   */\n      dup4\n        /* \"#utility.yul\":529:543   */\n      add\n        /* \"#utility.yul\":525:553   */\n      and\n        /* \"#utility.yul\":515:553   */\n      swap1\n      pop\n        /* \"#utility.yul\":457:559   */\n      swap2\n      swap1\n      pop\n      jump\t// out\n        /* \"#utility.yul\":565:745   */\n    tag_23:\n        /* \"#utility.yul\":613:690   */\n      0x4e487b7100000000000000000000000000000000000000000000000000000000\n        /* \"#utility.yul\":610:611   */\n      0x00\n        /* \"#utility.yul\":603:691   */\n      mstore\n        /* \"#utility.yul\":710:714   */\n      0x41\n        /* \"#utility.yul\":707:708   */\n      0x04\n        /* \"#utility.yul\":700:715   */\n      mstore\n        /* \"#utility.yul\":734:738   */\n      0x24\n        /* \"#utility.yul\":731:732   */\n      0x00\n        /* \"#utility.yul\":724:739   */\n      revert\n        /* \"#utility.yul\":751:1032   */\n    tag_24:\n        /* \"#utility.yul\":834:861   */\n      tag_42\n        /* \"#utility.yul\":856:860   */\n      dup3\n        /* \"#utility.yul\":834:861   */\n      tag_22\n      jump\t// in\n    tag_42:\n        /* \"#utility.yul\":826:832   */\n      dup2\n        /* \"#utility.yul\":822:862   */\n      add\n        /* \"#utility.yul\":964:970   */\n      dup2\n        /* \"#utility.yul\":952:962   */\n      dup2\n        /* \"#utility.yul\":949:971   */\n      lt\n        /* \"#utility.yul\":928:946   */\n      0xffffffffffffffff\n        /* \"#utility.yul\":916:926   */\n      dup3\n        /* \"#utility.yul\":913:947   */\n      gt\n        /* \"#utility.yul\":910:972   */\n      or\n        /* \"#utility.yul\":907:995   */\n      iszero\n      tag_43\n      jumpi\n        /* \"#utility.yul\":975:993   */\n      tag_44\n      tag_23\n      jump\t// in\n    tag_44:\n        /* \"#utility.yul\":907:995   */\n    tag_43:\n        /* \"#utility.yul\":1015:1025   */\n      dup1\n        /* \"#utility.yul\":1011:1013   */\n      0x40\n        /* \"#utility.yul\":1004:1026   */\n      mstore\n        /* \"#utility.yul\":794:1032   */\n      pop\n        /* \"#utility.yul\":751:1032   */\n      pop\n      pop\n      jump\t// out\n        /* \"#utility.yul\":1038:1167   */\n    tag_25:\n        /* \"#utility.yul\":1072:1078   */\n      0x00\n        /* \"#utility.yul\":1099:1119   */\n      tag_46\n      tag_18\n      jump\t// in\n    tag_46:\n        /* \"#utility.yul\":1089:1119   */\n      swap1\n      pop\n        /* \"#utility.yul\":1128:1161   */\n      tag_47\n        /* \"#utility.yul\":1156:1160   */\n      dup3\n        /* \"#utility.yul\":1148:1154   */\n      dup3\n        /* \"#utility.yul\":1128:1161   */\n      tag_24\n      jump\t// in\n    tag_47:\n        /* \"#utility.yul\":1038:1167   */\n      swap2\n      swap1\n      pop\n      jump\t// out\n        /* \"#utility.yul\":1173:1422   */\n    tag_26:\n        /* \"#utility.yul\":1248:1252   */\n      0x00\n        /* \"#utility.yul\":1338:1356   */\n      0xffffffffffffffff\n        /* \"#utility.yul\":1330:1336   */\n      dup3\n        /* \"#utility.yul\":1327:1357   */\n      gt\n        /* \"#utility.yul\":1324:1380   */\n      iszero\n      tag_49\n      jumpi\n        /* \"#utility.yul\":1360:1378   */\n      tag_50\n      tag_23\n      jump\t// in\n    tag_50:\n        /* \"#utility.yul\":1324:1380   */\n    tag_49:\n        /* \"#utility.yul\":1410:1414   */\n      0x20\n        /* \"#utility.yul\":1402:1408   */\n      dup3\n        /* \"#utility.yul\":1398:1415   */\n      mul\n        /* \"#utility.yul\":1390:1415   */\n      swap1\n      pop\n        /* \"#utility.yul\":1173:1422   */\n      swap2\n      swap1\n      pop\n      jump\t// out\n        /* \"#utility.yul\":1428:1545   */\n    tag_27:\n        /* \"#utility.yul\":1537:1538   */\n      0x00\n        /* \"#utility.yul\":1534:1535   */\n      dup1\n        /* \"#utility.yul\":1527:1539   */\n      revert\n        /* \"#utility.yul\":1551:1628   */\n    tag_28:\n        /* \"#utility.yul\":1588:1595   */\n      0x00\n        /* \"#utility.yul\":1617:1622   */\n      dup2\n        /* \"#utility.yul\":1606:1622   */\n      swap1\n      pop\n        /* \"#utility.yul\":1551:1628   */\n      swap2\n      swap1\n      pop\n      jump\t// out\n        /* \"#utility.yul\":1634:1756   */\n    tag_29:\n        /* \"#utility.yul\":1707:1731   */\n      tag_54\n        /* \"#utility.yul\":1725:1730   */\n      dup2\n        /* \"#utility.yul\":1707:1731   */\n      tag_28\n      jump\t// in\n    tag_54:\n        /* \"#utility.yul\":1700:1705   */\n      dup2\n        /* \"#utility.yul\":1697:1732   */\n      eq\n        /* \"#utility.yul\":1687:1750   */\n      tag_55\n      jumpi\n        /* \"#utility.yul\":1746:1747   */\n      0x00\n        /* \"#utility.yul\":1743:1744   */\n      dup1\n        /* \"#utility.yul\":1736:1748   */\n      revert\n        /* \"#utility.yul\":1687:1750   */\n    tag_55:\n        /* \"#utility.yul\":1634:1756   */\n      pop\n      jump\t// out\n        /* \"#utility.yul\":1762:1901   */\n    tag_30:\n        /* \"#utility.yul\":1808:1813   */\n      0x00\n        /* \"#utility.yul\":1846:1852   */\n      dup2\n        /* \"#utility.yul\":1833:1853   */\n      calldataload\n        /* \"#utility.yul\":1824:1853   */\n      swap1\n      pop\n        /* \"#utility.yul\":1862:1895   */\n      tag_57\n        /* \"#utility.yul\":1889:1894   */\n      dup2\n        /* \"#utility.yul\":1862:1895   */\n      tag_29\n      jump\t// in\n    tag_57:\n        /* \"#utility.yul\":1762:1901   */\n      swap3\n      swap2\n      pop\n      pop\n      jump\t// out\n        /* \"#utility.yul\":1925:2568   */\n    tag_31:\n        /* \"#utility.yul\":2019:2024   */\n      0x00\n        /* \"#utility.yul\":2044:2123   */\n      tag_59\n        /* \"#utility.yul\":2060:2122   */\n      tag_60\n        /* \"#utility.yul\":2115:2121   */\n      dup5\n        /* \"#utility.yul\":2060:2122   */\n      tag_26\n      jump\t// in\n    tag_60:\n        /* \"#utility.yul\":2044:2123   */\n      tag_25\n      jump\t// in\n    tag_59:\n        /* \"#utility.yul\":2035:2123   */\n      swap1\n      pop\n        /* \"#utility.yul\":2143:2148   */\n      dup1\n        /* \"#utility.yul\":2196:2200   */\n      0x20\n        /* \"#utility.yul\":2188:2194   */\n      dup5\n        /* \"#utility.yul\":2184:2201   */\n      mul\n        /* \"#utility.yul\":2176:2182   */\n      dup4\n        /* \"#utility.yul\":2172:2202   */\n      add\n        /* \"#utility.yul\":2225:2228   */\n      dup6\n        /* \"#utility.yul\":2217:2223   */\n      dup2\n        /* \"#utility.yul\":2214:2229   */\n      gt\n        /* \"#utility.yul\":2211:2333   */\n      iszero\n      tag_61\n      jumpi\n        /* \"#utility.yul\":2244:2323   */\n      tag_62\n      tag_27\n      jump\t// in\n    tag_62:\n        /* \"#utility.yul\":2211:2333   */\n    tag_61:\n        /* \"#utility.yul\":2359:2365   */\n      dup4\n        /* \"#utility.yul\":2342:2562   */\n    tag_63:\n        /* \"#utility.yul\":2376:2382   */\n      dup2\n        /* \"#utility.yul\":2371:2374   */\n      dup2\n        /* \"#utility.yul\":2368:2383   */\n      lt\n        /* \"#utility.yul\":2342:2562   */\n      iszero\n      tag_65\n      jumpi\n        /* \"#utility.yul\":2451:2454   */\n      dup1\n        /* \"#utility.yul\":2480:2517   */\n      tag_66\n        /* \"#utility.yul\":2513:2516   */\n      dup9\n        /* \"#utility.yul\":2501:2511   */\n      dup3\n        /* \"#utility.yul\":2480:2517   */\n      tag_30\n      jump\t// in\n    tag_66:\n        /* \"#utility.yul\":2475:2478   */\n      dup5\n        /* \"#utility.yul\":2468:2518   */\n      mstore\n        /* \"#utility.yul\":2547:2551   */\n      0x20\n        /* \"#utility.yul\":2542:2545   */\n      dup5\n        /* \"#utility.yul\":2538:2552   */\n      add\n        /* \"#utility.yul\":2531:2552   */\n      swap4\n      pop\n        /* \"#utility.yul\":2418:2562   */\n      pop\n        /* \"#utility.yul\":2402:2406   */\n      0x20\n        /* \"#utility.yul\":2397:2400   */\n      dup2\n        /* \"#utility.yul\":2393:2407   */\n      add\n        /* \"#utility.yul\":2386:2407   */\n      swap1\n      pop\n        /* \"#utility.yul\":2342:2562   */\n      jump(tag_63)\n    tag_65:\n        /* \"#utility.yul\":2346:2367   */\n      pop\n        /* \"#utility.yul\":2025:2568   */\n      pop\n      pop\n        /* \"#utility.yul\":1925:2568   */\n      swap4\n      swap3\n      pop\n      pop\n      pop\n      jump\t// out\n        /* \"#utility.yul\":2592:2931   */\n    tag_32:\n        /* \"#utility.yul\":2661:2666   */\n      0x00\n        /* \"#utility.yul\":2710:2713   */\n      dup3\n        /* \"#utility.yul\":2703:2707   */\n      0x1f\n        /* \"#utility.yul\":2695:2701   */\n      dup4\n        /* \"#utility.yul\":2691:2708   */\n      add\n        /* \"#utility.yul\":2687:2714   */\n      slt\n        /* \"#utility.yul\":2677:2799   */\n      tag_68\n      jumpi\n        /* \"#utility.yul\":2718:2797   */\n      tag_69\n      tag_21\n      jump\t// in\n    tag_69:\n        /* \"#utility.yul\":2677:2799   */\n    tag_68:\n        /* \"#utility.yul\":2822:2826   */\n      0x04\n        /* \"#utility.yul\":2844:2925   */\n      tag_70\n        /* \"#utility.yul\":2921:2924   */\n      dup5\n        /* \"#utility.yul\":2913:2919   */\n      dup3\n        /* \"#utility.yul\":2905:2911   */\n      dup6\n        /* \"#utility.yul\":2844:2925   */\n      tag_31\n      jump\t// in\n    tag_70:\n        /* \"#utility.yul\":2835:2925   */\n      swap2\n      pop\n        /* \"#utility.yul\":2667:2931   */\n      pop\n        /* \"#utility.yul\":2592:2931   */\n      swap3\n      swap2\n      pop\n      pop\n      jump\t// out\n        /* \"#utility.yul\":2937:3313   */\n    tag_6:\n        /* \"#utility.yul\":3019:3025   */\n      0x00\n        /* \"#utility.yul\":3068:3071   */\n      0x80\n        /* \"#utility.yul\":3056:3065   */\n      dup3\n        /* \"#utility.yul\":3047:3054   */\n      dup5\n        /* \"#utility.yul\":3043:3066   */\n      sub\n        /* \"#utility.yul\":3039:3072   */\n      slt\n        /* \"#utility.yul\":3036:3156   */\n      iszero\n      tag_72\n      jumpi\n        /* \"#utility.yul\":3075:3154   */\n      tag_73\n      tag_19\n      jump\t// in\n    tag_73:\n        /* \"#utility.yul\":3036:3156   */\n    tag_72:\n        /* \"#utility.yul\":3195:3196   */\n      0x00\n        /* \"#utility.yul\":3220:3296   */\n      tag_74\n        /* \"#utility.yul\":3288:3295   */\n      dup5\n        /* \"#utility.yul\":3279:3285   */\n      dup3\n        /* \"#utility.yul\":3268:3277   */\n      dup6\n        /* \"#utility.yul\":3264:3286   */\n      add\n        /* \"#utility.yul\":3220:3296   */\n      tag_32\n      jump\t// in\n    tag_74:\n        /* \"#utility.yul\":3210:3296   */\n      swap2\n      pop\n        /* \"#utility.yul\":3166:3306   */\n      pop\n        /* \"#utility.yul\":2937:3313   */\n      swap3\n      swap2\n      pop\n      pop\n      jump\t// out\n        /* \"#utility.yul\":3319:3437   */\n    tag_33:\n        /* \"#utility.yul\":3406:3430   */\n      tag_76\n        /* \"#utility.yul\":3424:3429   */\n      dup2\n        /* \"#utility.yul\":3406:3430   */\n      tag_28\n      jump\t// in\n    tag_76:\n        /* \"#utility.yul\":3401:3404   */\n      dup3\n        /* \"#utility.yul\":3394:3431   */\n      mstore\n        /* \"#utility.yul\":3319:3437   */\n      pop\n      pop\n      jump\t// out\n        /* \"#utility.yul\":3443:3775   */\n    tag_9:\n        /* \"#utility.yul\":3564:3568   */\n      0x00\n        /* \"#utility.yul\":3602:3604   */\n      0x40\n        /* \"#utility.yul\":3591:3600   */\n      dup3\n        /* \"#utility.yul\":3587:3605   */\n      add\n        /* \"#utility.yul\":3579:3605   */\n      swap1\n      pop\n        /* \"#utility.yul\":3615:3686   */\n      tag_78\n        /* \"#utility.yul\":3683:3684   */\n      0x00\n        /* \"#utility.yul\":3672:3681   */\n      dup4\n        /* \"#utility.yul\":3668:3685   */\n      add\n        /* \"#utility.yul\":3659:3665   */\n      dup6\n        /* \"#utility.yul\":3615:3686   */\n      tag_33\n      jump\t// in\n    tag_78:\n        /* \"#utility.yul\":3696:3768   */\n      tag_79\n        /* \"#utility.yul\":3764:3766   */\n      0x20\n        /* \"#utility.yul\":3753:3762   */\n      dup4\n        /* \"#utility.yul\":3749:3767   */\n      add\n        /* \"#utility.yul\":3740:3746   */\n      dup5\n        /* \"#utility.yul\":3696:3768   */\n      tag_33\n      jump\t// in\n    tag_79:\n        /* \"#utility.yul\":3443:3775   */\n      swap4\n      swap3\n      pop\n      pop\n      pop\n      jump\t// out\n\n    auxdata: 0xa264697066735822122084ed42a0e1c7bcdb008cc2ebdf3234e287644f75e2d06bb6ccc3015478ba91d464736f6c634300081a0033\n}\n",
				"bytecode": {
					"linkReferences": {},
					"object": "6080604052348015600e575f80fd5b506102ee8061001c5f395ff3fe608060405234801561000f575f80fd5b5060043610610029575f3560e01c806336fb68bb1461002d575b5f80fd5b61004760048036038101906100429190610257565b61005e565b604051610055929190610291565b60405180910390f35b5f80825f5b60048110156100c457600181015b60048110156100b857816020028301518160200284015111156100ad578060200283015182602002840151826020028501528083602002850152505b600181019050610071565b50600181019050610063565b50805192506003602002810151915050915091565b5f604051905090565b5f80fd5b5f80fd5b5f601f19601f8301169050919050565b7f4e487b71000000000000000000000000000000000000000000000000000000005f52604160045260245ffd5b610130826100ea565b810181811067ffffffffffffffff8211171561014f5761014e6100fa565b5b80604052505050565b5f6101616100d9565b905061016d8282610127565b919050565b5f67ffffffffffffffff82111561018c5761018b6100fa565b5b602082029050919050565b5f80fd5b5f819050919050565b6101ad8161019b565b81146101b7575f80fd5b50565b5f813590506101c8816101a4565b92915050565b5f6101e06101db84610172565b610158565b905080602084028301858111156101fa576101f9610197565b5b835b81811015610223578061020f88826101ba565b8452602084019350506020810190506101fc565b5050509392505050565b5f82601f830112610241576102406100e6565b5b600461024e8482856101ce565b91505092915050565b5f6080828403121561026c5761026b6100e2565b5b5f6102798482850161022d565b91505092915050565b61028b8161019b565b82525050565b5f6040820190506102a45f830185610282565b6102b16020830184610282565b939250505056fea264697066735822122084ed42a0e1c7bcdb008cc2ebdf3234e287644f75e2d06bb6ccc3015478ba91d464736f6c634300081a0033",
					"opcodes": "PUSH1 0x80 PUSH1 0x40 MSTORE CALLVALUE DUP1 ISZERO PUSH1 0xE JUMPI PUSH0 DUP1 REVERT JUMPDEST POP PUSH2 0x2EE DUP1 PUSH2 0x1C PUSH0 CODECOPY PUSH0 RETURN INVALID PUSH1 0x80 PUSH1 0x40 MSTORE CALLVALUE DUP1 ISZERO PUSH2 0xF JUMPI PUSH0 DUP1 REVERT JUMPDEST POP PUSH1 0x4 CALLDATASIZE LT PUSH2 0x29 JUMPI PUSH0 CALLDATALOAD PUSH1 0xE0 SHR DUP1 PUSH4 0x36FB68BB EQ PUSH2 0x2D JUMPI JUMPDEST PUSH0 DUP1 REVERT JUMPDEST PUSH2 0x47 PUSH1 0x4 DUP1 CALLDATASIZE SUB DUP2 ADD SWAP1 PUSH2 0x42 SWAP2 SWAP1 PUSH2 0x257 JUMP JUMPDEST PUSH2 0x5E JUMP JUMPDEST PUSH1 0x40 MLOAD PUSH2 0x55 SWAP3 SWAP2 SWAP1 PUSH2 0x291 JUMP JUMPDEST PUSH1 0x40 MLOAD DUP1 SWAP2 SUB SWAP1 RETURN JUMPDEST PUSH0 DUP1 DUP3 PUSH0 JUMPDEST PUSH1 0x4 DUP2 LT ISZERO PUSH2 0xC4 JUMPI PUSH1 0x1 DUP2 ADD JUMPDEST PUSH1 0x4 DUP2 LT ISZERO PUSH2 0xB8 JUMPI DUP2 PUSH1 0x20 MUL DUP4 ADD MLOAD DUP2 PUSH1 0x20 MUL DUP5 ADD MLOAD GT ISZERO PUSH2 0xAD JUMPI DUP1 PUSH1 0x20 MUL DUP4 ADD MLOAD DUP3 PUSH1 0x20 MUL DUP5 ADD MLOAD DUP3 PUSH1 0x20 MUL DUP6 ADD MSTORE DUP1 DUP4 PUSH1 0x20 MUL DUP6 ADD MSTORE POP JUMPDEST PUSH1 0x1 DUP2 ADD SWAP1 POP PUSH2 0x71 JUMP JUMPDEST POP PUSH1 0x1 DUP2 ADD SWAP1 POP PUSH2 0x63 JUMP JUMPDEST POP DUP1 MLOAD SWAP3 POP PUSH1 0x3 PUSH1 0x20 MUL DUP2 ADD MLOAD SWAP2 POP POP SWAP2 POP SWAP2 JUMP JUMPDEST PUSH0 PUSH1 0x40 MLOAD SWAP1 POP SWAP1 JUMP JUMPDEST PUSH0 DUP1 REVERT JUMPDEST PUSH0 DUP1 REVERT JUMPDEST PUSH0 PUSH1 0x1F NOT PUSH1 0x1F DUP4 ADD AND SWAP1 POP SWAP2 SWAP1 POP JUMP JUMPDEST PUSH32 0x4E487B7100000000000000000000000000000000000000000000000000000000 PUSH0 MSTORE PUSH1 0x41 PUSH1 0x4 MSTORE PUSH1 0x24 PUSH0 REVERT JUMPDEST PUSH2 0x130 DUP3 PUSH2 0xEA JUMP JUMPDEST DUP2 ADD DUP2 DUP2 LT PUSH8 0xFFFFFFFFFFFFFFFF DUP3 GT OR ISZERO PUSH2 0x14F JUMPI PUSH2 0x14E PUSH2 0xFA JUMP JUMPDEST JUMPDEST DUP1 PUSH1 0x40 MSTORE POP POP POP JUMP JUMPDEST PUSH0 PUSH2 0x161 PUSH2 0xD9 JUMP JUMPDEST SWAP1 POP PUSH2 0x16D DUP3 DUP3 PUSH2 0x127 JUMP JUMPDEST SWAP2 SWAP1 POP JUMP JUMPDEST PUSH0 PUSH8 0xFFFFFFFFFFFFFFFF DUP3 GT ISZERO PUSH2 0x18C JUMPI PUSH2 0x18B PUSH2 0xFA JUMP JUMPDEST JUMPDEST PUSH1 0x20 DUP3 MUL SWAP1 POP SWAP2 SWAP1 POP JUMP JUMPDEST PUSH0 DUP1 REVERT JUMPDEST PUSH0 DUP2 SWAP1 POP SWAP2 SWAP1 POP JUMP JUMPDEST PUSH2 0x1AD DUP2 PUSH2 0x19B JUMP JUMPDEST DUP2 EQ PUSH2 0x1B7 JUMPI PUSH0 DUP1 REVERT JUMPDEST POP JUMP JUMPDEST PUSH0 DUP2 CALLDATALOAD SWAP1 POP PUSH2 0x1C8 DUP2 PUSH2 0x1A4 JUMP JUMPDEST SWAP3 SWAP2 POP POP JUMP JUMPDEST PUSH0 PUSH2 0x1E0 PUSH2 0x1DB DUP5 PUSH2 0x172 JUMP JUMPDEST PUSH2 0x158 JUMP JUMPDEST SWAP1 POP DUP1 PUSH1 0x20 DUP5 MUL DUP4 ADD DUP6 DUP2 GT ISZERO PUSH2 0x1FA JUMPI PUSH2 0x1F9 PUSH2 0x197 JUMP JUMPDEST JUMPDEST DUP4 JUMPDEST DUP2 DUP2 LT ISZERO PUSH2 0x223 JUMPI DUP1 PUSH2 0x20F DUP9 DUP3 PUSH2 0x1BA JUMP JUMPDEST DUP5 MSTORE PUSH1 0x20 DUP5 ADD SWAP4 POP POP PUSH1 0x20 DUP2 ADD SWAP1 POP PUSH2 0x1FC JUMP JUMPDEST POP POP POP SWAP4 SWAP3 POP POP POP JUMP JUMPDEST PUSH0 DUP3 PUSH1 0x1F DUP4 ADD SLT PUSH2 0x241 JUMPI PUSH2 0x240 PUSH2 0xE6 JUMP JUMPDEST JUMPDEST PUSH1 0x4 PUSH2 0x24E DUP5 DUP3 DUP6 PUSH2 0x1CE JUMP JUMPDEST SWAP2 POP POP SWAP3 SWAP2 POP POP JUMP JUMPDEST PUSH0 PUSH1 0x80 DUP3 DUP5 SUB SLT ISZERO PUSH2 0x26C JUMPI PUSH2 0x26B PUSH2 0xE2 JUMP JUMPDEST JUMPDEST PUSH0 PUSH2 0x279 DUP5 DUP3 DUP6 ADD PUSH2 0x22D JUMP JUMPDEST SWAP2 POP POP SWAP3 SWAP2 POP POP JUMP JUMPDEST PUSH2 0x28B DUP2 PUSH2 0x19B JUMP JUMPDEST DUP3 MSTORE POP POP JUMP JUMPDEST PUSH0 PUSH1 0x40 DUP3 ADD SWAP1 POP PUSH2 0x2A4 PUSH0 DUP4 ADD DUP6 PUSH2 0x282 JUMP JUMPDEST PUSH2 0x2B1 PUSH1 0x20 DUP4 ADD DUP5 PUSH2 0x282 JUMP JUMPDEST SWAP4 SWAP3 POP POP POP JUMP INVALID LOG2 PUSH5 0x6970667358 0x22 SLT KECCAK256 DUP5 0xED TIMESTAMP LOG0 0xE1 0xC7 0xBC 0xDB STOP DUP13 0xC2 0xEB 0xDF ORIGIN CALLVALUE 0xE2 DUP8 PUSH5 0x4F75E2D06B 0xB6 0xCC 0xC3 ADD SLOAD PUSH25 0xBA91D464736F6C634300081A00330000000000000000000000 "
				},
				"gasEstimates": {
					"creation": {
						"codeDepositCost": "150000",
						"executionCost": "194",
						"totalCost": "150194"
					},
					"external": {
						"highestLowest(uint256[4])": "infinite"
					}
				},
				"methodIdentifiers": {
					"highestLowest(uint256[4])": "36fb68bb"
				}
			},
			"storageLayout": {
				"storage": [],
				"types": null
			},
			"userdoc": {
				"kind": "user",
				"methods": {},
				"version": 1
			}
		}
	}
}