{
	"Solidity100/Solidity91-100.sol": {
		"Question98": {
			"abi": [
				{
					"inputs": [],
					"name": "letter",
					"outputs": [
						{
							"internalType": "string",
							"name": "",
							"type": "string"
						}
					],
					"stateMutability": "view",
					"type": "function"
				},
				{
					"inputs": [
						{
							"internalType": "string",
							"name": "_letter",
							"type": "string"
						}
					],
					"name": "setLetter",
					"outputs": [],
					"stateMutability": "nonpayable",
					"type": "function"
				}
			],
			"devdoc": {
				"kind": "dev",
				"methods": {},
				"version": 1
			},
			"evm": {
				"assembly": "    /* \"Solidity100/Solidity91-100.sol\":4472:5412  contract Question98{    ... */\n  mstore(0x40, 0x80)\n  callvalue\n  dup1\n  iszero\n  tag_1\n  jumpi\n  0x00\n  dup1\n  revert\ntag_1:\n  pop\n  dataSize(sub_0)\n  dup1\n  dataOffset(sub_0)\n  0x00\n  codecopy\n  0x00\n  return\nstop\n\nsub_0: assembly {\n        /* \"Solidity100/Solidity91-100.sol\":4472:5412  contract Question98{    ... */\n      mstore(0x40, 0x80)\n      callvalue\n      dup1\n      iszero\n      tag_1\n      jumpi\n      0x00\n      dup1\n      revert\n    tag_1:\n      pop\n      jumpi(tag_2, lt(calldatasize, 0x04))\n      shr(0xe0, calldataload(0x00))\n      dup1\n      0x68af37df\n      eq\n      tag_3\n      jumpi\n      dup1\n      0x807becf5\n      eq\n      tag_4\n      jumpi\n    tag_2:\n      0x00\n      dup1\n      revert\n        /* \"Solidity100/Solidity91-100.sol\":4613:4633  string public letter */\n    tag_3:\n      tag_5\n      tag_6\n      jump\t// in\n    tag_5:\n      mload(0x40)\n      tag_7\n      swap2\n      swap1\n      tag_8\n      jump\t// in\n    tag_7:\n      mload(0x40)\n      dup1\n      swap2\n      sub\n      swap1\n      return\n        /* \"Solidity100/Solidity91-100.sol\":4641:5409  function setLetter(string memory _letter) public {... */\n    tag_4:\n      tag_9\n      0x04\n      dup1\n      calldatasize\n      sub\n      dup2\n      add\n      swap1\n      tag_10\n      swap2\n      swap1\n      tag_11\n      jump\t// in\n    tag_10:\n      tag_12\n      jump\t// in\n    tag_9:\n      stop\n        /* \"Solidity100/Solidity91-100.sol\":4613:4633  string public letter */\n    tag_6:\n      0x00\n      dup1\n      sload\n      tag_13\n      swap1\n      tag_14\n      jump\t// in\n    tag_13:\n      dup1\n      0x1f\n      add\n      0x20\n      dup1\n      swap2\n      div\n      mul\n      0x20\n      add\n      mload(0x40)\n      swap1\n      dup2\n      add\n      0x40\n      mstore\n      dup1\n      swap3\n      swap2\n      swap1\n      dup2\n      dup2\n      mstore\n      0x20\n      add\n      dup3\n      dup1\n      sload\n      tag_15\n      swap1\n      tag_14\n      jump\t// in\n    tag_15:\n      dup1\n      iszero\n      tag_16\n      jumpi\n      dup1\n      0x1f\n      lt\n      tag_17\n      jumpi\n      0x0100\n      dup1\n      dup4\n      sload\n      div\n      mul\n      dup4\n      mstore\n      swap2\n      0x20\n      add\n      swap2\n      jump(tag_16)\n    tag_17:\n      dup3\n      add\n      swap2\n      swap1\n      0x00\n      mstore\n      keccak256(0x00, 0x20)\n      swap1\n    tag_18:\n      dup2\n      sload\n      dup2\n      mstore\n      swap1\n      0x01\n      add\n      swap1\n      0x20\n      add\n      dup1\n      dup4\n      gt\n      tag_18\n      jumpi\n      dup3\n      swap1\n      sub\n      0x1f\n      and\n      dup3\n      add\n      swap2\n    tag_16:\n      pop\n      pop\n      pop\n      pop\n      pop\n      dup2\n      jump\t// out\n        /* \"Solidity100/Solidity91-100.sol\":4641:5409  function setLetter(string memory _letter) public {... */\n    tag_12:\n        /* \"Solidity100/Solidity91-100.sol\":4743:4750  _letter */\n      dup1\n        /* \"Solidity100/Solidity91-100.sol\":4737:4751  mload(_letter) */\n      mload\n        /* \"Solidity100/Solidity91-100.sol\":4779:4790  letter.slot */\n      0x00\n        /* \"Solidity100/Solidity91-100.sol\":4836:4837  1 */\n      0x01\n        /* \"Solidity100/Solidity91-100.sol\":4832:4834  32 */\n      0x20\n        /* \"Solidity100/Solidity91-100.sol\":4824:4830  length */\n      dup4\n        /* \"Solidity100/Solidity91-100.sol\":4820:4835  div(length, 32) */\n      div\n        /* \"Solidity100/Solidity91-100.sol\":4816:4838  add(div(length, 32),1) */\n      add\n        /* \"Solidity100/Solidity91-100.sol\":4994:4996  31 */\n      0x1f\n        /* \"Solidity100/Solidity91-100.sol\":4986:4992  length */\n      dup4\n        /* \"Solidity100/Solidity91-100.sol\":4983:4997  lt(length, 31) */\n      lt\n        /* \"Solidity100/Solidity91-100.sol\":4980:5115  if lt(length, 31) { ... */\n      iszero\n      tag_20\n      jumpi\n        /* \"Solidity100/Solidity91-100.sol\":5065:5066  2 */\n      0x02\n        /* \"Solidity100/Solidity91-100.sol\":5058:5064  length */\n      dup4\n        /* \"Solidity100/Solidity91-100.sol\":5054:5067  mul(length,2) */\n      mul\n        /* \"Solidity100/Solidity91-100.sol\":5046:5050  0x20 */\n      0x20\n        /* \"Solidity100/Solidity91-100.sol\":5038:5045  _letter */\n      dup6\n        /* \"Solidity100/Solidity91-100.sol\":5034:5051  add(_letter,0x20) */\n      add\n        /* \"Solidity100/Solidity91-100.sol\":5028:5052  mload(add(_letter,0x20)) */\n      mload\n        /* \"Solidity100/Solidity91-100.sol\":5024:5068  add(mload(add(_letter,0x20)), mul(length,2)) */\n      add\n        /* \"Solidity100/Solidity91-100.sol\":5097:5100  sum */\n      dup1\n        /* \"Solidity100/Solidity91-100.sol\":5088:5095  slotNum */\n      dup4\n        /* \"Solidity100/Solidity91-100.sol\":5081:5101  sstore(slotNum, sum) */\n      sstore\n        /* \"Solidity100/Solidity91-100.sol\":4998:5115  { ... */\n      pop\n        /* \"Solidity100/Solidity91-100.sol\":4980:5115  if lt(length, 31) { ... */\n    tag_20:\n        /* \"Solidity100/Solidity91-100.sol\":5143:5145  32 */\n      0x20\n        /* \"Solidity100/Solidity91-100.sol\":5135:5141  length */\n      dup4\n        /* \"Solidity100/Solidity91-100.sol\":5132:5146  gt(length, 32) */\n      gt\n        /* \"Solidity100/Solidity91-100.sol\":5129:5393  if gt(length, 32) {... */\n      iszero\n      tag_21\n      jumpi\n        /* \"Solidity100/Solidity91-100.sol\":5199:5200  1 */\n      0x01\n        /* \"Solidity100/Solidity91-100.sol\":5196:5197  2 */\n      0x02\n        /* \"Solidity100/Solidity91-100.sol\":5189:5195  length */\n      dup5\n        /* \"Solidity100/Solidity91-100.sol\":5185:5198  mul(length,2) */\n      mul\n        /* \"Solidity100/Solidity91-100.sol\":5181:5201  add(mul(length,2),1) */\n      add\n        /* \"Solidity100/Solidity91-100.sol\":5172:5179  slotNum */\n      dup3\n        /* \"Solidity100/Solidity91-100.sol\":5165:5202  sstore(slotNum, add(mul(length,2),1)) */\n      sstore\n        /* \"Solidity100/Solidity91-100.sol\":5231:5232  0 */\n      0x00\n        /* \"Solidity100/Solidity91-100.sol\":5219:5379  for {let i:=0} lt(i,slots) {i := add(i,1)} {... */\n    tag_22:\n        /* \"Solidity100/Solidity91-100.sol\":5239:5244  slots */\n      dup2\n        /* \"Solidity100/Solidity91-100.sol\":5237:5238  i */\n      dup2\n        /* \"Solidity100/Solidity91-100.sol\":5234:5245  lt(i,slots) */\n      lt\n        /* \"Solidity100/Solidity91-100.sol\":5219:5379  for {let i:=0} lt(i,slots) {i := add(i,1)} {... */\n      iszero\n      tag_24\n      jumpi\n        /* \"Solidity100/Solidity91-100.sol\":5355:5356  1 */\n      0x01\n        /* \"Solidity100/Solidity91-100.sol\":5353:5354  i */\n      dup2\n        /* \"Solidity100/Solidity91-100.sol\":5349:5357  add(i,1) */\n      add\n        /* \"Solidity100/Solidity91-100.sol\":5344:5348  0x20 */\n      0x20\n        /* \"Solidity100/Solidity91-100.sol\":5340:5358  mul(0x20,add(i,1)) */\n      mul\n        /* \"Solidity100/Solidity91-100.sol\":5332:5339  _letter */\n      dup6\n        /* \"Solidity100/Solidity91-100.sol\":5328:5359  add(_letter,mul(0x20,add(i,1))) */\n      add\n        /* \"Solidity100/Solidity91-100.sol\":5322:5360  mload(add(_letter,mul(0x20,add(i,1)))) */\n      mload\n        /* \"Solidity100/Solidity91-100.sol\":5319:5320  i */\n      dup2\n        /* \"Solidity100/Solidity91-100.sol\":5313:5317  0x20 */\n      0x20\n        /* \"Solidity100/Solidity91-100.sol\":5305:5312  slotNum */\n      dup6\n        /* \"Solidity100/Solidity91-100.sol\":5295:5318  keccak256(slotNum,0x20) */\n      keccak256\n        /* \"Solidity100/Solidity91-100.sol\":5291:5321  add(keccak256(slotNum,0x20),i) */\n      add\n        /* \"Solidity100/Solidity91-100.sol\":5284:5361  sstore(add(keccak256(slotNum,0x20),i),mload(add(_letter,mul(0x20,add(i,1))))) */\n      sstore\n        /* \"Solidity100/Solidity91-100.sol\":5258:5259  1 */\n      0x01\n        /* \"Solidity100/Solidity91-100.sol\":5256:5257  i */\n      dup2\n        /* \"Solidity100/Solidity91-100.sol\":5252:5260  add(i,1) */\n      add\n        /* \"Solidity100/Solidity91-100.sol\":5247:5260  i := add(i,1) */\n      swap1\n      pop\n        /* \"Solidity100/Solidity91-100.sol\":5219:5379  for {let i:=0} lt(i,slots) {i := add(i,1)} {... */\n      jump(tag_22)\n    tag_24:\n        /* \"Solidity100/Solidity91-100.sol\":5223:5233  {let i:=0} */\n      pop\n        /* \"Solidity100/Solidity91-100.sol\":5129:5393  if gt(length, 32) {... */\n    tag_21:\n        /* \"Solidity100/Solidity91-100.sol\":4709:5403  {... */\n      pop\n      pop\n      pop\n        /* \"Solidity100/Solidity91-100.sol\":4641:5409  function setLetter(string memory _letter) public {... */\n      pop\n      jump\t// out\n        /* \"#utility.yul\":7:106   */\n    tag_25:\n        /* \"#utility.yul\":59:65   */\n      0x00\n        /* \"#utility.yul\":93:98   */\n      dup2\n        /* \"#utility.yul\":87:99   */\n      mload\n        /* \"#utility.yul\":77:99   */\n      swap1\n      pop\n        /* \"#utility.yul\":7:106   */\n      swap2\n      swap1\n      pop\n      jump\t// out\n        /* \"#utility.yul\":112:281   */\n    tag_26:\n        /* \"#utility.yul\":196:207   */\n      0x00\n        /* \"#utility.yul\":230:236   */\n      dup3\n        /* \"#utility.yul\":225:228   */\n      dup3\n        /* \"#utility.yul\":218:237   */\n      mstore\n        /* \"#utility.yul\":270:274   */\n      0x20\n        /* \"#utility.yul\":265:268   */\n      dup3\n        /* \"#utility.yul\":261:275   */\n      add\n        /* \"#utility.yul\":246:275   */\n      swap1\n      pop\n        /* \"#utility.yul\":112:281   */\n      swap3\n      swap2\n      pop\n      pop\n      jump\t// out\n        /* \"#utility.yul\":287:426   */\n    tag_27:\n        /* \"#utility.yul\":376:382   */\n      dup3\n        /* \"#utility.yul\":371:374   */\n      dup2\n        /* \"#utility.yul\":366:369   */\n      dup4\n        /* \"#utility.yul\":360:383   */\n      mcopy\n        /* \"#utility.yul\":417:418   */\n      0x00\n        /* \"#utility.yul\":408:414   */\n      dup4\n        /* \"#utility.yul\":403:406   */\n      dup4\n        /* \"#utility.yul\":399:415   */\n      add\n        /* \"#utility.yul\":392:419   */\n      mstore\n        /* \"#utility.yul\":287:426   */\n      pop\n      pop\n      pop\n      jump\t// out\n        /* \"#utility.yul\":432:534   */\n    tag_28:\n        /* \"#utility.yul\":473:479   */\n      0x00\n        /* \"#utility.yul\":524:526   */\n      0x1f\n        /* \"#utility.yul\":520:527   */\n      not\n        /* \"#utility.yul\":515:517   */\n      0x1f\n        /* \"#utility.yul\":508:513   */\n      dup4\n        /* \"#utility.yul\":504:518   */\n      add\n        /* \"#utility.yul\":500:528   */\n      and\n        /* \"#utility.yul\":490:528   */\n      swap1\n      pop\n        /* \"#utility.yul\":432:534   */\n      swap2\n      swap1\n      pop\n      jump\t// out\n        /* \"#utility.yul\":540:917   */\n    tag_29:\n        /* \"#utility.yul\":628:631   */\n      0x00\n        /* \"#utility.yul\":656:695   */\n      tag_49\n        /* \"#utility.yul\":689:694   */\n      dup3\n        /* \"#utility.yul\":656:695   */\n      tag_25\n      jump\t// in\n    tag_49:\n        /* \"#utility.yul\":711:782   */\n      tag_50\n        /* \"#utility.yul\":775:781   */\n      dup2\n        /* \"#utility.yul\":770:773   */\n      dup6\n        /* \"#utility.yul\":711:782   */\n      tag_26\n      jump\t// in\n    tag_50:\n        /* \"#utility.yul\":704:782   */\n      swap4\n      pop\n        /* \"#utility.yul\":791:856   */\n      tag_51\n        /* \"#utility.yul\":849:855   */\n      dup2\n        /* \"#utility.yul\":844:847   */\n      dup6\n        /* \"#utility.yul\":837:841   */\n      0x20\n        /* \"#utility.yul\":830:835   */\n      dup7\n        /* \"#utility.yul\":826:842   */\n      add\n        /* \"#utility.yul\":791:856   */\n      tag_27\n      jump\t// in\n    tag_51:\n        /* \"#utility.yul\":881:910   */\n      tag_52\n        /* \"#utility.yul\":903:909   */\n      dup2\n        /* \"#utility.yul\":881:910   */\n      tag_28\n      jump\t// in\n    tag_52:\n        /* \"#utility.yul\":876:879   */\n      dup5\n        /* \"#utility.yul\":872:911   */\n      add\n        /* \"#utility.yul\":865:911   */\n      swap2\n      pop\n        /* \"#utility.yul\":632:917   */\n      pop\n        /* \"#utility.yul\":540:917   */\n      swap3\n      swap2\n      pop\n      pop\n      jump\t// out\n        /* \"#utility.yul\":923:1236   */\n    tag_8:\n        /* \"#utility.yul\":1036:1040   */\n      0x00\n        /* \"#utility.yul\":1074:1076   */\n      0x20\n        /* \"#utility.yul\":1063:1072   */\n      dup3\n        /* \"#utility.yul\":1059:1077   */\n      add\n        /* \"#utility.yul\":1051:1077   */\n      swap1\n      pop\n        /* \"#utility.yul\":1123:1132   */\n      dup2\n        /* \"#utility.yul\":1117:1121   */\n      dup2\n        /* \"#utility.yul\":1113:1133   */\n      sub\n        /* \"#utility.yul\":1109:1110   */\n      0x00\n        /* \"#utility.yul\":1098:1107   */\n      dup4\n        /* \"#utility.yul\":1094:1111   */\n      add\n        /* \"#utility.yul\":1087:1134   */\n      mstore\n        /* \"#utility.yul\":1151:1229   */\n      tag_54\n        /* \"#utility.yul\":1224:1228   */\n      dup2\n        /* \"#utility.yul\":1215:1221   */\n      dup5\n        /* \"#utility.yul\":1151:1229   */\n      tag_29\n      jump\t// in\n    tag_54:\n        /* \"#utility.yul\":1143:1229   */\n      swap1\n      pop\n        /* \"#utility.yul\":923:1236   */\n      swap3\n      swap2\n      pop\n      pop\n      jump\t// out\n        /* \"#utility.yul\":1242:1317   */\n    tag_30:\n        /* \"#utility.yul\":1275:1281   */\n      0x00\n        /* \"#utility.yul\":1308:1310   */\n      0x40\n        /* \"#utility.yul\":1302:1311   */\n      mload\n        /* \"#utility.yul\":1292:1311   */\n      swap1\n      pop\n        /* \"#utility.yul\":1242:1317   */\n      swap1\n      jump\t// out\n        /* \"#utility.yul\":1323:1440   */\n    tag_31:\n        /* \"#utility.yul\":1432:1433   */\n      0x00\n        /* \"#utility.yul\":1429:1430   */\n      dup1\n        /* \"#utility.yul\":1422:1434   */\n      revert\n        /* \"#utility.yul\":1446:1563   */\n    tag_32:\n        /* \"#utility.yul\":1555:1556   */\n      0x00\n        /* \"#utility.yul\":1552:1553   */\n      dup1\n        /* \"#utility.yul\":1545:1557   */\n      revert\n        /* \"#utility.yul\":1569:1686   */\n    tag_33:\n        /* \"#utility.yul\":1678:1679   */\n      0x00\n        /* \"#utility.yul\":1675:1676   */\n      dup1\n        /* \"#utility.yul\":1668:1680   */\n      revert\n        /* \"#utility.yul\":1692:1809   */\n    tag_34:\n        /* \"#utility.yul\":1801:1802   */\n      0x00\n        /* \"#utility.yul\":1798:1799   */\n      dup1\n        /* \"#utility.yul\":1791:1803   */\n      revert\n        /* \"#utility.yul\":1815:1995   */\n    tag_35:\n        /* \"#utility.yul\":1863:1940   */\n      0x4e487b7100000000000000000000000000000000000000000000000000000000\n        /* \"#utility.yul\":1860:1861   */\n      0x00\n        /* \"#utility.yul\":1853:1941   */\n      mstore\n        /* \"#utility.yul\":1960:1964   */\n      0x41\n        /* \"#utility.yul\":1957:1958   */\n      0x04\n        /* \"#utility.yul\":1950:1965   */\n      mstore\n        /* \"#utility.yul\":1984:1988   */\n      0x24\n        /* \"#utility.yul\":1981:1982   */\n      0x00\n        /* \"#utility.yul\":1974:1989   */\n      revert\n        /* \"#utility.yul\":2001:2282   */\n    tag_36:\n        /* \"#utility.yul\":2084:2111   */\n      tag_62\n        /* \"#utility.yul\":2106:2110   */\n      dup3\n        /* \"#utility.yul\":2084:2111   */\n      tag_28\n      jump\t// in\n    tag_62:\n        /* \"#utility.yul\":2076:2082   */\n      dup2\n        /* \"#utility.yul\":2072:2112   */\n      add\n        /* \"#utility.yul\":2214:2220   */\n      dup2\n        /* \"#utility.yul\":2202:2212   */\n      dup2\n        /* \"#utility.yul\":2199:2221   */\n      lt\n        /* \"#utility.yul\":2178:2196   */\n      0xffffffffffffffff\n        /* \"#utility.yul\":2166:2176   */\n      dup3\n        /* \"#utility.yul\":2163:2197   */\n      gt\n        /* \"#utility.yul\":2160:2222   */\n      or\n        /* \"#utility.yul\":2157:2245   */\n      iszero\n      tag_63\n      jumpi\n        /* \"#utility.yul\":2225:2243   */\n      tag_64\n      tag_35\n      jump\t// in\n    tag_64:\n        /* \"#utility.yul\":2157:2245   */\n    tag_63:\n        /* \"#utility.yul\":2265:2275   */\n      dup1\n        /* \"#utility.yul\":2261:2263   */\n      0x40\n        /* \"#utility.yul\":2254:2276   */\n      mstore\n        /* \"#utility.yul\":2044:2282   */\n      pop\n        /* \"#utility.yul\":2001:2282   */\n      pop\n      pop\n      jump\t// out\n        /* \"#utility.yul\":2288:2417   */\n    tag_37:\n        /* \"#utility.yul\":2322:2328   */\n      0x00\n        /* \"#utility.yul\":2349:2369   */\n      tag_66\n      tag_30\n      jump\t// in\n    tag_66:\n        /* \"#utility.yul\":2339:2369   */\n      swap1\n      pop\n        /* \"#utility.yul\":2378:2411   */\n      tag_67\n        /* \"#utility.yul\":2406:2410   */\n      dup3\n        /* \"#utility.yul\":2398:2404   */\n      dup3\n        /* \"#utility.yul\":2378:2411   */\n      tag_36\n      jump\t// in\n    tag_67:\n        /* \"#utility.yul\":2288:2417   */\n      swap2\n      swap1\n      pop\n      jump\t// out\n        /* \"#utility.yul\":2423:2731   */\n    tag_38:\n        /* \"#utility.yul\":2485:2489   */\n      0x00\n        /* \"#utility.yul\":2575:2593   */\n      0xffffffffffffffff\n        /* \"#utility.yul\":2567:2573   */\n      dup3\n        /* \"#utility.yul\":2564:2594   */\n      gt\n        /* \"#utility.yul\":2561:2617   */\n      iszero\n      tag_69\n      jumpi\n        /* \"#utility.yul\":2597:2615   */\n      tag_70\n      tag_35\n      jump\t// in\n    tag_70:\n        /* \"#utility.yul\":2561:2617   */\n    tag_69:\n        /* \"#utility.yul\":2635:2664   */\n      tag_71\n        /* \"#utility.yul\":2657:2663   */\n      dup3\n        /* \"#utility.yul\":2635:2664   */\n      tag_28\n      jump\t// in\n    tag_71:\n        /* \"#utility.yul\":2627:2664   */\n      swap1\n      pop\n        /* \"#utility.yul\":2719:2723   */\n      0x20\n        /* \"#utility.yul\":2713:2717   */\n      dup2\n        /* \"#utility.yul\":2709:2724   */\n      add\n        /* \"#utility.yul\":2701:2724   */\n      swap1\n      pop\n        /* \"#utility.yul\":2423:2731   */\n      swap2\n      swap1\n      pop\n      jump\t// out\n        /* \"#utility.yul\":2737:2885   */\n    tag_39:\n        /* \"#utility.yul\":2835:2841   */\n      dup3\n        /* \"#utility.yul\":2830:2833   */\n      dup2\n        /* \"#utility.yul\":2825:2828   */\n      dup4\n        /* \"#utility.yul\":2812:2842   */\n      calldatacopy\n        /* \"#utility.yul\":2876:2877   */\n      0x00\n        /* \"#utility.yul\":2867:2873   */\n      dup4\n        /* \"#utility.yul\":2862:2865   */\n      dup4\n        /* \"#utility.yul\":2858:2874   */\n      add\n        /* \"#utility.yul\":2851:2878   */\n      mstore\n        /* \"#utility.yul\":2737:2885   */\n      pop\n      pop\n      pop\n      jump\t// out\n        /* \"#utility.yul\":2891:3316   */\n    tag_40:\n        /* \"#utility.yul\":2969:2974   */\n      0x00\n        /* \"#utility.yul\":2994:3060   */\n      tag_74\n        /* \"#utility.yul\":3010:3059   */\n      tag_75\n        /* \"#utility.yul\":3052:3058   */\n      dup5\n        /* \"#utility.yul\":3010:3059   */\n      tag_38\n      jump\t// in\n    tag_75:\n        /* \"#utility.yul\":2994:3060   */\n      tag_37\n      jump\t// in\n    tag_74:\n        /* \"#utility.yul\":2985:3060   */\n      swap1\n      pop\n        /* \"#utility.yul\":3083:3089   */\n      dup3\n        /* \"#utility.yul\":3076:3081   */\n      dup2\n        /* \"#utility.yul\":3069:3090   */\n      mstore\n        /* \"#utility.yul\":3121:3125   */\n      0x20\n        /* \"#utility.yul\":3114:3119   */\n      dup2\n        /* \"#utility.yul\":3110:3126   */\n      add\n        /* \"#utility.yul\":3159:3162   */\n      dup5\n        /* \"#utility.yul\":3150:3156   */\n      dup5\n        /* \"#utility.yul\":3145:3148   */\n      dup5\n        /* \"#utility.yul\":3141:3157   */\n      add\n        /* \"#utility.yul\":3138:3163   */\n      gt\n        /* \"#utility.yul\":3135:3247   */\n      iszero\n      tag_76\n      jumpi\n        /* \"#utility.yul\":3166:3245   */\n      tag_77\n      tag_34\n      jump\t// in\n    tag_77:\n        /* \"#utility.yul\":3135:3247   */\n    tag_76:\n        /* \"#utility.yul\":3256:3310   */\n      tag_78\n        /* \"#utility.yul\":3303:3309   */\n      dup5\n        /* \"#utility.yul\":3298:3301   */\n      dup3\n        /* \"#utility.yul\":3293:3296   */\n      dup6\n        /* \"#utility.yul\":3256:3310   */\n      tag_39\n      jump\t// in\n    tag_78:\n        /* \"#utility.yul\":2975:3316   */\n      pop\n        /* \"#utility.yul\":2891:3316   */\n      swap4\n      swap3\n      pop\n      pop\n      pop\n      jump\t// out\n        /* \"#utility.yul\":3336:3676   */\n    tag_41:\n        /* \"#utility.yul\":3392:3397   */\n      0x00\n        /* \"#utility.yul\":3441:3444   */\n      dup3\n        /* \"#utility.yul\":3434:3438   */\n      0x1f\n        /* \"#utility.yul\":3426:3432   */\n      dup4\n        /* \"#utility.yul\":3422:3439   */\n      add\n        /* \"#utility.yul\":3418:3445   */\n      slt\n        /* \"#utility.yul\":3408:3530   */\n      tag_80\n      jumpi\n        /* \"#utility.yul\":3449:3528   */\n      tag_81\n      tag_33\n      jump\t// in\n    tag_81:\n        /* \"#utility.yul\":3408:3530   */\n    tag_80:\n        /* \"#utility.yul\":3566:3572   */\n      dup2\n        /* \"#utility.yul\":3553:3573   */\n      calldataload\n        /* \"#utility.yul\":3591:3670   */\n      tag_82\n        /* \"#utility.yul\":3666:3669   */\n      dup5\n        /* \"#utility.yul\":3658:3664   */\n      dup3\n        /* \"#utility.yul\":3651:3655   */\n      0x20\n        /* \"#utility.yul\":3643:3649   */\n      dup7\n        /* \"#utility.yul\":3639:3656   */\n      add\n        /* \"#utility.yul\":3591:3670   */\n      tag_40\n      jump\t// in\n    tag_82:\n        /* \"#utility.yul\":3582:3670   */\n      swap2\n      pop\n        /* \"#utility.yul\":3398:3676   */\n      pop\n        /* \"#utility.yul\":3336:3676   */\n      swap3\n      swap2\n      pop\n      pop\n      jump\t// out\n        /* \"#utility.yul\":3682:4191   */\n    tag_11:\n        /* \"#utility.yul\":3751:3757   */\n      0x00\n        /* \"#utility.yul\":3800:3802   */\n      0x20\n        /* \"#utility.yul\":3788:3797   */\n      dup3\n        /* \"#utility.yul\":3779:3786   */\n      dup5\n        /* \"#utility.yul\":3775:3798   */\n      sub\n        /* \"#utility.yul\":3771:3803   */\n      slt\n        /* \"#utility.yul\":3768:3887   */\n      iszero\n      tag_84\n      jumpi\n        /* \"#utility.yul\":3806:3885   */\n      tag_85\n      tag_31\n      jump\t// in\n    tag_85:\n        /* \"#utility.yul\":3768:3887   */\n    tag_84:\n        /* \"#utility.yul\":3954:3955   */\n      0x00\n        /* \"#utility.yul\":3943:3952   */\n      dup3\n        /* \"#utility.yul\":3939:3956   */\n      add\n        /* \"#utility.yul\":3926:3957   */\n      calldataload\n        /* \"#utility.yul\":3984:4002   */\n      0xffffffffffffffff\n        /* \"#utility.yul\":3976:3982   */\n      dup2\n        /* \"#utility.yul\":3973:4003   */\n      gt\n        /* \"#utility.yul\":3970:4087   */\n      iszero\n      tag_86\n      jumpi\n        /* \"#utility.yul\":4006:4085   */\n      tag_87\n      tag_32\n      jump\t// in\n    tag_87:\n        /* \"#utility.yul\":3970:4087   */\n    tag_86:\n        /* \"#utility.yul\":4111:4174   */\n      tag_88\n        /* \"#utility.yul\":4166:4173   */\n      dup5\n        /* \"#utility.yul\":4157:4163   */\n      dup3\n        /* \"#utility.yul\":4146:4155   */\n      dup6\n        /* \"#utility.yul\":4142:4164   */\n      add\n        /* \"#utility.yul\":4111:4174   */\n      tag_41\n      jump\t// in\n    tag_88:\n        /* \"#utility.yul\":4101:4174   */\n      swap2\n      pop\n        /* \"#utility.yul\":3897:4184   */\n      pop\n        /* \"#utility.yul\":3682:4191   */\n      swap3\n      swap2\n      pop\n      pop\n      jump\t// out\n        /* \"#utility.yul\":4197:4377   */\n    tag_42:\n        /* \"#utility.yul\":4245:4322   */\n      0x4e487b7100000000000000000000000000000000000000000000000000000000\n        /* \"#utility.yul\":4242:4243   */\n      0x00\n        /* \"#utility.yul\":4235:4323   */\n      mstore\n        /* \"#utility.yul\":4342:4346   */\n      0x22\n        /* \"#utility.yul\":4339:4340   */\n      0x04\n        /* \"#utility.yul\":4332:4347   */\n      mstore\n        /* \"#utility.yul\":4366:4370   */\n      0x24\n        /* \"#utility.yul\":4363:4364   */\n      0x00\n        /* \"#utility.yul\":4356:4371   */\n      revert\n        /* \"#utility.yul\":4383:4703   */\n    tag_14:\n        /* \"#utility.yul\":4427:4433   */\n      0x00\n        /* \"#utility.yul\":4464:4465   */\n      0x02\n        /* \"#utility.yul\":4458:4462   */\n      dup3\n        /* \"#utility.yul\":4454:4466   */\n      div\n        /* \"#utility.yul\":4444:4466   */\n      swap1\n      pop\n        /* \"#utility.yul\":4511:4512   */\n      0x01\n        /* \"#utility.yul\":4505:4509   */\n      dup3\n        /* \"#utility.yul\":4501:4513   */\n      and\n        /* \"#utility.yul\":4532:4550   */\n      dup1\n        /* \"#utility.yul\":4522:4603   */\n      tag_91\n      jumpi\n        /* \"#utility.yul\":4588:4592   */\n      0x7f\n        /* \"#utility.yul\":4580:4586   */\n      dup3\n        /* \"#utility.yul\":4576:4593   */\n      and\n        /* \"#utility.yul\":4566:4593   */\n      swap2\n      pop\n        /* \"#utility.yul\":4522:4603   */\n    tag_91:\n        /* \"#utility.yul\":4650:4652   */\n      0x20\n        /* \"#utility.yul\":4642:4648   */\n      dup3\n        /* \"#utility.yul\":4639:4653   */\n      lt\n        /* \"#utility.yul\":4619:4637   */\n      dup2\n        /* \"#utility.yul\":4616:4654   */\n      sub\n        /* \"#utility.yul\":4613:4697   */\n      tag_92\n      jumpi\n        /* \"#utility.yul\":4669:4687   */\n      tag_93\n      tag_42\n      jump\t// in\n    tag_93:\n        /* \"#utility.yul\":4613:4697   */\n    tag_92:\n        /* \"#utility.yul\":4434:4703   */\n      pop\n        /* \"#utility.yul\":4383:4703   */\n      swap2\n      swap1\n      pop\n      jump\t// out\n\n    auxdata: 0xa2646970667358221220c6d112bb4e31ce80e0393d0b1fca9868d49823e2fef31a7b8fb7f12d58c49fb064736f6c634300081a0033\n}\n",
				"bytecode": {
					"linkReferences": {},
					"object": "6080604052348015600e575f80fd5b506104068061001c5f395ff3fe608060405234801561000f575f80fd5b5060043610610034575f3560e01c806368af37df14610038578063807becf514610056575b5f80fd5b610040610072565b60405161004d91906101cf565b60405180910390f35b610070600480360381019061006b919061032c565b6100fd565b005b5f805461007e906103a0565b80601f01602080910402602001604051908101604052809291908181526020018280546100aa906103a0565b80156100f55780601f106100cc576101008083540402835291602001916100f5565b820191905f5260205f20905b8154815290600101906020018083116100d857829003601f168201915b505050505081565b80515f60016020830401601f83101561011f5760028302602085015101808355505b6020831115610159576001600284020182555f5b81811015610157576001810160200285015181602085200155600181019050610133565b505b50505050565b5f81519050919050565b5f82825260208201905092915050565b8281835e5f83830152505050565b5f601f19601f8301169050919050565b5f6101a18261015f565b6101ab8185610169565b93506101bb818560208601610179565b6101c481610187565b840191505092915050565b5f6020820190508181035f8301526101e78184610197565b905092915050565b5f604051905090565b5f80fd5b5f80fd5b5f80fd5b5f80fd5b7f4e487b71000000000000000000000000000000000000000000000000000000005f52604160045260245ffd5b61023e82610187565b810181811067ffffffffffffffff8211171561025d5761025c610208565b5b80604052505050565b5f61026f6101ef565b905061027b8282610235565b919050565b5f67ffffffffffffffff82111561029a57610299610208565b5b6102a382610187565b9050602081019050919050565b828183375f83830152505050565b5f6102d06102cb84610280565b610266565b9050828152602081018484840111156102ec576102eb610204565b5b6102f78482856102b0565b509392505050565b5f82601f83011261031357610312610200565b5b81356103238482602086016102be565b91505092915050565b5f60208284031215610341576103406101f8565b5b5f82013567ffffffffffffffff81111561035e5761035d6101fc565b5b61036a848285016102ff565b91505092915050565b7f4e487b71000000000000000000000000000000000000000000000000000000005f52602260045260245ffd5b5f60028204905060018216806103b757607f821691505b6020821081036103ca576103c9610373565b5b5091905056fea2646970667358221220c6d112bb4e31ce80e0393d0b1fca9868d49823e2fef31a7b8fb7f12d58c49fb064736f6c634300081a0033",
					"opcodes": "PUSH1 0x80 PUSH1 0x40 MSTORE CALLVALUE DUP1 ISZERO PUSH1 0xE JUMPI PUSH0 DUP1 REVERT JUMPDEST POP PUSH2 0x406 DUP1 PUSH2 0x1C PUSH0 CODECOPY PUSH0 RETURN INVALID PUSH1 0x80 PUSH1 0x40 MSTORE CALLVALUE DUP1 ISZERO PUSH2 0xF JUMPI PUSH0 DUP1 REVERT JUMPDEST POP PUSH1 0x4 CALLDATASIZE LT PUSH2 0x34 JUMPI PUSH0 CALLDATALOAD PUSH1 0xE0 SHR DUP1 PUSH4 0x68AF37DF EQ PUSH2 0x38 JUMPI DUP1 PUSH4 0x807BECF5 EQ PUSH2 0x56 JUMPI JUMPDEST PUSH0 DUP1 REVERT JUMPDEST PUSH2 0x40 PUSH2 0x72 JUMP JUMPDEST PUSH1 0x40 MLOAD PUSH2 0x4D SWAP2 SWAP1 PUSH2 0x1CF JUMP JUMPDEST PUSH1 0x40 MLOAD DUP1 SWAP2 SUB SWAP1 RETURN JUMPDEST PUSH2 0x70 PUSH1 0x4 DUP1 CALLDATASIZE SUB DUP2 ADD SWAP1 PUSH2 0x6B SWAP2 SWAP1 PUSH2 0x32C JUMP JUMPDEST PUSH2 0xFD JUMP JUMPDEST STOP JUMPDEST PUSH0 DUP1 SLOAD PUSH2 0x7E SWAP1 PUSH2 0x3A0 JUMP JUMPDEST DUP1 PUSH1 0x1F ADD PUSH1 0x20 DUP1 SWAP2 DIV MUL PUSH1 0x20 ADD PUSH1 0x40 MLOAD SWAP1 DUP2 ADD PUSH1 0x40 MSTORE DUP1 SWAP3 SWAP2 SWAP1 DUP2 DUP2 MSTORE PUSH1 0x20 ADD DUP3 DUP1 SLOAD PUSH2 0xAA SWAP1 PUSH2 0x3A0 JUMP JUMPDEST DUP1 ISZERO PUSH2 0xF5 JUMPI DUP1 PUSH1 0x1F LT PUSH2 0xCC JUMPI PUSH2 0x100 DUP1 DUP4 SLOAD DIV MUL DUP4 MSTORE SWAP2 PUSH1 0x20 ADD SWAP2 PUSH2 0xF5 JUMP JUMPDEST DUP3 ADD SWAP2 SWAP1 PUSH0 MSTORE PUSH1 0x20 PUSH0 KECCAK256 SWAP1 JUMPDEST DUP2 SLOAD DUP2 MSTORE SWAP1 PUSH1 0x1 ADD SWAP1 PUSH1 0x20 ADD DUP1 DUP4 GT PUSH2 0xD8 JUMPI DUP3 SWAP1 SUB PUSH1 0x1F AND DUP3 ADD SWAP2 JUMPDEST POP POP POP POP POP DUP2 JUMP JUMPDEST DUP1 MLOAD PUSH0 PUSH1 0x1 PUSH1 0x20 DUP4 DIV ADD PUSH1 0x1F DUP4 LT ISZERO PUSH2 0x11F JUMPI PUSH1 0x2 DUP4 MUL PUSH1 0x20 DUP6 ADD MLOAD ADD DUP1 DUP4 SSTORE POP JUMPDEST PUSH1 0x20 DUP4 GT ISZERO PUSH2 0x159 JUMPI PUSH1 0x1 PUSH1 0x2 DUP5 MUL ADD DUP3 SSTORE PUSH0 JUMPDEST DUP2 DUP2 LT ISZERO PUSH2 0x157 JUMPI PUSH1 0x1 DUP2 ADD PUSH1 0x20 MUL DUP6 ADD MLOAD DUP2 PUSH1 0x20 DUP6 KECCAK256 ADD SSTORE PUSH1 0x1 DUP2 ADD SWAP1 POP PUSH2 0x133 JUMP JUMPDEST POP JUMPDEST POP POP POP POP JUMP JUMPDEST PUSH0 DUP2 MLOAD SWAP1 POP SWAP2 SWAP1 POP JUMP JUMPDEST PUSH0 DUP3 DUP3 MSTORE PUSH1 0x20 DUP3 ADD SWAP1 POP SWAP3 SWAP2 POP POP JUMP JUMPDEST DUP3 DUP2 DUP4 MCOPY PUSH0 DUP4 DUP4 ADD MSTORE POP POP POP JUMP JUMPDEST PUSH0 PUSH1 0x1F NOT PUSH1 0x1F DUP4 ADD AND SWAP1 POP SWAP2 SWAP1 POP JUMP JUMPDEST PUSH0 PUSH2 0x1A1 DUP3 PUSH2 0x15F JUMP JUMPDEST PUSH2 0x1AB DUP2 DUP6 PUSH2 0x169 JUMP JUMPDEST SWAP4 POP PUSH2 0x1BB DUP2 DUP6 PUSH1 0x20 DUP7 ADD PUSH2 0x179 JUMP JUMPDEST PUSH2 0x1C4 DUP2 PUSH2 0x187 JUMP JUMPDEST DUP5 ADD SWAP2 POP POP SWAP3 SWAP2 POP POP JUMP JUMPDEST PUSH0 PUSH1 0x20 DUP3 ADD SWAP1 POP DUP2 DUP2 SUB PUSH0 DUP4 ADD MSTORE PUSH2 0x1E7 DUP2 DUP5 PUSH2 0x197 JUMP JUMPDEST SWAP1 POP SWAP3 SWAP2 POP POP JUMP JUMPDEST PUSH0 PUSH1 0x40 MLOAD SWAP1 POP SWAP1 JUMP JUMPDEST PUSH0 DUP1 REVERT JUMPDEST PUSH0 DUP1 REVERT JUMPDEST PUSH0 DUP1 REVERT JUMPDEST PUSH0 DUP1 REVERT JUMPDEST PUSH32 0x4E487B7100000000000000000000000000000000000000000000000000000000 PUSH0 MSTORE PUSH1 0x41 PUSH1 0x4 MSTORE PUSH1 0x24 PUSH0 REVERT JUMPDEST PUSH2 0x23E DUP3 PUSH2 0x187 JUMP JUMPDEST DUP2 ADD DUP2 DUP2 LT PUSH8 0xFFFFFFFFFFFFFFFF DUP3 GT OR ISZERO PUSH2 0x25D JUMPI PUSH2 0x25C PUSH2 0x208 JUMP JUMPDEST JUMPDEST DUP1 PUSH1 0x40 MSTORE POP POP POP JUMP JUMPDEST PUSH0 PUSH2 0x26F PUSH2 0x1EF JUMP JUMPDEST SWAP1 POP PUSH2 0x27B DUP3 DUP3 PUSH2 0x235 JUMP JUMPDEST SWAP2 SWAP1 POP JUMP JUMPDEST PUSH0 PUSH8 0xFFFFFFFFFFFFFFFF DUP3 GT ISZERO PUSH2 0x29A JUMPI PUSH2 0x299 PUSH2 0x208 JUMP JUMPDEST JUMPDEST PUSH2 0x2A3 DUP3 PUSH2 0x187 JUMP JUMPDEST SWAP1 POP PUSH1 0x20 DUP2 ADD SWAP1 POP SWAP2 SWAP1 POP JUMP JUMPDEST DUP3 DUP2 DUP4 CALLDATACOPY PUSH0 DUP4 DUP4 ADD MSTORE POP POP POP JUMP JUMPDEST PUSH0 PUSH2 0x2D0 PUSH2 0x2CB DUP5 PUSH2 0x280 JUMP JUMPDEST PUSH2 0x266 JUMP JUMPDEST SWAP1 POP DUP3 DUP2 MSTORE PUSH1 0x20 DUP2 ADD DUP5 DUP5 DUP5 ADD GT ISZERO PUSH2 0x2EC JUMPI PUSH2 0x2EB PUSH2 0x204 JUMP JUMPDEST JUMPDEST PUSH2 0x2F7 DUP5 DUP3 DUP6 PUSH2 0x2B0 JUMP JUMPDEST POP SWAP4 SWAP3 POP POP POP JUMP JUMPDEST PUSH0 DUP3 PUSH1 0x1F DUP4 ADD SLT PUSH2 0x313 JUMPI PUSH2 0x312 PUSH2 0x200 JUMP JUMPDEST JUMPDEST DUP2 CALLDATALOAD PUSH2 0x323 DUP5 DUP3 PUSH1 0x20 DUP7 ADD PUSH2 0x2BE JUMP JUMPDEST SWAP2 POP POP SWAP3 SWAP2 POP POP JUMP JUMPDEST PUSH0 PUSH1 0x20 DUP3 DUP5 SUB SLT ISZERO PUSH2 0x341 JUMPI PUSH2 0x340 PUSH2 0x1F8 JUMP JUMPDEST JUMPDEST PUSH0 DUP3 ADD CALLDATALOAD PUSH8 0xFFFFFFFFFFFFFFFF DUP2 GT ISZERO PUSH2 0x35E JUMPI PUSH2 0x35D PUSH2 0x1FC JUMP JUMPDEST JUMPDEST PUSH2 0x36A DUP5 DUP3 DUP6 ADD PUSH2 0x2FF JUMP JUMPDEST SWAP2 POP POP SWAP3 SWAP2 POP POP JUMP JUMPDEST PUSH32 0x4E487B7100000000000000000000000000000000000000000000000000000000 PUSH0 MSTORE PUSH1 0x22 PUSH1 0x4 MSTORE PUSH1 0x24 PUSH0 REVERT JUMPDEST PUSH0 PUSH1 0x2 DUP3 DIV SWAP1 POP PUSH1 0x1 DUP3 AND DUP1 PUSH2 0x3B7 JUMPI PUSH1 0x7F DUP3 AND SWAP2 POP JUMPDEST PUSH1 0x20 DUP3 LT DUP2 SUB PUSH2 0x3CA JUMPI PUSH2 0x3C9 PUSH2 0x373 JUMP JUMPDEST JUMPDEST POP SWAP2 SWAP1 POP JUMP INVALID LOG2 PUSH5 0x6970667358 0x22 SLT KECCAK256 0xC6 0xD1 SLT 0xBB 0x4E BALANCE 0xCE DUP1 0xE0 CODECOPY RETURNDATASIZE SIGNEXTEND 0x1F 0xCA SWAP9 PUSH9 0xD49823E2FEF31A7B8F 0xB7 CALL 0x2D PC 0xC4 SWAP16 0xB0 PUSH5 0x736F6C6343 STOP ADDMOD BYTE STOP CALLER "
				},
				"gasEstimates": {
					"creation": {
						"codeDepositCost": "206000",
						"executionCost": "249",
						"totalCost": "206249"
					},
					"external": {
						"letter()": "infinite",
						"setLetter(string)": "infinite"
					}
				},
				"methodIdentifiers": {
					"letter()": "68af37df",
					"setLetter(string)": "807becf5"
				}
			},
			"storageLayout": {
				"storage": [
					{
						"astId": 235,
						"contract": "Solidity100/Solidity91-100.sol:Question98",
						"label": "letter",
						"offset": 0,
						"slot": "0",
						"type": "t_string_storage"
					}
				],
				"types": {
					"t_string_storage": {
						"encoding": "bytes",
						"label": "string",
						"numberOfBytes": "32"
					}
				}
			},
			"userdoc": {
				"kind": "user",
				"methods": {},
				"version": 1
			}
		}
	}
}