{
	"Solidity100/Solidity31-40.sol": {
		"Question38": {
			"abi": [
				{
					"inputs": [],
					"stateMutability": "nonpayable",
					"type": "constructor"
				},
				{
					"inputs": [],
					"name": "a",
					"outputs": [
						{
							"internalType": "string",
							"name": "",
							"type": "string"
						}
					],
					"stateMutability": "view",
					"type": "function"
				},
				{
					"inputs": [],
					"name": "setB",
					"outputs": [],
					"stateMutability": "nonpayable",
					"type": "function"
				},
				{
					"inputs": [],
					"name": "setC",
					"outputs": [],
					"stateMutability": "nonpayable",
					"type": "function"
				}
			],
			"devdoc": {
				"kind": "dev",
				"methods": {},
				"version": 1
			},
			"evm": {
				"assembly": "    /* \"Solidity100/Solidity31-40.sol\":5227:6011  contract Question38{... */\n  mstore(0x40, 0x80)\n    /* \"Solidity100/Solidity31-40.sol\":5706:5727  string public a = \"A\" */\n  mload(0x40)\n  dup1\n  0x40\n  add\n  0x40\n  mstore\n  dup1\n  0x01\n  dup2\n  mstore\n  0x20\n  add\n  0x4100000000000000000000000000000000000000000000000000000000000000\n  dup2\n  mstore\n  pop\n  0x00\n  swap1\n  dup2\n  tag_1\n  swap2\n  swap1\n  tag_2\n  jump\t// in\ntag_1:\n  pop\n    /* \"Solidity100/Solidity31-40.sol\":5753:5802  constructor() {... */\n  callvalue\n  dup1\n  iszero\n  tag_3\n  jumpi\n  0x00\n  dup1\n  revert\ntag_3:\n  pop\n    /* \"Solidity100/Solidity31-40.sol\":5785:5795  msg.sender */\n  caller\n    /* \"Solidity100/Solidity31-40.sol\":5777:5782  owner */\n  0x01\n  0x00\n    /* \"Solidity100/Solidity31-40.sol\":5777:5795  owner = msg.sender */\n  0x0100\n  exp\n  dup2\n  sload\n  dup2\n  0xffffffffffffffffffffffffffffffffffffffff\n  mul\n  not\n  and\n  swap1\n  dup4\n  0xffffffffffffffffffffffffffffffffffffffff\n  and\n  mul\n  or\n  swap1\n  sstore\n  pop\n    /* \"Solidity100/Solidity31-40.sol\":5227:6011  contract Question38{... */\n  jump(tag_6)\n    /* \"#utility.yul\":7:106   */\ntag_7:\n    /* \"#utility.yul\":59:65   */\n  0x00\n    /* \"#utility.yul\":93:98   */\n  dup2\n    /* \"#utility.yul\":87:99   */\n  mload\n    /* \"#utility.yul\":77:99   */\n  swap1\n  pop\n    /* \"#utility.yul\":7:106   */\n  swap2\n  swap1\n  pop\n  jump\t// out\n    /* \"#utility.yul\":112:292   */\ntag_8:\n    /* \"#utility.yul\":160:237   */\n  0x4e487b7100000000000000000000000000000000000000000000000000000000\n    /* \"#utility.yul\":157:158   */\n  0x00\n    /* \"#utility.yul\":150:238   */\n  mstore\n    /* \"#utility.yul\":257:261   */\n  0x41\n    /* \"#utility.yul\":254:255   */\n  0x04\n    /* \"#utility.yul\":247:262   */\n  mstore\n    /* \"#utility.yul\":281:285   */\n  0x24\n    /* \"#utility.yul\":278:279   */\n  0x00\n    /* \"#utility.yul\":271:286   */\n  revert\n    /* \"#utility.yul\":298:478   */\ntag_9:\n    /* \"#utility.yul\":346:423   */\n  0x4e487b7100000000000000000000000000000000000000000000000000000000\n    /* \"#utility.yul\":343:344   */\n  0x00\n    /* \"#utility.yul\":336:424   */\n  mstore\n    /* \"#utility.yul\":443:447   */\n  0x22\n    /* \"#utility.yul\":440:441   */\n  0x04\n    /* \"#utility.yul\":433:448   */\n  mstore\n    /* \"#utility.yul\":467:471   */\n  0x24\n    /* \"#utility.yul\":464:465   */\n  0x00\n    /* \"#utility.yul\":457:472   */\n  revert\n    /* \"#utility.yul\":484:804   */\ntag_10:\n    /* \"#utility.yul\":528:534   */\n  0x00\n    /* \"#utility.yul\":565:566   */\n  0x02\n    /* \"#utility.yul\":559:563   */\n  dup3\n    /* \"#utility.yul\":555:567   */\n  div\n    /* \"#utility.yul\":545:567   */\n  swap1\n  pop\n    /* \"#utility.yul\":612:613   */\n  0x01\n    /* \"#utility.yul\":606:610   */\n  dup3\n    /* \"#utility.yul\":602:614   */\n  and\n    /* \"#utility.yul\":633:651   */\n  dup1\n    /* \"#utility.yul\":623:704   */\n  tag_32\n  jumpi\n    /* \"#utility.yul\":689:693   */\n  0x7f\n    /* \"#utility.yul\":681:687   */\n  dup3\n    /* \"#utility.yul\":677:694   */\n  and\n    /* \"#utility.yul\":667:694   */\n  swap2\n  pop\n    /* \"#utility.yul\":623:704   */\ntag_32:\n    /* \"#utility.yul\":751:753   */\n  0x20\n    /* \"#utility.yul\":743:749   */\n  dup3\n    /* \"#utility.yul\":740:754   */\n  lt\n    /* \"#utility.yul\":720:738   */\n  dup2\n    /* \"#utility.yul\":717:755   */\n  sub\n    /* \"#utility.yul\":714:798   */\n  tag_33\n  jumpi\n    /* \"#utility.yul\":770:788   */\n  tag_34\n  tag_9\n  jump\t// in\ntag_34:\n    /* \"#utility.yul\":714:798   */\ntag_33:\n    /* \"#utility.yul\":535:804   */\n  pop\n    /* \"#utility.yul\":484:804   */\n  swap2\n  swap1\n  pop\n  jump\t// out\n    /* \"#utility.yul\":810:951   */\ntag_11:\n    /* \"#utility.yul\":859:863   */\n  0x00\n    /* \"#utility.yul\":882:885   */\n  dup2\n    /* \"#utility.yul\":874:885   */\n  swap1\n  pop\n    /* \"#utility.yul\":905:908   */\n  dup2\n    /* \"#utility.yul\":902:903   */\n  0x00\n    /* \"#utility.yul\":895:909   */\n  mstore\n    /* \"#utility.yul\":939:943   */\n  0x20\n    /* \"#utility.yul\":936:937   */\n  0x00\n    /* \"#utility.yul\":926:944   */\n  keccak256\n    /* \"#utility.yul\":918:944   */\n  swap1\n  pop\n    /* \"#utility.yul\":810:951   */\n  swap2\n  swap1\n  pop\n  jump\t// out\n    /* \"#utility.yul\":957:1050   */\ntag_12:\n    /* \"#utility.yul\":994:1000   */\n  0x00\n    /* \"#utility.yul\":1041:1043   */\n  0x20\n    /* \"#utility.yul\":1036:1038   */\n  0x1f\n    /* \"#utility.yul\":1029:1034   */\n  dup4\n    /* \"#utility.yul\":1025:1039   */\n  add\n    /* \"#utility.yul\":1021:1044   */\n  div\n    /* \"#utility.yul\":1011:1044   */\n  swap1\n  pop\n    /* \"#utility.yul\":957:1050   */\n  swap2\n  swap1\n  pop\n  jump\t// out\n    /* \"#utility.yul\":1056:1163   */\ntag_13:\n    /* \"#utility.yul\":1100:1108   */\n  0x00\n    /* \"#utility.yul\":1150:1155   */\n  dup3\n    /* \"#utility.yul\":1144:1148   */\n  dup3\n    /* \"#utility.yul\":1140:1156   */\n  shl\n    /* \"#utility.yul\":1119:1156   */\n  swap1\n  pop\n    /* \"#utility.yul\":1056:1163   */\n  swap3\n  swap2\n  pop\n  pop\n  jump\t// out\n    /* \"#utility.yul\":1169:1562   */\ntag_14:\n    /* \"#utility.yul\":1238:1244   */\n  0x00\n    /* \"#utility.yul\":1288:1289   */\n  0x08\n    /* \"#utility.yul\":1276:1286   */\n  dup4\n    /* \"#utility.yul\":1272:1290   */\n  mul\n    /* \"#utility.yul\":1311:1408   */\n  tag_39\n    /* \"#utility.yul\":1341:1407   */\n  0xffffffffffffffffffffffffffffffffffffffffffffffffffffffffffffffff\n    /* \"#utility.yul\":1330:1339   */\n  dup3\n    /* \"#utility.yul\":1311:1408   */\n  tag_13\n  jump\t// in\ntag_39:\n    /* \"#utility.yul\":1429:1468   */\n  tag_40\n    /* \"#utility.yul\":1459:1467   */\n  dup7\n    /* \"#utility.yul\":1448:1457   */\n  dup4\n    /* \"#utility.yul\":1429:1468   */\n  tag_13\n  jump\t// in\ntag_40:\n    /* \"#utility.yul\":1417:1468   */\n  swap6\n  pop\n    /* \"#utility.yul\":1501:1505   */\n  dup1\n    /* \"#utility.yul\":1497:1506   */\n  not\n    /* \"#utility.yul\":1490:1495   */\n  dup5\n    /* \"#utility.yul\":1486:1507   */\n  and\n    /* \"#utility.yul\":1477:1507   */\n  swap4\n  pop\n    /* \"#utility.yul\":1550:1554   */\n  dup1\n    /* \"#utility.yul\":1540:1548   */\n  dup7\n    /* \"#utility.yul\":1536:1555   */\n  and\n    /* \"#utility.yul\":1529:1534   */\n  dup5\n    /* \"#utility.yul\":1526:1556   */\n  or\n    /* \"#utility.yul\":1516:1556   */\n  swap3\n  pop\n    /* \"#utility.yul\":1245:1562   */\n  pop\n  pop\n    /* \"#utility.yul\":1169:1562   */\n  swap4\n  swap3\n  pop\n  pop\n  pop\n  jump\t// out\n    /* \"#utility.yul\":1568:1645   */\ntag_15:\n    /* \"#utility.yul\":1605:1612   */\n  0x00\n    /* \"#utility.yul\":1634:1639   */\n  dup2\n    /* \"#utility.yul\":1623:1639   */\n  swap1\n  pop\n    /* \"#utility.yul\":1568:1645   */\n  swap2\n  swap1\n  pop\n  jump\t// out\n    /* \"#utility.yul\":1651:1711   */\ntag_16:\n    /* \"#utility.yul\":1679:1682   */\n  0x00\n    /* \"#utility.yul\":1700:1705   */\n  dup2\n    /* \"#utility.yul\":1693:1705   */\n  swap1\n  pop\n    /* \"#utility.yul\":1651:1711   */\n  swap2\n  swap1\n  pop\n  jump\t// out\n    /* \"#utility.yul\":1717:1859   */\ntag_17:\n    /* \"#utility.yul\":1767:1776   */\n  0x00\n    /* \"#utility.yul\":1800:1853   */\n  tag_44\n    /* \"#utility.yul\":1818:1852   */\n  tag_45\n    /* \"#utility.yul\":1827:1851   */\n  tag_46\n    /* \"#utility.yul\":1845:1850   */\n  dup5\n    /* \"#utility.yul\":1827:1851   */\n  tag_15\n  jump\t// in\ntag_46:\n    /* \"#utility.yul\":1818:1852   */\n  tag_16\n  jump\t// in\ntag_45:\n    /* \"#utility.yul\":1800:1853   */\n  tag_15\n  jump\t// in\ntag_44:\n    /* \"#utility.yul\":1787:1853   */\n  swap1\n  pop\n    /* \"#utility.yul\":1717:1859   */\n  swap2\n  swap1\n  pop\n  jump\t// out\n    /* \"#utility.yul\":1865:1940   */\ntag_18:\n    /* \"#utility.yul\":1908:1911   */\n  0x00\n    /* \"#utility.yul\":1929:1934   */\n  dup2\n    /* \"#utility.yul\":1922:1934   */\n  swap1\n  pop\n    /* \"#utility.yul\":1865:1940   */\n  swap2\n  swap1\n  pop\n  jump\t// out\n    /* \"#utility.yul\":1946:2215   */\ntag_19:\n    /* \"#utility.yul\":2056:2095   */\n  tag_49\n    /* \"#utility.yul\":2087:2094   */\n  dup4\n    /* \"#utility.yul\":2056:2095   */\n  tag_17\n  jump\t// in\ntag_49:\n    /* \"#utility.yul\":2117:2208   */\n  tag_50\n    /* \"#utility.yul\":2166:2207   */\n  tag_51\n    /* \"#utility.yul\":2190:2206   */\n  dup3\n    /* \"#utility.yul\":2166:2207   */\n  tag_18\n  jump\t// in\ntag_51:\n    /* \"#utility.yul\":2158:2164   */\n  dup5\n    /* \"#utility.yul\":2151:2155   */\n  dup5\n    /* \"#utility.yul\":2145:2156   */\n  sload\n    /* \"#utility.yul\":2117:2208   */\n  tag_14\n  jump\t// in\ntag_50:\n    /* \"#utility.yul\":2111:2115   */\n  dup3\n    /* \"#utility.yul\":2104:2209   */\n  sstore\n    /* \"#utility.yul\":2022:2215   */\n  pop\n    /* \"#utility.yul\":1946:2215   */\n  pop\n  pop\n  pop\n  jump\t// out\n    /* \"#utility.yul\":2221:2294   */\ntag_20:\n    /* \"#utility.yul\":2266:2269   */\n  0x00\n    /* \"#utility.yul\":2221:2294   */\n  swap1\n  jump\t// out\n    /* \"#utility.yul\":2300:2489   */\ntag_21:\n    /* \"#utility.yul\":2377:2409   */\n  tag_54\n  tag_20\n  jump\t// in\ntag_54:\n    /* \"#utility.yul\":2418:2483   */\n  tag_55\n    /* \"#utility.yul\":2476:2482   */\n  dup2\n    /* \"#utility.yul\":2468:2474   */\n  dup5\n    /* \"#utility.yul\":2462:2466   */\n  dup5\n    /* \"#utility.yul\":2418:2483   */\n  tag_19\n  jump\t// in\ntag_55:\n    /* \"#utility.yul\":2353:2489   */\n  pop\n    /* \"#utility.yul\":2300:2489   */\n  pop\n  pop\n  jump\t// out\n    /* \"#utility.yul\":2495:2681   */\ntag_22:\n    /* \"#utility.yul\":2555:2675   */\ntag_57:\n    /* \"#utility.yul\":2572:2575   */\n  dup2\n    /* \"#utility.yul\":2565:2570   */\n  dup2\n    /* \"#utility.yul\":2562:2576   */\n  lt\n    /* \"#utility.yul\":2555:2675   */\n  iszero\n  tag_59\n  jumpi\n    /* \"#utility.yul\":2626:2665   */\n  tag_60\n    /* \"#utility.yul\":2663:2664   */\n  0x00\n    /* \"#utility.yul\":2656:2661   */\n  dup3\n    /* \"#utility.yul\":2626:2665   */\n  tag_21\n  jump\t// in\ntag_60:\n    /* \"#utility.yul\":2599:2600   */\n  0x01\n    /* \"#utility.yul\":2592:2597   */\n  dup2\n    /* \"#utility.yul\":2588:2601   */\n  add\n    /* \"#utility.yul\":2579:2601   */\n  swap1\n  pop\n    /* \"#utility.yul\":2555:2675   */\n  jump(tag_57)\ntag_59:\n    /* \"#utility.yul\":2495:2681   */\n  pop\n  pop\n  jump\t// out\n    /* \"#utility.yul\":2687:3230   */\ntag_23:\n    /* \"#utility.yul\":2788:2790   */\n  0x1f\n    /* \"#utility.yul\":2783:2786   */\n  dup3\n    /* \"#utility.yul\":2780:2791   */\n  gt\n    /* \"#utility.yul\":2777:3223   */\n  iszero\n  tag_62\n  jumpi\n    /* \"#utility.yul\":2822:2860   */\n  tag_63\n    /* \"#utility.yul\":2854:2859   */\n  dup2\n    /* \"#utility.yul\":2822:2860   */\n  tag_11\n  jump\t// in\ntag_63:\n    /* \"#utility.yul\":2906:2935   */\n  tag_64\n    /* \"#utility.yul\":2924:2934   */\n  dup5\n    /* \"#utility.yul\":2906:2935   */\n  tag_12\n  jump\t// in\ntag_64:\n    /* \"#utility.yul\":2896:2904   */\n  dup2\n    /* \"#utility.yul\":2892:2936   */\n  add\n    /* \"#utility.yul\":3089:3091   */\n  0x20\n    /* \"#utility.yul\":3077:3087   */\n  dup6\n    /* \"#utility.yul\":3074:3092   */\n  lt\n    /* \"#utility.yul\":3071:3120   */\n  iszero\n  tag_65\n  jumpi\n    /* \"#utility.yul\":3110:3118   */\n  dup2\n    /* \"#utility.yul\":3095:3118   */\n  swap1\n  pop\n    /* \"#utility.yul\":3071:3120   */\ntag_65:\n    /* \"#utility.yul\":3133:3213   */\n  tag_66\n    /* \"#utility.yul\":3189:3211   */\n  tag_67\n    /* \"#utility.yul\":3207:3210   */\n  dup6\n    /* \"#utility.yul\":3189:3211   */\n  tag_12\n  jump\t// in\ntag_67:\n    /* \"#utility.yul\":3179:3187   */\n  dup4\n    /* \"#utility.yul\":3175:3212   */\n  add\n    /* \"#utility.yul\":3162:3173   */\n  dup3\n    /* \"#utility.yul\":3133:3213   */\n  tag_22\n  jump\t// in\ntag_66:\n    /* \"#utility.yul\":2792:3223   */\n  pop\n  pop\n    /* \"#utility.yul\":2777:3223   */\ntag_62:\n    /* \"#utility.yul\":2687:3230   */\n  pop\n  pop\n  pop\n  jump\t// out\n    /* \"#utility.yul\":3236:3353   */\ntag_24:\n    /* \"#utility.yul\":3290:3298   */\n  0x00\n    /* \"#utility.yul\":3340:3345   */\n  dup3\n    /* \"#utility.yul\":3334:3338   */\n  dup3\n    /* \"#utility.yul\":3330:3346   */\n  shr\n    /* \"#utility.yul\":3309:3346   */\n  swap1\n  pop\n    /* \"#utility.yul\":3236:3353   */\n  swap3\n  swap2\n  pop\n  pop\n  jump\t// out\n    /* \"#utility.yul\":3359:3528   */\ntag_25:\n    /* \"#utility.yul\":3403:3409   */\n  0x00\n    /* \"#utility.yul\":3436:3487   */\n  tag_70\n    /* \"#utility.yul\":3484:3485   */\n  0x00\n    /* \"#utility.yul\":3480:3486   */\n  not\n    /* \"#utility.yul\":3472:3477   */\n  dup5\n    /* \"#utility.yul\":3469:3470   */\n  0x08\n    /* \"#utility.yul\":3465:3478   */\n  mul\n    /* \"#utility.yul\":3436:3487   */\n  tag_24\n  jump\t// in\ntag_70:\n    /* \"#utility.yul\":3432:3488   */\n  not\n    /* \"#utility.yul\":3517:3521   */\n  dup1\n    /* \"#utility.yul\":3511:3515   */\n  dup4\n    /* \"#utility.yul\":3507:3522   */\n  and\n    /* \"#utility.yul\":3497:3522   */\n  swap2\n  pop\n    /* \"#utility.yul\":3410:3528   */\n  pop\n    /* \"#utility.yul\":3359:3528   */\n  swap3\n  swap2\n  pop\n  pop\n  jump\t// out\n    /* \"#utility.yul\":3533:3828   */\ntag_26:\n    /* \"#utility.yul\":3609:3613   */\n  0x00\n    /* \"#utility.yul\":3755:3784   */\n  tag_72\n    /* \"#utility.yul\":3780:3783   */\n  dup4\n    /* \"#utility.yul\":3774:3778   */\n  dup4\n    /* \"#utility.yul\":3755:3784   */\n  tag_25\n  jump\t// in\ntag_72:\n    /* \"#utility.yul\":3747:3784   */\n  swap2\n  pop\n    /* \"#utility.yul\":3817:3820   */\n  dup3\n    /* \"#utility.yul\":3814:3815   */\n  0x02\n    /* \"#utility.yul\":3810:3821   */\n  mul\n    /* \"#utility.yul\":3804:3808   */\n  dup3\n    /* \"#utility.yul\":3801:3822   */\n  or\n    /* \"#utility.yul\":3793:3822   */\n  swap1\n  pop\n    /* \"#utility.yul\":3533:3828   */\n  swap3\n  swap2\n  pop\n  pop\n  jump\t// out\n    /* \"#utility.yul\":3833:5228   */\ntag_2:\n    /* \"#utility.yul\":3950:3987   */\n  tag_74\n    /* \"#utility.yul\":3983:3986   */\n  dup3\n    /* \"#utility.yul\":3950:3987   */\n  tag_7\n  jump\t// in\ntag_74:\n    /* \"#utility.yul\":4052:4070   */\n  0xffffffffffffffff\n    /* \"#utility.yul\":4044:4050   */\n  dup2\n    /* \"#utility.yul\":4041:4071   */\n  gt\n    /* \"#utility.yul\":4038:4094   */\n  iszero\n  tag_75\n  jumpi\n    /* \"#utility.yul\":4074:4092   */\n  tag_76\n  tag_8\n  jump\t// in\ntag_76:\n    /* \"#utility.yul\":4038:4094   */\ntag_75:\n    /* \"#utility.yul\":4118:4156   */\n  tag_77\n    /* \"#utility.yul\":4150:4154   */\n  dup3\n    /* \"#utility.yul\":4144:4155   */\n  sload\n    /* \"#utility.yul\":4118:4156   */\n  tag_10\n  jump\t// in\ntag_77:\n    /* \"#utility.yul\":4203:4270   */\n  tag_78\n    /* \"#utility.yul\":4263:4269   */\n  dup3\n    /* \"#utility.yul\":4255:4261   */\n  dup3\n    /* \"#utility.yul\":4249:4253   */\n  dup6\n    /* \"#utility.yul\":4203:4270   */\n  tag_23\n  jump\t// in\ntag_78:\n    /* \"#utility.yul\":4297:4298   */\n  0x00\n    /* \"#utility.yul\":4321:4325   */\n  0x20\n    /* \"#utility.yul\":4308:4325   */\n  swap1\n  pop\n    /* \"#utility.yul\":4353:4355   */\n  0x1f\n    /* \"#utility.yul\":4345:4351   */\n  dup4\n    /* \"#utility.yul\":4342:4356   */\n  gt\n    /* \"#utility.yul\":4370:4371   */\n  0x01\n    /* \"#utility.yul\":4365:4983   */\n  dup2\n  eq\n  tag_80\n  jumpi\n    /* \"#utility.yul\":5027:5028   */\n  0x00\n    /* \"#utility.yul\":5044:5050   */\n  dup5\n    /* \"#utility.yul\":5041:5118   */\n  iszero\n  tag_81\n  jumpi\n    /* \"#utility.yul\":5093:5102   */\n  dup3\n    /* \"#utility.yul\":5088:5091   */\n  dup8\n    /* \"#utility.yul\":5084:5103   */\n  add\n    /* \"#utility.yul\":5078:5104   */\n  mload\n    /* \"#utility.yul\":5069:5104   */\n  swap1\n  pop\n    /* \"#utility.yul\":5041:5118   */\ntag_81:\n    /* \"#utility.yul\":5144:5211   */\n  tag_82\n    /* \"#utility.yul\":5204:5210   */\n  dup6\n    /* \"#utility.yul\":5197:5202   */\n  dup3\n    /* \"#utility.yul\":5144:5211   */\n  tag_26\n  jump\t// in\ntag_82:\n    /* \"#utility.yul\":5138:5142   */\n  dup7\n    /* \"#utility.yul\":5131:5212   */\n  sstore\n    /* \"#utility.yul\":5000:5222   */\n  pop\n    /* \"#utility.yul\":4335:5222   */\n  jump(tag_79)\n    /* \"#utility.yul\":4365:4983   */\ntag_80:\n    /* \"#utility.yul\":4417:4421   */\n  0x1f\n    /* \"#utility.yul\":4413:4422   */\n  not\n    /* \"#utility.yul\":4405:4411   */\n  dup5\n    /* \"#utility.yul\":4401:4423   */\n  and\n    /* \"#utility.yul\":4451:4488   */\n  tag_83\n    /* \"#utility.yul\":4483:4487   */\n  dup7\n    /* \"#utility.yul\":4451:4488   */\n  tag_11\n  jump\t// in\ntag_83:\n    /* \"#utility.yul\":4510:4511   */\n  0x00\n    /* \"#utility.yul\":4524:4732   */\ntag_84:\n    /* \"#utility.yul\":4538:4545   */\n  dup3\n    /* \"#utility.yul\":4535:4536   */\n  dup2\n    /* \"#utility.yul\":4532:4546   */\n  lt\n    /* \"#utility.yul\":4524:4732   */\n  iszero\n  tag_86\n  jumpi\n    /* \"#utility.yul\":4617:4626   */\n  dup5\n    /* \"#utility.yul\":4612:4615   */\n  dup10\n    /* \"#utility.yul\":4608:4627   */\n  add\n    /* \"#utility.yul\":4602:4628   */\n  mload\n    /* \"#utility.yul\":4594:4600   */\n  dup3\n    /* \"#utility.yul\":4587:4629   */\n  sstore\n    /* \"#utility.yul\":4668:4669   */\n  0x01\n    /* \"#utility.yul\":4660:4666   */\n  dup3\n    /* \"#utility.yul\":4656:4670   */\n  add\n    /* \"#utility.yul\":4646:4670   */\n  swap2\n  pop\n    /* \"#utility.yul\":4715:4717   */\n  0x20\n    /* \"#utility.yul\":4704:4713   */\n  dup6\n    /* \"#utility.yul\":4700:4718   */\n  add\n    /* \"#utility.yul\":4687:4718   */\n  swap5\n  pop\n    /* \"#utility.yul\":4561:4565   */\n  0x20\n    /* \"#utility.yul\":4558:4559   */\n  dup2\n    /* \"#utility.yul\":4554:4566   */\n  add\n    /* \"#utility.yul\":4549:4566   */\n  swap1\n  pop\n    /* \"#utility.yul\":4524:4732   */\n  jump(tag_84)\ntag_86:\n    /* \"#utility.yul\":4760:4766   */\n  dup7\n    /* \"#utility.yul\":4751:4758   */\n  dup4\n    /* \"#utility.yul\":4748:4767   */\n  lt\n    /* \"#utility.yul\":4745:4924   */\n  iszero\n  tag_87\n  jumpi\n    /* \"#utility.yul\":4818:4827   */\n  dup5\n    /* \"#utility.yul\":4813:4816   */\n  dup10\n    /* \"#utility.yul\":4809:4828   */\n  add\n    /* \"#utility.yul\":4803:4829   */\n  mload\n    /* \"#utility.yul\":4861:4909   */\n  tag_88\n    /* \"#utility.yul\":4903:4907   */\n  0x1f\n    /* \"#utility.yul\":4895:4901   */\n  dup10\n    /* \"#utility.yul\":4891:4908   */\n  and\n    /* \"#utility.yul\":4880:4889   */\n  dup3\n    /* \"#utility.yul\":4861:4909   */\n  tag_25\n  jump\t// in\ntag_88:\n    /* \"#utility.yul\":4853:4859   */\n  dup4\n    /* \"#utility.yul\":4846:4910   */\n  sstore\n    /* \"#utility.yul\":4768:4924   */\n  pop\n    /* \"#utility.yul\":4745:4924   */\ntag_87:\n    /* \"#utility.yul\":4970:4971   */\n  0x01\n    /* \"#utility.yul\":4966:4967   */\n  0x02\n    /* \"#utility.yul\":4958:4964   */\n  dup9\n    /* \"#utility.yul\":4954:4968   */\n  mul\n    /* \"#utility.yul\":4950:4972   */\n  add\n    /* \"#utility.yul\":4944:4948   */\n  dup9\n    /* \"#utility.yul\":4937:4973   */\n  sstore\n    /* \"#utility.yul\":4372:4983   */\n  pop\n  pop\n  pop\n    /* \"#utility.yul\":4335:5222   */\ntag_79:\n  pop\n    /* \"#utility.yul\":3925:5228   */\n  pop\n  pop\n  pop\n    /* \"#utility.yul\":3833:5228   */\n  pop\n  pop\n  jump\t// out\n    /* \"Solidity100/Solidity31-40.sol\":5227:6011  contract Question38{... */\ntag_6:\n  dataSize(sub_0)\n  dup1\n  dataOffset(sub_0)\n  0x00\n  codecopy\n  0x00\n  return\nstop\n\nsub_0: assembly {\n        /* \"Solidity100/Solidity31-40.sol\":5227:6011  contract Question38{... */\n      mstore(0x40, 0x80)\n      callvalue\n      dup1\n      iszero\n      tag_1\n      jumpi\n      0x00\n      dup1\n      revert\n    tag_1:\n      pop\n      jumpi(tag_2, lt(calldatasize, 0x04))\n      shr(0xe0, calldataload(0x00))\n      dup1\n      0x0dbe671f\n      eq\n      tag_3\n      jumpi\n      dup1\n      0x73af6082\n      eq\n      tag_4\n      jumpi\n      dup1\n      0xd1f4ba82\n      eq\n      tag_5\n      jumpi\n    tag_2:\n      0x00\n      dup1\n      revert\n        /* \"Solidity100/Solidity31-40.sol\":5706:5727  string public a = \"A\" */\n    tag_3:\n      tag_6\n      tag_7\n      jump\t// in\n    tag_6:\n      mload(0x40)\n      tag_8\n      swap2\n      swap1\n      tag_9\n      jump\t// in\n    tag_8:\n      mload(0x40)\n      dup1\n      swap2\n      sub\n      swap1\n      return\n        /* \"Solidity100/Solidity31-40.sol\":5953:6009  function setC() public onlyOwner{... */\n    tag_4:\n      tag_10\n      tag_11\n      jump\t// in\n    tag_10:\n      stop\n        /* \"Solidity100/Solidity31-40.sol\":5891:5947  function setB() public onlyOwner{... */\n    tag_5:\n      tag_12\n      tag_13\n      jump\t// in\n    tag_12:\n      stop\n        /* \"Solidity100/Solidity31-40.sol\":5706:5727  string public a = \"A\" */\n    tag_7:\n      0x00\n      dup1\n      sload\n      tag_14\n      swap1\n      tag_15\n      jump\t// in\n    tag_14:\n      dup1\n      0x1f\n      add\n      0x20\n      dup1\n      swap2\n      div\n      mul\n      0x20\n      add\n      mload(0x40)\n      swap1\n      dup2\n      add\n      0x40\n      mstore\n      dup1\n      swap3\n      swap2\n      swap1\n      dup2\n      dup2\n      mstore\n      0x20\n      add\n      dup3\n      dup1\n      sload\n      tag_16\n      swap1\n      tag_15\n      jump\t// in\n    tag_16:\n      dup1\n      iszero\n      tag_17\n      jumpi\n      dup1\n      0x1f\n      lt\n      tag_18\n      jumpi\n      0x0100\n      dup1\n      dup4\n      sload\n      div\n      mul\n      dup4\n      mstore\n      swap2\n      0x20\n      add\n      swap2\n      jump(tag_17)\n    tag_18:\n      dup3\n      add\n      swap2\n      swap1\n      0x00\n      mstore\n      keccak256(0x00, 0x20)\n      swap1\n    tag_19:\n      dup2\n      sload\n      dup2\n      mstore\n      swap1\n      0x01\n      add\n      swap1\n      0x20\n      add\n      dup1\n      dup4\n      gt\n      tag_19\n      jumpi\n      dup3\n      swap1\n      sub\n      0x1f\n      and\n      dup3\n      add\n      swap2\n    tag_17:\n      pop\n      pop\n      pop\n      pop\n      pop\n      dup2\n      jump\t// out\n        /* \"Solidity100/Solidity31-40.sol\":5953:6009  function setC() public onlyOwner{... */\n    tag_11:\n        /* \"Solidity100/Solidity31-40.sol\":5861:5866  owner */\n      0x01\n      0x00\n      swap1\n      sload\n      swap1\n      0x0100\n      exp\n      swap1\n      div\n      0xffffffffffffffffffffffffffffffffffffffff\n      and\n        /* \"Solidity100/Solidity31-40.sol\":5847:5866  msg.sender == owner */\n      0xffffffffffffffffffffffffffffffffffffffff\n      and\n        /* \"Solidity100/Solidity31-40.sol\":5847:5857  msg.sender */\n      caller\n        /* \"Solidity100/Solidity31-40.sol\":5847:5866  msg.sender == owner */\n      0xffffffffffffffffffffffffffffffffffffffff\n      and\n      eq\n        /* \"Solidity100/Solidity31-40.sol\":5839:5867  require(msg.sender == owner) */\n      tag_21\n      jumpi\n      0x00\n      dup1\n      revert\n    tag_21:\n        /* \"Solidity100/Solidity31-40.sol\":5995:6002  a = \"C\" */\n      mload(0x40)\n      dup1\n      0x40\n      add\n      0x40\n      mstore\n      dup1\n      0x01\n      dup2\n      mstore\n      0x20\n      add\n      0x4300000000000000000000000000000000000000000000000000000000000000\n      dup2\n      mstore\n      pop\n        /* \"Solidity100/Solidity31-40.sol\":5995:5996  a */\n      0x00\n        /* \"Solidity100/Solidity31-40.sol\":5995:6002  a = \"C\" */\n      swap1\n      dup2\n      tag_23\n      swap2\n      swap1\n      tag_24\n      jump\t// in\n    tag_23:\n      pop\n        /* \"Solidity100/Solidity31-40.sol\":5953:6009  function setC() public onlyOwner{... */\n      jump\t// out\n        /* \"Solidity100/Solidity31-40.sol\":5891:5947  function setB() public onlyOwner{... */\n    tag_13:\n        /* \"Solidity100/Solidity31-40.sol\":5861:5866  owner */\n      0x01\n      0x00\n      swap1\n      sload\n      swap1\n      0x0100\n      exp\n      swap1\n      div\n      0xffffffffffffffffffffffffffffffffffffffff\n      and\n        /* \"Solidity100/Solidity31-40.sol\":5847:5866  msg.sender == owner */\n      0xffffffffffffffffffffffffffffffffffffffff\n      and\n        /* \"Solidity100/Solidity31-40.sol\":5847:5857  msg.sender */\n      caller\n        /* \"Solidity100/Solidity31-40.sol\":5847:5866  msg.sender == owner */\n      0xffffffffffffffffffffffffffffffffffffffff\n      and\n      eq\n        /* \"Solidity100/Solidity31-40.sol\":5839:5867  require(msg.sender == owner) */\n      tag_26\n      jumpi\n      0x00\n      dup1\n      revert\n    tag_26:\n        /* \"Solidity100/Solidity31-40.sol\":5933:5940  a = \"B\" */\n      mload(0x40)\n      dup1\n      0x40\n      add\n      0x40\n      mstore\n      dup1\n      0x01\n      dup2\n      mstore\n      0x20\n      add\n      0x4200000000000000000000000000000000000000000000000000000000000000\n      dup2\n      mstore\n      pop\n        /* \"Solidity100/Solidity31-40.sol\":5933:5934  a */\n      0x00\n        /* \"Solidity100/Solidity31-40.sol\":5933:5940  a = \"B\" */\n      swap1\n      dup2\n      tag_28\n      swap2\n      swap1\n      tag_24\n      jump\t// in\n    tag_28:\n      pop\n        /* \"Solidity100/Solidity31-40.sol\":5891:5947  function setB() public onlyOwner{... */\n      jump\t// out\n        /* \"#utility.yul\":7:106   */\n    tag_29:\n        /* \"#utility.yul\":59:65   */\n      0x00\n        /* \"#utility.yul\":93:98   */\n      dup2\n        /* \"#utility.yul\":87:99   */\n      mload\n        /* \"#utility.yul\":77:99   */\n      swap1\n      pop\n        /* \"#utility.yul\":7:106   */\n      swap2\n      swap1\n      pop\n      jump\t// out\n        /* \"#utility.yul\":112:281   */\n    tag_30:\n        /* \"#utility.yul\":196:207   */\n      0x00\n        /* \"#utility.yul\":230:236   */\n      dup3\n        /* \"#utility.yul\":225:228   */\n      dup3\n        /* \"#utility.yul\":218:237   */\n      mstore\n        /* \"#utility.yul\":270:274   */\n      0x20\n        /* \"#utility.yul\":265:268   */\n      dup3\n        /* \"#utility.yul\":261:275   */\n      add\n        /* \"#utility.yul\":246:275   */\n      swap1\n      pop\n        /* \"#utility.yul\":112:281   */\n      swap3\n      swap2\n      pop\n      pop\n      jump\t// out\n        /* \"#utility.yul\":287:426   */\n    tag_31:\n        /* \"#utility.yul\":376:382   */\n      dup3\n        /* \"#utility.yul\":371:374   */\n      dup2\n        /* \"#utility.yul\":366:369   */\n      dup4\n        /* \"#utility.yul\":360:383   */\n      mcopy\n        /* \"#utility.yul\":417:418   */\n      0x00\n        /* \"#utility.yul\":408:414   */\n      dup4\n        /* \"#utility.yul\":403:406   */\n      dup4\n        /* \"#utility.yul\":399:415   */\n      add\n        /* \"#utility.yul\":392:419   */\n      mstore\n        /* \"#utility.yul\":287:426   */\n      pop\n      pop\n      pop\n      jump\t// out\n        /* \"#utility.yul\":432:534   */\n    tag_32:\n        /* \"#utility.yul\":473:479   */\n      0x00\n        /* \"#utility.yul\":524:526   */\n      0x1f\n        /* \"#utility.yul\":520:527   */\n      not\n        /* \"#utility.yul\":515:517   */\n      0x1f\n        /* \"#utility.yul\":508:513   */\n      dup4\n        /* \"#utility.yul\":504:518   */\n      add\n        /* \"#utility.yul\":500:528   */\n      and\n        /* \"#utility.yul\":490:528   */\n      swap1\n      pop\n        /* \"#utility.yul\":432:534   */\n      swap2\n      swap1\n      pop\n      jump\t// out\n        /* \"#utility.yul\":540:917   */\n    tag_33:\n        /* \"#utility.yul\":628:631   */\n      0x00\n        /* \"#utility.yul\":656:695   */\n      tag_58\n        /* \"#utility.yul\":689:694   */\n      dup3\n        /* \"#utility.yul\":656:695   */\n      tag_29\n      jump\t// in\n    tag_58:\n        /* \"#utility.yul\":711:782   */\n      tag_59\n        /* \"#utility.yul\":775:781   */\n      dup2\n        /* \"#utility.yul\":770:773   */\n      dup6\n        /* \"#utility.yul\":711:782   */\n      tag_30\n      jump\t// in\n    tag_59:\n        /* \"#utility.yul\":704:782   */\n      swap4\n      pop\n        /* \"#utility.yul\":791:856   */\n      tag_60\n        /* \"#utility.yul\":849:855   */\n      dup2\n        /* \"#utility.yul\":844:847   */\n      dup6\n        /* \"#utility.yul\":837:841   */\n      0x20\n        /* \"#utility.yul\":830:835   */\n      dup7\n        /* \"#utility.yul\":826:842   */\n      add\n        /* \"#utility.yul\":791:856   */\n      tag_31\n      jump\t// in\n    tag_60:\n        /* \"#utility.yul\":881:910   */\n      tag_61\n        /* \"#utility.yul\":903:909   */\n      dup2\n        /* \"#utility.yul\":881:910   */\n      tag_32\n      jump\t// in\n    tag_61:\n        /* \"#utility.yul\":876:879   */\n      dup5\n        /* \"#utility.yul\":872:911   */\n      add\n        /* \"#utility.yul\":865:911   */\n      swap2\n      pop\n        /* \"#utility.yul\":632:917   */\n      pop\n        /* \"#utility.yul\":540:917   */\n      swap3\n      swap2\n      pop\n      pop\n      jump\t// out\n        /* \"#utility.yul\":923:1236   */\n    tag_9:\n        /* \"#utility.yul\":1036:1040   */\n      0x00\n        /* \"#utility.yul\":1074:1076   */\n      0x20\n        /* \"#utility.yul\":1063:1072   */\n      dup3\n        /* \"#utility.yul\":1059:1077   */\n      add\n        /* \"#utility.yul\":1051:1077   */\n      swap1\n      pop\n        /* \"#utility.yul\":1123:1132   */\n      dup2\n        /* \"#utility.yul\":1117:1121   */\n      dup2\n        /* \"#utility.yul\":1113:1133   */\n      sub\n        /* \"#utility.yul\":1109:1110   */\n      0x00\n        /* \"#utility.yul\":1098:1107   */\n      dup4\n        /* \"#utility.yul\":1094:1111   */\n      add\n        /* \"#utility.yul\":1087:1134   */\n      mstore\n        /* \"#utility.yul\":1151:1229   */\n      tag_63\n        /* \"#utility.yul\":1224:1228   */\n      dup2\n        /* \"#utility.yul\":1215:1221   */\n      dup5\n        /* \"#utility.yul\":1151:1229   */\n      tag_33\n      jump\t// in\n    tag_63:\n        /* \"#utility.yul\":1143:1229   */\n      swap1\n      pop\n        /* \"#utility.yul\":923:1236   */\n      swap3\n      swap2\n      pop\n      pop\n      jump\t// out\n        /* \"#utility.yul\":1242:1422   */\n    tag_34:\n        /* \"#utility.yul\":1290:1367   */\n      0x4e487b7100000000000000000000000000000000000000000000000000000000\n        /* \"#utility.yul\":1287:1288   */\n      0x00\n        /* \"#utility.yul\":1280:1368   */\n      mstore\n        /* \"#utility.yul\":1387:1391   */\n      0x22\n        /* \"#utility.yul\":1384:1385   */\n      0x04\n        /* \"#utility.yul\":1377:1392   */\n      mstore\n        /* \"#utility.yul\":1411:1415   */\n      0x24\n        /* \"#utility.yul\":1408:1409   */\n      0x00\n        /* \"#utility.yul\":1401:1416   */\n      revert\n        /* \"#utility.yul\":1428:1748   */\n    tag_15:\n        /* \"#utility.yul\":1472:1478   */\n      0x00\n        /* \"#utility.yul\":1509:1510   */\n      0x02\n        /* \"#utility.yul\":1503:1507   */\n      dup3\n        /* \"#utility.yul\":1499:1511   */\n      div\n        /* \"#utility.yul\":1489:1511   */\n      swap1\n      pop\n        /* \"#utility.yul\":1556:1557   */\n      0x01\n        /* \"#utility.yul\":1550:1554   */\n      dup3\n        /* \"#utility.yul\":1546:1558   */\n      and\n        /* \"#utility.yul\":1577:1595   */\n      dup1\n        /* \"#utility.yul\":1567:1648   */\n      tag_66\n      jumpi\n        /* \"#utility.yul\":1633:1637   */\n      0x7f\n        /* \"#utility.yul\":1625:1631   */\n      dup3\n        /* \"#utility.yul\":1621:1638   */\n      and\n        /* \"#utility.yul\":1611:1638   */\n      swap2\n      pop\n        /* \"#utility.yul\":1567:1648   */\n    tag_66:\n        /* \"#utility.yul\":1695:1697   */\n      0x20\n        /* \"#utility.yul\":1687:1693   */\n      dup3\n        /* \"#utility.yul\":1684:1698   */\n      lt\n        /* \"#utility.yul\":1664:1682   */\n      dup2\n        /* \"#utility.yul\":1661:1699   */\n      sub\n        /* \"#utility.yul\":1658:1742   */\n      tag_67\n      jumpi\n        /* \"#utility.yul\":1714:1732   */\n      tag_68\n      tag_34\n      jump\t// in\n    tag_68:\n        /* \"#utility.yul\":1658:1742   */\n    tag_67:\n        /* \"#utility.yul\":1479:1748   */\n      pop\n        /* \"#utility.yul\":1428:1748   */\n      swap2\n      swap1\n      pop\n      jump\t// out\n        /* \"#utility.yul\":1754:1934   */\n    tag_35:\n        /* \"#utility.yul\":1802:1879   */\n      0x4e487b7100000000000000000000000000000000000000000000000000000000\n        /* \"#utility.yul\":1799:1800   */\n      0x00\n        /* \"#utility.yul\":1792:1880   */\n      mstore\n        /* \"#utility.yul\":1899:1903   */\n      0x41\n        /* \"#utility.yul\":1896:1897   */\n      0x04\n        /* \"#utility.yul\":1889:1904   */\n      mstore\n        /* \"#utility.yul\":1923:1927   */\n      0x24\n        /* \"#utility.yul\":1920:1921   */\n      0x00\n        /* \"#utility.yul\":1913:1928   */\n      revert\n        /* \"#utility.yul\":1940:2081   */\n    tag_36:\n        /* \"#utility.yul\":1989:1993   */\n      0x00\n        /* \"#utility.yul\":2012:2015   */\n      dup2\n        /* \"#utility.yul\":2004:2015   */\n      swap1\n      pop\n        /* \"#utility.yul\":2035:2038   */\n      dup2\n        /* \"#utility.yul\":2032:2033   */\n      0x00\n        /* \"#utility.yul\":2025:2039   */\n      mstore\n        /* \"#utility.yul\":2069:2073   */\n      0x20\n        /* \"#utility.yul\":2066:2067   */\n      0x00\n        /* \"#utility.yul\":2056:2074   */\n      keccak256\n        /* \"#utility.yul\":2048:2074   */\n      swap1\n      pop\n        /* \"#utility.yul\":1940:2081   */\n      swap2\n      swap1\n      pop\n      jump\t// out\n        /* \"#utility.yul\":2087:2180   */\n    tag_37:\n        /* \"#utility.yul\":2124:2130   */\n      0x00\n        /* \"#utility.yul\":2171:2173   */\n      0x20\n        /* \"#utility.yul\":2166:2168   */\n      0x1f\n        /* \"#utility.yul\":2159:2164   */\n      dup4\n        /* \"#utility.yul\":2155:2169   */\n      add\n        /* \"#utility.yul\":2151:2174   */\n      div\n        /* \"#utility.yul\":2141:2174   */\n      swap1\n      pop\n        /* \"#utility.yul\":2087:2180   */\n      swap2\n      swap1\n      pop\n      jump\t// out\n        /* \"#utility.yul\":2186:2293   */\n    tag_38:\n        /* \"#utility.yul\":2230:2238   */\n      0x00\n        /* \"#utility.yul\":2280:2285   */\n      dup3\n        /* \"#utility.yul\":2274:2278   */\n      dup3\n        /* \"#utility.yul\":2270:2286   */\n      shl\n        /* \"#utility.yul\":2249:2286   */\n      swap1\n      pop\n        /* \"#utility.yul\":2186:2293   */\n      swap3\n      swap2\n      pop\n      pop\n      jump\t// out\n        /* \"#utility.yul\":2299:2692   */\n    tag_39:\n        /* \"#utility.yul\":2368:2374   */\n      0x00\n        /* \"#utility.yul\":2418:2419   */\n      0x08\n        /* \"#utility.yul\":2406:2416   */\n      dup4\n        /* \"#utility.yul\":2402:2420   */\n      mul\n        /* \"#utility.yul\":2441:2538   */\n      tag_74\n        /* \"#utility.yul\":2471:2537   */\n      0xffffffffffffffffffffffffffffffffffffffffffffffffffffffffffffffff\n        /* \"#utility.yul\":2460:2469   */\n      dup3\n        /* \"#utility.yul\":2441:2538   */\n      tag_38\n      jump\t// in\n    tag_74:\n        /* \"#utility.yul\":2559:2598   */\n      tag_75\n        /* \"#utility.yul\":2589:2597   */\n      dup7\n        /* \"#utility.yul\":2578:2587   */\n      dup4\n        /* \"#utility.yul\":2559:2598   */\n      tag_38\n      jump\t// in\n    tag_75:\n        /* \"#utility.yul\":2547:2598   */\n      swap6\n      pop\n        /* \"#utility.yul\":2631:2635   */\n      dup1\n        /* \"#utility.yul\":2627:2636   */\n      not\n        /* \"#utility.yul\":2620:2625   */\n      dup5\n        /* \"#utility.yul\":2616:2637   */\n      and\n        /* \"#utility.yul\":2607:2637   */\n      swap4\n      pop\n        /* \"#utility.yul\":2680:2684   */\n      dup1\n        /* \"#utility.yul\":2670:2678   */\n      dup7\n        /* \"#utility.yul\":2666:2685   */\n      and\n        /* \"#utility.yul\":2659:2664   */\n      dup5\n        /* \"#utility.yul\":2656:2686   */\n      or\n        /* \"#utility.yul\":2646:2686   */\n      swap3\n      pop\n        /* \"#utility.yul\":2375:2692   */\n      pop\n      pop\n        /* \"#utility.yul\":2299:2692   */\n      swap4\n      swap3\n      pop\n      pop\n      pop\n      jump\t// out\n        /* \"#utility.yul\":2698:2775   */\n    tag_40:\n        /* \"#utility.yul\":2735:2742   */\n      0x00\n        /* \"#utility.yul\":2764:2769   */\n      dup2\n        /* \"#utility.yul\":2753:2769   */\n      swap1\n      pop\n        /* \"#utility.yul\":2698:2775   */\n      swap2\n      swap1\n      pop\n      jump\t// out\n        /* \"#utility.yul\":2781:2841   */\n    tag_41:\n        /* \"#utility.yul\":2809:2812   */\n      0x00\n        /* \"#utility.yul\":2830:2835   */\n      dup2\n        /* \"#utility.yul\":2823:2835   */\n      swap1\n      pop\n        /* \"#utility.yul\":2781:2841   */\n      swap2\n      swap1\n      pop\n      jump\t// out\n        /* \"#utility.yul\":2847:2989   */\n    tag_42:\n        /* \"#utility.yul\":2897:2906   */\n      0x00\n        /* \"#utility.yul\":2930:2983   */\n      tag_79\n        /* \"#utility.yul\":2948:2982   */\n      tag_80\n        /* \"#utility.yul\":2957:2981   */\n      tag_81\n        /* \"#utility.yul\":2975:2980   */\n      dup5\n        /* \"#utility.yul\":2957:2981   */\n      tag_40\n      jump\t// in\n    tag_81:\n        /* \"#utility.yul\":2948:2982   */\n      tag_41\n      jump\t// in\n    tag_80:\n        /* \"#utility.yul\":2930:2983   */\n      tag_40\n      jump\t// in\n    tag_79:\n        /* \"#utility.yul\":2917:2983   */\n      swap1\n      pop\n        /* \"#utility.yul\":2847:2989   */\n      swap2\n      swap1\n      pop\n      jump\t// out\n        /* \"#utility.yul\":2995:3070   */\n    tag_43:\n        /* \"#utility.yul\":3038:3041   */\n      0x00\n        /* \"#utility.yul\":3059:3064   */\n      dup2\n        /* \"#utility.yul\":3052:3064   */\n      swap1\n      pop\n        /* \"#utility.yul\":2995:3070   */\n      swap2\n      swap1\n      pop\n      jump\t// out\n        /* \"#utility.yul\":3076:3345   */\n    tag_44:\n        /* \"#utility.yul\":3186:3225   */\n      tag_84\n        /* \"#utility.yul\":3217:3224   */\n      dup4\n        /* \"#utility.yul\":3186:3225   */\n      tag_42\n      jump\t// in\n    tag_84:\n        /* \"#utility.yul\":3247:3338   */\n      tag_85\n        /* \"#utility.yul\":3296:3337   */\n      tag_86\n        /* \"#utility.yul\":3320:3336   */\n      dup3\n        /* \"#utility.yul\":3296:3337   */\n      tag_43\n      jump\t// in\n    tag_86:\n        /* \"#utility.yul\":3288:3294   */\n      dup5\n        /* \"#utility.yul\":3281:3285   */\n      dup5\n        /* \"#utility.yul\":3275:3286   */\n      sload\n        /* \"#utility.yul\":3247:3338   */\n      tag_39\n      jump\t// in\n    tag_85:\n        /* \"#utility.yul\":3241:3245   */\n      dup3\n        /* \"#utility.yul\":3234:3339   */\n      sstore\n        /* \"#utility.yul\":3152:3345   */\n      pop\n        /* \"#utility.yul\":3076:3345   */\n      pop\n      pop\n      pop\n      jump\t// out\n        /* \"#utility.yul\":3351:3424   */\n    tag_45:\n        /* \"#utility.yul\":3396:3399   */\n      0x00\n        /* \"#utility.yul\":3351:3424   */\n      swap1\n      jump\t// out\n        /* \"#utility.yul\":3430:3619   */\n    tag_46:\n        /* \"#utility.yul\":3507:3539   */\n      tag_89\n      tag_45\n      jump\t// in\n    tag_89:\n        /* \"#utility.yul\":3548:3613   */\n      tag_90\n        /* \"#utility.yul\":3606:3612   */\n      dup2\n        /* \"#utility.yul\":3598:3604   */\n      dup5\n        /* \"#utility.yul\":3592:3596   */\n      dup5\n        /* \"#utility.yul\":3548:3613   */\n      tag_44\n      jump\t// in\n    tag_90:\n        /* \"#utility.yul\":3483:3619   */\n      pop\n        /* \"#utility.yul\":3430:3619   */\n      pop\n      pop\n      jump\t// out\n        /* \"#utility.yul\":3625:3811   */\n    tag_47:\n        /* \"#utility.yul\":3685:3805   */\n    tag_92:\n        /* \"#utility.yul\":3702:3705   */\n      dup2\n        /* \"#utility.yul\":3695:3700   */\n      dup2\n        /* \"#utility.yul\":3692:3706   */\n      lt\n        /* \"#utility.yul\":3685:3805   */\n      iszero\n      tag_94\n      jumpi\n        /* \"#utility.yul\":3756:3795   */\n      tag_95\n        /* \"#utility.yul\":3793:3794   */\n      0x00\n        /* \"#utility.yul\":3786:3791   */\n      dup3\n        /* \"#utility.yul\":3756:3795   */\n      tag_46\n      jump\t// in\n    tag_95:\n        /* \"#utility.yul\":3729:3730   */\n      0x01\n        /* \"#utility.yul\":3722:3727   */\n      dup2\n        /* \"#utility.yul\":3718:3731   */\n      add\n        /* \"#utility.yul\":3709:3731   */\n      swap1\n      pop\n        /* \"#utility.yul\":3685:3805   */\n      jump(tag_92)\n    tag_94:\n        /* \"#utility.yul\":3625:3811   */\n      pop\n      pop\n      jump\t// out\n        /* \"#utility.yul\":3817:4360   */\n    tag_48:\n        /* \"#utility.yul\":3918:3920   */\n      0x1f\n        /* \"#utility.yul\":3913:3916   */\n      dup3\n        /* \"#utility.yul\":3910:3921   */\n      gt\n        /* \"#utility.yul\":3907:4353   */\n      iszero\n      tag_97\n      jumpi\n        /* \"#utility.yul\":3952:3990   */\n      tag_98\n        /* \"#utility.yul\":3984:3989   */\n      dup2\n        /* \"#utility.yul\":3952:3990   */\n      tag_36\n      jump\t// in\n    tag_98:\n        /* \"#utility.yul\":4036:4065   */\n      tag_99\n        /* \"#utility.yul\":4054:4064   */\n      dup5\n        /* \"#utility.yul\":4036:4065   */\n      tag_37\n      jump\t// in\n    tag_99:\n        /* \"#utility.yul\":4026:4034   */\n      dup2\n        /* \"#utility.yul\":4022:4066   */\n      add\n        /* \"#utility.yul\":4219:4221   */\n      0x20\n        /* \"#utility.yul\":4207:4217   */\n      dup6\n        /* \"#utility.yul\":4204:4222   */\n      lt\n        /* \"#utility.yul\":4201:4250   */\n      iszero\n      tag_100\n      jumpi\n        /* \"#utility.yul\":4240:4248   */\n      dup2\n        /* \"#utility.yul\":4225:4248   */\n      swap1\n      pop\n        /* \"#utility.yul\":4201:4250   */\n    tag_100:\n        /* \"#utility.yul\":4263:4343   */\n      tag_101\n        /* \"#utility.yul\":4319:4341   */\n      tag_102\n        /* \"#utility.yul\":4337:4340   */\n      dup6\n        /* \"#utility.yul\":4319:4341   */\n      tag_37\n      jump\t// in\n    tag_102:\n        /* \"#utility.yul\":4309:4317   */\n      dup4\n        /* \"#utility.yul\":4305:4342   */\n      add\n        /* \"#utility.yul\":4292:4303   */\n      dup3\n        /* \"#utility.yul\":4263:4343   */\n      tag_47\n      jump\t// in\n    tag_101:\n        /* \"#utility.yul\":3922:4353   */\n      pop\n      pop\n        /* \"#utility.yul\":3907:4353   */\n    tag_97:\n        /* \"#utility.yul\":3817:4360   */\n      pop\n      pop\n      pop\n      jump\t// out\n        /* \"#utility.yul\":4366:4483   */\n    tag_49:\n        /* \"#utility.yul\":4420:4428   */\n      0x00\n        /* \"#utility.yul\":4470:4475   */\n      dup3\n        /* \"#utility.yul\":4464:4468   */\n      dup3\n        /* \"#utility.yul\":4460:4476   */\n      shr\n        /* \"#utility.yul\":4439:4476   */\n      swap1\n      pop\n        /* \"#utility.yul\":4366:4483   */\n      swap3\n      swap2\n      pop\n      pop\n      jump\t// out\n        /* \"#utility.yul\":4489:4658   */\n    tag_50:\n        /* \"#utility.yul\":4533:4539   */\n      0x00\n        /* \"#utility.yul\":4566:4617   */\n      tag_105\n        /* \"#utility.yul\":4614:4615   */\n      0x00\n        /* \"#utility.yul\":4610:4616   */\n      not\n        /* \"#utility.yul\":4602:4607   */\n      dup5\n        /* \"#utility.yul\":4599:4600   */\n      0x08\n        /* \"#utility.yul\":4595:4608   */\n      mul\n        /* \"#utility.yul\":4566:4617   */\n      tag_49\n      jump\t// in\n    tag_105:\n        /* \"#utility.yul\":4562:4618   */\n      not\n        /* \"#utility.yul\":4647:4651   */\n      dup1\n        /* \"#utility.yul\":4641:4645   */\n      dup4\n        /* \"#utility.yul\":4637:4652   */\n      and\n        /* \"#utility.yul\":4627:4652   */\n      swap2\n      pop\n        /* \"#utility.yul\":4540:4658   */\n      pop\n        /* \"#utility.yul\":4489:4658   */\n      swap3\n      swap2\n      pop\n      pop\n      jump\t// out\n        /* \"#utility.yul\":4663:4958   */\n    tag_51:\n        /* \"#utility.yul\":4739:4743   */\n      0x00\n        /* \"#utility.yul\":4885:4914   */\n      tag_107\n        /* \"#utility.yul\":4910:4913   */\n      dup4\n        /* \"#utility.yul\":4904:4908   */\n      dup4\n        /* \"#utility.yul\":4885:4914   */\n      tag_50\n      jump\t// in\n    tag_107:\n        /* \"#utility.yul\":4877:4914   */\n      swap2\n      pop\n        /* \"#utility.yul\":4947:4950   */\n      dup3\n        /* \"#utility.yul\":4944:4945   */\n      0x02\n        /* \"#utility.yul\":4940:4951   */\n      mul\n        /* \"#utility.yul\":4934:4938   */\n      dup3\n        /* \"#utility.yul\":4931:4952   */\n      or\n        /* \"#utility.yul\":4923:4952   */\n      swap1\n      pop\n        /* \"#utility.yul\":4663:4958   */\n      swap3\n      swap2\n      pop\n      pop\n      jump\t// out\n        /* \"#utility.yul\":4963:6358   */\n    tag_24:\n        /* \"#utility.yul\":5080:5117   */\n      tag_109\n        /* \"#utility.yul\":5113:5116   */\n      dup3\n        /* \"#utility.yul\":5080:5117   */\n      tag_29\n      jump\t// in\n    tag_109:\n        /* \"#utility.yul\":5182:5200   */\n      0xffffffffffffffff\n        /* \"#utility.yul\":5174:5180   */\n      dup2\n        /* \"#utility.yul\":5171:5201   */\n      gt\n        /* \"#utility.yul\":5168:5224   */\n      iszero\n      tag_110\n      jumpi\n        /* \"#utility.yul\":5204:5222   */\n      tag_111\n      tag_35\n      jump\t// in\n    tag_111:\n        /* \"#utility.yul\":5168:5224   */\n    tag_110:\n        /* \"#utility.yul\":5248:5286   */\n      tag_112\n        /* \"#utility.yul\":5280:5284   */\n      dup3\n        /* \"#utility.yul\":5274:5285   */\n      sload\n        /* \"#utility.yul\":5248:5286   */\n      tag_15\n      jump\t// in\n    tag_112:\n        /* \"#utility.yul\":5333:5400   */\n      tag_113\n        /* \"#utility.yul\":5393:5399   */\n      dup3\n        /* \"#utility.yul\":5385:5391   */\n      dup3\n        /* \"#utility.yul\":5379:5383   */\n      dup6\n        /* \"#utility.yul\":5333:5400   */\n      tag_48\n      jump\t// in\n    tag_113:\n        /* \"#utility.yul\":5427:5428   */\n      0x00\n        /* \"#utility.yul\":5451:5455   */\n      0x20\n        /* \"#utility.yul\":5438:5455   */\n      swap1\n      pop\n        /* \"#utility.yul\":5483:5485   */\n      0x1f\n        /* \"#utility.yul\":5475:5481   */\n      dup4\n        /* \"#utility.yul\":5472:5486   */\n      gt\n        /* \"#utility.yul\":5500:5501   */\n      0x01\n        /* \"#utility.yul\":5495:6113   */\n      dup2\n      eq\n      tag_115\n      jumpi\n        /* \"#utility.yul\":6157:6158   */\n      0x00\n        /* \"#utility.yul\":6174:6180   */\n      dup5\n        /* \"#utility.yul\":6171:6248   */\n      iszero\n      tag_116\n      jumpi\n        /* \"#utility.yul\":6223:6232   */\n      dup3\n        /* \"#utility.yul\":6218:6221   */\n      dup8\n        /* \"#utility.yul\":6214:6233   */\n      add\n        /* \"#utility.yul\":6208:6234   */\n      mload\n        /* \"#utility.yul\":6199:6234   */\n      swap1\n      pop\n        /* \"#utility.yul\":6171:6248   */\n    tag_116:\n        /* \"#utility.yul\":6274:6341   */\n      tag_117\n        /* \"#utility.yul\":6334:6340   */\n      dup6\n        /* \"#utility.yul\":6327:6332   */\n      dup3\n        /* \"#utility.yul\":6274:6341   */\n      tag_51\n      jump\t// in\n    tag_117:\n        /* \"#utility.yul\":6268:6272   */\n      dup7\n        /* \"#utility.yul\":6261:6342   */\n      sstore\n        /* \"#utility.yul\":6130:6352   */\n      pop\n        /* \"#utility.yul\":5465:6352   */\n      jump(tag_114)\n        /* \"#utility.yul\":5495:6113   */\n    tag_115:\n        /* \"#utility.yul\":5547:5551   */\n      0x1f\n        /* \"#utility.yul\":5543:5552   */\n      not\n        /* \"#utility.yul\":5535:5541   */\n      dup5\n        /* \"#utility.yul\":5531:5553   */\n      and\n        /* \"#utility.yul\":5581:5618   */\n      tag_118\n        /* \"#utility.yul\":5613:5617   */\n      dup7\n        /* \"#utility.yul\":5581:5618   */\n      tag_36\n      jump\t// in\n    tag_118:\n        /* \"#utility.yul\":5640:5641   */\n      0x00\n        /* \"#utility.yul\":5654:5862   */\n    tag_119:\n        /* \"#utility.yul\":5668:5675   */\n      dup3\n        /* \"#utility.yul\":5665:5666   */\n      dup2\n        /* \"#utility.yul\":5662:5676   */\n      lt\n        /* \"#utility.yul\":5654:5862   */\n      iszero\n      tag_121\n      jumpi\n        /* \"#utility.yul\":5747:5756   */\n      dup5\n        /* \"#utility.yul\":5742:5745   */\n      dup10\n        /* \"#utility.yul\":5738:5757   */\n      add\n        /* \"#utility.yul\":5732:5758   */\n      mload\n        /* \"#utility.yul\":5724:5730   */\n      dup3\n        /* \"#utility.yul\":5717:5759   */\n      sstore\n        /* \"#utility.yul\":5798:5799   */\n      0x01\n        /* \"#utility.yul\":5790:5796   */\n      dup3\n        /* \"#utility.yul\":5786:5800   */\n      add\n        /* \"#utility.yul\":5776:5800   */\n      swap2\n      pop\n        /* \"#utility.yul\":5845:5847   */\n      0x20\n        /* \"#utility.yul\":5834:5843   */\n      dup6\n        /* \"#utility.yul\":5830:5848   */\n      add\n        /* \"#utility.yul\":5817:5848   */\n      swap5\n      pop\n        /* \"#utility.yul\":5691:5695   */\n      0x20\n        /* \"#utility.yul\":5688:5689   */\n      dup2\n        /* \"#utility.yul\":5684:5696   */\n      add\n        /* \"#utility.yul\":5679:5696   */\n      swap1\n      pop\n        /* \"#utility.yul\":5654:5862   */\n      jump(tag_119)\n    tag_121:\n        /* \"#utility.yul\":5890:5896   */\n      dup7\n        /* \"#utility.yul\":5881:5888   */\n      dup4\n        /* \"#utility.yul\":5878:5897   */\n      lt\n        /* \"#utility.yul\":5875:6054   */\n      iszero\n      tag_122\n      jumpi\n        /* \"#utility.yul\":5948:5957   */\n      dup5\n        /* \"#utility.yul\":5943:5946   */\n      dup10\n        /* \"#utility.yul\":5939:5958   */\n      add\n        /* \"#utility.yul\":5933:5959   */\n      mload\n        /* \"#utility.yul\":5991:6039   */\n      tag_123\n        /* \"#utility.yul\":6033:6037   */\n      0x1f\n        /* \"#utility.yul\":6025:6031   */\n      dup10\n        /* \"#utility.yul\":6021:6038   */\n      and\n        /* \"#utility.yul\":6010:6019   */\n      dup3\n        /* \"#utility.yul\":5991:6039   */\n      tag_50\n      jump\t// in\n    tag_123:\n        /* \"#utility.yul\":5983:5989   */\n      dup4\n        /* \"#utility.yul\":5976:6040   */\n      sstore\n        /* \"#utility.yul\":5898:6054   */\n      pop\n        /* \"#utility.yul\":5875:6054   */\n    tag_122:\n        /* \"#utility.yul\":6100:6101   */\n      0x01\n        /* \"#utility.yul\":6096:6097   */\n      0x02\n        /* \"#utility.yul\":6088:6094   */\n      dup9\n        /* \"#utility.yul\":6084:6098   */\n      mul\n        /* \"#utility.yul\":6080:6102   */\n      add\n        /* \"#utility.yul\":6074:6078   */\n      dup9\n        /* \"#utility.yul\":6067:6103   */\n      sstore\n        /* \"#utility.yul\":5502:6113   */\n      pop\n      pop\n      pop\n        /* \"#utility.yul\":5465:6352   */\n    tag_114:\n      pop\n        /* \"#utility.yul\":5055:6358   */\n      pop\n      pop\n      pop\n        /* \"#utility.yul\":4963:6358   */\n      pop\n      pop\n      jump\t// out\n\n    auxdata: 0xa264697066735822122025d922555b683eb0ed8d55e0df9685b496a3c7481994ee362881b09c74bc00ee64736f6c634300081a0033\n}\n",
				"bytecode": {
					"linkReferences": {},
					"object": "60806040526040518060400160405280600181526020017f41000000000000000000000000000000000000000000000000000000000000008152505f908161004791906102d3565b50348015610053575f80fd5b503360015f6101000a81548173ffffffffffffffffffffffffffffffffffffffff021916908373ffffffffffffffffffffffffffffffffffffffff1602179055506103a2565b5f81519050919050565b7f4e487b71000000000000000000000000000000000000000000000000000000005f52604160045260245ffd5b7f4e487b71000000000000000000000000000000000000000000000000000000005f52602260045260245ffd5b5f600282049050600182168061011457607f821691505b602082108103610127576101266100d0565b5b50919050565b5f819050815f5260205f209050919050565b5f6020601f8301049050919050565b5f82821b905092915050565b5f600883026101897fffffffffffffffffffffffffffffffffffffffffffffffffffffffffffffffff8261014e565b610193868361014e565b95508019841693508086168417925050509392505050565b5f819050919050565b5f819050919050565b5f6101d76101d26101cd846101ab565b6101b4565b6101ab565b9050919050565b5f819050919050565b6101f0836101bd565b6102046101fc826101de565b84845461015a565b825550505050565b5f90565b61021861020c565b6102238184846101e7565b505050565b5b818110156102465761023b5f82610210565b600181019050610229565b5050565b601f82111561028b5761025c8161012d565b6102658461013f565b81016020851015610274578190505b6102886102808561013f565b830182610228565b50505b505050565b5f82821c905092915050565b5f6102ab5f1984600802610290565b1980831691505092915050565b5f6102c3838361029c565b9150826002028217905092915050565b6102dc82610099565b67ffffffffffffffff8111156102f5576102f46100a3565b5b6102ff82546100fd565b61030a82828561024a565b5f60209050601f83116001811461033b575f8415610329578287015190505b61033385826102b8565b86555061039a565b601f1984166103498661012d565b5f5b828110156103705784890151825560018201915060208501945060208101905061034b565b8683101561038d5784890151610389601f89168261029c565b8355505b6001600288020188555050505b505050505050565b610601806103af5f395ff3fe608060405234801561000f575f80fd5b506004361061003f575f3560e01c80630dbe671f1461004357806373af608214610061578063d1f4ba821461006b575b5f80fd5b61004b610075565b60405161005891906102ac565b60405180910390f35b610069610100565b005b61007361019e565b005b5f8054610081906102f9565b80601f01602080910402602001604051908101604052809291908181526020018280546100ad906102f9565b80156100f85780601f106100cf576101008083540402835291602001916100f8565b820191905f5260205f20905b8154815290600101906020018083116100db57829003601f168201915b505050505081565b60015f9054906101000a900473ffffffffffffffffffffffffffffffffffffffff1673ffffffffffffffffffffffffffffffffffffffff163373ffffffffffffffffffffffffffffffffffffffff1614610158575f80fd5b6040518060400160405280600181526020017f43000000000000000000000000000000000000000000000000000000000000008152505f908161019b91906104fc565b50565b60015f9054906101000a900473ffffffffffffffffffffffffffffffffffffffff1673ffffffffffffffffffffffffffffffffffffffff163373ffffffffffffffffffffffffffffffffffffffff16146101f6575f80fd5b6040518060400160405280600181526020017f42000000000000000000000000000000000000000000000000000000000000008152505f908161023991906104fc565b50565b5f81519050919050565b5f82825260208201905092915050565b8281835e5f83830152505050565b5f601f19601f8301169050919050565b5f61027e8261023c565b6102888185610246565b9350610298818560208601610256565b6102a181610264565b840191505092915050565b5f6020820190508181035f8301526102c48184610274565b905092915050565b7f4e487b71000000000000000000000000000000000000000000000000000000005f52602260045260245ffd5b5f600282049050600182168061031057607f821691505b602082108103610323576103226102cc565b5b50919050565b7f4e487b71000000000000000000000000000000000000000000000000000000005f52604160045260245ffd5b5f819050815f5260205f209050919050565b5f6020601f8301049050919050565b5f82821b905092915050565b5f600883026103b27fffffffffffffffffffffffffffffffffffffffffffffffffffffffffffffffff82610377565b6103bc8683610377565b95508019841693508086168417925050509392505050565b5f819050919050565b5f819050919050565b5f6104006103fb6103f6846103d4565b6103dd565b6103d4565b9050919050565b5f819050919050565b610419836103e6565b61042d61042582610407565b848454610383565b825550505050565b5f90565b610441610435565b61044c818484610410565b505050565b5b8181101561046f576104645f82610439565b600181019050610452565b5050565b601f8211156104b45761048581610356565b61048e84610368565b8101602085101561049d578190505b6104b16104a985610368565b830182610451565b50505b505050565b5f82821c905092915050565b5f6104d45f19846008026104b9565b1980831691505092915050565b5f6104ec83836104c5565b9150826002028217905092915050565b6105058261023c565b67ffffffffffffffff81111561051e5761051d610329565b5b61052882546102f9565b610533828285610473565b5f60209050601f831160018114610564575f8415610552578287015190505b61055c85826104e1565b8655506105c3565b601f19841661057286610356565b5f5b8281101561059957848901518255600182019150602085019450602081019050610574565b868310156105b657848901516105b2601f8916826104c5565b8355505b6001600288020188555050505b50505050505056fea264697066735822122025d922555b683eb0ed8d55e0df9685b496a3c7481994ee362881b09c74bc00ee64736f6c634300081a0033",
					"opcodes": "PUSH1 0x80 PUSH1 0x40 MSTORE PUSH1 0x40 MLOAD DUP1 PUSH1 0x40 ADD PUSH1 0x40 MSTORE DUP1 PUSH1 0x1 DUP2 MSTORE PUSH1 0x20 ADD PUSH32 0x4100000000000000000000000000000000000000000000000000000000000000 DUP2 MSTORE POP PUSH0 SWAP1 DUP2 PUSH2 0x47 SWAP2 SWAP1 PUSH2 0x2D3 JUMP JUMPDEST POP CALLVALUE DUP1 ISZERO PUSH2 0x53 JUMPI PUSH0 DUP1 REVERT JUMPDEST POP CALLER PUSH1 0x1 PUSH0 PUSH2 0x100 EXP DUP2 SLOAD DUP2 PUSH20 0xFFFFFFFFFFFFFFFFFFFFFFFFFFFFFFFFFFFFFFFF MUL NOT AND SWAP1 DUP4 PUSH20 0xFFFFFFFFFFFFFFFFFFFFFFFFFFFFFFFFFFFFFFFF AND MUL OR SWAP1 SSTORE POP PUSH2 0x3A2 JUMP JUMPDEST PUSH0 DUP2 MLOAD SWAP1 POP SWAP2 SWAP1 POP JUMP JUMPDEST PUSH32 0x4E487B7100000000000000000000000000000000000000000000000000000000 PUSH0 MSTORE PUSH1 0x41 PUSH1 0x4 MSTORE PUSH1 0x24 PUSH0 REVERT JUMPDEST PUSH32 0x4E487B7100000000000000000000000000000000000000000000000000000000 PUSH0 MSTORE PUSH1 0x22 PUSH1 0x4 MSTORE PUSH1 0x24 PUSH0 REVERT JUMPDEST PUSH0 PUSH1 0x2 DUP3 DIV SWAP1 POP PUSH1 0x1 DUP3 AND DUP1 PUSH2 0x114 JUMPI PUSH1 0x7F DUP3 AND SWAP2 POP JUMPDEST PUSH1 0x20 DUP3 LT DUP2 SUB PUSH2 0x127 JUMPI PUSH2 0x126 PUSH2 0xD0 JUMP JUMPDEST JUMPDEST POP SWAP2 SWAP1 POP JUMP JUMPDEST PUSH0 DUP2 SWAP1 POP DUP2 PUSH0 MSTORE PUSH1 0x20 PUSH0 KECCAK256 SWAP1 POP SWAP2 SWAP1 POP JUMP JUMPDEST PUSH0 PUSH1 0x20 PUSH1 0x1F DUP4 ADD DIV SWAP1 POP SWAP2 SWAP1 POP JUMP JUMPDEST PUSH0 DUP3 DUP3 SHL SWAP1 POP SWAP3 SWAP2 POP POP JUMP JUMPDEST PUSH0 PUSH1 0x8 DUP4 MUL PUSH2 0x189 PUSH32 0xFFFFFFFFFFFFFFFFFFFFFFFFFFFFFFFFFFFFFFFFFFFFFFFFFFFFFFFFFFFFFFFF DUP3 PUSH2 0x14E JUMP JUMPDEST PUSH2 0x193 DUP7 DUP4 PUSH2 0x14E JUMP JUMPDEST SWAP6 POP DUP1 NOT DUP5 AND SWAP4 POP DUP1 DUP7 AND DUP5 OR SWAP3 POP POP POP SWAP4 SWAP3 POP POP POP JUMP JUMPDEST PUSH0 DUP2 SWAP1 POP SWAP2 SWAP1 POP JUMP JUMPDEST PUSH0 DUP2 SWAP1 POP SWAP2 SWAP1 POP JUMP JUMPDEST PUSH0 PUSH2 0x1D7 PUSH2 0x1D2 PUSH2 0x1CD DUP5 PUSH2 0x1AB JUMP JUMPDEST PUSH2 0x1B4 JUMP JUMPDEST PUSH2 0x1AB JUMP JUMPDEST SWAP1 POP SWAP2 SWAP1 POP JUMP JUMPDEST PUSH0 DUP2 SWAP1 POP SWAP2 SWAP1 POP JUMP JUMPDEST PUSH2 0x1F0 DUP4 PUSH2 0x1BD JUMP JUMPDEST PUSH2 0x204 PUSH2 0x1FC DUP3 PUSH2 0x1DE JUMP JUMPDEST DUP5 DUP5 SLOAD PUSH2 0x15A JUMP JUMPDEST DUP3 SSTORE POP POP POP POP JUMP JUMPDEST PUSH0 SWAP1 JUMP JUMPDEST PUSH2 0x218 PUSH2 0x20C JUMP JUMPDEST PUSH2 0x223 DUP2 DUP5 DUP5 PUSH2 0x1E7 JUMP JUMPDEST POP POP POP JUMP JUMPDEST JUMPDEST DUP2 DUP2 LT ISZERO PUSH2 0x246 JUMPI PUSH2 0x23B PUSH0 DUP3 PUSH2 0x210 JUMP JUMPDEST PUSH1 0x1 DUP2 ADD SWAP1 POP PUSH2 0x229 JUMP JUMPDEST POP POP JUMP JUMPDEST PUSH1 0x1F DUP3 GT ISZERO PUSH2 0x28B JUMPI PUSH2 0x25C DUP2 PUSH2 0x12D JUMP JUMPDEST PUSH2 0x265 DUP5 PUSH2 0x13F JUMP JUMPDEST DUP2 ADD PUSH1 0x20 DUP6 LT ISZERO PUSH2 0x274 JUMPI DUP2 SWAP1 POP JUMPDEST PUSH2 0x288 PUSH2 0x280 DUP6 PUSH2 0x13F JUMP JUMPDEST DUP4 ADD DUP3 PUSH2 0x228 JUMP JUMPDEST POP POP JUMPDEST POP POP POP JUMP JUMPDEST PUSH0 DUP3 DUP3 SHR SWAP1 POP SWAP3 SWAP2 POP POP JUMP JUMPDEST PUSH0 PUSH2 0x2AB PUSH0 NOT DUP5 PUSH1 0x8 MUL PUSH2 0x290 JUMP JUMPDEST NOT DUP1 DUP4 AND SWAP2 POP POP SWAP3 SWAP2 POP POP JUMP JUMPDEST PUSH0 PUSH2 0x2C3 DUP4 DUP4 PUSH2 0x29C JUMP JUMPDEST SWAP2 POP DUP3 PUSH1 0x2 MUL DUP3 OR SWAP1 POP SWAP3 SWAP2 POP POP JUMP JUMPDEST PUSH2 0x2DC DUP3 PUSH2 0x99 JUMP JUMPDEST PUSH8 0xFFFFFFFFFFFFFFFF DUP2 GT ISZERO PUSH2 0x2F5 JUMPI PUSH2 0x2F4 PUSH2 0xA3 JUMP JUMPDEST JUMPDEST PUSH2 0x2FF DUP3 SLOAD PUSH2 0xFD JUMP JUMPDEST PUSH2 0x30A DUP3 DUP3 DUP6 PUSH2 0x24A JUMP JUMPDEST PUSH0 PUSH1 0x20 SWAP1 POP PUSH1 0x1F DUP4 GT PUSH1 0x1 DUP2 EQ PUSH2 0x33B JUMPI PUSH0 DUP5 ISZERO PUSH2 0x329 JUMPI DUP3 DUP8 ADD MLOAD SWAP1 POP JUMPDEST PUSH2 0x333 DUP6 DUP3 PUSH2 0x2B8 JUMP JUMPDEST DUP7 SSTORE POP PUSH2 0x39A JUMP JUMPDEST PUSH1 0x1F NOT DUP5 AND PUSH2 0x349 DUP7 PUSH2 0x12D JUMP JUMPDEST PUSH0 JUMPDEST DUP3 DUP2 LT ISZERO PUSH2 0x370 JUMPI DUP5 DUP10 ADD MLOAD DUP3 SSTORE PUSH1 0x1 DUP3 ADD SWAP2 POP PUSH1 0x20 DUP6 ADD SWAP5 POP PUSH1 0x20 DUP2 ADD SWAP1 POP PUSH2 0x34B JUMP JUMPDEST DUP7 DUP4 LT ISZERO PUSH2 0x38D JUMPI DUP5 DUP10 ADD MLOAD PUSH2 0x389 PUSH1 0x1F DUP10 AND DUP3 PUSH2 0x29C JUMP JUMPDEST DUP4 SSTORE POP JUMPDEST PUSH1 0x1 PUSH1 0x2 DUP9 MUL ADD DUP9 SSTORE POP POP POP JUMPDEST POP POP POP POP POP POP JUMP JUMPDEST PUSH2 0x601 DUP1 PUSH2 0x3AF PUSH0 CODECOPY PUSH0 RETURN INVALID PUSH1 0x80 PUSH1 0x40 MSTORE CALLVALUE DUP1 ISZERO PUSH2 0xF JUMPI PUSH0 DUP1 REVERT JUMPDEST POP PUSH1 0x4 CALLDATASIZE LT PUSH2 0x3F JUMPI PUSH0 CALLDATALOAD PUSH1 0xE0 SHR DUP1 PUSH4 0xDBE671F EQ PUSH2 0x43 JUMPI DUP1 PUSH4 0x73AF6082 EQ PUSH2 0x61 JUMPI DUP1 PUSH4 0xD1F4BA82 EQ PUSH2 0x6B JUMPI JUMPDEST PUSH0 DUP1 REVERT JUMPDEST PUSH2 0x4B PUSH2 0x75 JUMP JUMPDEST PUSH1 0x40 MLOAD PUSH2 0x58 SWAP2 SWAP1 PUSH2 0x2AC JUMP JUMPDEST PUSH1 0x40 MLOAD DUP1 SWAP2 SUB SWAP1 RETURN JUMPDEST PUSH2 0x69 PUSH2 0x100 JUMP JUMPDEST STOP JUMPDEST PUSH2 0x73 PUSH2 0x19E JUMP JUMPDEST STOP JUMPDEST PUSH0 DUP1 SLOAD PUSH2 0x81 SWAP1 PUSH2 0x2F9 JUMP JUMPDEST DUP1 PUSH1 0x1F ADD PUSH1 0x20 DUP1 SWAP2 DIV MUL PUSH1 0x20 ADD PUSH1 0x40 MLOAD SWAP1 DUP2 ADD PUSH1 0x40 MSTORE DUP1 SWAP3 SWAP2 SWAP1 DUP2 DUP2 MSTORE PUSH1 0x20 ADD DUP3 DUP1 SLOAD PUSH2 0xAD SWAP1 PUSH2 0x2F9 JUMP JUMPDEST DUP1 ISZERO PUSH2 0xF8 JUMPI DUP1 PUSH1 0x1F LT PUSH2 0xCF JUMPI PUSH2 0x100 DUP1 DUP4 SLOAD DIV MUL DUP4 MSTORE SWAP2 PUSH1 0x20 ADD SWAP2 PUSH2 0xF8 JUMP JUMPDEST DUP3 ADD SWAP2 SWAP1 PUSH0 MSTORE PUSH1 0x20 PUSH0 KECCAK256 SWAP1 JUMPDEST DUP2 SLOAD DUP2 MSTORE SWAP1 PUSH1 0x1 ADD SWAP1 PUSH1 0x20 ADD DUP1 DUP4 GT PUSH2 0xDB JUMPI DUP3 SWAP1 SUB PUSH1 0x1F AND DUP3 ADD SWAP2 JUMPDEST POP POP POP POP POP DUP2 JUMP JUMPDEST PUSH1 0x1 PUSH0 SWAP1 SLOAD SWAP1 PUSH2 0x100 EXP SWAP1 DIV PUSH20 0xFFFFFFFFFFFFFFFFFFFFFFFFFFFFFFFFFFFFFFFF AND PUSH20 0xFFFFFFFFFFFFFFFFFFFFFFFFFFFFFFFFFFFFFFFF AND CALLER PUSH20 0xFFFFFFFFFFFFFFFFFFFFFFFFFFFFFFFFFFFFFFFF AND EQ PUSH2 0x158 JUMPI PUSH0 DUP1 REVERT JUMPDEST PUSH1 0x40 MLOAD DUP1 PUSH1 0x40 ADD PUSH1 0x40 MSTORE DUP1 PUSH1 0x1 DUP2 MSTORE PUSH1 0x20 ADD PUSH32 0x4300000000000000000000000000000000000000000000000000000000000000 DUP2 MSTORE POP PUSH0 SWAP1 DUP2 PUSH2 0x19B SWAP2 SWAP1 PUSH2 0x4FC JUMP JUMPDEST POP JUMP JUMPDEST PUSH1 0x1 PUSH0 SWAP1 SLOAD SWAP1 PUSH2 0x100 EXP SWAP1 DIV PUSH20 0xFFFFFFFFFFFFFFFFFFFFFFFFFFFFFFFFFFFFFFFF AND PUSH20 0xFFFFFFFFFFFFFFFFFFFFFFFFFFFFFFFFFFFFFFFF AND CALLER PUSH20 0xFFFFFFFFFFFFFFFFFFFFFFFFFFFFFFFFFFFFFFFF AND EQ PUSH2 0x1F6 JUMPI PUSH0 DUP1 REVERT JUMPDEST PUSH1 0x40 MLOAD DUP1 PUSH1 0x40 ADD PUSH1 0x40 MSTORE DUP1 PUSH1 0x1 DUP2 MSTORE PUSH1 0x20 ADD PUSH32 0x4200000000000000000000000000000000000000000000000000000000000000 DUP2 MSTORE POP PUSH0 SWAP1 DUP2 PUSH2 0x239 SWAP2 SWAP1 PUSH2 0x4FC JUMP JUMPDEST POP JUMP JUMPDEST PUSH0 DUP2 MLOAD SWAP1 POP SWAP2 SWAP1 POP JUMP JUMPDEST PUSH0 DUP3 DUP3 MSTORE PUSH1 0x20 DUP3 ADD SWAP1 POP SWAP3 SWAP2 POP POP JUMP JUMPDEST DUP3 DUP2 DUP4 MCOPY PUSH0 DUP4 DUP4 ADD MSTORE POP POP POP JUMP JUMPDEST PUSH0 PUSH1 0x1F NOT PUSH1 0x1F DUP4 ADD AND SWAP1 POP SWAP2 SWAP1 POP JUMP JUMPDEST PUSH0 PUSH2 0x27E DUP3 PUSH2 0x23C JUMP JUMPDEST PUSH2 0x288 DUP2 DUP6 PUSH2 0x246 JUMP JUMPDEST SWAP4 POP PUSH2 0x298 DUP2 DUP6 PUSH1 0x20 DUP7 ADD PUSH2 0x256 JUMP JUMPDEST PUSH2 0x2A1 DUP2 PUSH2 0x264 JUMP JUMPDEST DUP5 ADD SWAP2 POP POP SWAP3 SWAP2 POP POP JUMP JUMPDEST PUSH0 PUSH1 0x20 DUP3 ADD SWAP1 POP DUP2 DUP2 SUB PUSH0 DUP4 ADD MSTORE PUSH2 0x2C4 DUP2 DUP5 PUSH2 0x274 JUMP JUMPDEST SWAP1 POP SWAP3 SWAP2 POP POP JUMP JUMPDEST PUSH32 0x4E487B7100000000000000000000000000000000000000000000000000000000 PUSH0 MSTORE PUSH1 0x22 PUSH1 0x4 MSTORE PUSH1 0x24 PUSH0 REVERT JUMPDEST PUSH0 PUSH1 0x2 DUP3 DIV SWAP1 POP PUSH1 0x1 DUP3 AND DUP1 PUSH2 0x310 JUMPI PUSH1 0x7F DUP3 AND SWAP2 POP JUMPDEST PUSH1 0x20 DUP3 LT DUP2 SUB PUSH2 0x323 JUMPI PUSH2 0x322 PUSH2 0x2CC JUMP JUMPDEST JUMPDEST POP SWAP2 SWAP1 POP JUMP JUMPDEST PUSH32 0x4E487B7100000000000000000000000000000000000000000000000000000000 PUSH0 MSTORE PUSH1 0x41 PUSH1 0x4 MSTORE PUSH1 0x24 PUSH0 REVERT JUMPDEST PUSH0 DUP2 SWAP1 POP DUP2 PUSH0 MSTORE PUSH1 0x20 PUSH0 KECCAK256 SWAP1 POP SWAP2 SWAP1 POP JUMP JUMPDEST PUSH0 PUSH1 0x20 PUSH1 0x1F DUP4 ADD DIV SWAP1 POP SWAP2 SWAP1 POP JUMP JUMPDEST PUSH0 DUP3 DUP3 SHL SWAP1 POP SWAP3 SWAP2 POP POP JUMP JUMPDEST PUSH0 PUSH1 0x8 DUP4 MUL PUSH2 0x3B2 PUSH32 0xFFFFFFFFFFFFFFFFFFFFFFFFFFFFFFFFFFFFFFFFFFFFFFFFFFFFFFFFFFFFFFFF DUP3 PUSH2 0x377 JUMP JUMPDEST PUSH2 0x3BC DUP7 DUP4 PUSH2 0x377 JUMP JUMPDEST SWAP6 POP DUP1 NOT DUP5 AND SWAP4 POP DUP1 DUP7 AND DUP5 OR SWAP3 POP POP POP SWAP4 SWAP3 POP POP POP JUMP JUMPDEST PUSH0 DUP2 SWAP1 POP SWAP2 SWAP1 POP JUMP JUMPDEST PUSH0 DUP2 SWAP1 POP SWAP2 SWAP1 POP JUMP JUMPDEST PUSH0 PUSH2 0x400 PUSH2 0x3FB PUSH2 0x3F6 DUP5 PUSH2 0x3D4 JUMP JUMPDEST PUSH2 0x3DD JUMP JUMPDEST PUSH2 0x3D4 JUMP JUMPDEST SWAP1 POP SWAP2 SWAP1 POP JUMP JUMPDEST PUSH0 DUP2 SWAP1 POP SWAP2 SWAP1 POP JUMP JUMPDEST PUSH2 0x419 DUP4 PUSH2 0x3E6 JUMP JUMPDEST PUSH2 0x42D PUSH2 0x425 DUP3 PUSH2 0x407 JUMP JUMPDEST DUP5 DUP5 SLOAD PUSH2 0x383 JUMP JUMPDEST DUP3 SSTORE POP POP POP POP JUMP JUMPDEST PUSH0 SWAP1 JUMP JUMPDEST PUSH2 0x441 PUSH2 0x435 JUMP JUMPDEST PUSH2 0x44C DUP2 DUP5 DUP5 PUSH2 0x410 JUMP JUMPDEST POP POP POP JUMP JUMPDEST JUMPDEST DUP2 DUP2 LT ISZERO PUSH2 0x46F JUMPI PUSH2 0x464 PUSH0 DUP3 PUSH2 0x439 JUMP JUMPDEST PUSH1 0x1 DUP2 ADD SWAP1 POP PUSH2 0x452 JUMP JUMPDEST POP POP JUMP JUMPDEST PUSH1 0x1F DUP3 GT ISZERO PUSH2 0x4B4 JUMPI PUSH2 0x485 DUP2 PUSH2 0x356 JUMP JUMPDEST PUSH2 0x48E DUP5 PUSH2 0x368 JUMP JUMPDEST DUP2 ADD PUSH1 0x20 DUP6 LT ISZERO PUSH2 0x49D JUMPI DUP2 SWAP1 POP JUMPDEST PUSH2 0x4B1 PUSH2 0x4A9 DUP6 PUSH2 0x368 JUMP JUMPDEST DUP4 ADD DUP3 PUSH2 0x451 JUMP JUMPDEST POP POP JUMPDEST POP POP POP JUMP JUMPDEST PUSH0 DUP3 DUP3 SHR SWAP1 POP SWAP3 SWAP2 POP POP JUMP JUMPDEST PUSH0 PUSH2 0x4D4 PUSH0 NOT DUP5 PUSH1 0x8 MUL PUSH2 0x4B9 JUMP JUMPDEST NOT DUP1 DUP4 AND SWAP2 POP POP SWAP3 SWAP2 POP POP JUMP JUMPDEST PUSH0 PUSH2 0x4EC DUP4 DUP4 PUSH2 0x4C5 JUMP JUMPDEST SWAP2 POP DUP3 PUSH1 0x2 MUL DUP3 OR SWAP1 POP SWAP3 SWAP2 POP POP JUMP JUMPDEST PUSH2 0x505 DUP3 PUSH2 0x23C JUMP JUMPDEST PUSH8 0xFFFFFFFFFFFFFFFF DUP2 GT ISZERO PUSH2 0x51E JUMPI PUSH2 0x51D PUSH2 0x329 JUMP JUMPDEST JUMPDEST PUSH2 0x528 DUP3 SLOAD PUSH2 0x2F9 JUMP JUMPDEST PUSH2 0x533 DUP3 DUP3 DUP6 PUSH2 0x473 JUMP JUMPDEST PUSH0 PUSH1 0x20 SWAP1 POP PUSH1 0x1F DUP4 GT PUSH1 0x1 DUP2 EQ PUSH2 0x564 JUMPI PUSH0 DUP5 ISZERO PUSH2 0x552 JUMPI DUP3 DUP8 ADD MLOAD SWAP1 POP JUMPDEST PUSH2 0x55C DUP6 DUP3 PUSH2 0x4E1 JUMP JUMPDEST DUP7 SSTORE POP PUSH2 0x5C3 JUMP JUMPDEST PUSH1 0x1F NOT DUP5 AND PUSH2 0x572 DUP7 PUSH2 0x356 JUMP JUMPDEST PUSH0 JUMPDEST DUP3 DUP2 LT ISZERO PUSH2 0x599 JUMPI DUP5 DUP10 ADD MLOAD DUP3 SSTORE PUSH1 0x1 DUP3 ADD SWAP2 POP PUSH1 0x20 DUP6 ADD SWAP5 POP PUSH1 0x20 DUP2 ADD SWAP1 POP PUSH2 0x574 JUMP JUMPDEST DUP7 DUP4 LT ISZERO PUSH2 0x5B6 JUMPI DUP5 DUP10 ADD MLOAD PUSH2 0x5B2 PUSH1 0x1F DUP10 AND DUP3 PUSH2 0x4C5 JUMP JUMPDEST DUP4 SSTORE POP JUMPDEST PUSH1 0x1 PUSH1 0x2 DUP9 MUL ADD DUP9 SSTORE POP POP POP JUMPDEST POP POP POP POP POP POP JUMP INVALID LOG2 PUSH5 0x6970667358 0x22 SLT KECCAK256 0x25 0xD9 0x22 SSTORE JUMPDEST PUSH9 0x3EB0ED8D55E0DF9685 0xB4 SWAP7 LOG3 0xC7 BASEFEE NOT SWAP5 0xEE CALLDATASIZE 0x28 DUP2 0xB0 SWAP13 PUSH21 0xBC00EE64736F6C634300081A003300000000000000 "
				},
				"gasEstimates": {
					"creation": {
						"codeDepositCost": "307400",
						"executionCost": "infinite",
						"totalCost": "infinite"
					},
					"external": {
						"a()": "infinite",
						"setB()": "infinite",
						"setC()": "infinite"
					}
				},
				"methodIdentifiers": {
					"a()": "0dbe671f",
					"setB()": "d1f4ba82",
					"setC()": "73af6082"
				}
			},
			"storageLayout": {
				"storage": [
					{
						"astId": 472,
						"contract": "Solidity100/Solidity31-40.sol:Question38",
						"label": "a",
						"offset": 0,
						"slot": "0",
						"type": "t_string_storage"
					},
					{
						"astId": 474,
						"contract": "Solidity100/Solidity31-40.sol:Question38",
						"label": "owner",
						"offset": 0,
						"slot": "1",
						"type": "t_address"
					}
				],
				"types": {
					"t_address": {
						"encoding": "inplace",
						"label": "address",
						"numberOfBytes": "20"
					},
					"t_string_storage": {
						"encoding": "bytes",
						"label": "string",
						"numberOfBytes": "32"
					}
				}
			},
			"userdoc": {
				"kind": "user",
				"methods": {},
				"version": 1
			}
		}
	}
}