{
	"Solidity100/Solidity31-40.sol": {
		"Question40": {
			"abi": [
				{
					"inputs": [
						{
							"internalType": "uint256[]",
							"name": "numbers",
							"type": "uint256[]"
						}
					],
					"name": "test",
					"outputs": [
						{
							"internalType": "uint256[]",
							"name": "",
							"type": "uint256[]"
						},
						{
							"internalType": "uint256[]",
							"name": "",
							"type": "uint256[]"
						}
					],
					"stateMutability": "pure",
					"type": "function"
				}
			],
			"devdoc": {
				"kind": "dev",
				"methods": {},
				"version": 1
			},
			"evm": {
				"assembly": "    /* \"Solidity100/Solidity31-40.sol\":6527:7742  contract Question40{... */\n  mstore(0x40, 0x80)\n  callvalue\n  dup1\n  iszero\n  tag_1\n  jumpi\n  0x00\n  dup1\n  revert\ntag_1:\n  pop\n  dataSize(sub_0)\n  dup1\n  dataOffset(sub_0)\n  0x00\n  codecopy\n  0x00\n  return\nstop\n\nsub_0: assembly {\n        /* \"Solidity100/Solidity31-40.sol\":6527:7742  contract Question40{... */\n      mstore(0x40, 0x80)\n      callvalue\n      dup1\n      iszero\n      tag_1\n      jumpi\n      0x00\n      dup1\n      revert\n    tag_1:\n      pop\n      jumpi(tag_2, lt(calldatasize, 0x04))\n      shr(0xe0, calldataload(0x00))\n      dup1\n      0xca160684\n      eq\n      tag_3\n      jumpi\n    tag_2:\n      0x00\n      dup1\n      revert\n        /* \"Solidity100/Solidity31-40.sol\":6911:7740  function test(uint[] memory numbers) public pure returns (uint[] memory, uint[] memory) {... */\n    tag_3:\n      tag_4\n      0x04\n      dup1\n      calldatasize\n      sub\n      dup2\n      add\n      swap1\n      tag_5\n      swap2\n      swap1\n      tag_6\n      jump\t// in\n    tag_5:\n      tag_7\n      jump\t// in\n    tag_4:\n      mload(0x40)\n      tag_8\n      swap3\n      swap2\n      swap1\n      tag_9\n      jump\t// in\n    tag_8:\n      mload(0x40)\n      dup1\n      swap2\n      sub\n      swap1\n      return\n    tag_7:\n        /* \"Solidity100/Solidity31-40.sol\":6969:6982  uint[] memory */\n      0x60\n        /* \"Solidity100/Solidity31-40.sol\":6984:6997  uint[] memory */\n      dup1\n        /* \"Solidity100/Solidity31-40.sol\":7009:7032  uint[] memory ascending */\n      0x00\n        /* \"Solidity100/Solidity31-40.sol\":7035:7042  numbers */\n      dup4\n        /* \"Solidity100/Solidity31-40.sol\":7009:7042  uint[] memory ascending = numbers */\n      swap1\n      pop\n        /* \"Solidity100/Solidity31-40.sol\":7056:7062  uint i */\n      0x00\n        /* \"Solidity100/Solidity31-40.sol\":7052:7300  for(uint i=0;i<numbers.length;i++) {... */\n    tag_11:\n        /* \"Solidity100/Solidity31-40.sol\":7067:7074  numbers */\n      dup5\n        /* \"Solidity100/Solidity31-40.sol\":7067:7081  numbers.length */\n      mload\n        /* \"Solidity100/Solidity31-40.sol\":7065:7066  i */\n      dup2\n        /* \"Solidity100/Solidity31-40.sol\":7065:7081  i<numbers.length */\n      lt\n        /* \"Solidity100/Solidity31-40.sol\":7052:7300  for(uint i=0;i<numbers.length;i++) {... */\n      iszero\n      tag_12\n      jumpi\n        /* \"Solidity100/Solidity31-40.sol\":7105:7111  uint j */\n      0x00\n        /* \"Solidity100/Solidity31-40.sol\":7114:7115  1 */\n      0x01\n        /* \"Solidity100/Solidity31-40.sol\":7112:7113  i */\n      dup3\n        /* \"Solidity100/Solidity31-40.sol\":7112:7115  i+1 */\n      tag_17\n      swap2\n      swap1\n      tag_18\n      jump\t// in\n    tag_17:\n        /* \"Solidity100/Solidity31-40.sol\":7105:7115  uint j=i+1 */\n      swap1\n      pop\n        /* \"Solidity100/Solidity31-40.sol\":7101:7290  for(uint j=i+1; j<numbers.length;j++) {... */\n    tag_14:\n        /* \"Solidity100/Solidity31-40.sol\":7119:7126  numbers */\n      dup6\n        /* \"Solidity100/Solidity31-40.sol\":7119:7133  numbers.length */\n      mload\n        /* \"Solidity100/Solidity31-40.sol\":7117:7118  j */\n      dup2\n        /* \"Solidity100/Solidity31-40.sol\":7117:7133  j<numbers.length */\n      lt\n        /* \"Solidity100/Solidity31-40.sol\":7101:7290  for(uint j=i+1; j<numbers.length;j++) {... */\n      iszero\n      tag_15\n      jumpi\n        /* \"Solidity100/Solidity31-40.sol\":7171:7178  numbers */\n      dup6\n        /* \"Solidity100/Solidity31-40.sol\":7179:7180  i */\n      dup3\n        /* \"Solidity100/Solidity31-40.sol\":7171:7181  numbers[i] */\n      dup2\n      mload\n      dup2\n      lt\n      tag_19\n      jumpi\n      tag_20\n      tag_21\n      jump\t// in\n    tag_20:\n    tag_19:\n      0x20\n      mul\n      0x20\n      add\n      add\n      mload\n        /* \"Solidity100/Solidity31-40.sol\":7160:7167  numbers */\n      dup7\n        /* \"Solidity100/Solidity31-40.sol\":7168:7169  j */\n      dup3\n        /* \"Solidity100/Solidity31-40.sol\":7160:7170  numbers[j] */\n      dup2\n      mload\n      dup2\n      lt\n      tag_22\n      jumpi\n      tag_23\n      tag_21\n      jump\t// in\n    tag_23:\n    tag_22:\n      0x20\n      mul\n      0x20\n      add\n      add\n      mload\n        /* \"Solidity100/Solidity31-40.sol\":7160:7181  numbers[j]<numbers[i] */\n      lt\n        /* \"Solidity100/Solidity31-40.sol\":7157:7275  if(numbers[j]<numbers[i]) {... */\n      iszero\n      tag_24\n      jumpi\n        /* \"Solidity100/Solidity31-40.sol\":7233:7240  numbers */\n      dup6\n        /* \"Solidity100/Solidity31-40.sol\":7241:7242  i */\n      dup3\n        /* \"Solidity100/Solidity31-40.sol\":7233:7243  numbers[i] */\n      dup2\n      mload\n      dup2\n      lt\n      tag_25\n      jumpi\n      tag_26\n      tag_21\n      jump\t// in\n    tag_26:\n    tag_25:\n      0x20\n      mul\n      0x20\n      add\n      add\n      mload\n        /* \"Solidity100/Solidity31-40.sol\":7245:7252  numbers */\n      dup7\n        /* \"Solidity100/Solidity31-40.sol\":7253:7254  j */\n      dup3\n        /* \"Solidity100/Solidity31-40.sol\":7245:7255  numbers[j] */\n      dup2\n      mload\n      dup2\n      lt\n      tag_27\n      jumpi\n      tag_28\n      tag_21\n      jump\t// in\n    tag_28:\n    tag_27:\n      0x20\n      mul\n      0x20\n      add\n      add\n      mload\n        /* \"Solidity100/Solidity31-40.sol\":7206:7213  numbers */\n      dup8\n        /* \"Solidity100/Solidity31-40.sol\":7214:7215  j */\n      dup4\n        /* \"Solidity100/Solidity31-40.sol\":7206:7216  numbers[j] */\n      dup2\n      mload\n      dup2\n      lt\n      tag_29\n      jumpi\n      tag_30\n      tag_21\n      jump\t// in\n    tag_30:\n    tag_29:\n      0x20\n      mul\n      0x20\n      add\n      add\n        /* \"Solidity100/Solidity31-40.sol\":7218:7225  numbers */\n      dup9\n        /* \"Solidity100/Solidity31-40.sol\":7226:7227  i */\n      dup6\n        /* \"Solidity100/Solidity31-40.sol\":7218:7228  numbers[i] */\n      dup2\n      mload\n      dup2\n      lt\n      tag_31\n      jumpi\n      tag_32\n      tag_21\n      jump\t// in\n    tag_32:\n    tag_31:\n      0x20\n      mul\n      0x20\n      add\n      add\n        /* \"Solidity100/Solidity31-40.sol\":7205:7256  (numbers[j], numbers[i]) = (numbers[i], numbers[j]) */\n      dup3\n      dup2\n      mstore\n      pop\n      dup3\n      dup2\n      mstore\n      pop\n      pop\n      pop\n        /* \"Solidity100/Solidity31-40.sol\":7157:7275  if(numbers[j]<numbers[i]) {... */\n    tag_24:\n        /* \"Solidity100/Solidity31-40.sol\":7134:7137  j++ */\n      dup1\n      dup1\n      0x01\n      add\n      swap2\n      pop\n      pop\n        /* \"Solidity100/Solidity31-40.sol\":7101:7290  for(uint j=i+1; j<numbers.length;j++) {... */\n      jump(tag_14)\n    tag_15:\n      pop\n        /* \"Solidity100/Solidity31-40.sol\":7082:7085  i++ */\n      dup1\n      dup1\n      0x01\n      add\n      swap2\n      pop\n      pop\n        /* \"Solidity100/Solidity31-40.sol\":7052:7300  for(uint i=0;i<numbers.length;i++) {... */\n      jump(tag_11)\n    tag_12:\n      pop\n        /* \"Solidity100/Solidity31-40.sol\":7310:7337  uint[] memory middleNumbers */\n      0x00\n        /* \"Solidity100/Solidity31-40.sol\":7374:7375  2 */\n      0x02\n        /* \"Solidity100/Solidity31-40.sol\":7355:7364  ascending */\n      dup3\n        /* \"Solidity100/Solidity31-40.sol\":7355:7371  ascending.length */\n      mload\n        /* \"Solidity100/Solidity31-40.sol\":7355:7375  ascending.length % 2 */\n      tag_33\n      swap2\n      swap1\n      tag_34\n      jump\t// in\n    tag_33:\n        /* \"Solidity100/Solidity31-40.sol\":7351:7352  2 */\n      0x02\n        /* \"Solidity100/Solidity31-40.sol\":7351:7375  2 - ascending.length % 2 */\n      tag_35\n      swap2\n      swap1\n      tag_36\n      jump\t// in\n    tag_35:\n        /* \"Solidity100/Solidity31-40.sol\":7340:7376  new uint[](2 - ascending.length % 2) */\n      0xffffffffffffffff\n      dup2\n      gt\n      iszero\n      tag_37\n      jumpi\n      tag_38\n      tag_39\n      jump\t// in\n    tag_38:\n    tag_37:\n      mload(0x40)\n      swap1\n      dup1\n      dup3\n      mstore\n      dup1\n      0x20\n      mul\n      0x20\n      add\n      dup3\n      add\n      0x40\n      mstore\n      dup1\n      iszero\n      tag_40\n      jumpi\n      dup2\n      0x20\n      add\n      0x20\n      dup3\n      mul\n      dup1\n      calldatasize\n      dup4\n      calldatacopy\n      dup1\n      dup3\n      add\n      swap2\n      pop\n      pop\n      swap1\n      pop\n    tag_40:\n      pop\n        /* \"Solidity100/Solidity31-40.sol\":7310:7376  uint[] memory middleNumbers = new uint[](2 - ascending.length % 2) */\n      swap1\n      pop\n        /* \"Solidity100/Solidity31-40.sol\":7413:7414  0 */\n      0x00\n        /* \"Solidity100/Solidity31-40.sol\":7408:7409  2 */\n      0x02\n        /* \"Solidity100/Solidity31-40.sol\":7389:7398  ascending */\n      dup4\n        /* \"Solidity100/Solidity31-40.sol\":7389:7405  ascending.length */\n      mload\n        /* \"Solidity100/Solidity31-40.sol\":7389:7409  ascending.length % 2 */\n      tag_41\n      swap2\n      swap1\n      tag_34\n      jump\t// in\n    tag_41:\n        /* \"Solidity100/Solidity31-40.sol\":7389:7414  ascending.length % 2 != 0 */\n      eq\n        /* \"Solidity100/Solidity31-40.sol\":7386:7734  if(ascending.length % 2 != 0) {... */\n      tag_42\n      jumpi\n        /* \"Solidity100/Solidity31-40.sol\":7449:7458  ascending */\n      dup2\n        /* \"Solidity100/Solidity31-40.sol\":7478:7479  2 */\n      0x02\n        /* \"Solidity100/Solidity31-40.sol\":7459:7468  ascending */\n      dup4\n        /* \"Solidity100/Solidity31-40.sol\":7459:7475  ascending.length */\n      mload\n        /* \"Solidity100/Solidity31-40.sol\":7459:7479  ascending.length / 2 */\n      tag_43\n      swap2\n      swap1\n      tag_44\n      jump\t// in\n    tag_43:\n        /* \"Solidity100/Solidity31-40.sol\":7449:7480  ascending[ascending.length / 2] */\n      dup2\n      mload\n      dup2\n      lt\n      tag_45\n      jumpi\n      tag_46\n      tag_21\n      jump\t// in\n    tag_46:\n    tag_45:\n      0x20\n      mul\n      0x20\n      add\n      add\n      mload\n        /* \"Solidity100/Solidity31-40.sol\":7430:7443  middleNumbers */\n      dup2\n        /* \"Solidity100/Solidity31-40.sol\":7444:7445  0 */\n      0x00\n        /* \"Solidity100/Solidity31-40.sol\":7430:7446  middleNumbers[0] */\n      dup2\n      mload\n      dup2\n      lt\n      tag_47\n      jumpi\n      tag_48\n      tag_21\n      jump\t// in\n    tag_48:\n    tag_47:\n      0x20\n      mul\n      0x20\n      add\n      add\n        /* \"Solidity100/Solidity31-40.sol\":7430:7480  middleNumbers[0] = ascending[ascending.length / 2] */\n      dup2\n      dup2\n      mstore\n      pop\n      pop\n        /* \"Solidity100/Solidity31-40.sol\":7502:7511  ascending */\n      dup2\n        /* \"Solidity100/Solidity31-40.sol\":7513:7526  middleNumbers */\n      dup2\n        /* \"Solidity100/Solidity31-40.sol\":7494:7527  return (ascending, middleNumbers) */\n      swap4\n      pop\n      swap4\n      pop\n      pop\n      pop\n      jump(tag_10)\n        /* \"Solidity100/Solidity31-40.sol\":7386:7734  if(ascending.length % 2 != 0) {... */\n    tag_42:\n        /* \"Solidity100/Solidity31-40.sol\":7577:7586  ascending */\n      dup2\n        /* \"Solidity100/Solidity31-40.sol\":7610:7611  1 */\n      0x01\n        /* \"Solidity100/Solidity31-40.sol\":7606:7607  2 */\n      0x02\n        /* \"Solidity100/Solidity31-40.sol\":7587:7596  ascending */\n      dup5\n        /* \"Solidity100/Solidity31-40.sol\":7587:7603  ascending.length */\n      mload\n        /* \"Solidity100/Solidity31-40.sol\":7587:7607  ascending.length / 2 */\n      tag_50\n      swap2\n      swap1\n      tag_44\n      jump\t// in\n    tag_50:\n        /* \"Solidity100/Solidity31-40.sol\":7587:7611  ascending.length / 2 - 1 */\n      tag_51\n      swap2\n      swap1\n      tag_36\n      jump\t// in\n    tag_51:\n        /* \"Solidity100/Solidity31-40.sol\":7577:7612  ascending[ascending.length / 2 - 1] */\n      dup2\n      mload\n      dup2\n      lt\n      tag_52\n      jumpi\n      tag_53\n      tag_21\n      jump\t// in\n    tag_53:\n    tag_52:\n      0x20\n      mul\n      0x20\n      add\n      add\n      mload\n        /* \"Solidity100/Solidity31-40.sol\":7558:7571  middleNumbers */\n      dup2\n        /* \"Solidity100/Solidity31-40.sol\":7572:7573  0 */\n      0x00\n        /* \"Solidity100/Solidity31-40.sol\":7558:7574  middleNumbers[0] */\n      dup2\n      mload\n      dup2\n      lt\n      tag_54\n      jumpi\n      tag_55\n      tag_21\n      jump\t// in\n    tag_55:\n    tag_54:\n      0x20\n      mul\n      0x20\n      add\n      add\n        /* \"Solidity100/Solidity31-40.sol\":7558:7612  middleNumbers[0] = ascending[ascending.length / 2 - 1] */\n      dup2\n      dup2\n      mstore\n      pop\n      pop\n        /* \"Solidity100/Solidity31-40.sol\":7645:7654  ascending */\n      dup2\n        /* \"Solidity100/Solidity31-40.sol\":7674:7675  2 */\n      0x02\n        /* \"Solidity100/Solidity31-40.sol\":7655:7664  ascending */\n      dup4\n        /* \"Solidity100/Solidity31-40.sol\":7655:7671  ascending.length */\n      mload\n        /* \"Solidity100/Solidity31-40.sol\":7655:7675  ascending.length / 2 */\n      tag_56\n      swap2\n      swap1\n      tag_44\n      jump\t// in\n    tag_56:\n        /* \"Solidity100/Solidity31-40.sol\":7645:7676  ascending[ascending.length / 2] */\n      dup2\n      mload\n      dup2\n      lt\n      tag_57\n      jumpi\n      tag_58\n      tag_21\n      jump\t// in\n    tag_58:\n    tag_57:\n      0x20\n      mul\n      0x20\n      add\n      add\n      mload\n        /* \"Solidity100/Solidity31-40.sol\":7626:7639  middleNumbers */\n      dup2\n        /* \"Solidity100/Solidity31-40.sol\":7640:7641  1 */\n      0x01\n        /* \"Solidity100/Solidity31-40.sol\":7626:7642  middleNumbers[1] */\n      dup2\n      mload\n      dup2\n      lt\n      tag_59\n      jumpi\n      tag_60\n      tag_21\n      jump\t// in\n    tag_60:\n    tag_59:\n      0x20\n      mul\n      0x20\n      add\n      add\n        /* \"Solidity100/Solidity31-40.sol\":7626:7676  middleNumbers[1] = ascending[ascending.length / 2] */\n      dup2\n      dup2\n      mstore\n      pop\n      pop\n        /* \"Solidity100/Solidity31-40.sol\":7698:7707  ascending */\n      dup2\n        /* \"Solidity100/Solidity31-40.sol\":7709:7722  middleNumbers */\n      dup2\n        /* \"Solidity100/Solidity31-40.sol\":7690:7723  return (ascending, middleNumbers) */\n      swap4\n      pop\n      swap4\n      pop\n      pop\n      pop\n        /* \"Solidity100/Solidity31-40.sol\":6911:7740  function test(uint[] memory numbers) public pure returns (uint[] memory, uint[] memory) {... */\n    tag_10:\n      swap2\n      pop\n      swap2\n      jump\t// out\n        /* \"#utility.yul\":7:82   */\n    tag_61:\n        /* \"#utility.yul\":40:46   */\n      0x00\n        /* \"#utility.yul\":73:75   */\n      0x40\n        /* \"#utility.yul\":67:76   */\n      mload\n        /* \"#utility.yul\":57:76   */\n      swap1\n      pop\n        /* \"#utility.yul\":7:82   */\n      swap1\n      jump\t// out\n        /* \"#utility.yul\":88:205   */\n    tag_62:\n        /* \"#utility.yul\":197:198   */\n      0x00\n        /* \"#utility.yul\":194:195   */\n      dup1\n        /* \"#utility.yul\":187:199   */\n      revert\n        /* \"#utility.yul\":211:328   */\n    tag_63:\n        /* \"#utility.yul\":320:321   */\n      0x00\n        /* \"#utility.yul\":317:318   */\n      dup1\n        /* \"#utility.yul\":310:322   */\n      revert\n        /* \"#utility.yul\":334:451   */\n    tag_64:\n        /* \"#utility.yul\":443:444   */\n      0x00\n        /* \"#utility.yul\":440:441   */\n      dup1\n        /* \"#utility.yul\":433:445   */\n      revert\n        /* \"#utility.yul\":457:559   */\n    tag_65:\n        /* \"#utility.yul\":498:504   */\n      0x00\n        /* \"#utility.yul\":549:551   */\n      0x1f\n        /* \"#utility.yul\":545:552   */\n      not\n        /* \"#utility.yul\":540:542   */\n      0x1f\n        /* \"#utility.yul\":533:538   */\n      dup4\n        /* \"#utility.yul\":529:543   */\n      add\n        /* \"#utility.yul\":525:553   */\n      and\n        /* \"#utility.yul\":515:553   */\n      swap1\n      pop\n        /* \"#utility.yul\":457:559   */\n      swap2\n      swap1\n      pop\n      jump\t// out\n        /* \"#utility.yul\":565:745   */\n    tag_39:\n        /* \"#utility.yul\":613:690   */\n      0x4e487b7100000000000000000000000000000000000000000000000000000000\n        /* \"#utility.yul\":610:611   */\n      0x00\n        /* \"#utility.yul\":603:691   */\n      mstore\n        /* \"#utility.yul\":710:714   */\n      0x41\n        /* \"#utility.yul\":707:708   */\n      0x04\n        /* \"#utility.yul\":700:715   */\n      mstore\n        /* \"#utility.yul\":734:738   */\n      0x24\n        /* \"#utility.yul\":731:732   */\n      0x00\n        /* \"#utility.yul\":724:739   */\n      revert\n        /* \"#utility.yul\":751:1032   */\n    tag_66:\n        /* \"#utility.yul\":834:861   */\n      tag_92\n        /* \"#utility.yul\":856:860   */\n      dup3\n        /* \"#utility.yul\":834:861   */\n      tag_65\n      jump\t// in\n    tag_92:\n        /* \"#utility.yul\":826:832   */\n      dup2\n        /* \"#utility.yul\":822:862   */\n      add\n        /* \"#utility.yul\":964:970   */\n      dup2\n        /* \"#utility.yul\":952:962   */\n      dup2\n        /* \"#utility.yul\":949:971   */\n      lt\n        /* \"#utility.yul\":928:946   */\n      0xffffffffffffffff\n        /* \"#utility.yul\":916:926   */\n      dup3\n        /* \"#utility.yul\":913:947   */\n      gt\n        /* \"#utility.yul\":910:972   */\n      or\n        /* \"#utility.yul\":907:995   */\n      iszero\n      tag_93\n      jumpi\n        /* \"#utility.yul\":975:993   */\n      tag_94\n      tag_39\n      jump\t// in\n    tag_94:\n        /* \"#utility.yul\":907:995   */\n    tag_93:\n        /* \"#utility.yul\":1015:1025   */\n      dup1\n        /* \"#utility.yul\":1011:1013   */\n      0x40\n        /* \"#utility.yul\":1004:1026   */\n      mstore\n        /* \"#utility.yul\":794:1032   */\n      pop\n        /* \"#utility.yul\":751:1032   */\n      pop\n      pop\n      jump\t// out\n        /* \"#utility.yul\":1038:1167   */\n    tag_67:\n        /* \"#utility.yul\":1072:1078   */\n      0x00\n        /* \"#utility.yul\":1099:1119   */\n      tag_96\n      tag_61\n      jump\t// in\n    tag_96:\n        /* \"#utility.yul\":1089:1119   */\n      swap1\n      pop\n        /* \"#utility.yul\":1128:1161   */\n      tag_97\n        /* \"#utility.yul\":1156:1160   */\n      dup3\n        /* \"#utility.yul\":1148:1154   */\n      dup3\n        /* \"#utility.yul\":1128:1161   */\n      tag_66\n      jump\t// in\n    tag_97:\n        /* \"#utility.yul\":1038:1167   */\n      swap2\n      swap1\n      pop\n      jump\t// out\n        /* \"#utility.yul\":1173:1484   */\n    tag_68:\n        /* \"#utility.yul\":1250:1254   */\n      0x00\n        /* \"#utility.yul\":1340:1358   */\n      0xffffffffffffffff\n        /* \"#utility.yul\":1332:1338   */\n      dup3\n        /* \"#utility.yul\":1329:1359   */\n      gt\n        /* \"#utility.yul\":1326:1382   */\n      iszero\n      tag_99\n      jumpi\n        /* \"#utility.yul\":1362:1380   */\n      tag_100\n      tag_39\n      jump\t// in\n    tag_100:\n        /* \"#utility.yul\":1326:1382   */\n    tag_99:\n        /* \"#utility.yul\":1412:1416   */\n      0x20\n        /* \"#utility.yul\":1404:1410   */\n      dup3\n        /* \"#utility.yul\":1400:1417   */\n      mul\n        /* \"#utility.yul\":1392:1417   */\n      swap1\n      pop\n        /* \"#utility.yul\":1472:1476   */\n      0x20\n        /* \"#utility.yul\":1466:1470   */\n      dup2\n        /* \"#utility.yul\":1462:1477   */\n      add\n        /* \"#utility.yul\":1454:1477   */\n      swap1\n      pop\n        /* \"#utility.yul\":1173:1484   */\n      swap2\n      swap1\n      pop\n      jump\t// out\n        /* \"#utility.yul\":1490:1607   */\n    tag_69:\n        /* \"#utility.yul\":1599:1600   */\n      0x00\n        /* \"#utility.yul\":1596:1597   */\n      dup1\n        /* \"#utility.yul\":1589:1601   */\n      revert\n        /* \"#utility.yul\":1613:1690   */\n    tag_70:\n        /* \"#utility.yul\":1650:1657   */\n      0x00\n        /* \"#utility.yul\":1679:1684   */\n      dup2\n        /* \"#utility.yul\":1668:1684   */\n      swap1\n      pop\n        /* \"#utility.yul\":1613:1690   */\n      swap2\n      swap1\n      pop\n      jump\t// out\n        /* \"#utility.yul\":1696:1818   */\n    tag_71:\n        /* \"#utility.yul\":1769:1793   */\n      tag_104\n        /* \"#utility.yul\":1787:1792   */\n      dup2\n        /* \"#utility.yul\":1769:1793   */\n      tag_70\n      jump\t// in\n    tag_104:\n        /* \"#utility.yul\":1762:1767   */\n      dup2\n        /* \"#utility.yul\":1759:1794   */\n      eq\n        /* \"#utility.yul\":1749:1812   */\n      tag_105\n      jumpi\n        /* \"#utility.yul\":1808:1809   */\n      0x00\n        /* \"#utility.yul\":1805:1806   */\n      dup1\n        /* \"#utility.yul\":1798:1810   */\n      revert\n        /* \"#utility.yul\":1749:1812   */\n    tag_105:\n        /* \"#utility.yul\":1696:1818   */\n      pop\n      jump\t// out\n        /* \"#utility.yul\":1824:1963   */\n    tag_72:\n        /* \"#utility.yul\":1870:1875   */\n      0x00\n        /* \"#utility.yul\":1908:1914   */\n      dup2\n        /* \"#utility.yul\":1895:1915   */\n      calldataload\n        /* \"#utility.yul\":1886:1915   */\n      swap1\n      pop\n        /* \"#utility.yul\":1924:1957   */\n      tag_107\n        /* \"#utility.yul\":1951:1956   */\n      dup2\n        /* \"#utility.yul\":1924:1957   */\n      tag_71\n      jump\t// in\n    tag_107:\n        /* \"#utility.yul\":1824:1963   */\n      swap3\n      swap2\n      pop\n      pop\n      jump\t// out\n        /* \"#utility.yul\":1986:2696   */\n    tag_73:\n        /* \"#utility.yul\":2082:2087   */\n      0x00\n        /* \"#utility.yul\":2107:2188   */\n      tag_109\n        /* \"#utility.yul\":2123:2187   */\n      tag_110\n        /* \"#utility.yul\":2180:2186   */\n      dup5\n        /* \"#utility.yul\":2123:2187   */\n      tag_68\n      jump\t// in\n    tag_110:\n        /* \"#utility.yul\":2107:2188   */\n      tag_67\n      jump\t// in\n    tag_109:\n        /* \"#utility.yul\":2098:2188   */\n      swap1\n      pop\n        /* \"#utility.yul\":2208:2213   */\n      dup1\n        /* \"#utility.yul\":2237:2243   */\n      dup4\n        /* \"#utility.yul\":2230:2235   */\n      dup3\n        /* \"#utility.yul\":2223:2244   */\n      mstore\n        /* \"#utility.yul\":2271:2275   */\n      0x20\n        /* \"#utility.yul\":2264:2269   */\n      dup3\n        /* \"#utility.yul\":2260:2276   */\n      add\n        /* \"#utility.yul\":2253:2276   */\n      swap1\n      pop\n        /* \"#utility.yul\":2324:2328   */\n      0x20\n        /* \"#utility.yul\":2316:2322   */\n      dup5\n        /* \"#utility.yul\":2312:2329   */\n      mul\n        /* \"#utility.yul\":2304:2310   */\n      dup4\n        /* \"#utility.yul\":2300:2330   */\n      add\n        /* \"#utility.yul\":2353:2356   */\n      dup6\n        /* \"#utility.yul\":2345:2351   */\n      dup2\n        /* \"#utility.yul\":2342:2357   */\n      gt\n        /* \"#utility.yul\":2339:2461   */\n      iszero\n      tag_111\n      jumpi\n        /* \"#utility.yul\":2372:2451   */\n      tag_112\n      tag_69\n      jump\t// in\n    tag_112:\n        /* \"#utility.yul\":2339:2461   */\n    tag_111:\n        /* \"#utility.yul\":2487:2493   */\n      dup4\n        /* \"#utility.yul\":2470:2690   */\n    tag_113:\n        /* \"#utility.yul\":2504:2510   */\n      dup2\n        /* \"#utility.yul\":2499:2502   */\n      dup2\n        /* \"#utility.yul\":2496:2511   */\n      lt\n        /* \"#utility.yul\":2470:2690   */\n      iszero\n      tag_115\n      jumpi\n        /* \"#utility.yul\":2579:2582   */\n      dup1\n        /* \"#utility.yul\":2608:2645   */\n      tag_116\n        /* \"#utility.yul\":2641:2644   */\n      dup9\n        /* \"#utility.yul\":2629:2639   */\n      dup3\n        /* \"#utility.yul\":2608:2645   */\n      tag_72\n      jump\t// in\n    tag_116:\n        /* \"#utility.yul\":2603:2606   */\n      dup5\n        /* \"#utility.yul\":2596:2646   */\n      mstore\n        /* \"#utility.yul\":2675:2679   */\n      0x20\n        /* \"#utility.yul\":2670:2673   */\n      dup5\n        /* \"#utility.yul\":2666:2680   */\n      add\n        /* \"#utility.yul\":2659:2680   */\n      swap4\n      pop\n        /* \"#utility.yul\":2546:2690   */\n      pop\n        /* \"#utility.yul\":2530:2534   */\n      0x20\n        /* \"#utility.yul\":2525:2528   */\n      dup2\n        /* \"#utility.yul\":2521:2535   */\n      add\n        /* \"#utility.yul\":2514:2535   */\n      swap1\n      pop\n        /* \"#utility.yul\":2470:2690   */\n      jump(tag_113)\n    tag_115:\n        /* \"#utility.yul\":2474:2495   */\n      pop\n        /* \"#utility.yul\":2088:2696   */\n      pop\n      pop\n        /* \"#utility.yul\":1986:2696   */\n      swap4\n      swap3\n      pop\n      pop\n      pop\n      jump\t// out\n        /* \"#utility.yul\":2719:3089   */\n    tag_74:\n        /* \"#utility.yul\":2790:2795   */\n      0x00\n        /* \"#utility.yul\":2839:2842   */\n      dup3\n        /* \"#utility.yul\":2832:2836   */\n      0x1f\n        /* \"#utility.yul\":2824:2830   */\n      dup4\n        /* \"#utility.yul\":2820:2837   */\n      add\n        /* \"#utility.yul\":2816:2843   */\n      slt\n        /* \"#utility.yul\":2806:2928   */\n      tag_118\n      jumpi\n        /* \"#utility.yul\":2847:2926   */\n      tag_119\n      tag_64\n      jump\t// in\n    tag_119:\n        /* \"#utility.yul\":2806:2928   */\n    tag_118:\n        /* \"#utility.yul\":2964:2970   */\n      dup2\n        /* \"#utility.yul\":2951:2971   */\n      calldataload\n        /* \"#utility.yul\":2989:3083   */\n      tag_120\n        /* \"#utility.yul\":3079:3082   */\n      dup5\n        /* \"#utility.yul\":3071:3077   */\n      dup3\n        /* \"#utility.yul\":3064:3068   */\n      0x20\n        /* \"#utility.yul\":3056:3062   */\n      dup7\n        /* \"#utility.yul\":3052:3069   */\n      add\n        /* \"#utility.yul\":2989:3083   */\n      tag_73\n      jump\t// in\n    tag_120:\n        /* \"#utility.yul\":2980:3083   */\n      swap2\n      pop\n        /* \"#utility.yul\":2796:3089   */\n      pop\n        /* \"#utility.yul\":2719:3089   */\n      swap3\n      swap2\n      pop\n      pop\n      jump\t// out\n        /* \"#utility.yul\":3095:3634   */\n    tag_6:\n        /* \"#utility.yul\":3179:3185   */\n      0x00\n        /* \"#utility.yul\":3228:3230   */\n      0x20\n        /* \"#utility.yul\":3216:3225   */\n      dup3\n        /* \"#utility.yul\":3207:3214   */\n      dup5\n        /* \"#utility.yul\":3203:3226   */\n      sub\n        /* \"#utility.yul\":3199:3231   */\n      slt\n        /* \"#utility.yul\":3196:3315   */\n      iszero\n      tag_122\n      jumpi\n        /* \"#utility.yul\":3234:3313   */\n      tag_123\n      tag_62\n      jump\t// in\n    tag_123:\n        /* \"#utility.yul\":3196:3315   */\n    tag_122:\n        /* \"#utility.yul\":3382:3383   */\n      0x00\n        /* \"#utility.yul\":3371:3380   */\n      dup3\n        /* \"#utility.yul\":3367:3384   */\n      add\n        /* \"#utility.yul\":3354:3385   */\n      calldataload\n        /* \"#utility.yul\":3412:3430   */\n      0xffffffffffffffff\n        /* \"#utility.yul\":3404:3410   */\n      dup2\n        /* \"#utility.yul\":3401:3431   */\n      gt\n        /* \"#utility.yul\":3398:3515   */\n      iszero\n      tag_124\n      jumpi\n        /* \"#utility.yul\":3434:3513   */\n      tag_125\n      tag_63\n      jump\t// in\n    tag_125:\n        /* \"#utility.yul\":3398:3515   */\n    tag_124:\n        /* \"#utility.yul\":3539:3617   */\n      tag_126\n        /* \"#utility.yul\":3609:3616   */\n      dup5\n        /* \"#utility.yul\":3600:3606   */\n      dup3\n        /* \"#utility.yul\":3589:3598   */\n      dup6\n        /* \"#utility.yul\":3585:3607   */\n      add\n        /* \"#utility.yul\":3539:3617   */\n      tag_74\n      jump\t// in\n    tag_126:\n        /* \"#utility.yul\":3529:3617   */\n      swap2\n      pop\n        /* \"#utility.yul\":3325:3627   */\n      pop\n        /* \"#utility.yul\":3095:3634   */\n      swap3\n      swap2\n      pop\n      pop\n      jump\t// out\n        /* \"#utility.yul\":3640:3754   */\n    tag_75:\n        /* \"#utility.yul\":3707:3713   */\n      0x00\n        /* \"#utility.yul\":3741:3746   */\n      dup2\n        /* \"#utility.yul\":3735:3747   */\n      mload\n        /* \"#utility.yul\":3725:3747   */\n      swap1\n      pop\n        /* \"#utility.yul\":3640:3754   */\n      swap2\n      swap1\n      pop\n      jump\t// out\n        /* \"#utility.yul\":3760:3944   */\n    tag_76:\n        /* \"#utility.yul\":3859:3870   */\n      0x00\n        /* \"#utility.yul\":3893:3899   */\n      dup3\n        /* \"#utility.yul\":3888:3891   */\n      dup3\n        /* \"#utility.yul\":3881:3900   */\n      mstore\n        /* \"#utility.yul\":3933:3937   */\n      0x20\n        /* \"#utility.yul\":3928:3931   */\n      dup3\n        /* \"#utility.yul\":3924:3938   */\n      add\n        /* \"#utility.yul\":3909:3938   */\n      swap1\n      pop\n        /* \"#utility.yul\":3760:3944   */\n      swap3\n      swap2\n      pop\n      pop\n      jump\t// out\n        /* \"#utility.yul\":3950:4082   */\n    tag_77:\n        /* \"#utility.yul\":4017:4021   */\n      0x00\n        /* \"#utility.yul\":4040:4043   */\n      dup2\n        /* \"#utility.yul\":4032:4043   */\n      swap1\n      pop\n        /* \"#utility.yul\":4070:4074   */\n      0x20\n        /* \"#utility.yul\":4065:4068   */\n      dup3\n        /* \"#utility.yul\":4061:4075   */\n      add\n        /* \"#utility.yul\":4053:4075   */\n      swap1\n      pop\n        /* \"#utility.yul\":3950:4082   */\n      swap2\n      swap1\n      pop\n      jump\t// out\n        /* \"#utility.yul\":4088:4196   */\n    tag_78:\n        /* \"#utility.yul\":4165:4189   */\n      tag_131\n        /* \"#utility.yul\":4183:4188   */\n      dup2\n        /* \"#utility.yul\":4165:4189   */\n      tag_70\n      jump\t// in\n    tag_131:\n        /* \"#utility.yul\":4160:4163   */\n      dup3\n        /* \"#utility.yul\":4153:4190   */\n      mstore\n        /* \"#utility.yul\":4088:4196   */\n      pop\n      pop\n      jump\t// out\n        /* \"#utility.yul\":4202:4381   */\n    tag_79:\n        /* \"#utility.yul\":4271:4281   */\n      0x00\n        /* \"#utility.yul\":4292:4338   */\n      tag_133\n        /* \"#utility.yul\":4334:4337   */\n      dup4\n        /* \"#utility.yul\":4326:4332   */\n      dup4\n        /* \"#utility.yul\":4292:4338   */\n      tag_78\n      jump\t// in\n    tag_133:\n        /* \"#utility.yul\":4370:4374   */\n      0x20\n        /* \"#utility.yul\":4365:4368   */\n      dup4\n        /* \"#utility.yul\":4361:4375   */\n      add\n        /* \"#utility.yul\":4347:4375   */\n      swap1\n      pop\n        /* \"#utility.yul\":4202:4381   */\n      swap3\n      swap2\n      pop\n      pop\n      jump\t// out\n        /* \"#utility.yul\":4387:4500   */\n    tag_80:\n        /* \"#utility.yul\":4457:4461   */\n      0x00\n        /* \"#utility.yul\":4489:4493   */\n      0x20\n        /* \"#utility.yul\":4484:4487   */\n      dup3\n        /* \"#utility.yul\":4480:4494   */\n      add\n        /* \"#utility.yul\":4472:4494   */\n      swap1\n      pop\n        /* \"#utility.yul\":4387:4500   */\n      swap2\n      swap1\n      pop\n      jump\t// out\n        /* \"#utility.yul\":4536:5268   */\n    tag_81:\n        /* \"#utility.yul\":4655:4658   */\n      0x00\n        /* \"#utility.yul\":4684:4738   */\n      tag_136\n        /* \"#utility.yul\":4732:4737   */\n      dup3\n        /* \"#utility.yul\":4684:4738   */\n      tag_75\n      jump\t// in\n    tag_136:\n        /* \"#utility.yul\":4754:4840   */\n      tag_137\n        /* \"#utility.yul\":4833:4839   */\n      dup2\n        /* \"#utility.yul\":4828:4831   */\n      dup6\n        /* \"#utility.yul\":4754:4840   */\n      tag_76\n      jump\t// in\n    tag_137:\n        /* \"#utility.yul\":4747:4840   */\n      swap4\n      pop\n        /* \"#utility.yul\":4864:4920   */\n      tag_138\n        /* \"#utility.yul\":4914:4919   */\n      dup4\n        /* \"#utility.yul\":4864:4920   */\n      tag_77\n      jump\t// in\n    tag_138:\n        /* \"#utility.yul\":4943:4950   */\n      dup1\n        /* \"#utility.yul\":4974:4975   */\n      0x00\n        /* \"#utility.yul\":4959:5243   */\n    tag_139:\n        /* \"#utility.yul\":4984:4990   */\n      dup4\n        /* \"#utility.yul\":4981:4982   */\n      dup2\n        /* \"#utility.yul\":4978:4991   */\n      lt\n        /* \"#utility.yul\":4959:5243   */\n      iszero\n      tag_141\n      jumpi\n        /* \"#utility.yul\":5060:5066   */\n      dup2\n        /* \"#utility.yul\":5054:5067   */\n      mload\n        /* \"#utility.yul\":5087:5150   */\n      tag_142\n        /* \"#utility.yul\":5146:5149   */\n      dup9\n        /* \"#utility.yul\":5131:5144   */\n      dup3\n        /* \"#utility.yul\":5087:5150   */\n      tag_79\n      jump\t// in\n    tag_142:\n        /* \"#utility.yul\":5080:5150   */\n      swap8\n      pop\n        /* \"#utility.yul\":5173:5233   */\n      tag_143\n        /* \"#utility.yul\":5226:5232   */\n      dup4\n        /* \"#utility.yul\":5173:5233   */\n      tag_80\n      jump\t// in\n    tag_143:\n        /* \"#utility.yul\":5163:5233   */\n      swap3\n      pop\n        /* \"#utility.yul\":5019:5243   */\n      pop\n        /* \"#utility.yul\":5006:5007   */\n      0x01\n        /* \"#utility.yul\":5003:5004   */\n      dup2\n        /* \"#utility.yul\":4999:5008   */\n      add\n        /* \"#utility.yul\":4994:5008   */\n      swap1\n      pop\n        /* \"#utility.yul\":4959:5243   */\n      jump(tag_139)\n    tag_141:\n        /* \"#utility.yul\":4963:4977   */\n      pop\n        /* \"#utility.yul\":5259:5262   */\n      dup6\n        /* \"#utility.yul\":5252:5262   */\n      swap4\n      pop\n        /* \"#utility.yul\":4660:5268   */\n      pop\n      pop\n      pop\n        /* \"#utility.yul\":4536:5268   */\n      swap3\n      swap2\n      pop\n      pop\n      jump\t// out\n        /* \"#utility.yul\":5274:5908   */\n    tag_9:\n        /* \"#utility.yul\":5495:5499   */\n      0x00\n        /* \"#utility.yul\":5533:5535   */\n      0x40\n        /* \"#utility.yul\":5522:5531   */\n      dup3\n        /* \"#utility.yul\":5518:5536   */\n      add\n        /* \"#utility.yul\":5510:5536   */\n      swap1\n      pop\n        /* \"#utility.yul\":5582:5591   */\n      dup2\n        /* \"#utility.yul\":5576:5580   */\n      dup2\n        /* \"#utility.yul\":5572:5592   */\n      sub\n        /* \"#utility.yul\":5568:5569   */\n      0x00\n        /* \"#utility.yul\":5557:5566   */\n      dup4\n        /* \"#utility.yul\":5553:5570   */\n      add\n        /* \"#utility.yul\":5546:5593   */\n      mstore\n        /* \"#utility.yul\":5610:5718   */\n      tag_145\n        /* \"#utility.yul\":5713:5717   */\n      dup2\n        /* \"#utility.yul\":5704:5710   */\n      dup6\n        /* \"#utility.yul\":5610:5718   */\n      tag_81\n      jump\t// in\n    tag_145:\n        /* \"#utility.yul\":5602:5718   */\n      swap1\n      pop\n        /* \"#utility.yul\":5765:5774   */\n      dup2\n        /* \"#utility.yul\":5759:5763   */\n      dup2\n        /* \"#utility.yul\":5755:5775   */\n      sub\n        /* \"#utility.yul\":5750:5752   */\n      0x20\n        /* \"#utility.yul\":5739:5748   */\n      dup4\n        /* \"#utility.yul\":5735:5753   */\n      add\n        /* \"#utility.yul\":5728:5776   */\n      mstore\n        /* \"#utility.yul\":5793:5901   */\n      tag_146\n        /* \"#utility.yul\":5896:5900   */\n      dup2\n        /* \"#utility.yul\":5887:5893   */\n      dup5\n        /* \"#utility.yul\":5793:5901   */\n      tag_81\n      jump\t// in\n    tag_146:\n        /* \"#utility.yul\":5785:5901   */\n      swap1\n      pop\n        /* \"#utility.yul\":5274:5908   */\n      swap4\n      swap3\n      pop\n      pop\n      pop\n      jump\t// out\n        /* \"#utility.yul\":5914:6094   */\n    tag_82:\n        /* \"#utility.yul\":5962:6039   */\n      0x4e487b7100000000000000000000000000000000000000000000000000000000\n        /* \"#utility.yul\":5959:5960   */\n      0x00\n        /* \"#utility.yul\":5952:6040   */\n      mstore\n        /* \"#utility.yul\":6059:6063   */\n      0x11\n        /* \"#utility.yul\":6056:6057   */\n      0x04\n        /* \"#utility.yul\":6049:6064   */\n      mstore\n        /* \"#utility.yul\":6083:6087   */\n      0x24\n        /* \"#utility.yul\":6080:6081   */\n      0x00\n        /* \"#utility.yul\":6073:6088   */\n      revert\n        /* \"#utility.yul\":6100:6291   */\n    tag_18:\n        /* \"#utility.yul\":6140:6143   */\n      0x00\n        /* \"#utility.yul\":6159:6179   */\n      tag_149\n        /* \"#utility.yul\":6177:6178   */\n      dup3\n        /* \"#utility.yul\":6159:6179   */\n      tag_70\n      jump\t// in\n    tag_149:\n        /* \"#utility.yul\":6154:6179   */\n      swap2\n      pop\n        /* \"#utility.yul\":6193:6213   */\n      tag_150\n        /* \"#utility.yul\":6211:6212   */\n      dup4\n        /* \"#utility.yul\":6193:6213   */\n      tag_70\n      jump\t// in\n    tag_150:\n        /* \"#utility.yul\":6188:6213   */\n      swap3\n      pop\n        /* \"#utility.yul\":6236:6237   */\n      dup3\n        /* \"#utility.yul\":6233:6234   */\n      dup3\n        /* \"#utility.yul\":6229:6238   */\n      add\n        /* \"#utility.yul\":6222:6238   */\n      swap1\n      pop\n        /* \"#utility.yul\":6257:6260   */\n      dup1\n        /* \"#utility.yul\":6254:6255   */\n      dup3\n        /* \"#utility.yul\":6251:6261   */\n      gt\n        /* \"#utility.yul\":6248:6284   */\n      iszero\n      tag_151\n      jumpi\n        /* \"#utility.yul\":6264:6282   */\n      tag_152\n      tag_82\n      jump\t// in\n    tag_152:\n        /* \"#utility.yul\":6248:6284   */\n    tag_151:\n        /* \"#utility.yul\":6100:6291   */\n      swap3\n      swap2\n      pop\n      pop\n      jump\t// out\n        /* \"#utility.yul\":6297:6477   */\n    tag_21:\n        /* \"#utility.yul\":6345:6422   */\n      0x4e487b7100000000000000000000000000000000000000000000000000000000\n        /* \"#utility.yul\":6342:6343   */\n      0x00\n        /* \"#utility.yul\":6335:6423   */\n      mstore\n        /* \"#utility.yul\":6442:6446   */\n      0x32\n        /* \"#utility.yul\":6439:6440   */\n      0x04\n        /* \"#utility.yul\":6432:6447   */\n      mstore\n        /* \"#utility.yul\":6466:6470   */\n      0x24\n        /* \"#utility.yul\":6463:6464   */\n      0x00\n        /* \"#utility.yul\":6456:6471   */\n      revert\n        /* \"#utility.yul\":6483:6663   */\n    tag_83:\n        /* \"#utility.yul\":6531:6608   */\n      0x4e487b7100000000000000000000000000000000000000000000000000000000\n        /* \"#utility.yul\":6528:6529   */\n      0x00\n        /* \"#utility.yul\":6521:6609   */\n      mstore\n        /* \"#utility.yul\":6628:6632   */\n      0x12\n        /* \"#utility.yul\":6625:6626   */\n      0x04\n        /* \"#utility.yul\":6618:6633   */\n      mstore\n        /* \"#utility.yul\":6652:6656   */\n      0x24\n        /* \"#utility.yul\":6649:6650   */\n      0x00\n        /* \"#utility.yul\":6642:6657   */\n      revert\n        /* \"#utility.yul\":6669:6845   */\n    tag_34:\n        /* \"#utility.yul\":6701:6702   */\n      0x00\n        /* \"#utility.yul\":6718:6738   */\n      tag_156\n        /* \"#utility.yul\":6736:6737   */\n      dup3\n        /* \"#utility.yul\":6718:6738   */\n      tag_70\n      jump\t// in\n    tag_156:\n        /* \"#utility.yul\":6713:6738   */\n      swap2\n      pop\n        /* \"#utility.yul\":6752:6772   */\n      tag_157\n        /* \"#utility.yul\":6770:6771   */\n      dup4\n        /* \"#utility.yul\":6752:6772   */\n      tag_70\n      jump\t// in\n    tag_157:\n        /* \"#utility.yul\":6747:6772   */\n      swap3\n      pop\n        /* \"#utility.yul\":6791:6792   */\n      dup3\n        /* \"#utility.yul\":6781:6816   */\n      tag_158\n      jumpi\n        /* \"#utility.yul\":6796:6814   */\n      tag_159\n      tag_83\n      jump\t// in\n    tag_159:\n        /* \"#utility.yul\":6781:6816   */\n    tag_158:\n        /* \"#utility.yul\":6837:6838   */\n      dup3\n        /* \"#utility.yul\":6834:6835   */\n      dup3\n        /* \"#utility.yul\":6830:6839   */\n      mod\n        /* \"#utility.yul\":6825:6839   */\n      swap1\n      pop\n        /* \"#utility.yul\":6669:6845   */\n      swap3\n      swap2\n      pop\n      pop\n      jump\t// out\n        /* \"#utility.yul\":6851:7045   */\n    tag_36:\n        /* \"#utility.yul\":6891:6895   */\n      0x00\n        /* \"#utility.yul\":6911:6931   */\n      tag_161\n        /* \"#utility.yul\":6929:6930   */\n      dup3\n        /* \"#utility.yul\":6911:6931   */\n      tag_70\n      jump\t// in\n    tag_161:\n        /* \"#utility.yul\":6906:6931   */\n      swap2\n      pop\n        /* \"#utility.yul\":6945:6965   */\n      tag_162\n        /* \"#utility.yul\":6963:6964   */\n      dup4\n        /* \"#utility.yul\":6945:6965   */\n      tag_70\n      jump\t// in\n    tag_162:\n        /* \"#utility.yul\":6940:6965   */\n      swap3\n      pop\n        /* \"#utility.yul\":6989:6990   */\n      dup3\n        /* \"#utility.yul\":6986:6987   */\n      dup3\n        /* \"#utility.yul\":6982:6991   */\n      sub\n        /* \"#utility.yul\":6974:6991   */\n      swap1\n      pop\n        /* \"#utility.yul\":7013:7014   */\n      dup2\n        /* \"#utility.yul\":7007:7011   */\n      dup2\n        /* \"#utility.yul\":7004:7015   */\n      gt\n        /* \"#utility.yul\":7001:7038   */\n      iszero\n      tag_163\n      jumpi\n        /* \"#utility.yul\":7018:7036   */\n      tag_164\n      tag_82\n      jump\t// in\n    tag_164:\n        /* \"#utility.yul\":7001:7038   */\n    tag_163:\n        /* \"#utility.yul\":6851:7045   */\n      swap3\n      swap2\n      pop\n      pop\n      jump\t// out\n        /* \"#utility.yul\":7051:7236   */\n    tag_44:\n        /* \"#utility.yul\":7091:7092   */\n      0x00\n        /* \"#utility.yul\":7108:7128   */\n      tag_166\n        /* \"#utility.yul\":7126:7127   */\n      dup3\n        /* \"#utility.yul\":7108:7128   */\n      tag_70\n      jump\t// in\n    tag_166:\n        /* \"#utility.yul\":7103:7128   */\n      swap2\n      pop\n        /* \"#utility.yul\":7142:7162   */\n      tag_167\n        /* \"#utility.yul\":7160:7161   */\n      dup4\n        /* \"#utility.yul\":7142:7162   */\n      tag_70\n      jump\t// in\n    tag_167:\n        /* \"#utility.yul\":7137:7162   */\n      swap3\n      pop\n        /* \"#utility.yul\":7181:7182   */\n      dup3\n        /* \"#utility.yul\":7171:7206   */\n      tag_168\n      jumpi\n        /* \"#utility.yul\":7186:7204   */\n      tag_169\n      tag_83\n      jump\t// in\n    tag_169:\n        /* \"#utility.yul\":7171:7206   */\n    tag_168:\n        /* \"#utility.yul\":7228:7229   */\n      dup3\n        /* \"#utility.yul\":7225:7226   */\n      dup3\n        /* \"#utility.yul\":7221:7230   */\n      div\n        /* \"#utility.yul\":7216:7230   */\n      swap1\n      pop\n        /* \"#utility.yul\":7051:7236   */\n      swap3\n      swap2\n      pop\n      pop\n      jump\t// out\n\n    auxdata: 0xa26469706673582212201b45fe8e4b00fd771751d7130a7a1c6564b6db7f096b30c9c8aff992da6452de64736f6c634300081a0033\n}\n",
				"bytecode": {
					"linkReferences": {},
					"object": "6080604052348015600e575f80fd5b506107178061001c5f395ff3fe608060405234801561000f575f80fd5b5060043610610029575f3560e01c8063ca1606841461002d575b5f80fd5b61004760048036038101906100429190610461565b61005e565b60405161005592919061055f565b60405180910390f35b6060805f8390505f5b8451811015610156575f60018261007e91906105c1565b90505b85518110156101485785828151811061009d5761009c6105f4565b5b60200260200101518682815181106100b8576100b76105f4565b5b6020026020010151101561013b578582815181106100d9576100d86105f4565b5b60200260200101518682815181106100f4576100f36105f4565b5b602002602001015187838151811061010f5761010e6105f4565b5b60200260200101888581518110610129576101286105f4565b5b60200260200101828152508281525050505b8080600101915050610081565b508080600101915050610067565b505f60028251610166919061064e565b6002610172919061067e565b67ffffffffffffffff81111561018b5761018a6102f2565b5b6040519080825280602002602001820160405280156101b95781602001602082028036833780820191505090505b5090505f600283516101cb919061064e565b146102245781600283516101df91906106b1565b815181106101f0576101ef6105f4565b5b6020026020010151815f8151811061020b5761020a6105f4565b5b60200260200101818152505081819350935050506102c8565b8160016002845161023591906106b1565b61023f919061067e565b815181106102505761024f6105f4565b5b6020026020010151815f8151811061026b5761026a6105f4565b5b602002602001018181525050816002835161028691906106b1565b81518110610297576102966105f4565b5b6020026020010151816001815181106102b3576102b26105f4565b5b60200260200101818152505081819350935050505b915091565b5f604051905090565b5f80fd5b5f80fd5b5f80fd5b5f601f19601f8301169050919050565b7f4e487b71000000000000000000000000000000000000000000000000000000005f52604160045260245ffd5b610328826102e2565b810181811067ffffffffffffffff82111715610347576103466102f2565b5b80604052505050565b5f6103596102cd565b9050610365828261031f565b919050565b5f67ffffffffffffffff821115610384576103836102f2565b5b602082029050602081019050919050565b5f80fd5b5f819050919050565b6103ab81610399565b81146103b5575f80fd5b50565b5f813590506103c6816103a2565b92915050565b5f6103de6103d98461036a565b610350565b9050808382526020820190506020840283018581111561040157610400610395565b5b835b8181101561042a578061041688826103b8565b845260208401935050602081019050610403565b5050509392505050565b5f82601f830112610448576104476102de565b5b81356104588482602086016103cc565b91505092915050565b5f60208284031215610476576104756102d6565b5b5f82013567ffffffffffffffff811115610493576104926102da565b5b61049f84828501610434565b91505092915050565b5f81519050919050565b5f82825260208201905092915050565b5f819050602082019050919050565b6104da81610399565b82525050565b5f6104eb83836104d1565b60208301905092915050565b5f602082019050919050565b5f61050d826104a8565b61051781856104b2565b9350610522836104c2565b805f5b8381101561055257815161053988826104e0565b9750610544836104f7565b925050600181019050610525565b5085935050505092915050565b5f6040820190508181035f8301526105778185610503565b9050818103602083015261058b8184610503565b90509392505050565b7f4e487b71000000000000000000000000000000000000000000000000000000005f52601160045260245ffd5b5f6105cb82610399565b91506105d683610399565b92508282019050808211156105ee576105ed610594565b5b92915050565b7f4e487b71000000000000000000000000000000000000000000000000000000005f52603260045260245ffd5b7f4e487b71000000000000000000000000000000000000000000000000000000005f52601260045260245ffd5b5f61065882610399565b915061066383610399565b92508261067357610672610621565b5b828206905092915050565b5f61068882610399565b915061069383610399565b92508282039050818111156106ab576106aa610594565b5b92915050565b5f6106bb82610399565b91506106c683610399565b9250826106d6576106d5610621565b5b82820490509291505056fea26469706673582212201b45fe8e4b00fd771751d7130a7a1c6564b6db7f096b30c9c8aff992da6452de64736f6c634300081a0033",
					"opcodes": "PUSH1 0x80 PUSH1 0x40 MSTORE CALLVALUE DUP1 ISZERO PUSH1 0xE JUMPI PUSH0 DUP1 REVERT JUMPDEST POP PUSH2 0x717 DUP1 PUSH2 0x1C PUSH0 CODECOPY PUSH0 RETURN INVALID PUSH1 0x80 PUSH1 0x40 MSTORE CALLVALUE DUP1 ISZERO PUSH2 0xF JUMPI PUSH0 DUP1 REVERT JUMPDEST POP PUSH1 0x4 CALLDATASIZE LT PUSH2 0x29 JUMPI PUSH0 CALLDATALOAD PUSH1 0xE0 SHR DUP1 PUSH4 0xCA160684 EQ PUSH2 0x2D JUMPI JUMPDEST PUSH0 DUP1 REVERT JUMPDEST PUSH2 0x47 PUSH1 0x4 DUP1 CALLDATASIZE SUB DUP2 ADD SWAP1 PUSH2 0x42 SWAP2 SWAP1 PUSH2 0x461 JUMP JUMPDEST PUSH2 0x5E JUMP JUMPDEST PUSH1 0x40 MLOAD PUSH2 0x55 SWAP3 SWAP2 SWAP1 PUSH2 0x55F JUMP JUMPDEST PUSH1 0x40 MLOAD DUP1 SWAP2 SUB SWAP1 RETURN JUMPDEST PUSH1 0x60 DUP1 PUSH0 DUP4 SWAP1 POP PUSH0 JUMPDEST DUP5 MLOAD DUP2 LT ISZERO PUSH2 0x156 JUMPI PUSH0 PUSH1 0x1 DUP3 PUSH2 0x7E SWAP2 SWAP1 PUSH2 0x5C1 JUMP JUMPDEST SWAP1 POP JUMPDEST DUP6 MLOAD DUP2 LT ISZERO PUSH2 0x148 JUMPI DUP6 DUP3 DUP2 MLOAD DUP2 LT PUSH2 0x9D JUMPI PUSH2 0x9C PUSH2 0x5F4 JUMP JUMPDEST JUMPDEST PUSH1 0x20 MUL PUSH1 0x20 ADD ADD MLOAD DUP7 DUP3 DUP2 MLOAD DUP2 LT PUSH2 0xB8 JUMPI PUSH2 0xB7 PUSH2 0x5F4 JUMP JUMPDEST JUMPDEST PUSH1 0x20 MUL PUSH1 0x20 ADD ADD MLOAD LT ISZERO PUSH2 0x13B JUMPI DUP6 DUP3 DUP2 MLOAD DUP2 LT PUSH2 0xD9 JUMPI PUSH2 0xD8 PUSH2 0x5F4 JUMP JUMPDEST JUMPDEST PUSH1 0x20 MUL PUSH1 0x20 ADD ADD MLOAD DUP7 DUP3 DUP2 MLOAD DUP2 LT PUSH2 0xF4 JUMPI PUSH2 0xF3 PUSH2 0x5F4 JUMP JUMPDEST JUMPDEST PUSH1 0x20 MUL PUSH1 0x20 ADD ADD MLOAD DUP8 DUP4 DUP2 MLOAD DUP2 LT PUSH2 0x10F JUMPI PUSH2 0x10E PUSH2 0x5F4 JUMP JUMPDEST JUMPDEST PUSH1 0x20 MUL PUSH1 0x20 ADD ADD DUP9 DUP6 DUP2 MLOAD DUP2 LT PUSH2 0x129 JUMPI PUSH2 0x128 PUSH2 0x5F4 JUMP JUMPDEST JUMPDEST PUSH1 0x20 MUL PUSH1 0x20 ADD ADD DUP3 DUP2 MSTORE POP DUP3 DUP2 MSTORE POP POP POP JUMPDEST DUP1 DUP1 PUSH1 0x1 ADD SWAP2 POP POP PUSH2 0x81 JUMP JUMPDEST POP DUP1 DUP1 PUSH1 0x1 ADD SWAP2 POP POP PUSH2 0x67 JUMP JUMPDEST POP PUSH0 PUSH1 0x2 DUP3 MLOAD PUSH2 0x166 SWAP2 SWAP1 PUSH2 0x64E JUMP JUMPDEST PUSH1 0x2 PUSH2 0x172 SWAP2 SWAP1 PUSH2 0x67E JUMP JUMPDEST PUSH8 0xFFFFFFFFFFFFFFFF DUP2 GT ISZERO PUSH2 0x18B JUMPI PUSH2 0x18A PUSH2 0x2F2 JUMP JUMPDEST JUMPDEST PUSH1 0x40 MLOAD SWAP1 DUP1 DUP3 MSTORE DUP1 PUSH1 0x20 MUL PUSH1 0x20 ADD DUP3 ADD PUSH1 0x40 MSTORE DUP1 ISZERO PUSH2 0x1B9 JUMPI DUP2 PUSH1 0x20 ADD PUSH1 0x20 DUP3 MUL DUP1 CALLDATASIZE DUP4 CALLDATACOPY DUP1 DUP3 ADD SWAP2 POP POP SWAP1 POP JUMPDEST POP SWAP1 POP PUSH0 PUSH1 0x2 DUP4 MLOAD PUSH2 0x1CB SWAP2 SWAP1 PUSH2 0x64E JUMP JUMPDEST EQ PUSH2 0x224 JUMPI DUP2 PUSH1 0x2 DUP4 MLOAD PUSH2 0x1DF SWAP2 SWAP1 PUSH2 0x6B1 JUMP JUMPDEST DUP2 MLOAD DUP2 LT PUSH2 0x1F0 JUMPI PUSH2 0x1EF PUSH2 0x5F4 JUMP JUMPDEST JUMPDEST PUSH1 0x20 MUL PUSH1 0x20 ADD ADD MLOAD DUP2 PUSH0 DUP2 MLOAD DUP2 LT PUSH2 0x20B JUMPI PUSH2 0x20A PUSH2 0x5F4 JUMP JUMPDEST JUMPDEST PUSH1 0x20 MUL PUSH1 0x20 ADD ADD DUP2 DUP2 MSTORE POP POP DUP2 DUP2 SWAP4 POP SWAP4 POP POP POP PUSH2 0x2C8 JUMP JUMPDEST DUP2 PUSH1 0x1 PUSH1 0x2 DUP5 MLOAD PUSH2 0x235 SWAP2 SWAP1 PUSH2 0x6B1 JUMP JUMPDEST PUSH2 0x23F SWAP2 SWAP1 PUSH2 0x67E JUMP JUMPDEST DUP2 MLOAD DUP2 LT PUSH2 0x250 JUMPI PUSH2 0x24F PUSH2 0x5F4 JUMP JUMPDEST JUMPDEST PUSH1 0x20 MUL PUSH1 0x20 ADD ADD MLOAD DUP2 PUSH0 DUP2 MLOAD DUP2 LT PUSH2 0x26B JUMPI PUSH2 0x26A PUSH2 0x5F4 JUMP JUMPDEST JUMPDEST PUSH1 0x20 MUL PUSH1 0x20 ADD ADD DUP2 DUP2 MSTORE POP POP DUP2 PUSH1 0x2 DUP4 MLOAD PUSH2 0x286 SWAP2 SWAP1 PUSH2 0x6B1 JUMP JUMPDEST DUP2 MLOAD DUP2 LT PUSH2 0x297 JUMPI PUSH2 0x296 PUSH2 0x5F4 JUMP JUMPDEST JUMPDEST PUSH1 0x20 MUL PUSH1 0x20 ADD ADD MLOAD DUP2 PUSH1 0x1 DUP2 MLOAD DUP2 LT PUSH2 0x2B3 JUMPI PUSH2 0x2B2 PUSH2 0x5F4 JUMP JUMPDEST JUMPDEST PUSH1 0x20 MUL PUSH1 0x20 ADD ADD DUP2 DUP2 MSTORE POP POP DUP2 DUP2 SWAP4 POP SWAP4 POP POP POP JUMPDEST SWAP2 POP SWAP2 JUMP JUMPDEST PUSH0 PUSH1 0x40 MLOAD SWAP1 POP SWAP1 JUMP JUMPDEST PUSH0 DUP1 REVERT JUMPDEST PUSH0 DUP1 REVERT JUMPDEST PUSH0 DUP1 REVERT JUMPDEST PUSH0 PUSH1 0x1F NOT PUSH1 0x1F DUP4 ADD AND SWAP1 POP SWAP2 SWAP1 POP JUMP JUMPDEST PUSH32 0x4E487B7100000000000000000000000000000000000000000000000000000000 PUSH0 MSTORE PUSH1 0x41 PUSH1 0x4 MSTORE PUSH1 0x24 PUSH0 REVERT JUMPDEST PUSH2 0x328 DUP3 PUSH2 0x2E2 JUMP JUMPDEST DUP2 ADD DUP2 DUP2 LT PUSH8 0xFFFFFFFFFFFFFFFF DUP3 GT OR ISZERO PUSH2 0x347 JUMPI PUSH2 0x346 PUSH2 0x2F2 JUMP JUMPDEST JUMPDEST DUP1 PUSH1 0x40 MSTORE POP POP POP JUMP JUMPDEST PUSH0 PUSH2 0x359 PUSH2 0x2CD JUMP JUMPDEST SWAP1 POP PUSH2 0x365 DUP3 DUP3 PUSH2 0x31F JUMP JUMPDEST SWAP2 SWAP1 POP JUMP JUMPDEST PUSH0 PUSH8 0xFFFFFFFFFFFFFFFF DUP3 GT ISZERO PUSH2 0x384 JUMPI PUSH2 0x383 PUSH2 0x2F2 JUMP JUMPDEST JUMPDEST PUSH1 0x20 DUP3 MUL SWAP1 POP PUSH1 0x20 DUP2 ADD SWAP1 POP SWAP2 SWAP1 POP JUMP JUMPDEST PUSH0 DUP1 REVERT JUMPDEST PUSH0 DUP2 SWAP1 POP SWAP2 SWAP1 POP JUMP JUMPDEST PUSH2 0x3AB DUP2 PUSH2 0x399 JUMP JUMPDEST DUP2 EQ PUSH2 0x3B5 JUMPI PUSH0 DUP1 REVERT JUMPDEST POP JUMP JUMPDEST PUSH0 DUP2 CALLDATALOAD SWAP1 POP PUSH2 0x3C6 DUP2 PUSH2 0x3A2 JUMP JUMPDEST SWAP3 SWAP2 POP POP JUMP JUMPDEST PUSH0 PUSH2 0x3DE PUSH2 0x3D9 DUP5 PUSH2 0x36A JUMP JUMPDEST PUSH2 0x350 JUMP JUMPDEST SWAP1 POP DUP1 DUP4 DUP3 MSTORE PUSH1 0x20 DUP3 ADD SWAP1 POP PUSH1 0x20 DUP5 MUL DUP4 ADD DUP6 DUP2 GT ISZERO PUSH2 0x401 JUMPI PUSH2 0x400 PUSH2 0x395 JUMP JUMPDEST JUMPDEST DUP4 JUMPDEST DUP2 DUP2 LT ISZERO PUSH2 0x42A JUMPI DUP1 PUSH2 0x416 DUP9 DUP3 PUSH2 0x3B8 JUMP JUMPDEST DUP5 MSTORE PUSH1 0x20 DUP5 ADD SWAP4 POP POP PUSH1 0x20 DUP2 ADD SWAP1 POP PUSH2 0x403 JUMP JUMPDEST POP POP POP SWAP4 SWAP3 POP POP POP JUMP JUMPDEST PUSH0 DUP3 PUSH1 0x1F DUP4 ADD SLT PUSH2 0x448 JUMPI PUSH2 0x447 PUSH2 0x2DE JUMP JUMPDEST JUMPDEST DUP2 CALLDATALOAD PUSH2 0x458 DUP5 DUP3 PUSH1 0x20 DUP7 ADD PUSH2 0x3CC JUMP JUMPDEST SWAP2 POP POP SWAP3 SWAP2 POP POP JUMP JUMPDEST PUSH0 PUSH1 0x20 DUP3 DUP5 SUB SLT ISZERO PUSH2 0x476 JUMPI PUSH2 0x475 PUSH2 0x2D6 JUMP JUMPDEST JUMPDEST PUSH0 DUP3 ADD CALLDATALOAD PUSH8 0xFFFFFFFFFFFFFFFF DUP2 GT ISZERO PUSH2 0x493 JUMPI PUSH2 0x492 PUSH2 0x2DA JUMP JUMPDEST JUMPDEST PUSH2 0x49F DUP5 DUP3 DUP6 ADD PUSH2 0x434 JUMP JUMPDEST SWAP2 POP POP SWAP3 SWAP2 POP POP JUMP JUMPDEST PUSH0 DUP2 MLOAD SWAP1 POP SWAP2 SWAP1 POP JUMP JUMPDEST PUSH0 DUP3 DUP3 MSTORE PUSH1 0x20 DUP3 ADD SWAP1 POP SWAP3 SWAP2 POP POP JUMP JUMPDEST PUSH0 DUP2 SWAP1 POP PUSH1 0x20 DUP3 ADD SWAP1 POP SWAP2 SWAP1 POP JUMP JUMPDEST PUSH2 0x4DA DUP2 PUSH2 0x399 JUMP JUMPDEST DUP3 MSTORE POP POP JUMP JUMPDEST PUSH0 PUSH2 0x4EB DUP4 DUP4 PUSH2 0x4D1 JUMP JUMPDEST PUSH1 0x20 DUP4 ADD SWAP1 POP SWAP3 SWAP2 POP POP JUMP JUMPDEST PUSH0 PUSH1 0x20 DUP3 ADD SWAP1 POP SWAP2 SWAP1 POP JUMP JUMPDEST PUSH0 PUSH2 0x50D DUP3 PUSH2 0x4A8 JUMP JUMPDEST PUSH2 0x517 DUP2 DUP6 PUSH2 0x4B2 JUMP JUMPDEST SWAP4 POP PUSH2 0x522 DUP4 PUSH2 0x4C2 JUMP JUMPDEST DUP1 PUSH0 JUMPDEST DUP4 DUP2 LT ISZERO PUSH2 0x552 JUMPI DUP2 MLOAD PUSH2 0x539 DUP9 DUP3 PUSH2 0x4E0 JUMP JUMPDEST SWAP8 POP PUSH2 0x544 DUP4 PUSH2 0x4F7 JUMP JUMPDEST SWAP3 POP POP PUSH1 0x1 DUP2 ADD SWAP1 POP PUSH2 0x525 JUMP JUMPDEST POP DUP6 SWAP4 POP POP POP POP SWAP3 SWAP2 POP POP JUMP JUMPDEST PUSH0 PUSH1 0x40 DUP3 ADD SWAP1 POP DUP2 DUP2 SUB PUSH0 DUP4 ADD MSTORE PUSH2 0x577 DUP2 DUP6 PUSH2 0x503 JUMP JUMPDEST SWAP1 POP DUP2 DUP2 SUB PUSH1 0x20 DUP4 ADD MSTORE PUSH2 0x58B DUP2 DUP5 PUSH2 0x503 JUMP JUMPDEST SWAP1 POP SWAP4 SWAP3 POP POP POP JUMP JUMPDEST PUSH32 0x4E487B7100000000000000000000000000000000000000000000000000000000 PUSH0 MSTORE PUSH1 0x11 PUSH1 0x4 MSTORE PUSH1 0x24 PUSH0 REVERT JUMPDEST PUSH0 PUSH2 0x5CB DUP3 PUSH2 0x399 JUMP JUMPDEST SWAP2 POP PUSH2 0x5D6 DUP4 PUSH2 0x399 JUMP JUMPDEST SWAP3 POP DUP3 DUP3 ADD SWAP1 POP DUP1 DUP3 GT ISZERO PUSH2 0x5EE JUMPI PUSH2 0x5ED PUSH2 0x594 JUMP JUMPDEST JUMPDEST SWAP3 SWAP2 POP POP JUMP JUMPDEST PUSH32 0x4E487B7100000000000000000000000000000000000000000000000000000000 PUSH0 MSTORE PUSH1 0x32 PUSH1 0x4 MSTORE PUSH1 0x24 PUSH0 REVERT JUMPDEST PUSH32 0x4E487B7100000000000000000000000000000000000000000000000000000000 PUSH0 MSTORE PUSH1 0x12 PUSH1 0x4 MSTORE PUSH1 0x24 PUSH0 REVERT JUMPDEST PUSH0 PUSH2 0x658 DUP3 PUSH2 0x399 JUMP JUMPDEST SWAP2 POP PUSH2 0x663 DUP4 PUSH2 0x399 JUMP JUMPDEST SWAP3 POP DUP3 PUSH2 0x673 JUMPI PUSH2 0x672 PUSH2 0x621 JUMP JUMPDEST JUMPDEST DUP3 DUP3 MOD SWAP1 POP SWAP3 SWAP2 POP POP JUMP JUMPDEST PUSH0 PUSH2 0x688 DUP3 PUSH2 0x399 JUMP JUMPDEST SWAP2 POP PUSH2 0x693 DUP4 PUSH2 0x399 JUMP JUMPDEST SWAP3 POP DUP3 DUP3 SUB SWAP1 POP DUP2 DUP2 GT ISZERO PUSH2 0x6AB JUMPI PUSH2 0x6AA PUSH2 0x594 JUMP JUMPDEST JUMPDEST SWAP3 SWAP2 POP POP JUMP JUMPDEST PUSH0 PUSH2 0x6BB DUP3 PUSH2 0x399 JUMP JUMPDEST SWAP2 POP PUSH2 0x6C6 DUP4 PUSH2 0x399 JUMP JUMPDEST SWAP3 POP DUP3 PUSH2 0x6D6 JUMPI PUSH2 0x6D5 PUSH2 0x621 JUMP JUMPDEST JUMPDEST DUP3 DUP3 DIV SWAP1 POP SWAP3 SWAP2 POP POP JUMP INVALID LOG2 PUSH5 0x6970667358 0x22 SLT KECCAK256 SHL GASLIMIT INVALID DUP15 0x4B STOP REVERT PUSH24 0x1751D7130A7A1C6564B6DB7F096B30C9C8AFF992DA6452DE PUSH5 0x736F6C6343 STOP ADDMOD BYTE STOP CALLER "
				},
				"gasEstimates": {
					"creation": {
						"codeDepositCost": "363000",
						"executionCost": "397",
						"totalCost": "363397"
					},
					"external": {
						"test(uint256[])": "infinite"
					}
				},
				"methodIdentifiers": {
					"test(uint256[])": "ca160684"
				}
			},
			"storageLayout": {
				"storage": [],
				"types": null
			},
			"userdoc": {
				"kind": "user",
				"methods": {},
				"version": 1
			}
		}
	}
}