{
	"Solidity100/Solidity31-40.sol": {
		"Question37": {
			"abi": [
				{
					"inputs": [],
					"stateMutability": "nonpayable",
					"type": "constructor"
				},
				{
					"inputs": [],
					"name": "donateOneEther",
					"outputs": [
						{
							"internalType": "uint256",
							"name": "",
							"type": "uint256"
						}
					],
					"stateMutability": "payable",
					"type": "function"
				},
				{
					"inputs": [],
					"name": "donateOneFinney",
					"outputs": [
						{
							"internalType": "uint256",
							"name": "",
							"type": "uint256"
						}
					],
					"stateMutability": "payable",
					"type": "function"
				},
				{
					"inputs": [],
					"name": "donateOneWei",
					"outputs": [
						{
							"internalType": "uint256",
							"name": "",
							"type": "uint256"
						}
					],
					"stateMutability": "payable",
					"type": "function"
				},
				{
					"inputs": [],
					"name": "withdraw",
					"outputs": [
						{
							"internalType": "bool",
							"name": "",
							"type": "bool"
						}
					],
					"stateMutability": "nonpayable",
					"type": "function"
				}
			],
			"devdoc": {
				"kind": "dev",
				"methods": {},
				"version": 1
			},
			"evm": {
				"assembly": "    /* \"Solidity100/Solidity31-40.sol\":4104:5225  contract Question37{... */\n  mstore(0x40, 0x80)\n    /* \"Solidity100/Solidity31-40.sol\":4552:4602  constructor () {... */\n  callvalue\n  dup1\n  iszero\n  tag_1\n  jumpi\n  0x00\n  dup1\n  revert\ntag_1:\n  pop\n    /* \"Solidity100/Solidity31-40.sol\":4585:4595  msg.sender */\n  caller\n    /* \"Solidity100/Solidity31-40.sol\":4577:4582  owner */\n  0x00\n  dup1\n    /* \"Solidity100/Solidity31-40.sol\":4577:4595  owner = msg.sender */\n  0x0100\n  exp\n  dup2\n  sload\n  dup2\n  0xffffffffffffffffffffffffffffffffffffffff\n  mul\n  not\n  and\n  swap1\n  dup4\n  0xffffffffffffffffffffffffffffffffffffffff\n  and\n  mul\n  or\n  swap1\n  sstore\n  pop\n    /* \"Solidity100/Solidity31-40.sol\":4104:5225  contract Question37{... */\n  dataSize(sub_0)\n  dup1\n  dataOffset(sub_0)\n  0x00\n  codecopy\n  0x00\n  return\nstop\n\nsub_0: assembly {\n        /* \"Solidity100/Solidity31-40.sol\":4104:5225  contract Question37{... */\n      mstore(0x40, 0x80)\n      jumpi(tag_1, lt(calldatasize, 0x04))\n      shr(0xe0, calldataload(0x00))\n      dup1\n      0x3ccfd60b\n      eq\n      tag_2\n      jumpi\n      dup1\n      0x882c1454\n      eq\n      tag_3\n      jumpi\n      dup1\n      0x8f20e4df\n      eq\n      tag_4\n      jumpi\n      dup1\n      0xd491cffd\n      eq\n      tag_5\n      jumpi\n    tag_1:\n      0x00\n      dup1\n      revert\n        /* \"Solidity100/Solidity31-40.sol\":5037:5222  function withdraw() public returns(bool) {... */\n    tag_2:\n      callvalue\n      dup1\n      iszero\n      tag_6\n      jumpi\n      0x00\n      dup1\n      revert\n    tag_6:\n      pop\n      tag_7\n      tag_8\n      jump\t// in\n    tag_7:\n      mload(0x40)\n      tag_9\n      swap2\n      swap1\n      tag_10\n      jump\t// in\n    tag_9:\n      mload(0x40)\n      dup1\n      swap2\n      sub\n      swap1\n      return\n        /* \"Solidity100/Solidity31-40.sol\":4894:5031  function donateOneEther() public payable returns(uint) {... */\n    tag_3:\n      tag_11\n      tag_12\n      jump\t// in\n    tag_11:\n      mload(0x40)\n      tag_13\n      swap2\n      swap1\n      tag_14\n      jump\t// in\n    tag_13:\n      mload(0x40)\n      dup1\n      swap2\n      sub\n      swap1\n      return\n        /* \"Solidity100/Solidity31-40.sol\":4745:4888  function donateOneFinney() public payable returns(uint) {... */\n    tag_4:\n      tag_15\n      tag_16\n      jump\t// in\n    tag_15:\n      mload(0x40)\n      tag_17\n      swap2\n      swap1\n      tag_14\n      jump\t// in\n    tag_17:\n      mload(0x40)\n      dup1\n      swap2\n      sub\n      swap1\n      return\n        /* \"Solidity100/Solidity31-40.sol\":4608:4739  function donateOneWei() public payable returns(uint) {... */\n    tag_5:\n      tag_18\n      tag_19\n      jump\t// in\n    tag_18:\n      mload(0x40)\n      tag_20\n      swap2\n      swap1\n      tag_14\n      jump\t// in\n    tag_20:\n      mload(0x40)\n      dup1\n      swap2\n      sub\n      swap1\n      return\n        /* \"Solidity100/Solidity31-40.sol\":5037:5222  function withdraw() public returns(bool) {... */\n    tag_8:\n        /* \"Solidity100/Solidity31-40.sol\":5072:5076  bool */\n      0x00\n        /* \"Solidity100/Solidity31-40.sol\":5105:5115  msg.sender */\n      caller\n        /* \"Solidity100/Solidity31-40.sol\":5096:5115  owner == msg.sender */\n      0xffffffffffffffffffffffffffffffffffffffff\n      and\n        /* \"Solidity100/Solidity31-40.sol\":5096:5101  owner */\n      0x00\n      dup1\n      sload\n      swap1\n      0x0100\n      exp\n      swap1\n      div\n      0xffffffffffffffffffffffffffffffffffffffff\n      and\n        /* \"Solidity100/Solidity31-40.sol\":5096:5115  owner == msg.sender */\n      0xffffffffffffffffffffffffffffffffffffffff\n      and\n      eq\n        /* \"Solidity100/Solidity31-40.sol\":5088:5138  require(owner == msg.sender, \"only owner allowed\") */\n      tag_22\n      jumpi\n      mload(0x40)\n      0x08c379a000000000000000000000000000000000000000000000000000000000\n      dup2\n      mstore\n      0x04\n      add\n      tag_23\n      swap1\n      tag_24\n      jump\t// in\n    tag_23:\n      mload(0x40)\n      dup1\n      swap2\n      sub\n      swap1\n      revert\n    tag_22:\n        /* \"Solidity100/Solidity31-40.sol\":5156:5161  owner */\n      0x00\n      dup1\n      sload\n      swap1\n      0x0100\n      exp\n      swap1\n      div\n      0xffffffffffffffffffffffffffffffffffffffff\n      and\n        /* \"Solidity100/Solidity31-40.sol\":5148:5171  payable(owner).transfer */\n      0xffffffffffffffffffffffffffffffffffffffff\n      and\n        /* \"Solidity100/Solidity31-40.sol\":5148:5194  payable(owner).transfer(address(this).balance) */\n      0x08fc\n        /* \"Solidity100/Solidity31-40.sol\":5172:5193  address(this).balance */\n      selfbalance\n        /* \"Solidity100/Solidity31-40.sol\":5148:5194  payable(owner).transfer(address(this).balance) */\n      swap1\n      dup2\n      iszero\n      mul\n      swap1\n      mload(0x40)\n      0x00\n      mload(0x40)\n      dup1\n      dup4\n      sub\n      dup2\n      dup6\n      dup9\n      dup9\n      call\n      swap4\n      pop\n      pop\n      pop\n      pop\n      iszero\n      dup1\n      iszero\n      tag_26\n      jumpi\n      returndatasize\n      0x00\n      dup1\n      returndatacopy\n      revert(0x00, returndatasize)\n    tag_26:\n      pop\n        /* \"Solidity100/Solidity31-40.sol\":5211:5215  true */\n      0x01\n        /* \"Solidity100/Solidity31-40.sol\":5204:5215  return true */\n      swap1\n      pop\n        /* \"Solidity100/Solidity31-40.sol\":5037:5222  function withdraw() public returns(bool) {... */\n      swap1\n      jump\t// out\n        /* \"Solidity100/Solidity31-40.sol\":4894:5031  function donateOneEther() public payable returns(uint) {... */\n    tag_12:\n        /* \"Solidity100/Solidity31-40.sol\":4943:4947  uint */\n      0x00\n        /* \"Solidity100/Solidity31-40.sol\":4980:4987  1 ether */\n      0x0de0b6b3a7640000\n        /* \"Solidity100/Solidity31-40.sol\":4967:4976  msg.value */\n      callvalue\n        /* \"Solidity100/Solidity31-40.sol\":4967:4987  msg.value == 1 ether */\n      eq\n        /* \"Solidity100/Solidity31-40.sol\":4959:4998  require(msg.value == 1 ether, \"1ether\") */\n      tag_28\n      jumpi\n      mload(0x40)\n      0x08c379a000000000000000000000000000000000000000000000000000000000\n      dup2\n      mstore\n      0x04\n      add\n      tag_29\n      swap1\n      tag_30\n      jump\t// in\n    tag_29:\n      mload(0x40)\n      dup1\n      swap2\n      sub\n      swap1\n      revert\n    tag_28:\n        /* \"Solidity100/Solidity31-40.sol\":5015:5024  msg.value */\n      callvalue\n        /* \"Solidity100/Solidity31-40.sol\":5008:5024  return msg.value */\n      swap1\n      pop\n        /* \"Solidity100/Solidity31-40.sol\":4894:5031  function donateOneEther() public payable returns(uint) {... */\n      swap1\n      jump\t// out\n        /* \"Solidity100/Solidity31-40.sol\":4745:4888  function donateOneFinney() public payable returns(uint) {... */\n    tag_16:\n        /* \"Solidity100/Solidity31-40.sol\":4795:4799  uint */\n      0x00\n        /* \"Solidity100/Solidity31-40.sol\":4832:4843  0.001 ether */\n      0x038d7ea4c68000\n        /* \"Solidity100/Solidity31-40.sol\":4819:4828  msg.value */\n      callvalue\n        /* \"Solidity100/Solidity31-40.sol\":4819:4843  msg.value == 0.001 ether */\n      eq\n        /* \"Solidity100/Solidity31-40.sol\":4811:4855  require(msg.value == 0.001 ether, \"1finney\") */\n      tag_32\n      jumpi\n      mload(0x40)\n      0x08c379a000000000000000000000000000000000000000000000000000000000\n      dup2\n      mstore\n      0x04\n      add\n      tag_33\n      swap1\n      tag_34\n      jump\t// in\n    tag_33:\n      mload(0x40)\n      dup1\n      swap2\n      sub\n      swap1\n      revert\n    tag_32:\n        /* \"Solidity100/Solidity31-40.sol\":4872:4881  msg.value */\n      callvalue\n        /* \"Solidity100/Solidity31-40.sol\":4865:4881  return msg.value */\n      swap1\n      pop\n        /* \"Solidity100/Solidity31-40.sol\":4745:4888  function donateOneFinney() public payable returns(uint) {... */\n      swap1\n      jump\t// out\n        /* \"Solidity100/Solidity31-40.sol\":4608:4739  function donateOneWei() public payable returns(uint) {... */\n    tag_19:\n        /* \"Solidity100/Solidity31-40.sol\":4655:4659  uint */\n      0x00\n        /* \"Solidity100/Solidity31-40.sol\":4692:4697  1 wei */\n      0x01\n        /* \"Solidity100/Solidity31-40.sol\":4679:4688  msg.value */\n      callvalue\n        /* \"Solidity100/Solidity31-40.sol\":4679:4697  msg.value == 1 wei */\n      eq\n        /* \"Solidity100/Solidity31-40.sol\":4671:4706  require(msg.value == 1 wei, \"1wei\") */\n      tag_36\n      jumpi\n      mload(0x40)\n      0x08c379a000000000000000000000000000000000000000000000000000000000\n      dup2\n      mstore\n      0x04\n      add\n      tag_37\n      swap1\n      tag_38\n      jump\t// in\n    tag_37:\n      mload(0x40)\n      dup1\n      swap2\n      sub\n      swap1\n      revert\n    tag_36:\n        /* \"Solidity100/Solidity31-40.sol\":4723:4732  msg.value */\n      callvalue\n        /* \"Solidity100/Solidity31-40.sol\":4716:4732  return msg.value */\n      swap1\n      pop\n        /* \"Solidity100/Solidity31-40.sol\":4608:4739  function donateOneWei() public payable returns(uint) {... */\n      swap1\n      jump\t// out\n        /* \"#utility.yul\":7:97   */\n    tag_39:\n        /* \"#utility.yul\":41:48   */\n      0x00\n        /* \"#utility.yul\":84:89   */\n      dup2\n        /* \"#utility.yul\":77:90   */\n      iszero\n        /* \"#utility.yul\":70:91   */\n      iszero\n        /* \"#utility.yul\":59:91   */\n      swap1\n      pop\n        /* \"#utility.yul\":7:97   */\n      swap2\n      swap1\n      pop\n      jump\t// out\n        /* \"#utility.yul\":103:212   */\n    tag_40:\n        /* \"#utility.yul\":184:205   */\n      tag_55\n        /* \"#utility.yul\":199:204   */\n      dup2\n        /* \"#utility.yul\":184:205   */\n      tag_39\n      jump\t// in\n    tag_55:\n        /* \"#utility.yul\":179:182   */\n      dup3\n        /* \"#utility.yul\":172:206   */\n      mstore\n        /* \"#utility.yul\":103:212   */\n      pop\n      pop\n      jump\t// out\n        /* \"#utility.yul\":218:428   */\n    tag_10:\n        /* \"#utility.yul\":305:309   */\n      0x00\n        /* \"#utility.yul\":343:345   */\n      0x20\n        /* \"#utility.yul\":332:341   */\n      dup3\n        /* \"#utility.yul\":328:346   */\n      add\n        /* \"#utility.yul\":320:346   */\n      swap1\n      pop\n        /* \"#utility.yul\":356:421   */\n      tag_57\n        /* \"#utility.yul\":418:419   */\n      0x00\n        /* \"#utility.yul\":407:416   */\n      dup4\n        /* \"#utility.yul\":403:420   */\n      add\n        /* \"#utility.yul\":394:400   */\n      dup5\n        /* \"#utility.yul\":356:421   */\n      tag_40\n      jump\t// in\n    tag_57:\n        /* \"#utility.yul\":218:428   */\n      swap3\n      swap2\n      pop\n      pop\n      jump\t// out\n        /* \"#utility.yul\":434:511   */\n    tag_41:\n        /* \"#utility.yul\":471:478   */\n      0x00\n        /* \"#utility.yul\":500:505   */\n      dup2\n        /* \"#utility.yul\":489:505   */\n      swap1\n      pop\n        /* \"#utility.yul\":434:511   */\n      swap2\n      swap1\n      pop\n      jump\t// out\n        /* \"#utility.yul\":517:635   */\n    tag_42:\n        /* \"#utility.yul\":604:628   */\n      tag_60\n        /* \"#utility.yul\":622:627   */\n      dup2\n        /* \"#utility.yul\":604:628   */\n      tag_41\n      jump\t// in\n    tag_60:\n        /* \"#utility.yul\":599:602   */\n      dup3\n        /* \"#utility.yul\":592:629   */\n      mstore\n        /* \"#utility.yul\":517:635   */\n      pop\n      pop\n      jump\t// out\n        /* \"#utility.yul\":641:863   */\n    tag_14:\n        /* \"#utility.yul\":734:738   */\n      0x00\n        /* \"#utility.yul\":772:774   */\n      0x20\n        /* \"#utility.yul\":761:770   */\n      dup3\n        /* \"#utility.yul\":757:775   */\n      add\n        /* \"#utility.yul\":749:775   */\n      swap1\n      pop\n        /* \"#utility.yul\":785:856   */\n      tag_62\n        /* \"#utility.yul\":853:854   */\n      0x00\n        /* \"#utility.yul\":842:851   */\n      dup4\n        /* \"#utility.yul\":838:855   */\n      add\n        /* \"#utility.yul\":829:835   */\n      dup5\n        /* \"#utility.yul\":785:856   */\n      tag_42\n      jump\t// in\n    tag_62:\n        /* \"#utility.yul\":641:863   */\n      swap3\n      swap2\n      pop\n      pop\n      jump\t// out\n        /* \"#utility.yul\":869:1038   */\n    tag_43:\n        /* \"#utility.yul\":953:964   */\n      0x00\n        /* \"#utility.yul\":987:993   */\n      dup3\n        /* \"#utility.yul\":982:985   */\n      dup3\n        /* \"#utility.yul\":975:994   */\n      mstore\n        /* \"#utility.yul\":1027:1031   */\n      0x20\n        /* \"#utility.yul\":1022:1025   */\n      dup3\n        /* \"#utility.yul\":1018:1032   */\n      add\n        /* \"#utility.yul\":1003:1032   */\n      swap1\n      pop\n        /* \"#utility.yul\":869:1038   */\n      swap3\n      swap2\n      pop\n      pop\n      jump\t// out\n        /* \"#utility.yul\":1044:1212   */\n    tag_44:\n        /* \"#utility.yul\":1184:1204   */\n      0x6f6e6c79206f776e657220616c6c6f7765640000000000000000000000000000\n        /* \"#utility.yul\":1180:1181   */\n      0x00\n        /* \"#utility.yul\":1172:1178   */\n      dup3\n        /* \"#utility.yul\":1168:1182   */\n      add\n        /* \"#utility.yul\":1161:1205   */\n      mstore\n        /* \"#utility.yul\":1044:1212   */\n      pop\n      jump\t// out\n        /* \"#utility.yul\":1218:1584   */\n    tag_45:\n        /* \"#utility.yul\":1360:1363   */\n      0x00\n        /* \"#utility.yul\":1381:1448   */\n      tag_66\n        /* \"#utility.yul\":1445:1447   */\n      0x12\n        /* \"#utility.yul\":1440:1443   */\n      dup4\n        /* \"#utility.yul\":1381:1448   */\n      tag_43\n      jump\t// in\n    tag_66:\n        /* \"#utility.yul\":1374:1448   */\n      swap2\n      pop\n        /* \"#utility.yul\":1457:1550   */\n      tag_67\n        /* \"#utility.yul\":1546:1549   */\n      dup3\n        /* \"#utility.yul\":1457:1550   */\n      tag_44\n      jump\t// in\n    tag_67:\n        /* \"#utility.yul\":1575:1577   */\n      0x20\n        /* \"#utility.yul\":1570:1573   */\n      dup3\n        /* \"#utility.yul\":1566:1578   */\n      add\n        /* \"#utility.yul\":1559:1578   */\n      swap1\n      pop\n        /* \"#utility.yul\":1218:1584   */\n      swap2\n      swap1\n      pop\n      jump\t// out\n        /* \"#utility.yul\":1590:2009   */\n    tag_24:\n        /* \"#utility.yul\":1756:1760   */\n      0x00\n        /* \"#utility.yul\":1794:1796   */\n      0x20\n        /* \"#utility.yul\":1783:1792   */\n      dup3\n        /* \"#utility.yul\":1779:1797   */\n      add\n        /* \"#utility.yul\":1771:1797   */\n      swap1\n      pop\n        /* \"#utility.yul\":1843:1852   */\n      dup2\n        /* \"#utility.yul\":1837:1841   */\n      dup2\n        /* \"#utility.yul\":1833:1853   */\n      sub\n        /* \"#utility.yul\":1829:1830   */\n      0x00\n        /* \"#utility.yul\":1818:1827   */\n      dup4\n        /* \"#utility.yul\":1814:1831   */\n      add\n        /* \"#utility.yul\":1807:1854   */\n      mstore\n        /* \"#utility.yul\":1871:2002   */\n      tag_69\n        /* \"#utility.yul\":1997:2001   */\n      dup2\n        /* \"#utility.yul\":1871:2002   */\n      tag_45\n      jump\t// in\n    tag_69:\n        /* \"#utility.yul\":1863:2002   */\n      swap1\n      pop\n        /* \"#utility.yul\":1590:2009   */\n      swap2\n      swap1\n      pop\n      jump\t// out\n        /* \"#utility.yul\":2015:2171   */\n    tag_46:\n        /* \"#utility.yul\":2155:2163   */\n      0x3165746865720000000000000000000000000000000000000000000000000000\n        /* \"#utility.yul\":2151:2152   */\n      0x00\n        /* \"#utility.yul\":2143:2149   */\n      dup3\n        /* \"#utility.yul\":2139:2153   */\n      add\n        /* \"#utility.yul\":2132:2164   */\n      mstore\n        /* \"#utility.yul\":2015:2171   */\n      pop\n      jump\t// out\n        /* \"#utility.yul\":2177:2542   */\n    tag_47:\n        /* \"#utility.yul\":2319:2322   */\n      0x00\n        /* \"#utility.yul\":2340:2406   */\n      tag_72\n        /* \"#utility.yul\":2404:2405   */\n      0x06\n        /* \"#utility.yul\":2399:2402   */\n      dup4\n        /* \"#utility.yul\":2340:2406   */\n      tag_43\n      jump\t// in\n    tag_72:\n        /* \"#utility.yul\":2333:2406   */\n      swap2\n      pop\n        /* \"#utility.yul\":2415:2508   */\n      tag_73\n        /* \"#utility.yul\":2504:2507   */\n      dup3\n        /* \"#utility.yul\":2415:2508   */\n      tag_46\n      jump\t// in\n    tag_73:\n        /* \"#utility.yul\":2533:2535   */\n      0x20\n        /* \"#utility.yul\":2528:2531   */\n      dup3\n        /* \"#utility.yul\":2524:2536   */\n      add\n        /* \"#utility.yul\":2517:2536   */\n      swap1\n      pop\n        /* \"#utility.yul\":2177:2542   */\n      swap2\n      swap1\n      pop\n      jump\t// out\n        /* \"#utility.yul\":2548:2967   */\n    tag_30:\n        /* \"#utility.yul\":2714:2718   */\n      0x00\n        /* \"#utility.yul\":2752:2754   */\n      0x20\n        /* \"#utility.yul\":2741:2750   */\n      dup3\n        /* \"#utility.yul\":2737:2755   */\n      add\n        /* \"#utility.yul\":2729:2755   */\n      swap1\n      pop\n        /* \"#utility.yul\":2801:2810   */\n      dup2\n        /* \"#utility.yul\":2795:2799   */\n      dup2\n        /* \"#utility.yul\":2791:2811   */\n      sub\n        /* \"#utility.yul\":2787:2788   */\n      0x00\n        /* \"#utility.yul\":2776:2785   */\n      dup4\n        /* \"#utility.yul\":2772:2789   */\n      add\n        /* \"#utility.yul\":2765:2812   */\n      mstore\n        /* \"#utility.yul\":2829:2960   */\n      tag_75\n        /* \"#utility.yul\":2955:2959   */\n      dup2\n        /* \"#utility.yul\":2829:2960   */\n      tag_47\n      jump\t// in\n    tag_75:\n        /* \"#utility.yul\":2821:2960   */\n      swap1\n      pop\n        /* \"#utility.yul\":2548:2967   */\n      swap2\n      swap1\n      pop\n      jump\t// out\n        /* \"#utility.yul\":2973:3130   */\n    tag_48:\n        /* \"#utility.yul\":3113:3122   */\n      0x3166696e6e657900000000000000000000000000000000000000000000000000\n        /* \"#utility.yul\":3109:3110   */\n      0x00\n        /* \"#utility.yul\":3101:3107   */\n      dup3\n        /* \"#utility.yul\":3097:3111   */\n      add\n        /* \"#utility.yul\":3090:3123   */\n      mstore\n        /* \"#utility.yul\":2973:3130   */\n      pop\n      jump\t// out\n        /* \"#utility.yul\":3136:3501   */\n    tag_49:\n        /* \"#utility.yul\":3278:3281   */\n      0x00\n        /* \"#utility.yul\":3299:3365   */\n      tag_78\n        /* \"#utility.yul\":3363:3364   */\n      0x07\n        /* \"#utility.yul\":3358:3361   */\n      dup4\n        /* \"#utility.yul\":3299:3365   */\n      tag_43\n      jump\t// in\n    tag_78:\n        /* \"#utility.yul\":3292:3365   */\n      swap2\n      pop\n        /* \"#utility.yul\":3374:3467   */\n      tag_79\n        /* \"#utility.yul\":3463:3466   */\n      dup3\n        /* \"#utility.yul\":3374:3467   */\n      tag_48\n      jump\t// in\n    tag_79:\n        /* \"#utility.yul\":3492:3494   */\n      0x20\n        /* \"#utility.yul\":3487:3490   */\n      dup3\n        /* \"#utility.yul\":3483:3495   */\n      add\n        /* \"#utility.yul\":3476:3495   */\n      swap1\n      pop\n        /* \"#utility.yul\":3136:3501   */\n      swap2\n      swap1\n      pop\n      jump\t// out\n        /* \"#utility.yul\":3507:3926   */\n    tag_34:\n        /* \"#utility.yul\":3673:3677   */\n      0x00\n        /* \"#utility.yul\":3711:3713   */\n      0x20\n        /* \"#utility.yul\":3700:3709   */\n      dup3\n        /* \"#utility.yul\":3696:3714   */\n      add\n        /* \"#utility.yul\":3688:3714   */\n      swap1\n      pop\n        /* \"#utility.yul\":3760:3769   */\n      dup2\n        /* \"#utility.yul\":3754:3758   */\n      dup2\n        /* \"#utility.yul\":3750:3770   */\n      sub\n        /* \"#utility.yul\":3746:3747   */\n      0x00\n        /* \"#utility.yul\":3735:3744   */\n      dup4\n        /* \"#utility.yul\":3731:3748   */\n      add\n        /* \"#utility.yul\":3724:3771   */\n      mstore\n        /* \"#utility.yul\":3788:3919   */\n      tag_81\n        /* \"#utility.yul\":3914:3918   */\n      dup2\n        /* \"#utility.yul\":3788:3919   */\n      tag_49\n      jump\t// in\n    tag_81:\n        /* \"#utility.yul\":3780:3919   */\n      swap1\n      pop\n        /* \"#utility.yul\":3507:3926   */\n      swap2\n      swap1\n      pop\n      jump\t// out\n        /* \"#utility.yul\":3932:4086   */\n    tag_50:\n        /* \"#utility.yul\":4072:4078   */\n      0x3177656900000000000000000000000000000000000000000000000000000000\n        /* \"#utility.yul\":4068:4069   */\n      0x00\n        /* \"#utility.yul\":4060:4066   */\n      dup3\n        /* \"#utility.yul\":4056:4070   */\n      add\n        /* \"#utility.yul\":4049:4079   */\n      mstore\n        /* \"#utility.yul\":3932:4086   */\n      pop\n      jump\t// out\n        /* \"#utility.yul\":4092:4457   */\n    tag_51:\n        /* \"#utility.yul\":4234:4237   */\n      0x00\n        /* \"#utility.yul\":4255:4321   */\n      tag_84\n        /* \"#utility.yul\":4319:4320   */\n      0x04\n        /* \"#utility.yul\":4314:4317   */\n      dup4\n        /* \"#utility.yul\":4255:4321   */\n      tag_43\n      jump\t// in\n    tag_84:\n        /* \"#utility.yul\":4248:4321   */\n      swap2\n      pop\n        /* \"#utility.yul\":4330:4423   */\n      tag_85\n        /* \"#utility.yul\":4419:4422   */\n      dup3\n        /* \"#utility.yul\":4330:4423   */\n      tag_50\n      jump\t// in\n    tag_85:\n        /* \"#utility.yul\":4448:4450   */\n      0x20\n        /* \"#utility.yul\":4443:4446   */\n      dup3\n        /* \"#utility.yul\":4439:4451   */\n      add\n        /* \"#utility.yul\":4432:4451   */\n      swap1\n      pop\n        /* \"#utility.yul\":4092:4457   */\n      swap2\n      swap1\n      pop\n      jump\t// out\n        /* \"#utility.yul\":4463:4882   */\n    tag_38:\n        /* \"#utility.yul\":4629:4633   */\n      0x00\n        /* \"#utility.yul\":4667:4669   */\n      0x20\n        /* \"#utility.yul\":4656:4665   */\n      dup3\n        /* \"#utility.yul\":4652:4670   */\n      add\n        /* \"#utility.yul\":4644:4670   */\n      swap1\n      pop\n        /* \"#utility.yul\":4716:4725   */\n      dup2\n        /* \"#utility.yul\":4710:4714   */\n      dup2\n        /* \"#utility.yul\":4706:4726   */\n      sub\n        /* \"#utility.yul\":4702:4703   */\n      0x00\n        /* \"#utility.yul\":4691:4700   */\n      dup4\n        /* \"#utility.yul\":4687:4704   */\n      add\n        /* \"#utility.yul\":4680:4727   */\n      mstore\n        /* \"#utility.yul\":4744:4875   */\n      tag_87\n        /* \"#utility.yul\":4870:4874   */\n      dup2\n        /* \"#utility.yul\":4744:4875   */\n      tag_51\n      jump\t// in\n    tag_87:\n        /* \"#utility.yul\":4736:4875   */\n      swap1\n      pop\n        /* \"#utility.yul\":4463:4882   */\n      swap2\n      swap1\n      pop\n      jump\t// out\n\n    auxdata: 0xa2646970667358221220b3ffdbf5f2e0218524126e9496dd097d5773e33e8d5634222a9edc226515717064736f6c634300081a0033\n}\n",
				"bytecode": {
					"linkReferences": {},
					"object": "6080604052348015600e575f80fd5b50335f806101000a81548173ffffffffffffffffffffffffffffffffffffffff021916908373ffffffffffffffffffffffffffffffffffffffff1602179055506104f38061005b5f395ff3fe60806040526004361061003e575f3560e01c80633ccfd60b14610042578063882c14541461006c5780638f20e4df1461008a578063d491cffd146100a8575b5f80fd5b34801561004d575f80fd5b506100566100c6565b60405161006391906102c3565b60405180910390f35b6100746101be565b60405161008191906102f4565b60405180910390f35b61009261020f565b60405161009f91906102f4565b60405180910390f35b6100b061025f565b6040516100bd91906102f4565b60405180910390f35b5f3373ffffffffffffffffffffffffffffffffffffffff165f8054906101000a900473ffffffffffffffffffffffffffffffffffffffff1673ffffffffffffffffffffffffffffffffffffffff1614610154576040517f08c379a000000000000000000000000000000000000000000000000000000000815260040161014b90610367565b60405180910390fd5b5f8054906101000a900473ffffffffffffffffffffffffffffffffffffffff1673ffffffffffffffffffffffffffffffffffffffff166108fc4790811502906040515f60405180830381858888f193505050501580156101b6573d5f803e3d5ffd5b506001905090565b5f670de0b6b3a76400003414610209576040517f08c379a0000000000000000000000000000000000000000000000000000000008152600401610200906103cf565b60405180910390fd5b34905090565b5f66038d7ea4c680003414610259576040517f08c379a000000000000000000000000000000000000000000000000000000000815260040161025090610437565b60405180910390fd5b34905090565b5f600134146102a3576040517f08c379a000000000000000000000000000000000000000000000000000000000815260040161029a9061049f565b60405180910390fd5b34905090565b5f8115159050919050565b6102bd816102a9565b82525050565b5f6020820190506102d65f8301846102b4565b92915050565b5f819050919050565b6102ee816102dc565b82525050565b5f6020820190506103075f8301846102e5565b92915050565b5f82825260208201905092915050565b7f6f6e6c79206f776e657220616c6c6f77656400000000000000000000000000005f82015250565b5f61035160128361030d565b915061035c8261031d565b602082019050919050565b5f6020820190508181035f83015261037e81610345565b9050919050565b7f31657468657200000000000000000000000000000000000000000000000000005f82015250565b5f6103b960068361030d565b91506103c482610385565b602082019050919050565b5f6020820190508181035f8301526103e6816103ad565b9050919050565b7f3166696e6e6579000000000000000000000000000000000000000000000000005f82015250565b5f61042160078361030d565b915061042c826103ed565b602082019050919050565b5f6020820190508181035f83015261044e81610415565b9050919050565b7f31776569000000000000000000000000000000000000000000000000000000005f82015250565b5f61048960048361030d565b915061049482610455565b602082019050919050565b5f6020820190508181035f8301526104b68161047d565b905091905056fea2646970667358221220b3ffdbf5f2e0218524126e9496dd097d5773e33e8d5634222a9edc226515717064736f6c634300081a0033",
					"opcodes": "PUSH1 0x80 PUSH1 0x40 MSTORE CALLVALUE DUP1 ISZERO PUSH1 0xE JUMPI PUSH0 DUP1 REVERT JUMPDEST POP CALLER PUSH0 DUP1 PUSH2 0x100 EXP DUP2 SLOAD DUP2 PUSH20 0xFFFFFFFFFFFFFFFFFFFFFFFFFFFFFFFFFFFFFFFF MUL NOT AND SWAP1 DUP4 PUSH20 0xFFFFFFFFFFFFFFFFFFFFFFFFFFFFFFFFFFFFFFFF AND MUL OR SWAP1 SSTORE POP PUSH2 0x4F3 DUP1 PUSH2 0x5B PUSH0 CODECOPY PUSH0 RETURN INVALID PUSH1 0x80 PUSH1 0x40 MSTORE PUSH1 0x4 CALLDATASIZE LT PUSH2 0x3E JUMPI PUSH0 CALLDATALOAD PUSH1 0xE0 SHR DUP1 PUSH4 0x3CCFD60B EQ PUSH2 0x42 JUMPI DUP1 PUSH4 0x882C1454 EQ PUSH2 0x6C JUMPI DUP1 PUSH4 0x8F20E4DF EQ PUSH2 0x8A JUMPI DUP1 PUSH4 0xD491CFFD EQ PUSH2 0xA8 JUMPI JUMPDEST PUSH0 DUP1 REVERT JUMPDEST CALLVALUE DUP1 ISZERO PUSH2 0x4D JUMPI PUSH0 DUP1 REVERT JUMPDEST POP PUSH2 0x56 PUSH2 0xC6 JUMP JUMPDEST PUSH1 0x40 MLOAD PUSH2 0x63 SWAP2 SWAP1 PUSH2 0x2C3 JUMP JUMPDEST PUSH1 0x40 MLOAD DUP1 SWAP2 SUB SWAP1 RETURN JUMPDEST PUSH2 0x74 PUSH2 0x1BE JUMP JUMPDEST PUSH1 0x40 MLOAD PUSH2 0x81 SWAP2 SWAP1 PUSH2 0x2F4 JUMP JUMPDEST PUSH1 0x40 MLOAD DUP1 SWAP2 SUB SWAP1 RETURN JUMPDEST PUSH2 0x92 PUSH2 0x20F JUMP JUMPDEST PUSH1 0x40 MLOAD PUSH2 0x9F SWAP2 SWAP1 PUSH2 0x2F4 JUMP JUMPDEST PUSH1 0x40 MLOAD DUP1 SWAP2 SUB SWAP1 RETURN JUMPDEST PUSH2 0xB0 PUSH2 0x25F JUMP JUMPDEST PUSH1 0x40 MLOAD PUSH2 0xBD SWAP2 SWAP1 PUSH2 0x2F4 JUMP JUMPDEST PUSH1 0x40 MLOAD DUP1 SWAP2 SUB SWAP1 RETURN JUMPDEST PUSH0 CALLER PUSH20 0xFFFFFFFFFFFFFFFFFFFFFFFFFFFFFFFFFFFFFFFF AND PUSH0 DUP1 SLOAD SWAP1 PUSH2 0x100 EXP SWAP1 DIV PUSH20 0xFFFFFFFFFFFFFFFFFFFFFFFFFFFFFFFFFFFFFFFF AND PUSH20 0xFFFFFFFFFFFFFFFFFFFFFFFFFFFFFFFFFFFFFFFF AND EQ PUSH2 0x154 JUMPI PUSH1 0x40 MLOAD PUSH32 0x8C379A000000000000000000000000000000000000000000000000000000000 DUP2 MSTORE PUSH1 0x4 ADD PUSH2 0x14B SWAP1 PUSH2 0x367 JUMP JUMPDEST PUSH1 0x40 MLOAD DUP1 SWAP2 SUB SWAP1 REVERT JUMPDEST PUSH0 DUP1 SLOAD SWAP1 PUSH2 0x100 EXP SWAP1 DIV PUSH20 0xFFFFFFFFFFFFFFFFFFFFFFFFFFFFFFFFFFFFFFFF AND PUSH20 0xFFFFFFFFFFFFFFFFFFFFFFFFFFFFFFFFFFFFFFFF AND PUSH2 0x8FC SELFBALANCE SWAP1 DUP2 ISZERO MUL SWAP1 PUSH1 0x40 MLOAD PUSH0 PUSH1 0x40 MLOAD DUP1 DUP4 SUB DUP2 DUP6 DUP9 DUP9 CALL SWAP4 POP POP POP POP ISZERO DUP1 ISZERO PUSH2 0x1B6 JUMPI RETURNDATASIZE PUSH0 DUP1 RETURNDATACOPY RETURNDATASIZE PUSH0 REVERT JUMPDEST POP PUSH1 0x1 SWAP1 POP SWAP1 JUMP JUMPDEST PUSH0 PUSH8 0xDE0B6B3A7640000 CALLVALUE EQ PUSH2 0x209 JUMPI PUSH1 0x40 MLOAD PUSH32 0x8C379A000000000000000000000000000000000000000000000000000000000 DUP2 MSTORE PUSH1 0x4 ADD PUSH2 0x200 SWAP1 PUSH2 0x3CF JUMP JUMPDEST PUSH1 0x40 MLOAD DUP1 SWAP2 SUB SWAP1 REVERT JUMPDEST CALLVALUE SWAP1 POP SWAP1 JUMP JUMPDEST PUSH0 PUSH7 0x38D7EA4C68000 CALLVALUE EQ PUSH2 0x259 JUMPI PUSH1 0x40 MLOAD PUSH32 0x8C379A000000000000000000000000000000000000000000000000000000000 DUP2 MSTORE PUSH1 0x4 ADD PUSH2 0x250 SWAP1 PUSH2 0x437 JUMP JUMPDEST PUSH1 0x40 MLOAD DUP1 SWAP2 SUB SWAP1 REVERT JUMPDEST CALLVALUE SWAP1 POP SWAP1 JUMP JUMPDEST PUSH0 PUSH1 0x1 CALLVALUE EQ PUSH2 0x2A3 JUMPI PUSH1 0x40 MLOAD PUSH32 0x8C379A000000000000000000000000000000000000000000000000000000000 DUP2 MSTORE PUSH1 0x4 ADD PUSH2 0x29A SWAP1 PUSH2 0x49F JUMP JUMPDEST PUSH1 0x40 MLOAD DUP1 SWAP2 SUB SWAP1 REVERT JUMPDEST CALLVALUE SWAP1 POP SWAP1 JUMP JUMPDEST PUSH0 DUP2 ISZERO ISZERO SWAP1 POP SWAP2 SWAP1 POP JUMP JUMPDEST PUSH2 0x2BD DUP2 PUSH2 0x2A9 JUMP JUMPDEST DUP3 MSTORE POP POP JUMP JUMPDEST PUSH0 PUSH1 0x20 DUP3 ADD SWAP1 POP PUSH2 0x2D6 PUSH0 DUP4 ADD DUP5 PUSH2 0x2B4 JUMP JUMPDEST SWAP3 SWAP2 POP POP JUMP JUMPDEST PUSH0 DUP2 SWAP1 POP SWAP2 SWAP1 POP JUMP JUMPDEST PUSH2 0x2EE DUP2 PUSH2 0x2DC JUMP JUMPDEST DUP3 MSTORE POP POP JUMP JUMPDEST PUSH0 PUSH1 0x20 DUP3 ADD SWAP1 POP PUSH2 0x307 PUSH0 DUP4 ADD DUP5 PUSH2 0x2E5 JUMP JUMPDEST SWAP3 SWAP2 POP POP JUMP JUMPDEST PUSH0 DUP3 DUP3 MSTORE PUSH1 0x20 DUP3 ADD SWAP1 POP SWAP3 SWAP2 POP POP JUMP JUMPDEST PUSH32 0x6F6E6C79206F776E657220616C6C6F7765640000000000000000000000000000 PUSH0 DUP3 ADD MSTORE POP JUMP JUMPDEST PUSH0 PUSH2 0x351 PUSH1 0x12 DUP4 PUSH2 0x30D JUMP JUMPDEST SWAP2 POP PUSH2 0x35C DUP3 PUSH2 0x31D JUMP JUMPDEST PUSH1 0x20 DUP3 ADD SWAP1 POP SWAP2 SWAP1 POP JUMP JUMPDEST PUSH0 PUSH1 0x20 DUP3 ADD SWAP1 POP DUP2 DUP2 SUB PUSH0 DUP4 ADD MSTORE PUSH2 0x37E DUP2 PUSH2 0x345 JUMP JUMPDEST SWAP1 POP SWAP2 SWAP1 POP JUMP JUMPDEST PUSH32 0x3165746865720000000000000000000000000000000000000000000000000000 PUSH0 DUP3 ADD MSTORE POP JUMP JUMPDEST PUSH0 PUSH2 0x3B9 PUSH1 0x6 DUP4 PUSH2 0x30D JUMP JUMPDEST SWAP2 POP PUSH2 0x3C4 DUP3 PUSH2 0x385 JUMP JUMPDEST PUSH1 0x20 DUP3 ADD SWAP1 POP SWAP2 SWAP1 POP JUMP JUMPDEST PUSH0 PUSH1 0x20 DUP3 ADD SWAP1 POP DUP2 DUP2 SUB PUSH0 DUP4 ADD MSTORE PUSH2 0x3E6 DUP2 PUSH2 0x3AD JUMP JUMPDEST SWAP1 POP SWAP2 SWAP1 POP JUMP JUMPDEST PUSH32 0x3166696E6E657900000000000000000000000000000000000000000000000000 PUSH0 DUP3 ADD MSTORE POP JUMP JUMPDEST PUSH0 PUSH2 0x421 PUSH1 0x7 DUP4 PUSH2 0x30D JUMP JUMPDEST SWAP2 POP PUSH2 0x42C DUP3 PUSH2 0x3ED JUMP JUMPDEST PUSH1 0x20 DUP3 ADD SWAP1 POP SWAP2 SWAP1 POP JUMP JUMPDEST PUSH0 PUSH1 0x20 DUP3 ADD SWAP1 POP DUP2 DUP2 SUB PUSH0 DUP4 ADD MSTORE PUSH2 0x44E DUP2 PUSH2 0x415 JUMP JUMPDEST SWAP1 POP SWAP2 SWAP1 POP JUMP JUMPDEST PUSH32 0x3177656900000000000000000000000000000000000000000000000000000000 PUSH0 DUP3 ADD MSTORE POP JUMP JUMPDEST PUSH0 PUSH2 0x489 PUSH1 0x4 DUP4 PUSH2 0x30D JUMP JUMPDEST SWAP2 POP PUSH2 0x494 DUP3 PUSH2 0x455 JUMP JUMPDEST PUSH1 0x20 DUP3 ADD SWAP1 POP SWAP2 SWAP1 POP JUMP JUMPDEST PUSH0 PUSH1 0x20 DUP3 ADD SWAP1 POP DUP2 DUP2 SUB PUSH0 DUP4 ADD MSTORE PUSH2 0x4B6 DUP2 PUSH2 0x47D JUMP JUMPDEST SWAP1 POP SWAP2 SWAP1 POP JUMP INVALID LOG2 PUSH5 0x6970667358 0x22 SLT KECCAK256 0xB3 SELFDESTRUCT 0xDB CREATE2 CALLCODE 0xE0 0x21 DUP6 0x24 SLT PUSH15 0x9496DD097D5773E33E8D5634222A9E 0xDC 0x22 PUSH6 0x15717064736F PUSH13 0x634300081A0033000000000000 "
				},
				"gasEstimates": {
					"creation": {
						"codeDepositCost": "253400",
						"executionCost": "24557",
						"totalCost": "277957"
					},
					"external": {
						"donateOneEther()": "427",
						"donateOneFinney()": "449",
						"donateOneWei()": "471",
						"withdraw()": "infinite"
					}
				},
				"methodIdentifiers": {
					"donateOneEther()": "882c1454",
					"donateOneFinney()": "8f20e4df",
					"donateOneWei()": "d491cffd",
					"withdraw()": "3ccfd60b"
				}
			},
			"storageLayout": {
				"storage": [
					{
						"astId": 380,
						"contract": "Solidity100/Solidity31-40.sol:Question37",
						"label": "owner",
						"offset": 0,
						"slot": "0",
						"type": "t_address"
					}
				],
				"types": {
					"t_address": {
						"encoding": "inplace",
						"label": "address",
						"numberOfBytes": "20"
					}
				}
			},
			"userdoc": {
				"kind": "user",
				"methods": {},
				"version": 1
			}
		}
	}
}