{
	"Solidity100/Solidity41-50.sol": {
		"Question50": {
			"abi": [
				{
					"inputs": [
						{
							"internalType": "uint256[]",
							"name": "numbers",
							"type": "uint256[]"
						}
					],
					"name": "concatNumbers",
					"outputs": [
						{
							"internalType": "uint256",
							"name": "",
							"type": "uint256"
						}
					],
					"stateMutability": "pure",
					"type": "function"
				}
			],
			"devdoc": {
				"kind": "dev",
				"methods": {},
				"version": 1
			},
			"evm": {
				"assembly": "    /* \"Solidity100/Solidity41-50.sol\":4548:5073  contract Question50{... */\n  mstore(0x40, 0x80)\n  callvalue\n  dup1\n  iszero\n  tag_1\n  jumpi\n  0x00\n  dup1\n  revert\ntag_1:\n  pop\n  dataSize(sub_0)\n  dup1\n  dataOffset(sub_0)\n  0x00\n  codecopy\n  0x00\n  return\nstop\n\nsub_0: assembly {\n        /* \"Solidity100/Solidity41-50.sol\":4548:5073  contract Question50{... */\n      mstore(0x40, 0x80)\n      callvalue\n      dup1\n      iszero\n      tag_1\n      jumpi\n      0x00\n      dup1\n      revert\n    tag_1:\n      pop\n      jumpi(tag_2, lt(calldatasize, 0x04))\n      shr(0xe0, calldataload(0x00))\n      dup1\n      0x72fb5aff\n      eq\n      tag_3\n      jumpi\n    tag_2:\n      0x00\n      dup1\n      revert\n        /* \"Solidity100/Solidity41-50.sol\":4826:5071  function concatNumbers(uint[] memory numbers) public pure returns(uint) {... */\n    tag_3:\n      tag_4\n      0x04\n      dup1\n      calldatasize\n      sub\n      dup2\n      add\n      swap1\n      tag_5\n      swap2\n      swap1\n      tag_6\n      jump\t// in\n    tag_5:\n      tag_7\n      jump\t// in\n    tag_4:\n      mload(0x40)\n      tag_8\n      swap2\n      swap1\n      tag_9\n      jump\t// in\n    tag_8:\n      mload(0x40)\n      dup1\n      swap2\n      sub\n      swap1\n      return\n    tag_7:\n        /* \"Solidity100/Solidity41-50.sol\":4892:4896  uint */\n      0x00\n        /* \"Solidity100/Solidity41-50.sol\":4908:4919  uint result */\n      dup1\n        /* \"Solidity100/Solidity41-50.sol\":4933:4939  uint i */\n      0x00\n        /* \"Solidity100/Solidity41-50.sol\":4929:5042  for(uint i=0;i<numbers.length;i++) {... */\n    tag_11:\n        /* \"Solidity100/Solidity41-50.sol\":4944:4951  numbers */\n      dup4\n        /* \"Solidity100/Solidity41-50.sol\":4944:4958  numbers.length */\n      mload\n        /* \"Solidity100/Solidity41-50.sol\":4942:4943  i */\n      dup2\n        /* \"Solidity100/Solidity41-50.sol\":4942:4958  i<numbers.length */\n      lt\n        /* \"Solidity100/Solidity41-50.sol\":4929:5042  for(uint i=0;i<numbers.length;i++) {... */\n      iszero\n      tag_12\n      jumpi\n        /* \"Solidity100/Solidity41-50.sol\":5029:5030  1 */\n      0x01\n        /* \"Solidity100/Solidity41-50.sol\":5025:5026  i */\n      dup2\n        /* \"Solidity100/Solidity41-50.sol\":5008:5015  numbers */\n      dup6\n        /* \"Solidity100/Solidity41-50.sol\":5008:5022  numbers.length */\n      mload\n        /* \"Solidity100/Solidity41-50.sol\":5008:5026  numbers.length - i */\n      tag_14\n      swap2\n      swap1\n      tag_15\n      jump\t// in\n    tag_14:\n        /* \"Solidity100/Solidity41-50.sol\":5008:5030  numbers.length - i - 1 */\n      tag_16\n      swap2\n      swap1\n      tag_15\n      jump\t// in\n    tag_16:\n        /* \"Solidity100/Solidity41-50.sol\":5001:5003  10 */\n      0x0a\n        /* \"Solidity100/Solidity41-50.sol\":5001:5031  10 ** (numbers.length - i - 1) */\n      tag_17\n      swap2\n      swap1\n      tag_18\n      jump\t// in\n    tag_17:\n        /* \"Solidity100/Solidity41-50.sol\":4988:4995  numbers */\n      dup5\n        /* \"Solidity100/Solidity41-50.sol\":4996:4997  i */\n      dup3\n        /* \"Solidity100/Solidity41-50.sol\":4988:4998  numbers[i] */\n      dup2\n      mload\n      dup2\n      lt\n      tag_19\n      jumpi\n      tag_20\n      tag_21\n      jump\t// in\n    tag_20:\n    tag_19:\n      0x20\n      mul\n      0x20\n      add\n      add\n      mload\n        /* \"Solidity100/Solidity41-50.sol\":4988:5031  numbers[i] * 10 ** (numbers.length - i - 1) */\n      tag_22\n      swap2\n      swap1\n      tag_23\n      jump\t// in\n    tag_22:\n        /* \"Solidity100/Solidity41-50.sol\":4978:5031  result += numbers[i] * 10 ** (numbers.length - i - 1) */\n      dup3\n      tag_24\n      swap2\n      swap1\n      tag_25\n      jump\t// in\n    tag_24:\n      swap2\n      pop\n        /* \"Solidity100/Solidity41-50.sol\":4959:4962  i++ */\n      dup1\n      dup1\n      0x01\n      add\n      swap2\n      pop\n      pop\n        /* \"Solidity100/Solidity41-50.sol\":4929:5042  for(uint i=0;i<numbers.length;i++) {... */\n      jump(tag_11)\n    tag_12:\n      pop\n        /* \"Solidity100/Solidity41-50.sol\":5058:5064  result */\n      dup1\n        /* \"Solidity100/Solidity41-50.sol\":5051:5064  return result */\n      swap2\n      pop\n      pop\n        /* \"Solidity100/Solidity41-50.sol\":4826:5071  function concatNumbers(uint[] memory numbers) public pure returns(uint) {... */\n      swap2\n      swap1\n      pop\n      jump\t// out\n        /* \"#utility.yul\":7:82   */\n    tag_26:\n        /* \"#utility.yul\":40:46   */\n      0x00\n        /* \"#utility.yul\":73:75   */\n      0x40\n        /* \"#utility.yul\":67:76   */\n      mload\n        /* \"#utility.yul\":57:76   */\n      swap1\n      pop\n        /* \"#utility.yul\":7:82   */\n      swap1\n      jump\t// out\n        /* \"#utility.yul\":88:205   */\n    tag_27:\n        /* \"#utility.yul\":197:198   */\n      0x00\n        /* \"#utility.yul\":194:195   */\n      dup1\n        /* \"#utility.yul\":187:199   */\n      revert\n        /* \"#utility.yul\":211:328   */\n    tag_28:\n        /* \"#utility.yul\":320:321   */\n      0x00\n        /* \"#utility.yul\":317:318   */\n      dup1\n        /* \"#utility.yul\":310:322   */\n      revert\n        /* \"#utility.yul\":334:451   */\n    tag_29:\n        /* \"#utility.yul\":443:444   */\n      0x00\n        /* \"#utility.yul\":440:441   */\n      dup1\n        /* \"#utility.yul\":433:445   */\n      revert\n        /* \"#utility.yul\":457:559   */\n    tag_30:\n        /* \"#utility.yul\":498:504   */\n      0x00\n        /* \"#utility.yul\":549:551   */\n      0x1f\n        /* \"#utility.yul\":545:552   */\n      not\n        /* \"#utility.yul\":540:542   */\n      0x1f\n        /* \"#utility.yul\":533:538   */\n      dup4\n        /* \"#utility.yul\":529:543   */\n      add\n        /* \"#utility.yul\":525:553   */\n      and\n        /* \"#utility.yul\":515:553   */\n      swap1\n      pop\n        /* \"#utility.yul\":457:559   */\n      swap2\n      swap1\n      pop\n      jump\t// out\n        /* \"#utility.yul\":565:745   */\n    tag_31:\n        /* \"#utility.yul\":613:690   */\n      0x4e487b7100000000000000000000000000000000000000000000000000000000\n        /* \"#utility.yul\":610:611   */\n      0x00\n        /* \"#utility.yul\":603:691   */\n      mstore\n        /* \"#utility.yul\":710:714   */\n      0x41\n        /* \"#utility.yul\":707:708   */\n      0x04\n        /* \"#utility.yul\":700:715   */\n      mstore\n        /* \"#utility.yul\":734:738   */\n      0x24\n        /* \"#utility.yul\":731:732   */\n      0x00\n        /* \"#utility.yul\":724:739   */\n      revert\n        /* \"#utility.yul\":751:1032   */\n    tag_32:\n        /* \"#utility.yul\":834:861   */\n      tag_54\n        /* \"#utility.yul\":856:860   */\n      dup3\n        /* \"#utility.yul\":834:861   */\n      tag_30\n      jump\t// in\n    tag_54:\n        /* \"#utility.yul\":826:832   */\n      dup2\n        /* \"#utility.yul\":822:862   */\n      add\n        /* \"#utility.yul\":964:970   */\n      dup2\n        /* \"#utility.yul\":952:962   */\n      dup2\n        /* \"#utility.yul\":949:971   */\n      lt\n        /* \"#utility.yul\":928:946   */\n      0xffffffffffffffff\n        /* \"#utility.yul\":916:926   */\n      dup3\n        /* \"#utility.yul\":913:947   */\n      gt\n        /* \"#utility.yul\":910:972   */\n      or\n        /* \"#utility.yul\":907:995   */\n      iszero\n      tag_55\n      jumpi\n        /* \"#utility.yul\":975:993   */\n      tag_56\n      tag_31\n      jump\t// in\n    tag_56:\n        /* \"#utility.yul\":907:995   */\n    tag_55:\n        /* \"#utility.yul\":1015:1025   */\n      dup1\n        /* \"#utility.yul\":1011:1013   */\n      0x40\n        /* \"#utility.yul\":1004:1026   */\n      mstore\n        /* \"#utility.yul\":794:1032   */\n      pop\n        /* \"#utility.yul\":751:1032   */\n      pop\n      pop\n      jump\t// out\n        /* \"#utility.yul\":1038:1167   */\n    tag_33:\n        /* \"#utility.yul\":1072:1078   */\n      0x00\n        /* \"#utility.yul\":1099:1119   */\n      tag_58\n      tag_26\n      jump\t// in\n    tag_58:\n        /* \"#utility.yul\":1089:1119   */\n      swap1\n      pop\n        /* \"#utility.yul\":1128:1161   */\n      tag_59\n        /* \"#utility.yul\":1156:1160   */\n      dup3\n        /* \"#utility.yul\":1148:1154   */\n      dup3\n        /* \"#utility.yul\":1128:1161   */\n      tag_32\n      jump\t// in\n    tag_59:\n        /* \"#utility.yul\":1038:1167   */\n      swap2\n      swap1\n      pop\n      jump\t// out\n        /* \"#utility.yul\":1173:1484   */\n    tag_34:\n        /* \"#utility.yul\":1250:1254   */\n      0x00\n        /* \"#utility.yul\":1340:1358   */\n      0xffffffffffffffff\n        /* \"#utility.yul\":1332:1338   */\n      dup3\n        /* \"#utility.yul\":1329:1359   */\n      gt\n        /* \"#utility.yul\":1326:1382   */\n      iszero\n      tag_61\n      jumpi\n        /* \"#utility.yul\":1362:1380   */\n      tag_62\n      tag_31\n      jump\t// in\n    tag_62:\n        /* \"#utility.yul\":1326:1382   */\n    tag_61:\n        /* \"#utility.yul\":1412:1416   */\n      0x20\n        /* \"#utility.yul\":1404:1410   */\n      dup3\n        /* \"#utility.yul\":1400:1417   */\n      mul\n        /* \"#utility.yul\":1392:1417   */\n      swap1\n      pop\n        /* \"#utility.yul\":1472:1476   */\n      0x20\n        /* \"#utility.yul\":1466:1470   */\n      dup2\n        /* \"#utility.yul\":1462:1477   */\n      add\n        /* \"#utility.yul\":1454:1477   */\n      swap1\n      pop\n        /* \"#utility.yul\":1173:1484   */\n      swap2\n      swap1\n      pop\n      jump\t// out\n        /* \"#utility.yul\":1490:1607   */\n    tag_35:\n        /* \"#utility.yul\":1599:1600   */\n      0x00\n        /* \"#utility.yul\":1596:1597   */\n      dup1\n        /* \"#utility.yul\":1589:1601   */\n      revert\n        /* \"#utility.yul\":1613:1690   */\n    tag_36:\n        /* \"#utility.yul\":1650:1657   */\n      0x00\n        /* \"#utility.yul\":1679:1684   */\n      dup2\n        /* \"#utility.yul\":1668:1684   */\n      swap1\n      pop\n        /* \"#utility.yul\":1613:1690   */\n      swap2\n      swap1\n      pop\n      jump\t// out\n        /* \"#utility.yul\":1696:1818   */\n    tag_37:\n        /* \"#utility.yul\":1769:1793   */\n      tag_66\n        /* \"#utility.yul\":1787:1792   */\n      dup2\n        /* \"#utility.yul\":1769:1793   */\n      tag_36\n      jump\t// in\n    tag_66:\n        /* \"#utility.yul\":1762:1767   */\n      dup2\n        /* \"#utility.yul\":1759:1794   */\n      eq\n        /* \"#utility.yul\":1749:1812   */\n      tag_67\n      jumpi\n        /* \"#utility.yul\":1808:1809   */\n      0x00\n        /* \"#utility.yul\":1805:1806   */\n      dup1\n        /* \"#utility.yul\":1798:1810   */\n      revert\n        /* \"#utility.yul\":1749:1812   */\n    tag_67:\n        /* \"#utility.yul\":1696:1818   */\n      pop\n      jump\t// out\n        /* \"#utility.yul\":1824:1963   */\n    tag_38:\n        /* \"#utility.yul\":1870:1875   */\n      0x00\n        /* \"#utility.yul\":1908:1914   */\n      dup2\n        /* \"#utility.yul\":1895:1915   */\n      calldataload\n        /* \"#utility.yul\":1886:1915   */\n      swap1\n      pop\n        /* \"#utility.yul\":1924:1957   */\n      tag_69\n        /* \"#utility.yul\":1951:1956   */\n      dup2\n        /* \"#utility.yul\":1924:1957   */\n      tag_37\n      jump\t// in\n    tag_69:\n        /* \"#utility.yul\":1824:1963   */\n      swap3\n      swap2\n      pop\n      pop\n      jump\t// out\n        /* \"#utility.yul\":1986:2696   */\n    tag_39:\n        /* \"#utility.yul\":2082:2087   */\n      0x00\n        /* \"#utility.yul\":2107:2188   */\n      tag_71\n        /* \"#utility.yul\":2123:2187   */\n      tag_72\n        /* \"#utility.yul\":2180:2186   */\n      dup5\n        /* \"#utility.yul\":2123:2187   */\n      tag_34\n      jump\t// in\n    tag_72:\n        /* \"#utility.yul\":2107:2188   */\n      tag_33\n      jump\t// in\n    tag_71:\n        /* \"#utility.yul\":2098:2188   */\n      swap1\n      pop\n        /* \"#utility.yul\":2208:2213   */\n      dup1\n        /* \"#utility.yul\":2237:2243   */\n      dup4\n        /* \"#utility.yul\":2230:2235   */\n      dup3\n        /* \"#utility.yul\":2223:2244   */\n      mstore\n        /* \"#utility.yul\":2271:2275   */\n      0x20\n        /* \"#utility.yul\":2264:2269   */\n      dup3\n        /* \"#utility.yul\":2260:2276   */\n      add\n        /* \"#utility.yul\":2253:2276   */\n      swap1\n      pop\n        /* \"#utility.yul\":2324:2328   */\n      0x20\n        /* \"#utility.yul\":2316:2322   */\n      dup5\n        /* \"#utility.yul\":2312:2329   */\n      mul\n        /* \"#utility.yul\":2304:2310   */\n      dup4\n        /* \"#utility.yul\":2300:2330   */\n      add\n        /* \"#utility.yul\":2353:2356   */\n      dup6\n        /* \"#utility.yul\":2345:2351   */\n      dup2\n        /* \"#utility.yul\":2342:2357   */\n      gt\n        /* \"#utility.yul\":2339:2461   */\n      iszero\n      tag_73\n      jumpi\n        /* \"#utility.yul\":2372:2451   */\n      tag_74\n      tag_35\n      jump\t// in\n    tag_74:\n        /* \"#utility.yul\":2339:2461   */\n    tag_73:\n        /* \"#utility.yul\":2487:2493   */\n      dup4\n        /* \"#utility.yul\":2470:2690   */\n    tag_75:\n        /* \"#utility.yul\":2504:2510   */\n      dup2\n        /* \"#utility.yul\":2499:2502   */\n      dup2\n        /* \"#utility.yul\":2496:2511   */\n      lt\n        /* \"#utility.yul\":2470:2690   */\n      iszero\n      tag_77\n      jumpi\n        /* \"#utility.yul\":2579:2582   */\n      dup1\n        /* \"#utility.yul\":2608:2645   */\n      tag_78\n        /* \"#utility.yul\":2641:2644   */\n      dup9\n        /* \"#utility.yul\":2629:2639   */\n      dup3\n        /* \"#utility.yul\":2608:2645   */\n      tag_38\n      jump\t// in\n    tag_78:\n        /* \"#utility.yul\":2603:2606   */\n      dup5\n        /* \"#utility.yul\":2596:2646   */\n      mstore\n        /* \"#utility.yul\":2675:2679   */\n      0x20\n        /* \"#utility.yul\":2670:2673   */\n      dup5\n        /* \"#utility.yul\":2666:2680   */\n      add\n        /* \"#utility.yul\":2659:2680   */\n      swap4\n      pop\n        /* \"#utility.yul\":2546:2690   */\n      pop\n        /* \"#utility.yul\":2530:2534   */\n      0x20\n        /* \"#utility.yul\":2525:2528   */\n      dup2\n        /* \"#utility.yul\":2521:2535   */\n      add\n        /* \"#utility.yul\":2514:2535   */\n      swap1\n      pop\n        /* \"#utility.yul\":2470:2690   */\n      jump(tag_75)\n    tag_77:\n        /* \"#utility.yul\":2474:2495   */\n      pop\n        /* \"#utility.yul\":2088:2696   */\n      pop\n      pop\n        /* \"#utility.yul\":1986:2696   */\n      swap4\n      swap3\n      pop\n      pop\n      pop\n      jump\t// out\n        /* \"#utility.yul\":2719:3089   */\n    tag_40:\n        /* \"#utility.yul\":2790:2795   */\n      0x00\n        /* \"#utility.yul\":2839:2842   */\n      dup3\n        /* \"#utility.yul\":2832:2836   */\n      0x1f\n        /* \"#utility.yul\":2824:2830   */\n      dup4\n        /* \"#utility.yul\":2820:2837   */\n      add\n        /* \"#utility.yul\":2816:2843   */\n      slt\n        /* \"#utility.yul\":2806:2928   */\n      tag_80\n      jumpi\n        /* \"#utility.yul\":2847:2926   */\n      tag_81\n      tag_29\n      jump\t// in\n    tag_81:\n        /* \"#utility.yul\":2806:2928   */\n    tag_80:\n        /* \"#utility.yul\":2964:2970   */\n      dup2\n        /* \"#utility.yul\":2951:2971   */\n      calldataload\n        /* \"#utility.yul\":2989:3083   */\n      tag_82\n        /* \"#utility.yul\":3079:3082   */\n      dup5\n        /* \"#utility.yul\":3071:3077   */\n      dup3\n        /* \"#utility.yul\":3064:3068   */\n      0x20\n        /* \"#utility.yul\":3056:3062   */\n      dup7\n        /* \"#utility.yul\":3052:3069   */\n      add\n        /* \"#utility.yul\":2989:3083   */\n      tag_39\n      jump\t// in\n    tag_82:\n        /* \"#utility.yul\":2980:3083   */\n      swap2\n      pop\n        /* \"#utility.yul\":2796:3089   */\n      pop\n        /* \"#utility.yul\":2719:3089   */\n      swap3\n      swap2\n      pop\n      pop\n      jump\t// out\n        /* \"#utility.yul\":3095:3634   */\n    tag_6:\n        /* \"#utility.yul\":3179:3185   */\n      0x00\n        /* \"#utility.yul\":3228:3230   */\n      0x20\n        /* \"#utility.yul\":3216:3225   */\n      dup3\n        /* \"#utility.yul\":3207:3214   */\n      dup5\n        /* \"#utility.yul\":3203:3226   */\n      sub\n        /* \"#utility.yul\":3199:3231   */\n      slt\n        /* \"#utility.yul\":3196:3315   */\n      iszero\n      tag_84\n      jumpi\n        /* \"#utility.yul\":3234:3313   */\n      tag_85\n      tag_27\n      jump\t// in\n    tag_85:\n        /* \"#utility.yul\":3196:3315   */\n    tag_84:\n        /* \"#utility.yul\":3382:3383   */\n      0x00\n        /* \"#utility.yul\":3371:3380   */\n      dup3\n        /* \"#utility.yul\":3367:3384   */\n      add\n        /* \"#utility.yul\":3354:3385   */\n      calldataload\n        /* \"#utility.yul\":3412:3430   */\n      0xffffffffffffffff\n        /* \"#utility.yul\":3404:3410   */\n      dup2\n        /* \"#utility.yul\":3401:3431   */\n      gt\n        /* \"#utility.yul\":3398:3515   */\n      iszero\n      tag_86\n      jumpi\n        /* \"#utility.yul\":3434:3513   */\n      tag_87\n      tag_28\n      jump\t// in\n    tag_87:\n        /* \"#utility.yul\":3398:3515   */\n    tag_86:\n        /* \"#utility.yul\":3539:3617   */\n      tag_88\n        /* \"#utility.yul\":3609:3616   */\n      dup5\n        /* \"#utility.yul\":3600:3606   */\n      dup3\n        /* \"#utility.yul\":3589:3598   */\n      dup6\n        /* \"#utility.yul\":3585:3607   */\n      add\n        /* \"#utility.yul\":3539:3617   */\n      tag_40\n      jump\t// in\n    tag_88:\n        /* \"#utility.yul\":3529:3617   */\n      swap2\n      pop\n        /* \"#utility.yul\":3325:3627   */\n      pop\n        /* \"#utility.yul\":3095:3634   */\n      swap3\n      swap2\n      pop\n      pop\n      jump\t// out\n        /* \"#utility.yul\":3640:3758   */\n    tag_41:\n        /* \"#utility.yul\":3727:3751   */\n      tag_90\n        /* \"#utility.yul\":3745:3750   */\n      dup2\n        /* \"#utility.yul\":3727:3751   */\n      tag_36\n      jump\t// in\n    tag_90:\n        /* \"#utility.yul\":3722:3725   */\n      dup3\n        /* \"#utility.yul\":3715:3752   */\n      mstore\n        /* \"#utility.yul\":3640:3758   */\n      pop\n      pop\n      jump\t// out\n        /* \"#utility.yul\":3764:3986   */\n    tag_9:\n        /* \"#utility.yul\":3857:3861   */\n      0x00\n        /* \"#utility.yul\":3895:3897   */\n      0x20\n        /* \"#utility.yul\":3884:3893   */\n      dup3\n        /* \"#utility.yul\":3880:3898   */\n      add\n        /* \"#utility.yul\":3872:3898   */\n      swap1\n      pop\n        /* \"#utility.yul\":3908:3979   */\n      tag_92\n        /* \"#utility.yul\":3976:3977   */\n      0x00\n        /* \"#utility.yul\":3965:3974   */\n      dup4\n        /* \"#utility.yul\":3961:3978   */\n      add\n        /* \"#utility.yul\":3952:3958   */\n      dup5\n        /* \"#utility.yul\":3908:3979   */\n      tag_41\n      jump\t// in\n    tag_92:\n        /* \"#utility.yul\":3764:3986   */\n      swap3\n      swap2\n      pop\n      pop\n      jump\t// out\n        /* \"#utility.yul\":3992:4172   */\n    tag_42:\n        /* \"#utility.yul\":4040:4117   */\n      0x4e487b7100000000000000000000000000000000000000000000000000000000\n        /* \"#utility.yul\":4037:4038   */\n      0x00\n        /* \"#utility.yul\":4030:4118   */\n      mstore\n        /* \"#utility.yul\":4137:4141   */\n      0x11\n        /* \"#utility.yul\":4134:4135   */\n      0x04\n        /* \"#utility.yul\":4127:4142   */\n      mstore\n        /* \"#utility.yul\":4161:4165   */\n      0x24\n        /* \"#utility.yul\":4158:4159   */\n      0x00\n        /* \"#utility.yul\":4151:4166   */\n      revert\n        /* \"#utility.yul\":4178:4372   */\n    tag_15:\n        /* \"#utility.yul\":4218:4222   */\n      0x00\n        /* \"#utility.yul\":4238:4258   */\n      tag_95\n        /* \"#utility.yul\":4256:4257   */\n      dup3\n        /* \"#utility.yul\":4238:4258   */\n      tag_36\n      jump\t// in\n    tag_95:\n        /* \"#utility.yul\":4233:4258   */\n      swap2\n      pop\n        /* \"#utility.yul\":4272:4292   */\n      tag_96\n        /* \"#utility.yul\":4290:4291   */\n      dup4\n        /* \"#utility.yul\":4272:4292   */\n      tag_36\n      jump\t// in\n    tag_96:\n        /* \"#utility.yul\":4267:4292   */\n      swap3\n      pop\n        /* \"#utility.yul\":4316:4317   */\n      dup3\n        /* \"#utility.yul\":4313:4314   */\n      dup3\n        /* \"#utility.yul\":4309:4318   */\n      sub\n        /* \"#utility.yul\":4301:4318   */\n      swap1\n      pop\n        /* \"#utility.yul\":4340:4341   */\n      dup2\n        /* \"#utility.yul\":4334:4338   */\n      dup2\n        /* \"#utility.yul\":4331:4342   */\n      gt\n        /* \"#utility.yul\":4328:4365   */\n      iszero\n      tag_97\n      jumpi\n        /* \"#utility.yul\":4345:4363   */\n      tag_98\n      tag_42\n      jump\t// in\n    tag_98:\n        /* \"#utility.yul\":4328:4365   */\n    tag_97:\n        /* \"#utility.yul\":4178:4372   */\n      swap3\n      swap2\n      pop\n      pop\n      jump\t// out\n        /* \"#utility.yul\":4378:4480   */\n    tag_43:\n        /* \"#utility.yul\":4420:4428   */\n      0x00\n        /* \"#utility.yul\":4467:4472   */\n      dup2\n        /* \"#utility.yul\":4464:4465   */\n      0x01\n        /* \"#utility.yul\":4460:4473   */\n      shr\n        /* \"#utility.yul\":4439:4473   */\n      swap1\n      pop\n        /* \"#utility.yul\":4378:4480   */\n      swap2\n      swap1\n      pop\n      jump\t// out\n        /* \"#utility.yul\":4486:5334   */\n    tag_44:\n        /* \"#utility.yul\":4547:4552   */\n      0x00\n        /* \"#utility.yul\":4554:4558   */\n      dup1\n        /* \"#utility.yul\":4578:4584   */\n      dup3\n        /* \"#utility.yul\":4569:4584   */\n      swap2\n      pop\n        /* \"#utility.yul\":4602:4607   */\n      dup4\n        /* \"#utility.yul\":4593:4607   */\n      swap1\n      pop\n        /* \"#utility.yul\":4616:5328   */\n    tag_101:\n        /* \"#utility.yul\":4637:4638   */\n      0x01\n        /* \"#utility.yul\":4627:4635   */\n      dup6\n        /* \"#utility.yul\":4624:4639   */\n      gt\n        /* \"#utility.yul\":4616:5328   */\n      iszero\n      tag_103\n      jumpi\n        /* \"#utility.yul\":4732:4736   */\n      dup1\n        /* \"#utility.yul\":4727:4730   */\n      dup7\n        /* \"#utility.yul\":4723:4737   */\n      div\n        /* \"#utility.yul\":4717:4721   */\n      dup2\n        /* \"#utility.yul\":4714:4738   */\n      gt\n        /* \"#utility.yul\":4711:4761   */\n      iszero\n      tag_104\n      jumpi\n        /* \"#utility.yul\":4741:4759   */\n      tag_105\n      tag_42\n      jump\t// in\n    tag_105:\n        /* \"#utility.yul\":4711:4761   */\n    tag_104:\n        /* \"#utility.yul\":4791:4792   */\n      0x01\n        /* \"#utility.yul\":4781:4789   */\n      dup6\n        /* \"#utility.yul\":4777:4793   */\n      and\n        /* \"#utility.yul\":4774:5225   */\n      iszero\n      tag_106\n      jumpi\n        /* \"#utility.yul\":5206:5210   */\n      dup1\n        /* \"#utility.yul\":5199:5204   */\n      dup3\n        /* \"#utility.yul\":5195:5211   */\n      mul\n        /* \"#utility.yul\":5186:5211   */\n      swap2\n      pop\n        /* \"#utility.yul\":4774:5225   */\n    tag_106:\n        /* \"#utility.yul\":5256:5260   */\n      dup1\n        /* \"#utility.yul\":5250:5254   */\n      dup2\n        /* \"#utility.yul\":5246:5261   */\n      mul\n        /* \"#utility.yul\":5238:5261   */\n      swap1\n      pop\n        /* \"#utility.yul\":5286:5318   */\n      tag_107\n        /* \"#utility.yul\":5309:5317   */\n      dup6\n        /* \"#utility.yul\":5286:5318   */\n      tag_43\n      jump\t// in\n    tag_107:\n        /* \"#utility.yul\":5274:5318   */\n      swap5\n      pop\n        /* \"#utility.yul\":4616:5328   */\n      jump(tag_101)\n    tag_103:\n        /* \"#utility.yul\":4486:5334   */\n      swap5\n      pop\n      swap5\n      swap3\n      pop\n      pop\n      pop\n      jump\t// out\n        /* \"#utility.yul\":5340:6413   */\n    tag_45:\n        /* \"#utility.yul\":5394:5399   */\n      0x00\n        /* \"#utility.yul\":5585:5593   */\n      dup3\n        /* \"#utility.yul\":5575:5615   */\n      tag_109\n      jumpi\n        /* \"#utility.yul\":5606:5607   */\n      0x01\n        /* \"#utility.yul\":5597:5607   */\n      swap1\n      pop\n        /* \"#utility.yul\":5608:5613   */\n      jump(tag_108)\n        /* \"#utility.yul\":5575:5615   */\n    tag_109:\n        /* \"#utility.yul\":5634:5638   */\n      dup2\n        /* \"#utility.yul\":5624:5660   */\n      tag_110\n      jumpi\n        /* \"#utility.yul\":5651:5652   */\n      0x00\n        /* \"#utility.yul\":5642:5652   */\n      swap1\n      pop\n        /* \"#utility.yul\":5653:5658   */\n      jump(tag_108)\n        /* \"#utility.yul\":5624:5660   */\n    tag_110:\n        /* \"#utility.yul\":5720:5724   */\n      dup2\n        /* \"#utility.yul\":5768:5769   */\n      0x01\n        /* \"#utility.yul\":5763:5790   */\n      dup2\n      eq\n      tag_112\n      jumpi\n        /* \"#utility.yul\":5804:5805   */\n      0x02\n        /* \"#utility.yul\":5799:5990   */\n      dup2\n      eq\n      tag_113\n      jumpi\n        /* \"#utility.yul\":5713:5990   */\n      jump(tag_111)\n        /* \"#utility.yul\":5763:5790   */\n    tag_112:\n        /* \"#utility.yul\":5781:5782   */\n      0x01\n        /* \"#utility.yul\":5772:5782   */\n      swap2\n      pop\n        /* \"#utility.yul\":5783:5788   */\n      pop\n      jump(tag_108)\n        /* \"#utility.yul\":5799:5990   */\n    tag_113:\n        /* \"#utility.yul\":5844:5847   */\n      0xff\n        /* \"#utility.yul\":5834:5842   */\n      dup5\n        /* \"#utility.yul\":5831:5848   */\n      gt\n        /* \"#utility.yul\":5828:5871   */\n      iszero\n      tag_114\n      jumpi\n        /* \"#utility.yul\":5851:5869   */\n      tag_115\n      tag_42\n      jump\t// in\n    tag_115:\n        /* \"#utility.yul\":5828:5871   */\n    tag_114:\n        /* \"#utility.yul\":5900:5908   */\n      dup4\n        /* \"#utility.yul\":5897:5898   */\n      0x02\n        /* \"#utility.yul\":5893:5909   */\n      exp\n        /* \"#utility.yul\":5884:5909   */\n      swap2\n      pop\n        /* \"#utility.yul\":5935:5938   */\n      dup5\n        /* \"#utility.yul\":5928:5933   */\n      dup3\n        /* \"#utility.yul\":5925:5939   */\n      gt\n        /* \"#utility.yul\":5922:5962   */\n      iszero\n      tag_116\n      jumpi\n        /* \"#utility.yul\":5942:5960   */\n      tag_117\n      tag_42\n      jump\t// in\n    tag_117:\n        /* \"#utility.yul\":5922:5962   */\n    tag_116:\n        /* \"#utility.yul\":5975:5980   */\n      pop\n      jump(tag_108)\n        /* \"#utility.yul\":5713:5990   */\n    tag_111:\n      pop\n        /* \"#utility.yul\":6099:6101   */\n      0x20\n        /* \"#utility.yul\":6089:6097   */\n      dup4\n        /* \"#utility.yul\":6086:6102   */\n      lt\n        /* \"#utility.yul\":6080:6083   */\n      0x0133\n        /* \"#utility.yul\":6074:6078   */\n      dup4\n        /* \"#utility.yul\":6071:6084   */\n      lt\n        /* \"#utility.yul\":6067:6103   */\n      and\n        /* \"#utility.yul\":6049:6051   */\n      0x4e\n        /* \"#utility.yul\":6039:6047   */\n      dup5\n        /* \"#utility.yul\":6036:6052   */\n      lt\n        /* \"#utility.yul\":6031:6033   */\n      0x0b\n        /* \"#utility.yul\":6025:6029   */\n      dup5\n        /* \"#utility.yul\":6022:6034   */\n      lt\n        /* \"#utility.yul\":6018:6053   */\n      and\n        /* \"#utility.yul\":6002:6113   */\n      or\n        /* \"#utility.yul\":5999:6245   */\n      iszero\n      tag_118\n      jumpi\n        /* \"#utility.yul\":6155:6163   */\n      dup3\n        /* \"#utility.yul\":6149:6153   */\n      dup3\n        /* \"#utility.yul\":6145:6164   */\n      exp\n        /* \"#utility.yul\":6136:6164   */\n      swap1\n      pop\n        /* \"#utility.yul\":6190:6193   */\n      dup4\n        /* \"#utility.yul\":6183:6188   */\n      dup2\n        /* \"#utility.yul\":6180:6194   */\n      gt\n        /* \"#utility.yul\":6177:6217   */\n      iszero\n      tag_119\n      jumpi\n        /* \"#utility.yul\":6197:6215   */\n      tag_120\n      tag_42\n      jump\t// in\n    tag_120:\n        /* \"#utility.yul\":6177:6217   */\n    tag_119:\n        /* \"#utility.yul\":6230:6235   */\n      jump(tag_108)\n        /* \"#utility.yul\":5999:6245   */\n    tag_118:\n        /* \"#utility.yul\":6270:6312   */\n      tag_121\n        /* \"#utility.yul\":6308:6311   */\n      dup5\n        /* \"#utility.yul\":6298:6306   */\n      dup5\n        /* \"#utility.yul\":6292:6296   */\n      dup5\n        /* \"#utility.yul\":6289:6290   */\n      0x01\n        /* \"#utility.yul\":6270:6312   */\n      tag_44\n      jump\t// in\n    tag_121:\n        /* \"#utility.yul\":6255:6312   */\n      swap3\n      pop\n      swap1\n      pop\n        /* \"#utility.yul\":6344:6348   */\n      dup2\n        /* \"#utility.yul\":6339:6342   */\n      dup5\n        /* \"#utility.yul\":6335:6349   */\n      div\n        /* \"#utility.yul\":6328:6333   */\n      dup2\n        /* \"#utility.yul\":6325:6350   */\n      gt\n        /* \"#utility.yul\":6322:6373   */\n      iszero\n      tag_122\n      jumpi\n        /* \"#utility.yul\":6353:6371   */\n      tag_123\n      tag_42\n      jump\t// in\n    tag_123:\n        /* \"#utility.yul\":6322:6373   */\n    tag_122:\n        /* \"#utility.yul\":6402:6406   */\n      dup2\n        /* \"#utility.yul\":6395:6400   */\n      dup2\n        /* \"#utility.yul\":6391:6407   */\n      mul\n        /* \"#utility.yul\":6382:6407   */\n      swap1\n      pop\n        /* \"#utility.yul\":5340:6413   */\n    tag_108:\n      swap4\n      swap3\n      pop\n      pop\n      pop\n      jump\t// out\n        /* \"#utility.yul\":6419:6704   */\n    tag_18:\n        /* \"#utility.yul\":6479:6484   */\n      0x00\n        /* \"#utility.yul\":6503:6526   */\n      tag_125\n        /* \"#utility.yul\":6521:6525   */\n      dup3\n        /* \"#utility.yul\":6503:6526   */\n      tag_36\n      jump\t// in\n    tag_125:\n        /* \"#utility.yul\":6495:6526   */\n      swap2\n      pop\n        /* \"#utility.yul\":6547:6574   */\n      tag_126\n        /* \"#utility.yul\":6565:6573   */\n      dup4\n        /* \"#utility.yul\":6547:6574   */\n      tag_36\n      jump\t// in\n    tag_126:\n        /* \"#utility.yul\":6535:6574   */\n      swap3\n      pop\n        /* \"#utility.yul\":6593:6697   */\n      tag_127\n        /* \"#utility.yul\":6630:6696   */\n      0xffffffffffffffffffffffffffffffffffffffffffffffffffffffffffffffff\n        /* \"#utility.yul\":6620:6628   */\n      dup5\n        /* \"#utility.yul\":6614:6618   */\n      dup5\n        /* \"#utility.yul\":6593:6697   */\n      tag_45\n      jump\t// in\n    tag_127:\n        /* \"#utility.yul\":6584:6697   */\n      swap1\n      pop\n        /* \"#utility.yul\":6419:6704   */\n      swap3\n      swap2\n      pop\n      pop\n      jump\t// out\n        /* \"#utility.yul\":6710:6890   */\n    tag_21:\n        /* \"#utility.yul\":6758:6835   */\n      0x4e487b7100000000000000000000000000000000000000000000000000000000\n        /* \"#utility.yul\":6755:6756   */\n      0x00\n        /* \"#utility.yul\":6748:6836   */\n      mstore\n        /* \"#utility.yul\":6855:6859   */\n      0x32\n        /* \"#utility.yul\":6852:6853   */\n      0x04\n        /* \"#utility.yul\":6845:6860   */\n      mstore\n        /* \"#utility.yul\":6879:6883   */\n      0x24\n        /* \"#utility.yul\":6876:6877   */\n      0x00\n        /* \"#utility.yul\":6869:6884   */\n      revert\n        /* \"#utility.yul\":6896:7306   */\n    tag_23:\n        /* \"#utility.yul\":6936:6943   */\n      0x00\n        /* \"#utility.yul\":6959:6979   */\n      tag_130\n        /* \"#utility.yul\":6977:6978   */\n      dup3\n        /* \"#utility.yul\":6959:6979   */\n      tag_36\n      jump\t// in\n    tag_130:\n        /* \"#utility.yul\":6954:6979   */\n      swap2\n      pop\n        /* \"#utility.yul\":6993:7013   */\n      tag_131\n        /* \"#utility.yul\":7011:7012   */\n      dup4\n        /* \"#utility.yul\":6993:7013   */\n      tag_36\n      jump\t// in\n    tag_131:\n        /* \"#utility.yul\":6988:7013   */\n      swap3\n      pop\n        /* \"#utility.yul\":7048:7049   */\n      dup3\n        /* \"#utility.yul\":7045:7046   */\n      dup3\n        /* \"#utility.yul\":7041:7050   */\n      mul\n        /* \"#utility.yul\":7070:7100   */\n      tag_132\n        /* \"#utility.yul\":7088:7099   */\n      dup2\n        /* \"#utility.yul\":7070:7100   */\n      tag_36\n      jump\t// in\n    tag_132:\n        /* \"#utility.yul\":7059:7100   */\n      swap2\n      pop\n        /* \"#utility.yul\":7249:7250   */\n      dup3\n        /* \"#utility.yul\":7240:7247   */\n      dup3\n        /* \"#utility.yul\":7236:7251   */\n      div\n        /* \"#utility.yul\":7233:7234   */\n      dup5\n        /* \"#utility.yul\":7230:7252   */\n      eq\n        /* \"#utility.yul\":7210:7211   */\n      dup4\n        /* \"#utility.yul\":7203:7212   */\n      iszero\n        /* \"#utility.yul\":7183:7266   */\n      or\n        /* \"#utility.yul\":7160:7299   */\n      tag_133\n      jumpi\n        /* \"#utility.yul\":7279:7297   */\n      tag_134\n      tag_42\n      jump\t// in\n    tag_134:\n        /* \"#utility.yul\":7160:7299   */\n    tag_133:\n        /* \"#utility.yul\":6944:7306   */\n      pop\n        /* \"#utility.yul\":6896:7306   */\n      swap3\n      swap2\n      pop\n      pop\n      jump\t// out\n        /* \"#utility.yul\":7312:7503   */\n    tag_25:\n        /* \"#utility.yul\":7352:7355   */\n      0x00\n        /* \"#utility.yul\":7371:7391   */\n      tag_136\n        /* \"#utility.yul\":7389:7390   */\n      dup3\n        /* \"#utility.yul\":7371:7391   */\n      tag_36\n      jump\t// in\n    tag_136:\n        /* \"#utility.yul\":7366:7391   */\n      swap2\n      pop\n        /* \"#utility.yul\":7405:7425   */\n      tag_137\n        /* \"#utility.yul\":7423:7424   */\n      dup4\n        /* \"#utility.yul\":7405:7425   */\n      tag_36\n      jump\t// in\n    tag_137:\n        /* \"#utility.yul\":7400:7425   */\n      swap3\n      pop\n        /* \"#utility.yul\":7448:7449   */\n      dup3\n        /* \"#utility.yul\":7445:7446   */\n      dup3\n        /* \"#utility.yul\":7441:7450   */\n      add\n        /* \"#utility.yul\":7434:7450   */\n      swap1\n      pop\n        /* \"#utility.yul\":7469:7472   */\n      dup1\n        /* \"#utility.yul\":7466:7467   */\n      dup3\n        /* \"#utility.yul\":7463:7473   */\n      gt\n        /* \"#utility.yul\":7460:7496   */\n      iszero\n      tag_138\n      jumpi\n        /* \"#utility.yul\":7476:7494   */\n      tag_139\n      tag_42\n      jump\t// in\n    tag_139:\n        /* \"#utility.yul\":7460:7496   */\n    tag_138:\n        /* \"#utility.yul\":7312:7503   */\n      swap3\n      swap2\n      pop\n      pop\n      jump\t// out\n\n    auxdata: 0xa2646970667358221220a779c8368ec981287b8d091b5872d3cfae824f8067f1a0cc2c674dbc5d136afe64736f6c634300081a0033\n}\n",
				"bytecode": {
					"linkReferences": {},
					"object": "6080604052348015600e575f80fd5b5061058b8061001c5f395ff3fe608060405234801561000f575f80fd5b5060043610610029575f3560e01c806372fb5aff1461002d575b5f80fd5b6100476004803603810190610042919061026c565b61005d565b60405161005491906102c2565b60405180910390f35b5f805f5b83518110156100ce5760018185516100799190610308565b6100839190610308565b600a61008f919061046a565b8482815181106100a2576100a16104b4565b5b60200260200101516100b491906104e1565b826100bf9190610522565b91508080600101915050610061565b5080915050919050565b5f604051905090565b5f80fd5b5f80fd5b5f80fd5b5f601f19601f8301169050919050565b7f4e487b71000000000000000000000000000000000000000000000000000000005f52604160045260245ffd5b610133826100ed565b810181811067ffffffffffffffff82111715610152576101516100fd565b5b80604052505050565b5f6101646100d8565b9050610170828261012a565b919050565b5f67ffffffffffffffff82111561018f5761018e6100fd565b5b602082029050602081019050919050565b5f80fd5b5f819050919050565b6101b6816101a4565b81146101c0575f80fd5b50565b5f813590506101d1816101ad565b92915050565b5f6101e96101e484610175565b61015b565b9050808382526020820190506020840283018581111561020c5761020b6101a0565b5b835b81811015610235578061022188826101c3565b84526020840193505060208101905061020e565b5050509392505050565b5f82601f830112610253576102526100e9565b5b81356102638482602086016101d7565b91505092915050565b5f60208284031215610281576102806100e1565b5b5f82013567ffffffffffffffff81111561029e5761029d6100e5565b5b6102aa8482850161023f565b91505092915050565b6102bc816101a4565b82525050565b5f6020820190506102d55f8301846102b3565b92915050565b7f4e487b71000000000000000000000000000000000000000000000000000000005f52601160045260245ffd5b5f610312826101a4565b915061031d836101a4565b9250828203905081811115610335576103346102db565b5b92915050565b5f8160011c9050919050565b5f808291508390505b60018511156103905780860481111561036c5761036b6102db565b5b600185161561037b5780820291505b80810290506103898561033b565b9450610350565b94509492505050565b5f826103a85760019050610463565b816103b5575f9050610463565b81600181146103cb57600281146103d557610404565b6001915050610463565b60ff8411156103e7576103e66102db565b5b8360020a9150848211156103fe576103fd6102db565b5b50610463565b5060208310610133831016604e8410600b84101617156104395782820a905083811115610434576104336102db565b5b610463565b6104468484846001610347565b9250905081840481111561045d5761045c6102db565b5b81810290505b9392505050565b5f610474826101a4565b915061047f836101a4565b92506104ac7fffffffffffffffffffffffffffffffffffffffffffffffffffffffffffffffff8484610399565b905092915050565b7f4e487b71000000000000000000000000000000000000000000000000000000005f52603260045260245ffd5b5f6104eb826101a4565b91506104f6836101a4565b9250828202610504816101a4565b9150828204841483151761051b5761051a6102db565b5b5092915050565b5f61052c826101a4565b9150610537836101a4565b925082820190508082111561054f5761054e6102db565b5b9291505056fea2646970667358221220a779c8368ec981287b8d091b5872d3cfae824f8067f1a0cc2c674dbc5d136afe64736f6c634300081a0033",
					"opcodes": "PUSH1 0x80 PUSH1 0x40 MSTORE CALLVALUE DUP1 ISZERO PUSH1 0xE JUMPI PUSH0 DUP1 REVERT JUMPDEST POP PUSH2 0x58B DUP1 PUSH2 0x1C PUSH0 CODECOPY PUSH0 RETURN INVALID PUSH1 0x80 PUSH1 0x40 MSTORE CALLVALUE DUP1 ISZERO PUSH2 0xF JUMPI PUSH0 DUP1 REVERT JUMPDEST POP PUSH1 0x4 CALLDATASIZE LT PUSH2 0x29 JUMPI PUSH0 CALLDATALOAD PUSH1 0xE0 SHR DUP1 PUSH4 0x72FB5AFF EQ PUSH2 0x2D JUMPI JUMPDEST PUSH0 DUP1 REVERT JUMPDEST PUSH2 0x47 PUSH1 0x4 DUP1 CALLDATASIZE SUB DUP2 ADD SWAP1 PUSH2 0x42 SWAP2 SWAP1 PUSH2 0x26C JUMP JUMPDEST PUSH2 0x5D JUMP JUMPDEST PUSH1 0x40 MLOAD PUSH2 0x54 SWAP2 SWAP1 PUSH2 0x2C2 JUMP JUMPDEST PUSH1 0x40 MLOAD DUP1 SWAP2 SUB SWAP1 RETURN JUMPDEST PUSH0 DUP1 PUSH0 JUMPDEST DUP4 MLOAD DUP2 LT ISZERO PUSH2 0xCE JUMPI PUSH1 0x1 DUP2 DUP6 MLOAD PUSH2 0x79 SWAP2 SWAP1 PUSH2 0x308 JUMP JUMPDEST PUSH2 0x83 SWAP2 SWAP1 PUSH2 0x308 JUMP JUMPDEST PUSH1 0xA PUSH2 0x8F SWAP2 SWAP1 PUSH2 0x46A JUMP JUMPDEST DUP5 DUP3 DUP2 MLOAD DUP2 LT PUSH2 0xA2 JUMPI PUSH2 0xA1 PUSH2 0x4B4 JUMP JUMPDEST JUMPDEST PUSH1 0x20 MUL PUSH1 0x20 ADD ADD MLOAD PUSH2 0xB4 SWAP2 SWAP1 PUSH2 0x4E1 JUMP JUMPDEST DUP3 PUSH2 0xBF SWAP2 SWAP1 PUSH2 0x522 JUMP JUMPDEST SWAP2 POP DUP1 DUP1 PUSH1 0x1 ADD SWAP2 POP POP PUSH2 0x61 JUMP JUMPDEST POP DUP1 SWAP2 POP POP SWAP2 SWAP1 POP JUMP JUMPDEST PUSH0 PUSH1 0x40 MLOAD SWAP1 POP SWAP1 JUMP JUMPDEST PUSH0 DUP1 REVERT JUMPDEST PUSH0 DUP1 REVERT JUMPDEST PUSH0 DUP1 REVERT JUMPDEST PUSH0 PUSH1 0x1F NOT PUSH1 0x1F DUP4 ADD AND SWAP1 POP SWAP2 SWAP1 POP JUMP JUMPDEST PUSH32 0x4E487B7100000000000000000000000000000000000000000000000000000000 PUSH0 MSTORE PUSH1 0x41 PUSH1 0x4 MSTORE PUSH1 0x24 PUSH0 REVERT JUMPDEST PUSH2 0x133 DUP3 PUSH2 0xED JUMP JUMPDEST DUP2 ADD DUP2 DUP2 LT PUSH8 0xFFFFFFFFFFFFFFFF DUP3 GT OR ISZERO PUSH2 0x152 JUMPI PUSH2 0x151 PUSH2 0xFD JUMP JUMPDEST JUMPDEST DUP1 PUSH1 0x40 MSTORE POP POP POP JUMP JUMPDEST PUSH0 PUSH2 0x164 PUSH2 0xD8 JUMP JUMPDEST SWAP1 POP PUSH2 0x170 DUP3 DUP3 PUSH2 0x12A JUMP JUMPDEST SWAP2 SWAP1 POP JUMP JUMPDEST PUSH0 PUSH8 0xFFFFFFFFFFFFFFFF DUP3 GT ISZERO PUSH2 0x18F JUMPI PUSH2 0x18E PUSH2 0xFD JUMP JUMPDEST JUMPDEST PUSH1 0x20 DUP3 MUL SWAP1 POP PUSH1 0x20 DUP2 ADD SWAP1 POP SWAP2 SWAP1 POP JUMP JUMPDEST PUSH0 DUP1 REVERT JUMPDEST PUSH0 DUP2 SWAP1 POP SWAP2 SWAP1 POP JUMP JUMPDEST PUSH2 0x1B6 DUP2 PUSH2 0x1A4 JUMP JUMPDEST DUP2 EQ PUSH2 0x1C0 JUMPI PUSH0 DUP1 REVERT JUMPDEST POP JUMP JUMPDEST PUSH0 DUP2 CALLDATALOAD SWAP1 POP PUSH2 0x1D1 DUP2 PUSH2 0x1AD JUMP JUMPDEST SWAP3 SWAP2 POP POP JUMP JUMPDEST PUSH0 PUSH2 0x1E9 PUSH2 0x1E4 DUP5 PUSH2 0x175 JUMP JUMPDEST PUSH2 0x15B JUMP JUMPDEST SWAP1 POP DUP1 DUP4 DUP3 MSTORE PUSH1 0x20 DUP3 ADD SWAP1 POP PUSH1 0x20 DUP5 MUL DUP4 ADD DUP6 DUP2 GT ISZERO PUSH2 0x20C JUMPI PUSH2 0x20B PUSH2 0x1A0 JUMP JUMPDEST JUMPDEST DUP4 JUMPDEST DUP2 DUP2 LT ISZERO PUSH2 0x235 JUMPI DUP1 PUSH2 0x221 DUP9 DUP3 PUSH2 0x1C3 JUMP JUMPDEST DUP5 MSTORE PUSH1 0x20 DUP5 ADD SWAP4 POP POP PUSH1 0x20 DUP2 ADD SWAP1 POP PUSH2 0x20E JUMP JUMPDEST POP POP POP SWAP4 SWAP3 POP POP POP JUMP JUMPDEST PUSH0 DUP3 PUSH1 0x1F DUP4 ADD SLT PUSH2 0x253 JUMPI PUSH2 0x252 PUSH2 0xE9 JUMP JUMPDEST JUMPDEST DUP2 CALLDATALOAD PUSH2 0x263 DUP5 DUP3 PUSH1 0x20 DUP7 ADD PUSH2 0x1D7 JUMP JUMPDEST SWAP2 POP POP SWAP3 SWAP2 POP POP JUMP JUMPDEST PUSH0 PUSH1 0x20 DUP3 DUP5 SUB SLT ISZERO PUSH2 0x281 JUMPI PUSH2 0x280 PUSH2 0xE1 JUMP JUMPDEST JUMPDEST PUSH0 DUP3 ADD CALLDATALOAD PUSH8 0xFFFFFFFFFFFFFFFF DUP2 GT ISZERO PUSH2 0x29E JUMPI PUSH2 0x29D PUSH2 0xE5 JUMP JUMPDEST JUMPDEST PUSH2 0x2AA DUP5 DUP3 DUP6 ADD PUSH2 0x23F JUMP JUMPDEST SWAP2 POP POP SWAP3 SWAP2 POP POP JUMP JUMPDEST PUSH2 0x2BC DUP2 PUSH2 0x1A4 JUMP JUMPDEST DUP3 MSTORE POP POP JUMP JUMPDEST PUSH0 PUSH1 0x20 DUP3 ADD SWAP1 POP PUSH2 0x2D5 PUSH0 DUP4 ADD DUP5 PUSH2 0x2B3 JUMP JUMPDEST SWAP3 SWAP2 POP POP JUMP JUMPDEST PUSH32 0x4E487B7100000000000000000000000000000000000000000000000000000000 PUSH0 MSTORE PUSH1 0x11 PUSH1 0x4 MSTORE PUSH1 0x24 PUSH0 REVERT JUMPDEST PUSH0 PUSH2 0x312 DUP3 PUSH2 0x1A4 JUMP JUMPDEST SWAP2 POP PUSH2 0x31D DUP4 PUSH2 0x1A4 JUMP JUMPDEST SWAP3 POP DUP3 DUP3 SUB SWAP1 POP DUP2 DUP2 GT ISZERO PUSH2 0x335 JUMPI PUSH2 0x334 PUSH2 0x2DB JUMP JUMPDEST JUMPDEST SWAP3 SWAP2 POP POP JUMP JUMPDEST PUSH0 DUP2 PUSH1 0x1 SHR SWAP1 POP SWAP2 SWAP1 POP JUMP JUMPDEST PUSH0 DUP1 DUP3 SWAP2 POP DUP4 SWAP1 POP JUMPDEST PUSH1 0x1 DUP6 GT ISZERO PUSH2 0x390 JUMPI DUP1 DUP7 DIV DUP2 GT ISZERO PUSH2 0x36C JUMPI PUSH2 0x36B PUSH2 0x2DB JUMP JUMPDEST JUMPDEST PUSH1 0x1 DUP6 AND ISZERO PUSH2 0x37B JUMPI DUP1 DUP3 MUL SWAP2 POP JUMPDEST DUP1 DUP2 MUL SWAP1 POP PUSH2 0x389 DUP6 PUSH2 0x33B JUMP JUMPDEST SWAP5 POP PUSH2 0x350 JUMP JUMPDEST SWAP5 POP SWAP5 SWAP3 POP POP POP JUMP JUMPDEST PUSH0 DUP3 PUSH2 0x3A8 JUMPI PUSH1 0x1 SWAP1 POP PUSH2 0x463 JUMP JUMPDEST DUP2 PUSH2 0x3B5 JUMPI PUSH0 SWAP1 POP PUSH2 0x463 JUMP JUMPDEST DUP2 PUSH1 0x1 DUP2 EQ PUSH2 0x3CB JUMPI PUSH1 0x2 DUP2 EQ PUSH2 0x3D5 JUMPI PUSH2 0x404 JUMP JUMPDEST PUSH1 0x1 SWAP2 POP POP PUSH2 0x463 JUMP JUMPDEST PUSH1 0xFF DUP5 GT ISZERO PUSH2 0x3E7 JUMPI PUSH2 0x3E6 PUSH2 0x2DB JUMP JUMPDEST JUMPDEST DUP4 PUSH1 0x2 EXP SWAP2 POP DUP5 DUP3 GT ISZERO PUSH2 0x3FE JUMPI PUSH2 0x3FD PUSH2 0x2DB JUMP JUMPDEST JUMPDEST POP PUSH2 0x463 JUMP JUMPDEST POP PUSH1 0x20 DUP4 LT PUSH2 0x133 DUP4 LT AND PUSH1 0x4E DUP5 LT PUSH1 0xB DUP5 LT AND OR ISZERO PUSH2 0x439 JUMPI DUP3 DUP3 EXP SWAP1 POP DUP4 DUP2 GT ISZERO PUSH2 0x434 JUMPI PUSH2 0x433 PUSH2 0x2DB JUMP JUMPDEST JUMPDEST PUSH2 0x463 JUMP JUMPDEST PUSH2 0x446 DUP5 DUP5 DUP5 PUSH1 0x1 PUSH2 0x347 JUMP JUMPDEST SWAP3 POP SWAP1 POP DUP2 DUP5 DIV DUP2 GT ISZERO PUSH2 0x45D JUMPI PUSH2 0x45C PUSH2 0x2DB JUMP JUMPDEST JUMPDEST DUP2 DUP2 MUL SWAP1 POP JUMPDEST SWAP4 SWAP3 POP POP POP JUMP JUMPDEST PUSH0 PUSH2 0x474 DUP3 PUSH2 0x1A4 JUMP JUMPDEST SWAP2 POP PUSH2 0x47F DUP4 PUSH2 0x1A4 JUMP JUMPDEST SWAP3 POP PUSH2 0x4AC PUSH32 0xFFFFFFFFFFFFFFFFFFFFFFFFFFFFFFFFFFFFFFFFFFFFFFFFFFFFFFFFFFFFFFFF DUP5 DUP5 PUSH2 0x399 JUMP JUMPDEST SWAP1 POP SWAP3 SWAP2 POP POP JUMP JUMPDEST PUSH32 0x4E487B7100000000000000000000000000000000000000000000000000000000 PUSH0 MSTORE PUSH1 0x32 PUSH1 0x4 MSTORE PUSH1 0x24 PUSH0 REVERT JUMPDEST PUSH0 PUSH2 0x4EB DUP3 PUSH2 0x1A4 JUMP JUMPDEST SWAP2 POP PUSH2 0x4F6 DUP4 PUSH2 0x1A4 JUMP JUMPDEST SWAP3 POP DUP3 DUP3 MUL PUSH2 0x504 DUP2 PUSH2 0x1A4 JUMP JUMPDEST SWAP2 POP DUP3 DUP3 DIV DUP5 EQ DUP4 ISZERO OR PUSH2 0x51B JUMPI PUSH2 0x51A PUSH2 0x2DB JUMP JUMPDEST JUMPDEST POP SWAP3 SWAP2 POP POP JUMP JUMPDEST PUSH0 PUSH2 0x52C DUP3 PUSH2 0x1A4 JUMP JUMPDEST SWAP2 POP PUSH2 0x537 DUP4 PUSH2 0x1A4 JUMP JUMPDEST SWAP3 POP DUP3 DUP3 ADD SWAP1 POP DUP1 DUP3 GT ISZERO PUSH2 0x54F JUMPI PUSH2 0x54E PUSH2 0x2DB JUMP JUMPDEST JUMPDEST SWAP3 SWAP2 POP POP JUMP INVALID LOG2 PUSH5 0x6970667358 0x22 SLT KECCAK256 0xA7 PUSH26 0xC8368EC981287B8D091B5872D3CFAE824F8067F1A0CC2C674DBC TSTORE SGT PUSH11 0xFE64736F6C634300081A00 CALLER "
				},
				"gasEstimates": {
					"creation": {
						"codeDepositCost": "283800",
						"executionCost": "322",
						"totalCost": "284122"
					},
					"external": {
						"concatNumbers(uint256[])": "infinite"
					}
				},
				"methodIdentifiers": {
					"concatNumbers(uint256[])": "72fb5aff"
				}
			},
			"storageLayout": {
				"storage": [],
				"types": null
			},
			"userdoc": {
				"kind": "user",
				"methods": {},
				"version": 1
			}
		}
	}
}