{
	"Code Test/CodeTest_7.sol": {
		"Test7_2": {
			"abi": [
				{
					"inputs": [],
					"name": "accel",
					"outputs": [],
					"stateMutability": "nonpayable",
					"type": "function"
				},
				{
					"inputs": [],
					"name": "breaks",
					"outputs": [],
					"stateMutability": "nonpayable",
					"type": "function"
				},
				{
					"inputs": [],
					"name": "charge",
					"outputs": [],
					"stateMutability": "payable",
					"type": "function"
				},
				{
					"inputs": [],
					"name": "fillGas",
					"outputs": [],
					"stateMutability": "payable",
					"type": "function"
				},
				{
					"inputs": [],
					"name": "myCar",
					"outputs": [
						{
							"internalType": "uint256",
							"name": "speed",
							"type": "uint256"
						},
						{
							"internalType": "uint256",
							"name": "gas",
							"type": "uint256"
						},
						{
							"internalType": "uint256",
							"name": "balances",
							"type": "uint256"
						},
						{
							"internalType": "enum Test7_2.CarStatus",
							"name": "status",
							"type": "uint8"
						}
					],
					"stateMutability": "view",
					"type": "function"
				},
				{
					"inputs": [],
					"name": "off",
					"outputs": [],
					"stateMutability": "nonpayable",
					"type": "function"
				},
				{
					"inputs": [],
					"name": "on",
					"outputs": [],
					"stateMutability": "nonpayable",
					"type": "function"
				},
				{
					"stateMutability": "payable",
					"type": "receive"
				}
			],
			"devdoc": {
				"kind": "dev",
				"methods": {},
				"version": 1
			},
			"evm": {
				"assembly": "    /* \"Code Test/CodeTest_7.sol\":3286:6716  contract Test7_2{... */\n  mstore(0x40, 0x80)\n  callvalue\n  dup1\n  iszero\n  tag_1\n  jumpi\n  0x00\n  dup1\n  revert\ntag_1:\n  pop\n  dataSize(sub_0)\n  dup1\n  dataOffset(sub_0)\n  0x00\n  codecopy\n  0x00\n  return\nstop\n\nsub_0: assembly {\n        /* \"Code Test/CodeTest_7.sol\":3286:6716  contract Test7_2{... */\n      mstore(0x40, 0x80)\n      jumpi(tag_1, lt(calldatasize, 0x04))\n      shr(0xe0, calldataload(0x00))\n      dup1\n      0x75438e49\n      gt\n      tag_10\n      jumpi\n      dup1\n      0x75438e49\n      eq\n      tag_6\n      jumpi\n      dup1\n      0x9cdde813\n      eq\n      tag_7\n      jumpi\n      dup1\n      0xe09d2f92\n      eq\n      tag_8\n      jumpi\n      dup1\n      0xf282df78\n      eq\n      tag_9\n      jumpi\n      jump(tag_2)\n    tag_10:\n      dup1\n      0x55161913\n      eq\n      tag_3\n      jumpi\n      dup1\n      0x6626b26d\n      eq\n      tag_4\n      jumpi\n      dup1\n      0x67b7c034\n      eq\n      tag_5\n      jumpi\n      jump(tag_2)\n    tag_1:\n      jumpi(tag_2, calldatasize)\n      stop\n    tag_2:\n      0x00\n      dup1\n      revert\n        /* \"Code Test/CodeTest_7.sol\":6453:6680  function charge() public payable{... */\n    tag_3:\n      tag_13\n      tag_14\n      jump\t// in\n    tag_13:\n      stop\n        /* \"Code Test/CodeTest_7.sol\":5784:5909  function off() public {... */\n    tag_4:\n      callvalue\n      dup1\n      iszero\n      tag_15\n      jumpi\n      0x00\n      dup1\n      revert\n    tag_15:\n      pop\n      tag_16\n      tag_17\n      jump\t// in\n    tag_16:\n      stop\n        /* \"Code Test/CodeTest_7.sol\":5555:5670  function on() public {... */\n    tag_5:\n      callvalue\n      dup1\n      iszero\n      tag_18\n      jumpi\n      0x00\n      dup1\n      revert\n    tag_18:\n      pop\n      tag_19\n      tag_20\n      jump\t// in\n    tag_19:\n      stop\n        /* \"Code Test/CodeTest_7.sol\":6026:6352  function fillGas() public payable {... */\n    tag_6:\n      tag_21\n      tag_22\n      jump\t// in\n    tag_21:\n      stop\n        /* \"Code Test/CodeTest_7.sol\":4393:4409  Car public myCar */\n    tag_7:\n      callvalue\n      dup1\n      iszero\n      tag_23\n      jumpi\n      0x00\n      dup1\n      revert\n    tag_23:\n      pop\n      tag_24\n      tag_25\n      jump\t// in\n    tag_24:\n      mload(0x40)\n      tag_26\n      swap5\n      swap4\n      swap3\n      swap2\n      swap1\n      tag_27\n      jump\t// in\n    tag_26:\n      mload(0x40)\n      dup1\n      swap2\n      sub\n      swap1\n      return\n        /* \"Code Test/CodeTest_7.sol\":5174:5450  function breaks() public {... */\n    tag_8:\n      callvalue\n      dup1\n      iszero\n      tag_28\n      jumpi\n      0x00\n      dup1\n      revert\n    tag_28:\n      pop\n      tag_29\n      tag_30\n      jump\t// in\n    tag_29:\n      stop\n        /* \"Code Test/CodeTest_7.sol\":4658:4987  function accel() public {... */\n    tag_9:\n      callvalue\n      dup1\n      iszero\n      tag_31\n      jumpi\n      0x00\n      dup1\n      revert\n    tag_31:\n      pop\n      tag_32\n      tag_33\n      jump\t// in\n    tag_32:\n      stop\n        /* \"Code Test/CodeTest_7.sol\":6453:6680  function charge() public payable{... */\n    tag_14:\n        /* \"Code Test/CodeTest_7.sol\":6517:6524  1 ether */\n      0x0de0b6b3a7640000\n        /* \"Code Test/CodeTest_7.sol\":6504:6513  msg.value */\n      callvalue\n        /* \"Code Test/CodeTest_7.sol\":6504:6524  msg.value == 1 ether */\n      eq\n        /* \"Code Test/CodeTest_7.sol\":6504:6559  msg.value == 1 ether || address(this).balance >=1 ether */\n      dup1\n      tag_35\n      jumpi\n      pop\n        /* \"Code Test/CodeTest_7.sol\":6552:6559  1 ether */\n      0x0de0b6b3a7640000\n        /* \"Code Test/CodeTest_7.sol\":6528:6549  address(this).balance */\n      selfbalance\n        /* \"Code Test/CodeTest_7.sol\":6528:6559  address(this).balance >=1 ether */\n      lt\n      iszero\n        /* \"Code Test/CodeTest_7.sol\":6504:6559  msg.value == 1 ether || address(this).balance >=1 ether */\n    tag_35:\n        /* \"Code Test/CodeTest_7.sol\":6503:6593  (msg.value == 1 ether || address(this).balance >=1 ether) && myCar.status == CarStatus.off */\n      dup1\n      iszero\n      tag_36\n      jumpi\n      pop\n        /* \"Code Test/CodeTest_7.sol\":6580:6593  CarStatus.off */\n      0x01\n        /* \"Code Test/CodeTest_7.sol\":6564:6593  myCar.status == CarStatus.off */\n      0x02\n      dup2\n      gt\n      iszero\n      tag_37\n      jumpi\n      tag_38\n      tag_39\n      jump\t// in\n    tag_38:\n    tag_37:\n        /* \"Code Test/CodeTest_7.sol\":6564:6569  myCar */\n      0x00\n        /* \"Code Test/CodeTest_7.sol\":6564:6576  myCar.status */\n      0x03\n      add\n      0x00\n      swap1\n      sload\n      swap1\n      0x0100\n      exp\n      swap1\n      div\n      0xff\n      and\n        /* \"Code Test/CodeTest_7.sol\":6564:6593  myCar.status == CarStatus.off */\n      0x02\n      dup2\n      gt\n      iszero\n      tag_40\n      jumpi\n      tag_41\n      tag_39\n      jump\t// in\n    tag_41:\n    tag_40:\n      eq\n        /* \"Code Test/CodeTest_7.sol\":6503:6593  (msg.value == 1 ether || address(this).balance >=1 ether) && myCar.status == CarStatus.off */\n    tag_36:\n        /* \"Code Test/CodeTest_7.sol\":6495:6601  require((msg.value == 1 ether || address(this).balance >=1 ether) && myCar.status == CarStatus.off,\"Nope\") */\n      tag_42\n      jumpi\n      mload(0x40)\n      0x08c379a000000000000000000000000000000000000000000000000000000000\n      dup2\n      mstore\n      0x04\n      add\n      tag_43\n      swap1\n      tag_44\n      jump\t// in\n    tag_43:\n      mload(0x40)\n      dup1\n      swap2\n      sub\n      swap1\n      revert\n    tag_42:\n        /* \"Code Test/CodeTest_7.sol\":6623:6626  100 */\n      0x64\n        /* \"Code Test/CodeTest_7.sol\":6611:6616  myCar */\n      0x00\n        /* \"Code Test/CodeTest_7.sol\":6611:6620  myCar.gas */\n      0x01\n      add\n        /* \"Code Test/CodeTest_7.sol\":6611:6626  myCar.gas = 100 */\n      dup2\n      swap1\n      sstore\n      pop\n        /* \"Code Test/CodeTest_7.sol\":6652:6653  0 */\n      0x00\n        /* \"Code Test/CodeTest_7.sol\":6636:6664  payable(address(0)).transfer */\n      0xffffffffffffffffffffffffffffffffffffffff\n      and\n        /* \"Code Test/CodeTest_7.sol\":6636:6673  payable(address(0)).transfer(1 ether) */\n      0x08fc\n        /* \"Code Test/CodeTest_7.sol\":6665:6672  1 ether */\n      0x0de0b6b3a7640000\n        /* \"Code Test/CodeTest_7.sol\":6636:6673  payable(address(0)).transfer(1 ether) */\n      swap1\n      dup2\n      iszero\n      mul\n      swap1\n      mload(0x40)\n      0x00\n      mload(0x40)\n      dup1\n      dup4\n      sub\n      dup2\n      dup6\n      dup9\n      dup9\n      call\n      swap4\n      pop\n      pop\n      pop\n      pop\n      iszero\n      dup1\n      iszero\n      tag_46\n      jumpi\n      returndatasize\n      0x00\n      dup1\n      returndatacopy\n      revert(0x00, returndatasize)\n    tag_46:\n      pop\n        /* \"Code Test/CodeTest_7.sol\":6453:6680  function charge() public payable{... */\n      jump\t// out\n        /* \"Code Test/CodeTest_7.sol\":5784:5909  function off() public {... */\n    tag_17:\n        /* \"Code Test/CodeTest_7.sol\":5839:5840  0 */\n      0x00\n        /* \"Code Test/CodeTest_7.sol\":5824:5829  myCar */\n      dup1\n        /* \"Code Test/CodeTest_7.sol\":5824:5835  myCar.speed */\n      0x00\n      add\n      sload\n        /* \"Code Test/CodeTest_7.sol\":5824:5840  myCar.speed == 0 */\n      eq\n        /* \"Code Test/CodeTest_7.sol\":5816:5864  require(myCar.speed == 0, \"speed needs to be 0\") */\n      tag_48\n      jumpi\n      mload(0x40)\n      0x08c379a000000000000000000000000000000000000000000000000000000000\n      dup2\n      mstore\n      0x04\n      add\n      tag_49\n      swap1\n      tag_50\n      jump\t// in\n    tag_49:\n      mload(0x40)\n      dup1\n      swap2\n      sub\n      swap1\n      revert\n    tag_48:\n        /* \"Code Test/CodeTest_7.sol\":5889:5902  CarStatus.off */\n      0x01\n        /* \"Code Test/CodeTest_7.sol\":5874:5879  myCar */\n      0x00\n        /* \"Code Test/CodeTest_7.sol\":5874:5886  myCar.status */\n      0x03\n      add\n      0x00\n        /* \"Code Test/CodeTest_7.sol\":5874:5902  myCar.status = CarStatus.off */\n      0x0100\n      exp\n      dup2\n      sload\n      dup2\n      0xff\n      mul\n      not\n      and\n      swap1\n      dup4\n      0x02\n      dup2\n      gt\n      iszero\n      tag_51\n      jumpi\n      tag_52\n      tag_39\n      jump\t// in\n    tag_52:\n    tag_51:\n      mul\n      or\n      swap1\n      sstore\n      pop\n        /* \"Code Test/CodeTest_7.sol\":5784:5909  function off() public {... */\n      jump\t// out\n        /* \"Code Test/CodeTest_7.sol\":5555:5670  function on() public {... */\n    tag_20:\n        /* \"Code Test/CodeTest_7.sol\":5610:5623  CarStatus.off */\n      0x01\n        /* \"Code Test/CodeTest_7.sol\":5594:5623  myCar.status == CarStatus.off */\n      0x02\n      dup2\n      gt\n      iszero\n      tag_54\n      jumpi\n      tag_55\n      tag_39\n      jump\t// in\n    tag_55:\n    tag_54:\n        /* \"Code Test/CodeTest_7.sol\":5594:5599  myCar */\n      0x00\n        /* \"Code Test/CodeTest_7.sol\":5594:5606  myCar.status */\n      0x03\n      add\n      0x00\n      swap1\n      sload\n      swap1\n      0x0100\n      exp\n      swap1\n      div\n      0xff\n      and\n        /* \"Code Test/CodeTest_7.sol\":5594:5623  myCar.status == CarStatus.off */\n      0x02\n      dup2\n      gt\n      iszero\n      tag_56\n      jumpi\n      tag_57\n      tag_39\n      jump\t// in\n    tag_57:\n    tag_56:\n      eq\n        /* \"Code Test/CodeTest_7.sol\":5586:5624  require(myCar.status == CarStatus.off) */\n      tag_58\n      jumpi\n      0x00\n      dup1\n      revert\n    tag_58:\n        /* \"Code Test/CodeTest_7.sol\":5649:5663  CarStatus.stop */\n      0x00\n        /* \"Code Test/CodeTest_7.sol\":5634:5639  myCar */\n      dup1\n        /* \"Code Test/CodeTest_7.sol\":5634:5646  myCar.status */\n      0x03\n      add\n      0x00\n        /* \"Code Test/CodeTest_7.sol\":5634:5663  myCar.status = CarStatus.stop */\n      0x0100\n      exp\n      dup2\n      sload\n      dup2\n      0xff\n      mul\n      not\n      and\n      swap1\n      dup4\n      0x02\n      dup2\n      gt\n      iszero\n      tag_59\n      jumpi\n      tag_60\n      tag_39\n      jump\t// in\n    tag_60:\n    tag_59:\n      mul\n      or\n      swap1\n      sstore\n      pop\n        /* \"Code Test/CodeTest_7.sol\":5555:5670  function on() public {... */\n      jump\t// out\n        /* \"Code Test/CodeTest_7.sol\":6026:6352  function fillGas() public payable {... */\n    tag_22:\n        /* \"Code Test/CodeTest_7.sol\":6091:6098  1 ether */\n      0x0de0b6b3a7640000\n        /* \"Code Test/CodeTest_7.sol\":6078:6087  msg.value */\n      callvalue\n        /* \"Code Test/CodeTest_7.sol\":6078:6098  msg.value == 1 ether */\n      eq\n        /* \"Code Test/CodeTest_7.sol\":6078:6131  msg.value == 1 ether && myCar.status == CarStatus.off */\n      dup1\n      iszero\n      tag_62\n      jumpi\n      pop\n        /* \"Code Test/CodeTest_7.sol\":6118:6131  CarStatus.off */\n      0x01\n        /* \"Code Test/CodeTest_7.sol\":6102:6131  myCar.status == CarStatus.off */\n      0x02\n      dup2\n      gt\n      iszero\n      tag_63\n      jumpi\n      tag_64\n      tag_39\n      jump\t// in\n    tag_64:\n    tag_63:\n        /* \"Code Test/CodeTest_7.sol\":6102:6107  myCar */\n      0x00\n        /* \"Code Test/CodeTest_7.sol\":6102:6114  myCar.status */\n      0x03\n      add\n      0x00\n      swap1\n      sload\n      swap1\n      0x0100\n      exp\n      swap1\n      div\n      0xff\n      and\n        /* \"Code Test/CodeTest_7.sol\":6102:6131  myCar.status == CarStatus.off */\n      0x02\n      dup2\n      gt\n      iszero\n      tag_65\n      jumpi\n      tag_66\n      tag_39\n      jump\t// in\n    tag_66:\n    tag_65:\n      eq\n        /* \"Code Test/CodeTest_7.sol\":6078:6131  msg.value == 1 ether && myCar.status == CarStatus.off */\n    tag_62:\n        /* \"Code Test/CodeTest_7.sol\":6078:6160  msg.value == 1 ether && myCar.status == CarStatus.off || myCar.balances >= 1 ether */\n      dup1\n      tag_67\n      jumpi\n      pop\n        /* \"Code Test/CodeTest_7.sol\":6153:6160  1 ether */\n      0x0de0b6b3a7640000\n        /* \"Code Test/CodeTest_7.sol\":6135:6140  myCar */\n      0x00\n        /* \"Code Test/CodeTest_7.sol\":6135:6149  myCar.balances */\n      0x02\n      add\n      sload\n        /* \"Code Test/CodeTest_7.sol\":6135:6160  myCar.balances >= 1 ether */\n      lt\n      iszero\n        /* \"Code Test/CodeTest_7.sol\":6078:6160  msg.value == 1 ether && myCar.status == CarStatus.off || myCar.balances >= 1 ether */\n    tag_67:\n        /* \"Code Test/CodeTest_7.sol\":6070:6172  require(msg.value == 1 ether && myCar.status == CarStatus.off || myCar.balances >= 1 ether, \"1 ether\") */\n      tag_68\n      jumpi\n      mload(0x40)\n      0x08c379a000000000000000000000000000000000000000000000000000000000\n      dup2\n      mstore\n      0x04\n      add\n      tag_69\n      swap1\n      tag_70\n      jump\t// in\n    tag_69:\n      mload(0x40)\n      dup1\n      swap2\n      sub\n      swap1\n      revert\n    tag_68:\n        /* \"Code Test/CodeTest_7.sol\":6203:6210  1 ether */\n      0x0de0b6b3a7640000\n        /* \"Code Test/CodeTest_7.sol\":6185:6190  myCar */\n      0x00\n        /* \"Code Test/CodeTest_7.sol\":6185:6199  myCar.balances */\n      0x02\n      add\n      sload\n        /* \"Code Test/CodeTest_7.sol\":6185:6210  myCar.balances >= 1 ether */\n      lt\n        /* \"Code Test/CodeTest_7.sol\":6182:6337  if(myCar.balances >= 1 ether) {... */\n      tag_71\n      jumpi\n        /* \"Code Test/CodeTest_7.sol\":6244:6251  1 ether */\n      0x0de0b6b3a7640000\n        /* \"Code Test/CodeTest_7.sol\":6226:6231  myCar */\n      0x00\n        /* \"Code Test/CodeTest_7.sol\":6226:6240  myCar.balances */\n      0x02\n      add\n      0x00\n        /* \"Code Test/CodeTest_7.sol\":6226:6251  myCar.balances -= 1 ether */\n      dup3\n      dup3\n      sload\n      tag_72\n      swap2\n      swap1\n      tag_73\n      jump\t// in\n    tag_72:\n      swap3\n      pop\n      pop\n      dup2\n      swap1\n      sstore\n      pop\n        /* \"Code Test/CodeTest_7.sol\":6277:6280  100 */\n      0x64\n        /* \"Code Test/CodeTest_7.sol\":6265:6270  myCar */\n      0x00\n        /* \"Code Test/CodeTest_7.sol\":6265:6274  myCar.gas */\n      0x01\n      add\n        /* \"Code Test/CodeTest_7.sol\":6265:6280  myCar.gas = 100 */\n      dup2\n      swap1\n      sstore\n      pop\n        /* \"Code Test/CodeTest_7.sol\":6182:6337  if(myCar.balances >= 1 ether) {... */\n      jump(tag_74)\n    tag_71:\n        /* \"Code Test/CodeTest_7.sol\":6323:6326  100 */\n      0x64\n        /* \"Code Test/CodeTest_7.sol\":6311:6316  myCar */\n      0x00\n        /* \"Code Test/CodeTest_7.sol\":6311:6320  myCar.gas */\n      0x01\n      add\n        /* \"Code Test/CodeTest_7.sol\":6311:6326  myCar.gas = 100 */\n      dup2\n      swap1\n      sstore\n      pop\n        /* \"Code Test/CodeTest_7.sol\":6182:6337  if(myCar.balances >= 1 ether) {... */\n    tag_74:\n        /* \"Code Test/CodeTest_7.sol\":6026:6352  function fillGas() public payable {... */\n      jump\t// out\n        /* \"Code Test/CodeTest_7.sol\":4393:4409  Car public myCar */\n    tag_25:\n      0x00\n      dup1\n      0x00\n      add\n      sload\n      swap1\n      dup1\n      0x01\n      add\n      sload\n      swap1\n      dup1\n      0x02\n      add\n      sload\n      swap1\n      dup1\n      0x03\n      add\n      0x00\n      swap1\n      sload\n      swap1\n      0x0100\n      exp\n      swap1\n      div\n      0xff\n      and\n      swap1\n      pop\n      dup5\n      jump\t// out\n        /* \"Code Test/CodeTest_7.sol\":5174:5450  function breaks() public {... */\n    tag_30:\n        /* \"Code Test/CodeTest_7.sol\":5230:5232  10 */\n      0x0a\n        /* \"Code Test/CodeTest_7.sol\":5217:5222  myCar */\n      0x00\n        /* \"Code Test/CodeTest_7.sol\":5217:5226  myCar.gas */\n      0x01\n      add\n      sload\n        /* \"Code Test/CodeTest_7.sol\":5217:5232  myCar.gas >= 10 */\n      lt\n      iszero\n        /* \"Code Test/CodeTest_7.sol\":5217:5251  myCar.gas >= 10 && myCar.speed > 0 */\n      dup1\n      iszero\n      tag_76\n      jumpi\n      pop\n        /* \"Code Test/CodeTest_7.sol\":5250:5251  0 */\n      0x00\n        /* \"Code Test/CodeTest_7.sol\":5236:5241  myCar */\n      dup1\n        /* \"Code Test/CodeTest_7.sol\":5236:5247  myCar.speed */\n      0x00\n      add\n      sload\n        /* \"Code Test/CodeTest_7.sol\":5236:5251  myCar.speed > 0 */\n      gt\n        /* \"Code Test/CodeTest_7.sol\":5217:5251  myCar.gas >= 10 && myCar.speed > 0 */\n    tag_76:\n        /* \"Code Test/CodeTest_7.sol\":5217:5288  myCar.gas >= 10 && myCar.speed > 0 && myCar.status == CarStatus.driving */\n      dup1\n      iszero\n      tag_77\n      jumpi\n      pop\n        /* \"Code Test/CodeTest_7.sol\":5271:5288  CarStatus.driving */\n      0x02\n        /* \"Code Test/CodeTest_7.sol\":5255:5288  myCar.status == CarStatus.driving */\n      dup1\n      dup2\n      gt\n      iszero\n      tag_78\n      jumpi\n      tag_79\n      tag_39\n      jump\t// in\n    tag_79:\n    tag_78:\n        /* \"Code Test/CodeTest_7.sol\":5255:5260  myCar */\n      0x00\n        /* \"Code Test/CodeTest_7.sol\":5255:5267  myCar.status */\n      0x03\n      add\n      0x00\n      swap1\n      sload\n      swap1\n      0x0100\n      exp\n      swap1\n      div\n      0xff\n      and\n        /* \"Code Test/CodeTest_7.sol\":5255:5288  myCar.status == CarStatus.driving */\n      0x02\n      dup2\n      gt\n      iszero\n      tag_80\n      jumpi\n      tag_81\n      tag_39\n      jump\t// in\n    tag_81:\n    tag_80:\n      eq\n        /* \"Code Test/CodeTest_7.sol\":5217:5288  myCar.gas >= 10 && myCar.speed > 0 && myCar.status == CarStatus.driving */\n    tag_77:\n        /* \"Code Test/CodeTest_7.sol\":5209:5309  require(myCar.gas >= 10 && myCar.speed > 0 && myCar.status == CarStatus.driving, \"cannot use break\") */\n      tag_82\n      jumpi\n      mload(0x40)\n      0x08c379a000000000000000000000000000000000000000000000000000000000\n      dup2\n      mstore\n      0x04\n      add\n      tag_83\n      swap1\n      tag_84\n      jump\t// in\n    tag_83:\n      mload(0x40)\n      dup1\n      swap2\n      sub\n      swap1\n      revert\n    tag_82:\n        /* \"Code Test/CodeTest_7.sol\":5332:5334  10 */\n      0x0a\n        /* \"Code Test/CodeTest_7.sol\":5319:5324  myCar */\n      0x00\n        /* \"Code Test/CodeTest_7.sol\":5319:5328  myCar.gas */\n      0x01\n      add\n      0x00\n        /* \"Code Test/CodeTest_7.sol\":5319:5334  myCar.gas -= 10 */\n      dup3\n      dup3\n      sload\n      tag_85\n      swap2\n      swap1\n      tag_73\n      jump\t// in\n    tag_85:\n      swap3\n      pop\n      pop\n      dup2\n      swap1\n      sstore\n      pop\n        /* \"Code Test/CodeTest_7.sol\":5359:5361  10 */\n      0x0a\n        /* \"Code Test/CodeTest_7.sol\":5344:5349  myCar */\n      0x00\n        /* \"Code Test/CodeTest_7.sol\":5344:5355  myCar.speed */\n      dup1\n      add\n      0x00\n        /* \"Code Test/CodeTest_7.sol\":5344:5361  myCar.speed -= 10 */\n      dup3\n      dup3\n      sload\n      tag_86\n      swap2\n      swap1\n      tag_73\n      jump\t// in\n    tag_86:\n      swap3\n      pop\n      pop\n      dup2\n      swap1\n      sstore\n      pop\n        /* \"Code Test/CodeTest_7.sol\":5389:5390  0 */\n      0x00\n        /* \"Code Test/CodeTest_7.sol\":5374:5379  myCar */\n      dup1\n        /* \"Code Test/CodeTest_7.sol\":5374:5385  myCar.speed */\n      0x00\n      add\n      sload\n        /* \"Code Test/CodeTest_7.sol\":5374:5390  myCar.speed == 0 */\n      sub\n        /* \"Code Test/CodeTest_7.sol\":5371:5444  if(myCar.speed == 0) {... */\n      tag_87\n      jumpi\n        /* \"Code Test/CodeTest_7.sol\":5419:5433  CarStatus.stop */\n      0x00\n        /* \"Code Test/CodeTest_7.sol\":5406:5411  myCar */\n      dup1\n        /* \"Code Test/CodeTest_7.sol\":5406:5418  myCar.status */\n      0x03\n      add\n      0x00\n        /* \"Code Test/CodeTest_7.sol\":5406:5433  myCar.status=CarStatus.stop */\n      0x0100\n      exp\n      dup2\n      sload\n      dup2\n      0xff\n      mul\n      not\n      and\n      swap1\n      dup4\n      0x02\n      dup2\n      gt\n      iszero\n      tag_88\n      jumpi\n      tag_89\n      tag_39\n      jump\t// in\n    tag_89:\n    tag_88:\n      mul\n      or\n      swap1\n      sstore\n      pop\n        /* \"Code Test/CodeTest_7.sol\":5371:5444  if(myCar.speed == 0) {... */\n    tag_87:\n        /* \"Code Test/CodeTest_7.sol\":5174:5450  function breaks() public {... */\n      jump\t// out\n        /* \"Code Test/CodeTest_7.sol\":4658:4987  function accel() public {... */\n    tag_33:\n        /* \"Code Test/CodeTest_7.sol\":4712:4714  30 */\n      0x1e\n        /* \"Code Test/CodeTest_7.sol\":4700:4705  myCar */\n      0x00\n        /* \"Code Test/CodeTest_7.sol\":4700:4709  myCar.gas */\n      0x01\n      add\n      sload\n        /* \"Code Test/CodeTest_7.sol\":4700:4714  myCar.gas > 30 */\n      gt\n        /* \"Code Test/CodeTest_7.sol\":4700:4734  myCar.gas > 30 && myCar.speed < 70 */\n      dup1\n      iszero\n      tag_91\n      jumpi\n      pop\n        /* \"Code Test/CodeTest_7.sol\":4732:4734  70 */\n      0x46\n        /* \"Code Test/CodeTest_7.sol\":4718:4723  myCar */\n      0x00\n        /* \"Code Test/CodeTest_7.sol\":4718:4729  myCar.speed */\n      dup1\n      add\n      sload\n        /* \"Code Test/CodeTest_7.sol\":4718:4734  myCar.speed < 70 */\n      lt\n        /* \"Code Test/CodeTest_7.sol\":4700:4734  myCar.gas > 30 && myCar.speed < 70 */\n    tag_91:\n        /* \"Code Test/CodeTest_7.sol\":4700:4771  myCar.gas > 30 && myCar.speed < 70 && myCar.status == CarStatus.driving */\n      dup1\n      iszero\n      tag_92\n      jumpi\n      pop\n        /* \"Code Test/CodeTest_7.sol\":4754:4771  CarStatus.driving */\n      0x02\n        /* \"Code Test/CodeTest_7.sol\":4738:4771  myCar.status == CarStatus.driving */\n      dup1\n      dup2\n      gt\n      iszero\n      tag_93\n      jumpi\n      tag_94\n      tag_39\n      jump\t// in\n    tag_94:\n    tag_93:\n        /* \"Code Test/CodeTest_7.sol\":4738:4743  myCar */\n      0x00\n        /* \"Code Test/CodeTest_7.sol\":4738:4750  myCar.status */\n      0x03\n      add\n      0x00\n      swap1\n      sload\n      swap1\n      0x0100\n      exp\n      swap1\n      div\n      0xff\n      and\n        /* \"Code Test/CodeTest_7.sol\":4738:4771  myCar.status == CarStatus.driving */\n      0x02\n      dup2\n      gt\n      iszero\n      tag_95\n      jumpi\n      tag_96\n      tag_39\n      jump\t// in\n    tag_96:\n    tag_95:\n      eq\n        /* \"Code Test/CodeTest_7.sol\":4700:4771  myCar.gas > 30 && myCar.speed < 70 && myCar.status == CarStatus.driving */\n    tag_92:\n        /* \"Code Test/CodeTest_7.sol\":4700:4805  myCar.gas > 30 && myCar.speed < 70 && myCar.status == CarStatus.driving || myCar.status == CarStatus.stop */\n      dup1\n      tag_97\n      jumpi\n      pop\n        /* \"Code Test/CodeTest_7.sol\":4791:4805  CarStatus.stop */\n      0x00\n        /* \"Code Test/CodeTest_7.sol\":4775:4805  myCar.status == CarStatus.stop */\n      0x02\n      dup2\n      gt\n      iszero\n      tag_98\n      jumpi\n      tag_99\n      tag_39\n      jump\t// in\n    tag_99:\n    tag_98:\n        /* \"Code Test/CodeTest_7.sol\":4775:4780  myCar */\n      0x00\n        /* \"Code Test/CodeTest_7.sol\":4775:4787  myCar.status */\n      0x03\n      add\n      0x00\n      swap1\n      sload\n      swap1\n      0x0100\n      exp\n      swap1\n      div\n      0xff\n      and\n        /* \"Code Test/CodeTest_7.sol\":4775:4805  myCar.status == CarStatus.stop */\n      0x02\n      dup2\n      gt\n      iszero\n      tag_100\n      jumpi\n      tag_101\n      tag_39\n      jump\t// in\n    tag_101:\n    tag_100:\n      eq\n        /* \"Code Test/CodeTest_7.sol\":4700:4805  myCar.gas > 30 && myCar.speed < 70 && myCar.status == CarStatus.driving || myCar.status == CarStatus.stop */\n    tag_97:\n        /* \"Code Test/CodeTest_7.sol\":4692:4826  require(myCar.gas > 30 && myCar.speed < 70 && myCar.status == CarStatus.driving || myCar.status == CarStatus.stop, \"cannot use excel\") */\n      tag_102\n      jumpi\n      mload(0x40)\n      0x08c379a000000000000000000000000000000000000000000000000000000000\n      dup2\n      mstore\n      0x04\n      add\n      tag_103\n      swap1\n      tag_104\n      jump\t// in\n    tag_103:\n      mload(0x40)\n      dup1\n      swap2\n      sub\n      swap1\n      revert\n    tag_102:\n        /* \"Code Test/CodeTest_7.sol\":4849:4851  20 */\n      0x14\n        /* \"Code Test/CodeTest_7.sol\":4836:4841  myCar */\n      0x00\n        /* \"Code Test/CodeTest_7.sol\":4836:4845  myCar.gas */\n      0x01\n      add\n      0x00\n        /* \"Code Test/CodeTest_7.sol\":4836:4851  myCar.gas -= 20 */\n      dup3\n      dup3\n      sload\n      tag_105\n      swap2\n      swap1\n      tag_73\n      jump\t// in\n    tag_105:\n      swap3\n      pop\n      pop\n      dup2\n      swap1\n      sstore\n      pop\n        /* \"Code Test/CodeTest_7.sol\":4876:4878  10 */\n      0x0a\n        /* \"Code Test/CodeTest_7.sol\":4861:4866  myCar */\n      0x00\n        /* \"Code Test/CodeTest_7.sol\":4861:4872  myCar.speed */\n      dup1\n      add\n      0x00\n        /* \"Code Test/CodeTest_7.sol\":4861:4878  myCar.speed += 10 */\n      dup3\n      dup3\n      sload\n      tag_106\n      swap2\n      swap1\n      tag_107\n      jump\t// in\n    tag_106:\n      swap3\n      pop\n      pop\n      dup2\n      swap1\n      sstore\n      pop\n        /* \"Code Test/CodeTest_7.sol\":4907:4924  CarStatus.driving */\n      0x02\n        /* \"Code Test/CodeTest_7.sol\":4891:4924  myCar.status != CarStatus.driving */\n      dup1\n      dup2\n      gt\n      iszero\n      tag_108\n      jumpi\n      tag_109\n      tag_39\n      jump\t// in\n    tag_109:\n    tag_108:\n        /* \"Code Test/CodeTest_7.sol\":4891:4896  myCar */\n      0x00\n        /* \"Code Test/CodeTest_7.sol\":4891:4903  myCar.status */\n      0x03\n      add\n      0x00\n      swap1\n      sload\n      swap1\n      0x0100\n      exp\n      swap1\n      div\n      0xff\n      and\n        /* \"Code Test/CodeTest_7.sol\":4891:4924  myCar.status != CarStatus.driving */\n      0x02\n      dup2\n      gt\n      iszero\n      tag_110\n      jumpi\n      tag_111\n      tag_39\n      jump\t// in\n    tag_111:\n    tag_110:\n      eq\n        /* \"Code Test/CodeTest_7.sol\":4888:4981  if(myCar.status != CarStatus.driving) {... */\n      tag_112\n      jumpi\n        /* \"Code Test/CodeTest_7.sol\":4953:4970  CarStatus.driving */\n      0x02\n        /* \"Code Test/CodeTest_7.sol\":4940:4945  myCar */\n      0x00\n        /* \"Code Test/CodeTest_7.sol\":4940:4952  myCar.status */\n      0x03\n      add\n      0x00\n        /* \"Code Test/CodeTest_7.sol\":4940:4970  myCar.status=CarStatus.driving */\n      0x0100\n      exp\n      dup2\n      sload\n      dup2\n      0xff\n      mul\n      not\n      and\n      swap1\n      dup4\n      0x02\n      dup2\n      gt\n      iszero\n      tag_113\n      jumpi\n      tag_114\n      tag_39\n      jump\t// in\n    tag_114:\n    tag_113:\n      mul\n      or\n      swap1\n      sstore\n      pop\n        /* \"Code Test/CodeTest_7.sol\":4888:4981  if(myCar.status != CarStatus.driving) {... */\n    tag_112:\n        /* \"Code Test/CodeTest_7.sol\":4658:4987  function accel() public {... */\n      jump\t// out\n        /* \"#utility.yul\":7:84   */\n    tag_115:\n        /* \"#utility.yul\":44:51   */\n      0x00\n        /* \"#utility.yul\":73:78   */\n      dup2\n        /* \"#utility.yul\":62:78   */\n      swap1\n      pop\n        /* \"#utility.yul\":7:84   */\n      swap2\n      swap1\n      pop\n      jump\t// out\n        /* \"#utility.yul\":90:208   */\n    tag_116:\n        /* \"#utility.yul\":177:201   */\n      tag_136\n        /* \"#utility.yul\":195:200   */\n      dup2\n        /* \"#utility.yul\":177:201   */\n      tag_115\n      jump\t// in\n    tag_136:\n        /* \"#utility.yul\":172:175   */\n      dup3\n        /* \"#utility.yul\":165:202   */\n      mstore\n        /* \"#utility.yul\":90:208   */\n      pop\n      pop\n      jump\t// out\n        /* \"#utility.yul\":214:394   */\n    tag_39:\n        /* \"#utility.yul\":262:339   */\n      0x4e487b7100000000000000000000000000000000000000000000000000000000\n        /* \"#utility.yul\":259:260   */\n      0x00\n        /* \"#utility.yul\":252:340   */\n      mstore\n        /* \"#utility.yul\":359:363   */\n      0x21\n        /* \"#utility.yul\":356:357   */\n      0x04\n        /* \"#utility.yul\":349:364   */\n      mstore\n        /* \"#utility.yul\":383:387   */\n      0x24\n        /* \"#utility.yul\":380:381   */\n      0x00\n        /* \"#utility.yul\":373:388   */\n      revert\n        /* \"#utility.yul\":400:518   */\n    tag_117:\n        /* \"#utility.yul\":486:487   */\n      0x03\n        /* \"#utility.yul\":479:484   */\n      dup2\n        /* \"#utility.yul\":476:488   */\n      lt\n        /* \"#utility.yul\":466:512   */\n      tag_139\n      jumpi\n        /* \"#utility.yul\":492:510   */\n      tag_140\n      tag_39\n      jump\t// in\n    tag_140:\n        /* \"#utility.yul\":466:512   */\n    tag_139:\n        /* \"#utility.yul\":400:518   */\n      pop\n      jump\t// out\n        /* \"#utility.yul\":524:661   */\n    tag_118:\n        /* \"#utility.yul\":574:581   */\n      0x00\n        /* \"#utility.yul\":603:608   */\n      dup2\n        /* \"#utility.yul\":592:608   */\n      swap1\n      pop\n        /* \"#utility.yul\":609:655   */\n      tag_142\n        /* \"#utility.yul\":649:654   */\n      dup3\n        /* \"#utility.yul\":609:655   */\n      tag_117\n      jump\t// in\n    tag_142:\n        /* \"#utility.yul\":524:661   */\n      swap2\n      swap1\n      pop\n      jump\t// out\n        /* \"#utility.yul\":667:804   */\n    tag_119:\n        /* \"#utility.yul\":728:737   */\n      0x00\n        /* \"#utility.yul\":761:798   */\n      tag_144\n        /* \"#utility.yul\":792:797   */\n      dup3\n        /* \"#utility.yul\":761:798   */\n      tag_118\n      jump\t// in\n    tag_144:\n        /* \"#utility.yul\":748:798   */\n      swap1\n      pop\n        /* \"#utility.yul\":667:804   */\n      swap2\n      swap1\n      pop\n      jump\t// out\n        /* \"#utility.yul\":810:963   */\n    tag_120:\n        /* \"#utility.yul\":908:956   */\n      tag_146\n        /* \"#utility.yul\":950:955   */\n      dup2\n        /* \"#utility.yul\":908:956   */\n      tag_119\n      jump\t// in\n    tag_146:\n        /* \"#utility.yul\":903:906   */\n      dup3\n        /* \"#utility.yul\":896:957   */\n      mstore\n        /* \"#utility.yul\":810:963   */\n      pop\n      pop\n      jump\t// out\n        /* \"#utility.yul\":969:1544   */\n    tag_27:\n        /* \"#utility.yul\":1157:1161   */\n      0x00\n        /* \"#utility.yul\":1195:1198   */\n      0x80\n        /* \"#utility.yul\":1184:1193   */\n      dup3\n        /* \"#utility.yul\":1180:1199   */\n      add\n        /* \"#utility.yul\":1172:1199   */\n      swap1\n      pop\n        /* \"#utility.yul\":1209:1280   */\n      tag_148\n        /* \"#utility.yul\":1277:1278   */\n      0x00\n        /* \"#utility.yul\":1266:1275   */\n      dup4\n        /* \"#utility.yul\":1262:1279   */\n      add\n        /* \"#utility.yul\":1253:1259   */\n      dup8\n        /* \"#utility.yul\":1209:1280   */\n      tag_116\n      jump\t// in\n    tag_148:\n        /* \"#utility.yul\":1290:1362   */\n      tag_149\n        /* \"#utility.yul\":1358:1360   */\n      0x20\n        /* \"#utility.yul\":1347:1356   */\n      dup4\n        /* \"#utility.yul\":1343:1361   */\n      add\n        /* \"#utility.yul\":1334:1340   */\n      dup7\n        /* \"#utility.yul\":1290:1362   */\n      tag_116\n      jump\t// in\n    tag_149:\n        /* \"#utility.yul\":1372:1444   */\n      tag_150\n        /* \"#utility.yul\":1440:1442   */\n      0x40\n        /* \"#utility.yul\":1429:1438   */\n      dup4\n        /* \"#utility.yul\":1425:1443   */\n      add\n        /* \"#utility.yul\":1416:1422   */\n      dup6\n        /* \"#utility.yul\":1372:1444   */\n      tag_116\n      jump\t// in\n    tag_150:\n        /* \"#utility.yul\":1454:1537   */\n      tag_151\n        /* \"#utility.yul\":1533:1535   */\n      0x60\n        /* \"#utility.yul\":1522:1531   */\n      dup4\n        /* \"#utility.yul\":1518:1536   */\n      add\n        /* \"#utility.yul\":1509:1515   */\n      dup5\n        /* \"#utility.yul\":1454:1537   */\n      tag_120\n      jump\t// in\n    tag_151:\n        /* \"#utility.yul\":969:1544   */\n      swap6\n      swap5\n      pop\n      pop\n      pop\n      pop\n      pop\n      jump\t// out\n        /* \"#utility.yul\":1550:1719   */\n    tag_121:\n        /* \"#utility.yul\":1634:1645   */\n      0x00\n        /* \"#utility.yul\":1668:1674   */\n      dup3\n        /* \"#utility.yul\":1663:1666   */\n      dup3\n        /* \"#utility.yul\":1656:1675   */\n      mstore\n        /* \"#utility.yul\":1708:1712   */\n      0x20\n        /* \"#utility.yul\":1703:1706   */\n      dup3\n        /* \"#utility.yul\":1699:1713   */\n      add\n        /* \"#utility.yul\":1684:1713   */\n      swap1\n      pop\n        /* \"#utility.yul\":1550:1719   */\n      swap3\n      swap2\n      pop\n      pop\n      jump\t// out\n        /* \"#utility.yul\":1725:1879   */\n    tag_122:\n        /* \"#utility.yul\":1865:1871   */\n      0x4e6f706500000000000000000000000000000000000000000000000000000000\n        /* \"#utility.yul\":1861:1862   */\n      0x00\n        /* \"#utility.yul\":1853:1859   */\n      dup3\n        /* \"#utility.yul\":1849:1863   */\n      add\n        /* \"#utility.yul\":1842:1872   */\n      mstore\n        /* \"#utility.yul\":1725:1879   */\n      pop\n      jump\t// out\n        /* \"#utility.yul\":1885:2250   */\n    tag_123:\n        /* \"#utility.yul\":2027:2030   */\n      0x00\n        /* \"#utility.yul\":2048:2114   */\n      tag_155\n        /* \"#utility.yul\":2112:2113   */\n      0x04\n        /* \"#utility.yul\":2107:2110   */\n      dup4\n        /* \"#utility.yul\":2048:2114   */\n      tag_121\n      jump\t// in\n    tag_155:\n        /* \"#utility.yul\":2041:2114   */\n      swap2\n      pop\n        /* \"#utility.yul\":2123:2216   */\n      tag_156\n        /* \"#utility.yul\":2212:2215   */\n      dup3\n        /* \"#utility.yul\":2123:2216   */\n      tag_122\n      jump\t// in\n    tag_156:\n        /* \"#utility.yul\":2241:2243   */\n      0x20\n        /* \"#utility.yul\":2236:2239   */\n      dup3\n        /* \"#utility.yul\":2232:2244   */\n      add\n        /* \"#utility.yul\":2225:2244   */\n      swap1\n      pop\n        /* \"#utility.yul\":1885:2250   */\n      swap2\n      swap1\n      pop\n      jump\t// out\n        /* \"#utility.yul\":2256:2675   */\n    tag_44:\n        /* \"#utility.yul\":2422:2426   */\n      0x00\n        /* \"#utility.yul\":2460:2462   */\n      0x20\n        /* \"#utility.yul\":2449:2458   */\n      dup3\n        /* \"#utility.yul\":2445:2463   */\n      add\n        /* \"#utility.yul\":2437:2463   */\n      swap1\n      pop\n        /* \"#utility.yul\":2509:2518   */\n      dup2\n        /* \"#utility.yul\":2503:2507   */\n      dup2\n        /* \"#utility.yul\":2499:2519   */\n      sub\n        /* \"#utility.yul\":2495:2496   */\n      0x00\n        /* \"#utility.yul\":2484:2493   */\n      dup4\n        /* \"#utility.yul\":2480:2497   */\n      add\n        /* \"#utility.yul\":2473:2520   */\n      mstore\n        /* \"#utility.yul\":2537:2668   */\n      tag_158\n        /* \"#utility.yul\":2663:2667   */\n      dup2\n        /* \"#utility.yul\":2537:2668   */\n      tag_123\n      jump\t// in\n    tag_158:\n        /* \"#utility.yul\":2529:2668   */\n      swap1\n      pop\n        /* \"#utility.yul\":2256:2675   */\n      swap2\n      swap1\n      pop\n      jump\t// out\n        /* \"#utility.yul\":2681:2850   */\n    tag_124:\n        /* \"#utility.yul\":2821:2842   */\n      0x7370656564206e6565647320746f206265203000000000000000000000000000\n        /* \"#utility.yul\":2817:2818   */\n      0x00\n        /* \"#utility.yul\":2809:2815   */\n      dup3\n        /* \"#utility.yul\":2805:2819   */\n      add\n        /* \"#utility.yul\":2798:2843   */\n      mstore\n        /* \"#utility.yul\":2681:2850   */\n      pop\n      jump\t// out\n        /* \"#utility.yul\":2856:3222   */\n    tag_125:\n        /* \"#utility.yul\":2998:3001   */\n      0x00\n        /* \"#utility.yul\":3019:3086   */\n      tag_161\n        /* \"#utility.yul\":3083:3085   */\n      0x13\n        /* \"#utility.yul\":3078:3081   */\n      dup4\n        /* \"#utility.yul\":3019:3086   */\n      tag_121\n      jump\t// in\n    tag_161:\n        /* \"#utility.yul\":3012:3086   */\n      swap2\n      pop\n        /* \"#utility.yul\":3095:3188   */\n      tag_162\n        /* \"#utility.yul\":3184:3187   */\n      dup3\n        /* \"#utility.yul\":3095:3188   */\n      tag_124\n      jump\t// in\n    tag_162:\n        /* \"#utility.yul\":3213:3215   */\n      0x20\n        /* \"#utility.yul\":3208:3211   */\n      dup3\n        /* \"#utility.yul\":3204:3216   */\n      add\n        /* \"#utility.yul\":3197:3216   */\n      swap1\n      pop\n        /* \"#utility.yul\":2856:3222   */\n      swap2\n      swap1\n      pop\n      jump\t// out\n        /* \"#utility.yul\":3228:3647   */\n    tag_50:\n        /* \"#utility.yul\":3394:3398   */\n      0x00\n        /* \"#utility.yul\":3432:3434   */\n      0x20\n        /* \"#utility.yul\":3421:3430   */\n      dup3\n        /* \"#utility.yul\":3417:3435   */\n      add\n        /* \"#utility.yul\":3409:3435   */\n      swap1\n      pop\n        /* \"#utility.yul\":3481:3490   */\n      dup2\n        /* \"#utility.yul\":3475:3479   */\n      dup2\n        /* \"#utility.yul\":3471:3491   */\n      sub\n        /* \"#utility.yul\":3467:3468   */\n      0x00\n        /* \"#utility.yul\":3456:3465   */\n      dup4\n        /* \"#utility.yul\":3452:3469   */\n      add\n        /* \"#utility.yul\":3445:3492   */\n      mstore\n        /* \"#utility.yul\":3509:3640   */\n      tag_164\n        /* \"#utility.yul\":3635:3639   */\n      dup2\n        /* \"#utility.yul\":3509:3640   */\n      tag_125\n      jump\t// in\n    tag_164:\n        /* \"#utility.yul\":3501:3640   */\n      swap1\n      pop\n        /* \"#utility.yul\":3228:3647   */\n      swap2\n      swap1\n      pop\n      jump\t// out\n        /* \"#utility.yul\":3653:3810   */\n    tag_126:\n        /* \"#utility.yul\":3793:3802   */\n      0x3120657468657200000000000000000000000000000000000000000000000000\n        /* \"#utility.yul\":3789:3790   */\n      0x00\n        /* \"#utility.yul\":3781:3787   */\n      dup3\n        /* \"#utility.yul\":3777:3791   */\n      add\n        /* \"#utility.yul\":3770:3803   */\n      mstore\n        /* \"#utility.yul\":3653:3810   */\n      pop\n      jump\t// out\n        /* \"#utility.yul\":3816:4181   */\n    tag_127:\n        /* \"#utility.yul\":3958:3961   */\n      0x00\n        /* \"#utility.yul\":3979:4045   */\n      tag_167\n        /* \"#utility.yul\":4043:4044   */\n      0x07\n        /* \"#utility.yul\":4038:4041   */\n      dup4\n        /* \"#utility.yul\":3979:4045   */\n      tag_121\n      jump\t// in\n    tag_167:\n        /* \"#utility.yul\":3972:4045   */\n      swap2\n      pop\n        /* \"#utility.yul\":4054:4147   */\n      tag_168\n        /* \"#utility.yul\":4143:4146   */\n      dup3\n        /* \"#utility.yul\":4054:4147   */\n      tag_126\n      jump\t// in\n    tag_168:\n        /* \"#utility.yul\":4172:4174   */\n      0x20\n        /* \"#utility.yul\":4167:4170   */\n      dup3\n        /* \"#utility.yul\":4163:4175   */\n      add\n        /* \"#utility.yul\":4156:4175   */\n      swap1\n      pop\n        /* \"#utility.yul\":3816:4181   */\n      swap2\n      swap1\n      pop\n      jump\t// out\n        /* \"#utility.yul\":4187:4606   */\n    tag_70:\n        /* \"#utility.yul\":4353:4357   */\n      0x00\n        /* \"#utility.yul\":4391:4393   */\n      0x20\n        /* \"#utility.yul\":4380:4389   */\n      dup3\n        /* \"#utility.yul\":4376:4394   */\n      add\n        /* \"#utility.yul\":4368:4394   */\n      swap1\n      pop\n        /* \"#utility.yul\":4440:4449   */\n      dup2\n        /* \"#utility.yul\":4434:4438   */\n      dup2\n        /* \"#utility.yul\":4430:4450   */\n      sub\n        /* \"#utility.yul\":4426:4427   */\n      0x00\n        /* \"#utility.yul\":4415:4424   */\n      dup4\n        /* \"#utility.yul\":4411:4428   */\n      add\n        /* \"#utility.yul\":4404:4451   */\n      mstore\n        /* \"#utility.yul\":4468:4599   */\n      tag_170\n        /* \"#utility.yul\":4594:4598   */\n      dup2\n        /* \"#utility.yul\":4468:4599   */\n      tag_127\n      jump\t// in\n    tag_170:\n        /* \"#utility.yul\":4460:4599   */\n      swap1\n      pop\n        /* \"#utility.yul\":4187:4606   */\n      swap2\n      swap1\n      pop\n      jump\t// out\n        /* \"#utility.yul\":4612:4792   */\n    tag_128:\n        /* \"#utility.yul\":4660:4737   */\n      0x4e487b7100000000000000000000000000000000000000000000000000000000\n        /* \"#utility.yul\":4657:4658   */\n      0x00\n        /* \"#utility.yul\":4650:4738   */\n      mstore\n        /* \"#utility.yul\":4757:4761   */\n      0x11\n        /* \"#utility.yul\":4754:4755   */\n      0x04\n        /* \"#utility.yul\":4747:4762   */\n      mstore\n        /* \"#utility.yul\":4781:4785   */\n      0x24\n        /* \"#utility.yul\":4778:4779   */\n      0x00\n        /* \"#utility.yul\":4771:4786   */\n      revert\n        /* \"#utility.yul\":4798:4992   */\n    tag_73:\n        /* \"#utility.yul\":4838:4842   */\n      0x00\n        /* \"#utility.yul\":4858:4878   */\n      tag_173\n        /* \"#utility.yul\":4876:4877   */\n      dup3\n        /* \"#utility.yul\":4858:4878   */\n      tag_115\n      jump\t// in\n    tag_173:\n        /* \"#utility.yul\":4853:4878   */\n      swap2\n      pop\n        /* \"#utility.yul\":4892:4912   */\n      tag_174\n        /* \"#utility.yul\":4910:4911   */\n      dup4\n        /* \"#utility.yul\":4892:4912   */\n      tag_115\n      jump\t// in\n    tag_174:\n        /* \"#utility.yul\":4887:4912   */\n      swap3\n      pop\n        /* \"#utility.yul\":4936:4937   */\n      dup3\n        /* \"#utility.yul\":4933:4934   */\n      dup3\n        /* \"#utility.yul\":4929:4938   */\n      sub\n        /* \"#utility.yul\":4921:4938   */\n      swap1\n      pop\n        /* \"#utility.yul\":4960:4961   */\n      dup2\n        /* \"#utility.yul\":4954:4958   */\n      dup2\n        /* \"#utility.yul\":4951:4962   */\n      gt\n        /* \"#utility.yul\":4948:4985   */\n      iszero\n      tag_175\n      jumpi\n        /* \"#utility.yul\":4965:4983   */\n      tag_176\n      tag_128\n      jump\t// in\n    tag_176:\n        /* \"#utility.yul\":4948:4985   */\n    tag_175:\n        /* \"#utility.yul\":4798:4992   */\n      swap3\n      swap2\n      pop\n      pop\n      jump\t// out\n        /* \"#utility.yul\":4998:5164   */\n    tag_129:\n        /* \"#utility.yul\":5138:5156   */\n      0x63616e6e6f742075736520627265616b00000000000000000000000000000000\n        /* \"#utility.yul\":5134:5135   */\n      0x00\n        /* \"#utility.yul\":5126:5132   */\n      dup3\n        /* \"#utility.yul\":5122:5136   */\n      add\n        /* \"#utility.yul\":5115:5157   */\n      mstore\n        /* \"#utility.yul\":4998:5164   */\n      pop\n      jump\t// out\n        /* \"#utility.yul\":5170:5536   */\n    tag_130:\n        /* \"#utility.yul\":5312:5315   */\n      0x00\n        /* \"#utility.yul\":5333:5400   */\n      tag_179\n        /* \"#utility.yul\":5397:5399   */\n      0x10\n        /* \"#utility.yul\":5392:5395   */\n      dup4\n        /* \"#utility.yul\":5333:5400   */\n      tag_121\n      jump\t// in\n    tag_179:\n        /* \"#utility.yul\":5326:5400   */\n      swap2\n      pop\n        /* \"#utility.yul\":5409:5502   */\n      tag_180\n        /* \"#utility.yul\":5498:5501   */\n      dup3\n        /* \"#utility.yul\":5409:5502   */\n      tag_129\n      jump\t// in\n    tag_180:\n        /* \"#utility.yul\":5527:5529   */\n      0x20\n        /* \"#utility.yul\":5522:5525   */\n      dup3\n        /* \"#utility.yul\":5518:5530   */\n      add\n        /* \"#utility.yul\":5511:5530   */\n      swap1\n      pop\n        /* \"#utility.yul\":5170:5536   */\n      swap2\n      swap1\n      pop\n      jump\t// out\n        /* \"#utility.yul\":5542:5961   */\n    tag_84:\n        /* \"#utility.yul\":5708:5712   */\n      0x00\n        /* \"#utility.yul\":5746:5748   */\n      0x20\n        /* \"#utility.yul\":5735:5744   */\n      dup3\n        /* \"#utility.yul\":5731:5749   */\n      add\n        /* \"#utility.yul\":5723:5749   */\n      swap1\n      pop\n        /* \"#utility.yul\":5795:5804   */\n      dup2\n        /* \"#utility.yul\":5789:5793   */\n      dup2\n        /* \"#utility.yul\":5785:5805   */\n      sub\n        /* \"#utility.yul\":5781:5782   */\n      0x00\n        /* \"#utility.yul\":5770:5779   */\n      dup4\n        /* \"#utility.yul\":5766:5783   */\n      add\n        /* \"#utility.yul\":5759:5806   */\n      mstore\n        /* \"#utility.yul\":5823:5954   */\n      tag_182\n        /* \"#utility.yul\":5949:5953   */\n      dup2\n        /* \"#utility.yul\":5823:5954   */\n      tag_130\n      jump\t// in\n    tag_182:\n        /* \"#utility.yul\":5815:5954   */\n      swap1\n      pop\n        /* \"#utility.yul\":5542:5961   */\n      swap2\n      swap1\n      pop\n      jump\t// out\n        /* \"#utility.yul\":5967:6133   */\n    tag_131:\n        /* \"#utility.yul\":6107:6125   */\n      0x63616e6e6f742075736520657863656c00000000000000000000000000000000\n        /* \"#utility.yul\":6103:6104   */\n      0x00\n        /* \"#utility.yul\":6095:6101   */\n      dup3\n        /* \"#utility.yul\":6091:6105   */\n      add\n        /* \"#utility.yul\":6084:6126   */\n      mstore\n        /* \"#utility.yul\":5967:6133   */\n      pop\n      jump\t// out\n        /* \"#utility.yul\":6139:6505   */\n    tag_132:\n        /* \"#utility.yul\":6281:6284   */\n      0x00\n        /* \"#utility.yul\":6302:6369   */\n      tag_185\n        /* \"#utility.yul\":6366:6368   */\n      0x10\n        /* \"#utility.yul\":6361:6364   */\n      dup4\n        /* \"#utility.yul\":6302:6369   */\n      tag_121\n      jump\t// in\n    tag_185:\n        /* \"#utility.yul\":6295:6369   */\n      swap2\n      pop\n        /* \"#utility.yul\":6378:6471   */\n      tag_186\n        /* \"#utility.yul\":6467:6470   */\n      dup3\n        /* \"#utility.yul\":6378:6471   */\n      tag_131\n      jump\t// in\n    tag_186:\n        /* \"#utility.yul\":6496:6498   */\n      0x20\n        /* \"#utility.yul\":6491:6494   */\n      dup3\n        /* \"#utility.yul\":6487:6499   */\n      add\n        /* \"#utility.yul\":6480:6499   */\n      swap1\n      pop\n        /* \"#utility.yul\":6139:6505   */\n      swap2\n      swap1\n      pop\n      jump\t// out\n        /* \"#utility.yul\":6511:6930   */\n    tag_104:\n        /* \"#utility.yul\":6677:6681   */\n      0x00\n        /* \"#utility.yul\":6715:6717   */\n      0x20\n        /* \"#utility.yul\":6704:6713   */\n      dup3\n        /* \"#utility.yul\":6700:6718   */\n      add\n        /* \"#utility.yul\":6692:6718   */\n      swap1\n      pop\n        /* \"#utility.yul\":6764:6773   */\n      dup2\n        /* \"#utility.yul\":6758:6762   */\n      dup2\n        /* \"#utility.yul\":6754:6774   */\n      sub\n        /* \"#utility.yul\":6750:6751   */\n      0x00\n        /* \"#utility.yul\":6739:6748   */\n      dup4\n        /* \"#utility.yul\":6735:6752   */\n      add\n        /* \"#utility.yul\":6728:6775   */\n      mstore\n        /* \"#utility.yul\":6792:6923   */\n      tag_188\n        /* \"#utility.yul\":6918:6922   */\n      dup2\n        /* \"#utility.yul\":6792:6923   */\n      tag_132\n      jump\t// in\n    tag_188:\n        /* \"#utility.yul\":6784:6923   */\n      swap1\n      pop\n        /* \"#utility.yul\":6511:6930   */\n      swap2\n      swap1\n      pop\n      jump\t// out\n        /* \"#utility.yul\":6936:7127   */\n    tag_107:\n        /* \"#utility.yul\":6976:6979   */\n      0x00\n        /* \"#utility.yul\":6995:7015   */\n      tag_190\n        /* \"#utility.yul\":7013:7014   */\n      dup3\n        /* \"#utility.yul\":6995:7015   */\n      tag_115\n      jump\t// in\n    tag_190:\n        /* \"#utility.yul\":6990:7015   */\n      swap2\n      pop\n        /* \"#utility.yul\":7029:7049   */\n      tag_191\n        /* \"#utility.yul\":7047:7048   */\n      dup4\n        /* \"#utility.yul\":7029:7049   */\n      tag_115\n      jump\t// in\n    tag_191:\n        /* \"#utility.yul\":7024:7049   */\n      swap3\n      pop\n        /* \"#utility.yul\":7072:7073   */\n      dup3\n        /* \"#utility.yul\":7069:7070   */\n      dup3\n        /* \"#utility.yul\":7065:7074   */\n      add\n        /* \"#utility.yul\":7058:7074   */\n      swap1\n      pop\n        /* \"#utility.yul\":7093:7096   */\n      dup1\n        /* \"#utility.yul\":7090:7091   */\n      dup3\n        /* \"#utility.yul\":7087:7097   */\n      gt\n        /* \"#utility.yul\":7084:7120   */\n      iszero\n      tag_192\n      jumpi\n        /* \"#utility.yul\":7100:7118   */\n      tag_193\n      tag_128\n      jump\t// in\n    tag_193:\n        /* \"#utility.yul\":7084:7120   */\n    tag_192:\n        /* \"#utility.yul\":6936:7127   */\n      swap3\n      swap2\n      pop\n      pop\n      jump\t// out\n\n    auxdata: 0xa2646970667358221220d819e8dd5d8f7f7bd9a1d8d1210b5e61195c3c6eb2e5c6bf0cb0bb64a2a15b5364736f6c634300081a0033\n}\n",
				"bytecode": {
					"linkReferences": {},
					"object": "6080604052348015600e575f80fd5b50610a298061001c5f395ff3fe608060405260043610610073575f3560e01c806375438e491161004d57806375438e49146100b45780639cdde813146100be578063e09d2f92146100eb578063f282df78146101015761007a565b8063551619131461007e5780636626b26d1461008857806367b7c0341461009e5761007a565b3661007a57005b5f80fd5b610086610117565b005b348015610093575f80fd5b5061009c61020c565b005b3480156100a9575f80fd5b506100b261027f565b005b6100bc6102ec565b005b3480156100c9575f80fd5b506100d26103de565b6040516100e29493929190610705565b60405180910390f35b3480156100f6575f80fd5b506100ff610406565b005b34801561010c575f80fd5b50610115610508565b005b670de0b6b3a76400003414806101355750670de0b6b3a76400004710155b80156101755750600160028111156101505761014f610692565b5b5f6003015f9054906101000a900460ff16600281111561017357610172610692565b5b145b6101b4576040517f08c379a00000000000000000000000000000000000000000000000000000000081526004016101ab906107a2565b60405180910390fd5b60645f600101819055505f73ffffffffffffffffffffffffffffffffffffffff166108fc670de0b6b3a764000090811502906040515f60405180830381858888f19350505050158015610209573d5f803e3d5ffd5b50565b5f805f015414610251576040517f08c379a00000000000000000000000000000000000000000000000000000000081526004016102489061080a565b60405180910390fd5b60015f6003015f6101000a81548160ff0219169083600281111561027857610277610692565b5b0217905550565b6001600281111561029357610292610692565b5b5f6003015f9054906101000a900460ff1660028111156102b6576102b5610692565b5b146102bf575f80fd5b5f806003015f6101000a81548160ff021916908360028111156102e5576102e4610692565b5b0217905550565b670de0b6b3a76400003414801561033757506001600281111561031257610311610692565b5b5f6003015f9054906101000a900460ff16600281111561033557610334610692565b5b145b8061034e5750670de0b6b3a76400005f6002015410155b61038d576040517f08c379a000000000000000000000000000000000000000000000000000000000815260040161038490610872565b60405180910390fd5b670de0b6b3a76400005f60020154106103d157670de0b6b3a76400005f6002015f8282546103bb91906108bd565b9250508190555060645f600101819055506103dc565b60645f600101819055505b565b5f805f015490806001015490806002015490806003015f9054906101000a900460ff16905084565b600a5f600101541015801561041d57505f805f0154115b801561045c575060028081111561043757610436610692565b5b5f6003015f9054906101000a900460ff16600281111561045a57610459610692565b5b145b61049b576040517f08c379a00000000000000000000000000000000000000000000000000000000081526004016104929061093a565b60405180910390fd5b600a5f6001015f8282546104af91906108bd565b92505081905550600a5f80015f8282546104c991906108bd565b925050819055505f805f015403610506575f806003015f6101000a81548160ff02191690836002811115610500576104ff610692565b5b02179055505b565b601e5f6001015411801561051f575060465f800154105b801561055e575060028081111561053957610538610692565b5b5f6003015f9054906101000a900460ff16600281111561055c5761055b610692565b5b145b8061059c57505f600281111561057757610576610692565b5b5f6003015f9054906101000a900460ff16600281111561059a57610599610692565b5b145b6105db576040517f08c379a00000000000000000000000000000000000000000000000000000000081526004016105d2906109a2565b60405180910390fd5b60145f6001015f8282546105ef91906108bd565b92505081905550600a5f80015f82825461060991906109c0565b9250508190555060028081111561062357610622610692565b5b5f6003015f9054906101000a900460ff16600281111561064657610645610692565b5b146106785760025f6003015f6101000a81548160ff0219169083600281111561067257610671610692565b5b02179055505b565b5f819050919050565b61068c8161067a565b82525050565b7f4e487b71000000000000000000000000000000000000000000000000000000005f52602160045260245ffd5b600381106106d0576106cf610692565b5b50565b5f8190506106e0826106bf565b919050565b5f6106ef826106d3565b9050919050565b6106ff816106e5565b82525050565b5f6080820190506107185f830187610683565b6107256020830186610683565b6107326040830185610683565b61073f60608301846106f6565b95945050505050565b5f82825260208201905092915050565b7f4e6f7065000000000000000000000000000000000000000000000000000000005f82015250565b5f61078c600483610748565b915061079782610758565b602082019050919050565b5f6020820190508181035f8301526107b981610780565b9050919050565b7f7370656564206e6565647320746f2062652030000000000000000000000000005f82015250565b5f6107f4601383610748565b91506107ff826107c0565b602082019050919050565b5f6020820190508181035f830152610821816107e8565b9050919050565b7f31206574686572000000000000000000000000000000000000000000000000005f82015250565b5f61085c600783610748565b915061086782610828565b602082019050919050565b5f6020820190508181035f83015261088981610850565b9050919050565b7f4e487b71000000000000000000000000000000000000000000000000000000005f52601160045260245ffd5b5f6108c78261067a565b91506108d28361067a565b92508282039050818111156108ea576108e9610890565b5b92915050565b7f63616e6e6f742075736520627265616b000000000000000000000000000000005f82015250565b5f610924601083610748565b915061092f826108f0565b602082019050919050565b5f6020820190508181035f83015261095181610918565b9050919050565b7f63616e6e6f742075736520657863656c000000000000000000000000000000005f82015250565b5f61098c601083610748565b915061099782610958565b602082019050919050565b5f6020820190508181035f8301526109b981610980565b9050919050565b5f6109ca8261067a565b91506109d58361067a565b92508282019050808211156109ed576109ec610890565b5b9291505056fea2646970667358221220d819e8dd5d8f7f7bd9a1d8d1210b5e61195c3c6eb2e5c6bf0cb0bb64a2a15b5364736f6c634300081a0033",
					"opcodes": "PUSH1 0x80 PUSH1 0x40 MSTORE CALLVALUE DUP1 ISZERO PUSH1 0xE JUMPI PUSH0 DUP1 REVERT JUMPDEST POP PUSH2 0xA29 DUP1 PUSH2 0x1C PUSH0 CODECOPY PUSH0 RETURN INVALID PUSH1 0x80 PUSH1 0x40 MSTORE PUSH1 0x4 CALLDATASIZE LT PUSH2 0x73 JUMPI PUSH0 CALLDATALOAD PUSH1 0xE0 SHR DUP1 PUSH4 0x75438E49 GT PUSH2 0x4D JUMPI DUP1 PUSH4 0x75438E49 EQ PUSH2 0xB4 JUMPI DUP1 PUSH4 0x9CDDE813 EQ PUSH2 0xBE JUMPI DUP1 PUSH4 0xE09D2F92 EQ PUSH2 0xEB JUMPI DUP1 PUSH4 0xF282DF78 EQ PUSH2 0x101 JUMPI PUSH2 0x7A JUMP JUMPDEST DUP1 PUSH4 0x55161913 EQ PUSH2 0x7E JUMPI DUP1 PUSH4 0x6626B26D EQ PUSH2 0x88 JUMPI DUP1 PUSH4 0x67B7C034 EQ PUSH2 0x9E JUMPI PUSH2 0x7A JUMP JUMPDEST CALLDATASIZE PUSH2 0x7A JUMPI STOP JUMPDEST PUSH0 DUP1 REVERT JUMPDEST PUSH2 0x86 PUSH2 0x117 JUMP JUMPDEST STOP JUMPDEST CALLVALUE DUP1 ISZERO PUSH2 0x93 JUMPI PUSH0 DUP1 REVERT JUMPDEST POP PUSH2 0x9C PUSH2 0x20C JUMP JUMPDEST STOP JUMPDEST CALLVALUE DUP1 ISZERO PUSH2 0xA9 JUMPI PUSH0 DUP1 REVERT JUMPDEST POP PUSH2 0xB2 PUSH2 0x27F JUMP JUMPDEST STOP JUMPDEST PUSH2 0xBC PUSH2 0x2EC JUMP JUMPDEST STOP JUMPDEST CALLVALUE DUP1 ISZERO PUSH2 0xC9 JUMPI PUSH0 DUP1 REVERT JUMPDEST POP PUSH2 0xD2 PUSH2 0x3DE JUMP JUMPDEST PUSH1 0x40 MLOAD PUSH2 0xE2 SWAP5 SWAP4 SWAP3 SWAP2 SWAP1 PUSH2 0x705 JUMP JUMPDEST PUSH1 0x40 MLOAD DUP1 SWAP2 SUB SWAP1 RETURN JUMPDEST CALLVALUE DUP1 ISZERO PUSH2 0xF6 JUMPI PUSH0 DUP1 REVERT JUMPDEST POP PUSH2 0xFF PUSH2 0x406 JUMP JUMPDEST STOP JUMPDEST CALLVALUE DUP1 ISZERO PUSH2 0x10C JUMPI PUSH0 DUP1 REVERT JUMPDEST POP PUSH2 0x115 PUSH2 0x508 JUMP JUMPDEST STOP JUMPDEST PUSH8 0xDE0B6B3A7640000 CALLVALUE EQ DUP1 PUSH2 0x135 JUMPI POP PUSH8 0xDE0B6B3A7640000 SELFBALANCE LT ISZERO JUMPDEST DUP1 ISZERO PUSH2 0x175 JUMPI POP PUSH1 0x1 PUSH1 0x2 DUP2 GT ISZERO PUSH2 0x150 JUMPI PUSH2 0x14F PUSH2 0x692 JUMP JUMPDEST JUMPDEST PUSH0 PUSH1 0x3 ADD PUSH0 SWAP1 SLOAD SWAP1 PUSH2 0x100 EXP SWAP1 DIV PUSH1 0xFF AND PUSH1 0x2 DUP2 GT ISZERO PUSH2 0x173 JUMPI PUSH2 0x172 PUSH2 0x692 JUMP JUMPDEST JUMPDEST EQ JUMPDEST PUSH2 0x1B4 JUMPI PUSH1 0x40 MLOAD PUSH32 0x8C379A000000000000000000000000000000000000000000000000000000000 DUP2 MSTORE PUSH1 0x4 ADD PUSH2 0x1AB SWAP1 PUSH2 0x7A2 JUMP JUMPDEST PUSH1 0x40 MLOAD DUP1 SWAP2 SUB SWAP1 REVERT JUMPDEST PUSH1 0x64 PUSH0 PUSH1 0x1 ADD DUP2 SWAP1 SSTORE POP PUSH0 PUSH20 0xFFFFFFFFFFFFFFFFFFFFFFFFFFFFFFFFFFFFFFFF AND PUSH2 0x8FC PUSH8 0xDE0B6B3A7640000 SWAP1 DUP2 ISZERO MUL SWAP1 PUSH1 0x40 MLOAD PUSH0 PUSH1 0x40 MLOAD DUP1 DUP4 SUB DUP2 DUP6 DUP9 DUP9 CALL SWAP4 POP POP POP POP ISZERO DUP1 ISZERO PUSH2 0x209 JUMPI RETURNDATASIZE PUSH0 DUP1 RETURNDATACOPY RETURNDATASIZE PUSH0 REVERT JUMPDEST POP JUMP JUMPDEST PUSH0 DUP1 PUSH0 ADD SLOAD EQ PUSH2 0x251 JUMPI PUSH1 0x40 MLOAD PUSH32 0x8C379A000000000000000000000000000000000000000000000000000000000 DUP2 MSTORE PUSH1 0x4 ADD PUSH2 0x248 SWAP1 PUSH2 0x80A JUMP JUMPDEST PUSH1 0x40 MLOAD DUP1 SWAP2 SUB SWAP1 REVERT JUMPDEST PUSH1 0x1 PUSH0 PUSH1 0x3 ADD PUSH0 PUSH2 0x100 EXP DUP2 SLOAD DUP2 PUSH1 0xFF MUL NOT AND SWAP1 DUP4 PUSH1 0x2 DUP2 GT ISZERO PUSH2 0x278 JUMPI PUSH2 0x277 PUSH2 0x692 JUMP JUMPDEST JUMPDEST MUL OR SWAP1 SSTORE POP JUMP JUMPDEST PUSH1 0x1 PUSH1 0x2 DUP2 GT ISZERO PUSH2 0x293 JUMPI PUSH2 0x292 PUSH2 0x692 JUMP JUMPDEST JUMPDEST PUSH0 PUSH1 0x3 ADD PUSH0 SWAP1 SLOAD SWAP1 PUSH2 0x100 EXP SWAP1 DIV PUSH1 0xFF AND PUSH1 0x2 DUP2 GT ISZERO PUSH2 0x2B6 JUMPI PUSH2 0x2B5 PUSH2 0x692 JUMP JUMPDEST JUMPDEST EQ PUSH2 0x2BF JUMPI PUSH0 DUP1 REVERT JUMPDEST PUSH0 DUP1 PUSH1 0x3 ADD PUSH0 PUSH2 0x100 EXP DUP2 SLOAD DUP2 PUSH1 0xFF MUL NOT AND SWAP1 DUP4 PUSH1 0x2 DUP2 GT ISZERO PUSH2 0x2E5 JUMPI PUSH2 0x2E4 PUSH2 0x692 JUMP JUMPDEST JUMPDEST MUL OR SWAP1 SSTORE POP JUMP JUMPDEST PUSH8 0xDE0B6B3A7640000 CALLVALUE EQ DUP1 ISZERO PUSH2 0x337 JUMPI POP PUSH1 0x1 PUSH1 0x2 DUP2 GT ISZERO PUSH2 0x312 JUMPI PUSH2 0x311 PUSH2 0x692 JUMP JUMPDEST JUMPDEST PUSH0 PUSH1 0x3 ADD PUSH0 SWAP1 SLOAD SWAP1 PUSH2 0x100 EXP SWAP1 DIV PUSH1 0xFF AND PUSH1 0x2 DUP2 GT ISZERO PUSH2 0x335 JUMPI PUSH2 0x334 PUSH2 0x692 JUMP JUMPDEST JUMPDEST EQ JUMPDEST DUP1 PUSH2 0x34E JUMPI POP PUSH8 0xDE0B6B3A7640000 PUSH0 PUSH1 0x2 ADD SLOAD LT ISZERO JUMPDEST PUSH2 0x38D JUMPI PUSH1 0x40 MLOAD PUSH32 0x8C379A000000000000000000000000000000000000000000000000000000000 DUP2 MSTORE PUSH1 0x4 ADD PUSH2 0x384 SWAP1 PUSH2 0x872 JUMP JUMPDEST PUSH1 0x40 MLOAD DUP1 SWAP2 SUB SWAP1 REVERT JUMPDEST PUSH8 0xDE0B6B3A7640000 PUSH0 PUSH1 0x2 ADD SLOAD LT PUSH2 0x3D1 JUMPI PUSH8 0xDE0B6B3A7640000 PUSH0 PUSH1 0x2 ADD PUSH0 DUP3 DUP3 SLOAD PUSH2 0x3BB SWAP2 SWAP1 PUSH2 0x8BD JUMP JUMPDEST SWAP3 POP POP DUP2 SWAP1 SSTORE POP PUSH1 0x64 PUSH0 PUSH1 0x1 ADD DUP2 SWAP1 SSTORE POP PUSH2 0x3DC JUMP JUMPDEST PUSH1 0x64 PUSH0 PUSH1 0x1 ADD DUP2 SWAP1 SSTORE POP JUMPDEST JUMP JUMPDEST PUSH0 DUP1 PUSH0 ADD SLOAD SWAP1 DUP1 PUSH1 0x1 ADD SLOAD SWAP1 DUP1 PUSH1 0x2 ADD SLOAD SWAP1 DUP1 PUSH1 0x3 ADD PUSH0 SWAP1 SLOAD SWAP1 PUSH2 0x100 EXP SWAP1 DIV PUSH1 0xFF AND SWAP1 POP DUP5 JUMP JUMPDEST PUSH1 0xA PUSH0 PUSH1 0x1 ADD SLOAD LT ISZERO DUP1 ISZERO PUSH2 0x41D JUMPI POP PUSH0 DUP1 PUSH0 ADD SLOAD GT JUMPDEST DUP1 ISZERO PUSH2 0x45C JUMPI POP PUSH1 0x2 DUP1 DUP2 GT ISZERO PUSH2 0x437 JUMPI PUSH2 0x436 PUSH2 0x692 JUMP JUMPDEST JUMPDEST PUSH0 PUSH1 0x3 ADD PUSH0 SWAP1 SLOAD SWAP1 PUSH2 0x100 EXP SWAP1 DIV PUSH1 0xFF AND PUSH1 0x2 DUP2 GT ISZERO PUSH2 0x45A JUMPI PUSH2 0x459 PUSH2 0x692 JUMP JUMPDEST JUMPDEST EQ JUMPDEST PUSH2 0x49B JUMPI PUSH1 0x40 MLOAD PUSH32 0x8C379A000000000000000000000000000000000000000000000000000000000 DUP2 MSTORE PUSH1 0x4 ADD PUSH2 0x492 SWAP1 PUSH2 0x93A JUMP JUMPDEST PUSH1 0x40 MLOAD DUP1 SWAP2 SUB SWAP1 REVERT JUMPDEST PUSH1 0xA PUSH0 PUSH1 0x1 ADD PUSH0 DUP3 DUP3 SLOAD PUSH2 0x4AF SWAP2 SWAP1 PUSH2 0x8BD JUMP JUMPDEST SWAP3 POP POP DUP2 SWAP1 SSTORE POP PUSH1 0xA PUSH0 DUP1 ADD PUSH0 DUP3 DUP3 SLOAD PUSH2 0x4C9 SWAP2 SWAP1 PUSH2 0x8BD JUMP JUMPDEST SWAP3 POP POP DUP2 SWAP1 SSTORE POP PUSH0 DUP1 PUSH0 ADD SLOAD SUB PUSH2 0x506 JUMPI PUSH0 DUP1 PUSH1 0x3 ADD PUSH0 PUSH2 0x100 EXP DUP2 SLOAD DUP2 PUSH1 0xFF MUL NOT AND SWAP1 DUP4 PUSH1 0x2 DUP2 GT ISZERO PUSH2 0x500 JUMPI PUSH2 0x4FF PUSH2 0x692 JUMP JUMPDEST JUMPDEST MUL OR SWAP1 SSTORE POP JUMPDEST JUMP JUMPDEST PUSH1 0x1E PUSH0 PUSH1 0x1 ADD SLOAD GT DUP1 ISZERO PUSH2 0x51F JUMPI POP PUSH1 0x46 PUSH0 DUP1 ADD SLOAD LT JUMPDEST DUP1 ISZERO PUSH2 0x55E JUMPI POP PUSH1 0x2 DUP1 DUP2 GT ISZERO PUSH2 0x539 JUMPI PUSH2 0x538 PUSH2 0x692 JUMP JUMPDEST JUMPDEST PUSH0 PUSH1 0x3 ADD PUSH0 SWAP1 SLOAD SWAP1 PUSH2 0x100 EXP SWAP1 DIV PUSH1 0xFF AND PUSH1 0x2 DUP2 GT ISZERO PUSH2 0x55C JUMPI PUSH2 0x55B PUSH2 0x692 JUMP JUMPDEST JUMPDEST EQ JUMPDEST DUP1 PUSH2 0x59C JUMPI POP PUSH0 PUSH1 0x2 DUP2 GT ISZERO PUSH2 0x577 JUMPI PUSH2 0x576 PUSH2 0x692 JUMP JUMPDEST JUMPDEST PUSH0 PUSH1 0x3 ADD PUSH0 SWAP1 SLOAD SWAP1 PUSH2 0x100 EXP SWAP1 DIV PUSH1 0xFF AND PUSH1 0x2 DUP2 GT ISZERO PUSH2 0x59A JUMPI PUSH2 0x599 PUSH2 0x692 JUMP JUMPDEST JUMPDEST EQ JUMPDEST PUSH2 0x5DB JUMPI PUSH1 0x40 MLOAD PUSH32 0x8C379A000000000000000000000000000000000000000000000000000000000 DUP2 MSTORE PUSH1 0x4 ADD PUSH2 0x5D2 SWAP1 PUSH2 0x9A2 JUMP JUMPDEST PUSH1 0x40 MLOAD DUP1 SWAP2 SUB SWAP1 REVERT JUMPDEST PUSH1 0x14 PUSH0 PUSH1 0x1 ADD PUSH0 DUP3 DUP3 SLOAD PUSH2 0x5EF SWAP2 SWAP1 PUSH2 0x8BD JUMP JUMPDEST SWAP3 POP POP DUP2 SWAP1 SSTORE POP PUSH1 0xA PUSH0 DUP1 ADD PUSH0 DUP3 DUP3 SLOAD PUSH2 0x609 SWAP2 SWAP1 PUSH2 0x9C0 JUMP JUMPDEST SWAP3 POP POP DUP2 SWAP1 SSTORE POP PUSH1 0x2 DUP1 DUP2 GT ISZERO PUSH2 0x623 JUMPI PUSH2 0x622 PUSH2 0x692 JUMP JUMPDEST JUMPDEST PUSH0 PUSH1 0x3 ADD PUSH0 SWAP1 SLOAD SWAP1 PUSH2 0x100 EXP SWAP1 DIV PUSH1 0xFF AND PUSH1 0x2 DUP2 GT ISZERO PUSH2 0x646 JUMPI PUSH2 0x645 PUSH2 0x692 JUMP JUMPDEST JUMPDEST EQ PUSH2 0x678 JUMPI PUSH1 0x2 PUSH0 PUSH1 0x3 ADD PUSH0 PUSH2 0x100 EXP DUP2 SLOAD DUP2 PUSH1 0xFF MUL NOT AND SWAP1 DUP4 PUSH1 0x2 DUP2 GT ISZERO PUSH2 0x672 JUMPI PUSH2 0x671 PUSH2 0x692 JUMP JUMPDEST JUMPDEST MUL OR SWAP1 SSTORE POP JUMPDEST JUMP JUMPDEST PUSH0 DUP2 SWAP1 POP SWAP2 SWAP1 POP JUMP JUMPDEST PUSH2 0x68C DUP2 PUSH2 0x67A JUMP JUMPDEST DUP3 MSTORE POP POP JUMP JUMPDEST PUSH32 0x4E487B7100000000000000000000000000000000000000000000000000000000 PUSH0 MSTORE PUSH1 0x21 PUSH1 0x4 MSTORE PUSH1 0x24 PUSH0 REVERT JUMPDEST PUSH1 0x3 DUP2 LT PUSH2 0x6D0 JUMPI PUSH2 0x6CF PUSH2 0x692 JUMP JUMPDEST JUMPDEST POP JUMP JUMPDEST PUSH0 DUP2 SWAP1 POP PUSH2 0x6E0 DUP3 PUSH2 0x6BF JUMP JUMPDEST SWAP2 SWAP1 POP JUMP JUMPDEST PUSH0 PUSH2 0x6EF DUP3 PUSH2 0x6D3 JUMP JUMPDEST SWAP1 POP SWAP2 SWAP1 POP JUMP JUMPDEST PUSH2 0x6FF DUP2 PUSH2 0x6E5 JUMP JUMPDEST DUP3 MSTORE POP POP JUMP JUMPDEST PUSH0 PUSH1 0x80 DUP3 ADD SWAP1 POP PUSH2 0x718 PUSH0 DUP4 ADD DUP8 PUSH2 0x683 JUMP JUMPDEST PUSH2 0x725 PUSH1 0x20 DUP4 ADD DUP7 PUSH2 0x683 JUMP JUMPDEST PUSH2 0x732 PUSH1 0x40 DUP4 ADD DUP6 PUSH2 0x683 JUMP JUMPDEST PUSH2 0x73F PUSH1 0x60 DUP4 ADD DUP5 PUSH2 0x6F6 JUMP JUMPDEST SWAP6 SWAP5 POP POP POP POP POP JUMP JUMPDEST PUSH0 DUP3 DUP3 MSTORE PUSH1 0x20 DUP3 ADD SWAP1 POP SWAP3 SWAP2 POP POP JUMP JUMPDEST PUSH32 0x4E6F706500000000000000000000000000000000000000000000000000000000 PUSH0 DUP3 ADD MSTORE POP JUMP JUMPDEST PUSH0 PUSH2 0x78C PUSH1 0x4 DUP4 PUSH2 0x748 JUMP JUMPDEST SWAP2 POP PUSH2 0x797 DUP3 PUSH2 0x758 JUMP JUMPDEST PUSH1 0x20 DUP3 ADD SWAP1 POP SWAP2 SWAP1 POP JUMP JUMPDEST PUSH0 PUSH1 0x20 DUP3 ADD SWAP1 POP DUP2 DUP2 SUB PUSH0 DUP4 ADD MSTORE PUSH2 0x7B9 DUP2 PUSH2 0x780 JUMP JUMPDEST SWAP1 POP SWAP2 SWAP1 POP JUMP JUMPDEST PUSH32 0x7370656564206E6565647320746F206265203000000000000000000000000000 PUSH0 DUP3 ADD MSTORE POP JUMP JUMPDEST PUSH0 PUSH2 0x7F4 PUSH1 0x13 DUP4 PUSH2 0x748 JUMP JUMPDEST SWAP2 POP PUSH2 0x7FF DUP3 PUSH2 0x7C0 JUMP JUMPDEST PUSH1 0x20 DUP3 ADD SWAP1 POP SWAP2 SWAP1 POP JUMP JUMPDEST PUSH0 PUSH1 0x20 DUP3 ADD SWAP1 POP DUP2 DUP2 SUB PUSH0 DUP4 ADD MSTORE PUSH2 0x821 DUP2 PUSH2 0x7E8 JUMP JUMPDEST SWAP1 POP SWAP2 SWAP1 POP JUMP JUMPDEST PUSH32 0x3120657468657200000000000000000000000000000000000000000000000000 PUSH0 DUP3 ADD MSTORE POP JUMP JUMPDEST PUSH0 PUSH2 0x85C PUSH1 0x7 DUP4 PUSH2 0x748 JUMP JUMPDEST SWAP2 POP PUSH2 0x867 DUP3 PUSH2 0x828 JUMP JUMPDEST PUSH1 0x20 DUP3 ADD SWAP1 POP SWAP2 SWAP1 POP JUMP JUMPDEST PUSH0 PUSH1 0x20 DUP3 ADD SWAP1 POP DUP2 DUP2 SUB PUSH0 DUP4 ADD MSTORE PUSH2 0x889 DUP2 PUSH2 0x850 JUMP JUMPDEST SWAP1 POP SWAP2 SWAP1 POP JUMP JUMPDEST PUSH32 0x4E487B7100000000000000000000000000000000000000000000000000000000 PUSH0 MSTORE PUSH1 0x11 PUSH1 0x4 MSTORE PUSH1 0x24 PUSH0 REVERT JUMPDEST PUSH0 PUSH2 0x8C7 DUP3 PUSH2 0x67A JUMP JUMPDEST SWAP2 POP PUSH2 0x8D2 DUP4 PUSH2 0x67A JUMP JUMPDEST SWAP3 POP DUP3 DUP3 SUB SWAP1 POP DUP2 DUP2 GT ISZERO PUSH2 0x8EA JUMPI PUSH2 0x8E9 PUSH2 0x890 JUMP JUMPDEST JUMPDEST SWAP3 SWAP2 POP POP JUMP JUMPDEST PUSH32 0x63616E6E6F742075736520627265616B00000000000000000000000000000000 PUSH0 DUP3 ADD MSTORE POP JUMP JUMPDEST PUSH0 PUSH2 0x924 PUSH1 0x10 DUP4 PUSH2 0x748 JUMP JUMPDEST SWAP2 POP PUSH2 0x92F DUP3 PUSH2 0x8F0 JUMP JUMPDEST PUSH1 0x20 DUP3 ADD SWAP1 POP SWAP2 SWAP1 POP JUMP JUMPDEST PUSH0 PUSH1 0x20 DUP3 ADD SWAP1 POP DUP2 DUP2 SUB PUSH0 DUP4 ADD MSTORE PUSH2 0x951 DUP2 PUSH2 0x918 JUMP JUMPDEST SWAP1 POP SWAP2 SWAP1 POP JUMP JUMPDEST PUSH32 0x63616E6E6F742075736520657863656C00000000000000000000000000000000 PUSH0 DUP3 ADD MSTORE POP JUMP JUMPDEST PUSH0 PUSH2 0x98C PUSH1 0x10 DUP4 PUSH2 0x748 JUMP JUMPDEST SWAP2 POP PUSH2 0x997 DUP3 PUSH2 0x958 JUMP JUMPDEST PUSH1 0x20 DUP3 ADD SWAP1 POP SWAP2 SWAP1 POP JUMP JUMPDEST PUSH0 PUSH1 0x20 DUP3 ADD SWAP1 POP DUP2 DUP2 SUB PUSH0 DUP4 ADD MSTORE PUSH2 0x9B9 DUP2 PUSH2 0x980 JUMP JUMPDEST SWAP1 POP SWAP2 SWAP1 POP JUMP JUMPDEST PUSH0 PUSH2 0x9CA DUP3 PUSH2 0x67A JUMP JUMPDEST SWAP2 POP PUSH2 0x9D5 DUP4 PUSH2 0x67A JUMP JUMPDEST SWAP3 POP DUP3 DUP3 ADD SWAP1 POP DUP1 DUP3 GT ISZERO PUSH2 0x9ED JUMPI PUSH2 0x9EC PUSH2 0x890 JUMP JUMPDEST JUMPDEST SWAP3 SWAP2 POP POP JUMP INVALID LOG2 PUSH5 0x6970667358 0x22 SLT KECCAK256 0xD8 NOT 0xE8 0xDD TSTORE DUP16 PUSH32 0x7BD9A1D8D1210B5E61195C3C6EB2E5C6BF0CB0BB64A2A15B5364736F6C634300 ADDMOD BYTE STOP CALLER "
				},
				"gasEstimates": {
					"creation": {
						"codeDepositCost": "520200",
						"executionCost": "554",
						"totalCost": "520754"
					},
					"external": {
						"accel()": "infinite",
						"breaks()": "infinite",
						"charge()": "infinite",
						"fillGas()": "infinite",
						"myCar()": "infinite",
						"off()": "26584",
						"on()": "26694"
					}
				},
				"methodIdentifiers": {
					"accel()": "f282df78",
					"breaks()": "e09d2f92",
					"charge()": "55161913",
					"fillGas()": "75438e49",
					"myCar()": "9cdde813",
					"off()": "6626b26d",
					"on()": "67b7c034"
				}
			},
			"storageLayout": {
				"storage": [
					{
						"astId": 249,
						"contract": "Code Test/CodeTest_7.sol:Test7_2",
						"label": "myCar",
						"offset": 0,
						"slot": "0",
						"type": "t_struct(Car)246_storage"
					}
				],
				"types": {
					"t_enum(CarStatus)236": {
						"encoding": "inplace",
						"label": "enum Test7_2.CarStatus",
						"numberOfBytes": "1"
					},
					"t_struct(Car)246_storage": {
						"encoding": "inplace",
						"label": "struct Test7_2.Car",
						"members": [
							{
								"astId": 238,
								"contract": "Code Test/CodeTest_7.sol:Test7_2",
								"label": "speed",
								"offset": 0,
								"slot": "0",
								"type": "t_uint256"
							},
							{
								"astId": 240,
								"contract": "Code Test/CodeTest_7.sol:Test7_2",
								"label": "gas",
								"offset": 0,
								"slot": "1",
								"type": "t_uint256"
							},
							{
								"astId": 242,
								"contract": "Code Test/CodeTest_7.sol:Test7_2",
								"label": "balances",
								"offset": 0,
								"slot": "2",
								"type": "t_uint256"
							},
							{
								"astId": 245,
								"contract": "Code Test/CodeTest_7.sol:Test7_2",
								"label": "status",
								"offset": 0,
								"slot": "3",
								"type": "t_enum(CarStatus)236"
							}
						],
						"numberOfBytes": "128"
					},
					"t_uint256": {
						"encoding": "inplace",
						"label": "uint256",
						"numberOfBytes": "32"
					}
				}
			},
			"userdoc": {
				"kind": "user",
				"methods": {},
				"version": 1
			}
		}
	}
}