{
	"Code Test/CodeTest_7.sol": {
		"Test7": {
			"abi": [
				{
					"inputs": [],
					"name": "breaks",
					"outputs": [],
					"stateMutability": "nonpayable",
					"type": "function"
				},
				{
					"inputs": [],
					"name": "charge",
					"outputs": [],
					"stateMutability": "payable",
					"type": "function"
				},
				{
					"inputs": [
						{
							"internalType": "address",
							"name": "",
							"type": "address"
						}
					],
					"name": "drivers",
					"outputs": [
						{
							"internalType": "uint256",
							"name": "speed",
							"type": "uint256"
						},
						{
							"internalType": "uint256",
							"name": "gas",
							"type": "uint256"
						},
						{
							"internalType": "bool",
							"name": "isOn",
							"type": "bool"
						},
						{
							"internalType": "uint256",
							"name": "balances",
							"type": "uint256"
						}
					],
					"stateMutability": "view",
					"type": "function"
				},
				{
					"inputs": [],
					"name": "excel",
					"outputs": [],
					"stateMutability": "nonpayable",
					"type": "function"
				},
				{
					"inputs": [],
					"name": "fillGas",
					"outputs": [],
					"stateMutability": "payable",
					"type": "function"
				},
				{
					"inputs": [],
					"name": "off",
					"outputs": [],
					"stateMutability": "nonpayable",
					"type": "function"
				},
				{
					"inputs": [],
					"name": "on",
					"outputs": [],
					"stateMutability": "nonpayable",
					"type": "function"
				},
				{
					"inputs": [],
					"name": "setDriver",
					"outputs": [],
					"stateMutability": "nonpayable",
					"type": "function"
				}
			],
			"devdoc": {
				"kind": "dev",
				"methods": {},
				"version": 1
			},
			"evm": {
				"assembly": "    /* \"Code Test/CodeTest_7.sol\":58:3284  contract Test7 {... */\n  mstore(0x40, 0x80)\n  callvalue\n  dup1\n  iszero\n  tag_1\n  jumpi\n  0x00\n  dup1\n  revert\ntag_1:\n  pop\n  dataSize(sub_0)\n  dup1\n  dataOffset(sub_0)\n  0x00\n  codecopy\n  0x00\n  return\nstop\n\nsub_0: assembly {\n        /* \"Code Test/CodeTest_7.sol\":58:3284  contract Test7 {... */\n      mstore(0x40, 0x80)\n      jumpi(tag_1, lt(calldatasize, 0x04))\n      shr(0xe0, calldataload(0x00))\n      dup1\n      0x75438e49\n      gt\n      tag_10\n      jumpi\n      dup1\n      0x75438e49\n      eq\n      tag_6\n      jumpi\n      dup1\n      0x914ba218\n      eq\n      tag_7\n      jumpi\n      dup1\n      0xb28c9b68\n      eq\n      tag_8\n      jumpi\n      dup1\n      0xe09d2f92\n      eq\n      tag_9\n      jumpi\n      jump(tag_1)\n    tag_10:\n      dup1\n      0x4aa60186\n      eq\n      tag_2\n      jumpi\n      dup1\n      0x55161913\n      eq\n      tag_3\n      jumpi\n      dup1\n      0x6626b26d\n      eq\n      tag_4\n      jumpi\n      dup1\n      0x67b7c034\n      eq\n      tag_5\n      jumpi\n    tag_1:\n      0x00\n      dup1\n      revert\n        /* \"Code Test/CodeTest_7.sol\":1089:1128  mapping(address=>status) public drivers */\n    tag_2:\n      callvalue\n      dup1\n      iszero\n      tag_11\n      jumpi\n      0x00\n      dup1\n      revert\n    tag_11:\n      pop\n      tag_12\n      0x04\n      dup1\n      calldatasize\n      sub\n      dup2\n      add\n      swap1\n      tag_13\n      swap2\n      swap1\n      tag_14\n      jump\t// in\n    tag_13:\n      tag_15\n      jump\t// in\n    tag_12:\n      mload(0x40)\n      tag_16\n      swap5\n      swap4\n      swap3\n      swap2\n      swap1\n      tag_17\n      jump\t// in\n    tag_16:\n      mload(0x40)\n      dup1\n      swap2\n      sub\n      swap1\n      return\n        /* \"Code Test/CodeTest_7.sol\":3193:3282  function charge() public payable{... */\n    tag_3:\n      tag_18\n      tag_19\n      jump\t// in\n    tag_18:\n      stop\n        /* \"Code Test/CodeTest_7.sol\":2737:2880  function off() public {... */\n    tag_4:\n      callvalue\n      dup1\n      iszero\n      tag_20\n      jumpi\n      0x00\n      dup1\n      revert\n    tag_20:\n      pop\n      tag_21\n      tag_22\n      jump\t// in\n    tag_21:\n      stop\n        /* \"Code Test/CodeTest_7.sol\":2985:3093  function on() public {... */\n    tag_5:\n      callvalue\n      dup1\n      iszero\n      tag_23\n      jumpi\n      0x00\n      dup1\n      revert\n    tag_23:\n      pop\n      tag_24\n      tag_25\n      jump\t// in\n    tag_24:\n      stop\n        /* \"Code Test/CodeTest_7.sol\":1824:2195  function fillGas() public payable {... */\n    tag_6:\n      tag_26\n      tag_27\n      jump\t// in\n    tag_26:\n      stop\n        /* \"Code Test/CodeTest_7.sol\":1469:1709  function excel() public {... */\n    tag_7:\n      callvalue\n      dup1\n      iszero\n      tag_28\n      jumpi\n      0x00\n      dup1\n      revert\n    tag_28:\n      pop\n      tag_29\n      tag_30\n      jump\t// in\n    tag_29:\n      stop\n        /* \"Code Test/CodeTest_7.sol\":1135:1221  function setDriver() public {... */\n    tag_8:\n      callvalue\n      dup1\n      iszero\n      tag_31\n      jumpi\n      0x00\n      dup1\n      revert\n    tag_31:\n      pop\n      tag_32\n      tag_33\n      jump\t// in\n    tag_32:\n      stop\n        /* \"Code Test/CodeTest_7.sol\":2382:2623  function breaks() public {... */\n    tag_9:\n      callvalue\n      dup1\n      iszero\n      tag_34\n      jumpi\n      0x00\n      dup1\n      revert\n    tag_34:\n      pop\n      tag_35\n      tag_36\n      jump\t// in\n    tag_35:\n      stop\n        /* \"Code Test/CodeTest_7.sol\":1089:1128  mapping(address=>status) public drivers */\n    tag_15:\n      mstore(0x20, 0x00)\n      dup1\n      0x00\n      mstore\n      keccak256(0x00, 0x40)\n      0x00\n      swap2\n      pop\n      swap1\n      pop\n      dup1\n      0x00\n      add\n      sload\n      swap1\n      dup1\n      0x01\n      add\n      sload\n      swap1\n      dup1\n      0x02\n      add\n      0x00\n      swap1\n      sload\n      swap1\n      0x0100\n      exp\n      swap1\n      div\n      0xff\n      and\n      swap1\n      dup1\n      0x03\n      add\n      sload\n      swap1\n      pop\n      dup5\n      jump\t// out\n        /* \"Code Test/CodeTest_7.sol\":3193:3282  function charge() public payable{... */\n    tag_19:\n        /* \"Code Test/CodeTest_7.sol\":3266:3275  msg.value */\n      callvalue\n        /* \"Code Test/CodeTest_7.sol\":3235:3242  drivers */\n      0x00\n        /* \"Code Test/CodeTest_7.sol\":3235:3254  drivers[msg.sender] */\n      dup1\n        /* \"Code Test/CodeTest_7.sol\":3243:3253  msg.sender */\n      caller\n        /* \"Code Test/CodeTest_7.sol\":3235:3254  drivers[msg.sender] */\n      0xffffffffffffffffffffffffffffffffffffffff\n      and\n      0xffffffffffffffffffffffffffffffffffffffff\n      and\n      dup2\n      mstore\n      0x20\n      add\n      swap1\n      dup2\n      mstore\n      0x20\n      add\n      0x00\n      keccak256\n        /* \"Code Test/CodeTest_7.sol\":3235:3263  drivers[msg.sender].balances */\n      0x03\n      add\n        /* \"Code Test/CodeTest_7.sol\":3235:3275  drivers[msg.sender].balances = msg.value */\n      dup2\n      swap1\n      sstore\n      pop\n        /* \"Code Test/CodeTest_7.sol\":3193:3282  function charge() public payable{... */\n      jump\t// out\n        /* \"Code Test/CodeTest_7.sol\":2737:2880  function off() public {... */\n    tag_22:\n        /* \"Code Test/CodeTest_7.sol\":2806:2807  0 */\n      0x00\n        /* \"Code Test/CodeTest_7.sol\":2777:2784  drivers */\n      dup1\n        /* \"Code Test/CodeTest_7.sol\":2777:2796  drivers[msg.sender] */\n      0x00\n        /* \"Code Test/CodeTest_7.sol\":2785:2795  msg.sender */\n      caller\n        /* \"Code Test/CodeTest_7.sol\":2777:2796  drivers[msg.sender] */\n      0xffffffffffffffffffffffffffffffffffffffff\n      and\n      0xffffffffffffffffffffffffffffffffffffffff\n      and\n      dup2\n      mstore\n      0x20\n      add\n      swap1\n      dup2\n      mstore\n      0x20\n      add\n      0x00\n      keccak256\n        /* \"Code Test/CodeTest_7.sol\":2777:2802  drivers[msg.sender].speed */\n      0x00\n      add\n      sload\n        /* \"Code Test/CodeTest_7.sol\":2777:2807  drivers[msg.sender].speed == 0 */\n      eq\n        /* \"Code Test/CodeTest_7.sol\":2769:2831  require(drivers[msg.sender].speed == 0, \"speed needs to be 0\") */\n      tag_39\n      jumpi\n      mload(0x40)\n      0x08c379a000000000000000000000000000000000000000000000000000000000\n      dup2\n      mstore\n      0x04\n      add\n      tag_40\n      swap1\n      tag_41\n      jump\t// in\n    tag_40:\n      mload(0x40)\n      dup1\n      swap2\n      sub\n      swap1\n      revert\n    tag_39:\n        /* \"Code Test/CodeTest_7.sol\":2868:2873  false */\n      0x00\n        /* \"Code Test/CodeTest_7.sol\":2841:2848  drivers */\n      dup1\n        /* \"Code Test/CodeTest_7.sol\":2841:2860  drivers[msg.sender] */\n      0x00\n        /* \"Code Test/CodeTest_7.sol\":2849:2859  msg.sender */\n      caller\n        /* \"Code Test/CodeTest_7.sol\":2841:2860  drivers[msg.sender] */\n      0xffffffffffffffffffffffffffffffffffffffff\n      and\n      0xffffffffffffffffffffffffffffffffffffffff\n      and\n      dup2\n      mstore\n      0x20\n      add\n      swap1\n      dup2\n      mstore\n      0x20\n      add\n      0x00\n      keccak256\n        /* \"Code Test/CodeTest_7.sol\":2841:2865  drivers[msg.sender].isOn */\n      0x02\n      add\n      0x00\n        /* \"Code Test/CodeTest_7.sol\":2841:2873  drivers[msg.sender].isOn = false */\n      0x0100\n      exp\n      dup2\n      sload\n      dup2\n      0xff\n      mul\n      not\n      and\n      swap1\n      dup4\n      iszero\n      iszero\n      mul\n      or\n      swap1\n      sstore\n      pop\n        /* \"Code Test/CodeTest_7.sol\":2737:2880  function off() public {... */\n      jump\t// out\n        /* \"Code Test/CodeTest_7.sol\":2985:3093  function on() public {... */\n    tag_25:\n        /* \"Code Test/CodeTest_7.sol\":3043:3047  true */\n      0x01\n        /* \"Code Test/CodeTest_7.sol\":3016:3023  drivers */\n      0x00\n        /* \"Code Test/CodeTest_7.sol\":3016:3035  drivers[msg.sender] */\n      dup1\n        /* \"Code Test/CodeTest_7.sol\":3024:3034  msg.sender */\n      caller\n        /* \"Code Test/CodeTest_7.sol\":3016:3035  drivers[msg.sender] */\n      0xffffffffffffffffffffffffffffffffffffffff\n      and\n      0xffffffffffffffffffffffffffffffffffffffff\n      and\n      dup2\n      mstore\n      0x20\n      add\n      swap1\n      dup2\n      mstore\n      0x20\n      add\n      0x00\n      keccak256\n        /* \"Code Test/CodeTest_7.sol\":3016:3040  drivers[msg.sender].isOn */\n      0x02\n      add\n      0x00\n        /* \"Code Test/CodeTest_7.sol\":3016:3047  drivers[msg.sender].isOn = true */\n      0x0100\n      exp\n      dup2\n      sload\n      dup2\n      0xff\n      mul\n      not\n      and\n      swap1\n      dup4\n      iszero\n      iszero\n      mul\n      or\n      swap1\n      sstore\n      pop\n        /* \"Code Test/CodeTest_7.sol\":3085:3086  0 */\n      0x00\n        /* \"Code Test/CodeTest_7.sol\":3057:3064  drivers */\n      dup1\n        /* \"Code Test/CodeTest_7.sol\":3057:3076  drivers[msg.sender] */\n      0x00\n        /* \"Code Test/CodeTest_7.sol\":3065:3075  msg.sender */\n      caller\n        /* \"Code Test/CodeTest_7.sol\":3057:3076  drivers[msg.sender] */\n      0xffffffffffffffffffffffffffffffffffffffff\n      and\n      0xffffffffffffffffffffffffffffffffffffffff\n      and\n      dup2\n      mstore\n      0x20\n      add\n      swap1\n      dup2\n      mstore\n      0x20\n      add\n      0x00\n      keccak256\n        /* \"Code Test/CodeTest_7.sol\":3057:3082  drivers[msg.sender].speed */\n      0x00\n      add\n        /* \"Code Test/CodeTest_7.sol\":3057:3086  drivers[msg.sender].speed = 0 */\n      dup2\n      swap1\n      sstore\n      pop\n        /* \"Code Test/CodeTest_7.sol\":2985:3093  function on() public {... */\n      jump\t// out\n        /* \"Code Test/CodeTest_7.sol\":1824:2195  function fillGas() public payable {... */\n    tag_27:\n        /* \"Code Test/CodeTest_7.sol\":1889:1896  1 ether */\n      0x0de0b6b3a7640000\n        /* \"Code Test/CodeTest_7.sol\":1876:1885  msg.value */\n      callvalue\n        /* \"Code Test/CodeTest_7.sol\":1876:1896  msg.value == 1 ether */\n      eq\n        /* \"Code Test/CodeTest_7.sol\":1876:1939  msg.value == 1 ether || drivers[msg.sender].balances >= 1 ether */\n      dup1\n      tag_44\n      jumpi\n      pop\n        /* \"Code Test/CodeTest_7.sol\":1932:1939  1 ether */\n      0x0de0b6b3a7640000\n        /* \"Code Test/CodeTest_7.sol\":1900:1907  drivers */\n      0x00\n        /* \"Code Test/CodeTest_7.sol\":1900:1919  drivers[msg.sender] */\n      dup1\n        /* \"Code Test/CodeTest_7.sol\":1908:1918  msg.sender */\n      caller\n        /* \"Code Test/CodeTest_7.sol\":1900:1919  drivers[msg.sender] */\n      0xffffffffffffffffffffffffffffffffffffffff\n      and\n      0xffffffffffffffffffffffffffffffffffffffff\n      and\n      dup2\n      mstore\n      0x20\n      add\n      swap1\n      dup2\n      mstore\n      0x20\n      add\n      0x00\n      keccak256\n        /* \"Code Test/CodeTest_7.sol\":1900:1928  drivers[msg.sender].balances */\n      0x03\n      add\n      sload\n        /* \"Code Test/CodeTest_7.sol\":1900:1939  drivers[msg.sender].balances >= 1 ether */\n      lt\n      iszero\n        /* \"Code Test/CodeTest_7.sol\":1876:1939  msg.value == 1 ether || drivers[msg.sender].balances >= 1 ether */\n    tag_44:\n        /* \"Code Test/CodeTest_7.sol\":1868:1951  require(msg.value == 1 ether || drivers[msg.sender].balances >= 1 ether, \"1 ether\") */\n      tag_45\n      jumpi\n      mload(0x40)\n      0x08c379a000000000000000000000000000000000000000000000000000000000\n      dup2\n      mstore\n      0x04\n      add\n      tag_46\n      swap1\n      tag_47\n      jump\t// in\n    tag_46:\n      mload(0x40)\n      dup1\n      swap2\n      sub\n      swap1\n      revert\n    tag_45:\n        /* \"Code Test/CodeTest_7.sol\":1996:2003  1 ether */\n      0x0de0b6b3a7640000\n        /* \"Code Test/CodeTest_7.sol\":1964:1971  drivers */\n      0x00\n        /* \"Code Test/CodeTest_7.sol\":1964:1983  drivers[msg.sender] */\n      dup1\n        /* \"Code Test/CodeTest_7.sol\":1972:1982  msg.sender */\n      caller\n        /* \"Code Test/CodeTest_7.sol\":1964:1983  drivers[msg.sender] */\n      0xffffffffffffffffffffffffffffffffffffffff\n      and\n      0xffffffffffffffffffffffffffffffffffffffff\n      and\n      dup2\n      mstore\n      0x20\n      add\n      swap1\n      dup2\n      mstore\n      0x20\n      add\n      0x00\n      keccak256\n        /* \"Code Test/CodeTest_7.sol\":1964:1992  drivers[msg.sender].balances */\n      0x03\n      add\n      sload\n        /* \"Code Test/CodeTest_7.sol\":1964:2003  drivers[msg.sender].balances >= 1 ether */\n      lt\n        /* \"Code Test/CodeTest_7.sol\":1961:2172  if(drivers[msg.sender].balances >= 1 ether) {... */\n      tag_48\n      jumpi\n        /* \"Code Test/CodeTest_7.sol\":2051:2058  1 ether */\n      0x0de0b6b3a7640000\n        /* \"Code Test/CodeTest_7.sol\":2019:2026  drivers */\n      0x00\n        /* \"Code Test/CodeTest_7.sol\":2019:2038  drivers[msg.sender] */\n      dup1\n        /* \"Code Test/CodeTest_7.sol\":2027:2037  msg.sender */\n      caller\n        /* \"Code Test/CodeTest_7.sol\":2019:2038  drivers[msg.sender] */\n      0xffffffffffffffffffffffffffffffffffffffff\n      and\n      0xffffffffffffffffffffffffffffffffffffffff\n      and\n      dup2\n      mstore\n      0x20\n      add\n      swap1\n      dup2\n      mstore\n      0x20\n      add\n      0x00\n      keccak256\n        /* \"Code Test/CodeTest_7.sol\":2019:2047  drivers[msg.sender].balances */\n      0x03\n      add\n      0x00\n        /* \"Code Test/CodeTest_7.sol\":2019:2058  drivers[msg.sender].balances -= 1 ether */\n      dup3\n      dup3\n      sload\n      tag_49\n      swap2\n      swap1\n      tag_50\n      jump\t// in\n    tag_49:\n      swap3\n      pop\n      pop\n      dup2\n      swap1\n      sstore\n      pop\n        /* \"Code Test/CodeTest_7.sol\":2098:2101  100 */\n      0x64\n        /* \"Code Test/CodeTest_7.sol\":2072:2079  drivers */\n      0x00\n        /* \"Code Test/CodeTest_7.sol\":2072:2091  drivers[msg.sender] */\n      dup1\n        /* \"Code Test/CodeTest_7.sol\":2080:2090  msg.sender */\n      caller\n        /* \"Code Test/CodeTest_7.sol\":2072:2091  drivers[msg.sender] */\n      0xffffffffffffffffffffffffffffffffffffffff\n      and\n      0xffffffffffffffffffffffffffffffffffffffff\n      and\n      dup2\n      mstore\n      0x20\n      add\n      swap1\n      dup2\n      mstore\n      0x20\n      add\n      0x00\n      keccak256\n        /* \"Code Test/CodeTest_7.sol\":2072:2095  drivers[msg.sender].gas */\n      0x01\n      add\n        /* \"Code Test/CodeTest_7.sol\":2072:2101  drivers[msg.sender].gas = 100 */\n      dup2\n      swap1\n      sstore\n      pop\n        /* \"Code Test/CodeTest_7.sol\":1961:2172  if(drivers[msg.sender].balances >= 1 ether) {... */\n      jump(tag_51)\n    tag_48:\n        /* \"Code Test/CodeTest_7.sol\":2158:2161  100 */\n      0x64\n        /* \"Code Test/CodeTest_7.sol\":2132:2139  drivers */\n      0x00\n        /* \"Code Test/CodeTest_7.sol\":2132:2151  drivers[msg.sender] */\n      dup1\n        /* \"Code Test/CodeTest_7.sol\":2140:2150  msg.sender */\n      caller\n        /* \"Code Test/CodeTest_7.sol\":2132:2151  drivers[msg.sender] */\n      0xffffffffffffffffffffffffffffffffffffffff\n      and\n      0xffffffffffffffffffffffffffffffffffffffff\n      and\n      dup2\n      mstore\n      0x20\n      add\n      swap1\n      dup2\n      mstore\n      0x20\n      add\n      0x00\n      keccak256\n        /* \"Code Test/CodeTest_7.sol\":2132:2155  drivers[msg.sender].gas */\n      0x01\n      add\n        /* \"Code Test/CodeTest_7.sol\":2132:2161  drivers[msg.sender].gas = 100 */\n      dup2\n      swap1\n      sstore\n      pop\n        /* \"Code Test/CodeTest_7.sol\":1961:2172  if(drivers[msg.sender].balances >= 1 ether) {... */\n    tag_51:\n        /* \"Code Test/CodeTest_7.sol\":1824:2195  function fillGas() public payable {... */\n      jump\t// out\n        /* \"Code Test/CodeTest_7.sol\":1469:1709  function excel() public {... */\n    tag_30:\n        /* \"Code Test/CodeTest_7.sol\":1537:1539  30 */\n      0x1e\n        /* \"Code Test/CodeTest_7.sol\":1511:1518  drivers */\n      0x00\n        /* \"Code Test/CodeTest_7.sol\":1511:1530  drivers[msg.sender] */\n      dup1\n        /* \"Code Test/CodeTest_7.sol\":1519:1529  msg.sender */\n      caller\n        /* \"Code Test/CodeTest_7.sol\":1511:1530  drivers[msg.sender] */\n      0xffffffffffffffffffffffffffffffffffffffff\n      and\n      0xffffffffffffffffffffffffffffffffffffffff\n      and\n      dup2\n      mstore\n      0x20\n      add\n      swap1\n      dup2\n      mstore\n      0x20\n      add\n      0x00\n      keccak256\n        /* \"Code Test/CodeTest_7.sol\":1511:1534  drivers[msg.sender].gas */\n      0x01\n      add\n      sload\n        /* \"Code Test/CodeTest_7.sol\":1511:1539  drivers[msg.sender].gas > 30 */\n      gt\n        /* \"Code Test/CodeTest_7.sol\":1511:1573  drivers[msg.sender].gas > 30 && drivers[msg.sender].speed < 70 */\n      dup1\n      iszero\n      tag_53\n      jumpi\n      pop\n        /* \"Code Test/CodeTest_7.sol\":1571:1573  70 */\n      0x46\n        /* \"Code Test/CodeTest_7.sol\":1543:1550  drivers */\n      0x00\n        /* \"Code Test/CodeTest_7.sol\":1543:1562  drivers[msg.sender] */\n      dup1\n        /* \"Code Test/CodeTest_7.sol\":1551:1561  msg.sender */\n      caller\n        /* \"Code Test/CodeTest_7.sol\":1543:1562  drivers[msg.sender] */\n      0xffffffffffffffffffffffffffffffffffffffff\n      and\n      0xffffffffffffffffffffffffffffffffffffffff\n      and\n      dup2\n      mstore\n      0x20\n      add\n      swap1\n      dup2\n      mstore\n      0x20\n      add\n      0x00\n      keccak256\n        /* \"Code Test/CodeTest_7.sol\":1543:1568  drivers[msg.sender].speed */\n      0x00\n      add\n      sload\n        /* \"Code Test/CodeTest_7.sol\":1543:1573  drivers[msg.sender].speed < 70 */\n      lt\n        /* \"Code Test/CodeTest_7.sol\":1511:1573  drivers[msg.sender].gas > 30 && drivers[msg.sender].speed < 70 */\n    tag_53:\n        /* \"Code Test/CodeTest_7.sol\":1511:1601  drivers[msg.sender].gas > 30 && drivers[msg.sender].speed < 70 && drivers[msg.sender].isOn */\n      dup1\n      iszero\n      tag_54\n      jumpi\n      pop\n        /* \"Code Test/CodeTest_7.sol\":1577:1584  drivers */\n      0x00\n        /* \"Code Test/CodeTest_7.sol\":1577:1596  drivers[msg.sender] */\n      dup1\n        /* \"Code Test/CodeTest_7.sol\":1585:1595  msg.sender */\n      caller\n        /* \"Code Test/CodeTest_7.sol\":1577:1596  drivers[msg.sender] */\n      0xffffffffffffffffffffffffffffffffffffffff\n      and\n      0xffffffffffffffffffffffffffffffffffffffff\n      and\n      dup2\n      mstore\n      0x20\n      add\n      swap1\n      dup2\n      mstore\n      0x20\n      add\n      0x00\n      keccak256\n        /* \"Code Test/CodeTest_7.sol\":1577:1601  drivers[msg.sender].isOn */\n      0x02\n      add\n      0x00\n      swap1\n      sload\n      swap1\n      0x0100\n      exp\n      swap1\n      div\n      0xff\n      and\n        /* \"Code Test/CodeTest_7.sol\":1511:1601  drivers[msg.sender].gas > 30 && drivers[msg.sender].speed < 70 && drivers[msg.sender].isOn */\n    tag_54:\n        /* \"Code Test/CodeTest_7.sol\":1503:1622  require(drivers[msg.sender].gas > 30 && drivers[msg.sender].speed < 70 && drivers[msg.sender].isOn, \"cannot use excel\") */\n      tag_55\n      jumpi\n      mload(0x40)\n      0x08c379a000000000000000000000000000000000000000000000000000000000\n      dup2\n      mstore\n      0x04\n      add\n      tag_56\n      swap1\n      tag_57\n      jump\t// in\n    tag_56:\n      mload(0x40)\n      dup1\n      swap2\n      sub\n      swap1\n      revert\n    tag_55:\n        /* \"Code Test/CodeTest_7.sol\":1659:1661  20 */\n      0x14\n        /* \"Code Test/CodeTest_7.sol\":1632:1639  drivers */\n      0x00\n        /* \"Code Test/CodeTest_7.sol\":1632:1651  drivers[msg.sender] */\n      dup1\n        /* \"Code Test/CodeTest_7.sol\":1640:1650  msg.sender */\n      caller\n        /* \"Code Test/CodeTest_7.sol\":1632:1651  drivers[msg.sender] */\n      0xffffffffffffffffffffffffffffffffffffffff\n      and\n      0xffffffffffffffffffffffffffffffffffffffff\n      and\n      dup2\n      mstore\n      0x20\n      add\n      swap1\n      dup2\n      mstore\n      0x20\n      add\n      0x00\n      keccak256\n        /* \"Code Test/CodeTest_7.sol\":1632:1655  drivers[msg.sender].gas */\n      0x01\n      add\n      0x00\n        /* \"Code Test/CodeTest_7.sol\":1632:1661  drivers[msg.sender].gas -= 20 */\n      dup3\n      dup3\n      sload\n      tag_58\n      swap2\n      swap1\n      tag_50\n      jump\t// in\n    tag_58:\n      swap3\n      pop\n      pop\n      dup2\n      swap1\n      sstore\n      pop\n        /* \"Code Test/CodeTest_7.sol\":1700:1702  10 */\n      0x0a\n        /* \"Code Test/CodeTest_7.sol\":1671:1678  drivers */\n      0x00\n        /* \"Code Test/CodeTest_7.sol\":1671:1690  drivers[msg.sender] */\n      dup1\n        /* \"Code Test/CodeTest_7.sol\":1679:1689  msg.sender */\n      caller\n        /* \"Code Test/CodeTest_7.sol\":1671:1690  drivers[msg.sender] */\n      0xffffffffffffffffffffffffffffffffffffffff\n      and\n      0xffffffffffffffffffffffffffffffffffffffff\n      and\n      dup2\n      mstore\n      0x20\n      add\n      swap1\n      dup2\n      mstore\n      0x20\n      add\n      0x00\n      keccak256\n        /* \"Code Test/CodeTest_7.sol\":1671:1696  drivers[msg.sender].speed */\n      0x00\n      add\n      0x00\n        /* \"Code Test/CodeTest_7.sol\":1671:1702  drivers[msg.sender].speed += 10 */\n      dup3\n      dup3\n      sload\n      tag_59\n      swap2\n      swap1\n      tag_60\n      jump\t// in\n    tag_59:\n      swap3\n      pop\n      pop\n      dup2\n      swap1\n      sstore\n      pop\n        /* \"Code Test/CodeTest_7.sol\":1469:1709  function excel() public {... */\n      jump\t// out\n        /* \"Code Test/CodeTest_7.sol\":1135:1221  function setDriver() public {... */\n    tag_33:\n        /* \"Code Test/CodeTest_7.sol\":1195:1214  status(0,0,false,0) */\n      mload(0x40)\n      dup1\n      0x80\n      add\n      0x40\n      mstore\n      dup1\n        /* \"Code Test/CodeTest_7.sol\":1202:1203  0 */\n      0x00\n        /* \"Code Test/CodeTest_7.sol\":1195:1214  status(0,0,false,0) */\n      dup2\n      mstore\n      0x20\n      add\n        /* \"Code Test/CodeTest_7.sol\":1204:1205  0 */\n      0x00\n        /* \"Code Test/CodeTest_7.sol\":1195:1214  status(0,0,false,0) */\n      dup2\n      mstore\n      0x20\n      add\n        /* \"Code Test/CodeTest_7.sol\":1206:1211  false */\n      0x00\n        /* \"Code Test/CodeTest_7.sol\":1195:1214  status(0,0,false,0) */\n      iszero\n      iszero\n      dup2\n      mstore\n      0x20\n      add\n        /* \"Code Test/CodeTest_7.sol\":1212:1213  0 */\n      0x00\n        /* \"Code Test/CodeTest_7.sol\":1195:1214  status(0,0,false,0) */\n      dup2\n      mstore\n      pop\n        /* \"Code Test/CodeTest_7.sol\":1173:1180  drivers */\n      0x00\n        /* \"Code Test/CodeTest_7.sol\":1173:1192  drivers[msg.sender] */\n      dup1\n        /* \"Code Test/CodeTest_7.sol\":1181:1191  msg.sender */\n      caller\n        /* \"Code Test/CodeTest_7.sol\":1173:1192  drivers[msg.sender] */\n      0xffffffffffffffffffffffffffffffffffffffff\n      and\n      0xffffffffffffffffffffffffffffffffffffffff\n      and\n      dup2\n      mstore\n      0x20\n      add\n      swap1\n      dup2\n      mstore\n      0x20\n      add\n      0x00\n      keccak256\n        /* \"Code Test/CodeTest_7.sol\":1173:1214  drivers[msg.sender] = status(0,0,false,0) */\n      0x00\n      dup3\n      add\n      mload\n      dup2\n      0x00\n      add\n      sstore\n      0x20\n      dup3\n      add\n      mload\n      dup2\n      0x01\n      add\n      sstore\n      0x40\n      dup3\n      add\n      mload\n      dup2\n      0x02\n      add\n      exp(0x0100, 0x00)\n      dup2\n      sload\n      dup2\n      0xff\n      mul\n      not\n      and\n      swap1\n      dup4\n      iszero\n      iszero\n      mul\n      or\n      swap1\n      sstore\n      pop\n      0x60\n      dup3\n      add\n      mload\n      dup2\n      0x03\n      add\n      sstore\n      swap1\n      pop\n      pop\n        /* \"Code Test/CodeTest_7.sol\":1135:1221  function setDriver() public {... */\n      jump\t// out\n        /* \"Code Test/CodeTest_7.sol\":2382:2623  function breaks() public {... */\n    tag_36:\n        /* \"Code Test/CodeTest_7.sol\":2452:2454  10 */\n      0x0a\n        /* \"Code Test/CodeTest_7.sol\":2425:2432  drivers */\n      0x00\n        /* \"Code Test/CodeTest_7.sol\":2425:2444  drivers[msg.sender] */\n      dup1\n        /* \"Code Test/CodeTest_7.sol\":2433:2443  msg.sender */\n      caller\n        /* \"Code Test/CodeTest_7.sol\":2425:2444  drivers[msg.sender] */\n      0xffffffffffffffffffffffffffffffffffffffff\n      and\n      0xffffffffffffffffffffffffffffffffffffffff\n      and\n      dup2\n      mstore\n      0x20\n      add\n      swap1\n      dup2\n      mstore\n      0x20\n      add\n      0x00\n      keccak256\n        /* \"Code Test/CodeTest_7.sol\":2425:2448  drivers[msg.sender].gas */\n      0x01\n      add\n      sload\n        /* \"Code Test/CodeTest_7.sol\":2425:2454  drivers[msg.sender].gas >= 10 */\n      lt\n      iszero\n        /* \"Code Test/CodeTest_7.sol\":2425:2487  drivers[msg.sender].gas >= 10 && drivers[msg.sender].speed > 0 */\n      dup1\n      iszero\n      tag_63\n      jumpi\n      pop\n        /* \"Code Test/CodeTest_7.sol\":2486:2487  0 */\n      0x00\n        /* \"Code Test/CodeTest_7.sol\":2458:2465  drivers */\n      dup1\n        /* \"Code Test/CodeTest_7.sol\":2458:2477  drivers[msg.sender] */\n      0x00\n        /* \"Code Test/CodeTest_7.sol\":2466:2476  msg.sender */\n      caller\n        /* \"Code Test/CodeTest_7.sol\":2458:2477  drivers[msg.sender] */\n      0xffffffffffffffffffffffffffffffffffffffff\n      and\n      0xffffffffffffffffffffffffffffffffffffffff\n      and\n      dup2\n      mstore\n      0x20\n      add\n      swap1\n      dup2\n      mstore\n      0x20\n      add\n      0x00\n      keccak256\n        /* \"Code Test/CodeTest_7.sol\":2458:2483  drivers[msg.sender].speed */\n      0x00\n      add\n      sload\n        /* \"Code Test/CodeTest_7.sol\":2458:2487  drivers[msg.sender].speed > 0 */\n      gt\n        /* \"Code Test/CodeTest_7.sol\":2425:2487  drivers[msg.sender].gas >= 10 && drivers[msg.sender].speed > 0 */\n    tag_63:\n        /* \"Code Test/CodeTest_7.sol\":2425:2515  drivers[msg.sender].gas >= 10 && drivers[msg.sender].speed > 0 && drivers[msg.sender].isOn */\n      dup1\n      iszero\n      tag_64\n      jumpi\n      pop\n        /* \"Code Test/CodeTest_7.sol\":2491:2498  drivers */\n      0x00\n        /* \"Code Test/CodeTest_7.sol\":2491:2510  drivers[msg.sender] */\n      dup1\n        /* \"Code Test/CodeTest_7.sol\":2499:2509  msg.sender */\n      caller\n        /* \"Code Test/CodeTest_7.sol\":2491:2510  drivers[msg.sender] */\n      0xffffffffffffffffffffffffffffffffffffffff\n      and\n      0xffffffffffffffffffffffffffffffffffffffff\n      and\n      dup2\n      mstore\n      0x20\n      add\n      swap1\n      dup2\n      mstore\n      0x20\n      add\n      0x00\n      keccak256\n        /* \"Code Test/CodeTest_7.sol\":2491:2515  drivers[msg.sender].isOn */\n      0x02\n      add\n      0x00\n      swap1\n      sload\n      swap1\n      0x0100\n      exp\n      swap1\n      div\n      0xff\n      and\n        /* \"Code Test/CodeTest_7.sol\":2425:2515  drivers[msg.sender].gas >= 10 && drivers[msg.sender].speed > 0 && drivers[msg.sender].isOn */\n    tag_64:\n        /* \"Code Test/CodeTest_7.sol\":2417:2536  require(drivers[msg.sender].gas >= 10 && drivers[msg.sender].speed > 0 && drivers[msg.sender].isOn, \"cannot use break\") */\n      tag_65\n      jumpi\n      mload(0x40)\n      0x08c379a000000000000000000000000000000000000000000000000000000000\n      dup2\n      mstore\n      0x04\n      add\n      tag_66\n      swap1\n      tag_67\n      jump\t// in\n    tag_66:\n      mload(0x40)\n      dup1\n      swap2\n      sub\n      swap1\n      revert\n    tag_65:\n        /* \"Code Test/CodeTest_7.sol\":2573:2575  10 */\n      0x0a\n        /* \"Code Test/CodeTest_7.sol\":2546:2553  drivers */\n      0x00\n        /* \"Code Test/CodeTest_7.sol\":2546:2565  drivers[msg.sender] */\n      dup1\n        /* \"Code Test/CodeTest_7.sol\":2554:2564  msg.sender */\n      caller\n        /* \"Code Test/CodeTest_7.sol\":2546:2565  drivers[msg.sender] */\n      0xffffffffffffffffffffffffffffffffffffffff\n      and\n      0xffffffffffffffffffffffffffffffffffffffff\n      and\n      dup2\n      mstore\n      0x20\n      add\n      swap1\n      dup2\n      mstore\n      0x20\n      add\n      0x00\n      keccak256\n        /* \"Code Test/CodeTest_7.sol\":2546:2569  drivers[msg.sender].gas */\n      0x01\n      add\n      0x00\n        /* \"Code Test/CodeTest_7.sol\":2546:2575  drivers[msg.sender].gas -= 10 */\n      dup3\n      dup3\n      sload\n      tag_68\n      swap2\n      swap1\n      tag_50\n      jump\t// in\n    tag_68:\n      swap3\n      pop\n      pop\n      dup2\n      swap1\n      sstore\n      pop\n        /* \"Code Test/CodeTest_7.sol\":2614:2616  10 */\n      0x0a\n        /* \"Code Test/CodeTest_7.sol\":2585:2592  drivers */\n      0x00\n        /* \"Code Test/CodeTest_7.sol\":2585:2604  drivers[msg.sender] */\n      dup1\n        /* \"Code Test/CodeTest_7.sol\":2593:2603  msg.sender */\n      caller\n        /* \"Code Test/CodeTest_7.sol\":2585:2604  drivers[msg.sender] */\n      0xffffffffffffffffffffffffffffffffffffffff\n      and\n      0xffffffffffffffffffffffffffffffffffffffff\n      and\n      dup2\n      mstore\n      0x20\n      add\n      swap1\n      dup2\n      mstore\n      0x20\n      add\n      0x00\n      keccak256\n        /* \"Code Test/CodeTest_7.sol\":2585:2610  drivers[msg.sender].speed */\n      0x00\n      add\n      0x00\n        /* \"Code Test/CodeTest_7.sol\":2585:2616  drivers[msg.sender].speed -= 10 */\n      dup3\n      dup3\n      sload\n      tag_69\n      swap2\n      swap1\n      tag_50\n      jump\t// in\n    tag_69:\n      swap3\n      pop\n      pop\n      dup2\n      swap1\n      sstore\n      pop\n        /* \"Code Test/CodeTest_7.sol\":2382:2623  function breaks() public {... */\n      jump\t// out\n        /* \"#utility.yul\":88:205   */\n    tag_71:\n        /* \"#utility.yul\":197:198   */\n      0x00\n        /* \"#utility.yul\":194:195   */\n      dup1\n        /* \"#utility.yul\":187:199   */\n      revert\n        /* \"#utility.yul\":334:460   */\n    tag_73:\n        /* \"#utility.yul\":371:378   */\n      0x00\n        /* \"#utility.yul\":411:453   */\n      0xffffffffffffffffffffffffffffffffffffffff\n        /* \"#utility.yul\":404:409   */\n      dup3\n        /* \"#utility.yul\":400:454   */\n      and\n        /* \"#utility.yul\":389:454   */\n      swap1\n      pop\n        /* \"#utility.yul\":334:460   */\n      swap2\n      swap1\n      pop\n      jump\t// out\n        /* \"#utility.yul\":466:562   */\n    tag_74:\n        /* \"#utility.yul\":503:510   */\n      0x00\n        /* \"#utility.yul\":532:556   */\n      tag_97\n        /* \"#utility.yul\":550:555   */\n      dup3\n        /* \"#utility.yul\":532:556   */\n      tag_73\n      jump\t// in\n    tag_97:\n        /* \"#utility.yul\":521:556   */\n      swap1\n      pop\n        /* \"#utility.yul\":466:562   */\n      swap2\n      swap1\n      pop\n      jump\t// out\n        /* \"#utility.yul\":568:690   */\n    tag_75:\n        /* \"#utility.yul\":641:665   */\n      tag_99\n        /* \"#utility.yul\":659:664   */\n      dup2\n        /* \"#utility.yul\":641:665   */\n      tag_74\n      jump\t// in\n    tag_99:\n        /* \"#utility.yul\":634:639   */\n      dup2\n        /* \"#utility.yul\":631:666   */\n      eq\n        /* \"#utility.yul\":621:684   */\n      tag_100\n      jumpi\n        /* \"#utility.yul\":680:681   */\n      0x00\n        /* \"#utility.yul\":677:678   */\n      dup1\n        /* \"#utility.yul\":670:682   */\n      revert\n        /* \"#utility.yul\":621:684   */\n    tag_100:\n        /* \"#utility.yul\":568:690   */\n      pop\n      jump\t// out\n        /* \"#utility.yul\":696:835   */\n    tag_76:\n        /* \"#utility.yul\":742:747   */\n      0x00\n        /* \"#utility.yul\":780:786   */\n      dup2\n        /* \"#utility.yul\":767:787   */\n      calldataload\n        /* \"#utility.yul\":758:787   */\n      swap1\n      pop\n        /* \"#utility.yul\":796:829   */\n      tag_102\n        /* \"#utility.yul\":823:828   */\n      dup2\n        /* \"#utility.yul\":796:829   */\n      tag_75\n      jump\t// in\n    tag_102:\n        /* \"#utility.yul\":696:835   */\n      swap3\n      swap2\n      pop\n      pop\n      jump\t// out\n        /* \"#utility.yul\":841:1170   */\n    tag_14:\n        /* \"#utility.yul\":900:906   */\n      0x00\n        /* \"#utility.yul\":949:951   */\n      0x20\n        /* \"#utility.yul\":937:946   */\n      dup3\n        /* \"#utility.yul\":928:935   */\n      dup5\n        /* \"#utility.yul\":924:947   */\n      sub\n        /* \"#utility.yul\":920:952   */\n      slt\n        /* \"#utility.yul\":917:1036   */\n      iszero\n      tag_104\n      jumpi\n        /* \"#utility.yul\":955:1034   */\n      tag_105\n      tag_71\n      jump\t// in\n    tag_105:\n        /* \"#utility.yul\":917:1036   */\n    tag_104:\n        /* \"#utility.yul\":1075:1076   */\n      0x00\n        /* \"#utility.yul\":1100:1153   */\n      tag_106\n        /* \"#utility.yul\":1145:1152   */\n      dup5\n        /* \"#utility.yul\":1136:1142   */\n      dup3\n        /* \"#utility.yul\":1125:1134   */\n      dup6\n        /* \"#utility.yul\":1121:1143   */\n      add\n        /* \"#utility.yul\":1100:1153   */\n      tag_76\n      jump\t// in\n    tag_106:\n        /* \"#utility.yul\":1090:1153   */\n      swap2\n      pop\n        /* \"#utility.yul\":1046:1163   */\n      pop\n        /* \"#utility.yul\":841:1170   */\n      swap3\n      swap2\n      pop\n      pop\n      jump\t// out\n        /* \"#utility.yul\":1176:1253   */\n    tag_77:\n        /* \"#utility.yul\":1213:1220   */\n      0x00\n        /* \"#utility.yul\":1242:1247   */\n      dup2\n        /* \"#utility.yul\":1231:1247   */\n      swap1\n      pop\n        /* \"#utility.yul\":1176:1253   */\n      swap2\n      swap1\n      pop\n      jump\t// out\n        /* \"#utility.yul\":1259:1377   */\n    tag_78:\n        /* \"#utility.yul\":1346:1370   */\n      tag_109\n        /* \"#utility.yul\":1364:1369   */\n      dup2\n        /* \"#utility.yul\":1346:1370   */\n      tag_77\n      jump\t// in\n    tag_109:\n        /* \"#utility.yul\":1341:1344   */\n      dup3\n        /* \"#utility.yul\":1334:1371   */\n      mstore\n        /* \"#utility.yul\":1259:1377   */\n      pop\n      pop\n      jump\t// out\n        /* \"#utility.yul\":1383:1473   */\n    tag_79:\n        /* \"#utility.yul\":1417:1424   */\n      0x00\n        /* \"#utility.yul\":1460:1465   */\n      dup2\n        /* \"#utility.yul\":1453:1466   */\n      iszero\n        /* \"#utility.yul\":1446:1467   */\n      iszero\n        /* \"#utility.yul\":1435:1467   */\n      swap1\n      pop\n        /* \"#utility.yul\":1383:1473   */\n      swap2\n      swap1\n      pop\n      jump\t// out\n        /* \"#utility.yul\":1479:1588   */\n    tag_80:\n        /* \"#utility.yul\":1560:1581   */\n      tag_112\n        /* \"#utility.yul\":1575:1580   */\n      dup2\n        /* \"#utility.yul\":1560:1581   */\n      tag_79\n      jump\t// in\n    tag_112:\n        /* \"#utility.yul\":1555:1558   */\n      dup3\n        /* \"#utility.yul\":1548:1582   */\n      mstore\n        /* \"#utility.yul\":1479:1588   */\n      pop\n      pop\n      jump\t// out\n        /* \"#utility.yul\":1594:2135   */\n    tag_17:\n        /* \"#utility.yul\":1765:1769   */\n      0x00\n        /* \"#utility.yul\":1803:1806   */\n      0x80\n        /* \"#utility.yul\":1792:1801   */\n      dup3\n        /* \"#utility.yul\":1788:1807   */\n      add\n        /* \"#utility.yul\":1780:1807   */\n      swap1\n      pop\n        /* \"#utility.yul\":1817:1888   */\n      tag_114\n        /* \"#utility.yul\":1885:1886   */\n      0x00\n        /* \"#utility.yul\":1874:1883   */\n      dup4\n        /* \"#utility.yul\":1870:1887   */\n      add\n        /* \"#utility.yul\":1861:1867   */\n      dup8\n        /* \"#utility.yul\":1817:1888   */\n      tag_78\n      jump\t// in\n    tag_114:\n        /* \"#utility.yul\":1898:1970   */\n      tag_115\n        /* \"#utility.yul\":1966:1968   */\n      0x20\n        /* \"#utility.yul\":1955:1964   */\n      dup4\n        /* \"#utility.yul\":1951:1969   */\n      add\n        /* \"#utility.yul\":1942:1948   */\n      dup7\n        /* \"#utility.yul\":1898:1970   */\n      tag_78\n      jump\t// in\n    tag_115:\n        /* \"#utility.yul\":1980:2046   */\n      tag_116\n        /* \"#utility.yul\":2042:2044   */\n      0x40\n        /* \"#utility.yul\":2031:2040   */\n      dup4\n        /* \"#utility.yul\":2027:2045   */\n      add\n        /* \"#utility.yul\":2018:2024   */\n      dup6\n        /* \"#utility.yul\":1980:2046   */\n      tag_80\n      jump\t// in\n    tag_116:\n        /* \"#utility.yul\":2056:2128   */\n      tag_117\n        /* \"#utility.yul\":2124:2126   */\n      0x60\n        /* \"#utility.yul\":2113:2122   */\n      dup4\n        /* \"#utility.yul\":2109:2127   */\n      add\n        /* \"#utility.yul\":2100:2106   */\n      dup5\n        /* \"#utility.yul\":2056:2128   */\n      tag_78\n      jump\t// in\n    tag_117:\n        /* \"#utility.yul\":1594:2135   */\n      swap6\n      swap5\n      pop\n      pop\n      pop\n      pop\n      pop\n      jump\t// out\n        /* \"#utility.yul\":2141:2310   */\n    tag_81:\n        /* \"#utility.yul\":2225:2236   */\n      0x00\n        /* \"#utility.yul\":2259:2265   */\n      dup3\n        /* \"#utility.yul\":2254:2257   */\n      dup3\n        /* \"#utility.yul\":2247:2266   */\n      mstore\n        /* \"#utility.yul\":2299:2303   */\n      0x20\n        /* \"#utility.yul\":2294:2297   */\n      dup3\n        /* \"#utility.yul\":2290:2304   */\n      add\n        /* \"#utility.yul\":2275:2304   */\n      swap1\n      pop\n        /* \"#utility.yul\":2141:2310   */\n      swap3\n      swap2\n      pop\n      pop\n      jump\t// out\n        /* \"#utility.yul\":2316:2485   */\n    tag_82:\n        /* \"#utility.yul\":2456:2477   */\n      0x7370656564206e6565647320746f206265203000000000000000000000000000\n        /* \"#utility.yul\":2452:2453   */\n      0x00\n        /* \"#utility.yul\":2444:2450   */\n      dup3\n        /* \"#utility.yul\":2440:2454   */\n      add\n        /* \"#utility.yul\":2433:2478   */\n      mstore\n        /* \"#utility.yul\":2316:2485   */\n      pop\n      jump\t// out\n        /* \"#utility.yul\":2491:2857   */\n    tag_83:\n        /* \"#utility.yul\":2633:2636   */\n      0x00\n        /* \"#utility.yul\":2654:2721   */\n      tag_121\n        /* \"#utility.yul\":2718:2720   */\n      0x13\n        /* \"#utility.yul\":2713:2716   */\n      dup4\n        /* \"#utility.yul\":2654:2721   */\n      tag_81\n      jump\t// in\n    tag_121:\n        /* \"#utility.yul\":2647:2721   */\n      swap2\n      pop\n        /* \"#utility.yul\":2730:2823   */\n      tag_122\n        /* \"#utility.yul\":2819:2822   */\n      dup3\n        /* \"#utility.yul\":2730:2823   */\n      tag_82\n      jump\t// in\n    tag_122:\n        /* \"#utility.yul\":2848:2850   */\n      0x20\n        /* \"#utility.yul\":2843:2846   */\n      dup3\n        /* \"#utility.yul\":2839:2851   */\n      add\n        /* \"#utility.yul\":2832:2851   */\n      swap1\n      pop\n        /* \"#utility.yul\":2491:2857   */\n      swap2\n      swap1\n      pop\n      jump\t// out\n        /* \"#utility.yul\":2863:3282   */\n    tag_41:\n        /* \"#utility.yul\":3029:3033   */\n      0x00\n        /* \"#utility.yul\":3067:3069   */\n      0x20\n        /* \"#utility.yul\":3056:3065   */\n      dup3\n        /* \"#utility.yul\":3052:3070   */\n      add\n        /* \"#utility.yul\":3044:3070   */\n      swap1\n      pop\n        /* \"#utility.yul\":3116:3125   */\n      dup2\n        /* \"#utility.yul\":3110:3114   */\n      dup2\n        /* \"#utility.yul\":3106:3126   */\n      sub\n        /* \"#utility.yul\":3102:3103   */\n      0x00\n        /* \"#utility.yul\":3091:3100   */\n      dup4\n        /* \"#utility.yul\":3087:3104   */\n      add\n        /* \"#utility.yul\":3080:3127   */\n      mstore\n        /* \"#utility.yul\":3144:3275   */\n      tag_124\n        /* \"#utility.yul\":3270:3274   */\n      dup2\n        /* \"#utility.yul\":3144:3275   */\n      tag_83\n      jump\t// in\n    tag_124:\n        /* \"#utility.yul\":3136:3275   */\n      swap1\n      pop\n        /* \"#utility.yul\":2863:3282   */\n      swap2\n      swap1\n      pop\n      jump\t// out\n        /* \"#utility.yul\":3288:3445   */\n    tag_84:\n        /* \"#utility.yul\":3428:3437   */\n      0x3120657468657200000000000000000000000000000000000000000000000000\n        /* \"#utility.yul\":3424:3425   */\n      0x00\n        /* \"#utility.yul\":3416:3422   */\n      dup3\n        /* \"#utility.yul\":3412:3426   */\n      add\n        /* \"#utility.yul\":3405:3438   */\n      mstore\n        /* \"#utility.yul\":3288:3445   */\n      pop\n      jump\t// out\n        /* \"#utility.yul\":3451:3816   */\n    tag_85:\n        /* \"#utility.yul\":3593:3596   */\n      0x00\n        /* \"#utility.yul\":3614:3680   */\n      tag_127\n        /* \"#utility.yul\":3678:3679   */\n      0x07\n        /* \"#utility.yul\":3673:3676   */\n      dup4\n        /* \"#utility.yul\":3614:3680   */\n      tag_81\n      jump\t// in\n    tag_127:\n        /* \"#utility.yul\":3607:3680   */\n      swap2\n      pop\n        /* \"#utility.yul\":3689:3782   */\n      tag_128\n        /* \"#utility.yul\":3778:3781   */\n      dup3\n        /* \"#utility.yul\":3689:3782   */\n      tag_84\n      jump\t// in\n    tag_128:\n        /* \"#utility.yul\":3807:3809   */\n      0x20\n        /* \"#utility.yul\":3802:3805   */\n      dup3\n        /* \"#utility.yul\":3798:3810   */\n      add\n        /* \"#utility.yul\":3791:3810   */\n      swap1\n      pop\n        /* \"#utility.yul\":3451:3816   */\n      swap2\n      swap1\n      pop\n      jump\t// out\n        /* \"#utility.yul\":3822:4241   */\n    tag_47:\n        /* \"#utility.yul\":3988:3992   */\n      0x00\n        /* \"#utility.yul\":4026:4028   */\n      0x20\n        /* \"#utility.yul\":4015:4024   */\n      dup3\n        /* \"#utility.yul\":4011:4029   */\n      add\n        /* \"#utility.yul\":4003:4029   */\n      swap1\n      pop\n        /* \"#utility.yul\":4075:4084   */\n      dup2\n        /* \"#utility.yul\":4069:4073   */\n      dup2\n        /* \"#utility.yul\":4065:4085   */\n      sub\n        /* \"#utility.yul\":4061:4062   */\n      0x00\n        /* \"#utility.yul\":4050:4059   */\n      dup4\n        /* \"#utility.yul\":4046:4063   */\n      add\n        /* \"#utility.yul\":4039:4086   */\n      mstore\n        /* \"#utility.yul\":4103:4234   */\n      tag_130\n        /* \"#utility.yul\":4229:4233   */\n      dup2\n        /* \"#utility.yul\":4103:4234   */\n      tag_85\n      jump\t// in\n    tag_130:\n        /* \"#utility.yul\":4095:4234   */\n      swap1\n      pop\n        /* \"#utility.yul\":3822:4241   */\n      swap2\n      swap1\n      pop\n      jump\t// out\n        /* \"#utility.yul\":4247:4427   */\n    tag_86:\n        /* \"#utility.yul\":4295:4372   */\n      0x4e487b7100000000000000000000000000000000000000000000000000000000\n        /* \"#utility.yul\":4292:4293   */\n      0x00\n        /* \"#utility.yul\":4285:4373   */\n      mstore\n        /* \"#utility.yul\":4392:4396   */\n      0x11\n        /* \"#utility.yul\":4389:4390   */\n      0x04\n        /* \"#utility.yul\":4382:4397   */\n      mstore\n        /* \"#utility.yul\":4416:4420   */\n      0x24\n        /* \"#utility.yul\":4413:4414   */\n      0x00\n        /* \"#utility.yul\":4406:4421   */\n      revert\n        /* \"#utility.yul\":4433:4627   */\n    tag_50:\n        /* \"#utility.yul\":4473:4477   */\n      0x00\n        /* \"#utility.yul\":4493:4513   */\n      tag_133\n        /* \"#utility.yul\":4511:4512   */\n      dup3\n        /* \"#utility.yul\":4493:4513   */\n      tag_77\n      jump\t// in\n    tag_133:\n        /* \"#utility.yul\":4488:4513   */\n      swap2\n      pop\n        /* \"#utility.yul\":4527:4547   */\n      tag_134\n        /* \"#utility.yul\":4545:4546   */\n      dup4\n        /* \"#utility.yul\":4527:4547   */\n      tag_77\n      jump\t// in\n    tag_134:\n        /* \"#utility.yul\":4522:4547   */\n      swap3\n      pop\n        /* \"#utility.yul\":4571:4572   */\n      dup3\n        /* \"#utility.yul\":4568:4569   */\n      dup3\n        /* \"#utility.yul\":4564:4573   */\n      sub\n        /* \"#utility.yul\":4556:4573   */\n      swap1\n      pop\n        /* \"#utility.yul\":4595:4596   */\n      dup2\n        /* \"#utility.yul\":4589:4593   */\n      dup2\n        /* \"#utility.yul\":4586:4597   */\n      gt\n        /* \"#utility.yul\":4583:4620   */\n      iszero\n      tag_135\n      jumpi\n        /* \"#utility.yul\":4600:4618   */\n      tag_136\n      tag_86\n      jump\t// in\n    tag_136:\n        /* \"#utility.yul\":4583:4620   */\n    tag_135:\n        /* \"#utility.yul\":4433:4627   */\n      swap3\n      swap2\n      pop\n      pop\n      jump\t// out\n        /* \"#utility.yul\":4633:4799   */\n    tag_87:\n        /* \"#utility.yul\":4773:4791   */\n      0x63616e6e6f742075736520657863656c00000000000000000000000000000000\n        /* \"#utility.yul\":4769:4770   */\n      0x00\n        /* \"#utility.yul\":4761:4767   */\n      dup3\n        /* \"#utility.yul\":4757:4771   */\n      add\n        /* \"#utility.yul\":4750:4792   */\n      mstore\n        /* \"#utility.yul\":4633:4799   */\n      pop\n      jump\t// out\n        /* \"#utility.yul\":4805:5171   */\n    tag_88:\n        /* \"#utility.yul\":4947:4950   */\n      0x00\n        /* \"#utility.yul\":4968:5035   */\n      tag_139\n        /* \"#utility.yul\":5032:5034   */\n      0x10\n        /* \"#utility.yul\":5027:5030   */\n      dup4\n        /* \"#utility.yul\":4968:5035   */\n      tag_81\n      jump\t// in\n    tag_139:\n        /* \"#utility.yul\":4961:5035   */\n      swap2\n      pop\n        /* \"#utility.yul\":5044:5137   */\n      tag_140\n        /* \"#utility.yul\":5133:5136   */\n      dup3\n        /* \"#utility.yul\":5044:5137   */\n      tag_87\n      jump\t// in\n    tag_140:\n        /* \"#utility.yul\":5162:5164   */\n      0x20\n        /* \"#utility.yul\":5157:5160   */\n      dup3\n        /* \"#utility.yul\":5153:5165   */\n      add\n        /* \"#utility.yul\":5146:5165   */\n      swap1\n      pop\n        /* \"#utility.yul\":4805:5171   */\n      swap2\n      swap1\n      pop\n      jump\t// out\n        /* \"#utility.yul\":5177:5596   */\n    tag_57:\n        /* \"#utility.yul\":5343:5347   */\n      0x00\n        /* \"#utility.yul\":5381:5383   */\n      0x20\n        /* \"#utility.yul\":5370:5379   */\n      dup3\n        /* \"#utility.yul\":5366:5384   */\n      add\n        /* \"#utility.yul\":5358:5384   */\n      swap1\n      pop\n        /* \"#utility.yul\":5430:5439   */\n      dup2\n        /* \"#utility.yul\":5424:5428   */\n      dup2\n        /* \"#utility.yul\":5420:5440   */\n      sub\n        /* \"#utility.yul\":5416:5417   */\n      0x00\n        /* \"#utility.yul\":5405:5414   */\n      dup4\n        /* \"#utility.yul\":5401:5418   */\n      add\n        /* \"#utility.yul\":5394:5441   */\n      mstore\n        /* \"#utility.yul\":5458:5589   */\n      tag_142\n        /* \"#utility.yul\":5584:5588   */\n      dup2\n        /* \"#utility.yul\":5458:5589   */\n      tag_88\n      jump\t// in\n    tag_142:\n        /* \"#utility.yul\":5450:5589   */\n      swap1\n      pop\n        /* \"#utility.yul\":5177:5596   */\n      swap2\n      swap1\n      pop\n      jump\t// out\n        /* \"#utility.yul\":5602:5793   */\n    tag_60:\n        /* \"#utility.yul\":5642:5645   */\n      0x00\n        /* \"#utility.yul\":5661:5681   */\n      tag_144\n        /* \"#utility.yul\":5679:5680   */\n      dup3\n        /* \"#utility.yul\":5661:5681   */\n      tag_77\n      jump\t// in\n    tag_144:\n        /* \"#utility.yul\":5656:5681   */\n      swap2\n      pop\n        /* \"#utility.yul\":5695:5715   */\n      tag_145\n        /* \"#utility.yul\":5713:5714   */\n      dup4\n        /* \"#utility.yul\":5695:5715   */\n      tag_77\n      jump\t// in\n    tag_145:\n        /* \"#utility.yul\":5690:5715   */\n      swap3\n      pop\n        /* \"#utility.yul\":5738:5739   */\n      dup3\n        /* \"#utility.yul\":5735:5736   */\n      dup3\n        /* \"#utility.yul\":5731:5740   */\n      add\n        /* \"#utility.yul\":5724:5740   */\n      swap1\n      pop\n        /* \"#utility.yul\":5759:5762   */\n      dup1\n        /* \"#utility.yul\":5756:5757   */\n      dup3\n        /* \"#utility.yul\":5753:5763   */\n      gt\n        /* \"#utility.yul\":5750:5786   */\n      iszero\n      tag_146\n      jumpi\n        /* \"#utility.yul\":5766:5784   */\n      tag_147\n      tag_86\n      jump\t// in\n    tag_147:\n        /* \"#utility.yul\":5750:5786   */\n    tag_146:\n        /* \"#utility.yul\":5602:5793   */\n      swap3\n      swap2\n      pop\n      pop\n      jump\t// out\n        /* \"#utility.yul\":5799:5965   */\n    tag_89:\n        /* \"#utility.yul\":5939:5957   */\n      0x63616e6e6f742075736520627265616b00000000000000000000000000000000\n        /* \"#utility.yul\":5935:5936   */\n      0x00\n        /* \"#utility.yul\":5927:5933   */\n      dup3\n        /* \"#utility.yul\":5923:5937   */\n      add\n        /* \"#utility.yul\":5916:5958   */\n      mstore\n        /* \"#utility.yul\":5799:5965   */\n      pop\n      jump\t// out\n        /* \"#utility.yul\":5971:6337   */\n    tag_90:\n        /* \"#utility.yul\":6113:6116   */\n      0x00\n        /* \"#utility.yul\":6134:6201   */\n      tag_150\n        /* \"#utility.yul\":6198:6200   */\n      0x10\n        /* \"#utility.yul\":6193:6196   */\n      dup4\n        /* \"#utility.yul\":6134:6201   */\n      tag_81\n      jump\t// in\n    tag_150:\n        /* \"#utility.yul\":6127:6201   */\n      swap2\n      pop\n        /* \"#utility.yul\":6210:6303   */\n      tag_151\n        /* \"#utility.yul\":6299:6302   */\n      dup3\n        /* \"#utility.yul\":6210:6303   */\n      tag_89\n      jump\t// in\n    tag_151:\n        /* \"#utility.yul\":6328:6330   */\n      0x20\n        /* \"#utility.yul\":6323:6326   */\n      dup3\n        /* \"#utility.yul\":6319:6331   */\n      add\n        /* \"#utility.yul\":6312:6331   */\n      swap1\n      pop\n        /* \"#utility.yul\":5971:6337   */\n      swap2\n      swap1\n      pop\n      jump\t// out\n        /* \"#utility.yul\":6343:6762   */\n    tag_67:\n        /* \"#utility.yul\":6509:6513   */\n      0x00\n        /* \"#utility.yul\":6547:6549   */\n      0x20\n        /* \"#utility.yul\":6536:6545   */\n      dup3\n        /* \"#utility.yul\":6532:6550   */\n      add\n        /* \"#utility.yul\":6524:6550   */\n      swap1\n      pop\n        /* \"#utility.yul\":6596:6605   */\n      dup2\n        /* \"#utility.yul\":6590:6594   */\n      dup2\n        /* \"#utility.yul\":6586:6606   */\n      sub\n        /* \"#utility.yul\":6582:6583   */\n      0x00\n        /* \"#utility.yul\":6571:6580   */\n      dup4\n        /* \"#utility.yul\":6567:6584   */\n      add\n        /* \"#utility.yul\":6560:6607   */\n      mstore\n        /* \"#utility.yul\":6624:6755   */\n      tag_153\n        /* \"#utility.yul\":6750:6754   */\n      dup2\n        /* \"#utility.yul\":6624:6755   */\n      tag_90\n      jump\t// in\n    tag_153:\n        /* \"#utility.yul\":6616:6755   */\n      swap1\n      pop\n        /* \"#utility.yul\":6343:6762   */\n      swap2\n      swap1\n      pop\n      jump\t// out\n\n    auxdata: 0xa264697066735822122016a8c97e40e3b0837b2c402c7eb07d3ee8194880e3764fb73b0712e632fe27c164736f6c634300081a0033\n}\n",
				"bytecode": {
					"linkReferences": {},
					"object": "6080604052348015600e575f80fd5b50610cb98061001c5f395ff3fe60806040526004361061007a575f3560e01c806375438e491161004d57806375438e49146100f3578063914ba218146100fd578063b28c9b6814610113578063e09d2f92146101295761007a565b80634aa601861461007e57806355161913146100bd5780636626b26d146100c757806367b7c034146100dd575b5f80fd5b348015610089575f80fd5b506100a4600480360381019061009f91906109a0565b61013f565b6040516100b494939291906109fd565b60405180910390f35b6100c5610176565b005b3480156100d2575f80fd5b506100db6101bc565b005b3480156100e8575f80fd5b506100f1610294565b005b6100fb610330565b005b348015610108575f80fd5b50610111610509565b005b34801561011e575f80fd5b506101276106d6565b005b348015610134575f80fd5b5061013d610775565b005b5f602052805f5260405f205f91509050805f015490806001015490806002015f9054906101000a900460ff16908060030154905084565b345f803373ffffffffffffffffffffffffffffffffffffffff1673ffffffffffffffffffffffffffffffffffffffff1681526020019081526020015f2060030181905550565b5f805f3373ffffffffffffffffffffffffffffffffffffffff1673ffffffffffffffffffffffffffffffffffffffff1681526020019081526020015f205f01541461023c576040517f08c379a000000000000000000000000000000000000000000000000000000000815260040161023390610a9a565b60405180910390fd5b5f805f3373ffffffffffffffffffffffffffffffffffffffff1673ffffffffffffffffffffffffffffffffffffffff1681526020019081526020015f206002015f6101000a81548160ff021916908315150217905550565b60015f803373ffffffffffffffffffffffffffffffffffffffff1673ffffffffffffffffffffffffffffffffffffffff1681526020019081526020015f206002015f6101000a81548160ff0219169083151502179055505f805f3373ffffffffffffffffffffffffffffffffffffffff1673ffffffffffffffffffffffffffffffffffffffff1681526020019081526020015f205f0181905550565b670de0b6b3a764000034148061038d5750670de0b6b3a76400005f803373ffffffffffffffffffffffffffffffffffffffff1673ffffffffffffffffffffffffffffffffffffffff1681526020019081526020015f206003015410155b6103cc576040517f08c379a00000000000000000000000000000000000000000000000000000000081526004016103c390610b02565b60405180910390fd5b670de0b6b3a76400005f803373ffffffffffffffffffffffffffffffffffffffff1673ffffffffffffffffffffffffffffffffffffffff1681526020019081526020015f2060030154106104c157670de0b6b3a76400005f803373ffffffffffffffffffffffffffffffffffffffff1673ffffffffffffffffffffffffffffffffffffffff1681526020019081526020015f206003015f8282546104709190610b4d565b9250508190555060645f803373ffffffffffffffffffffffffffffffffffffffff1673ffffffffffffffffffffffffffffffffffffffff1681526020019081526020015f2060010181905550610507565b60645f803373ffffffffffffffffffffffffffffffffffffffff1673ffffffffffffffffffffffffffffffffffffffff1681526020019081526020015f20600101819055505b565b601e5f803373ffffffffffffffffffffffffffffffffffffffff1673ffffffffffffffffffffffffffffffffffffffff1681526020019081526020015f2060010154118015610596575060465f803373ffffffffffffffffffffffffffffffffffffffff1673ffffffffffffffffffffffffffffffffffffffff1681526020019081526020015f205f0154105b80156105ea57505f803373ffffffffffffffffffffffffffffffffffffffff1673ffffffffffffffffffffffffffffffffffffffff1681526020019081526020015f206002015f9054906101000a900460ff165b610629576040517f08c379a000000000000000000000000000000000000000000000000000000000815260040161062090610bca565b60405180910390fd5b60145f803373ffffffffffffffffffffffffffffffffffffffff1673ffffffffffffffffffffffffffffffffffffffff1681526020019081526020015f206001015f8282546106789190610b4d565b92505081905550600a5f803373ffffffffffffffffffffffffffffffffffffffff1673ffffffffffffffffffffffffffffffffffffffff1681526020019081526020015f205f015f8282546106cd9190610be8565b92505081905550565b60405180608001604052805f81526020015f81526020015f151581526020015f8152505f803373ffffffffffffffffffffffffffffffffffffffff1673ffffffffffffffffffffffffffffffffffffffff1681526020019081526020015f205f820151815f0155602082015181600101556040820151816002015f6101000a81548160ff02191690831515021790555060608201518160030155905050565b600a5f803373ffffffffffffffffffffffffffffffffffffffff1673ffffffffffffffffffffffffffffffffffffffff1681526020019081526020015f20600101541015801561080257505f805f3373ffffffffffffffffffffffffffffffffffffffff1673ffffffffffffffffffffffffffffffffffffffff1681526020019081526020015f205f0154115b801561085657505f803373ffffffffffffffffffffffffffffffffffffffff1673ffffffffffffffffffffffffffffffffffffffff1681526020019081526020015f206002015f9054906101000a900460ff165b610895576040517f08c379a000000000000000000000000000000000000000000000000000000000815260040161088c90610c65565b60405180910390fd5b600a5f803373ffffffffffffffffffffffffffffffffffffffff1673ffffffffffffffffffffffffffffffffffffffff1681526020019081526020015f206001015f8282546108e49190610b4d565b92505081905550600a5f803373ffffffffffffffffffffffffffffffffffffffff1673ffffffffffffffffffffffffffffffffffffffff1681526020019081526020015f205f015f8282546109399190610b4d565b92505081905550565b5f80fd5b5f73ffffffffffffffffffffffffffffffffffffffff82169050919050565b5f61096f82610946565b9050919050565b61097f81610965565b8114610989575f80fd5b50565b5f8135905061099a81610976565b92915050565b5f602082840312156109b5576109b4610942565b5b5f6109c28482850161098c565b91505092915050565b5f819050919050565b6109dd816109cb565b82525050565b5f8115159050919050565b6109f7816109e3565b82525050565b5f608082019050610a105f8301876109d4565b610a1d60208301866109d4565b610a2a60408301856109ee565b610a3760608301846109d4565b95945050505050565b5f82825260208201905092915050565b7f7370656564206e6565647320746f2062652030000000000000000000000000005f82015250565b5f610a84601383610a40565b9150610a8f82610a50565b602082019050919050565b5f6020820190508181035f830152610ab181610a78565b9050919050565b7f31206574686572000000000000000000000000000000000000000000000000005f82015250565b5f610aec600783610a40565b9150610af782610ab8565b602082019050919050565b5f6020820190508181035f830152610b1981610ae0565b9050919050565b7f4e487b71000000000000000000000000000000000000000000000000000000005f52601160045260245ffd5b5f610b57826109cb565b9150610b62836109cb565b9250828203905081811115610b7a57610b79610b20565b5b92915050565b7f63616e6e6f742075736520657863656c000000000000000000000000000000005f82015250565b5f610bb4601083610a40565b9150610bbf82610b80565b602082019050919050565b5f6020820190508181035f830152610be181610ba8565b9050919050565b5f610bf2826109cb565b9150610bfd836109cb565b9250828201905080821115610c1557610c14610b20565b5b92915050565b7f63616e6e6f742075736520627265616b000000000000000000000000000000005f82015250565b5f610c4f601083610a40565b9150610c5a82610c1b565b602082019050919050565b5f6020820190508181035f830152610c7c81610c43565b905091905056fea264697066735822122016a8c97e40e3b0837b2c402c7eb07d3ee8194880e3764fb73b0712e632fe27c164736f6c634300081a0033",
					"opcodes": "PUSH1 0x80 PUSH1 0x40 MSTORE CALLVALUE DUP1 ISZERO PUSH1 0xE JUMPI PUSH0 DUP1 REVERT JUMPDEST POP PUSH2 0xCB9 DUP1 PUSH2 0x1C PUSH0 CODECOPY PUSH0 RETURN INVALID PUSH1 0x80 PUSH1 0x40 MSTORE PUSH1 0x4 CALLDATASIZE LT PUSH2 0x7A JUMPI PUSH0 CALLDATALOAD PUSH1 0xE0 SHR DUP1 PUSH4 0x75438E49 GT PUSH2 0x4D JUMPI DUP1 PUSH4 0x75438E49 EQ PUSH2 0xF3 JUMPI DUP1 PUSH4 0x914BA218 EQ PUSH2 0xFD JUMPI DUP1 PUSH4 0xB28C9B68 EQ PUSH2 0x113 JUMPI DUP1 PUSH4 0xE09D2F92 EQ PUSH2 0x129 JUMPI PUSH2 0x7A JUMP JUMPDEST DUP1 PUSH4 0x4AA60186 EQ PUSH2 0x7E JUMPI DUP1 PUSH4 0x55161913 EQ PUSH2 0xBD JUMPI DUP1 PUSH4 0x6626B26D EQ PUSH2 0xC7 JUMPI DUP1 PUSH4 0x67B7C034 EQ PUSH2 0xDD JUMPI JUMPDEST PUSH0 DUP1 REVERT JUMPDEST CALLVALUE DUP1 ISZERO PUSH2 0x89 JUMPI PUSH0 DUP1 REVERT JUMPDEST POP PUSH2 0xA4 PUSH1 0x4 DUP1 CALLDATASIZE SUB DUP2 ADD SWAP1 PUSH2 0x9F SWAP2 SWAP1 PUSH2 0x9A0 JUMP JUMPDEST PUSH2 0x13F JUMP JUMPDEST PUSH1 0x40 MLOAD PUSH2 0xB4 SWAP5 SWAP4 SWAP3 SWAP2 SWAP1 PUSH2 0x9FD JUMP JUMPDEST PUSH1 0x40 MLOAD DUP1 SWAP2 SUB SWAP1 RETURN JUMPDEST PUSH2 0xC5 PUSH2 0x176 JUMP JUMPDEST STOP JUMPDEST CALLVALUE DUP1 ISZERO PUSH2 0xD2 JUMPI PUSH0 DUP1 REVERT JUMPDEST POP PUSH2 0xDB PUSH2 0x1BC JUMP JUMPDEST STOP JUMPDEST CALLVALUE DUP1 ISZERO PUSH2 0xE8 JUMPI PUSH0 DUP1 REVERT JUMPDEST POP PUSH2 0xF1 PUSH2 0x294 JUMP JUMPDEST STOP JUMPDEST PUSH2 0xFB PUSH2 0x330 JUMP JUMPDEST STOP JUMPDEST CALLVALUE DUP1 ISZERO PUSH2 0x108 JUMPI PUSH0 DUP1 REVERT JUMPDEST POP PUSH2 0x111 PUSH2 0x509 JUMP JUMPDEST STOP JUMPDEST CALLVALUE DUP1 ISZERO PUSH2 0x11E JUMPI PUSH0 DUP1 REVERT JUMPDEST POP PUSH2 0x127 PUSH2 0x6D6 JUMP JUMPDEST STOP JUMPDEST CALLVALUE DUP1 ISZERO PUSH2 0x134 JUMPI PUSH0 DUP1 REVERT JUMPDEST POP PUSH2 0x13D PUSH2 0x775 JUMP JUMPDEST STOP JUMPDEST PUSH0 PUSH1 0x20 MSTORE DUP1 PUSH0 MSTORE PUSH1 0x40 PUSH0 KECCAK256 PUSH0 SWAP2 POP SWAP1 POP DUP1 PUSH0 ADD SLOAD SWAP1 DUP1 PUSH1 0x1 ADD SLOAD SWAP1 DUP1 PUSH1 0x2 ADD PUSH0 SWAP1 SLOAD SWAP1 PUSH2 0x100 EXP SWAP1 DIV PUSH1 0xFF AND SWAP1 DUP1 PUSH1 0x3 ADD SLOAD SWAP1 POP DUP5 JUMP JUMPDEST CALLVALUE PUSH0 DUP1 CALLER PUSH20 0xFFFFFFFFFFFFFFFFFFFFFFFFFFFFFFFFFFFFFFFF AND PUSH20 0xFFFFFFFFFFFFFFFFFFFFFFFFFFFFFFFFFFFFFFFF AND DUP2 MSTORE PUSH1 0x20 ADD SWAP1 DUP2 MSTORE PUSH1 0x20 ADD PUSH0 KECCAK256 PUSH1 0x3 ADD DUP2 SWAP1 SSTORE POP JUMP JUMPDEST PUSH0 DUP1 PUSH0 CALLER PUSH20 0xFFFFFFFFFFFFFFFFFFFFFFFFFFFFFFFFFFFFFFFF AND PUSH20 0xFFFFFFFFFFFFFFFFFFFFFFFFFFFFFFFFFFFFFFFF AND DUP2 MSTORE PUSH1 0x20 ADD SWAP1 DUP2 MSTORE PUSH1 0x20 ADD PUSH0 KECCAK256 PUSH0 ADD SLOAD EQ PUSH2 0x23C JUMPI PUSH1 0x40 MLOAD PUSH32 0x8C379A000000000000000000000000000000000000000000000000000000000 DUP2 MSTORE PUSH1 0x4 ADD PUSH2 0x233 SWAP1 PUSH2 0xA9A JUMP JUMPDEST PUSH1 0x40 MLOAD DUP1 SWAP2 SUB SWAP1 REVERT JUMPDEST PUSH0 DUP1 PUSH0 CALLER PUSH20 0xFFFFFFFFFFFFFFFFFFFFFFFFFFFFFFFFFFFFFFFF AND PUSH20 0xFFFFFFFFFFFFFFFFFFFFFFFFFFFFFFFFFFFFFFFF AND DUP2 MSTORE PUSH1 0x20 ADD SWAP1 DUP2 MSTORE PUSH1 0x20 ADD PUSH0 KECCAK256 PUSH1 0x2 ADD PUSH0 PUSH2 0x100 EXP DUP2 SLOAD DUP2 PUSH1 0xFF MUL NOT AND SWAP1 DUP4 ISZERO ISZERO MUL OR SWAP1 SSTORE POP JUMP JUMPDEST PUSH1 0x1 PUSH0 DUP1 CALLER PUSH20 0xFFFFFFFFFFFFFFFFFFFFFFFFFFFFFFFFFFFFFFFF AND PUSH20 0xFFFFFFFFFFFFFFFFFFFFFFFFFFFFFFFFFFFFFFFF AND DUP2 MSTORE PUSH1 0x20 ADD SWAP1 DUP2 MSTORE PUSH1 0x20 ADD PUSH0 KECCAK256 PUSH1 0x2 ADD PUSH0 PUSH2 0x100 EXP DUP2 SLOAD DUP2 PUSH1 0xFF MUL NOT AND SWAP1 DUP4 ISZERO ISZERO MUL OR SWAP1 SSTORE POP PUSH0 DUP1 PUSH0 CALLER PUSH20 0xFFFFFFFFFFFFFFFFFFFFFFFFFFFFFFFFFFFFFFFF AND PUSH20 0xFFFFFFFFFFFFFFFFFFFFFFFFFFFFFFFFFFFFFFFF AND DUP2 MSTORE PUSH1 0x20 ADD SWAP1 DUP2 MSTORE PUSH1 0x20 ADD PUSH0 KECCAK256 PUSH0 ADD DUP2 SWAP1 SSTORE POP JUMP JUMPDEST PUSH8 0xDE0B6B3A7640000 CALLVALUE EQ DUP1 PUSH2 0x38D JUMPI POP PUSH8 0xDE0B6B3A7640000 PUSH0 DUP1 CALLER PUSH20 0xFFFFFFFFFFFFFFFFFFFFFFFFFFFFFFFFFFFFFFFF AND PUSH20 0xFFFFFFFFFFFFFFFFFFFFFFFFFFFFFFFFFFFFFFFF AND DUP2 MSTORE PUSH1 0x20 ADD SWAP1 DUP2 MSTORE PUSH1 0x20 ADD PUSH0 KECCAK256 PUSH1 0x3 ADD SLOAD LT ISZERO JUMPDEST PUSH2 0x3CC JUMPI PUSH1 0x40 MLOAD PUSH32 0x8C379A000000000000000000000000000000000000000000000000000000000 DUP2 MSTORE PUSH1 0x4 ADD PUSH2 0x3C3 SWAP1 PUSH2 0xB02 JUMP JUMPDEST PUSH1 0x40 MLOAD DUP1 SWAP2 SUB SWAP1 REVERT JUMPDEST PUSH8 0xDE0B6B3A7640000 PUSH0 DUP1 CALLER PUSH20 0xFFFFFFFFFFFFFFFFFFFFFFFFFFFFFFFFFFFFFFFF AND PUSH20 0xFFFFFFFFFFFFFFFFFFFFFFFFFFFFFFFFFFFFFFFF AND DUP2 MSTORE PUSH1 0x20 ADD SWAP1 DUP2 MSTORE PUSH1 0x20 ADD PUSH0 KECCAK256 PUSH1 0x3 ADD SLOAD LT PUSH2 0x4C1 JUMPI PUSH8 0xDE0B6B3A7640000 PUSH0 DUP1 CALLER PUSH20 0xFFFFFFFFFFFFFFFFFFFFFFFFFFFFFFFFFFFFFFFF AND PUSH20 0xFFFFFFFFFFFFFFFFFFFFFFFFFFFFFFFFFFFFFFFF AND DUP2 MSTORE PUSH1 0x20 ADD SWAP1 DUP2 MSTORE PUSH1 0x20 ADD PUSH0 KECCAK256 PUSH1 0x3 ADD PUSH0 DUP3 DUP3 SLOAD PUSH2 0x470 SWAP2 SWAP1 PUSH2 0xB4D JUMP JUMPDEST SWAP3 POP POP DUP2 SWAP1 SSTORE POP PUSH1 0x64 PUSH0 DUP1 CALLER PUSH20 0xFFFFFFFFFFFFFFFFFFFFFFFFFFFFFFFFFFFFFFFF AND PUSH20 0xFFFFFFFFFFFFFFFFFFFFFFFFFFFFFFFFFFFFFFFF AND DUP2 MSTORE PUSH1 0x20 ADD SWAP1 DUP2 MSTORE PUSH1 0x20 ADD PUSH0 KECCAK256 PUSH1 0x1 ADD DUP2 SWAP1 SSTORE POP PUSH2 0x507 JUMP JUMPDEST PUSH1 0x64 PUSH0 DUP1 CALLER PUSH20 0xFFFFFFFFFFFFFFFFFFFFFFFFFFFFFFFFFFFFFFFF AND PUSH20 0xFFFFFFFFFFFFFFFFFFFFFFFFFFFFFFFFFFFFFFFF AND DUP2 MSTORE PUSH1 0x20 ADD SWAP1 DUP2 MSTORE PUSH1 0x20 ADD PUSH0 KECCAK256 PUSH1 0x1 ADD DUP2 SWAP1 SSTORE POP JUMPDEST JUMP JUMPDEST PUSH1 0x1E PUSH0 DUP1 CALLER PUSH20 0xFFFFFFFFFFFFFFFFFFFFFFFFFFFFFFFFFFFFFFFF AND PUSH20 0xFFFFFFFFFFFFFFFFFFFFFFFFFFFFFFFFFFFFFFFF AND DUP2 MSTORE PUSH1 0x20 ADD SWAP1 DUP2 MSTORE PUSH1 0x20 ADD PUSH0 KECCAK256 PUSH1 0x1 ADD SLOAD GT DUP1 ISZERO PUSH2 0x596 JUMPI POP PUSH1 0x46 PUSH0 DUP1 CALLER PUSH20 0xFFFFFFFFFFFFFFFFFFFFFFFFFFFFFFFFFFFFFFFF AND PUSH20 0xFFFFFFFFFFFFFFFFFFFFFFFFFFFFFFFFFFFFFFFF AND DUP2 MSTORE PUSH1 0x20 ADD SWAP1 DUP2 MSTORE PUSH1 0x20 ADD PUSH0 KECCAK256 PUSH0 ADD SLOAD LT JUMPDEST DUP1 ISZERO PUSH2 0x5EA JUMPI POP PUSH0 DUP1 CALLER PUSH20 0xFFFFFFFFFFFFFFFFFFFFFFFFFFFFFFFFFFFFFFFF AND PUSH20 0xFFFFFFFFFFFFFFFFFFFFFFFFFFFFFFFFFFFFFFFF AND DUP2 MSTORE PUSH1 0x20 ADD SWAP1 DUP2 MSTORE PUSH1 0x20 ADD PUSH0 KECCAK256 PUSH1 0x2 ADD PUSH0 SWAP1 SLOAD SWAP1 PUSH2 0x100 EXP SWAP1 DIV PUSH1 0xFF AND JUMPDEST PUSH2 0x629 JUMPI PUSH1 0x40 MLOAD PUSH32 0x8C379A000000000000000000000000000000000000000000000000000000000 DUP2 MSTORE PUSH1 0x4 ADD PUSH2 0x620 SWAP1 PUSH2 0xBCA JUMP JUMPDEST PUSH1 0x40 MLOAD DUP1 SWAP2 SUB SWAP1 REVERT JUMPDEST PUSH1 0x14 PUSH0 DUP1 CALLER PUSH20 0xFFFFFFFFFFFFFFFFFFFFFFFFFFFFFFFFFFFFFFFF AND PUSH20 0xFFFFFFFFFFFFFFFFFFFFFFFFFFFFFFFFFFFFFFFF AND DUP2 MSTORE PUSH1 0x20 ADD SWAP1 DUP2 MSTORE PUSH1 0x20 ADD PUSH0 KECCAK256 PUSH1 0x1 ADD PUSH0 DUP3 DUP3 SLOAD PUSH2 0x678 SWAP2 SWAP1 PUSH2 0xB4D JUMP JUMPDEST SWAP3 POP POP DUP2 SWAP1 SSTORE POP PUSH1 0xA PUSH0 DUP1 CALLER PUSH20 0xFFFFFFFFFFFFFFFFFFFFFFFFFFFFFFFFFFFFFFFF AND PUSH20 0xFFFFFFFFFFFFFFFFFFFFFFFFFFFFFFFFFFFFFFFF AND DUP2 MSTORE PUSH1 0x20 ADD SWAP1 DUP2 MSTORE PUSH1 0x20 ADD PUSH0 KECCAK256 PUSH0 ADD PUSH0 DUP3 DUP3 SLOAD PUSH2 0x6CD SWAP2 SWAP1 PUSH2 0xBE8 JUMP JUMPDEST SWAP3 POP POP DUP2 SWAP1 SSTORE POP JUMP JUMPDEST PUSH1 0x40 MLOAD DUP1 PUSH1 0x80 ADD PUSH1 0x40 MSTORE DUP1 PUSH0 DUP2 MSTORE PUSH1 0x20 ADD PUSH0 DUP2 MSTORE PUSH1 0x20 ADD PUSH0 ISZERO ISZERO DUP2 MSTORE PUSH1 0x20 ADD PUSH0 DUP2 MSTORE POP PUSH0 DUP1 CALLER PUSH20 0xFFFFFFFFFFFFFFFFFFFFFFFFFFFFFFFFFFFFFFFF AND PUSH20 0xFFFFFFFFFFFFFFFFFFFFFFFFFFFFFFFFFFFFFFFF AND DUP2 MSTORE PUSH1 0x20 ADD SWAP1 DUP2 MSTORE PUSH1 0x20 ADD PUSH0 KECCAK256 PUSH0 DUP3 ADD MLOAD DUP2 PUSH0 ADD SSTORE PUSH1 0x20 DUP3 ADD MLOAD DUP2 PUSH1 0x1 ADD SSTORE PUSH1 0x40 DUP3 ADD MLOAD DUP2 PUSH1 0x2 ADD PUSH0 PUSH2 0x100 EXP DUP2 SLOAD DUP2 PUSH1 0xFF MUL NOT AND SWAP1 DUP4 ISZERO ISZERO MUL OR SWAP1 SSTORE POP PUSH1 0x60 DUP3 ADD MLOAD DUP2 PUSH1 0x3 ADD SSTORE SWAP1 POP POP JUMP JUMPDEST PUSH1 0xA PUSH0 DUP1 CALLER PUSH20 0xFFFFFFFFFFFFFFFFFFFFFFFFFFFFFFFFFFFFFFFF AND PUSH20 0xFFFFFFFFFFFFFFFFFFFFFFFFFFFFFFFFFFFFFFFF AND DUP2 MSTORE PUSH1 0x20 ADD SWAP1 DUP2 MSTORE PUSH1 0x20 ADD PUSH0 KECCAK256 PUSH1 0x1 ADD SLOAD LT ISZERO DUP1 ISZERO PUSH2 0x802 JUMPI POP PUSH0 DUP1 PUSH0 CALLER PUSH20 0xFFFFFFFFFFFFFFFFFFFFFFFFFFFFFFFFFFFFFFFF AND PUSH20 0xFFFFFFFFFFFFFFFFFFFFFFFFFFFFFFFFFFFFFFFF AND DUP2 MSTORE PUSH1 0x20 ADD SWAP1 DUP2 MSTORE PUSH1 0x20 ADD PUSH0 KECCAK256 PUSH0 ADD SLOAD GT JUMPDEST DUP1 ISZERO PUSH2 0x856 JUMPI POP PUSH0 DUP1 CALLER PUSH20 0xFFFFFFFFFFFFFFFFFFFFFFFFFFFFFFFFFFFFFFFF AND PUSH20 0xFFFFFFFFFFFFFFFFFFFFFFFFFFFFFFFFFFFFFFFF AND DUP2 MSTORE PUSH1 0x20 ADD SWAP1 DUP2 MSTORE PUSH1 0x20 ADD PUSH0 KECCAK256 PUSH1 0x2 ADD PUSH0 SWAP1 SLOAD SWAP1 PUSH2 0x100 EXP SWAP1 DIV PUSH1 0xFF AND JUMPDEST PUSH2 0x895 JUMPI PUSH1 0x40 MLOAD PUSH32 0x8C379A000000000000000000000000000000000000000000000000000000000 DUP2 MSTORE PUSH1 0x4 ADD PUSH2 0x88C SWAP1 PUSH2 0xC65 JUMP JUMPDEST PUSH1 0x40 MLOAD DUP1 SWAP2 SUB SWAP1 REVERT JUMPDEST PUSH1 0xA PUSH0 DUP1 CALLER PUSH20 0xFFFFFFFFFFFFFFFFFFFFFFFFFFFFFFFFFFFFFFFF AND PUSH20 0xFFFFFFFFFFFFFFFFFFFFFFFFFFFFFFFFFFFFFFFF AND DUP2 MSTORE PUSH1 0x20 ADD SWAP1 DUP2 MSTORE PUSH1 0x20 ADD PUSH0 KECCAK256 PUSH1 0x1 ADD PUSH0 DUP3 DUP3 SLOAD PUSH2 0x8E4 SWAP2 SWAP1 PUSH2 0xB4D JUMP JUMPDEST SWAP3 POP POP DUP2 SWAP1 SSTORE POP PUSH1 0xA PUSH0 DUP1 CALLER PUSH20 0xFFFFFFFFFFFFFFFFFFFFFFFFFFFFFFFFFFFFFFFF AND PUSH20 0xFFFFFFFFFFFFFFFFFFFFFFFFFFFFFFFFFFFFFFFF AND DUP2 MSTORE PUSH1 0x20 ADD SWAP1 DUP2 MSTORE PUSH1 0x20 ADD PUSH0 KECCAK256 PUSH0 ADD PUSH0 DUP3 DUP3 SLOAD PUSH2 0x939 SWAP2 SWAP1 PUSH2 0xB4D JUMP JUMPDEST SWAP3 POP POP DUP2 SWAP1 SSTORE POP JUMP JUMPDEST PUSH0 DUP1 REVERT JUMPDEST PUSH0 PUSH20 0xFFFFFFFFFFFFFFFFFFFFFFFFFFFFFFFFFFFFFFFF DUP3 AND SWAP1 POP SWAP2 SWAP1 POP JUMP JUMPDEST PUSH0 PUSH2 0x96F DUP3 PUSH2 0x946 JUMP JUMPDEST SWAP1 POP SWAP2 SWAP1 POP JUMP JUMPDEST PUSH2 0x97F DUP2 PUSH2 0x965 JUMP JUMPDEST DUP2 EQ PUSH2 0x989 JUMPI PUSH0 DUP1 REVERT JUMPDEST POP JUMP JUMPDEST PUSH0 DUP2 CALLDATALOAD SWAP1 POP PUSH2 0x99A DUP2 PUSH2 0x976 JUMP JUMPDEST SWAP3 SWAP2 POP POP JUMP JUMPDEST PUSH0 PUSH1 0x20 DUP3 DUP5 SUB SLT ISZERO PUSH2 0x9B5 JUMPI PUSH2 0x9B4 PUSH2 0x942 JUMP JUMPDEST JUMPDEST PUSH0 PUSH2 0x9C2 DUP5 DUP3 DUP6 ADD PUSH2 0x98C JUMP JUMPDEST SWAP2 POP POP SWAP3 SWAP2 POP POP JUMP JUMPDEST PUSH0 DUP2 SWAP1 POP SWAP2 SWAP1 POP JUMP JUMPDEST PUSH2 0x9DD DUP2 PUSH2 0x9CB JUMP JUMPDEST DUP3 MSTORE POP POP JUMP JUMPDEST PUSH0 DUP2 ISZERO ISZERO SWAP1 POP SWAP2 SWAP1 POP JUMP JUMPDEST PUSH2 0x9F7 DUP2 PUSH2 0x9E3 JUMP JUMPDEST DUP3 MSTORE POP POP JUMP JUMPDEST PUSH0 PUSH1 0x80 DUP3 ADD SWAP1 POP PUSH2 0xA10 PUSH0 DUP4 ADD DUP8 PUSH2 0x9D4 JUMP JUMPDEST PUSH2 0xA1D PUSH1 0x20 DUP4 ADD DUP7 PUSH2 0x9D4 JUMP JUMPDEST PUSH2 0xA2A PUSH1 0x40 DUP4 ADD DUP6 PUSH2 0x9EE JUMP JUMPDEST PUSH2 0xA37 PUSH1 0x60 DUP4 ADD DUP5 PUSH2 0x9D4 JUMP JUMPDEST SWAP6 SWAP5 POP POP POP POP POP JUMP JUMPDEST PUSH0 DUP3 DUP3 MSTORE PUSH1 0x20 DUP3 ADD SWAP1 POP SWAP3 SWAP2 POP POP JUMP JUMPDEST PUSH32 0x7370656564206E6565647320746F206265203000000000000000000000000000 PUSH0 DUP3 ADD MSTORE POP JUMP JUMPDEST PUSH0 PUSH2 0xA84 PUSH1 0x13 DUP4 PUSH2 0xA40 JUMP JUMPDEST SWAP2 POP PUSH2 0xA8F DUP3 PUSH2 0xA50 JUMP JUMPDEST PUSH1 0x20 DUP3 ADD SWAP1 POP SWAP2 SWAP1 POP JUMP JUMPDEST PUSH0 PUSH1 0x20 DUP3 ADD SWAP1 POP DUP2 DUP2 SUB PUSH0 DUP4 ADD MSTORE PUSH2 0xAB1 DUP2 PUSH2 0xA78 JUMP JUMPDEST SWAP1 POP SWAP2 SWAP1 POP JUMP JUMPDEST PUSH32 0x3120657468657200000000000000000000000000000000000000000000000000 PUSH0 DUP3 ADD MSTORE POP JUMP JUMPDEST PUSH0 PUSH2 0xAEC PUSH1 0x7 DUP4 PUSH2 0xA40 JUMP JUMPDEST SWAP2 POP PUSH2 0xAF7 DUP3 PUSH2 0xAB8 JUMP JUMPDEST PUSH1 0x20 DUP3 ADD SWAP1 POP SWAP2 SWAP1 POP JUMP JUMPDEST PUSH0 PUSH1 0x20 DUP3 ADD SWAP1 POP DUP2 DUP2 SUB PUSH0 DUP4 ADD MSTORE PUSH2 0xB19 DUP2 PUSH2 0xAE0 JUMP JUMPDEST SWAP1 POP SWAP2 SWAP1 POP JUMP JUMPDEST PUSH32 0x4E487B7100000000000000000000000000000000000000000000000000000000 PUSH0 MSTORE PUSH1 0x11 PUSH1 0x4 MSTORE PUSH1 0x24 PUSH0 REVERT JUMPDEST PUSH0 PUSH2 0xB57 DUP3 PUSH2 0x9CB JUMP JUMPDEST SWAP2 POP PUSH2 0xB62 DUP4 PUSH2 0x9CB JUMP JUMPDEST SWAP3 POP DUP3 DUP3 SUB SWAP1 POP DUP2 DUP2 GT ISZERO PUSH2 0xB7A JUMPI PUSH2 0xB79 PUSH2 0xB20 JUMP JUMPDEST JUMPDEST SWAP3 SWAP2 POP POP JUMP JUMPDEST PUSH32 0x63616E6E6F742075736520657863656C00000000000000000000000000000000 PUSH0 DUP3 ADD MSTORE POP JUMP JUMPDEST PUSH0 PUSH2 0xBB4 PUSH1 0x10 DUP4 PUSH2 0xA40 JUMP JUMPDEST SWAP2 POP PUSH2 0xBBF DUP3 PUSH2 0xB80 JUMP JUMPDEST PUSH1 0x20 DUP3 ADD SWAP1 POP SWAP2 SWAP1 POP JUMP JUMPDEST PUSH0 PUSH1 0x20 DUP3 ADD SWAP1 POP DUP2 DUP2 SUB PUSH0 DUP4 ADD MSTORE PUSH2 0xBE1 DUP2 PUSH2 0xBA8 JUMP JUMPDEST SWAP1 POP SWAP2 SWAP1 POP JUMP JUMPDEST PUSH0 PUSH2 0xBF2 DUP3 PUSH2 0x9CB JUMP JUMPDEST SWAP2 POP PUSH2 0xBFD DUP4 PUSH2 0x9CB JUMP JUMPDEST SWAP3 POP DUP3 DUP3 ADD SWAP1 POP DUP1 DUP3 GT ISZERO PUSH2 0xC15 JUMPI PUSH2 0xC14 PUSH2 0xB20 JUMP JUMPDEST JUMPDEST SWAP3 SWAP2 POP POP JUMP JUMPDEST PUSH32 0x63616E6E6F742075736520627265616B00000000000000000000000000000000 PUSH0 DUP3 ADD MSTORE POP JUMP JUMPDEST PUSH0 PUSH2 0xC4F PUSH1 0x10 DUP4 PUSH2 0xA40 JUMP JUMPDEST SWAP2 POP PUSH2 0xC5A DUP3 PUSH2 0xC1B JUMP JUMPDEST PUSH1 0x20 DUP3 ADD SWAP1 POP SWAP2 SWAP1 POP JUMP JUMPDEST PUSH0 PUSH1 0x20 DUP3 ADD SWAP1 POP DUP2 DUP2 SUB PUSH0 DUP4 ADD MSTORE PUSH2 0xC7C DUP2 PUSH2 0xC43 JUMP JUMPDEST SWAP1 POP SWAP2 SWAP1 POP JUMP INVALID LOG2 PUSH5 0x6970667358 0x22 SLT KECCAK256 AND 0xA8 0xC9 PUSH31 0x40E3B0837B2C402C7EB07D3EE8194880E3764FB73B0712E632FE27C164736F PUSH13 0x634300081A0033000000000000 "
				},
				"gasEstimates": {
					"creation": {
						"codeDepositCost": "651400",
						"executionCost": "681",
						"totalCost": "652081"
					},
					"external": {
						"breaks()": "infinite",
						"charge()": "22348",
						"drivers(address)": "infinite",
						"excel()": "infinite",
						"fillGas()": "infinite",
						"off()": "26760",
						"on()": "29674",
						"setDriver()": "39723"
					}
				},
				"methodIdentifiers": {
					"breaks()": "e09d2f92",
					"charge()": "55161913",
					"drivers(address)": "4aa60186",
					"excel()": "914ba218",
					"fillGas()": "75438e49",
					"off()": "6626b26d",
					"on()": "67b7c034",
					"setDriver()": "b28c9b68"
				}
			},
			"storageLayout": {
				"storage": [
					{
						"astId": 15,
						"contract": "Code Test/CodeTest_7.sol:Test7",
						"label": "drivers",
						"offset": 0,
						"slot": "0",
						"type": "t_mapping(t_address,t_struct(status)10_storage)"
					}
				],
				"types": {
					"t_address": {
						"encoding": "inplace",
						"label": "address",
						"numberOfBytes": "20"
					},
					"t_bool": {
						"encoding": "inplace",
						"label": "bool",
						"numberOfBytes": "1"
					},
					"t_mapping(t_address,t_struct(status)10_storage)": {
						"encoding": "mapping",
						"key": "t_address",
						"label": "mapping(address => struct Test7.status)",
						"numberOfBytes": "32",
						"value": "t_struct(status)10_storage"
					},
					"t_struct(status)10_storage": {
						"encoding": "inplace",
						"label": "struct Test7.status",
						"members": [
							{
								"astId": 3,
								"contract": "Code Test/CodeTest_7.sol:Test7",
								"label": "speed",
								"offset": 0,
								"slot": "0",
								"type": "t_uint256"
							},
							{
								"astId": 5,
								"contract": "Code Test/CodeTest_7.sol:Test7",
								"label": "gas",
								"offset": 0,
								"slot": "1",
								"type": "t_uint256"
							},
							{
								"astId": 7,
								"contract": "Code Test/CodeTest_7.sol:Test7",
								"label": "isOn",
								"offset": 0,
								"slot": "2",
								"type": "t_bool"
							},
							{
								"astId": 9,
								"contract": "Code Test/CodeTest_7.sol:Test7",
								"label": "balances",
								"offset": 0,
								"slot": "3",
								"type": "t_uint256"
							}
						],
						"numberOfBytes": "128"
					},
					"t_uint256": {
						"encoding": "inplace",
						"label": "uint256",
						"numberOfBytes": "32"
					}
				}
			},
			"userdoc": {
				"kind": "user",
				"methods": {},
				"version": 1
			}
		}
	}
}