{
	"Code Test/CodeTest_6.sol": {
		"BASE": {
			"abi": [
				{
					"inputs": [
						{
							"internalType": "bytes",
							"name": "_b",
							"type": "bytes"
						},
						{
							"internalType": "uint256",
							"name": "_n",
							"type": "uint256"
						}
					],
					"name": "getByte1",
					"outputs": [
						{
							"internalType": "bytes1",
							"name": "",
							"type": "bytes1"
						}
					],
					"stateMutability": "pure",
					"type": "function"
				},
				{
					"inputs": [
						{
							"internalType": "bytes",
							"name": "_b",
							"type": "bytes"
						}
					],
					"name": "getBytes",
					"outputs": [
						{
							"internalType": "uint256",
							"name": "",
							"type": "uint256"
						}
					],
					"stateMutability": "pure",
					"type": "function"
				},
				{
					"inputs": [
						{
							"internalType": "string",
							"name": "b",
							"type": "string"
						}
					],
					"name": "getEncode",
					"outputs": [
						{
							"internalType": "bytes",
							"name": "",
							"type": "bytes"
						}
					],
					"stateMutability": "pure",
					"type": "function"
				},
				{
					"inputs": [
						{
							"internalType": "string",
							"name": "b",
							"type": "string"
						}
					],
					"name": "getEncodePacked",
					"outputs": [
						{
							"internalType": "bytes",
							"name": "",
							"type": "bytes"
						}
					],
					"stateMutability": "pure",
					"type": "function"
				},
				{
					"inputs": [
						{
							"internalType": "bytes",
							"name": "b",
							"type": "bytes"
						}
					],
					"name": "split",
					"outputs": [
						{
							"internalType": "uint256",
							"name": "",
							"type": "uint256"
						},
						{
							"internalType": "bytes1[]",
							"name": "",
							"type": "bytes1[]"
						},
						{
							"internalType": "string",
							"name": "",
							"type": "string"
						}
					],
					"stateMutability": "pure",
					"type": "function"
				}
			],
			"devdoc": {
				"kind": "dev",
				"methods": {},
				"version": 1
			},
			"evm": {
				"assembly": "    /* \"Code Test/CodeTest_6.sol\":1261:2112  contract BASE {... */\n  mstore(0x40, 0x80)\n  callvalue\n  dup1\n  iszero\n  tag_1\n  jumpi\n  0x00\n  dup1\n  revert\ntag_1:\n  pop\n  dataSize(sub_0)\n  dup1\n  dataOffset(sub_0)\n  0x00\n  codecopy\n  0x00\n  return\nstop\n\nsub_0: assembly {\n        /* \"Code Test/CodeTest_6.sol\":1261:2112  contract BASE {... */\n      mstore(0x40, 0x80)\n      callvalue\n      dup1\n      iszero\n      tag_1\n      jumpi\n      0x00\n      dup1\n      revert\n    tag_1:\n      pop\n      jumpi(tag_2, lt(calldatasize, 0x04))\n      shr(0xe0, calldataload(0x00))\n      dup1\n      0x413cc0db\n      eq\n      tag_3\n      jumpi\n      dup1\n      0x65d894e9\n      eq\n      tag_4\n      jumpi\n      dup1\n      0x781c6dbe\n      eq\n      tag_5\n      jumpi\n      dup1\n      0xcd63efd4\n      eq\n      tag_6\n      jumpi\n      dup1\n      0xf100cfd3\n      eq\n      tag_7\n      jumpi\n    tag_2:\n      0x00\n      dup1\n      revert\n        /* \"Code Test/CodeTest_6.sol\":1991:2110  function getEncodePacked(string memory b) public pure returns(bytes memory) {... */\n    tag_3:\n      tag_8\n      0x04\n      dup1\n      calldatasize\n      sub\n      dup2\n      add\n      swap1\n      tag_9\n      swap2\n      swap1\n      tag_10\n      jump\t// in\n    tag_9:\n      tag_11\n      jump\t// in\n    tag_8:\n      mload(0x40)\n      tag_12\n      swap2\n      swap1\n      tag_13\n      jump\t// in\n    tag_12:\n      mload(0x40)\n      dup1\n      swap2\n      sub\n      swap1\n      return\n        /* \"Code Test/CodeTest_6.sol\":1553:1872  function split(bytes memory b) public pure returns(uint, bytes1[] memory, string memory) {... */\n    tag_4:\n      tag_14\n      0x04\n      dup1\n      calldatasize\n      sub\n      dup2\n      add\n      swap1\n      tag_15\n      swap2\n      swap1\n      tag_16\n      jump\t// in\n    tag_15:\n      tag_17\n      jump\t// in\n    tag_14:\n      mload(0x40)\n      tag_18\n      swap4\n      swap3\n      swap2\n      swap1\n      tag_19\n      jump\t// in\n    tag_18:\n      mload(0x40)\n      dup1\n      swap2\n      sub\n      swap1\n      return\n        /* \"Code Test/CodeTest_6.sol\":1343:1437  function getBytes(bytes memory _b) public pure returns(uint) {... */\n    tag_5:\n      tag_20\n      0x04\n      dup1\n      calldatasize\n      sub\n      dup2\n      add\n      swap1\n      tag_21\n      swap2\n      swap1\n      tag_16\n      jump\t// in\n    tag_21:\n      tag_22\n      jump\t// in\n    tag_20:\n      mload(0x40)\n      tag_23\n      swap2\n      swap1\n      tag_24\n      jump\t// in\n    tag_23:\n      mload(0x40)\n      dup1\n      swap2\n      sub\n      swap1\n      return\n        /* \"Code Test/CodeTest_6.sol\":1443:1547  function getByte1(bytes memory _b, uint _n) public pure returns(bytes1) {... */\n    tag_6:\n      tag_25\n      0x04\n      dup1\n      calldatasize\n      sub\n      dup2\n      add\n      swap1\n      tag_26\n      swap2\n      swap1\n      tag_27\n      jump\t// in\n    tag_26:\n      tag_28\n      jump\t// in\n    tag_25:\n      mload(0x40)\n      tag_29\n      swap2\n      swap1\n      tag_30\n      jump\t// in\n    tag_29:\n      mload(0x40)\n      dup1\n      swap2\n      sub\n      swap1\n      return\n        /* \"Code Test/CodeTest_6.sol\":1878:1985  function getEncode(string memory b) public pure returns(bytes memory) {... */\n    tag_7:\n      tag_31\n      0x04\n      dup1\n      calldatasize\n      sub\n      dup2\n      add\n      swap1\n      tag_32\n      swap2\n      swap1\n      tag_10\n      jump\t// in\n    tag_32:\n      tag_33\n      jump\t// in\n    tag_31:\n      mload(0x40)\n      tag_34\n      swap2\n      swap1\n      tag_13\n      jump\t// in\n    tag_34:\n      mload(0x40)\n      dup1\n      swap2\n      sub\n      swap1\n      return\n        /* \"Code Test/CodeTest_6.sol\":1991:2110  function getEncodePacked(string memory b) public pure returns(bytes memory) {... */\n    tag_11:\n        /* \"Code Test/CodeTest_6.sol\":2053:2065  bytes memory */\n      0x60\n        /* \"Code Test/CodeTest_6.sol\":2101:2102  b */\n      dup2\n        /* \"Code Test/CodeTest_6.sol\":2084:2103  abi.encodePacked(b) */\n      add(0x20, mload(0x40))\n      tag_36\n      swap2\n      swap1\n      tag_37\n      jump\t// in\n    tag_36:\n      mload(0x40)\n      0x20\n      dup2\n      dup4\n      sub\n      sub\n      dup2\n      mstore\n      swap1\n      0x40\n      mstore\n        /* \"Code Test/CodeTest_6.sol\":2077:2103  return abi.encodePacked(b) */\n      swap1\n      pop\n        /* \"Code Test/CodeTest_6.sol\":1991:2110  function getEncodePacked(string memory b) public pure returns(bytes memory) {... */\n      swap2\n      swap1\n      pop\n      jump\t// out\n        /* \"Code Test/CodeTest_6.sol\":1553:1872  function split(bytes memory b) public pure returns(uint, bytes1[] memory, string memory) {... */\n    tag_17:\n        /* \"Code Test/CodeTest_6.sol\":1604:1608  uint */\n      0x00\n        /* \"Code Test/CodeTest_6.sol\":1610:1625  bytes1[] memory */\n      0x60\n        /* \"Code Test/CodeTest_6.sol\":1627:1640  string memory */\n      dup1\n        /* \"Code Test/CodeTest_6.sol\":1652:1664  uint _length */\n      0x00\n        /* \"Code Test/CodeTest_6.sol\":1667:1668  b */\n      dup5\n        /* \"Code Test/CodeTest_6.sol\":1667:1675  b.length */\n      mload\n        /* \"Code Test/CodeTest_6.sol\":1652:1675  uint _length = b.length */\n      swap1\n      pop\n        /* \"Code Test/CodeTest_6.sol\":1686:1704  bytes1[] memory _b */\n      0x00\n        /* \"Code Test/CodeTest_6.sol\":1720:1727  _length */\n      dup2\n        /* \"Code Test/CodeTest_6.sol\":1707:1728  new bytes1[](_length) */\n      0xffffffffffffffff\n      dup2\n      gt\n      iszero\n      tag_39\n      jumpi\n      tag_40\n      tag_41\n      jump\t// in\n    tag_40:\n    tag_39:\n      mload(0x40)\n      swap1\n      dup1\n      dup3\n      mstore\n      dup1\n      0x20\n      mul\n      0x20\n      add\n      dup3\n      add\n      0x40\n      mstore\n      dup1\n      iszero\n      tag_42\n      jumpi\n      dup2\n      0x20\n      add\n      0x20\n      dup3\n      mul\n      dup1\n      calldatasize\n      dup4\n      calldatacopy\n      dup1\n      dup3\n      add\n      swap2\n      pop\n      pop\n      swap1\n      pop\n    tag_42:\n      pop\n        /* \"Code Test/CodeTest_6.sol\":1686:1728  bytes1[] memory _b = new bytes1[](_length) */\n      swap1\n      pop\n        /* \"Code Test/CodeTest_6.sol\":1744:1750  uint i */\n      0x00\n        /* \"Code Test/CodeTest_6.sol\":1739:1805  for (uint i=0;i<_length;i++) {... */\n    tag_43:\n        /* \"Code Test/CodeTest_6.sol\":1755:1762  _length */\n      dup3\n        /* \"Code Test/CodeTest_6.sol\":1753:1754  i */\n      dup2\n        /* \"Code Test/CodeTest_6.sol\":1753:1762  i<_length */\n      lt\n        /* \"Code Test/CodeTest_6.sol\":1739:1805  for (uint i=0;i<_length;i++) {... */\n      iszero\n      tag_44\n      jumpi\n        /* \"Code Test/CodeTest_6.sol\":1790:1791  b */\n      dup7\n        /* \"Code Test/CodeTest_6.sol\":1792:1793  i */\n      dup2\n        /* \"Code Test/CodeTest_6.sol\":1790:1794  b[i] */\n      dup2\n      mload\n      dup2\n      lt\n      tag_46\n      jumpi\n      tag_47\n      tag_48\n      jump\t// in\n    tag_47:\n    tag_46:\n      0x20\n      add\n      add\n      mload\n      0xf8\n      shr\n      0xf8\n      shl\n        /* \"Code Test/CodeTest_6.sol\":1782:1784  _b */\n      dup3\n        /* \"Code Test/CodeTest_6.sol\":1785:1786  i */\n      dup3\n        /* \"Code Test/CodeTest_6.sol\":1782:1787  _b[i] */\n      dup2\n      mload\n      dup2\n      lt\n      tag_49\n      jumpi\n      tag_50\n      tag_48\n      jump\t// in\n    tag_50:\n    tag_49:\n      0x20\n      mul\n      0x20\n      add\n      add\n        /* \"Code Test/CodeTest_6.sol\":1782:1794  _b[i] = b[i] */\n      swap1\n      not(0xffffffffffffffffffffffffffffffffffffffffffffffffffffffffffffff)\n      and\n      swap1\n      dup2\n      not(0xffffffffffffffffffffffffffffffffffffffffffffffffffffffffffffff)\n      and\n      dup2\n      mstore\n      pop\n      pop\n        /* \"Code Test/CodeTest_6.sol\":1763:1766  i++ */\n      dup1\n      dup1\n      0x01\n      add\n      swap2\n      pop\n      pop\n        /* \"Code Test/CodeTest_6.sol\":1739:1805  for (uint i=0;i<_length;i++) {... */\n      jump(tag_43)\n    tag_44:\n      pop\n        /* \"Code Test/CodeTest_6.sol\":1823:1830  _length */\n      dup2\n        /* \"Code Test/CodeTest_6.sol\":1832:1834  _b */\n      dup2\n        /* \"Code Test/CodeTest_6.sol\":1860:1862  _b */\n      dup3\n        /* \"Code Test/CodeTest_6.sol\":1843:1863  abi.encodePacked(_b) */\n      add(0x20, mload(0x40))\n      tag_51\n      swap2\n      swap1\n      tag_52\n      jump\t// in\n    tag_51:\n      mload(0x40)\n      0x20\n      dup2\n      dup4\n      sub\n      sub\n      dup2\n      mstore\n      swap1\n      0x40\n      mstore\n        /* \"Code Test/CodeTest_6.sol\":1815:1865  return (_length, _b, string(abi.encodePacked(_b))) */\n      swap5\n      pop\n      swap5\n      pop\n      swap5\n      pop\n      pop\n      pop\n        /* \"Code Test/CodeTest_6.sol\":1553:1872  function split(bytes memory b) public pure returns(uint, bytes1[] memory, string memory) {... */\n      swap2\n      swap4\n      swap1\n      swap3\n      pop\n      jump\t// out\n        /* \"Code Test/CodeTest_6.sol\":1343:1437  function getBytes(bytes memory _b) public pure returns(uint) {... */\n    tag_22:\n        /* \"Code Test/CodeTest_6.sol\":1398:1402  uint */\n      0x00\n        /* \"Code Test/CodeTest_6.sol\":1421:1423  _b */\n      dup2\n        /* \"Code Test/CodeTest_6.sol\":1421:1430  _b.length */\n      mload\n        /* \"Code Test/CodeTest_6.sol\":1414:1430  return _b.length */\n      swap1\n      pop\n        /* \"Code Test/CodeTest_6.sol\":1343:1437  function getBytes(bytes memory _b) public pure returns(uint) {... */\n      swap2\n      swap1\n      pop\n      jump\t// out\n        /* \"Code Test/CodeTest_6.sol\":1443:1547  function getByte1(bytes memory _b, uint _n) public pure returns(bytes1) {... */\n    tag_28:\n        /* \"Code Test/CodeTest_6.sol\":1507:1513  bytes1 */\n      0x00\n        /* \"Code Test/CodeTest_6.sol\":1532:1534  _b */\n      dup3\n        /* \"Code Test/CodeTest_6.sol\":1538:1539  1 */\n      0x01\n        /* \"Code Test/CodeTest_6.sol\":1535:1537  _n */\n      dup4\n        /* \"Code Test/CodeTest_6.sol\":1535:1539  _n-1 */\n      tag_55\n      swap2\n      swap1\n      tag_56\n      jump\t// in\n    tag_55:\n        /* \"Code Test/CodeTest_6.sol\":1532:1540  _b[_n-1] */\n      dup2\n      mload\n      dup2\n      lt\n      tag_57\n      jumpi\n      tag_58\n      tag_48\n      jump\t// in\n    tag_58:\n    tag_57:\n      0x20\n      add\n      add\n      mload\n      0xf8\n      shr\n      0xf8\n      shl\n        /* \"Code Test/CodeTest_6.sol\":1525:1540  return _b[_n-1] */\n      swap1\n      pop\n        /* \"Code Test/CodeTest_6.sol\":1443:1547  function getByte1(bytes memory _b, uint _n) public pure returns(bytes1) {... */\n      swap3\n      swap2\n      pop\n      pop\n      jump\t// out\n        /* \"Code Test/CodeTest_6.sol\":1878:1985  function getEncode(string memory b) public pure returns(bytes memory) {... */\n    tag_33:\n        /* \"Code Test/CodeTest_6.sol\":1934:1946  bytes memory */\n      0x60\n        /* \"Code Test/CodeTest_6.sol\":1976:1977  b */\n      dup2\n        /* \"Code Test/CodeTest_6.sol\":1965:1978  abi.encode(b) */\n      add(0x20, mload(0x40))\n      tag_60\n      swap2\n      swap1\n      tag_61\n      jump\t// in\n    tag_60:\n      mload(0x40)\n      0x20\n      dup2\n      dup4\n      sub\n      sub\n      dup2\n      mstore\n      swap1\n      0x40\n      mstore\n        /* \"Code Test/CodeTest_6.sol\":1958:1978  return abi.encode(b) */\n      swap1\n      pop\n        /* \"Code Test/CodeTest_6.sol\":1878:1985  function getEncode(string memory b) public pure returns(bytes memory) {... */\n      swap2\n      swap1\n      pop\n      jump\t// out\n        /* \"#utility.yul\":7:82   */\n    tag_62:\n        /* \"#utility.yul\":40:46   */\n      0x00\n        /* \"#utility.yul\":73:75   */\n      0x40\n        /* \"#utility.yul\":67:76   */\n      mload\n        /* \"#utility.yul\":57:76   */\n      swap1\n      pop\n        /* \"#utility.yul\":7:82   */\n      swap1\n      jump\t// out\n        /* \"#utility.yul\":88:205   */\n    tag_63:\n        /* \"#utility.yul\":197:198   */\n      0x00\n        /* \"#utility.yul\":194:195   */\n      dup1\n        /* \"#utility.yul\":187:199   */\n      revert\n        /* \"#utility.yul\":211:328   */\n    tag_64:\n        /* \"#utility.yul\":320:321   */\n      0x00\n        /* \"#utility.yul\":317:318   */\n      dup1\n        /* \"#utility.yul\":310:322   */\n      revert\n        /* \"#utility.yul\":334:451   */\n    tag_65:\n        /* \"#utility.yul\":443:444   */\n      0x00\n        /* \"#utility.yul\":440:441   */\n      dup1\n        /* \"#utility.yul\":433:445   */\n      revert\n        /* \"#utility.yul\":457:574   */\n    tag_66:\n        /* \"#utility.yul\":566:567   */\n      0x00\n        /* \"#utility.yul\":563:564   */\n      dup1\n        /* \"#utility.yul\":556:568   */\n      revert\n        /* \"#utility.yul\":580:682   */\n    tag_67:\n        /* \"#utility.yul\":621:627   */\n      0x00\n        /* \"#utility.yul\":672:674   */\n      0x1f\n        /* \"#utility.yul\":668:675   */\n      not\n        /* \"#utility.yul\":663:665   */\n      0x1f\n        /* \"#utility.yul\":656:661   */\n      dup4\n        /* \"#utility.yul\":652:666   */\n      add\n        /* \"#utility.yul\":648:676   */\n      and\n        /* \"#utility.yul\":638:676   */\n      swap1\n      pop\n        /* \"#utility.yul\":580:682   */\n      swap2\n      swap1\n      pop\n      jump\t// out\n        /* \"#utility.yul\":688:868   */\n    tag_41:\n        /* \"#utility.yul\":736:813   */\n      0x4e487b7100000000000000000000000000000000000000000000000000000000\n        /* \"#utility.yul\":733:734   */\n      0x00\n        /* \"#utility.yul\":726:814   */\n      mstore\n        /* \"#utility.yul\":833:837   */\n      0x41\n        /* \"#utility.yul\":830:831   */\n      0x04\n        /* \"#utility.yul\":823:838   */\n      mstore\n        /* \"#utility.yul\":857:861   */\n      0x24\n        /* \"#utility.yul\":854:855   */\n      0x00\n        /* \"#utility.yul\":847:862   */\n      revert\n        /* \"#utility.yul\":874:1155   */\n    tag_68:\n        /* \"#utility.yul\":957:984   */\n      tag_113\n        /* \"#utility.yul\":979:983   */\n      dup3\n        /* \"#utility.yul\":957:984   */\n      tag_67\n      jump\t// in\n    tag_113:\n        /* \"#utility.yul\":949:955   */\n      dup2\n        /* \"#utility.yul\":945:985   */\n      add\n        /* \"#utility.yul\":1087:1093   */\n      dup2\n        /* \"#utility.yul\":1075:1085   */\n      dup2\n        /* \"#utility.yul\":1072:1094   */\n      lt\n        /* \"#utility.yul\":1051:1069   */\n      0xffffffffffffffff\n        /* \"#utility.yul\":1039:1049   */\n      dup3\n        /* \"#utility.yul\":1036:1070   */\n      gt\n        /* \"#utility.yul\":1033:1095   */\n      or\n        /* \"#utility.yul\":1030:1118   */\n      iszero\n      tag_114\n      jumpi\n        /* \"#utility.yul\":1098:1116   */\n      tag_115\n      tag_41\n      jump\t// in\n    tag_115:\n        /* \"#utility.yul\":1030:1118   */\n    tag_114:\n        /* \"#utility.yul\":1138:1148   */\n      dup1\n        /* \"#utility.yul\":1134:1136   */\n      0x40\n        /* \"#utility.yul\":1127:1149   */\n      mstore\n        /* \"#utility.yul\":917:1155   */\n      pop\n        /* \"#utility.yul\":874:1155   */\n      pop\n      pop\n      jump\t// out\n        /* \"#utility.yul\":1161:1290   */\n    tag_69:\n        /* \"#utility.yul\":1195:1201   */\n      0x00\n        /* \"#utility.yul\":1222:1242   */\n      tag_117\n      tag_62\n      jump\t// in\n    tag_117:\n        /* \"#utility.yul\":1212:1242   */\n      swap1\n      pop\n        /* \"#utility.yul\":1251:1284   */\n      tag_118\n        /* \"#utility.yul\":1279:1283   */\n      dup3\n        /* \"#utility.yul\":1271:1277   */\n      dup3\n        /* \"#utility.yul\":1251:1284   */\n      tag_68\n      jump\t// in\n    tag_118:\n        /* \"#utility.yul\":1161:1290   */\n      swap2\n      swap1\n      pop\n      jump\t// out\n        /* \"#utility.yul\":1296:1604   */\n    tag_70:\n        /* \"#utility.yul\":1358:1362   */\n      0x00\n        /* \"#utility.yul\":1448:1466   */\n      0xffffffffffffffff\n        /* \"#utility.yul\":1440:1446   */\n      dup3\n        /* \"#utility.yul\":1437:1467   */\n      gt\n        /* \"#utility.yul\":1434:1490   */\n      iszero\n      tag_120\n      jumpi\n        /* \"#utility.yul\":1470:1488   */\n      tag_121\n      tag_41\n      jump\t// in\n    tag_121:\n        /* \"#utility.yul\":1434:1490   */\n    tag_120:\n        /* \"#utility.yul\":1508:1537   */\n      tag_122\n        /* \"#utility.yul\":1530:1536   */\n      dup3\n        /* \"#utility.yul\":1508:1537   */\n      tag_67\n      jump\t// in\n    tag_122:\n        /* \"#utility.yul\":1500:1537   */\n      swap1\n      pop\n        /* \"#utility.yul\":1592:1596   */\n      0x20\n        /* \"#utility.yul\":1586:1590   */\n      dup2\n        /* \"#utility.yul\":1582:1597   */\n      add\n        /* \"#utility.yul\":1574:1597   */\n      swap1\n      pop\n        /* \"#utility.yul\":1296:1604   */\n      swap2\n      swap1\n      pop\n      jump\t// out\n        /* \"#utility.yul\":1610:1758   */\n    tag_71:\n        /* \"#utility.yul\":1708:1714   */\n      dup3\n        /* \"#utility.yul\":1703:1706   */\n      dup2\n        /* \"#utility.yul\":1698:1701   */\n      dup4\n        /* \"#utility.yul\":1685:1715   */\n      calldatacopy\n        /* \"#utility.yul\":1749:1750   */\n      0x00\n        /* \"#utility.yul\":1740:1746   */\n      dup4\n        /* \"#utility.yul\":1735:1738   */\n      dup4\n        /* \"#utility.yul\":1731:1747   */\n      add\n        /* \"#utility.yul\":1724:1751   */\n      mstore\n        /* \"#utility.yul\":1610:1758   */\n      pop\n      pop\n      pop\n      jump\t// out\n        /* \"#utility.yul\":1764:2189   */\n    tag_72:\n        /* \"#utility.yul\":1842:1847   */\n      0x00\n        /* \"#utility.yul\":1867:1933   */\n      tag_125\n        /* \"#utility.yul\":1883:1932   */\n      tag_126\n        /* \"#utility.yul\":1925:1931   */\n      dup5\n        /* \"#utility.yul\":1883:1932   */\n      tag_70\n      jump\t// in\n    tag_126:\n        /* \"#utility.yul\":1867:1933   */\n      tag_69\n      jump\t// in\n    tag_125:\n        /* \"#utility.yul\":1858:1933   */\n      swap1\n      pop\n        /* \"#utility.yul\":1956:1962   */\n      dup3\n        /* \"#utility.yul\":1949:1954   */\n      dup2\n        /* \"#utility.yul\":1942:1963   */\n      mstore\n        /* \"#utility.yul\":1994:1998   */\n      0x20\n        /* \"#utility.yul\":1987:1992   */\n      dup2\n        /* \"#utility.yul\":1983:1999   */\n      add\n        /* \"#utility.yul\":2032:2035   */\n      dup5\n        /* \"#utility.yul\":2023:2029   */\n      dup5\n        /* \"#utility.yul\":2018:2021   */\n      dup5\n        /* \"#utility.yul\":2014:2030   */\n      add\n        /* \"#utility.yul\":2011:2036   */\n      gt\n        /* \"#utility.yul\":2008:2120   */\n      iszero\n      tag_127\n      jumpi\n        /* \"#utility.yul\":2039:2118   */\n      tag_128\n      tag_66\n      jump\t// in\n    tag_128:\n        /* \"#utility.yul\":2008:2120   */\n    tag_127:\n        /* \"#utility.yul\":2129:2183   */\n      tag_129\n        /* \"#utility.yul\":2176:2182   */\n      dup5\n        /* \"#utility.yul\":2171:2174   */\n      dup3\n        /* \"#utility.yul\":2166:2169   */\n      dup6\n        /* \"#utility.yul\":2129:2183   */\n      tag_71\n      jump\t// in\n    tag_129:\n        /* \"#utility.yul\":1848:2189   */\n      pop\n        /* \"#utility.yul\":1764:2189   */\n      swap4\n      swap3\n      pop\n      pop\n      pop\n      jump\t// out\n        /* \"#utility.yul\":2209:2549   */\n    tag_73:\n        /* \"#utility.yul\":2265:2270   */\n      0x00\n        /* \"#utility.yul\":2314:2317   */\n      dup3\n        /* \"#utility.yul\":2307:2311   */\n      0x1f\n        /* \"#utility.yul\":2299:2305   */\n      dup4\n        /* \"#utility.yul\":2295:2312   */\n      add\n        /* \"#utility.yul\":2291:2318   */\n      slt\n        /* \"#utility.yul\":2281:2403   */\n      tag_131\n      jumpi\n        /* \"#utility.yul\":2322:2401   */\n      tag_132\n      tag_65\n      jump\t// in\n    tag_132:\n        /* \"#utility.yul\":2281:2403   */\n    tag_131:\n        /* \"#utility.yul\":2439:2445   */\n      dup2\n        /* \"#utility.yul\":2426:2446   */\n      calldataload\n        /* \"#utility.yul\":2464:2543   */\n      tag_133\n        /* \"#utility.yul\":2539:2542   */\n      dup5\n        /* \"#utility.yul\":2531:2537   */\n      dup3\n        /* \"#utility.yul\":2524:2528   */\n      0x20\n        /* \"#utility.yul\":2516:2522   */\n      dup7\n        /* \"#utility.yul\":2512:2529   */\n      add\n        /* \"#utility.yul\":2464:2543   */\n      tag_72\n      jump\t// in\n    tag_133:\n        /* \"#utility.yul\":2455:2543   */\n      swap2\n      pop\n        /* \"#utility.yul\":2271:2549   */\n      pop\n        /* \"#utility.yul\":2209:2549   */\n      swap3\n      swap2\n      pop\n      pop\n      jump\t// out\n        /* \"#utility.yul\":2555:3064   */\n    tag_10:\n        /* \"#utility.yul\":2624:2630   */\n      0x00\n        /* \"#utility.yul\":2673:2675   */\n      0x20\n        /* \"#utility.yul\":2661:2670   */\n      dup3\n        /* \"#utility.yul\":2652:2659   */\n      dup5\n        /* \"#utility.yul\":2648:2671   */\n      sub\n        /* \"#utility.yul\":2644:2676   */\n      slt\n        /* \"#utility.yul\":2641:2760   */\n      iszero\n      tag_135\n      jumpi\n        /* \"#utility.yul\":2679:2758   */\n      tag_136\n      tag_63\n      jump\t// in\n    tag_136:\n        /* \"#utility.yul\":2641:2760   */\n    tag_135:\n        /* \"#utility.yul\":2827:2828   */\n      0x00\n        /* \"#utility.yul\":2816:2825   */\n      dup3\n        /* \"#utility.yul\":2812:2829   */\n      add\n        /* \"#utility.yul\":2799:2830   */\n      calldataload\n        /* \"#utility.yul\":2857:2875   */\n      0xffffffffffffffff\n        /* \"#utility.yul\":2849:2855   */\n      dup2\n        /* \"#utility.yul\":2846:2876   */\n      gt\n        /* \"#utility.yul\":2843:2960   */\n      iszero\n      tag_137\n      jumpi\n        /* \"#utility.yul\":2879:2958   */\n      tag_138\n      tag_64\n      jump\t// in\n    tag_138:\n        /* \"#utility.yul\":2843:2960   */\n    tag_137:\n        /* \"#utility.yul\":2984:3047   */\n      tag_139\n        /* \"#utility.yul\":3039:3046   */\n      dup5\n        /* \"#utility.yul\":3030:3036   */\n      dup3\n        /* \"#utility.yul\":3019:3028   */\n      dup6\n        /* \"#utility.yul\":3015:3037   */\n      add\n        /* \"#utility.yul\":2984:3047   */\n      tag_73\n      jump\t// in\n    tag_139:\n        /* \"#utility.yul\":2974:3047   */\n      swap2\n      pop\n        /* \"#utility.yul\":2770:3057   */\n      pop\n        /* \"#utility.yul\":2555:3064   */\n      swap3\n      swap2\n      pop\n      pop\n      jump\t// out\n        /* \"#utility.yul\":3070:3168   */\n    tag_74:\n        /* \"#utility.yul\":3121:3127   */\n      0x00\n        /* \"#utility.yul\":3155:3160   */\n      dup2\n        /* \"#utility.yul\":3149:3161   */\n      mload\n        /* \"#utility.yul\":3139:3161   */\n      swap1\n      pop\n        /* \"#utility.yul\":3070:3168   */\n      swap2\n      swap1\n      pop\n      jump\t// out\n        /* \"#utility.yul\":3174:3342   */\n    tag_75:\n        /* \"#utility.yul\":3257:3268   */\n      0x00\n        /* \"#utility.yul\":3291:3297   */\n      dup3\n        /* \"#utility.yul\":3286:3289   */\n      dup3\n        /* \"#utility.yul\":3279:3298   */\n      mstore\n        /* \"#utility.yul\":3331:3335   */\n      0x20\n        /* \"#utility.yul\":3326:3329   */\n      dup3\n        /* \"#utility.yul\":3322:3336   */\n      add\n        /* \"#utility.yul\":3307:3336   */\n      swap1\n      pop\n        /* \"#utility.yul\":3174:3342   */\n      swap3\n      swap2\n      pop\n      pop\n      jump\t// out\n        /* \"#utility.yul\":3348:3487   */\n    tag_76:\n        /* \"#utility.yul\":3437:3443   */\n      dup3\n        /* \"#utility.yul\":3432:3435   */\n      dup2\n        /* \"#utility.yul\":3427:3430   */\n      dup4\n        /* \"#utility.yul\":3421:3444   */\n      mcopy\n        /* \"#utility.yul\":3478:3479   */\n      0x00\n        /* \"#utility.yul\":3469:3475   */\n      dup4\n        /* \"#utility.yul\":3464:3467   */\n      dup4\n        /* \"#utility.yul\":3460:3476   */\n      add\n        /* \"#utility.yul\":3453:3480   */\n      mstore\n        /* \"#utility.yul\":3348:3487   */\n      pop\n      pop\n      pop\n      jump\t// out\n        /* \"#utility.yul\":3493:3866   */\n    tag_77:\n        /* \"#utility.yul\":3579:3582   */\n      0x00\n        /* \"#utility.yul\":3607:3645   */\n      tag_144\n        /* \"#utility.yul\":3639:3644   */\n      dup3\n        /* \"#utility.yul\":3607:3645   */\n      tag_74\n      jump\t// in\n    tag_144:\n        /* \"#utility.yul\":3661:3731   */\n      tag_145\n        /* \"#utility.yul\":3724:3730   */\n      dup2\n        /* \"#utility.yul\":3719:3722   */\n      dup6\n        /* \"#utility.yul\":3661:3731   */\n      tag_75\n      jump\t// in\n    tag_145:\n        /* \"#utility.yul\":3654:3731   */\n      swap4\n      pop\n        /* \"#utility.yul\":3740:3805   */\n      tag_146\n        /* \"#utility.yul\":3798:3804   */\n      dup2\n        /* \"#utility.yul\":3793:3796   */\n      dup6\n        /* \"#utility.yul\":3786:3790   */\n      0x20\n        /* \"#utility.yul\":3779:3784   */\n      dup7\n        /* \"#utility.yul\":3775:3791   */\n      add\n        /* \"#utility.yul\":3740:3805   */\n      tag_76\n      jump\t// in\n    tag_146:\n        /* \"#utility.yul\":3830:3859   */\n      tag_147\n        /* \"#utility.yul\":3852:3858   */\n      dup2\n        /* \"#utility.yul\":3830:3859   */\n      tag_67\n      jump\t// in\n    tag_147:\n        /* \"#utility.yul\":3825:3828   */\n      dup5\n        /* \"#utility.yul\":3821:3860   */\n      add\n        /* \"#utility.yul\":3814:3860   */\n      swap2\n      pop\n        /* \"#utility.yul\":3583:3866   */\n      pop\n        /* \"#utility.yul\":3493:3866   */\n      swap3\n      swap2\n      pop\n      pop\n      jump\t// out\n        /* \"#utility.yul\":3872:4181   */\n    tag_13:\n        /* \"#utility.yul\":3983:3987   */\n      0x00\n        /* \"#utility.yul\":4021:4023   */\n      0x20\n        /* \"#utility.yul\":4010:4019   */\n      dup3\n        /* \"#utility.yul\":4006:4024   */\n      add\n        /* \"#utility.yul\":3998:4024   */\n      swap1\n      pop\n        /* \"#utility.yul\":4070:4079   */\n      dup2\n        /* \"#utility.yul\":4064:4068   */\n      dup2\n        /* \"#utility.yul\":4060:4080   */\n      sub\n        /* \"#utility.yul\":4056:4057   */\n      0x00\n        /* \"#utility.yul\":4045:4054   */\n      dup4\n        /* \"#utility.yul\":4041:4058   */\n      add\n        /* \"#utility.yul\":4034:4081   */\n      mstore\n        /* \"#utility.yul\":4098:4174   */\n      tag_149\n        /* \"#utility.yul\":4169:4173   */\n      dup2\n        /* \"#utility.yul\":4160:4166   */\n      dup5\n        /* \"#utility.yul\":4098:4174   */\n      tag_77\n      jump\t// in\n    tag_149:\n        /* \"#utility.yul\":4090:4174   */\n      swap1\n      pop\n        /* \"#utility.yul\":3872:4181   */\n      swap3\n      swap2\n      pop\n      pop\n      jump\t// out\n        /* \"#utility.yul\":4187:4494   */\n    tag_78:\n        /* \"#utility.yul\":4248:4252   */\n      0x00\n        /* \"#utility.yul\":4338:4356   */\n      0xffffffffffffffff\n        /* \"#utility.yul\":4330:4336   */\n      dup3\n        /* \"#utility.yul\":4327:4357   */\n      gt\n        /* \"#utility.yul\":4324:4380   */\n      iszero\n      tag_151\n      jumpi\n        /* \"#utility.yul\":4360:4378   */\n      tag_152\n      tag_41\n      jump\t// in\n    tag_152:\n        /* \"#utility.yul\":4324:4380   */\n    tag_151:\n        /* \"#utility.yul\":4398:4427   */\n      tag_153\n        /* \"#utility.yul\":4420:4426   */\n      dup3\n        /* \"#utility.yul\":4398:4427   */\n      tag_67\n      jump\t// in\n    tag_153:\n        /* \"#utility.yul\":4390:4427   */\n      swap1\n      pop\n        /* \"#utility.yul\":4482:4486   */\n      0x20\n        /* \"#utility.yul\":4476:4480   */\n      dup2\n        /* \"#utility.yul\":4472:4487   */\n      add\n        /* \"#utility.yul\":4464:4487   */\n      swap1\n      pop\n        /* \"#utility.yul\":4187:4494   */\n      swap2\n      swap1\n      pop\n      jump\t// out\n        /* \"#utility.yul\":4500:4923   */\n    tag_79:\n        /* \"#utility.yul\":4577:4582   */\n      0x00\n        /* \"#utility.yul\":4602:4667   */\n      tag_155\n        /* \"#utility.yul\":4618:4666   */\n      tag_156\n        /* \"#utility.yul\":4659:4665   */\n      dup5\n        /* \"#utility.yul\":4618:4666   */\n      tag_78\n      jump\t// in\n    tag_156:\n        /* \"#utility.yul\":4602:4667   */\n      tag_69\n      jump\t// in\n    tag_155:\n        /* \"#utility.yul\":4593:4667   */\n      swap1\n      pop\n        /* \"#utility.yul\":4690:4696   */\n      dup3\n        /* \"#utility.yul\":4683:4688   */\n      dup2\n        /* \"#utility.yul\":4676:4697   */\n      mstore\n        /* \"#utility.yul\":4728:4732   */\n      0x20\n        /* \"#utility.yul\":4721:4726   */\n      dup2\n        /* \"#utility.yul\":4717:4733   */\n      add\n        /* \"#utility.yul\":4766:4769   */\n      dup5\n        /* \"#utility.yul\":4757:4763   */\n      dup5\n        /* \"#utility.yul\":4752:4755   */\n      dup5\n        /* \"#utility.yul\":4748:4764   */\n      add\n        /* \"#utility.yul\":4745:4770   */\n      gt\n        /* \"#utility.yul\":4742:4854   */\n      iszero\n      tag_157\n      jumpi\n        /* \"#utility.yul\":4773:4852   */\n      tag_158\n      tag_66\n      jump\t// in\n    tag_158:\n        /* \"#utility.yul\":4742:4854   */\n    tag_157:\n        /* \"#utility.yul\":4863:4917   */\n      tag_159\n        /* \"#utility.yul\":4910:4916   */\n      dup5\n        /* \"#utility.yul\":4905:4908   */\n      dup3\n        /* \"#utility.yul\":4900:4903   */\n      dup6\n        /* \"#utility.yul\":4863:4917   */\n      tag_71\n      jump\t// in\n    tag_159:\n        /* \"#utility.yul\":4583:4923   */\n      pop\n        /* \"#utility.yul\":4500:4923   */\n      swap4\n      swap3\n      pop\n      pop\n      pop\n      jump\t// out\n        /* \"#utility.yul\":4942:5280   */\n    tag_80:\n        /* \"#utility.yul\":4997:5002   */\n      0x00\n        /* \"#utility.yul\":5046:5049   */\n      dup3\n        /* \"#utility.yul\":5039:5043   */\n      0x1f\n        /* \"#utility.yul\":5031:5037   */\n      dup4\n        /* \"#utility.yul\":5027:5044   */\n      add\n        /* \"#utility.yul\":5023:5050   */\n      slt\n        /* \"#utility.yul\":5013:5135   */\n      tag_161\n      jumpi\n        /* \"#utility.yul\":5054:5133   */\n      tag_162\n      tag_65\n      jump\t// in\n    tag_162:\n        /* \"#utility.yul\":5013:5135   */\n    tag_161:\n        /* \"#utility.yul\":5171:5177   */\n      dup2\n        /* \"#utility.yul\":5158:5178   */\n      calldataload\n        /* \"#utility.yul\":5196:5274   */\n      tag_163\n        /* \"#utility.yul\":5270:5273   */\n      dup5\n        /* \"#utility.yul\":5262:5268   */\n      dup3\n        /* \"#utility.yul\":5255:5259   */\n      0x20\n        /* \"#utility.yul\":5247:5253   */\n      dup7\n        /* \"#utility.yul\":5243:5260   */\n      add\n        /* \"#utility.yul\":5196:5274   */\n      tag_79\n      jump\t// in\n    tag_163:\n        /* \"#utility.yul\":5187:5274   */\n      swap2\n      pop\n        /* \"#utility.yul\":5003:5280   */\n      pop\n        /* \"#utility.yul\":4942:5280   */\n      swap3\n      swap2\n      pop\n      pop\n      jump\t// out\n        /* \"#utility.yul\":5286:5793   */\n    tag_16:\n        /* \"#utility.yul\":5354:5360   */\n      0x00\n        /* \"#utility.yul\":5403:5405   */\n      0x20\n        /* \"#utility.yul\":5391:5400   */\n      dup3\n        /* \"#utility.yul\":5382:5389   */\n      dup5\n        /* \"#utility.yul\":5378:5401   */\n      sub\n        /* \"#utility.yul\":5374:5406   */\n      slt\n        /* \"#utility.yul\":5371:5490   */\n      iszero\n      tag_165\n      jumpi\n        /* \"#utility.yul\":5409:5488   */\n      tag_166\n      tag_63\n      jump\t// in\n    tag_166:\n        /* \"#utility.yul\":5371:5490   */\n    tag_165:\n        /* \"#utility.yul\":5557:5558   */\n      0x00\n        /* \"#utility.yul\":5546:5555   */\n      dup3\n        /* \"#utility.yul\":5542:5559   */\n      add\n        /* \"#utility.yul\":5529:5560   */\n      calldataload\n        /* \"#utility.yul\":5587:5605   */\n      0xffffffffffffffff\n        /* \"#utility.yul\":5579:5585   */\n      dup2\n        /* \"#utility.yul\":5576:5606   */\n      gt\n        /* \"#utility.yul\":5573:5690   */\n      iszero\n      tag_167\n      jumpi\n        /* \"#utility.yul\":5609:5688   */\n      tag_168\n      tag_64\n      jump\t// in\n    tag_168:\n        /* \"#utility.yul\":5573:5690   */\n    tag_167:\n        /* \"#utility.yul\":5714:5776   */\n      tag_169\n        /* \"#utility.yul\":5768:5775   */\n      dup5\n        /* \"#utility.yul\":5759:5765   */\n      dup3\n        /* \"#utility.yul\":5748:5757   */\n      dup6\n        /* \"#utility.yul\":5744:5766   */\n      add\n        /* \"#utility.yul\":5714:5776   */\n      tag_80\n      jump\t// in\n    tag_169:\n        /* \"#utility.yul\":5704:5776   */\n      swap2\n      pop\n        /* \"#utility.yul\":5500:5786   */\n      pop\n        /* \"#utility.yul\":5286:5793   */\n      swap3\n      swap2\n      pop\n      pop\n      jump\t// out\n        /* \"#utility.yul\":5799:5876   */\n    tag_81:\n        /* \"#utility.yul\":5836:5843   */\n      0x00\n        /* \"#utility.yul\":5865:5870   */\n      dup2\n        /* \"#utility.yul\":5854:5870   */\n      swap1\n      pop\n        /* \"#utility.yul\":5799:5876   */\n      swap2\n      swap1\n      pop\n      jump\t// out\n        /* \"#utility.yul\":5882:6000   */\n    tag_82:\n        /* \"#utility.yul\":5969:5993   */\n      tag_172\n        /* \"#utility.yul\":5987:5992   */\n      dup2\n        /* \"#utility.yul\":5969:5993   */\n      tag_81\n      jump\t// in\n    tag_172:\n        /* \"#utility.yul\":5964:5967   */\n      dup3\n        /* \"#utility.yul\":5957:5994   */\n      mstore\n        /* \"#utility.yul\":5882:6000   */\n      pop\n      pop\n      jump\t// out\n        /* \"#utility.yul\":6006:6119   */\n    tag_83:\n        /* \"#utility.yul\":6072:6078   */\n      0x00\n        /* \"#utility.yul\":6106:6111   */\n      dup2\n        /* \"#utility.yul\":6100:6112   */\n      mload\n        /* \"#utility.yul\":6090:6112   */\n      swap1\n      pop\n        /* \"#utility.yul\":6006:6119   */\n      swap2\n      swap1\n      pop\n      jump\t// out\n        /* \"#utility.yul\":6125:6308   */\n    tag_84:\n        /* \"#utility.yul\":6223:6234   */\n      0x00\n        /* \"#utility.yul\":6257:6263   */\n      dup3\n        /* \"#utility.yul\":6252:6255   */\n      dup3\n        /* \"#utility.yul\":6245:6264   */\n      mstore\n        /* \"#utility.yul\":6297:6301   */\n      0x20\n        /* \"#utility.yul\":6292:6295   */\n      dup3\n        /* \"#utility.yul\":6288:6302   */\n      add\n        /* \"#utility.yul\":6273:6302   */\n      swap1\n      pop\n        /* \"#utility.yul\":6125:6308   */\n      swap3\n      swap2\n      pop\n      pop\n      jump\t// out\n        /* \"#utility.yul\":6314:6445   */\n    tag_85:\n        /* \"#utility.yul\":6380:6384   */\n      0x00\n        /* \"#utility.yul\":6403:6406   */\n      dup2\n        /* \"#utility.yul\":6395:6406   */\n      swap1\n      pop\n        /* \"#utility.yul\":6433:6437   */\n      0x20\n        /* \"#utility.yul\":6428:6431   */\n      dup3\n        /* \"#utility.yul\":6424:6438   */\n      add\n        /* \"#utility.yul\":6416:6438   */\n      swap1\n      pop\n        /* \"#utility.yul\":6314:6445   */\n      swap2\n      swap1\n      pop\n      jump\t// out\n        /* \"#utility.yul\":6451:6600   */\n    tag_86:\n        /* \"#utility.yul\":6487:6494   */\n      0x00\n        /* \"#utility.yul\":6527:6593   */\n      0xff00000000000000000000000000000000000000000000000000000000000000\n        /* \"#utility.yul\":6520:6525   */\n      dup3\n        /* \"#utility.yul\":6516:6594   */\n      and\n        /* \"#utility.yul\":6505:6594   */\n      swap1\n      pop\n        /* \"#utility.yul\":6451:6600   */\n      swap2\n      swap1\n      pop\n      jump\t// out\n        /* \"#utility.yul\":6606:6711   */\n    tag_87:\n        /* \"#utility.yul\":6681:6704   */\n      tag_178\n        /* \"#utility.yul\":6698:6703   */\n      dup2\n        /* \"#utility.yul\":6681:6704   */\n      tag_86\n      jump\t// in\n    tag_178:\n        /* \"#utility.yul\":6676:6679   */\n      dup3\n        /* \"#utility.yul\":6669:6705   */\n      mstore\n        /* \"#utility.yul\":6606:6711   */\n      pop\n      pop\n      jump\t// out\n        /* \"#utility.yul\":6717:6892   */\n    tag_88:\n        /* \"#utility.yul\":6784:6794   */\n      0x00\n        /* \"#utility.yul\":6805:6849   */\n      tag_180\n        /* \"#utility.yul\":6845:6848   */\n      dup4\n        /* \"#utility.yul\":6837:6843   */\n      dup4\n        /* \"#utility.yul\":6805:6849   */\n      tag_87\n      jump\t// in\n    tag_180:\n        /* \"#utility.yul\":6881:6885   */\n      0x20\n        /* \"#utility.yul\":6876:6879   */\n      dup4\n        /* \"#utility.yul\":6872:6886   */\n      add\n        /* \"#utility.yul\":6858:6886   */\n      swap1\n      pop\n        /* \"#utility.yul\":6717:6892   */\n      swap3\n      swap2\n      pop\n      pop\n      jump\t// out\n        /* \"#utility.yul\":6898:7010   */\n    tag_89:\n        /* \"#utility.yul\":6967:6971   */\n      0x00\n        /* \"#utility.yul\":6999:7003   */\n      0x20\n        /* \"#utility.yul\":6994:6997   */\n      dup3\n        /* \"#utility.yul\":6990:7004   */\n      add\n        /* \"#utility.yul\":6982:7004   */\n      swap1\n      pop\n        /* \"#utility.yul\":6898:7010   */\n      swap2\n      swap1\n      pop\n      jump\t// out\n        /* \"#utility.yul\":7044:7768   */\n    tag_90:\n        /* \"#utility.yul\":7161:7164   */\n      0x00\n        /* \"#utility.yul\":7190:7243   */\n      tag_183\n        /* \"#utility.yul\":7237:7242   */\n      dup3\n        /* \"#utility.yul\":7190:7243   */\n      tag_83\n      jump\t// in\n    tag_183:\n        /* \"#utility.yul\":7259:7344   */\n      tag_184\n        /* \"#utility.yul\":7337:7343   */\n      dup2\n        /* \"#utility.yul\":7332:7335   */\n      dup6\n        /* \"#utility.yul\":7259:7344   */\n      tag_84\n      jump\t// in\n    tag_184:\n        /* \"#utility.yul\":7252:7344   */\n      swap4\n      pop\n        /* \"#utility.yul\":7368:7423   */\n      tag_185\n        /* \"#utility.yul\":7417:7422   */\n      dup4\n        /* \"#utility.yul\":7368:7423   */\n      tag_85\n      jump\t// in\n    tag_185:\n        /* \"#utility.yul\":7446:7453   */\n      dup1\n        /* \"#utility.yul\":7477:7478   */\n      0x00\n        /* \"#utility.yul\":7462:7743   */\n    tag_186:\n        /* \"#utility.yul\":7487:7493   */\n      dup4\n        /* \"#utility.yul\":7484:7485   */\n      dup2\n        /* \"#utility.yul\":7481:7494   */\n      lt\n        /* \"#utility.yul\":7462:7743   */\n      iszero\n      tag_188\n      jumpi\n        /* \"#utility.yul\":7563:7569   */\n      dup2\n        /* \"#utility.yul\":7557:7570   */\n      mload\n        /* \"#utility.yul\":7590:7651   */\n      tag_189\n        /* \"#utility.yul\":7647:7650   */\n      dup9\n        /* \"#utility.yul\":7632:7645   */\n      dup3\n        /* \"#utility.yul\":7590:7651   */\n      tag_88\n      jump\t// in\n    tag_189:\n        /* \"#utility.yul\":7583:7651   */\n      swap8\n      pop\n        /* \"#utility.yul\":7674:7733   */\n      tag_190\n        /* \"#utility.yul\":7726:7732   */\n      dup4\n        /* \"#utility.yul\":7674:7733   */\n      tag_89\n      jump\t// in\n    tag_190:\n        /* \"#utility.yul\":7664:7733   */\n      swap3\n      pop\n        /* \"#utility.yul\":7522:7743   */\n      pop\n        /* \"#utility.yul\":7509:7510   */\n      0x01\n        /* \"#utility.yul\":7506:7507   */\n      dup2\n        /* \"#utility.yul\":7502:7511   */\n      add\n        /* \"#utility.yul\":7497:7511   */\n      swap1\n      pop\n        /* \"#utility.yul\":7462:7743   */\n      jump(tag_186)\n    tag_188:\n        /* \"#utility.yul\":7466:7480   */\n      pop\n        /* \"#utility.yul\":7759:7762   */\n      dup6\n        /* \"#utility.yul\":7752:7762   */\n      swap4\n      pop\n        /* \"#utility.yul\":7166:7768   */\n      pop\n      pop\n      pop\n        /* \"#utility.yul\":7044:7768   */\n      swap3\n      swap2\n      pop\n      pop\n      jump\t// out\n        /* \"#utility.yul\":7774:7873   */\n    tag_91:\n        /* \"#utility.yul\":7826:7832   */\n      0x00\n        /* \"#utility.yul\":7860:7865   */\n      dup2\n        /* \"#utility.yul\":7854:7866   */\n      mload\n        /* \"#utility.yul\":7844:7866   */\n      swap1\n      pop\n        /* \"#utility.yul\":7774:7873   */\n      swap2\n      swap1\n      pop\n      jump\t// out\n        /* \"#utility.yul\":7879:8048   */\n    tag_92:\n        /* \"#utility.yul\":7963:7974   */\n      0x00\n        /* \"#utility.yul\":7997:8003   */\n      dup3\n        /* \"#utility.yul\":7992:7995   */\n      dup3\n        /* \"#utility.yul\":7985:8004   */\n      mstore\n        /* \"#utility.yul\":8037:8041   */\n      0x20\n        /* \"#utility.yul\":8032:8035   */\n      dup3\n        /* \"#utility.yul\":8028:8042   */\n      add\n        /* \"#utility.yul\":8013:8042   */\n      swap1\n      pop\n        /* \"#utility.yul\":7879:8048   */\n      swap3\n      swap2\n      pop\n      pop\n      jump\t// out\n        /* \"#utility.yul\":8054:8431   */\n    tag_93:\n        /* \"#utility.yul\":8142:8145   */\n      0x00\n        /* \"#utility.yul\":8170:8209   */\n      tag_194\n        /* \"#utility.yul\":8203:8208   */\n      dup3\n        /* \"#utility.yul\":8170:8209   */\n      tag_91\n      jump\t// in\n    tag_194:\n        /* \"#utility.yul\":8225:8296   */\n      tag_195\n        /* \"#utility.yul\":8289:8295   */\n      dup2\n        /* \"#utility.yul\":8284:8287   */\n      dup6\n        /* \"#utility.yul\":8225:8296   */\n      tag_92\n      jump\t// in\n    tag_195:\n        /* \"#utility.yul\":8218:8296   */\n      swap4\n      pop\n        /* \"#utility.yul\":8305:8370   */\n      tag_196\n        /* \"#utility.yul\":8363:8369   */\n      dup2\n        /* \"#utility.yul\":8358:8361   */\n      dup6\n        /* \"#utility.yul\":8351:8355   */\n      0x20\n        /* \"#utility.yul\":8344:8349   */\n      dup7\n        /* \"#utility.yul\":8340:8356   */\n      add\n        /* \"#utility.yul\":8305:8370   */\n      tag_76\n      jump\t// in\n    tag_196:\n        /* \"#utility.yul\":8395:8424   */\n      tag_197\n        /* \"#utility.yul\":8417:8423   */\n      dup2\n        /* \"#utility.yul\":8395:8424   */\n      tag_67\n      jump\t// in\n    tag_197:\n        /* \"#utility.yul\":8390:8393   */\n      dup5\n        /* \"#utility.yul\":8386:8425   */\n      add\n        /* \"#utility.yul\":8379:8425   */\n      swap2\n      pop\n        /* \"#utility.yul\":8146:8431   */\n      pop\n        /* \"#utility.yul\":8054:8431   */\n      swap3\n      swap2\n      pop\n      pop\n      jump\t// out\n        /* \"#utility.yul\":8437:9117   */\n    tag_19:\n        /* \"#utility.yul\":8654:8658   */\n      0x00\n        /* \"#utility.yul\":8692:8694   */\n      0x60\n        /* \"#utility.yul\":8681:8690   */\n      dup3\n        /* \"#utility.yul\":8677:8695   */\n      add\n        /* \"#utility.yul\":8669:8695   */\n      swap1\n      pop\n        /* \"#utility.yul\":8705:8776   */\n      tag_199\n        /* \"#utility.yul\":8773:8774   */\n      0x00\n        /* \"#utility.yul\":8762:8771   */\n      dup4\n        /* \"#utility.yul\":8758:8775   */\n      add\n        /* \"#utility.yul\":8749:8755   */\n      dup7\n        /* \"#utility.yul\":8705:8776   */\n      tag_82\n      jump\t// in\n    tag_199:\n        /* \"#utility.yul\":8823:8832   */\n      dup2\n        /* \"#utility.yul\":8817:8821   */\n      dup2\n        /* \"#utility.yul\":8813:8833   */\n      sub\n        /* \"#utility.yul\":8808:8810   */\n      0x20\n        /* \"#utility.yul\":8797:8806   */\n      dup4\n        /* \"#utility.yul\":8793:8811   */\n      add\n        /* \"#utility.yul\":8786:8834   */\n      mstore\n        /* \"#utility.yul\":8851:8957   */\n      tag_200\n        /* \"#utility.yul\":8952:8956   */\n      dup2\n        /* \"#utility.yul\":8943:8949   */\n      dup6\n        /* \"#utility.yul\":8851:8957   */\n      tag_90\n      jump\t// in\n    tag_200:\n        /* \"#utility.yul\":8843:8957   */\n      swap1\n      pop\n        /* \"#utility.yul\":9004:9013   */\n      dup2\n        /* \"#utility.yul\":8998:9002   */\n      dup2\n        /* \"#utility.yul\":8994:9014   */\n      sub\n        /* \"#utility.yul\":8989:8991   */\n      0x40\n        /* \"#utility.yul\":8978:8987   */\n      dup4\n        /* \"#utility.yul\":8974:8992   */\n      add\n        /* \"#utility.yul\":8967:9015   */\n      mstore\n        /* \"#utility.yul\":9032:9110   */\n      tag_201\n        /* \"#utility.yul\":9105:9109   */\n      dup2\n        /* \"#utility.yul\":9096:9102   */\n      dup5\n        /* \"#utility.yul\":9032:9110   */\n      tag_93\n      jump\t// in\n    tag_201:\n        /* \"#utility.yul\":9024:9110   */\n      swap1\n      pop\n        /* \"#utility.yul\":8437:9117   */\n      swap5\n      swap4\n      pop\n      pop\n      pop\n      pop\n      jump\t// out\n        /* \"#utility.yul\":9123:9345   */\n    tag_24:\n        /* \"#utility.yul\":9216:9220   */\n      0x00\n        /* \"#utility.yul\":9254:9256   */\n      0x20\n        /* \"#utility.yul\":9243:9252   */\n      dup3\n        /* \"#utility.yul\":9239:9257   */\n      add\n        /* \"#utility.yul\":9231:9257   */\n      swap1\n      pop\n        /* \"#utility.yul\":9267:9338   */\n      tag_203\n        /* \"#utility.yul\":9335:9336   */\n      0x00\n        /* \"#utility.yul\":9324:9333   */\n      dup4\n        /* \"#utility.yul\":9320:9337   */\n      add\n        /* \"#utility.yul\":9311:9317   */\n      dup5\n        /* \"#utility.yul\":9267:9338   */\n      tag_82\n      jump\t// in\n    tag_203:\n        /* \"#utility.yul\":9123:9345   */\n      swap3\n      swap2\n      pop\n      pop\n      jump\t// out\n        /* \"#utility.yul\":9351:9473   */\n    tag_94:\n        /* \"#utility.yul\":9424:9448   */\n      tag_205\n        /* \"#utility.yul\":9442:9447   */\n      dup2\n        /* \"#utility.yul\":9424:9448   */\n      tag_81\n      jump\t// in\n    tag_205:\n        /* \"#utility.yul\":9417:9422   */\n      dup2\n        /* \"#utility.yul\":9414:9449   */\n      eq\n        /* \"#utility.yul\":9404:9467   */\n      tag_206\n      jumpi\n        /* \"#utility.yul\":9463:9464   */\n      0x00\n        /* \"#utility.yul\":9460:9461   */\n      dup1\n        /* \"#utility.yul\":9453:9465   */\n      revert\n        /* \"#utility.yul\":9404:9467   */\n    tag_206:\n        /* \"#utility.yul\":9351:9473   */\n      pop\n      jump\t// out\n        /* \"#utility.yul\":9479:9618   */\n    tag_95:\n        /* \"#utility.yul\":9525:9530   */\n      0x00\n        /* \"#utility.yul\":9563:9569   */\n      dup2\n        /* \"#utility.yul\":9550:9570   */\n      calldataload\n        /* \"#utility.yul\":9541:9570   */\n      swap1\n      pop\n        /* \"#utility.yul\":9579:9612   */\n      tag_208\n        /* \"#utility.yul\":9606:9611   */\n      dup2\n        /* \"#utility.yul\":9579:9612   */\n      tag_94\n      jump\t// in\n    tag_208:\n        /* \"#utility.yul\":9479:9618   */\n      swap3\n      swap2\n      pop\n      pop\n      jump\t// out\n        /* \"#utility.yul\":9624:10276   */\n    tag_27:\n        /* \"#utility.yul\":9701:9707   */\n      0x00\n        /* \"#utility.yul\":9709:9715   */\n      dup1\n        /* \"#utility.yul\":9758:9760   */\n      0x40\n        /* \"#utility.yul\":9746:9755   */\n      dup4\n        /* \"#utility.yul\":9737:9744   */\n      dup6\n        /* \"#utility.yul\":9733:9756   */\n      sub\n        /* \"#utility.yul\":9729:9761   */\n      slt\n        /* \"#utility.yul\":9726:9845   */\n      iszero\n      tag_210\n      jumpi\n        /* \"#utility.yul\":9764:9843   */\n      tag_211\n      tag_63\n      jump\t// in\n    tag_211:\n        /* \"#utility.yul\":9726:9845   */\n    tag_210:\n        /* \"#utility.yul\":9912:9913   */\n      0x00\n        /* \"#utility.yul\":9901:9910   */\n      dup4\n        /* \"#utility.yul\":9897:9914   */\n      add\n        /* \"#utility.yul\":9884:9915   */\n      calldataload\n        /* \"#utility.yul\":9942:9960   */\n      0xffffffffffffffff\n        /* \"#utility.yul\":9934:9940   */\n      dup2\n        /* \"#utility.yul\":9931:9961   */\n      gt\n        /* \"#utility.yul\":9928:10045   */\n      iszero\n      tag_212\n      jumpi\n        /* \"#utility.yul\":9964:10043   */\n      tag_213\n      tag_64\n      jump\t// in\n    tag_213:\n        /* \"#utility.yul\":9928:10045   */\n    tag_212:\n        /* \"#utility.yul\":10069:10131   */\n      tag_214\n        /* \"#utility.yul\":10123:10130   */\n      dup6\n        /* \"#utility.yul\":10114:10120   */\n      dup3\n        /* \"#utility.yul\":10103:10112   */\n      dup7\n        /* \"#utility.yul\":10099:10121   */\n      add\n        /* \"#utility.yul\":10069:10131   */\n      tag_80\n      jump\t// in\n    tag_214:\n        /* \"#utility.yul\":10059:10131   */\n      swap3\n      pop\n        /* \"#utility.yul\":9855:10141   */\n      pop\n        /* \"#utility.yul\":10180:10182   */\n      0x20\n        /* \"#utility.yul\":10206:10259   */\n      tag_215\n        /* \"#utility.yul\":10251:10258   */\n      dup6\n        /* \"#utility.yul\":10242:10248   */\n      dup3\n        /* \"#utility.yul\":10231:10240   */\n      dup7\n        /* \"#utility.yul\":10227:10249   */\n      add\n        /* \"#utility.yul\":10206:10259   */\n      tag_95\n      jump\t// in\n    tag_215:\n        /* \"#utility.yul\":10196:10259   */\n      swap2\n      pop\n        /* \"#utility.yul\":10151:10269   */\n      pop\n        /* \"#utility.yul\":9624:10276   */\n      swap3\n      pop\n      swap3\n      swap1\n      pop\n      jump\t// out\n        /* \"#utility.yul\":10282:10397   */\n    tag_96:\n        /* \"#utility.yul\":10367:10390   */\n      tag_217\n        /* \"#utility.yul\":10384:10389   */\n      dup2\n        /* \"#utility.yul\":10367:10390   */\n      tag_86\n      jump\t// in\n    tag_217:\n        /* \"#utility.yul\":10362:10365   */\n      dup3\n        /* \"#utility.yul\":10355:10391   */\n      mstore\n        /* \"#utility.yul\":10282:10397   */\n      pop\n      pop\n      jump\t// out\n        /* \"#utility.yul\":10403:10621   */\n    tag_30:\n        /* \"#utility.yul\":10494:10498   */\n      0x00\n        /* \"#utility.yul\":10532:10534   */\n      0x20\n        /* \"#utility.yul\":10521:10530   */\n      dup3\n        /* \"#utility.yul\":10517:10535   */\n      add\n        /* \"#utility.yul\":10509:10535   */\n      swap1\n      pop\n        /* \"#utility.yul\":10545:10614   */\n      tag_219\n        /* \"#utility.yul\":10611:10612   */\n      0x00\n        /* \"#utility.yul\":10600:10609   */\n      dup4\n        /* \"#utility.yul\":10596:10613   */\n      add\n        /* \"#utility.yul\":10587:10593   */\n      dup5\n        /* \"#utility.yul\":10545:10614   */\n      tag_96\n      jump\t// in\n    tag_219:\n        /* \"#utility.yul\":10403:10621   */\n      swap3\n      swap2\n      pop\n      pop\n      jump\t// out\n        /* \"#utility.yul\":10627:10775   */\n    tag_97:\n        /* \"#utility.yul\":10729:10740   */\n      0x00\n        /* \"#utility.yul\":10766:10769   */\n      dup2\n        /* \"#utility.yul\":10751:10769   */\n      swap1\n      pop\n        /* \"#utility.yul\":10627:10775   */\n      swap3\n      swap2\n      pop\n      pop\n      jump\t// out\n        /* \"#utility.yul\":10781:11171   */\n    tag_98:\n        /* \"#utility.yul\":10887:10890   */\n      0x00\n        /* \"#utility.yul\":10915:10954   */\n      tag_222\n        /* \"#utility.yul\":10948:10953   */\n      dup3\n        /* \"#utility.yul\":10915:10954   */\n      tag_91\n      jump\t// in\n    tag_222:\n        /* \"#utility.yul\":10970:11059   */\n      tag_223\n        /* \"#utility.yul\":11052:11058   */\n      dup2\n        /* \"#utility.yul\":11047:11050   */\n      dup6\n        /* \"#utility.yul\":10970:11059   */\n      tag_97\n      jump\t// in\n    tag_223:\n        /* \"#utility.yul\":10963:11059   */\n      swap4\n      pop\n        /* \"#utility.yul\":11068:11133   */\n      tag_224\n        /* \"#utility.yul\":11126:11132   */\n      dup2\n        /* \"#utility.yul\":11121:11124   */\n      dup6\n        /* \"#utility.yul\":11114:11118   */\n      0x20\n        /* \"#utility.yul\":11107:11112   */\n      dup7\n        /* \"#utility.yul\":11103:11119   */\n      add\n        /* \"#utility.yul\":11068:11133   */\n      tag_76\n      jump\t// in\n    tag_224:\n        /* \"#utility.yul\":11158:11164   */\n      dup1\n        /* \"#utility.yul\":11153:11156   */\n      dup5\n        /* \"#utility.yul\":11149:11165   */\n      add\n        /* \"#utility.yul\":11142:11165   */\n      swap2\n      pop\n        /* \"#utility.yul\":10891:11171   */\n      pop\n        /* \"#utility.yul\":10781:11171   */\n      swap3\n      swap2\n      pop\n      pop\n      jump\t// out\n        /* \"#utility.yul\":11177:11452   */\n    tag_37:\n        /* \"#utility.yul\":11309:11312   */\n      0x00\n        /* \"#utility.yul\":11331:11426   */\n      tag_226\n        /* \"#utility.yul\":11422:11425   */\n      dup3\n        /* \"#utility.yul\":11413:11419   */\n      dup5\n        /* \"#utility.yul\":11331:11426   */\n      tag_98\n      jump\t// in\n    tag_226:\n        /* \"#utility.yul\":11324:11426   */\n      swap2\n      pop\n        /* \"#utility.yul\":11443:11446   */\n      dup2\n        /* \"#utility.yul\":11436:11446   */\n      swap1\n      pop\n        /* \"#utility.yul\":11177:11452   */\n      swap3\n      swap2\n      pop\n      pop\n      jump\t// out\n        /* \"#utility.yul\":11458:11638   */\n    tag_48:\n        /* \"#utility.yul\":11506:11583   */\n      0x4e487b7100000000000000000000000000000000000000000000000000000000\n        /* \"#utility.yul\":11503:11504   */\n      0x00\n        /* \"#utility.yul\":11496:11584   */\n      mstore\n        /* \"#utility.yul\":11603:11607   */\n      0x32\n        /* \"#utility.yul\":11600:11601   */\n      0x04\n        /* \"#utility.yul\":11593:11608   */\n      mstore\n        /* \"#utility.yul\":11627:11631   */\n      0x24\n        /* \"#utility.yul\":11624:11625   */\n      0x00\n        /* \"#utility.yul\":11617:11632   */\n      revert\n        /* \"#utility.yul\":11644:11806   */\n    tag_99:\n        /* \"#utility.yul\":11760:11771   */\n      0x00\n        /* \"#utility.yul\":11797:11800   */\n      dup2\n        /* \"#utility.yul\":11782:11800   */\n      swap1\n      pop\n        /* \"#utility.yul\":11644:11806   */\n      swap3\n      swap2\n      pop\n      pop\n      jump\t// out\n        /* \"#utility.yul\":11812:11925   */\n    tag_100:\n        /* \"#utility.yul\":11895:11918   */\n      tag_230\n        /* \"#utility.yul\":11912:11917   */\n      dup2\n        /* \"#utility.yul\":11895:11918   */\n      tag_86\n      jump\t// in\n    tag_230:\n        /* \"#utility.yul\":11890:11893   */\n      dup3\n        /* \"#utility.yul\":11883:11919   */\n      mstore\n        /* \"#utility.yul\":11812:11925   */\n      pop\n      pop\n      jump\t// out\n        /* \"#utility.yul\":11931:12122   */\n    tag_101:\n        /* \"#utility.yul\":12006:12016   */\n      0x00\n        /* \"#utility.yul\":12027:12079   */\n      tag_232\n        /* \"#utility.yul\":12075:12078   */\n      dup4\n        /* \"#utility.yul\":12067:12073   */\n      dup4\n        /* \"#utility.yul\":12027:12079   */\n      tag_100\n      jump\t// in\n    tag_232:\n        /* \"#utility.yul\":12111:12115   */\n      0x20\n        /* \"#utility.yul\":12106:12109   */\n      dup4\n        /* \"#utility.yul\":12102:12116   */\n      add\n        /* \"#utility.yul\":12088:12116   */\n      swap1\n      pop\n        /* \"#utility.yul\":11931:12122   */\n      swap3\n      swap2\n      pop\n      pop\n      jump\t// out\n        /* \"#utility.yul\":12156:12924   */\n    tag_102:\n        /* \"#utility.yul\":12291:12294   */\n      0x00\n        /* \"#utility.yul\":12320:12373   */\n      tag_234\n        /* \"#utility.yul\":12367:12372   */\n      dup3\n        /* \"#utility.yul\":12320:12373   */\n      tag_83\n      jump\t// in\n    tag_234:\n        /* \"#utility.yul\":12389:12492   */\n      tag_235\n        /* \"#utility.yul\":12485:12491   */\n      dup2\n        /* \"#utility.yul\":12480:12483   */\n      dup6\n        /* \"#utility.yul\":12389:12492   */\n      tag_99\n      jump\t// in\n    tag_235:\n        /* \"#utility.yul\":12382:12492   */\n      swap4\n      pop\n        /* \"#utility.yul\":12516:12571   */\n      tag_236\n        /* \"#utility.yul\":12565:12570   */\n      dup4\n        /* \"#utility.yul\":12516:12571   */\n      tag_85\n      jump\t// in\n    tag_236:\n        /* \"#utility.yul\":12594:12601   */\n      dup1\n        /* \"#utility.yul\":12625:12626   */\n      0x00\n        /* \"#utility.yul\":12610:12899   */\n    tag_237:\n        /* \"#utility.yul\":12635:12641   */\n      dup4\n        /* \"#utility.yul\":12632:12633   */\n      dup2\n        /* \"#utility.yul\":12629:12642   */\n      lt\n        /* \"#utility.yul\":12610:12899   */\n      iszero\n      tag_239\n      jumpi\n        /* \"#utility.yul\":12711:12717   */\n      dup2\n        /* \"#utility.yul\":12705:12718   */\n      mload\n        /* \"#utility.yul\":12738:12807   */\n      tag_240\n        /* \"#utility.yul\":12803:12806   */\n      dup9\n        /* \"#utility.yul\":12788:12801   */\n      dup3\n        /* \"#utility.yul\":12738:12807   */\n      tag_101\n      jump\t// in\n    tag_240:\n        /* \"#utility.yul\":12731:12807   */\n      swap8\n      pop\n        /* \"#utility.yul\":12830:12889   */\n      tag_241\n        /* \"#utility.yul\":12882:12888   */\n      dup4\n        /* \"#utility.yul\":12830:12889   */\n      tag_89\n      jump\t// in\n    tag_241:\n        /* \"#utility.yul\":12820:12889   */\n      swap3\n      pop\n        /* \"#utility.yul\":12670:12899   */\n      pop\n        /* \"#utility.yul\":12657:12658   */\n      0x01\n        /* \"#utility.yul\":12654:12655   */\n      dup2\n        /* \"#utility.yul\":12650:12659   */\n      add\n        /* \"#utility.yul\":12645:12659   */\n      swap1\n      pop\n        /* \"#utility.yul\":12610:12899   */\n      jump(tag_237)\n    tag_239:\n        /* \"#utility.yul\":12614:12628   */\n      pop\n        /* \"#utility.yul\":12915:12918   */\n      dup6\n        /* \"#utility.yul\":12908:12918   */\n      swap4\n      pop\n        /* \"#utility.yul\":12296:12924   */\n      pop\n      pop\n      pop\n        /* \"#utility.yul\":12156:12924   */\n      swap3\n      swap2\n      pop\n      pop\n      jump\t// out\n        /* \"#utility.yul\":12930:13261   */\n    tag_52:\n        /* \"#utility.yul\":13090:13093   */\n      0x00\n        /* \"#utility.yul\":13112:13235   */\n      tag_243\n        /* \"#utility.yul\":13231:13234   */\n      dup3\n        /* \"#utility.yul\":13222:13228   */\n      dup5\n        /* \"#utility.yul\":13112:13235   */\n      tag_102\n      jump\t// in\n    tag_243:\n        /* \"#utility.yul\":13105:13235   */\n      swap2\n      pop\n        /* \"#utility.yul\":13252:13255   */\n      dup2\n        /* \"#utility.yul\":13245:13255   */\n      swap1\n      pop\n        /* \"#utility.yul\":12930:13261   */\n      swap3\n      swap2\n      pop\n      pop\n      jump\t// out\n        /* \"#utility.yul\":13267:13447   */\n    tag_103:\n        /* \"#utility.yul\":13315:13392   */\n      0x4e487b7100000000000000000000000000000000000000000000000000000000\n        /* \"#utility.yul\":13312:13313   */\n      0x00\n        /* \"#utility.yul\":13305:13393   */\n      mstore\n        /* \"#utility.yul\":13412:13416   */\n      0x11\n        /* \"#utility.yul\":13409:13410   */\n      0x04\n        /* \"#utility.yul\":13402:13417   */\n      mstore\n        /* \"#utility.yul\":13436:13440   */\n      0x24\n        /* \"#utility.yul\":13433:13434   */\n      0x00\n        /* \"#utility.yul\":13426:13441   */\n      revert\n        /* \"#utility.yul\":13453:13647   */\n    tag_56:\n        /* \"#utility.yul\":13493:13497   */\n      0x00\n        /* \"#utility.yul\":13513:13533   */\n      tag_246\n        /* \"#utility.yul\":13531:13532   */\n      dup3\n        /* \"#utility.yul\":13513:13533   */\n      tag_81\n      jump\t// in\n    tag_246:\n        /* \"#utility.yul\":13508:13533   */\n      swap2\n      pop\n        /* \"#utility.yul\":13547:13567   */\n      tag_247\n        /* \"#utility.yul\":13565:13566   */\n      dup4\n        /* \"#utility.yul\":13547:13567   */\n      tag_81\n      jump\t// in\n    tag_247:\n        /* \"#utility.yul\":13542:13567   */\n      swap3\n      pop\n        /* \"#utility.yul\":13591:13592   */\n      dup3\n        /* \"#utility.yul\":13588:13589   */\n      dup3\n        /* \"#utility.yul\":13584:13593   */\n      sub\n        /* \"#utility.yul\":13576:13593   */\n      swap1\n      pop\n        /* \"#utility.yul\":13615:13616   */\n      dup2\n        /* \"#utility.yul\":13609:13613   */\n      dup2\n        /* \"#utility.yul\":13606:13617   */\n      gt\n        /* \"#utility.yul\":13603:13640   */\n      iszero\n      tag_248\n      jumpi\n        /* \"#utility.yul\":13620:13638   */\n      tag_249\n      tag_103\n      jump\t// in\n    tag_249:\n        /* \"#utility.yul\":13603:13640   */\n    tag_248:\n        /* \"#utility.yul\":13453:13647   */\n      swap3\n      swap2\n      pop\n      pop\n      jump\t// out\n        /* \"#utility.yul\":13653:13966   */\n    tag_61:\n        /* \"#utility.yul\":13766:13770   */\n      0x00\n        /* \"#utility.yul\":13804:13806   */\n      0x20\n        /* \"#utility.yul\":13793:13802   */\n      dup3\n        /* \"#utility.yul\":13789:13807   */\n      add\n        /* \"#utility.yul\":13781:13807   */\n      swap1\n      pop\n        /* \"#utility.yul\":13853:13862   */\n      dup2\n        /* \"#utility.yul\":13847:13851   */\n      dup2\n        /* \"#utility.yul\":13843:13863   */\n      sub\n        /* \"#utility.yul\":13839:13840   */\n      0x00\n        /* \"#utility.yul\":13828:13837   */\n      dup4\n        /* \"#utility.yul\":13824:13841   */\n      add\n        /* \"#utility.yul\":13817:13864   */\n      mstore\n        /* \"#utility.yul\":13881:13959   */\n      tag_251\n        /* \"#utility.yul\":13954:13958   */\n      dup2\n        /* \"#utility.yul\":13945:13951   */\n      dup5\n        /* \"#utility.yul\":13881:13959   */\n      tag_93\n      jump\t// in\n    tag_251:\n        /* \"#utility.yul\":13873:13959   */\n      swap1\n      pop\n        /* \"#utility.yul\":13653:13966   */\n      swap3\n      swap2\n      pop\n      pop\n      jump\t// out\n\n    auxdata: 0xa26469706673582212200cb1be2eeefbc750a7dffbf82445ea7cba3dec583f0de88f175d16e4a9e4ef1c64736f6c634300081a0033\n}\n",
				"bytecode": {
					"linkReferences": {},
					"object": "6080604052348015600e575f80fd5b50610a1d8061001c5f395ff3fe608060405234801561000f575f80fd5b5060043610610055575f3560e01c8063413cc0db1461005957806365d894e914610089578063781c6dbe146100bb578063cd63efd4146100eb578063f100cfd31461011b575b5f80fd5b610073600480360381019061006e9190610448565b61014b565b60405161008091906104ef565b60405180910390f35b6100a3600480360381019061009e91906105ad565b610174565b6040516100b293929190610740565b60405180910390f35b6100d560048036038101906100d091906105ad565b610295565b6040516100e29190610783565b60405180910390f35b610105600480360381019061010091906107c6565b61029f565b604051610112919061082f565b60405180910390f35b61013560048036038101906101309190610448565b6102d2565b60405161014291906104ef565b60405180910390f35b60608160405160200161015e9190610882565b6040516020818303038152906040529050919050565b5f6060805f845190505f8167ffffffffffffffff81111561019857610197610324565b5b6040519080825280602002602001820160405280156101c65781602001602082028036833780820191505090505b5090505f5b82811015610263578681815181106101e6576101e5610898565b5b602001015160f81c60f81b82828151811061020457610203610898565b5b60200260200101907effffffffffffffffffffffffffffffffffffffffffffffffffffffffffffff191690817effffffffffffffffffffffffffffffffffffffffffffffffffffffffffffff19168152505080806001019150506101cb565b508181826040516020016102779190610951565b60405160208183030381529060405294509450945050509193909250565b5f81519050919050565b5f826001836102ae9190610994565b815181106102bf576102be610898565b5b602001015160f81c60f81b905092915050565b6060816040516020016102e591906109c7565b6040516020818303038152906040529050919050565b5f604051905090565b5f80fd5b5f80fd5b5f80fd5b5f80fd5b5f601f19601f8301169050919050565b7f4e487b71000000000000000000000000000000000000000000000000000000005f52604160045260245ffd5b61035a82610314565b810181811067ffffffffffffffff8211171561037957610378610324565b5b80604052505050565b5f61038b6102fb565b90506103978282610351565b919050565b5f67ffffffffffffffff8211156103b6576103b5610324565b5b6103bf82610314565b9050602081019050919050565b828183375f83830152505050565b5f6103ec6103e78461039c565b610382565b90508281526020810184848401111561040857610407610310565b5b6104138482856103cc565b509392505050565b5f82601f83011261042f5761042e61030c565b5b813561043f8482602086016103da565b91505092915050565b5f6020828403121561045d5761045c610304565b5b5f82013567ffffffffffffffff81111561047a57610479610308565b5b6104868482850161041b565b91505092915050565b5f81519050919050565b5f82825260208201905092915050565b8281835e5f83830152505050565b5f6104c18261048f565b6104cb8185610499565b93506104db8185602086016104a9565b6104e481610314565b840191505092915050565b5f6020820190508181035f83015261050781846104b7565b905092915050565b5f67ffffffffffffffff82111561052957610528610324565b5b61053282610314565b9050602081019050919050565b5f61055161054c8461050f565b610382565b90508281526020810184848401111561056d5761056c610310565b5b6105788482856103cc565b509392505050565b5f82601f8301126105945761059361030c565b5b81356105a484826020860161053f565b91505092915050565b5f602082840312156105c2576105c1610304565b5b5f82013567ffffffffffffffff8111156105df576105de610308565b5b6105eb84828501610580565b91505092915050565b5f819050919050565b610606816105f4565b82525050565b5f81519050919050565b5f82825260208201905092915050565b5f819050602082019050919050565b5f7fff0000000000000000000000000000000000000000000000000000000000000082169050919050565b61066981610635565b82525050565b5f61067a8383610660565b60208301905092915050565b5f602082019050919050565b5f61069c8261060c565b6106a68185610616565b93506106b183610626565b805f5b838110156106e15781516106c8888261066f565b97506106d383610686565b9250506001810190506106b4565b5085935050505092915050565b5f81519050919050565b5f82825260208201905092915050565b5f610712826106ee565b61071c81856106f8565b935061072c8185602086016104a9565b61073581610314565b840191505092915050565b5f6060820190506107535f8301866105fd565b81810360208301526107658185610692565b905081810360408301526107798184610708565b9050949350505050565b5f6020820190506107965f8301846105fd565b92915050565b6107a5816105f4565b81146107af575f80fd5b50565b5f813590506107c08161079c565b92915050565b5f80604083850312156107dc576107db610304565b5b5f83013567ffffffffffffffff8111156107f9576107f8610308565b5b61080585828601610580565b9250506020610816858286016107b2565b9150509250929050565b61082981610635565b82525050565b5f6020820190506108425f830184610820565b92915050565b5f81905092915050565b5f61085c826106ee565b6108668185610848565b93506108768185602086016104a9565b80840191505092915050565b5f61088d8284610852565b915081905092915050565b7f4e487b71000000000000000000000000000000000000000000000000000000005f52603260045260245ffd5b5f81905092915050565b6108d881610635565b82525050565b5f6108e983836108cf565b60208301905092915050565b5f6108ff8261060c565b61090981856108c5565b935061091483610626565b805f5b8381101561094457815161092b88826108de565b975061093683610686565b925050600181019050610917565b5085935050505092915050565b5f61095c82846108f5565b915081905092915050565b7f4e487b71000000000000000000000000000000000000000000000000000000005f52601160045260245ffd5b5f61099e826105f4565b91506109a9836105f4565b92508282039050818111156109c1576109c0610967565b5b92915050565b5f6020820190508181035f8301526109df8184610708565b90509291505056fea26469706673582212200cb1be2eeefbc750a7dffbf82445ea7cba3dec583f0de88f175d16e4a9e4ef1c64736f6c634300081a0033",
					"opcodes": "PUSH1 0x80 PUSH1 0x40 MSTORE CALLVALUE DUP1 ISZERO PUSH1 0xE JUMPI PUSH0 DUP1 REVERT JUMPDEST POP PUSH2 0xA1D DUP1 PUSH2 0x1C PUSH0 CODECOPY PUSH0 RETURN INVALID PUSH1 0x80 PUSH1 0x40 MSTORE CALLVALUE DUP1 ISZERO PUSH2 0xF JUMPI PUSH0 DUP1 REVERT JUMPDEST POP PUSH1 0x4 CALLDATASIZE LT PUSH2 0x55 JUMPI PUSH0 CALLDATALOAD PUSH1 0xE0 SHR DUP1 PUSH4 0x413CC0DB EQ PUSH2 0x59 JUMPI DUP1 PUSH4 0x65D894E9 EQ PUSH2 0x89 JUMPI DUP1 PUSH4 0x781C6DBE EQ PUSH2 0xBB JUMPI DUP1 PUSH4 0xCD63EFD4 EQ PUSH2 0xEB JUMPI DUP1 PUSH4 0xF100CFD3 EQ PUSH2 0x11B JUMPI JUMPDEST PUSH0 DUP1 REVERT JUMPDEST PUSH2 0x73 PUSH1 0x4 DUP1 CALLDATASIZE SUB DUP2 ADD SWAP1 PUSH2 0x6E SWAP2 SWAP1 PUSH2 0x448 JUMP JUMPDEST PUSH2 0x14B JUMP JUMPDEST PUSH1 0x40 MLOAD PUSH2 0x80 SWAP2 SWAP1 PUSH2 0x4EF JUMP JUMPDEST PUSH1 0x40 MLOAD DUP1 SWAP2 SUB SWAP1 RETURN JUMPDEST PUSH2 0xA3 PUSH1 0x4 DUP1 CALLDATASIZE SUB DUP2 ADD SWAP1 PUSH2 0x9E SWAP2 SWAP1 PUSH2 0x5AD JUMP JUMPDEST PUSH2 0x174 JUMP JUMPDEST PUSH1 0x40 MLOAD PUSH2 0xB2 SWAP4 SWAP3 SWAP2 SWAP1 PUSH2 0x740 JUMP JUMPDEST PUSH1 0x40 MLOAD DUP1 SWAP2 SUB SWAP1 RETURN JUMPDEST PUSH2 0xD5 PUSH1 0x4 DUP1 CALLDATASIZE SUB DUP2 ADD SWAP1 PUSH2 0xD0 SWAP2 SWAP1 PUSH2 0x5AD JUMP JUMPDEST PUSH2 0x295 JUMP JUMPDEST PUSH1 0x40 MLOAD PUSH2 0xE2 SWAP2 SWAP1 PUSH2 0x783 JUMP JUMPDEST PUSH1 0x40 MLOAD DUP1 SWAP2 SUB SWAP1 RETURN JUMPDEST PUSH2 0x105 PUSH1 0x4 DUP1 CALLDATASIZE SUB DUP2 ADD SWAP1 PUSH2 0x100 SWAP2 SWAP1 PUSH2 0x7C6 JUMP JUMPDEST PUSH2 0x29F JUMP JUMPDEST PUSH1 0x40 MLOAD PUSH2 0x112 SWAP2 SWAP1 PUSH2 0x82F JUMP JUMPDEST PUSH1 0x40 MLOAD DUP1 SWAP2 SUB SWAP1 RETURN JUMPDEST PUSH2 0x135 PUSH1 0x4 DUP1 CALLDATASIZE SUB DUP2 ADD SWAP1 PUSH2 0x130 SWAP2 SWAP1 PUSH2 0x448 JUMP JUMPDEST PUSH2 0x2D2 JUMP JUMPDEST PUSH1 0x40 MLOAD PUSH2 0x142 SWAP2 SWAP1 PUSH2 0x4EF JUMP JUMPDEST PUSH1 0x40 MLOAD DUP1 SWAP2 SUB SWAP1 RETURN JUMPDEST PUSH1 0x60 DUP2 PUSH1 0x40 MLOAD PUSH1 0x20 ADD PUSH2 0x15E SWAP2 SWAP1 PUSH2 0x882 JUMP JUMPDEST PUSH1 0x40 MLOAD PUSH1 0x20 DUP2 DUP4 SUB SUB DUP2 MSTORE SWAP1 PUSH1 0x40 MSTORE SWAP1 POP SWAP2 SWAP1 POP JUMP JUMPDEST PUSH0 PUSH1 0x60 DUP1 PUSH0 DUP5 MLOAD SWAP1 POP PUSH0 DUP2 PUSH8 0xFFFFFFFFFFFFFFFF DUP2 GT ISZERO PUSH2 0x198 JUMPI PUSH2 0x197 PUSH2 0x324 JUMP JUMPDEST JUMPDEST PUSH1 0x40 MLOAD SWAP1 DUP1 DUP3 MSTORE DUP1 PUSH1 0x20 MUL PUSH1 0x20 ADD DUP3 ADD PUSH1 0x40 MSTORE DUP1 ISZERO PUSH2 0x1C6 JUMPI DUP2 PUSH1 0x20 ADD PUSH1 0x20 DUP3 MUL DUP1 CALLDATASIZE DUP4 CALLDATACOPY DUP1 DUP3 ADD SWAP2 POP POP SWAP1 POP JUMPDEST POP SWAP1 POP PUSH0 JUMPDEST DUP3 DUP2 LT ISZERO PUSH2 0x263 JUMPI DUP7 DUP2 DUP2 MLOAD DUP2 LT PUSH2 0x1E6 JUMPI PUSH2 0x1E5 PUSH2 0x898 JUMP JUMPDEST JUMPDEST PUSH1 0x20 ADD ADD MLOAD PUSH1 0xF8 SHR PUSH1 0xF8 SHL DUP3 DUP3 DUP2 MLOAD DUP2 LT PUSH2 0x204 JUMPI PUSH2 0x203 PUSH2 0x898 JUMP JUMPDEST JUMPDEST PUSH1 0x20 MUL PUSH1 0x20 ADD ADD SWAP1 PUSH31 0xFFFFFFFFFFFFFFFFFFFFFFFFFFFFFFFFFFFFFFFFFFFFFFFFFFFFFFFFFFFFFF NOT AND SWAP1 DUP2 PUSH31 0xFFFFFFFFFFFFFFFFFFFFFFFFFFFFFFFFFFFFFFFFFFFFFFFFFFFFFFFFFFFFFF NOT AND DUP2 MSTORE POP POP DUP1 DUP1 PUSH1 0x1 ADD SWAP2 POP POP PUSH2 0x1CB JUMP JUMPDEST POP DUP2 DUP2 DUP3 PUSH1 0x40 MLOAD PUSH1 0x20 ADD PUSH2 0x277 SWAP2 SWAP1 PUSH2 0x951 JUMP JUMPDEST PUSH1 0x40 MLOAD PUSH1 0x20 DUP2 DUP4 SUB SUB DUP2 MSTORE SWAP1 PUSH1 0x40 MSTORE SWAP5 POP SWAP5 POP SWAP5 POP POP POP SWAP2 SWAP4 SWAP1 SWAP3 POP JUMP JUMPDEST PUSH0 DUP2 MLOAD SWAP1 POP SWAP2 SWAP1 POP JUMP JUMPDEST PUSH0 DUP3 PUSH1 0x1 DUP4 PUSH2 0x2AE SWAP2 SWAP1 PUSH2 0x994 JUMP JUMPDEST DUP2 MLOAD DUP2 LT PUSH2 0x2BF JUMPI PUSH2 0x2BE PUSH2 0x898 JUMP JUMPDEST JUMPDEST PUSH1 0x20 ADD ADD MLOAD PUSH1 0xF8 SHR PUSH1 0xF8 SHL SWAP1 POP SWAP3 SWAP2 POP POP JUMP JUMPDEST PUSH1 0x60 DUP2 PUSH1 0x40 MLOAD PUSH1 0x20 ADD PUSH2 0x2E5 SWAP2 SWAP1 PUSH2 0x9C7 JUMP JUMPDEST PUSH1 0x40 MLOAD PUSH1 0x20 DUP2 DUP4 SUB SUB DUP2 MSTORE SWAP1 PUSH1 0x40 MSTORE SWAP1 POP SWAP2 SWAP1 POP JUMP JUMPDEST PUSH0 PUSH1 0x40 MLOAD SWAP1 POP SWAP1 JUMP JUMPDEST PUSH0 DUP1 REVERT JUMPDEST PUSH0 DUP1 REVERT JUMPDEST PUSH0 DUP1 REVERT JUMPDEST PUSH0 DUP1 REVERT JUMPDEST PUSH0 PUSH1 0x1F NOT PUSH1 0x1F DUP4 ADD AND SWAP1 POP SWAP2 SWAP1 POP JUMP JUMPDEST PUSH32 0x4E487B7100000000000000000000000000000000000000000000000000000000 PUSH0 MSTORE PUSH1 0x41 PUSH1 0x4 MSTORE PUSH1 0x24 PUSH0 REVERT JUMPDEST PUSH2 0x35A DUP3 PUSH2 0x314 JUMP JUMPDEST DUP2 ADD DUP2 DUP2 LT PUSH8 0xFFFFFFFFFFFFFFFF DUP3 GT OR ISZERO PUSH2 0x379 JUMPI PUSH2 0x378 PUSH2 0x324 JUMP JUMPDEST JUMPDEST DUP1 PUSH1 0x40 MSTORE POP POP POP JUMP JUMPDEST PUSH0 PUSH2 0x38B PUSH2 0x2FB JUMP JUMPDEST SWAP1 POP PUSH2 0x397 DUP3 DUP3 PUSH2 0x351 JUMP JUMPDEST SWAP2 SWAP1 POP JUMP JUMPDEST PUSH0 PUSH8 0xFFFFFFFFFFFFFFFF DUP3 GT ISZERO PUSH2 0x3B6 JUMPI PUSH2 0x3B5 PUSH2 0x324 JUMP JUMPDEST JUMPDEST PUSH2 0x3BF DUP3 PUSH2 0x314 JUMP JUMPDEST SWAP1 POP PUSH1 0x20 DUP2 ADD SWAP1 POP SWAP2 SWAP1 POP JUMP JUMPDEST DUP3 DUP2 DUP4 CALLDATACOPY PUSH0 DUP4 DUP4 ADD MSTORE POP POP POP JUMP JUMPDEST PUSH0 PUSH2 0x3EC PUSH2 0x3E7 DUP5 PUSH2 0x39C JUMP JUMPDEST PUSH2 0x382 JUMP JUMPDEST SWAP1 POP DUP3 DUP2 MSTORE PUSH1 0x20 DUP2 ADD DUP5 DUP5 DUP5 ADD GT ISZERO PUSH2 0x408 JUMPI PUSH2 0x407 PUSH2 0x310 JUMP JUMPDEST JUMPDEST PUSH2 0x413 DUP5 DUP3 DUP6 PUSH2 0x3CC JUMP JUMPDEST POP SWAP4 SWAP3 POP POP POP JUMP JUMPDEST PUSH0 DUP3 PUSH1 0x1F DUP4 ADD SLT PUSH2 0x42F JUMPI PUSH2 0x42E PUSH2 0x30C JUMP JUMPDEST JUMPDEST DUP2 CALLDATALOAD PUSH2 0x43F DUP5 DUP3 PUSH1 0x20 DUP7 ADD PUSH2 0x3DA JUMP JUMPDEST SWAP2 POP POP SWAP3 SWAP2 POP POP JUMP JUMPDEST PUSH0 PUSH1 0x20 DUP3 DUP5 SUB SLT ISZERO PUSH2 0x45D JUMPI PUSH2 0x45C PUSH2 0x304 JUMP JUMPDEST JUMPDEST PUSH0 DUP3 ADD CALLDATALOAD PUSH8 0xFFFFFFFFFFFFFFFF DUP2 GT ISZERO PUSH2 0x47A JUMPI PUSH2 0x479 PUSH2 0x308 JUMP JUMPDEST JUMPDEST PUSH2 0x486 DUP5 DUP3 DUP6 ADD PUSH2 0x41B JUMP JUMPDEST SWAP2 POP POP SWAP3 SWAP2 POP POP JUMP JUMPDEST PUSH0 DUP2 MLOAD SWAP1 POP SWAP2 SWAP1 POP JUMP JUMPDEST PUSH0 DUP3 DUP3 MSTORE PUSH1 0x20 DUP3 ADD SWAP1 POP SWAP3 SWAP2 POP POP JUMP JUMPDEST DUP3 DUP2 DUP4 MCOPY PUSH0 DUP4 DUP4 ADD MSTORE POP POP POP JUMP JUMPDEST PUSH0 PUSH2 0x4C1 DUP3 PUSH2 0x48F JUMP JUMPDEST PUSH2 0x4CB DUP2 DUP6 PUSH2 0x499 JUMP JUMPDEST SWAP4 POP PUSH2 0x4DB DUP2 DUP6 PUSH1 0x20 DUP7 ADD PUSH2 0x4A9 JUMP JUMPDEST PUSH2 0x4E4 DUP2 PUSH2 0x314 JUMP JUMPDEST DUP5 ADD SWAP2 POP POP SWAP3 SWAP2 POP POP JUMP JUMPDEST PUSH0 PUSH1 0x20 DUP3 ADD SWAP1 POP DUP2 DUP2 SUB PUSH0 DUP4 ADD MSTORE PUSH2 0x507 DUP2 DUP5 PUSH2 0x4B7 JUMP JUMPDEST SWAP1 POP SWAP3 SWAP2 POP POP JUMP JUMPDEST PUSH0 PUSH8 0xFFFFFFFFFFFFFFFF DUP3 GT ISZERO PUSH2 0x529 JUMPI PUSH2 0x528 PUSH2 0x324 JUMP JUMPDEST JUMPDEST PUSH2 0x532 DUP3 PUSH2 0x314 JUMP JUMPDEST SWAP1 POP PUSH1 0x20 DUP2 ADD SWAP1 POP SWAP2 SWAP1 POP JUMP JUMPDEST PUSH0 PUSH2 0x551 PUSH2 0x54C DUP5 PUSH2 0x50F JUMP JUMPDEST PUSH2 0x382 JUMP JUMPDEST SWAP1 POP DUP3 DUP2 MSTORE PUSH1 0x20 DUP2 ADD DUP5 DUP5 DUP5 ADD GT ISZERO PUSH2 0x56D JUMPI PUSH2 0x56C PUSH2 0x310 JUMP JUMPDEST JUMPDEST PUSH2 0x578 DUP5 DUP3 DUP6 PUSH2 0x3CC JUMP JUMPDEST POP SWAP4 SWAP3 POP POP POP JUMP JUMPDEST PUSH0 DUP3 PUSH1 0x1F DUP4 ADD SLT PUSH2 0x594 JUMPI PUSH2 0x593 PUSH2 0x30C JUMP JUMPDEST JUMPDEST DUP2 CALLDATALOAD PUSH2 0x5A4 DUP5 DUP3 PUSH1 0x20 DUP7 ADD PUSH2 0x53F JUMP JUMPDEST SWAP2 POP POP SWAP3 SWAP2 POP POP JUMP JUMPDEST PUSH0 PUSH1 0x20 DUP3 DUP5 SUB SLT ISZERO PUSH2 0x5C2 JUMPI PUSH2 0x5C1 PUSH2 0x304 JUMP JUMPDEST JUMPDEST PUSH0 DUP3 ADD CALLDATALOAD PUSH8 0xFFFFFFFFFFFFFFFF DUP2 GT ISZERO PUSH2 0x5DF JUMPI PUSH2 0x5DE PUSH2 0x308 JUMP JUMPDEST JUMPDEST PUSH2 0x5EB DUP5 DUP3 DUP6 ADD PUSH2 0x580 JUMP JUMPDEST SWAP2 POP POP SWAP3 SWAP2 POP POP JUMP JUMPDEST PUSH0 DUP2 SWAP1 POP SWAP2 SWAP1 POP JUMP JUMPDEST PUSH2 0x606 DUP2 PUSH2 0x5F4 JUMP JUMPDEST DUP3 MSTORE POP POP JUMP JUMPDEST PUSH0 DUP2 MLOAD SWAP1 POP SWAP2 SWAP1 POP JUMP JUMPDEST PUSH0 DUP3 DUP3 MSTORE PUSH1 0x20 DUP3 ADD SWAP1 POP SWAP3 SWAP2 POP POP JUMP JUMPDEST PUSH0 DUP2 SWAP1 POP PUSH1 0x20 DUP3 ADD SWAP1 POP SWAP2 SWAP1 POP JUMP JUMPDEST PUSH0 PUSH32 0xFF00000000000000000000000000000000000000000000000000000000000000 DUP3 AND SWAP1 POP SWAP2 SWAP1 POP JUMP JUMPDEST PUSH2 0x669 DUP2 PUSH2 0x635 JUMP JUMPDEST DUP3 MSTORE POP POP JUMP JUMPDEST PUSH0 PUSH2 0x67A DUP4 DUP4 PUSH2 0x660 JUMP JUMPDEST PUSH1 0x20 DUP4 ADD SWAP1 POP SWAP3 SWAP2 POP POP JUMP JUMPDEST PUSH0 PUSH1 0x20 DUP3 ADD SWAP1 POP SWAP2 SWAP1 POP JUMP JUMPDEST PUSH0 PUSH2 0x69C DUP3 PUSH2 0x60C JUMP JUMPDEST PUSH2 0x6A6 DUP2 DUP6 PUSH2 0x616 JUMP JUMPDEST SWAP4 POP PUSH2 0x6B1 DUP4 PUSH2 0x626 JUMP JUMPDEST DUP1 PUSH0 JUMPDEST DUP4 DUP2 LT ISZERO PUSH2 0x6E1 JUMPI DUP2 MLOAD PUSH2 0x6C8 DUP9 DUP3 PUSH2 0x66F JUMP JUMPDEST SWAP8 POP PUSH2 0x6D3 DUP4 PUSH2 0x686 JUMP JUMPDEST SWAP3 POP POP PUSH1 0x1 DUP2 ADD SWAP1 POP PUSH2 0x6B4 JUMP JUMPDEST POP DUP6 SWAP4 POP POP POP POP SWAP3 SWAP2 POP POP JUMP JUMPDEST PUSH0 DUP2 MLOAD SWAP1 POP SWAP2 SWAP1 POP JUMP JUMPDEST PUSH0 DUP3 DUP3 MSTORE PUSH1 0x20 DUP3 ADD SWAP1 POP SWAP3 SWAP2 POP POP JUMP JUMPDEST PUSH0 PUSH2 0x712 DUP3 PUSH2 0x6EE JUMP JUMPDEST PUSH2 0x71C DUP2 DUP6 PUSH2 0x6F8 JUMP JUMPDEST SWAP4 POP PUSH2 0x72C DUP2 DUP6 PUSH1 0x20 DUP7 ADD PUSH2 0x4A9 JUMP JUMPDEST PUSH2 0x735 DUP2 PUSH2 0x314 JUMP JUMPDEST DUP5 ADD SWAP2 POP POP SWAP3 SWAP2 POP POP JUMP JUMPDEST PUSH0 PUSH1 0x60 DUP3 ADD SWAP1 POP PUSH2 0x753 PUSH0 DUP4 ADD DUP7 PUSH2 0x5FD JUMP JUMPDEST DUP2 DUP2 SUB PUSH1 0x20 DUP4 ADD MSTORE PUSH2 0x765 DUP2 DUP6 PUSH2 0x692 JUMP JUMPDEST SWAP1 POP DUP2 DUP2 SUB PUSH1 0x40 DUP4 ADD MSTORE PUSH2 0x779 DUP2 DUP5 PUSH2 0x708 JUMP JUMPDEST SWAP1 POP SWAP5 SWAP4 POP POP POP POP JUMP JUMPDEST PUSH0 PUSH1 0x20 DUP3 ADD SWAP1 POP PUSH2 0x796 PUSH0 DUP4 ADD DUP5 PUSH2 0x5FD JUMP JUMPDEST SWAP3 SWAP2 POP POP JUMP JUMPDEST PUSH2 0x7A5 DUP2 PUSH2 0x5F4 JUMP JUMPDEST DUP2 EQ PUSH2 0x7AF JUMPI PUSH0 DUP1 REVERT JUMPDEST POP JUMP JUMPDEST PUSH0 DUP2 CALLDATALOAD SWAP1 POP PUSH2 0x7C0 DUP2 PUSH2 0x79C JUMP JUMPDEST SWAP3 SWAP2 POP POP JUMP JUMPDEST PUSH0 DUP1 PUSH1 0x40 DUP4 DUP6 SUB SLT ISZERO PUSH2 0x7DC JUMPI PUSH2 0x7DB PUSH2 0x304 JUMP JUMPDEST JUMPDEST PUSH0 DUP4 ADD CALLDATALOAD PUSH8 0xFFFFFFFFFFFFFFFF DUP2 GT ISZERO PUSH2 0x7F9 JUMPI PUSH2 0x7F8 PUSH2 0x308 JUMP JUMPDEST JUMPDEST PUSH2 0x805 DUP6 DUP3 DUP7 ADD PUSH2 0x580 JUMP JUMPDEST SWAP3 POP POP PUSH1 0x20 PUSH2 0x816 DUP6 DUP3 DUP7 ADD PUSH2 0x7B2 JUMP JUMPDEST SWAP2 POP POP SWAP3 POP SWAP3 SWAP1 POP JUMP JUMPDEST PUSH2 0x829 DUP2 PUSH2 0x635 JUMP JUMPDEST DUP3 MSTORE POP POP JUMP JUMPDEST PUSH0 PUSH1 0x20 DUP3 ADD SWAP1 POP PUSH2 0x842 PUSH0 DUP4 ADD DUP5 PUSH2 0x820 JUMP JUMPDEST SWAP3 SWAP2 POP POP JUMP JUMPDEST PUSH0 DUP2 SWAP1 POP SWAP3 SWAP2 POP POP JUMP JUMPDEST PUSH0 PUSH2 0x85C DUP3 PUSH2 0x6EE JUMP JUMPDEST PUSH2 0x866 DUP2 DUP6 PUSH2 0x848 JUMP JUMPDEST SWAP4 POP PUSH2 0x876 DUP2 DUP6 PUSH1 0x20 DUP7 ADD PUSH2 0x4A9 JUMP JUMPDEST DUP1 DUP5 ADD SWAP2 POP POP SWAP3 SWAP2 POP POP JUMP JUMPDEST PUSH0 PUSH2 0x88D DUP3 DUP5 PUSH2 0x852 JUMP JUMPDEST SWAP2 POP DUP2 SWAP1 POP SWAP3 SWAP2 POP POP JUMP JUMPDEST PUSH32 0x4E487B7100000000000000000000000000000000000000000000000000000000 PUSH0 MSTORE PUSH1 0x32 PUSH1 0x4 MSTORE PUSH1 0x24 PUSH0 REVERT JUMPDEST PUSH0 DUP2 SWAP1 POP SWAP3 SWAP2 POP POP JUMP JUMPDEST PUSH2 0x8D8 DUP2 PUSH2 0x635 JUMP JUMPDEST DUP3 MSTORE POP POP JUMP JUMPDEST PUSH0 PUSH2 0x8E9 DUP4 DUP4 PUSH2 0x8CF JUMP JUMPDEST PUSH1 0x20 DUP4 ADD SWAP1 POP SWAP3 SWAP2 POP POP JUMP JUMPDEST PUSH0 PUSH2 0x8FF DUP3 PUSH2 0x60C JUMP JUMPDEST PUSH2 0x909 DUP2 DUP6 PUSH2 0x8C5 JUMP JUMPDEST SWAP4 POP PUSH2 0x914 DUP4 PUSH2 0x626 JUMP JUMPDEST DUP1 PUSH0 JUMPDEST DUP4 DUP2 LT ISZERO PUSH2 0x944 JUMPI DUP2 MLOAD PUSH2 0x92B DUP9 DUP3 PUSH2 0x8DE JUMP JUMPDEST SWAP8 POP PUSH2 0x936 DUP4 PUSH2 0x686 JUMP JUMPDEST SWAP3 POP POP PUSH1 0x1 DUP2 ADD SWAP1 POP PUSH2 0x917 JUMP JUMPDEST POP DUP6 SWAP4 POP POP POP POP SWAP3 SWAP2 POP POP JUMP JUMPDEST PUSH0 PUSH2 0x95C DUP3 DUP5 PUSH2 0x8F5 JUMP JUMPDEST SWAP2 POP DUP2 SWAP1 POP SWAP3 SWAP2 POP POP JUMP JUMPDEST PUSH32 0x4E487B7100000000000000000000000000000000000000000000000000000000 PUSH0 MSTORE PUSH1 0x11 PUSH1 0x4 MSTORE PUSH1 0x24 PUSH0 REVERT JUMPDEST PUSH0 PUSH2 0x99E DUP3 PUSH2 0x5F4 JUMP JUMPDEST SWAP2 POP PUSH2 0x9A9 DUP4 PUSH2 0x5F4 JUMP JUMPDEST SWAP3 POP DUP3 DUP3 SUB SWAP1 POP DUP2 DUP2 GT ISZERO PUSH2 0x9C1 JUMPI PUSH2 0x9C0 PUSH2 0x967 JUMP JUMPDEST JUMPDEST SWAP3 SWAP2 POP POP JUMP JUMPDEST PUSH0 PUSH1 0x20 DUP3 ADD SWAP1 POP DUP2 DUP2 SUB PUSH0 DUP4 ADD MSTORE PUSH2 0x9DF DUP2 DUP5 PUSH2 0x708 JUMP JUMPDEST SWAP1 POP SWAP3 SWAP2 POP POP JUMP INVALID LOG2 PUSH5 0x6970667358 0x22 SLT KECCAK256 0xC 0xB1 0xBE 0x2E 0xEE 0xFB 0xC7 POP 0xA7 0xDF 0xFB 0xF8 0x24 GASLIMIT 0xEA PUSH29 0xBA3DEC583F0DE88F175D16E4A9E4EF1C64736F6C634300081A00330000 "
				},
				"gasEstimates": {
					"creation": {
						"codeDepositCost": "517800",
						"executionCost": "547",
						"totalCost": "518347"
					},
					"external": {
						"getByte1(bytes,uint256)": "infinite",
						"getBytes(bytes)": "infinite",
						"getEncode(string)": "infinite",
						"getEncodePacked(string)": "infinite",
						"split(bytes)": "infinite"
					}
				},
				"methodIdentifiers": {
					"getByte1(bytes,uint256)": "cd63efd4",
					"getBytes(bytes)": "781c6dbe",
					"getEncode(string)": "f100cfd3",
					"getEncodePacked(string)": "413cc0db",
					"split(bytes)": "65d894e9"
				}
			},
			"storageLayout": {
				"storage": [],
				"types": null
			},
			"userdoc": {
				"kind": "user",
				"methods": {},
				"version": 1
			}
		}
	}
}