{
	"Code Test/CodeTest_8.sol": {
		"Test8": {
			"abi": [
				{
					"inputs": [
						{
							"internalType": "string",
							"name": "_title",
							"type": "string"
						}
					],
					"name": "getAllIssues",
					"outputs": [
						{
							"components": [
								{
									"internalType": "uint256",
									"name": "number",
									"type": "uint256"
								},
								{
									"internalType": "string",
									"name": "title",
									"type": "string"
								},
								{
									"internalType": "string",
									"name": "body",
									"type": "string"
								},
								{
									"internalType": "address",
									"name": "issuer",
									"type": "address"
								},
								{
									"internalType": "uint256",
									"name": "yes",
									"type": "uint256"
								},
								{
									"internalType": "uint256",
									"name": "no",
									"type": "uint256"
								},
								{
									"internalType": "enum Test8.Status",
									"name": "result",
									"type": "uint8"
								},
								{
									"internalType": "uint256",
									"name": "blockNumber",
									"type": "uint256"
								}
							],
							"internalType": "struct Test8.Issue",
							"name": "",
							"type": "tuple"
						}
					],
					"stateMutability": "view",
					"type": "function"
				},
				{
					"inputs": [],
					"name": "getMyIssue",
					"outputs": [
						{
							"components": [
								{
									"internalType": "uint256",
									"name": "number",
									"type": "uint256"
								},
								{
									"internalType": "string",
									"name": "title",
									"type": "string"
								},
								{
									"internalType": "string",
									"name": "body",
									"type": "string"
								},
								{
									"internalType": "address",
									"name": "issuer",
									"type": "address"
								},
								{
									"internalType": "uint256",
									"name": "yes",
									"type": "uint256"
								},
								{
									"internalType": "uint256",
									"name": "no",
									"type": "uint256"
								},
								{
									"internalType": "enum Test8.Status",
									"name": "result",
									"type": "uint8"
								},
								{
									"internalType": "uint256",
									"name": "blockNumber",
									"type": "uint256"
								}
							],
							"internalType": "struct Test8.Issue[]",
							"name": "",
							"type": "tuple[]"
						}
					],
					"stateMutability": "view",
					"type": "function"
				},
				{
					"inputs": [
						{
							"internalType": "string",
							"name": "",
							"type": "string"
						}
					],
					"name": "issues",
					"outputs": [
						{
							"internalType": "uint256",
							"name": "number",
							"type": "uint256"
						},
						{
							"internalType": "string",
							"name": "title",
							"type": "string"
						},
						{
							"internalType": "string",
							"name": "body",
							"type": "string"
						},
						{
							"internalType": "address",
							"name": "issuer",
							"type": "address"
						},
						{
							"internalType": "uint256",
							"name": "yes",
							"type": "uint256"
						},
						{
							"internalType": "uint256",
							"name": "no",
							"type": "uint256"
						},
						{
							"internalType": "enum Test8.Status",
							"name": "result",
							"type": "uint8"
						},
						{
							"internalType": "uint256",
							"name": "blockNumber",
							"type": "uint256"
						}
					],
					"stateMutability": "view",
					"type": "function"
				},
				{
					"inputs": [
						{
							"internalType": "string",
							"name": "_title",
							"type": "string"
						},
						{
							"internalType": "string",
							"name": "_body",
							"type": "string"
						}
					],
					"name": "setIssue",
					"outputs": [],
					"stateMutability": "nonpayable",
					"type": "function"
				},
				{
					"inputs": [
						{
							"internalType": "string",
							"name": "_title",
							"type": "string"
						}
					],
					"name": "setResult",
					"outputs": [],
					"stateMutability": "nonpayable",
					"type": "function"
				},
				{
					"inputs": [
						{
							"internalType": "string",
							"name": "_name",
							"type": "string"
						}
					],
					"name": "setUser",
					"outputs": [],
					"stateMutability": "nonpayable",
					"type": "function"
				},
				{
					"inputs": [
						{
							"internalType": "string",
							"name": "_title",
							"type": "string"
						},
						{
							"internalType": "bool",
							"name": "_vote",
							"type": "bool"
						}
					],
					"name": "voteForIssue",
					"outputs": [],
					"stateMutability": "nonpayable",
					"type": "function"
				}
			],
			"devdoc": {
				"kind": "dev",
				"methods": {},
				"version": 1
			},
			"evm": {
				"assembly": "    /* \"Code Test/CodeTest_8.sol\":58:5135  contract Test8 {... */\n  mstore(0x40, 0x80)\n    /* \"Code Test/CodeTest_8.sol\":2152:2153  1 */\n  0x01\n    /* \"Code Test/CodeTest_8.sol\":2133:2153  uint issueCounts = 1 */\n  0x03\n  sstore\n    /* \"Code Test/CodeTest_8.sol\":58:5135  contract Test8 {... */\n  callvalue\n  dup1\n  iszero\n  tag_1\n  jumpi\n  0x00\n  dup1\n  revert\ntag_1:\n  pop\n  dataSize(sub_0)\n  dup1\n  dataOffset(sub_0)\n  0x00\n  codecopy\n  0x00\n  return\nstop\n\nsub_0: assembly {\n        /* \"Code Test/CodeTest_8.sol\":58:5135  contract Test8 {... */\n      mstore(0x40, 0x80)\n      callvalue\n      dup1\n      iszero\n      tag_1\n      jumpi\n      0x00\n      dup1\n      revert\n    tag_1:\n      pop\n      jumpi(tag_2, lt(calldatasize, 0x04))\n      shr(0xe0, calldataload(0x00))\n      dup1\n      0x87af313c\n      gt\n      tag_10\n      jumpi\n      dup1\n      0x87af313c\n      eq\n      tag_6\n      jumpi\n      dup1\n      0x88e3cfda\n      eq\n      tag_7\n      jumpi\n      dup1\n      0xd0020fad\n      eq\n      tag_8\n      jumpi\n      dup1\n      0xe38ba436\n      eq\n      tag_9\n      jumpi\n      jump(tag_2)\n    tag_10:\n      dup1\n      0x42c1c43b\n      eq\n      tag_3\n      jumpi\n      dup1\n      0x65c504b5\n      eq\n      tag_4\n      jumpi\n      dup1\n      0x700b82ed\n      eq\n      tag_5\n      jumpi\n    tag_2:\n      0x00\n      dup1\n      revert\n        /* \"Code Test/CodeTest_8.sol\":4503:4859  function getMyIssue() public view returns(Issue[] memory) {... */\n    tag_3:\n      tag_11\n      tag_12\n      jump\t// in\n    tag_11:\n      mload(0x40)\n      tag_13\n      swap2\n      swap1\n      tag_14\n      jump\t// in\n    tag_13:\n      mload(0x40)\n      dup1\n      swap2\n      sub\n      swap1\n      return\n        /* \"Code Test/CodeTest_8.sol\":5015:5131  function getAllIssues(string memory _title) public view returns(Issue memory) {... */\n    tag_4:\n      tag_15\n      0x04\n      dup1\n      calldatasize\n      sub\n      dup2\n      add\n      swap1\n      tag_16\n      swap2\n      swap1\n      tag_17\n      jump\t// in\n    tag_16:\n      tag_18\n      jump\t// in\n    tag_15:\n      mload(0x40)\n      tag_19\n      swap2\n      swap1\n      tag_20\n      jump\t// in\n    tag_19:\n      mload(0x40)\n      dup1\n      swap2\n      sub\n      swap1\n      return\n        /* \"Code Test/CodeTest_8.sol\":3992:4290  function setIssue(string memory _title, string memory _body) public {... */\n    tag_5:\n      tag_21\n      0x04\n      dup1\n      calldatasize\n      sub\n      dup2\n      add\n      swap1\n      tag_22\n      swap2\n      swap1\n      tag_23\n      jump\t// in\n    tag_22:\n      tag_24\n      jump\t// in\n    tag_21:\n      stop\n        /* \"Code Test/CodeTest_8.sol\":2901:3371  function voteForIssue(string memory _title, bool _vote) public {... */\n    tag_6:\n      tag_25\n      0x04\n      dup1\n      calldatasize\n      sub\n      dup2\n      add\n      swap1\n      tag_26\n      swap2\n      swap1\n      tag_27\n      jump\t// in\n    tag_26:\n      tag_28\n      jump\t// in\n    tag_25:\n      stop\n        /* \"Code Test/CodeTest_8.sol\":3469:3906  function setResult(string calldata _title) public {... */\n    tag_7:\n      tag_29\n      0x04\n      dup1\n      calldatasize\n      sub\n      dup2\n      add\n      swap1\n      tag_30\n      swap2\n      swap1\n      tag_31\n      jump\t// in\n    tag_30:\n      tag_32\n      jump\t// in\n    tag_29:\n      stop\n        /* \"Code Test/CodeTest_8.sol\":2226:2469  function setUser(string calldata _name) public {... */\n    tag_8:\n      tag_33\n      0x04\n      dup1\n      calldatasize\n      sub\n      dup2\n      add\n      swap1\n      tag_34\n      swap2\n      swap1\n      tag_31\n      jump\t// in\n    tag_34:\n      tag_35\n      jump\t// in\n    tag_33:\n      stop\n        /* \"Code Test/CodeTest_8.sol\":2088:2126  mapping(string => Issue) public issues */\n    tag_9:\n      tag_36\n      0x04\n      dup1\n      calldatasize\n      sub\n      dup2\n      add\n      swap1\n      tag_37\n      swap2\n      swap1\n      tag_17\n      jump\t// in\n    tag_37:\n      tag_38\n      jump\t// in\n    tag_36:\n      mload(0x40)\n      tag_39\n      swap9\n      swap8\n      swap7\n      swap6\n      swap5\n      swap4\n      swap3\n      swap2\n      swap1\n      tag_40\n      jump\t// in\n    tag_39:\n      mload(0x40)\n      dup1\n      swap2\n      sub\n      swap1\n      return\n        /* \"Code Test/CodeTest_8.sol\":4503:4859  function getMyIssue() public view returns(Issue[] memory) {... */\n    tag_12:\n        /* \"Code Test/CodeTest_8.sol\":4545:4559  Issue[] memory */\n      0x60\n        /* \"Code Test/CodeTest_8.sol\":4571:4594  string[] memory _issues */\n      0x00\n        /* \"Code Test/CodeTest_8.sol\":4597:4602  users */\n      dup1\n        /* \"Code Test/CodeTest_8.sol\":4597:4614  users[msg.sender] */\n      0x00\n        /* \"Code Test/CodeTest_8.sol\":4603:4613  msg.sender */\n      caller\n        /* \"Code Test/CodeTest_8.sol\":4597:4614  users[msg.sender] */\n      0xffffffffffffffffffffffffffffffffffffffff\n      and\n      0xffffffffffffffffffffffffffffffffffffffff\n      and\n      dup2\n      mstore\n      0x20\n      add\n      swap1\n      dup2\n      mstore\n      0x20\n      add\n      0x00\n      keccak256\n        /* \"Code Test/CodeTest_8.sol\":4597:4621  users[msg.sender].issues */\n      0x02\n      add\n        /* \"Code Test/CodeTest_8.sol\":4571:4621  string[] memory _issues = users[msg.sender].issues */\n      dup1\n      sload\n      dup1\n      0x20\n      mul\n      0x20\n      add\n      mload(0x40)\n      swap1\n      dup2\n      add\n      0x40\n      mstore\n      dup1\n      swap3\n      swap2\n      swap1\n      dup2\n      dup2\n      mstore\n      0x20\n      add\n      0x00\n      swap1\n    tag_42:\n      dup3\n      dup3\n      lt\n      iszero\n      tag_43\n      jumpi\n      dup4\n      dup3\n      swap1\n      0x00\n      mstore\n      keccak256(0x00, 0x20)\n      add\n      dup1\n      sload\n      tag_45\n      swap1\n      tag_46\n      jump\t// in\n    tag_45:\n      dup1\n      0x1f\n      add\n      0x20\n      dup1\n      swap2\n      div\n      mul\n      0x20\n      add\n      mload(0x40)\n      swap1\n      dup2\n      add\n      0x40\n      mstore\n      dup1\n      swap3\n      swap2\n      swap1\n      dup2\n      dup2\n      mstore\n      0x20\n      add\n      dup3\n      dup1\n      sload\n      tag_47\n      swap1\n      tag_46\n      jump\t// in\n    tag_47:\n      dup1\n      iszero\n      tag_48\n      jumpi\n      dup1\n      0x1f\n      lt\n      tag_49\n      jumpi\n      0x0100\n      dup1\n      dup4\n      sload\n      div\n      mul\n      dup4\n      mstore\n      swap2\n      0x20\n      add\n      swap2\n      jump(tag_48)\n    tag_49:\n      dup3\n      add\n      swap2\n      swap1\n      0x00\n      mstore\n      keccak256(0x00, 0x20)\n      swap1\n    tag_50:\n      dup2\n      sload\n      dup2\n      mstore\n      swap1\n      0x01\n      add\n      swap1\n      0x20\n      add\n      dup1\n      dup4\n      gt\n      tag_50\n      jumpi\n      dup3\n      swap1\n      sub\n      0x1f\n      and\n      dup3\n      add\n      swap2\n    tag_48:\n      pop\n      pop\n      pop\n      pop\n      pop\n      dup2\n      mstore\n      0x20\n      add\n      swap1\n      0x01\n      add\n      swap1\n      jump(tag_42)\n    tag_43:\n      pop\n      pop\n      pop\n      pop\n      swap1\n      pop\n        /* \"Code Test/CodeTest_8.sol\":4631:4642  uint length */\n      0x00\n        /* \"Code Test/CodeTest_8.sol\":4645:4650  users */\n      dup1\n        /* \"Code Test/CodeTest_8.sol\":4645:4662  users[msg.sender] */\n      0x00\n        /* \"Code Test/CodeTest_8.sol\":4651:4661  msg.sender */\n      caller\n        /* \"Code Test/CodeTest_8.sol\":4645:4662  users[msg.sender] */\n      0xffffffffffffffffffffffffffffffffffffffff\n      and\n      0xffffffffffffffffffffffffffffffffffffffff\n      and\n      dup2\n      mstore\n      0x20\n      add\n      swap1\n      dup2\n      mstore\n      0x20\n      add\n      0x00\n      keccak256\n        /* \"Code Test/CodeTest_8.sol\":4645:4669  users[msg.sender].issues */\n      0x02\n      add\n        /* \"Code Test/CodeTest_8.sol\":4645:4676  users[msg.sender].issues.length */\n      dup1\n      sload\n      swap1\n      pop\n        /* \"Code Test/CodeTest_8.sol\":4631:4676  uint length = users[msg.sender].issues.length */\n      swap1\n      pop\n        /* \"Code Test/CodeTest_8.sol\":4687:4710  Issue[] memory myIssues */\n      0x00\n        /* \"Code Test/CodeTest_8.sol\":4726:4732  length */\n      dup2\n        /* \"Code Test/CodeTest_8.sol\":4713:4733  new Issue[] (length) */\n      0xffffffffffffffff\n      dup2\n      gt\n      iszero\n      tag_51\n      jumpi\n      tag_52\n      tag_53\n      jump\t// in\n    tag_52:\n    tag_51:\n      mload(0x40)\n      swap1\n      dup1\n      dup3\n      mstore\n      dup1\n      0x20\n      mul\n      0x20\n      add\n      dup3\n      add\n      0x40\n      mstore\n      dup1\n      iszero\n      tag_54\n      jumpi\n      dup2\n      0x20\n      add\n    tag_55:\n      tag_56\n      tag_57\n      jump\t// in\n    tag_56:\n      dup2\n      mstore\n      0x20\n      add\n      swap1\n      0x01\n      swap1\n      sub\n      swap1\n      dup2\n      tag_55\n      jumpi\n      swap1\n      pop\n    tag_54:\n      pop\n        /* \"Code Test/CodeTest_8.sol\":4687:4733  Issue[] memory myIssues = new Issue[] (length) */\n      swap1\n      pop\n        /* \"Code Test/CodeTest_8.sol\":4747:4753  uint i */\n      0x00\n        /* \"Code Test/CodeTest_8.sol\":4743:4827  for(uint i=0;i<length;i++) {... */\n    tag_58:\n        /* \"Code Test/CodeTest_8.sol\":4758:4764  length */\n      dup3\n        /* \"Code Test/CodeTest_8.sol\":4756:4757  i */\n      dup2\n        /* \"Code Test/CodeTest_8.sol\":4756:4764  i<length */\n      lt\n        /* \"Code Test/CodeTest_8.sol\":4743:4827  for(uint i=0;i<length;i++) {... */\n      iszero\n      tag_59\n      jumpi\n        /* \"Code Test/CodeTest_8.sol\":4798:4804  issues */\n      0x02\n        /* \"Code Test/CodeTest_8.sol\":4805:4812  _issues */\n      dup5\n        /* \"Code Test/CodeTest_8.sol\":4813:4814  i */\n      dup3\n        /* \"Code Test/CodeTest_8.sol\":4805:4815  _issues[i] */\n      dup2\n      mload\n      dup2\n      lt\n      tag_61\n      jumpi\n      tag_62\n      tag_63\n      jump\t// in\n    tag_62:\n    tag_61:\n      0x20\n      mul\n      0x20\n      add\n      add\n      mload\n        /* \"Code Test/CodeTest_8.sol\":4798:4816  issues[_issues[i]] */\n      mload(0x40)\n      tag_64\n      swap2\n      swap1\n      tag_65\n      jump\t// in\n    tag_64:\n      swap1\n      dup2\n      mstore\n      0x20\n      add\n      mload(0x40)\n      dup1\n      swap2\n      sub\n      swap1\n      keccak256\n        /* \"Code Test/CodeTest_8.sol\":4784:4816  myIssues[i] = issues[_issues[i]] */\n      mload(0x40)\n      dup1\n      0x0100\n      add\n      0x40\n      mstore\n      swap1\n      dup2\n      0x00\n      dup3\n      add\n      sload\n      dup2\n      mstore\n      0x20\n      add\n      0x01\n      dup3\n      add\n      dup1\n      sload\n      tag_66\n      swap1\n      tag_46\n      jump\t// in\n    tag_66:\n      dup1\n      0x1f\n      add\n      0x20\n      dup1\n      swap2\n      div\n      mul\n      0x20\n      add\n      mload(0x40)\n      swap1\n      dup2\n      add\n      0x40\n      mstore\n      dup1\n      swap3\n      swap2\n      swap1\n      dup2\n      dup2\n      mstore\n      0x20\n      add\n      dup3\n      dup1\n      sload\n      tag_67\n      swap1\n      tag_46\n      jump\t// in\n    tag_67:\n      dup1\n      iszero\n      tag_68\n      jumpi\n      dup1\n      0x1f\n      lt\n      tag_69\n      jumpi\n      0x0100\n      dup1\n      dup4\n      sload\n      div\n      mul\n      dup4\n      mstore\n      swap2\n      0x20\n      add\n      swap2\n      jump(tag_68)\n    tag_69:\n      dup3\n      add\n      swap2\n      swap1\n      0x00\n      mstore\n      keccak256(0x00, 0x20)\n      swap1\n    tag_70:\n      dup2\n      sload\n      dup2\n      mstore\n      swap1\n      0x01\n      add\n      swap1\n      0x20\n      add\n      dup1\n      dup4\n      gt\n      tag_70\n      jumpi\n      dup3\n      swap1\n      sub\n      0x1f\n      and\n      dup3\n      add\n      swap2\n    tag_68:\n      pop\n      pop\n      pop\n      pop\n      pop\n      dup2\n      mstore\n      0x20\n      add\n      0x02\n      dup3\n      add\n      dup1\n      sload\n      tag_71\n      swap1\n      tag_46\n      jump\t// in\n    tag_71:\n      dup1\n      0x1f\n      add\n      0x20\n      dup1\n      swap2\n      div\n      mul\n      0x20\n      add\n      mload(0x40)\n      swap1\n      dup2\n      add\n      0x40\n      mstore\n      dup1\n      swap3\n      swap2\n      swap1\n      dup2\n      dup2\n      mstore\n      0x20\n      add\n      dup3\n      dup1\n      sload\n      tag_72\n      swap1\n      tag_46\n      jump\t// in\n    tag_72:\n      dup1\n      iszero\n      tag_73\n      jumpi\n      dup1\n      0x1f\n      lt\n      tag_74\n      jumpi\n      0x0100\n      dup1\n      dup4\n      sload\n      div\n      mul\n      dup4\n      mstore\n      swap2\n      0x20\n      add\n      swap2\n      jump(tag_73)\n    tag_74:\n      dup3\n      add\n      swap2\n      swap1\n      0x00\n      mstore\n      keccak256(0x00, 0x20)\n      swap1\n    tag_75:\n      dup2\n      sload\n      dup2\n      mstore\n      swap1\n      0x01\n      add\n      swap1\n      0x20\n      add\n      dup1\n      dup4\n      gt\n      tag_75\n      jumpi\n      dup3\n      swap1\n      sub\n      0x1f\n      and\n      dup3\n      add\n      swap2\n    tag_73:\n      pop\n      pop\n      pop\n      pop\n      pop\n      dup2\n      mstore\n      0x20\n      add\n      0x03\n      dup3\n      add\n      0x00\n      swap1\n      sload\n      swap1\n      0x0100\n      exp\n      swap1\n      div\n      0xffffffffffffffffffffffffffffffffffffffff\n      and\n      0xffffffffffffffffffffffffffffffffffffffff\n      and\n      0xffffffffffffffffffffffffffffffffffffffff\n      and\n      dup2\n      mstore\n      0x20\n      add\n      0x04\n      dup3\n      add\n      sload\n      dup2\n      mstore\n      0x20\n      add\n      0x05\n      dup3\n      add\n      sload\n      dup2\n      mstore\n      0x20\n      add\n      0x06\n      dup3\n      add\n      0x00\n      swap1\n      sload\n      swap1\n      0x0100\n      exp\n      swap1\n      div\n      0xff\n      and\n      0x02\n      dup2\n      gt\n      iszero\n      tag_76\n      jumpi\n      tag_77\n      tag_78\n      jump\t// in\n    tag_77:\n    tag_76:\n      0x02\n      dup2\n      gt\n      iszero\n      tag_79\n      jumpi\n      tag_80\n      tag_78\n      jump\t// in\n    tag_80:\n    tag_79:\n      dup2\n      mstore\n      0x20\n      add\n      0x07\n      dup3\n      add\n      sload\n      dup2\n      mstore\n      pop\n      pop\n        /* \"Code Test/CodeTest_8.sol\":4784:4792  myIssues */\n      dup3\n        /* \"Code Test/CodeTest_8.sol\":4793:4794  i */\n      dup3\n        /* \"Code Test/CodeTest_8.sol\":4784:4795  myIssues[i] */\n      dup2\n      mload\n      dup2\n      lt\n      tag_81\n      jumpi\n      tag_82\n      tag_63\n      jump\t// in\n    tag_82:\n    tag_81:\n      0x20\n      mul\n      0x20\n      add\n      add\n        /* \"Code Test/CodeTest_8.sol\":4784:4816  myIssues[i] = issues[_issues[i]] */\n      dup2\n      swap1\n      mstore\n      pop\n        /* \"Code Test/CodeTest_8.sol\":4765:4768  i++ */\n      dup1\n      dup1\n      0x01\n      add\n      swap2\n      pop\n      pop\n        /* \"Code Test/CodeTest_8.sol\":4743:4827  for(uint i=0;i<length;i++) {... */\n      jump(tag_58)\n    tag_59:\n      pop\n        /* \"Code Test/CodeTest_8.sol\":4844:4852  myIssues */\n      dup1\n        /* \"Code Test/CodeTest_8.sol\":4837:4852  return myIssues */\n      swap4\n      pop\n      pop\n      pop\n      pop\n        /* \"Code Test/CodeTest_8.sol\":4503:4859  function getMyIssue() public view returns(Issue[] memory) {... */\n      swap1\n      jump\t// out\n        /* \"Code Test/CodeTest_8.sol\":5015:5131  function getAllIssues(string memory _title) public view returns(Issue memory) {... */\n    tag_18:\n        /* \"Code Test/CodeTest_8.sol\":5079:5091  Issue memory */\n      tag_83\n      tag_57\n      jump\t// in\n    tag_83:\n        /* \"Code Test/CodeTest_8.sol\":5110:5116  issues */\n      0x02\n        /* \"Code Test/CodeTest_8.sol\":5117:5123  _title */\n      dup3\n        /* \"Code Test/CodeTest_8.sol\":5110:5124  issues[_title] */\n      mload(0x40)\n      tag_85\n      swap2\n      swap1\n      tag_65\n      jump\t// in\n    tag_85:\n      swap1\n      dup2\n      mstore\n      0x20\n      add\n      mload(0x40)\n      dup1\n      swap2\n      sub\n      swap1\n      keccak256\n        /* \"Code Test/CodeTest_8.sol\":5103:5124  return issues[_title] */\n      mload(0x40)\n      dup1\n      0x0100\n      add\n      0x40\n      mstore\n      swap1\n      dup2\n      0x00\n      dup3\n      add\n      sload\n      dup2\n      mstore\n      0x20\n      add\n      0x01\n      dup3\n      add\n      dup1\n      sload\n      tag_86\n      swap1\n      tag_46\n      jump\t// in\n    tag_86:\n      dup1\n      0x1f\n      add\n      0x20\n      dup1\n      swap2\n      div\n      mul\n      0x20\n      add\n      mload(0x40)\n      swap1\n      dup2\n      add\n      0x40\n      mstore\n      dup1\n      swap3\n      swap2\n      swap1\n      dup2\n      dup2\n      mstore\n      0x20\n      add\n      dup3\n      dup1\n      sload\n      tag_87\n      swap1\n      tag_46\n      jump\t// in\n    tag_87:\n      dup1\n      iszero\n      tag_88\n      jumpi\n      dup1\n      0x1f\n      lt\n      tag_89\n      jumpi\n      0x0100\n      dup1\n      dup4\n      sload\n      div\n      mul\n      dup4\n      mstore\n      swap2\n      0x20\n      add\n      swap2\n      jump(tag_88)\n    tag_89:\n      dup3\n      add\n      swap2\n      swap1\n      0x00\n      mstore\n      keccak256(0x00, 0x20)\n      swap1\n    tag_90:\n      dup2\n      sload\n      dup2\n      mstore\n      swap1\n      0x01\n      add\n      swap1\n      0x20\n      add\n      dup1\n      dup4\n      gt\n      tag_90\n      jumpi\n      dup3\n      swap1\n      sub\n      0x1f\n      and\n      dup3\n      add\n      swap2\n    tag_88:\n      pop\n      pop\n      pop\n      pop\n      pop\n      dup2\n      mstore\n      0x20\n      add\n      0x02\n      dup3\n      add\n      dup1\n      sload\n      tag_91\n      swap1\n      tag_46\n      jump\t// in\n    tag_91:\n      dup1\n      0x1f\n      add\n      0x20\n      dup1\n      swap2\n      div\n      mul\n      0x20\n      add\n      mload(0x40)\n      swap1\n      dup2\n      add\n      0x40\n      mstore\n      dup1\n      swap3\n      swap2\n      swap1\n      dup2\n      dup2\n      mstore\n      0x20\n      add\n      dup3\n      dup1\n      sload\n      tag_92\n      swap1\n      tag_46\n      jump\t// in\n    tag_92:\n      dup1\n      iszero\n      tag_93\n      jumpi\n      dup1\n      0x1f\n      lt\n      tag_94\n      jumpi\n      0x0100\n      dup1\n      dup4\n      sload\n      div\n      mul\n      dup4\n      mstore\n      swap2\n      0x20\n      add\n      swap2\n      jump(tag_93)\n    tag_94:\n      dup3\n      add\n      swap2\n      swap1\n      0x00\n      mstore\n      keccak256(0x00, 0x20)\n      swap1\n    tag_95:\n      dup2\n      sload\n      dup2\n      mstore\n      swap1\n      0x01\n      add\n      swap1\n      0x20\n      add\n      dup1\n      dup4\n      gt\n      tag_95\n      jumpi\n      dup3\n      swap1\n      sub\n      0x1f\n      and\n      dup3\n      add\n      swap2\n    tag_93:\n      pop\n      pop\n      pop\n      pop\n      pop\n      dup2\n      mstore\n      0x20\n      add\n      0x03\n      dup3\n      add\n      0x00\n      swap1\n      sload\n      swap1\n      0x0100\n      exp\n      swap1\n      div\n      0xffffffffffffffffffffffffffffffffffffffff\n      and\n      0xffffffffffffffffffffffffffffffffffffffff\n      and\n      0xffffffffffffffffffffffffffffffffffffffff\n      and\n      dup2\n      mstore\n      0x20\n      add\n      0x04\n      dup3\n      add\n      sload\n      dup2\n      mstore\n      0x20\n      add\n      0x05\n      dup3\n      add\n      sload\n      dup2\n      mstore\n      0x20\n      add\n      0x06\n      dup3\n      add\n      0x00\n      swap1\n      sload\n      swap1\n      0x0100\n      exp\n      swap1\n      div\n      0xff\n      and\n      0x02\n      dup2\n      gt\n      iszero\n      tag_96\n      jumpi\n      tag_97\n      tag_78\n      jump\t// in\n    tag_97:\n    tag_96:\n      0x02\n      dup2\n      gt\n      iszero\n      tag_98\n      jumpi\n      tag_99\n      tag_78\n      jump\t// in\n    tag_99:\n    tag_98:\n      dup2\n      mstore\n      0x20\n      add\n      0x07\n      dup3\n      add\n      sload\n      dup2\n      mstore\n      pop\n      pop\n      swap1\n      pop\n        /* \"Code Test/CodeTest_8.sol\":5015:5131  function getAllIssues(string memory _title) public view returns(Issue memory) {... */\n      swap2\n      swap1\n      pop\n      jump\t// out\n        /* \"Code Test/CodeTest_8.sol\":3992:4290  function setIssue(string memory _title, string memory _body) public {... */\n    tag_24:\n        /* \"Code Test/CodeTest_8.sol\":4103:4104  0 */\n      0x00\n        /* \"Code Test/CodeTest_8.sol\":4078:4084  issues */\n      0x02\n        /* \"Code Test/CodeTest_8.sol\":4085:4091  _title */\n      dup4\n        /* \"Code Test/CodeTest_8.sol\":4078:4092  issues[_title] */\n      mload(0x40)\n      tag_101\n      swap2\n      swap1\n      tag_65\n      jump\t// in\n    tag_101:\n      swap1\n      dup2\n      mstore\n      0x20\n      add\n      mload(0x40)\n      dup1\n      swap2\n      sub\n      swap1\n      keccak256\n        /* \"Code Test/CodeTest_8.sol\":4078:4099  issues[_title].number */\n      0x00\n      add\n      sload\n        /* \"Code Test/CodeTest_8.sol\":4078:4104  issues[_title].number == 0 */\n      eq\n        /* \"Code Test/CodeTest_8.sol\":4070:4129  require(issues[_title].number == 0, \"issue already exists\") */\n      tag_102\n      jumpi\n      mload(0x40)\n      0x08c379a000000000000000000000000000000000000000000000000000000000\n      dup2\n      mstore\n      0x04\n      add\n      tag_103\n      swap1\n      tag_104\n      jump\t// in\n    tag_103:\n      mload(0x40)\n      dup1\n      swap2\n      sub\n      swap1\n      revert\n    tag_102:\n        /* \"Code Test/CodeTest_8.sol\":4156:4235  Issue(issueCounts++,_title, _body, msg.sender,0,0,Status.ongoing, block.number) */\n      mload(0x40)\n      dup1\n      0x0100\n      add\n      0x40\n      mstore\n      dup1\n        /* \"Code Test/CodeTest_8.sol\":4162:4173  issueCounts */\n      0x03\n      0x00\n        /* \"Code Test/CodeTest_8.sol\":4162:4175  issueCounts++ */\n      dup2\n      sload\n      dup1\n      swap3\n      swap2\n      swap1\n      tag_105\n      swap1\n      tag_106\n      jump\t// in\n    tag_105:\n      swap2\n      swap1\n      pop\n      sstore\n        /* \"Code Test/CodeTest_8.sol\":4156:4235  Issue(issueCounts++,_title, _body, msg.sender,0,0,Status.ongoing, block.number) */\n      dup2\n      mstore\n      0x20\n      add\n        /* \"Code Test/CodeTest_8.sol\":4176:4182  _title */\n      dup4\n        /* \"Code Test/CodeTest_8.sol\":4156:4235  Issue(issueCounts++,_title, _body, msg.sender,0,0,Status.ongoing, block.number) */\n      dup2\n      mstore\n      0x20\n      add\n        /* \"Code Test/CodeTest_8.sol\":4184:4189  _body */\n      dup3\n        /* \"Code Test/CodeTest_8.sol\":4156:4235  Issue(issueCounts++,_title, _body, msg.sender,0,0,Status.ongoing, block.number) */\n      dup2\n      mstore\n      0x20\n      add\n        /* \"Code Test/CodeTest_8.sol\":4191:4201  msg.sender */\n      caller\n        /* \"Code Test/CodeTest_8.sol\":4156:4235  Issue(issueCounts++,_title, _body, msg.sender,0,0,Status.ongoing, block.number) */\n      0xffffffffffffffffffffffffffffffffffffffff\n      and\n      dup2\n      mstore\n      0x20\n      add\n        /* \"Code Test/CodeTest_8.sol\":4202:4203  0 */\n      0x00\n        /* \"Code Test/CodeTest_8.sol\":4156:4235  Issue(issueCounts++,_title, _body, msg.sender,0,0,Status.ongoing, block.number) */\n      dup2\n      mstore\n      0x20\n      add\n        /* \"Code Test/CodeTest_8.sol\":4204:4205  0 */\n      0x00\n        /* \"Code Test/CodeTest_8.sol\":4156:4235  Issue(issueCounts++,_title, _body, msg.sender,0,0,Status.ongoing, block.number) */\n      dup2\n      mstore\n      0x20\n      add\n        /* \"Code Test/CodeTest_8.sol\":4206:4220  Status.ongoing */\n      0x00\n        /* \"Code Test/CodeTest_8.sol\":4156:4235  Issue(issueCounts++,_title, _body, msg.sender,0,0,Status.ongoing, block.number) */\n      0x02\n      dup2\n      gt\n      iszero\n      tag_107\n      jumpi\n      tag_108\n      tag_78\n      jump\t// in\n    tag_108:\n    tag_107:\n      dup2\n      mstore\n      0x20\n      add\n        /* \"Code Test/CodeTest_8.sol\":4222:4234  block.number */\n      number\n        /* \"Code Test/CodeTest_8.sol\":4156:4235  Issue(issueCounts++,_title, _body, msg.sender,0,0,Status.ongoing, block.number) */\n      dup2\n      mstore\n      pop\n        /* \"Code Test/CodeTest_8.sol\":4139:4145  issues */\n      0x02\n        /* \"Code Test/CodeTest_8.sol\":4146:4152  _title */\n      dup4\n        /* \"Code Test/CodeTest_8.sol\":4139:4153  issues[_title] */\n      mload(0x40)\n      tag_109\n      swap2\n      swap1\n      tag_65\n      jump\t// in\n    tag_109:\n      swap1\n      dup2\n      mstore\n      0x20\n      add\n      mload(0x40)\n      dup1\n      swap2\n      sub\n      swap1\n      keccak256\n        /* \"Code Test/CodeTest_8.sol\":4139:4235  issues[_title] = Issue(issueCounts++,_title, _body, msg.sender,0,0,Status.ongoing, block.number) */\n      0x00\n      dup3\n      add\n      mload\n      dup2\n      0x00\n      add\n      sstore\n      0x20\n      dup3\n      add\n      mload\n      dup2\n      0x01\n      add\n      swap1\n      dup2\n      tag_110\n      swap2\n      swap1\n      tag_111\n      jump\t// in\n    tag_110:\n      pop\n      0x40\n      dup3\n      add\n      mload\n      dup2\n      0x02\n      add\n      swap1\n      dup2\n      tag_112\n      swap2\n      swap1\n      tag_111\n      jump\t// in\n    tag_112:\n      pop\n      0x60\n      dup3\n      add\n      mload\n      dup2\n      0x03\n      add\n      exp(0x0100, 0x00)\n      dup2\n      sload\n      dup2\n      0xffffffffffffffffffffffffffffffffffffffff\n      mul\n      not\n      and\n      swap1\n      dup4\n      0xffffffffffffffffffffffffffffffffffffffff\n      and\n      mul\n      or\n      swap1\n      sstore\n      pop\n      0x80\n      dup3\n      add\n      mload\n      dup2\n      0x04\n      add\n      sstore\n      0xa0\n      dup3\n      add\n      mload\n      dup2\n      0x05\n      add\n      sstore\n      0xc0\n      dup3\n      add\n      mload\n      dup2\n      0x06\n      add\n      exp(0x0100, 0x00)\n      dup2\n      sload\n      dup2\n      0xff\n      mul\n      not\n      and\n      swap1\n      dup4\n      0x02\n      dup2\n      gt\n      iszero\n      tag_113\n      jumpi\n      tag_114\n      tag_78\n      jump\t// in\n    tag_114:\n    tag_113:\n      mul\n      or\n      swap1\n      sstore\n      pop\n      0xe0\n      dup3\n      add\n      mload\n      dup2\n      0x07\n      add\n      sstore\n      swap1\n      pop\n      pop\n        /* \"Code Test/CodeTest_8.sol\":4246:4251  users */\n      0x00\n        /* \"Code Test/CodeTest_8.sol\":4246:4263  users[msg.sender] */\n      dup1\n        /* \"Code Test/CodeTest_8.sol\":4252:4262  msg.sender */\n      caller\n        /* \"Code Test/CodeTest_8.sol\":4246:4263  users[msg.sender] */\n      0xffffffffffffffffffffffffffffffffffffffff\n      and\n      0xffffffffffffffffffffffffffffffffffffffff\n      and\n      dup2\n      mstore\n      0x20\n      add\n      swap1\n      dup2\n      mstore\n      0x20\n      add\n      0x00\n      keccak256\n        /* \"Code Test/CodeTest_8.sol\":4246:4270  users[msg.sender].issues */\n      0x02\n      add\n        /* \"Code Test/CodeTest_8.sol\":4276:4282  _title */\n      dup3\n        /* \"Code Test/CodeTest_8.sol\":4246:4283  users[msg.sender].issues.push(_title) */\n      swap1\n      dup1\n      0x01\n      dup2\n      sload\n      add\n      dup1\n      dup3\n      sstore\n      dup1\n      swap2\n      pop\n      pop\n      0x01\n      swap1\n      sub\n      swap1\n      0x00\n      mstore\n      keccak256(0x00, 0x20)\n      add\n      0x00\n      swap1\n      swap2\n      swap1\n      swap2\n      swap1\n      swap2\n      pop\n      swap1\n      dup2\n      tag_116\n      swap2\n      swap1\n      tag_111\n      jump\t// in\n    tag_116:\n      pop\n        /* \"Code Test/CodeTest_8.sol\":3992:4290  function setIssue(string memory _title, string memory _body) public {... */\n      pop\n      pop\n      jump\t// out\n        /* \"Code Test/CodeTest_8.sol\":2901:3371  function voteForIssue(string memory _title, bool _vote) public {... */\n    tag_28:\n        /* \"Code Test/CodeTest_8.sol\":3017:3022  false */\n      0x00\n        /* \"Code Test/CodeTest_8.sol\":2982:3022  users[msg.sender].voted[_title] == false */\n      iszero\n      iszero\n        /* \"Code Test/CodeTest_8.sol\":2982:2987  users */\n      0x00\n        /* \"Code Test/CodeTest_8.sol\":2982:2999  users[msg.sender] */\n      dup1\n        /* \"Code Test/CodeTest_8.sol\":2988:2998  msg.sender */\n      caller\n        /* \"Code Test/CodeTest_8.sol\":2982:2999  users[msg.sender] */\n      0xffffffffffffffffffffffffffffffffffffffff\n      and\n      0xffffffffffffffffffffffffffffffffffffffff\n      and\n      dup2\n      mstore\n      0x20\n      add\n      swap1\n      dup2\n      mstore\n      0x20\n      add\n      0x00\n      keccak256\n        /* \"Code Test/CodeTest_8.sol\":2982:3005  users[msg.sender].voted */\n      0x04\n      add\n        /* \"Code Test/CodeTest_8.sol\":3006:3012  _title */\n      dup4\n        /* \"Code Test/CodeTest_8.sol\":2982:3013  users[msg.sender].voted[_title] */\n      mload(0x40)\n      tag_118\n      swap2\n      swap1\n      tag_65\n      jump\t// in\n    tag_118:\n      swap1\n      dup2\n      mstore\n      0x20\n      add\n      mload(0x40)\n      dup1\n      swap2\n      sub\n      swap1\n      keccak256\n      0x00\n      swap1\n      sload\n      swap1\n      0x0100\n      exp\n      swap1\n      div\n      0xff\n      and\n        /* \"Code Test/CodeTest_8.sol\":2982:3022  users[msg.sender].voted[_title] == false */\n      iszero\n      iszero\n      eq\n        /* \"Code Test/CodeTest_8.sol\":2974:3040  require(users[msg.sender].voted[_title] == false, \"already voted\") */\n      tag_119\n      jumpi\n      mload(0x40)\n      0x08c379a000000000000000000000000000000000000000000000000000000000\n      dup2\n      mstore\n      0x04\n      add\n      tag_120\n      swap1\n      tag_121\n      jump\t// in\n    tag_120:\n      mload(0x40)\n      dup1\n      swap2\n      sub\n      swap1\n      revert\n    tag_119:\n        /* \"Code Test/CodeTest_8.sol\":3103:3105  15 */\n      0x0f\n        /* \"Code Test/CodeTest_8.sol\":3074:3080  issues */\n      0x02\n        /* \"Code Test/CodeTest_8.sol\":3081:3087  _title */\n      dup4\n        /* \"Code Test/CodeTest_8.sol\":3074:3088  issues[_title] */\n      mload(0x40)\n      tag_122\n      swap2\n      swap1\n      tag_65\n      jump\t// in\n    tag_122:\n      swap1\n      dup2\n      mstore\n      0x20\n      add\n      mload(0x40)\n      dup1\n      swap2\n      sub\n      swap1\n      keccak256\n        /* \"Code Test/CodeTest_8.sol\":3074:3100  issues[_title].blockNumber */\n      0x07\n      add\n      sload\n        /* \"Code Test/CodeTest_8.sol\":3074:3105  issues[_title].blockNumber + 15 */\n      tag_123\n      swap2\n      swap1\n      tag_124\n      jump\t// in\n    tag_123:\n        /* \"Code Test/CodeTest_8.sol\":3058:3070  block.number */\n      number\n        /* \"Code Test/CodeTest_8.sol\":3058:3105  block.number <= issues[_title].blockNumber + 15 */\n      gt\n      iszero\n        /* \"Code Test/CodeTest_8.sol\":3058:3148  block.number <= issues[_title].blockNumber + 15 && issues[_title].result == Status.ongoing */\n      dup1\n      iszero\n      tag_125\n      jumpi\n      pop\n        /* \"Code Test/CodeTest_8.sol\":3134:3148  Status.ongoing */\n      0x00\n        /* \"Code Test/CodeTest_8.sol\":3109:3148  issues[_title].result == Status.ongoing */\n      0x02\n      dup2\n      gt\n      iszero\n      tag_126\n      jumpi\n      tag_127\n      tag_78\n      jump\t// in\n    tag_127:\n    tag_126:\n        /* \"Code Test/CodeTest_8.sol\":3109:3115  issues */\n      0x02\n        /* \"Code Test/CodeTest_8.sol\":3116:3122  _title */\n      dup4\n        /* \"Code Test/CodeTest_8.sol\":3109:3123  issues[_title] */\n      mload(0x40)\n      tag_128\n      swap2\n      swap1\n      tag_65\n      jump\t// in\n    tag_128:\n      swap1\n      dup2\n      mstore\n      0x20\n      add\n      mload(0x40)\n      dup1\n      swap2\n      sub\n      swap1\n      keccak256\n        /* \"Code Test/CodeTest_8.sol\":3109:3130  issues[_title].result */\n      0x06\n      add\n      0x00\n      swap1\n      sload\n      swap1\n      0x0100\n      exp\n      swap1\n      div\n      0xff\n      and\n        /* \"Code Test/CodeTest_8.sol\":3109:3148  issues[_title].result == Status.ongoing */\n      0x02\n      dup2\n      gt\n      iszero\n      tag_129\n      jumpi\n      tag_130\n      tag_78\n      jump\t// in\n    tag_130:\n    tag_129:\n      eq\n        /* \"Code Test/CodeTest_8.sol\":3058:3148  block.number <= issues[_title].blockNumber + 15 && issues[_title].result == Status.ongoing */\n    tag_125:\n        /* \"Code Test/CodeTest_8.sol\":3050:3149  require(block.number <= issues[_title].blockNumber + 15 && issues[_title].result == Status.ongoing) */\n      tag_131\n      jumpi\n      0x00\n      dup1\n      revert\n    tag_131:\n        /* \"Code Test/CodeTest_8.sol\":3163:3168  _vote */\n      dup1\n        /* \"Code Test/CodeTest_8.sol\":3159:3317  if (_vote) {... */\n      iszero\n      tag_132\n      jumpi\n        /* \"Code Test/CodeTest_8.sol\":3184:3190  issues */\n      0x02\n        /* \"Code Test/CodeTest_8.sol\":3191:3197  _title */\n      dup3\n        /* \"Code Test/CodeTest_8.sol\":3184:3198  issues[_title] */\n      mload(0x40)\n      tag_133\n      swap2\n      swap1\n      tag_65\n      jump\t// in\n    tag_133:\n      swap1\n      dup2\n      mstore\n      0x20\n      add\n      mload(0x40)\n      dup1\n      swap2\n      sub\n      swap1\n      keccak256\n        /* \"Code Test/CodeTest_8.sol\":3184:3202  issues[_title].yes */\n      0x04\n      add\n      0x00\n        /* \"Code Test/CodeTest_8.sol\":3184:3204  issues[_title].yes++ */\n      dup2\n      sload\n      dup1\n      swap3\n      swap2\n      swap1\n      tag_134\n      swap1\n      tag_106\n      jump\t// in\n    tag_134:\n      swap2\n      swap1\n      pop\n      sstore\n      pop\n        /* \"Code Test/CodeTest_8.sol\":3252:3256  true */\n      0x01\n        /* \"Code Test/CodeTest_8.sol\":3218:3223  users */\n      0x00\n        /* \"Code Test/CodeTest_8.sol\":3218:3235  users[msg.sender] */\n      dup1\n        /* \"Code Test/CodeTest_8.sol\":3224:3234  msg.sender */\n      caller\n        /* \"Code Test/CodeTest_8.sol\":3218:3235  users[msg.sender] */\n      0xffffffffffffffffffffffffffffffffffffffff\n      and\n      0xffffffffffffffffffffffffffffffffffffffff\n      and\n      dup2\n      mstore\n      0x20\n      add\n      swap1\n      dup2\n      mstore\n      0x20\n      add\n      0x00\n      keccak256\n        /* \"Code Test/CodeTest_8.sol\":3218:3241  users[msg.sender].votes */\n      0x03\n      add\n        /* \"Code Test/CodeTest_8.sol\":3242:3248  _title */\n      dup4\n        /* \"Code Test/CodeTest_8.sol\":3218:3249  users[msg.sender].votes[_title] */\n      mload(0x40)\n      tag_135\n      swap2\n      swap1\n      tag_65\n      jump\t// in\n    tag_135:\n      swap1\n      dup2\n      mstore\n      0x20\n      add\n      mload(0x40)\n      dup1\n      swap2\n      sub\n      swap1\n      keccak256\n      0x00\n        /* \"Code Test/CodeTest_8.sol\":3218:3256  users[msg.sender].votes[_title] = true */\n      0x0100\n      exp\n      dup2\n      sload\n      dup2\n      0xff\n      mul\n      not\n      and\n      swap1\n      dup4\n      iszero\n      iszero\n      mul\n      or\n      swap1\n      sstore\n      pop\n        /* \"Code Test/CodeTest_8.sol\":3159:3317  if (_vote) {... */\n      jump(tag_136)\n    tag_132:\n        /* \"Code Test/CodeTest_8.sol\":3287:3293  issues */\n      0x02\n        /* \"Code Test/CodeTest_8.sol\":3294:3300  _title */\n      dup3\n        /* \"Code Test/CodeTest_8.sol\":3287:3301  issues[_title] */\n      mload(0x40)\n      tag_137\n      swap2\n      swap1\n      tag_65\n      jump\t// in\n    tag_137:\n      swap1\n      dup2\n      mstore\n      0x20\n      add\n      mload(0x40)\n      dup1\n      swap2\n      sub\n      swap1\n      keccak256\n        /* \"Code Test/CodeTest_8.sol\":3287:3304  issues[_title].no */\n      0x05\n      add\n      0x00\n        /* \"Code Test/CodeTest_8.sol\":3287:3306  issues[_title].no-- */\n      dup2\n      sload\n      dup1\n      swap3\n      swap2\n      swap1\n      tag_138\n      swap1\n      tag_139\n      jump\t// in\n    tag_138:\n      swap2\n      swap1\n      pop\n      sstore\n      pop\n        /* \"Code Test/CodeTest_8.sol\":3159:3317  if (_vote) {... */\n    tag_136:\n        /* \"Code Test/CodeTest_8.sol\":3360:3364  true */\n      0x01\n        /* \"Code Test/CodeTest_8.sol\":3326:3331  users */\n      0x00\n        /* \"Code Test/CodeTest_8.sol\":3326:3343  users[msg.sender] */\n      dup1\n        /* \"Code Test/CodeTest_8.sol\":3332:3342  msg.sender */\n      caller\n        /* \"Code Test/CodeTest_8.sol\":3326:3343  users[msg.sender] */\n      0xffffffffffffffffffffffffffffffffffffffff\n      and\n      0xffffffffffffffffffffffffffffffffffffffff\n      and\n      dup2\n      mstore\n      0x20\n      add\n      swap1\n      dup2\n      mstore\n      0x20\n      add\n      0x00\n      keccak256\n        /* \"Code Test/CodeTest_8.sol\":3326:3349  users[msg.sender].voted */\n      0x04\n      add\n        /* \"Code Test/CodeTest_8.sol\":3350:3356  _title */\n      dup4\n        /* \"Code Test/CodeTest_8.sol\":3326:3357  users[msg.sender].voted[_title] */\n      mload(0x40)\n      tag_140\n      swap2\n      swap1\n      tag_65\n      jump\t// in\n    tag_140:\n      swap1\n      dup2\n      mstore\n      0x20\n      add\n      mload(0x40)\n      dup1\n      swap2\n      sub\n      swap1\n      keccak256\n      0x00\n        /* \"Code Test/CodeTest_8.sol\":3326:3364  users[msg.sender].voted[_title] = true */\n      0x0100\n      exp\n      dup2\n      sload\n      dup2\n      0xff\n      mul\n      not\n      and\n      swap1\n      dup4\n      iszero\n      iszero\n      mul\n      or\n      swap1\n      sstore\n      pop\n        /* \"Code Test/CodeTest_8.sol\":2901:3371  function voteForIssue(string memory _title, bool _vote) public {... */\n      pop\n      pop\n      jump\t// out\n        /* \"Code Test/CodeTest_8.sol\":3469:3906  function setResult(string calldata _title) public {... */\n    tag_32:\n        /* \"Code Test/CodeTest_8.sol\":3581:3583  15 */\n      0x0f\n        /* \"Code Test/CodeTest_8.sol\":3552:3558  issues */\n      0x02\n        /* \"Code Test/CodeTest_8.sol\":3559:3565  _title */\n      dup4\n      dup4\n        /* \"Code Test/CodeTest_8.sol\":3552:3566  issues[_title] */\n      mload(0x40)\n      tag_142\n      swap3\n      swap2\n      swap1\n      tag_143\n      jump\t// in\n    tag_142:\n      swap1\n      dup2\n      mstore\n      0x20\n      add\n      mload(0x40)\n      dup1\n      swap2\n      sub\n      swap1\n      keccak256\n        /* \"Code Test/CodeTest_8.sol\":3552:3578  issues[_title].blockNumber */\n      0x07\n      add\n      sload\n        /* \"Code Test/CodeTest_8.sol\":3552:3583  issues[_title].blockNumber + 15 */\n      tag_144\n      swap2\n      swap1\n      tag_124\n      jump\t// in\n    tag_144:\n        /* \"Code Test/CodeTest_8.sol\":3537:3549  block.number */\n      number\n        /* \"Code Test/CodeTest_8.sol\":3537:3583  block.number > issues[_title].blockNumber + 15 */\n      gt\n        /* \"Code Test/CodeTest_8.sol\":3529:3584  require(block.number > issues[_title].blockNumber + 15) */\n      tag_145\n      jumpi\n      0x00\n      dup1\n      revert\n    tag_145:\n        /* \"Code Test/CodeTest_8.sol\":3595:3604  uint pros */\n      0x00\n        /* \"Code Test/CodeTest_8.sol\":3607:3613  issues */\n      0x02\n        /* \"Code Test/CodeTest_8.sol\":3614:3620  _title */\n      dup4\n      dup4\n        /* \"Code Test/CodeTest_8.sol\":3607:3621  issues[_title] */\n      mload(0x40)\n      tag_146\n      swap3\n      swap2\n      swap1\n      tag_143\n      jump\t// in\n    tag_146:\n      swap1\n      dup2\n      mstore\n      0x20\n      add\n      mload(0x40)\n      dup1\n      swap2\n      sub\n      swap1\n      keccak256\n        /* \"Code Test/CodeTest_8.sol\":3607:3625  issues[_title].yes */\n      0x04\n      add\n      sload\n        /* \"Code Test/CodeTest_8.sol\":3595:3625  uint pros = issues[_title].yes */\n      swap1\n      pop\n        /* \"Code Test/CodeTest_8.sol\":3635:3644  uint cons */\n      0x00\n        /* \"Code Test/CodeTest_8.sol\":3647:3653  issues */\n      0x02\n        /* \"Code Test/CodeTest_8.sol\":3654:3660  _title */\n      dup5\n      dup5\n        /* \"Code Test/CodeTest_8.sol\":3647:3661  issues[_title] */\n      mload(0x40)\n      tag_147\n      swap3\n      swap2\n      swap1\n      tag_143\n      jump\t// in\n    tag_147:\n      swap1\n      dup2\n      mstore\n      0x20\n      add\n      mload(0x40)\n      dup1\n      swap2\n      sub\n      swap1\n      keccak256\n        /* \"Code Test/CodeTest_8.sol\":3647:3664  issues[_title].no */\n      0x05\n      add\n      sload\n        /* \"Code Test/CodeTest_8.sol\":3635:3664  uint cons = issues[_title].no */\n      swap1\n      pop\n        /* \"Code Test/CodeTest_8.sol\":3674:3684  uint total */\n      0x00\n        /* \"Code Test/CodeTest_8.sol\":3694:3698  cons */\n      dup2\n        /* \"Code Test/CodeTest_8.sol\":3687:3691  pros */\n      dup4\n        /* \"Code Test/CodeTest_8.sol\":3687:3698  pros + cons */\n      tag_148\n      swap2\n      swap1\n      tag_124\n      jump\t// in\n    tag_148:\n        /* \"Code Test/CodeTest_8.sol\":3674:3698  uint total = pros + cons */\n      swap1\n      pop\n        /* \"Code Test/CodeTest_8.sol\":3739:3740  7 */\n      0x07\n        /* \"Code Test/CodeTest_8.sol\":3726:3736  usersCount */\n      sload(0x01)\n        /* \"Code Test/CodeTest_8.sol\":3726:3740  usersCount * 7 */\n      tag_149\n      swap2\n      swap1\n      tag_150\n      jump\t// in\n    tag_149:\n        /* \"Code Test/CodeTest_8.sol\":3720:3722  10 */\n      0x0a\n        /* \"Code Test/CodeTest_8.sol\":3712:3717  total */\n      dup3\n        /* \"Code Test/CodeTest_8.sol\":3712:3722  total * 10 */\n      tag_151\n      swap2\n      swap1\n      tag_150\n      jump\t// in\n    tag_151:\n        /* \"Code Test/CodeTest_8.sol\":3712:3740  total * 10 >= usersCount * 7 */\n      lt\n      iszero\n        /* \"Code Test/CodeTest_8.sol\":3712:3768  total * 10 >= usersCount * 7 && pros * 100 >= total * 66 */\n      dup1\n      iszero\n      tag_152\n      jumpi\n      pop\n        /* \"Code Test/CodeTest_8.sol\":3766:3768  66 */\n      0x42\n        /* \"Code Test/CodeTest_8.sol\":3758:3763  total */\n      dup2\n        /* \"Code Test/CodeTest_8.sol\":3758:3768  total * 66 */\n      tag_153\n      swap2\n      swap1\n      tag_150\n      jump\t// in\n    tag_153:\n        /* \"Code Test/CodeTest_8.sol\":3751:3754  100 */\n      0x64\n        /* \"Code Test/CodeTest_8.sol\":3744:3748  pros */\n      dup5\n        /* \"Code Test/CodeTest_8.sol\":3744:3754  pros * 100 */\n      tag_154\n      swap2\n      swap1\n      tag_150\n      jump\t// in\n    tag_154:\n        /* \"Code Test/CodeTest_8.sol\":3744:3768  pros * 100 >= total * 66 */\n      lt\n      iszero\n        /* \"Code Test/CodeTest_8.sol\":3712:3768  total * 10 >= usersCount * 7 && pros * 100 >= total * 66 */\n    tag_152:\n        /* \"Code Test/CodeTest_8.sol\":3709:3900  if(total * 10 >= usersCount * 7 && pros * 100 >= total * 66) {... */\n      iszero\n      tag_155\n      jumpi\n        /* \"Code Test/CodeTest_8.sol\":3808:3821  Status.passed */\n      0x01\n        /* \"Code Test/CodeTest_8.sol\":3784:3790  issues */\n      0x02\n        /* \"Code Test/CodeTest_8.sol\":3791:3797  _title */\n      dup7\n      dup7\n        /* \"Code Test/CodeTest_8.sol\":3784:3798  issues[_title] */\n      mload(0x40)\n      tag_156\n      swap3\n      swap2\n      swap1\n      tag_143\n      jump\t// in\n    tag_156:\n      swap1\n      dup2\n      mstore\n      0x20\n      add\n      mload(0x40)\n      dup1\n      swap2\n      sub\n      swap1\n      keccak256\n        /* \"Code Test/CodeTest_8.sol\":3784:3805  issues[_title].result */\n      0x06\n      add\n      0x00\n        /* \"Code Test/CodeTest_8.sol\":3784:3821  issues[_title].result = Status.passed */\n      0x0100\n      exp\n      dup2\n      sload\n      dup2\n      0xff\n      mul\n      not\n      and\n      swap1\n      dup4\n      0x02\n      dup2\n      gt\n      iszero\n      tag_157\n      jumpi\n      tag_158\n      tag_78\n      jump\t// in\n    tag_158:\n    tag_157:\n      mul\n      or\n      swap1\n      sstore\n      pop\n        /* \"Code Test/CodeTest_8.sol\":3709:3900  if(total * 10 >= usersCount * 7 && pros * 100 >= total * 66) {... */\n      jump(tag_159)\n    tag_155:\n        /* \"Code Test/CodeTest_8.sol\":3876:3889  Status.failed */\n      0x02\n        /* \"Code Test/CodeTest_8.sol\":3852:3858  issues */\n      dup1\n        /* \"Code Test/CodeTest_8.sol\":3859:3865  _title */\n      dup7\n      dup7\n        /* \"Code Test/CodeTest_8.sol\":3852:3866  issues[_title] */\n      mload(0x40)\n      tag_160\n      swap3\n      swap2\n      swap1\n      tag_143\n      jump\t// in\n    tag_160:\n      swap1\n      dup2\n      mstore\n      0x20\n      add\n      mload(0x40)\n      dup1\n      swap2\n      sub\n      swap1\n      keccak256\n        /* \"Code Test/CodeTest_8.sol\":3852:3873  issues[_title].result */\n      0x06\n      add\n      0x00\n        /* \"Code Test/CodeTest_8.sol\":3852:3889  issues[_title].result = Status.failed */\n      0x0100\n      exp\n      dup2\n      sload\n      dup2\n      0xff\n      mul\n      not\n      and\n      swap1\n      dup4\n      0x02\n      dup2\n      gt\n      iszero\n      tag_161\n      jumpi\n      tag_162\n      tag_78\n      jump\t// in\n    tag_162:\n    tag_161:\n      mul\n      or\n      swap1\n      sstore\n      pop\n        /* \"Code Test/CodeTest_8.sol\":3709:3900  if(total * 10 >= usersCount * 7 && pros * 100 >= total * 66) {... */\n    tag_159:\n        /* \"Code Test/CodeTest_8.sol\":3519:3906  {... */\n      pop\n      pop\n      pop\n        /* \"Code Test/CodeTest_8.sol\":3469:3906  function setResult(string calldata _title) public {... */\n      pop\n      pop\n      jump\t// out\n        /* \"Code Test/CodeTest_8.sol\":2226:2469  function setUser(string calldata _name) public {... */\n    tag_35:\n        /* \"Code Test/CodeTest_8.sol\":2331:2332  0 */\n      0x00\n        /* \"Code Test/CodeTest_8.sol\":2297:2302  users */\n      dup1\n        /* \"Code Test/CodeTest_8.sol\":2297:2314  users[msg.sender] */\n      0x00\n        /* \"Code Test/CodeTest_8.sol\":2303:2313  msg.sender */\n      caller\n        /* \"Code Test/CodeTest_8.sol\":2297:2314  users[msg.sender] */\n      0xffffffffffffffffffffffffffffffffffffffff\n      and\n      0xffffffffffffffffffffffffffffffffffffffff\n      and\n      dup2\n      mstore\n      0x20\n      add\n      swap1\n      dup2\n      mstore\n      0x20\n      add\n      0x00\n      keccak256\n        /* \"Code Test/CodeTest_8.sol\":2297:2319  users[msg.sender].name */\n      0x00\n      add\n        /* \"Code Test/CodeTest_8.sol\":2291:2327  bytes(users[msg.sender].name).length */\n      dup1\n      sload\n      tag_164\n      swap1\n      tag_46\n      jump\t// in\n    tag_164:\n      swap1\n      pop\n        /* \"Code Test/CodeTest_8.sol\":2291:2332  bytes(users[msg.sender].name).length == 0 */\n      eq\n        /* \"Code Test/CodeTest_8.sol\":2283:2355  require(bytes(users[msg.sender].name).length == 0, \"already registered\") */\n      tag_165\n      jumpi\n      mload(0x40)\n      0x08c379a000000000000000000000000000000000000000000000000000000000\n      dup2\n      mstore\n      0x04\n      add\n      tag_166\n      swap1\n      tag_167\n      jump\t// in\n    tag_166:\n      mload(0x40)\n      dup1\n      swap2\n      sub\n      swap1\n      revert\n    tag_165:\n        /* \"Code Test/CodeTest_8.sol\":2390:2395  _name */\n      dup2\n      dup2\n        /* \"Code Test/CodeTest_8.sol\":2365:2370  users */\n      0x00\n        /* \"Code Test/CodeTest_8.sol\":2365:2382  users[msg.sender] */\n      dup1\n        /* \"Code Test/CodeTest_8.sol\":2371:2381  msg.sender */\n      caller\n        /* \"Code Test/CodeTest_8.sol\":2365:2382  users[msg.sender] */\n      0xffffffffffffffffffffffffffffffffffffffff\n      and\n      0xffffffffffffffffffffffffffffffffffffffff\n      and\n      dup2\n      mstore\n      0x20\n      add\n      swap1\n      dup2\n      mstore\n      0x20\n      add\n      0x00\n      keccak256\n        /* \"Code Test/CodeTest_8.sol\":2365:2387  users[msg.sender].name */\n      0x00\n      add\n        /* \"Code Test/CodeTest_8.sol\":2365:2395  users[msg.sender].name = _name */\n      swap2\n      dup3\n      tag_168\n      swap3\n      swap2\n      swap1\n      tag_169\n      jump\t// in\n    tag_168:\n      pop\n        /* \"Code Test/CodeTest_8.sol\":2430:2440  msg.sender */\n      caller\n        /* \"Code Test/CodeTest_8.sol\":2405:2410  users */\n      0x00\n        /* \"Code Test/CodeTest_8.sol\":2405:2422  users[msg.sender] */\n      dup1\n        /* \"Code Test/CodeTest_8.sol\":2411:2421  msg.sender */\n      caller\n        /* \"Code Test/CodeTest_8.sol\":2405:2422  users[msg.sender] */\n      0xffffffffffffffffffffffffffffffffffffffff\n      and\n      0xffffffffffffffffffffffffffffffffffffffff\n      and\n      dup2\n      mstore\n      0x20\n      add\n      swap1\n      dup2\n      mstore\n      0x20\n      add\n      0x00\n      keccak256\n        /* \"Code Test/CodeTest_8.sol\":2405:2427  users[msg.sender].addr */\n      0x01\n      add\n      0x00\n        /* \"Code Test/CodeTest_8.sol\":2405:2440  users[msg.sender].addr = msg.sender */\n      0x0100\n      exp\n      dup2\n      sload\n      dup2\n      0xffffffffffffffffffffffffffffffffffffffff\n      mul\n      not\n      and\n      swap1\n      dup4\n      0xffffffffffffffffffffffffffffffffffffffff\n      and\n      mul\n      or\n      swap1\n      sstore\n      pop\n        /* \"Code Test/CodeTest_8.sol\":2450:2460  usersCount */\n      0x01\n      0x00\n        /* \"Code Test/CodeTest_8.sol\":2450:2462  usersCount++ */\n      dup2\n      sload\n      dup1\n      swap3\n      swap2\n      swap1\n      tag_170\n      swap1\n      tag_106\n      jump\t// in\n    tag_170:\n      swap2\n      swap1\n      pop\n      sstore\n      pop\n        /* \"Code Test/CodeTest_8.sol\":2226:2469  function setUser(string calldata _name) public {... */\n      pop\n      pop\n      jump\t// out\n        /* \"Code Test/CodeTest_8.sol\":2088:2126  mapping(string => Issue) public issues */\n    tag_38:\n      0x02\n      dup2\n      dup1\n      mload\n      0x20\n      dup2\n      add\n      dup3\n      add\n      dup1\n      mload\n      dup5\n      dup3\n      mstore\n      0x20\n      dup4\n      add\n      0x20\n      dup6\n      add\n      keccak256\n      dup2\n      dup4\n      mstore\n      dup1\n      swap6\n      pop\n      pop\n      pop\n      pop\n      pop\n      pop\n      0x00\n      swap2\n      pop\n      swap1\n      pop\n      dup1\n      0x00\n      add\n      sload\n      swap1\n      dup1\n      0x01\n      add\n      dup1\n      sload\n      tag_171\n      swap1\n      tag_46\n      jump\t// in\n    tag_171:\n      dup1\n      0x1f\n      add\n      0x20\n      dup1\n      swap2\n      div\n      mul\n      0x20\n      add\n      mload(0x40)\n      swap1\n      dup2\n      add\n      0x40\n      mstore\n      dup1\n      swap3\n      swap2\n      swap1\n      dup2\n      dup2\n      mstore\n      0x20\n      add\n      dup3\n      dup1\n      sload\n      tag_172\n      swap1\n      tag_46\n      jump\t// in\n    tag_172:\n      dup1\n      iszero\n      tag_173\n      jumpi\n      dup1\n      0x1f\n      lt\n      tag_174\n      jumpi\n      0x0100\n      dup1\n      dup4\n      sload\n      div\n      mul\n      dup4\n      mstore\n      swap2\n      0x20\n      add\n      swap2\n      jump(tag_173)\n    tag_174:\n      dup3\n      add\n      swap2\n      swap1\n      0x00\n      mstore\n      keccak256(0x00, 0x20)\n      swap1\n    tag_175:\n      dup2\n      sload\n      dup2\n      mstore\n      swap1\n      0x01\n      add\n      swap1\n      0x20\n      add\n      dup1\n      dup4\n      gt\n      tag_175\n      jumpi\n      dup3\n      swap1\n      sub\n      0x1f\n      and\n      dup3\n      add\n      swap2\n    tag_173:\n      pop\n      pop\n      pop\n      pop\n      pop\n      swap1\n      dup1\n      0x02\n      add\n      dup1\n      sload\n      tag_176\n      swap1\n      tag_46\n      jump\t// in\n    tag_176:\n      dup1\n      0x1f\n      add\n      0x20\n      dup1\n      swap2\n      div\n      mul\n      0x20\n      add\n      mload(0x40)\n      swap1\n      dup2\n      add\n      0x40\n      mstore\n      dup1\n      swap3\n      swap2\n      swap1\n      dup2\n      dup2\n      mstore\n      0x20\n      add\n      dup3\n      dup1\n      sload\n      tag_177\n      swap1\n      tag_46\n      jump\t// in\n    tag_177:\n      dup1\n      iszero\n      tag_178\n      jumpi\n      dup1\n      0x1f\n      lt\n      tag_179\n      jumpi\n      0x0100\n      dup1\n      dup4\n      sload\n      div\n      mul\n      dup4\n      mstore\n      swap2\n      0x20\n      add\n      swap2\n      jump(tag_178)\n    tag_179:\n      dup3\n      add\n      swap2\n      swap1\n      0x00\n      mstore\n      keccak256(0x00, 0x20)\n      swap1\n    tag_180:\n      dup2\n      sload\n      dup2\n      mstore\n      swap1\n      0x01\n      add\n      swap1\n      0x20\n      add\n      dup1\n      dup4\n      gt\n      tag_180\n      jumpi\n      dup3\n      swap1\n      sub\n      0x1f\n      and\n      dup3\n      add\n      swap2\n    tag_178:\n      pop\n      pop\n      pop\n      pop\n      pop\n      swap1\n      dup1\n      0x03\n      add\n      0x00\n      swap1\n      sload\n      swap1\n      0x0100\n      exp\n      swap1\n      div\n      0xffffffffffffffffffffffffffffffffffffffff\n      and\n      swap1\n      dup1\n      0x04\n      add\n      sload\n      swap1\n      dup1\n      0x05\n      add\n      sload\n      swap1\n      dup1\n      0x06\n      add\n      0x00\n      swap1\n      sload\n      swap1\n      0x0100\n      exp\n      swap1\n      div\n      0xff\n      and\n      swap1\n      dup1\n      0x07\n      add\n      sload\n      swap1\n      pop\n      dup9\n      jump\t// out\n    tag_57:\n      mload(0x40)\n      dup1\n      0x0100\n      add\n      0x40\n      mstore\n      dup1\n      0x00\n      dup2\n      mstore\n      0x20\n      add\n      0x60\n      dup2\n      mstore\n      0x20\n      add\n      0x60\n      dup2\n      mstore\n      0x20\n      add\n      and(0xffffffffffffffffffffffffffffffffffffffff, 0x00)\n      dup2\n      mstore\n      0x20\n      add\n      0x00\n      dup2\n      mstore\n      0x20\n      add\n      0x00\n      dup2\n      mstore\n      0x20\n      add\n      0x00\n      0x02\n      dup2\n      gt\n      iszero\n      tag_181\n      jumpi\n      tag_182\n      tag_78\n      jump\t// in\n    tag_182:\n    tag_181:\n      dup2\n      mstore\n      0x20\n      add\n      0x00\n      dup2\n      mstore\n      pop\n      swap1\n      jump\t// out\n        /* \"#utility.yul\":7:142   */\n    tag_183:\n        /* \"#utility.yul\":95:101   */\n      0x00\n        /* \"#utility.yul\":129:134   */\n      dup2\n        /* \"#utility.yul\":123:135   */\n      mload\n        /* \"#utility.yul\":113:135   */\n      swap1\n      pop\n        /* \"#utility.yul\":7:142   */\n      swap2\n      swap1\n      pop\n      jump\t// out\n        /* \"#utility.yul\":148:353   */\n    tag_184:\n        /* \"#utility.yul\":268:279   */\n      0x00\n        /* \"#utility.yul\":302:308   */\n      dup3\n        /* \"#utility.yul\":297:300   */\n      dup3\n        /* \"#utility.yul\":290:309   */\n      mstore\n        /* \"#utility.yul\":342:346   */\n      0x20\n        /* \"#utility.yul\":337:340   */\n      dup3\n        /* \"#utility.yul\":333:347   */\n      add\n        /* \"#utility.yul\":318:347   */\n      swap1\n      pop\n        /* \"#utility.yul\":148:353   */\n      swap3\n      swap2\n      pop\n      pop\n      jump\t// out\n        /* \"#utility.yul\":359:512   */\n    tag_185:\n        /* \"#utility.yul\":447:451   */\n      0x00\n        /* \"#utility.yul\":470:473   */\n      dup2\n        /* \"#utility.yul\":462:473   */\n      swap1\n      pop\n        /* \"#utility.yul\":500:504   */\n      0x20\n        /* \"#utility.yul\":495:498   */\n      dup3\n        /* \"#utility.yul\":491:505   */\n      add\n        /* \"#utility.yul\":483:505   */\n      swap1\n      pop\n        /* \"#utility.yul\":359:512   */\n      swap2\n      swap1\n      pop\n      jump\t// out\n        /* \"#utility.yul\":518:595   */\n    tag_186:\n        /* \"#utility.yul\":555:562   */\n      0x00\n        /* \"#utility.yul\":584:589   */\n      dup2\n        /* \"#utility.yul\":573:589   */\n      swap1\n      pop\n        /* \"#utility.yul\":518:595   */\n      swap2\n      swap1\n      pop\n      jump\t// out\n        /* \"#utility.yul\":601:709   */\n    tag_187:\n        /* \"#utility.yul\":678:702   */\n      tag_260\n        /* \"#utility.yul\":696:701   */\n      dup2\n        /* \"#utility.yul\":678:702   */\n      tag_186\n      jump\t// in\n    tag_260:\n        /* \"#utility.yul\":673:676   */\n      dup3\n        /* \"#utility.yul\":666:703   */\n      mstore\n        /* \"#utility.yul\":601:709   */\n      pop\n      pop\n      jump\t// out\n        /* \"#utility.yul\":715:814   */\n    tag_188:\n        /* \"#utility.yul\":767:773   */\n      0x00\n        /* \"#utility.yul\":801:806   */\n      dup2\n        /* \"#utility.yul\":795:807   */\n      mload\n        /* \"#utility.yul\":785:807   */\n      swap1\n      pop\n        /* \"#utility.yul\":715:814   */\n      swap2\n      swap1\n      pop\n      jump\t// out\n        /* \"#utility.yul\":820:979   */\n    tag_189:\n        /* \"#utility.yul\":894:905   */\n      0x00\n        /* \"#utility.yul\":928:934   */\n      dup3\n        /* \"#utility.yul\":923:926   */\n      dup3\n        /* \"#utility.yul\":916:935   */\n      mstore\n        /* \"#utility.yul\":968:972   */\n      0x20\n        /* \"#utility.yul\":963:966   */\n      dup3\n        /* \"#utility.yul\":959:973   */\n      add\n        /* \"#utility.yul\":944:973   */\n      swap1\n      pop\n        /* \"#utility.yul\":820:979   */\n      swap3\n      swap2\n      pop\n      pop\n      jump\t// out\n        /* \"#utility.yul\":985:1124   */\n    tag_190:\n        /* \"#utility.yul\":1074:1080   */\n      dup3\n        /* \"#utility.yul\":1069:1072   */\n      dup2\n        /* \"#utility.yul\":1064:1067   */\n      dup4\n        /* \"#utility.yul\":1058:1081   */\n      mcopy\n        /* \"#utility.yul\":1115:1116   */\n      0x00\n        /* \"#utility.yul\":1106:1112   */\n      dup4\n        /* \"#utility.yul\":1101:1104   */\n      dup4\n        /* \"#utility.yul\":1097:1113   */\n      add\n        /* \"#utility.yul\":1090:1117   */\n      mstore\n        /* \"#utility.yul\":985:1124   */\n      pop\n      pop\n      pop\n      jump\t// out\n        /* \"#utility.yul\":1130:1232   */\n    tag_191:\n        /* \"#utility.yul\":1171:1177   */\n      0x00\n        /* \"#utility.yul\":1222:1224   */\n      0x1f\n        /* \"#utility.yul\":1218:1225   */\n      not\n        /* \"#utility.yul\":1213:1215   */\n      0x1f\n        /* \"#utility.yul\":1206:1211   */\n      dup4\n        /* \"#utility.yul\":1202:1216   */\n      add\n        /* \"#utility.yul\":1198:1226   */\n      and\n        /* \"#utility.yul\":1188:1226   */\n      swap1\n      pop\n        /* \"#utility.yul\":1130:1232   */\n      swap2\n      swap1\n      pop\n      jump\t// out\n        /* \"#utility.yul\":1238:1595   */\n    tag_192:\n        /* \"#utility.yul\":1316:1319   */\n      0x00\n        /* \"#utility.yul\":1344:1383   */\n      tag_266\n        /* \"#utility.yul\":1377:1382   */\n      dup3\n        /* \"#utility.yul\":1344:1383   */\n      tag_188\n      jump\t// in\n    tag_266:\n        /* \"#utility.yul\":1399:1460   */\n      tag_267\n        /* \"#utility.yul\":1453:1459   */\n      dup2\n        /* \"#utility.yul\":1448:1451   */\n      dup6\n        /* \"#utility.yul\":1399:1460   */\n      tag_189\n      jump\t// in\n    tag_267:\n        /* \"#utility.yul\":1392:1460   */\n      swap4\n      pop\n        /* \"#utility.yul\":1469:1534   */\n      tag_268\n        /* \"#utility.yul\":1527:1533   */\n      dup2\n        /* \"#utility.yul\":1522:1525   */\n      dup6\n        /* \"#utility.yul\":1515:1519   */\n      0x20\n        /* \"#utility.yul\":1508:1513   */\n      dup7\n        /* \"#utility.yul\":1504:1520   */\n      add\n        /* \"#utility.yul\":1469:1534   */\n      tag_190\n      jump\t// in\n    tag_268:\n        /* \"#utility.yul\":1559:1588   */\n      tag_269\n        /* \"#utility.yul\":1581:1587   */\n      dup2\n        /* \"#utility.yul\":1559:1588   */\n      tag_191\n      jump\t// in\n    tag_269:\n        /* \"#utility.yul\":1554:1557   */\n      dup5\n        /* \"#utility.yul\":1550:1589   */\n      add\n        /* \"#utility.yul\":1543:1589   */\n      swap2\n      pop\n        /* \"#utility.yul\":1320:1595   */\n      pop\n        /* \"#utility.yul\":1238:1595   */\n      swap3\n      swap2\n      pop\n      pop\n      jump\t// out\n        /* \"#utility.yul\":1601:1727   */\n    tag_193:\n        /* \"#utility.yul\":1638:1645   */\n      0x00\n        /* \"#utility.yul\":1678:1720   */\n      0xffffffffffffffffffffffffffffffffffffffff\n        /* \"#utility.yul\":1671:1676   */\n      dup3\n        /* \"#utility.yul\":1667:1721   */\n      and\n        /* \"#utility.yul\":1656:1721   */\n      swap1\n      pop\n        /* \"#utility.yul\":1601:1727   */\n      swap2\n      swap1\n      pop\n      jump\t// out\n        /* \"#utility.yul\":1733:1829   */\n    tag_194:\n        /* \"#utility.yul\":1770:1777   */\n      0x00\n        /* \"#utility.yul\":1799:1823   */\n      tag_272\n        /* \"#utility.yul\":1817:1822   */\n      dup3\n        /* \"#utility.yul\":1799:1823   */\n      tag_193\n      jump\t// in\n    tag_272:\n        /* \"#utility.yul\":1788:1823   */\n      swap1\n      pop\n        /* \"#utility.yul\":1733:1829   */\n      swap2\n      swap1\n      pop\n      jump\t// out\n        /* \"#utility.yul\":1835:1943   */\n    tag_195:\n        /* \"#utility.yul\":1912:1936   */\n      tag_274\n        /* \"#utility.yul\":1930:1935   */\n      dup2\n        /* \"#utility.yul\":1912:1936   */\n      tag_194\n      jump\t// in\n    tag_274:\n        /* \"#utility.yul\":1907:1910   */\n      dup3\n        /* \"#utility.yul\":1900:1937   */\n      mstore\n        /* \"#utility.yul\":1835:1943   */\n      pop\n      pop\n      jump\t// out\n        /* \"#utility.yul\":1949:2129   */\n    tag_78:\n        /* \"#utility.yul\":1997:2074   */\n      0x4e487b7100000000000000000000000000000000000000000000000000000000\n        /* \"#utility.yul\":1994:1995   */\n      0x00\n        /* \"#utility.yul\":1987:2075   */\n      mstore\n        /* \"#utility.yul\":2094:2098   */\n      0x21\n        /* \"#utility.yul\":2091:2092   */\n      0x04\n        /* \"#utility.yul\":2084:2099   */\n      mstore\n        /* \"#utility.yul\":2118:2122   */\n      0x24\n        /* \"#utility.yul\":2115:2116   */\n      0x00\n        /* \"#utility.yul\":2108:2123   */\n      revert\n        /* \"#utility.yul\":2135:2249   */\n    tag_196:\n        /* \"#utility.yul\":2217:2218   */\n      0x03\n        /* \"#utility.yul\":2210:2215   */\n      dup2\n        /* \"#utility.yul\":2207:2219   */\n      lt\n        /* \"#utility.yul\":2197:2243   */\n      tag_277\n      jumpi\n        /* \"#utility.yul\":2223:2241   */\n      tag_278\n      tag_78\n      jump\t// in\n    tag_278:\n        /* \"#utility.yul\":2197:2243   */\n    tag_277:\n        /* \"#utility.yul\":2135:2249   */\n      pop\n      jump\t// out\n        /* \"#utility.yul\":2255:2384   */\n    tag_197:\n        /* \"#utility.yul\":2301:2308   */\n      0x00\n        /* \"#utility.yul\":2330:2335   */\n      dup2\n        /* \"#utility.yul\":2319:2335   */\n      swap1\n      pop\n        /* \"#utility.yul\":2336:2378   */\n      tag_280\n        /* \"#utility.yul\":2372:2377   */\n      dup3\n        /* \"#utility.yul\":2336:2378   */\n      tag_196\n      jump\t// in\n    tag_280:\n        /* \"#utility.yul\":2255:2384   */\n      swap2\n      swap1\n      pop\n      jump\t// out\n        /* \"#utility.yul\":2390:2519   */\n    tag_198:\n        /* \"#utility.yul\":2447:2456   */\n      0x00\n        /* \"#utility.yul\":2480:2513   */\n      tag_282\n        /* \"#utility.yul\":2507:2512   */\n      dup3\n        /* \"#utility.yul\":2480:2513   */\n      tag_197\n      jump\t// in\n    tag_282:\n        /* \"#utility.yul\":2467:2513   */\n      swap1\n      pop\n        /* \"#utility.yul\":2390:2519   */\n      swap2\n      swap1\n      pop\n      jump\t// out\n        /* \"#utility.yul\":2525:2660   */\n    tag_199:\n        /* \"#utility.yul\":2609:2653   */\n      tag_284\n        /* \"#utility.yul\":2647:2652   */\n      dup2\n        /* \"#utility.yul\":2609:2653   */\n      tag_198\n      jump\t// in\n    tag_284:\n        /* \"#utility.yul\":2604:2607   */\n      dup3\n        /* \"#utility.yul\":2597:2654   */\n      mstore\n        /* \"#utility.yul\":2525:2660   */\n      pop\n      pop\n      jump\t// out\n        /* \"#utility.yul\":2714:4437   */\n    tag_200:\n        /* \"#utility.yul\":2815:2818   */\n      0x00\n        /* \"#utility.yul\":2851:2857   */\n      0x0100\n        /* \"#utility.yul\":2846:2849   */\n      dup4\n        /* \"#utility.yul\":2842:2858   */\n      add\n        /* \"#utility.yul\":2942:2946   */\n      0x00\n        /* \"#utility.yul\":2935:2940   */\n      dup4\n        /* \"#utility.yul\":2931:2947   */\n      add\n        /* \"#utility.yul\":2925:2948   */\n      mload\n        /* \"#utility.yul\":2961:3024   */\n      tag_286\n        /* \"#utility.yul\":3018:3022   */\n      0x00\n        /* \"#utility.yul\":3013:3016   */\n      dup7\n        /* \"#utility.yul\":3009:3023   */\n      add\n        /* \"#utility.yul\":2995:3007   */\n      dup3\n        /* \"#utility.yul\":2961:3024   */\n      tag_187\n      jump\t// in\n    tag_286:\n        /* \"#utility.yul\":2868:3034   */\n      pop\n        /* \"#utility.yul\":3117:3121   */\n      0x20\n        /* \"#utility.yul\":3110:3115   */\n      dup4\n        /* \"#utility.yul\":3106:3122   */\n      add\n        /* \"#utility.yul\":3100:3123   */\n      mload\n        /* \"#utility.yul\":3170:3173   */\n      dup5\n        /* \"#utility.yul\":3164:3168   */\n      dup3\n        /* \"#utility.yul\":3160:3174   */\n      sub\n        /* \"#utility.yul\":3153:3157   */\n      0x20\n        /* \"#utility.yul\":3148:3151   */\n      dup7\n        /* \"#utility.yul\":3144:3158   */\n      add\n        /* \"#utility.yul\":3137:3175   */\n      mstore\n        /* \"#utility.yul\":3196:3269   */\n      tag_287\n        /* \"#utility.yul\":3264:3268   */\n      dup3\n        /* \"#utility.yul\":3250:3262   */\n      dup3\n        /* \"#utility.yul\":3196:3269   */\n      tag_192\n      jump\t// in\n    tag_287:\n        /* \"#utility.yul\":3188:3269   */\n      swap2\n      pop\n        /* \"#utility.yul\":3044:3280   */\n      pop\n        /* \"#utility.yul\":3362:3366   */\n      0x40\n        /* \"#utility.yul\":3355:3360   */\n      dup4\n        /* \"#utility.yul\":3351:3367   */\n      add\n        /* \"#utility.yul\":3345:3368   */\n      mload\n        /* \"#utility.yul\":3415:3418   */\n      dup5\n        /* \"#utility.yul\":3409:3413   */\n      dup3\n        /* \"#utility.yul\":3405:3419   */\n      sub\n        /* \"#utility.yul\":3398:3402   */\n      0x40\n        /* \"#utility.yul\":3393:3396   */\n      dup7\n        /* \"#utility.yul\":3389:3403   */\n      add\n        /* \"#utility.yul\":3382:3420   */\n      mstore\n        /* \"#utility.yul\":3441:3514   */\n      tag_288\n        /* \"#utility.yul\":3509:3513   */\n      dup3\n        /* \"#utility.yul\":3495:3507   */\n      dup3\n        /* \"#utility.yul\":3441:3514   */\n      tag_192\n      jump\t// in\n    tag_288:\n        /* \"#utility.yul\":3433:3514   */\n      swap2\n      pop\n        /* \"#utility.yul\":3290:3525   */\n      pop\n        /* \"#utility.yul\":3609:3613   */\n      0x60\n        /* \"#utility.yul\":3602:3607   */\n      dup4\n        /* \"#utility.yul\":3598:3614   */\n      add\n        /* \"#utility.yul\":3592:3615   */\n      mload\n        /* \"#utility.yul\":3628:3691   */\n      tag_289\n        /* \"#utility.yul\":3685:3689   */\n      0x60\n        /* \"#utility.yul\":3680:3683   */\n      dup7\n        /* \"#utility.yul\":3676:3690   */\n      add\n        /* \"#utility.yul\":3662:3674   */\n      dup3\n        /* \"#utility.yul\":3628:3691   */\n      tag_195\n      jump\t// in\n    tag_289:\n        /* \"#utility.yul\":3535:3701   */\n      pop\n        /* \"#utility.yul\":3782:3786   */\n      0x80\n        /* \"#utility.yul\":3775:3780   */\n      dup4\n        /* \"#utility.yul\":3771:3787   */\n      add\n        /* \"#utility.yul\":3765:3788   */\n      mload\n        /* \"#utility.yul\":3801:3864   */\n      tag_290\n        /* \"#utility.yul\":3858:3862   */\n      0x80\n        /* \"#utility.yul\":3853:3856   */\n      dup7\n        /* \"#utility.yul\":3849:3863   */\n      add\n        /* \"#utility.yul\":3835:3847   */\n      dup3\n        /* \"#utility.yul\":3801:3864   */\n      tag_187\n      jump\t// in\n    tag_290:\n        /* \"#utility.yul\":3711:3874   */\n      pop\n        /* \"#utility.yul\":3954:3958   */\n      0xa0\n        /* \"#utility.yul\":3947:3952   */\n      dup4\n        /* \"#utility.yul\":3943:3959   */\n      add\n        /* \"#utility.yul\":3937:3960   */\n      mload\n        /* \"#utility.yul\":3973:4036   */\n      tag_291\n        /* \"#utility.yul\":4030:4034   */\n      0xa0\n        /* \"#utility.yul\":4025:4028   */\n      dup7\n        /* \"#utility.yul\":4021:4035   */\n      add\n        /* \"#utility.yul\":4007:4019   */\n      dup3\n        /* \"#utility.yul\":3973:4036   */\n      tag_187\n      jump\t// in\n    tag_291:\n        /* \"#utility.yul\":3884:4046   */\n      pop\n        /* \"#utility.yul\":4130:4134   */\n      0xc0\n        /* \"#utility.yul\":4123:4128   */\n      dup4\n        /* \"#utility.yul\":4119:4135   */\n      add\n        /* \"#utility.yul\":4113:4136   */\n      mload\n        /* \"#utility.yul\":4149:4219   */\n      tag_292\n        /* \"#utility.yul\":4213:4217   */\n      0xc0\n        /* \"#utility.yul\":4208:4211   */\n      dup7\n        /* \"#utility.yul\":4204:4218   */\n      add\n        /* \"#utility.yul\":4190:4202   */\n      dup3\n        /* \"#utility.yul\":4149:4219   */\n      tag_199\n      jump\t// in\n    tag_292:\n        /* \"#utility.yul\":4056:4229   */\n      pop\n        /* \"#utility.yul\":4318:4322   */\n      0xe0\n        /* \"#utility.yul\":4311:4316   */\n      dup4\n        /* \"#utility.yul\":4307:4323   */\n      add\n        /* \"#utility.yul\":4301:4324   */\n      mload\n        /* \"#utility.yul\":4337:4400   */\n      tag_293\n        /* \"#utility.yul\":4394:4398   */\n      0xe0\n        /* \"#utility.yul\":4389:4392   */\n      dup7\n        /* \"#utility.yul\":4385:4399   */\n      add\n        /* \"#utility.yul\":4371:4383   */\n      dup3\n        /* \"#utility.yul\":4337:4400   */\n      tag_187\n      jump\t// in\n    tag_293:\n        /* \"#utility.yul\":4239:4410   */\n      pop\n        /* \"#utility.yul\":4427:4431   */\n      dup1\n        /* \"#utility.yul\":4420:4431   */\n      swap2\n      pop\n        /* \"#utility.yul\":2820:4437   */\n      pop\n        /* \"#utility.yul\":2714:4437   */\n      swap3\n      swap2\n      pop\n      pop\n      jump\t// out\n        /* \"#utility.yul\":4443:4683   */\n    tag_201:\n        /* \"#utility.yul\":4554:4564   */\n      0x00\n        /* \"#utility.yul\":4589:4677   */\n      tag_295\n        /* \"#utility.yul\":4673:4676   */\n      dup4\n        /* \"#utility.yul\":4665:4671   */\n      dup4\n        /* \"#utility.yul\":4589:4677   */\n      tag_200\n      jump\t// in\n    tag_295:\n        /* \"#utility.yul\":4575:4677   */\n      swap1\n      pop\n        /* \"#utility.yul\":4443:4683   */\n      swap3\n      swap2\n      pop\n      pop\n      jump\t// out\n        /* \"#utility.yul\":4689:4823   */\n    tag_202:\n        /* \"#utility.yul\":4780:4784   */\n      0x00\n        /* \"#utility.yul\":4812:4816   */\n      0x20\n        /* \"#utility.yul\":4807:4810   */\n      dup3\n        /* \"#utility.yul\":4803:4817   */\n      add\n        /* \"#utility.yul\":4795:4817   */\n      swap1\n      pop\n        /* \"#utility.yul\":4689:4823   */\n      swap2\n      swap1\n      pop\n      jump\t// out\n        /* \"#utility.yul\":4881:5960   */\n    tag_203:\n        /* \"#utility.yul\":5042:5045   */\n      0x00\n        /* \"#utility.yul\":5071:5146   */\n      tag_298\n        /* \"#utility.yul\":5140:5145   */\n      dup3\n        /* \"#utility.yul\":5071:5146   */\n      tag_183\n      jump\t// in\n    tag_298:\n        /* \"#utility.yul\":5162:5269   */\n      tag_299\n        /* \"#utility.yul\":5262:5268   */\n      dup2\n        /* \"#utility.yul\":5257:5260   */\n      dup6\n        /* \"#utility.yul\":5162:5269   */\n      tag_184\n      jump\t// in\n    tag_299:\n        /* \"#utility.yul\":5155:5269   */\n      swap4\n      pop\n        /* \"#utility.yul\":5295:5298   */\n      dup4\n        /* \"#utility.yul\":5340:5344   */\n      0x20\n        /* \"#utility.yul\":5332:5338   */\n      dup3\n        /* \"#utility.yul\":5328:5345   */\n      mul\n        /* \"#utility.yul\":5323:5326   */\n      dup6\n        /* \"#utility.yul\":5319:5346   */\n      add\n        /* \"#utility.yul\":5370:5447   */\n      tag_300\n        /* \"#utility.yul\":5441:5446   */\n      dup6\n        /* \"#utility.yul\":5370:5447   */\n      tag_185\n      jump\t// in\n    tag_300:\n        /* \"#utility.yul\":5470:5477   */\n      dup1\n        /* \"#utility.yul\":5501:5502   */\n      0x00\n        /* \"#utility.yul\":5486:5915   */\n    tag_301:\n        /* \"#utility.yul\":5511:5517   */\n      dup6\n        /* \"#utility.yul\":5508:5509   */\n      dup2\n        /* \"#utility.yul\":5505:5518   */\n      lt\n        /* \"#utility.yul\":5486:5915   */\n      iszero\n      tag_303\n      jumpi\n        /* \"#utility.yul\":5582:5591   */\n      dup5\n        /* \"#utility.yul\":5576:5580   */\n      dup5\n        /* \"#utility.yul\":5572:5592   */\n      sub\n        /* \"#utility.yul\":5567:5570   */\n      dup10\n        /* \"#utility.yul\":5560:5593   */\n      mstore\n        /* \"#utility.yul\":5633:5639   */\n      dup2\n        /* \"#utility.yul\":5627:5640   */\n      mload\n        /* \"#utility.yul\":5661:5767   */\n      tag_304\n        /* \"#utility.yul\":5762:5766   */\n      dup6\n        /* \"#utility.yul\":5747:5760   */\n      dup3\n        /* \"#utility.yul\":5661:5767   */\n      tag_201\n      jump\t// in\n    tag_304:\n        /* \"#utility.yul\":5653:5767   */\n      swap5\n      pop\n        /* \"#utility.yul\":5790:5871   */\n      tag_305\n        /* \"#utility.yul\":5864:5870   */\n      dup4\n        /* \"#utility.yul\":5790:5871   */\n      tag_202\n      jump\t// in\n    tag_305:\n        /* \"#utility.yul\":5780:5871   */\n      swap3\n      pop\n        /* \"#utility.yul\":5900:5904   */\n      0x20\n        /* \"#utility.yul\":5895:5898   */\n      dup11\n        /* \"#utility.yul\":5891:5905   */\n      add\n        /* \"#utility.yul\":5884:5905   */\n      swap10\n      pop\n        /* \"#utility.yul\":5546:5915   */\n      pop\n        /* \"#utility.yul\":5533:5534   */\n      0x01\n        /* \"#utility.yul\":5530:5531   */\n      dup2\n        /* \"#utility.yul\":5526:5535   */\n      add\n        /* \"#utility.yul\":5521:5535   */\n      swap1\n      pop\n        /* \"#utility.yul\":5486:5915   */\n      jump(tag_301)\n    tag_303:\n        /* \"#utility.yul\":5490:5504   */\n      pop\n        /* \"#utility.yul\":5931:5935   */\n      dup3\n        /* \"#utility.yul\":5924:5935   */\n      swap8\n      pop\n        /* \"#utility.yul\":5951:5954   */\n      dup8\n        /* \"#utility.yul\":5944:5954   */\n      swap6\n      pop\n        /* \"#utility.yul\":5047:5960   */\n      pop\n      pop\n      pop\n      pop\n      pop\n        /* \"#utility.yul\":4881:5960   */\n      swap3\n      swap2\n      pop\n      pop\n      jump\t// out\n        /* \"#utility.yul\":5966:6423   */\n    tag_14:\n        /* \"#utility.yul\":6151:6155   */\n      0x00\n        /* \"#utility.yul\":6189:6191   */\n      0x20\n        /* \"#utility.yul\":6178:6187   */\n      dup3\n        /* \"#utility.yul\":6174:6192   */\n      add\n        /* \"#utility.yul\":6166:6192   */\n      swap1\n      pop\n        /* \"#utility.yul\":6238:6247   */\n      dup2\n        /* \"#utility.yul\":6232:6236   */\n      dup2\n        /* \"#utility.yul\":6228:6248   */\n      sub\n        /* \"#utility.yul\":6224:6225   */\n      0x00\n        /* \"#utility.yul\":6213:6222   */\n      dup4\n        /* \"#utility.yul\":6209:6226   */\n      add\n        /* \"#utility.yul\":6202:6249   */\n      mstore\n        /* \"#utility.yul\":6266:6416   */\n      tag_307\n        /* \"#utility.yul\":6411:6415   */\n      dup2\n        /* \"#utility.yul\":6402:6408   */\n      dup5\n        /* \"#utility.yul\":6266:6416   */\n      tag_203\n      jump\t// in\n    tag_307:\n        /* \"#utility.yul\":6258:6416   */\n      swap1\n      pop\n        /* \"#utility.yul\":5966:6423   */\n      swap3\n      swap2\n      pop\n      pop\n      jump\t// out\n        /* \"#utility.yul\":6429:6504   */\n    tag_204:\n        /* \"#utility.yul\":6462:6468   */\n      0x00\n        /* \"#utility.yul\":6495:6497   */\n      0x40\n        /* \"#utility.yul\":6489:6498   */\n      mload\n        /* \"#utility.yul\":6479:6498   */\n      swap1\n      pop\n        /* \"#utility.yul\":6429:6504   */\n      swap1\n      jump\t// out\n        /* \"#utility.yul\":6510:6627   */\n    tag_205:\n        /* \"#utility.yul\":6619:6620   */\n      0x00\n        /* \"#utility.yul\":6616:6617   */\n      dup1\n        /* \"#utility.yul\":6609:6621   */\n      revert\n        /* \"#utility.yul\":6633:6750   */\n    tag_206:\n        /* \"#utility.yul\":6742:6743   */\n      0x00\n        /* \"#utility.yul\":6739:6740   */\n      dup1\n        /* \"#utility.yul\":6732:6744   */\n      revert\n        /* \"#utility.yul\":6756:6873   */\n    tag_207:\n        /* \"#utility.yul\":6865:6866   */\n      0x00\n        /* \"#utility.yul\":6862:6863   */\n      dup1\n        /* \"#utility.yul\":6855:6867   */\n      revert\n        /* \"#utility.yul\":6879:6996   */\n    tag_208:\n        /* \"#utility.yul\":6988:6989   */\n      0x00\n        /* \"#utility.yul\":6985:6986   */\n      dup1\n        /* \"#utility.yul\":6978:6990   */\n      revert\n        /* \"#utility.yul\":7002:7182   */\n    tag_53:\n        /* \"#utility.yul\":7050:7127   */\n      0x4e487b7100000000000000000000000000000000000000000000000000000000\n        /* \"#utility.yul\":7047:7048   */\n      0x00\n        /* \"#utility.yul\":7040:7128   */\n      mstore\n        /* \"#utility.yul\":7147:7151   */\n      0x41\n        /* \"#utility.yul\":7144:7145   */\n      0x04\n        /* \"#utility.yul\":7137:7152   */\n      mstore\n        /* \"#utility.yul\":7171:7175   */\n      0x24\n        /* \"#utility.yul\":7168:7169   */\n      0x00\n        /* \"#utility.yul\":7161:7176   */\n      revert\n        /* \"#utility.yul\":7188:7469   */\n    tag_209:\n        /* \"#utility.yul\":7271:7298   */\n      tag_315\n        /* \"#utility.yul\":7293:7297   */\n      dup3\n        /* \"#utility.yul\":7271:7298   */\n      tag_191\n      jump\t// in\n    tag_315:\n        /* \"#utility.yul\":7263:7269   */\n      dup2\n        /* \"#utility.yul\":7259:7299   */\n      add\n        /* \"#utility.yul\":7401:7407   */\n      dup2\n        /* \"#utility.yul\":7389:7399   */\n      dup2\n        /* \"#utility.yul\":7386:7408   */\n      lt\n        /* \"#utility.yul\":7365:7383   */\n      0xffffffffffffffff\n        /* \"#utility.yul\":7353:7363   */\n      dup3\n        /* \"#utility.yul\":7350:7384   */\n      gt\n        /* \"#utility.yul\":7347:7409   */\n      or\n        /* \"#utility.yul\":7344:7432   */\n      iszero\n      tag_316\n      jumpi\n        /* \"#utility.yul\":7412:7430   */\n      tag_317\n      tag_53\n      jump\t// in\n    tag_317:\n        /* \"#utility.yul\":7344:7432   */\n    tag_316:\n        /* \"#utility.yul\":7452:7462   */\n      dup1\n        /* \"#utility.yul\":7448:7450   */\n      0x40\n        /* \"#utility.yul\":7441:7463   */\n      mstore\n        /* \"#utility.yul\":7231:7469   */\n      pop\n        /* \"#utility.yul\":7188:7469   */\n      pop\n      pop\n      jump\t// out\n        /* \"#utility.yul\":7475:7604   */\n    tag_210:\n        /* \"#utility.yul\":7509:7515   */\n      0x00\n        /* \"#utility.yul\":7536:7556   */\n      tag_319\n      tag_204\n      jump\t// in\n    tag_319:\n        /* \"#utility.yul\":7526:7556   */\n      swap1\n      pop\n        /* \"#utility.yul\":7565:7598   */\n      tag_320\n        /* \"#utility.yul\":7593:7597   */\n      dup3\n        /* \"#utility.yul\":7585:7591   */\n      dup3\n        /* \"#utility.yul\":7565:7598   */\n      tag_209\n      jump\t// in\n    tag_320:\n        /* \"#utility.yul\":7475:7604   */\n      swap2\n      swap1\n      pop\n      jump\t// out\n        /* \"#utility.yul\":7610:7918   */\n    tag_211:\n        /* \"#utility.yul\":7672:7676   */\n      0x00\n        /* \"#utility.yul\":7762:7780   */\n      0xffffffffffffffff\n        /* \"#utility.yul\":7754:7760   */\n      dup3\n        /* \"#utility.yul\":7751:7781   */\n      gt\n        /* \"#utility.yul\":7748:7804   */\n      iszero\n      tag_322\n      jumpi\n        /* \"#utility.yul\":7784:7802   */\n      tag_323\n      tag_53\n      jump\t// in\n    tag_323:\n        /* \"#utility.yul\":7748:7804   */\n    tag_322:\n        /* \"#utility.yul\":7822:7851   */\n      tag_324\n        /* \"#utility.yul\":7844:7850   */\n      dup3\n        /* \"#utility.yul\":7822:7851   */\n      tag_191\n      jump\t// in\n    tag_324:\n        /* \"#utility.yul\":7814:7851   */\n      swap1\n      pop\n        /* \"#utility.yul\":7906:7910   */\n      0x20\n        /* \"#utility.yul\":7900:7904   */\n      dup2\n        /* \"#utility.yul\":7896:7911   */\n      add\n        /* \"#utility.yul\":7888:7911   */\n      swap1\n      pop\n        /* \"#utility.yul\":7610:7918   */\n      swap2\n      swap1\n      pop\n      jump\t// out\n        /* \"#utility.yul\":7924:8072   */\n    tag_212:\n        /* \"#utility.yul\":8022:8028   */\n      dup3\n        /* \"#utility.yul\":8017:8020   */\n      dup2\n        /* \"#utility.yul\":8012:8015   */\n      dup4\n        /* \"#utility.yul\":7999:8029   */\n      calldatacopy\n        /* \"#utility.yul\":8063:8064   */\n      0x00\n        /* \"#utility.yul\":8054:8060   */\n      dup4\n        /* \"#utility.yul\":8049:8052   */\n      dup4\n        /* \"#utility.yul\":8045:8061   */\n      add\n        /* \"#utility.yul\":8038:8065   */\n      mstore\n        /* \"#utility.yul\":7924:8072   */\n      pop\n      pop\n      pop\n      jump\t// out\n        /* \"#utility.yul\":8078:8503   */\n    tag_213:\n        /* \"#utility.yul\":8156:8161   */\n      0x00\n        /* \"#utility.yul\":8181:8247   */\n      tag_327\n        /* \"#utility.yul\":8197:8246   */\n      tag_328\n        /* \"#utility.yul\":8239:8245   */\n      dup5\n        /* \"#utility.yul\":8197:8246   */\n      tag_211\n      jump\t// in\n    tag_328:\n        /* \"#utility.yul\":8181:8247   */\n      tag_210\n      jump\t// in\n    tag_327:\n        /* \"#utility.yul\":8172:8247   */\n      swap1\n      pop\n        /* \"#utility.yul\":8270:8276   */\n      dup3\n        /* \"#utility.yul\":8263:8268   */\n      dup2\n        /* \"#utility.yul\":8256:8277   */\n      mstore\n        /* \"#utility.yul\":8308:8312   */\n      0x20\n        /* \"#utility.yul\":8301:8306   */\n      dup2\n        /* \"#utility.yul\":8297:8313   */\n      add\n        /* \"#utility.yul\":8346:8349   */\n      dup5\n        /* \"#utility.yul\":8337:8343   */\n      dup5\n        /* \"#utility.yul\":8332:8335   */\n      dup5\n        /* \"#utility.yul\":8328:8344   */\n      add\n        /* \"#utility.yul\":8325:8350   */\n      gt\n        /* \"#utility.yul\":8322:8434   */\n      iszero\n      tag_329\n      jumpi\n        /* \"#utility.yul\":8353:8432   */\n      tag_330\n      tag_208\n      jump\t// in\n    tag_330:\n        /* \"#utility.yul\":8322:8434   */\n    tag_329:\n        /* \"#utility.yul\":8443:8497   */\n      tag_331\n        /* \"#utility.yul\":8490:8496   */\n      dup5\n        /* \"#utility.yul\":8485:8488   */\n      dup3\n        /* \"#utility.yul\":8480:8483   */\n      dup6\n        /* \"#utility.yul\":8443:8497   */\n      tag_212\n      jump\t// in\n    tag_331:\n        /* \"#utility.yul\":8162:8503   */\n      pop\n        /* \"#utility.yul\":8078:8503   */\n      swap4\n      swap3\n      pop\n      pop\n      pop\n      jump\t// out\n        /* \"#utility.yul\":8523:8863   */\n    tag_214:\n        /* \"#utility.yul\":8579:8584   */\n      0x00\n        /* \"#utility.yul\":8628:8631   */\n      dup3\n        /* \"#utility.yul\":8621:8625   */\n      0x1f\n        /* \"#utility.yul\":8613:8619   */\n      dup4\n        /* \"#utility.yul\":8609:8626   */\n      add\n        /* \"#utility.yul\":8605:8632   */\n      slt\n        /* \"#utility.yul\":8595:8717   */\n      tag_333\n      jumpi\n        /* \"#utility.yul\":8636:8715   */\n      tag_334\n      tag_207\n      jump\t// in\n    tag_334:\n        /* \"#utility.yul\":8595:8717   */\n    tag_333:\n        /* \"#utility.yul\":8753:8759   */\n      dup2\n        /* \"#utility.yul\":8740:8760   */\n      calldataload\n        /* \"#utility.yul\":8778:8857   */\n      tag_335\n        /* \"#utility.yul\":8853:8856   */\n      dup5\n        /* \"#utility.yul\":8845:8851   */\n      dup3\n        /* \"#utility.yul\":8838:8842   */\n      0x20\n        /* \"#utility.yul\":8830:8836   */\n      dup7\n        /* \"#utility.yul\":8826:8843   */\n      add\n        /* \"#utility.yul\":8778:8857   */\n      tag_213\n      jump\t// in\n    tag_335:\n        /* \"#utility.yul\":8769:8857   */\n      swap2\n      pop\n        /* \"#utility.yul\":8585:8863   */\n      pop\n        /* \"#utility.yul\":8523:8863   */\n      swap3\n      swap2\n      pop\n      pop\n      jump\t// out\n        /* \"#utility.yul\":8869:9378   */\n    tag_17:\n        /* \"#utility.yul\":8938:8944   */\n      0x00\n        /* \"#utility.yul\":8987:8989   */\n      0x20\n        /* \"#utility.yul\":8975:8984   */\n      dup3\n        /* \"#utility.yul\":8966:8973   */\n      dup5\n        /* \"#utility.yul\":8962:8985   */\n      sub\n        /* \"#utility.yul\":8958:8990   */\n      slt\n        /* \"#utility.yul\":8955:9074   */\n      iszero\n      tag_337\n      jumpi\n        /* \"#utility.yul\":8993:9072   */\n      tag_338\n      tag_205\n      jump\t// in\n    tag_338:\n        /* \"#utility.yul\":8955:9074   */\n    tag_337:\n        /* \"#utility.yul\":9141:9142   */\n      0x00\n        /* \"#utility.yul\":9130:9139   */\n      dup3\n        /* \"#utility.yul\":9126:9143   */\n      add\n        /* \"#utility.yul\":9113:9144   */\n      calldataload\n        /* \"#utility.yul\":9171:9189   */\n      0xffffffffffffffff\n        /* \"#utility.yul\":9163:9169   */\n      dup2\n        /* \"#utility.yul\":9160:9190   */\n      gt\n        /* \"#utility.yul\":9157:9274   */\n      iszero\n      tag_339\n      jumpi\n        /* \"#utility.yul\":9193:9272   */\n      tag_340\n      tag_206\n      jump\t// in\n    tag_340:\n        /* \"#utility.yul\":9157:9274   */\n    tag_339:\n        /* \"#utility.yul\":9298:9361   */\n      tag_341\n        /* \"#utility.yul\":9353:9360   */\n      dup5\n        /* \"#utility.yul\":9344:9350   */\n      dup3\n        /* \"#utility.yul\":9333:9342   */\n      dup6\n        /* \"#utility.yul\":9329:9351   */\n      add\n        /* \"#utility.yul\":9298:9361   */\n      tag_214\n      jump\t// in\n    tag_341:\n        /* \"#utility.yul\":9288:9361   */\n      swap2\n      pop\n        /* \"#utility.yul\":9084:9371   */\n      pop\n        /* \"#utility.yul\":8869:9378   */\n      swap3\n      swap2\n      pop\n      pop\n      jump\t// out\n        /* \"#utility.yul\":9432:11165   */\n    tag_215:\n        /* \"#utility.yul\":9543:9546   */\n      0x00\n        /* \"#utility.yul\":9579:9585   */\n      0x0100\n        /* \"#utility.yul\":9574:9577   */\n      dup4\n        /* \"#utility.yul\":9570:9586   */\n      add\n        /* \"#utility.yul\":9670:9674   */\n      0x00\n        /* \"#utility.yul\":9663:9668   */\n      dup4\n        /* \"#utility.yul\":9659:9675   */\n      add\n        /* \"#utility.yul\":9653:9676   */\n      mload\n        /* \"#utility.yul\":9689:9752   */\n      tag_343\n        /* \"#utility.yul\":9746:9750   */\n      0x00\n        /* \"#utility.yul\":9741:9744   */\n      dup7\n        /* \"#utility.yul\":9737:9751   */\n      add\n        /* \"#utility.yul\":9723:9735   */\n      dup3\n        /* \"#utility.yul\":9689:9752   */\n      tag_187\n      jump\t// in\n    tag_343:\n        /* \"#utility.yul\":9596:9762   */\n      pop\n        /* \"#utility.yul\":9845:9849   */\n      0x20\n        /* \"#utility.yul\":9838:9843   */\n      dup4\n        /* \"#utility.yul\":9834:9850   */\n      add\n        /* \"#utility.yul\":9828:9851   */\n      mload\n        /* \"#utility.yul\":9898:9901   */\n      dup5\n        /* \"#utility.yul\":9892:9896   */\n      dup3\n        /* \"#utility.yul\":9888:9902   */\n      sub\n        /* \"#utility.yul\":9881:9885   */\n      0x20\n        /* \"#utility.yul\":9876:9879   */\n      dup7\n        /* \"#utility.yul\":9872:9886   */\n      add\n        /* \"#utility.yul\":9865:9903   */\n      mstore\n        /* \"#utility.yul\":9924:9997   */\n      tag_344\n        /* \"#utility.yul\":9992:9996   */\n      dup3\n        /* \"#utility.yul\":9978:9990   */\n      dup3\n        /* \"#utility.yul\":9924:9997   */\n      tag_192\n      jump\t// in\n    tag_344:\n        /* \"#utility.yul\":9916:9997   */\n      swap2\n      pop\n        /* \"#utility.yul\":9772:10008   */\n      pop\n        /* \"#utility.yul\":10090:10094   */\n      0x40\n        /* \"#utility.yul\":10083:10088   */\n      dup4\n        /* \"#utility.yul\":10079:10095   */\n      add\n        /* \"#utility.yul\":10073:10096   */\n      mload\n        /* \"#utility.yul\":10143:10146   */\n      dup5\n        /* \"#utility.yul\":10137:10141   */\n      dup3\n        /* \"#utility.yul\":10133:10147   */\n      sub\n        /* \"#utility.yul\":10126:10130   */\n      0x40\n        /* \"#utility.yul\":10121:10124   */\n      dup7\n        /* \"#utility.yul\":10117:10131   */\n      add\n        /* \"#utility.yul\":10110:10148   */\n      mstore\n        /* \"#utility.yul\":10169:10242   */\n      tag_345\n        /* \"#utility.yul\":10237:10241   */\n      dup3\n        /* \"#utility.yul\":10223:10235   */\n      dup3\n        /* \"#utility.yul\":10169:10242   */\n      tag_192\n      jump\t// in\n    tag_345:\n        /* \"#utility.yul\":10161:10242   */\n      swap2\n      pop\n        /* \"#utility.yul\":10018:10253   */\n      pop\n        /* \"#utility.yul\":10337:10341   */\n      0x60\n        /* \"#utility.yul\":10330:10335   */\n      dup4\n        /* \"#utility.yul\":10326:10342   */\n      add\n        /* \"#utility.yul\":10320:10343   */\n      mload\n        /* \"#utility.yul\":10356:10419   */\n      tag_346\n        /* \"#utility.yul\":10413:10417   */\n      0x60\n        /* \"#utility.yul\":10408:10411   */\n      dup7\n        /* \"#utility.yul\":10404:10418   */\n      add\n        /* \"#utility.yul\":10390:10402   */\n      dup3\n        /* \"#utility.yul\":10356:10419   */\n      tag_195\n      jump\t// in\n    tag_346:\n        /* \"#utility.yul\":10263:10429   */\n      pop\n        /* \"#utility.yul\":10510:10514   */\n      0x80\n        /* \"#utility.yul\":10503:10508   */\n      dup4\n        /* \"#utility.yul\":10499:10515   */\n      add\n        /* \"#utility.yul\":10493:10516   */\n      mload\n        /* \"#utility.yul\":10529:10592   */\n      tag_347\n        /* \"#utility.yul\":10586:10590   */\n      0x80\n        /* \"#utility.yul\":10581:10584   */\n      dup7\n        /* \"#utility.yul\":10577:10591   */\n      add\n        /* \"#utility.yul\":10563:10575   */\n      dup3\n        /* \"#utility.yul\":10529:10592   */\n      tag_187\n      jump\t// in\n    tag_347:\n        /* \"#utility.yul\":10439:10602   */\n      pop\n        /* \"#utility.yul\":10682:10686   */\n      0xa0\n        /* \"#utility.yul\":10675:10680   */\n      dup4\n        /* \"#utility.yul\":10671:10687   */\n      add\n        /* \"#utility.yul\":10665:10688   */\n      mload\n        /* \"#utility.yul\":10701:10764   */\n      tag_348\n        /* \"#utility.yul\":10758:10762   */\n      0xa0\n        /* \"#utility.yul\":10753:10756   */\n      dup7\n        /* \"#utility.yul\":10749:10763   */\n      add\n        /* \"#utility.yul\":10735:10747   */\n      dup3\n        /* \"#utility.yul\":10701:10764   */\n      tag_187\n      jump\t// in\n    tag_348:\n        /* \"#utility.yul\":10612:10774   */\n      pop\n        /* \"#utility.yul\":10858:10862   */\n      0xc0\n        /* \"#utility.yul\":10851:10856   */\n      dup4\n        /* \"#utility.yul\":10847:10863   */\n      add\n        /* \"#utility.yul\":10841:10864   */\n      mload\n        /* \"#utility.yul\":10877:10947   */\n      tag_349\n        /* \"#utility.yul\":10941:10945   */\n      0xc0\n        /* \"#utility.yul\":10936:10939   */\n      dup7\n        /* \"#utility.yul\":10932:10946   */\n      add\n        /* \"#utility.yul\":10918:10930   */\n      dup3\n        /* \"#utility.yul\":10877:10947   */\n      tag_199\n      jump\t// in\n    tag_349:\n        /* \"#utility.yul\":10784:10957   */\n      pop\n        /* \"#utility.yul\":11046:11050   */\n      0xe0\n        /* \"#utility.yul\":11039:11044   */\n      dup4\n        /* \"#utility.yul\":11035:11051   */\n      add\n        /* \"#utility.yul\":11029:11052   */\n      mload\n        /* \"#utility.yul\":11065:11128   */\n      tag_350\n        /* \"#utility.yul\":11122:11126   */\n      0xe0\n        /* \"#utility.yul\":11117:11120   */\n      dup7\n        /* \"#utility.yul\":11113:11127   */\n      add\n        /* \"#utility.yul\":11099:11111   */\n      dup3\n        /* \"#utility.yul\":11065:11128   */\n      tag_187\n      jump\t// in\n    tag_350:\n        /* \"#utility.yul\":10967:11138   */\n      pop\n        /* \"#utility.yul\":11155:11159   */\n      dup1\n        /* \"#utility.yul\":11148:11159   */\n      swap2\n      pop\n        /* \"#utility.yul\":9548:11165   */\n      pop\n        /* \"#utility.yul\":9432:11165   */\n      swap3\n      swap2\n      pop\n      pop\n      jump\t// out\n        /* \"#utility.yul\":11171:11528   */\n    tag_20:\n        /* \"#utility.yul\":11306:11310   */\n      0x00\n        /* \"#utility.yul\":11344:11346   */\n      0x20\n        /* \"#utility.yul\":11333:11342   */\n      dup3\n        /* \"#utility.yul\":11329:11347   */\n      add\n        /* \"#utility.yul\":11321:11347   */\n      swap1\n      pop\n        /* \"#utility.yul\":11393:11402   */\n      dup2\n        /* \"#utility.yul\":11387:11391   */\n      dup2\n        /* \"#utility.yul\":11383:11403   */\n      sub\n        /* \"#utility.yul\":11379:11380   */\n      0x00\n        /* \"#utility.yul\":11368:11377   */\n      dup4\n        /* \"#utility.yul\":11364:11381   */\n      add\n        /* \"#utility.yul\":11357:11404   */\n      mstore\n        /* \"#utility.yul\":11421:11521   */\n      tag_352\n        /* \"#utility.yul\":11516:11520   */\n      dup2\n        /* \"#utility.yul\":11507:11513   */\n      dup5\n        /* \"#utility.yul\":11421:11521   */\n      tag_215\n      jump\t// in\n    tag_352:\n        /* \"#utility.yul\":11413:11521   */\n      swap1\n      pop\n        /* \"#utility.yul\":11171:11528   */\n      swap3\n      swap2\n      pop\n      pop\n      jump\t// out\n        /* \"#utility.yul\":11534:12368   */\n    tag_23:\n        /* \"#utility.yul\":11622:11628   */\n      0x00\n        /* \"#utility.yul\":11630:11636   */\n      dup1\n        /* \"#utility.yul\":11679:11681   */\n      0x40\n        /* \"#utility.yul\":11667:11676   */\n      dup4\n        /* \"#utility.yul\":11658:11665   */\n      dup6\n        /* \"#utility.yul\":11654:11677   */\n      sub\n        /* \"#utility.yul\":11650:11682   */\n      slt\n        /* \"#utility.yul\":11647:11766   */\n      iszero\n      tag_354\n      jumpi\n        /* \"#utility.yul\":11685:11764   */\n      tag_355\n      tag_205\n      jump\t// in\n    tag_355:\n        /* \"#utility.yul\":11647:11766   */\n    tag_354:\n        /* \"#utility.yul\":11833:11834   */\n      0x00\n        /* \"#utility.yul\":11822:11831   */\n      dup4\n        /* \"#utility.yul\":11818:11835   */\n      add\n        /* \"#utility.yul\":11805:11836   */\n      calldataload\n        /* \"#utility.yul\":11863:11881   */\n      0xffffffffffffffff\n        /* \"#utility.yul\":11855:11861   */\n      dup2\n        /* \"#utility.yul\":11852:11882   */\n      gt\n        /* \"#utility.yul\":11849:11966   */\n      iszero\n      tag_356\n      jumpi\n        /* \"#utility.yul\":11885:11964   */\n      tag_357\n      tag_206\n      jump\t// in\n    tag_357:\n        /* \"#utility.yul\":11849:11966   */\n    tag_356:\n        /* \"#utility.yul\":11990:12053   */\n      tag_358\n        /* \"#utility.yul\":12045:12052   */\n      dup6\n        /* \"#utility.yul\":12036:12042   */\n      dup3\n        /* \"#utility.yul\":12025:12034   */\n      dup7\n        /* \"#utility.yul\":12021:12043   */\n      add\n        /* \"#utility.yul\":11990:12053   */\n      tag_214\n      jump\t// in\n    tag_358:\n        /* \"#utility.yul\":11980:12053   */\n      swap3\n      pop\n        /* \"#utility.yul\":11776:12063   */\n      pop\n        /* \"#utility.yul\":12130:12132   */\n      0x20\n        /* \"#utility.yul\":12119:12128   */\n      dup4\n        /* \"#utility.yul\":12115:12133   */\n      add\n        /* \"#utility.yul\":12102:12134   */\n      calldataload\n        /* \"#utility.yul\":12161:12179   */\n      0xffffffffffffffff\n        /* \"#utility.yul\":12153:12159   */\n      dup2\n        /* \"#utility.yul\":12150:12180   */\n      gt\n        /* \"#utility.yul\":12147:12264   */\n      iszero\n      tag_359\n      jumpi\n        /* \"#utility.yul\":12183:12262   */\n      tag_360\n      tag_206\n      jump\t// in\n    tag_360:\n        /* \"#utility.yul\":12147:12264   */\n    tag_359:\n        /* \"#utility.yul\":12288:12351   */\n      tag_361\n        /* \"#utility.yul\":12343:12350   */\n      dup6\n        /* \"#utility.yul\":12334:12340   */\n      dup3\n        /* \"#utility.yul\":12323:12332   */\n      dup7\n        /* \"#utility.yul\":12319:12341   */\n      add\n        /* \"#utility.yul\":12288:12351   */\n      tag_214\n      jump\t// in\n    tag_361:\n        /* \"#utility.yul\":12278:12351   */\n      swap2\n      pop\n        /* \"#utility.yul\":12073:12361   */\n      pop\n        /* \"#utility.yul\":11534:12368   */\n      swap3\n      pop\n      swap3\n      swap1\n      pop\n      jump\t// out\n        /* \"#utility.yul\":12374:12464   */\n    tag_216:\n        /* \"#utility.yul\":12408:12415   */\n      0x00\n        /* \"#utility.yul\":12451:12456   */\n      dup2\n        /* \"#utility.yul\":12444:12457   */\n      iszero\n        /* \"#utility.yul\":12437:12458   */\n      iszero\n        /* \"#utility.yul\":12426:12458   */\n      swap1\n      pop\n        /* \"#utility.yul\":12374:12464   */\n      swap2\n      swap1\n      pop\n      jump\t// out\n        /* \"#utility.yul\":12470:12586   */\n    tag_217:\n        /* \"#utility.yul\":12540:12561   */\n      tag_364\n        /* \"#utility.yul\":12555:12560   */\n      dup2\n        /* \"#utility.yul\":12540:12561   */\n      tag_216\n      jump\t// in\n    tag_364:\n        /* \"#utility.yul\":12533:12538   */\n      dup2\n        /* \"#utility.yul\":12530:12562   */\n      eq\n        /* \"#utility.yul\":12520:12580   */\n      tag_365\n      jumpi\n        /* \"#utility.yul\":12576:12577   */\n      0x00\n        /* \"#utility.yul\":12573:12574   */\n      dup1\n        /* \"#utility.yul\":12566:12578   */\n      revert\n        /* \"#utility.yul\":12520:12580   */\n    tag_365:\n        /* \"#utility.yul\":12470:12586   */\n      pop\n      jump\t// out\n        /* \"#utility.yul\":12592:12725   */\n    tag_218:\n        /* \"#utility.yul\":12635:12640   */\n      0x00\n        /* \"#utility.yul\":12673:12679   */\n      dup2\n        /* \"#utility.yul\":12660:12680   */\n      calldataload\n        /* \"#utility.yul\":12651:12680   */\n      swap1\n      pop\n        /* \"#utility.yul\":12689:12719   */\n      tag_367\n        /* \"#utility.yul\":12713:12718   */\n      dup2\n        /* \"#utility.yul\":12689:12719   */\n      tag_217\n      jump\t// in\n    tag_367:\n        /* \"#utility.yul\":12592:12725   */\n      swap3\n      swap2\n      pop\n      pop\n      jump\t// out\n        /* \"#utility.yul\":12731:13379   */\n    tag_27:\n        /* \"#utility.yul\":12806:12812   */\n      0x00\n        /* \"#utility.yul\":12814:12820   */\n      dup1\n        /* \"#utility.yul\":12863:12865   */\n      0x40\n        /* \"#utility.yul\":12851:12860   */\n      dup4\n        /* \"#utility.yul\":12842:12849   */\n      dup6\n        /* \"#utility.yul\":12838:12861   */\n      sub\n        /* \"#utility.yul\":12834:12866   */\n      slt\n        /* \"#utility.yul\":12831:12950   */\n      iszero\n      tag_369\n      jumpi\n        /* \"#utility.yul\":12869:12948   */\n      tag_370\n      tag_205\n      jump\t// in\n    tag_370:\n        /* \"#utility.yul\":12831:12950   */\n    tag_369:\n        /* \"#utility.yul\":13017:13018   */\n      0x00\n        /* \"#utility.yul\":13006:13015   */\n      dup4\n        /* \"#utility.yul\":13002:13019   */\n      add\n        /* \"#utility.yul\":12989:13020   */\n      calldataload\n        /* \"#utility.yul\":13047:13065   */\n      0xffffffffffffffff\n        /* \"#utility.yul\":13039:13045   */\n      dup2\n        /* \"#utility.yul\":13036:13066   */\n      gt\n        /* \"#utility.yul\":13033:13150   */\n      iszero\n      tag_371\n      jumpi\n        /* \"#utility.yul\":13069:13148   */\n      tag_372\n      tag_206\n      jump\t// in\n    tag_372:\n        /* \"#utility.yul\":13033:13150   */\n    tag_371:\n        /* \"#utility.yul\":13174:13237   */\n      tag_373\n        /* \"#utility.yul\":13229:13236   */\n      dup6\n        /* \"#utility.yul\":13220:13226   */\n      dup3\n        /* \"#utility.yul\":13209:13218   */\n      dup7\n        /* \"#utility.yul\":13205:13227   */\n      add\n        /* \"#utility.yul\":13174:13237   */\n      tag_214\n      jump\t// in\n    tag_373:\n        /* \"#utility.yul\":13164:13237   */\n      swap3\n      pop\n        /* \"#utility.yul\":12960:13247   */\n      pop\n        /* \"#utility.yul\":13286:13288   */\n      0x20\n        /* \"#utility.yul\":13312:13362   */\n      tag_374\n        /* \"#utility.yul\":13354:13361   */\n      dup6\n        /* \"#utility.yul\":13345:13351   */\n      dup3\n        /* \"#utility.yul\":13334:13343   */\n      dup7\n        /* \"#utility.yul\":13330:13352   */\n      add\n        /* \"#utility.yul\":13312:13362   */\n      tag_218\n      jump\t// in\n    tag_374:\n        /* \"#utility.yul\":13302:13362   */\n      swap2\n      pop\n        /* \"#utility.yul\":13257:13372   */\n      pop\n        /* \"#utility.yul\":12731:13379   */\n      swap3\n      pop\n      swap3\n      swap1\n      pop\n      jump\t// out\n        /* \"#utility.yul\":13385:13502   */\n    tag_219:\n        /* \"#utility.yul\":13494:13495   */\n      0x00\n        /* \"#utility.yul\":13491:13492   */\n      dup1\n        /* \"#utility.yul\":13484:13496   */\n      revert\n        /* \"#utility.yul\":13508:13625   */\n    tag_220:\n        /* \"#utility.yul\":13617:13618   */\n      0x00\n        /* \"#utility.yul\":13614:13615   */\n      dup1\n        /* \"#utility.yul\":13607:13619   */\n      revert\n        /* \"#utility.yul\":13645:14198   */\n    tag_221:\n        /* \"#utility.yul\":13703:13711   */\n      0x00\n        /* \"#utility.yul\":13713:13719   */\n      dup1\n        /* \"#utility.yul\":13763:13766   */\n      dup4\n        /* \"#utility.yul\":13756:13760   */\n      0x1f\n        /* \"#utility.yul\":13748:13754   */\n      dup5\n        /* \"#utility.yul\":13744:13761   */\n      add\n        /* \"#utility.yul\":13740:13767   */\n      slt\n        /* \"#utility.yul\":13730:13852   */\n      tag_378\n      jumpi\n        /* \"#utility.yul\":13771:13850   */\n      tag_379\n      tag_207\n      jump\t// in\n    tag_379:\n        /* \"#utility.yul\":13730:13852   */\n    tag_378:\n        /* \"#utility.yul\":13884:13890   */\n      dup3\n        /* \"#utility.yul\":13871:13891   */\n      calldataload\n        /* \"#utility.yul\":13861:13891   */\n      swap1\n      pop\n        /* \"#utility.yul\":13914:13932   */\n      0xffffffffffffffff\n        /* \"#utility.yul\":13906:13912   */\n      dup2\n        /* \"#utility.yul\":13903:13933   */\n      gt\n        /* \"#utility.yul\":13900:14017   */\n      iszero\n      tag_380\n      jumpi\n        /* \"#utility.yul\":13936:14015   */\n      tag_381\n      tag_219\n      jump\t// in\n    tag_381:\n        /* \"#utility.yul\":13900:14017   */\n    tag_380:\n        /* \"#utility.yul\":14050:14054   */\n      0x20\n        /* \"#utility.yul\":14042:14048   */\n      dup4\n        /* \"#utility.yul\":14038:14055   */\n      add\n        /* \"#utility.yul\":14026:14055   */\n      swap2\n      pop\n        /* \"#utility.yul\":14104:14107   */\n      dup4\n        /* \"#utility.yul\":14096:14100   */\n      0x01\n        /* \"#utility.yul\":14088:14094   */\n      dup3\n        /* \"#utility.yul\":14084:14101   */\n      mul\n        /* \"#utility.yul\":14074:14082   */\n      dup4\n        /* \"#utility.yul\":14070:14102   */\n      add\n        /* \"#utility.yul\":14067:14108   */\n      gt\n        /* \"#utility.yul\":14064:14192   */\n      iszero\n      tag_382\n      jumpi\n        /* \"#utility.yul\":14111:14190   */\n      tag_383\n      tag_220\n      jump\t// in\n    tag_383:\n        /* \"#utility.yul\":14064:14192   */\n    tag_382:\n        /* \"#utility.yul\":13645:14198   */\n      swap3\n      pop\n      swap3\n      swap1\n      pop\n      jump\t// out\n        /* \"#utility.yul\":14204:14733   */\n    tag_31:\n        /* \"#utility.yul\":14275:14281   */\n      0x00\n        /* \"#utility.yul\":14283:14289   */\n      dup1\n        /* \"#utility.yul\":14332:14334   */\n      0x20\n        /* \"#utility.yul\":14320:14329   */\n      dup4\n        /* \"#utility.yul\":14311:14318   */\n      dup6\n        /* \"#utility.yul\":14307:14330   */\n      sub\n        /* \"#utility.yul\":14303:14335   */\n      slt\n        /* \"#utility.yul\":14300:14419   */\n      iszero\n      tag_385\n      jumpi\n        /* \"#utility.yul\":14338:14417   */\n      tag_386\n      tag_205\n      jump\t// in\n    tag_386:\n        /* \"#utility.yul\":14300:14419   */\n    tag_385:\n        /* \"#utility.yul\":14486:14487   */\n      0x00\n        /* \"#utility.yul\":14475:14484   */\n      dup4\n        /* \"#utility.yul\":14471:14488   */\n      add\n        /* \"#utility.yul\":14458:14489   */\n      calldataload\n        /* \"#utility.yul\":14516:14534   */\n      0xffffffffffffffff\n        /* \"#utility.yul\":14508:14514   */\n      dup2\n        /* \"#utility.yul\":14505:14535   */\n      gt\n        /* \"#utility.yul\":14502:14619   */\n      iszero\n      tag_387\n      jumpi\n        /* \"#utility.yul\":14538:14617   */\n      tag_388\n      tag_206\n      jump\t// in\n    tag_388:\n        /* \"#utility.yul\":14502:14619   */\n    tag_387:\n        /* \"#utility.yul\":14651:14716   */\n      tag_389\n        /* \"#utility.yul\":14708:14715   */\n      dup6\n        /* \"#utility.yul\":14699:14705   */\n      dup3\n        /* \"#utility.yul\":14688:14697   */\n      dup7\n        /* \"#utility.yul\":14684:14706   */\n      add\n        /* \"#utility.yul\":14651:14716   */\n      tag_221\n      jump\t// in\n    tag_389:\n        /* \"#utility.yul\":14633:14716   */\n      swap3\n      pop\n      swap3\n      pop\n        /* \"#utility.yul\":14429:14726   */\n      pop\n        /* \"#utility.yul\":14204:14733   */\n      swap3\n      pop\n      swap3\n      swap1\n      pop\n      jump\t// out\n        /* \"#utility.yul\":14739:14857   */\n    tag_222:\n        /* \"#utility.yul\":14826:14850   */\n      tag_391\n        /* \"#utility.yul\":14844:14849   */\n      dup2\n        /* \"#utility.yul\":14826:14850   */\n      tag_186\n      jump\t// in\n    tag_391:\n        /* \"#utility.yul\":14821:14824   */\n      dup3\n        /* \"#utility.yul\":14814:14851   */\n      mstore\n        /* \"#utility.yul\":14739:14857   */\n      pop\n      pop\n      jump\t// out\n        /* \"#utility.yul\":14863:15032   */\n    tag_223:\n        /* \"#utility.yul\":14947:14958   */\n      0x00\n        /* \"#utility.yul\":14981:14987   */\n      dup3\n        /* \"#utility.yul\":14976:14979   */\n      dup3\n        /* \"#utility.yul\":14969:14988   */\n      mstore\n        /* \"#utility.yul\":15021:15025   */\n      0x20\n        /* \"#utility.yul\":15016:15019   */\n      dup3\n        /* \"#utility.yul\":15012:15026   */\n      add\n        /* \"#utility.yul\":14997:15026   */\n      swap1\n      pop\n        /* \"#utility.yul\":14863:15032   */\n      swap3\n      swap2\n      pop\n      pop\n      jump\t// out\n        /* \"#utility.yul\":15038:15415   */\n    tag_224:\n        /* \"#utility.yul\":15126:15129   */\n      0x00\n        /* \"#utility.yul\":15154:15193   */\n      tag_394\n        /* \"#utility.yul\":15187:15192   */\n      dup3\n        /* \"#utility.yul\":15154:15193   */\n      tag_188\n      jump\t// in\n    tag_394:\n        /* \"#utility.yul\":15209:15280   */\n      tag_395\n        /* \"#utility.yul\":15273:15279   */\n      dup2\n        /* \"#utility.yul\":15268:15271   */\n      dup6\n        /* \"#utility.yul\":15209:15280   */\n      tag_223\n      jump\t// in\n    tag_395:\n        /* \"#utility.yul\":15202:15280   */\n      swap4\n      pop\n        /* \"#utility.yul\":15289:15354   */\n      tag_396\n        /* \"#utility.yul\":15347:15353   */\n      dup2\n        /* \"#utility.yul\":15342:15345   */\n      dup6\n        /* \"#utility.yul\":15335:15339   */\n      0x20\n        /* \"#utility.yul\":15328:15333   */\n      dup7\n        /* \"#utility.yul\":15324:15340   */\n      add\n        /* \"#utility.yul\":15289:15354   */\n      tag_190\n      jump\t// in\n    tag_396:\n        /* \"#utility.yul\":15379:15408   */\n      tag_397\n        /* \"#utility.yul\":15401:15407   */\n      dup2\n        /* \"#utility.yul\":15379:15408   */\n      tag_191\n      jump\t// in\n    tag_397:\n        /* \"#utility.yul\":15374:15377   */\n      dup5\n        /* \"#utility.yul\":15370:15409   */\n      add\n        /* \"#utility.yul\":15363:15409   */\n      swap2\n      pop\n        /* \"#utility.yul\":15130:15415   */\n      pop\n        /* \"#utility.yul\":15038:15415   */\n      swap3\n      swap2\n      pop\n      pop\n      jump\t// out\n        /* \"#utility.yul\":15421:15539   */\n    tag_225:\n        /* \"#utility.yul\":15508:15532   */\n      tag_399\n        /* \"#utility.yul\":15526:15531   */\n      dup2\n        /* \"#utility.yul\":15508:15532   */\n      tag_194\n      jump\t// in\n    tag_399:\n        /* \"#utility.yul\":15503:15506   */\n      dup3\n        /* \"#utility.yul\":15496:15533   */\n      mstore\n        /* \"#utility.yul\":15421:15539   */\n      pop\n      pop\n      jump\t// out\n        /* \"#utility.yul\":15545:15690   */\n    tag_226:\n        /* \"#utility.yul\":15639:15683   */\n      tag_401\n        /* \"#utility.yul\":15677:15682   */\n      dup2\n        /* \"#utility.yul\":15639:15683   */\n      tag_198\n      jump\t// in\n    tag_401:\n        /* \"#utility.yul\":15634:15637   */\n      dup3\n        /* \"#utility.yul\":15627:15684   */\n      mstore\n        /* \"#utility.yul\":15545:15690   */\n      pop\n      pop\n      jump\t// out\n        /* \"#utility.yul\":15696:16889   */\n    tag_40:\n        /* \"#utility.yul\":16032:16036   */\n      0x00\n        /* \"#utility.yul\":16070:16073   */\n      0x0100\n        /* \"#utility.yul\":16059:16068   */\n      dup3\n        /* \"#utility.yul\":16055:16074   */\n      add\n        /* \"#utility.yul\":16047:16074   */\n      swap1\n      pop\n        /* \"#utility.yul\":16084:16155   */\n      tag_403\n        /* \"#utility.yul\":16152:16153   */\n      0x00\n        /* \"#utility.yul\":16141:16150   */\n      dup4\n        /* \"#utility.yul\":16137:16154   */\n      add\n        /* \"#utility.yul\":16128:16134   */\n      dup12\n        /* \"#utility.yul\":16084:16155   */\n      tag_222\n      jump\t// in\n    tag_403:\n        /* \"#utility.yul\":16202:16211   */\n      dup2\n        /* \"#utility.yul\":16196:16200   */\n      dup2\n        /* \"#utility.yul\":16192:16212   */\n      sub\n        /* \"#utility.yul\":16187:16189   */\n      0x20\n        /* \"#utility.yul\":16176:16185   */\n      dup4\n        /* \"#utility.yul\":16172:16190   */\n      add\n        /* \"#utility.yul\":16165:16213   */\n      mstore\n        /* \"#utility.yul\":16230:16308   */\n      tag_404\n        /* \"#utility.yul\":16303:16307   */\n      dup2\n        /* \"#utility.yul\":16294:16300   */\n      dup11\n        /* \"#utility.yul\":16230:16308   */\n      tag_224\n      jump\t// in\n    tag_404:\n        /* \"#utility.yul\":16222:16308   */\n      swap1\n      pop\n        /* \"#utility.yul\":16355:16364   */\n      dup2\n        /* \"#utility.yul\":16349:16353   */\n      dup2\n        /* \"#utility.yul\":16345:16365   */\n      sub\n        /* \"#utility.yul\":16340:16342   */\n      0x40\n        /* \"#utility.yul\":16329:16338   */\n      dup4\n        /* \"#utility.yul\":16325:16343   */\n      add\n        /* \"#utility.yul\":16318:16366   */\n      mstore\n        /* \"#utility.yul\":16383:16461   */\n      tag_405\n        /* \"#utility.yul\":16456:16460   */\n      dup2\n        /* \"#utility.yul\":16447:16453   */\n      dup10\n        /* \"#utility.yul\":16383:16461   */\n      tag_224\n      jump\t// in\n    tag_405:\n        /* \"#utility.yul\":16375:16461   */\n      swap1\n      pop\n        /* \"#utility.yul\":16471:16543   */\n      tag_406\n        /* \"#utility.yul\":16539:16541   */\n      0x60\n        /* \"#utility.yul\":16528:16537   */\n      dup4\n        /* \"#utility.yul\":16524:16542   */\n      add\n        /* \"#utility.yul\":16515:16521   */\n      dup9\n        /* \"#utility.yul\":16471:16543   */\n      tag_225\n      jump\t// in\n    tag_406:\n        /* \"#utility.yul\":16553:16626   */\n      tag_407\n        /* \"#utility.yul\":16621:16624   */\n      0x80\n        /* \"#utility.yul\":16610:16619   */\n      dup4\n        /* \"#utility.yul\":16606:16625   */\n      add\n        /* \"#utility.yul\":16597:16603   */\n      dup8\n        /* \"#utility.yul\":16553:16626   */\n      tag_222\n      jump\t// in\n    tag_407:\n        /* \"#utility.yul\":16636:16709   */\n      tag_408\n        /* \"#utility.yul\":16704:16707   */\n      0xa0\n        /* \"#utility.yul\":16693:16702   */\n      dup4\n        /* \"#utility.yul\":16689:16708   */\n      add\n        /* \"#utility.yul\":16680:16686   */\n      dup7\n        /* \"#utility.yul\":16636:16709   */\n      tag_222\n      jump\t// in\n    tag_408:\n        /* \"#utility.yul\":16719:16799   */\n      tag_409\n        /* \"#utility.yul\":16794:16797   */\n      0xc0\n        /* \"#utility.yul\":16783:16792   */\n      dup4\n        /* \"#utility.yul\":16779:16798   */\n      add\n        /* \"#utility.yul\":16770:16776   */\n      dup6\n        /* \"#utility.yul\":16719:16799   */\n      tag_226\n      jump\t// in\n    tag_409:\n        /* \"#utility.yul\":16809:16882   */\n      tag_410\n        /* \"#utility.yul\":16877:16880   */\n      0xe0\n        /* \"#utility.yul\":16866:16875   */\n      dup4\n        /* \"#utility.yul\":16862:16881   */\n      add\n        /* \"#utility.yul\":16853:16859   */\n      dup5\n        /* \"#utility.yul\":16809:16882   */\n      tag_222\n      jump\t// in\n    tag_410:\n        /* \"#utility.yul\":15696:16889   */\n      swap10\n      swap9\n      pop\n      pop\n      pop\n      pop\n      pop\n      pop\n      pop\n      pop\n      pop\n      jump\t// out\n        /* \"#utility.yul\":16895:17075   */\n    tag_227:\n        /* \"#utility.yul\":16943:17020   */\n      0x4e487b7100000000000000000000000000000000000000000000000000000000\n        /* \"#utility.yul\":16940:16941   */\n      0x00\n        /* \"#utility.yul\":16933:17021   */\n      mstore\n        /* \"#utility.yul\":17040:17044   */\n      0x22\n        /* \"#utility.yul\":17037:17038   */\n      0x04\n        /* \"#utility.yul\":17030:17045   */\n      mstore\n        /* \"#utility.yul\":17064:17068   */\n      0x24\n        /* \"#utility.yul\":17061:17062   */\n      0x00\n        /* \"#utility.yul\":17054:17069   */\n      revert\n        /* \"#utility.yul\":17081:17401   */\n    tag_46:\n        /* \"#utility.yul\":17125:17131   */\n      0x00\n        /* \"#utility.yul\":17162:17163   */\n      0x02\n        /* \"#utility.yul\":17156:17160   */\n      dup3\n        /* \"#utility.yul\":17152:17164   */\n      div\n        /* \"#utility.yul\":17142:17164   */\n      swap1\n      pop\n        /* \"#utility.yul\":17209:17210   */\n      0x01\n        /* \"#utility.yul\":17203:17207   */\n      dup3\n        /* \"#utility.yul\":17199:17211   */\n      and\n        /* \"#utility.yul\":17230:17248   */\n      dup1\n        /* \"#utility.yul\":17220:17301   */\n      tag_413\n      jumpi\n        /* \"#utility.yul\":17286:17290   */\n      0x7f\n        /* \"#utility.yul\":17278:17284   */\n      dup3\n        /* \"#utility.yul\":17274:17291   */\n      and\n        /* \"#utility.yul\":17264:17291   */\n      swap2\n      pop\n        /* \"#utility.yul\":17220:17301   */\n    tag_413:\n        /* \"#utility.yul\":17348:17350   */\n      0x20\n        /* \"#utility.yul\":17340:17346   */\n      dup3\n        /* \"#utility.yul\":17337:17351   */\n      lt\n        /* \"#utility.yul\":17317:17335   */\n      dup2\n        /* \"#utility.yul\":17314:17352   */\n      sub\n        /* \"#utility.yul\":17311:17395   */\n      tag_414\n      jumpi\n        /* \"#utility.yul\":17367:17385   */\n      tag_415\n      tag_227\n      jump\t// in\n    tag_415:\n        /* \"#utility.yul\":17311:17395   */\n    tag_414:\n        /* \"#utility.yul\":17132:17401   */\n      pop\n        /* \"#utility.yul\":17081:17401   */\n      swap2\n      swap1\n      pop\n      jump\t// out\n        /* \"#utility.yul\":17407:17587   */\n    tag_63:\n        /* \"#utility.yul\":17455:17532   */\n      0x4e487b7100000000000000000000000000000000000000000000000000000000\n        /* \"#utility.yul\":17452:17453   */\n      0x00\n        /* \"#utility.yul\":17445:17533   */\n      mstore\n        /* \"#utility.yul\":17552:17556   */\n      0x32\n        /* \"#utility.yul\":17549:17550   */\n      0x04\n        /* \"#utility.yul\":17542:17557   */\n      mstore\n        /* \"#utility.yul\":17576:17580   */\n      0x24\n        /* \"#utility.yul\":17573:17574   */\n      0x00\n        /* \"#utility.yul\":17566:17581   */\n      revert\n        /* \"#utility.yul\":17593:17741   */\n    tag_228:\n        /* \"#utility.yul\":17695:17706   */\n      0x00\n        /* \"#utility.yul\":17732:17735   */\n      dup2\n        /* \"#utility.yul\":17717:17735   */\n      swap1\n      pop\n        /* \"#utility.yul\":17593:17741   */\n      swap3\n      swap2\n      pop\n      pop\n      jump\t// out\n        /* \"#utility.yul\":17747:18137   */\n    tag_229:\n        /* \"#utility.yul\":17853:17856   */\n      0x00\n        /* \"#utility.yul\":17881:17920   */\n      tag_419\n        /* \"#utility.yul\":17914:17919   */\n      dup3\n        /* \"#utility.yul\":17881:17920   */\n      tag_188\n      jump\t// in\n    tag_419:\n        /* \"#utility.yul\":17936:18025   */\n      tag_420\n        /* \"#utility.yul\":18018:18024   */\n      dup2\n        /* \"#utility.yul\":18013:18016   */\n      dup6\n        /* \"#utility.yul\":17936:18025   */\n      tag_228\n      jump\t// in\n    tag_420:\n        /* \"#utility.yul\":17929:18025   */\n      swap4\n      pop\n        /* \"#utility.yul\":18034:18099   */\n      tag_421\n        /* \"#utility.yul\":18092:18098   */\n      dup2\n        /* \"#utility.yul\":18087:18090   */\n      dup6\n        /* \"#utility.yul\":18080:18084   */\n      0x20\n        /* \"#utility.yul\":18073:18078   */\n      dup7\n        /* \"#utility.yul\":18069:18085   */\n      add\n        /* \"#utility.yul\":18034:18099   */\n      tag_190\n      jump\t// in\n    tag_421:\n        /* \"#utility.yul\":18124:18130   */\n      dup1\n        /* \"#utility.yul\":18119:18122   */\n      dup5\n        /* \"#utility.yul\":18115:18131   */\n      add\n        /* \"#utility.yul\":18108:18131   */\n      swap2\n      pop\n        /* \"#utility.yul\":17857:18137   */\n      pop\n        /* \"#utility.yul\":17747:18137   */\n      swap3\n      swap2\n      pop\n      pop\n      jump\t// out\n        /* \"#utility.yul\":18143:18418   */\n    tag_65:\n        /* \"#utility.yul\":18275:18278   */\n      0x00\n        /* \"#utility.yul\":18297:18392   */\n      tag_423\n        /* \"#utility.yul\":18388:18391   */\n      dup3\n        /* \"#utility.yul\":18379:18385   */\n      dup5\n        /* \"#utility.yul\":18297:18392   */\n      tag_229\n      jump\t// in\n    tag_423:\n        /* \"#utility.yul\":18290:18392   */\n      swap2\n      pop\n        /* \"#utility.yul\":18409:18412   */\n      dup2\n        /* \"#utility.yul\":18402:18412   */\n      swap1\n      pop\n        /* \"#utility.yul\":18143:18418   */\n      swap3\n      swap2\n      pop\n      pop\n      jump\t// out\n        /* \"#utility.yul\":18424:18594   */\n    tag_230:\n        /* \"#utility.yul\":18564:18586   */\n      0x697373756520616c726561647920657869737473000000000000000000000000\n        /* \"#utility.yul\":18560:18561   */\n      0x00\n        /* \"#utility.yul\":18552:18558   */\n      dup3\n        /* \"#utility.yul\":18548:18562   */\n      add\n        /* \"#utility.yul\":18541:18587   */\n      mstore\n        /* \"#utility.yul\":18424:18594   */\n      pop\n      jump\t// out\n        /* \"#utility.yul\":18600:18966   */\n    tag_231:\n        /* \"#utility.yul\":18742:18745   */\n      0x00\n        /* \"#utility.yul\":18763:18830   */\n      tag_426\n        /* \"#utility.yul\":18827:18829   */\n      0x14\n        /* \"#utility.yul\":18822:18825   */\n      dup4\n        /* \"#utility.yul\":18763:18830   */\n      tag_223\n      jump\t// in\n    tag_426:\n        /* \"#utility.yul\":18756:18830   */\n      swap2\n      pop\n        /* \"#utility.yul\":18839:18932   */\n      tag_427\n        /* \"#utility.yul\":18928:18931   */\n      dup3\n        /* \"#utility.yul\":18839:18932   */\n      tag_230\n      jump\t// in\n    tag_427:\n        /* \"#utility.yul\":18957:18959   */\n      0x20\n        /* \"#utility.yul\":18952:18955   */\n      dup3\n        /* \"#utility.yul\":18948:18960   */\n      add\n        /* \"#utility.yul\":18941:18960   */\n      swap1\n      pop\n        /* \"#utility.yul\":18600:18966   */\n      swap2\n      swap1\n      pop\n      jump\t// out\n        /* \"#utility.yul\":18972:19391   */\n    tag_104:\n        /* \"#utility.yul\":19138:19142   */\n      0x00\n        /* \"#utility.yul\":19176:19178   */\n      0x20\n        /* \"#utility.yul\":19165:19174   */\n      dup3\n        /* \"#utility.yul\":19161:19179   */\n      add\n        /* \"#utility.yul\":19153:19179   */\n      swap1\n      pop\n        /* \"#utility.yul\":19225:19234   */\n      dup2\n        /* \"#utility.yul\":19219:19223   */\n      dup2\n        /* \"#utility.yul\":19215:19235   */\n      sub\n        /* \"#utility.yul\":19211:19212   */\n      0x00\n        /* \"#utility.yul\":19200:19209   */\n      dup4\n        /* \"#utility.yul\":19196:19213   */\n      add\n        /* \"#utility.yul\":19189:19236   */\n      mstore\n        /* \"#utility.yul\":19253:19384   */\n      tag_429\n        /* \"#utility.yul\":19379:19383   */\n      dup2\n        /* \"#utility.yul\":19253:19384   */\n      tag_231\n      jump\t// in\n    tag_429:\n        /* \"#utility.yul\":19245:19384   */\n      swap1\n      pop\n        /* \"#utility.yul\":18972:19391   */\n      swap2\n      swap1\n      pop\n      jump\t// out\n        /* \"#utility.yul\":19397:19577   */\n    tag_232:\n        /* \"#utility.yul\":19445:19522   */\n      0x4e487b7100000000000000000000000000000000000000000000000000000000\n        /* \"#utility.yul\":19442:19443   */\n      0x00\n        /* \"#utility.yul\":19435:19523   */\n      mstore\n        /* \"#utility.yul\":19542:19546   */\n      0x11\n        /* \"#utility.yul\":19539:19540   */\n      0x04\n        /* \"#utility.yul\":19532:19547   */\n      mstore\n        /* \"#utility.yul\":19566:19570   */\n      0x24\n        /* \"#utility.yul\":19563:19564   */\n      0x00\n        /* \"#utility.yul\":19556:19571   */\n      revert\n        /* \"#utility.yul\":19583:19816   */\n    tag_106:\n        /* \"#utility.yul\":19622:19625   */\n      0x00\n        /* \"#utility.yul\":19645:19669   */\n      tag_432\n        /* \"#utility.yul\":19663:19668   */\n      dup3\n        /* \"#utility.yul\":19645:19669   */\n      tag_186\n      jump\t// in\n    tag_432:\n        /* \"#utility.yul\":19636:19669   */\n      swap2\n      pop\n        /* \"#utility.yul\":19691:19757   */\n      0xffffffffffffffffffffffffffffffffffffffffffffffffffffffffffffffff\n        /* \"#utility.yul\":19684:19689   */\n      dup3\n        /* \"#utility.yul\":19681:19758   */\n      sub\n        /* \"#utility.yul\":19678:19781   */\n      tag_433\n      jumpi\n        /* \"#utility.yul\":19761:19779   */\n      tag_434\n      tag_232\n      jump\t// in\n    tag_434:\n        /* \"#utility.yul\":19678:19781   */\n    tag_433:\n        /* \"#utility.yul\":19808:19809   */\n      0x01\n        /* \"#utility.yul\":19801:19806   */\n      dup3\n        /* \"#utility.yul\":19797:19810   */\n      add\n        /* \"#utility.yul\":19790:19810   */\n      swap1\n      pop\n        /* \"#utility.yul\":19583:19816   */\n      swap2\n      swap1\n      pop\n      jump\t// out\n        /* \"#utility.yul\":19822:19963   */\n    tag_233:\n        /* \"#utility.yul\":19871:19875   */\n      0x00\n        /* \"#utility.yul\":19894:19897   */\n      dup2\n        /* \"#utility.yul\":19886:19897   */\n      swap1\n      pop\n        /* \"#utility.yul\":19917:19920   */\n      dup2\n        /* \"#utility.yul\":19914:19915   */\n      0x00\n        /* \"#utility.yul\":19907:19921   */\n      mstore\n        /* \"#utility.yul\":19951:19955   */\n      0x20\n        /* \"#utility.yul\":19948:19949   */\n      0x00\n        /* \"#utility.yul\":19938:19956   */\n      keccak256\n        /* \"#utility.yul\":19930:19956   */\n      swap1\n      pop\n        /* \"#utility.yul\":19822:19963   */\n      swap2\n      swap1\n      pop\n      jump\t// out\n        /* \"#utility.yul\":19969:20062   */\n    tag_234:\n        /* \"#utility.yul\":20006:20012   */\n      0x00\n        /* \"#utility.yul\":20053:20055   */\n      0x20\n        /* \"#utility.yul\":20048:20050   */\n      0x1f\n        /* \"#utility.yul\":20041:20046   */\n      dup4\n        /* \"#utility.yul\":20037:20051   */\n      add\n        /* \"#utility.yul\":20033:20056   */\n      div\n        /* \"#utility.yul\":20023:20056   */\n      swap1\n      pop\n        /* \"#utility.yul\":19969:20062   */\n      swap2\n      swap1\n      pop\n      jump\t// out\n        /* \"#utility.yul\":20068:20175   */\n    tag_235:\n        /* \"#utility.yul\":20112:20120   */\n      0x00\n        /* \"#utility.yul\":20162:20167   */\n      dup3\n        /* \"#utility.yul\":20156:20160   */\n      dup3\n        /* \"#utility.yul\":20152:20168   */\n      shl\n        /* \"#utility.yul\":20131:20168   */\n      swap1\n      pop\n        /* \"#utility.yul\":20068:20175   */\n      swap3\n      swap2\n      pop\n      pop\n      jump\t// out\n        /* \"#utility.yul\":20181:20574   */\n    tag_236:\n        /* \"#utility.yul\":20250:20256   */\n      0x00\n        /* \"#utility.yul\":20300:20301   */\n      0x08\n        /* \"#utility.yul\":20288:20298   */\n      dup4\n        /* \"#utility.yul\":20284:20302   */\n      mul\n        /* \"#utility.yul\":20323:20420   */\n      tag_439\n        /* \"#utility.yul\":20353:20419   */\n      0xffffffffffffffffffffffffffffffffffffffffffffffffffffffffffffffff\n        /* \"#utility.yul\":20342:20351   */\n      dup3\n        /* \"#utility.yul\":20323:20420   */\n      tag_235\n      jump\t// in\n    tag_439:\n        /* \"#utility.yul\":20441:20480   */\n      tag_440\n        /* \"#utility.yul\":20471:20479   */\n      dup7\n        /* \"#utility.yul\":20460:20469   */\n      dup4\n        /* \"#utility.yul\":20441:20480   */\n      tag_235\n      jump\t// in\n    tag_440:\n        /* \"#utility.yul\":20429:20480   */\n      swap6\n      pop\n        /* \"#utility.yul\":20513:20517   */\n      dup1\n        /* \"#utility.yul\":20509:20518   */\n      not\n        /* \"#utility.yul\":20502:20507   */\n      dup5\n        /* \"#utility.yul\":20498:20519   */\n      and\n        /* \"#utility.yul\":20489:20519   */\n      swap4\n      pop\n        /* \"#utility.yul\":20562:20566   */\n      dup1\n        /* \"#utility.yul\":20552:20560   */\n      dup7\n        /* \"#utility.yul\":20548:20567   */\n      and\n        /* \"#utility.yul\":20541:20546   */\n      dup5\n        /* \"#utility.yul\":20538:20568   */\n      or\n        /* \"#utility.yul\":20528:20568   */\n      swap3\n      pop\n        /* \"#utility.yul\":20257:20574   */\n      pop\n      pop\n        /* \"#utility.yul\":20181:20574   */\n      swap4\n      swap3\n      pop\n      pop\n      pop\n      jump\t// out\n        /* \"#utility.yul\":20580:20640   */\n    tag_237:\n        /* \"#utility.yul\":20608:20611   */\n      0x00\n        /* \"#utility.yul\":20629:20634   */\n      dup2\n        /* \"#utility.yul\":20622:20634   */\n      swap1\n      pop\n        /* \"#utility.yul\":20580:20640   */\n      swap2\n      swap1\n      pop\n      jump\t// out\n        /* \"#utility.yul\":20646:20788   */\n    tag_238:\n        /* \"#utility.yul\":20696:20705   */\n      0x00\n        /* \"#utility.yul\":20729:20782   */\n      tag_443\n        /* \"#utility.yul\":20747:20781   */\n      tag_444\n        /* \"#utility.yul\":20756:20780   */\n      tag_445\n        /* \"#utility.yul\":20774:20779   */\n      dup5\n        /* \"#utility.yul\":20756:20780   */\n      tag_186\n      jump\t// in\n    tag_445:\n        /* \"#utility.yul\":20747:20781   */\n      tag_237\n      jump\t// in\n    tag_444:\n        /* \"#utility.yul\":20729:20782   */\n      tag_186\n      jump\t// in\n    tag_443:\n        /* \"#utility.yul\":20716:20782   */\n      swap1\n      pop\n        /* \"#utility.yul\":20646:20788   */\n      swap2\n      swap1\n      pop\n      jump\t// out\n        /* \"#utility.yul\":20794:20869   */\n    tag_239:\n        /* \"#utility.yul\":20837:20840   */\n      0x00\n        /* \"#utility.yul\":20858:20863   */\n      dup2\n        /* \"#utility.yul\":20851:20863   */\n      swap1\n      pop\n        /* \"#utility.yul\":20794:20869   */\n      swap2\n      swap1\n      pop\n      jump\t// out\n        /* \"#utility.yul\":20875:21144   */\n    tag_240:\n        /* \"#utility.yul\":20985:21024   */\n      tag_448\n        /* \"#utility.yul\":21016:21023   */\n      dup4\n        /* \"#utility.yul\":20985:21024   */\n      tag_238\n      jump\t// in\n    tag_448:\n        /* \"#utility.yul\":21046:21137   */\n      tag_449\n        /* \"#utility.yul\":21095:21136   */\n      tag_450\n        /* \"#utility.yul\":21119:21135   */\n      dup3\n        /* \"#utility.yul\":21095:21136   */\n      tag_239\n      jump\t// in\n    tag_450:\n        /* \"#utility.yul\":21087:21093   */\n      dup5\n        /* \"#utility.yul\":21080:21084   */\n      dup5\n        /* \"#utility.yul\":21074:21085   */\n      sload\n        /* \"#utility.yul\":21046:21137   */\n      tag_236\n      jump\t// in\n    tag_449:\n        /* \"#utility.yul\":21040:21044   */\n      dup3\n        /* \"#utility.yul\":21033:21138   */\n      sstore\n        /* \"#utility.yul\":20951:21144   */\n      pop\n        /* \"#utility.yul\":20875:21144   */\n      pop\n      pop\n      pop\n      jump\t// out\n        /* \"#utility.yul\":21150:21223   */\n    tag_241:\n        /* \"#utility.yul\":21195:21198   */\n      0x00\n        /* \"#utility.yul\":21150:21223   */\n      swap1\n      jump\t// out\n        /* \"#utility.yul\":21229:21418   */\n    tag_242:\n        /* \"#utility.yul\":21306:21338   */\n      tag_453\n      tag_241\n      jump\t// in\n    tag_453:\n        /* \"#utility.yul\":21347:21412   */\n      tag_454\n        /* \"#utility.yul\":21405:21411   */\n      dup2\n        /* \"#utility.yul\":21397:21403   */\n      dup5\n        /* \"#utility.yul\":21391:21395   */\n      dup5\n        /* \"#utility.yul\":21347:21412   */\n      tag_240\n      jump\t// in\n    tag_454:\n        /* \"#utility.yul\":21282:21418   */\n      pop\n        /* \"#utility.yul\":21229:21418   */\n      pop\n      pop\n      jump\t// out\n        /* \"#utility.yul\":21424:21610   */\n    tag_243:\n        /* \"#utility.yul\":21484:21604   */\n    tag_456:\n        /* \"#utility.yul\":21501:21504   */\n      dup2\n        /* \"#utility.yul\":21494:21499   */\n      dup2\n        /* \"#utility.yul\":21491:21505   */\n      lt\n        /* \"#utility.yul\":21484:21604   */\n      iszero\n      tag_458\n      jumpi\n        /* \"#utility.yul\":21555:21594   */\n      tag_459\n        /* \"#utility.yul\":21592:21593   */\n      0x00\n        /* \"#utility.yul\":21585:21590   */\n      dup3\n        /* \"#utility.yul\":21555:21594   */\n      tag_242\n      jump\t// in\n    tag_459:\n        /* \"#utility.yul\":21528:21529   */\n      0x01\n        /* \"#utility.yul\":21521:21526   */\n      dup2\n        /* \"#utility.yul\":21517:21530   */\n      add\n        /* \"#utility.yul\":21508:21530   */\n      swap1\n      pop\n        /* \"#utility.yul\":21484:21604   */\n      jump(tag_456)\n    tag_458:\n        /* \"#utility.yul\":21424:21610   */\n      pop\n      pop\n      jump\t// out\n        /* \"#utility.yul\":21616:22159   */\n    tag_244:\n        /* \"#utility.yul\":21717:21719   */\n      0x1f\n        /* \"#utility.yul\":21712:21715   */\n      dup3\n        /* \"#utility.yul\":21709:21720   */\n      gt\n        /* \"#utility.yul\":21706:22152   */\n      iszero\n      tag_461\n      jumpi\n        /* \"#utility.yul\":21751:21789   */\n      tag_462\n        /* \"#utility.yul\":21783:21788   */\n      dup2\n        /* \"#utility.yul\":21751:21789   */\n      tag_233\n      jump\t// in\n    tag_462:\n        /* \"#utility.yul\":21835:21864   */\n      tag_463\n        /* \"#utility.yul\":21853:21863   */\n      dup5\n        /* \"#utility.yul\":21835:21864   */\n      tag_234\n      jump\t// in\n    tag_463:\n        /* \"#utility.yul\":21825:21833   */\n      dup2\n        /* \"#utility.yul\":21821:21865   */\n      add\n        /* \"#utility.yul\":22018:22020   */\n      0x20\n        /* \"#utility.yul\":22006:22016   */\n      dup6\n        /* \"#utility.yul\":22003:22021   */\n      lt\n        /* \"#utility.yul\":22000:22049   */\n      iszero\n      tag_464\n      jumpi\n        /* \"#utility.yul\":22039:22047   */\n      dup2\n        /* \"#utility.yul\":22024:22047   */\n      swap1\n      pop\n        /* \"#utility.yul\":22000:22049   */\n    tag_464:\n        /* \"#utility.yul\":22062:22142   */\n      tag_465\n        /* \"#utility.yul\":22118:22140   */\n      tag_466\n        /* \"#utility.yul\":22136:22139   */\n      dup6\n        /* \"#utility.yul\":22118:22140   */\n      tag_234\n      jump\t// in\n    tag_466:\n        /* \"#utility.yul\":22108:22116   */\n      dup4\n        /* \"#utility.yul\":22104:22141   */\n      add\n        /* \"#utility.yul\":22091:22102   */\n      dup3\n        /* \"#utility.yul\":22062:22142   */\n      tag_243\n      jump\t// in\n    tag_465:\n        /* \"#utility.yul\":21721:22152   */\n      pop\n      pop\n        /* \"#utility.yul\":21706:22152   */\n    tag_461:\n        /* \"#utility.yul\":21616:22159   */\n      pop\n      pop\n      pop\n      jump\t// out\n        /* \"#utility.yul\":22165:22282   */\n    tag_245:\n        /* \"#utility.yul\":22219:22227   */\n      0x00\n        /* \"#utility.yul\":22269:22274   */\n      dup3\n        /* \"#utility.yul\":22263:22267   */\n      dup3\n        /* \"#utility.yul\":22259:22275   */\n      shr\n        /* \"#utility.yul\":22238:22275   */\n      swap1\n      pop\n        /* \"#utility.yul\":22165:22282   */\n      swap3\n      swap2\n      pop\n      pop\n      jump\t// out\n        /* \"#utility.yul\":22288:22457   */\n    tag_246:\n        /* \"#utility.yul\":22332:22338   */\n      0x00\n        /* \"#utility.yul\":22365:22416   */\n      tag_469\n        /* \"#utility.yul\":22413:22414   */\n      0x00\n        /* \"#utility.yul\":22409:22415   */\n      not\n        /* \"#utility.yul\":22401:22406   */\n      dup5\n        /* \"#utility.yul\":22398:22399   */\n      0x08\n        /* \"#utility.yul\":22394:22407   */\n      mul\n        /* \"#utility.yul\":22365:22416   */\n      tag_245\n      jump\t// in\n    tag_469:\n        /* \"#utility.yul\":22361:22417   */\n      not\n        /* \"#utility.yul\":22446:22450   */\n      dup1\n        /* \"#utility.yul\":22440:22444   */\n      dup4\n        /* \"#utility.yul\":22436:22451   */\n      and\n        /* \"#utility.yul\":22426:22451   */\n      swap2\n      pop\n        /* \"#utility.yul\":22339:22457   */\n      pop\n        /* \"#utility.yul\":22288:22457   */\n      swap3\n      swap2\n      pop\n      pop\n      jump\t// out\n        /* \"#utility.yul\":22462:22757   */\n    tag_247:\n        /* \"#utility.yul\":22538:22542   */\n      0x00\n        /* \"#utility.yul\":22684:22713   */\n      tag_471\n        /* \"#utility.yul\":22709:22712   */\n      dup4\n        /* \"#utility.yul\":22703:22707   */\n      dup4\n        /* \"#utility.yul\":22684:22713   */\n      tag_246\n      jump\t// in\n    tag_471:\n        /* \"#utility.yul\":22676:22713   */\n      swap2\n      pop\n        /* \"#utility.yul\":22746:22749   */\n      dup3\n        /* \"#utility.yul\":22743:22744   */\n      0x02\n        /* \"#utility.yul\":22739:22750   */\n      mul\n        /* \"#utility.yul\":22733:22737   */\n      dup3\n        /* \"#utility.yul\":22730:22751   */\n      or\n        /* \"#utility.yul\":22722:22751   */\n      swap1\n      pop\n        /* \"#utility.yul\":22462:22757   */\n      swap3\n      swap2\n      pop\n      pop\n      jump\t// out\n        /* \"#utility.yul\":22762:24157   */\n    tag_111:\n        /* \"#utility.yul\":22879:22916   */\n      tag_473\n        /* \"#utility.yul\":22912:22915   */\n      dup3\n        /* \"#utility.yul\":22879:22916   */\n      tag_188\n      jump\t// in\n    tag_473:\n        /* \"#utility.yul\":22981:22999   */\n      0xffffffffffffffff\n        /* \"#utility.yul\":22973:22979   */\n      dup2\n        /* \"#utility.yul\":22970:23000   */\n      gt\n        /* \"#utility.yul\":22967:23023   */\n      iszero\n      tag_474\n      jumpi\n        /* \"#utility.yul\":23003:23021   */\n      tag_475\n      tag_53\n      jump\t// in\n    tag_475:\n        /* \"#utility.yul\":22967:23023   */\n    tag_474:\n        /* \"#utility.yul\":23047:23085   */\n      tag_476\n        /* \"#utility.yul\":23079:23083   */\n      dup3\n        /* \"#utility.yul\":23073:23084   */\n      sload\n        /* \"#utility.yul\":23047:23085   */\n      tag_46\n      jump\t// in\n    tag_476:\n        /* \"#utility.yul\":23132:23199   */\n      tag_477\n        /* \"#utility.yul\":23192:23198   */\n      dup3\n        /* \"#utility.yul\":23184:23190   */\n      dup3\n        /* \"#utility.yul\":23178:23182   */\n      dup6\n        /* \"#utility.yul\":23132:23199   */\n      tag_244\n      jump\t// in\n    tag_477:\n        /* \"#utility.yul\":23226:23227   */\n      0x00\n        /* \"#utility.yul\":23250:23254   */\n      0x20\n        /* \"#utility.yul\":23237:23254   */\n      swap1\n      pop\n        /* \"#utility.yul\":23282:23284   */\n      0x1f\n        /* \"#utility.yul\":23274:23280   */\n      dup4\n        /* \"#utility.yul\":23271:23285   */\n      gt\n        /* \"#utility.yul\":23299:23300   */\n      0x01\n        /* \"#utility.yul\":23294:23912   */\n      dup2\n      eq\n      tag_479\n      jumpi\n        /* \"#utility.yul\":23956:23957   */\n      0x00\n        /* \"#utility.yul\":23973:23979   */\n      dup5\n        /* \"#utility.yul\":23970:24047   */\n      iszero\n      tag_480\n      jumpi\n        /* \"#utility.yul\":24022:24031   */\n      dup3\n        /* \"#utility.yul\":24017:24020   */\n      dup8\n        /* \"#utility.yul\":24013:24032   */\n      add\n        /* \"#utility.yul\":24007:24033   */\n      mload\n        /* \"#utility.yul\":23998:24033   */\n      swap1\n      pop\n        /* \"#utility.yul\":23970:24047   */\n    tag_480:\n        /* \"#utility.yul\":24073:24140   */\n      tag_481\n        /* \"#utility.yul\":24133:24139   */\n      dup6\n        /* \"#utility.yul\":24126:24131   */\n      dup3\n        /* \"#utility.yul\":24073:24140   */\n      tag_247\n      jump\t// in\n    tag_481:\n        /* \"#utility.yul\":24067:24071   */\n      dup7\n        /* \"#utility.yul\":24060:24141   */\n      sstore\n        /* \"#utility.yul\":23929:24151   */\n      pop\n        /* \"#utility.yul\":23264:24151   */\n      jump(tag_478)\n        /* \"#utility.yul\":23294:23912   */\n    tag_479:\n        /* \"#utility.yul\":23346:23350   */\n      0x1f\n        /* \"#utility.yul\":23342:23351   */\n      not\n        /* \"#utility.yul\":23334:23340   */\n      dup5\n        /* \"#utility.yul\":23330:23352   */\n      and\n        /* \"#utility.yul\":23380:23417   */\n      tag_482\n        /* \"#utility.yul\":23412:23416   */\n      dup7\n        /* \"#utility.yul\":23380:23417   */\n      tag_233\n      jump\t// in\n    tag_482:\n        /* \"#utility.yul\":23439:23440   */\n      0x00\n        /* \"#utility.yul\":23453:23661   */\n    tag_483:\n        /* \"#utility.yul\":23467:23474   */\n      dup3\n        /* \"#utility.yul\":23464:23465   */\n      dup2\n        /* \"#utility.yul\":23461:23475   */\n      lt\n        /* \"#utility.yul\":23453:23661   */\n      iszero\n      tag_485\n      jumpi\n        /* \"#utility.yul\":23546:23555   */\n      dup5\n        /* \"#utility.yul\":23541:23544   */\n      dup10\n        /* \"#utility.yul\":23537:23556   */\n      add\n        /* \"#utility.yul\":23531:23557   */\n      mload\n        /* \"#utility.yul\":23523:23529   */\n      dup3\n        /* \"#utility.yul\":23516:23558   */\n      sstore\n        /* \"#utility.yul\":23597:23598   */\n      0x01\n        /* \"#utility.yul\":23589:23595   */\n      dup3\n        /* \"#utility.yul\":23585:23599   */\n      add\n        /* \"#utility.yul\":23575:23599   */\n      swap2\n      pop\n        /* \"#utility.yul\":23644:23646   */\n      0x20\n        /* \"#utility.yul\":23633:23642   */\n      dup6\n        /* \"#utility.yul\":23629:23647   */\n      add\n        /* \"#utility.yul\":23616:23647   */\n      swap5\n      pop\n        /* \"#utility.yul\":23490:23494   */\n      0x20\n        /* \"#utility.yul\":23487:23488   */\n      dup2\n        /* \"#utility.yul\":23483:23495   */\n      add\n        /* \"#utility.yul\":23478:23495   */\n      swap1\n      pop\n        /* \"#utility.yul\":23453:23661   */\n      jump(tag_483)\n    tag_485:\n        /* \"#utility.yul\":23689:23695   */\n      dup7\n        /* \"#utility.yul\":23680:23687   */\n      dup4\n        /* \"#utility.yul\":23677:23696   */\n      lt\n        /* \"#utility.yul\":23674:23853   */\n      iszero\n      tag_486\n      jumpi\n        /* \"#utility.yul\":23747:23756   */\n      dup5\n        /* \"#utility.yul\":23742:23745   */\n      dup10\n        /* \"#utility.yul\":23738:23757   */\n      add\n        /* \"#utility.yul\":23732:23758   */\n      mload\n        /* \"#utility.yul\":23790:23838   */\n      tag_487\n        /* \"#utility.yul\":23832:23836   */\n      0x1f\n        /* \"#utility.yul\":23824:23830   */\n      dup10\n        /* \"#utility.yul\":23820:23837   */\n      and\n        /* \"#utility.yul\":23809:23818   */\n      dup3\n        /* \"#utility.yul\":23790:23838   */\n      tag_246\n      jump\t// in\n    tag_487:\n        /* \"#utility.yul\":23782:23788   */\n      dup4\n        /* \"#utility.yul\":23775:23839   */\n      sstore\n        /* \"#utility.yul\":23697:23853   */\n      pop\n        /* \"#utility.yul\":23674:23853   */\n    tag_486:\n        /* \"#utility.yul\":23899:23900   */\n      0x01\n        /* \"#utility.yul\":23895:23896   */\n      0x02\n        /* \"#utility.yul\":23887:23893   */\n      dup9\n        /* \"#utility.yul\":23883:23897   */\n      mul\n        /* \"#utility.yul\":23879:23901   */\n      add\n        /* \"#utility.yul\":23873:23877   */\n      dup9\n        /* \"#utility.yul\":23866:23902   */\n      sstore\n        /* \"#utility.yul\":23301:23912   */\n      pop\n      pop\n      pop\n        /* \"#utility.yul\":23264:24151   */\n    tag_478:\n      pop\n        /* \"#utility.yul\":22854:24157   */\n      pop\n      pop\n      pop\n        /* \"#utility.yul\":22762:24157   */\n      pop\n      pop\n      jump\t// out\n        /* \"#utility.yul\":24163:24326   */\n    tag_248:\n        /* \"#utility.yul\":24303:24318   */\n      0x616c726561647920766f74656400000000000000000000000000000000000000\n        /* \"#utility.yul\":24299:24300   */\n      0x00\n        /* \"#utility.yul\":24291:24297   */\n      dup3\n        /* \"#utility.yul\":24287:24301   */\n      add\n        /* \"#utility.yul\":24280:24319   */\n      mstore\n        /* \"#utility.yul\":24163:24326   */\n      pop\n      jump\t// out\n        /* \"#utility.yul\":24332:24698   */\n    tag_249:\n        /* \"#utility.yul\":24474:24477   */\n      0x00\n        /* \"#utility.yul\":24495:24562   */\n      tag_490\n        /* \"#utility.yul\":24559:24561   */\n      0x0d\n        /* \"#utility.yul\":24554:24557   */\n      dup4\n        /* \"#utility.yul\":24495:24562   */\n      tag_223\n      jump\t// in\n    tag_490:\n        /* \"#utility.yul\":24488:24562   */\n      swap2\n      pop\n        /* \"#utility.yul\":24571:24664   */\n      tag_491\n        /* \"#utility.yul\":24660:24663   */\n      dup3\n        /* \"#utility.yul\":24571:24664   */\n      tag_248\n      jump\t// in\n    tag_491:\n        /* \"#utility.yul\":24689:24691   */\n      0x20\n        /* \"#utility.yul\":24684:24687   */\n      dup3\n        /* \"#utility.yul\":24680:24692   */\n      add\n        /* \"#utility.yul\":24673:24692   */\n      swap1\n      pop\n        /* \"#utility.yul\":24332:24698   */\n      swap2\n      swap1\n      pop\n      jump\t// out\n        /* \"#utility.yul\":24704:25123   */\n    tag_121:\n        /* \"#utility.yul\":24870:24874   */\n      0x00\n        /* \"#utility.yul\":24908:24910   */\n      0x20\n        /* \"#utility.yul\":24897:24906   */\n      dup3\n        /* \"#utility.yul\":24893:24911   */\n      add\n        /* \"#utility.yul\":24885:24911   */\n      swap1\n      pop\n        /* \"#utility.yul\":24957:24966   */\n      dup2\n        /* \"#utility.yul\":24951:24955   */\n      dup2\n        /* \"#utility.yul\":24947:24967   */\n      sub\n        /* \"#utility.yul\":24943:24944   */\n      0x00\n        /* \"#utility.yul\":24932:24941   */\n      dup4\n        /* \"#utility.yul\":24928:24945   */\n      add\n        /* \"#utility.yul\":24921:24968   */\n      mstore\n        /* \"#utility.yul\":24985:25116   */\n      tag_493\n        /* \"#utility.yul\":25111:25115   */\n      dup2\n        /* \"#utility.yul\":24985:25116   */\n      tag_249\n      jump\t// in\n    tag_493:\n        /* \"#utility.yul\":24977:25116   */\n      swap1\n      pop\n        /* \"#utility.yul\":24704:25123   */\n      swap2\n      swap1\n      pop\n      jump\t// out\n        /* \"#utility.yul\":25129:25320   */\n    tag_124:\n        /* \"#utility.yul\":25169:25172   */\n      0x00\n        /* \"#utility.yul\":25188:25208   */\n      tag_495\n        /* \"#utility.yul\":25206:25207   */\n      dup3\n        /* \"#utility.yul\":25188:25208   */\n      tag_186\n      jump\t// in\n    tag_495:\n        /* \"#utility.yul\":25183:25208   */\n      swap2\n      pop\n        /* \"#utility.yul\":25222:25242   */\n      tag_496\n        /* \"#utility.yul\":25240:25241   */\n      dup4\n        /* \"#utility.yul\":25222:25242   */\n      tag_186\n      jump\t// in\n    tag_496:\n        /* \"#utility.yul\":25217:25242   */\n      swap3\n      pop\n        /* \"#utility.yul\":25265:25266   */\n      dup3\n        /* \"#utility.yul\":25262:25263   */\n      dup3\n        /* \"#utility.yul\":25258:25267   */\n      add\n        /* \"#utility.yul\":25251:25267   */\n      swap1\n      pop\n        /* \"#utility.yul\":25286:25289   */\n      dup1\n        /* \"#utility.yul\":25283:25284   */\n      dup3\n        /* \"#utility.yul\":25280:25290   */\n      gt\n        /* \"#utility.yul\":25277:25313   */\n      iszero\n      tag_497\n      jumpi\n        /* \"#utility.yul\":25293:25311   */\n      tag_498\n      tag_232\n      jump\t// in\n    tag_498:\n        /* \"#utility.yul\":25277:25313   */\n    tag_497:\n        /* \"#utility.yul\":25129:25320   */\n      swap3\n      swap2\n      pop\n      pop\n      jump\t// out\n        /* \"#utility.yul\":25326:25497   */\n    tag_139:\n        /* \"#utility.yul\":25365:25368   */\n      0x00\n        /* \"#utility.yul\":25388:25412   */\n      tag_500\n        /* \"#utility.yul\":25406:25411   */\n      dup3\n        /* \"#utility.yul\":25388:25412   */\n      tag_186\n      jump\t// in\n    tag_500:\n        /* \"#utility.yul\":25379:25412   */\n      swap2\n      pop\n        /* \"#utility.yul\":25434:25438   */\n      0x00\n        /* \"#utility.yul\":25427:25432   */\n      dup3\n        /* \"#utility.yul\":25424:25439   */\n      sub\n        /* \"#utility.yul\":25421:25462   */\n      tag_501\n      jumpi\n        /* \"#utility.yul\":25442:25460   */\n      tag_502\n      tag_232\n      jump\t// in\n    tag_502:\n        /* \"#utility.yul\":25421:25462   */\n    tag_501:\n        /* \"#utility.yul\":25489:25490   */\n      0x01\n        /* \"#utility.yul\":25482:25487   */\n      dup3\n        /* \"#utility.yul\":25478:25491   */\n      sub\n        /* \"#utility.yul\":25471:25491   */\n      swap1\n      pop\n        /* \"#utility.yul\":25326:25497   */\n      swap2\n      swap1\n      pop\n      jump\t// out\n        /* \"#utility.yul\":25527:25857   */\n    tag_250:\n        /* \"#utility.yul\":25643:25646   */\n      0x00\n        /* \"#utility.yul\":25664:25753   */\n      tag_504\n        /* \"#utility.yul\":25746:25752   */\n      dup4\n        /* \"#utility.yul\":25741:25744   */\n      dup6\n        /* \"#utility.yul\":25664:25753   */\n      tag_228\n      jump\t// in\n    tag_504:\n        /* \"#utility.yul\":25657:25753   */\n      swap4\n      pop\n        /* \"#utility.yul\":25763:25819   */\n      tag_505\n        /* \"#utility.yul\":25812:25818   */\n      dup4\n        /* \"#utility.yul\":25807:25810   */\n      dup6\n        /* \"#utility.yul\":25800:25805   */\n      dup5\n        /* \"#utility.yul\":25763:25819   */\n      tag_212\n      jump\t// in\n    tag_505:\n        /* \"#utility.yul\":25844:25850   */\n      dup3\n        /* \"#utility.yul\":25839:25842   */\n      dup5\n        /* \"#utility.yul\":25835:25851   */\n      add\n        /* \"#utility.yul\":25828:25851   */\n      swap1\n      pop\n        /* \"#utility.yul\":25527:25857   */\n      swap4\n      swap3\n      pop\n      pop\n      pop\n      jump\t// out\n        /* \"#utility.yul\":25863:26158   */\n    tag_143:\n        /* \"#utility.yul\":26005:26008   */\n      0x00\n        /* \"#utility.yul\":26027:26132   */\n      tag_507\n        /* \"#utility.yul\":26128:26131   */\n      dup3\n        /* \"#utility.yul\":26119:26125   */\n      dup5\n        /* \"#utility.yul\":26111:26117   */\n      dup7\n        /* \"#utility.yul\":26027:26132   */\n      tag_250\n      jump\t// in\n    tag_507:\n        /* \"#utility.yul\":26020:26132   */\n      swap2\n      pop\n        /* \"#utility.yul\":26149:26152   */\n      dup2\n        /* \"#utility.yul\":26142:26152   */\n      swap1\n      pop\n        /* \"#utility.yul\":25863:26158   */\n      swap4\n      swap3\n      pop\n      pop\n      pop\n      jump\t// out\n        /* \"#utility.yul\":26164:26574   */\n    tag_150:\n        /* \"#utility.yul\":26204:26211   */\n      0x00\n        /* \"#utility.yul\":26227:26247   */\n      tag_509\n        /* \"#utility.yul\":26245:26246   */\n      dup3\n        /* \"#utility.yul\":26227:26247   */\n      tag_186\n      jump\t// in\n    tag_509:\n        /* \"#utility.yul\":26222:26247   */\n      swap2\n      pop\n        /* \"#utility.yul\":26261:26281   */\n      tag_510\n        /* \"#utility.yul\":26279:26280   */\n      dup4\n        /* \"#utility.yul\":26261:26281   */\n      tag_186\n      jump\t// in\n    tag_510:\n        /* \"#utility.yul\":26256:26281   */\n      swap3\n      pop\n        /* \"#utility.yul\":26316:26317   */\n      dup3\n        /* \"#utility.yul\":26313:26314   */\n      dup3\n        /* \"#utility.yul\":26309:26318   */\n      mul\n        /* \"#utility.yul\":26338:26368   */\n      tag_511\n        /* \"#utility.yul\":26356:26367   */\n      dup2\n        /* \"#utility.yul\":26338:26368   */\n      tag_186\n      jump\t// in\n    tag_511:\n        /* \"#utility.yul\":26327:26368   */\n      swap2\n      pop\n        /* \"#utility.yul\":26517:26518   */\n      dup3\n        /* \"#utility.yul\":26508:26515   */\n      dup3\n        /* \"#utility.yul\":26504:26519   */\n      div\n        /* \"#utility.yul\":26501:26502   */\n      dup5\n        /* \"#utility.yul\":26498:26520   */\n      eq\n        /* \"#utility.yul\":26478:26479   */\n      dup4\n        /* \"#utility.yul\":26471:26480   */\n      iszero\n        /* \"#utility.yul\":26451:26534   */\n      or\n        /* \"#utility.yul\":26428:26567   */\n      tag_512\n      jumpi\n        /* \"#utility.yul\":26547:26565   */\n      tag_513\n      tag_232\n      jump\t// in\n    tag_513:\n        /* \"#utility.yul\":26428:26567   */\n    tag_512:\n        /* \"#utility.yul\":26212:26574   */\n      pop\n        /* \"#utility.yul\":26164:26574   */\n      swap3\n      swap2\n      pop\n      pop\n      jump\t// out\n        /* \"#utility.yul\":26580:26748   */\n    tag_251:\n        /* \"#utility.yul\":26720:26740   */\n      0x616c726561647920726567697374657265640000000000000000000000000000\n        /* \"#utility.yul\":26716:26717   */\n      0x00\n        /* \"#utility.yul\":26708:26714   */\n      dup3\n        /* \"#utility.yul\":26704:26718   */\n      add\n        /* \"#utility.yul\":26697:26741   */\n      mstore\n        /* \"#utility.yul\":26580:26748   */\n      pop\n      jump\t// out\n        /* \"#utility.yul\":26754:27120   */\n    tag_252:\n        /* \"#utility.yul\":26896:26899   */\n      0x00\n        /* \"#utility.yul\":26917:26984   */\n      tag_516\n        /* \"#utility.yul\":26981:26983   */\n      0x12\n        /* \"#utility.yul\":26976:26979   */\n      dup4\n        /* \"#utility.yul\":26917:26984   */\n      tag_223\n      jump\t// in\n    tag_516:\n        /* \"#utility.yul\":26910:26984   */\n      swap2\n      pop\n        /* \"#utility.yul\":26993:27086   */\n      tag_517\n        /* \"#utility.yul\":27082:27085   */\n      dup3\n        /* \"#utility.yul\":26993:27086   */\n      tag_251\n      jump\t// in\n    tag_517:\n        /* \"#utility.yul\":27111:27113   */\n      0x20\n        /* \"#utility.yul\":27106:27109   */\n      dup3\n        /* \"#utility.yul\":27102:27114   */\n      add\n        /* \"#utility.yul\":27095:27114   */\n      swap1\n      pop\n        /* \"#utility.yul\":26754:27120   */\n      swap2\n      swap1\n      pop\n      jump\t// out\n        /* \"#utility.yul\":27126:27545   */\n    tag_167:\n        /* \"#utility.yul\":27292:27296   */\n      0x00\n        /* \"#utility.yul\":27330:27332   */\n      0x20\n        /* \"#utility.yul\":27319:27328   */\n      dup3\n        /* \"#utility.yul\":27315:27333   */\n      add\n        /* \"#utility.yul\":27307:27333   */\n      swap1\n      pop\n        /* \"#utility.yul\":27379:27388   */\n      dup2\n        /* \"#utility.yul\":27373:27377   */\n      dup2\n        /* \"#utility.yul\":27369:27389   */\n      sub\n        /* \"#utility.yul\":27365:27366   */\n      0x00\n        /* \"#utility.yul\":27354:27363   */\n      dup4\n        /* \"#utility.yul\":27350:27367   */\n      add\n        /* \"#utility.yul\":27343:27390   */\n      mstore\n        /* \"#utility.yul\":27407:27538   */\n      tag_519\n        /* \"#utility.yul\":27533:27537   */\n      dup2\n        /* \"#utility.yul\":27407:27538   */\n      tag_252\n      jump\t// in\n    tag_519:\n        /* \"#utility.yul\":27399:27538   */\n      swap1\n      pop\n        /* \"#utility.yul\":27126:27545   */\n      swap2\n      swap1\n      pop\n      jump\t// out\n        /* \"#utility.yul\":27551:27648   */\n    tag_253:\n        /* \"#utility.yul\":27610:27616   */\n      0x00\n        /* \"#utility.yul\":27638:27641   */\n      dup3\n        /* \"#utility.yul\":27628:27641   */\n      swap1\n      pop\n        /* \"#utility.yul\":27551:27648   */\n      swap3\n      swap2\n      pop\n      pop\n      jump\t// out\n        /* \"#utility.yul\":27654:29057   */\n    tag_169:\n        /* \"#utility.yul\":27778:27822   */\n      tag_522\n        /* \"#utility.yul\":27818:27821   */\n      dup4\n        /* \"#utility.yul\":27813:27816   */\n      dup4\n        /* \"#utility.yul\":27778:27822   */\n      tag_253\n      jump\t// in\n    tag_522:\n        /* \"#utility.yul\":27887:27905   */\n      0xffffffffffffffff\n        /* \"#utility.yul\":27879:27885   */\n      dup2\n        /* \"#utility.yul\":27876:27906   */\n      gt\n        /* \"#utility.yul\":27873:27929   */\n      iszero\n      tag_523\n      jumpi\n        /* \"#utility.yul\":27909:27927   */\n      tag_524\n      tag_53\n      jump\t// in\n    tag_524:\n        /* \"#utility.yul\":27873:27929   */\n    tag_523:\n        /* \"#utility.yul\":27953:27991   */\n      tag_525\n        /* \"#utility.yul\":27985:27989   */\n      dup3\n        /* \"#utility.yul\":27979:27990   */\n      sload\n        /* \"#utility.yul\":27953:27991   */\n      tag_46\n      jump\t// in\n    tag_525:\n        /* \"#utility.yul\":28038:28105   */\n      tag_526\n        /* \"#utility.yul\":28098:28104   */\n      dup3\n        /* \"#utility.yul\":28090:28096   */\n      dup3\n        /* \"#utility.yul\":28084:28088   */\n      dup6\n        /* \"#utility.yul\":28038:28105   */\n      tag_244\n      jump\t// in\n    tag_526:\n        /* \"#utility.yul\":28132:28133   */\n      0x00\n        /* \"#utility.yul\":28161:28163   */\n      0x1f\n        /* \"#utility.yul\":28153:28159   */\n      dup4\n        /* \"#utility.yul\":28150:28164   */\n      gt\n        /* \"#utility.yul\":28178:28179   */\n      0x01\n        /* \"#utility.yul\":28173:28805   */\n      dup2\n      eq\n      tag_528\n      jumpi\n        /* \"#utility.yul\":28849:28850   */\n      0x00\n        /* \"#utility.yul\":28866:28872   */\n      dup5\n        /* \"#utility.yul\":28863:28947   */\n      iszero\n      tag_529\n      jumpi\n        /* \"#utility.yul\":28922:28931   */\n      dup3\n        /* \"#utility.yul\":28917:28920   */\n      dup8\n        /* \"#utility.yul\":28913:28932   */\n      add\n        /* \"#utility.yul\":28900:28933   */\n      calldataload\n        /* \"#utility.yul\":28891:28933   */\n      swap1\n      pop\n        /* \"#utility.yul\":28863:28947   */\n    tag_529:\n        /* \"#utility.yul\":28973:29040   */\n      tag_530\n        /* \"#utility.yul\":29033:29039   */\n      dup6\n        /* \"#utility.yul\":29026:29031   */\n      dup3\n        /* \"#utility.yul\":28973:29040   */\n      tag_247\n      jump\t// in\n    tag_530:\n        /* \"#utility.yul\":28967:28971   */\n      dup7\n        /* \"#utility.yul\":28960:29041   */\n      sstore\n        /* \"#utility.yul\":28822:29051   */\n      pop\n        /* \"#utility.yul\":28143:29051   */\n      jump(tag_527)\n        /* \"#utility.yul\":28173:28805   */\n    tag_528:\n        /* \"#utility.yul\":28225:28229   */\n      0x1f\n        /* \"#utility.yul\":28221:28230   */\n      not\n        /* \"#utility.yul\":28213:28219   */\n      dup5\n        /* \"#utility.yul\":28209:28231   */\n      and\n        /* \"#utility.yul\":28259:28296   */\n      tag_531\n        /* \"#utility.yul\":28291:28295   */\n      dup7\n        /* \"#utility.yul\":28259:28296   */\n      tag_233\n      jump\t// in\n    tag_531:\n        /* \"#utility.yul\":28318:28319   */\n      0x00\n        /* \"#utility.yul\":28332:28547   */\n    tag_532:\n        /* \"#utility.yul\":28346:28353   */\n      dup3\n        /* \"#utility.yul\":28343:28344   */\n      dup2\n        /* \"#utility.yul\":28340:28354   */\n      lt\n        /* \"#utility.yul\":28332:28547   */\n      iszero\n      tag_534\n      jumpi\n        /* \"#utility.yul\":28432:28441   */\n      dup5\n        /* \"#utility.yul\":28427:28430   */\n      dup10\n        /* \"#utility.yul\":28423:28442   */\n      add\n        /* \"#utility.yul\":28410:28443   */\n      calldataload\n        /* \"#utility.yul\":28402:28408   */\n      dup3\n        /* \"#utility.yul\":28395:28444   */\n      sstore\n        /* \"#utility.yul\":28483:28484   */\n      0x01\n        /* \"#utility.yul\":28475:28481   */\n      dup3\n        /* \"#utility.yul\":28471:28485   */\n      add\n        /* \"#utility.yul\":28461:28485   */\n      swap2\n      pop\n        /* \"#utility.yul\":28530:28532   */\n      0x20\n        /* \"#utility.yul\":28519:28528   */\n      dup6\n        /* \"#utility.yul\":28515:28533   */\n      add\n        /* \"#utility.yul\":28502:28533   */\n      swap5\n      pop\n        /* \"#utility.yul\":28369:28373   */\n      0x20\n        /* \"#utility.yul\":28366:28367   */\n      dup2\n        /* \"#utility.yul\":28362:28374   */\n      add\n        /* \"#utility.yul\":28357:28374   */\n      swap1\n      pop\n        /* \"#utility.yul\":28332:28547   */\n      jump(tag_532)\n    tag_534:\n        /* \"#utility.yul\":28575:28581   */\n      dup7\n        /* \"#utility.yul\":28566:28573   */\n      dup4\n        /* \"#utility.yul\":28563:28582   */\n      lt\n        /* \"#utility.yul\":28560:28746   */\n      iszero\n      tag_535\n      jumpi\n        /* \"#utility.yul\":28640:28649   */\n      dup5\n        /* \"#utility.yul\":28635:28638   */\n      dup10\n        /* \"#utility.yul\":28631:28650   */\n      add\n        /* \"#utility.yul\":28618:28651   */\n      calldataload\n        /* \"#utility.yul\":28683:28731   */\n      tag_536\n        /* \"#utility.yul\":28725:28729   */\n      0x1f\n        /* \"#utility.yul\":28717:28723   */\n      dup10\n        /* \"#utility.yul\":28713:28730   */\n      and\n        /* \"#utility.yul\":28702:28711   */\n      dup3\n        /* \"#utility.yul\":28683:28731   */\n      tag_246\n      jump\t// in\n    tag_536:\n        /* \"#utility.yul\":28675:28681   */\n      dup4\n        /* \"#utility.yul\":28668:28732   */\n      sstore\n        /* \"#utility.yul\":28583:28746   */\n      pop\n        /* \"#utility.yul\":28560:28746   */\n    tag_535:\n        /* \"#utility.yul\":28792:28793   */\n      0x01\n        /* \"#utility.yul\":28788:28789   */\n      0x02\n        /* \"#utility.yul\":28780:28786   */\n      dup9\n        /* \"#utility.yul\":28776:28790   */\n      mul\n        /* \"#utility.yul\":28772:28794   */\n      add\n        /* \"#utility.yul\":28766:28770   */\n      dup9\n        /* \"#utility.yul\":28759:28795   */\n      sstore\n        /* \"#utility.yul\":28180:28805   */\n      pop\n      pop\n      pop\n        /* \"#utility.yul\":28143:29051   */\n    tag_527:\n      pop\n        /* \"#utility.yul\":27753:29057   */\n      pop\n      pop\n      pop\n        /* \"#utility.yul\":27654:29057   */\n      pop\n      pop\n      pop\n      jump\t// out\n\n    auxdata: 0xa2646970667358221220ef44f6364884f697d1cbef0e4e40e0d61a4246ed4425588daf26a044d0cc990164736f6c634300081a0033\n}\n",
				"bytecode": {
					"linkReferences": {},
					"object": "608060405260016003553480156013575f80fd5b50611fef806100215f395ff3fe608060405234801561000f575f80fd5b506004361061007b575f3560e01c806387af313c1161005957806387af313c146100e957806388e3cfda14610105578063d0020fad14610121578063e38ba4361461013d5761007b565b806342c1c43b1461007f57806365c504b51461009d578063700b82ed146100cd575b5f80fd5b610087610174565b60405161009491906113f5565b60405180910390f35b6100b760048036038101906100b29190611552565b610579565b6040516100c4919061164d565b60405180910390f35b6100e760048036038101906100e2919061166d565b610788565b005b61010360048036038101906100fe9190611718565b6109bc565b005b61011f600480360381019061011a91906117cf565b610c60565b005b61013b600480360381019061013691906117cf565b610de0565b005b61015760048036038101906101529190611552565b610f52565b60405161016b98979695949392919061188f565b60405180910390f35b60605f805f3373ffffffffffffffffffffffffffffffffffffffff1673ffffffffffffffffffffffffffffffffffffffff1681526020019081526020015f20600201805480602002602001604051908101604052809291908181526020015f905b8282101561027d578382905f5260205f200180546101f290611946565b80601f016020809104026020016040519081016040528092919081815260200182805461021e90611946565b80156102695780601f1061024057610100808354040283529160200191610269565b820191905f5260205f20905b81548152906001019060200180831161024c57829003601f168201915b5050505050815260200190600101906101d5565b5050505090505f805f3373ffffffffffffffffffffffffffffffffffffffff1673ffffffffffffffffffffffffffffffffffffffff1681526020019081526020015f206002018054905090505f8167ffffffffffffffff8111156102e4576102e361142e565b5b60405190808252806020026020018201604052801561031d57816020015b61030a6110e5565b8152602001906001900390816103025790505b5090505f5b8281101561056f57600284828151811061033f5761033e611976565b5b602002602001015160405161035491906119dd565b9081526020016040518091039020604051806101000160405290815f820154815260200160018201805461038790611946565b80601f01602080910402602001604051908101604052809291908181526020018280546103b390611946565b80156103fe5780601f106103d5576101008083540402835291602001916103fe565b820191905f5260205f20905b8154815290600101906020018083116103e157829003601f168201915b5050505050815260200160028201805461041790611946565b80601f016020809104026020016040519081016040528092919081815260200182805461044390611946565b801561048e5780601f106104655761010080835404028352916020019161048e565b820191905f5260205f20905b81548152906001019060200180831161047157829003601f168201915b50505050508152602001600382015f9054906101000a900473ffffffffffffffffffffffffffffffffffffffff1673ffffffffffffffffffffffffffffffffffffffff1673ffffffffffffffffffffffffffffffffffffffff1681526020016004820154815260200160058201548152602001600682015f9054906101000a900460ff1660028111156105245761052361123c565b5b60028111156105365761053561123c565b5b815260200160078201548152505082828151811061055757610556611976565b5b60200260200101819052508080600101915050610322565b5080935050505090565b6105816110e5565b60028260405161059191906119dd565b9081526020016040518091039020604051806101000160405290815f82015481526020016001820180546105c490611946565b80601f01602080910402602001604051908101604052809291908181526020018280546105f090611946565b801561063b5780601f106106125761010080835404028352916020019161063b565b820191905f5260205f20905b81548152906001019060200180831161061e57829003601f168201915b5050505050815260200160028201805461065490611946565b80601f016020809104026020016040519081016040528092919081815260200182805461068090611946565b80156106cb5780601f106106a2576101008083540402835291602001916106cb565b820191905f5260205f20905b8154815290600101906020018083116106ae57829003601f168201915b50505050508152602001600382015f9054906101000a900473ffffffffffffffffffffffffffffffffffffffff1673ffffffffffffffffffffffffffffffffffffffff1673ffffffffffffffffffffffffffffffffffffffff1681526020016004820154815260200160058201548152602001600682015f9054906101000a900460ff1660028111156107615761076061123c565b5b60028111156107735761077261123c565b5b81526020016007820154815250509050919050565b5f60028360405161079991906119dd565b90815260200160405180910390205f0154146107ea576040517f08c379a00000000000000000000000000000000000000000000000000000000081526004016107e190611a3d565b60405180910390fd5b60405180610100016040528060035f81548092919061080890611a88565b9190505581526020018381526020018281526020013373ffffffffffffffffffffffffffffffffffffffff1681526020015f81526020015f81526020015f60028111156108585761085761123c565b5b81526020014381525060028360405161087191906119dd565b90815260200160405180910390205f820151815f0155602082015181600101908161089c9190611c6c565b5060408201518160020190816108b29190611c6c565b506060820151816003015f6101000a81548173ffffffffffffffffffffffffffffffffffffffff021916908373ffffffffffffffffffffffffffffffffffffffff1602179055506080820151816004015560a0820151816005015560c0820151816006015f6101000a81548160ff021916908360028111156109375761093661123c565b5b021790555060e082015181600701559050505f803373ffffffffffffffffffffffffffffffffffffffff1673ffffffffffffffffffffffffffffffffffffffff1681526020019081526020015f2060020182908060018154018082558091505060019003905f5260205f20015f9091909190915090816109b79190611c6c565b505050565b5f15155f803373ffffffffffffffffffffffffffffffffffffffff1673ffffffffffffffffffffffffffffffffffffffff1681526020019081526020015f2060040183604051610a0c91906119dd565b90815260200160405180910390205f9054906101000a900460ff16151514610a69576040517f08c379a0000000000000000000000000000000000000000000000000000000008152600401610a6090611d85565b60405180910390fd5b600f600283604051610a7b91906119dd565b908152602001604051809103902060070154610a979190611da3565b4311158015610af657505f6002811115610ab457610ab361123c565b5b600283604051610ac491906119dd565b90815260200160405180910390206006015f9054906101000a900460ff166002811115610af457610af361123c565b5b145b610afe575f80fd5b8015610bb257600282604051610b1491906119dd565b90815260200160405180910390206004015f815480929190610b3590611a88565b919050555060015f803373ffffffffffffffffffffffffffffffffffffffff1673ffffffffffffffffffffffffffffffffffffffff1681526020019081526020015f2060030183604051610b8991906119dd565b90815260200160405180910390205f6101000a81548160ff021916908315150217905550610be9565b600282604051610bc291906119dd565b90815260200160405180910390206005015f815480929190610be390611dd6565b91905055505b60015f803373ffffffffffffffffffffffffffffffffffffffff1673ffffffffffffffffffffffffffffffffffffffff1681526020019081526020015f2060040183604051610c3891906119dd565b90815260200160405180910390205f6101000a81548160ff0219169083151502179055505050565b600f60028383604051610c74929190611e21565b908152602001604051809103902060070154610c909190611da3565b4311610c9a575f80fd5b5f60028383604051610cad929190611e21565b90815260200160405180910390206004015490505f60028484604051610cd4929190611e21565b90815260200160405180910390206005015490505f8183610cf59190611da3565b90506007600154610d069190611e39565b600a82610d139190611e39565b10158015610d395750604281610d299190611e39565b606484610d369190611e39565b10155b15610d8e57600160028686604051610d52929190611e21565b90815260200160405180910390206006015f6101000a81548160ff02191690836002811115610d8457610d8361123c565b5b0217905550610dd9565b6002808686604051610da1929190611e21565b90815260200160405180910390206006015f6101000a81548160ff02191690836002811115610dd357610dd261123c565b5b02179055505b5050505050565b5f805f3373ffffffffffffffffffffffffffffffffffffffff1673ffffffffffffffffffffffffffffffffffffffff1681526020019081526020015f205f018054610e2a90611946565b905014610e6c576040517f08c379a0000000000000000000000000000000000000000000000000000000008152600401610e6390611ec4565b60405180910390fd5b81815f803373ffffffffffffffffffffffffffffffffffffffff1673ffffffffffffffffffffffffffffffffffffffff1681526020019081526020015f205f019182610eb9929190611eec565b50335f803373ffffffffffffffffffffffffffffffffffffffff1673ffffffffffffffffffffffffffffffffffffffff1681526020019081526020015f206001015f6101000a81548173ffffffffffffffffffffffffffffffffffffffff021916908373ffffffffffffffffffffffffffffffffffffffff16021790555060015f815480929190610f4990611a88565b91905055505050565b6002818051602081018201805184825260208301602085012081835280955050505050505f91509050805f015490806001018054610f8f90611946565b80601f0160208091040260200160405190810160405280929190818152602001828054610fbb90611946565b80156110065780601f10610fdd57610100808354040283529160200191611006565b820191905f5260205f20905b815481529060010190602001808311610fe957829003601f168201915b50505050509080600201805461101b90611946565b80601f016020809104026020016040519081016040528092919081815260200182805461104790611946565b80156110925780601f1061106957610100808354040283529160200191611092565b820191905f5260205f20905b81548152906001019060200180831161107557829003601f168201915b505050505090806003015f9054906101000a900473ffffffffffffffffffffffffffffffffffffffff1690806004015490806005015490806006015f9054906101000a900460ff16908060070154905088565b6040518061010001604052805f815260200160608152602001606081526020015f73ffffffffffffffffffffffffffffffffffffffff1681526020015f81526020015f81526020015f60028111156111405761113f61123c565b5b81526020015f81525090565b5f81519050919050565b5f82825260208201905092915050565b5f819050602082019050919050565b5f819050919050565b61118781611175565b82525050565b5f81519050919050565b5f82825260208201905092915050565b8281835e5f83830152505050565b5f601f19601f8301169050919050565b5f6111cf8261118d565b6111d98185611197565b93506111e98185602086016111a7565b6111f2816111b5565b840191505092915050565b5f73ffffffffffffffffffffffffffffffffffffffff82169050919050565b5f611226826111fd565b9050919050565b6112368161121c565b82525050565b7f4e487b71000000000000000000000000000000000000000000000000000000005f52602160045260245ffd5b6003811061127a5761127961123c565b5b50565b5f81905061128a82611269565b919050565b5f6112998261127d565b9050919050565b6112a98161128f565b82525050565b5f61010083015f8301516112c55f86018261117e565b50602083015184820360208601526112dd82826111c5565b915050604083015184820360408601526112f782826111c5565b915050606083015161130c606086018261122d565b50608083015161131f608086018261117e565b5060a083015161133260a086018261117e565b5060c083015161134560c08601826112a0565b5060e083015161135860e086018261117e565b508091505092915050565b5f61136e83836112af565b905092915050565b5f602082019050919050565b5f61138c8261114c565b6113968185611156565b9350836020820285016113a885611166565b805f5b858110156113e357848403895281516113c48582611363565b94506113cf83611376565b925060208a019950506001810190506113ab565b50829750879550505050505092915050565b5f6020820190508181035f83015261140d8184611382565b905092915050565b5f604051905090565b5f80fd5b5f80fd5b5f80fd5b5f80fd5b7f4e487b71000000000000000000000000000000000000000000000000000000005f52604160045260245ffd5b611464826111b5565b810181811067ffffffffffffffff821117156114835761148261142e565b5b80604052505050565b5f611495611415565b90506114a1828261145b565b919050565b5f67ffffffffffffffff8211156114c0576114bf61142e565b5b6114c9826111b5565b9050602081019050919050565b828183375f83830152505050565b5f6114f66114f1846114a6565b61148c565b9050828152602081018484840111156115125761151161142a565b5b61151d8482856114d6565b509392505050565b5f82601f83011261153957611538611426565b5b81356115498482602086016114e4565b91505092915050565b5f602082840312156115675761156661141e565b5b5f82013567ffffffffffffffff81111561158457611583611422565b5b61159084828501611525565b91505092915050565b5f61010083015f8301516115af5f86018261117e565b50602083015184820360208601526115c782826111c5565b915050604083015184820360408601526115e182826111c5565b91505060608301516115f6606086018261122d565b506080830151611609608086018261117e565b5060a083015161161c60a086018261117e565b5060c083015161162f60c08601826112a0565b5060e083015161164260e086018261117e565b508091505092915050565b5f6020820190508181035f8301526116658184611599565b905092915050565b5f80604083850312156116835761168261141e565b5b5f83013567ffffffffffffffff8111156116a05761169f611422565b5b6116ac85828601611525565b925050602083013567ffffffffffffffff8111156116cd576116cc611422565b5b6116d985828601611525565b9150509250929050565b5f8115159050919050565b6116f7816116e3565b8114611701575f80fd5b50565b5f81359050611712816116ee565b92915050565b5f806040838503121561172e5761172d61141e565b5b5f83013567ffffffffffffffff81111561174b5761174a611422565b5b61175785828601611525565b925050602061176885828601611704565b9150509250929050565b5f80fd5b5f80fd5b5f8083601f84011261178f5761178e611426565b5b8235905067ffffffffffffffff8111156117ac576117ab611772565b5b6020830191508360018202830111156117c8576117c7611776565b5b9250929050565b5f80602083850312156117e5576117e461141e565b5b5f83013567ffffffffffffffff81111561180257611801611422565b5b61180e8582860161177a565b92509250509250929050565b61182381611175565b82525050565b5f82825260208201905092915050565b5f6118438261118d565b61184d8185611829565b935061185d8185602086016111a7565b611866816111b5565b840191505092915050565b61187a8161121c565b82525050565b6118898161128f565b82525050565b5f610100820190506118a35f83018b61181a565b81810360208301526118b5818a611839565b905081810360408301526118c98189611839565b90506118d86060830188611871565b6118e5608083018761181a565b6118f260a083018661181a565b6118ff60c0830185611880565b61190c60e083018461181a565b9998505050505050505050565b7f4e487b71000000000000000000000000000000000000000000000000000000005f52602260045260245ffd5b5f600282049050600182168061195d57607f821691505b6020821081036119705761196f611919565b5b50919050565b7f4e487b71000000000000000000000000000000000000000000000000000000005f52603260045260245ffd5b5f81905092915050565b5f6119b78261118d565b6119c181856119a3565b93506119d18185602086016111a7565b80840191505092915050565b5f6119e882846119ad565b915081905092915050565b7f697373756520616c7265616479206578697374730000000000000000000000005f82015250565b5f611a27601483611829565b9150611a32826119f3565b602082019050919050565b5f6020820190508181035f830152611a5481611a1b565b9050919050565b7f4e487b71000000000000000000000000000000000000000000000000000000005f52601160045260245ffd5b5f611a9282611175565b91507fffffffffffffffffffffffffffffffffffffffffffffffffffffffffffffffff8203611ac457611ac3611a5b565b5b600182019050919050565b5f819050815f5260205f209050919050565b5f6020601f8301049050919050565b5f82821b905092915050565b5f60088302611b2b7fffffffffffffffffffffffffffffffffffffffffffffffffffffffffffffffff82611af0565b611b358683611af0565b95508019841693508086168417925050509392505050565b5f819050919050565b5f611b70611b6b611b6684611175565b611b4d565b611175565b9050919050565b5f819050919050565b611b8983611b56565b611b9d611b9582611b77565b848454611afc565b825550505050565b5f90565b611bb1611ba5565b611bbc818484611b80565b505050565b5b81811015611bdf57611bd45f82611ba9565b600181019050611bc2565b5050565b601f821115611c2457611bf581611acf565b611bfe84611ae1565b81016020851015611c0d578190505b611c21611c1985611ae1565b830182611bc1565b50505b505050565b5f82821c905092915050565b5f611c445f1984600802611c29565b1980831691505092915050565b5f611c5c8383611c35565b9150826002028217905092915050565b611c758261118d565b67ffffffffffffffff811115611c8e57611c8d61142e565b5b611c988254611946565b611ca3828285611be3565b5f60209050601f831160018114611cd4575f8415611cc2578287015190505b611ccc8582611c51565b865550611d33565b601f198416611ce286611acf565b5f5b82811015611d0957848901518255600182019150602085019450602081019050611ce4565b86831015611d265784890151611d22601f891682611c35565b8355505b6001600288020188555050505b505050505050565b7f616c726561647920766f746564000000000000000000000000000000000000005f82015250565b5f611d6f600d83611829565b9150611d7a82611d3b565b602082019050919050565b5f6020820190508181035f830152611d9c81611d63565b9050919050565b5f611dad82611175565b9150611db883611175565b9250828201905080821115611dd057611dcf611a5b565b5b92915050565b5f611de082611175565b91505f8203611df257611df1611a5b565b5b600182039050919050565b5f611e0883856119a3565b9350611e158385846114d6565b82840190509392505050565b5f611e2d828486611dfd565b91508190509392505050565b5f611e4382611175565b9150611e4e83611175565b9250828202611e5c81611175565b91508282048414831517611e7357611e72611a5b565b5b5092915050565b7f616c7265616479207265676973746572656400000000000000000000000000005f82015250565b5f611eae601283611829565b9150611eb982611e7a565b602082019050919050565b5f6020820190508181035f830152611edb81611ea2565b9050919050565b5f82905092915050565b611ef68383611ee2565b67ffffffffffffffff811115611f0f57611f0e61142e565b5b611f198254611946565b611f24828285611be3565b5f601f831160018114611f51575f8415611f3f578287013590505b611f498582611c51565b865550611fb0565b601f198416611f5f86611acf565b5f5b82811015611f8657848901358255600182019150602085019450602081019050611f61565b86831015611fa35784890135611f9f601f891682611c35565b8355505b6001600288020188555050505b5050505050505056fea2646970667358221220ef44f6364884f697d1cbef0e4e40e0d61a4246ed4425588daf26a044d0cc990164736f6c634300081a0033",
					"opcodes": "PUSH1 0x80 PUSH1 0x40 MSTORE PUSH1 0x1 PUSH1 0x3 SSTORE CALLVALUE DUP1 ISZERO PUSH1 0x13 JUMPI PUSH0 DUP1 REVERT JUMPDEST POP PUSH2 0x1FEF DUP1 PUSH2 0x21 PUSH0 CODECOPY PUSH0 RETURN INVALID PUSH1 0x80 PUSH1 0x40 MSTORE CALLVALUE DUP1 ISZERO PUSH2 0xF JUMPI PUSH0 DUP1 REVERT JUMPDEST POP PUSH1 0x4 CALLDATASIZE LT PUSH2 0x7B JUMPI PUSH0 CALLDATALOAD PUSH1 0xE0 SHR DUP1 PUSH4 0x87AF313C GT PUSH2 0x59 JUMPI DUP1 PUSH4 0x87AF313C EQ PUSH2 0xE9 JUMPI DUP1 PUSH4 0x88E3CFDA EQ PUSH2 0x105 JUMPI DUP1 PUSH4 0xD0020FAD EQ PUSH2 0x121 JUMPI DUP1 PUSH4 0xE38BA436 EQ PUSH2 0x13D JUMPI PUSH2 0x7B JUMP JUMPDEST DUP1 PUSH4 0x42C1C43B EQ PUSH2 0x7F JUMPI DUP1 PUSH4 0x65C504B5 EQ PUSH2 0x9D JUMPI DUP1 PUSH4 0x700B82ED EQ PUSH2 0xCD JUMPI JUMPDEST PUSH0 DUP1 REVERT JUMPDEST PUSH2 0x87 PUSH2 0x174 JUMP JUMPDEST PUSH1 0x40 MLOAD PUSH2 0x94 SWAP2 SWAP1 PUSH2 0x13F5 JUMP JUMPDEST PUSH1 0x40 MLOAD DUP1 SWAP2 SUB SWAP1 RETURN JUMPDEST PUSH2 0xB7 PUSH1 0x4 DUP1 CALLDATASIZE SUB DUP2 ADD SWAP1 PUSH2 0xB2 SWAP2 SWAP1 PUSH2 0x1552 JUMP JUMPDEST PUSH2 0x579 JUMP JUMPDEST PUSH1 0x40 MLOAD PUSH2 0xC4 SWAP2 SWAP1 PUSH2 0x164D JUMP JUMPDEST PUSH1 0x40 MLOAD DUP1 SWAP2 SUB SWAP1 RETURN JUMPDEST PUSH2 0xE7 PUSH1 0x4 DUP1 CALLDATASIZE SUB DUP2 ADD SWAP1 PUSH2 0xE2 SWAP2 SWAP1 PUSH2 0x166D JUMP JUMPDEST PUSH2 0x788 JUMP JUMPDEST STOP JUMPDEST PUSH2 0x103 PUSH1 0x4 DUP1 CALLDATASIZE SUB DUP2 ADD SWAP1 PUSH2 0xFE SWAP2 SWAP1 PUSH2 0x1718 JUMP JUMPDEST PUSH2 0x9BC JUMP JUMPDEST STOP JUMPDEST PUSH2 0x11F PUSH1 0x4 DUP1 CALLDATASIZE SUB DUP2 ADD SWAP1 PUSH2 0x11A SWAP2 SWAP1 PUSH2 0x17CF JUMP JUMPDEST PUSH2 0xC60 JUMP JUMPDEST STOP JUMPDEST PUSH2 0x13B PUSH1 0x4 DUP1 CALLDATASIZE SUB DUP2 ADD SWAP1 PUSH2 0x136 SWAP2 SWAP1 PUSH2 0x17CF JUMP JUMPDEST PUSH2 0xDE0 JUMP JUMPDEST STOP JUMPDEST PUSH2 0x157 PUSH1 0x4 DUP1 CALLDATASIZE SUB DUP2 ADD SWAP1 PUSH2 0x152 SWAP2 SWAP1 PUSH2 0x1552 JUMP JUMPDEST PUSH2 0xF52 JUMP JUMPDEST PUSH1 0x40 MLOAD PUSH2 0x16B SWAP9 SWAP8 SWAP7 SWAP6 SWAP5 SWAP4 SWAP3 SWAP2 SWAP1 PUSH2 0x188F JUMP JUMPDEST PUSH1 0x40 MLOAD DUP1 SWAP2 SUB SWAP1 RETURN JUMPDEST PUSH1 0x60 PUSH0 DUP1 PUSH0 CALLER PUSH20 0xFFFFFFFFFFFFFFFFFFFFFFFFFFFFFFFFFFFFFFFF AND PUSH20 0xFFFFFFFFFFFFFFFFFFFFFFFFFFFFFFFFFFFFFFFF AND DUP2 MSTORE PUSH1 0x20 ADD SWAP1 DUP2 MSTORE PUSH1 0x20 ADD PUSH0 KECCAK256 PUSH1 0x2 ADD DUP1 SLOAD DUP1 PUSH1 0x20 MUL PUSH1 0x20 ADD PUSH1 0x40 MLOAD SWAP1 DUP2 ADD PUSH1 0x40 MSTORE DUP1 SWAP3 SWAP2 SWAP1 DUP2 DUP2 MSTORE PUSH1 0x20 ADD PUSH0 SWAP1 JUMPDEST DUP3 DUP3 LT ISZERO PUSH2 0x27D JUMPI DUP4 DUP3 SWAP1 PUSH0 MSTORE PUSH1 0x20 PUSH0 KECCAK256 ADD DUP1 SLOAD PUSH2 0x1F2 SWAP1 PUSH2 0x1946 JUMP JUMPDEST DUP1 PUSH1 0x1F ADD PUSH1 0x20 DUP1 SWAP2 DIV MUL PUSH1 0x20 ADD PUSH1 0x40 MLOAD SWAP1 DUP2 ADD PUSH1 0x40 MSTORE DUP1 SWAP3 SWAP2 SWAP1 DUP2 DUP2 MSTORE PUSH1 0x20 ADD DUP3 DUP1 SLOAD PUSH2 0x21E SWAP1 PUSH2 0x1946 JUMP JUMPDEST DUP1 ISZERO PUSH2 0x269 JUMPI DUP1 PUSH1 0x1F LT PUSH2 0x240 JUMPI PUSH2 0x100 DUP1 DUP4 SLOAD DIV MUL DUP4 MSTORE SWAP2 PUSH1 0x20 ADD SWAP2 PUSH2 0x269 JUMP JUMPDEST DUP3 ADD SWAP2 SWAP1 PUSH0 MSTORE PUSH1 0x20 PUSH0 KECCAK256 SWAP1 JUMPDEST DUP2 SLOAD DUP2 MSTORE SWAP1 PUSH1 0x1 ADD SWAP1 PUSH1 0x20 ADD DUP1 DUP4 GT PUSH2 0x24C JUMPI DUP3 SWAP1 SUB PUSH1 0x1F AND DUP3 ADD SWAP2 JUMPDEST POP POP POP POP POP DUP2 MSTORE PUSH1 0x20 ADD SWAP1 PUSH1 0x1 ADD SWAP1 PUSH2 0x1D5 JUMP JUMPDEST POP POP POP POP SWAP1 POP PUSH0 DUP1 PUSH0 CALLER PUSH20 0xFFFFFFFFFFFFFFFFFFFFFFFFFFFFFFFFFFFFFFFF AND PUSH20 0xFFFFFFFFFFFFFFFFFFFFFFFFFFFFFFFFFFFFFFFF AND DUP2 MSTORE PUSH1 0x20 ADD SWAP1 DUP2 MSTORE PUSH1 0x20 ADD PUSH0 KECCAK256 PUSH1 0x2 ADD DUP1 SLOAD SWAP1 POP SWAP1 POP PUSH0 DUP2 PUSH8 0xFFFFFFFFFFFFFFFF DUP2 GT ISZERO PUSH2 0x2E4 JUMPI PUSH2 0x2E3 PUSH2 0x142E JUMP JUMPDEST JUMPDEST PUSH1 0x40 MLOAD SWAP1 DUP1 DUP3 MSTORE DUP1 PUSH1 0x20 MUL PUSH1 0x20 ADD DUP3 ADD PUSH1 0x40 MSTORE DUP1 ISZERO PUSH2 0x31D JUMPI DUP2 PUSH1 0x20 ADD JUMPDEST PUSH2 0x30A PUSH2 0x10E5 JUMP JUMPDEST DUP2 MSTORE PUSH1 0x20 ADD SWAP1 PUSH1 0x1 SWAP1 SUB SWAP1 DUP2 PUSH2 0x302 JUMPI SWAP1 POP JUMPDEST POP SWAP1 POP PUSH0 JUMPDEST DUP3 DUP2 LT ISZERO PUSH2 0x56F JUMPI PUSH1 0x2 DUP5 DUP3 DUP2 MLOAD DUP2 LT PUSH2 0x33F JUMPI PUSH2 0x33E PUSH2 0x1976 JUMP JUMPDEST JUMPDEST PUSH1 0x20 MUL PUSH1 0x20 ADD ADD MLOAD PUSH1 0x40 MLOAD PUSH2 0x354 SWAP2 SWAP1 PUSH2 0x19DD JUMP JUMPDEST SWAP1 DUP2 MSTORE PUSH1 0x20 ADD PUSH1 0x40 MLOAD DUP1 SWAP2 SUB SWAP1 KECCAK256 PUSH1 0x40 MLOAD DUP1 PUSH2 0x100 ADD PUSH1 0x40 MSTORE SWAP1 DUP2 PUSH0 DUP3 ADD SLOAD DUP2 MSTORE PUSH1 0x20 ADD PUSH1 0x1 DUP3 ADD DUP1 SLOAD PUSH2 0x387 SWAP1 PUSH2 0x1946 JUMP JUMPDEST DUP1 PUSH1 0x1F ADD PUSH1 0x20 DUP1 SWAP2 DIV MUL PUSH1 0x20 ADD PUSH1 0x40 MLOAD SWAP1 DUP2 ADD PUSH1 0x40 MSTORE DUP1 SWAP3 SWAP2 SWAP1 DUP2 DUP2 MSTORE PUSH1 0x20 ADD DUP3 DUP1 SLOAD PUSH2 0x3B3 SWAP1 PUSH2 0x1946 JUMP JUMPDEST DUP1 ISZERO PUSH2 0x3FE JUMPI DUP1 PUSH1 0x1F LT PUSH2 0x3D5 JUMPI PUSH2 0x100 DUP1 DUP4 SLOAD DIV MUL DUP4 MSTORE SWAP2 PUSH1 0x20 ADD SWAP2 PUSH2 0x3FE JUMP JUMPDEST DUP3 ADD SWAP2 SWAP1 PUSH0 MSTORE PUSH1 0x20 PUSH0 KECCAK256 SWAP1 JUMPDEST DUP2 SLOAD DUP2 MSTORE SWAP1 PUSH1 0x1 ADD SWAP1 PUSH1 0x20 ADD DUP1 DUP4 GT PUSH2 0x3E1 JUMPI DUP3 SWAP1 SUB PUSH1 0x1F AND DUP3 ADD SWAP2 JUMPDEST POP POP POP POP POP DUP2 MSTORE PUSH1 0x20 ADD PUSH1 0x2 DUP3 ADD DUP1 SLOAD PUSH2 0x417 SWAP1 PUSH2 0x1946 JUMP JUMPDEST DUP1 PUSH1 0x1F ADD PUSH1 0x20 DUP1 SWAP2 DIV MUL PUSH1 0x20 ADD PUSH1 0x40 MLOAD SWAP1 DUP2 ADD PUSH1 0x40 MSTORE DUP1 SWAP3 SWAP2 SWAP1 DUP2 DUP2 MSTORE PUSH1 0x20 ADD DUP3 DUP1 SLOAD PUSH2 0x443 SWAP1 PUSH2 0x1946 JUMP JUMPDEST DUP1 ISZERO PUSH2 0x48E JUMPI DUP1 PUSH1 0x1F LT PUSH2 0x465 JUMPI PUSH2 0x100 DUP1 DUP4 SLOAD DIV MUL DUP4 MSTORE SWAP2 PUSH1 0x20 ADD SWAP2 PUSH2 0x48E JUMP JUMPDEST DUP3 ADD SWAP2 SWAP1 PUSH0 MSTORE PUSH1 0x20 PUSH0 KECCAK256 SWAP1 JUMPDEST DUP2 SLOAD DUP2 MSTORE SWAP1 PUSH1 0x1 ADD SWAP1 PUSH1 0x20 ADD DUP1 DUP4 GT PUSH2 0x471 JUMPI DUP3 SWAP1 SUB PUSH1 0x1F AND DUP3 ADD SWAP2 JUMPDEST POP POP POP POP POP DUP2 MSTORE PUSH1 0x20 ADD PUSH1 0x3 DUP3 ADD PUSH0 SWAP1 SLOAD SWAP1 PUSH2 0x100 EXP SWAP1 DIV PUSH20 0xFFFFFFFFFFFFFFFFFFFFFFFFFFFFFFFFFFFFFFFF AND PUSH20 0xFFFFFFFFFFFFFFFFFFFFFFFFFFFFFFFFFFFFFFFF AND PUSH20 0xFFFFFFFFFFFFFFFFFFFFFFFFFFFFFFFFFFFFFFFF AND DUP2 MSTORE PUSH1 0x20 ADD PUSH1 0x4 DUP3 ADD SLOAD DUP2 MSTORE PUSH1 0x20 ADD PUSH1 0x5 DUP3 ADD SLOAD DUP2 MSTORE PUSH1 0x20 ADD PUSH1 0x6 DUP3 ADD PUSH0 SWAP1 SLOAD SWAP1 PUSH2 0x100 EXP SWAP1 DIV PUSH1 0xFF AND PUSH1 0x2 DUP2 GT ISZERO PUSH2 0x524 JUMPI PUSH2 0x523 PUSH2 0x123C JUMP JUMPDEST JUMPDEST PUSH1 0x2 DUP2 GT ISZERO PUSH2 0x536 JUMPI PUSH2 0x535 PUSH2 0x123C JUMP JUMPDEST JUMPDEST DUP2 MSTORE PUSH1 0x20 ADD PUSH1 0x7 DUP3 ADD SLOAD DUP2 MSTORE POP POP DUP3 DUP3 DUP2 MLOAD DUP2 LT PUSH2 0x557 JUMPI PUSH2 0x556 PUSH2 0x1976 JUMP JUMPDEST JUMPDEST PUSH1 0x20 MUL PUSH1 0x20 ADD ADD DUP2 SWAP1 MSTORE POP DUP1 DUP1 PUSH1 0x1 ADD SWAP2 POP POP PUSH2 0x322 JUMP JUMPDEST POP DUP1 SWAP4 POP POP POP POP SWAP1 JUMP JUMPDEST PUSH2 0x581 PUSH2 0x10E5 JUMP JUMPDEST PUSH1 0x2 DUP3 PUSH1 0x40 MLOAD PUSH2 0x591 SWAP2 SWAP1 PUSH2 0x19DD JUMP JUMPDEST SWAP1 DUP2 MSTORE PUSH1 0x20 ADD PUSH1 0x40 MLOAD DUP1 SWAP2 SUB SWAP1 KECCAK256 PUSH1 0x40 MLOAD DUP1 PUSH2 0x100 ADD PUSH1 0x40 MSTORE SWAP1 DUP2 PUSH0 DUP3 ADD SLOAD DUP2 MSTORE PUSH1 0x20 ADD PUSH1 0x1 DUP3 ADD DUP1 SLOAD PUSH2 0x5C4 SWAP1 PUSH2 0x1946 JUMP JUMPDEST DUP1 PUSH1 0x1F ADD PUSH1 0x20 DUP1 SWAP2 DIV MUL PUSH1 0x20 ADD PUSH1 0x40 MLOAD SWAP1 DUP2 ADD PUSH1 0x40 MSTORE DUP1 SWAP3 SWAP2 SWAP1 DUP2 DUP2 MSTORE PUSH1 0x20 ADD DUP3 DUP1 SLOAD PUSH2 0x5F0 SWAP1 PUSH2 0x1946 JUMP JUMPDEST DUP1 ISZERO PUSH2 0x63B JUMPI DUP1 PUSH1 0x1F LT PUSH2 0x612 JUMPI PUSH2 0x100 DUP1 DUP4 SLOAD DIV MUL DUP4 MSTORE SWAP2 PUSH1 0x20 ADD SWAP2 PUSH2 0x63B JUMP JUMPDEST DUP3 ADD SWAP2 SWAP1 PUSH0 MSTORE PUSH1 0x20 PUSH0 KECCAK256 SWAP1 JUMPDEST DUP2 SLOAD DUP2 MSTORE SWAP1 PUSH1 0x1 ADD SWAP1 PUSH1 0x20 ADD DUP1 DUP4 GT PUSH2 0x61E JUMPI DUP3 SWAP1 SUB PUSH1 0x1F AND DUP3 ADD SWAP2 JUMPDEST POP POP POP POP POP DUP2 MSTORE PUSH1 0x20 ADD PUSH1 0x2 DUP3 ADD DUP1 SLOAD PUSH2 0x654 SWAP1 PUSH2 0x1946 JUMP JUMPDEST DUP1 PUSH1 0x1F ADD PUSH1 0x20 DUP1 SWAP2 DIV MUL PUSH1 0x20 ADD PUSH1 0x40 MLOAD SWAP1 DUP2 ADD PUSH1 0x40 MSTORE DUP1 SWAP3 SWAP2 SWAP1 DUP2 DUP2 MSTORE PUSH1 0x20 ADD DUP3 DUP1 SLOAD PUSH2 0x680 SWAP1 PUSH2 0x1946 JUMP JUMPDEST DUP1 ISZERO PUSH2 0x6CB JUMPI DUP1 PUSH1 0x1F LT PUSH2 0x6A2 JUMPI PUSH2 0x100 DUP1 DUP4 SLOAD DIV MUL DUP4 MSTORE SWAP2 PUSH1 0x20 ADD SWAP2 PUSH2 0x6CB JUMP JUMPDEST DUP3 ADD SWAP2 SWAP1 PUSH0 MSTORE PUSH1 0x20 PUSH0 KECCAK256 SWAP1 JUMPDEST DUP2 SLOAD DUP2 MSTORE SWAP1 PUSH1 0x1 ADD SWAP1 PUSH1 0x20 ADD DUP1 DUP4 GT PUSH2 0x6AE JUMPI DUP3 SWAP1 SUB PUSH1 0x1F AND DUP3 ADD SWAP2 JUMPDEST POP POP POP POP POP DUP2 MSTORE PUSH1 0x20 ADD PUSH1 0x3 DUP3 ADD PUSH0 SWAP1 SLOAD SWAP1 PUSH2 0x100 EXP SWAP1 DIV PUSH20 0xFFFFFFFFFFFFFFFFFFFFFFFFFFFFFFFFFFFFFFFF AND PUSH20 0xFFFFFFFFFFFFFFFFFFFFFFFFFFFFFFFFFFFFFFFF AND PUSH20 0xFFFFFFFFFFFFFFFFFFFFFFFFFFFFFFFFFFFFFFFF AND DUP2 MSTORE PUSH1 0x20 ADD PUSH1 0x4 DUP3 ADD SLOAD DUP2 MSTORE PUSH1 0x20 ADD PUSH1 0x5 DUP3 ADD SLOAD DUP2 MSTORE PUSH1 0x20 ADD PUSH1 0x6 DUP3 ADD PUSH0 SWAP1 SLOAD SWAP1 PUSH2 0x100 EXP SWAP1 DIV PUSH1 0xFF AND PUSH1 0x2 DUP2 GT ISZERO PUSH2 0x761 JUMPI PUSH2 0x760 PUSH2 0x123C JUMP JUMPDEST JUMPDEST PUSH1 0x2 DUP2 GT ISZERO PUSH2 0x773 JUMPI PUSH2 0x772 PUSH2 0x123C JUMP JUMPDEST JUMPDEST DUP2 MSTORE PUSH1 0x20 ADD PUSH1 0x7 DUP3 ADD SLOAD DUP2 MSTORE POP POP SWAP1 POP SWAP2 SWAP1 POP JUMP JUMPDEST PUSH0 PUSH1 0x2 DUP4 PUSH1 0x40 MLOAD PUSH2 0x799 SWAP2 SWAP1 PUSH2 0x19DD JUMP JUMPDEST SWAP1 DUP2 MSTORE PUSH1 0x20 ADD PUSH1 0x40 MLOAD DUP1 SWAP2 SUB SWAP1 KECCAK256 PUSH0 ADD SLOAD EQ PUSH2 0x7EA JUMPI PUSH1 0x40 MLOAD PUSH32 0x8C379A000000000000000000000000000000000000000000000000000000000 DUP2 MSTORE PUSH1 0x4 ADD PUSH2 0x7E1 SWAP1 PUSH2 0x1A3D JUMP JUMPDEST PUSH1 0x40 MLOAD DUP1 SWAP2 SUB SWAP1 REVERT JUMPDEST PUSH1 0x40 MLOAD DUP1 PUSH2 0x100 ADD PUSH1 0x40 MSTORE DUP1 PUSH1 0x3 PUSH0 DUP2 SLOAD DUP1 SWAP3 SWAP2 SWAP1 PUSH2 0x808 SWAP1 PUSH2 0x1A88 JUMP JUMPDEST SWAP2 SWAP1 POP SSTORE DUP2 MSTORE PUSH1 0x20 ADD DUP4 DUP2 MSTORE PUSH1 0x20 ADD DUP3 DUP2 MSTORE PUSH1 0x20 ADD CALLER PUSH20 0xFFFFFFFFFFFFFFFFFFFFFFFFFFFFFFFFFFFFFFFF AND DUP2 MSTORE PUSH1 0x20 ADD PUSH0 DUP2 MSTORE PUSH1 0x20 ADD PUSH0 DUP2 MSTORE PUSH1 0x20 ADD PUSH0 PUSH1 0x2 DUP2 GT ISZERO PUSH2 0x858 JUMPI PUSH2 0x857 PUSH2 0x123C JUMP JUMPDEST JUMPDEST DUP2 MSTORE PUSH1 0x20 ADD NUMBER DUP2 MSTORE POP PUSH1 0x2 DUP4 PUSH1 0x40 MLOAD PUSH2 0x871 SWAP2 SWAP1 PUSH2 0x19DD JUMP JUMPDEST SWAP1 DUP2 MSTORE PUSH1 0x20 ADD PUSH1 0x40 MLOAD DUP1 SWAP2 SUB SWAP1 KECCAK256 PUSH0 DUP3 ADD MLOAD DUP2 PUSH0 ADD SSTORE PUSH1 0x20 DUP3 ADD MLOAD DUP2 PUSH1 0x1 ADD SWAP1 DUP2 PUSH2 0x89C SWAP2 SWAP1 PUSH2 0x1C6C JUMP JUMPDEST POP PUSH1 0x40 DUP3 ADD MLOAD DUP2 PUSH1 0x2 ADD SWAP1 DUP2 PUSH2 0x8B2 SWAP2 SWAP1 PUSH2 0x1C6C JUMP JUMPDEST POP PUSH1 0x60 DUP3 ADD MLOAD DUP2 PUSH1 0x3 ADD PUSH0 PUSH2 0x100 EXP DUP2 SLOAD DUP2 PUSH20 0xFFFFFFFFFFFFFFFFFFFFFFFFFFFFFFFFFFFFFFFF MUL NOT AND SWAP1 DUP4 PUSH20 0xFFFFFFFFFFFFFFFFFFFFFFFFFFFFFFFFFFFFFFFF AND MUL OR SWAP1 SSTORE POP PUSH1 0x80 DUP3 ADD MLOAD DUP2 PUSH1 0x4 ADD SSTORE PUSH1 0xA0 DUP3 ADD MLOAD DUP2 PUSH1 0x5 ADD SSTORE PUSH1 0xC0 DUP3 ADD MLOAD DUP2 PUSH1 0x6 ADD PUSH0 PUSH2 0x100 EXP DUP2 SLOAD DUP2 PUSH1 0xFF MUL NOT AND SWAP1 DUP4 PUSH1 0x2 DUP2 GT ISZERO PUSH2 0x937 JUMPI PUSH2 0x936 PUSH2 0x123C JUMP JUMPDEST JUMPDEST MUL OR SWAP1 SSTORE POP PUSH1 0xE0 DUP3 ADD MLOAD DUP2 PUSH1 0x7 ADD SSTORE SWAP1 POP POP PUSH0 DUP1 CALLER PUSH20 0xFFFFFFFFFFFFFFFFFFFFFFFFFFFFFFFFFFFFFFFF AND PUSH20 0xFFFFFFFFFFFFFFFFFFFFFFFFFFFFFFFFFFFFFFFF AND DUP2 MSTORE PUSH1 0x20 ADD SWAP1 DUP2 MSTORE PUSH1 0x20 ADD PUSH0 KECCAK256 PUSH1 0x2 ADD DUP3 SWAP1 DUP1 PUSH1 0x1 DUP2 SLOAD ADD DUP1 DUP3 SSTORE DUP1 SWAP2 POP POP PUSH1 0x1 SWAP1 SUB SWAP1 PUSH0 MSTORE PUSH1 0x20 PUSH0 KECCAK256 ADD PUSH0 SWAP1 SWAP2 SWAP1 SWAP2 SWAP1 SWAP2 POP SWAP1 DUP2 PUSH2 0x9B7 SWAP2 SWAP1 PUSH2 0x1C6C JUMP JUMPDEST POP POP POP JUMP JUMPDEST PUSH0 ISZERO ISZERO PUSH0 DUP1 CALLER PUSH20 0xFFFFFFFFFFFFFFFFFFFFFFFFFFFFFFFFFFFFFFFF AND PUSH20 0xFFFFFFFFFFFFFFFFFFFFFFFFFFFFFFFFFFFFFFFF AND DUP2 MSTORE PUSH1 0x20 ADD SWAP1 DUP2 MSTORE PUSH1 0x20 ADD PUSH0 KECCAK256 PUSH1 0x4 ADD DUP4 PUSH1 0x40 MLOAD PUSH2 0xA0C SWAP2 SWAP1 PUSH2 0x19DD JUMP JUMPDEST SWAP1 DUP2 MSTORE PUSH1 0x20 ADD PUSH1 0x40 MLOAD DUP1 SWAP2 SUB SWAP1 KECCAK256 PUSH0 SWAP1 SLOAD SWAP1 PUSH2 0x100 EXP SWAP1 DIV PUSH1 0xFF AND ISZERO ISZERO EQ PUSH2 0xA69 JUMPI PUSH1 0x40 MLOAD PUSH32 0x8C379A000000000000000000000000000000000000000000000000000000000 DUP2 MSTORE PUSH1 0x4 ADD PUSH2 0xA60 SWAP1 PUSH2 0x1D85 JUMP JUMPDEST PUSH1 0x40 MLOAD DUP1 SWAP2 SUB SWAP1 REVERT JUMPDEST PUSH1 0xF PUSH1 0x2 DUP4 PUSH1 0x40 MLOAD PUSH2 0xA7B SWAP2 SWAP1 PUSH2 0x19DD JUMP JUMPDEST SWAP1 DUP2 MSTORE PUSH1 0x20 ADD PUSH1 0x40 MLOAD DUP1 SWAP2 SUB SWAP1 KECCAK256 PUSH1 0x7 ADD SLOAD PUSH2 0xA97 SWAP2 SWAP1 PUSH2 0x1DA3 JUMP JUMPDEST NUMBER GT ISZERO DUP1 ISZERO PUSH2 0xAF6 JUMPI POP PUSH0 PUSH1 0x2 DUP2 GT ISZERO PUSH2 0xAB4 JUMPI PUSH2 0xAB3 PUSH2 0x123C JUMP JUMPDEST JUMPDEST PUSH1 0x2 DUP4 PUSH1 0x40 MLOAD PUSH2 0xAC4 SWAP2 SWAP1 PUSH2 0x19DD JUMP JUMPDEST SWAP1 DUP2 MSTORE PUSH1 0x20 ADD PUSH1 0x40 MLOAD DUP1 SWAP2 SUB SWAP1 KECCAK256 PUSH1 0x6 ADD PUSH0 SWAP1 SLOAD SWAP1 PUSH2 0x100 EXP SWAP1 DIV PUSH1 0xFF AND PUSH1 0x2 DUP2 GT ISZERO PUSH2 0xAF4 JUMPI PUSH2 0xAF3 PUSH2 0x123C JUMP JUMPDEST JUMPDEST EQ JUMPDEST PUSH2 0xAFE JUMPI PUSH0 DUP1 REVERT JUMPDEST DUP1 ISZERO PUSH2 0xBB2 JUMPI PUSH1 0x2 DUP3 PUSH1 0x40 MLOAD PUSH2 0xB14 SWAP2 SWAP1 PUSH2 0x19DD JUMP JUMPDEST SWAP1 DUP2 MSTORE PUSH1 0x20 ADD PUSH1 0x40 MLOAD DUP1 SWAP2 SUB SWAP1 KECCAK256 PUSH1 0x4 ADD PUSH0 DUP2 SLOAD DUP1 SWAP3 SWAP2 SWAP1 PUSH2 0xB35 SWAP1 PUSH2 0x1A88 JUMP JUMPDEST SWAP2 SWAP1 POP SSTORE POP PUSH1 0x1 PUSH0 DUP1 CALLER PUSH20 0xFFFFFFFFFFFFFFFFFFFFFFFFFFFFFFFFFFFFFFFF AND PUSH20 0xFFFFFFFFFFFFFFFFFFFFFFFFFFFFFFFFFFFFFFFF AND DUP2 MSTORE PUSH1 0x20 ADD SWAP1 DUP2 MSTORE PUSH1 0x20 ADD PUSH0 KECCAK256 PUSH1 0x3 ADD DUP4 PUSH1 0x40 MLOAD PUSH2 0xB89 SWAP2 SWAP1 PUSH2 0x19DD JUMP JUMPDEST SWAP1 DUP2 MSTORE PUSH1 0x20 ADD PUSH1 0x40 MLOAD DUP1 SWAP2 SUB SWAP1 KECCAK256 PUSH0 PUSH2 0x100 EXP DUP2 SLOAD DUP2 PUSH1 0xFF MUL NOT AND SWAP1 DUP4 ISZERO ISZERO MUL OR SWAP1 SSTORE POP PUSH2 0xBE9 JUMP JUMPDEST PUSH1 0x2 DUP3 PUSH1 0x40 MLOAD PUSH2 0xBC2 SWAP2 SWAP1 PUSH2 0x19DD JUMP JUMPDEST SWAP1 DUP2 MSTORE PUSH1 0x20 ADD PUSH1 0x40 MLOAD DUP1 SWAP2 SUB SWAP1 KECCAK256 PUSH1 0x5 ADD PUSH0 DUP2 SLOAD DUP1 SWAP3 SWAP2 SWAP1 PUSH2 0xBE3 SWAP1 PUSH2 0x1DD6 JUMP JUMPDEST SWAP2 SWAP1 POP SSTORE POP JUMPDEST PUSH1 0x1 PUSH0 DUP1 CALLER PUSH20 0xFFFFFFFFFFFFFFFFFFFFFFFFFFFFFFFFFFFFFFFF AND PUSH20 0xFFFFFFFFFFFFFFFFFFFFFFFFFFFFFFFFFFFFFFFF AND DUP2 MSTORE PUSH1 0x20 ADD SWAP1 DUP2 MSTORE PUSH1 0x20 ADD PUSH0 KECCAK256 PUSH1 0x4 ADD DUP4 PUSH1 0x40 MLOAD PUSH2 0xC38 SWAP2 SWAP1 PUSH2 0x19DD JUMP JUMPDEST SWAP1 DUP2 MSTORE PUSH1 0x20 ADD PUSH1 0x40 MLOAD DUP1 SWAP2 SUB SWAP1 KECCAK256 PUSH0 PUSH2 0x100 EXP DUP2 SLOAD DUP2 PUSH1 0xFF MUL NOT AND SWAP1 DUP4 ISZERO ISZERO MUL OR SWAP1 SSTORE POP POP POP JUMP JUMPDEST PUSH1 0xF PUSH1 0x2 DUP4 DUP4 PUSH1 0x40 MLOAD PUSH2 0xC74 SWAP3 SWAP2 SWAP1 PUSH2 0x1E21 JUMP JUMPDEST SWAP1 DUP2 MSTORE PUSH1 0x20 ADD PUSH1 0x40 MLOAD DUP1 SWAP2 SUB SWAP1 KECCAK256 PUSH1 0x7 ADD SLOAD PUSH2 0xC90 SWAP2 SWAP1 PUSH2 0x1DA3 JUMP JUMPDEST NUMBER GT PUSH2 0xC9A JUMPI PUSH0 DUP1 REVERT JUMPDEST PUSH0 PUSH1 0x2 DUP4 DUP4 PUSH1 0x40 MLOAD PUSH2 0xCAD SWAP3 SWAP2 SWAP1 PUSH2 0x1E21 JUMP JUMPDEST SWAP1 DUP2 MSTORE PUSH1 0x20 ADD PUSH1 0x40 MLOAD DUP1 SWAP2 SUB SWAP1 KECCAK256 PUSH1 0x4 ADD SLOAD SWAP1 POP PUSH0 PUSH1 0x2 DUP5 DUP5 PUSH1 0x40 MLOAD PUSH2 0xCD4 SWAP3 SWAP2 SWAP1 PUSH2 0x1E21 JUMP JUMPDEST SWAP1 DUP2 MSTORE PUSH1 0x20 ADD PUSH1 0x40 MLOAD DUP1 SWAP2 SUB SWAP1 KECCAK256 PUSH1 0x5 ADD SLOAD SWAP1 POP PUSH0 DUP2 DUP4 PUSH2 0xCF5 SWAP2 SWAP1 PUSH2 0x1DA3 JUMP JUMPDEST SWAP1 POP PUSH1 0x7 PUSH1 0x1 SLOAD PUSH2 0xD06 SWAP2 SWAP1 PUSH2 0x1E39 JUMP JUMPDEST PUSH1 0xA DUP3 PUSH2 0xD13 SWAP2 SWAP1 PUSH2 0x1E39 JUMP JUMPDEST LT ISZERO DUP1 ISZERO PUSH2 0xD39 JUMPI POP PUSH1 0x42 DUP2 PUSH2 0xD29 SWAP2 SWAP1 PUSH2 0x1E39 JUMP JUMPDEST PUSH1 0x64 DUP5 PUSH2 0xD36 SWAP2 SWAP1 PUSH2 0x1E39 JUMP JUMPDEST LT ISZERO JUMPDEST ISZERO PUSH2 0xD8E JUMPI PUSH1 0x1 PUSH1 0x2 DUP7 DUP7 PUSH1 0x40 MLOAD PUSH2 0xD52 SWAP3 SWAP2 SWAP1 PUSH2 0x1E21 JUMP JUMPDEST SWAP1 DUP2 MSTORE PUSH1 0x20 ADD PUSH1 0x40 MLOAD DUP1 SWAP2 SUB SWAP1 KECCAK256 PUSH1 0x6 ADD PUSH0 PUSH2 0x100 EXP DUP2 SLOAD DUP2 PUSH1 0xFF MUL NOT AND SWAP1 DUP4 PUSH1 0x2 DUP2 GT ISZERO PUSH2 0xD84 JUMPI PUSH2 0xD83 PUSH2 0x123C JUMP JUMPDEST JUMPDEST MUL OR SWAP1 SSTORE POP PUSH2 0xDD9 JUMP JUMPDEST PUSH1 0x2 DUP1 DUP7 DUP7 PUSH1 0x40 MLOAD PUSH2 0xDA1 SWAP3 SWAP2 SWAP1 PUSH2 0x1E21 JUMP JUMPDEST SWAP1 DUP2 MSTORE PUSH1 0x20 ADD PUSH1 0x40 MLOAD DUP1 SWAP2 SUB SWAP1 KECCAK256 PUSH1 0x6 ADD PUSH0 PUSH2 0x100 EXP DUP2 SLOAD DUP2 PUSH1 0xFF MUL NOT AND SWAP1 DUP4 PUSH1 0x2 DUP2 GT ISZERO PUSH2 0xDD3 JUMPI PUSH2 0xDD2 PUSH2 0x123C JUMP JUMPDEST JUMPDEST MUL OR SWAP1 SSTORE POP JUMPDEST POP POP POP POP POP JUMP JUMPDEST PUSH0 DUP1 PUSH0 CALLER PUSH20 0xFFFFFFFFFFFFFFFFFFFFFFFFFFFFFFFFFFFFFFFF AND PUSH20 0xFFFFFFFFFFFFFFFFFFFFFFFFFFFFFFFFFFFFFFFF AND DUP2 MSTORE PUSH1 0x20 ADD SWAP1 DUP2 MSTORE PUSH1 0x20 ADD PUSH0 KECCAK256 PUSH0 ADD DUP1 SLOAD PUSH2 0xE2A SWAP1 PUSH2 0x1946 JUMP JUMPDEST SWAP1 POP EQ PUSH2 0xE6C JUMPI PUSH1 0x40 MLOAD PUSH32 0x8C379A000000000000000000000000000000000000000000000000000000000 DUP2 MSTORE PUSH1 0x4 ADD PUSH2 0xE63 SWAP1 PUSH2 0x1EC4 JUMP JUMPDEST PUSH1 0x40 MLOAD DUP1 SWAP2 SUB SWAP1 REVERT JUMPDEST DUP2 DUP2 PUSH0 DUP1 CALLER PUSH20 0xFFFFFFFFFFFFFFFFFFFFFFFFFFFFFFFFFFFFFFFF AND PUSH20 0xFFFFFFFFFFFFFFFFFFFFFFFFFFFFFFFFFFFFFFFF AND DUP2 MSTORE PUSH1 0x20 ADD SWAP1 DUP2 MSTORE PUSH1 0x20 ADD PUSH0 KECCAK256 PUSH0 ADD SWAP2 DUP3 PUSH2 0xEB9 SWAP3 SWAP2 SWAP1 PUSH2 0x1EEC JUMP JUMPDEST POP CALLER PUSH0 DUP1 CALLER PUSH20 0xFFFFFFFFFFFFFFFFFFFFFFFFFFFFFFFFFFFFFFFF AND PUSH20 0xFFFFFFFFFFFFFFFFFFFFFFFFFFFFFFFFFFFFFFFF AND DUP2 MSTORE PUSH1 0x20 ADD SWAP1 DUP2 MSTORE PUSH1 0x20 ADD PUSH0 KECCAK256 PUSH1 0x1 ADD PUSH0 PUSH2 0x100 EXP DUP2 SLOAD DUP2 PUSH20 0xFFFFFFFFFFFFFFFFFFFFFFFFFFFFFFFFFFFFFFFF MUL NOT AND SWAP1 DUP4 PUSH20 0xFFFFFFFFFFFFFFFFFFFFFFFFFFFFFFFFFFFFFFFF AND MUL OR SWAP1 SSTORE POP PUSH1 0x1 PUSH0 DUP2 SLOAD DUP1 SWAP3 SWAP2 SWAP1 PUSH2 0xF49 SWAP1 PUSH2 0x1A88 JUMP JUMPDEST SWAP2 SWAP1 POP SSTORE POP POP POP JUMP JUMPDEST PUSH1 0x2 DUP2 DUP1 MLOAD PUSH1 0x20 DUP2 ADD DUP3 ADD DUP1 MLOAD DUP5 DUP3 MSTORE PUSH1 0x20 DUP4 ADD PUSH1 0x20 DUP6 ADD KECCAK256 DUP2 DUP4 MSTORE DUP1 SWAP6 POP POP POP POP POP POP PUSH0 SWAP2 POP SWAP1 POP DUP1 PUSH0 ADD SLOAD SWAP1 DUP1 PUSH1 0x1 ADD DUP1 SLOAD PUSH2 0xF8F SWAP1 PUSH2 0x1946 JUMP JUMPDEST DUP1 PUSH1 0x1F ADD PUSH1 0x20 DUP1 SWAP2 DIV MUL PUSH1 0x20 ADD PUSH1 0x40 MLOAD SWAP1 DUP2 ADD PUSH1 0x40 MSTORE DUP1 SWAP3 SWAP2 SWAP1 DUP2 DUP2 MSTORE PUSH1 0x20 ADD DUP3 DUP1 SLOAD PUSH2 0xFBB SWAP1 PUSH2 0x1946 JUMP JUMPDEST DUP1 ISZERO PUSH2 0x1006 JUMPI DUP1 PUSH1 0x1F LT PUSH2 0xFDD JUMPI PUSH2 0x100 DUP1 DUP4 SLOAD DIV MUL DUP4 MSTORE SWAP2 PUSH1 0x20 ADD SWAP2 PUSH2 0x1006 JUMP JUMPDEST DUP3 ADD SWAP2 SWAP1 PUSH0 MSTORE PUSH1 0x20 PUSH0 KECCAK256 SWAP1 JUMPDEST DUP2 SLOAD DUP2 MSTORE SWAP1 PUSH1 0x1 ADD SWAP1 PUSH1 0x20 ADD DUP1 DUP4 GT PUSH2 0xFE9 JUMPI DUP3 SWAP1 SUB PUSH1 0x1F AND DUP3 ADD SWAP2 JUMPDEST POP POP POP POP POP SWAP1 DUP1 PUSH1 0x2 ADD DUP1 SLOAD PUSH2 0x101B SWAP1 PUSH2 0x1946 JUMP JUMPDEST DUP1 PUSH1 0x1F ADD PUSH1 0x20 DUP1 SWAP2 DIV MUL PUSH1 0x20 ADD PUSH1 0x40 MLOAD SWAP1 DUP2 ADD PUSH1 0x40 MSTORE DUP1 SWAP3 SWAP2 SWAP1 DUP2 DUP2 MSTORE PUSH1 0x20 ADD DUP3 DUP1 SLOAD PUSH2 0x1047 SWAP1 PUSH2 0x1946 JUMP JUMPDEST DUP1 ISZERO PUSH2 0x1092 JUMPI DUP1 PUSH1 0x1F LT PUSH2 0x1069 JUMPI PUSH2 0x100 DUP1 DUP4 SLOAD DIV MUL DUP4 MSTORE SWAP2 PUSH1 0x20 ADD SWAP2 PUSH2 0x1092 JUMP JUMPDEST DUP3 ADD SWAP2 SWAP1 PUSH0 MSTORE PUSH1 0x20 PUSH0 KECCAK256 SWAP1 JUMPDEST DUP2 SLOAD DUP2 MSTORE SWAP1 PUSH1 0x1 ADD SWAP1 PUSH1 0x20 ADD DUP1 DUP4 GT PUSH2 0x1075 JUMPI DUP3 SWAP1 SUB PUSH1 0x1F AND DUP3 ADD SWAP2 JUMPDEST POP POP POP POP POP SWAP1 DUP1 PUSH1 0x3 ADD PUSH0 SWAP1 SLOAD SWAP1 PUSH2 0x100 EXP SWAP1 DIV PUSH20 0xFFFFFFFFFFFFFFFFFFFFFFFFFFFFFFFFFFFFFFFF AND SWAP1 DUP1 PUSH1 0x4 ADD SLOAD SWAP1 DUP1 PUSH1 0x5 ADD SLOAD SWAP1 DUP1 PUSH1 0x6 ADD PUSH0 SWAP1 SLOAD SWAP1 PUSH2 0x100 EXP SWAP1 DIV PUSH1 0xFF AND SWAP1 DUP1 PUSH1 0x7 ADD SLOAD SWAP1 POP DUP9 JUMP JUMPDEST PUSH1 0x40 MLOAD DUP1 PUSH2 0x100 ADD PUSH1 0x40 MSTORE DUP1 PUSH0 DUP2 MSTORE PUSH1 0x20 ADD PUSH1 0x60 DUP2 MSTORE PUSH1 0x20 ADD PUSH1 0x60 DUP2 MSTORE PUSH1 0x20 ADD PUSH0 PUSH20 0xFFFFFFFFFFFFFFFFFFFFFFFFFFFFFFFFFFFFFFFF AND DUP2 MSTORE PUSH1 0x20 ADD PUSH0 DUP2 MSTORE PUSH1 0x20 ADD PUSH0 DUP2 MSTORE PUSH1 0x20 ADD PUSH0 PUSH1 0x2 DUP2 GT ISZERO PUSH2 0x1140 JUMPI PUSH2 0x113F PUSH2 0x123C JUMP JUMPDEST JUMPDEST DUP2 MSTORE PUSH1 0x20 ADD PUSH0 DUP2 MSTORE POP SWAP1 JUMP JUMPDEST PUSH0 DUP2 MLOAD SWAP1 POP SWAP2 SWAP1 POP JUMP JUMPDEST PUSH0 DUP3 DUP3 MSTORE PUSH1 0x20 DUP3 ADD SWAP1 POP SWAP3 SWAP2 POP POP JUMP JUMPDEST PUSH0 DUP2 SWAP1 POP PUSH1 0x20 DUP3 ADD SWAP1 POP SWAP2 SWAP1 POP JUMP JUMPDEST PUSH0 DUP2 SWAP1 POP SWAP2 SWAP1 POP JUMP JUMPDEST PUSH2 0x1187 DUP2 PUSH2 0x1175 JUMP JUMPDEST DUP3 MSTORE POP POP JUMP JUMPDEST PUSH0 DUP2 MLOAD SWAP1 POP SWAP2 SWAP1 POP JUMP JUMPDEST PUSH0 DUP3 DUP3 MSTORE PUSH1 0x20 DUP3 ADD SWAP1 POP SWAP3 SWAP2 POP POP JUMP JUMPDEST DUP3 DUP2 DUP4 MCOPY PUSH0 DUP4 DUP4 ADD MSTORE POP POP POP JUMP JUMPDEST PUSH0 PUSH1 0x1F NOT PUSH1 0x1F DUP4 ADD AND SWAP1 POP SWAP2 SWAP1 POP JUMP JUMPDEST PUSH0 PUSH2 0x11CF DUP3 PUSH2 0x118D JUMP JUMPDEST PUSH2 0x11D9 DUP2 DUP6 PUSH2 0x1197 JUMP JUMPDEST SWAP4 POP PUSH2 0x11E9 DUP2 DUP6 PUSH1 0x20 DUP7 ADD PUSH2 0x11A7 JUMP JUMPDEST PUSH2 0x11F2 DUP2 PUSH2 0x11B5 JUMP JUMPDEST DUP5 ADD SWAP2 POP POP SWAP3 SWAP2 POP POP JUMP JUMPDEST PUSH0 PUSH20 0xFFFFFFFFFFFFFFFFFFFFFFFFFFFFFFFFFFFFFFFF DUP3 AND SWAP1 POP SWAP2 SWAP1 POP JUMP JUMPDEST PUSH0 PUSH2 0x1226 DUP3 PUSH2 0x11FD JUMP JUMPDEST SWAP1 POP SWAP2 SWAP1 POP JUMP JUMPDEST PUSH2 0x1236 DUP2 PUSH2 0x121C JUMP JUMPDEST DUP3 MSTORE POP POP JUMP JUMPDEST PUSH32 0x4E487B7100000000000000000000000000000000000000000000000000000000 PUSH0 MSTORE PUSH1 0x21 PUSH1 0x4 MSTORE PUSH1 0x24 PUSH0 REVERT JUMPDEST PUSH1 0x3 DUP2 LT PUSH2 0x127A JUMPI PUSH2 0x1279 PUSH2 0x123C JUMP JUMPDEST JUMPDEST POP JUMP JUMPDEST PUSH0 DUP2 SWAP1 POP PUSH2 0x128A DUP3 PUSH2 0x1269 JUMP JUMPDEST SWAP2 SWAP1 POP JUMP JUMPDEST PUSH0 PUSH2 0x1299 DUP3 PUSH2 0x127D JUMP JUMPDEST SWAP1 POP SWAP2 SWAP1 POP JUMP JUMPDEST PUSH2 0x12A9 DUP2 PUSH2 0x128F JUMP JUMPDEST DUP3 MSTORE POP POP JUMP JUMPDEST PUSH0 PUSH2 0x100 DUP4 ADD PUSH0 DUP4 ADD MLOAD PUSH2 0x12C5 PUSH0 DUP7 ADD DUP3 PUSH2 0x117E JUMP JUMPDEST POP PUSH1 0x20 DUP4 ADD MLOAD DUP5 DUP3 SUB PUSH1 0x20 DUP7 ADD MSTORE PUSH2 0x12DD DUP3 DUP3 PUSH2 0x11C5 JUMP JUMPDEST SWAP2 POP POP PUSH1 0x40 DUP4 ADD MLOAD DUP5 DUP3 SUB PUSH1 0x40 DUP7 ADD MSTORE PUSH2 0x12F7 DUP3 DUP3 PUSH2 0x11C5 JUMP JUMPDEST SWAP2 POP POP PUSH1 0x60 DUP4 ADD MLOAD PUSH2 0x130C PUSH1 0x60 DUP7 ADD DUP3 PUSH2 0x122D JUMP JUMPDEST POP PUSH1 0x80 DUP4 ADD MLOAD PUSH2 0x131F PUSH1 0x80 DUP7 ADD DUP3 PUSH2 0x117E JUMP JUMPDEST POP PUSH1 0xA0 DUP4 ADD MLOAD PUSH2 0x1332 PUSH1 0xA0 DUP7 ADD DUP3 PUSH2 0x117E JUMP JUMPDEST POP PUSH1 0xC0 DUP4 ADD MLOAD PUSH2 0x1345 PUSH1 0xC0 DUP7 ADD DUP3 PUSH2 0x12A0 JUMP JUMPDEST POP PUSH1 0xE0 DUP4 ADD MLOAD PUSH2 0x1358 PUSH1 0xE0 DUP7 ADD DUP3 PUSH2 0x117E JUMP JUMPDEST POP DUP1 SWAP2 POP POP SWAP3 SWAP2 POP POP JUMP JUMPDEST PUSH0 PUSH2 0x136E DUP4 DUP4 PUSH2 0x12AF JUMP JUMPDEST SWAP1 POP SWAP3 SWAP2 POP POP JUMP JUMPDEST PUSH0 PUSH1 0x20 DUP3 ADD SWAP1 POP SWAP2 SWAP1 POP JUMP JUMPDEST PUSH0 PUSH2 0x138C DUP3 PUSH2 0x114C JUMP JUMPDEST PUSH2 0x1396 DUP2 DUP6 PUSH2 0x1156 JUMP JUMPDEST SWAP4 POP DUP4 PUSH1 0x20 DUP3 MUL DUP6 ADD PUSH2 0x13A8 DUP6 PUSH2 0x1166 JUMP JUMPDEST DUP1 PUSH0 JUMPDEST DUP6 DUP2 LT ISZERO PUSH2 0x13E3 JUMPI DUP5 DUP5 SUB DUP10 MSTORE DUP2 MLOAD PUSH2 0x13C4 DUP6 DUP3 PUSH2 0x1363 JUMP JUMPDEST SWAP5 POP PUSH2 0x13CF DUP4 PUSH2 0x1376 JUMP JUMPDEST SWAP3 POP PUSH1 0x20 DUP11 ADD SWAP10 POP POP PUSH1 0x1 DUP2 ADD SWAP1 POP PUSH2 0x13AB JUMP JUMPDEST POP DUP3 SWAP8 POP DUP8 SWAP6 POP POP POP POP POP POP SWAP3 SWAP2 POP POP JUMP JUMPDEST PUSH0 PUSH1 0x20 DUP3 ADD SWAP1 POP DUP2 DUP2 SUB PUSH0 DUP4 ADD MSTORE PUSH2 0x140D DUP2 DUP5 PUSH2 0x1382 JUMP JUMPDEST SWAP1 POP SWAP3 SWAP2 POP POP JUMP JUMPDEST PUSH0 PUSH1 0x40 MLOAD SWAP1 POP SWAP1 JUMP JUMPDEST PUSH0 DUP1 REVERT JUMPDEST PUSH0 DUP1 REVERT JUMPDEST PUSH0 DUP1 REVERT JUMPDEST PUSH0 DUP1 REVERT JUMPDEST PUSH32 0x4E487B7100000000000000000000000000000000000000000000000000000000 PUSH0 MSTORE PUSH1 0x41 PUSH1 0x4 MSTORE PUSH1 0x24 PUSH0 REVERT JUMPDEST PUSH2 0x1464 DUP3 PUSH2 0x11B5 JUMP JUMPDEST DUP2 ADD DUP2 DUP2 LT PUSH8 0xFFFFFFFFFFFFFFFF DUP3 GT OR ISZERO PUSH2 0x1483 JUMPI PUSH2 0x1482 PUSH2 0x142E JUMP JUMPDEST JUMPDEST DUP1 PUSH1 0x40 MSTORE POP POP POP JUMP JUMPDEST PUSH0 PUSH2 0x1495 PUSH2 0x1415 JUMP JUMPDEST SWAP1 POP PUSH2 0x14A1 DUP3 DUP3 PUSH2 0x145B JUMP JUMPDEST SWAP2 SWAP1 POP JUMP JUMPDEST PUSH0 PUSH8 0xFFFFFFFFFFFFFFFF DUP3 GT ISZERO PUSH2 0x14C0 JUMPI PUSH2 0x14BF PUSH2 0x142E JUMP JUMPDEST JUMPDEST PUSH2 0x14C9 DUP3 PUSH2 0x11B5 JUMP JUMPDEST SWAP1 POP PUSH1 0x20 DUP2 ADD SWAP1 POP SWAP2 SWAP1 POP JUMP JUMPDEST DUP3 DUP2 DUP4 CALLDATACOPY PUSH0 DUP4 DUP4 ADD MSTORE POP POP POP JUMP JUMPDEST PUSH0 PUSH2 0x14F6 PUSH2 0x14F1 DUP5 PUSH2 0x14A6 JUMP JUMPDEST PUSH2 0x148C JUMP JUMPDEST SWAP1 POP DUP3 DUP2 MSTORE PUSH1 0x20 DUP2 ADD DUP5 DUP5 DUP5 ADD GT ISZERO PUSH2 0x1512 JUMPI PUSH2 0x1511 PUSH2 0x142A JUMP JUMPDEST JUMPDEST PUSH2 0x151D DUP5 DUP3 DUP6 PUSH2 0x14D6 JUMP JUMPDEST POP SWAP4 SWAP3 POP POP POP JUMP JUMPDEST PUSH0 DUP3 PUSH1 0x1F DUP4 ADD SLT PUSH2 0x1539 JUMPI PUSH2 0x1538 PUSH2 0x1426 JUMP JUMPDEST JUMPDEST DUP2 CALLDATALOAD PUSH2 0x1549 DUP5 DUP3 PUSH1 0x20 DUP7 ADD PUSH2 0x14E4 JUMP JUMPDEST SWAP2 POP POP SWAP3 SWAP2 POP POP JUMP JUMPDEST PUSH0 PUSH1 0x20 DUP3 DUP5 SUB SLT ISZERO PUSH2 0x1567 JUMPI PUSH2 0x1566 PUSH2 0x141E JUMP JUMPDEST JUMPDEST PUSH0 DUP3 ADD CALLDATALOAD PUSH8 0xFFFFFFFFFFFFFFFF DUP2 GT ISZERO PUSH2 0x1584 JUMPI PUSH2 0x1583 PUSH2 0x1422 JUMP JUMPDEST JUMPDEST PUSH2 0x1590 DUP5 DUP3 DUP6 ADD PUSH2 0x1525 JUMP JUMPDEST SWAP2 POP POP SWAP3 SWAP2 POP POP JUMP JUMPDEST PUSH0 PUSH2 0x100 DUP4 ADD PUSH0 DUP4 ADD MLOAD PUSH2 0x15AF PUSH0 DUP7 ADD DUP3 PUSH2 0x117E JUMP JUMPDEST POP PUSH1 0x20 DUP4 ADD MLOAD DUP5 DUP3 SUB PUSH1 0x20 DUP7 ADD MSTORE PUSH2 0x15C7 DUP3 DUP3 PUSH2 0x11C5 JUMP JUMPDEST SWAP2 POP POP PUSH1 0x40 DUP4 ADD MLOAD DUP5 DUP3 SUB PUSH1 0x40 DUP7 ADD MSTORE PUSH2 0x15E1 DUP3 DUP3 PUSH2 0x11C5 JUMP JUMPDEST SWAP2 POP POP PUSH1 0x60 DUP4 ADD MLOAD PUSH2 0x15F6 PUSH1 0x60 DUP7 ADD DUP3 PUSH2 0x122D JUMP JUMPDEST POP PUSH1 0x80 DUP4 ADD MLOAD PUSH2 0x1609 PUSH1 0x80 DUP7 ADD DUP3 PUSH2 0x117E JUMP JUMPDEST POP PUSH1 0xA0 DUP4 ADD MLOAD PUSH2 0x161C PUSH1 0xA0 DUP7 ADD DUP3 PUSH2 0x117E JUMP JUMPDEST POP PUSH1 0xC0 DUP4 ADD MLOAD PUSH2 0x162F PUSH1 0xC0 DUP7 ADD DUP3 PUSH2 0x12A0 JUMP JUMPDEST POP PUSH1 0xE0 DUP4 ADD MLOAD PUSH2 0x1642 PUSH1 0xE0 DUP7 ADD DUP3 PUSH2 0x117E JUMP JUMPDEST POP DUP1 SWAP2 POP POP SWAP3 SWAP2 POP POP JUMP JUMPDEST PUSH0 PUSH1 0x20 DUP3 ADD SWAP1 POP DUP2 DUP2 SUB PUSH0 DUP4 ADD MSTORE PUSH2 0x1665 DUP2 DUP5 PUSH2 0x1599 JUMP JUMPDEST SWAP1 POP SWAP3 SWAP2 POP POP JUMP JUMPDEST PUSH0 DUP1 PUSH1 0x40 DUP4 DUP6 SUB SLT ISZERO PUSH2 0x1683 JUMPI PUSH2 0x1682 PUSH2 0x141E JUMP JUMPDEST JUMPDEST PUSH0 DUP4 ADD CALLDATALOAD PUSH8 0xFFFFFFFFFFFFFFFF DUP2 GT ISZERO PUSH2 0x16A0 JUMPI PUSH2 0x169F PUSH2 0x1422 JUMP JUMPDEST JUMPDEST PUSH2 0x16AC DUP6 DUP3 DUP7 ADD PUSH2 0x1525 JUMP JUMPDEST SWAP3 POP POP PUSH1 0x20 DUP4 ADD CALLDATALOAD PUSH8 0xFFFFFFFFFFFFFFFF DUP2 GT ISZERO PUSH2 0x16CD JUMPI PUSH2 0x16CC PUSH2 0x1422 JUMP JUMPDEST JUMPDEST PUSH2 0x16D9 DUP6 DUP3 DUP7 ADD PUSH2 0x1525 JUMP JUMPDEST SWAP2 POP POP SWAP3 POP SWAP3 SWAP1 POP JUMP JUMPDEST PUSH0 DUP2 ISZERO ISZERO SWAP1 POP SWAP2 SWAP1 POP JUMP JUMPDEST PUSH2 0x16F7 DUP2 PUSH2 0x16E3 JUMP JUMPDEST DUP2 EQ PUSH2 0x1701 JUMPI PUSH0 DUP1 REVERT JUMPDEST POP JUMP JUMPDEST PUSH0 DUP2 CALLDATALOAD SWAP1 POP PUSH2 0x1712 DUP2 PUSH2 0x16EE JUMP JUMPDEST SWAP3 SWAP2 POP POP JUMP JUMPDEST PUSH0 DUP1 PUSH1 0x40 DUP4 DUP6 SUB SLT ISZERO PUSH2 0x172E JUMPI PUSH2 0x172D PUSH2 0x141E JUMP JUMPDEST JUMPDEST PUSH0 DUP4 ADD CALLDATALOAD PUSH8 0xFFFFFFFFFFFFFFFF DUP2 GT ISZERO PUSH2 0x174B JUMPI PUSH2 0x174A PUSH2 0x1422 JUMP JUMPDEST JUMPDEST PUSH2 0x1757 DUP6 DUP3 DUP7 ADD PUSH2 0x1525 JUMP JUMPDEST SWAP3 POP POP PUSH1 0x20 PUSH2 0x1768 DUP6 DUP3 DUP7 ADD PUSH2 0x1704 JUMP JUMPDEST SWAP2 POP POP SWAP3 POP SWAP3 SWAP1 POP JUMP JUMPDEST PUSH0 DUP1 REVERT JUMPDEST PUSH0 DUP1 REVERT JUMPDEST PUSH0 DUP1 DUP4 PUSH1 0x1F DUP5 ADD SLT PUSH2 0x178F JUMPI PUSH2 0x178E PUSH2 0x1426 JUMP JUMPDEST JUMPDEST DUP3 CALLDATALOAD SWAP1 POP PUSH8 0xFFFFFFFFFFFFFFFF DUP2 GT ISZERO PUSH2 0x17AC JUMPI PUSH2 0x17AB PUSH2 0x1772 JUMP JUMPDEST JUMPDEST PUSH1 0x20 DUP4 ADD SWAP2 POP DUP4 PUSH1 0x1 DUP3 MUL DUP4 ADD GT ISZERO PUSH2 0x17C8 JUMPI PUSH2 0x17C7 PUSH2 0x1776 JUMP JUMPDEST JUMPDEST SWAP3 POP SWAP3 SWAP1 POP JUMP JUMPDEST PUSH0 DUP1 PUSH1 0x20 DUP4 DUP6 SUB SLT ISZERO PUSH2 0x17E5 JUMPI PUSH2 0x17E4 PUSH2 0x141E JUMP JUMPDEST JUMPDEST PUSH0 DUP4 ADD CALLDATALOAD PUSH8 0xFFFFFFFFFFFFFFFF DUP2 GT ISZERO PUSH2 0x1802 JUMPI PUSH2 0x1801 PUSH2 0x1422 JUMP JUMPDEST JUMPDEST PUSH2 0x180E DUP6 DUP3 DUP7 ADD PUSH2 0x177A JUMP JUMPDEST SWAP3 POP SWAP3 POP POP SWAP3 POP SWAP3 SWAP1 POP JUMP JUMPDEST PUSH2 0x1823 DUP2 PUSH2 0x1175 JUMP JUMPDEST DUP3 MSTORE POP POP JUMP JUMPDEST PUSH0 DUP3 DUP3 MSTORE PUSH1 0x20 DUP3 ADD SWAP1 POP SWAP3 SWAP2 POP POP JUMP JUMPDEST PUSH0 PUSH2 0x1843 DUP3 PUSH2 0x118D JUMP JUMPDEST PUSH2 0x184D DUP2 DUP6 PUSH2 0x1829 JUMP JUMPDEST SWAP4 POP PUSH2 0x185D DUP2 DUP6 PUSH1 0x20 DUP7 ADD PUSH2 0x11A7 JUMP JUMPDEST PUSH2 0x1866 DUP2 PUSH2 0x11B5 JUMP JUMPDEST DUP5 ADD SWAP2 POP POP SWAP3 SWAP2 POP POP JUMP JUMPDEST PUSH2 0x187A DUP2 PUSH2 0x121C JUMP JUMPDEST DUP3 MSTORE POP POP JUMP JUMPDEST PUSH2 0x1889 DUP2 PUSH2 0x128F JUMP JUMPDEST DUP3 MSTORE POP POP JUMP JUMPDEST PUSH0 PUSH2 0x100 DUP3 ADD SWAP1 POP PUSH2 0x18A3 PUSH0 DUP4 ADD DUP12 PUSH2 0x181A JUMP JUMPDEST DUP2 DUP2 SUB PUSH1 0x20 DUP4 ADD MSTORE PUSH2 0x18B5 DUP2 DUP11 PUSH2 0x1839 JUMP JUMPDEST SWAP1 POP DUP2 DUP2 SUB PUSH1 0x40 DUP4 ADD MSTORE PUSH2 0x18C9 DUP2 DUP10 PUSH2 0x1839 JUMP JUMPDEST SWAP1 POP PUSH2 0x18D8 PUSH1 0x60 DUP4 ADD DUP9 PUSH2 0x1871 JUMP JUMPDEST PUSH2 0x18E5 PUSH1 0x80 DUP4 ADD DUP8 PUSH2 0x181A JUMP JUMPDEST PUSH2 0x18F2 PUSH1 0xA0 DUP4 ADD DUP7 PUSH2 0x181A JUMP JUMPDEST PUSH2 0x18FF PUSH1 0xC0 DUP4 ADD DUP6 PUSH2 0x1880 JUMP JUMPDEST PUSH2 0x190C PUSH1 0xE0 DUP4 ADD DUP5 PUSH2 0x181A JUMP JUMPDEST SWAP10 SWAP9 POP POP POP POP POP POP POP POP POP JUMP JUMPDEST PUSH32 0x4E487B7100000000000000000000000000000000000000000000000000000000 PUSH0 MSTORE PUSH1 0x22 PUSH1 0x4 MSTORE PUSH1 0x24 PUSH0 REVERT JUMPDEST PUSH0 PUSH1 0x2 DUP3 DIV SWAP1 POP PUSH1 0x1 DUP3 AND DUP1 PUSH2 0x195D JUMPI PUSH1 0x7F DUP3 AND SWAP2 POP JUMPDEST PUSH1 0x20 DUP3 LT DUP2 SUB PUSH2 0x1970 JUMPI PUSH2 0x196F PUSH2 0x1919 JUMP JUMPDEST JUMPDEST POP SWAP2 SWAP1 POP JUMP JUMPDEST PUSH32 0x4E487B7100000000000000000000000000000000000000000000000000000000 PUSH0 MSTORE PUSH1 0x32 PUSH1 0x4 MSTORE PUSH1 0x24 PUSH0 REVERT JUMPDEST PUSH0 DUP2 SWAP1 POP SWAP3 SWAP2 POP POP JUMP JUMPDEST PUSH0 PUSH2 0x19B7 DUP3 PUSH2 0x118D JUMP JUMPDEST PUSH2 0x19C1 DUP2 DUP6 PUSH2 0x19A3 JUMP JUMPDEST SWAP4 POP PUSH2 0x19D1 DUP2 DUP6 PUSH1 0x20 DUP7 ADD PUSH2 0x11A7 JUMP JUMPDEST DUP1 DUP5 ADD SWAP2 POP POP SWAP3 SWAP2 POP POP JUMP JUMPDEST PUSH0 PUSH2 0x19E8 DUP3 DUP5 PUSH2 0x19AD JUMP JUMPDEST SWAP2 POP DUP2 SWAP1 POP SWAP3 SWAP2 POP POP JUMP JUMPDEST PUSH32 0x697373756520616C726561647920657869737473000000000000000000000000 PUSH0 DUP3 ADD MSTORE POP JUMP JUMPDEST PUSH0 PUSH2 0x1A27 PUSH1 0x14 DUP4 PUSH2 0x1829 JUMP JUMPDEST SWAP2 POP PUSH2 0x1A32 DUP3 PUSH2 0x19F3 JUMP JUMPDEST PUSH1 0x20 DUP3 ADD SWAP1 POP SWAP2 SWAP1 POP JUMP JUMPDEST PUSH0 PUSH1 0x20 DUP3 ADD SWAP1 POP DUP2 DUP2 SUB PUSH0 DUP4 ADD MSTORE PUSH2 0x1A54 DUP2 PUSH2 0x1A1B JUMP JUMPDEST SWAP1 POP SWAP2 SWAP1 POP JUMP JUMPDEST PUSH32 0x4E487B7100000000000000000000000000000000000000000000000000000000 PUSH0 MSTORE PUSH1 0x11 PUSH1 0x4 MSTORE PUSH1 0x24 PUSH0 REVERT JUMPDEST PUSH0 PUSH2 0x1A92 DUP3 PUSH2 0x1175 JUMP JUMPDEST SWAP2 POP PUSH32 0xFFFFFFFFFFFFFFFFFFFFFFFFFFFFFFFFFFFFFFFFFFFFFFFFFFFFFFFFFFFFFFFF DUP3 SUB PUSH2 0x1AC4 JUMPI PUSH2 0x1AC3 PUSH2 0x1A5B JUMP JUMPDEST JUMPDEST PUSH1 0x1 DUP3 ADD SWAP1 POP SWAP2 SWAP1 POP JUMP JUMPDEST PUSH0 DUP2 SWAP1 POP DUP2 PUSH0 MSTORE PUSH1 0x20 PUSH0 KECCAK256 SWAP1 POP SWAP2 SWAP1 POP JUMP JUMPDEST PUSH0 PUSH1 0x20 PUSH1 0x1F DUP4 ADD DIV SWAP1 POP SWAP2 SWAP1 POP JUMP JUMPDEST PUSH0 DUP3 DUP3 SHL SWAP1 POP SWAP3 SWAP2 POP POP JUMP JUMPDEST PUSH0 PUSH1 0x8 DUP4 MUL PUSH2 0x1B2B PUSH32 0xFFFFFFFFFFFFFFFFFFFFFFFFFFFFFFFFFFFFFFFFFFFFFFFFFFFFFFFFFFFFFFFF DUP3 PUSH2 0x1AF0 JUMP JUMPDEST PUSH2 0x1B35 DUP7 DUP4 PUSH2 0x1AF0 JUMP JUMPDEST SWAP6 POP DUP1 NOT DUP5 AND SWAP4 POP DUP1 DUP7 AND DUP5 OR SWAP3 POP POP POP SWAP4 SWAP3 POP POP POP JUMP JUMPDEST PUSH0 DUP2 SWAP1 POP SWAP2 SWAP1 POP JUMP JUMPDEST PUSH0 PUSH2 0x1B70 PUSH2 0x1B6B PUSH2 0x1B66 DUP5 PUSH2 0x1175 JUMP JUMPDEST PUSH2 0x1B4D JUMP JUMPDEST PUSH2 0x1175 JUMP JUMPDEST SWAP1 POP SWAP2 SWAP1 POP JUMP JUMPDEST PUSH0 DUP2 SWAP1 POP SWAP2 SWAP1 POP JUMP JUMPDEST PUSH2 0x1B89 DUP4 PUSH2 0x1B56 JUMP JUMPDEST PUSH2 0x1B9D PUSH2 0x1B95 DUP3 PUSH2 0x1B77 JUMP JUMPDEST DUP5 DUP5 SLOAD PUSH2 0x1AFC JUMP JUMPDEST DUP3 SSTORE POP POP POP POP JUMP JUMPDEST PUSH0 SWAP1 JUMP JUMPDEST PUSH2 0x1BB1 PUSH2 0x1BA5 JUMP JUMPDEST PUSH2 0x1BBC DUP2 DUP5 DUP5 PUSH2 0x1B80 JUMP JUMPDEST POP POP POP JUMP JUMPDEST JUMPDEST DUP2 DUP2 LT ISZERO PUSH2 0x1BDF JUMPI PUSH2 0x1BD4 PUSH0 DUP3 PUSH2 0x1BA9 JUMP JUMPDEST PUSH1 0x1 DUP2 ADD SWAP1 POP PUSH2 0x1BC2 JUMP JUMPDEST POP POP JUMP JUMPDEST PUSH1 0x1F DUP3 GT ISZERO PUSH2 0x1C24 JUMPI PUSH2 0x1BF5 DUP2 PUSH2 0x1ACF JUMP JUMPDEST PUSH2 0x1BFE DUP5 PUSH2 0x1AE1 JUMP JUMPDEST DUP2 ADD PUSH1 0x20 DUP6 LT ISZERO PUSH2 0x1C0D JUMPI DUP2 SWAP1 POP JUMPDEST PUSH2 0x1C21 PUSH2 0x1C19 DUP6 PUSH2 0x1AE1 JUMP JUMPDEST DUP4 ADD DUP3 PUSH2 0x1BC1 JUMP JUMPDEST POP POP JUMPDEST POP POP POP JUMP JUMPDEST PUSH0 DUP3 DUP3 SHR SWAP1 POP SWAP3 SWAP2 POP POP JUMP JUMPDEST PUSH0 PUSH2 0x1C44 PUSH0 NOT DUP5 PUSH1 0x8 MUL PUSH2 0x1C29 JUMP JUMPDEST NOT DUP1 DUP4 AND SWAP2 POP POP SWAP3 SWAP2 POP POP JUMP JUMPDEST PUSH0 PUSH2 0x1C5C DUP4 DUP4 PUSH2 0x1C35 JUMP JUMPDEST SWAP2 POP DUP3 PUSH1 0x2 MUL DUP3 OR SWAP1 POP SWAP3 SWAP2 POP POP JUMP JUMPDEST PUSH2 0x1C75 DUP3 PUSH2 0x118D JUMP JUMPDEST PUSH8 0xFFFFFFFFFFFFFFFF DUP2 GT ISZERO PUSH2 0x1C8E JUMPI PUSH2 0x1C8D PUSH2 0x142E JUMP JUMPDEST JUMPDEST PUSH2 0x1C98 DUP3 SLOAD PUSH2 0x1946 JUMP JUMPDEST PUSH2 0x1CA3 DUP3 DUP3 DUP6 PUSH2 0x1BE3 JUMP JUMPDEST PUSH0 PUSH1 0x20 SWAP1 POP PUSH1 0x1F DUP4 GT PUSH1 0x1 DUP2 EQ PUSH2 0x1CD4 JUMPI PUSH0 DUP5 ISZERO PUSH2 0x1CC2 JUMPI DUP3 DUP8 ADD MLOAD SWAP1 POP JUMPDEST PUSH2 0x1CCC DUP6 DUP3 PUSH2 0x1C51 JUMP JUMPDEST DUP7 SSTORE POP PUSH2 0x1D33 JUMP JUMPDEST PUSH1 0x1F NOT DUP5 AND PUSH2 0x1CE2 DUP7 PUSH2 0x1ACF JUMP JUMPDEST PUSH0 JUMPDEST DUP3 DUP2 LT ISZERO PUSH2 0x1D09 JUMPI DUP5 DUP10 ADD MLOAD DUP3 SSTORE PUSH1 0x1 DUP3 ADD SWAP2 POP PUSH1 0x20 DUP6 ADD SWAP5 POP PUSH1 0x20 DUP2 ADD SWAP1 POP PUSH2 0x1CE4 JUMP JUMPDEST DUP7 DUP4 LT ISZERO PUSH2 0x1D26 JUMPI DUP5 DUP10 ADD MLOAD PUSH2 0x1D22 PUSH1 0x1F DUP10 AND DUP3 PUSH2 0x1C35 JUMP JUMPDEST DUP4 SSTORE POP JUMPDEST PUSH1 0x1 PUSH1 0x2 DUP9 MUL ADD DUP9 SSTORE POP POP POP JUMPDEST POP POP POP POP POP POP JUMP JUMPDEST PUSH32 0x616C726561647920766F74656400000000000000000000000000000000000000 PUSH0 DUP3 ADD MSTORE POP JUMP JUMPDEST PUSH0 PUSH2 0x1D6F PUSH1 0xD DUP4 PUSH2 0x1829 JUMP JUMPDEST SWAP2 POP PUSH2 0x1D7A DUP3 PUSH2 0x1D3B JUMP JUMPDEST PUSH1 0x20 DUP3 ADD SWAP1 POP SWAP2 SWAP1 POP JUMP JUMPDEST PUSH0 PUSH1 0x20 DUP3 ADD SWAP1 POP DUP2 DUP2 SUB PUSH0 DUP4 ADD MSTORE PUSH2 0x1D9C DUP2 PUSH2 0x1D63 JUMP JUMPDEST SWAP1 POP SWAP2 SWAP1 POP JUMP JUMPDEST PUSH0 PUSH2 0x1DAD DUP3 PUSH2 0x1175 JUMP JUMPDEST SWAP2 POP PUSH2 0x1DB8 DUP4 PUSH2 0x1175 JUMP JUMPDEST SWAP3 POP DUP3 DUP3 ADD SWAP1 POP DUP1 DUP3 GT ISZERO PUSH2 0x1DD0 JUMPI PUSH2 0x1DCF PUSH2 0x1A5B JUMP JUMPDEST JUMPDEST SWAP3 SWAP2 POP POP JUMP JUMPDEST PUSH0 PUSH2 0x1DE0 DUP3 PUSH2 0x1175 JUMP JUMPDEST SWAP2 POP PUSH0 DUP3 SUB PUSH2 0x1DF2 JUMPI PUSH2 0x1DF1 PUSH2 0x1A5B JUMP JUMPDEST JUMPDEST PUSH1 0x1 DUP3 SUB SWAP1 POP SWAP2 SWAP1 POP JUMP JUMPDEST PUSH0 PUSH2 0x1E08 DUP4 DUP6 PUSH2 0x19A3 JUMP JUMPDEST SWAP4 POP PUSH2 0x1E15 DUP4 DUP6 DUP5 PUSH2 0x14D6 JUMP JUMPDEST DUP3 DUP5 ADD SWAP1 POP SWAP4 SWAP3 POP POP POP JUMP JUMPDEST PUSH0 PUSH2 0x1E2D DUP3 DUP5 DUP7 PUSH2 0x1DFD JUMP JUMPDEST SWAP2 POP DUP2 SWAP1 POP SWAP4 SWAP3 POP POP POP JUMP JUMPDEST PUSH0 PUSH2 0x1E43 DUP3 PUSH2 0x1175 JUMP JUMPDEST SWAP2 POP PUSH2 0x1E4E DUP4 PUSH2 0x1175 JUMP JUMPDEST SWAP3 POP DUP3 DUP3 MUL PUSH2 0x1E5C DUP2 PUSH2 0x1175 JUMP JUMPDEST SWAP2 POP DUP3 DUP3 DIV DUP5 EQ DUP4 ISZERO OR PUSH2 0x1E73 JUMPI PUSH2 0x1E72 PUSH2 0x1A5B JUMP JUMPDEST JUMPDEST POP SWAP3 SWAP2 POP POP JUMP JUMPDEST PUSH32 0x616C726561647920726567697374657265640000000000000000000000000000 PUSH0 DUP3 ADD MSTORE POP JUMP JUMPDEST PUSH0 PUSH2 0x1EAE PUSH1 0x12 DUP4 PUSH2 0x1829 JUMP JUMPDEST SWAP2 POP PUSH2 0x1EB9 DUP3 PUSH2 0x1E7A JUMP JUMPDEST PUSH1 0x20 DUP3 ADD SWAP1 POP SWAP2 SWAP1 POP JUMP JUMPDEST PUSH0 PUSH1 0x20 DUP3 ADD SWAP1 POP DUP2 DUP2 SUB PUSH0 DUP4 ADD MSTORE PUSH2 0x1EDB DUP2 PUSH2 0x1EA2 JUMP JUMPDEST SWAP1 POP SWAP2 SWAP1 POP JUMP JUMPDEST PUSH0 DUP3 SWAP1 POP SWAP3 SWAP2 POP POP JUMP JUMPDEST PUSH2 0x1EF6 DUP4 DUP4 PUSH2 0x1EE2 JUMP JUMPDEST PUSH8 0xFFFFFFFFFFFFFFFF DUP2 GT ISZERO PUSH2 0x1F0F JUMPI PUSH2 0x1F0E PUSH2 0x142E JUMP JUMPDEST JUMPDEST PUSH2 0x1F19 DUP3 SLOAD PUSH2 0x1946 JUMP JUMPDEST PUSH2 0x1F24 DUP3 DUP3 DUP6 PUSH2 0x1BE3 JUMP JUMPDEST PUSH0 PUSH1 0x1F DUP4 GT PUSH1 0x1 DUP2 EQ PUSH2 0x1F51 JUMPI PUSH0 DUP5 ISZERO PUSH2 0x1F3F JUMPI DUP3 DUP8 ADD CALLDATALOAD SWAP1 POP JUMPDEST PUSH2 0x1F49 DUP6 DUP3 PUSH2 0x1C51 JUMP JUMPDEST DUP7 SSTORE POP PUSH2 0x1FB0 JUMP JUMPDEST PUSH1 0x1F NOT DUP5 AND PUSH2 0x1F5F DUP7 PUSH2 0x1ACF JUMP JUMPDEST PUSH0 JUMPDEST DUP3 DUP2 LT ISZERO PUSH2 0x1F86 JUMPI DUP5 DUP10 ADD CALLDATALOAD DUP3 SSTORE PUSH1 0x1 DUP3 ADD SWAP2 POP PUSH1 0x20 DUP6 ADD SWAP5 POP PUSH1 0x20 DUP2 ADD SWAP1 POP PUSH2 0x1F61 JUMP JUMPDEST DUP7 DUP4 LT ISZERO PUSH2 0x1FA3 JUMPI DUP5 DUP10 ADD CALLDATALOAD PUSH2 0x1F9F PUSH1 0x1F DUP10 AND DUP3 PUSH2 0x1C35 JUMP JUMPDEST DUP4 SSTORE POP JUMPDEST PUSH1 0x1 PUSH1 0x2 DUP9 MUL ADD DUP9 SSTORE POP POP POP JUMPDEST POP POP POP POP POP POP POP JUMP INVALID LOG2 PUSH5 0x6970667358 0x22 SLT KECCAK256 0xEF PREVRANDAO 0xF6 CALLDATASIZE BASEFEE DUP5 0xF6 SWAP8 0xD1 0xCB 0xEF 0xE 0x4E BLOCKHASH 0xE0 0xD6 BYTE TIMESTAMP CHAINID 0xED PREVRANDAO 0x25 PC DUP14 0xAF 0x26 LOG0 PREVRANDAO 0xD0 0xCC SWAP10 ADD PUSH5 0x736F6C6343 STOP ADDMOD BYTE STOP CALLER "
				},
				"gasEstimates": {
					"creation": {
						"codeDepositCost": "1635000",
						"executionCost": "23819",
						"totalCost": "1658819"
					},
					"external": {
						"getAllIssues(string)": "infinite",
						"getMyIssue()": "infinite",
						"issues(string)": "infinite",
						"setIssue(string,string)": "infinite",
						"setResult(string)": "infinite",
						"setUser(string)": "infinite",
						"voteForIssue(string,bool)": "infinite"
					}
				},
				"methodIdentifiers": {
					"getAllIssues(string)": "65c504b5",
					"getMyIssue()": "42c1c43b",
					"issues(string)": "e38ba436",
					"setIssue(string,string)": "700b82ed",
					"setResult(string)": "88e3cfda",
					"setUser(string)": "d0020fad",
					"voteForIssue(string,bool)": "87af313c"
				}
			},
			"storageLayout": {
				"storage": [
					{
						"astId": 44,
						"contract": "Code Test/CodeTest_8.sol:Test8",
						"label": "users",
						"offset": 0,
						"slot": "0",
						"type": "t_mapping(t_address,t_struct(User)17_storage)"
					},
					{
						"astId": 46,
						"contract": "Code Test/CodeTest_8.sol:Test8",
						"label": "usersCount",
						"offset": 0,
						"slot": "1",
						"type": "t_uint256"
					},
					{
						"astId": 51,
						"contract": "Code Test/CodeTest_8.sol:Test8",
						"label": "issues",
						"offset": 0,
						"slot": "2",
						"type": "t_mapping(t_string_memory_ptr,t_struct(Issue)35_storage)"
					},
					{
						"astId": 54,
						"contract": "Code Test/CodeTest_8.sol:Test8",
						"label": "issueCounts",
						"offset": 0,
						"slot": "3",
						"type": "t_uint256"
					}
				],
				"types": {
					"t_address": {
						"encoding": "inplace",
						"label": "address",
						"numberOfBytes": "20"
					},
					"t_array(t_string_storage)dyn_storage": {
						"base": "t_string_storage",
						"encoding": "dynamic_array",
						"label": "string[]",
						"numberOfBytes": "32"
					},
					"t_bool": {
						"encoding": "inplace",
						"label": "bool",
						"numberOfBytes": "1"
					},
					"t_enum(Status)39": {
						"encoding": "inplace",
						"label": "enum Test8.Status",
						"numberOfBytes": "1"
					},
					"t_mapping(t_address,t_struct(User)17_storage)": {
						"encoding": "mapping",
						"key": "t_address",
						"label": "mapping(address => struct Test8.User)",
						"numberOfBytes": "32",
						"value": "t_struct(User)17_storage"
					},
					"t_mapping(t_string_memory_ptr,t_bool)": {
						"encoding": "mapping",
						"key": "t_string_memory_ptr",
						"label": "mapping(string => bool)",
						"numberOfBytes": "32",
						"value": "t_bool"
					},
					"t_mapping(t_string_memory_ptr,t_struct(Issue)35_storage)": {
						"encoding": "mapping",
						"key": "t_string_memory_ptr",
						"label": "mapping(string => struct Test8.Issue)",
						"numberOfBytes": "32",
						"value": "t_struct(Issue)35_storage"
					},
					"t_string_memory_ptr": {
						"encoding": "bytes",
						"label": "string",
						"numberOfBytes": "32"
					},
					"t_string_storage": {
						"encoding": "bytes",
						"label": "string",
						"numberOfBytes": "32"
					},
					"t_struct(Issue)35_storage": {
						"encoding": "inplace",
						"label": "struct Test8.Issue",
						"members": [
							{
								"astId": 19,
								"contract": "Code Test/CodeTest_8.sol:Test8",
								"label": "number",
								"offset": 0,
								"slot": "0",
								"type": "t_uint256"
							},
							{
								"astId": 21,
								"contract": "Code Test/CodeTest_8.sol:Test8",
								"label": "title",
								"offset": 0,
								"slot": "1",
								"type": "t_string_storage"
							},
							{
								"astId": 23,
								"contract": "Code Test/CodeTest_8.sol:Test8",
								"label": "body",
								"offset": 0,
								"slot": "2",
								"type": "t_string_storage"
							},
							{
								"astId": 25,
								"contract": "Code Test/CodeTest_8.sol:Test8",
								"label": "issuer",
								"offset": 0,
								"slot": "3",
								"type": "t_address"
							},
							{
								"astId": 27,
								"contract": "Code Test/CodeTest_8.sol:Test8",
								"label": "yes",
								"offset": 0,
								"slot": "4",
								"type": "t_uint256"
							},
							{
								"astId": 29,
								"contract": "Code Test/CodeTest_8.sol:Test8",
								"label": "no",
								"offset": 0,
								"slot": "5",
								"type": "t_uint256"
							},
							{
								"astId": 32,
								"contract": "Code Test/CodeTest_8.sol:Test8",
								"label": "result",
								"offset": 0,
								"slot": "6",
								"type": "t_enum(Status)39"
							},
							{
								"astId": 34,
								"contract": "Code Test/CodeTest_8.sol:Test8",
								"label": "blockNumber",
								"offset": 0,
								"slot": "7",
								"type": "t_uint256"
							}
						],
						"numberOfBytes": "256"
					},
					"t_struct(User)17_storage": {
						"encoding": "inplace",
						"label": "struct Test8.User",
						"members": [
							{
								"astId": 3,
								"contract": "Code Test/CodeTest_8.sol:Test8",
								"label": "name",
								"offset": 0,
								"slot": "0",
								"type": "t_string_storage"
							},
							{
								"astId": 5,
								"contract": "Code Test/CodeTest_8.sol:Test8",
								"label": "addr",
								"offset": 0,
								"slot": "1",
								"type": "t_address"
							},
							{
								"astId": 8,
								"contract": "Code Test/CodeTest_8.sol:Test8",
								"label": "issues",
								"offset": 0,
								"slot": "2",
								"type": "t_array(t_string_storage)dyn_storage"
							},
							{
								"astId": 12,
								"contract": "Code Test/CodeTest_8.sol:Test8",
								"label": "votes",
								"offset": 0,
								"slot": "3",
								"type": "t_mapping(t_string_memory_ptr,t_bool)"
							},
							{
								"astId": 16,
								"contract": "Code Test/CodeTest_8.sol:Test8",
								"label": "voted",
								"offset": 0,
								"slot": "4",
								"type": "t_mapping(t_string_memory_ptr,t_bool)"
							}
						],
						"numberOfBytes": "160"
					},
					"t_uint256": {
						"encoding": "inplace",
						"label": "uint256",
						"numberOfBytes": "32"
					}
				}
			},
			"userdoc": {
				"kind": "user",
				"methods": {},
				"version": 1
			}
		}
	}
}