{
	"Code Test/CodeTest_5.sol": {
		"Test5": {
			"abi": [
				{
					"inputs": [
						{
							"internalType": "uint256",
							"name": "number",
							"type": "uint256"
						}
					],
					"name": "uintToTime",
					"outputs": [
						{
							"internalType": "string",
							"name": "",
							"type": "string"
						}
					],
					"stateMutability": "pure",
					"type": "function"
				}
			],
			"devdoc": {
				"kind": "dev",
				"methods": {},
				"version": 1
			},
			"evm": {
				"assembly": "    /* \"Code Test/CodeTest_5.sol\":111:868  contract Test5{... */\n  mstore(0x40, 0x80)\n  callvalue\n  dup1\n  iszero\n  tag_1\n  jumpi\n  0x00\n  dup1\n  revert\ntag_1:\n  pop\n  dataSize(sub_0)\n  dup1\n  dataOffset(sub_0)\n  0x00\n  codecopy\n  0x00\n  return\nstop\n\nsub_0: assembly {\n        /* \"Code Test/CodeTest_5.sol\":111:868  contract Test5{... */\n      mstore(0x40, 0x80)\n      callvalue\n      dup1\n      iszero\n      tag_1\n      jumpi\n      0x00\n      dup1\n      revert\n    tag_1:\n      pop\n      jumpi(tag_2, lt(calldatasize, 0x04))\n      shr(0xe0, calldataload(0x00))\n      dup1\n      0x5b2aeccd\n      eq\n      tag_3\n      jumpi\n    tag_2:\n      0x00\n      dup1\n      revert\n        /* \"Code Test/CodeTest_5.sol\":291:866  function uintToTime(uint number) public pure returns(string memory) {... */\n    tag_3:\n      tag_4\n      0x04\n      dup1\n      calldatasize\n      sub\n      dup2\n      add\n      swap1\n      tag_5\n      swap2\n      swap1\n      tag_6\n      jump\t// in\n    tag_5:\n      tag_7\n      jump\t// in\n    tag_4:\n      mload(0x40)\n      tag_8\n      swap2\n      swap1\n      tag_9\n      jump\t// in\n    tag_8:\n      mload(0x40)\n      dup1\n      swap2\n      sub\n      swap1\n      return\n    tag_7:\n        /* \"Code Test/CodeTest_5.sol\":344:357  string memory */\n      0x60\n        /* \"Code Test/CodeTest_5.sol\":368:377  uint hour */\n      0x00\n        /* \"Code Test/CodeTest_5.sol\":389:393  3600 */\n      0x0e10\n        /* \"Code Test/CodeTest_5.sol\":380:386  number */\n      dup4\n        /* \"Code Test/CodeTest_5.sol\":380:393  number / 3600 */\n      tag_11\n      swap2\n      swap1\n      tag_12\n      jump\t// in\n    tag_11:\n        /* \"Code Test/CodeTest_5.sol\":368:393  uint hour = number / 3600 */\n      swap1\n      pop\n        /* \"Code Test/CodeTest_5.sol\":402:413  uint minute */\n      0x00\n        /* \"Code Test/CodeTest_5.sol\":434:436  60 */\n      0x3c\n        /* \"Code Test/CodeTest_5.sol\":426:430  3600 */\n      0x0e10\n        /* \"Code Test/CodeTest_5.sol\":417:423  number */\n      dup6\n        /* \"Code Test/CodeTest_5.sol\":417:430  number % 3600 */\n      tag_13\n      swap2\n      swap1\n      tag_14\n      jump\t// in\n    tag_13:\n        /* \"Code Test/CodeTest_5.sol\":416:436  (number % 3600) / 60 */\n      tag_15\n      swap2\n      swap1\n      tag_12\n      jump\t// in\n    tag_15:\n        /* \"Code Test/CodeTest_5.sol\":402:436  uint minute = (number % 3600) / 60 */\n      swap1\n      pop\n        /* \"Code Test/CodeTest_5.sol\":445:456  uint second */\n      0x00\n        /* \"Code Test/CodeTest_5.sol\":468:470  60 */\n      0x3c\n        /* \"Code Test/CodeTest_5.sol\":459:465  number */\n      dup6\n        /* \"Code Test/CodeTest_5.sol\":459:470  number % 60 */\n      tag_16\n      swap2\n      swap1\n      tag_14\n      jump\t// in\n    tag_16:\n        /* \"Code Test/CodeTest_5.sol\":445:470  uint second = number % 60 */\n      swap1\n      pop\n        /* \"Code Test/CodeTest_5.sol\":491:492  0 */\n      0x00\n        /* \"Code Test/CodeTest_5.sol\":483:487  hour */\n      dup4\n        /* \"Code Test/CodeTest_5.sol\":483:492  hour == 0 */\n      sub\n        /* \"Code Test/CodeTest_5.sol\":480:614  if(hour == 0) {... */\n      tag_17\n      jumpi\n        /* \"Code Test/CodeTest_5.sol\":529:553  Strings.toString(minute) */\n      tag_18\n        /* \"Code Test/CodeTest_5.sol\":546:552  minute */\n      dup3\n        /* \"Code Test/CodeTest_5.sol\":529:545  Strings.toString */\n      tag_19\n        /* \"Code Test/CodeTest_5.sol\":529:553  Strings.toString(minute) */\n      jump\t// in\n    tag_18:\n        /* \"Code Test/CodeTest_5.sol\":567:591  Strings.toString(second) */\n      tag_20\n        /* \"Code Test/CodeTest_5.sol\":584:590  second */\n      dup3\n        /* \"Code Test/CodeTest_5.sol\":567:583  Strings.toString */\n      tag_19\n        /* \"Code Test/CodeTest_5.sol\":567:591  Strings.toString(second) */\n      jump\t// in\n    tag_20:\n        /* \"Code Test/CodeTest_5.sol\":515:604  string.concat(Strings.toString(minute),\" minutes \", Strings.toString(second), \" seconds\") */\n      add(0x20, mload(0x40))\n      tag_21\n      swap3\n      swap2\n      swap1\n      tag_22\n      jump\t// in\n    tag_21:\n      mload(0x40)\n      0x20\n      dup2\n      dup4\n      sub\n      sub\n      dup2\n      mstore\n      swap1\n      0x40\n      mstore\n        /* \"Code Test/CodeTest_5.sol\":508:604  return string.concat(Strings.toString(minute),\" minutes \", Strings.toString(second), \" seconds\") */\n      swap4\n      pop\n      pop\n      pop\n      pop\n      jump(tag_10)\n        /* \"Code Test/CodeTest_5.sol\":480:614  if(hour == 0) {... */\n    tag_17:\n        /* \"Code Test/CodeTest_5.sol\":635:636  0 */\n      0x00\n        /* \"Code Test/CodeTest_5.sol\":625:631  minute */\n      dup3\n        /* \"Code Test/CodeTest_5.sol\":625:636  minute == 0 */\n      sub\n        /* \"Code Test/CodeTest_5.sol\":622:721  if(minute == 0) {... */\n      tag_23\n      jumpi\n        /* \"Code Test/CodeTest_5.sol\":673:697  Strings.toString(second) */\n      tag_24\n        /* \"Code Test/CodeTest_5.sol\":690:696  second */\n      dup2\n        /* \"Code Test/CodeTest_5.sol\":673:689  Strings.toString */\n      tag_19\n        /* \"Code Test/CodeTest_5.sol\":673:697  Strings.toString(second) */\n      jump\t// in\n    tag_24:\n        /* \"Code Test/CodeTest_5.sol\":659:710  string.concat(Strings.toString(second), \" seconds\") */\n      add(0x20, mload(0x40))\n      tag_25\n      swap2\n      swap1\n      tag_26\n      jump\t// in\n    tag_25:\n      mload(0x40)\n      0x20\n      dup2\n      dup4\n      sub\n      sub\n      dup2\n      mstore\n      swap1\n      0x40\n      mstore\n        /* \"Code Test/CodeTest_5.sol\":652:710  return string.concat(Strings.toString(second), \" seconds\") */\n      swap4\n      pop\n      pop\n      pop\n      pop\n      jump(tag_10)\n        /* \"Code Test/CodeTest_5.sol\":622:721  if(minute == 0) {... */\n    tag_23:\n        /* \"Code Test/CodeTest_5.sol\":751:773  Strings.toString(hour) */\n      tag_27\n        /* \"Code Test/CodeTest_5.sol\":768:772  hour */\n      dup4\n        /* \"Code Test/CodeTest_5.sol\":751:767  Strings.toString */\n      tag_19\n        /* \"Code Test/CodeTest_5.sol\":751:773  Strings.toString(hour) */\n      jump\t// in\n    tag_27:\n        /* \"Code Test/CodeTest_5.sol\":784:808  Strings.toString(minute) */\n      tag_28\n        /* \"Code Test/CodeTest_5.sol\":801:807  minute */\n      dup4\n        /* \"Code Test/CodeTest_5.sol\":784:800  Strings.toString */\n      tag_19\n        /* \"Code Test/CodeTest_5.sol\":784:808  Strings.toString(minute) */\n      jump\t// in\n    tag_28:\n        /* \"Code Test/CodeTest_5.sol\":822:846  Strings.toString(second) */\n      tag_29\n        /* \"Code Test/CodeTest_5.sol\":839:845  second */\n      dup4\n        /* \"Code Test/CodeTest_5.sol\":822:838  Strings.toString */\n      tag_19\n        /* \"Code Test/CodeTest_5.sol\":822:846  Strings.toString(second) */\n      jump\t// in\n    tag_29:\n        /* \"Code Test/CodeTest_5.sol\":737:859  string.concat(Strings.toString(hour),\" hours \",Strings.toString(minute),\" minutes \", Strings.toString(second), \" seconds\") */\n      add(0x20, mload(0x40))\n      tag_30\n      swap4\n      swap3\n      swap2\n      swap1\n      tag_31\n      jump\t// in\n    tag_30:\n      mload(0x40)\n      0x20\n      dup2\n      dup4\n      sub\n      sub\n      dup2\n      mstore\n      swap1\n      0x40\n      mstore\n        /* \"Code Test/CodeTest_5.sol\":730:859  return string.concat(Strings.toString(hour),\" hours \",Strings.toString(minute),\" minutes \", Strings.toString(second), \" seconds\") */\n      swap4\n      pop\n      pop\n      pop\n      pop\n        /* \"Code Test/CodeTest_5.sol\":291:866  function uintToTime(uint number) public pure returns(string memory) {... */\n    tag_10:\n      swap2\n      swap1\n      pop\n      jump\t// out\n        /* \"@openzeppelin/contracts/utils/Strings.sol\":637:1335  function toString(uint256 value) internal pure returns (string memory) {... */\n    tag_19:\n        /* \"@openzeppelin/contracts/utils/Strings.sol\":693:706  string memory */\n      0x60\n        /* \"@openzeppelin/contracts/utils/Strings.sol\":742:756  uint256 length */\n      0x00\n        /* \"@openzeppelin/contracts/utils/Strings.sol\":779:780  1 */\n      0x01\n        /* \"@openzeppelin/contracts/utils/Strings.sol\":759:776  Math.log10(value) */\n      tag_33\n        /* \"@openzeppelin/contracts/utils/Strings.sol\":770:775  value */\n      dup5\n        /* \"@openzeppelin/contracts/utils/Strings.sol\":759:769  Math.log10 */\n      tag_34\n        /* \"@openzeppelin/contracts/utils/Strings.sol\":759:776  Math.log10(value) */\n      jump\t// in\n    tag_33:\n        /* \"@openzeppelin/contracts/utils/Strings.sol\":759:780  Math.log10(value) + 1 */\n      add\n        /* \"@openzeppelin/contracts/utils/Strings.sol\":742:780  uint256 length = Math.log10(value) + 1 */\n      swap1\n      pop\n        /* \"@openzeppelin/contracts/utils/Strings.sol\":794:814  string memory buffer */\n      0x00\n        /* \"@openzeppelin/contracts/utils/Strings.sol\":828:834  length */\n      dup2\n        /* \"@openzeppelin/contracts/utils/Strings.sol\":817:835  new string(length) */\n      0xffffffffffffffff\n      dup2\n      gt\n      iszero\n      tag_35\n      jumpi\n      tag_36\n      tag_37\n      jump\t// in\n    tag_36:\n    tag_35:\n      mload(0x40)\n      swap1\n      dup1\n      dup3\n      mstore\n      dup1\n      0x1f\n      add\n      not(0x1f)\n      and\n      0x20\n      add\n      dup3\n      add\n      0x40\n      mstore\n      dup1\n      iszero\n      tag_38\n      jumpi\n      dup2\n      0x20\n      add\n      0x01\n      dup3\n      mul\n      dup1\n      calldatasize\n      dup4\n      calldatacopy\n      dup1\n      dup3\n      add\n      swap2\n      pop\n      pop\n      swap1\n      pop\n    tag_38:\n      pop\n        /* \"@openzeppelin/contracts/utils/Strings.sol\":794:835  string memory buffer = new string(length) */\n      swap1\n      pop\n        /* \"@openzeppelin/contracts/utils/Strings.sol\":849:860  uint256 ptr */\n      0x00\n        /* \"@openzeppelin/contracts/utils/Strings.sol\":975:981  length */\n      dup3\n        /* \"@openzeppelin/contracts/utils/Strings.sol\":971:973  32 */\n      0x20\n        /* \"@openzeppelin/contracts/utils/Strings.sol\":967:982  add(32, length) */\n      add\n        /* \"@openzeppelin/contracts/utils/Strings.sol\":959:965  buffer */\n      dup3\n        /* \"@openzeppelin/contracts/utils/Strings.sol\":955:983  add(buffer, add(32, length)) */\n      add\n        /* \"@openzeppelin/contracts/utils/Strings.sol\":948:983  ptr := add(buffer, add(32, length)) */\n      swap1\n      pop\n        /* \"@openzeppelin/contracts/utils/Strings.sol\":1010:1292  while (true) {... */\n    tag_39:\n        /* \"@openzeppelin/contracts/utils/Strings.sol\":1017:1021  true */\n      0x01\n        /* \"@openzeppelin/contracts/utils/Strings.sol\":1010:1292  while (true) {... */\n      iszero\n      tag_40\n      jumpi\n        /* \"@openzeppelin/contracts/utils/Strings.sol\":1041:1046  ptr-- */\n      dup1\n      dup1\n      0x01\n      swap1\n      sub\n      swap2\n      pop\n      pop\n        /* \"@openzeppelin/contracts/utils/Strings.sol\":1180:1190  HEX_DIGITS */\n      0x3031323334353637383961626364656600000000000000000000000000000000\n        /* \"@openzeppelin/contracts/utils/Strings.sol\":1175:1177  10 */\n      0x0a\n        /* \"@openzeppelin/contracts/utils/Strings.sol\":1168:1173  value */\n      dup7\n        /* \"@openzeppelin/contracts/utils/Strings.sol\":1164:1178  mod(value, 10) */\n      mod\n        /* \"@openzeppelin/contracts/utils/Strings.sol\":1159:1191  byte(mod(value, 10), HEX_DIGITS) */\n      byte\n        /* \"@openzeppelin/contracts/utils/Strings.sol\":1154:1157  ptr */\n      dup2\n        /* \"@openzeppelin/contracts/utils/Strings.sol\":1146:1192  mstore8(ptr, byte(mod(value, 10), HEX_DIGITS)) */\n      mstore8\n        /* \"@openzeppelin/contracts/utils/Strings.sol\":1236:1238  10 */\n      0x0a\n        /* \"@openzeppelin/contracts/utils/Strings.sol\":1227:1238  value /= 10 */\n      dup6\n      dup2\n      tag_41\n      jumpi\n      tag_42\n      tag_43\n      jump\t// in\n    tag_42:\n    tag_41:\n      div\n      swap5\n      pop\n        /* \"@openzeppelin/contracts/utils/Strings.sol\":1269:1270  0 */\n      0x00\n        /* \"@openzeppelin/contracts/utils/Strings.sol\":1260:1265  value */\n      dup6\n        /* \"@openzeppelin/contracts/utils/Strings.sol\":1260:1270  value == 0 */\n      sub\n        /* \"@openzeppelin/contracts/utils/Strings.sol\":1010:1292  while (true) {... */\n      tag_39\n        /* \"@openzeppelin/contracts/utils/Strings.sol\":1256:1277  if (value == 0) break */\n      jumpi\n        /* \"@openzeppelin/contracts/utils/Strings.sol\":1010:1292  while (true) {... */\n    tag_40:\n        /* \"@openzeppelin/contracts/utils/Strings.sol\":1312:1318  buffer */\n      dup2\n        /* \"@openzeppelin/contracts/utils/Strings.sol\":1305:1318  return buffer */\n      swap4\n      pop\n      pop\n      pop\n      pop\n        /* \"@openzeppelin/contracts/utils/Strings.sol\":637:1335  function toString(uint256 value) internal pure returns (string memory) {... */\n      swap2\n      swap1\n      pop\n      jump\t// out\n        /* \"@openzeppelin/contracts/utils/math/Math.sol\":12214:13130  function log10(uint256 value) internal pure returns (uint256) {... */\n    tag_34:\n        /* \"@openzeppelin/contracts/utils/math/Math.sol\":12267:12274  uint256 */\n      0x00\n        /* \"@openzeppelin/contracts/utils/math/Math.sol\":12286:12300  uint256 result */\n      dup1\n        /* \"@openzeppelin/contracts/utils/math/Math.sol\":12303:12304  0 */\n      0x00\n        /* \"@openzeppelin/contracts/utils/math/Math.sol\":12286:12304  uint256 result = 0 */\n      swap1\n      pop\n        /* \"@openzeppelin/contracts/utils/math/Math.sol\":12351:12359  10 ** 64 */\n      0x184f03e93ff9f4daa797ed6e38ed64bf6a1f010000000000000000\n        /* \"@openzeppelin/contracts/utils/math/Math.sol\":12342:12347  value */\n      dup4\n        /* \"@openzeppelin/contracts/utils/math/Math.sol\":12342:12359  value >= 10 ** 64 */\n      lt\n        /* \"@openzeppelin/contracts/utils/math/Math.sol\":12338:12441  if (value >= 10 ** 64) {... */\n      tag_46\n      jumpi\n        /* \"@openzeppelin/contracts/utils/math/Math.sol\":12388:12396  10 ** 64 */\n      0x184f03e93ff9f4daa797ed6e38ed64bf6a1f010000000000000000\n        /* \"@openzeppelin/contracts/utils/math/Math.sol\":12379:12396  value /= 10 ** 64 */\n      dup4\n      dup2\n      tag_47\n      jumpi\n      tag_48\n      tag_43\n      jump\t// in\n    tag_48:\n    tag_47:\n      div\n      swap3\n      pop\n        /* \"@openzeppelin/contracts/utils/math/Math.sol\":12424:12426  64 */\n      0x40\n        /* \"@openzeppelin/contracts/utils/math/Math.sol\":12414:12426  result += 64 */\n      dup2\n      add\n      swap1\n      pop\n        /* \"@openzeppelin/contracts/utils/math/Math.sol\":12338:12441  if (value >= 10 ** 64) {... */\n    tag_46:\n        /* \"@openzeppelin/contracts/utils/math/Math.sol\":12467:12475  10 ** 32 */\n      0x04ee2d6d415b85acef8100000000\n        /* \"@openzeppelin/contracts/utils/math/Math.sol\":12458:12463  value */\n      dup4\n        /* \"@openzeppelin/contracts/utils/math/Math.sol\":12458:12475  value >= 10 ** 32 */\n      lt\n        /* \"@openzeppelin/contracts/utils/math/Math.sol\":12454:12557  if (value >= 10 ** 32) {... */\n      tag_49\n      jumpi\n        /* \"@openzeppelin/contracts/utils/math/Math.sol\":12504:12512  10 ** 32 */\n      0x04ee2d6d415b85acef8100000000\n        /* \"@openzeppelin/contracts/utils/math/Math.sol\":12495:12512  value /= 10 ** 32 */\n      dup4\n      dup2\n      tag_50\n      jumpi\n      tag_51\n      tag_43\n      jump\t// in\n    tag_51:\n    tag_50:\n      div\n      swap3\n      pop\n        /* \"@openzeppelin/contracts/utils/math/Math.sol\":12540:12542  32 */\n      0x20\n        /* \"@openzeppelin/contracts/utils/math/Math.sol\":12530:12542  result += 32 */\n      dup2\n      add\n      swap1\n      pop\n        /* \"@openzeppelin/contracts/utils/math/Math.sol\":12454:12557  if (value >= 10 ** 32) {... */\n    tag_49:\n        /* \"@openzeppelin/contracts/utils/math/Math.sol\":12583:12591  10 ** 16 */\n      0x2386f26fc10000\n        /* \"@openzeppelin/contracts/utils/math/Math.sol\":12574:12579  value */\n      dup4\n        /* \"@openzeppelin/contracts/utils/math/Math.sol\":12574:12591  value >= 10 ** 16 */\n      lt\n        /* \"@openzeppelin/contracts/utils/math/Math.sol\":12570:12673  if (value >= 10 ** 16) {... */\n      tag_52\n      jumpi\n        /* \"@openzeppelin/contracts/utils/math/Math.sol\":12620:12628  10 ** 16 */\n      0x2386f26fc10000\n        /* \"@openzeppelin/contracts/utils/math/Math.sol\":12611:12628  value /= 10 ** 16 */\n      dup4\n      dup2\n      tag_53\n      jumpi\n      tag_54\n      tag_43\n      jump\t// in\n    tag_54:\n    tag_53:\n      div\n      swap3\n      pop\n        /* \"@openzeppelin/contracts/utils/math/Math.sol\":12656:12658  16 */\n      0x10\n        /* \"@openzeppelin/contracts/utils/math/Math.sol\":12646:12658  result += 16 */\n      dup2\n      add\n      swap1\n      pop\n        /* \"@openzeppelin/contracts/utils/math/Math.sol\":12570:12673  if (value >= 10 ** 16) {... */\n    tag_52:\n        /* \"@openzeppelin/contracts/utils/math/Math.sol\":12699:12706  10 ** 8 */\n      0x05f5e100\n        /* \"@openzeppelin/contracts/utils/math/Math.sol\":12690:12695  value */\n      dup4\n        /* \"@openzeppelin/contracts/utils/math/Math.sol\":12690:12706  value >= 10 ** 8 */\n      lt\n        /* \"@openzeppelin/contracts/utils/math/Math.sol\":12686:12786  if (value >= 10 ** 8) {... */\n      tag_55\n      jumpi\n        /* \"@openzeppelin/contracts/utils/math/Math.sol\":12735:12742  10 ** 8 */\n      0x05f5e100\n        /* \"@openzeppelin/contracts/utils/math/Math.sol\":12726:12742  value /= 10 ** 8 */\n      dup4\n      dup2\n      tag_56\n      jumpi\n      tag_57\n      tag_43\n      jump\t// in\n    tag_57:\n    tag_56:\n      div\n      swap3\n      pop\n        /* \"@openzeppelin/contracts/utils/math/Math.sol\":12770:12771  8 */\n      0x08\n        /* \"@openzeppelin/contracts/utils/math/Math.sol\":12760:12771  result += 8 */\n      dup2\n      add\n      swap1\n      pop\n        /* \"@openzeppelin/contracts/utils/math/Math.sol\":12686:12786  if (value >= 10 ** 8) {... */\n    tag_55:\n        /* \"@openzeppelin/contracts/utils/math/Math.sol\":12812:12819  10 ** 4 */\n      0x2710\n        /* \"@openzeppelin/contracts/utils/math/Math.sol\":12803:12808  value */\n      dup4\n        /* \"@openzeppelin/contracts/utils/math/Math.sol\":12803:12819  value >= 10 ** 4 */\n      lt\n        /* \"@openzeppelin/contracts/utils/math/Math.sol\":12799:12899  if (value >= 10 ** 4) {... */\n      tag_58\n      jumpi\n        /* \"@openzeppelin/contracts/utils/math/Math.sol\":12848:12855  10 ** 4 */\n      0x2710\n        /* \"@openzeppelin/contracts/utils/math/Math.sol\":12839:12855  value /= 10 ** 4 */\n      dup4\n      dup2\n      tag_59\n      jumpi\n      tag_60\n      tag_43\n      jump\t// in\n    tag_60:\n    tag_59:\n      div\n      swap3\n      pop\n        /* \"@openzeppelin/contracts/utils/math/Math.sol\":12883:12884  4 */\n      0x04\n        /* \"@openzeppelin/contracts/utils/math/Math.sol\":12873:12884  result += 4 */\n      dup2\n      add\n      swap1\n      pop\n        /* \"@openzeppelin/contracts/utils/math/Math.sol\":12799:12899  if (value >= 10 ** 4) {... */\n    tag_58:\n        /* \"@openzeppelin/contracts/utils/math/Math.sol\":12925:12932  10 ** 2 */\n      0x64\n        /* \"@openzeppelin/contracts/utils/math/Math.sol\":12916:12921  value */\n      dup4\n        /* \"@openzeppelin/contracts/utils/math/Math.sol\":12916:12932  value >= 10 ** 2 */\n      lt\n        /* \"@openzeppelin/contracts/utils/math/Math.sol\":12912:13012  if (value >= 10 ** 2) {... */\n      tag_61\n      jumpi\n        /* \"@openzeppelin/contracts/utils/math/Math.sol\":12961:12968  10 ** 2 */\n      0x64\n        /* \"@openzeppelin/contracts/utils/math/Math.sol\":12952:12968  value /= 10 ** 2 */\n      dup4\n      dup2\n      tag_62\n      jumpi\n      tag_63\n      tag_43\n      jump\t// in\n    tag_63:\n    tag_62:\n      div\n      swap3\n      pop\n        /* \"@openzeppelin/contracts/utils/math/Math.sol\":12996:12997  2 */\n      0x02\n        /* \"@openzeppelin/contracts/utils/math/Math.sol\":12986:12997  result += 2 */\n      dup2\n      add\n      swap1\n      pop\n        /* \"@openzeppelin/contracts/utils/math/Math.sol\":12912:13012  if (value >= 10 ** 2) {... */\n    tag_61:\n        /* \"@openzeppelin/contracts/utils/math/Math.sol\":13038:13045  10 ** 1 */\n      0x0a\n        /* \"@openzeppelin/contracts/utils/math/Math.sol\":13029:13034  value */\n      dup4\n        /* \"@openzeppelin/contracts/utils/math/Math.sol\":13029:13045  value >= 10 ** 1 */\n      lt\n        /* \"@openzeppelin/contracts/utils/math/Math.sol\":13025:13091  if (value >= 10 ** 1) {... */\n      tag_64\n      jumpi\n        /* \"@openzeppelin/contracts/utils/math/Math.sol\":13075:13076  1 */\n      0x01\n        /* \"@openzeppelin/contracts/utils/math/Math.sol\":13065:13076  result += 1 */\n      dup2\n      add\n      swap1\n      pop\n        /* \"@openzeppelin/contracts/utils/math/Math.sol\":13025:13091  if (value >= 10 ** 1) {... */\n    tag_64:\n        /* \"@openzeppelin/contracts/utils/math/Math.sol\":13117:13123  result */\n      dup1\n        /* \"@openzeppelin/contracts/utils/math/Math.sol\":13110:13123  return result */\n      swap2\n      pop\n      pop\n        /* \"@openzeppelin/contracts/utils/math/Math.sol\":12214:13130  function log10(uint256 value) internal pure returns (uint256) {... */\n      swap2\n      swap1\n      pop\n      jump\t// out\n        /* \"#utility.yul\":88:205   */\n    tag_66:\n        /* \"#utility.yul\":197:198   */\n      0x00\n        /* \"#utility.yul\":194:195   */\n      dup1\n        /* \"#utility.yul\":187:199   */\n      revert\n        /* \"#utility.yul\":334:411   */\n    tag_68:\n        /* \"#utility.yul\":371:378   */\n      0x00\n        /* \"#utility.yul\":400:405   */\n      dup2\n        /* \"#utility.yul\":389:405   */\n      swap1\n      pop\n        /* \"#utility.yul\":334:411   */\n      swap2\n      swap1\n      pop\n      jump\t// out\n        /* \"#utility.yul\":417:539   */\n    tag_69:\n        /* \"#utility.yul\":490:514   */\n      tag_88\n        /* \"#utility.yul\":508:513   */\n      dup2\n        /* \"#utility.yul\":490:514   */\n      tag_68\n      jump\t// in\n    tag_88:\n        /* \"#utility.yul\":483:488   */\n      dup2\n        /* \"#utility.yul\":480:515   */\n      eq\n        /* \"#utility.yul\":470:533   */\n      tag_89\n      jumpi\n        /* \"#utility.yul\":529:530   */\n      0x00\n        /* \"#utility.yul\":526:527   */\n      dup1\n        /* \"#utility.yul\":519:531   */\n      revert\n        /* \"#utility.yul\":470:533   */\n    tag_89:\n        /* \"#utility.yul\":417:539   */\n      pop\n      jump\t// out\n        /* \"#utility.yul\":545:684   */\n    tag_70:\n        /* \"#utility.yul\":591:596   */\n      0x00\n        /* \"#utility.yul\":629:635   */\n      dup2\n        /* \"#utility.yul\":616:636   */\n      calldataload\n        /* \"#utility.yul\":607:636   */\n      swap1\n      pop\n        /* \"#utility.yul\":645:678   */\n      tag_91\n        /* \"#utility.yul\":672:677   */\n      dup2\n        /* \"#utility.yul\":645:678   */\n      tag_69\n      jump\t// in\n    tag_91:\n        /* \"#utility.yul\":545:684   */\n      swap3\n      swap2\n      pop\n      pop\n      jump\t// out\n        /* \"#utility.yul\":690:1019   */\n    tag_6:\n        /* \"#utility.yul\":749:755   */\n      0x00\n        /* \"#utility.yul\":798:800   */\n      0x20\n        /* \"#utility.yul\":786:795   */\n      dup3\n        /* \"#utility.yul\":777:784   */\n      dup5\n        /* \"#utility.yul\":773:796   */\n      sub\n        /* \"#utility.yul\":769:801   */\n      slt\n        /* \"#utility.yul\":766:885   */\n      iszero\n      tag_93\n      jumpi\n        /* \"#utility.yul\":804:883   */\n      tag_94\n      tag_66\n      jump\t// in\n    tag_94:\n        /* \"#utility.yul\":766:885   */\n    tag_93:\n        /* \"#utility.yul\":924:925   */\n      0x00\n        /* \"#utility.yul\":949:1002   */\n      tag_95\n        /* \"#utility.yul\":994:1001   */\n      dup5\n        /* \"#utility.yul\":985:991   */\n      dup3\n        /* \"#utility.yul\":974:983   */\n      dup6\n        /* \"#utility.yul\":970:992   */\n      add\n        /* \"#utility.yul\":949:1002   */\n      tag_70\n      jump\t// in\n    tag_95:\n        /* \"#utility.yul\":939:1002   */\n      swap2\n      pop\n        /* \"#utility.yul\":895:1012   */\n      pop\n        /* \"#utility.yul\":690:1019   */\n      swap3\n      swap2\n      pop\n      pop\n      jump\t// out\n        /* \"#utility.yul\":1025:1124   */\n    tag_71:\n        /* \"#utility.yul\":1077:1083   */\n      0x00\n        /* \"#utility.yul\":1111:1116   */\n      dup2\n        /* \"#utility.yul\":1105:1117   */\n      mload\n        /* \"#utility.yul\":1095:1117   */\n      swap1\n      pop\n        /* \"#utility.yul\":1025:1124   */\n      swap2\n      swap1\n      pop\n      jump\t// out\n        /* \"#utility.yul\":1130:1299   */\n    tag_72:\n        /* \"#utility.yul\":1214:1225   */\n      0x00\n        /* \"#utility.yul\":1248:1254   */\n      dup3\n        /* \"#utility.yul\":1243:1246   */\n      dup3\n        /* \"#utility.yul\":1236:1255   */\n      mstore\n        /* \"#utility.yul\":1288:1292   */\n      0x20\n        /* \"#utility.yul\":1283:1286   */\n      dup3\n        /* \"#utility.yul\":1279:1293   */\n      add\n        /* \"#utility.yul\":1264:1293   */\n      swap1\n      pop\n        /* \"#utility.yul\":1130:1299   */\n      swap3\n      swap2\n      pop\n      pop\n      jump\t// out\n        /* \"#utility.yul\":1305:1444   */\n    tag_73:\n        /* \"#utility.yul\":1394:1400   */\n      dup3\n        /* \"#utility.yul\":1389:1392   */\n      dup2\n        /* \"#utility.yul\":1384:1387   */\n      dup4\n        /* \"#utility.yul\":1378:1401   */\n      mcopy\n        /* \"#utility.yul\":1435:1436   */\n      0x00\n        /* \"#utility.yul\":1426:1432   */\n      dup4\n        /* \"#utility.yul\":1421:1424   */\n      dup4\n        /* \"#utility.yul\":1417:1433   */\n      add\n        /* \"#utility.yul\":1410:1437   */\n      mstore\n        /* \"#utility.yul\":1305:1444   */\n      pop\n      pop\n      pop\n      jump\t// out\n        /* \"#utility.yul\":1450:1552   */\n    tag_74:\n        /* \"#utility.yul\":1491:1497   */\n      0x00\n        /* \"#utility.yul\":1542:1544   */\n      0x1f\n        /* \"#utility.yul\":1538:1545   */\n      not\n        /* \"#utility.yul\":1533:1535   */\n      0x1f\n        /* \"#utility.yul\":1526:1531   */\n      dup4\n        /* \"#utility.yul\":1522:1536   */\n      add\n        /* \"#utility.yul\":1518:1546   */\n      and\n        /* \"#utility.yul\":1508:1546   */\n      swap1\n      pop\n        /* \"#utility.yul\":1450:1552   */\n      swap2\n      swap1\n      pop\n      jump\t// out\n        /* \"#utility.yul\":1558:1935   */\n    tag_75:\n        /* \"#utility.yul\":1646:1649   */\n      0x00\n        /* \"#utility.yul\":1674:1713   */\n      tag_101\n        /* \"#utility.yul\":1707:1712   */\n      dup3\n        /* \"#utility.yul\":1674:1713   */\n      tag_71\n      jump\t// in\n    tag_101:\n        /* \"#utility.yul\":1729:1800   */\n      tag_102\n        /* \"#utility.yul\":1793:1799   */\n      dup2\n        /* \"#utility.yul\":1788:1791   */\n      dup6\n        /* \"#utility.yul\":1729:1800   */\n      tag_72\n      jump\t// in\n    tag_102:\n        /* \"#utility.yul\":1722:1800   */\n      swap4\n      pop\n        /* \"#utility.yul\":1809:1874   */\n      tag_103\n        /* \"#utility.yul\":1867:1873   */\n      dup2\n        /* \"#utility.yul\":1862:1865   */\n      dup6\n        /* \"#utility.yul\":1855:1859   */\n      0x20\n        /* \"#utility.yul\":1848:1853   */\n      dup7\n        /* \"#utility.yul\":1844:1860   */\n      add\n        /* \"#utility.yul\":1809:1874   */\n      tag_73\n      jump\t// in\n    tag_103:\n        /* \"#utility.yul\":1899:1928   */\n      tag_104\n        /* \"#utility.yul\":1921:1927   */\n      dup2\n        /* \"#utility.yul\":1899:1928   */\n      tag_74\n      jump\t// in\n    tag_104:\n        /* \"#utility.yul\":1894:1897   */\n      dup5\n        /* \"#utility.yul\":1890:1929   */\n      add\n        /* \"#utility.yul\":1883:1929   */\n      swap2\n      pop\n        /* \"#utility.yul\":1650:1935   */\n      pop\n        /* \"#utility.yul\":1558:1935   */\n      swap3\n      swap2\n      pop\n      pop\n      jump\t// out\n        /* \"#utility.yul\":1941:2254   */\n    tag_9:\n        /* \"#utility.yul\":2054:2058   */\n      0x00\n        /* \"#utility.yul\":2092:2094   */\n      0x20\n        /* \"#utility.yul\":2081:2090   */\n      dup3\n        /* \"#utility.yul\":2077:2095   */\n      add\n        /* \"#utility.yul\":2069:2095   */\n      swap1\n      pop\n        /* \"#utility.yul\":2141:2150   */\n      dup2\n        /* \"#utility.yul\":2135:2139   */\n      dup2\n        /* \"#utility.yul\":2131:2151   */\n      sub\n        /* \"#utility.yul\":2127:2128   */\n      0x00\n        /* \"#utility.yul\":2116:2125   */\n      dup4\n        /* \"#utility.yul\":2112:2129   */\n      add\n        /* \"#utility.yul\":2105:2152   */\n      mstore\n        /* \"#utility.yul\":2169:2247   */\n      tag_106\n        /* \"#utility.yul\":2242:2246   */\n      dup2\n        /* \"#utility.yul\":2233:2239   */\n      dup5\n        /* \"#utility.yul\":2169:2247   */\n      tag_75\n      jump\t// in\n    tag_106:\n        /* \"#utility.yul\":2161:2247   */\n      swap1\n      pop\n        /* \"#utility.yul\":1941:2254   */\n      swap3\n      swap2\n      pop\n      pop\n      jump\t// out\n        /* \"#utility.yul\":2260:2440   */\n    tag_43:\n        /* \"#utility.yul\":2308:2385   */\n      0x4e487b7100000000000000000000000000000000000000000000000000000000\n        /* \"#utility.yul\":2305:2306   */\n      0x00\n        /* \"#utility.yul\":2298:2386   */\n      mstore\n        /* \"#utility.yul\":2405:2409   */\n      0x12\n        /* \"#utility.yul\":2402:2403   */\n      0x04\n        /* \"#utility.yul\":2395:2410   */\n      mstore\n        /* \"#utility.yul\":2429:2433   */\n      0x24\n        /* \"#utility.yul\":2426:2427   */\n      0x00\n        /* \"#utility.yul\":2419:2434   */\n      revert\n        /* \"#utility.yul\":2632:2817   */\n    tag_12:\n        /* \"#utility.yul\":2672:2673   */\n      0x00\n        /* \"#utility.yul\":2689:2709   */\n      tag_110\n        /* \"#utility.yul\":2707:2708   */\n      dup3\n        /* \"#utility.yul\":2689:2709   */\n      tag_68\n      jump\t// in\n    tag_110:\n        /* \"#utility.yul\":2684:2709   */\n      swap2\n      pop\n        /* \"#utility.yul\":2723:2743   */\n      tag_111\n        /* \"#utility.yul\":2741:2742   */\n      dup4\n        /* \"#utility.yul\":2723:2743   */\n      tag_68\n      jump\t// in\n    tag_111:\n        /* \"#utility.yul\":2718:2743   */\n      swap3\n      pop\n        /* \"#utility.yul\":2762:2763   */\n      dup3\n        /* \"#utility.yul\":2752:2787   */\n      tag_112\n      jumpi\n        /* \"#utility.yul\":2767:2785   */\n      tag_113\n      tag_43\n      jump\t// in\n    tag_113:\n        /* \"#utility.yul\":2752:2787   */\n    tag_112:\n        /* \"#utility.yul\":2809:2810   */\n      dup3\n        /* \"#utility.yul\":2806:2807   */\n      dup3\n        /* \"#utility.yul\":2802:2811   */\n      div\n        /* \"#utility.yul\":2797:2811   */\n      swap1\n      pop\n        /* \"#utility.yul\":2632:2817   */\n      swap3\n      swap2\n      pop\n      pop\n      jump\t// out\n        /* \"#utility.yul\":2823:2999   */\n    tag_14:\n        /* \"#utility.yul\":2855:2856   */\n      0x00\n        /* \"#utility.yul\":2872:2892   */\n      tag_115\n        /* \"#utility.yul\":2890:2891   */\n      dup3\n        /* \"#utility.yul\":2872:2892   */\n      tag_68\n      jump\t// in\n    tag_115:\n        /* \"#utility.yul\":2867:2892   */\n      swap2\n      pop\n        /* \"#utility.yul\":2906:2926   */\n      tag_116\n        /* \"#utility.yul\":2924:2925   */\n      dup4\n        /* \"#utility.yul\":2906:2926   */\n      tag_68\n      jump\t// in\n    tag_116:\n        /* \"#utility.yul\":2901:2926   */\n      swap3\n      pop\n        /* \"#utility.yul\":2945:2946   */\n      dup3\n        /* \"#utility.yul\":2935:2970   */\n      tag_117\n      jumpi\n        /* \"#utility.yul\":2950:2968   */\n      tag_118\n      tag_43\n      jump\t// in\n    tag_118:\n        /* \"#utility.yul\":2935:2970   */\n    tag_117:\n        /* \"#utility.yul\":2991:2992   */\n      dup3\n        /* \"#utility.yul\":2988:2989   */\n      dup3\n        /* \"#utility.yul\":2984:2993   */\n      mod\n        /* \"#utility.yul\":2979:2993   */\n      swap1\n      pop\n        /* \"#utility.yul\":2823:2999   */\n      swap3\n      swap2\n      pop\n      pop\n      jump\t// out\n        /* \"#utility.yul\":3005:3153   */\n    tag_77:\n        /* \"#utility.yul\":3107:3118   */\n      0x00\n        /* \"#utility.yul\":3144:3147   */\n      dup2\n        /* \"#utility.yul\":3129:3147   */\n      swap1\n      pop\n        /* \"#utility.yul\":3005:3153   */\n      swap3\n      swap2\n      pop\n      pop\n      jump\t// out\n        /* \"#utility.yul\":3159:3549   */\n    tag_78:\n        /* \"#utility.yul\":3265:3268   */\n      0x00\n        /* \"#utility.yul\":3293:3332   */\n      tag_121\n        /* \"#utility.yul\":3326:3331   */\n      dup3\n        /* \"#utility.yul\":3293:3332   */\n      tag_71\n      jump\t// in\n    tag_121:\n        /* \"#utility.yul\":3348:3437   */\n      tag_122\n        /* \"#utility.yul\":3430:3436   */\n      dup2\n        /* \"#utility.yul\":3425:3428   */\n      dup6\n        /* \"#utility.yul\":3348:3437   */\n      tag_77\n      jump\t// in\n    tag_122:\n        /* \"#utility.yul\":3341:3437   */\n      swap4\n      pop\n        /* \"#utility.yul\":3446:3511   */\n      tag_123\n        /* \"#utility.yul\":3504:3510   */\n      dup2\n        /* \"#utility.yul\":3499:3502   */\n      dup6\n        /* \"#utility.yul\":3492:3496   */\n      0x20\n        /* \"#utility.yul\":3485:3490   */\n      dup7\n        /* \"#utility.yul\":3481:3497   */\n      add\n        /* \"#utility.yul\":3446:3511   */\n      tag_73\n      jump\t// in\n    tag_123:\n        /* \"#utility.yul\":3536:3542   */\n      dup1\n        /* \"#utility.yul\":3531:3534   */\n      dup5\n        /* \"#utility.yul\":3527:3543   */\n      add\n        /* \"#utility.yul\":3520:3543   */\n      swap2\n      pop\n        /* \"#utility.yul\":3269:3549   */\n      pop\n        /* \"#utility.yul\":3159:3549   */\n      swap3\n      swap2\n      pop\n      pop\n      jump\t// out\n        /* \"#utility.yul\":3555:3741   */\n    tag_79:\n        /* \"#utility.yul\":3723:3734   */\n      0x206d696e75746573200000000000000000000000000000000000000000000000\n        /* \"#utility.yul\":3718:3721   */\n      dup2\n        /* \"#utility.yul\":3711:3735   */\n      mstore\n        /* \"#utility.yul\":3555:3741   */\n      pop\n      jump\t// out\n        /* \"#utility.yul\":3747:3932   */\n    tag_80:\n        /* \"#utility.yul\":3915:3925   */\n      0x207365636f6e6473000000000000000000000000000000000000000000000000\n        /* \"#utility.yul\":3910:3913   */\n      dup2\n        /* \"#utility.yul\":3903:3926   */\n      mstore\n        /* \"#utility.yul\":3747:3932   */\n      pop\n      jump\t// out\n        /* \"#utility.yul\":3938:4901   */\n    tag_22:\n        /* \"#utility.yul\":4298:4301   */\n      0x00\n        /* \"#utility.yul\":4320:4415   */\n      tag_127\n        /* \"#utility.yul\":4411:4414   */\n      dup3\n        /* \"#utility.yul\":4402:4408   */\n      dup6\n        /* \"#utility.yul\":4320:4415   */\n      tag_78\n      jump\t// in\n    tag_127:\n        /* \"#utility.yul\":4313:4415   */\n      swap2\n      pop\n        /* \"#utility.yul\":4425:4562   */\n      tag_128\n        /* \"#utility.yul\":4558:4561   */\n      dup3\n        /* \"#utility.yul\":4425:4562   */\n      tag_79\n      jump\t// in\n    tag_128:\n        /* \"#utility.yul\":4587:4588   */\n      0x09\n        /* \"#utility.yul\":4582:4585   */\n      dup3\n        /* \"#utility.yul\":4578:4589   */\n      add\n        /* \"#utility.yul\":4571:4589   */\n      swap2\n      pop\n        /* \"#utility.yul\":4606:4701   */\n      tag_129\n        /* \"#utility.yul\":4697:4700   */\n      dup3\n        /* \"#utility.yul\":4688:4694   */\n      dup5\n        /* \"#utility.yul\":4606:4701   */\n      tag_78\n      jump\t// in\n    tag_129:\n        /* \"#utility.yul\":4599:4701   */\n      swap2\n      pop\n        /* \"#utility.yul\":4711:4848   */\n      tag_130\n        /* \"#utility.yul\":4844:4847   */\n      dup3\n        /* \"#utility.yul\":4711:4848   */\n      tag_80\n      jump\t// in\n    tag_130:\n        /* \"#utility.yul\":4873:4874   */\n      0x08\n        /* \"#utility.yul\":4868:4871   */\n      dup3\n        /* \"#utility.yul\":4864:4875   */\n      add\n        /* \"#utility.yul\":4857:4875   */\n      swap2\n      pop\n        /* \"#utility.yul\":4892:4895   */\n      dup2\n        /* \"#utility.yul\":4885:4895   */\n      swap1\n      pop\n        /* \"#utility.yul\":3938:4901   */\n      swap4\n      swap3\n      pop\n      pop\n      pop\n      jump\t// out\n        /* \"#utility.yul\":4907:5446   */\n    tag_26:\n        /* \"#utility.yul\":5129:5132   */\n      0x00\n        /* \"#utility.yul\":5151:5246   */\n      tag_132\n        /* \"#utility.yul\":5242:5245   */\n      dup3\n        /* \"#utility.yul\":5233:5239   */\n      dup5\n        /* \"#utility.yul\":5151:5246   */\n      tag_78\n      jump\t// in\n    tag_132:\n        /* \"#utility.yul\":5144:5246   */\n      swap2\n      pop\n        /* \"#utility.yul\":5256:5393   */\n      tag_133\n        /* \"#utility.yul\":5389:5392   */\n      dup3\n        /* \"#utility.yul\":5256:5393   */\n      tag_80\n      jump\t// in\n    tag_133:\n        /* \"#utility.yul\":5418:5419   */\n      0x08\n        /* \"#utility.yul\":5413:5416   */\n      dup3\n        /* \"#utility.yul\":5409:5420   */\n      add\n        /* \"#utility.yul\":5402:5420   */\n      swap2\n      pop\n        /* \"#utility.yul\":5437:5440   */\n      dup2\n        /* \"#utility.yul\":5430:5440   */\n      swap1\n      pop\n        /* \"#utility.yul\":4907:5446   */\n      swap3\n      swap2\n      pop\n      pop\n      jump\t// out\n        /* \"#utility.yul\":5452:5636   */\n    tag_81:\n        /* \"#utility.yul\":5620:5629   */\n      0x20686f7572732000000000000000000000000000000000000000000000000000\n        /* \"#utility.yul\":5615:5618   */\n      dup2\n        /* \"#utility.yul\":5608:5630   */\n      mstore\n        /* \"#utility.yul\":5452:5636   */\n      pop\n      jump\t// out\n        /* \"#utility.yul\":5642:7029   */\n    tag_31:\n        /* \"#utility.yul\":6140:6143   */\n      0x00\n        /* \"#utility.yul\":6162:6257   */\n      tag_136\n        /* \"#utility.yul\":6253:6256   */\n      dup3\n        /* \"#utility.yul\":6244:6250   */\n      dup7\n        /* \"#utility.yul\":6162:6257   */\n      tag_78\n      jump\t// in\n    tag_136:\n        /* \"#utility.yul\":6155:6257   */\n      swap2\n      pop\n        /* \"#utility.yul\":6267:6404   */\n      tag_137\n        /* \"#utility.yul\":6400:6403   */\n      dup3\n        /* \"#utility.yul\":6267:6404   */\n      tag_81\n      jump\t// in\n    tag_137:\n        /* \"#utility.yul\":6429:6430   */\n      0x07\n        /* \"#utility.yul\":6424:6427   */\n      dup3\n        /* \"#utility.yul\":6420:6431   */\n      add\n        /* \"#utility.yul\":6413:6431   */\n      swap2\n      pop\n        /* \"#utility.yul\":6448:6543   */\n      tag_138\n        /* \"#utility.yul\":6539:6542   */\n      dup3\n        /* \"#utility.yul\":6530:6536   */\n      dup6\n        /* \"#utility.yul\":6448:6543   */\n      tag_78\n      jump\t// in\n    tag_138:\n        /* \"#utility.yul\":6441:6543   */\n      swap2\n      pop\n        /* \"#utility.yul\":6553:6690   */\n      tag_139\n        /* \"#utility.yul\":6686:6689   */\n      dup3\n        /* \"#utility.yul\":6553:6690   */\n      tag_79\n      jump\t// in\n    tag_139:\n        /* \"#utility.yul\":6715:6716   */\n      0x09\n        /* \"#utility.yul\":6710:6713   */\n      dup3\n        /* \"#utility.yul\":6706:6717   */\n      add\n        /* \"#utility.yul\":6699:6717   */\n      swap2\n      pop\n        /* \"#utility.yul\":6734:6829   */\n      tag_140\n        /* \"#utility.yul\":6825:6828   */\n      dup3\n        /* \"#utility.yul\":6816:6822   */\n      dup5\n        /* \"#utility.yul\":6734:6829   */\n      tag_78\n      jump\t// in\n    tag_140:\n        /* \"#utility.yul\":6727:6829   */\n      swap2\n      pop\n        /* \"#utility.yul\":6839:6976   */\n      tag_141\n        /* \"#utility.yul\":6972:6975   */\n      dup3\n        /* \"#utility.yul\":6839:6976   */\n      tag_80\n      jump\t// in\n    tag_141:\n        /* \"#utility.yul\":7001:7002   */\n      0x08\n        /* \"#utility.yul\":6996:6999   */\n      dup3\n        /* \"#utility.yul\":6992:7003   */\n      add\n        /* \"#utility.yul\":6985:7003   */\n      swap2\n      pop\n        /* \"#utility.yul\":7020:7023   */\n      dup2\n        /* \"#utility.yul\":7013:7023   */\n      swap1\n      pop\n        /* \"#utility.yul\":5642:7029   */\n      swap5\n      swap4\n      pop\n      pop\n      pop\n      pop\n      jump\t// out\n        /* \"#utility.yul\":7035:7215   */\n    tag_37:\n        /* \"#utility.yul\":7083:7160   */\n      0x4e487b7100000000000000000000000000000000000000000000000000000000\n        /* \"#utility.yul\":7080:7081   */\n      0x00\n        /* \"#utility.yul\":7073:7161   */\n      mstore\n        /* \"#utility.yul\":7180:7184   */\n      0x41\n        /* \"#utility.yul\":7177:7178   */\n      0x04\n        /* \"#utility.yul\":7170:7185   */\n      mstore\n        /* \"#utility.yul\":7204:7208   */\n      0x24\n        /* \"#utility.yul\":7201:7202   */\n      0x00\n        /* \"#utility.yul\":7194:7209   */\n      revert\n\n    auxdata: 0xa2646970667358221220918bb4884b9cc0207a84f16d007d7f1e22b5916ad5a8fda597168758c546cf3764736f6c634300081a0033\n}\n",
				"bytecode": {
					"linkReferences": {},
					"object": "6080604052348015600e575f80fd5b506106cc8061001c5f395ff3fe608060405234801561000f575f80fd5b5060043610610029575f3560e01c80635b2aeccd1461002d575b5f80fd5b610047600480360381019061004291906103b2565b61005d565b604051610054919061044d565b60405180910390f35b60605f610e108361006e919061049a565b90505f603c610e108561008191906104ca565b61008b919061049a565b90505f603c8561009b91906104ca565b90505f83036100e0576100ad82610160565b6100b682610160565b6040516020016100c7929190610580565b604051602081830303815290604052935050505061015b565b5f8203610119576100f081610160565b60405160200161010091906105c1565b604051602081830303815290604052935050505061015b565b61012283610160565b61012b83610160565b61013483610160565b6040516020016101469392919061060c565b60405160208183030381529060405293505050505b919050565b60605f600161016e8461022a565b0190505f8167ffffffffffffffff81111561018c5761018b610669565b5b6040519080825280601f01601f1916602001820160405280156101be5781602001600182028036833780820191505090505b5090505f82602001820190505b60011561021f578080600190039150507f3031323334353637383961626364656600000000000000000000000000000000600a86061a8153600a85816102145761021361046d565b5b0494505f85036101cb575b819350505050919050565b5f805f90507a184f03e93ff9f4daa797ed6e38ed64bf6a1f0100000000000000008310610286577a184f03e93ff9f4daa797ed6e38ed64bf6a1f010000000000000000838161027c5761027b61046d565b5b0492506040810190505b6d04ee2d6d415b85acef810000000083106102c3576d04ee2d6d415b85acef810000000083816102b9576102b861046d565b5b0492506020810190505b662386f26fc1000083106102f257662386f26fc1000083816102e8576102e761046d565b5b0492506010810190505b6305f5e100831061031b576305f5e10083816103115761031061046d565b5b0492506008810190505b61271083106103405761271083816103365761033561046d565b5b0492506004810190505b6064831061036357606483816103595761035861046d565b5b0492506002810190505b600a8310610372576001810190505b80915050919050565b5f80fd5b5f819050919050565b6103918161037f565b811461039b575f80fd5b50565b5f813590506103ac81610388565b92915050565b5f602082840312156103c7576103c661037b565b5b5f6103d48482850161039e565b91505092915050565b5f81519050919050565b5f82825260208201905092915050565b8281835e5f83830152505050565b5f601f19601f8301169050919050565b5f61041f826103dd565b61042981856103e7565b93506104398185602086016103f7565b61044281610405565b840191505092915050565b5f6020820190508181035f8301526104658184610415565b905092915050565b7f4e487b71000000000000000000000000000000000000000000000000000000005f52601260045260245ffd5b5f6104a48261037f565b91506104af8361037f565b9250826104bf576104be61046d565b5b828204905092915050565b5f6104d48261037f565b91506104df8361037f565b9250826104ef576104ee61046d565b5b828206905092915050565b5f81905092915050565b5f61050e826103dd565b61051881856104fa565b93506105288185602086016103f7565b80840191505092915050565b7f206d696e75746573200000000000000000000000000000000000000000000000815250565b7f207365636f6e6473000000000000000000000000000000000000000000000000815250565b5f61058b8285610504565b915061059682610534565b6009820191506105a68284610504565b91506105b18261055a565b6008820191508190509392505050565b5f6105cc8284610504565b91506105d78261055a565b60088201915081905092915050565b7f20686f7572732000000000000000000000000000000000000000000000000000815250565b5f6106178286610504565b9150610622826105e6565b6007820191506106328285610504565b915061063d82610534565b60098201915061064d8284610504565b91506106588261055a565b600882019150819050949350505050565b7f4e487b71000000000000000000000000000000000000000000000000000000005f52604160045260245ffdfea2646970667358221220918bb4884b9cc0207a84f16d007d7f1e22b5916ad5a8fda597168758c546cf3764736f6c634300081a0033",
					"opcodes": "PUSH1 0x80 PUSH1 0x40 MSTORE CALLVALUE DUP1 ISZERO PUSH1 0xE JUMPI PUSH0 DUP1 REVERT JUMPDEST POP PUSH2 0x6CC DUP1 PUSH2 0x1C PUSH0 CODECOPY PUSH0 RETURN INVALID PUSH1 0x80 PUSH1 0x40 MSTORE CALLVALUE DUP1 ISZERO PUSH2 0xF JUMPI PUSH0 DUP1 REVERT JUMPDEST POP PUSH1 0x4 CALLDATASIZE LT PUSH2 0x29 JUMPI PUSH0 CALLDATALOAD PUSH1 0xE0 SHR DUP1 PUSH4 0x5B2AECCD EQ PUSH2 0x2D JUMPI JUMPDEST PUSH0 DUP1 REVERT JUMPDEST PUSH2 0x47 PUSH1 0x4 DUP1 CALLDATASIZE SUB DUP2 ADD SWAP1 PUSH2 0x42 SWAP2 SWAP1 PUSH2 0x3B2 JUMP JUMPDEST PUSH2 0x5D JUMP JUMPDEST PUSH1 0x40 MLOAD PUSH2 0x54 SWAP2 SWAP1 PUSH2 0x44D JUMP JUMPDEST PUSH1 0x40 MLOAD DUP1 SWAP2 SUB SWAP1 RETURN JUMPDEST PUSH1 0x60 PUSH0 PUSH2 0xE10 DUP4 PUSH2 0x6E SWAP2 SWAP1 PUSH2 0x49A JUMP JUMPDEST SWAP1 POP PUSH0 PUSH1 0x3C PUSH2 0xE10 DUP6 PUSH2 0x81 SWAP2 SWAP1 PUSH2 0x4CA JUMP JUMPDEST PUSH2 0x8B SWAP2 SWAP1 PUSH2 0x49A JUMP JUMPDEST SWAP1 POP PUSH0 PUSH1 0x3C DUP6 PUSH2 0x9B SWAP2 SWAP1 PUSH2 0x4CA JUMP JUMPDEST SWAP1 POP PUSH0 DUP4 SUB PUSH2 0xE0 JUMPI PUSH2 0xAD DUP3 PUSH2 0x160 JUMP JUMPDEST PUSH2 0xB6 DUP3 PUSH2 0x160 JUMP JUMPDEST PUSH1 0x40 MLOAD PUSH1 0x20 ADD PUSH2 0xC7 SWAP3 SWAP2 SWAP1 PUSH2 0x580 JUMP JUMPDEST PUSH1 0x40 MLOAD PUSH1 0x20 DUP2 DUP4 SUB SUB DUP2 MSTORE SWAP1 PUSH1 0x40 MSTORE SWAP4 POP POP POP POP PUSH2 0x15B JUMP JUMPDEST PUSH0 DUP3 SUB PUSH2 0x119 JUMPI PUSH2 0xF0 DUP2 PUSH2 0x160 JUMP JUMPDEST PUSH1 0x40 MLOAD PUSH1 0x20 ADD PUSH2 0x100 SWAP2 SWAP1 PUSH2 0x5C1 JUMP JUMPDEST PUSH1 0x40 MLOAD PUSH1 0x20 DUP2 DUP4 SUB SUB DUP2 MSTORE SWAP1 PUSH1 0x40 MSTORE SWAP4 POP POP POP POP PUSH2 0x15B JUMP JUMPDEST PUSH2 0x122 DUP4 PUSH2 0x160 JUMP JUMPDEST PUSH2 0x12B DUP4 PUSH2 0x160 JUMP JUMPDEST PUSH2 0x134 DUP4 PUSH2 0x160 JUMP JUMPDEST PUSH1 0x40 MLOAD PUSH1 0x20 ADD PUSH2 0x146 SWAP4 SWAP3 SWAP2 SWAP1 PUSH2 0x60C JUMP JUMPDEST PUSH1 0x40 MLOAD PUSH1 0x20 DUP2 DUP4 SUB SUB DUP2 MSTORE SWAP1 PUSH1 0x40 MSTORE SWAP4 POP POP POP POP JUMPDEST SWAP2 SWAP1 POP JUMP JUMPDEST PUSH1 0x60 PUSH0 PUSH1 0x1 PUSH2 0x16E DUP5 PUSH2 0x22A JUMP JUMPDEST ADD SWAP1 POP PUSH0 DUP2 PUSH8 0xFFFFFFFFFFFFFFFF DUP2 GT ISZERO PUSH2 0x18C JUMPI PUSH2 0x18B PUSH2 0x669 JUMP JUMPDEST JUMPDEST PUSH1 0x40 MLOAD SWAP1 DUP1 DUP3 MSTORE DUP1 PUSH1 0x1F ADD PUSH1 0x1F NOT AND PUSH1 0x20 ADD DUP3 ADD PUSH1 0x40 MSTORE DUP1 ISZERO PUSH2 0x1BE JUMPI DUP2 PUSH1 0x20 ADD PUSH1 0x1 DUP3 MUL DUP1 CALLDATASIZE DUP4 CALLDATACOPY DUP1 DUP3 ADD SWAP2 POP POP SWAP1 POP JUMPDEST POP SWAP1 POP PUSH0 DUP3 PUSH1 0x20 ADD DUP3 ADD SWAP1 POP JUMPDEST PUSH1 0x1 ISZERO PUSH2 0x21F JUMPI DUP1 DUP1 PUSH1 0x1 SWAP1 SUB SWAP2 POP POP PUSH32 0x3031323334353637383961626364656600000000000000000000000000000000 PUSH1 0xA DUP7 MOD BYTE DUP2 MSTORE8 PUSH1 0xA DUP6 DUP2 PUSH2 0x214 JUMPI PUSH2 0x213 PUSH2 0x46D JUMP JUMPDEST JUMPDEST DIV SWAP5 POP PUSH0 DUP6 SUB PUSH2 0x1CB JUMPI JUMPDEST DUP2 SWAP4 POP POP POP POP SWAP2 SWAP1 POP JUMP JUMPDEST PUSH0 DUP1 PUSH0 SWAP1 POP PUSH27 0x184F03E93FF9F4DAA797ED6E38ED64BF6A1F010000000000000000 DUP4 LT PUSH2 0x286 JUMPI PUSH27 0x184F03E93FF9F4DAA797ED6E38ED64BF6A1F010000000000000000 DUP4 DUP2 PUSH2 0x27C JUMPI PUSH2 0x27B PUSH2 0x46D JUMP JUMPDEST JUMPDEST DIV SWAP3 POP PUSH1 0x40 DUP2 ADD SWAP1 POP JUMPDEST PUSH14 0x4EE2D6D415B85ACEF8100000000 DUP4 LT PUSH2 0x2C3 JUMPI PUSH14 0x4EE2D6D415B85ACEF8100000000 DUP4 DUP2 PUSH2 0x2B9 JUMPI PUSH2 0x2B8 PUSH2 0x46D JUMP JUMPDEST JUMPDEST DIV SWAP3 POP PUSH1 0x20 DUP2 ADD SWAP1 POP JUMPDEST PUSH7 0x2386F26FC10000 DUP4 LT PUSH2 0x2F2 JUMPI PUSH7 0x2386F26FC10000 DUP4 DUP2 PUSH2 0x2E8 JUMPI PUSH2 0x2E7 PUSH2 0x46D JUMP JUMPDEST JUMPDEST DIV SWAP3 POP PUSH1 0x10 DUP2 ADD SWAP1 POP JUMPDEST PUSH4 0x5F5E100 DUP4 LT PUSH2 0x31B JUMPI PUSH4 0x5F5E100 DUP4 DUP2 PUSH2 0x311 JUMPI PUSH2 0x310 PUSH2 0x46D JUMP JUMPDEST JUMPDEST DIV SWAP3 POP PUSH1 0x8 DUP2 ADD SWAP1 POP JUMPDEST PUSH2 0x2710 DUP4 LT PUSH2 0x340 JUMPI PUSH2 0x2710 DUP4 DUP2 PUSH2 0x336 JUMPI PUSH2 0x335 PUSH2 0x46D JUMP JUMPDEST JUMPDEST DIV SWAP3 POP PUSH1 0x4 DUP2 ADD SWAP1 POP JUMPDEST PUSH1 0x64 DUP4 LT PUSH2 0x363 JUMPI PUSH1 0x64 DUP4 DUP2 PUSH2 0x359 JUMPI PUSH2 0x358 PUSH2 0x46D JUMP JUMPDEST JUMPDEST DIV SWAP3 POP PUSH1 0x2 DUP2 ADD SWAP1 POP JUMPDEST PUSH1 0xA DUP4 LT PUSH2 0x372 JUMPI PUSH1 0x1 DUP2 ADD SWAP1 POP JUMPDEST DUP1 SWAP2 POP POP SWAP2 SWAP1 POP JUMP JUMPDEST PUSH0 DUP1 REVERT JUMPDEST PUSH0 DUP2 SWAP1 POP SWAP2 SWAP1 POP JUMP JUMPDEST PUSH2 0x391 DUP2 PUSH2 0x37F JUMP JUMPDEST DUP2 EQ PUSH2 0x39B JUMPI PUSH0 DUP1 REVERT JUMPDEST POP JUMP JUMPDEST PUSH0 DUP2 CALLDATALOAD SWAP1 POP PUSH2 0x3AC DUP2 PUSH2 0x388 JUMP JUMPDEST SWAP3 SWAP2 POP POP JUMP JUMPDEST PUSH0 PUSH1 0x20 DUP3 DUP5 SUB SLT ISZERO PUSH2 0x3C7 JUMPI PUSH2 0x3C6 PUSH2 0x37B JUMP JUMPDEST JUMPDEST PUSH0 PUSH2 0x3D4 DUP5 DUP3 DUP6 ADD PUSH2 0x39E JUMP JUMPDEST SWAP2 POP POP SWAP3 SWAP2 POP POP JUMP JUMPDEST PUSH0 DUP2 MLOAD SWAP1 POP SWAP2 SWAP1 POP JUMP JUMPDEST PUSH0 DUP3 DUP3 MSTORE PUSH1 0x20 DUP3 ADD SWAP1 POP SWAP3 SWAP2 POP POP JUMP JUMPDEST DUP3 DUP2 DUP4 MCOPY PUSH0 DUP4 DUP4 ADD MSTORE POP POP POP JUMP JUMPDEST PUSH0 PUSH1 0x1F NOT PUSH1 0x1F DUP4 ADD AND SWAP1 POP SWAP2 SWAP1 POP JUMP JUMPDEST PUSH0 PUSH2 0x41F DUP3 PUSH2 0x3DD JUMP JUMPDEST PUSH2 0x429 DUP2 DUP6 PUSH2 0x3E7 JUMP JUMPDEST SWAP4 POP PUSH2 0x439 DUP2 DUP6 PUSH1 0x20 DUP7 ADD PUSH2 0x3F7 JUMP JUMPDEST PUSH2 0x442 DUP2 PUSH2 0x405 JUMP JUMPDEST DUP5 ADD SWAP2 POP POP SWAP3 SWAP2 POP POP JUMP JUMPDEST PUSH0 PUSH1 0x20 DUP3 ADD SWAP1 POP DUP2 DUP2 SUB PUSH0 DUP4 ADD MSTORE PUSH2 0x465 DUP2 DUP5 PUSH2 0x415 JUMP JUMPDEST SWAP1 POP SWAP3 SWAP2 POP POP JUMP JUMPDEST PUSH32 0x4E487B7100000000000000000000000000000000000000000000000000000000 PUSH0 MSTORE PUSH1 0x12 PUSH1 0x4 MSTORE PUSH1 0x24 PUSH0 REVERT JUMPDEST PUSH0 PUSH2 0x4A4 DUP3 PUSH2 0x37F JUMP JUMPDEST SWAP2 POP PUSH2 0x4AF DUP4 PUSH2 0x37F JUMP JUMPDEST SWAP3 POP DUP3 PUSH2 0x4BF JUMPI PUSH2 0x4BE PUSH2 0x46D JUMP JUMPDEST JUMPDEST DUP3 DUP3 DIV SWAP1 POP SWAP3 SWAP2 POP POP JUMP JUMPDEST PUSH0 PUSH2 0x4D4 DUP3 PUSH2 0x37F JUMP JUMPDEST SWAP2 POP PUSH2 0x4DF DUP4 PUSH2 0x37F JUMP JUMPDEST SWAP3 POP DUP3 PUSH2 0x4EF JUMPI PUSH2 0x4EE PUSH2 0x46D JUMP JUMPDEST JUMPDEST DUP3 DUP3 MOD SWAP1 POP SWAP3 SWAP2 POP POP JUMP JUMPDEST PUSH0 DUP2 SWAP1 POP SWAP3 SWAP2 POP POP JUMP JUMPDEST PUSH0 PUSH2 0x50E DUP3 PUSH2 0x3DD JUMP JUMPDEST PUSH2 0x518 DUP2 DUP6 PUSH2 0x4FA JUMP JUMPDEST SWAP4 POP PUSH2 0x528 DUP2 DUP6 PUSH1 0x20 DUP7 ADD PUSH2 0x3F7 JUMP JUMPDEST DUP1 DUP5 ADD SWAP2 POP POP SWAP3 SWAP2 POP POP JUMP JUMPDEST PUSH32 0x206D696E75746573200000000000000000000000000000000000000000000000 DUP2 MSTORE POP JUMP JUMPDEST PUSH32 0x207365636F6E6473000000000000000000000000000000000000000000000000 DUP2 MSTORE POP JUMP JUMPDEST PUSH0 PUSH2 0x58B DUP3 DUP6 PUSH2 0x504 JUMP JUMPDEST SWAP2 POP PUSH2 0x596 DUP3 PUSH2 0x534 JUMP JUMPDEST PUSH1 0x9 DUP3 ADD SWAP2 POP PUSH2 0x5A6 DUP3 DUP5 PUSH2 0x504 JUMP JUMPDEST SWAP2 POP PUSH2 0x5B1 DUP3 PUSH2 0x55A JUMP JUMPDEST PUSH1 0x8 DUP3 ADD SWAP2 POP DUP2 SWAP1 POP SWAP4 SWAP3 POP POP POP JUMP JUMPDEST PUSH0 PUSH2 0x5CC DUP3 DUP5 PUSH2 0x504 JUMP JUMPDEST SWAP2 POP PUSH2 0x5D7 DUP3 PUSH2 0x55A JUMP JUMPDEST PUSH1 0x8 DUP3 ADD SWAP2 POP DUP2 SWAP1 POP SWAP3 SWAP2 POP POP JUMP JUMPDEST PUSH32 0x20686F7572732000000000000000000000000000000000000000000000000000 DUP2 MSTORE POP JUMP JUMPDEST PUSH0 PUSH2 0x617 DUP3 DUP7 PUSH2 0x504 JUMP JUMPDEST SWAP2 POP PUSH2 0x622 DUP3 PUSH2 0x5E6 JUMP JUMPDEST PUSH1 0x7 DUP3 ADD SWAP2 POP PUSH2 0x632 DUP3 DUP6 PUSH2 0x504 JUMP JUMPDEST SWAP2 POP PUSH2 0x63D DUP3 PUSH2 0x534 JUMP JUMPDEST PUSH1 0x9 DUP3 ADD SWAP2 POP PUSH2 0x64D DUP3 DUP5 PUSH2 0x504 JUMP JUMPDEST SWAP2 POP PUSH2 0x658 DUP3 PUSH2 0x55A JUMP JUMPDEST PUSH1 0x8 DUP3 ADD SWAP2 POP DUP2 SWAP1 POP SWAP5 SWAP4 POP POP POP POP JUMP JUMPDEST PUSH32 0x4E487B7100000000000000000000000000000000000000000000000000000000 PUSH0 MSTORE PUSH1 0x41 PUSH1 0x4 MSTORE PUSH1 0x24 PUSH0 REVERT INVALID LOG2 PUSH5 0x6970667358 0x22 SLT KECCAK256 SWAP2 DUP12 0xB4 DUP9 0x4B SWAP13 0xC0 KECCAK256 PUSH27 0x84F16D007D7F1E22B5916AD5A8FDA597168758C546CF3764736F6C PUSH4 0x4300081A STOP CALLER "
				},
				"gasEstimates": {
					"creation": {
						"codeDepositCost": "348000",
						"executionCost": "384",
						"totalCost": "348384"
					},
					"external": {
						"uintToTime(uint256)": "infinite"
					}
				},
				"methodIdentifiers": {
					"uintToTime(uint256)": "5b2aeccd"
				}
			},
			"storageLayout": {
				"storage": [],
				"types": null
			},
			"userdoc": {
				"kind": "user",
				"methods": {},
				"version": 1
			}
		}
	}
}