{
	"Code Test/Test2.sol": {
		"TEST2": {
			"abi": [
				{
					"inputs": [],
					"name": "Flists",
					"outputs": [
						{
							"internalType": "uint256",
							"name": "",
							"type": "uint256"
						},
						{
							"components": [
								{
									"internalType": "string",
									"name": "name",
									"type": "string"
								},
								{
									"internalType": "uint256",
									"name": "number",
									"type": "uint256"
								},
								{
									"internalType": "uint256",
									"name": "score",
									"type": "uint256"
								},
								{
									"internalType": "string",
									"name": "grade",
									"type": "string"
								},
								{
									"internalType": "string[]",
									"name": "classLists",
									"type": "string[]"
								}
							],
							"internalType": "struct TEST2.student[]",
							"name": "",
							"type": "tuple[]"
						}
					],
					"stateMutability": "view",
					"type": "function"
				},
				{
					"inputs": [
						{
							"internalType": "string",
							"name": "_name",
							"type": "string"
						},
						{
							"internalType": "uint256",
							"name": "_score",
							"type": "uint256"
						},
						{
							"internalType": "string[]",
							"name": "_classLists",
							"type": "string[]"
						}
					],
					"name": "addStudent",
					"outputs": [],
					"stateMutability": "nonpayable",
					"type": "function"
				},
				{
					"inputs": [],
					"name": "getAvgScore",
					"outputs": [
						{
							"internalType": "uint256",
							"name": "",
							"type": "uint256"
						}
					],
					"stateMutability": "view",
					"type": "function"
				},
				{
					"inputs": [],
					"name": "getNumbers",
					"outputs": [
						{
							"internalType": "uint256",
							"name": "",
							"type": "uint256"
						}
					],
					"stateMutability": "view",
					"type": "function"
				},
				{
					"inputs": [
						{
							"internalType": "string",
							"name": "_name",
							"type": "string"
						}
					],
					"name": "getScore",
					"outputs": [
						{
							"internalType": "uint256",
							"name": "",
							"type": "uint256"
						}
					],
					"stateMutability": "view",
					"type": "function"
				},
				{
					"inputs": [
						{
							"internalType": "uint256",
							"name": "_number",
							"type": "uint256"
						}
					],
					"name": "getStudent",
					"outputs": [
						{
							"components": [
								{
									"internalType": "string",
									"name": "name",
									"type": "string"
								},
								{
									"internalType": "uint256",
									"name": "number",
									"type": "uint256"
								},
								{
									"internalType": "uint256",
									"name": "score",
									"type": "uint256"
								},
								{
									"internalType": "string",
									"name": "grade",
									"type": "string"
								},
								{
									"internalType": "string[]",
									"name": "classLists",
									"type": "string[]"
								}
							],
							"internalType": "struct TEST2.student",
							"name": "",
							"type": "tuple"
						}
					],
					"stateMutability": "view",
					"type": "function"
				},
				{
					"inputs": [
						{
							"internalType": "string",
							"name": "_name",
							"type": "string"
						}
					],
					"name": "getStudent2",
					"outputs": [
						{
							"components": [
								{
									"internalType": "string",
									"name": "name",
									"type": "string"
								},
								{
									"internalType": "uint256",
									"name": "number",
									"type": "uint256"
								},
								{
									"internalType": "uint256",
									"name": "score",
									"type": "uint256"
								},
								{
									"internalType": "string",
									"name": "grade",
									"type": "string"
								},
								{
									"internalType": "string[]",
									"name": "classLists",
									"type": "string[]"
								}
							],
							"internalType": "struct TEST2.student",
							"name": "",
							"type": "tuple"
						}
					],
					"stateMutability": "view",
					"type": "function"
				},
				{
					"inputs": [],
					"name": "getStudents",
					"outputs": [
						{
							"components": [
								{
									"internalType": "string",
									"name": "name",
									"type": "string"
								},
								{
									"internalType": "uint256",
									"name": "number",
									"type": "uint256"
								},
								{
									"internalType": "uint256",
									"name": "score",
									"type": "uint256"
								},
								{
									"internalType": "string",
									"name": "grade",
									"type": "string"
								},
								{
									"internalType": "string[]",
									"name": "classLists",
									"type": "string[]"
								}
							],
							"internalType": "struct TEST2.student[]",
							"name": "",
							"type": "tuple[]"
						}
					],
					"stateMutability": "view",
					"type": "function"
				},
				{
					"inputs": [],
					"name": "teacherSelfEvaluation",
					"outputs": [
						{
							"internalType": "bool",
							"name": "",
							"type": "bool"
						}
					],
					"stateMutability": "view",
					"type": "function"
				}
			],
			"devdoc": {
				"kind": "dev",
				"methods": {},
				"version": 1
			},
			"evm": {
				"assembly": "    /* \"Code Test/Test2.sol\":58:5771  contract TEST2 {... */\n  mstore(0x40, 0x80)\n  callvalue\n  dup1\n  iszero\n  tag_1\n  jumpi\n  0x00\n  dup1\n  revert\ntag_1:\n  pop\n  dataSize(sub_0)\n  dup1\n  dataOffset(sub_0)\n  0x00\n  codecopy\n  0x00\n  return\nstop\n\nsub_0: assembly {\n        /* \"Code Test/Test2.sol\":58:5771  contract TEST2 {... */\n      mstore(0x40, 0x80)\n      callvalue\n      dup1\n      iszero\n      tag_1\n      jumpi\n      0x00\n      dup1\n      revert\n    tag_1:\n      pop\n      jumpi(tag_2, lt(calldatasize, 0x04))\n      shr(0xe0, calldataload(0x00))\n      dup1\n      0x877f18b3\n      gt\n      tag_12\n      jumpi\n      dup1\n      0x877f18b3\n      eq\n      tag_7\n      jumpi\n      dup1\n      0x89f915f6\n      eq\n      tag_8\n      jumpi\n      dup1\n      0x95863d62\n      eq\n      tag_9\n      jumpi\n      dup1\n      0xc7e56ae3\n      eq\n      tag_10\n      jumpi\n      dup1\n      0xf1d064b3\n      eq\n      tag_11\n      jumpi\n      jump(tag_2)\n    tag_12:\n      dup1\n      0x16020273\n      eq\n      tag_3\n      jumpi\n      dup1\n      0x4ebb7603\n      eq\n      tag_4\n      jumpi\n      dup1\n      0x642f9163\n      eq\n      tag_5\n      jumpi\n      dup1\n      0x740d5e10\n      eq\n      tag_6\n      jumpi\n    tag_2:\n      0x00\n      dup1\n      revert\n        /* \"Code Test/Test2.sol\":3521:3861  function getScore(string memory _name) public view returns(uint) {... */\n    tag_3:\n      tag_13\n      0x04\n      dup1\n      calldatasize\n      sub\n      dup2\n      add\n      swap1\n      tag_14\n      swap2\n      swap1\n      tag_15\n      jump\t// in\n    tag_14:\n      tag_16\n      jump\t// in\n    tag_13:\n      mload(0x40)\n      tag_17\n      swap2\n      swap1\n      tag_18\n      jump\t// in\n    tag_17:\n      mload(0x40)\n      dup1\n      swap2\n      sub\n      swap1\n      return\n        /* \"Code Test/Test2.sol\":4910:5590  function Flists() public view returns(uint, student[] memory) {... */\n    tag_4:\n      tag_19\n      tag_20\n      jump\t// in\n    tag_19:\n      mload(0x40)\n      tag_21\n      swap3\n      swap2\n      swap1\n      tag_22\n      jump\t// in\n    tag_21:\n      mload(0x40)\n      dup1\n      swap2\n      sub\n      swap1\n      return\n        /* \"Code Test/Test2.sol\":2840:2951  function getStudent(uint _number) public view returns(student memory){... */\n    tag_5:\n      tag_23\n      0x04\n      dup1\n      calldatasize\n      sub\n      dup2\n      add\n      swap1\n      tag_24\n      swap2\n      swap1\n      tag_25\n      jump\t// in\n    tag_24:\n      tag_26\n      jump\t// in\n    tag_23:\n      mload(0x40)\n      tag_27\n      swap2\n      swap1\n      tag_28\n      jump\t// in\n    tag_27:\n      mload(0x40)\n      dup1\n      swap2\n      sub\n      swap1\n      return\n        /* \"Code Test/Test2.sol\":4350:4557  function getAvgScore() public view returns(uint) {... */\n    tag_6:\n      tag_29\n      tag_30\n      jump\t// in\n    tag_29:\n      mload(0x40)\n      tag_31\n      swap2\n      swap1\n      tag_18\n      jump\t// in\n    tag_31:\n      mload(0x40)\n      dup1\n      swap2\n      sub\n      swap1\n      return\n        /* \"Code Test/Test2.sol\":4698:4800  function teacherSelfEvaluation() public view returns(bool) {... */\n    tag_7:\n      tag_32\n      tag_33\n      jump\t// in\n    tag_32:\n      mload(0x40)\n      tag_34\n      swap2\n      swap1\n      tag_35\n      jump\t// in\n    tag_34:\n      mload(0x40)\n      dup1\n      swap2\n      sub\n      swap1\n      return\n        /* \"Code Test/Test2.sol\":3957:4044  function getNumbers() public view returns (uint) {... */\n    tag_8:\n      tag_36\n      tag_37\n      jump\t// in\n    tag_36:\n      mload(0x40)\n      tag_38\n      swap2\n      swap1\n      tag_18\n      jump\t// in\n    tag_38:\n      mload(0x40)\n      dup1\n      swap2\n      sub\n      swap1\n      return\n        /* \"Code Test/Test2.sol\":3064:3408  function getStudent2(string memory _name) public view returns(student memory) {... */\n    tag_9:\n      tag_39\n      0x04\n      dup1\n      calldatasize\n      sub\n      dup2\n      add\n      swap1\n      tag_40\n      swap2\n      swap1\n      tag_15\n      jump\t// in\n    tag_40:\n      tag_41\n      jump\t// in\n    tag_39:\n      mload(0x40)\n      tag_42\n      swap2\n      swap1\n      tag_28\n      jump\t// in\n    tag_42:\n      mload(0x40)\n      dup1\n      swap2\n      sub\n      swap1\n      return\n        /* \"Code Test/Test2.sol\":2239:2727  function addStudent(string memory _name, uint _score, string[] memory _classLists) public {... */\n    tag_10:\n      tag_43\n      0x04\n      dup1\n      calldatasize\n      sub\n      dup2\n      add\n      swap1\n      tag_44\n      swap2\n      swap1\n      tag_45\n      jump\t// in\n    tag_44:\n      tag_46\n      jump\t// in\n    tag_43:\n      stop\n        /* \"Code Test/Test2.sol\":4149:4242  function getStudents() public view returns(student[] memory) {... */\n    tag_11:\n      tag_47\n      tag_48\n      jump\t// in\n    tag_47:\n      mload(0x40)\n      tag_49\n      swap2\n      swap1\n      tag_50\n      jump\t// in\n    tag_49:\n      mload(0x40)\n      dup1\n      swap2\n      sub\n      swap1\n      return\n        /* \"Code Test/Test2.sol\":3521:3861  function getScore(string memory _name) public view returns(uint) {... */\n    tag_16:\n        /* \"Code Test/Test2.sol\":3580:3584  uint */\n      0x00\n        /* \"Code Test/Test2.sol\":3622:3623  0 */\n      dup1\n        /* \"Code Test/Test2.sol\":3604:3612  students */\n      0x00\n        /* \"Code Test/Test2.sol\":3604:3619  students.length */\n      dup1\n      sload\n      swap1\n      pop\n        /* \"Code Test/Test2.sol\":3604:3623  students.length > 0 */\n      gt\n        /* \"Code Test/Test2.sol\":3596:3635  require(students.length > 0, \"no data\") */\n      tag_52\n      jumpi\n      mload(0x40)\n      0x08c379a000000000000000000000000000000000000000000000000000000000\n      dup2\n      mstore\n      0x04\n      add\n      tag_53\n      swap1\n      tag_54\n      jump\t// in\n    tag_53:\n      mload(0x40)\n      dup1\n      swap2\n      sub\n      swap1\n      revert\n    tag_52:\n        /* \"Code Test/Test2.sol\":3653:3659  uint i */\n      0x00\n        /* \"Code Test/Test2.sol\":3649:3856  for(uint i=0; i<students.length; i++) {... */\n    tag_55:\n        /* \"Code Test/Test2.sol\":3665:3673  students */\n      0x00\n        /* \"Code Test/Test2.sol\":3665:3680  students.length */\n      dup1\n      sload\n      swap1\n      pop\n        /* \"Code Test/Test2.sol\":3663:3664  i */\n      dup2\n        /* \"Code Test/Test2.sol\":3663:3680  i<students.length */\n      lt\n        /* \"Code Test/Test2.sol\":3649:3856  for(uint i=0; i<students.length; i++) {... */\n      iszero\n      tag_56\n      jumpi\n        /* \"Code Test/Test2.sol\":3780:3785  _name */\n      dup3\n        /* \"Code Test/Test2.sol\":3763:3786  abi.encodePacked(_name) */\n      add(0x20, mload(0x40))\n      tag_58\n      swap2\n      swap1\n      tag_59\n      jump\t// in\n    tag_58:\n      mload(0x40)\n      0x20\n      dup2\n      dup4\n      sub\n      sub\n      dup2\n      mstore\n      swap1\n      0x40\n      mstore\n        /* \"Code Test/Test2.sol\":3753:3787  keccak256(abi.encodePacked(_name)) */\n      dup1\n      mload\n      swap1\n      0x20\n      add\n      keccak256\n        /* \"Code Test/Test2.sol\":3731:3739  students */\n      0x00\n        /* \"Code Test/Test2.sol\":3740:3741  i */\n      dup3\n        /* \"Code Test/Test2.sol\":3731:3742  students[i] */\n      dup2\n      sload\n      dup2\n      lt\n      tag_60\n      jumpi\n      tag_61\n      tag_62\n      jump\t// in\n    tag_61:\n    tag_60:\n      swap1\n      0x00\n      mstore\n      keccak256(0x00, 0x20)\n      swap1\n      0x05\n      mul\n      add\n        /* \"Code Test/Test2.sol\":3731:3747  students[i].name */\n      0x00\n      add\n        /* \"Code Test/Test2.sol\":3714:3748  abi.encodePacked(students[i].name) */\n      add(0x20, mload(0x40))\n      tag_64\n      swap2\n      swap1\n      tag_65\n      jump\t// in\n    tag_64:\n      mload(0x40)\n      0x20\n      dup2\n      dup4\n      sub\n      sub\n      dup2\n      mstore\n      swap1\n      0x40\n      mstore\n        /* \"Code Test/Test2.sol\":3704:3749  keccak256(abi.encodePacked(students[i].name)) */\n      dup1\n      mload\n      swap1\n      0x20\n      add\n      keccak256\n        /* \"Code Test/Test2.sol\":3704:3787  keccak256(abi.encodePacked(students[i].name)) == keccak256(abi.encodePacked(_name)) */\n      sub\n        /* \"Code Test/Test2.sol\":3701:3846  if(keccak256(abi.encodePacked(students[i].name)) == keccak256(abi.encodePacked(_name))) {... */\n      tag_66\n      jumpi\n        /* \"Code Test/Test2.sol\":3814:3822  students */\n      0x00\n        /* \"Code Test/Test2.sol\":3823:3824  i */\n      dup2\n        /* \"Code Test/Test2.sol\":3814:3825  students[i] */\n      dup2\n      sload\n      dup2\n      lt\n      tag_67\n      jumpi\n      tag_68\n      tag_62\n      jump\t// in\n    tag_68:\n    tag_67:\n      swap1\n      0x00\n      mstore\n      keccak256(0x00, 0x20)\n      swap1\n      0x05\n      mul\n      add\n        /* \"Code Test/Test2.sol\":3814:3831  students[i].score */\n      0x02\n      add\n      sload\n        /* \"Code Test/Test2.sol\":3807:3831  return students[i].score */\n      swap2\n      pop\n      pop\n      jump(tag_51)\n        /* \"Code Test/Test2.sol\":3701:3846  if(keccak256(abi.encodePacked(students[i].name)) == keccak256(abi.encodePacked(_name))) {... */\n    tag_66:\n        /* \"Code Test/Test2.sol\":3682:3685  i++ */\n      dup1\n      dup1\n      0x01\n      add\n      swap2\n      pop\n      pop\n        /* \"Code Test/Test2.sol\":3649:3856  for(uint i=0; i<students.length; i++) {... */\n      jump(tag_55)\n    tag_56:\n      pop\n        /* \"Code Test/Test2.sol\":3521:3861  function getScore(string memory _name) public view returns(uint) {... */\n    tag_51:\n      swap2\n      swap1\n      pop\n      jump\t// out\n        /* \"Code Test/Test2.sol\":4910:5590  function Flists() public view returns(uint, student[] memory) {... */\n    tag_20:\n        /* \"Code Test/Test2.sol\":4948:4952  uint */\n      0x00\n        /* \"Code Test/Test2.sol\":4954:4970  student[] memory */\n      0x60\n        /* \"Code Test/Test2.sol\":5008:5009  0 */\n      0x00\n        /* \"Code Test/Test2.sol\":4990:4998  students */\n      dup1\n        /* \"Code Test/Test2.sol\":4990:5005  students.length */\n      dup1\n      sload\n      swap1\n      pop\n        /* \"Code Test/Test2.sol\":4990:5009  students.length > 0 */\n      gt\n        /* \"Code Test/Test2.sol\":4982:5021  require(students.length > 0, \"No data\") */\n      tag_71\n      jumpi\n      mload(0x40)\n      0x08c379a000000000000000000000000000000000000000000000000000000000\n      dup2\n      mstore\n      0x04\n      add\n      tag_72\n      swap1\n      tag_73\n      jump\t// in\n    tag_72:\n      mload(0x40)\n      dup1\n      swap2\n      sub\n      swap1\n      revert\n    tag_71:\n        /* \"Code Test/Test2.sol\":5040:5046  uint F */\n      0x00\n        /* \"Code Test/Test2.sol\":5060:5066  uint i */\n      dup1\n        /* \"Code Test/Test2.sol\":5067:5068  0 */\n      0x00\n        /* \"Code Test/Test2.sol\":5060:5068  uint i=0 */\n      swap1\n      pop\n        /* \"Code Test/Test2.sol\":5056:5238  for(uint i=0; i<students.length;i++){... */\n    tag_74:\n        /* \"Code Test/Test2.sol\":5072:5080  students */\n      0x00\n        /* \"Code Test/Test2.sol\":5072:5087  students.length */\n      dup1\n      sload\n      swap1\n      pop\n        /* \"Code Test/Test2.sol\":5070:5071  i */\n      dup2\n        /* \"Code Test/Test2.sol\":5070:5087  i<students.length */\n      lt\n        /* \"Code Test/Test2.sol\":5056:5238  for(uint i=0; i<students.length;i++){... */\n      iszero\n      tag_75\n      jumpi\n        /* \"Code Test/Test2.sol\":5169:5190  abi.encodePacked(\"F\") */\n      add(0x20, mload(0x40))\n      tag_77\n      swap1\n      tag_78\n      jump\t// in\n    tag_77:\n      mload(0x40)\n      0x20\n      dup2\n      dup4\n      sub\n      sub\n      dup2\n      mstore\n      swap1\n      0x40\n      mstore\n        /* \"Code Test/Test2.sol\":5159:5191  keccak256(abi.encodePacked(\"F\")) */\n      dup1\n      mload\n      swap1\n      0x20\n      add\n      keccak256\n        /* \"Code Test/Test2.sol\":5136:5144  students */\n      0x00\n        /* \"Code Test/Test2.sol\":5145:5146  i */\n      dup3\n        /* \"Code Test/Test2.sol\":5136:5147  students[i] */\n      dup2\n      sload\n      dup2\n      lt\n      tag_79\n      jumpi\n      tag_80\n      tag_62\n      jump\t// in\n    tag_80:\n    tag_79:\n      swap1\n      0x00\n      mstore\n      keccak256(0x00, 0x20)\n      swap1\n      0x05\n      mul\n      add\n        /* \"Code Test/Test2.sol\":5136:5153  students[i].grade */\n      0x03\n      add\n        /* \"Code Test/Test2.sol\":5119:5154  abi.encodePacked(students[i].grade) */\n      add(0x20, mload(0x40))\n      tag_82\n      swap2\n      swap1\n      tag_65\n      jump\t// in\n    tag_82:\n      mload(0x40)\n      0x20\n      dup2\n      dup4\n      sub\n      sub\n      dup2\n      mstore\n      swap1\n      0x40\n      mstore\n        /* \"Code Test/Test2.sol\":5109:5155  keccak256(abi.encodePacked(students[i].grade)) */\n      dup1\n      mload\n      swap1\n      0x20\n      add\n      keccak256\n        /* \"Code Test/Test2.sol\":5109:5191  keccak256(abi.encodePacked(students[i].grade)) == keccak256(abi.encodePacked(\"F\")) */\n      sub\n        /* \"Code Test/Test2.sol\":5106:5228  if(keccak256(abi.encodePacked(students[i].grade)) == keccak256(abi.encodePacked(\"F\"))){... */\n      tag_83\n      jumpi\n        /* \"Code Test/Test2.sol\":5210:5213  F++ */\n      dup2\n      dup1\n      tag_84\n      swap1\n      tag_85\n      jump\t// in\n    tag_84:\n      swap3\n      pop\n      pop\n        /* \"Code Test/Test2.sol\":5106:5228  if(keccak256(abi.encodePacked(students[i].grade)) == keccak256(abi.encodePacked(\"F\"))){... */\n    tag_83:\n        /* \"Code Test/Test2.sol\":5088:5091  i++ */\n      dup1\n      dup1\n      0x01\n      add\n      swap2\n      pop\n      pop\n        /* \"Code Test/Test2.sol\":5056:5238  for(uint i=0; i<students.length;i++){... */\n      jump(tag_74)\n    tag_75:\n      pop\n        /* \"Code Test/Test2.sol\":5249:5275  student[] memory FStudents */\n      0x00\n        /* \"Code Test/Test2.sol\":5292:5293  F */\n      dup2\n        /* \"Code Test/Test2.sol\":5278:5294  new student[](F) */\n      0xffffffffffffffff\n      dup2\n      gt\n      iszero\n      tag_86\n      jumpi\n      tag_87\n      tag_88\n      jump\t// in\n    tag_87:\n    tag_86:\n      mload(0x40)\n      swap1\n      dup1\n      dup3\n      mstore\n      dup1\n      0x20\n      mul\n      0x20\n      add\n      dup3\n      add\n      0x40\n      mstore\n      dup1\n      iszero\n      tag_89\n      jumpi\n      dup2\n      0x20\n      add\n    tag_90:\n      tag_91\n      tag_92\n      jump\t// in\n    tag_91:\n      dup2\n      mstore\n      0x20\n      add\n      swap1\n      0x01\n      swap1\n      sub\n      swap1\n      dup2\n      tag_90\n      jumpi\n      swap1\n      pop\n    tag_89:\n      pop\n        /* \"Code Test/Test2.sol\":5249:5294  student[] memory FStudents = new student[](F) */\n      swap1\n      pop\n        /* \"Code Test/Test2.sol\":5308:5314  uint i */\n      0x00\n        /* \"Code Test/Test2.sol\":5304:5552  for(uint i=0; i<students.length;i++){... */\n    tag_93:\n        /* \"Code Test/Test2.sol\":5320:5328  students */\n      0x00\n        /* \"Code Test/Test2.sol\":5320:5335  students.length */\n      dup1\n      sload\n      swap1\n      pop\n        /* \"Code Test/Test2.sol\":5318:5319  i */\n      dup2\n        /* \"Code Test/Test2.sol\":5318:5335  i<students.length */\n      lt\n        /* \"Code Test/Test2.sol\":5304:5552  for(uint i=0; i<students.length;i++){... */\n      iszero\n      tag_94\n      jumpi\n        /* \"Code Test/Test2.sol\":5354:5360  uint j */\n      0x00\n        /* \"Code Test/Test2.sol\":5439:5460  abi.encodePacked(\"F\") */\n      add(0x20, mload(0x40))\n      tag_96\n      swap1\n      tag_78\n      jump\t// in\n    tag_96:\n      mload(0x40)\n      0x20\n      dup2\n      dup4\n      sub\n      sub\n      dup2\n      mstore\n      swap1\n      0x40\n      mstore\n        /* \"Code Test/Test2.sol\":5429:5461  keccak256(abi.encodePacked(\"F\")) */\n      dup1\n      mload\n      swap1\n      0x20\n      add\n      keccak256\n        /* \"Code Test/Test2.sol\":5406:5414  students */\n      0x00\n        /* \"Code Test/Test2.sol\":5415:5416  i */\n      dup4\n        /* \"Code Test/Test2.sol\":5406:5417  students[i] */\n      dup2\n      sload\n      dup2\n      lt\n      tag_97\n      jumpi\n      tag_98\n      tag_62\n      jump\t// in\n    tag_98:\n    tag_97:\n      swap1\n      0x00\n      mstore\n      keccak256(0x00, 0x20)\n      swap1\n      0x05\n      mul\n      add\n        /* \"Code Test/Test2.sol\":5406:5423  students[i].grade */\n      0x03\n      add\n        /* \"Code Test/Test2.sol\":5389:5424  abi.encodePacked(students[i].grade) */\n      add(0x20, mload(0x40))\n      tag_100\n      swap2\n      swap1\n      tag_65\n      jump\t// in\n    tag_100:\n      mload(0x40)\n      0x20\n      dup2\n      dup4\n      sub\n      sub\n      dup2\n      mstore\n      swap1\n      0x40\n      mstore\n        /* \"Code Test/Test2.sol\":5379:5425  keccak256(abi.encodePacked(students[i].grade)) */\n      dup1\n      mload\n      swap1\n      0x20\n      add\n      keccak256\n        /* \"Code Test/Test2.sol\":5379:5461  keccak256(abi.encodePacked(students[i].grade)) == keccak256(abi.encodePacked(\"F\")) */\n      sub\n        /* \"Code Test/Test2.sol\":5376:5542  if(keccak256(abi.encodePacked(students[i].grade)) == keccak256(abi.encodePacked(\"F\"))){... */\n      tag_101\n      jumpi\n        /* \"Code Test/Test2.sol\":5495:5503  students */\n      0x00\n        /* \"Code Test/Test2.sol\":5504:5505  i */\n      dup3\n        /* \"Code Test/Test2.sol\":5495:5506  students[i] */\n      dup2\n      sload\n      dup2\n      lt\n      tag_102\n      jumpi\n      tag_103\n      tag_62\n      jump\t// in\n    tag_103:\n    tag_102:\n      swap1\n      0x00\n      mstore\n      keccak256(0x00, 0x20)\n      swap1\n      0x05\n      mul\n      add\n        /* \"Code Test/Test2.sol\":5480:5506  FStudents[j] = students[i] */\n      mload(0x40)\n      dup1\n      0xa0\n      add\n      0x40\n      mstore\n      swap1\n      dup2\n      0x00\n      dup3\n      add\n      dup1\n      sload\n      tag_105\n      swap1\n      tag_106\n      jump\t// in\n    tag_105:\n      dup1\n      0x1f\n      add\n      0x20\n      dup1\n      swap2\n      div\n      mul\n      0x20\n      add\n      mload(0x40)\n      swap1\n      dup2\n      add\n      0x40\n      mstore\n      dup1\n      swap3\n      swap2\n      swap1\n      dup2\n      dup2\n      mstore\n      0x20\n      add\n      dup3\n      dup1\n      sload\n      tag_107\n      swap1\n      tag_106\n      jump\t// in\n    tag_107:\n      dup1\n      iszero\n      tag_108\n      jumpi\n      dup1\n      0x1f\n      lt\n      tag_109\n      jumpi\n      0x0100\n      dup1\n      dup4\n      sload\n      div\n      mul\n      dup4\n      mstore\n      swap2\n      0x20\n      add\n      swap2\n      jump(tag_108)\n    tag_109:\n      dup3\n      add\n      swap2\n      swap1\n      0x00\n      mstore\n      keccak256(0x00, 0x20)\n      swap1\n    tag_110:\n      dup2\n      sload\n      dup2\n      mstore\n      swap1\n      0x01\n      add\n      swap1\n      0x20\n      add\n      dup1\n      dup4\n      gt\n      tag_110\n      jumpi\n      dup3\n      swap1\n      sub\n      0x1f\n      and\n      dup3\n      add\n      swap2\n    tag_108:\n      pop\n      pop\n      pop\n      pop\n      pop\n      dup2\n      mstore\n      0x20\n      add\n      0x01\n      dup3\n      add\n      sload\n      dup2\n      mstore\n      0x20\n      add\n      0x02\n      dup3\n      add\n      sload\n      dup2\n      mstore\n      0x20\n      add\n      0x03\n      dup3\n      add\n      dup1\n      sload\n      tag_111\n      swap1\n      tag_106\n      jump\t// in\n    tag_111:\n      dup1\n      0x1f\n      add\n      0x20\n      dup1\n      swap2\n      div\n      mul\n      0x20\n      add\n      mload(0x40)\n      swap1\n      dup2\n      add\n      0x40\n      mstore\n      dup1\n      swap3\n      swap2\n      swap1\n      dup2\n      dup2\n      mstore\n      0x20\n      add\n      dup3\n      dup1\n      sload\n      tag_112\n      swap1\n      tag_106\n      jump\t// in\n    tag_112:\n      dup1\n      iszero\n      tag_113\n      jumpi\n      dup1\n      0x1f\n      lt\n      tag_114\n      jumpi\n      0x0100\n      dup1\n      dup4\n      sload\n      div\n      mul\n      dup4\n      mstore\n      swap2\n      0x20\n      add\n      swap2\n      jump(tag_113)\n    tag_114:\n      dup3\n      add\n      swap2\n      swap1\n      0x00\n      mstore\n      keccak256(0x00, 0x20)\n      swap1\n    tag_115:\n      dup2\n      sload\n      dup2\n      mstore\n      swap1\n      0x01\n      add\n      swap1\n      0x20\n      add\n      dup1\n      dup4\n      gt\n      tag_115\n      jumpi\n      dup3\n      swap1\n      sub\n      0x1f\n      and\n      dup3\n      add\n      swap2\n    tag_113:\n      pop\n      pop\n      pop\n      pop\n      pop\n      dup2\n      mstore\n      0x20\n      add\n      0x04\n      dup3\n      add\n      dup1\n      sload\n      dup1\n      0x20\n      mul\n      0x20\n      add\n      mload(0x40)\n      swap1\n      dup2\n      add\n      0x40\n      mstore\n      dup1\n      swap3\n      swap2\n      swap1\n      dup2\n      dup2\n      mstore\n      0x20\n      add\n      0x00\n      swap1\n    tag_116:\n      dup3\n      dup3\n      lt\n      iszero\n      tag_117\n      jumpi\n      dup4\n      dup3\n      swap1\n      0x00\n      mstore\n      keccak256(0x00, 0x20)\n      add\n      dup1\n      sload\n      tag_119\n      swap1\n      tag_106\n      jump\t// in\n    tag_119:\n      dup1\n      0x1f\n      add\n      0x20\n      dup1\n      swap2\n      div\n      mul\n      0x20\n      add\n      mload(0x40)\n      swap1\n      dup2\n      add\n      0x40\n      mstore\n      dup1\n      swap3\n      swap2\n      swap1\n      dup2\n      dup2\n      mstore\n      0x20\n      add\n      dup3\n      dup1\n      sload\n      tag_120\n      swap1\n      tag_106\n      jump\t// in\n    tag_120:\n      dup1\n      iszero\n      tag_121\n      jumpi\n      dup1\n      0x1f\n      lt\n      tag_122\n      jumpi\n      0x0100\n      dup1\n      dup4\n      sload\n      div\n      mul\n      dup4\n      mstore\n      swap2\n      0x20\n      add\n      swap2\n      jump(tag_121)\n    tag_122:\n      dup3\n      add\n      swap2\n      swap1\n      0x00\n      mstore\n      keccak256(0x00, 0x20)\n      swap1\n    tag_123:\n      dup2\n      sload\n      dup2\n      mstore\n      swap1\n      0x01\n      add\n      swap1\n      0x20\n      add\n      dup1\n      dup4\n      gt\n      tag_123\n      jumpi\n      dup3\n      swap1\n      sub\n      0x1f\n      and\n      dup3\n      add\n      swap2\n    tag_121:\n      pop\n      pop\n      pop\n      pop\n      pop\n      dup2\n      mstore\n      0x20\n      add\n      swap1\n      0x01\n      add\n      swap1\n      jump(tag_116)\n    tag_117:\n      pop\n      pop\n      pop\n      pop\n      dup2\n      mstore\n      pop\n      pop\n        /* \"Code Test/Test2.sol\":5480:5489  FStudents */\n      dup4\n        /* \"Code Test/Test2.sol\":5490:5491  j */\n      dup3\n        /* \"Code Test/Test2.sol\":5480:5492  FStudents[j] */\n      dup2\n      mload\n      dup2\n      lt\n      tag_124\n      jumpi\n      tag_125\n      tag_62\n      jump\t// in\n    tag_125:\n    tag_124:\n      0x20\n      mul\n      0x20\n      add\n      add\n        /* \"Code Test/Test2.sol\":5480:5506  FStudents[j] = students[i] */\n      dup2\n      swap1\n      mstore\n      pop\n        /* \"Code Test/Test2.sol\":5524:5527  j++ */\n      dup1\n      dup1\n      tag_126\n      swap1\n      tag_85\n      jump\t// in\n    tag_126:\n      swap2\n      pop\n      pop\n        /* \"Code Test/Test2.sol\":5376:5542  if(keccak256(abi.encodePacked(students[i].grade)) == keccak256(abi.encodePacked(\"F\"))){... */\n    tag_101:\n        /* \"Code Test/Test2.sol\":5340:5552  {... */\n      pop\n        /* \"Code Test/Test2.sol\":5336:5339  i++ */\n      dup1\n      dup1\n      0x01\n      add\n      swap2\n      pop\n      pop\n        /* \"Code Test/Test2.sol\":5304:5552  for(uint i=0; i<students.length;i++){... */\n      jump(tag_93)\n    tag_94:\n      pop\n        /* \"Code Test/Test2.sol\":5569:5570  F */\n      dup2\n        /* \"Code Test/Test2.sol\":5572:5581  FStudents */\n      dup2\n        /* \"Code Test/Test2.sol\":5561:5582  return (F, FStudents) */\n      swap4\n      pop\n      swap4\n      pop\n      pop\n      pop\n        /* \"Code Test/Test2.sol\":4910:5590  function Flists() public view returns(uint, student[] memory) {... */\n      swap1\n      swap2\n      jump\t// out\n        /* \"Code Test/Test2.sol\":2840:2951  function getStudent(uint _number) public view returns(student memory){... */\n    tag_26:\n        /* \"Code Test/Test2.sol\":2894:2908  student memory */\n      tag_127\n      tag_92\n      jump\t// in\n    tag_127:\n        /* \"Code Test/Test2.sol\":2926:2934  students */\n      0x00\n        /* \"Code Test/Test2.sol\":2943:2944  1 */\n      0x01\n        /* \"Code Test/Test2.sol\":2935:2942  _number */\n      dup4\n        /* \"Code Test/Test2.sol\":2935:2944  _number-1 */\n      tag_129\n      swap2\n      swap1\n      tag_130\n      jump\t// in\n    tag_129:\n        /* \"Code Test/Test2.sol\":2926:2945  students[_number-1] */\n      dup2\n      sload\n      dup2\n      lt\n      tag_131\n      jumpi\n      tag_132\n      tag_62\n      jump\t// in\n    tag_132:\n    tag_131:\n      swap1\n      0x00\n      mstore\n      keccak256(0x00, 0x20)\n      swap1\n      0x05\n      mul\n      add\n        /* \"Code Test/Test2.sol\":2919:2945  return students[_number-1] */\n      mload(0x40)\n      dup1\n      0xa0\n      add\n      0x40\n      mstore\n      swap1\n      dup2\n      0x00\n      dup3\n      add\n      dup1\n      sload\n      tag_134\n      swap1\n      tag_106\n      jump\t// in\n    tag_134:\n      dup1\n      0x1f\n      add\n      0x20\n      dup1\n      swap2\n      div\n      mul\n      0x20\n      add\n      mload(0x40)\n      swap1\n      dup2\n      add\n      0x40\n      mstore\n      dup1\n      swap3\n      swap2\n      swap1\n      dup2\n      dup2\n      mstore\n      0x20\n      add\n      dup3\n      dup1\n      sload\n      tag_135\n      swap1\n      tag_106\n      jump\t// in\n    tag_135:\n      dup1\n      iszero\n      tag_136\n      jumpi\n      dup1\n      0x1f\n      lt\n      tag_137\n      jumpi\n      0x0100\n      dup1\n      dup4\n      sload\n      div\n      mul\n      dup4\n      mstore\n      swap2\n      0x20\n      add\n      swap2\n      jump(tag_136)\n    tag_137:\n      dup3\n      add\n      swap2\n      swap1\n      0x00\n      mstore\n      keccak256(0x00, 0x20)\n      swap1\n    tag_138:\n      dup2\n      sload\n      dup2\n      mstore\n      swap1\n      0x01\n      add\n      swap1\n      0x20\n      add\n      dup1\n      dup4\n      gt\n      tag_138\n      jumpi\n      dup3\n      swap1\n      sub\n      0x1f\n      and\n      dup3\n      add\n      swap2\n    tag_136:\n      pop\n      pop\n      pop\n      pop\n      pop\n      dup2\n      mstore\n      0x20\n      add\n      0x01\n      dup3\n      add\n      sload\n      dup2\n      mstore\n      0x20\n      add\n      0x02\n      dup3\n      add\n      sload\n      dup2\n      mstore\n      0x20\n      add\n      0x03\n      dup3\n      add\n      dup1\n      sload\n      tag_139\n      swap1\n      tag_106\n      jump\t// in\n    tag_139:\n      dup1\n      0x1f\n      add\n      0x20\n      dup1\n      swap2\n      div\n      mul\n      0x20\n      add\n      mload(0x40)\n      swap1\n      dup2\n      add\n      0x40\n      mstore\n      dup1\n      swap3\n      swap2\n      swap1\n      dup2\n      dup2\n      mstore\n      0x20\n      add\n      dup3\n      dup1\n      sload\n      tag_140\n      swap1\n      tag_106\n      jump\t// in\n    tag_140:\n      dup1\n      iszero\n      tag_141\n      jumpi\n      dup1\n      0x1f\n      lt\n      tag_142\n      jumpi\n      0x0100\n      dup1\n      dup4\n      sload\n      div\n      mul\n      dup4\n      mstore\n      swap2\n      0x20\n      add\n      swap2\n      jump(tag_141)\n    tag_142:\n      dup3\n      add\n      swap2\n      swap1\n      0x00\n      mstore\n      keccak256(0x00, 0x20)\n      swap1\n    tag_143:\n      dup2\n      sload\n      dup2\n      mstore\n      swap1\n      0x01\n      add\n      swap1\n      0x20\n      add\n      dup1\n      dup4\n      gt\n      tag_143\n      jumpi\n      dup3\n      swap1\n      sub\n      0x1f\n      and\n      dup3\n      add\n      swap2\n    tag_141:\n      pop\n      pop\n      pop\n      pop\n      pop\n      dup2\n      mstore\n      0x20\n      add\n      0x04\n      dup3\n      add\n      dup1\n      sload\n      dup1\n      0x20\n      mul\n      0x20\n      add\n      mload(0x40)\n      swap1\n      dup2\n      add\n      0x40\n      mstore\n      dup1\n      swap3\n      swap2\n      swap1\n      dup2\n      dup2\n      mstore\n      0x20\n      add\n      0x00\n      swap1\n    tag_144:\n      dup3\n      dup3\n      lt\n      iszero\n      tag_145\n      jumpi\n      dup4\n      dup3\n      swap1\n      0x00\n      mstore\n      keccak256(0x00, 0x20)\n      add\n      dup1\n      sload\n      tag_147\n      swap1\n      tag_106\n      jump\t// in\n    tag_147:\n      dup1\n      0x1f\n      add\n      0x20\n      dup1\n      swap2\n      div\n      mul\n      0x20\n      add\n      mload(0x40)\n      swap1\n      dup2\n      add\n      0x40\n      mstore\n      dup1\n      swap3\n      swap2\n      swap1\n      dup2\n      dup2\n      mstore\n      0x20\n      add\n      dup3\n      dup1\n      sload\n      tag_148\n      swap1\n      tag_106\n      jump\t// in\n    tag_148:\n      dup1\n      iszero\n      tag_149\n      jumpi\n      dup1\n      0x1f\n      lt\n      tag_150\n      jumpi\n      0x0100\n      dup1\n      dup4\n      sload\n      div\n      mul\n      dup4\n      mstore\n      swap2\n      0x20\n      add\n      swap2\n      jump(tag_149)\n    tag_150:\n      dup3\n      add\n      swap2\n      swap1\n      0x00\n      mstore\n      keccak256(0x00, 0x20)\n      swap1\n    tag_151:\n      dup2\n      sload\n      dup2\n      mstore\n      swap1\n      0x01\n      add\n      swap1\n      0x20\n      add\n      dup1\n      dup4\n      gt\n      tag_151\n      jumpi\n      dup3\n      swap1\n      sub\n      0x1f\n      and\n      dup3\n      add\n      swap2\n    tag_149:\n      pop\n      pop\n      pop\n      pop\n      pop\n      dup2\n      mstore\n      0x20\n      add\n      swap1\n      0x01\n      add\n      swap1\n      jump(tag_144)\n    tag_145:\n      pop\n      pop\n      pop\n      pop\n      dup2\n      mstore\n      pop\n      pop\n      swap1\n      pop\n        /* \"Code Test/Test2.sol\":2840:2951  function getStudent(uint _number) public view returns(student memory){... */\n      swap2\n      swap1\n      pop\n      jump\t// out\n        /* \"Code Test/Test2.sol\":4350:4557  function getAvgScore() public view returns(uint) {... */\n    tag_30:\n        /* \"Code Test/Test2.sol\":4393:4397  uint */\n      0x00\n        /* \"Code Test/Test2.sol\":4409:4417  uint sum */\n      dup1\n        /* \"Code Test/Test2.sol\":4431:4437  uint i */\n      0x00\n        /* \"Code Test/Test2.sol\":4427:4512  for(uint i=0;i<students.length;i++) {... */\n    tag_153:\n        /* \"Code Test/Test2.sol\":4442:4450  students */\n      0x00\n        /* \"Code Test/Test2.sol\":4442:4457  students.length */\n      dup1\n      sload\n      swap1\n      pop\n        /* \"Code Test/Test2.sol\":4440:4441  i */\n      dup2\n        /* \"Code Test/Test2.sol\":4440:4457  i<students.length */\n      lt\n        /* \"Code Test/Test2.sol\":4427:4512  for(uint i=0;i<students.length;i++) {... */\n      iszero\n      tag_154\n      jumpi\n        /* \"Code Test/Test2.sol\":4484:4492  students */\n      0x00\n        /* \"Code Test/Test2.sol\":4493:4494  i */\n      dup2\n        /* \"Code Test/Test2.sol\":4484:4495  students[i] */\n      dup2\n      sload\n      dup2\n      lt\n      tag_156\n      jumpi\n      tag_157\n      tag_62\n      jump\t// in\n    tag_157:\n    tag_156:\n      swap1\n      0x00\n      mstore\n      keccak256(0x00, 0x20)\n      swap1\n      0x05\n      mul\n      add\n        /* \"Code Test/Test2.sol\":4484:4501  students[i].score */\n      0x02\n      add\n      sload\n        /* \"Code Test/Test2.sol\":4477:4501  sum += students[i].score */\n      dup3\n      tag_159\n      swap2\n      swap1\n      tag_160\n      jump\t// in\n    tag_159:\n      swap2\n      pop\n        /* \"Code Test/Test2.sol\":4458:4461  i++ */\n      dup1\n      dup1\n      0x01\n      add\n      swap2\n      pop\n      pop\n        /* \"Code Test/Test2.sol\":4427:4512  for(uint i=0;i<students.length;i++) {... */\n      jump(tag_153)\n    tag_154:\n      pop\n        /* \"Code Test/Test2.sol\":4535:4543  students */\n      0x00\n        /* \"Code Test/Test2.sol\":4535:4550  students.length */\n      dup1\n      sload\n      swap1\n      pop\n        /* \"Code Test/Test2.sol\":4529:4532  sum */\n      dup2\n        /* \"Code Test/Test2.sol\":4529:4550  sum / students.length */\n      tag_161\n      swap2\n      swap1\n      tag_162\n      jump\t// in\n    tag_161:\n        /* \"Code Test/Test2.sol\":4522:4550  return sum / students.length */\n      swap2\n      pop\n      pop\n        /* \"Code Test/Test2.sol\":4350:4557  function getAvgScore() public view returns(uint) {... */\n      swap1\n      jump\t// out\n        /* \"Code Test/Test2.sol\":4698:4800  function teacherSelfEvaluation() public view returns(bool) {... */\n    tag_33:\n        /* \"Code Test/Test2.sol\":4751:4755  bool */\n      0x00\n        /* \"Code Test/Test2.sol\":4791:4793  70 */\n      0x46\n        /* \"Code Test/Test2.sol\":4774:4787  getAvgScore() */\n      tag_164\n        /* \"Code Test/Test2.sol\":4774:4785  getAvgScore */\n      tag_30\n        /* \"Code Test/Test2.sol\":4774:4787  getAvgScore() */\n      jump\t// in\n    tag_164:\n        /* \"Code Test/Test2.sol\":4774:4793  getAvgScore() >= 70 */\n      lt\n      iszero\n        /* \"Code Test/Test2.sol\":4767:4793  return getAvgScore() >= 70 */\n      swap1\n      pop\n        /* \"Code Test/Test2.sol\":4698:4800  function teacherSelfEvaluation() public view returns(bool) {... */\n      swap1\n      jump\t// out\n        /* \"Code Test/Test2.sol\":3957:4044  function getNumbers() public view returns (uint) {... */\n    tag_37:\n        /* \"Code Test/Test2.sol\":4000:4004  uint */\n      0x00\n        /* \"Code Test/Test2.sol\":4023:4031  students */\n      dup1\n        /* \"Code Test/Test2.sol\":4023:4038  students.length */\n      dup1\n      sload\n      swap1\n      pop\n        /* \"Code Test/Test2.sol\":4016:4038  return students.length */\n      swap1\n      pop\n        /* \"Code Test/Test2.sol\":3957:4044  function getNumbers() public view returns (uint) {... */\n      swap1\n      jump\t// out\n        /* \"Code Test/Test2.sol\":3064:3408  function getStudent2(string memory _name) public view returns(student memory) {... */\n    tag_41:\n        /* \"Code Test/Test2.sol\":3126:3140  student memory */\n      tag_166\n      tag_92\n      jump\t// in\n    tag_166:\n        /* \"Code Test/Test2.sol\":3178:3179  0 */\n      0x00\n        /* \"Code Test/Test2.sol\":3160:3168  students */\n      dup1\n        /* \"Code Test/Test2.sol\":3160:3175  students.length */\n      dup1\n      sload\n      swap1\n      pop\n        /* \"Code Test/Test2.sol\":3160:3179  students.length > 0 */\n      gt\n        /* \"Code Test/Test2.sol\":3152:3191  require(students.length > 0, \"no data\") */\n      tag_168\n      jumpi\n      mload(0x40)\n      0x08c379a000000000000000000000000000000000000000000000000000000000\n      dup2\n      mstore\n      0x04\n      add\n      tag_169\n      swap1\n      tag_54\n      jump\t// in\n    tag_169:\n      mload(0x40)\n      dup1\n      swap2\n      sub\n      swap1\n      revert\n    tag_168:\n        /* \"Code Test/Test2.sol\":3206:3212  uint i */\n      0x00\n        /* \"Code Test/Test2.sol\":3202:3403  for(uint i=0; i<students.length; i++) {... */\n    tag_170:\n        /* \"Code Test/Test2.sol\":3218:3226  students */\n      0x00\n        /* \"Code Test/Test2.sol\":3218:3233  students.length */\n      dup1\n      sload\n      swap1\n      pop\n        /* \"Code Test/Test2.sol\":3216:3217  i */\n      dup2\n        /* \"Code Test/Test2.sol\":3216:3233  i<students.length */\n      lt\n        /* \"Code Test/Test2.sol\":3202:3403  for(uint i=0; i<students.length; i++) {... */\n      iszero\n      tag_171\n      jumpi\n        /* \"Code Test/Test2.sol\":3333:3338  _name */\n      dup3\n        /* \"Code Test/Test2.sol\":3316:3339  abi.encodePacked(_name) */\n      add(0x20, mload(0x40))\n      tag_173\n      swap2\n      swap1\n      tag_59\n      jump\t// in\n    tag_173:\n      mload(0x40)\n      0x20\n      dup2\n      dup4\n      sub\n      sub\n      dup2\n      mstore\n      swap1\n      0x40\n      mstore\n        /* \"Code Test/Test2.sol\":3306:3340  keccak256(abi.encodePacked(_name)) */\n      dup1\n      mload\n      swap1\n      0x20\n      add\n      keccak256\n        /* \"Code Test/Test2.sol\":3284:3292  students */\n      0x00\n        /* \"Code Test/Test2.sol\":3293:3294  i */\n      dup3\n        /* \"Code Test/Test2.sol\":3284:3295  students[i] */\n      dup2\n      sload\n      dup2\n      lt\n      tag_174\n      jumpi\n      tag_175\n      tag_62\n      jump\t// in\n    tag_175:\n    tag_174:\n      swap1\n      0x00\n      mstore\n      keccak256(0x00, 0x20)\n      swap1\n      0x05\n      mul\n      add\n        /* \"Code Test/Test2.sol\":3284:3300  students[i].name */\n      0x00\n      add\n        /* \"Code Test/Test2.sol\":3267:3301  abi.encodePacked(students[i].name) */\n      add(0x20, mload(0x40))\n      tag_177\n      swap2\n      swap1\n      tag_65\n      jump\t// in\n    tag_177:\n      mload(0x40)\n      0x20\n      dup2\n      dup4\n      sub\n      sub\n      dup2\n      mstore\n      swap1\n      0x40\n      mstore\n        /* \"Code Test/Test2.sol\":3257:3302  keccak256(abi.encodePacked(students[i].name)) */\n      dup1\n      mload\n      swap1\n      0x20\n      add\n      keccak256\n        /* \"Code Test/Test2.sol\":3257:3340  keccak256(abi.encodePacked(students[i].name)) == keccak256(abi.encodePacked(_name)) */\n      sub\n        /* \"Code Test/Test2.sol\":3254:3393  if(keccak256(abi.encodePacked(students[i].name)) == keccak256(abi.encodePacked(_name))) {... */\n      tag_178\n      jumpi\n        /* \"Code Test/Test2.sol\":3367:3375  students */\n      0x00\n        /* \"Code Test/Test2.sol\":3376:3377  i */\n      dup2\n        /* \"Code Test/Test2.sol\":3367:3378  students[i] */\n      dup2\n      sload\n      dup2\n      lt\n      tag_179\n      jumpi\n      tag_180\n      tag_62\n      jump\t// in\n    tag_180:\n    tag_179:\n      swap1\n      0x00\n      mstore\n      keccak256(0x00, 0x20)\n      swap1\n      0x05\n      mul\n      add\n        /* \"Code Test/Test2.sol\":3360:3378  return students[i] */\n      mload(0x40)\n      dup1\n      0xa0\n      add\n      0x40\n      mstore\n      swap1\n      dup2\n      0x00\n      dup3\n      add\n      dup1\n      sload\n      tag_182\n      swap1\n      tag_106\n      jump\t// in\n    tag_182:\n      dup1\n      0x1f\n      add\n      0x20\n      dup1\n      swap2\n      div\n      mul\n      0x20\n      add\n      mload(0x40)\n      swap1\n      dup2\n      add\n      0x40\n      mstore\n      dup1\n      swap3\n      swap2\n      swap1\n      dup2\n      dup2\n      mstore\n      0x20\n      add\n      dup3\n      dup1\n      sload\n      tag_183\n      swap1\n      tag_106\n      jump\t// in\n    tag_183:\n      dup1\n      iszero\n      tag_184\n      jumpi\n      dup1\n      0x1f\n      lt\n      tag_185\n      jumpi\n      0x0100\n      dup1\n      dup4\n      sload\n      div\n      mul\n      dup4\n      mstore\n      swap2\n      0x20\n      add\n      swap2\n      jump(tag_184)\n    tag_185:\n      dup3\n      add\n      swap2\n      swap1\n      0x00\n      mstore\n      keccak256(0x00, 0x20)\n      swap1\n    tag_186:\n      dup2\n      sload\n      dup2\n      mstore\n      swap1\n      0x01\n      add\n      swap1\n      0x20\n      add\n      dup1\n      dup4\n      gt\n      tag_186\n      jumpi\n      dup3\n      swap1\n      sub\n      0x1f\n      and\n      dup3\n      add\n      swap2\n    tag_184:\n      pop\n      pop\n      pop\n      pop\n      pop\n      dup2\n      mstore\n      0x20\n      add\n      0x01\n      dup3\n      add\n      sload\n      dup2\n      mstore\n      0x20\n      add\n      0x02\n      dup3\n      add\n      sload\n      dup2\n      mstore\n      0x20\n      add\n      0x03\n      dup3\n      add\n      dup1\n      sload\n      tag_187\n      swap1\n      tag_106\n      jump\t// in\n    tag_187:\n      dup1\n      0x1f\n      add\n      0x20\n      dup1\n      swap2\n      div\n      mul\n      0x20\n      add\n      mload(0x40)\n      swap1\n      dup2\n      add\n      0x40\n      mstore\n      dup1\n      swap3\n      swap2\n      swap1\n      dup2\n      dup2\n      mstore\n      0x20\n      add\n      dup3\n      dup1\n      sload\n      tag_188\n      swap1\n      tag_106\n      jump\t// in\n    tag_188:\n      dup1\n      iszero\n      tag_189\n      jumpi\n      dup1\n      0x1f\n      lt\n      tag_190\n      jumpi\n      0x0100\n      dup1\n      dup4\n      sload\n      div\n      mul\n      dup4\n      mstore\n      swap2\n      0x20\n      add\n      swap2\n      jump(tag_189)\n    tag_190:\n      dup3\n      add\n      swap2\n      swap1\n      0x00\n      mstore\n      keccak256(0x00, 0x20)\n      swap1\n    tag_191:\n      dup2\n      sload\n      dup2\n      mstore\n      swap1\n      0x01\n      add\n      swap1\n      0x20\n      add\n      dup1\n      dup4\n      gt\n      tag_191\n      jumpi\n      dup3\n      swap1\n      sub\n      0x1f\n      and\n      dup3\n      add\n      swap2\n    tag_189:\n      pop\n      pop\n      pop\n      pop\n      pop\n      dup2\n      mstore\n      0x20\n      add\n      0x04\n      dup3\n      add\n      dup1\n      sload\n      dup1\n      0x20\n      mul\n      0x20\n      add\n      mload(0x40)\n      swap1\n      dup2\n      add\n      0x40\n      mstore\n      dup1\n      swap3\n      swap2\n      swap1\n      dup2\n      dup2\n      mstore\n      0x20\n      add\n      0x00\n      swap1\n    tag_192:\n      dup3\n      dup3\n      lt\n      iszero\n      tag_193\n      jumpi\n      dup4\n      dup3\n      swap1\n      0x00\n      mstore\n      keccak256(0x00, 0x20)\n      add\n      dup1\n      sload\n      tag_195\n      swap1\n      tag_106\n      jump\t// in\n    tag_195:\n      dup1\n      0x1f\n      add\n      0x20\n      dup1\n      swap2\n      div\n      mul\n      0x20\n      add\n      mload(0x40)\n      swap1\n      dup2\n      add\n      0x40\n      mstore\n      dup1\n      swap3\n      swap2\n      swap1\n      dup2\n      dup2\n      mstore\n      0x20\n      add\n      dup3\n      dup1\n      sload\n      tag_196\n      swap1\n      tag_106\n      jump\t// in\n    tag_196:\n      dup1\n      iszero\n      tag_197\n      jumpi\n      dup1\n      0x1f\n      lt\n      tag_198\n      jumpi\n      0x0100\n      dup1\n      dup4\n      sload\n      div\n      mul\n      dup4\n      mstore\n      swap2\n      0x20\n      add\n      swap2\n      jump(tag_197)\n    tag_198:\n      dup3\n      add\n      swap2\n      swap1\n      0x00\n      mstore\n      keccak256(0x00, 0x20)\n      swap1\n    tag_199:\n      dup2\n      sload\n      dup2\n      mstore\n      swap1\n      0x01\n      add\n      swap1\n      0x20\n      add\n      dup1\n      dup4\n      gt\n      tag_199\n      jumpi\n      dup3\n      swap1\n      sub\n      0x1f\n      and\n      dup3\n      add\n      swap2\n    tag_197:\n      pop\n      pop\n      pop\n      pop\n      pop\n      dup2\n      mstore\n      0x20\n      add\n      swap1\n      0x01\n      add\n      swap1\n      jump(tag_192)\n    tag_193:\n      pop\n      pop\n      pop\n      pop\n      dup2\n      mstore\n      pop\n      pop\n      swap2\n      pop\n      pop\n      jump(tag_167)\n        /* \"Code Test/Test2.sol\":3254:3393  if(keccak256(abi.encodePacked(students[i].name)) == keccak256(abi.encodePacked(_name))) {... */\n    tag_178:\n        /* \"Code Test/Test2.sol\":3235:3238  i++ */\n      dup1\n      dup1\n      0x01\n      add\n      swap2\n      pop\n      pop\n        /* \"Code Test/Test2.sol\":3202:3403  for(uint i=0; i<students.length; i++) {... */\n      jump(tag_170)\n    tag_171:\n      pop\n        /* \"Code Test/Test2.sol\":3064:3408  function getStudent2(string memory _name) public view returns(student memory) {... */\n    tag_167:\n      swap2\n      swap1\n      pop\n      jump\t// out\n        /* \"Code Test/Test2.sol\":2239:2727  function addStudent(string memory _name, uint _score, string[] memory _classLists) public {... */\n    tag_46:\n        /* \"Code Test/Test2.sol\":2339:2350  uint number */\n      0x00\n        /* \"Code Test/Test2.sol\":2371:2372  1 */\n      0x01\n        /* \"Code Test/Test2.sol\":2353:2361  students */\n      0x00\n        /* \"Code Test/Test2.sol\":2353:2368  students.length */\n      dup1\n      sload\n      swap1\n      pop\n        /* \"Code Test/Test2.sol\":2353:2372  students.length + 1 */\n      tag_201\n      swap2\n      swap1\n      tag_160\n      jump\t// in\n    tag_201:\n        /* \"Code Test/Test2.sol\":2339:2372  uint number = students.length + 1 */\n      swap1\n      pop\n        /* \"Code Test/Test2.sol\":2382:2401  string memory grade */\n      0x00\n        /* \"Code Test/Test2.sol\":2382:2407  string memory grade = \"F\" */\n      mload(0x40)\n      dup1\n      0x40\n      add\n      0x40\n      mstore\n      dup1\n      0x01\n      dup2\n      mstore\n      0x20\n      add\n      0x4600000000000000000000000000000000000000000000000000000000000000\n      dup2\n      mstore\n      pop\n      swap1\n      pop\n        /* \"Code Test/Test2.sol\":2431:2433  90 */\n      0x5a\n        /* \"Code Test/Test2.sol\":2421:2427  _score */\n      dup5\n        /* \"Code Test/Test2.sol\":2421:2433  _score >= 90 */\n      lt\n        /* \"Code Test/Test2.sol\":2418:2648  if(_score >= 90) {... */\n      tag_202\n      jumpi\n        /* \"Code Test/Test2.sol\":2449:2460  grade = \"A\" */\n      mload(0x40)\n      dup1\n      0x40\n      add\n      0x40\n      mstore\n      dup1\n      0x01\n      dup2\n      mstore\n      0x20\n      add\n      0x4100000000000000000000000000000000000000000000000000000000000000\n      dup2\n      mstore\n      pop\n      swap1\n      pop\n        /* \"Code Test/Test2.sol\":2418:2648  if(_score >= 90) {... */\n      jump(tag_203)\n    tag_202:\n        /* \"Code Test/Test2.sol\":2490:2492  80 */\n      0x50\n        /* \"Code Test/Test2.sol\":2480:2486  _score */\n      dup5\n        /* \"Code Test/Test2.sol\":2480:2492  _score >= 80 */\n      lt\n        /* \"Code Test/Test2.sol\":2477:2648  if(_score >= 80) {... */\n      tag_204\n      jumpi\n        /* \"Code Test/Test2.sol\":2508:2519  grade = \"B\" */\n      mload(0x40)\n      dup1\n      0x40\n      add\n      0x40\n      mstore\n      dup1\n      0x01\n      dup2\n      mstore\n      0x20\n      add\n      0x4200000000000000000000000000000000000000000000000000000000000000\n      dup2\n      mstore\n      pop\n      swap1\n      pop\n        /* \"Code Test/Test2.sol\":2477:2648  if(_score >= 80) {... */\n      jump(tag_205)\n    tag_204:\n        /* \"Code Test/Test2.sol\":2549:2551  70 */\n      0x46\n        /* \"Code Test/Test2.sol\":2539:2545  _score */\n      dup5\n        /* \"Code Test/Test2.sol\":2539:2551  _score >= 70 */\n      lt\n        /* \"Code Test/Test2.sol\":2536:2648  if(_score >= 70) {... */\n      tag_206\n      jumpi\n        /* \"Code Test/Test2.sol\":2567:2578  grade = \"C\" */\n      mload(0x40)\n      dup1\n      0x40\n      add\n      0x40\n      mstore\n      dup1\n      0x01\n      dup2\n      mstore\n      0x20\n      add\n      0x4300000000000000000000000000000000000000000000000000000000000000\n      dup2\n      mstore\n      pop\n      swap1\n      pop\n        /* \"Code Test/Test2.sol\":2536:2648  if(_score >= 70) {... */\n      jump(tag_207)\n    tag_206:\n        /* \"Code Test/Test2.sol\":2608:2610  60 */\n      0x3c\n        /* \"Code Test/Test2.sol\":2598:2604  _score */\n      dup5\n        /* \"Code Test/Test2.sol\":2598:2610  _score >= 60 */\n      lt\n        /* \"Code Test/Test2.sol\":2595:2648  if(_score >= 60) {... */\n      tag_208\n      jumpi\n        /* \"Code Test/Test2.sol\":2626:2637  grade = \"D\" */\n      mload(0x40)\n      dup1\n      0x40\n      add\n      0x40\n      mstore\n      dup1\n      0x01\n      dup2\n      mstore\n      0x20\n      add\n      0x4400000000000000000000000000000000000000000000000000000000000000\n      dup2\n      mstore\n      pop\n      swap1\n      pop\n        /* \"Code Test/Test2.sol\":2595:2648  if(_score >= 60) {... */\n    tag_208:\n        /* \"Code Test/Test2.sol\":2536:2648  if(_score >= 70) {... */\n    tag_207:\n        /* \"Code Test/Test2.sol\":2477:2648  if(_score >= 80) {... */\n    tag_205:\n        /* \"Code Test/Test2.sol\":2418:2648  if(_score >= 90) {... */\n    tag_203:\n        /* \"Code Test/Test2.sol\":2659:2667  students */\n      0x00\n        /* \"Code Test/Test2.sol\":2673:2719  student(_name,number,_score,grade,_classLists) */\n      mload(0x40)\n      dup1\n      0xa0\n      add\n      0x40\n      mstore\n      dup1\n        /* \"Code Test/Test2.sol\":2681:2686  _name */\n      dup8\n        /* \"Code Test/Test2.sol\":2673:2719  student(_name,number,_score,grade,_classLists) */\n      dup2\n      mstore\n      0x20\n      add\n        /* \"Code Test/Test2.sol\":2687:2693  number */\n      dup5\n        /* \"Code Test/Test2.sol\":2673:2719  student(_name,number,_score,grade,_classLists) */\n      dup2\n      mstore\n      0x20\n      add\n        /* \"Code Test/Test2.sol\":2694:2700  _score */\n      dup7\n        /* \"Code Test/Test2.sol\":2673:2719  student(_name,number,_score,grade,_classLists) */\n      dup2\n      mstore\n      0x20\n      add\n        /* \"Code Test/Test2.sol\":2701:2706  grade */\n      dup4\n        /* \"Code Test/Test2.sol\":2673:2719  student(_name,number,_score,grade,_classLists) */\n      dup2\n      mstore\n      0x20\n      add\n        /* \"Code Test/Test2.sol\":2707:2718  _classLists */\n      dup6\n        /* \"Code Test/Test2.sol\":2673:2719  student(_name,number,_score,grade,_classLists) */\n      dup2\n      mstore\n      pop\n        /* \"Code Test/Test2.sol\":2659:2720  students.push(student(_name,number,_score,grade,_classLists)) */\n      swap1\n      dup1\n      0x01\n      dup2\n      sload\n      add\n      dup1\n      dup3\n      sstore\n      dup1\n      swap2\n      pop\n      pop\n      0x01\n      swap1\n      sub\n      swap1\n      0x00\n      mstore\n      keccak256(0x00, 0x20)\n      swap1\n      0x05\n      mul\n      add\n      0x00\n      swap1\n      swap2\n      swap1\n      swap2\n      swap1\n      swap2\n      pop\n      0x00\n      dup3\n      add\n      mload\n      dup2\n      0x00\n      add\n      swap1\n      dup2\n      tag_210\n      swap2\n      swap1\n      tag_211\n      jump\t// in\n    tag_210:\n      pop\n      0x20\n      dup3\n      add\n      mload\n      dup2\n      0x01\n      add\n      sstore\n      0x40\n      dup3\n      add\n      mload\n      dup2\n      0x02\n      add\n      sstore\n      0x60\n      dup3\n      add\n      mload\n      dup2\n      0x03\n      add\n      swap1\n      dup2\n      tag_212\n      swap2\n      swap1\n      tag_211\n      jump\t// in\n    tag_212:\n      pop\n      0x80\n      dup3\n      add\n      mload\n      dup2\n      0x04\n      add\n      swap1\n      dup1\n      mload\n      swap1\n      0x20\n      add\n      swap1\n      tag_213\n      swap3\n      swap2\n      swap1\n      tag_214\n      jump\t// in\n    tag_213:\n      pop\n      pop\n      pop\n        /* \"Code Test/Test2.sol\":2329:2727  {... */\n      pop\n      pop\n        /* \"Code Test/Test2.sol\":2239:2727  function addStudent(string memory _name, uint _score, string[] memory _classLists) public {... */\n      pop\n      pop\n      pop\n      jump\t// out\n        /* \"Code Test/Test2.sol\":4149:4242  function getStudents() public view returns(student[] memory) {... */\n    tag_48:\n        /* \"Code Test/Test2.sol\":4192:4208  student[] memory */\n      0x60\n        /* \"Code Test/Test2.sol\":4227:4235  students */\n      0x00\n        /* \"Code Test/Test2.sol\":4220:4235  return students */\n      dup1\n      sload\n      dup1\n      0x20\n      mul\n      0x20\n      add\n      mload(0x40)\n      swap1\n      dup2\n      add\n      0x40\n      mstore\n      dup1\n      swap3\n      swap2\n      swap1\n      dup2\n      dup2\n      mstore\n      0x20\n      add\n      0x00\n      swap1\n    tag_216:\n      dup3\n      dup3\n      lt\n      iszero\n      tag_217\n      jumpi\n      dup4\n      dup3\n      swap1\n      0x00\n      mstore\n      keccak256(0x00, 0x20)\n      swap1\n      0x05\n      mul\n      add\n      mload(0x40)\n      dup1\n      0xa0\n      add\n      0x40\n      mstore\n      swap1\n      dup2\n      0x00\n      dup3\n      add\n      dup1\n      sload\n      tag_219\n      swap1\n      tag_106\n      jump\t// in\n    tag_219:\n      dup1\n      0x1f\n      add\n      0x20\n      dup1\n      swap2\n      div\n      mul\n      0x20\n      add\n      mload(0x40)\n      swap1\n      dup2\n      add\n      0x40\n      mstore\n      dup1\n      swap3\n      swap2\n      swap1\n      dup2\n      dup2\n      mstore\n      0x20\n      add\n      dup3\n      dup1\n      sload\n      tag_220\n      swap1\n      tag_106\n      jump\t// in\n    tag_220:\n      dup1\n      iszero\n      tag_221\n      jumpi\n      dup1\n      0x1f\n      lt\n      tag_222\n      jumpi\n      0x0100\n      dup1\n      dup4\n      sload\n      div\n      mul\n      dup4\n      mstore\n      swap2\n      0x20\n      add\n      swap2\n      jump(tag_221)\n    tag_222:\n      dup3\n      add\n      swap2\n      swap1\n      0x00\n      mstore\n      keccak256(0x00, 0x20)\n      swap1\n    tag_223:\n      dup2\n      sload\n      dup2\n      mstore\n      swap1\n      0x01\n      add\n      swap1\n      0x20\n      add\n      dup1\n      dup4\n      gt\n      tag_223\n      jumpi\n      dup3\n      swap1\n      sub\n      0x1f\n      and\n      dup3\n      add\n      swap2\n    tag_221:\n      pop\n      pop\n      pop\n      pop\n      pop\n      dup2\n      mstore\n      0x20\n      add\n      0x01\n      dup3\n      add\n      sload\n      dup2\n      mstore\n      0x20\n      add\n      0x02\n      dup3\n      add\n      sload\n      dup2\n      mstore\n      0x20\n      add\n      0x03\n      dup3\n      add\n      dup1\n      sload\n      tag_224\n      swap1\n      tag_106\n      jump\t// in\n    tag_224:\n      dup1\n      0x1f\n      add\n      0x20\n      dup1\n      swap2\n      div\n      mul\n      0x20\n      add\n      mload(0x40)\n      swap1\n      dup2\n      add\n      0x40\n      mstore\n      dup1\n      swap3\n      swap2\n      swap1\n      dup2\n      dup2\n      mstore\n      0x20\n      add\n      dup3\n      dup1\n      sload\n      tag_225\n      swap1\n      tag_106\n      jump\t// in\n    tag_225:\n      dup1\n      iszero\n      tag_226\n      jumpi\n      dup1\n      0x1f\n      lt\n      tag_227\n      jumpi\n      0x0100\n      dup1\n      dup4\n      sload\n      div\n      mul\n      dup4\n      mstore\n      swap2\n      0x20\n      add\n      swap2\n      jump(tag_226)\n    tag_227:\n      dup3\n      add\n      swap2\n      swap1\n      0x00\n      mstore\n      keccak256(0x00, 0x20)\n      swap1\n    tag_228:\n      dup2\n      sload\n      dup2\n      mstore\n      swap1\n      0x01\n      add\n      swap1\n      0x20\n      add\n      dup1\n      dup4\n      gt\n      tag_228\n      jumpi\n      dup3\n      swap1\n      sub\n      0x1f\n      and\n      dup3\n      add\n      swap2\n    tag_226:\n      pop\n      pop\n      pop\n      pop\n      pop\n      dup2\n      mstore\n      0x20\n      add\n      0x04\n      dup3\n      add\n      dup1\n      sload\n      dup1\n      0x20\n      mul\n      0x20\n      add\n      mload(0x40)\n      swap1\n      dup2\n      add\n      0x40\n      mstore\n      dup1\n      swap3\n      swap2\n      swap1\n      dup2\n      dup2\n      mstore\n      0x20\n      add\n      0x00\n      swap1\n    tag_229:\n      dup3\n      dup3\n      lt\n      iszero\n      tag_230\n      jumpi\n      dup4\n      dup3\n      swap1\n      0x00\n      mstore\n      keccak256(0x00, 0x20)\n      add\n      dup1\n      sload\n      tag_232\n      swap1\n      tag_106\n      jump\t// in\n    tag_232:\n      dup1\n      0x1f\n      add\n      0x20\n      dup1\n      swap2\n      div\n      mul\n      0x20\n      add\n      mload(0x40)\n      swap1\n      dup2\n      add\n      0x40\n      mstore\n      dup1\n      swap3\n      swap2\n      swap1\n      dup2\n      dup2\n      mstore\n      0x20\n      add\n      dup3\n      dup1\n      sload\n      tag_233\n      swap1\n      tag_106\n      jump\t// in\n    tag_233:\n      dup1\n      iszero\n      tag_234\n      jumpi\n      dup1\n      0x1f\n      lt\n      tag_235\n      jumpi\n      0x0100\n      dup1\n      dup4\n      sload\n      div\n      mul\n      dup4\n      mstore\n      swap2\n      0x20\n      add\n      swap2\n      jump(tag_234)\n    tag_235:\n      dup3\n      add\n      swap2\n      swap1\n      0x00\n      mstore\n      keccak256(0x00, 0x20)\n      swap1\n    tag_236:\n      dup2\n      sload\n      dup2\n      mstore\n      swap1\n      0x01\n      add\n      swap1\n      0x20\n      add\n      dup1\n      dup4\n      gt\n      tag_236\n      jumpi\n      dup3\n      swap1\n      sub\n      0x1f\n      and\n      dup3\n      add\n      swap2\n    tag_234:\n      pop\n      pop\n      pop\n      pop\n      pop\n      dup2\n      mstore\n      0x20\n      add\n      swap1\n      0x01\n      add\n      swap1\n      jump(tag_229)\n    tag_230:\n      pop\n      pop\n      pop\n      pop\n      dup2\n      mstore\n      pop\n      pop\n      dup2\n      mstore\n      0x20\n      add\n      swap1\n      0x01\n      add\n      swap1\n      jump(tag_216)\n    tag_217:\n      pop\n      pop\n      pop\n      pop\n      swap1\n      pop\n        /* \"Code Test/Test2.sol\":4149:4242  function getStudents() public view returns(student[] memory) {... */\n      swap1\n      jump\t// out\n    tag_92:\n      mload(0x40)\n      dup1\n      0xa0\n      add\n      0x40\n      mstore\n      dup1\n      0x60\n      dup2\n      mstore\n      0x20\n      add\n      0x00\n      dup2\n      mstore\n      0x20\n      add\n      0x00\n      dup2\n      mstore\n      0x20\n      add\n      0x60\n      dup2\n      mstore\n      0x20\n      add\n      0x60\n      dup2\n      mstore\n      pop\n      swap1\n      jump\t// out\n    tag_214:\n      dup3\n      dup1\n      sload\n      dup3\n      dup3\n      sstore\n      swap1\n      0x00\n      mstore\n      keccak256(0x00, 0x20)\n      swap1\n      dup2\n      add\n      swap3\n      dup3\n      iszero\n      tag_237\n      jumpi\n      swap2\n      0x20\n      mul\n      dup3\n      add\n    tag_238:\n      dup3\n      dup2\n      gt\n      iszero\n      tag_239\n      jumpi\n      dup3\n      mload\n      dup3\n      swap1\n      dup2\n      tag_240\n      swap2\n      swap1\n      tag_211\n      jump\t// in\n    tag_240:\n      pop\n      swap2\n      0x20\n      add\n      swap2\n      swap1\n      0x01\n      add\n      swap1\n      jump(tag_238)\n    tag_239:\n    tag_237:\n      pop\n      swap1\n      pop\n      tag_241\n      swap2\n      swap1\n      tag_242\n      jump\t// in\n    tag_241:\n      pop\n      swap1\n      jump\t// out\n    tag_242:\n    tag_243:\n      dup1\n      dup3\n      gt\n      iszero\n      tag_244\n      jumpi\n      0x00\n      dup2\n      dup2\n      tag_245\n      swap2\n      swap1\n      tag_246\n      jump\t// in\n    tag_245:\n      pop\n      0x01\n      add\n      jump(tag_243)\n    tag_244:\n      pop\n      swap1\n      jump\t// out\n    tag_246:\n      pop\n      dup1\n      sload\n      tag_247\n      swap1\n      tag_106\n      jump\t// in\n    tag_247:\n      0x00\n      dup3\n      sstore\n      dup1\n      0x1f\n      lt\n      tag_249\n      jumpi\n      pop\n      jump(tag_248)\n    tag_249:\n      0x1f\n      add\n      0x20\n      swap1\n      div\n      swap1\n      0x00\n      mstore\n      keccak256(0x00, 0x20)\n      swap1\n      dup2\n      add\n      swap1\n      tag_250\n      swap2\n      swap1\n      tag_251\n      jump\t// in\n    tag_250:\n    tag_248:\n      pop\n      jump\t// out\n    tag_251:\n    tag_252:\n      dup1\n      dup3\n      gt\n      iszero\n      tag_253\n      jumpi\n      0x00\n      dup2\n      0x00\n      swap1\n      sstore\n      pop\n      0x01\n      add\n      jump(tag_252)\n    tag_253:\n      pop\n      swap1\n      jump\t// out\n        /* \"#utility.yul\":7:82   */\n    tag_254:\n        /* \"#utility.yul\":40:46   */\n      0x00\n        /* \"#utility.yul\":73:75   */\n      0x40\n        /* \"#utility.yul\":67:76   */\n      mload\n        /* \"#utility.yul\":57:76   */\n      swap1\n      pop\n        /* \"#utility.yul\":7:82   */\n      swap1\n      jump\t// out\n        /* \"#utility.yul\":88:205   */\n    tag_255:\n        /* \"#utility.yul\":197:198   */\n      0x00\n        /* \"#utility.yul\":194:195   */\n      dup1\n        /* \"#utility.yul\":187:199   */\n      revert\n        /* \"#utility.yul\":211:328   */\n    tag_256:\n        /* \"#utility.yul\":320:321   */\n      0x00\n        /* \"#utility.yul\":317:318   */\n      dup1\n        /* \"#utility.yul\":310:322   */\n      revert\n        /* \"#utility.yul\":334:451   */\n    tag_257:\n        /* \"#utility.yul\":443:444   */\n      0x00\n        /* \"#utility.yul\":440:441   */\n      dup1\n        /* \"#utility.yul\":433:445   */\n      revert\n        /* \"#utility.yul\":457:574   */\n    tag_258:\n        /* \"#utility.yul\":566:567   */\n      0x00\n        /* \"#utility.yul\":563:564   */\n      dup1\n        /* \"#utility.yul\":556:568   */\n      revert\n        /* \"#utility.yul\":580:682   */\n    tag_259:\n        /* \"#utility.yul\":621:627   */\n      0x00\n        /* \"#utility.yul\":672:674   */\n      0x1f\n        /* \"#utility.yul\":668:675   */\n      not\n        /* \"#utility.yul\":663:665   */\n      0x1f\n        /* \"#utility.yul\":656:661   */\n      dup4\n        /* \"#utility.yul\":652:666   */\n      add\n        /* \"#utility.yul\":648:676   */\n      and\n        /* \"#utility.yul\":638:676   */\n      swap1\n      pop\n        /* \"#utility.yul\":580:682   */\n      swap2\n      swap1\n      pop\n      jump\t// out\n        /* \"#utility.yul\":688:868   */\n    tag_88:\n        /* \"#utility.yul\":736:813   */\n      0x4e487b7100000000000000000000000000000000000000000000000000000000\n        /* \"#utility.yul\":733:734   */\n      0x00\n        /* \"#utility.yul\":726:814   */\n      mstore\n        /* \"#utility.yul\":833:837   */\n      0x41\n        /* \"#utility.yul\":830:831   */\n      0x04\n        /* \"#utility.yul\":823:838   */\n      mstore\n        /* \"#utility.yul\":857:861   */\n      0x24\n        /* \"#utility.yul\":854:855   */\n      0x00\n        /* \"#utility.yul\":847:862   */\n      revert\n        /* \"#utility.yul\":874:1155   */\n    tag_260:\n        /* \"#utility.yul\":957:984   */\n      tag_332\n        /* \"#utility.yul\":979:983   */\n      dup3\n        /* \"#utility.yul\":957:984   */\n      tag_259\n      jump\t// in\n    tag_332:\n        /* \"#utility.yul\":949:955   */\n      dup2\n        /* \"#utility.yul\":945:985   */\n      add\n        /* \"#utility.yul\":1087:1093   */\n      dup2\n        /* \"#utility.yul\":1075:1085   */\n      dup2\n        /* \"#utility.yul\":1072:1094   */\n      lt\n        /* \"#utility.yul\":1051:1069   */\n      0xffffffffffffffff\n        /* \"#utility.yul\":1039:1049   */\n      dup3\n        /* \"#utility.yul\":1036:1070   */\n      gt\n        /* \"#utility.yul\":1033:1095   */\n      or\n        /* \"#utility.yul\":1030:1118   */\n      iszero\n      tag_333\n      jumpi\n        /* \"#utility.yul\":1098:1116   */\n      tag_334\n      tag_88\n      jump\t// in\n    tag_334:\n        /* \"#utility.yul\":1030:1118   */\n    tag_333:\n        /* \"#utility.yul\":1138:1148   */\n      dup1\n        /* \"#utility.yul\":1134:1136   */\n      0x40\n        /* \"#utility.yul\":1127:1149   */\n      mstore\n        /* \"#utility.yul\":917:1155   */\n      pop\n        /* \"#utility.yul\":874:1155   */\n      pop\n      pop\n      jump\t// out\n        /* \"#utility.yul\":1161:1290   */\n    tag_261:\n        /* \"#utility.yul\":1195:1201   */\n      0x00\n        /* \"#utility.yul\":1222:1242   */\n      tag_336\n      tag_254\n      jump\t// in\n    tag_336:\n        /* \"#utility.yul\":1212:1242   */\n      swap1\n      pop\n        /* \"#utility.yul\":1251:1284   */\n      tag_337\n        /* \"#utility.yul\":1279:1283   */\n      dup3\n        /* \"#utility.yul\":1271:1277   */\n      dup3\n        /* \"#utility.yul\":1251:1284   */\n      tag_260\n      jump\t// in\n    tag_337:\n        /* \"#utility.yul\":1161:1290   */\n      swap2\n      swap1\n      pop\n      jump\t// out\n        /* \"#utility.yul\":1296:1604   */\n    tag_262:\n        /* \"#utility.yul\":1358:1362   */\n      0x00\n        /* \"#utility.yul\":1448:1466   */\n      0xffffffffffffffff\n        /* \"#utility.yul\":1440:1446   */\n      dup3\n        /* \"#utility.yul\":1437:1467   */\n      gt\n        /* \"#utility.yul\":1434:1490   */\n      iszero\n      tag_339\n      jumpi\n        /* \"#utility.yul\":1470:1488   */\n      tag_340\n      tag_88\n      jump\t// in\n    tag_340:\n        /* \"#utility.yul\":1434:1490   */\n    tag_339:\n        /* \"#utility.yul\":1508:1537   */\n      tag_341\n        /* \"#utility.yul\":1530:1536   */\n      dup3\n        /* \"#utility.yul\":1508:1537   */\n      tag_259\n      jump\t// in\n    tag_341:\n        /* \"#utility.yul\":1500:1537   */\n      swap1\n      pop\n        /* \"#utility.yul\":1592:1596   */\n      0x20\n        /* \"#utility.yul\":1586:1590   */\n      dup2\n        /* \"#utility.yul\":1582:1597   */\n      add\n        /* \"#utility.yul\":1574:1597   */\n      swap1\n      pop\n        /* \"#utility.yul\":1296:1604   */\n      swap2\n      swap1\n      pop\n      jump\t// out\n        /* \"#utility.yul\":1610:1758   */\n    tag_263:\n        /* \"#utility.yul\":1708:1714   */\n      dup3\n        /* \"#utility.yul\":1703:1706   */\n      dup2\n        /* \"#utility.yul\":1698:1701   */\n      dup4\n        /* \"#utility.yul\":1685:1715   */\n      calldatacopy\n        /* \"#utility.yul\":1749:1750   */\n      0x00\n        /* \"#utility.yul\":1740:1746   */\n      dup4\n        /* \"#utility.yul\":1735:1738   */\n      dup4\n        /* \"#utility.yul\":1731:1747   */\n      add\n        /* \"#utility.yul\":1724:1751   */\n      mstore\n        /* \"#utility.yul\":1610:1758   */\n      pop\n      pop\n      pop\n      jump\t// out\n        /* \"#utility.yul\":1764:2189   */\n    tag_264:\n        /* \"#utility.yul\":1842:1847   */\n      0x00\n        /* \"#utility.yul\":1867:1933   */\n      tag_344\n        /* \"#utility.yul\":1883:1932   */\n      tag_345\n        /* \"#utility.yul\":1925:1931   */\n      dup5\n        /* \"#utility.yul\":1883:1932   */\n      tag_262\n      jump\t// in\n    tag_345:\n        /* \"#utility.yul\":1867:1933   */\n      tag_261\n      jump\t// in\n    tag_344:\n        /* \"#utility.yul\":1858:1933   */\n      swap1\n      pop\n        /* \"#utility.yul\":1956:1962   */\n      dup3\n        /* \"#utility.yul\":1949:1954   */\n      dup2\n        /* \"#utility.yul\":1942:1963   */\n      mstore\n        /* \"#utility.yul\":1994:1998   */\n      0x20\n        /* \"#utility.yul\":1987:1992   */\n      dup2\n        /* \"#utility.yul\":1983:1999   */\n      add\n        /* \"#utility.yul\":2032:2035   */\n      dup5\n        /* \"#utility.yul\":2023:2029   */\n      dup5\n        /* \"#utility.yul\":2018:2021   */\n      dup5\n        /* \"#utility.yul\":2014:2030   */\n      add\n        /* \"#utility.yul\":2011:2036   */\n      gt\n        /* \"#utility.yul\":2008:2120   */\n      iszero\n      tag_346\n      jumpi\n        /* \"#utility.yul\":2039:2118   */\n      tag_347\n      tag_258\n      jump\t// in\n    tag_347:\n        /* \"#utility.yul\":2008:2120   */\n    tag_346:\n        /* \"#utility.yul\":2129:2183   */\n      tag_348\n        /* \"#utility.yul\":2176:2182   */\n      dup5\n        /* \"#utility.yul\":2171:2174   */\n      dup3\n        /* \"#utility.yul\":2166:2169   */\n      dup6\n        /* \"#utility.yul\":2129:2183   */\n      tag_263\n      jump\t// in\n    tag_348:\n        /* \"#utility.yul\":1848:2189   */\n      pop\n        /* \"#utility.yul\":1764:2189   */\n      swap4\n      swap3\n      pop\n      pop\n      pop\n      jump\t// out\n        /* \"#utility.yul\":2209:2549   */\n    tag_265:\n        /* \"#utility.yul\":2265:2270   */\n      0x00\n        /* \"#utility.yul\":2314:2317   */\n      dup3\n        /* \"#utility.yul\":2307:2311   */\n      0x1f\n        /* \"#utility.yul\":2299:2305   */\n      dup4\n        /* \"#utility.yul\":2295:2312   */\n      add\n        /* \"#utility.yul\":2291:2318   */\n      slt\n        /* \"#utility.yul\":2281:2403   */\n      tag_350\n      jumpi\n        /* \"#utility.yul\":2322:2401   */\n      tag_351\n      tag_257\n      jump\t// in\n    tag_351:\n        /* \"#utility.yul\":2281:2403   */\n    tag_350:\n        /* \"#utility.yul\":2439:2445   */\n      dup2\n        /* \"#utility.yul\":2426:2446   */\n      calldataload\n        /* \"#utility.yul\":2464:2543   */\n      tag_352\n        /* \"#utility.yul\":2539:2542   */\n      dup5\n        /* \"#utility.yul\":2531:2537   */\n      dup3\n        /* \"#utility.yul\":2524:2528   */\n      0x20\n        /* \"#utility.yul\":2516:2522   */\n      dup7\n        /* \"#utility.yul\":2512:2529   */\n      add\n        /* \"#utility.yul\":2464:2543   */\n      tag_264\n      jump\t// in\n    tag_352:\n        /* \"#utility.yul\":2455:2543   */\n      swap2\n      pop\n        /* \"#utility.yul\":2271:2549   */\n      pop\n        /* \"#utility.yul\":2209:2549   */\n      swap3\n      swap2\n      pop\n      pop\n      jump\t// out\n        /* \"#utility.yul\":2555:3064   */\n    tag_15:\n        /* \"#utility.yul\":2624:2630   */\n      0x00\n        /* \"#utility.yul\":2673:2675   */\n      0x20\n        /* \"#utility.yul\":2661:2670   */\n      dup3\n        /* \"#utility.yul\":2652:2659   */\n      dup5\n        /* \"#utility.yul\":2648:2671   */\n      sub\n        /* \"#utility.yul\":2644:2676   */\n      slt\n        /* \"#utility.yul\":2641:2760   */\n      iszero\n      tag_354\n      jumpi\n        /* \"#utility.yul\":2679:2758   */\n      tag_355\n      tag_255\n      jump\t// in\n    tag_355:\n        /* \"#utility.yul\":2641:2760   */\n    tag_354:\n        /* \"#utility.yul\":2827:2828   */\n      0x00\n        /* \"#utility.yul\":2816:2825   */\n      dup3\n        /* \"#utility.yul\":2812:2829   */\n      add\n        /* \"#utility.yul\":2799:2830   */\n      calldataload\n        /* \"#utility.yul\":2857:2875   */\n      0xffffffffffffffff\n        /* \"#utility.yul\":2849:2855   */\n      dup2\n        /* \"#utility.yul\":2846:2876   */\n      gt\n        /* \"#utility.yul\":2843:2960   */\n      iszero\n      tag_356\n      jumpi\n        /* \"#utility.yul\":2879:2958   */\n      tag_357\n      tag_256\n      jump\t// in\n    tag_357:\n        /* \"#utility.yul\":2843:2960   */\n    tag_356:\n        /* \"#utility.yul\":2984:3047   */\n      tag_358\n        /* \"#utility.yul\":3039:3046   */\n      dup5\n        /* \"#utility.yul\":3030:3036   */\n      dup3\n        /* \"#utility.yul\":3019:3028   */\n      dup6\n        /* \"#utility.yul\":3015:3037   */\n      add\n        /* \"#utility.yul\":2984:3047   */\n      tag_265\n      jump\t// in\n    tag_358:\n        /* \"#utility.yul\":2974:3047   */\n      swap2\n      pop\n        /* \"#utility.yul\":2770:3057   */\n      pop\n        /* \"#utility.yul\":2555:3064   */\n      swap3\n      swap2\n      pop\n      pop\n      jump\t// out\n        /* \"#utility.yul\":3070:3147   */\n    tag_266:\n        /* \"#utility.yul\":3107:3114   */\n      0x00\n        /* \"#utility.yul\":3136:3141   */\n      dup2\n        /* \"#utility.yul\":3125:3141   */\n      swap1\n      pop\n        /* \"#utility.yul\":3070:3147   */\n      swap2\n      swap1\n      pop\n      jump\t// out\n        /* \"#utility.yul\":3153:3271   */\n    tag_267:\n        /* \"#utility.yul\":3240:3264   */\n      tag_361\n        /* \"#utility.yul\":3258:3263   */\n      dup2\n        /* \"#utility.yul\":3240:3264   */\n      tag_266\n      jump\t// in\n    tag_361:\n        /* \"#utility.yul\":3235:3238   */\n      dup3\n        /* \"#utility.yul\":3228:3265   */\n      mstore\n        /* \"#utility.yul\":3153:3271   */\n      pop\n      pop\n      jump\t// out\n        /* \"#utility.yul\":3277:3499   */\n    tag_18:\n        /* \"#utility.yul\":3370:3374   */\n      0x00\n        /* \"#utility.yul\":3408:3410   */\n      0x20\n        /* \"#utility.yul\":3397:3406   */\n      dup3\n        /* \"#utility.yul\":3393:3411   */\n      add\n        /* \"#utility.yul\":3385:3411   */\n      swap1\n      pop\n        /* \"#utility.yul\":3421:3492   */\n      tag_363\n        /* \"#utility.yul\":3489:3490   */\n      0x00\n        /* \"#utility.yul\":3478:3487   */\n      dup4\n        /* \"#utility.yul\":3474:3491   */\n      add\n        /* \"#utility.yul\":3465:3471   */\n      dup5\n        /* \"#utility.yul\":3421:3492   */\n      tag_267\n      jump\t// in\n    tag_363:\n        /* \"#utility.yul\":3277:3499   */\n      swap3\n      swap2\n      pop\n      pop\n      jump\t// out\n        /* \"#utility.yul\":3505:3642   */\n    tag_268:\n        /* \"#utility.yul\":3595:3601   */\n      0x00\n        /* \"#utility.yul\":3629:3634   */\n      dup2\n        /* \"#utility.yul\":3623:3635   */\n      mload\n        /* \"#utility.yul\":3613:3635   */\n      swap1\n      pop\n        /* \"#utility.yul\":3505:3642   */\n      swap2\n      swap1\n      pop\n      jump\t// out\n        /* \"#utility.yul\":3648:3855   */\n    tag_269:\n        /* \"#utility.yul\":3770:3781   */\n      0x00\n        /* \"#utility.yul\":3804:3810   */\n      dup3\n        /* \"#utility.yul\":3799:3802   */\n      dup3\n        /* \"#utility.yul\":3792:3811   */\n      mstore\n        /* \"#utility.yul\":3844:3848   */\n      0x20\n        /* \"#utility.yul\":3839:3842   */\n      dup3\n        /* \"#utility.yul\":3835:3849   */\n      add\n        /* \"#utility.yul\":3820:3849   */\n      swap1\n      pop\n        /* \"#utility.yul\":3648:3855   */\n      swap3\n      swap2\n      pop\n      pop\n      jump\t// out\n        /* \"#utility.yul\":3861:4016   */\n    tag_270:\n        /* \"#utility.yul\":3951:3955   */\n      0x00\n        /* \"#utility.yul\":3974:3977   */\n      dup2\n        /* \"#utility.yul\":3966:3977   */\n      swap1\n      pop\n        /* \"#utility.yul\":4004:4008   */\n      0x20\n        /* \"#utility.yul\":3999:4002   */\n      dup3\n        /* \"#utility.yul\":3995:4009   */\n      add\n        /* \"#utility.yul\":3987:4009   */\n      swap1\n      pop\n        /* \"#utility.yul\":3861:4016   */\n      swap2\n      swap1\n      pop\n      jump\t// out\n        /* \"#utility.yul\":4022:4121   */\n    tag_271:\n        /* \"#utility.yul\":4074:4080   */\n      0x00\n        /* \"#utility.yul\":4108:4113   */\n      dup2\n        /* \"#utility.yul\":4102:4114   */\n      mload\n        /* \"#utility.yul\":4092:4114   */\n      swap1\n      pop\n        /* \"#utility.yul\":4022:4121   */\n      swap2\n      swap1\n      pop\n      jump\t// out\n        /* \"#utility.yul\":4127:4286   */\n    tag_272:\n        /* \"#utility.yul\":4201:4212   */\n      0x00\n        /* \"#utility.yul\":4235:4241   */\n      dup3\n        /* \"#utility.yul\":4230:4233   */\n      dup3\n        /* \"#utility.yul\":4223:4242   */\n      mstore\n        /* \"#utility.yul\":4275:4279   */\n      0x20\n        /* \"#utility.yul\":4270:4273   */\n      dup3\n        /* \"#utility.yul\":4266:4280   */\n      add\n        /* \"#utility.yul\":4251:4280   */\n      swap1\n      pop\n        /* \"#utility.yul\":4127:4286   */\n      swap3\n      swap2\n      pop\n      pop\n      jump\t// out\n        /* \"#utility.yul\":4292:4431   */\n    tag_273:\n        /* \"#utility.yul\":4381:4387   */\n      dup3\n        /* \"#utility.yul\":4376:4379   */\n      dup2\n        /* \"#utility.yul\":4371:4374   */\n      dup4\n        /* \"#utility.yul\":4365:4388   */\n      mcopy\n        /* \"#utility.yul\":4422:4423   */\n      0x00\n        /* \"#utility.yul\":4413:4419   */\n      dup4\n        /* \"#utility.yul\":4408:4411   */\n      dup4\n        /* \"#utility.yul\":4404:4420   */\n      add\n        /* \"#utility.yul\":4397:4424   */\n      mstore\n        /* \"#utility.yul\":4292:4431   */\n      pop\n      pop\n      pop\n      jump\t// out\n        /* \"#utility.yul\":4437:4794   */\n    tag_274:\n        /* \"#utility.yul\":4515:4518   */\n      0x00\n        /* \"#utility.yul\":4543:4582   */\n      tag_371\n        /* \"#utility.yul\":4576:4581   */\n      dup3\n        /* \"#utility.yul\":4543:4582   */\n      tag_271\n      jump\t// in\n    tag_371:\n        /* \"#utility.yul\":4598:4659   */\n      tag_372\n        /* \"#utility.yul\":4652:4658   */\n      dup2\n        /* \"#utility.yul\":4647:4650   */\n      dup6\n        /* \"#utility.yul\":4598:4659   */\n      tag_272\n      jump\t// in\n    tag_372:\n        /* \"#utility.yul\":4591:4659   */\n      swap4\n      pop\n        /* \"#utility.yul\":4668:4733   */\n      tag_373\n        /* \"#utility.yul\":4726:4732   */\n      dup2\n        /* \"#utility.yul\":4721:4724   */\n      dup6\n        /* \"#utility.yul\":4714:4718   */\n      0x20\n        /* \"#utility.yul\":4707:4712   */\n      dup7\n        /* \"#utility.yul\":4703:4719   */\n      add\n        /* \"#utility.yul\":4668:4733   */\n      tag_273\n      jump\t// in\n    tag_373:\n        /* \"#utility.yul\":4758:4787   */\n      tag_374\n        /* \"#utility.yul\":4780:4786   */\n      dup2\n        /* \"#utility.yul\":4758:4787   */\n      tag_259\n      jump\t// in\n    tag_374:\n        /* \"#utility.yul\":4753:4756   */\n      dup5\n        /* \"#utility.yul\":4749:4788   */\n      add\n        /* \"#utility.yul\":4742:4788   */\n      swap2\n      pop\n        /* \"#utility.yul\":4519:4794   */\n      pop\n        /* \"#utility.yul\":4437:4794   */\n      swap3\n      swap2\n      pop\n      pop\n      jump\t// out\n        /* \"#utility.yul\":4800:4908   */\n    tag_275:\n        /* \"#utility.yul\":4877:4901   */\n      tag_376\n        /* \"#utility.yul\":4895:4900   */\n      dup2\n        /* \"#utility.yul\":4877:4901   */\n      tag_266\n      jump\t// in\n    tag_376:\n        /* \"#utility.yul\":4872:4875   */\n      dup3\n        /* \"#utility.yul\":4865:4902   */\n      mstore\n        /* \"#utility.yul\":4800:4908   */\n      pop\n      pop\n      jump\t// out\n        /* \"#utility.yul\":4914:5038   */\n    tag_276:\n        /* \"#utility.yul\":4991:4997   */\n      0x00\n        /* \"#utility.yul\":5025:5030   */\n      dup2\n        /* \"#utility.yul\":5019:5031   */\n      mload\n        /* \"#utility.yul\":5009:5031   */\n      swap1\n      pop\n        /* \"#utility.yul\":4914:5038   */\n      swap2\n      swap1\n      pop\n      jump\t// out\n        /* \"#utility.yul\":5044:5228   */\n    tag_277:\n        /* \"#utility.yul\":5143:5154   */\n      0x00\n        /* \"#utility.yul\":5177:5183   */\n      dup3\n        /* \"#utility.yul\":5172:5175   */\n      dup3\n        /* \"#utility.yul\":5165:5184   */\n      mstore\n        /* \"#utility.yul\":5217:5221   */\n      0x20\n        /* \"#utility.yul\":5212:5215   */\n      dup3\n        /* \"#utility.yul\":5208:5222   */\n      add\n        /* \"#utility.yul\":5193:5222   */\n      swap1\n      pop\n        /* \"#utility.yul\":5044:5228   */\n      swap3\n      swap2\n      pop\n      pop\n      jump\t// out\n        /* \"#utility.yul\":5234:5376   */\n    tag_278:\n        /* \"#utility.yul\":5311:5315   */\n      0x00\n        /* \"#utility.yul\":5334:5337   */\n      dup2\n        /* \"#utility.yul\":5326:5337   */\n      swap1\n      pop\n        /* \"#utility.yul\":5364:5368   */\n      0x20\n        /* \"#utility.yul\":5359:5362   */\n      dup3\n        /* \"#utility.yul\":5355:5369   */\n      add\n        /* \"#utility.yul\":5347:5369   */\n      swap1\n      pop\n        /* \"#utility.yul\":5234:5376   */\n      swap2\n      swap1\n      pop\n      jump\t// out\n        /* \"#utility.yul\":5382:5578   */\n    tag_279:\n        /* \"#utility.yul\":5471:5481   */\n      0x00\n        /* \"#utility.yul\":5506:5572   */\n      tag_381\n        /* \"#utility.yul\":5568:5571   */\n      dup4\n        /* \"#utility.yul\":5560:5566   */\n      dup4\n        /* \"#utility.yul\":5506:5572   */\n      tag_274\n      jump\t// in\n    tag_381:\n        /* \"#utility.yul\":5492:5572   */\n      swap1\n      pop\n        /* \"#utility.yul\":5382:5578   */\n      swap3\n      swap2\n      pop\n      pop\n      jump\t// out\n        /* \"#utility.yul\":5584:5707   */\n    tag_280:\n        /* \"#utility.yul\":5664:5668   */\n      0x00\n        /* \"#utility.yul\":5696:5700   */\n      0x20\n        /* \"#utility.yul\":5691:5694   */\n      dup3\n        /* \"#utility.yul\":5687:5701   */\n      add\n        /* \"#utility.yul\":5679:5701   */\n      swap1\n      pop\n        /* \"#utility.yul\":5584:5707   */\n      swap2\n      swap1\n      pop\n      jump\t// out\n        /* \"#utility.yul\":5741:6712   */\n    tag_281:\n        /* \"#utility.yul\":5870:5873   */\n      0x00\n        /* \"#utility.yul\":5899:5963   */\n      tag_384\n        /* \"#utility.yul\":5957:5962   */\n      dup3\n        /* \"#utility.yul\":5899:5963   */\n      tag_276\n      jump\t// in\n    tag_384:\n        /* \"#utility.yul\":5979:6065   */\n      tag_385\n        /* \"#utility.yul\":6058:6064   */\n      dup2\n        /* \"#utility.yul\":6053:6056   */\n      dup6\n        /* \"#utility.yul\":5979:6065   */\n      tag_277\n      jump\t// in\n    tag_385:\n        /* \"#utility.yul\":5972:6065   */\n      swap4\n      pop\n        /* \"#utility.yul\":6091:6094   */\n      dup4\n        /* \"#utility.yul\":6136:6140   */\n      0x20\n        /* \"#utility.yul\":6128:6134   */\n      dup3\n        /* \"#utility.yul\":6124:6141   */\n      mul\n        /* \"#utility.yul\":6119:6122   */\n      dup6\n        /* \"#utility.yul\":6115:6142   */\n      add\n        /* \"#utility.yul\":6166:6232   */\n      tag_386\n        /* \"#utility.yul\":6226:6231   */\n      dup6\n        /* \"#utility.yul\":6166:6232   */\n      tag_278\n      jump\t// in\n    tag_386:\n        /* \"#utility.yul\":6255:6262   */\n      dup1\n        /* \"#utility.yul\":6286:6287   */\n      0x00\n        /* \"#utility.yul\":6271:6667   */\n    tag_387:\n        /* \"#utility.yul\":6296:6302   */\n      dup6\n        /* \"#utility.yul\":6293:6294   */\n      dup2\n        /* \"#utility.yul\":6290:6303   */\n      lt\n        /* \"#utility.yul\":6271:6667   */\n      iszero\n      tag_389\n      jumpi\n        /* \"#utility.yul\":6367:6376   */\n      dup5\n        /* \"#utility.yul\":6361:6365   */\n      dup5\n        /* \"#utility.yul\":6357:6377   */\n      sub\n        /* \"#utility.yul\":6352:6355   */\n      dup10\n        /* \"#utility.yul\":6345:6378   */\n      mstore\n        /* \"#utility.yul\":6418:6424   */\n      dup2\n        /* \"#utility.yul\":6412:6425   */\n      mload\n        /* \"#utility.yul\":6446:6530   */\n      tag_390\n        /* \"#utility.yul\":6525:6529   */\n      dup6\n        /* \"#utility.yul\":6510:6523   */\n      dup3\n        /* \"#utility.yul\":6446:6530   */\n      tag_279\n      jump\t// in\n    tag_390:\n        /* \"#utility.yul\":6438:6530   */\n      swap5\n      pop\n        /* \"#utility.yul\":6553:6623   */\n      tag_391\n        /* \"#utility.yul\":6616:6622   */\n      dup4\n        /* \"#utility.yul\":6553:6623   */\n      tag_280\n      jump\t// in\n    tag_391:\n        /* \"#utility.yul\":6543:6623   */\n      swap3\n      pop\n        /* \"#utility.yul\":6652:6656   */\n      0x20\n        /* \"#utility.yul\":6647:6650   */\n      dup11\n        /* \"#utility.yul\":6643:6657   */\n      add\n        /* \"#utility.yul\":6636:6657   */\n      swap10\n      pop\n        /* \"#utility.yul\":6331:6667   */\n      pop\n        /* \"#utility.yul\":6318:6319   */\n      0x01\n        /* \"#utility.yul\":6315:6316   */\n      dup2\n        /* \"#utility.yul\":6311:6320   */\n      add\n        /* \"#utility.yul\":6306:6320   */\n      swap1\n      pop\n        /* \"#utility.yul\":6271:6667   */\n      jump(tag_387)\n    tag_389:\n        /* \"#utility.yul\":6275:6289   */\n      pop\n        /* \"#utility.yul\":6683:6687   */\n      dup3\n        /* \"#utility.yul\":6676:6687   */\n      swap8\n      pop\n        /* \"#utility.yul\":6703:6706   */\n      dup8\n        /* \"#utility.yul\":6696:6706   */\n      swap6\n      pop\n        /* \"#utility.yul\":5875:6712   */\n      pop\n      pop\n      pop\n      pop\n      pop\n        /* \"#utility.yul\":5741:6712   */\n      swap3\n      swap2\n      pop\n      pop\n      jump\t// out\n        /* \"#utility.yul\":6770:8086   */\n    tag_282:\n        /* \"#utility.yul\":6875:6878   */\n      0x00\n        /* \"#utility.yul\":6911:6915   */\n      0xa0\n        /* \"#utility.yul\":6906:6909   */\n      dup4\n        /* \"#utility.yul\":6902:6916   */\n      add\n        /* \"#utility.yul\":6998:7002   */\n      0x00\n        /* \"#utility.yul\":6991:6996   */\n      dup4\n        /* \"#utility.yul\":6987:7003   */\n      add\n        /* \"#utility.yul\":6981:7004   */\n      mload\n        /* \"#utility.yul\":7051:7054   */\n      dup5\n        /* \"#utility.yul\":7045:7049   */\n      dup3\n        /* \"#utility.yul\":7041:7055   */\n      sub\n        /* \"#utility.yul\":7034:7038   */\n      0x00\n        /* \"#utility.yul\":7029:7032   */\n      dup7\n        /* \"#utility.yul\":7025:7039   */\n      add\n        /* \"#utility.yul\":7018:7056   */\n      mstore\n        /* \"#utility.yul\":7077:7150   */\n      tag_393\n        /* \"#utility.yul\":7145:7149   */\n      dup3\n        /* \"#utility.yul\":7131:7143   */\n      dup3\n        /* \"#utility.yul\":7077:7150   */\n      tag_274\n      jump\t// in\n    tag_393:\n        /* \"#utility.yul\":7069:7150   */\n      swap2\n      pop\n        /* \"#utility.yul\":6926:7161   */\n      pop\n        /* \"#utility.yul\":7245:7249   */\n      0x20\n        /* \"#utility.yul\":7238:7243   */\n      dup4\n        /* \"#utility.yul\":7234:7250   */\n      add\n        /* \"#utility.yul\":7228:7251   */\n      mload\n        /* \"#utility.yul\":7264:7327   */\n      tag_394\n        /* \"#utility.yul\":7321:7325   */\n      0x20\n        /* \"#utility.yul\":7316:7319   */\n      dup7\n        /* \"#utility.yul\":7312:7326   */\n      add\n        /* \"#utility.yul\":7298:7310   */\n      dup3\n        /* \"#utility.yul\":7264:7327   */\n      tag_275\n      jump\t// in\n    tag_394:\n        /* \"#utility.yul\":7171:7337   */\n      pop\n        /* \"#utility.yul\":7420:7424   */\n      0x40\n        /* \"#utility.yul\":7413:7418   */\n      dup4\n        /* \"#utility.yul\":7409:7425   */\n      add\n        /* \"#utility.yul\":7403:7426   */\n      mload\n        /* \"#utility.yul\":7439:7502   */\n      tag_395\n        /* \"#utility.yul\":7496:7500   */\n      0x40\n        /* \"#utility.yul\":7491:7494   */\n      dup7\n        /* \"#utility.yul\":7487:7501   */\n      add\n        /* \"#utility.yul\":7473:7485   */\n      dup3\n        /* \"#utility.yul\":7439:7502   */\n      tag_275\n      jump\t// in\n    tag_395:\n        /* \"#utility.yul\":7347:7512   */\n      pop\n        /* \"#utility.yul\":7595:7599   */\n      0x60\n        /* \"#utility.yul\":7588:7593   */\n      dup4\n        /* \"#utility.yul\":7584:7600   */\n      add\n        /* \"#utility.yul\":7578:7601   */\n      mload\n        /* \"#utility.yul\":7648:7651   */\n      dup5\n        /* \"#utility.yul\":7642:7646   */\n      dup3\n        /* \"#utility.yul\":7638:7652   */\n      sub\n        /* \"#utility.yul\":7631:7635   */\n      0x60\n        /* \"#utility.yul\":7626:7629   */\n      dup7\n        /* \"#utility.yul\":7622:7636   */\n      add\n        /* \"#utility.yul\":7615:7653   */\n      mstore\n        /* \"#utility.yul\":7674:7747   */\n      tag_396\n        /* \"#utility.yul\":7742:7746   */\n      dup3\n        /* \"#utility.yul\":7728:7740   */\n      dup3\n        /* \"#utility.yul\":7674:7747   */\n      tag_274\n      jump\t// in\n    tag_396:\n        /* \"#utility.yul\":7666:7747   */\n      swap2\n      pop\n        /* \"#utility.yul\":7522:7758   */\n      pop\n        /* \"#utility.yul\":7846:7850   */\n      0x80\n        /* \"#utility.yul\":7839:7844   */\n      dup4\n        /* \"#utility.yul\":7835:7851   */\n      add\n        /* \"#utility.yul\":7829:7852   */\n      mload\n        /* \"#utility.yul\":7899:7902   */\n      dup5\n        /* \"#utility.yul\":7893:7897   */\n      dup3\n        /* \"#utility.yul\":7889:7903   */\n      sub\n        /* \"#utility.yul\":7882:7886   */\n      0x80\n        /* \"#utility.yul\":7877:7880   */\n      dup7\n        /* \"#utility.yul\":7873:7887   */\n      add\n        /* \"#utility.yul\":7866:7904   */\n      mstore\n        /* \"#utility.yul\":7925:8048   */\n      tag_397\n        /* \"#utility.yul\":8043:8047   */\n      dup3\n        /* \"#utility.yul\":8029:8041   */\n      dup3\n        /* \"#utility.yul\":7925:8048   */\n      tag_281\n      jump\t// in\n    tag_397:\n        /* \"#utility.yul\":7917:8048   */\n      swap2\n      pop\n        /* \"#utility.yul\":7768:8059   */\n      pop\n        /* \"#utility.yul\":8076:8080   */\n      dup1\n        /* \"#utility.yul\":8069:8080   */\n      swap2\n      pop\n        /* \"#utility.yul\":6880:8086   */\n      pop\n        /* \"#utility.yul\":6770:8086   */\n      swap3\n      swap2\n      pop\n      pop\n      jump\t// out\n        /* \"#utility.yul\":8092:8340   */\n    tag_283:\n        /* \"#utility.yul\":8207:8217   */\n      0x00\n        /* \"#utility.yul\":8242:8334   */\n      tag_399\n        /* \"#utility.yul\":8330:8333   */\n      dup4\n        /* \"#utility.yul\":8322:8328   */\n      dup4\n        /* \"#utility.yul\":8242:8334   */\n      tag_282\n      jump\t// in\n    tag_399:\n        /* \"#utility.yul\":8228:8334   */\n      swap1\n      pop\n        /* \"#utility.yul\":8092:8340   */\n      swap3\n      swap2\n      pop\n      pop\n      jump\t// out\n        /* \"#utility.yul\":8346:8482   */\n    tag_284:\n        /* \"#utility.yul\":8439:8443   */\n      0x00\n        /* \"#utility.yul\":8471:8475   */\n      0x20\n        /* \"#utility.yul\":8466:8469   */\n      dup3\n        /* \"#utility.yul\":8462:8476   */\n      add\n        /* \"#utility.yul\":8454:8476   */\n      swap1\n      pop\n        /* \"#utility.yul\":8346:8482   */\n      swap2\n      swap1\n      pop\n      jump\t// out\n        /* \"#utility.yul\":8544:9639   */\n    tag_285:\n        /* \"#utility.yul\":8709:8712   */\n      0x00\n        /* \"#utility.yul\":8738:8815   */\n      tag_402\n        /* \"#utility.yul\":8809:8814   */\n      dup3\n        /* \"#utility.yul\":8738:8815   */\n      tag_268\n      jump\t// in\n    tag_402:\n        /* \"#utility.yul\":8831:8940   */\n      tag_403\n        /* \"#utility.yul\":8933:8939   */\n      dup2\n        /* \"#utility.yul\":8928:8931   */\n      dup6\n        /* \"#utility.yul\":8831:8940   */\n      tag_269\n      jump\t// in\n    tag_403:\n        /* \"#utility.yul\":8824:8940   */\n      swap4\n      pop\n        /* \"#utility.yul\":8966:8969   */\n      dup4\n        /* \"#utility.yul\":9011:9015   */\n      0x20\n        /* \"#utility.yul\":9003:9009   */\n      dup3\n        /* \"#utility.yul\":8999:9016   */\n      mul\n        /* \"#utility.yul\":8994:8997   */\n      dup6\n        /* \"#utility.yul\":8990:9017   */\n      add\n        /* \"#utility.yul\":9041:9120   */\n      tag_404\n        /* \"#utility.yul\":9114:9119   */\n      dup6\n        /* \"#utility.yul\":9041:9120   */\n      tag_270\n      jump\t// in\n    tag_404:\n        /* \"#utility.yul\":9143:9150   */\n      dup1\n        /* \"#utility.yul\":9174:9175   */\n      0x00\n        /* \"#utility.yul\":9159:9594   */\n    tag_405:\n        /* \"#utility.yul\":9184:9190   */\n      dup6\n        /* \"#utility.yul\":9181:9182   */\n      dup2\n        /* \"#utility.yul\":9178:9191   */\n      lt\n        /* \"#utility.yul\":9159:9594   */\n      iszero\n      tag_407\n      jumpi\n        /* \"#utility.yul\":9255:9264   */\n      dup5\n        /* \"#utility.yul\":9249:9253   */\n      dup5\n        /* \"#utility.yul\":9245:9265   */\n      sub\n        /* \"#utility.yul\":9240:9243   */\n      dup10\n        /* \"#utility.yul\":9233:9266   */\n      mstore\n        /* \"#utility.yul\":9306:9312   */\n      dup2\n        /* \"#utility.yul\":9300:9313   */\n      mload\n        /* \"#utility.yul\":9334:9444   */\n      tag_408\n        /* \"#utility.yul\":9439:9443   */\n      dup6\n        /* \"#utility.yul\":9424:9437   */\n      dup3\n        /* \"#utility.yul\":9334:9444   */\n      tag_283\n      jump\t// in\n    tag_408:\n        /* \"#utility.yul\":9326:9444   */\n      swap5\n      pop\n        /* \"#utility.yul\":9467:9550   */\n      tag_409\n        /* \"#utility.yul\":9543:9549   */\n      dup4\n        /* \"#utility.yul\":9467:9550   */\n      tag_284\n      jump\t// in\n    tag_409:\n        /* \"#utility.yul\":9457:9550   */\n      swap3\n      pop\n        /* \"#utility.yul\":9579:9583   */\n      0x20\n        /* \"#utility.yul\":9574:9577   */\n      dup11\n        /* \"#utility.yul\":9570:9584   */\n      add\n        /* \"#utility.yul\":9563:9584   */\n      swap10\n      pop\n        /* \"#utility.yul\":9219:9594   */\n      pop\n        /* \"#utility.yul\":9206:9207   */\n      0x01\n        /* \"#utility.yul\":9203:9204   */\n      dup2\n        /* \"#utility.yul\":9199:9208   */\n      add\n        /* \"#utility.yul\":9194:9208   */\n      swap1\n      pop\n        /* \"#utility.yul\":9159:9594   */\n      jump(tag_405)\n    tag_407:\n        /* \"#utility.yul\":9163:9177   */\n      pop\n        /* \"#utility.yul\":9610:9614   */\n      dup3\n        /* \"#utility.yul\":9603:9614   */\n      swap8\n      pop\n        /* \"#utility.yul\":9630:9633   */\n      dup8\n        /* \"#utility.yul\":9623:9633   */\n      swap6\n      pop\n        /* \"#utility.yul\":8714:9639   */\n      pop\n      pop\n      pop\n      pop\n      pop\n        /* \"#utility.yul\":8544:9639   */\n      swap3\n      swap2\n      pop\n      pop\n      jump\t// out\n        /* \"#utility.yul\":9645:10220   */\n    tag_22:\n        /* \"#utility.yul\":9862:9866   */\n      0x00\n        /* \"#utility.yul\":9900:9902   */\n      0x40\n        /* \"#utility.yul\":9889:9898   */\n      dup3\n        /* \"#utility.yul\":9885:9903   */\n      add\n        /* \"#utility.yul\":9877:9903   */\n      swap1\n      pop\n        /* \"#utility.yul\":9913:9984   */\n      tag_411\n        /* \"#utility.yul\":9981:9982   */\n      0x00\n        /* \"#utility.yul\":9970:9979   */\n      dup4\n        /* \"#utility.yul\":9966:9983   */\n      add\n        /* \"#utility.yul\":9957:9963   */\n      dup6\n        /* \"#utility.yul\":9913:9984   */\n      tag_267\n      jump\t// in\n    tag_411:\n        /* \"#utility.yul\":10031:10040   */\n      dup2\n        /* \"#utility.yul\":10025:10029   */\n      dup2\n        /* \"#utility.yul\":10021:10041   */\n      sub\n        /* \"#utility.yul\":10016:10018   */\n      0x20\n        /* \"#utility.yul\":10005:10014   */\n      dup4\n        /* \"#utility.yul\":10001:10019   */\n      add\n        /* \"#utility.yul\":9994:10042   */\n      mstore\n        /* \"#utility.yul\":10059:10213   */\n      tag_412\n        /* \"#utility.yul\":10208:10212   */\n      dup2\n        /* \"#utility.yul\":10199:10205   */\n      dup5\n        /* \"#utility.yul\":10059:10213   */\n      tag_285\n      jump\t// in\n    tag_412:\n        /* \"#utility.yul\":10051:10213   */\n      swap1\n      pop\n        /* \"#utility.yul\":9645:10220   */\n      swap4\n      swap3\n      pop\n      pop\n      pop\n      jump\t// out\n        /* \"#utility.yul\":10226:10348   */\n    tag_286:\n        /* \"#utility.yul\":10299:10323   */\n      tag_414\n        /* \"#utility.yul\":10317:10322   */\n      dup2\n        /* \"#utility.yul\":10299:10323   */\n      tag_266\n      jump\t// in\n    tag_414:\n        /* \"#utility.yul\":10292:10297   */\n      dup2\n        /* \"#utility.yul\":10289:10324   */\n      eq\n        /* \"#utility.yul\":10279:10342   */\n      tag_415\n      jumpi\n        /* \"#utility.yul\":10338:10339   */\n      0x00\n        /* \"#utility.yul\":10335:10336   */\n      dup1\n        /* \"#utility.yul\":10328:10340   */\n      revert\n        /* \"#utility.yul\":10279:10342   */\n    tag_415:\n        /* \"#utility.yul\":10226:10348   */\n      pop\n      jump\t// out\n        /* \"#utility.yul\":10354:10493   */\n    tag_287:\n        /* \"#utility.yul\":10400:10405   */\n      0x00\n        /* \"#utility.yul\":10438:10444   */\n      dup2\n        /* \"#utility.yul\":10425:10445   */\n      calldataload\n        /* \"#utility.yul\":10416:10445   */\n      swap1\n      pop\n        /* \"#utility.yul\":10454:10487   */\n      tag_417\n        /* \"#utility.yul\":10481:10486   */\n      dup2\n        /* \"#utility.yul\":10454:10487   */\n      tag_286\n      jump\t// in\n    tag_417:\n        /* \"#utility.yul\":10354:10493   */\n      swap3\n      swap2\n      pop\n      pop\n      jump\t// out\n        /* \"#utility.yul\":10499:10828   */\n    tag_25:\n        /* \"#utility.yul\":10558:10564   */\n      0x00\n        /* \"#utility.yul\":10607:10609   */\n      0x20\n        /* \"#utility.yul\":10595:10604   */\n      dup3\n        /* \"#utility.yul\":10586:10593   */\n      dup5\n        /* \"#utility.yul\":10582:10605   */\n      sub\n        /* \"#utility.yul\":10578:10610   */\n      slt\n        /* \"#utility.yul\":10575:10694   */\n      iszero\n      tag_419\n      jumpi\n        /* \"#utility.yul\":10613:10692   */\n      tag_420\n      tag_255\n      jump\t// in\n    tag_420:\n        /* \"#utility.yul\":10575:10694   */\n    tag_419:\n        /* \"#utility.yul\":10733:10734   */\n      0x00\n        /* \"#utility.yul\":10758:10811   */\n      tag_421\n        /* \"#utility.yul\":10803:10810   */\n      dup5\n        /* \"#utility.yul\":10794:10800   */\n      dup3\n        /* \"#utility.yul\":10783:10792   */\n      dup6\n        /* \"#utility.yul\":10779:10801   */\n      add\n        /* \"#utility.yul\":10758:10811   */\n      tag_287\n      jump\t// in\n    tag_421:\n        /* \"#utility.yul\":10748:10811   */\n      swap2\n      pop\n        /* \"#utility.yul\":10704:10821   */\n      pop\n        /* \"#utility.yul\":10499:10828   */\n      swap3\n      swap2\n      pop\n      pop\n      jump\t// out\n        /* \"#utility.yul\":10886:12212   */\n    tag_288:\n        /* \"#utility.yul\":11001:11004   */\n      0x00\n        /* \"#utility.yul\":11037:11041   */\n      0xa0\n        /* \"#utility.yul\":11032:11035   */\n      dup4\n        /* \"#utility.yul\":11028:11042   */\n      add\n        /* \"#utility.yul\":11124:11128   */\n      0x00\n        /* \"#utility.yul\":11117:11122   */\n      dup4\n        /* \"#utility.yul\":11113:11129   */\n      add\n        /* \"#utility.yul\":11107:11130   */\n      mload\n        /* \"#utility.yul\":11177:11180   */\n      dup5\n        /* \"#utility.yul\":11171:11175   */\n      dup3\n        /* \"#utility.yul\":11167:11181   */\n      sub\n        /* \"#utility.yul\":11160:11164   */\n      0x00\n        /* \"#utility.yul\":11155:11158   */\n      dup7\n        /* \"#utility.yul\":11151:11165   */\n      add\n        /* \"#utility.yul\":11144:11182   */\n      mstore\n        /* \"#utility.yul\":11203:11276   */\n      tag_423\n        /* \"#utility.yul\":11271:11275   */\n      dup3\n        /* \"#utility.yul\":11257:11269   */\n      dup3\n        /* \"#utility.yul\":11203:11276   */\n      tag_274\n      jump\t// in\n    tag_423:\n        /* \"#utility.yul\":11195:11276   */\n      swap2\n      pop\n        /* \"#utility.yul\":11052:11287   */\n      pop\n        /* \"#utility.yul\":11371:11375   */\n      0x20\n        /* \"#utility.yul\":11364:11369   */\n      dup4\n        /* \"#utility.yul\":11360:11376   */\n      add\n        /* \"#utility.yul\":11354:11377   */\n      mload\n        /* \"#utility.yul\":11390:11453   */\n      tag_424\n        /* \"#utility.yul\":11447:11451   */\n      0x20\n        /* \"#utility.yul\":11442:11445   */\n      dup7\n        /* \"#utility.yul\":11438:11452   */\n      add\n        /* \"#utility.yul\":11424:11436   */\n      dup3\n        /* \"#utility.yul\":11390:11453   */\n      tag_275\n      jump\t// in\n    tag_424:\n        /* \"#utility.yul\":11297:11463   */\n      pop\n        /* \"#utility.yul\":11546:11550   */\n      0x40\n        /* \"#utility.yul\":11539:11544   */\n      dup4\n        /* \"#utility.yul\":11535:11551   */\n      add\n        /* \"#utility.yul\":11529:11552   */\n      mload\n        /* \"#utility.yul\":11565:11628   */\n      tag_425\n        /* \"#utility.yul\":11622:11626   */\n      0x40\n        /* \"#utility.yul\":11617:11620   */\n      dup7\n        /* \"#utility.yul\":11613:11627   */\n      add\n        /* \"#utility.yul\":11599:11611   */\n      dup3\n        /* \"#utility.yul\":11565:11628   */\n      tag_275\n      jump\t// in\n    tag_425:\n        /* \"#utility.yul\":11473:11638   */\n      pop\n        /* \"#utility.yul\":11721:11725   */\n      0x60\n        /* \"#utility.yul\":11714:11719   */\n      dup4\n        /* \"#utility.yul\":11710:11726   */\n      add\n        /* \"#utility.yul\":11704:11727   */\n      mload\n        /* \"#utility.yul\":11774:11777   */\n      dup5\n        /* \"#utility.yul\":11768:11772   */\n      dup3\n        /* \"#utility.yul\":11764:11778   */\n      sub\n        /* \"#utility.yul\":11757:11761   */\n      0x60\n        /* \"#utility.yul\":11752:11755   */\n      dup7\n        /* \"#utility.yul\":11748:11762   */\n      add\n        /* \"#utility.yul\":11741:11779   */\n      mstore\n        /* \"#utility.yul\":11800:11873   */\n      tag_426\n        /* \"#utility.yul\":11868:11872   */\n      dup3\n        /* \"#utility.yul\":11854:11866   */\n      dup3\n        /* \"#utility.yul\":11800:11873   */\n      tag_274\n      jump\t// in\n    tag_426:\n        /* \"#utility.yul\":11792:11873   */\n      swap2\n      pop\n        /* \"#utility.yul\":11648:11884   */\n      pop\n        /* \"#utility.yul\":11972:11976   */\n      0x80\n        /* \"#utility.yul\":11965:11970   */\n      dup4\n        /* \"#utility.yul\":11961:11977   */\n      add\n        /* \"#utility.yul\":11955:11978   */\n      mload\n        /* \"#utility.yul\":12025:12028   */\n      dup5\n        /* \"#utility.yul\":12019:12023   */\n      dup3\n        /* \"#utility.yul\":12015:12029   */\n      sub\n        /* \"#utility.yul\":12008:12012   */\n      0x80\n        /* \"#utility.yul\":12003:12006   */\n      dup7\n        /* \"#utility.yul\":11999:12013   */\n      add\n        /* \"#utility.yul\":11992:12030   */\n      mstore\n        /* \"#utility.yul\":12051:12174   */\n      tag_427\n        /* \"#utility.yul\":12169:12173   */\n      dup3\n        /* \"#utility.yul\":12155:12167   */\n      dup3\n        /* \"#utility.yul\":12051:12174   */\n      tag_281\n      jump\t// in\n    tag_427:\n        /* \"#utility.yul\":12043:12174   */\n      swap2\n      pop\n        /* \"#utility.yul\":11894:12185   */\n      pop\n        /* \"#utility.yul\":12202:12206   */\n      dup1\n        /* \"#utility.yul\":12195:12206   */\n      swap2\n      pop\n        /* \"#utility.yul\":11006:12212   */\n      pop\n        /* \"#utility.yul\":10886:12212   */\n      swap3\n      swap2\n      pop\n      pop\n      jump\t// out\n        /* \"#utility.yul\":12218:12583   */\n    tag_28:\n        /* \"#utility.yul\":12357:12361   */\n      0x00\n        /* \"#utility.yul\":12395:12397   */\n      0x20\n        /* \"#utility.yul\":12384:12393   */\n      dup3\n        /* \"#utility.yul\":12380:12398   */\n      add\n        /* \"#utility.yul\":12372:12398   */\n      swap1\n      pop\n        /* \"#utility.yul\":12444:12453   */\n      dup2\n        /* \"#utility.yul\":12438:12442   */\n      dup2\n        /* \"#utility.yul\":12434:12454   */\n      sub\n        /* \"#utility.yul\":12430:12431   */\n      0x00\n        /* \"#utility.yul\":12419:12428   */\n      dup4\n        /* \"#utility.yul\":12415:12432   */\n      add\n        /* \"#utility.yul\":12408:12455   */\n      mstore\n        /* \"#utility.yul\":12472:12576   */\n      tag_429\n        /* \"#utility.yul\":12571:12575   */\n      dup2\n        /* \"#utility.yul\":12562:12568   */\n      dup5\n        /* \"#utility.yul\":12472:12576   */\n      tag_288\n      jump\t// in\n    tag_429:\n        /* \"#utility.yul\":12464:12576   */\n      swap1\n      pop\n        /* \"#utility.yul\":12218:12583   */\n      swap3\n      swap2\n      pop\n      pop\n      jump\t// out\n        /* \"#utility.yul\":12589:12679   */\n    tag_289:\n        /* \"#utility.yul\":12623:12630   */\n      0x00\n        /* \"#utility.yul\":12666:12671   */\n      dup2\n        /* \"#utility.yul\":12659:12672   */\n      iszero\n        /* \"#utility.yul\":12652:12673   */\n      iszero\n        /* \"#utility.yul\":12641:12673   */\n      swap1\n      pop\n        /* \"#utility.yul\":12589:12679   */\n      swap2\n      swap1\n      pop\n      jump\t// out\n        /* \"#utility.yul\":12685:12794   */\n    tag_290:\n        /* \"#utility.yul\":12766:12787   */\n      tag_432\n        /* \"#utility.yul\":12781:12786   */\n      dup2\n        /* \"#utility.yul\":12766:12787   */\n      tag_289\n      jump\t// in\n    tag_432:\n        /* \"#utility.yul\":12761:12764   */\n      dup3\n        /* \"#utility.yul\":12754:12788   */\n      mstore\n        /* \"#utility.yul\":12685:12794   */\n      pop\n      pop\n      jump\t// out\n        /* \"#utility.yul\":12800:13010   */\n    tag_35:\n        /* \"#utility.yul\":12887:12891   */\n      0x00\n        /* \"#utility.yul\":12925:12927   */\n      0x20\n        /* \"#utility.yul\":12914:12923   */\n      dup3\n        /* \"#utility.yul\":12910:12928   */\n      add\n        /* \"#utility.yul\":12902:12928   */\n      swap1\n      pop\n        /* \"#utility.yul\":12938:13003   */\n      tag_434\n        /* \"#utility.yul\":13000:13001   */\n      0x00\n        /* \"#utility.yul\":12989:12998   */\n      dup4\n        /* \"#utility.yul\":12985:13002   */\n      add\n        /* \"#utility.yul\":12976:12982   */\n      dup5\n        /* \"#utility.yul\":12938:13003   */\n      tag_290\n      jump\t// in\n    tag_434:\n        /* \"#utility.yul\":12800:13010   */\n      swap3\n      swap2\n      pop\n      pop\n      jump\t// out\n        /* \"#utility.yul\":13016:13337   */\n    tag_291:\n        /* \"#utility.yul\":13103:13107   */\n      0x00\n        /* \"#utility.yul\":13193:13211   */\n      0xffffffffffffffff\n        /* \"#utility.yul\":13185:13191   */\n      dup3\n        /* \"#utility.yul\":13182:13212   */\n      gt\n        /* \"#utility.yul\":13179:13235   */\n      iszero\n      tag_436\n      jumpi\n        /* \"#utility.yul\":13215:13233   */\n      tag_437\n      tag_88\n      jump\t// in\n    tag_437:\n        /* \"#utility.yul\":13179:13235   */\n    tag_436:\n        /* \"#utility.yul\":13265:13269   */\n      0x20\n        /* \"#utility.yul\":13257:13263   */\n      dup3\n        /* \"#utility.yul\":13253:13270   */\n      mul\n        /* \"#utility.yul\":13245:13270   */\n      swap1\n      pop\n        /* \"#utility.yul\":13325:13329   */\n      0x20\n        /* \"#utility.yul\":13319:13323   */\n      dup2\n        /* \"#utility.yul\":13315:13330   */\n      add\n        /* \"#utility.yul\":13307:13330   */\n      swap1\n      pop\n        /* \"#utility.yul\":13016:13337   */\n      swap2\n      swap1\n      pop\n      jump\t// out\n        /* \"#utility.yul\":13343:13460   */\n    tag_292:\n        /* \"#utility.yul\":13452:13453   */\n      0x00\n        /* \"#utility.yul\":13449:13450   */\n      dup1\n        /* \"#utility.yul\":13442:13454   */\n      revert\n        /* \"#utility.yul\":13482:14427   */\n    tag_293:\n        /* \"#utility.yul\":13588:13593   */\n      0x00\n        /* \"#utility.yul\":13613:13704   */\n      tag_440\n        /* \"#utility.yul\":13629:13703   */\n      tag_441\n        /* \"#utility.yul\":13696:13702   */\n      dup5\n        /* \"#utility.yul\":13629:13703   */\n      tag_291\n      jump\t// in\n    tag_441:\n        /* \"#utility.yul\":13613:13704   */\n      tag_261\n      jump\t// in\n    tag_440:\n        /* \"#utility.yul\":13604:13704   */\n      swap1\n      pop\n        /* \"#utility.yul\":13724:13729   */\n      dup1\n        /* \"#utility.yul\":13753:13759   */\n      dup4\n        /* \"#utility.yul\":13746:13751   */\n      dup3\n        /* \"#utility.yul\":13739:13760   */\n      mstore\n        /* \"#utility.yul\":13787:13791   */\n      0x20\n        /* \"#utility.yul\":13780:13785   */\n      dup3\n        /* \"#utility.yul\":13776:13792   */\n      add\n        /* \"#utility.yul\":13769:13792   */\n      swap1\n      pop\n        /* \"#utility.yul\":13840:13844   */\n      0x20\n        /* \"#utility.yul\":13832:13838   */\n      dup5\n        /* \"#utility.yul\":13828:13845   */\n      mul\n        /* \"#utility.yul\":13820:13826   */\n      dup4\n        /* \"#utility.yul\":13816:13846   */\n      add\n        /* \"#utility.yul\":13869:13872   */\n      dup6\n        /* \"#utility.yul\":13861:13867   */\n      dup2\n        /* \"#utility.yul\":13858:13873   */\n      gt\n        /* \"#utility.yul\":13855:13977   */\n      iszero\n      tag_442\n      jumpi\n        /* \"#utility.yul\":13888:13967   */\n      tag_443\n      tag_292\n      jump\t// in\n    tag_443:\n        /* \"#utility.yul\":13855:13977   */\n    tag_442:\n        /* \"#utility.yul\":14003:14009   */\n      dup4\n        /* \"#utility.yul\":13986:14421   */\n    tag_444:\n        /* \"#utility.yul\":14020:14026   */\n      dup2\n        /* \"#utility.yul\":14015:14018   */\n      dup2\n        /* \"#utility.yul\":14012:14027   */\n      lt\n        /* \"#utility.yul\":13986:14421   */\n      iszero\n      tag_446\n      jumpi\n        /* \"#utility.yul\":14109:14112   */\n      dup1\n        /* \"#utility.yul\":14096:14113   */\n      calldataload\n        /* \"#utility.yul\":14145:14163   */\n      0xffffffffffffffff\n        /* \"#utility.yul\":14132:14143   */\n      dup2\n        /* \"#utility.yul\":14129:14164   */\n      gt\n        /* \"#utility.yul\":14126:14248   */\n      iszero\n      tag_447\n      jumpi\n        /* \"#utility.yul\":14167:14246   */\n      tag_448\n      tag_257\n      jump\t// in\n    tag_448:\n        /* \"#utility.yul\":14126:14248   */\n    tag_447:\n        /* \"#utility.yul\":14291:14302   */\n      dup1\n        /* \"#utility.yul\":14283:14289   */\n      dup7\n        /* \"#utility.yul\":14279:14303   */\n      add\n        /* \"#utility.yul\":14329:14376   */\n      tag_449\n        /* \"#utility.yul\":14372:14375   */\n      dup10\n        /* \"#utility.yul\":14360:14370   */\n      dup3\n        /* \"#utility.yul\":14329:14376   */\n      tag_265\n      jump\t// in\n    tag_449:\n        /* \"#utility.yul\":14324:14327   */\n      dup6\n        /* \"#utility.yul\":14317:14377   */\n      mstore\n        /* \"#utility.yul\":14406:14410   */\n      0x20\n        /* \"#utility.yul\":14401:14404   */\n      dup6\n        /* \"#utility.yul\":14397:14411   */\n      add\n        /* \"#utility.yul\":14390:14411   */\n      swap5\n      pop\n        /* \"#utility.yul\":14062:14421   */\n      pop\n      pop\n        /* \"#utility.yul\":14046:14050   */\n      0x20\n        /* \"#utility.yul\":14041:14044   */\n      dup2\n        /* \"#utility.yul\":14037:14051   */\n      add\n        /* \"#utility.yul\":14030:14051   */\n      swap1\n      pop\n        /* \"#utility.yul\":13986:14421   */\n      jump(tag_444)\n    tag_446:\n        /* \"#utility.yul\":13990:14011   */\n      pop\n        /* \"#utility.yul\":13594:14427   */\n      pop\n      pop\n        /* \"#utility.yul\":13482:14427   */\n      swap4\n      swap3\n      pop\n      pop\n      pop\n      jump\t// out\n        /* \"#utility.yul\":14449:14839   */\n    tag_294:\n        /* \"#utility.yul\":14530:14535   */\n      0x00\n        /* \"#utility.yul\":14579:14582   */\n      dup3\n        /* \"#utility.yul\":14572:14576   */\n      0x1f\n        /* \"#utility.yul\":14564:14570   */\n      dup4\n        /* \"#utility.yul\":14560:14577   */\n      add\n        /* \"#utility.yul\":14556:14583   */\n      slt\n        /* \"#utility.yul\":14546:14668   */\n      tag_451\n      jumpi\n        /* \"#utility.yul\":14587:14666   */\n      tag_452\n      tag_257\n      jump\t// in\n    tag_452:\n        /* \"#utility.yul\":14546:14668   */\n    tag_451:\n        /* \"#utility.yul\":14704:14710   */\n      dup2\n        /* \"#utility.yul\":14691:14711   */\n      calldataload\n        /* \"#utility.yul\":14729:14833   */\n      tag_453\n        /* \"#utility.yul\":14829:14832   */\n      dup5\n        /* \"#utility.yul\":14821:14827   */\n      dup3\n        /* \"#utility.yul\":14814:14818   */\n      0x20\n        /* \"#utility.yul\":14806:14812   */\n      dup7\n        /* \"#utility.yul\":14802:14819   */\n      add\n        /* \"#utility.yul\":14729:14833   */\n      tag_293\n      jump\t// in\n    tag_453:\n        /* \"#utility.yul\":14720:14833   */\n      swap2\n      pop\n        /* \"#utility.yul\":14536:14839   */\n      pop\n        /* \"#utility.yul\":14449:14839   */\n      swap3\n      swap2\n      pop\n      pop\n      jump\t// out\n        /* \"#utility.yul\":14845:15874   */\n    tag_45:\n        /* \"#utility.yul\":14967:14973   */\n      0x00\n        /* \"#utility.yul\":14975:14981   */\n      dup1\n        /* \"#utility.yul\":14983:14989   */\n      0x00\n        /* \"#utility.yul\":15032:15034   */\n      0x60\n        /* \"#utility.yul\":15020:15029   */\n      dup5\n        /* \"#utility.yul\":15011:15018   */\n      dup7\n        /* \"#utility.yul\":15007:15030   */\n      sub\n        /* \"#utility.yul\":15003:15035   */\n      slt\n        /* \"#utility.yul\":15000:15119   */\n      iszero\n      tag_455\n      jumpi\n        /* \"#utility.yul\":15038:15117   */\n      tag_456\n      tag_255\n      jump\t// in\n    tag_456:\n        /* \"#utility.yul\":15000:15119   */\n    tag_455:\n        /* \"#utility.yul\":15186:15187   */\n      0x00\n        /* \"#utility.yul\":15175:15184   */\n      dup5\n        /* \"#utility.yul\":15171:15188   */\n      add\n        /* \"#utility.yul\":15158:15189   */\n      calldataload\n        /* \"#utility.yul\":15216:15234   */\n      0xffffffffffffffff\n        /* \"#utility.yul\":15208:15214   */\n      dup2\n        /* \"#utility.yul\":15205:15235   */\n      gt\n        /* \"#utility.yul\":15202:15319   */\n      iszero\n      tag_457\n      jumpi\n        /* \"#utility.yul\":15238:15317   */\n      tag_458\n      tag_256\n      jump\t// in\n    tag_458:\n        /* \"#utility.yul\":15202:15319   */\n    tag_457:\n        /* \"#utility.yul\":15343:15406   */\n      tag_459\n        /* \"#utility.yul\":15398:15405   */\n      dup7\n        /* \"#utility.yul\":15389:15395   */\n      dup3\n        /* \"#utility.yul\":15378:15387   */\n      dup8\n        /* \"#utility.yul\":15374:15396   */\n      add\n        /* \"#utility.yul\":15343:15406   */\n      tag_265\n      jump\t// in\n    tag_459:\n        /* \"#utility.yul\":15333:15406   */\n      swap4\n      pop\n        /* \"#utility.yul\":15129:15416   */\n      pop\n        /* \"#utility.yul\":15455:15457   */\n      0x20\n        /* \"#utility.yul\":15481:15534   */\n      tag_460\n        /* \"#utility.yul\":15526:15533   */\n      dup7\n        /* \"#utility.yul\":15517:15523   */\n      dup3\n        /* \"#utility.yul\":15506:15515   */\n      dup8\n        /* \"#utility.yul\":15502:15524   */\n      add\n        /* \"#utility.yul\":15481:15534   */\n      tag_287\n      jump\t// in\n    tag_460:\n        /* \"#utility.yul\":15471:15534   */\n      swap3\n      pop\n        /* \"#utility.yul\":15426:15544   */\n      pop\n        /* \"#utility.yul\":15611:15613   */\n      0x40\n        /* \"#utility.yul\":15600:15609   */\n      dup5\n        /* \"#utility.yul\":15596:15614   */\n      add\n        /* \"#utility.yul\":15583:15615   */\n      calldataload\n        /* \"#utility.yul\":15642:15660   */\n      0xffffffffffffffff\n        /* \"#utility.yul\":15634:15640   */\n      dup2\n        /* \"#utility.yul\":15631:15661   */\n      gt\n        /* \"#utility.yul\":15628:15745   */\n      iszero\n      tag_461\n      jumpi\n        /* \"#utility.yul\":15664:15743   */\n      tag_462\n      tag_256\n      jump\t// in\n    tag_462:\n        /* \"#utility.yul\":15628:15745   */\n    tag_461:\n        /* \"#utility.yul\":15769:15857   */\n      tag_463\n        /* \"#utility.yul\":15849:15856   */\n      dup7\n        /* \"#utility.yul\":15840:15846   */\n      dup3\n        /* \"#utility.yul\":15829:15838   */\n      dup8\n        /* \"#utility.yul\":15825:15847   */\n      add\n        /* \"#utility.yul\":15769:15857   */\n      tag_294\n      jump\t// in\n    tag_463:\n        /* \"#utility.yul\":15759:15857   */\n      swap2\n      pop\n        /* \"#utility.yul\":15554:15867   */\n      pop\n        /* \"#utility.yul\":14845:15874   */\n      swap3\n      pop\n      swap3\n      pop\n      swap3\n      jump\t// out\n        /* \"#utility.yul\":15880:16345   */\n    tag_50:\n        /* \"#utility.yul\":16069:16073   */\n      0x00\n        /* \"#utility.yul\":16107:16109   */\n      0x20\n        /* \"#utility.yul\":16096:16105   */\n      dup3\n        /* \"#utility.yul\":16092:16110   */\n      add\n        /* \"#utility.yul\":16084:16110   */\n      swap1\n      pop\n        /* \"#utility.yul\":16156:16165   */\n      dup2\n        /* \"#utility.yul\":16150:16154   */\n      dup2\n        /* \"#utility.yul\":16146:16166   */\n      sub\n        /* \"#utility.yul\":16142:16143   */\n      0x00\n        /* \"#utility.yul\":16131:16140   */\n      dup4\n        /* \"#utility.yul\":16127:16144   */\n      add\n        /* \"#utility.yul\":16120:16167   */\n      mstore\n        /* \"#utility.yul\":16184:16338   */\n      tag_465\n        /* \"#utility.yul\":16333:16337   */\n      dup2\n        /* \"#utility.yul\":16324:16330   */\n      dup5\n        /* \"#utility.yul\":16184:16338   */\n      tag_285\n      jump\t// in\n    tag_465:\n        /* \"#utility.yul\":16176:16338   */\n      swap1\n      pop\n        /* \"#utility.yul\":15880:16345   */\n      swap3\n      swap2\n      pop\n      pop\n      jump\t// out\n        /* \"#utility.yul\":16351:16520   */\n    tag_295:\n        /* \"#utility.yul\":16435:16446   */\n      0x00\n        /* \"#utility.yul\":16469:16475   */\n      dup3\n        /* \"#utility.yul\":16464:16467   */\n      dup3\n        /* \"#utility.yul\":16457:16476   */\n      mstore\n        /* \"#utility.yul\":16509:16513   */\n      0x20\n        /* \"#utility.yul\":16504:16507   */\n      dup3\n        /* \"#utility.yul\":16500:16514   */\n      add\n        /* \"#utility.yul\":16485:16514   */\n      swap1\n      pop\n        /* \"#utility.yul\":16351:16520   */\n      swap3\n      swap2\n      pop\n      pop\n      jump\t// out\n        /* \"#utility.yul\":16526:16683   */\n    tag_296:\n        /* \"#utility.yul\":16666:16675   */\n      0x6e6f206461746100000000000000000000000000000000000000000000000000\n        /* \"#utility.yul\":16662:16663   */\n      0x00\n        /* \"#utility.yul\":16654:16660   */\n      dup3\n        /* \"#utility.yul\":16650:16664   */\n      add\n        /* \"#utility.yul\":16643:16676   */\n      mstore\n        /* \"#utility.yul\":16526:16683   */\n      pop\n      jump\t// out\n        /* \"#utility.yul\":16689:17054   */\n    tag_297:\n        /* \"#utility.yul\":16831:16834   */\n      0x00\n        /* \"#utility.yul\":16852:16918   */\n      tag_469\n        /* \"#utility.yul\":16916:16917   */\n      0x07\n        /* \"#utility.yul\":16911:16914   */\n      dup4\n        /* \"#utility.yul\":16852:16918   */\n      tag_295\n      jump\t// in\n    tag_469:\n        /* \"#utility.yul\":16845:16918   */\n      swap2\n      pop\n        /* \"#utility.yul\":16927:17020   */\n      tag_470\n        /* \"#utility.yul\":17016:17019   */\n      dup3\n        /* \"#utility.yul\":16927:17020   */\n      tag_296\n      jump\t// in\n    tag_470:\n        /* \"#utility.yul\":17045:17047   */\n      0x20\n        /* \"#utility.yul\":17040:17043   */\n      dup3\n        /* \"#utility.yul\":17036:17048   */\n      add\n        /* \"#utility.yul\":17029:17048   */\n      swap1\n      pop\n        /* \"#utility.yul\":16689:17054   */\n      swap2\n      swap1\n      pop\n      jump\t// out\n        /* \"#utility.yul\":17060:17479   */\n    tag_54:\n        /* \"#utility.yul\":17226:17230   */\n      0x00\n        /* \"#utility.yul\":17264:17266   */\n      0x20\n        /* \"#utility.yul\":17253:17262   */\n      dup3\n        /* \"#utility.yul\":17249:17267   */\n      add\n        /* \"#utility.yul\":17241:17267   */\n      swap1\n      pop\n        /* \"#utility.yul\":17313:17322   */\n      dup2\n        /* \"#utility.yul\":17307:17311   */\n      dup2\n        /* \"#utility.yul\":17303:17323   */\n      sub\n        /* \"#utility.yul\":17299:17300   */\n      0x00\n        /* \"#utility.yul\":17288:17297   */\n      dup4\n        /* \"#utility.yul\":17284:17301   */\n      add\n        /* \"#utility.yul\":17277:17324   */\n      mstore\n        /* \"#utility.yul\":17341:17472   */\n      tag_472\n        /* \"#utility.yul\":17467:17471   */\n      dup2\n        /* \"#utility.yul\":17341:17472   */\n      tag_297\n      jump\t// in\n    tag_472:\n        /* \"#utility.yul\":17333:17472   */\n      swap1\n      pop\n        /* \"#utility.yul\":17060:17479   */\n      swap2\n      swap1\n      pop\n      jump\t// out\n        /* \"#utility.yul\":17485:17633   */\n    tag_298:\n        /* \"#utility.yul\":17587:17598   */\n      0x00\n        /* \"#utility.yul\":17624:17627   */\n      dup2\n        /* \"#utility.yul\":17609:17627   */\n      swap1\n      pop\n        /* \"#utility.yul\":17485:17633   */\n      swap3\n      swap2\n      pop\n      pop\n      jump\t// out\n        /* \"#utility.yul\":17639:18029   */\n    tag_299:\n        /* \"#utility.yul\":17745:17748   */\n      0x00\n        /* \"#utility.yul\":17773:17812   */\n      tag_475\n        /* \"#utility.yul\":17806:17811   */\n      dup3\n        /* \"#utility.yul\":17773:17812   */\n      tag_271\n      jump\t// in\n    tag_475:\n        /* \"#utility.yul\":17828:17917   */\n      tag_476\n        /* \"#utility.yul\":17910:17916   */\n      dup2\n        /* \"#utility.yul\":17905:17908   */\n      dup6\n        /* \"#utility.yul\":17828:17917   */\n      tag_298\n      jump\t// in\n    tag_476:\n        /* \"#utility.yul\":17821:17917   */\n      swap4\n      pop\n        /* \"#utility.yul\":17926:17991   */\n      tag_477\n        /* \"#utility.yul\":17984:17990   */\n      dup2\n        /* \"#utility.yul\":17979:17982   */\n      dup6\n        /* \"#utility.yul\":17972:17976   */\n      0x20\n        /* \"#utility.yul\":17965:17970   */\n      dup7\n        /* \"#utility.yul\":17961:17977   */\n      add\n        /* \"#utility.yul\":17926:17991   */\n      tag_273\n      jump\t// in\n    tag_477:\n        /* \"#utility.yul\":18016:18022   */\n      dup1\n        /* \"#utility.yul\":18011:18014   */\n      dup5\n        /* \"#utility.yul\":18007:18023   */\n      add\n        /* \"#utility.yul\":18000:18023   */\n      swap2\n      pop\n        /* \"#utility.yul\":17749:18029   */\n      pop\n        /* \"#utility.yul\":17639:18029   */\n      swap3\n      swap2\n      pop\n      pop\n      jump\t// out\n        /* \"#utility.yul\":18035:18310   */\n    tag_59:\n        /* \"#utility.yul\":18167:18170   */\n      0x00\n        /* \"#utility.yul\":18189:18284   */\n      tag_479\n        /* \"#utility.yul\":18280:18283   */\n      dup3\n        /* \"#utility.yul\":18271:18277   */\n      dup5\n        /* \"#utility.yul\":18189:18284   */\n      tag_299\n      jump\t// in\n    tag_479:\n        /* \"#utility.yul\":18182:18284   */\n      swap2\n      pop\n        /* \"#utility.yul\":18301:18304   */\n      dup2\n        /* \"#utility.yul\":18294:18304   */\n      swap1\n      pop\n        /* \"#utility.yul\":18035:18310   */\n      swap3\n      swap2\n      pop\n      pop\n      jump\t// out\n        /* \"#utility.yul\":18316:18496   */\n    tag_62:\n        /* \"#utility.yul\":18364:18441   */\n      0x4e487b7100000000000000000000000000000000000000000000000000000000\n        /* \"#utility.yul\":18361:18362   */\n      0x00\n        /* \"#utility.yul\":18354:18442   */\n      mstore\n        /* \"#utility.yul\":18461:18465   */\n      0x32\n        /* \"#utility.yul\":18458:18459   */\n      0x04\n        /* \"#utility.yul\":18451:18466   */\n      mstore\n        /* \"#utility.yul\":18485:18489   */\n      0x24\n        /* \"#utility.yul\":18482:18483   */\n      0x00\n        /* \"#utility.yul\":18475:18490   */\n      revert\n        /* \"#utility.yul\":18502:18682   */\n    tag_300:\n        /* \"#utility.yul\":18550:18627   */\n      0x4e487b7100000000000000000000000000000000000000000000000000000000\n        /* \"#utility.yul\":18547:18548   */\n      0x00\n        /* \"#utility.yul\":18540:18628   */\n      mstore\n        /* \"#utility.yul\":18647:18651   */\n      0x22\n        /* \"#utility.yul\":18644:18645   */\n      0x04\n        /* \"#utility.yul\":18637:18652   */\n      mstore\n        /* \"#utility.yul\":18671:18675   */\n      0x24\n        /* \"#utility.yul\":18668:18669   */\n      0x00\n        /* \"#utility.yul\":18661:18676   */\n      revert\n        /* \"#utility.yul\":18688:19008   */\n    tag_106:\n        /* \"#utility.yul\":18732:18738   */\n      0x00\n        /* \"#utility.yul\":18769:18770   */\n      0x02\n        /* \"#utility.yul\":18763:18767   */\n      dup3\n        /* \"#utility.yul\":18759:18771   */\n      div\n        /* \"#utility.yul\":18749:18771   */\n      swap1\n      pop\n        /* \"#utility.yul\":18816:18817   */\n      0x01\n        /* \"#utility.yul\":18810:18814   */\n      dup3\n        /* \"#utility.yul\":18806:18818   */\n      and\n        /* \"#utility.yul\":18837:18855   */\n      dup1\n        /* \"#utility.yul\":18827:18908   */\n      tag_483\n      jumpi\n        /* \"#utility.yul\":18893:18897   */\n      0x7f\n        /* \"#utility.yul\":18885:18891   */\n      dup3\n        /* \"#utility.yul\":18881:18898   */\n      and\n        /* \"#utility.yul\":18871:18898   */\n      swap2\n      pop\n        /* \"#utility.yul\":18827:18908   */\n    tag_483:\n        /* \"#utility.yul\":18955:18957   */\n      0x20\n        /* \"#utility.yul\":18947:18953   */\n      dup3\n        /* \"#utility.yul\":18944:18958   */\n      lt\n        /* \"#utility.yul\":18924:18942   */\n      dup2\n        /* \"#utility.yul\":18921:18959   */\n      sub\n        /* \"#utility.yul\":18918:19002   */\n      tag_484\n      jumpi\n        /* \"#utility.yul\":18974:18992   */\n      tag_485\n      tag_300\n      jump\t// in\n    tag_485:\n        /* \"#utility.yul\":18918:19002   */\n    tag_484:\n        /* \"#utility.yul\":18739:19008   */\n      pop\n        /* \"#utility.yul\":18688:19008   */\n      swap2\n      swap1\n      pop\n      jump\t// out\n        /* \"#utility.yul\":19014:19155   */\n    tag_301:\n        /* \"#utility.yul\":19063:19067   */\n      0x00\n        /* \"#utility.yul\":19086:19089   */\n      dup2\n        /* \"#utility.yul\":19078:19089   */\n      swap1\n      pop\n        /* \"#utility.yul\":19109:19112   */\n      dup2\n        /* \"#utility.yul\":19106:19107   */\n      0x00\n        /* \"#utility.yul\":19099:19113   */\n      mstore\n        /* \"#utility.yul\":19143:19147   */\n      0x20\n        /* \"#utility.yul\":19140:19141   */\n      0x00\n        /* \"#utility.yul\":19130:19148   */\n      keccak256\n        /* \"#utility.yul\":19122:19148   */\n      swap1\n      pop\n        /* \"#utility.yul\":19014:19155   */\n      swap2\n      swap1\n      pop\n      jump\t// out\n        /* \"#utility.yul\":19185:20059   */\n    tag_302:\n        /* \"#utility.yul\":19288:19291   */\n      0x00\n        /* \"#utility.yul\":19325:19330   */\n      dup2\n        /* \"#utility.yul\":19319:19331   */\n      sload\n        /* \"#utility.yul\":19354:19390   */\n      tag_488\n        /* \"#utility.yul\":19380:19389   */\n      dup2\n        /* \"#utility.yul\":19354:19390   */\n      tag_106\n      jump\t// in\n    tag_488:\n        /* \"#utility.yul\":19406:19495   */\n      tag_489\n        /* \"#utility.yul\":19488:19494   */\n      dup2\n        /* \"#utility.yul\":19483:19486   */\n      dup7\n        /* \"#utility.yul\":19406:19495   */\n      tag_298\n      jump\t// in\n    tag_489:\n        /* \"#utility.yul\":19399:19495   */\n      swap5\n      pop\n        /* \"#utility.yul\":19526:19527   */\n      0x01\n        /* \"#utility.yul\":19515:19524   */\n      dup3\n        /* \"#utility.yul\":19511:19528   */\n      and\n        /* \"#utility.yul\":19542:19543   */\n      0x00\n        /* \"#utility.yul\":19537:19703   */\n      dup2\n      eq\n      tag_491\n      jumpi\n        /* \"#utility.yul\":19717:19718   */\n      0x01\n        /* \"#utility.yul\":19712:20053   */\n      dup2\n      eq\n      tag_492\n      jumpi\n        /* \"#utility.yul\":19504:20053   */\n      jump(tag_490)\n        /* \"#utility.yul\":19537:19703   */\n    tag_491:\n        /* \"#utility.yul\":19621:19625   */\n      0xff\n        /* \"#utility.yul\":19617:19626   */\n      not\n        /* \"#utility.yul\":19606:19615   */\n      dup4\n        /* \"#utility.yul\":19602:19627   */\n      and\n        /* \"#utility.yul\":19597:19600   */\n      dup7\n        /* \"#utility.yul\":19590:19628   */\n      mstore\n        /* \"#utility.yul\":19683:19689   */\n      dup2\n        /* \"#utility.yul\":19676:19690   */\n      iszero\n        /* \"#utility.yul\":19669:19691   */\n      iszero\n        /* \"#utility.yul\":19661:19667   */\n      dup3\n        /* \"#utility.yul\":19657:19692   */\n      mul\n        /* \"#utility.yul\":19652:19655   */\n      dup7\n        /* \"#utility.yul\":19648:19693   */\n      add\n        /* \"#utility.yul\":19641:19693   */\n      swap4\n      pop\n        /* \"#utility.yul\":19537:19703   */\n      jump(tag_490)\n        /* \"#utility.yul\":19712:20053   */\n    tag_492:\n        /* \"#utility.yul\":19779:19817   */\n      tag_493\n        /* \"#utility.yul\":19811:19816   */\n      dup6\n        /* \"#utility.yul\":19779:19817   */\n      tag_301\n      jump\t// in\n    tag_493:\n        /* \"#utility.yul\":19839:19840   */\n      0x00\n        /* \"#utility.yul\":19853:20007   */\n    tag_494:\n        /* \"#utility.yul\":19867:19873   */\n      dup4\n        /* \"#utility.yul\":19864:19865   */\n      dup2\n        /* \"#utility.yul\":19861:19874   */\n      lt\n        /* \"#utility.yul\":19853:20007   */\n      iszero\n      tag_496\n      jumpi\n        /* \"#utility.yul\":19941:19948   */\n      dup2\n        /* \"#utility.yul\":19935:19949   */\n      sload\n        /* \"#utility.yul\":19931:19932   */\n      dup2\n        /* \"#utility.yul\":19926:19929   */\n      dup10\n        /* \"#utility.yul\":19922:19933   */\n      add\n        /* \"#utility.yul\":19915:19950   */\n      mstore\n        /* \"#utility.yul\":19991:19992   */\n      0x01\n        /* \"#utility.yul\":19982:19989   */\n      dup3\n        /* \"#utility.yul\":19978:19993   */\n      add\n        /* \"#utility.yul\":19967:19993   */\n      swap2\n      pop\n        /* \"#utility.yul\":19889:19893   */\n      0x20\n        /* \"#utility.yul\":19886:19887   */\n      dup2\n        /* \"#utility.yul\":19882:19894   */\n      add\n        /* \"#utility.yul\":19877:19894   */\n      swap1\n      pop\n        /* \"#utility.yul\":19853:20007   */\n      jump(tag_494)\n    tag_496:\n        /* \"#utility.yul\":20036:20042   */\n      dup4\n        /* \"#utility.yul\":20031:20034   */\n      dup9\n        /* \"#utility.yul\":20027:20043   */\n      add\n        /* \"#utility.yul\":20020:20043   */\n      swap6\n      pop\n        /* \"#utility.yul\":19719:20053   */\n      pop\n      pop\n        /* \"#utility.yul\":19504:20053   */\n    tag_490:\n      pop\n        /* \"#utility.yul\":19292:20059   */\n      pop\n      pop\n        /* \"#utility.yul\":19185:20059   */\n      swap3\n      swap2\n      pop\n      pop\n      jump\t// out\n        /* \"#utility.yul\":20065:20334   */\n    tag_65:\n        /* \"#utility.yul\":20194:20197   */\n      0x00\n        /* \"#utility.yul\":20216:20308   */\n      tag_498\n        /* \"#utility.yul\":20304:20307   */\n      dup3\n        /* \"#utility.yul\":20295:20301   */\n      dup5\n        /* \"#utility.yul\":20216:20308   */\n      tag_302\n      jump\t// in\n    tag_498:\n        /* \"#utility.yul\":20209:20308   */\n      swap2\n      pop\n        /* \"#utility.yul\":20325:20328   */\n      dup2\n        /* \"#utility.yul\":20318:20328   */\n      swap1\n      pop\n        /* \"#utility.yul\":20065:20334   */\n      swap3\n      swap2\n      pop\n      pop\n      jump\t// out\n        /* \"#utility.yul\":20340:20497   */\n    tag_303:\n        /* \"#utility.yul\":20480:20489   */\n      0x4e6f206461746100000000000000000000000000000000000000000000000000\n        /* \"#utility.yul\":20476:20477   */\n      0x00\n        /* \"#utility.yul\":20468:20474   */\n      dup3\n        /* \"#utility.yul\":20464:20478   */\n      add\n        /* \"#utility.yul\":20457:20490   */\n      mstore\n        /* \"#utility.yul\":20340:20497   */\n      pop\n      jump\t// out\n        /* \"#utility.yul\":20503:20868   */\n    tag_304:\n        /* \"#utility.yul\":20645:20648   */\n      0x00\n        /* \"#utility.yul\":20666:20732   */\n      tag_501\n        /* \"#utility.yul\":20730:20731   */\n      0x07\n        /* \"#utility.yul\":20725:20728   */\n      dup4\n        /* \"#utility.yul\":20666:20732   */\n      tag_295\n      jump\t// in\n    tag_501:\n        /* \"#utility.yul\":20659:20732   */\n      swap2\n      pop\n        /* \"#utility.yul\":20741:20834   */\n      tag_502\n        /* \"#utility.yul\":20830:20833   */\n      dup3\n        /* \"#utility.yul\":20741:20834   */\n      tag_303\n      jump\t// in\n    tag_502:\n        /* \"#utility.yul\":20859:20861   */\n      0x20\n        /* \"#utility.yul\":20854:20857   */\n      dup3\n        /* \"#utility.yul\":20850:20862   */\n      add\n        /* \"#utility.yul\":20843:20862   */\n      swap1\n      pop\n        /* \"#utility.yul\":20503:20868   */\n      swap2\n      swap1\n      pop\n      jump\t// out\n        /* \"#utility.yul\":20874:21293   */\n    tag_73:\n        /* \"#utility.yul\":21040:21044   */\n      0x00\n        /* \"#utility.yul\":21078:21080   */\n      0x20\n        /* \"#utility.yul\":21067:21076   */\n      dup3\n        /* \"#utility.yul\":21063:21081   */\n      add\n        /* \"#utility.yul\":21055:21081   */\n      swap1\n      pop\n        /* \"#utility.yul\":21127:21136   */\n      dup2\n        /* \"#utility.yul\":21121:21125   */\n      dup2\n        /* \"#utility.yul\":21117:21137   */\n      sub\n        /* \"#utility.yul\":21113:21114   */\n      0x00\n        /* \"#utility.yul\":21102:21111   */\n      dup4\n        /* \"#utility.yul\":21098:21115   */\n      add\n        /* \"#utility.yul\":21091:21138   */\n      mstore\n        /* \"#utility.yul\":21155:21286   */\n      tag_504\n        /* \"#utility.yul\":21281:21285   */\n      dup2\n        /* \"#utility.yul\":21155:21286   */\n      tag_304\n      jump\t// in\n    tag_504:\n        /* \"#utility.yul\":21147:21286   */\n      swap1\n      pop\n        /* \"#utility.yul\":20874:21293   */\n      swap2\n      swap1\n      pop\n      jump\t// out\n        /* \"#utility.yul\":21299:21450   */\n    tag_305:\n        /* \"#utility.yul\":21439:21442   */\n      0x4600000000000000000000000000000000000000000000000000000000000000\n        /* \"#utility.yul\":21435:21436   */\n      0x00\n        /* \"#utility.yul\":21427:21433   */\n      dup3\n        /* \"#utility.yul\":21423:21437   */\n      add\n        /* \"#utility.yul\":21416:21443   */\n      mstore\n        /* \"#utility.yul\":21299:21450   */\n      pop\n      jump\t// out\n        /* \"#utility.yul\":21456:21856   */\n    tag_306:\n        /* \"#utility.yul\":21616:21619   */\n      0x00\n        /* \"#utility.yul\":21637:21721   */\n      tag_507\n        /* \"#utility.yul\":21719:21720   */\n      0x01\n        /* \"#utility.yul\":21714:21717   */\n      dup4\n        /* \"#utility.yul\":21637:21721   */\n      tag_298\n      jump\t// in\n    tag_507:\n        /* \"#utility.yul\":21630:21721   */\n      swap2\n      pop\n        /* \"#utility.yul\":21730:21823   */\n      tag_508\n        /* \"#utility.yul\":21819:21822   */\n      dup3\n        /* \"#utility.yul\":21730:21823   */\n      tag_305\n      jump\t// in\n    tag_508:\n        /* \"#utility.yul\":21848:21849   */\n      0x01\n        /* \"#utility.yul\":21843:21846   */\n      dup3\n        /* \"#utility.yul\":21839:21850   */\n      add\n        /* \"#utility.yul\":21832:21850   */\n      swap1\n      pop\n        /* \"#utility.yul\":21456:21856   */\n      swap2\n      swap1\n      pop\n      jump\t// out\n        /* \"#utility.yul\":21862:22243   */\n    tag_78:\n        /* \"#utility.yul\":22047:22050   */\n      0x00\n        /* \"#utility.yul\":22069:22217   */\n      tag_510\n        /* \"#utility.yul\":22213:22216   */\n      dup3\n        /* \"#utility.yul\":22069:22217   */\n      tag_306\n      jump\t// in\n    tag_510:\n        /* \"#utility.yul\":22062:22217   */\n      swap2\n      pop\n        /* \"#utility.yul\":22234:22237   */\n      dup2\n        /* \"#utility.yul\":22227:22237   */\n      swap1\n      pop\n        /* \"#utility.yul\":21862:22243   */\n      swap2\n      swap1\n      pop\n      jump\t// out\n        /* \"#utility.yul\":22249:22429   */\n    tag_307:\n        /* \"#utility.yul\":22297:22374   */\n      0x4e487b7100000000000000000000000000000000000000000000000000000000\n        /* \"#utility.yul\":22294:22295   */\n      0x00\n        /* \"#utility.yul\":22287:22375   */\n      mstore\n        /* \"#utility.yul\":22394:22398   */\n      0x11\n        /* \"#utility.yul\":22391:22392   */\n      0x04\n        /* \"#utility.yul\":22384:22399   */\n      mstore\n        /* \"#utility.yul\":22418:22422   */\n      0x24\n        /* \"#utility.yul\":22415:22416   */\n      0x00\n        /* \"#utility.yul\":22408:22423   */\n      revert\n        /* \"#utility.yul\":22435:22668   */\n    tag_85:\n        /* \"#utility.yul\":22474:22477   */\n      0x00\n        /* \"#utility.yul\":22497:22521   */\n      tag_513\n        /* \"#utility.yul\":22515:22520   */\n      dup3\n        /* \"#utility.yul\":22497:22521   */\n      tag_266\n      jump\t// in\n    tag_513:\n        /* \"#utility.yul\":22488:22521   */\n      swap2\n      pop\n        /* \"#utility.yul\":22543:22609   */\n      0xffffffffffffffffffffffffffffffffffffffffffffffffffffffffffffffff\n        /* \"#utility.yul\":22536:22541   */\n      dup3\n        /* \"#utility.yul\":22533:22610   */\n      sub\n        /* \"#utility.yul\":22530:22633   */\n      tag_514\n      jumpi\n        /* \"#utility.yul\":22613:22631   */\n      tag_515\n      tag_307\n      jump\t// in\n    tag_515:\n        /* \"#utility.yul\":22530:22633   */\n    tag_514:\n        /* \"#utility.yul\":22660:22661   */\n      0x01\n        /* \"#utility.yul\":22653:22658   */\n      dup3\n        /* \"#utility.yul\":22649:22662   */\n      add\n        /* \"#utility.yul\":22642:22662   */\n      swap1\n      pop\n        /* \"#utility.yul\":22435:22668   */\n      swap2\n      swap1\n      pop\n      jump\t// out\n        /* \"#utility.yul\":22674:22868   */\n    tag_130:\n        /* \"#utility.yul\":22714:22718   */\n      0x00\n        /* \"#utility.yul\":22734:22754   */\n      tag_517\n        /* \"#utility.yul\":22752:22753   */\n      dup3\n        /* \"#utility.yul\":22734:22754   */\n      tag_266\n      jump\t// in\n    tag_517:\n        /* \"#utility.yul\":22729:22754   */\n      swap2\n      pop\n        /* \"#utility.yul\":22768:22788   */\n      tag_518\n        /* \"#utility.yul\":22786:22787   */\n      dup4\n        /* \"#utility.yul\":22768:22788   */\n      tag_266\n      jump\t// in\n    tag_518:\n        /* \"#utility.yul\":22763:22788   */\n      swap3\n      pop\n        /* \"#utility.yul\":22812:22813   */\n      dup3\n        /* \"#utility.yul\":22809:22810   */\n      dup3\n        /* \"#utility.yul\":22805:22814   */\n      sub\n        /* \"#utility.yul\":22797:22814   */\n      swap1\n      pop\n        /* \"#utility.yul\":22836:22837   */\n      dup2\n        /* \"#utility.yul\":22830:22834   */\n      dup2\n        /* \"#utility.yul\":22827:22838   */\n      gt\n        /* \"#utility.yul\":22824:22861   */\n      iszero\n      tag_519\n      jumpi\n        /* \"#utility.yul\":22841:22859   */\n      tag_520\n      tag_307\n      jump\t// in\n    tag_520:\n        /* \"#utility.yul\":22824:22861   */\n    tag_519:\n        /* \"#utility.yul\":22674:22868   */\n      swap3\n      swap2\n      pop\n      pop\n      jump\t// out\n        /* \"#utility.yul\":22874:23065   */\n    tag_160:\n        /* \"#utility.yul\":22914:22917   */\n      0x00\n        /* \"#utility.yul\":22933:22953   */\n      tag_522\n        /* \"#utility.yul\":22951:22952   */\n      dup3\n        /* \"#utility.yul\":22933:22953   */\n      tag_266\n      jump\t// in\n    tag_522:\n        /* \"#utility.yul\":22928:22953   */\n      swap2\n      pop\n        /* \"#utility.yul\":22967:22987   */\n      tag_523\n        /* \"#utility.yul\":22985:22986   */\n      dup4\n        /* \"#utility.yul\":22967:22987   */\n      tag_266\n      jump\t// in\n    tag_523:\n        /* \"#utility.yul\":22962:22987   */\n      swap3\n      pop\n        /* \"#utility.yul\":23010:23011   */\n      dup3\n        /* \"#utility.yul\":23007:23008   */\n      dup3\n        /* \"#utility.yul\":23003:23012   */\n      add\n        /* \"#utility.yul\":22996:23012   */\n      swap1\n      pop\n        /* \"#utility.yul\":23031:23034   */\n      dup1\n        /* \"#utility.yul\":23028:23029   */\n      dup3\n        /* \"#utility.yul\":23025:23035   */\n      gt\n        /* \"#utility.yul\":23022:23058   */\n      iszero\n      tag_524\n      jumpi\n        /* \"#utility.yul\":23038:23056   */\n      tag_525\n      tag_307\n      jump\t// in\n    tag_525:\n        /* \"#utility.yul\":23022:23058   */\n    tag_524:\n        /* \"#utility.yul\":22874:23065   */\n      swap3\n      swap2\n      pop\n      pop\n      jump\t// out\n        /* \"#utility.yul\":23071:23251   */\n    tag_308:\n        /* \"#utility.yul\":23119:23196   */\n      0x4e487b7100000000000000000000000000000000000000000000000000000000\n        /* \"#utility.yul\":23116:23117   */\n      0x00\n        /* \"#utility.yul\":23109:23197   */\n      mstore\n        /* \"#utility.yul\":23216:23220   */\n      0x12\n        /* \"#utility.yul\":23213:23214   */\n      0x04\n        /* \"#utility.yul\":23206:23221   */\n      mstore\n        /* \"#utility.yul\":23240:23244   */\n      0x24\n        /* \"#utility.yul\":23237:23238   */\n      0x00\n        /* \"#utility.yul\":23230:23245   */\n      revert\n        /* \"#utility.yul\":23257:23442   */\n    tag_162:\n        /* \"#utility.yul\":23297:23298   */\n      0x00\n        /* \"#utility.yul\":23314:23334   */\n      tag_528\n        /* \"#utility.yul\":23332:23333   */\n      dup3\n        /* \"#utility.yul\":23314:23334   */\n      tag_266\n      jump\t// in\n    tag_528:\n        /* \"#utility.yul\":23309:23334   */\n      swap2\n      pop\n        /* \"#utility.yul\":23348:23368   */\n      tag_529\n        /* \"#utility.yul\":23366:23367   */\n      dup4\n        /* \"#utility.yul\":23348:23368   */\n      tag_266\n      jump\t// in\n    tag_529:\n        /* \"#utility.yul\":23343:23368   */\n      swap3\n      pop\n        /* \"#utility.yul\":23387:23388   */\n      dup3\n        /* \"#utility.yul\":23377:23412   */\n      tag_530\n      jumpi\n        /* \"#utility.yul\":23392:23410   */\n      tag_531\n      tag_308\n      jump\t// in\n    tag_531:\n        /* \"#utility.yul\":23377:23412   */\n    tag_530:\n        /* \"#utility.yul\":23434:23435   */\n      dup3\n        /* \"#utility.yul\":23431:23432   */\n      dup3\n        /* \"#utility.yul\":23427:23436   */\n      div\n        /* \"#utility.yul\":23422:23436   */\n      swap1\n      pop\n        /* \"#utility.yul\":23257:23442   */\n      swap3\n      swap2\n      pop\n      pop\n      jump\t// out\n        /* \"#utility.yul\":23448:23541   */\n    tag_309:\n        /* \"#utility.yul\":23485:23491   */\n      0x00\n        /* \"#utility.yul\":23532:23534   */\n      0x20\n        /* \"#utility.yul\":23527:23529   */\n      0x1f\n        /* \"#utility.yul\":23520:23525   */\n      dup4\n        /* \"#utility.yul\":23516:23530   */\n      add\n        /* \"#utility.yul\":23512:23535   */\n      div\n        /* \"#utility.yul\":23502:23535   */\n      swap1\n      pop\n        /* \"#utility.yul\":23448:23541   */\n      swap2\n      swap1\n      pop\n      jump\t// out\n        /* \"#utility.yul\":23547:23654   */\n    tag_310:\n        /* \"#utility.yul\":23591:23599   */\n      0x00\n        /* \"#utility.yul\":23641:23646   */\n      dup3\n        /* \"#utility.yul\":23635:23639   */\n      dup3\n        /* \"#utility.yul\":23631:23647   */\n      shl\n        /* \"#utility.yul\":23610:23647   */\n      swap1\n      pop\n        /* \"#utility.yul\":23547:23654   */\n      swap3\n      swap2\n      pop\n      pop\n      jump\t// out\n        /* \"#utility.yul\":23660:24053   */\n    tag_311:\n        /* \"#utility.yul\":23729:23735   */\n      0x00\n        /* \"#utility.yul\":23779:23780   */\n      0x08\n        /* \"#utility.yul\":23767:23777   */\n      dup4\n        /* \"#utility.yul\":23763:23781   */\n      mul\n        /* \"#utility.yul\":23802:23899   */\n      tag_535\n        /* \"#utility.yul\":23832:23898   */\n      0xffffffffffffffffffffffffffffffffffffffffffffffffffffffffffffffff\n        /* \"#utility.yul\":23821:23830   */\n      dup3\n        /* \"#utility.yul\":23802:23899   */\n      tag_310\n      jump\t// in\n    tag_535:\n        /* \"#utility.yul\":23920:23959   */\n      tag_536\n        /* \"#utility.yul\":23950:23958   */\n      dup7\n        /* \"#utility.yul\":23939:23948   */\n      dup4\n        /* \"#utility.yul\":23920:23959   */\n      tag_310\n      jump\t// in\n    tag_536:\n        /* \"#utility.yul\":23908:23959   */\n      swap6\n      pop\n        /* \"#utility.yul\":23992:23996   */\n      dup1\n        /* \"#utility.yul\":23988:23997   */\n      not\n        /* \"#utility.yul\":23981:23986   */\n      dup5\n        /* \"#utility.yul\":23977:23998   */\n      and\n        /* \"#utility.yul\":23968:23998   */\n      swap4\n      pop\n        /* \"#utility.yul\":24041:24045   */\n      dup1\n        /* \"#utility.yul\":24031:24039   */\n      dup7\n        /* \"#utility.yul\":24027:24046   */\n      and\n        /* \"#utility.yul\":24020:24025   */\n      dup5\n        /* \"#utility.yul\":24017:24047   */\n      or\n        /* \"#utility.yul\":24007:24047   */\n      swap3\n      pop\n        /* \"#utility.yul\":23736:24053   */\n      pop\n      pop\n        /* \"#utility.yul\":23660:24053   */\n      swap4\n      swap3\n      pop\n      pop\n      pop\n      jump\t// out\n        /* \"#utility.yul\":24059:24119   */\n    tag_312:\n        /* \"#utility.yul\":24087:24090   */\n      0x00\n        /* \"#utility.yul\":24108:24113   */\n      dup2\n        /* \"#utility.yul\":24101:24113   */\n      swap1\n      pop\n        /* \"#utility.yul\":24059:24119   */\n      swap2\n      swap1\n      pop\n      jump\t// out\n        /* \"#utility.yul\":24125:24267   */\n    tag_313:\n        /* \"#utility.yul\":24175:24184   */\n      0x00\n        /* \"#utility.yul\":24208:24261   */\n      tag_539\n        /* \"#utility.yul\":24226:24260   */\n      tag_540\n        /* \"#utility.yul\":24235:24259   */\n      tag_541\n        /* \"#utility.yul\":24253:24258   */\n      dup5\n        /* \"#utility.yul\":24235:24259   */\n      tag_266\n      jump\t// in\n    tag_541:\n        /* \"#utility.yul\":24226:24260   */\n      tag_312\n      jump\t// in\n    tag_540:\n        /* \"#utility.yul\":24208:24261   */\n      tag_266\n      jump\t// in\n    tag_539:\n        /* \"#utility.yul\":24195:24261   */\n      swap1\n      pop\n        /* \"#utility.yul\":24125:24267   */\n      swap2\n      swap1\n      pop\n      jump\t// out\n        /* \"#utility.yul\":24273:24348   */\n    tag_314:\n        /* \"#utility.yul\":24316:24319   */\n      0x00\n        /* \"#utility.yul\":24337:24342   */\n      dup2\n        /* \"#utility.yul\":24330:24342   */\n      swap1\n      pop\n        /* \"#utility.yul\":24273:24348   */\n      swap2\n      swap1\n      pop\n      jump\t// out\n        /* \"#utility.yul\":24354:24623   */\n    tag_315:\n        /* \"#utility.yul\":24464:24503   */\n      tag_544\n        /* \"#utility.yul\":24495:24502   */\n      dup4\n        /* \"#utility.yul\":24464:24503   */\n      tag_313\n      jump\t// in\n    tag_544:\n        /* \"#utility.yul\":24525:24616   */\n      tag_545\n        /* \"#utility.yul\":24574:24615   */\n      tag_546\n        /* \"#utility.yul\":24598:24614   */\n      dup3\n        /* \"#utility.yul\":24574:24615   */\n      tag_314\n      jump\t// in\n    tag_546:\n        /* \"#utility.yul\":24566:24572   */\n      dup5\n        /* \"#utility.yul\":24559:24563   */\n      dup5\n        /* \"#utility.yul\":24553:24564   */\n      sload\n        /* \"#utility.yul\":24525:24616   */\n      tag_311\n      jump\t// in\n    tag_545:\n        /* \"#utility.yul\":24519:24523   */\n      dup3\n        /* \"#utility.yul\":24512:24617   */\n      sstore\n        /* \"#utility.yul\":24430:24623   */\n      pop\n        /* \"#utility.yul\":24354:24623   */\n      pop\n      pop\n      pop\n      jump\t// out\n        /* \"#utility.yul\":24629:24702   */\n    tag_316:\n        /* \"#utility.yul\":24674:24677   */\n      0x00\n        /* \"#utility.yul\":24629:24702   */\n      swap1\n      jump\t// out\n        /* \"#utility.yul\":24708:24897   */\n    tag_317:\n        /* \"#utility.yul\":24785:24817   */\n      tag_549\n      tag_316\n      jump\t// in\n    tag_549:\n        /* \"#utility.yul\":24826:24891   */\n      tag_550\n        /* \"#utility.yul\":24884:24890   */\n      dup2\n        /* \"#utility.yul\":24876:24882   */\n      dup5\n        /* \"#utility.yul\":24870:24874   */\n      dup5\n        /* \"#utility.yul\":24826:24891   */\n      tag_315\n      jump\t// in\n    tag_550:\n        /* \"#utility.yul\":24761:24897   */\n      pop\n        /* \"#utility.yul\":24708:24897   */\n      pop\n      pop\n      jump\t// out\n        /* \"#utility.yul\":24903:25089   */\n    tag_318:\n        /* \"#utility.yul\":24963:25083   */\n    tag_552:\n        /* \"#utility.yul\":24980:24983   */\n      dup2\n        /* \"#utility.yul\":24973:24978   */\n      dup2\n        /* \"#utility.yul\":24970:24984   */\n      lt\n        /* \"#utility.yul\":24963:25083   */\n      iszero\n      tag_554\n      jumpi\n        /* \"#utility.yul\":25034:25073   */\n      tag_555\n        /* \"#utility.yul\":25071:25072   */\n      0x00\n        /* \"#utility.yul\":25064:25069   */\n      dup3\n        /* \"#utility.yul\":25034:25073   */\n      tag_317\n      jump\t// in\n    tag_555:\n        /* \"#utility.yul\":25007:25008   */\n      0x01\n        /* \"#utility.yul\":25000:25005   */\n      dup2\n        /* \"#utility.yul\":24996:25009   */\n      add\n        /* \"#utility.yul\":24987:25009   */\n      swap1\n      pop\n        /* \"#utility.yul\":24963:25083   */\n      jump(tag_552)\n    tag_554:\n        /* \"#utility.yul\":24903:25089   */\n      pop\n      pop\n      jump\t// out\n        /* \"#utility.yul\":25095:25638   */\n    tag_319:\n        /* \"#utility.yul\":25196:25198   */\n      0x1f\n        /* \"#utility.yul\":25191:25194   */\n      dup3\n        /* \"#utility.yul\":25188:25199   */\n      gt\n        /* \"#utility.yul\":25185:25631   */\n      iszero\n      tag_557\n      jumpi\n        /* \"#utility.yul\":25230:25268   */\n      tag_558\n        /* \"#utility.yul\":25262:25267   */\n      dup2\n        /* \"#utility.yul\":25230:25268   */\n      tag_301\n      jump\t// in\n    tag_558:\n        /* \"#utility.yul\":25314:25343   */\n      tag_559\n        /* \"#utility.yul\":25332:25342   */\n      dup5\n        /* \"#utility.yul\":25314:25343   */\n      tag_309\n      jump\t// in\n    tag_559:\n        /* \"#utility.yul\":25304:25312   */\n      dup2\n        /* \"#utility.yul\":25300:25344   */\n      add\n        /* \"#utility.yul\":25497:25499   */\n      0x20\n        /* \"#utility.yul\":25485:25495   */\n      dup6\n        /* \"#utility.yul\":25482:25500   */\n      lt\n        /* \"#utility.yul\":25479:25528   */\n      iszero\n      tag_560\n      jumpi\n        /* \"#utility.yul\":25518:25526   */\n      dup2\n        /* \"#utility.yul\":25503:25526   */\n      swap1\n      pop\n        /* \"#utility.yul\":25479:25528   */\n    tag_560:\n        /* \"#utility.yul\":25541:25621   */\n      tag_561\n        /* \"#utility.yul\":25597:25619   */\n      tag_562\n        /* \"#utility.yul\":25615:25618   */\n      dup6\n        /* \"#utility.yul\":25597:25619   */\n      tag_309\n      jump\t// in\n    tag_562:\n        /* \"#utility.yul\":25587:25595   */\n      dup4\n        /* \"#utility.yul\":25583:25620   */\n      add\n        /* \"#utility.yul\":25570:25581   */\n      dup3\n        /* \"#utility.yul\":25541:25621   */\n      tag_318\n      jump\t// in\n    tag_561:\n        /* \"#utility.yul\":25200:25631   */\n      pop\n      pop\n        /* \"#utility.yul\":25185:25631   */\n    tag_557:\n        /* \"#utility.yul\":25095:25638   */\n      pop\n      pop\n      pop\n      jump\t// out\n        /* \"#utility.yul\":25644:25761   */\n    tag_320:\n        /* \"#utility.yul\":25698:25706   */\n      0x00\n        /* \"#utility.yul\":25748:25753   */\n      dup3\n        /* \"#utility.yul\":25742:25746   */\n      dup3\n        /* \"#utility.yul\":25738:25754   */\n      shr\n        /* \"#utility.yul\":25717:25754   */\n      swap1\n      pop\n        /* \"#utility.yul\":25644:25761   */\n      swap3\n      swap2\n      pop\n      pop\n      jump\t// out\n        /* \"#utility.yul\":25767:25936   */\n    tag_321:\n        /* \"#utility.yul\":25811:25817   */\n      0x00\n        /* \"#utility.yul\":25844:25895   */\n      tag_565\n        /* \"#utility.yul\":25892:25893   */\n      0x00\n        /* \"#utility.yul\":25888:25894   */\n      not\n        /* \"#utility.yul\":25880:25885   */\n      dup5\n        /* \"#utility.yul\":25877:25878   */\n      0x08\n        /* \"#utility.yul\":25873:25886   */\n      mul\n        /* \"#utility.yul\":25844:25895   */\n      tag_320\n      jump\t// in\n    tag_565:\n        /* \"#utility.yul\":25840:25896   */\n      not\n        /* \"#utility.yul\":25925:25929   */\n      dup1\n        /* \"#utility.yul\":25919:25923   */\n      dup4\n        /* \"#utility.yul\":25915:25930   */\n      and\n        /* \"#utility.yul\":25905:25930   */\n      swap2\n      pop\n        /* \"#utility.yul\":25818:25936   */\n      pop\n        /* \"#utility.yul\":25767:25936   */\n      swap3\n      swap2\n      pop\n      pop\n      jump\t// out\n        /* \"#utility.yul\":25941:26236   */\n    tag_322:\n        /* \"#utility.yul\":26017:26021   */\n      0x00\n        /* \"#utility.yul\":26163:26192   */\n      tag_567\n        /* \"#utility.yul\":26188:26191   */\n      dup4\n        /* \"#utility.yul\":26182:26186   */\n      dup4\n        /* \"#utility.yul\":26163:26192   */\n      tag_321\n      jump\t// in\n    tag_567:\n        /* \"#utility.yul\":26155:26192   */\n      swap2\n      pop\n        /* \"#utility.yul\":26225:26228   */\n      dup3\n        /* \"#utility.yul\":26222:26223   */\n      0x02\n        /* \"#utility.yul\":26218:26229   */\n      mul\n        /* \"#utility.yul\":26212:26216   */\n      dup3\n        /* \"#utility.yul\":26209:26230   */\n      or\n        /* \"#utility.yul\":26201:26230   */\n      swap1\n      pop\n        /* \"#utility.yul\":25941:26236   */\n      swap3\n      swap2\n      pop\n      pop\n      jump\t// out\n        /* \"#utility.yul\":26241:27636   */\n    tag_211:\n        /* \"#utility.yul\":26358:26395   */\n      tag_569\n        /* \"#utility.yul\":26391:26394   */\n      dup3\n        /* \"#utility.yul\":26358:26395   */\n      tag_271\n      jump\t// in\n    tag_569:\n        /* \"#utility.yul\":26460:26478   */\n      0xffffffffffffffff\n        /* \"#utility.yul\":26452:26458   */\n      dup2\n        /* \"#utility.yul\":26449:26479   */\n      gt\n        /* \"#utility.yul\":26446:26502   */\n      iszero\n      tag_570\n      jumpi\n        /* \"#utility.yul\":26482:26500   */\n      tag_571\n      tag_88\n      jump\t// in\n    tag_571:\n        /* \"#utility.yul\":26446:26502   */\n    tag_570:\n        /* \"#utility.yul\":26526:26564   */\n      tag_572\n        /* \"#utility.yul\":26558:26562   */\n      dup3\n        /* \"#utility.yul\":26552:26563   */\n      sload\n        /* \"#utility.yul\":26526:26564   */\n      tag_106\n      jump\t// in\n    tag_572:\n        /* \"#utility.yul\":26611:26678   */\n      tag_573\n        /* \"#utility.yul\":26671:26677   */\n      dup3\n        /* \"#utility.yul\":26663:26669   */\n      dup3\n        /* \"#utility.yul\":26657:26661   */\n      dup6\n        /* \"#utility.yul\":26611:26678   */\n      tag_319\n      jump\t// in\n    tag_573:\n        /* \"#utility.yul\":26705:26706   */\n      0x00\n        /* \"#utility.yul\":26729:26733   */\n      0x20\n        /* \"#utility.yul\":26716:26733   */\n      swap1\n      pop\n        /* \"#utility.yul\":26761:26763   */\n      0x1f\n        /* \"#utility.yul\":26753:26759   */\n      dup4\n        /* \"#utility.yul\":26750:26764   */\n      gt\n        /* \"#utility.yul\":26778:26779   */\n      0x01\n        /* \"#utility.yul\":26773:27391   */\n      dup2\n      eq\n      tag_575\n      jumpi\n        /* \"#utility.yul\":27435:27436   */\n      0x00\n        /* \"#utility.yul\":27452:27458   */\n      dup5\n        /* \"#utility.yul\":27449:27526   */\n      iszero\n      tag_576\n      jumpi\n        /* \"#utility.yul\":27501:27510   */\n      dup3\n        /* \"#utility.yul\":27496:27499   */\n      dup8\n        /* \"#utility.yul\":27492:27511   */\n      add\n        /* \"#utility.yul\":27486:27512   */\n      mload\n        /* \"#utility.yul\":27477:27512   */\n      swap1\n      pop\n        /* \"#utility.yul\":27449:27526   */\n    tag_576:\n        /* \"#utility.yul\":27552:27619   */\n      tag_577\n        /* \"#utility.yul\":27612:27618   */\n      dup6\n        /* \"#utility.yul\":27605:27610   */\n      dup3\n        /* \"#utility.yul\":27552:27619   */\n      tag_322\n      jump\t// in\n    tag_577:\n        /* \"#utility.yul\":27546:27550   */\n      dup7\n        /* \"#utility.yul\":27539:27620   */\n      sstore\n        /* \"#utility.yul\":27408:27630   */\n      pop\n        /* \"#utility.yul\":26743:27630   */\n      jump(tag_574)\n        /* \"#utility.yul\":26773:27391   */\n    tag_575:\n        /* \"#utility.yul\":26825:26829   */\n      0x1f\n        /* \"#utility.yul\":26821:26830   */\n      not\n        /* \"#utility.yul\":26813:26819   */\n      dup5\n        /* \"#utility.yul\":26809:26831   */\n      and\n        /* \"#utility.yul\":26859:26896   */\n      tag_578\n        /* \"#utility.yul\":26891:26895   */\n      dup7\n        /* \"#utility.yul\":26859:26896   */\n      tag_301\n      jump\t// in\n    tag_578:\n        /* \"#utility.yul\":26918:26919   */\n      0x00\n        /* \"#utility.yul\":26932:27140   */\n    tag_579:\n        /* \"#utility.yul\":26946:26953   */\n      dup3\n        /* \"#utility.yul\":26943:26944   */\n      dup2\n        /* \"#utility.yul\":26940:26954   */\n      lt\n        /* \"#utility.yul\":26932:27140   */\n      iszero\n      tag_581\n      jumpi\n        /* \"#utility.yul\":27025:27034   */\n      dup5\n        /* \"#utility.yul\":27020:27023   */\n      dup10\n        /* \"#utility.yul\":27016:27035   */\n      add\n        /* \"#utility.yul\":27010:27036   */\n      mload\n        /* \"#utility.yul\":27002:27008   */\n      dup3\n        /* \"#utility.yul\":26995:27037   */\n      sstore\n        /* \"#utility.yul\":27076:27077   */\n      0x01\n        /* \"#utility.yul\":27068:27074   */\n      dup3\n        /* \"#utility.yul\":27064:27078   */\n      add\n        /* \"#utility.yul\":27054:27078   */\n      swap2\n      pop\n        /* \"#utility.yul\":27123:27125   */\n      0x20\n        /* \"#utility.yul\":27112:27121   */\n      dup6\n        /* \"#utility.yul\":27108:27126   */\n      add\n        /* \"#utility.yul\":27095:27126   */\n      swap5\n      pop\n        /* \"#utility.yul\":26969:26973   */\n      0x20\n        /* \"#utility.yul\":26966:26967   */\n      dup2\n        /* \"#utility.yul\":26962:26974   */\n      add\n        /* \"#utility.yul\":26957:26974   */\n      swap1\n      pop\n        /* \"#utility.yul\":26932:27140   */\n      jump(tag_579)\n    tag_581:\n        /* \"#utility.yul\":27168:27174   */\n      dup7\n        /* \"#utility.yul\":27159:27166   */\n      dup4\n        /* \"#utility.yul\":27156:27175   */\n      lt\n        /* \"#utility.yul\":27153:27332   */\n      iszero\n      tag_582\n      jumpi\n        /* \"#utility.yul\":27226:27235   */\n      dup5\n        /* \"#utility.yul\":27221:27224   */\n      dup10\n        /* \"#utility.yul\":27217:27236   */\n      add\n        /* \"#utility.yul\":27211:27237   */\n      mload\n        /* \"#utility.yul\":27269:27317   */\n      tag_583\n        /* \"#utility.yul\":27311:27315   */\n      0x1f\n        /* \"#utility.yul\":27303:27309   */\n      dup10\n        /* \"#utility.yul\":27299:27316   */\n      and\n        /* \"#utility.yul\":27288:27297   */\n      dup3\n        /* \"#utility.yul\":27269:27317   */\n      tag_321\n      jump\t// in\n    tag_583:\n        /* \"#utility.yul\":27261:27267   */\n      dup4\n        /* \"#utility.yul\":27254:27318   */\n      sstore\n        /* \"#utility.yul\":27176:27332   */\n      pop\n        /* \"#utility.yul\":27153:27332   */\n    tag_582:\n        /* \"#utility.yul\":27378:27379   */\n      0x01\n        /* \"#utility.yul\":27374:27375   */\n      0x02\n        /* \"#utility.yul\":27366:27372   */\n      dup9\n        /* \"#utility.yul\":27362:27376   */\n      mul\n        /* \"#utility.yul\":27358:27380   */\n      add\n        /* \"#utility.yul\":27352:27356   */\n      dup9\n        /* \"#utility.yul\":27345:27381   */\n      sstore\n        /* \"#utility.yul\":26780:27391   */\n      pop\n      pop\n      pop\n        /* \"#utility.yul\":26743:27630   */\n    tag_574:\n      pop\n        /* \"#utility.yul\":26333:27636   */\n      pop\n      pop\n      pop\n        /* \"#utility.yul\":26241:27636   */\n      pop\n      pop\n      jump\t// out\n\n    auxdata: 0xa26469706673582212209b572ba755fdf29d2900838204cecacdd19f7402d72fb521996c773d58ffc41d64736f6c634300081a0033\n}\n",
				"bytecode": {
					"linkReferences": {},
					"object": "6080604052348015600e575f80fd5b506120098061001c5f395ff3fe608060405234801561000f575f80fd5b5060043610610091575f3560e01c8063877f18b311610064578063877f18b31461013257806389f915f61461015057806395863d621461016e578063c7e56ae31461019e578063f1d064b3146101ba57610091565b806316020273146100955780634ebb7603146100c5578063642f9163146100e4578063740d5e1014610114575b5f80fd5b6100af60048036038101906100aa91906113c3565b6101d8565b6040516100bc9190611422565b60405180910390f35b6100cd6102df565b6040516100db9291906116a1565b60405180910390f35b6100fe60048036038101906100f991906116f9565b61071a565b60405161010b91906117a5565b60405180910390f35b61011c610966565b6040516101299190611422565b60405180910390f35b61013a6109ca565b60405161014791906117df565b60405180910390f35b6101586109dc565b6040516101659190611422565b60405180910390f35b610188600480360381019061018391906113c3565b6109e7565b60405161019591906117a5565b60405180910390f35b6101b860048036038101906101b391906118da565b610d03565b005b6101c2610f15565b6040516101cf9190611962565b60405180910390f35b5f805f805490501161021f576040517f08c379a0000000000000000000000000000000000000000000000000000000008152600401610216906119dc565b60405180910390fd5b5f5b5f805490508110156102d8578260405160200161023e9190611a34565b604051602081830303815290604052805190602001205f828154811061026757610266611a4a565b5b905f5260205f2090600502015f016040516020016102859190611b66565b60405160208183030381529060405280519060200120036102cb575f81815481106102b3576102b2611a4a565b5b905f5260205f209060050201600201549150506102da565b8080600101915050610221565b505b919050565b5f60605f808054905011610328576040517f08c379a000000000000000000000000000000000000000000000000000000000815260040161031f90611bc6565b60405180910390fd5b5f805f90505b5f805490508110156103c85760405160200161034990611c2e565b604051602081830303815290604052805190602001205f828154811061037257610371611a4a565b5b905f5260205f2090600502016003016040516020016103919190611b66565b60405160208183030381529060405280519060200120036103bb5781806103b790611c6f565b9250505b808060010191505061032e565b505f8167ffffffffffffffff8111156103e4576103e361129f565b5b60405190808252806020026020018201604052801561041d57816020015b61040a611177565b8152602001906001900390816104025790505b5090505f5b5f8054905081101561070d575f60405160200161043e90611c2e565b604051602081830303815290604052805190602001205f838154811061046757610466611a4a565b5b905f5260205f2090600502016003016040516020016104869190611b66565b60405160208183030381529060405280519060200120036106ff575f82815481106104b4576104b3611a4a565b5b905f5260205f2090600502016040518060a00160405290815f820180546104da90611aa4565b80601f016020809104026020016040519081016040528092919081815260200182805461050690611aa4565b80156105515780601f1061052857610100808354040283529160200191610551565b820191905f5260205f20905b81548152906001019060200180831161053457829003601f168201915b50505050508152602001600182015481526020016002820154815260200160038201805461057e90611aa4565b80601f01602080910402602001604051908101604052809291908181526020018280546105aa90611aa4565b80156105f55780601f106105cc576101008083540402835291602001916105f5565b820191905f5260205f20905b8154815290600101906020018083116105d857829003601f168201915b5050505050815260200160048201805480602002602001604051908101604052809291908181526020015f905b828210156106ca578382905f5260205f2001805461063f90611aa4565b80601f016020809104026020016040519081016040528092919081815260200182805461066b90611aa4565b80156106b65780601f1061068d576101008083540402835291602001916106b6565b820191905f5260205f20905b81548152906001019060200180831161069957829003601f168201915b505050505081526020019060010190610622565b50505050815250508382815181106106e5576106e4611a4a565b5b602002602001018190525080806106fb90611c6f565b9150505b508080600101915050610422565b5081819350935050509091565b610722611177565b5f6001836107309190611cb6565b8154811061074157610740611a4a565b5b905f5260205f2090600502016040518060a00160405290815f8201805461076790611aa4565b80601f016020809104026020016040519081016040528092919081815260200182805461079390611aa4565b80156107de5780601f106107b5576101008083540402835291602001916107de565b820191905f5260205f20905b8154815290600101906020018083116107c157829003601f168201915b50505050508152602001600182015481526020016002820154815260200160038201805461080b90611aa4565b80601f016020809104026020016040519081016040528092919081815260200182805461083790611aa4565b80156108825780601f1061085957610100808354040283529160200191610882565b820191905f5260205f20905b81548152906001019060200180831161086557829003601f168201915b5050505050815260200160048201805480602002602001604051908101604052809291908181526020015f905b82821015610957578382905f5260205f200180546108cc90611aa4565b80601f01602080910402602001604051908101604052809291908181526020018280546108f890611aa4565b80156109435780601f1061091a57610100808354040283529160200191610943565b820191905f5260205f20905b81548152906001019060200180831161092657829003601f168201915b5050505050815260200190600101906108af565b50505050815250509050919050565b5f805f5b5f805490508110156109b3575f818154811061098957610988611a4a565b5b905f5260205f20906005020160020154826109a49190611ce9565b9150808060010191505061096a565b505f80549050816109c49190611d49565b91505090565b5f60466109d5610966565b1015905090565b5f8080549050905090565b6109ef611177565b5f808054905011610a35576040517f08c379a0000000000000000000000000000000000000000000000000000000008152600401610a2c906119dc565b60405180910390fd5b5f5b5f80549050811015610cfc5782604051602001610a549190611a34565b604051602081830303815290604052805190602001205f8281548110610a7d57610a7c611a4a565b5b905f5260205f2090600502015f01604051602001610a9b9190611b66565b6040516020818303038152906040528051906020012003610cef575f8181548110610ac957610ac8611a4a565b5b905f5260205f2090600502016040518060a00160405290815f82018054610aef90611aa4565b80601f0160208091040260200160405190810160405280929190818152602001828054610b1b90611aa4565b8015610b665780601f10610b3d57610100808354040283529160200191610b66565b820191905f5260205f20905b815481529060010190602001808311610b4957829003601f168201915b505050505081526020016001820154815260200160028201548152602001600382018054610b9390611aa4565b80601f0160208091040260200160405190810160405280929190818152602001828054610bbf90611aa4565b8015610c0a5780601f10610be157610100808354040283529160200191610c0a565b820191905f5260205f20905b815481529060010190602001808311610bed57829003601f168201915b5050505050815260200160048201805480602002602001604051908101604052809291908181526020015f905b82821015610cdf578382905f5260205f20018054610c5490611aa4565b80601f0160208091040260200160405190810160405280929190818152602001828054610c8090611aa4565b8015610ccb5780601f10610ca257610100808354040283529160200191610ccb565b820191905f5260205f20905b815481529060010190602001808311610cae57829003601f168201915b505050505081526020019060010190610c37565b5050505081525050915050610cfe565b8080600101915050610a37565b505b919050565b5f60015f80549050610d159190611ce9565b90505f6040518060400160405280600181526020017f46000000000000000000000000000000000000000000000000000000000000008152509050605a8410610d95576040518060400160405280600181526020017f41000000000000000000000000000000000000000000000000000000000000008152509050610e63565b60508410610dda576040518060400160405280600181526020017f42000000000000000000000000000000000000000000000000000000000000008152509050610e62565b60468410610e1f576040518060400160405280600181526020017f43000000000000000000000000000000000000000000000000000000000000008152509050610e61565b603c8410610e60576040518060400160405280600181526020017f440000000000000000000000000000000000000000000000000000000000000081525090505b5b5b5b5f6040518060a0016040528087815260200184815260200186815260200183815260200185815250908060018154018082558091505060019003905f5260205f2090600502015f909190919091505f820151815f019081610ec49190611f04565b5060208201518160010155604082015181600201556060820151816003019081610eee9190611f04565b506080820151816004019080519060200190610f0b9291906111a4565b5050505050505050565b60605f805480602002602001604051908101604052809291908181526020015f905b8282101561116e578382905f5260205f2090600502016040518060a00160405290815f82018054610f6790611aa4565b80601f0160208091040260200160405190810160405280929190818152602001828054610f9390611aa4565b8015610fde5780601f10610fb557610100808354040283529160200191610fde565b820191905f5260205f20905b815481529060010190602001808311610fc157829003601f168201915b50505050508152602001600182015481526020016002820154815260200160038201805461100b90611aa4565b80601f016020809104026020016040519081016040528092919081815260200182805461103790611aa4565b80156110825780601f1061105957610100808354040283529160200191611082565b820191905f5260205f20905b81548152906001019060200180831161106557829003601f168201915b5050505050815260200160048201805480602002602001604051908101604052809291908181526020015f905b82821015611157578382905f5260205f200180546110cc90611aa4565b80601f01602080910402602001604051908101604052809291908181526020018280546110f890611aa4565b80156111435780601f1061111a57610100808354040283529160200191611143565b820191905f5260205f20905b81548152906001019060200180831161112657829003601f168201915b5050505050815260200190600101906110af565b505050508152505081526020019060010190610f37565b50505050905090565b6040518060a00160405280606081526020015f81526020015f815260200160608152602001606081525090565b828054828255905f5260205f209081019282156111ea579160200282015b828111156111e95782518290816111d99190611f04565b50916020019190600101906111c2565b5b5090506111f791906111fb565b5090565b5b8082111561121a575f8181611211919061121e565b506001016111fc565b5090565b50805461122a90611aa4565b5f825580601f1061123b5750611258565b601f0160209004905f5260205f2090810190611257919061125b565b5b50565b5b80821115611272575f815f90555060010161125c565b5090565b5f604051905090565b5f80fd5b5f80fd5b5f80fd5b5f80fd5b5f601f19601f8301169050919050565b7f4e487b71000000000000000000000000000000000000000000000000000000005f52604160045260245ffd5b6112d58261128f565b810181811067ffffffffffffffff821117156112f4576112f361129f565b5b80604052505050565b5f611306611276565b905061131282826112cc565b919050565b5f67ffffffffffffffff8211156113315761133061129f565b5b61133a8261128f565b9050602081019050919050565b828183375f83830152505050565b5f61136761136284611317565b6112fd565b9050828152602081018484840111156113835761138261128b565b5b61138e848285611347565b509392505050565b5f82601f8301126113aa576113a9611287565b5b81356113ba848260208601611355565b91505092915050565b5f602082840312156113d8576113d761127f565b5b5f82013567ffffffffffffffff8111156113f5576113f4611283565b5b61140184828501611396565b91505092915050565b5f819050919050565b61141c8161140a565b82525050565b5f6020820190506114355f830184611413565b92915050565b5f81519050919050565b5f82825260208201905092915050565b5f819050602082019050919050565b5f81519050919050565b5f82825260208201905092915050565b8281835e5f83830152505050565b5f61149682611464565b6114a0818561146e565b93506114b081856020860161147e565b6114b98161128f565b840191505092915050565b6114cd8161140a565b82525050565b5f81519050919050565b5f82825260208201905092915050565b5f819050602082019050919050565b5f611507838361148c565b905092915050565b5f602082019050919050565b5f611525826114d3565b61152f81856114dd565b935083602082028501611541856114ed565b805f5b8581101561157c578484038952815161155d85826114fc565b94506115688361150f565b925060208a01995050600181019050611544565b50829750879550505050505092915050565b5f60a083015f8301518482035f8601526115a8828261148c565b91505060208301516115bd60208601826114c4565b5060408301516115d060408601826114c4565b50606083015184820360608601526115e8828261148c565b91505060808301518482036080860152611602828261151b565b9150508091505092915050565b5f61161a838361158e565b905092915050565b5f602082019050919050565b5f6116388261143b565b6116428185611445565b93508360208202850161165485611455565b805f5b8581101561168f5784840389528151611670858261160f565b945061167b83611622565b925060208a01995050600181019050611657565b50829750879550505050505092915050565b5f6040820190506116b45f830185611413565b81810360208301526116c6818461162e565b90509392505050565b6116d88161140a565b81146116e2575f80fd5b50565b5f813590506116f3816116cf565b92915050565b5f6020828403121561170e5761170d61127f565b5b5f61171b848285016116e5565b91505092915050565b5f60a083015f8301518482035f86015261173e828261148c565b915050602083015161175360208601826114c4565b50604083015161176660408601826114c4565b506060830151848203606086015261177e828261148c565b91505060808301518482036080860152611798828261151b565b9150508091505092915050565b5f6020820190508181035f8301526117bd8184611724565b905092915050565b5f8115159050919050565b6117d9816117c5565b82525050565b5f6020820190506117f25f8301846117d0565b92915050565b5f67ffffffffffffffff8211156118125761181161129f565b5b602082029050602081019050919050565b5f80fd5b5f611839611834846117f8565b6112fd565b9050808382526020820190506020840283018581111561185c5761185b611823565b5b835b818110156118a357803567ffffffffffffffff81111561188157611880611287565b5b80860161188e8982611396565b8552602085019450505060208101905061185e565b5050509392505050565b5f82601f8301126118c1576118c0611287565b5b81356118d1848260208601611827565b91505092915050565b5f805f606084860312156118f1576118f061127f565b5b5f84013567ffffffffffffffff81111561190e5761190d611283565b5b61191a86828701611396565b935050602061192b868287016116e5565b925050604084013567ffffffffffffffff81111561194c5761194b611283565b5b611958868287016118ad565b9150509250925092565b5f6020820190508181035f83015261197a818461162e565b905092915050565b5f82825260208201905092915050565b7f6e6f2064617461000000000000000000000000000000000000000000000000005f82015250565b5f6119c6600783611982565b91506119d182611992565b602082019050919050565b5f6020820190508181035f8301526119f3816119ba565b9050919050565b5f81905092915050565b5f611a0e82611464565b611a1881856119fa565b9350611a2881856020860161147e565b80840191505092915050565b5f611a3f8284611a04565b915081905092915050565b7f4e487b71000000000000000000000000000000000000000000000000000000005f52603260045260245ffd5b7f4e487b71000000000000000000000000000000000000000000000000000000005f52602260045260245ffd5b5f6002820490506001821680611abb57607f821691505b602082108103611ace57611acd611a77565b5b50919050565b5f819050815f5260205f209050919050565b5f8154611af281611aa4565b611afc81866119fa565b9450600182165f8114611b165760018114611b2b57611b5d565b60ff1983168652811515820286019350611b5d565b611b3485611ad4565b5f5b83811015611b5557815481890152600182019150602081019050611b36565b838801955050505b50505092915050565b5f611b718284611ae6565b915081905092915050565b7f4e6f2064617461000000000000000000000000000000000000000000000000005f82015250565b5f611bb0600783611982565b9150611bbb82611b7c565b602082019050919050565b5f6020820190508181035f830152611bdd81611ba4565b9050919050565b7f46000000000000000000000000000000000000000000000000000000000000005f82015250565b5f611c186001836119fa565b9150611c2382611be4565b600182019050919050565b5f611c3882611c0c565b9150819050919050565b7f4e487b71000000000000000000000000000000000000000000000000000000005f52601160045260245ffd5b5f611c798261140a565b91507fffffffffffffffffffffffffffffffffffffffffffffffffffffffffffffffff8203611cab57611caa611c42565b5b600182019050919050565b5f611cc08261140a565b9150611ccb8361140a565b9250828203905081811115611ce357611ce2611c42565b5b92915050565b5f611cf38261140a565b9150611cfe8361140a565b9250828201905080821115611d1657611d15611c42565b5b92915050565b7f4e487b71000000000000000000000000000000000000000000000000000000005f52601260045260245ffd5b5f611d538261140a565b9150611d5e8361140a565b925082611d6e57611d6d611d1c565b5b828204905092915050565b5f6020601f8301049050919050565b5f82821b905092915050565b5f60088302611dc37fffffffffffffffffffffffffffffffffffffffffffffffffffffffffffffffff82611d88565b611dcd8683611d88565b95508019841693508086168417925050509392505050565b5f819050919050565b5f611e08611e03611dfe8461140a565b611de5565b61140a565b9050919050565b5f819050919050565b611e2183611dee565b611e35611e2d82611e0f565b848454611d94565b825550505050565b5f90565b611e49611e3d565b611e54818484611e18565b505050565b5b81811015611e7757611e6c5f82611e41565b600181019050611e5a565b5050565b601f821115611ebc57611e8d81611ad4565b611e9684611d79565b81016020851015611ea5578190505b611eb9611eb185611d79565b830182611e59565b50505b505050565b5f82821c905092915050565b5f611edc5f1984600802611ec1565b1980831691505092915050565b5f611ef48383611ecd565b9150826002028217905092915050565b611f0d82611464565b67ffffffffffffffff811115611f2657611f2561129f565b5b611f308254611aa4565b611f3b828285611e7b565b5f60209050601f831160018114611f6c575f8415611f5a578287015190505b611f648582611ee9565b865550611fcb565b601f198416611f7a86611ad4565b5f5b82811015611fa157848901518255600182019150602085019450602081019050611f7c565b86831015611fbe5784890151611fba601f891682611ecd565b8355505b6001600288020188555050505b50505050505056fea26469706673582212209b572ba755fdf29d2900838204cecacdd19f7402d72fb521996c773d58ffc41d64736f6c634300081a0033",
					"opcodes": "PUSH1 0x80 PUSH1 0x40 MSTORE CALLVALUE DUP1 ISZERO PUSH1 0xE JUMPI PUSH0 DUP1 REVERT JUMPDEST POP PUSH2 0x2009 DUP1 PUSH2 0x1C PUSH0 CODECOPY PUSH0 RETURN INVALID PUSH1 0x80 PUSH1 0x40 MSTORE CALLVALUE DUP1 ISZERO PUSH2 0xF JUMPI PUSH0 DUP1 REVERT JUMPDEST POP PUSH1 0x4 CALLDATASIZE LT PUSH2 0x91 JUMPI PUSH0 CALLDATALOAD PUSH1 0xE0 SHR DUP1 PUSH4 0x877F18B3 GT PUSH2 0x64 JUMPI DUP1 PUSH4 0x877F18B3 EQ PUSH2 0x132 JUMPI DUP1 PUSH4 0x89F915F6 EQ PUSH2 0x150 JUMPI DUP1 PUSH4 0x95863D62 EQ PUSH2 0x16E JUMPI DUP1 PUSH4 0xC7E56AE3 EQ PUSH2 0x19E JUMPI DUP1 PUSH4 0xF1D064B3 EQ PUSH2 0x1BA JUMPI PUSH2 0x91 JUMP JUMPDEST DUP1 PUSH4 0x16020273 EQ PUSH2 0x95 JUMPI DUP1 PUSH4 0x4EBB7603 EQ PUSH2 0xC5 JUMPI DUP1 PUSH4 0x642F9163 EQ PUSH2 0xE4 JUMPI DUP1 PUSH4 0x740D5E10 EQ PUSH2 0x114 JUMPI JUMPDEST PUSH0 DUP1 REVERT JUMPDEST PUSH2 0xAF PUSH1 0x4 DUP1 CALLDATASIZE SUB DUP2 ADD SWAP1 PUSH2 0xAA SWAP2 SWAP1 PUSH2 0x13C3 JUMP JUMPDEST PUSH2 0x1D8 JUMP JUMPDEST PUSH1 0x40 MLOAD PUSH2 0xBC SWAP2 SWAP1 PUSH2 0x1422 JUMP JUMPDEST PUSH1 0x40 MLOAD DUP1 SWAP2 SUB SWAP1 RETURN JUMPDEST PUSH2 0xCD PUSH2 0x2DF JUMP JUMPDEST PUSH1 0x40 MLOAD PUSH2 0xDB SWAP3 SWAP2 SWAP1 PUSH2 0x16A1 JUMP JUMPDEST PUSH1 0x40 MLOAD DUP1 SWAP2 SUB SWAP1 RETURN JUMPDEST PUSH2 0xFE PUSH1 0x4 DUP1 CALLDATASIZE SUB DUP2 ADD SWAP1 PUSH2 0xF9 SWAP2 SWAP1 PUSH2 0x16F9 JUMP JUMPDEST PUSH2 0x71A JUMP JUMPDEST PUSH1 0x40 MLOAD PUSH2 0x10B SWAP2 SWAP1 PUSH2 0x17A5 JUMP JUMPDEST PUSH1 0x40 MLOAD DUP1 SWAP2 SUB SWAP1 RETURN JUMPDEST PUSH2 0x11C PUSH2 0x966 JUMP JUMPDEST PUSH1 0x40 MLOAD PUSH2 0x129 SWAP2 SWAP1 PUSH2 0x1422 JUMP JUMPDEST PUSH1 0x40 MLOAD DUP1 SWAP2 SUB SWAP1 RETURN JUMPDEST PUSH2 0x13A PUSH2 0x9CA JUMP JUMPDEST PUSH1 0x40 MLOAD PUSH2 0x147 SWAP2 SWAP1 PUSH2 0x17DF JUMP JUMPDEST PUSH1 0x40 MLOAD DUP1 SWAP2 SUB SWAP1 RETURN JUMPDEST PUSH2 0x158 PUSH2 0x9DC JUMP JUMPDEST PUSH1 0x40 MLOAD PUSH2 0x165 SWAP2 SWAP1 PUSH2 0x1422 JUMP JUMPDEST PUSH1 0x40 MLOAD DUP1 SWAP2 SUB SWAP1 RETURN JUMPDEST PUSH2 0x188 PUSH1 0x4 DUP1 CALLDATASIZE SUB DUP2 ADD SWAP1 PUSH2 0x183 SWAP2 SWAP1 PUSH2 0x13C3 JUMP JUMPDEST PUSH2 0x9E7 JUMP JUMPDEST PUSH1 0x40 MLOAD PUSH2 0x195 SWAP2 SWAP1 PUSH2 0x17A5 JUMP JUMPDEST PUSH1 0x40 MLOAD DUP1 SWAP2 SUB SWAP1 RETURN JUMPDEST PUSH2 0x1B8 PUSH1 0x4 DUP1 CALLDATASIZE SUB DUP2 ADD SWAP1 PUSH2 0x1B3 SWAP2 SWAP1 PUSH2 0x18DA JUMP JUMPDEST PUSH2 0xD03 JUMP JUMPDEST STOP JUMPDEST PUSH2 0x1C2 PUSH2 0xF15 JUMP JUMPDEST PUSH1 0x40 MLOAD PUSH2 0x1CF SWAP2 SWAP1 PUSH2 0x1962 JUMP JUMPDEST PUSH1 0x40 MLOAD DUP1 SWAP2 SUB SWAP1 RETURN JUMPDEST PUSH0 DUP1 PUSH0 DUP1 SLOAD SWAP1 POP GT PUSH2 0x21F JUMPI PUSH1 0x40 MLOAD PUSH32 0x8C379A000000000000000000000000000000000000000000000000000000000 DUP2 MSTORE PUSH1 0x4 ADD PUSH2 0x216 SWAP1 PUSH2 0x19DC JUMP JUMPDEST PUSH1 0x40 MLOAD DUP1 SWAP2 SUB SWAP1 REVERT JUMPDEST PUSH0 JUMPDEST PUSH0 DUP1 SLOAD SWAP1 POP DUP2 LT ISZERO PUSH2 0x2D8 JUMPI DUP3 PUSH1 0x40 MLOAD PUSH1 0x20 ADD PUSH2 0x23E SWAP2 SWAP1 PUSH2 0x1A34 JUMP JUMPDEST PUSH1 0x40 MLOAD PUSH1 0x20 DUP2 DUP4 SUB SUB DUP2 MSTORE SWAP1 PUSH1 0x40 MSTORE DUP1 MLOAD SWAP1 PUSH1 0x20 ADD KECCAK256 PUSH0 DUP3 DUP2 SLOAD DUP2 LT PUSH2 0x267 JUMPI PUSH2 0x266 PUSH2 0x1A4A JUMP JUMPDEST JUMPDEST SWAP1 PUSH0 MSTORE PUSH1 0x20 PUSH0 KECCAK256 SWAP1 PUSH1 0x5 MUL ADD PUSH0 ADD PUSH1 0x40 MLOAD PUSH1 0x20 ADD PUSH2 0x285 SWAP2 SWAP1 PUSH2 0x1B66 JUMP JUMPDEST PUSH1 0x40 MLOAD PUSH1 0x20 DUP2 DUP4 SUB SUB DUP2 MSTORE SWAP1 PUSH1 0x40 MSTORE DUP1 MLOAD SWAP1 PUSH1 0x20 ADD KECCAK256 SUB PUSH2 0x2CB JUMPI PUSH0 DUP2 DUP2 SLOAD DUP2 LT PUSH2 0x2B3 JUMPI PUSH2 0x2B2 PUSH2 0x1A4A JUMP JUMPDEST JUMPDEST SWAP1 PUSH0 MSTORE PUSH1 0x20 PUSH0 KECCAK256 SWAP1 PUSH1 0x5 MUL ADD PUSH1 0x2 ADD SLOAD SWAP2 POP POP PUSH2 0x2DA JUMP JUMPDEST DUP1 DUP1 PUSH1 0x1 ADD SWAP2 POP POP PUSH2 0x221 JUMP JUMPDEST POP JUMPDEST SWAP2 SWAP1 POP JUMP JUMPDEST PUSH0 PUSH1 0x60 PUSH0 DUP1 DUP1 SLOAD SWAP1 POP GT PUSH2 0x328 JUMPI PUSH1 0x40 MLOAD PUSH32 0x8C379A000000000000000000000000000000000000000000000000000000000 DUP2 MSTORE PUSH1 0x4 ADD PUSH2 0x31F SWAP1 PUSH2 0x1BC6 JUMP JUMPDEST PUSH1 0x40 MLOAD DUP1 SWAP2 SUB SWAP1 REVERT JUMPDEST PUSH0 DUP1 PUSH0 SWAP1 POP JUMPDEST PUSH0 DUP1 SLOAD SWAP1 POP DUP2 LT ISZERO PUSH2 0x3C8 JUMPI PUSH1 0x40 MLOAD PUSH1 0x20 ADD PUSH2 0x349 SWAP1 PUSH2 0x1C2E JUMP JUMPDEST PUSH1 0x40 MLOAD PUSH1 0x20 DUP2 DUP4 SUB SUB DUP2 MSTORE SWAP1 PUSH1 0x40 MSTORE DUP1 MLOAD SWAP1 PUSH1 0x20 ADD KECCAK256 PUSH0 DUP3 DUP2 SLOAD DUP2 LT PUSH2 0x372 JUMPI PUSH2 0x371 PUSH2 0x1A4A JUMP JUMPDEST JUMPDEST SWAP1 PUSH0 MSTORE PUSH1 0x20 PUSH0 KECCAK256 SWAP1 PUSH1 0x5 MUL ADD PUSH1 0x3 ADD PUSH1 0x40 MLOAD PUSH1 0x20 ADD PUSH2 0x391 SWAP2 SWAP1 PUSH2 0x1B66 JUMP JUMPDEST PUSH1 0x40 MLOAD PUSH1 0x20 DUP2 DUP4 SUB SUB DUP2 MSTORE SWAP1 PUSH1 0x40 MSTORE DUP1 MLOAD SWAP1 PUSH1 0x20 ADD KECCAK256 SUB PUSH2 0x3BB JUMPI DUP2 DUP1 PUSH2 0x3B7 SWAP1 PUSH2 0x1C6F JUMP JUMPDEST SWAP3 POP POP JUMPDEST DUP1 DUP1 PUSH1 0x1 ADD SWAP2 POP POP PUSH2 0x32E JUMP JUMPDEST POP PUSH0 DUP2 PUSH8 0xFFFFFFFFFFFFFFFF DUP2 GT ISZERO PUSH2 0x3E4 JUMPI PUSH2 0x3E3 PUSH2 0x129F JUMP JUMPDEST JUMPDEST PUSH1 0x40 MLOAD SWAP1 DUP1 DUP3 MSTORE DUP1 PUSH1 0x20 MUL PUSH1 0x20 ADD DUP3 ADD PUSH1 0x40 MSTORE DUP1 ISZERO PUSH2 0x41D JUMPI DUP2 PUSH1 0x20 ADD JUMPDEST PUSH2 0x40A PUSH2 0x1177 JUMP JUMPDEST DUP2 MSTORE PUSH1 0x20 ADD SWAP1 PUSH1 0x1 SWAP1 SUB SWAP1 DUP2 PUSH2 0x402 JUMPI SWAP1 POP JUMPDEST POP SWAP1 POP PUSH0 JUMPDEST PUSH0 DUP1 SLOAD SWAP1 POP DUP2 LT ISZERO PUSH2 0x70D JUMPI PUSH0 PUSH1 0x40 MLOAD PUSH1 0x20 ADD PUSH2 0x43E SWAP1 PUSH2 0x1C2E JUMP JUMPDEST PUSH1 0x40 MLOAD PUSH1 0x20 DUP2 DUP4 SUB SUB DUP2 MSTORE SWAP1 PUSH1 0x40 MSTORE DUP1 MLOAD SWAP1 PUSH1 0x20 ADD KECCAK256 PUSH0 DUP4 DUP2 SLOAD DUP2 LT PUSH2 0x467 JUMPI PUSH2 0x466 PUSH2 0x1A4A JUMP JUMPDEST JUMPDEST SWAP1 PUSH0 MSTORE PUSH1 0x20 PUSH0 KECCAK256 SWAP1 PUSH1 0x5 MUL ADD PUSH1 0x3 ADD PUSH1 0x40 MLOAD PUSH1 0x20 ADD PUSH2 0x486 SWAP2 SWAP1 PUSH2 0x1B66 JUMP JUMPDEST PUSH1 0x40 MLOAD PUSH1 0x20 DUP2 DUP4 SUB SUB DUP2 MSTORE SWAP1 PUSH1 0x40 MSTORE DUP1 MLOAD SWAP1 PUSH1 0x20 ADD KECCAK256 SUB PUSH2 0x6FF JUMPI PUSH0 DUP3 DUP2 SLOAD DUP2 LT PUSH2 0x4B4 JUMPI PUSH2 0x4B3 PUSH2 0x1A4A JUMP JUMPDEST JUMPDEST SWAP1 PUSH0 MSTORE PUSH1 0x20 PUSH0 KECCAK256 SWAP1 PUSH1 0x5 MUL ADD PUSH1 0x40 MLOAD DUP1 PUSH1 0xA0 ADD PUSH1 0x40 MSTORE SWAP1 DUP2 PUSH0 DUP3 ADD DUP1 SLOAD PUSH2 0x4DA SWAP1 PUSH2 0x1AA4 JUMP JUMPDEST DUP1 PUSH1 0x1F ADD PUSH1 0x20 DUP1 SWAP2 DIV MUL PUSH1 0x20 ADD PUSH1 0x40 MLOAD SWAP1 DUP2 ADD PUSH1 0x40 MSTORE DUP1 SWAP3 SWAP2 SWAP1 DUP2 DUP2 MSTORE PUSH1 0x20 ADD DUP3 DUP1 SLOAD PUSH2 0x506 SWAP1 PUSH2 0x1AA4 JUMP JUMPDEST DUP1 ISZERO PUSH2 0x551 JUMPI DUP1 PUSH1 0x1F LT PUSH2 0x528 JUMPI PUSH2 0x100 DUP1 DUP4 SLOAD DIV MUL DUP4 MSTORE SWAP2 PUSH1 0x20 ADD SWAP2 PUSH2 0x551 JUMP JUMPDEST DUP3 ADD SWAP2 SWAP1 PUSH0 MSTORE PUSH1 0x20 PUSH0 KECCAK256 SWAP1 JUMPDEST DUP2 SLOAD DUP2 MSTORE SWAP1 PUSH1 0x1 ADD SWAP1 PUSH1 0x20 ADD DUP1 DUP4 GT PUSH2 0x534 JUMPI DUP3 SWAP1 SUB PUSH1 0x1F AND DUP3 ADD SWAP2 JUMPDEST POP POP POP POP POP DUP2 MSTORE PUSH1 0x20 ADD PUSH1 0x1 DUP3 ADD SLOAD DUP2 MSTORE PUSH1 0x20 ADD PUSH1 0x2 DUP3 ADD SLOAD DUP2 MSTORE PUSH1 0x20 ADD PUSH1 0x3 DUP3 ADD DUP1 SLOAD PUSH2 0x57E SWAP1 PUSH2 0x1AA4 JUMP JUMPDEST DUP1 PUSH1 0x1F ADD PUSH1 0x20 DUP1 SWAP2 DIV MUL PUSH1 0x20 ADD PUSH1 0x40 MLOAD SWAP1 DUP2 ADD PUSH1 0x40 MSTORE DUP1 SWAP3 SWAP2 SWAP1 DUP2 DUP2 MSTORE PUSH1 0x20 ADD DUP3 DUP1 SLOAD PUSH2 0x5AA SWAP1 PUSH2 0x1AA4 JUMP JUMPDEST DUP1 ISZERO PUSH2 0x5F5 JUMPI DUP1 PUSH1 0x1F LT PUSH2 0x5CC JUMPI PUSH2 0x100 DUP1 DUP4 SLOAD DIV MUL DUP4 MSTORE SWAP2 PUSH1 0x20 ADD SWAP2 PUSH2 0x5F5 JUMP JUMPDEST DUP3 ADD SWAP2 SWAP1 PUSH0 MSTORE PUSH1 0x20 PUSH0 KECCAK256 SWAP1 JUMPDEST DUP2 SLOAD DUP2 MSTORE SWAP1 PUSH1 0x1 ADD SWAP1 PUSH1 0x20 ADD DUP1 DUP4 GT PUSH2 0x5D8 JUMPI DUP3 SWAP1 SUB PUSH1 0x1F AND DUP3 ADD SWAP2 JUMPDEST POP POP POP POP POP DUP2 MSTORE PUSH1 0x20 ADD PUSH1 0x4 DUP3 ADD DUP1 SLOAD DUP1 PUSH1 0x20 MUL PUSH1 0x20 ADD PUSH1 0x40 MLOAD SWAP1 DUP2 ADD PUSH1 0x40 MSTORE DUP1 SWAP3 SWAP2 SWAP1 DUP2 DUP2 MSTORE PUSH1 0x20 ADD PUSH0 SWAP1 JUMPDEST DUP3 DUP3 LT ISZERO PUSH2 0x6CA JUMPI DUP4 DUP3 SWAP1 PUSH0 MSTORE PUSH1 0x20 PUSH0 KECCAK256 ADD DUP1 SLOAD PUSH2 0x63F SWAP1 PUSH2 0x1AA4 JUMP JUMPDEST DUP1 PUSH1 0x1F ADD PUSH1 0x20 DUP1 SWAP2 DIV MUL PUSH1 0x20 ADD PUSH1 0x40 MLOAD SWAP1 DUP2 ADD PUSH1 0x40 MSTORE DUP1 SWAP3 SWAP2 SWAP1 DUP2 DUP2 MSTORE PUSH1 0x20 ADD DUP3 DUP1 SLOAD PUSH2 0x66B SWAP1 PUSH2 0x1AA4 JUMP JUMPDEST DUP1 ISZERO PUSH2 0x6B6 JUMPI DUP1 PUSH1 0x1F LT PUSH2 0x68D JUMPI PUSH2 0x100 DUP1 DUP4 SLOAD DIV MUL DUP4 MSTORE SWAP2 PUSH1 0x20 ADD SWAP2 PUSH2 0x6B6 JUMP JUMPDEST DUP3 ADD SWAP2 SWAP1 PUSH0 MSTORE PUSH1 0x20 PUSH0 KECCAK256 SWAP1 JUMPDEST DUP2 SLOAD DUP2 MSTORE SWAP1 PUSH1 0x1 ADD SWAP1 PUSH1 0x20 ADD DUP1 DUP4 GT PUSH2 0x699 JUMPI DUP3 SWAP1 SUB PUSH1 0x1F AND DUP3 ADD SWAP2 JUMPDEST POP POP POP POP POP DUP2 MSTORE PUSH1 0x20 ADD SWAP1 PUSH1 0x1 ADD SWAP1 PUSH2 0x622 JUMP JUMPDEST POP POP POP POP DUP2 MSTORE POP POP DUP4 DUP3 DUP2 MLOAD DUP2 LT PUSH2 0x6E5 JUMPI PUSH2 0x6E4 PUSH2 0x1A4A JUMP JUMPDEST JUMPDEST PUSH1 0x20 MUL PUSH1 0x20 ADD ADD DUP2 SWAP1 MSTORE POP DUP1 DUP1 PUSH2 0x6FB SWAP1 PUSH2 0x1C6F JUMP JUMPDEST SWAP2 POP POP JUMPDEST POP DUP1 DUP1 PUSH1 0x1 ADD SWAP2 POP POP PUSH2 0x422 JUMP JUMPDEST POP DUP2 DUP2 SWAP4 POP SWAP4 POP POP POP SWAP1 SWAP2 JUMP JUMPDEST PUSH2 0x722 PUSH2 0x1177 JUMP JUMPDEST PUSH0 PUSH1 0x1 DUP4 PUSH2 0x730 SWAP2 SWAP1 PUSH2 0x1CB6 JUMP JUMPDEST DUP2 SLOAD DUP2 LT PUSH2 0x741 JUMPI PUSH2 0x740 PUSH2 0x1A4A JUMP JUMPDEST JUMPDEST SWAP1 PUSH0 MSTORE PUSH1 0x20 PUSH0 KECCAK256 SWAP1 PUSH1 0x5 MUL ADD PUSH1 0x40 MLOAD DUP1 PUSH1 0xA0 ADD PUSH1 0x40 MSTORE SWAP1 DUP2 PUSH0 DUP3 ADD DUP1 SLOAD PUSH2 0x767 SWAP1 PUSH2 0x1AA4 JUMP JUMPDEST DUP1 PUSH1 0x1F ADD PUSH1 0x20 DUP1 SWAP2 DIV MUL PUSH1 0x20 ADD PUSH1 0x40 MLOAD SWAP1 DUP2 ADD PUSH1 0x40 MSTORE DUP1 SWAP3 SWAP2 SWAP1 DUP2 DUP2 MSTORE PUSH1 0x20 ADD DUP3 DUP1 SLOAD PUSH2 0x793 SWAP1 PUSH2 0x1AA4 JUMP JUMPDEST DUP1 ISZERO PUSH2 0x7DE JUMPI DUP1 PUSH1 0x1F LT PUSH2 0x7B5 JUMPI PUSH2 0x100 DUP1 DUP4 SLOAD DIV MUL DUP4 MSTORE SWAP2 PUSH1 0x20 ADD SWAP2 PUSH2 0x7DE JUMP JUMPDEST DUP3 ADD SWAP2 SWAP1 PUSH0 MSTORE PUSH1 0x20 PUSH0 KECCAK256 SWAP1 JUMPDEST DUP2 SLOAD DUP2 MSTORE SWAP1 PUSH1 0x1 ADD SWAP1 PUSH1 0x20 ADD DUP1 DUP4 GT PUSH2 0x7C1 JUMPI DUP3 SWAP1 SUB PUSH1 0x1F AND DUP3 ADD SWAP2 JUMPDEST POP POP POP POP POP DUP2 MSTORE PUSH1 0x20 ADD PUSH1 0x1 DUP3 ADD SLOAD DUP2 MSTORE PUSH1 0x20 ADD PUSH1 0x2 DUP3 ADD SLOAD DUP2 MSTORE PUSH1 0x20 ADD PUSH1 0x3 DUP3 ADD DUP1 SLOAD PUSH2 0x80B SWAP1 PUSH2 0x1AA4 JUMP JUMPDEST DUP1 PUSH1 0x1F ADD PUSH1 0x20 DUP1 SWAP2 DIV MUL PUSH1 0x20 ADD PUSH1 0x40 MLOAD SWAP1 DUP2 ADD PUSH1 0x40 MSTORE DUP1 SWAP3 SWAP2 SWAP1 DUP2 DUP2 MSTORE PUSH1 0x20 ADD DUP3 DUP1 SLOAD PUSH2 0x837 SWAP1 PUSH2 0x1AA4 JUMP JUMPDEST DUP1 ISZERO PUSH2 0x882 JUMPI DUP1 PUSH1 0x1F LT PUSH2 0x859 JUMPI PUSH2 0x100 DUP1 DUP4 SLOAD DIV MUL DUP4 MSTORE SWAP2 PUSH1 0x20 ADD SWAP2 PUSH2 0x882 JUMP JUMPDEST DUP3 ADD SWAP2 SWAP1 PUSH0 MSTORE PUSH1 0x20 PUSH0 KECCAK256 SWAP1 JUMPDEST DUP2 SLOAD DUP2 MSTORE SWAP1 PUSH1 0x1 ADD SWAP1 PUSH1 0x20 ADD DUP1 DUP4 GT PUSH2 0x865 JUMPI DUP3 SWAP1 SUB PUSH1 0x1F AND DUP3 ADD SWAP2 JUMPDEST POP POP POP POP POP DUP2 MSTORE PUSH1 0x20 ADD PUSH1 0x4 DUP3 ADD DUP1 SLOAD DUP1 PUSH1 0x20 MUL PUSH1 0x20 ADD PUSH1 0x40 MLOAD SWAP1 DUP2 ADD PUSH1 0x40 MSTORE DUP1 SWAP3 SWAP2 SWAP1 DUP2 DUP2 MSTORE PUSH1 0x20 ADD PUSH0 SWAP1 JUMPDEST DUP3 DUP3 LT ISZERO PUSH2 0x957 JUMPI DUP4 DUP3 SWAP1 PUSH0 MSTORE PUSH1 0x20 PUSH0 KECCAK256 ADD DUP1 SLOAD PUSH2 0x8CC SWAP1 PUSH2 0x1AA4 JUMP JUMPDEST DUP1 PUSH1 0x1F ADD PUSH1 0x20 DUP1 SWAP2 DIV MUL PUSH1 0x20 ADD PUSH1 0x40 MLOAD SWAP1 DUP2 ADD PUSH1 0x40 MSTORE DUP1 SWAP3 SWAP2 SWAP1 DUP2 DUP2 MSTORE PUSH1 0x20 ADD DUP3 DUP1 SLOAD PUSH2 0x8F8 SWAP1 PUSH2 0x1AA4 JUMP JUMPDEST DUP1 ISZERO PUSH2 0x943 JUMPI DUP1 PUSH1 0x1F LT PUSH2 0x91A JUMPI PUSH2 0x100 DUP1 DUP4 SLOAD DIV MUL DUP4 MSTORE SWAP2 PUSH1 0x20 ADD SWAP2 PUSH2 0x943 JUMP JUMPDEST DUP3 ADD SWAP2 SWAP1 PUSH0 MSTORE PUSH1 0x20 PUSH0 KECCAK256 SWAP1 JUMPDEST DUP2 SLOAD DUP2 MSTORE SWAP1 PUSH1 0x1 ADD SWAP1 PUSH1 0x20 ADD DUP1 DUP4 GT PUSH2 0x926 JUMPI DUP3 SWAP1 SUB PUSH1 0x1F AND DUP3 ADD SWAP2 JUMPDEST POP POP POP POP POP DUP2 MSTORE PUSH1 0x20 ADD SWAP1 PUSH1 0x1 ADD SWAP1 PUSH2 0x8AF JUMP JUMPDEST POP POP POP POP DUP2 MSTORE POP POP SWAP1 POP SWAP2 SWAP1 POP JUMP JUMPDEST PUSH0 DUP1 PUSH0 JUMPDEST PUSH0 DUP1 SLOAD SWAP1 POP DUP2 LT ISZERO PUSH2 0x9B3 JUMPI PUSH0 DUP2 DUP2 SLOAD DUP2 LT PUSH2 0x989 JUMPI PUSH2 0x988 PUSH2 0x1A4A JUMP JUMPDEST JUMPDEST SWAP1 PUSH0 MSTORE PUSH1 0x20 PUSH0 KECCAK256 SWAP1 PUSH1 0x5 MUL ADD PUSH1 0x2 ADD SLOAD DUP3 PUSH2 0x9A4 SWAP2 SWAP1 PUSH2 0x1CE9 JUMP JUMPDEST SWAP2 POP DUP1 DUP1 PUSH1 0x1 ADD SWAP2 POP POP PUSH2 0x96A JUMP JUMPDEST POP PUSH0 DUP1 SLOAD SWAP1 POP DUP2 PUSH2 0x9C4 SWAP2 SWAP1 PUSH2 0x1D49 JUMP JUMPDEST SWAP2 POP POP SWAP1 JUMP JUMPDEST PUSH0 PUSH1 0x46 PUSH2 0x9D5 PUSH2 0x966 JUMP JUMPDEST LT ISZERO SWAP1 POP SWAP1 JUMP JUMPDEST PUSH0 DUP1 DUP1 SLOAD SWAP1 POP SWAP1 POP SWAP1 JUMP JUMPDEST PUSH2 0x9EF PUSH2 0x1177 JUMP JUMPDEST PUSH0 DUP1 DUP1 SLOAD SWAP1 POP GT PUSH2 0xA35 JUMPI PUSH1 0x40 MLOAD PUSH32 0x8C379A000000000000000000000000000000000000000000000000000000000 DUP2 MSTORE PUSH1 0x4 ADD PUSH2 0xA2C SWAP1 PUSH2 0x19DC JUMP JUMPDEST PUSH1 0x40 MLOAD DUP1 SWAP2 SUB SWAP1 REVERT JUMPDEST PUSH0 JUMPDEST PUSH0 DUP1 SLOAD SWAP1 POP DUP2 LT ISZERO PUSH2 0xCFC JUMPI DUP3 PUSH1 0x40 MLOAD PUSH1 0x20 ADD PUSH2 0xA54 SWAP2 SWAP1 PUSH2 0x1A34 JUMP JUMPDEST PUSH1 0x40 MLOAD PUSH1 0x20 DUP2 DUP4 SUB SUB DUP2 MSTORE SWAP1 PUSH1 0x40 MSTORE DUP1 MLOAD SWAP1 PUSH1 0x20 ADD KECCAK256 PUSH0 DUP3 DUP2 SLOAD DUP2 LT PUSH2 0xA7D JUMPI PUSH2 0xA7C PUSH2 0x1A4A JUMP JUMPDEST JUMPDEST SWAP1 PUSH0 MSTORE PUSH1 0x20 PUSH0 KECCAK256 SWAP1 PUSH1 0x5 MUL ADD PUSH0 ADD PUSH1 0x40 MLOAD PUSH1 0x20 ADD PUSH2 0xA9B SWAP2 SWAP1 PUSH2 0x1B66 JUMP JUMPDEST PUSH1 0x40 MLOAD PUSH1 0x20 DUP2 DUP4 SUB SUB DUP2 MSTORE SWAP1 PUSH1 0x40 MSTORE DUP1 MLOAD SWAP1 PUSH1 0x20 ADD KECCAK256 SUB PUSH2 0xCEF JUMPI PUSH0 DUP2 DUP2 SLOAD DUP2 LT PUSH2 0xAC9 JUMPI PUSH2 0xAC8 PUSH2 0x1A4A JUMP JUMPDEST JUMPDEST SWAP1 PUSH0 MSTORE PUSH1 0x20 PUSH0 KECCAK256 SWAP1 PUSH1 0x5 MUL ADD PUSH1 0x40 MLOAD DUP1 PUSH1 0xA0 ADD PUSH1 0x40 MSTORE SWAP1 DUP2 PUSH0 DUP3 ADD DUP1 SLOAD PUSH2 0xAEF SWAP1 PUSH2 0x1AA4 JUMP JUMPDEST DUP1 PUSH1 0x1F ADD PUSH1 0x20 DUP1 SWAP2 DIV MUL PUSH1 0x20 ADD PUSH1 0x40 MLOAD SWAP1 DUP2 ADD PUSH1 0x40 MSTORE DUP1 SWAP3 SWAP2 SWAP1 DUP2 DUP2 MSTORE PUSH1 0x20 ADD DUP3 DUP1 SLOAD PUSH2 0xB1B SWAP1 PUSH2 0x1AA4 JUMP JUMPDEST DUP1 ISZERO PUSH2 0xB66 JUMPI DUP1 PUSH1 0x1F LT PUSH2 0xB3D JUMPI PUSH2 0x100 DUP1 DUP4 SLOAD DIV MUL DUP4 MSTORE SWAP2 PUSH1 0x20 ADD SWAP2 PUSH2 0xB66 JUMP JUMPDEST DUP3 ADD SWAP2 SWAP1 PUSH0 MSTORE PUSH1 0x20 PUSH0 KECCAK256 SWAP1 JUMPDEST DUP2 SLOAD DUP2 MSTORE SWAP1 PUSH1 0x1 ADD SWAP1 PUSH1 0x20 ADD DUP1 DUP4 GT PUSH2 0xB49 JUMPI DUP3 SWAP1 SUB PUSH1 0x1F AND DUP3 ADD SWAP2 JUMPDEST POP POP POP POP POP DUP2 MSTORE PUSH1 0x20 ADD PUSH1 0x1 DUP3 ADD SLOAD DUP2 MSTORE PUSH1 0x20 ADD PUSH1 0x2 DUP3 ADD SLOAD DUP2 MSTORE PUSH1 0x20 ADD PUSH1 0x3 DUP3 ADD DUP1 SLOAD PUSH2 0xB93 SWAP1 PUSH2 0x1AA4 JUMP JUMPDEST DUP1 PUSH1 0x1F ADD PUSH1 0x20 DUP1 SWAP2 DIV MUL PUSH1 0x20 ADD PUSH1 0x40 MLOAD SWAP1 DUP2 ADD PUSH1 0x40 MSTORE DUP1 SWAP3 SWAP2 SWAP1 DUP2 DUP2 MSTORE PUSH1 0x20 ADD DUP3 DUP1 SLOAD PUSH2 0xBBF SWAP1 PUSH2 0x1AA4 JUMP JUMPDEST DUP1 ISZERO PUSH2 0xC0A JUMPI DUP1 PUSH1 0x1F LT PUSH2 0xBE1 JUMPI PUSH2 0x100 DUP1 DUP4 SLOAD DIV MUL DUP4 MSTORE SWAP2 PUSH1 0x20 ADD SWAP2 PUSH2 0xC0A JUMP JUMPDEST DUP3 ADD SWAP2 SWAP1 PUSH0 MSTORE PUSH1 0x20 PUSH0 KECCAK256 SWAP1 JUMPDEST DUP2 SLOAD DUP2 MSTORE SWAP1 PUSH1 0x1 ADD SWAP1 PUSH1 0x20 ADD DUP1 DUP4 GT PUSH2 0xBED JUMPI DUP3 SWAP1 SUB PUSH1 0x1F AND DUP3 ADD SWAP2 JUMPDEST POP POP POP POP POP DUP2 MSTORE PUSH1 0x20 ADD PUSH1 0x4 DUP3 ADD DUP1 SLOAD DUP1 PUSH1 0x20 MUL PUSH1 0x20 ADD PUSH1 0x40 MLOAD SWAP1 DUP2 ADD PUSH1 0x40 MSTORE DUP1 SWAP3 SWAP2 SWAP1 DUP2 DUP2 MSTORE PUSH1 0x20 ADD PUSH0 SWAP1 JUMPDEST DUP3 DUP3 LT ISZERO PUSH2 0xCDF JUMPI DUP4 DUP3 SWAP1 PUSH0 MSTORE PUSH1 0x20 PUSH0 KECCAK256 ADD DUP1 SLOAD PUSH2 0xC54 SWAP1 PUSH2 0x1AA4 JUMP JUMPDEST DUP1 PUSH1 0x1F ADD PUSH1 0x20 DUP1 SWAP2 DIV MUL PUSH1 0x20 ADD PUSH1 0x40 MLOAD SWAP1 DUP2 ADD PUSH1 0x40 MSTORE DUP1 SWAP3 SWAP2 SWAP1 DUP2 DUP2 MSTORE PUSH1 0x20 ADD DUP3 DUP1 SLOAD PUSH2 0xC80 SWAP1 PUSH2 0x1AA4 JUMP JUMPDEST DUP1 ISZERO PUSH2 0xCCB JUMPI DUP1 PUSH1 0x1F LT PUSH2 0xCA2 JUMPI PUSH2 0x100 DUP1 DUP4 SLOAD DIV MUL DUP4 MSTORE SWAP2 PUSH1 0x20 ADD SWAP2 PUSH2 0xCCB JUMP JUMPDEST DUP3 ADD SWAP2 SWAP1 PUSH0 MSTORE PUSH1 0x20 PUSH0 KECCAK256 SWAP1 JUMPDEST DUP2 SLOAD DUP2 MSTORE SWAP1 PUSH1 0x1 ADD SWAP1 PUSH1 0x20 ADD DUP1 DUP4 GT PUSH2 0xCAE JUMPI DUP3 SWAP1 SUB PUSH1 0x1F AND DUP3 ADD SWAP2 JUMPDEST POP POP POP POP POP DUP2 MSTORE PUSH1 0x20 ADD SWAP1 PUSH1 0x1 ADD SWAP1 PUSH2 0xC37 JUMP JUMPDEST POP POP POP POP DUP2 MSTORE POP POP SWAP2 POP POP PUSH2 0xCFE JUMP JUMPDEST DUP1 DUP1 PUSH1 0x1 ADD SWAP2 POP POP PUSH2 0xA37 JUMP JUMPDEST POP JUMPDEST SWAP2 SWAP1 POP JUMP JUMPDEST PUSH0 PUSH1 0x1 PUSH0 DUP1 SLOAD SWAP1 POP PUSH2 0xD15 SWAP2 SWAP1 PUSH2 0x1CE9 JUMP JUMPDEST SWAP1 POP PUSH0 PUSH1 0x40 MLOAD DUP1 PUSH1 0x40 ADD PUSH1 0x40 MSTORE DUP1 PUSH1 0x1 DUP2 MSTORE PUSH1 0x20 ADD PUSH32 0x4600000000000000000000000000000000000000000000000000000000000000 DUP2 MSTORE POP SWAP1 POP PUSH1 0x5A DUP5 LT PUSH2 0xD95 JUMPI PUSH1 0x40 MLOAD DUP1 PUSH1 0x40 ADD PUSH1 0x40 MSTORE DUP1 PUSH1 0x1 DUP2 MSTORE PUSH1 0x20 ADD PUSH32 0x4100000000000000000000000000000000000000000000000000000000000000 DUP2 MSTORE POP SWAP1 POP PUSH2 0xE63 JUMP JUMPDEST PUSH1 0x50 DUP5 LT PUSH2 0xDDA JUMPI PUSH1 0x40 MLOAD DUP1 PUSH1 0x40 ADD PUSH1 0x40 MSTORE DUP1 PUSH1 0x1 DUP2 MSTORE PUSH1 0x20 ADD PUSH32 0x4200000000000000000000000000000000000000000000000000000000000000 DUP2 MSTORE POP SWAP1 POP PUSH2 0xE62 JUMP JUMPDEST PUSH1 0x46 DUP5 LT PUSH2 0xE1F JUMPI PUSH1 0x40 MLOAD DUP1 PUSH1 0x40 ADD PUSH1 0x40 MSTORE DUP1 PUSH1 0x1 DUP2 MSTORE PUSH1 0x20 ADD PUSH32 0x4300000000000000000000000000000000000000000000000000000000000000 DUP2 MSTORE POP SWAP1 POP PUSH2 0xE61 JUMP JUMPDEST PUSH1 0x3C DUP5 LT PUSH2 0xE60 JUMPI PUSH1 0x40 MLOAD DUP1 PUSH1 0x40 ADD PUSH1 0x40 MSTORE DUP1 PUSH1 0x1 DUP2 MSTORE PUSH1 0x20 ADD PUSH32 0x4400000000000000000000000000000000000000000000000000000000000000 DUP2 MSTORE POP SWAP1 POP JUMPDEST JUMPDEST JUMPDEST JUMPDEST PUSH0 PUSH1 0x40 MLOAD DUP1 PUSH1 0xA0 ADD PUSH1 0x40 MSTORE DUP1 DUP8 DUP2 MSTORE PUSH1 0x20 ADD DUP5 DUP2 MSTORE PUSH1 0x20 ADD DUP7 DUP2 MSTORE PUSH1 0x20 ADD DUP4 DUP2 MSTORE PUSH1 0x20 ADD DUP6 DUP2 MSTORE POP SWAP1 DUP1 PUSH1 0x1 DUP2 SLOAD ADD DUP1 DUP3 SSTORE DUP1 SWAP2 POP POP PUSH1 0x1 SWAP1 SUB SWAP1 PUSH0 MSTORE PUSH1 0x20 PUSH0 KECCAK256 SWAP1 PUSH1 0x5 MUL ADD PUSH0 SWAP1 SWAP2 SWAP1 SWAP2 SWAP1 SWAP2 POP PUSH0 DUP3 ADD MLOAD DUP2 PUSH0 ADD SWAP1 DUP2 PUSH2 0xEC4 SWAP2 SWAP1 PUSH2 0x1F04 JUMP JUMPDEST POP PUSH1 0x20 DUP3 ADD MLOAD DUP2 PUSH1 0x1 ADD SSTORE PUSH1 0x40 DUP3 ADD MLOAD DUP2 PUSH1 0x2 ADD SSTORE PUSH1 0x60 DUP3 ADD MLOAD DUP2 PUSH1 0x3 ADD SWAP1 DUP2 PUSH2 0xEEE SWAP2 SWAP1 PUSH2 0x1F04 JUMP JUMPDEST POP PUSH1 0x80 DUP3 ADD MLOAD DUP2 PUSH1 0x4 ADD SWAP1 DUP1 MLOAD SWAP1 PUSH1 0x20 ADD SWAP1 PUSH2 0xF0B SWAP3 SWAP2 SWAP1 PUSH2 0x11A4 JUMP JUMPDEST POP POP POP POP POP POP POP POP JUMP JUMPDEST PUSH1 0x60 PUSH0 DUP1 SLOAD DUP1 PUSH1 0x20 MUL PUSH1 0x20 ADD PUSH1 0x40 MLOAD SWAP1 DUP2 ADD PUSH1 0x40 MSTORE DUP1 SWAP3 SWAP2 SWAP1 DUP2 DUP2 MSTORE PUSH1 0x20 ADD PUSH0 SWAP1 JUMPDEST DUP3 DUP3 LT ISZERO PUSH2 0x116E JUMPI DUP4 DUP3 SWAP1 PUSH0 MSTORE PUSH1 0x20 PUSH0 KECCAK256 SWAP1 PUSH1 0x5 MUL ADD PUSH1 0x40 MLOAD DUP1 PUSH1 0xA0 ADD PUSH1 0x40 MSTORE SWAP1 DUP2 PUSH0 DUP3 ADD DUP1 SLOAD PUSH2 0xF67 SWAP1 PUSH2 0x1AA4 JUMP JUMPDEST DUP1 PUSH1 0x1F ADD PUSH1 0x20 DUP1 SWAP2 DIV MUL PUSH1 0x20 ADD PUSH1 0x40 MLOAD SWAP1 DUP2 ADD PUSH1 0x40 MSTORE DUP1 SWAP3 SWAP2 SWAP1 DUP2 DUP2 MSTORE PUSH1 0x20 ADD DUP3 DUP1 SLOAD PUSH2 0xF93 SWAP1 PUSH2 0x1AA4 JUMP JUMPDEST DUP1 ISZERO PUSH2 0xFDE JUMPI DUP1 PUSH1 0x1F LT PUSH2 0xFB5 JUMPI PUSH2 0x100 DUP1 DUP4 SLOAD DIV MUL DUP4 MSTORE SWAP2 PUSH1 0x20 ADD SWAP2 PUSH2 0xFDE JUMP JUMPDEST DUP3 ADD SWAP2 SWAP1 PUSH0 MSTORE PUSH1 0x20 PUSH0 KECCAK256 SWAP1 JUMPDEST DUP2 SLOAD DUP2 MSTORE SWAP1 PUSH1 0x1 ADD SWAP1 PUSH1 0x20 ADD DUP1 DUP4 GT PUSH2 0xFC1 JUMPI DUP3 SWAP1 SUB PUSH1 0x1F AND DUP3 ADD SWAP2 JUMPDEST POP POP POP POP POP DUP2 MSTORE PUSH1 0x20 ADD PUSH1 0x1 DUP3 ADD SLOAD DUP2 MSTORE PUSH1 0x20 ADD PUSH1 0x2 DUP3 ADD SLOAD DUP2 MSTORE PUSH1 0x20 ADD PUSH1 0x3 DUP3 ADD DUP1 SLOAD PUSH2 0x100B SWAP1 PUSH2 0x1AA4 JUMP JUMPDEST DUP1 PUSH1 0x1F ADD PUSH1 0x20 DUP1 SWAP2 DIV MUL PUSH1 0x20 ADD PUSH1 0x40 MLOAD SWAP1 DUP2 ADD PUSH1 0x40 MSTORE DUP1 SWAP3 SWAP2 SWAP1 DUP2 DUP2 MSTORE PUSH1 0x20 ADD DUP3 DUP1 SLOAD PUSH2 0x1037 SWAP1 PUSH2 0x1AA4 JUMP JUMPDEST DUP1 ISZERO PUSH2 0x1082 JUMPI DUP1 PUSH1 0x1F LT PUSH2 0x1059 JUMPI PUSH2 0x100 DUP1 DUP4 SLOAD DIV MUL DUP4 MSTORE SWAP2 PUSH1 0x20 ADD SWAP2 PUSH2 0x1082 JUMP JUMPDEST DUP3 ADD SWAP2 SWAP1 PUSH0 MSTORE PUSH1 0x20 PUSH0 KECCAK256 SWAP1 JUMPDEST DUP2 SLOAD DUP2 MSTORE SWAP1 PUSH1 0x1 ADD SWAP1 PUSH1 0x20 ADD DUP1 DUP4 GT PUSH2 0x1065 JUMPI DUP3 SWAP1 SUB PUSH1 0x1F AND DUP3 ADD SWAP2 JUMPDEST POP POP POP POP POP DUP2 MSTORE PUSH1 0x20 ADD PUSH1 0x4 DUP3 ADD DUP1 SLOAD DUP1 PUSH1 0x20 MUL PUSH1 0x20 ADD PUSH1 0x40 MLOAD SWAP1 DUP2 ADD PUSH1 0x40 MSTORE DUP1 SWAP3 SWAP2 SWAP1 DUP2 DUP2 MSTORE PUSH1 0x20 ADD PUSH0 SWAP1 JUMPDEST DUP3 DUP3 LT ISZERO PUSH2 0x1157 JUMPI DUP4 DUP3 SWAP1 PUSH0 MSTORE PUSH1 0x20 PUSH0 KECCAK256 ADD DUP1 SLOAD PUSH2 0x10CC SWAP1 PUSH2 0x1AA4 JUMP JUMPDEST DUP1 PUSH1 0x1F ADD PUSH1 0x20 DUP1 SWAP2 DIV MUL PUSH1 0x20 ADD PUSH1 0x40 MLOAD SWAP1 DUP2 ADD PUSH1 0x40 MSTORE DUP1 SWAP3 SWAP2 SWAP1 DUP2 DUP2 MSTORE PUSH1 0x20 ADD DUP3 DUP1 SLOAD PUSH2 0x10F8 SWAP1 PUSH2 0x1AA4 JUMP JUMPDEST DUP1 ISZERO PUSH2 0x1143 JUMPI DUP1 PUSH1 0x1F LT PUSH2 0x111A JUMPI PUSH2 0x100 DUP1 DUP4 SLOAD DIV MUL DUP4 MSTORE SWAP2 PUSH1 0x20 ADD SWAP2 PUSH2 0x1143 JUMP JUMPDEST DUP3 ADD SWAP2 SWAP1 PUSH0 MSTORE PUSH1 0x20 PUSH0 KECCAK256 SWAP1 JUMPDEST DUP2 SLOAD DUP2 MSTORE SWAP1 PUSH1 0x1 ADD SWAP1 PUSH1 0x20 ADD DUP1 DUP4 GT PUSH2 0x1126 JUMPI DUP3 SWAP1 SUB PUSH1 0x1F AND DUP3 ADD SWAP2 JUMPDEST POP POP POP POP POP DUP2 MSTORE PUSH1 0x20 ADD SWAP1 PUSH1 0x1 ADD SWAP1 PUSH2 0x10AF JUMP JUMPDEST POP POP POP POP DUP2 MSTORE POP POP DUP2 MSTORE PUSH1 0x20 ADD SWAP1 PUSH1 0x1 ADD SWAP1 PUSH2 0xF37 JUMP JUMPDEST POP POP POP POP SWAP1 POP SWAP1 JUMP JUMPDEST PUSH1 0x40 MLOAD DUP1 PUSH1 0xA0 ADD PUSH1 0x40 MSTORE DUP1 PUSH1 0x60 DUP2 MSTORE PUSH1 0x20 ADD PUSH0 DUP2 MSTORE PUSH1 0x20 ADD PUSH0 DUP2 MSTORE PUSH1 0x20 ADD PUSH1 0x60 DUP2 MSTORE PUSH1 0x20 ADD PUSH1 0x60 DUP2 MSTORE POP SWAP1 JUMP JUMPDEST DUP3 DUP1 SLOAD DUP3 DUP3 SSTORE SWAP1 PUSH0 MSTORE PUSH1 0x20 PUSH0 KECCAK256 SWAP1 DUP2 ADD SWAP3 DUP3 ISZERO PUSH2 0x11EA JUMPI SWAP2 PUSH1 0x20 MUL DUP3 ADD JUMPDEST DUP3 DUP2 GT ISZERO PUSH2 0x11E9 JUMPI DUP3 MLOAD DUP3 SWAP1 DUP2 PUSH2 0x11D9 SWAP2 SWAP1 PUSH2 0x1F04 JUMP JUMPDEST POP SWAP2 PUSH1 0x20 ADD SWAP2 SWAP1 PUSH1 0x1 ADD SWAP1 PUSH2 0x11C2 JUMP JUMPDEST JUMPDEST POP SWAP1 POP PUSH2 0x11F7 SWAP2 SWAP1 PUSH2 0x11FB JUMP JUMPDEST POP SWAP1 JUMP JUMPDEST JUMPDEST DUP1 DUP3 GT ISZERO PUSH2 0x121A JUMPI PUSH0 DUP2 DUP2 PUSH2 0x1211 SWAP2 SWAP1 PUSH2 0x121E JUMP JUMPDEST POP PUSH1 0x1 ADD PUSH2 0x11FC JUMP JUMPDEST POP SWAP1 JUMP JUMPDEST POP DUP1 SLOAD PUSH2 0x122A SWAP1 PUSH2 0x1AA4 JUMP JUMPDEST PUSH0 DUP3 SSTORE DUP1 PUSH1 0x1F LT PUSH2 0x123B JUMPI POP PUSH2 0x1258 JUMP JUMPDEST PUSH1 0x1F ADD PUSH1 0x20 SWAP1 DIV SWAP1 PUSH0 MSTORE PUSH1 0x20 PUSH0 KECCAK256 SWAP1 DUP2 ADD SWAP1 PUSH2 0x1257 SWAP2 SWAP1 PUSH2 0x125B JUMP JUMPDEST JUMPDEST POP JUMP JUMPDEST JUMPDEST DUP1 DUP3 GT ISZERO PUSH2 0x1272 JUMPI PUSH0 DUP2 PUSH0 SWAP1 SSTORE POP PUSH1 0x1 ADD PUSH2 0x125C JUMP JUMPDEST POP SWAP1 JUMP JUMPDEST PUSH0 PUSH1 0x40 MLOAD SWAP1 POP SWAP1 JUMP JUMPDEST PUSH0 DUP1 REVERT JUMPDEST PUSH0 DUP1 REVERT JUMPDEST PUSH0 DUP1 REVERT JUMPDEST PUSH0 DUP1 REVERT JUMPDEST PUSH0 PUSH1 0x1F NOT PUSH1 0x1F DUP4 ADD AND SWAP1 POP SWAP2 SWAP1 POP JUMP JUMPDEST PUSH32 0x4E487B7100000000000000000000000000000000000000000000000000000000 PUSH0 MSTORE PUSH1 0x41 PUSH1 0x4 MSTORE PUSH1 0x24 PUSH0 REVERT JUMPDEST PUSH2 0x12D5 DUP3 PUSH2 0x128F JUMP JUMPDEST DUP2 ADD DUP2 DUP2 LT PUSH8 0xFFFFFFFFFFFFFFFF DUP3 GT OR ISZERO PUSH2 0x12F4 JUMPI PUSH2 0x12F3 PUSH2 0x129F JUMP JUMPDEST JUMPDEST DUP1 PUSH1 0x40 MSTORE POP POP POP JUMP JUMPDEST PUSH0 PUSH2 0x1306 PUSH2 0x1276 JUMP JUMPDEST SWAP1 POP PUSH2 0x1312 DUP3 DUP3 PUSH2 0x12CC JUMP JUMPDEST SWAP2 SWAP1 POP JUMP JUMPDEST PUSH0 PUSH8 0xFFFFFFFFFFFFFFFF DUP3 GT ISZERO PUSH2 0x1331 JUMPI PUSH2 0x1330 PUSH2 0x129F JUMP JUMPDEST JUMPDEST PUSH2 0x133A DUP3 PUSH2 0x128F JUMP JUMPDEST SWAP1 POP PUSH1 0x20 DUP2 ADD SWAP1 POP SWAP2 SWAP1 POP JUMP JUMPDEST DUP3 DUP2 DUP4 CALLDATACOPY PUSH0 DUP4 DUP4 ADD MSTORE POP POP POP JUMP JUMPDEST PUSH0 PUSH2 0x1367 PUSH2 0x1362 DUP5 PUSH2 0x1317 JUMP JUMPDEST PUSH2 0x12FD JUMP JUMPDEST SWAP1 POP DUP3 DUP2 MSTORE PUSH1 0x20 DUP2 ADD DUP5 DUP5 DUP5 ADD GT ISZERO PUSH2 0x1383 JUMPI PUSH2 0x1382 PUSH2 0x128B JUMP JUMPDEST JUMPDEST PUSH2 0x138E DUP5 DUP3 DUP6 PUSH2 0x1347 JUMP JUMPDEST POP SWAP4 SWAP3 POP POP POP JUMP JUMPDEST PUSH0 DUP3 PUSH1 0x1F DUP4 ADD SLT PUSH2 0x13AA JUMPI PUSH2 0x13A9 PUSH2 0x1287 JUMP JUMPDEST JUMPDEST DUP2 CALLDATALOAD PUSH2 0x13BA DUP5 DUP3 PUSH1 0x20 DUP7 ADD PUSH2 0x1355 JUMP JUMPDEST SWAP2 POP POP SWAP3 SWAP2 POP POP JUMP JUMPDEST PUSH0 PUSH1 0x20 DUP3 DUP5 SUB SLT ISZERO PUSH2 0x13D8 JUMPI PUSH2 0x13D7 PUSH2 0x127F JUMP JUMPDEST JUMPDEST PUSH0 DUP3 ADD CALLDATALOAD PUSH8 0xFFFFFFFFFFFFFFFF DUP2 GT ISZERO PUSH2 0x13F5 JUMPI PUSH2 0x13F4 PUSH2 0x1283 JUMP JUMPDEST JUMPDEST PUSH2 0x1401 DUP5 DUP3 DUP6 ADD PUSH2 0x1396 JUMP JUMPDEST SWAP2 POP POP SWAP3 SWAP2 POP POP JUMP JUMPDEST PUSH0 DUP2 SWAP1 POP SWAP2 SWAP1 POP JUMP JUMPDEST PUSH2 0x141C DUP2 PUSH2 0x140A JUMP JUMPDEST DUP3 MSTORE POP POP JUMP JUMPDEST PUSH0 PUSH1 0x20 DUP3 ADD SWAP1 POP PUSH2 0x1435 PUSH0 DUP4 ADD DUP5 PUSH2 0x1413 JUMP JUMPDEST SWAP3 SWAP2 POP POP JUMP JUMPDEST PUSH0 DUP2 MLOAD SWAP1 POP SWAP2 SWAP1 POP JUMP JUMPDEST PUSH0 DUP3 DUP3 MSTORE PUSH1 0x20 DUP3 ADD SWAP1 POP SWAP3 SWAP2 POP POP JUMP JUMPDEST PUSH0 DUP2 SWAP1 POP PUSH1 0x20 DUP3 ADD SWAP1 POP SWAP2 SWAP1 POP JUMP JUMPDEST PUSH0 DUP2 MLOAD SWAP1 POP SWAP2 SWAP1 POP JUMP JUMPDEST PUSH0 DUP3 DUP3 MSTORE PUSH1 0x20 DUP3 ADD SWAP1 POP SWAP3 SWAP2 POP POP JUMP JUMPDEST DUP3 DUP2 DUP4 MCOPY PUSH0 DUP4 DUP4 ADD MSTORE POP POP POP JUMP JUMPDEST PUSH0 PUSH2 0x1496 DUP3 PUSH2 0x1464 JUMP JUMPDEST PUSH2 0x14A0 DUP2 DUP6 PUSH2 0x146E JUMP JUMPDEST SWAP4 POP PUSH2 0x14B0 DUP2 DUP6 PUSH1 0x20 DUP7 ADD PUSH2 0x147E JUMP JUMPDEST PUSH2 0x14B9 DUP2 PUSH2 0x128F JUMP JUMPDEST DUP5 ADD SWAP2 POP POP SWAP3 SWAP2 POP POP JUMP JUMPDEST PUSH2 0x14CD DUP2 PUSH2 0x140A JUMP JUMPDEST DUP3 MSTORE POP POP JUMP JUMPDEST PUSH0 DUP2 MLOAD SWAP1 POP SWAP2 SWAP1 POP JUMP JUMPDEST PUSH0 DUP3 DUP3 MSTORE PUSH1 0x20 DUP3 ADD SWAP1 POP SWAP3 SWAP2 POP POP JUMP JUMPDEST PUSH0 DUP2 SWAP1 POP PUSH1 0x20 DUP3 ADD SWAP1 POP SWAP2 SWAP1 POP JUMP JUMPDEST PUSH0 PUSH2 0x1507 DUP4 DUP4 PUSH2 0x148C JUMP JUMPDEST SWAP1 POP SWAP3 SWAP2 POP POP JUMP JUMPDEST PUSH0 PUSH1 0x20 DUP3 ADD SWAP1 POP SWAP2 SWAP1 POP JUMP JUMPDEST PUSH0 PUSH2 0x1525 DUP3 PUSH2 0x14D3 JUMP JUMPDEST PUSH2 0x152F DUP2 DUP6 PUSH2 0x14DD JUMP JUMPDEST SWAP4 POP DUP4 PUSH1 0x20 DUP3 MUL DUP6 ADD PUSH2 0x1541 DUP6 PUSH2 0x14ED JUMP JUMPDEST DUP1 PUSH0 JUMPDEST DUP6 DUP2 LT ISZERO PUSH2 0x157C JUMPI DUP5 DUP5 SUB DUP10 MSTORE DUP2 MLOAD PUSH2 0x155D DUP6 DUP3 PUSH2 0x14FC JUMP JUMPDEST SWAP5 POP PUSH2 0x1568 DUP4 PUSH2 0x150F JUMP JUMPDEST SWAP3 POP PUSH1 0x20 DUP11 ADD SWAP10 POP POP PUSH1 0x1 DUP2 ADD SWAP1 POP PUSH2 0x1544 JUMP JUMPDEST POP DUP3 SWAP8 POP DUP8 SWAP6 POP POP POP POP POP POP SWAP3 SWAP2 POP POP JUMP JUMPDEST PUSH0 PUSH1 0xA0 DUP4 ADD PUSH0 DUP4 ADD MLOAD DUP5 DUP3 SUB PUSH0 DUP7 ADD MSTORE PUSH2 0x15A8 DUP3 DUP3 PUSH2 0x148C JUMP JUMPDEST SWAP2 POP POP PUSH1 0x20 DUP4 ADD MLOAD PUSH2 0x15BD PUSH1 0x20 DUP7 ADD DUP3 PUSH2 0x14C4 JUMP JUMPDEST POP PUSH1 0x40 DUP4 ADD MLOAD PUSH2 0x15D0 PUSH1 0x40 DUP7 ADD DUP3 PUSH2 0x14C4 JUMP JUMPDEST POP PUSH1 0x60 DUP4 ADD MLOAD DUP5 DUP3 SUB PUSH1 0x60 DUP7 ADD MSTORE PUSH2 0x15E8 DUP3 DUP3 PUSH2 0x148C JUMP JUMPDEST SWAP2 POP POP PUSH1 0x80 DUP4 ADD MLOAD DUP5 DUP3 SUB PUSH1 0x80 DUP7 ADD MSTORE PUSH2 0x1602 DUP3 DUP3 PUSH2 0x151B JUMP JUMPDEST SWAP2 POP POP DUP1 SWAP2 POP POP SWAP3 SWAP2 POP POP JUMP JUMPDEST PUSH0 PUSH2 0x161A DUP4 DUP4 PUSH2 0x158E JUMP JUMPDEST SWAP1 POP SWAP3 SWAP2 POP POP JUMP JUMPDEST PUSH0 PUSH1 0x20 DUP3 ADD SWAP1 POP SWAP2 SWAP1 POP JUMP JUMPDEST PUSH0 PUSH2 0x1638 DUP3 PUSH2 0x143B JUMP JUMPDEST PUSH2 0x1642 DUP2 DUP6 PUSH2 0x1445 JUMP JUMPDEST SWAP4 POP DUP4 PUSH1 0x20 DUP3 MUL DUP6 ADD PUSH2 0x1654 DUP6 PUSH2 0x1455 JUMP JUMPDEST DUP1 PUSH0 JUMPDEST DUP6 DUP2 LT ISZERO PUSH2 0x168F JUMPI DUP5 DUP5 SUB DUP10 MSTORE DUP2 MLOAD PUSH2 0x1670 DUP6 DUP3 PUSH2 0x160F JUMP JUMPDEST SWAP5 POP PUSH2 0x167B DUP4 PUSH2 0x1622 JUMP JUMPDEST SWAP3 POP PUSH1 0x20 DUP11 ADD SWAP10 POP POP PUSH1 0x1 DUP2 ADD SWAP1 POP PUSH2 0x1657 JUMP JUMPDEST POP DUP3 SWAP8 POP DUP8 SWAP6 POP POP POP POP POP POP SWAP3 SWAP2 POP POP JUMP JUMPDEST PUSH0 PUSH1 0x40 DUP3 ADD SWAP1 POP PUSH2 0x16B4 PUSH0 DUP4 ADD DUP6 PUSH2 0x1413 JUMP JUMPDEST DUP2 DUP2 SUB PUSH1 0x20 DUP4 ADD MSTORE PUSH2 0x16C6 DUP2 DUP5 PUSH2 0x162E JUMP JUMPDEST SWAP1 POP SWAP4 SWAP3 POP POP POP JUMP JUMPDEST PUSH2 0x16D8 DUP2 PUSH2 0x140A JUMP JUMPDEST DUP2 EQ PUSH2 0x16E2 JUMPI PUSH0 DUP1 REVERT JUMPDEST POP JUMP JUMPDEST PUSH0 DUP2 CALLDATALOAD SWAP1 POP PUSH2 0x16F3 DUP2 PUSH2 0x16CF JUMP JUMPDEST SWAP3 SWAP2 POP POP JUMP JUMPDEST PUSH0 PUSH1 0x20 DUP3 DUP5 SUB SLT ISZERO PUSH2 0x170E JUMPI PUSH2 0x170D PUSH2 0x127F JUMP JUMPDEST JUMPDEST PUSH0 PUSH2 0x171B DUP5 DUP3 DUP6 ADD PUSH2 0x16E5 JUMP JUMPDEST SWAP2 POP POP SWAP3 SWAP2 POP POP JUMP JUMPDEST PUSH0 PUSH1 0xA0 DUP4 ADD PUSH0 DUP4 ADD MLOAD DUP5 DUP3 SUB PUSH0 DUP7 ADD MSTORE PUSH2 0x173E DUP3 DUP3 PUSH2 0x148C JUMP JUMPDEST SWAP2 POP POP PUSH1 0x20 DUP4 ADD MLOAD PUSH2 0x1753 PUSH1 0x20 DUP7 ADD DUP3 PUSH2 0x14C4 JUMP JUMPDEST POP PUSH1 0x40 DUP4 ADD MLOAD PUSH2 0x1766 PUSH1 0x40 DUP7 ADD DUP3 PUSH2 0x14C4 JUMP JUMPDEST POP PUSH1 0x60 DUP4 ADD MLOAD DUP5 DUP3 SUB PUSH1 0x60 DUP7 ADD MSTORE PUSH2 0x177E DUP3 DUP3 PUSH2 0x148C JUMP JUMPDEST SWAP2 POP POP PUSH1 0x80 DUP4 ADD MLOAD DUP5 DUP3 SUB PUSH1 0x80 DUP7 ADD MSTORE PUSH2 0x1798 DUP3 DUP3 PUSH2 0x151B JUMP JUMPDEST SWAP2 POP POP DUP1 SWAP2 POP POP SWAP3 SWAP2 POP POP JUMP JUMPDEST PUSH0 PUSH1 0x20 DUP3 ADD SWAP1 POP DUP2 DUP2 SUB PUSH0 DUP4 ADD MSTORE PUSH2 0x17BD DUP2 DUP5 PUSH2 0x1724 JUMP JUMPDEST SWAP1 POP SWAP3 SWAP2 POP POP JUMP JUMPDEST PUSH0 DUP2 ISZERO ISZERO SWAP1 POP SWAP2 SWAP1 POP JUMP JUMPDEST PUSH2 0x17D9 DUP2 PUSH2 0x17C5 JUMP JUMPDEST DUP3 MSTORE POP POP JUMP JUMPDEST PUSH0 PUSH1 0x20 DUP3 ADD SWAP1 POP PUSH2 0x17F2 PUSH0 DUP4 ADD DUP5 PUSH2 0x17D0 JUMP JUMPDEST SWAP3 SWAP2 POP POP JUMP JUMPDEST PUSH0 PUSH8 0xFFFFFFFFFFFFFFFF DUP3 GT ISZERO PUSH2 0x1812 JUMPI PUSH2 0x1811 PUSH2 0x129F JUMP JUMPDEST JUMPDEST PUSH1 0x20 DUP3 MUL SWAP1 POP PUSH1 0x20 DUP2 ADD SWAP1 POP SWAP2 SWAP1 POP JUMP JUMPDEST PUSH0 DUP1 REVERT JUMPDEST PUSH0 PUSH2 0x1839 PUSH2 0x1834 DUP5 PUSH2 0x17F8 JUMP JUMPDEST PUSH2 0x12FD JUMP JUMPDEST SWAP1 POP DUP1 DUP4 DUP3 MSTORE PUSH1 0x20 DUP3 ADD SWAP1 POP PUSH1 0x20 DUP5 MUL DUP4 ADD DUP6 DUP2 GT ISZERO PUSH2 0x185C JUMPI PUSH2 0x185B PUSH2 0x1823 JUMP JUMPDEST JUMPDEST DUP4 JUMPDEST DUP2 DUP2 LT ISZERO PUSH2 0x18A3 JUMPI DUP1 CALLDATALOAD PUSH8 0xFFFFFFFFFFFFFFFF DUP2 GT ISZERO PUSH2 0x1881 JUMPI PUSH2 0x1880 PUSH2 0x1287 JUMP JUMPDEST JUMPDEST DUP1 DUP7 ADD PUSH2 0x188E DUP10 DUP3 PUSH2 0x1396 JUMP JUMPDEST DUP6 MSTORE PUSH1 0x20 DUP6 ADD SWAP5 POP POP POP PUSH1 0x20 DUP2 ADD SWAP1 POP PUSH2 0x185E JUMP JUMPDEST POP POP POP SWAP4 SWAP3 POP POP POP JUMP JUMPDEST PUSH0 DUP3 PUSH1 0x1F DUP4 ADD SLT PUSH2 0x18C1 JUMPI PUSH2 0x18C0 PUSH2 0x1287 JUMP JUMPDEST JUMPDEST DUP2 CALLDATALOAD PUSH2 0x18D1 DUP5 DUP3 PUSH1 0x20 DUP7 ADD PUSH2 0x1827 JUMP JUMPDEST SWAP2 POP POP SWAP3 SWAP2 POP POP JUMP JUMPDEST PUSH0 DUP1 PUSH0 PUSH1 0x60 DUP5 DUP7 SUB SLT ISZERO PUSH2 0x18F1 JUMPI PUSH2 0x18F0 PUSH2 0x127F JUMP JUMPDEST JUMPDEST PUSH0 DUP5 ADD CALLDATALOAD PUSH8 0xFFFFFFFFFFFFFFFF DUP2 GT ISZERO PUSH2 0x190E JUMPI PUSH2 0x190D PUSH2 0x1283 JUMP JUMPDEST JUMPDEST PUSH2 0x191A DUP7 DUP3 DUP8 ADD PUSH2 0x1396 JUMP JUMPDEST SWAP4 POP POP PUSH1 0x20 PUSH2 0x192B DUP7 DUP3 DUP8 ADD PUSH2 0x16E5 JUMP JUMPDEST SWAP3 POP POP PUSH1 0x40 DUP5 ADD CALLDATALOAD PUSH8 0xFFFFFFFFFFFFFFFF DUP2 GT ISZERO PUSH2 0x194C JUMPI PUSH2 0x194B PUSH2 0x1283 JUMP JUMPDEST JUMPDEST PUSH2 0x1958 DUP7 DUP3 DUP8 ADD PUSH2 0x18AD JUMP JUMPDEST SWAP2 POP POP SWAP3 POP SWAP3 POP SWAP3 JUMP JUMPDEST PUSH0 PUSH1 0x20 DUP3 ADD SWAP1 POP DUP2 DUP2 SUB PUSH0 DUP4 ADD MSTORE PUSH2 0x197A DUP2 DUP5 PUSH2 0x162E JUMP JUMPDEST SWAP1 POP SWAP3 SWAP2 POP POP JUMP JUMPDEST PUSH0 DUP3 DUP3 MSTORE PUSH1 0x20 DUP3 ADD SWAP1 POP SWAP3 SWAP2 POP POP JUMP JUMPDEST PUSH32 0x6E6F206461746100000000000000000000000000000000000000000000000000 PUSH0 DUP3 ADD MSTORE POP JUMP JUMPDEST PUSH0 PUSH2 0x19C6 PUSH1 0x7 DUP4 PUSH2 0x1982 JUMP JUMPDEST SWAP2 POP PUSH2 0x19D1 DUP3 PUSH2 0x1992 JUMP JUMPDEST PUSH1 0x20 DUP3 ADD SWAP1 POP SWAP2 SWAP1 POP JUMP JUMPDEST PUSH0 PUSH1 0x20 DUP3 ADD SWAP1 POP DUP2 DUP2 SUB PUSH0 DUP4 ADD MSTORE PUSH2 0x19F3 DUP2 PUSH2 0x19BA JUMP JUMPDEST SWAP1 POP SWAP2 SWAP1 POP JUMP JUMPDEST PUSH0 DUP2 SWAP1 POP SWAP3 SWAP2 POP POP JUMP JUMPDEST PUSH0 PUSH2 0x1A0E DUP3 PUSH2 0x1464 JUMP JUMPDEST PUSH2 0x1A18 DUP2 DUP6 PUSH2 0x19FA JUMP JUMPDEST SWAP4 POP PUSH2 0x1A28 DUP2 DUP6 PUSH1 0x20 DUP7 ADD PUSH2 0x147E JUMP JUMPDEST DUP1 DUP5 ADD SWAP2 POP POP SWAP3 SWAP2 POP POP JUMP JUMPDEST PUSH0 PUSH2 0x1A3F DUP3 DUP5 PUSH2 0x1A04 JUMP JUMPDEST SWAP2 POP DUP2 SWAP1 POP SWAP3 SWAP2 POP POP JUMP JUMPDEST PUSH32 0x4E487B7100000000000000000000000000000000000000000000000000000000 PUSH0 MSTORE PUSH1 0x32 PUSH1 0x4 MSTORE PUSH1 0x24 PUSH0 REVERT JUMPDEST PUSH32 0x4E487B7100000000000000000000000000000000000000000000000000000000 PUSH0 MSTORE PUSH1 0x22 PUSH1 0x4 MSTORE PUSH1 0x24 PUSH0 REVERT JUMPDEST PUSH0 PUSH1 0x2 DUP3 DIV SWAP1 POP PUSH1 0x1 DUP3 AND DUP1 PUSH2 0x1ABB JUMPI PUSH1 0x7F DUP3 AND SWAP2 POP JUMPDEST PUSH1 0x20 DUP3 LT DUP2 SUB PUSH2 0x1ACE JUMPI PUSH2 0x1ACD PUSH2 0x1A77 JUMP JUMPDEST JUMPDEST POP SWAP2 SWAP1 POP JUMP JUMPDEST PUSH0 DUP2 SWAP1 POP DUP2 PUSH0 MSTORE PUSH1 0x20 PUSH0 KECCAK256 SWAP1 POP SWAP2 SWAP1 POP JUMP JUMPDEST PUSH0 DUP2 SLOAD PUSH2 0x1AF2 DUP2 PUSH2 0x1AA4 JUMP JUMPDEST PUSH2 0x1AFC DUP2 DUP7 PUSH2 0x19FA JUMP JUMPDEST SWAP5 POP PUSH1 0x1 DUP3 AND PUSH0 DUP2 EQ PUSH2 0x1B16 JUMPI PUSH1 0x1 DUP2 EQ PUSH2 0x1B2B JUMPI PUSH2 0x1B5D JUMP JUMPDEST PUSH1 0xFF NOT DUP4 AND DUP7 MSTORE DUP2 ISZERO ISZERO DUP3 MUL DUP7 ADD SWAP4 POP PUSH2 0x1B5D JUMP JUMPDEST PUSH2 0x1B34 DUP6 PUSH2 0x1AD4 JUMP JUMPDEST PUSH0 JUMPDEST DUP4 DUP2 LT ISZERO PUSH2 0x1B55 JUMPI DUP2 SLOAD DUP2 DUP10 ADD MSTORE PUSH1 0x1 DUP3 ADD SWAP2 POP PUSH1 0x20 DUP2 ADD SWAP1 POP PUSH2 0x1B36 JUMP JUMPDEST DUP4 DUP9 ADD SWAP6 POP POP POP JUMPDEST POP POP POP SWAP3 SWAP2 POP POP JUMP JUMPDEST PUSH0 PUSH2 0x1B71 DUP3 DUP5 PUSH2 0x1AE6 JUMP JUMPDEST SWAP2 POP DUP2 SWAP1 POP SWAP3 SWAP2 POP POP JUMP JUMPDEST PUSH32 0x4E6F206461746100000000000000000000000000000000000000000000000000 PUSH0 DUP3 ADD MSTORE POP JUMP JUMPDEST PUSH0 PUSH2 0x1BB0 PUSH1 0x7 DUP4 PUSH2 0x1982 JUMP JUMPDEST SWAP2 POP PUSH2 0x1BBB DUP3 PUSH2 0x1B7C JUMP JUMPDEST PUSH1 0x20 DUP3 ADD SWAP1 POP SWAP2 SWAP1 POP JUMP JUMPDEST PUSH0 PUSH1 0x20 DUP3 ADD SWAP1 POP DUP2 DUP2 SUB PUSH0 DUP4 ADD MSTORE PUSH2 0x1BDD DUP2 PUSH2 0x1BA4 JUMP JUMPDEST SWAP1 POP SWAP2 SWAP1 POP JUMP JUMPDEST PUSH32 0x4600000000000000000000000000000000000000000000000000000000000000 PUSH0 DUP3 ADD MSTORE POP JUMP JUMPDEST PUSH0 PUSH2 0x1C18 PUSH1 0x1 DUP4 PUSH2 0x19FA JUMP JUMPDEST SWAP2 POP PUSH2 0x1C23 DUP3 PUSH2 0x1BE4 JUMP JUMPDEST PUSH1 0x1 DUP3 ADD SWAP1 POP SWAP2 SWAP1 POP JUMP JUMPDEST PUSH0 PUSH2 0x1C38 DUP3 PUSH2 0x1C0C JUMP JUMPDEST SWAP2 POP DUP2 SWAP1 POP SWAP2 SWAP1 POP JUMP JUMPDEST PUSH32 0x4E487B7100000000000000000000000000000000000000000000000000000000 PUSH0 MSTORE PUSH1 0x11 PUSH1 0x4 MSTORE PUSH1 0x24 PUSH0 REVERT JUMPDEST PUSH0 PUSH2 0x1C79 DUP3 PUSH2 0x140A JUMP JUMPDEST SWAP2 POP PUSH32 0xFFFFFFFFFFFFFFFFFFFFFFFFFFFFFFFFFFFFFFFFFFFFFFFFFFFFFFFFFFFFFFFF DUP3 SUB PUSH2 0x1CAB JUMPI PUSH2 0x1CAA PUSH2 0x1C42 JUMP JUMPDEST JUMPDEST PUSH1 0x1 DUP3 ADD SWAP1 POP SWAP2 SWAP1 POP JUMP JUMPDEST PUSH0 PUSH2 0x1CC0 DUP3 PUSH2 0x140A JUMP JUMPDEST SWAP2 POP PUSH2 0x1CCB DUP4 PUSH2 0x140A JUMP JUMPDEST SWAP3 POP DUP3 DUP3 SUB SWAP1 POP DUP2 DUP2 GT ISZERO PUSH2 0x1CE3 JUMPI PUSH2 0x1CE2 PUSH2 0x1C42 JUMP JUMPDEST JUMPDEST SWAP3 SWAP2 POP POP JUMP JUMPDEST PUSH0 PUSH2 0x1CF3 DUP3 PUSH2 0x140A JUMP JUMPDEST SWAP2 POP PUSH2 0x1CFE DUP4 PUSH2 0x140A JUMP JUMPDEST SWAP3 POP DUP3 DUP3 ADD SWAP1 POP DUP1 DUP3 GT ISZERO PUSH2 0x1D16 JUMPI PUSH2 0x1D15 PUSH2 0x1C42 JUMP JUMPDEST JUMPDEST SWAP3 SWAP2 POP POP JUMP JUMPDEST PUSH32 0x4E487B7100000000000000000000000000000000000000000000000000000000 PUSH0 MSTORE PUSH1 0x12 PUSH1 0x4 MSTORE PUSH1 0x24 PUSH0 REVERT JUMPDEST PUSH0 PUSH2 0x1D53 DUP3 PUSH2 0x140A JUMP JUMPDEST SWAP2 POP PUSH2 0x1D5E DUP4 PUSH2 0x140A JUMP JUMPDEST SWAP3 POP DUP3 PUSH2 0x1D6E JUMPI PUSH2 0x1D6D PUSH2 0x1D1C JUMP JUMPDEST JUMPDEST DUP3 DUP3 DIV SWAP1 POP SWAP3 SWAP2 POP POP JUMP JUMPDEST PUSH0 PUSH1 0x20 PUSH1 0x1F DUP4 ADD DIV SWAP1 POP SWAP2 SWAP1 POP JUMP JUMPDEST PUSH0 DUP3 DUP3 SHL SWAP1 POP SWAP3 SWAP2 POP POP JUMP JUMPDEST PUSH0 PUSH1 0x8 DUP4 MUL PUSH2 0x1DC3 PUSH32 0xFFFFFFFFFFFFFFFFFFFFFFFFFFFFFFFFFFFFFFFFFFFFFFFFFFFFFFFFFFFFFFFF DUP3 PUSH2 0x1D88 JUMP JUMPDEST PUSH2 0x1DCD DUP7 DUP4 PUSH2 0x1D88 JUMP JUMPDEST SWAP6 POP DUP1 NOT DUP5 AND SWAP4 POP DUP1 DUP7 AND DUP5 OR SWAP3 POP POP POP SWAP4 SWAP3 POP POP POP JUMP JUMPDEST PUSH0 DUP2 SWAP1 POP SWAP2 SWAP1 POP JUMP JUMPDEST PUSH0 PUSH2 0x1E08 PUSH2 0x1E03 PUSH2 0x1DFE DUP5 PUSH2 0x140A JUMP JUMPDEST PUSH2 0x1DE5 JUMP JUMPDEST PUSH2 0x140A JUMP JUMPDEST SWAP1 POP SWAP2 SWAP1 POP JUMP JUMPDEST PUSH0 DUP2 SWAP1 POP SWAP2 SWAP1 POP JUMP JUMPDEST PUSH2 0x1E21 DUP4 PUSH2 0x1DEE JUMP JUMPDEST PUSH2 0x1E35 PUSH2 0x1E2D DUP3 PUSH2 0x1E0F JUMP JUMPDEST DUP5 DUP5 SLOAD PUSH2 0x1D94 JUMP JUMPDEST DUP3 SSTORE POP POP POP POP JUMP JUMPDEST PUSH0 SWAP1 JUMP JUMPDEST PUSH2 0x1E49 PUSH2 0x1E3D JUMP JUMPDEST PUSH2 0x1E54 DUP2 DUP5 DUP5 PUSH2 0x1E18 JUMP JUMPDEST POP POP POP JUMP JUMPDEST JUMPDEST DUP2 DUP2 LT ISZERO PUSH2 0x1E77 JUMPI PUSH2 0x1E6C PUSH0 DUP3 PUSH2 0x1E41 JUMP JUMPDEST PUSH1 0x1 DUP2 ADD SWAP1 POP PUSH2 0x1E5A JUMP JUMPDEST POP POP JUMP JUMPDEST PUSH1 0x1F DUP3 GT ISZERO PUSH2 0x1EBC JUMPI PUSH2 0x1E8D DUP2 PUSH2 0x1AD4 JUMP JUMPDEST PUSH2 0x1E96 DUP5 PUSH2 0x1D79 JUMP JUMPDEST DUP2 ADD PUSH1 0x20 DUP6 LT ISZERO PUSH2 0x1EA5 JUMPI DUP2 SWAP1 POP JUMPDEST PUSH2 0x1EB9 PUSH2 0x1EB1 DUP6 PUSH2 0x1D79 JUMP JUMPDEST DUP4 ADD DUP3 PUSH2 0x1E59 JUMP JUMPDEST POP POP JUMPDEST POP POP POP JUMP JUMPDEST PUSH0 DUP3 DUP3 SHR SWAP1 POP SWAP3 SWAP2 POP POP JUMP JUMPDEST PUSH0 PUSH2 0x1EDC PUSH0 NOT DUP5 PUSH1 0x8 MUL PUSH2 0x1EC1 JUMP JUMPDEST NOT DUP1 DUP4 AND SWAP2 POP POP SWAP3 SWAP2 POP POP JUMP JUMPDEST PUSH0 PUSH2 0x1EF4 DUP4 DUP4 PUSH2 0x1ECD JUMP JUMPDEST SWAP2 POP DUP3 PUSH1 0x2 MUL DUP3 OR SWAP1 POP SWAP3 SWAP2 POP POP JUMP JUMPDEST PUSH2 0x1F0D DUP3 PUSH2 0x1464 JUMP JUMPDEST PUSH8 0xFFFFFFFFFFFFFFFF DUP2 GT ISZERO PUSH2 0x1F26 JUMPI PUSH2 0x1F25 PUSH2 0x129F JUMP JUMPDEST JUMPDEST PUSH2 0x1F30 DUP3 SLOAD PUSH2 0x1AA4 JUMP JUMPDEST PUSH2 0x1F3B DUP3 DUP3 DUP6 PUSH2 0x1E7B JUMP JUMPDEST PUSH0 PUSH1 0x20 SWAP1 POP PUSH1 0x1F DUP4 GT PUSH1 0x1 DUP2 EQ PUSH2 0x1F6C JUMPI PUSH0 DUP5 ISZERO PUSH2 0x1F5A JUMPI DUP3 DUP8 ADD MLOAD SWAP1 POP JUMPDEST PUSH2 0x1F64 DUP6 DUP3 PUSH2 0x1EE9 JUMP JUMPDEST DUP7 SSTORE POP PUSH2 0x1FCB JUMP JUMPDEST PUSH1 0x1F NOT DUP5 AND PUSH2 0x1F7A DUP7 PUSH2 0x1AD4 JUMP JUMPDEST PUSH0 JUMPDEST DUP3 DUP2 LT ISZERO PUSH2 0x1FA1 JUMPI DUP5 DUP10 ADD MLOAD DUP3 SSTORE PUSH1 0x1 DUP3 ADD SWAP2 POP PUSH1 0x20 DUP6 ADD SWAP5 POP PUSH1 0x20 DUP2 ADD SWAP1 POP PUSH2 0x1F7C JUMP JUMPDEST DUP7 DUP4 LT ISZERO PUSH2 0x1FBE JUMPI DUP5 DUP10 ADD MLOAD PUSH2 0x1FBA PUSH1 0x1F DUP10 AND DUP3 PUSH2 0x1ECD JUMP JUMPDEST DUP4 SSTORE POP JUMPDEST PUSH1 0x1 PUSH1 0x2 DUP9 MUL ADD DUP9 SSTORE POP POP POP JUMPDEST POP POP POP POP POP POP JUMP INVALID LOG2 PUSH5 0x6970667358 0x22 SLT KECCAK256 SWAP12 JUMPI 0x2B 0xA7 SSTORE REVERT CALLCODE SWAP14 0x29 STOP DUP4 DUP3 DIV 0xCE 0xCA 0xCD 0xD1 SWAP16 PUSH21 0x2D72FB521996C773D58FFC41D64736F6C63430008 BYTE STOP CALLER "
				},
				"gasEstimates": {
					"creation": {
						"codeDepositCost": "1640200",
						"executionCost": "1720",
						"totalCost": "1641920"
					},
					"external": {
						"Flists()": "infinite",
						"addStudent(string,uint256,string[])": "infinite",
						"getAvgScore()": "infinite",
						"getNumbers()": "2462",
						"getScore(string)": "infinite",
						"getStudent(uint256)": "infinite",
						"getStudent2(string)": "infinite",
						"getStudents()": "infinite",
						"teacherSelfEvaluation()": "infinite"
					}
				},
				"methodIdentifiers": {
					"Flists()": "4ebb7603",
					"addStudent(string,uint256,string[])": "c7e56ae3",
					"getAvgScore()": "740d5e10",
					"getNumbers()": "89f915f6",
					"getScore(string)": "16020273",
					"getStudent(uint256)": "642f9163",
					"getStudent2(string)": "95863d62",
					"getStudents()": "f1d064b3",
					"teacherSelfEvaluation()": "877f18b3"
				}
			},
			"storageLayout": {
				"storage": [
					{
						"astId": 17,
						"contract": "Code Test/Test2.sol:TEST2",
						"label": "students",
						"offset": 0,
						"slot": "0",
						"type": "t_array(t_struct(student)13_storage)dyn_storage"
					}
				],
				"types": {
					"t_array(t_string_storage)dyn_storage": {
						"base": "t_string_storage",
						"encoding": "dynamic_array",
						"label": "string[]",
						"numberOfBytes": "32"
					},
					"t_array(t_struct(student)13_storage)dyn_storage": {
						"base": "t_struct(student)13_storage",
						"encoding": "dynamic_array",
						"label": "struct TEST2.student[]",
						"numberOfBytes": "32"
					},
					"t_string_storage": {
						"encoding": "bytes",
						"label": "string",
						"numberOfBytes": "32"
					},
					"t_struct(student)13_storage": {
						"encoding": "inplace",
						"label": "struct TEST2.student",
						"members": [
							{
								"astId": 3,
								"contract": "Code Test/Test2.sol:TEST2",
								"label": "name",
								"offset": 0,
								"slot": "0",
								"type": "t_string_storage"
							},
							{
								"astId": 5,
								"contract": "Code Test/Test2.sol:TEST2",
								"label": "number",
								"offset": 0,
								"slot": "1",
								"type": "t_uint256"
							},
							{
								"astId": 7,
								"contract": "Code Test/Test2.sol:TEST2",
								"label": "score",
								"offset": 0,
								"slot": "2",
								"type": "t_uint256"
							},
							{
								"astId": 9,
								"contract": "Code Test/Test2.sol:TEST2",
								"label": "grade",
								"offset": 0,
								"slot": "3",
								"type": "t_string_storage"
							},
							{
								"astId": 12,
								"contract": "Code Test/Test2.sol:TEST2",
								"label": "classLists",
								"offset": 0,
								"slot": "4",
								"type": "t_array(t_string_storage)dyn_storage"
							}
						],
						"numberOfBytes": "160"
					},
					"t_uint256": {
						"encoding": "inplace",
						"label": "uint256",
						"numberOfBytes": "32"
					}
				}
			},
			"userdoc": {
				"kind": "user",
				"methods": {},
				"version": 1
			}
		}
	}
}