{
	"Code Test/CodeTest13.sol": {
		"Test13": {
			"abi": [
				{
					"inputs": [],
					"name": "addNumbers",
					"outputs": [
						{
							"internalType": "uint256",
							"name": "",
							"type": "uint256"
						}
					],
					"stateMutability": "view",
					"type": "function"
				},
				{
					"inputs": [],
					"name": "addNumbers2",
					"outputs": [
						{
							"internalType": "uint256",
							"name": "",
							"type": "uint256"
						}
					],
					"stateMutability": "view",
					"type": "function"
				},
				{
					"inputs": [
						{
							"internalType": "uint256",
							"name": "_n",
							"type": "uint256"
						}
					],
					"name": "dynamicArray",
					"outputs": [],
					"stateMutability": "nonpayable",
					"type": "function"
				},
				{
					"inputs": [
						{
							"internalType": "uint256",
							"name": "",
							"type": "uint256"
						}
					],
					"name": "numbers",
					"outputs": [
						{
							"internalType": "uint256",
							"name": "",
							"type": "uint256"
						}
					],
					"stateMutability": "view",
					"type": "function"
				},
				{
					"inputs": [
						{
							"internalType": "uint256",
							"name": "",
							"type": "uint256"
						}
					],
					"name": "numbers2",
					"outputs": [
						{
							"internalType": "uint256",
							"name": "",
							"type": "uint256"
						}
					],
					"stateMutability": "view",
					"type": "function"
				},
				{
					"inputs": [
						{
							"internalType": "uint256",
							"name": "_k",
							"type": "uint256"
						}
					],
					"name": "returnNumber2K",
					"outputs": [
						{
							"internalType": "uint256",
							"name": "num",
							"type": "uint256"
						}
					],
					"stateMutability": "view",
					"type": "function"
				},
				{
					"inputs": [
						{
							"internalType": "uint256",
							"name": "_k",
							"type": "uint256"
						}
					],
					"name": "returnNumberK",
					"outputs": [
						{
							"internalType": "uint256",
							"name": "num",
							"type": "uint256"
						}
					],
					"stateMutability": "view",
					"type": "function"
				},
				{
					"inputs": [
						{
							"internalType": "uint256[4]",
							"name": "_numbers",
							"type": "uint256[4]"
						}
					],
					"name": "staticArray",
					"outputs": [],
					"stateMutability": "nonpayable",
					"type": "function"
				}
			],
			"devdoc": {
				"kind": "dev",
				"methods": {},
				"version": 1
			},
			"evm": {
				"assembly": "    /* \"Code Test/CodeTest13.sol\":58:2440  contract Test13{... */\n  mstore(0x40, 0x80)\n  callvalue\n  dup1\n  iszero\n  tag_1\n  jumpi\n  0x00\n  dup1\n  revert\ntag_1:\n  pop\n  dataSize(sub_0)\n  dup1\n  dataOffset(sub_0)\n  0x00\n  codecopy\n  0x00\n  return\nstop\n\nsub_0: assembly {\n        /* \"Code Test/CodeTest13.sol\":58:2440  contract Test13{... */\n      mstore(0x40, 0x80)\n      callvalue\n      dup1\n      iszero\n      tag_1\n      jumpi\n      0x00\n      dup1\n      revert\n    tag_1:\n      pop\n      jumpi(tag_2, lt(calldatasize, 0x04))\n      shr(0xe0, calldataload(0x00))\n      dup1\n      0x9a9bdca7\n      gt\n      tag_11\n      jumpi\n      dup1\n      0x9a9bdca7\n      eq\n      tag_7\n      jumpi\n      dup1\n      0xd39fa233\n      eq\n      tag_8\n      jumpi\n      dup1\n      0xdff68daf\n      eq\n      tag_9\n      jumpi\n      dup1\n      0xfac04a0d\n      eq\n      tag_10\n      jumpi\n      jump(tag_2)\n    tag_11:\n      dup1\n      0x3d141712\n      eq\n      tag_3\n      jumpi\n      dup1\n      0x69c113e1\n      eq\n      tag_4\n      jumpi\n      dup1\n      0x82812dda\n      eq\n      tag_5\n      jumpi\n      dup1\n      0x859cc7d6\n      eq\n      tag_6\n      jumpi\n    tag_2:\n      0x00\n      dup1\n      revert\n        /* \"Code Test/CodeTest13.sol\":1602:1922  function addNumbers2() public view returns (uint) {... */\n    tag_3:\n      tag_12\n      tag_13\n      jump\t// in\n    tag_12:\n      mload(0x40)\n      tag_14\n      swap2\n      swap1\n      tag_15\n      jump\t// in\n    tag_14:\n      mload(0x40)\n      dup1\n      swap2\n      sub\n      swap1\n      return\n        /* \"Code Test/CodeTest13.sol\":1162:1507  function addNumbers() public view returns (uint) {... */\n    tag_4:\n      tag_16\n      tag_17\n      jump\t// in\n    tag_16:\n      mload(0x40)\n      tag_18\n      swap2\n      swap1\n      tag_15\n      jump\t// in\n    tag_18:\n      mload(0x40)\n      dup1\n      swap2\n      sub\n      swap1\n      return\n        /* \"Code Test/CodeTest13.sol\":834:1068  function staticArray(uint[4] memory _numbers) public {... */\n    tag_5:\n      tag_19\n      0x04\n      dup1\n      calldatasize\n      sub\n      dup2\n      add\n      swap1\n      tag_20\n      swap2\n      swap1\n      tag_21\n      jump\t// in\n    tag_20:\n      tag_22\n      jump\t// in\n    tag_19:\n      stop\n        /* \"Code Test/CodeTest13.sol\":106:129  uint[4] public numbers2 */\n    tag_6:\n      tag_23\n      0x04\n      dup1\n      calldatasize\n      sub\n      dup2\n      add\n      swap1\n      tag_24\n      swap2\n      swap1\n      tag_25\n      jump\t// in\n    tag_24:\n      tag_26\n      jump\t// in\n    tag_23:\n      mload(0x40)\n      tag_27\n      swap2\n      swap1\n      tag_15\n      jump\t// in\n    tag_27:\n      mload(0x40)\n      dup1\n      swap2\n      sub\n      swap1\n      return\n        /* \"Code Test/CodeTest13.sol\":255:688  function dynamicArray(uint _n) public  {... */\n    tag_7:\n      tag_28\n      0x04\n      dup1\n      calldatasize\n      sub\n      dup2\n      add\n      swap1\n      tag_29\n      swap2\n      swap1\n      tag_25\n      jump\t// in\n    tag_29:\n      tag_30\n      jump\t// in\n    tag_28:\n      stop\n        /* \"Code Test/CodeTest13.sol\":79:100  uint[] public numbers */\n    tag_8:\n      tag_31\n      0x04\n      dup1\n      calldatasize\n      sub\n      dup2\n      add\n      swap1\n      tag_32\n      swap2\n      swap1\n      tag_25\n      jump\t// in\n    tag_32:\n      tag_33\n      jump\t// in\n    tag_31:\n      mload(0x40)\n      tag_34\n      swap2\n      swap1\n      tag_15\n      jump\t// in\n    tag_34:\n      mload(0x40)\n      dup1\n      swap2\n      sub\n      swap1\n      return\n        /* \"Code Test/CodeTest13.sol\":2006:2205  function returnNumberK(uint _k) public view returns (uint num) {... */\n    tag_9:\n      tag_35\n      0x04\n      dup1\n      calldatasize\n      sub\n      dup2\n      add\n      swap1\n      tag_36\n      swap2\n      swap1\n      tag_25\n      jump\t// in\n    tag_36:\n      tag_37\n      jump\t// in\n    tag_35:\n      mload(0x40)\n      tag_38\n      swap2\n      swap1\n      tag_15\n      jump\t// in\n    tag_38:\n      mload(0x40)\n      dup1\n      swap2\n      sub\n      swap1\n      return\n        /* \"Code Test/CodeTest13.sol\":2290:2438  function returnNumber2K(uint _k) public view returns (uint num) {... */\n    tag_10:\n      tag_39\n      0x04\n      dup1\n      calldatasize\n      sub\n      dup2\n      add\n      swap1\n      tag_40\n      swap2\n      swap1\n      tag_25\n      jump\t// in\n    tag_40:\n      tag_41\n      jump\t// in\n    tag_39:\n      mload(0x40)\n      tag_42\n      swap2\n      swap1\n      tag_15\n      jump\t// in\n    tag_42:\n      mload(0x40)\n      dup1\n      swap2\n      sub\n      swap1\n      return\n        /* \"Code Test/CodeTest13.sol\":1602:1922  function addNumbers2() public view returns (uint) {... */\n    tag_13:\n        /* \"Code Test/CodeTest13.sol\":1646:1650  uint */\n      0x00\n        /* \"Code Test/CodeTest13.sol\":1691:1692  0 */\n      dup1\n        /* \"Code Test/CodeTest13.sol\":1719:1732  numbers2.slot */\n      0x01\n        /* \"Code Test/CodeTest13.sol\":1757:1758  0 */\n      0x00\n        /* \"Code Test/CodeTest13.sol\":1746:1848  for{let i:=0} lt(i,4) {i := add(i,1)} {... */\n    tag_44:\n        /* \"Code Test/CodeTest13.sol\":1765:1766  4 */\n      0x04\n        /* \"Code Test/CodeTest13.sol\":1763:1764  i */\n      dup2\n        /* \"Code Test/CodeTest13.sol\":1760:1767  lt(i,4) */\n      lt\n        /* \"Code Test/CodeTest13.sol\":1746:1848  for{let i:=0} lt(i,4) {i := add(i,1)} {... */\n      iszero\n      tag_46\n      jumpi\n        /* \"Code Test/CodeTest13.sol\":1830:1831  i */\n      dup1\n        /* \"Code Test/CodeTest13.sol\":1823:1828  start */\n      dup3\n        /* \"Code Test/CodeTest13.sol\":1819:1832  add(start, i) */\n      add\n        /* \"Code Test/CodeTest13.sol\":1813:1833  sload(add(start, i)) */\n      sload\n        /* \"Code Test/CodeTest13.sol\":1811:1812  a */\n      dup4\n        /* \"Code Test/CodeTest13.sol\":1807:1834  add(a,sload(add(start, i))) */\n      add\n        /* \"Code Test/CodeTest13.sol\":1802:1834  a := add(a,sload(add(start, i))) */\n      swap3\n      pop\n        /* \"Code Test/CodeTest13.sol\":1780:1781  1 */\n      0x01\n        /* \"Code Test/CodeTest13.sol\":1778:1779  i */\n      dup2\n        /* \"Code Test/CodeTest13.sol\":1774:1782  add(i,1) */\n      add\n        /* \"Code Test/CodeTest13.sol\":1769:1782  i := add(i,1) */\n      swap1\n      pop\n        /* \"Code Test/CodeTest13.sol\":1746:1848  for{let i:=0} lt(i,4) {i := add(i,1)} {... */\n      jump(tag_44)\n    tag_46:\n        /* \"Code Test/CodeTest13.sol\":1749:1759  {let i:=0} */\n      pop\n        /* \"Code Test/CodeTest13.sol\":1874:1875  a */\n      dup2\n        /* \"Code Test/CodeTest13.sol\":1869:1872  0x0 */\n      0x00\n        /* \"Code Test/CodeTest13.sol\":1862:1876  mstore(0x0, a) */\n      mstore\n        /* \"Code Test/CodeTest13.sol\":1901:1905  0x20 */\n      0x20\n        /* \"Code Test/CodeTest13.sol\":1896:1899  0x0 */\n      0x00\n        /* \"Code Test/CodeTest13.sol\":1889:1906  return(0x0, 0x20) */\n      return\n        /* \"Code Test/CodeTest13.sol\":1162:1507  function addNumbers() public view returns (uint) {... */\n    tag_17:\n        /* \"Code Test/CodeTest13.sol\":1205:1209  uint */\n      0x00\n        /* \"Code Test/CodeTest13.sol\":1250:1251  0 */\n      dup1\n        /* \"Code Test/CodeTest13.sol\":1285:1297  numbers.slot */\n      0x00\n        /* \"Code Test/CodeTest13.sol\":1279:1298  sload(numbers.slot) */\n      sload\n        /* \"Code Test/CodeTest13.sol\":1323:1324  0 */\n      0x00\n        /* \"Code Test/CodeTest13.sol\":1312:1433  for{let i:=0} lt(i,length) {i := add(i,1)} {... */\n    tag_48:\n        /* \"Code Test/CodeTest13.sol\":1331:1337  length */\n      dup2\n        /* \"Code Test/CodeTest13.sol\":1329:1330  i */\n      dup2\n        /* \"Code Test/CodeTest13.sol\":1326:1338  lt(i,length) */\n      lt\n        /* \"Code Test/CodeTest13.sol\":1312:1433  for{let i:=0} lt(i,length) {i := add(i,1)} {... */\n      iszero\n      tag_50\n      jumpi\n        /* \"Code Test/CodeTest13.sol\":1415:1416  i */\n      dup1\n        /* \"Code Test/CodeTest13.sol\":1408:1412  0x20 */\n      0x20\n        /* \"Code Test/CodeTest13.sol\":1404:1407  0x0 */\n      0x00\n        /* \"Code Test/CodeTest13.sol\":1394:1413  keccak256(0x0,0x20) */\n      keccak256\n        /* \"Code Test/CodeTest13.sol\":1390:1417  add(keccak256(0x0,0x20), i) */\n      add\n        /* \"Code Test/CodeTest13.sol\":1384:1418  sload(add(keccak256(0x0,0x20), i)) */\n      sload\n        /* \"Code Test/CodeTest13.sol\":1382:1383  a */\n      dup4\n        /* \"Code Test/CodeTest13.sol\":1378:1419  add(a,sload(add(keccak256(0x0,0x20), i))) */\n      add\n        /* \"Code Test/CodeTest13.sol\":1373:1419  a := add(a,sload(add(keccak256(0x0,0x20), i))) */\n      swap3\n      pop\n        /* \"Code Test/CodeTest13.sol\":1351:1352  1 */\n      0x01\n        /* \"Code Test/CodeTest13.sol\":1349:1350  i */\n      dup2\n        /* \"Code Test/CodeTest13.sol\":1345:1353  add(i,1) */\n      add\n        /* \"Code Test/CodeTest13.sol\":1340:1353  i := add(i,1) */\n      swap1\n      pop\n        /* \"Code Test/CodeTest13.sol\":1312:1433  for{let i:=0} lt(i,length) {i := add(i,1)} {... */\n      jump(tag_48)\n    tag_50:\n        /* \"Code Test/CodeTest13.sol\":1315:1325  {let i:=0} */\n      pop\n        /* \"Code Test/CodeTest13.sol\":1459:1460  a */\n      dup2\n        /* \"Code Test/CodeTest13.sol\":1454:1457  0x0 */\n      0x00\n        /* \"Code Test/CodeTest13.sol\":1447:1461  mstore(0x0, a) */\n      mstore\n        /* \"Code Test/CodeTest13.sol\":1486:1490  0x20 */\n      0x20\n        /* \"Code Test/CodeTest13.sol\":1481:1484  0x0 */\n      0x00\n        /* \"Code Test/CodeTest13.sol\":1474:1491  return(0x0, 0x20) */\n      return\n        /* \"Code Test/CodeTest13.sol\":834:1068  function staticArray(uint[4] memory _numbers) public {... */\n    tag_22:\n        /* \"Code Test/CodeTest13.sol\":930:931  0 */\n      0x00\n        /* \"Code Test/CodeTest13.sol\":919:1052  for{let i:=0} lt(i,4) {i := add(i,1)} {... */\n    tag_52:\n        /* \"Code Test/CodeTest13.sol\":938:939  4 */\n      0x04\n        /* \"Code Test/CodeTest13.sol\":936:937  i */\n      dup2\n        /* \"Code Test/CodeTest13.sol\":933:940  lt(i,4) */\n      lt\n        /* \"Code Test/CodeTest13.sol\":919:1052  for{let i:=0} lt(i,4) {i := add(i,1)} {... */\n      iszero\n      tag_54\n      jumpi\n        /* \"Code Test/CodeTest13.sol\":1030:1034  0x20 */\n      0x20\n        /* \"Code Test/CodeTest13.sol\":1028:1029  i */\n      dup2\n        /* \"Code Test/CodeTest13.sol\":1024:1035  mul(i,0x20) */\n      mul\n        /* \"Code Test/CodeTest13.sol\":1015:1023  _numbers */\n      dup3\n        /* \"Code Test/CodeTest13.sol\":1011:1036  add(_numbers,mul(i,0x20)) */\n      add\n        /* \"Code Test/CodeTest13.sol\":1005:1037  mload(add(_numbers,mul(i,0x20))) */\n      mload\n        /* \"Code Test/CodeTest13.sol\":1001:1002  i */\n      dup2\n        /* \"Code Test/CodeTest13.sol\":986:999  numbers2.slot */\n      0x01\n        /* \"Code Test/CodeTest13.sol\":982:1003  add(numbers2.slot, i) */\n      add\n        /* \"Code Test/CodeTest13.sol\":975:1038  sstore(add(numbers2.slot, i), mload(add(_numbers,mul(i,0x20)))) */\n      sstore\n        /* \"Code Test/CodeTest13.sol\":953:954  1 */\n      0x01\n        /* \"Code Test/CodeTest13.sol\":951:952  i */\n      dup2\n        /* \"Code Test/CodeTest13.sol\":947:955  add(i,1) */\n      add\n        /* \"Code Test/CodeTest13.sol\":942:955  i := add(i,1) */\n      swap1\n      pop\n        /* \"Code Test/CodeTest13.sol\":919:1052  for{let i:=0} lt(i,4) {i := add(i,1)} {... */\n      jump(tag_52)\n    tag_54:\n        /* \"Code Test/CodeTest13.sol\":922:932  {let i:=0} */\n      pop\n        /* \"Code Test/CodeTest13.sol\":834:1068  function staticArray(uint[4] memory _numbers) public {... */\n      pop\n      jump\t// out\n        /* \"Code Test/CodeTest13.sol\":106:129  uint[4] public numbers2 */\n    tag_26:\n      0x01\n      dup2\n      0x04\n      dup2\n      lt\n      tag_55\n      jumpi\n      0x00\n      dup1\n      revert\n    tag_55:\n      add\n      0x00\n      swap2\n      pop\n      swap1\n      pop\n      sload\n      dup2\n      jump\t// out\n        /* \"Code Test/CodeTest13.sol\":255:688  function dynamicArray(uint _n) public  {... */\n    tag_30:\n        /* \"Code Test/CodeTest13.sol\":355:367  numbers.slot */\n      0x00\n        /* \"Code Test/CodeTest13.sol\":349:368  sload(numbers.slot) */\n      sload\n        /* \"Code Test/CodeTest13.sol\":393:405  numbers.slot */\n      0x00\n        /* \"Code Test/CodeTest13.sol\":388:391  0x0 */\n      dup1\n        /* \"Code Test/CodeTest13.sol\":381:406  mstore(0x0, numbers.slot) */\n      mstore\n        /* \"Code Test/CodeTest13.sol\":492:493  0 */\n      0x00\n        /* \"Code Test/CodeTest13.sol\":481:634  for{let i:=0} lt(i,_n) {i := add(i,1)} {... */\n    tag_58:\n        /* \"Code Test/CodeTest13.sol\":500:502  _n */\n      dup3\n        /* \"Code Test/CodeTest13.sol\":498:499  i */\n      dup2\n        /* \"Code Test/CodeTest13.sol\":495:503  lt(i,_n) */\n      lt\n        /* \"Code Test/CodeTest13.sol\":481:634  for{let i:=0} lt(i,_n) {i := add(i,1)} {... */\n      iszero\n      tag_60\n      jumpi\n        /* \"Code Test/CodeTest13.sol\":576:577  i */\n      dup1\n        /* \"Code Test/CodeTest13.sol\":569:573  0x20 */\n      0x20\n        /* \"Code Test/CodeTest13.sol\":565:568  0x0 */\n      0x00\n        /* \"Code Test/CodeTest13.sol\":555:574  keccak256(0x0,0x20) */\n      keccak256\n        /* \"Code Test/CodeTest13.sol\":551:578  add(keccak256(0x0,0x20), i) */\n      add\n        /* \"Code Test/CodeTest13.sol\":616:617  1 */\n      0x01\n        /* \"Code Test/CodeTest13.sol\":614:615  i */\n      dup3\n        /* \"Code Test/CodeTest13.sol\":610:618  add(i,1) */\n      add\n        /* \"Code Test/CodeTest13.sol\":603:608  nslot */\n      dup2\n        /* \"Code Test/CodeTest13.sol\":596:619  sstore(nslot, add(i,1)) */\n      sstore\n        /* \"Code Test/CodeTest13.sol\":520:634  {... */\n      pop\n        /* \"Code Test/CodeTest13.sol\":516:517  1 */\n      0x01\n        /* \"Code Test/CodeTest13.sol\":514:515  i */\n      dup2\n        /* \"Code Test/CodeTest13.sol\":510:518  add(i,1) */\n      add\n        /* \"Code Test/CodeTest13.sol\":505:518  i := add(i,1) */\n      swap1\n      pop\n        /* \"Code Test/CodeTest13.sol\":481:634  for{let i:=0} lt(i,_n) {i := add(i,1)} {... */\n      jump(tag_58)\n    tag_60:\n        /* \"Code Test/CodeTest13.sol\":484:494  {let i:=0} */\n      pop\n        /* \"Code Test/CodeTest13.sol\":668:670  _n */\n      dup2\n        /* \"Code Test/CodeTest13.sol\":654:666  numbers.slot */\n      0x00\n        /* \"Code Test/CodeTest13.sol\":647:671  sstore(numbers.slot, _n) */\n      sstore\n        /* \"Code Test/CodeTest13.sol\":321:681  {... */\n      pop\n        /* \"Code Test/CodeTest13.sol\":255:688  function dynamicArray(uint _n) public  {... */\n      pop\n      jump\t// out\n        /* \"Code Test/CodeTest13.sol\":79:100  uint[] public numbers */\n    tag_33:\n      0x00\n      dup2\n      dup2\n      sload\n      dup2\n      lt\n      tag_61\n      jumpi\n      0x00\n      dup1\n      revert\n    tag_61:\n      swap1\n      0x00\n      mstore\n      keccak256(0x00, 0x20)\n      add\n      0x00\n      swap2\n      pop\n      swap1\n      pop\n      sload\n      dup2\n      jump\t// out\n        /* \"Code Test/CodeTest13.sol\":2006:2205  function returnNumberK(uint _k) public view returns (uint num) {... */\n    tag_37:\n        /* \"Code Test/CodeTest13.sol\":2059:2067  uint num */\n      0x00\n        /* \"Code Test/CodeTest13.sol\":2121:2133  numbers.slot */\n      dup1\n        /* \"Code Test/CodeTest13.sol\":2115:2134  sload(numbers.slot) */\n      sload\n        /* \"Code Test/CodeTest13.sol\":2185:2187  _k */\n      dup3\n        /* \"Code Test/CodeTest13.sol\":2179:2183  0x20 */\n      0x20\n        /* \"Code Test/CodeTest13.sol\":2175:2178  0x0 */\n      0x00\n        /* \"Code Test/CodeTest13.sol\":2165:2184  keccak256(0x0,0x20) */\n      keccak256\n        /* \"Code Test/CodeTest13.sol\":2161:2188  add(keccak256(0x0,0x20),_k) */\n      add\n        /* \"Code Test/CodeTest13.sol\":2155:2189  sload(add(keccak256(0x0,0x20),_k)) */\n      sload\n        /* \"Code Test/CodeTest13.sol\":2148:2189  num := sload(add(keccak256(0x0,0x20),_k)) */\n      swap2\n      pop\n        /* \"Code Test/CodeTest13.sol\":2087:2199  {... */\n      pop\n        /* \"Code Test/CodeTest13.sol\":2006:2205  function returnNumberK(uint _k) public view returns (uint num) {... */\n      swap2\n      swap1\n      pop\n      jump\t// out\n        /* \"Code Test/CodeTest13.sol\":2290:2438  function returnNumber2K(uint _k) public view returns (uint num) {... */\n    tag_41:\n        /* \"Code Test/CodeTest13.sol\":2344:2352  uint num */\n      0x00\n        /* \"Code Test/CodeTest13.sol\":2418:2420  _k */\n      dup2\n        /* \"Code Test/CodeTest13.sol\":2404:2417  numbers2.slot */\n      0x01\n        /* \"Code Test/CodeTest13.sol\":2400:2421  add(numbers2.slot,_k) */\n      add\n        /* \"Code Test/CodeTest13.sol\":2394:2422  sload(add(numbers2.slot,_k)) */\n      sload\n        /* \"Code Test/CodeTest13.sol\":2387:2422  num := sload(add(numbers2.slot,_k)) */\n      swap1\n      pop\n        /* \"Code Test/CodeTest13.sol\":2290:2438  function returnNumber2K(uint _k) public view returns (uint num) {... */\n      swap2\n      swap1\n      pop\n      jump\t// out\n        /* \"#utility.yul\":7:84   */\n    tag_65:\n        /* \"#utility.yul\":44:51   */\n      0x00\n        /* \"#utility.yul\":73:78   */\n      dup2\n        /* \"#utility.yul\":62:78   */\n      swap1\n      pop\n        /* \"#utility.yul\":7:84   */\n      swap2\n      swap1\n      pop\n      jump\t// out\n        /* \"#utility.yul\":90:208   */\n    tag_66:\n        /* \"#utility.yul\":177:201   */\n      tag_84\n        /* \"#utility.yul\":195:200   */\n      dup2\n        /* \"#utility.yul\":177:201   */\n      tag_65\n      jump\t// in\n    tag_84:\n        /* \"#utility.yul\":172:175   */\n      dup3\n        /* \"#utility.yul\":165:202   */\n      mstore\n        /* \"#utility.yul\":90:208   */\n      pop\n      pop\n      jump\t// out\n        /* \"#utility.yul\":214:436   */\n    tag_15:\n        /* \"#utility.yul\":307:311   */\n      0x00\n        /* \"#utility.yul\":345:347   */\n      0x20\n        /* \"#utility.yul\":334:343   */\n      dup3\n        /* \"#utility.yul\":330:348   */\n      add\n        /* \"#utility.yul\":322:348   */\n      swap1\n      pop\n        /* \"#utility.yul\":358:429   */\n      tag_86\n        /* \"#utility.yul\":426:427   */\n      0x00\n        /* \"#utility.yul\":415:424   */\n      dup4\n        /* \"#utility.yul\":411:428   */\n      add\n        /* \"#utility.yul\":402:408   */\n      dup5\n        /* \"#utility.yul\":358:429   */\n      tag_66\n      jump\t// in\n    tag_86:\n        /* \"#utility.yul\":214:436   */\n      swap3\n      swap2\n      pop\n      pop\n      jump\t// out\n        /* \"#utility.yul\":442:517   */\n    tag_67:\n        /* \"#utility.yul\":475:481   */\n      0x00\n        /* \"#utility.yul\":508:510   */\n      0x40\n        /* \"#utility.yul\":502:511   */\n      mload\n        /* \"#utility.yul\":492:511   */\n      swap1\n      pop\n        /* \"#utility.yul\":442:517   */\n      swap1\n      jump\t// out\n        /* \"#utility.yul\":523:640   */\n    tag_68:\n        /* \"#utility.yul\":632:633   */\n      0x00\n        /* \"#utility.yul\":629:630   */\n      dup1\n        /* \"#utility.yul\":622:634   */\n      revert\n        /* \"#utility.yul\":769:886   */\n    tag_70:\n        /* \"#utility.yul\":878:879   */\n      0x00\n        /* \"#utility.yul\":875:876   */\n      dup1\n        /* \"#utility.yul\":868:880   */\n      revert\n        /* \"#utility.yul\":892:994   */\n    tag_71:\n        /* \"#utility.yul\":933:939   */\n      0x00\n        /* \"#utility.yul\":984:986   */\n      0x1f\n        /* \"#utility.yul\":980:987   */\n      not\n        /* \"#utility.yul\":975:977   */\n      0x1f\n        /* \"#utility.yul\":968:973   */\n      dup4\n        /* \"#utility.yul\":964:978   */\n      add\n        /* \"#utility.yul\":960:988   */\n      and\n        /* \"#utility.yul\":950:988   */\n      swap1\n      pop\n        /* \"#utility.yul\":892:994   */\n      swap2\n      swap1\n      pop\n      jump\t// out\n        /* \"#utility.yul\":1000:1180   */\n    tag_72:\n        /* \"#utility.yul\":1048:1125   */\n      0x4e487b7100000000000000000000000000000000000000000000000000000000\n        /* \"#utility.yul\":1045:1046   */\n      0x00\n        /* \"#utility.yul\":1038:1126   */\n      mstore\n        /* \"#utility.yul\":1145:1149   */\n      0x41\n        /* \"#utility.yul\":1142:1143   */\n      0x04\n        /* \"#utility.yul\":1135:1150   */\n      mstore\n        /* \"#utility.yul\":1169:1173   */\n      0x24\n        /* \"#utility.yul\":1166:1167   */\n      0x00\n        /* \"#utility.yul\":1159:1174   */\n      revert\n        /* \"#utility.yul\":1186:1467   */\n    tag_73:\n        /* \"#utility.yul\":1269:1296   */\n      tag_94\n        /* \"#utility.yul\":1291:1295   */\n      dup3\n        /* \"#utility.yul\":1269:1296   */\n      tag_71\n      jump\t// in\n    tag_94:\n        /* \"#utility.yul\":1261:1267   */\n      dup2\n        /* \"#utility.yul\":1257:1297   */\n      add\n        /* \"#utility.yul\":1399:1405   */\n      dup2\n        /* \"#utility.yul\":1387:1397   */\n      dup2\n        /* \"#utility.yul\":1384:1406   */\n      lt\n        /* \"#utility.yul\":1363:1381   */\n      0xffffffffffffffff\n        /* \"#utility.yul\":1351:1361   */\n      dup3\n        /* \"#utility.yul\":1348:1382   */\n      gt\n        /* \"#utility.yul\":1345:1407   */\n      or\n        /* \"#utility.yul\":1342:1430   */\n      iszero\n      tag_95\n      jumpi\n        /* \"#utility.yul\":1410:1428   */\n      tag_96\n      tag_72\n      jump\t// in\n    tag_96:\n        /* \"#utility.yul\":1342:1430   */\n    tag_95:\n        /* \"#utility.yul\":1450:1460   */\n      dup1\n        /* \"#utility.yul\":1446:1448   */\n      0x40\n        /* \"#utility.yul\":1439:1461   */\n      mstore\n        /* \"#utility.yul\":1229:1467   */\n      pop\n        /* \"#utility.yul\":1186:1467   */\n      pop\n      pop\n      jump\t// out\n        /* \"#utility.yul\":1473:1602   */\n    tag_74:\n        /* \"#utility.yul\":1507:1513   */\n      0x00\n        /* \"#utility.yul\":1534:1554   */\n      tag_98\n      tag_67\n      jump\t// in\n    tag_98:\n        /* \"#utility.yul\":1524:1554   */\n      swap1\n      pop\n        /* \"#utility.yul\":1563:1596   */\n      tag_99\n        /* \"#utility.yul\":1591:1595   */\n      dup3\n        /* \"#utility.yul\":1583:1589   */\n      dup3\n        /* \"#utility.yul\":1563:1596   */\n      tag_73\n      jump\t// in\n    tag_99:\n        /* \"#utility.yul\":1473:1602   */\n      swap2\n      swap1\n      pop\n      jump\t// out\n        /* \"#utility.yul\":1608:1857   */\n    tag_75:\n        /* \"#utility.yul\":1683:1687   */\n      0x00\n        /* \"#utility.yul\":1773:1791   */\n      0xffffffffffffffff\n        /* \"#utility.yul\":1765:1771   */\n      dup3\n        /* \"#utility.yul\":1762:1792   */\n      gt\n        /* \"#utility.yul\":1759:1815   */\n      iszero\n      tag_101\n      jumpi\n        /* \"#utility.yul\":1795:1813   */\n      tag_102\n      tag_72\n      jump\t// in\n    tag_102:\n        /* \"#utility.yul\":1759:1815   */\n    tag_101:\n        /* \"#utility.yul\":1845:1849   */\n      0x20\n        /* \"#utility.yul\":1837:1843   */\n      dup3\n        /* \"#utility.yul\":1833:1850   */\n      mul\n        /* \"#utility.yul\":1825:1850   */\n      swap1\n      pop\n        /* \"#utility.yul\":1608:1857   */\n      swap2\n      swap1\n      pop\n      jump\t// out\n        /* \"#utility.yul\":1863:1980   */\n    tag_76:\n        /* \"#utility.yul\":1972:1973   */\n      0x00\n        /* \"#utility.yul\":1969:1970   */\n      dup1\n        /* \"#utility.yul\":1962:1974   */\n      revert\n        /* \"#utility.yul\":1986:2108   */\n    tag_77:\n        /* \"#utility.yul\":2059:2083   */\n      tag_105\n        /* \"#utility.yul\":2077:2082   */\n      dup2\n        /* \"#utility.yul\":2059:2083   */\n      tag_65\n      jump\t// in\n    tag_105:\n        /* \"#utility.yul\":2052:2057   */\n      dup2\n        /* \"#utility.yul\":2049:2084   */\n      eq\n        /* \"#utility.yul\":2039:2102   */\n      tag_106\n      jumpi\n        /* \"#utility.yul\":2098:2099   */\n      0x00\n        /* \"#utility.yul\":2095:2096   */\n      dup1\n        /* \"#utility.yul\":2088:2100   */\n      revert\n        /* \"#utility.yul\":2039:2102   */\n    tag_106:\n        /* \"#utility.yul\":1986:2108   */\n      pop\n      jump\t// out\n        /* \"#utility.yul\":2114:2253   */\n    tag_78:\n        /* \"#utility.yul\":2160:2165   */\n      0x00\n        /* \"#utility.yul\":2198:2204   */\n      dup2\n        /* \"#utility.yul\":2185:2205   */\n      calldataload\n        /* \"#utility.yul\":2176:2205   */\n      swap1\n      pop\n        /* \"#utility.yul\":2214:2247   */\n      tag_108\n        /* \"#utility.yul\":2241:2246   */\n      dup2\n        /* \"#utility.yul\":2214:2247   */\n      tag_77\n      jump\t// in\n    tag_108:\n        /* \"#utility.yul\":2114:2253   */\n      swap3\n      swap2\n      pop\n      pop\n      jump\t// out\n        /* \"#utility.yul\":2277:2920   */\n    tag_79:\n        /* \"#utility.yul\":2371:2376   */\n      0x00\n        /* \"#utility.yul\":2396:2475   */\n      tag_110\n        /* \"#utility.yul\":2412:2474   */\n      tag_111\n        /* \"#utility.yul\":2467:2473   */\n      dup5\n        /* \"#utility.yul\":2412:2474   */\n      tag_75\n      jump\t// in\n    tag_111:\n        /* \"#utility.yul\":2396:2475   */\n      tag_74\n      jump\t// in\n    tag_110:\n        /* \"#utility.yul\":2387:2475   */\n      swap1\n      pop\n        /* \"#utility.yul\":2495:2500   */\n      dup1\n        /* \"#utility.yul\":2548:2552   */\n      0x20\n        /* \"#utility.yul\":2540:2546   */\n      dup5\n        /* \"#utility.yul\":2536:2553   */\n      mul\n        /* \"#utility.yul\":2528:2534   */\n      dup4\n        /* \"#utility.yul\":2524:2554   */\n      add\n        /* \"#utility.yul\":2577:2580   */\n      dup6\n        /* \"#utility.yul\":2569:2575   */\n      dup2\n        /* \"#utility.yul\":2566:2581   */\n      gt\n        /* \"#utility.yul\":2563:2685   */\n      iszero\n      tag_112\n      jumpi\n        /* \"#utility.yul\":2596:2675   */\n      tag_113\n      tag_76\n      jump\t// in\n    tag_113:\n        /* \"#utility.yul\":2563:2685   */\n    tag_112:\n        /* \"#utility.yul\":2711:2717   */\n      dup4\n        /* \"#utility.yul\":2694:2914   */\n    tag_114:\n        /* \"#utility.yul\":2728:2734   */\n      dup2\n        /* \"#utility.yul\":2723:2726   */\n      dup2\n        /* \"#utility.yul\":2720:2735   */\n      lt\n        /* \"#utility.yul\":2694:2914   */\n      iszero\n      tag_116\n      jumpi\n        /* \"#utility.yul\":2803:2806   */\n      dup1\n        /* \"#utility.yul\":2832:2869   */\n      tag_117\n        /* \"#utility.yul\":2865:2868   */\n      dup9\n        /* \"#utility.yul\":2853:2863   */\n      dup3\n        /* \"#utility.yul\":2832:2869   */\n      tag_78\n      jump\t// in\n    tag_117:\n        /* \"#utility.yul\":2827:2830   */\n      dup5\n        /* \"#utility.yul\":2820:2870   */\n      mstore\n        /* \"#utility.yul\":2899:2903   */\n      0x20\n        /* \"#utility.yul\":2894:2897   */\n      dup5\n        /* \"#utility.yul\":2890:2904   */\n      add\n        /* \"#utility.yul\":2883:2904   */\n      swap4\n      pop\n        /* \"#utility.yul\":2770:2914   */\n      pop\n        /* \"#utility.yul\":2754:2758   */\n      0x20\n        /* \"#utility.yul\":2749:2752   */\n      dup2\n        /* \"#utility.yul\":2745:2759   */\n      add\n        /* \"#utility.yul\":2738:2759   */\n      swap1\n      pop\n        /* \"#utility.yul\":2694:2914   */\n      jump(tag_114)\n    tag_116:\n        /* \"#utility.yul\":2698:2719   */\n      pop\n        /* \"#utility.yul\":2377:2920   */\n      pop\n      pop\n        /* \"#utility.yul\":2277:2920   */\n      swap4\n      swap3\n      pop\n      pop\n      pop\n      jump\t// out\n        /* \"#utility.yul\":2944:3283   */\n    tag_80:\n        /* \"#utility.yul\":3013:3018   */\n      0x00\n        /* \"#utility.yul\":3062:3065   */\n      dup3\n        /* \"#utility.yul\":3055:3059   */\n      0x1f\n        /* \"#utility.yul\":3047:3053   */\n      dup4\n        /* \"#utility.yul\":3043:3060   */\n      add\n        /* \"#utility.yul\":3039:3066   */\n      slt\n        /* \"#utility.yul\":3029:3151   */\n      tag_119\n      jumpi\n        /* \"#utility.yul\":3070:3149   */\n      tag_120\n      tag_70\n      jump\t// in\n    tag_120:\n        /* \"#utility.yul\":3029:3151   */\n    tag_119:\n        /* \"#utility.yul\":3174:3178   */\n      0x04\n        /* \"#utility.yul\":3196:3277   */\n      tag_121\n        /* \"#utility.yul\":3273:3276   */\n      dup5\n        /* \"#utility.yul\":3265:3271   */\n      dup3\n        /* \"#utility.yul\":3257:3263   */\n      dup6\n        /* \"#utility.yul\":3196:3277   */\n      tag_79\n      jump\t// in\n    tag_121:\n        /* \"#utility.yul\":3187:3277   */\n      swap2\n      pop\n        /* \"#utility.yul\":3019:3283   */\n      pop\n        /* \"#utility.yul\":2944:3283   */\n      swap3\n      swap2\n      pop\n      pop\n      jump\t// out\n        /* \"#utility.yul\":3289:3665   */\n    tag_21:\n        /* \"#utility.yul\":3371:3377   */\n      0x00\n        /* \"#utility.yul\":3420:3423   */\n      0x80\n        /* \"#utility.yul\":3408:3417   */\n      dup3\n        /* \"#utility.yul\":3399:3406   */\n      dup5\n        /* \"#utility.yul\":3395:3418   */\n      sub\n        /* \"#utility.yul\":3391:3424   */\n      slt\n        /* \"#utility.yul\":3388:3508   */\n      iszero\n      tag_123\n      jumpi\n        /* \"#utility.yul\":3427:3506   */\n      tag_124\n      tag_68\n      jump\t// in\n    tag_124:\n        /* \"#utility.yul\":3388:3508   */\n    tag_123:\n        /* \"#utility.yul\":3547:3548   */\n      0x00\n        /* \"#utility.yul\":3572:3648   */\n      tag_125\n        /* \"#utility.yul\":3640:3647   */\n      dup5\n        /* \"#utility.yul\":3631:3637   */\n      dup3\n        /* \"#utility.yul\":3620:3629   */\n      dup6\n        /* \"#utility.yul\":3616:3638   */\n      add\n        /* \"#utility.yul\":3572:3648   */\n      tag_80\n      jump\t// in\n    tag_125:\n        /* \"#utility.yul\":3562:3648   */\n      swap2\n      pop\n        /* \"#utility.yul\":3518:3658   */\n      pop\n        /* \"#utility.yul\":3289:3665   */\n      swap3\n      swap2\n      pop\n      pop\n      jump\t// out\n        /* \"#utility.yul\":3671:4000   */\n    tag_25:\n        /* \"#utility.yul\":3730:3736   */\n      0x00\n        /* \"#utility.yul\":3779:3781   */\n      0x20\n        /* \"#utility.yul\":3767:3776   */\n      dup3\n        /* \"#utility.yul\":3758:3765   */\n      dup5\n        /* \"#utility.yul\":3754:3777   */\n      sub\n        /* \"#utility.yul\":3750:3782   */\n      slt\n        /* \"#utility.yul\":3747:3866   */\n      iszero\n      tag_127\n      jumpi\n        /* \"#utility.yul\":3785:3864   */\n      tag_128\n      tag_68\n      jump\t// in\n    tag_128:\n        /* \"#utility.yul\":3747:3866   */\n    tag_127:\n        /* \"#utility.yul\":3905:3906   */\n      0x00\n        /* \"#utility.yul\":3930:3983   */\n      tag_129\n        /* \"#utility.yul\":3975:3982   */\n      dup5\n        /* \"#utility.yul\":3966:3972   */\n      dup3\n        /* \"#utility.yul\":3955:3964   */\n      dup6\n        /* \"#utility.yul\":3951:3973   */\n      add\n        /* \"#utility.yul\":3930:3983   */\n      tag_78\n      jump\t// in\n    tag_129:\n        /* \"#utility.yul\":3920:3983   */\n      swap2\n      pop\n        /* \"#utility.yul\":3876:3993   */\n      pop\n        /* \"#utility.yul\":3671:4000   */\n      swap3\n      swap2\n      pop\n      pop\n      jump\t// out\n\n    auxdata: 0xa2646970667358221220f2537b262f8a28225f3c875a7029bf4f028c2c8aa385d6f58e5ba334f1d8bcb764736f6c634300081a0033\n}\n",
				"bytecode": {
					"linkReferences": {},
					"object": "6080604052348015600e575f80fd5b506104f48061001c5f395ff3fe608060405234801561000f575f80fd5b5060043610610086575f3560e01c80639a9bdca7116100595780639a9bdca714610112578063d39fa2331461012e578063dff68daf1461015e578063fac04a0d1461018e57610086565b80633d1417121461008a57806369c113e1146100a857806382812dda146100c6578063859cc7d6146100e2575b5f80fd5b6100926101be565b60405161009f91906102da565b60405180910390f35b6100b06101e9565b6040516100bd91906102da565b60405180910390f35b6100e060048036038101906100db9190610468565b610216565b005b6100fc60048036038101906100f79190610493565b61023c565b60405161010991906102da565b60405180910390f35b61012c60048036038101906101279190610493565b610255565b005b61014860048036038101906101439190610493565b610284565b60405161015591906102da565b60405180910390f35b61017860048036038101906101739190610493565b6102a3565b60405161018591906102da565b60405180910390f35b6101a860048036038101906101a39190610493565b6102b5565b6040516101b591906102da565b60405180910390f35b5f8060015f5b60048110156101e05780820154830192506001810190506101c4565b50815f5260205ff35b5f805f545f5b8181101561020d578060205f200154830192506001810190506101ef565b50815f5260205ff35b5f5b600481101561023857602081028201518160010155600181019050610218565b5050565b6001816004811061024b575f80fd5b015f915090505481565b5f545f80525f5b8281101561027c578060205f20016001820181555060018101905061025c565b50815f555050565b5f8181548110610292575f80fd5b905f5260205f20015f915090505481565b5f80548260205f200154915050919050565b5f81600101549050919050565b5f819050919050565b6102d4816102c2565b82525050565b5f6020820190506102ed5f8301846102cb565b92915050565b5f604051905090565b5f80fd5b5f80fd5b5f601f19601f8301169050919050565b7f4e487b71000000000000000000000000000000000000000000000000000000005f52604160045260245ffd5b61034a82610304565b810181811067ffffffffffffffff8211171561036957610368610314565b5b80604052505050565b5f61037b6102f3565b90506103878282610341565b919050565b5f67ffffffffffffffff8211156103a6576103a5610314565b5b602082029050919050565b5f80fd5b6103be816102c2565b81146103c8575f80fd5b50565b5f813590506103d9816103b5565b92915050565b5f6103f16103ec8461038c565b610372565b9050806020840283018581111561040b5761040a6103b1565b5b835b81811015610434578061042088826103cb565b84526020840193505060208101905061040d565b5050509392505050565b5f82601f83011261045257610451610300565b5b600461045f8482856103df565b91505092915050565b5f6080828403121561047d5761047c6102fc565b5b5f61048a8482850161043e565b91505092915050565b5f602082840312156104a8576104a76102fc565b5b5f6104b5848285016103cb565b9150509291505056fea2646970667358221220f2537b262f8a28225f3c875a7029bf4f028c2c8aa385d6f58e5ba334f1d8bcb764736f6c634300081a0033",
					"opcodes": "PUSH1 0x80 PUSH1 0x40 MSTORE CALLVALUE DUP1 ISZERO PUSH1 0xE JUMPI PUSH0 DUP1 REVERT JUMPDEST POP PUSH2 0x4F4 DUP1 PUSH2 0x1C PUSH0 CODECOPY PUSH0 RETURN INVALID PUSH1 0x80 PUSH1 0x40 MSTORE CALLVALUE DUP1 ISZERO PUSH2 0xF JUMPI PUSH0 DUP1 REVERT JUMPDEST POP PUSH1 0x4 CALLDATASIZE LT PUSH2 0x86 JUMPI PUSH0 CALLDATALOAD PUSH1 0xE0 SHR DUP1 PUSH4 0x9A9BDCA7 GT PUSH2 0x59 JUMPI DUP1 PUSH4 0x9A9BDCA7 EQ PUSH2 0x112 JUMPI DUP1 PUSH4 0xD39FA233 EQ PUSH2 0x12E JUMPI DUP1 PUSH4 0xDFF68DAF EQ PUSH2 0x15E JUMPI DUP1 PUSH4 0xFAC04A0D EQ PUSH2 0x18E JUMPI PUSH2 0x86 JUMP JUMPDEST DUP1 PUSH4 0x3D141712 EQ PUSH2 0x8A JUMPI DUP1 PUSH4 0x69C113E1 EQ PUSH2 0xA8 JUMPI DUP1 PUSH4 0x82812DDA EQ PUSH2 0xC6 JUMPI DUP1 PUSH4 0x859CC7D6 EQ PUSH2 0xE2 JUMPI JUMPDEST PUSH0 DUP1 REVERT JUMPDEST PUSH2 0x92 PUSH2 0x1BE JUMP JUMPDEST PUSH1 0x40 MLOAD PUSH2 0x9F SWAP2 SWAP1 PUSH2 0x2DA JUMP JUMPDEST PUSH1 0x40 MLOAD DUP1 SWAP2 SUB SWAP1 RETURN JUMPDEST PUSH2 0xB0 PUSH2 0x1E9 JUMP JUMPDEST PUSH1 0x40 MLOAD PUSH2 0xBD SWAP2 SWAP1 PUSH2 0x2DA JUMP JUMPDEST PUSH1 0x40 MLOAD DUP1 SWAP2 SUB SWAP1 RETURN JUMPDEST PUSH2 0xE0 PUSH1 0x4 DUP1 CALLDATASIZE SUB DUP2 ADD SWAP1 PUSH2 0xDB SWAP2 SWAP1 PUSH2 0x468 JUMP JUMPDEST PUSH2 0x216 JUMP JUMPDEST STOP JUMPDEST PUSH2 0xFC PUSH1 0x4 DUP1 CALLDATASIZE SUB DUP2 ADD SWAP1 PUSH2 0xF7 SWAP2 SWAP1 PUSH2 0x493 JUMP JUMPDEST PUSH2 0x23C JUMP JUMPDEST PUSH1 0x40 MLOAD PUSH2 0x109 SWAP2 SWAP1 PUSH2 0x2DA JUMP JUMPDEST PUSH1 0x40 MLOAD DUP1 SWAP2 SUB SWAP1 RETURN JUMPDEST PUSH2 0x12C PUSH1 0x4 DUP1 CALLDATASIZE SUB DUP2 ADD SWAP1 PUSH2 0x127 SWAP2 SWAP1 PUSH2 0x493 JUMP JUMPDEST PUSH2 0x255 JUMP JUMPDEST STOP JUMPDEST PUSH2 0x148 PUSH1 0x4 DUP1 CALLDATASIZE SUB DUP2 ADD SWAP1 PUSH2 0x143 SWAP2 SWAP1 PUSH2 0x493 JUMP JUMPDEST PUSH2 0x284 JUMP JUMPDEST PUSH1 0x40 MLOAD PUSH2 0x155 SWAP2 SWAP1 PUSH2 0x2DA JUMP JUMPDEST PUSH1 0x40 MLOAD DUP1 SWAP2 SUB SWAP1 RETURN JUMPDEST PUSH2 0x178 PUSH1 0x4 DUP1 CALLDATASIZE SUB DUP2 ADD SWAP1 PUSH2 0x173 SWAP2 SWAP1 PUSH2 0x493 JUMP JUMPDEST PUSH2 0x2A3 JUMP JUMPDEST PUSH1 0x40 MLOAD PUSH2 0x185 SWAP2 SWAP1 PUSH2 0x2DA JUMP JUMPDEST PUSH1 0x40 MLOAD DUP1 SWAP2 SUB SWAP1 RETURN JUMPDEST PUSH2 0x1A8 PUSH1 0x4 DUP1 CALLDATASIZE SUB DUP2 ADD SWAP1 PUSH2 0x1A3 SWAP2 SWAP1 PUSH2 0x493 JUMP JUMPDEST PUSH2 0x2B5 JUMP JUMPDEST PUSH1 0x40 MLOAD PUSH2 0x1B5 SWAP2 SWAP1 PUSH2 0x2DA JUMP JUMPDEST PUSH1 0x40 MLOAD DUP1 SWAP2 SUB SWAP1 RETURN JUMPDEST PUSH0 DUP1 PUSH1 0x1 PUSH0 JUMPDEST PUSH1 0x4 DUP2 LT ISZERO PUSH2 0x1E0 JUMPI DUP1 DUP3 ADD SLOAD DUP4 ADD SWAP3 POP PUSH1 0x1 DUP2 ADD SWAP1 POP PUSH2 0x1C4 JUMP JUMPDEST POP DUP2 PUSH0 MSTORE PUSH1 0x20 PUSH0 RETURN JUMPDEST PUSH0 DUP1 PUSH0 SLOAD PUSH0 JUMPDEST DUP2 DUP2 LT ISZERO PUSH2 0x20D JUMPI DUP1 PUSH1 0x20 PUSH0 KECCAK256 ADD SLOAD DUP4 ADD SWAP3 POP PUSH1 0x1 DUP2 ADD SWAP1 POP PUSH2 0x1EF JUMP JUMPDEST POP DUP2 PUSH0 MSTORE PUSH1 0x20 PUSH0 RETURN JUMPDEST PUSH0 JUMPDEST PUSH1 0x4 DUP2 LT ISZERO PUSH2 0x238 JUMPI PUSH1 0x20 DUP2 MUL DUP3 ADD MLOAD DUP2 PUSH1 0x1 ADD SSTORE PUSH1 0x1 DUP2 ADD SWAP1 POP PUSH2 0x218 JUMP JUMPDEST POP POP JUMP JUMPDEST PUSH1 0x1 DUP2 PUSH1 0x4 DUP2 LT PUSH2 0x24B JUMPI PUSH0 DUP1 REVERT JUMPDEST ADD PUSH0 SWAP2 POP SWAP1 POP SLOAD DUP2 JUMP JUMPDEST PUSH0 SLOAD PUSH0 DUP1 MSTORE PUSH0 JUMPDEST DUP3 DUP2 LT ISZERO PUSH2 0x27C JUMPI DUP1 PUSH1 0x20 PUSH0 KECCAK256 ADD PUSH1 0x1 DUP3 ADD DUP2 SSTORE POP PUSH1 0x1 DUP2 ADD SWAP1 POP PUSH2 0x25C JUMP JUMPDEST POP DUP2 PUSH0 SSTORE POP POP JUMP JUMPDEST PUSH0 DUP2 DUP2 SLOAD DUP2 LT PUSH2 0x292 JUMPI PUSH0 DUP1 REVERT JUMPDEST SWAP1 PUSH0 MSTORE PUSH1 0x20 PUSH0 KECCAK256 ADD PUSH0 SWAP2 POP SWAP1 POP SLOAD DUP2 JUMP JUMPDEST PUSH0 DUP1 SLOAD DUP3 PUSH1 0x20 PUSH0 KECCAK256 ADD SLOAD SWAP2 POP POP SWAP2 SWAP1 POP JUMP JUMPDEST PUSH0 DUP2 PUSH1 0x1 ADD SLOAD SWAP1 POP SWAP2 SWAP1 POP JUMP JUMPDEST PUSH0 DUP2 SWAP1 POP SWAP2 SWAP1 POP JUMP JUMPDEST PUSH2 0x2D4 DUP2 PUSH2 0x2C2 JUMP JUMPDEST DUP3 MSTORE POP POP JUMP JUMPDEST PUSH0 PUSH1 0x20 DUP3 ADD SWAP1 POP PUSH2 0x2ED PUSH0 DUP4 ADD DUP5 PUSH2 0x2CB JUMP JUMPDEST SWAP3 SWAP2 POP POP JUMP JUMPDEST PUSH0 PUSH1 0x40 MLOAD SWAP1 POP SWAP1 JUMP JUMPDEST PUSH0 DUP1 REVERT JUMPDEST PUSH0 DUP1 REVERT JUMPDEST PUSH0 PUSH1 0x1F NOT PUSH1 0x1F DUP4 ADD AND SWAP1 POP SWAP2 SWAP1 POP JUMP JUMPDEST PUSH32 0x4E487B7100000000000000000000000000000000000000000000000000000000 PUSH0 MSTORE PUSH1 0x41 PUSH1 0x4 MSTORE PUSH1 0x24 PUSH0 REVERT JUMPDEST PUSH2 0x34A DUP3 PUSH2 0x304 JUMP JUMPDEST DUP2 ADD DUP2 DUP2 LT PUSH8 0xFFFFFFFFFFFFFFFF DUP3 GT OR ISZERO PUSH2 0x369 JUMPI PUSH2 0x368 PUSH2 0x314 JUMP JUMPDEST JUMPDEST DUP1 PUSH1 0x40 MSTORE POP POP POP JUMP JUMPDEST PUSH0 PUSH2 0x37B PUSH2 0x2F3 JUMP JUMPDEST SWAP1 POP PUSH2 0x387 DUP3 DUP3 PUSH2 0x341 JUMP JUMPDEST SWAP2 SWAP1 POP JUMP JUMPDEST PUSH0 PUSH8 0xFFFFFFFFFFFFFFFF DUP3 GT ISZERO PUSH2 0x3A6 JUMPI PUSH2 0x3A5 PUSH2 0x314 JUMP JUMPDEST JUMPDEST PUSH1 0x20 DUP3 MUL SWAP1 POP SWAP2 SWAP1 POP JUMP JUMPDEST PUSH0 DUP1 REVERT JUMPDEST PUSH2 0x3BE DUP2 PUSH2 0x2C2 JUMP JUMPDEST DUP2 EQ PUSH2 0x3C8 JUMPI PUSH0 DUP1 REVERT JUMPDEST POP JUMP JUMPDEST PUSH0 DUP2 CALLDATALOAD SWAP1 POP PUSH2 0x3D9 DUP2 PUSH2 0x3B5 JUMP JUMPDEST SWAP3 SWAP2 POP POP JUMP JUMPDEST PUSH0 PUSH2 0x3F1 PUSH2 0x3EC DUP5 PUSH2 0x38C JUMP JUMPDEST PUSH2 0x372 JUMP JUMPDEST SWAP1 POP DUP1 PUSH1 0x20 DUP5 MUL DUP4 ADD DUP6 DUP2 GT ISZERO PUSH2 0x40B JUMPI PUSH2 0x40A PUSH2 0x3B1 JUMP JUMPDEST JUMPDEST DUP4 JUMPDEST DUP2 DUP2 LT ISZERO PUSH2 0x434 JUMPI DUP1 PUSH2 0x420 DUP9 DUP3 PUSH2 0x3CB JUMP JUMPDEST DUP5 MSTORE PUSH1 0x20 DUP5 ADD SWAP4 POP POP PUSH1 0x20 DUP2 ADD SWAP1 POP PUSH2 0x40D JUMP JUMPDEST POP POP POP SWAP4 SWAP3 POP POP POP JUMP JUMPDEST PUSH0 DUP3 PUSH1 0x1F DUP4 ADD SLT PUSH2 0x452 JUMPI PUSH2 0x451 PUSH2 0x300 JUMP JUMPDEST JUMPDEST PUSH1 0x4 PUSH2 0x45F DUP5 DUP3 DUP6 PUSH2 0x3DF JUMP JUMPDEST SWAP2 POP POP SWAP3 SWAP2 POP POP JUMP JUMPDEST PUSH0 PUSH1 0x80 DUP3 DUP5 SUB SLT ISZERO PUSH2 0x47D JUMPI PUSH2 0x47C PUSH2 0x2FC JUMP JUMPDEST JUMPDEST PUSH0 PUSH2 0x48A DUP5 DUP3 DUP6 ADD PUSH2 0x43E JUMP JUMPDEST SWAP2 POP POP SWAP3 SWAP2 POP POP JUMP JUMPDEST PUSH0 PUSH1 0x20 DUP3 DUP5 SUB SLT ISZERO PUSH2 0x4A8 JUMPI PUSH2 0x4A7 PUSH2 0x2FC JUMP JUMPDEST JUMPDEST PUSH0 PUSH2 0x4B5 DUP5 DUP3 DUP6 ADD PUSH2 0x3CB JUMP JUMPDEST SWAP2 POP POP SWAP3 SWAP2 POP POP JUMP INVALID LOG2 PUSH5 0x6970667358 0x22 SLT KECCAK256 CALLCODE MSTORE8 PUSH28 0x262F8A28225F3C875A7029BF4F028C2C8AA385D6F58E5BA334F1D8BC 0xB7 PUSH5 0x736F6C6343 STOP ADDMOD BYTE STOP CALLER "
				},
				"gasEstimates": {
					"creation": {
						"codeDepositCost": "253600",
						"executionCost": "292",
						"totalCost": "253892"
					},
					"external": {
						"addNumbers()": "infinite",
						"addNumbers2()": "infinite",
						"dynamicArray(uint256)": "infinite",
						"numbers(uint256)": "infinite",
						"numbers2(uint256)": "infinite",
						"returnNumber2K(uint256)": "infinite",
						"returnNumberK(uint256)": "infinite",
						"staticArray(uint256[4])": "infinite"
					}
				},
				"methodIdentifiers": {
					"addNumbers()": "69c113e1",
					"addNumbers2()": "3d141712",
					"dynamicArray(uint256)": "9a9bdca7",
					"numbers(uint256)": "d39fa233",
					"numbers2(uint256)": "859cc7d6",
					"returnNumber2K(uint256)": "fac04a0d",
					"returnNumberK(uint256)": "dff68daf",
					"staticArray(uint256[4])": "82812dda"
				}
			},
			"storageLayout": {
				"storage": [
					{
						"astId": 4,
						"contract": "Code Test/CodeTest13.sol:Test13",
						"label": "numbers",
						"offset": 0,
						"slot": "0",
						"type": "t_array(t_uint256)dyn_storage"
					},
					{
						"astId": 8,
						"contract": "Code Test/CodeTest13.sol:Test13",
						"label": "numbers2",
						"offset": 0,
						"slot": "1",
						"type": "t_array(t_uint256)4_storage"
					}
				],
				"types": {
					"t_array(t_uint256)4_storage": {
						"base": "t_uint256",
						"encoding": "inplace",
						"label": "uint256[4]",
						"numberOfBytes": "128"
					},
					"t_array(t_uint256)dyn_storage": {
						"base": "t_uint256",
						"encoding": "dynamic_array",
						"label": "uint256[]",
						"numberOfBytes": "32"
					},
					"t_uint256": {
						"encoding": "inplace",
						"label": "uint256",
						"numberOfBytes": "32"
					}
				}
			},
			"userdoc": {
				"kind": "user",
				"methods": {},
				"version": 1
			}
		}
	}
}