{
	"Code Test/CodeTest_1.sol": {
		"TEST2": {
			"abi": [
				{
					"inputs": [],
					"name": "Flists",
					"outputs": [
						{
							"internalType": "uint256",
							"name": "",
							"type": "uint256"
						},
						{
							"components": [
								{
									"internalType": "string",
									"name": "name",
									"type": "string"
								},
								{
									"internalType": "uint256",
									"name": "number",
									"type": "uint256"
								},
								{
									"internalType": "uint256",
									"name": "score",
									"type": "uint256"
								},
								{
									"internalType": "string",
									"name": "grade",
									"type": "string"
								},
								{
									"internalType": "string[]",
									"name": "classLists",
									"type": "string[]"
								}
							],
							"internalType": "struct TEST2.student[]",
							"name": "",
							"type": "tuple[]"
						}
					],
					"stateMutability": "view",
					"type": "function"
				},
				{
					"inputs": [
						{
							"internalType": "string",
							"name": "_name",
							"type": "string"
						},
						{
							"internalType": "uint256",
							"name": "_score",
							"type": "uint256"
						},
						{
							"internalType": "string[]",
							"name": "_classLists",
							"type": "string[]"
						}
					],
					"name": "addStudent",
					"outputs": [],
					"stateMutability": "nonpayable",
					"type": "function"
				},
				{
					"inputs": [],
					"name": "getAvgScore",
					"outputs": [
						{
							"internalType": "uint256",
							"name": "",
							"type": "uint256"
						}
					],
					"stateMutability": "view",
					"type": "function"
				},
				{
					"inputs": [],
					"name": "getExcellentStudents",
					"outputs": [
						{
							"components": [
								{
									"internalType": "string",
									"name": "name",
									"type": "string"
								},
								{
									"internalType": "uint256",
									"name": "number",
									"type": "uint256"
								},
								{
									"internalType": "uint256",
									"name": "score",
									"type": "uint256"
								},
								{
									"internalType": "string",
									"name": "grade",
									"type": "string"
								},
								{
									"internalType": "string[]",
									"name": "classLists",
									"type": "string[]"
								}
							],
							"internalType": "struct TEST2.student[]",
							"name": "",
							"type": "tuple[]"
						}
					],
					"stateMutability": "view",
					"type": "function"
				},
				{
					"inputs": [],
					"name": "getNumbers",
					"outputs": [
						{
							"internalType": "uint256",
							"name": "",
							"type": "uint256"
						}
					],
					"stateMutability": "view",
					"type": "function"
				},
				{
					"inputs": [
						{
							"internalType": "string",
							"name": "_name",
							"type": "string"
						}
					],
					"name": "getScore",
					"outputs": [
						{
							"internalType": "uint256",
							"name": "",
							"type": "uint256"
						}
					],
					"stateMutability": "view",
					"type": "function"
				},
				{
					"inputs": [
						{
							"internalType": "uint256",
							"name": "_number",
							"type": "uint256"
						}
					],
					"name": "getStudent",
					"outputs": [
						{
							"components": [
								{
									"internalType": "string",
									"name": "name",
									"type": "string"
								},
								{
									"internalType": "uint256",
									"name": "number",
									"type": "uint256"
								},
								{
									"internalType": "uint256",
									"name": "score",
									"type": "uint256"
								},
								{
									"internalType": "string",
									"name": "grade",
									"type": "string"
								},
								{
									"internalType": "string[]",
									"name": "classLists",
									"type": "string[]"
								}
							],
							"internalType": "struct TEST2.student",
							"name": "",
							"type": "tuple"
						}
					],
					"stateMutability": "view",
					"type": "function"
				},
				{
					"inputs": [
						{
							"internalType": "string",
							"name": "_name",
							"type": "string"
						}
					],
					"name": "getStudent2",
					"outputs": [
						{
							"components": [
								{
									"internalType": "string",
									"name": "name",
									"type": "string"
								},
								{
									"internalType": "uint256",
									"name": "number",
									"type": "uint256"
								},
								{
									"internalType": "uint256",
									"name": "score",
									"type": "uint256"
								},
								{
									"internalType": "string",
									"name": "grade",
									"type": "string"
								},
								{
									"internalType": "string[]",
									"name": "classLists",
									"type": "string[]"
								}
							],
							"internalType": "struct TEST2.student",
							"name": "",
							"type": "tuple"
						}
					],
					"stateMutability": "view",
					"type": "function"
				},
				{
					"inputs": [],
					"name": "getStudents",
					"outputs": [
						{
							"components": [
								{
									"internalType": "string",
									"name": "name",
									"type": "string"
								},
								{
									"internalType": "uint256",
									"name": "number",
									"type": "uint256"
								},
								{
									"internalType": "uint256",
									"name": "score",
									"type": "uint256"
								},
								{
									"internalType": "string",
									"name": "grade",
									"type": "string"
								},
								{
									"internalType": "string[]",
									"name": "classLists",
									"type": "string[]"
								}
							],
							"internalType": "struct TEST2.student[]",
							"name": "",
							"type": "tuple[]"
						}
					],
					"stateMutability": "view",
					"type": "function"
				},
				{
					"inputs": [],
					"name": "pushStudents",
					"outputs": [],
					"stateMutability": "nonpayable",
					"type": "function"
				},
				{
					"inputs": [],
					"name": "teacherSelfEvaluation",
					"outputs": [
						{
							"internalType": "bool",
							"name": "",
							"type": "bool"
						}
					],
					"stateMutability": "view",
					"type": "function"
				}
			],
			"devdoc": {
				"kind": "dev",
				"methods": {},
				"version": 1
			},
			"evm": {
				"assembly": "    /* \"Code Test/CodeTest_1.sol\":58:7089  contract TEST2 {... */\n  mstore(0x40, 0x80)\n  callvalue\n  dup1\n  iszero\n  tag_1\n  jumpi\n  0x00\n  dup1\n  revert\ntag_1:\n  pop\n  dataSize(sub_0)\n  dup1\n  dataOffset(sub_0)\n  0x00\n  codecopy\n  0x00\n  return\nstop\n\nsub_0: assembly {\n        /* \"Code Test/CodeTest_1.sol\":58:7089  contract TEST2 {... */\n      mstore(0x40, 0x80)\n      callvalue\n      dup1\n      iszero\n      tag_1\n      jumpi\n      0x00\n      dup1\n      revert\n    tag_1:\n      pop\n      jumpi(tag_2, lt(calldatasize, 0x04))\n      shr(0xe0, calldataload(0x00))\n      dup1\n      0x89f915f6\n      gt\n      tag_14\n      jumpi\n      dup1\n      0x89f915f6\n      eq\n      tag_8\n      jumpi\n      dup1\n      0x95863d62\n      eq\n      tag_9\n      jumpi\n      dup1\n      0x9f259987\n      eq\n      tag_10\n      jumpi\n      dup1\n      0xb24341cb\n      eq\n      tag_11\n      jumpi\n      dup1\n      0xc7e56ae3\n      eq\n      tag_12\n      jumpi\n      dup1\n      0xf1d064b3\n      eq\n      tag_13\n      jumpi\n      jump(tag_2)\n    tag_14:\n      dup1\n      0x16020273\n      eq\n      tag_3\n      jumpi\n      dup1\n      0x4ebb7603\n      eq\n      tag_4\n      jumpi\n      dup1\n      0x642f9163\n      eq\n      tag_5\n      jumpi\n      dup1\n      0x740d5e10\n      eq\n      tag_6\n      jumpi\n      dup1\n      0x877f18b3\n      eq\n      tag_7\n      jumpi\n    tag_2:\n      0x00\n      dup1\n      revert\n        /* \"Code Test/CodeTest_1.sol\":4117:4497  function getScore(string memory _name) public view returns(uint) {... */\n    tag_3:\n      tag_15\n      0x04\n      dup1\n      calldatasize\n      sub\n      dup2\n      add\n      swap1\n      tag_16\n      swap2\n      swap1\n      tag_17\n      jump\t// in\n    tag_16:\n      tag_18\n      jump\t// in\n    tag_15:\n      mload(0x40)\n      tag_19\n      swap2\n      swap1\n      tag_20\n      jump\t// in\n    tag_19:\n      mload(0x40)\n      dup1\n      swap2\n      sub\n      swap1\n      return\n        /* \"Code Test/CodeTest_1.sol\":5546:6226  function Flists() public view returns(uint, student[] memory) {... */\n    tag_4:\n      tag_21\n      tag_22\n      jump\t// in\n    tag_21:\n      mload(0x40)\n      tag_23\n      swap3\n      swap2\n      swap1\n      tag_24\n      jump\t// in\n    tag_23:\n      mload(0x40)\n      dup1\n      swap2\n      sub\n      swap1\n      return\n        /* \"Code Test/CodeTest_1.sol\":3394:3505  function getStudent(uint _number) public view returns(student memory){... */\n    tag_5:\n      tag_25\n      0x04\n      dup1\n      calldatasize\n      sub\n      dup2\n      add\n      swap1\n      tag_26\n      swap2\n      swap1\n      tag_27\n      jump\t// in\n    tag_26:\n      tag_28\n      jump\t// in\n    tag_25:\n      mload(0x40)\n      tag_29\n      swap2\n      swap1\n      tag_30\n      jump\t// in\n    tag_29:\n      mload(0x40)\n      dup1\n      swap2\n      sub\n      swap1\n      return\n        /* \"Code Test/CodeTest_1.sol\":4986:5193  function getAvgScore() public view returns(uint) {... */\n    tag_6:\n      tag_31\n      tag_32\n      jump\t// in\n    tag_31:\n      mload(0x40)\n      tag_33\n      swap2\n      swap1\n      tag_20\n      jump\t// in\n    tag_33:\n      mload(0x40)\n      dup1\n      swap2\n      sub\n      swap1\n      return\n        /* \"Code Test/CodeTest_1.sol\":5334:5436  function teacherSelfEvaluation() public view returns(bool) {... */\n    tag_7:\n      tag_34\n      tag_35\n      jump\t// in\n    tag_34:\n      mload(0x40)\n      tag_36\n      swap2\n      swap1\n      tag_37\n      jump\t// in\n    tag_36:\n      mload(0x40)\n      dup1\n      swap2\n      sub\n      swap1\n      return\n        /* \"Code Test/CodeTest_1.sol\":4593:4680  function getNumbers() public view returns (uint) {... */\n    tag_8:\n      tag_38\n      tag_39\n      jump\t// in\n    tag_38:\n      mload(0x40)\n      tag_40\n      swap2\n      swap1\n      tag_20\n      jump\t// in\n    tag_40:\n      mload(0x40)\n      dup1\n      swap2\n      sub\n      swap1\n      return\n        /* \"Code Test/CodeTest_1.sol\":3618:4004  function getStudent2(string memory _name) public view returns(student memory) {... */\n    tag_9:\n      tag_41\n      0x04\n      dup1\n      calldatasize\n      sub\n      dup2\n      add\n      swap1\n      tag_42\n      swap2\n      swap1\n      tag_17\n      jump\t// in\n    tag_42:\n      tag_43\n      jump\t// in\n    tag_41:\n      mload(0x40)\n      tag_44\n      swap2\n      swap1\n      tag_30\n      jump\t// in\n    tag_44:\n      mload(0x40)\n      dup1\n      swap2\n      sub\n      swap1\n      return\n        /* \"Code Test/CodeTest_1.sol\":6446:7082  function getExcellentStudents() public view returns(student[] memory){... */\n    tag_10:\n      tag_45\n      tag_46\n      jump\t// in\n    tag_45:\n      mload(0x40)\n      tag_47\n      swap2\n      swap1\n      tag_48\n      jump\t// in\n    tag_47:\n      mload(0x40)\n      dup1\n      swap2\n      sub\n      swap1\n      return\n        /* \"Code Test/CodeTest_1.sol\":2792:3281  function pushStudents() public {... */\n    tag_11:\n      tag_49\n      tag_50\n      jump\t// in\n    tag_49:\n      stop\n        /* \"Code Test/CodeTest_1.sol\":2596:2786  function addStudent(string memory _name, uint _score, string[] memory _classLists) public {... */\n    tag_12:\n      tag_51\n      0x04\n      dup1\n      calldatasize\n      sub\n      dup2\n      add\n      swap1\n      tag_52\n      swap2\n      swap1\n      tag_53\n      jump\t// in\n    tag_52:\n      tag_54\n      jump\t// in\n    tag_51:\n      stop\n        /* \"Code Test/CodeTest_1.sol\":4785:4878  function getStudents() public view returns(student[] memory) {... */\n    tag_13:\n      tag_55\n      tag_56\n      jump\t// in\n    tag_55:\n      mload(0x40)\n      tag_57\n      swap2\n      swap1\n      tag_48\n      jump\t// in\n    tag_57:\n      mload(0x40)\n      dup1\n      swap2\n      sub\n      swap1\n      return\n        /* \"Code Test/CodeTest_1.sol\":4117:4497  function getScore(string memory _name) public view returns(uint) {... */\n    tag_18:\n        /* \"Code Test/CodeTest_1.sol\":4176:4180  uint */\n      0x00\n        /* \"Code Test/CodeTest_1.sol\":4289:4295  uint i */\n      dup1\n        /* \"Code Test/CodeTest_1.sol\":4296:4297  0 */\n      0x00\n        /* \"Code Test/CodeTest_1.sol\":4289:4297  uint i=0 */\n      swap1\n      pop\n        /* \"Code Test/CodeTest_1.sol\":4285:4492  for(uint i=0; i<students.length; i++) {... */\n    tag_59:\n        /* \"Code Test/CodeTest_1.sol\":4301:4309  students */\n      0x00\n        /* \"Code Test/CodeTest_1.sol\":4301:4316  students.length */\n      dup1\n      sload\n      swap1\n      pop\n        /* \"Code Test/CodeTest_1.sol\":4299:4300  i */\n      dup2\n        /* \"Code Test/CodeTest_1.sol\":4299:4316  i<students.length */\n      lt\n        /* \"Code Test/CodeTest_1.sol\":4285:4492  for(uint i=0; i<students.length; i++) {... */\n      iszero\n      tag_60\n      jumpi\n        /* \"Code Test/CodeTest_1.sol\":4416:4421  _name */\n      dup3\n        /* \"Code Test/CodeTest_1.sol\":4399:4422  abi.encodePacked(_name) */\n      add(0x20, mload(0x40))\n      tag_62\n      swap2\n      swap1\n      tag_63\n      jump\t// in\n    tag_62:\n      mload(0x40)\n      0x20\n      dup2\n      dup4\n      sub\n      sub\n      dup2\n      mstore\n      swap1\n      0x40\n      mstore\n        /* \"Code Test/CodeTest_1.sol\":4389:4423  keccak256(abi.encodePacked(_name)) */\n      dup1\n      mload\n      swap1\n      0x20\n      add\n      keccak256\n        /* \"Code Test/CodeTest_1.sol\":4367:4375  students */\n      0x00\n        /* \"Code Test/CodeTest_1.sol\":4376:4377  i */\n      dup3\n        /* \"Code Test/CodeTest_1.sol\":4367:4378  students[i] */\n      dup2\n      sload\n      dup2\n      lt\n      tag_64\n      jumpi\n      tag_65\n      tag_66\n      jump\t// in\n    tag_65:\n    tag_64:\n      swap1\n      0x00\n      mstore\n      keccak256(0x00, 0x20)\n      swap1\n      0x05\n      mul\n      add\n        /* \"Code Test/CodeTest_1.sol\":4367:4383  students[i].name */\n      0x00\n      add\n        /* \"Code Test/CodeTest_1.sol\":4350:4384  abi.encodePacked(students[i].name) */\n      add(0x20, mload(0x40))\n      tag_68\n      swap2\n      swap1\n      tag_69\n      jump\t// in\n    tag_68:\n      mload(0x40)\n      0x20\n      dup2\n      dup4\n      sub\n      sub\n      dup2\n      mstore\n      swap1\n      0x40\n      mstore\n        /* \"Code Test/CodeTest_1.sol\":4340:4385  keccak256(abi.encodePacked(students[i].name)) */\n      dup1\n      mload\n      swap1\n      0x20\n      add\n      keccak256\n        /* \"Code Test/CodeTest_1.sol\":4340:4423  keccak256(abi.encodePacked(students[i].name)) == keccak256(abi.encodePacked(_name)) */\n      sub\n        /* \"Code Test/CodeTest_1.sol\":4337:4482  if(keccak256(abi.encodePacked(students[i].name)) == keccak256(abi.encodePacked(_name))) {... */\n      tag_70\n      jumpi\n        /* \"Code Test/CodeTest_1.sol\":4450:4458  students */\n      0x00\n        /* \"Code Test/CodeTest_1.sol\":4459:4460  i */\n      dup2\n        /* \"Code Test/CodeTest_1.sol\":4450:4461  students[i] */\n      dup2\n      sload\n      dup2\n      lt\n      tag_71\n      jumpi\n      tag_72\n      tag_66\n      jump\t// in\n    tag_72:\n    tag_71:\n      swap1\n      0x00\n      mstore\n      keccak256(0x00, 0x20)\n      swap1\n      0x05\n      mul\n      add\n        /* \"Code Test/CodeTest_1.sol\":4450:4467  students[i].score */\n      0x02\n      add\n      sload\n        /* \"Code Test/CodeTest_1.sol\":4443:4467  return students[i].score */\n      swap2\n      pop\n      pop\n      jump(tag_58)\n        /* \"Code Test/CodeTest_1.sol\":4337:4482  if(keccak256(abi.encodePacked(students[i].name)) == keccak256(abi.encodePacked(_name))) {... */\n    tag_70:\n        /* \"Code Test/CodeTest_1.sol\":4318:4321  i++ */\n      dup1\n      dup1\n      0x01\n      add\n      swap2\n      pop\n      pop\n        /* \"Code Test/CodeTest_1.sol\":4285:4492  for(uint i=0; i<students.length; i++) {... */\n      jump(tag_59)\n    tag_60:\n      pop\n        /* \"Code Test/CodeTest_1.sol\":4117:4497  function getScore(string memory _name) public view returns(uint) {... */\n    tag_58:\n      swap2\n      swap1\n      pop\n      jump\t// out\n        /* \"Code Test/CodeTest_1.sol\":5546:6226  function Flists() public view returns(uint, student[] memory) {... */\n    tag_22:\n        /* \"Code Test/CodeTest_1.sol\":5584:5588  uint */\n      0x00\n        /* \"Code Test/CodeTest_1.sol\":5590:5606  student[] memory */\n      0x60\n        /* \"Code Test/CodeTest_1.sol\":5644:5645  0 */\n      0x00\n        /* \"Code Test/CodeTest_1.sol\":5626:5634  students */\n      dup1\n        /* \"Code Test/CodeTest_1.sol\":5626:5641  students.length */\n      dup1\n      sload\n      swap1\n      pop\n        /* \"Code Test/CodeTest_1.sol\":5626:5645  students.length > 0 */\n      gt\n        /* \"Code Test/CodeTest_1.sol\":5618:5657  require(students.length > 0, \"No data\") */\n      tag_75\n      jumpi\n      mload(0x40)\n      0x08c379a000000000000000000000000000000000000000000000000000000000\n      dup2\n      mstore\n      0x04\n      add\n      tag_76\n      swap1\n      tag_77\n      jump\t// in\n    tag_76:\n      mload(0x40)\n      dup1\n      swap2\n      sub\n      swap1\n      revert\n    tag_75:\n        /* \"Code Test/CodeTest_1.sol\":5676:5682  uint F */\n      0x00\n        /* \"Code Test/CodeTest_1.sol\":5696:5702  uint i */\n      dup1\n        /* \"Code Test/CodeTest_1.sol\":5703:5704  0 */\n      0x00\n        /* \"Code Test/CodeTest_1.sol\":5696:5704  uint i=0 */\n      swap1\n      pop\n        /* \"Code Test/CodeTest_1.sol\":5692:5874  for(uint i=0; i<students.length;i++){... */\n    tag_78:\n        /* \"Code Test/CodeTest_1.sol\":5708:5716  students */\n      0x00\n        /* \"Code Test/CodeTest_1.sol\":5708:5723  students.length */\n      dup1\n      sload\n      swap1\n      pop\n        /* \"Code Test/CodeTest_1.sol\":5706:5707  i */\n      dup2\n        /* \"Code Test/CodeTest_1.sol\":5706:5723  i<students.length */\n      lt\n        /* \"Code Test/CodeTest_1.sol\":5692:5874  for(uint i=0; i<students.length;i++){... */\n      iszero\n      tag_79\n      jumpi\n        /* \"Code Test/CodeTest_1.sol\":5805:5826  abi.encodePacked(\"F\") */\n      add(0x20, mload(0x40))\n      tag_81\n      swap1\n      tag_82\n      jump\t// in\n    tag_81:\n      mload(0x40)\n      0x20\n      dup2\n      dup4\n      sub\n      sub\n      dup2\n      mstore\n      swap1\n      0x40\n      mstore\n        /* \"Code Test/CodeTest_1.sol\":5795:5827  keccak256(abi.encodePacked(\"F\")) */\n      dup1\n      mload\n      swap1\n      0x20\n      add\n      keccak256\n        /* \"Code Test/CodeTest_1.sol\":5772:5780  students */\n      0x00\n        /* \"Code Test/CodeTest_1.sol\":5781:5782  i */\n      dup3\n        /* \"Code Test/CodeTest_1.sol\":5772:5783  students[i] */\n      dup2\n      sload\n      dup2\n      lt\n      tag_83\n      jumpi\n      tag_84\n      tag_66\n      jump\t// in\n    tag_84:\n    tag_83:\n      swap1\n      0x00\n      mstore\n      keccak256(0x00, 0x20)\n      swap1\n      0x05\n      mul\n      add\n        /* \"Code Test/CodeTest_1.sol\":5772:5789  students[i].grade */\n      0x03\n      add\n        /* \"Code Test/CodeTest_1.sol\":5755:5790  abi.encodePacked(students[i].grade) */\n      add(0x20, mload(0x40))\n      tag_86\n      swap2\n      swap1\n      tag_69\n      jump\t// in\n    tag_86:\n      mload(0x40)\n      0x20\n      dup2\n      dup4\n      sub\n      sub\n      dup2\n      mstore\n      swap1\n      0x40\n      mstore\n        /* \"Code Test/CodeTest_1.sol\":5745:5791  keccak256(abi.encodePacked(students[i].grade)) */\n      dup1\n      mload\n      swap1\n      0x20\n      add\n      keccak256\n        /* \"Code Test/CodeTest_1.sol\":5745:5827  keccak256(abi.encodePacked(students[i].grade)) == keccak256(abi.encodePacked(\"F\")) */\n      sub\n        /* \"Code Test/CodeTest_1.sol\":5742:5864  if(keccak256(abi.encodePacked(students[i].grade)) == keccak256(abi.encodePacked(\"F\"))){... */\n      tag_87\n      jumpi\n        /* \"Code Test/CodeTest_1.sol\":5846:5849  F++ */\n      dup2\n      dup1\n      tag_88\n      swap1\n      tag_89\n      jump\t// in\n    tag_88:\n      swap3\n      pop\n      pop\n        /* \"Code Test/CodeTest_1.sol\":5742:5864  if(keccak256(abi.encodePacked(students[i].grade)) == keccak256(abi.encodePacked(\"F\"))){... */\n    tag_87:\n        /* \"Code Test/CodeTest_1.sol\":5724:5727  i++ */\n      dup1\n      dup1\n      0x01\n      add\n      swap2\n      pop\n      pop\n        /* \"Code Test/CodeTest_1.sol\":5692:5874  for(uint i=0; i<students.length;i++){... */\n      jump(tag_78)\n    tag_79:\n      pop\n        /* \"Code Test/CodeTest_1.sol\":5885:5911  student[] memory FStudents */\n      0x00\n        /* \"Code Test/CodeTest_1.sol\":5928:5929  F */\n      dup2\n        /* \"Code Test/CodeTest_1.sol\":5914:5930  new student[](F) */\n      0xffffffffffffffff\n      dup2\n      gt\n      iszero\n      tag_90\n      jumpi\n      tag_91\n      tag_92\n      jump\t// in\n    tag_91:\n    tag_90:\n      mload(0x40)\n      swap1\n      dup1\n      dup3\n      mstore\n      dup1\n      0x20\n      mul\n      0x20\n      add\n      dup3\n      add\n      0x40\n      mstore\n      dup1\n      iszero\n      tag_93\n      jumpi\n      dup2\n      0x20\n      add\n    tag_94:\n      tag_95\n      tag_96\n      jump\t// in\n    tag_95:\n      dup2\n      mstore\n      0x20\n      add\n      swap1\n      0x01\n      swap1\n      sub\n      swap1\n      dup2\n      tag_94\n      jumpi\n      swap1\n      pop\n    tag_93:\n      pop\n        /* \"Code Test/CodeTest_1.sol\":5885:5930  student[] memory FStudents = new student[](F) */\n      swap1\n      pop\n        /* \"Code Test/CodeTest_1.sol\":5944:5950  uint i */\n      0x00\n        /* \"Code Test/CodeTest_1.sol\":5940:6188  for(uint i=0; i<students.length;i++){... */\n    tag_97:\n        /* \"Code Test/CodeTest_1.sol\":5956:5964  students */\n      0x00\n        /* \"Code Test/CodeTest_1.sol\":5956:5971  students.length */\n      dup1\n      sload\n      swap1\n      pop\n        /* \"Code Test/CodeTest_1.sol\":5954:5955  i */\n      dup2\n        /* \"Code Test/CodeTest_1.sol\":5954:5971  i<students.length */\n      lt\n        /* \"Code Test/CodeTest_1.sol\":5940:6188  for(uint i=0; i<students.length;i++){... */\n      iszero\n      tag_98\n      jumpi\n        /* \"Code Test/CodeTest_1.sol\":5990:5996  uint j */\n      0x00\n        /* \"Code Test/CodeTest_1.sol\":6075:6096  abi.encodePacked(\"F\") */\n      add(0x20, mload(0x40))\n      tag_100\n      swap1\n      tag_82\n      jump\t// in\n    tag_100:\n      mload(0x40)\n      0x20\n      dup2\n      dup4\n      sub\n      sub\n      dup2\n      mstore\n      swap1\n      0x40\n      mstore\n        /* \"Code Test/CodeTest_1.sol\":6065:6097  keccak256(abi.encodePacked(\"F\")) */\n      dup1\n      mload\n      swap1\n      0x20\n      add\n      keccak256\n        /* \"Code Test/CodeTest_1.sol\":6042:6050  students */\n      0x00\n        /* \"Code Test/CodeTest_1.sol\":6051:6052  i */\n      dup4\n        /* \"Code Test/CodeTest_1.sol\":6042:6053  students[i] */\n      dup2\n      sload\n      dup2\n      lt\n      tag_101\n      jumpi\n      tag_102\n      tag_66\n      jump\t// in\n    tag_102:\n    tag_101:\n      swap1\n      0x00\n      mstore\n      keccak256(0x00, 0x20)\n      swap1\n      0x05\n      mul\n      add\n        /* \"Code Test/CodeTest_1.sol\":6042:6059  students[i].grade */\n      0x03\n      add\n        /* \"Code Test/CodeTest_1.sol\":6025:6060  abi.encodePacked(students[i].grade) */\n      add(0x20, mload(0x40))\n      tag_104\n      swap2\n      swap1\n      tag_69\n      jump\t// in\n    tag_104:\n      mload(0x40)\n      0x20\n      dup2\n      dup4\n      sub\n      sub\n      dup2\n      mstore\n      swap1\n      0x40\n      mstore\n        /* \"Code Test/CodeTest_1.sol\":6015:6061  keccak256(abi.encodePacked(students[i].grade)) */\n      dup1\n      mload\n      swap1\n      0x20\n      add\n      keccak256\n        /* \"Code Test/CodeTest_1.sol\":6015:6097  keccak256(abi.encodePacked(students[i].grade)) == keccak256(abi.encodePacked(\"F\")) */\n      sub\n        /* \"Code Test/CodeTest_1.sol\":6012:6178  if(keccak256(abi.encodePacked(students[i].grade)) == keccak256(abi.encodePacked(\"F\"))){... */\n      tag_105\n      jumpi\n        /* \"Code Test/CodeTest_1.sol\":6131:6139  students */\n      0x00\n        /* \"Code Test/CodeTest_1.sol\":6140:6141  i */\n      dup3\n        /* \"Code Test/CodeTest_1.sol\":6131:6142  students[i] */\n      dup2\n      sload\n      dup2\n      lt\n      tag_106\n      jumpi\n      tag_107\n      tag_66\n      jump\t// in\n    tag_107:\n    tag_106:\n      swap1\n      0x00\n      mstore\n      keccak256(0x00, 0x20)\n      swap1\n      0x05\n      mul\n      add\n        /* \"Code Test/CodeTest_1.sol\":6116:6142  FStudents[j] = students[i] */\n      mload(0x40)\n      dup1\n      0xa0\n      add\n      0x40\n      mstore\n      swap1\n      dup2\n      0x00\n      dup3\n      add\n      dup1\n      sload\n      tag_109\n      swap1\n      tag_110\n      jump\t// in\n    tag_109:\n      dup1\n      0x1f\n      add\n      0x20\n      dup1\n      swap2\n      div\n      mul\n      0x20\n      add\n      mload(0x40)\n      swap1\n      dup2\n      add\n      0x40\n      mstore\n      dup1\n      swap3\n      swap2\n      swap1\n      dup2\n      dup2\n      mstore\n      0x20\n      add\n      dup3\n      dup1\n      sload\n      tag_111\n      swap1\n      tag_110\n      jump\t// in\n    tag_111:\n      dup1\n      iszero\n      tag_112\n      jumpi\n      dup1\n      0x1f\n      lt\n      tag_113\n      jumpi\n      0x0100\n      dup1\n      dup4\n      sload\n      div\n      mul\n      dup4\n      mstore\n      swap2\n      0x20\n      add\n      swap2\n      jump(tag_112)\n    tag_113:\n      dup3\n      add\n      swap2\n      swap1\n      0x00\n      mstore\n      keccak256(0x00, 0x20)\n      swap1\n    tag_114:\n      dup2\n      sload\n      dup2\n      mstore\n      swap1\n      0x01\n      add\n      swap1\n      0x20\n      add\n      dup1\n      dup4\n      gt\n      tag_114\n      jumpi\n      dup3\n      swap1\n      sub\n      0x1f\n      and\n      dup3\n      add\n      swap2\n    tag_112:\n      pop\n      pop\n      pop\n      pop\n      pop\n      dup2\n      mstore\n      0x20\n      add\n      0x01\n      dup3\n      add\n      sload\n      dup2\n      mstore\n      0x20\n      add\n      0x02\n      dup3\n      add\n      sload\n      dup2\n      mstore\n      0x20\n      add\n      0x03\n      dup3\n      add\n      dup1\n      sload\n      tag_115\n      swap1\n      tag_110\n      jump\t// in\n    tag_115:\n      dup1\n      0x1f\n      add\n      0x20\n      dup1\n      swap2\n      div\n      mul\n      0x20\n      add\n      mload(0x40)\n      swap1\n      dup2\n      add\n      0x40\n      mstore\n      dup1\n      swap3\n      swap2\n      swap1\n      dup2\n      dup2\n      mstore\n      0x20\n      add\n      dup3\n      dup1\n      sload\n      tag_116\n      swap1\n      tag_110\n      jump\t// in\n    tag_116:\n      dup1\n      iszero\n      tag_117\n      jumpi\n      dup1\n      0x1f\n      lt\n      tag_118\n      jumpi\n      0x0100\n      dup1\n      dup4\n      sload\n      div\n      mul\n      dup4\n      mstore\n      swap2\n      0x20\n      add\n      swap2\n      jump(tag_117)\n    tag_118:\n      dup3\n      add\n      swap2\n      swap1\n      0x00\n      mstore\n      keccak256(0x00, 0x20)\n      swap1\n    tag_119:\n      dup2\n      sload\n      dup2\n      mstore\n      swap1\n      0x01\n      add\n      swap1\n      0x20\n      add\n      dup1\n      dup4\n      gt\n      tag_119\n      jumpi\n      dup3\n      swap1\n      sub\n      0x1f\n      and\n      dup3\n      add\n      swap2\n    tag_117:\n      pop\n      pop\n      pop\n      pop\n      pop\n      dup2\n      mstore\n      0x20\n      add\n      0x04\n      dup3\n      add\n      dup1\n      sload\n      dup1\n      0x20\n      mul\n      0x20\n      add\n      mload(0x40)\n      swap1\n      dup2\n      add\n      0x40\n      mstore\n      dup1\n      swap3\n      swap2\n      swap1\n      dup2\n      dup2\n      mstore\n      0x20\n      add\n      0x00\n      swap1\n    tag_120:\n      dup3\n      dup3\n      lt\n      iszero\n      tag_121\n      jumpi\n      dup4\n      dup3\n      swap1\n      0x00\n      mstore\n      keccak256(0x00, 0x20)\n      add\n      dup1\n      sload\n      tag_123\n      swap1\n      tag_110\n      jump\t// in\n    tag_123:\n      dup1\n      0x1f\n      add\n      0x20\n      dup1\n      swap2\n      div\n      mul\n      0x20\n      add\n      mload(0x40)\n      swap1\n      dup2\n      add\n      0x40\n      mstore\n      dup1\n      swap3\n      swap2\n      swap1\n      dup2\n      dup2\n      mstore\n      0x20\n      add\n      dup3\n      dup1\n      sload\n      tag_124\n      swap1\n      tag_110\n      jump\t// in\n    tag_124:\n      dup1\n      iszero\n      tag_125\n      jumpi\n      dup1\n      0x1f\n      lt\n      tag_126\n      jumpi\n      0x0100\n      dup1\n      dup4\n      sload\n      div\n      mul\n      dup4\n      mstore\n      swap2\n      0x20\n      add\n      swap2\n      jump(tag_125)\n    tag_126:\n      dup3\n      add\n      swap2\n      swap1\n      0x00\n      mstore\n      keccak256(0x00, 0x20)\n      swap1\n    tag_127:\n      dup2\n      sload\n      dup2\n      mstore\n      swap1\n      0x01\n      add\n      swap1\n      0x20\n      add\n      dup1\n      dup4\n      gt\n      tag_127\n      jumpi\n      dup3\n      swap1\n      sub\n      0x1f\n      and\n      dup3\n      add\n      swap2\n    tag_125:\n      pop\n      pop\n      pop\n      pop\n      pop\n      dup2\n      mstore\n      0x20\n      add\n      swap1\n      0x01\n      add\n      swap1\n      jump(tag_120)\n    tag_121:\n      pop\n      pop\n      pop\n      pop\n      dup2\n      mstore\n      pop\n      pop\n        /* \"Code Test/CodeTest_1.sol\":6116:6125  FStudents */\n      dup4\n        /* \"Code Test/CodeTest_1.sol\":6126:6127  j */\n      dup3\n        /* \"Code Test/CodeTest_1.sol\":6116:6128  FStudents[j] */\n      dup2\n      mload\n      dup2\n      lt\n      tag_128\n      jumpi\n      tag_129\n      tag_66\n      jump\t// in\n    tag_129:\n    tag_128:\n      0x20\n      mul\n      0x20\n      add\n      add\n        /* \"Code Test/CodeTest_1.sol\":6116:6142  FStudents[j] = students[i] */\n      dup2\n      swap1\n      mstore\n      pop\n        /* \"Code Test/CodeTest_1.sol\":6160:6163  j++ */\n      dup1\n      dup1\n      tag_130\n      swap1\n      tag_89\n      jump\t// in\n    tag_130:\n      swap2\n      pop\n      pop\n        /* \"Code Test/CodeTest_1.sol\":6012:6178  if(keccak256(abi.encodePacked(students[i].grade)) == keccak256(abi.encodePacked(\"F\"))){... */\n    tag_105:\n        /* \"Code Test/CodeTest_1.sol\":5976:6188  {... */\n      pop\n        /* \"Code Test/CodeTest_1.sol\":5972:5975  i++ */\n      dup1\n      dup1\n      0x01\n      add\n      swap2\n      pop\n      pop\n        /* \"Code Test/CodeTest_1.sol\":5940:6188  for(uint i=0; i<students.length;i++){... */\n      jump(tag_97)\n    tag_98:\n      pop\n        /* \"Code Test/CodeTest_1.sol\":6205:6206  F */\n      dup2\n        /* \"Code Test/CodeTest_1.sol\":6208:6217  FStudents */\n      dup2\n        /* \"Code Test/CodeTest_1.sol\":6197:6218  return (F, FStudents) */\n      swap4\n      pop\n      swap4\n      pop\n      pop\n      pop\n        /* \"Code Test/CodeTest_1.sol\":5546:6226  function Flists() public view returns(uint, student[] memory) {... */\n      swap1\n      swap2\n      jump\t// out\n        /* \"Code Test/CodeTest_1.sol\":3394:3505  function getStudent(uint _number) public view returns(student memory){... */\n    tag_28:\n        /* \"Code Test/CodeTest_1.sol\":3448:3462  student memory */\n      tag_131\n      tag_96\n      jump\t// in\n    tag_131:\n        /* \"Code Test/CodeTest_1.sol\":3480:3488  students */\n      0x00\n        /* \"Code Test/CodeTest_1.sol\":3497:3498  1 */\n      0x01\n        /* \"Code Test/CodeTest_1.sol\":3489:3496  _number */\n      dup4\n        /* \"Code Test/CodeTest_1.sol\":3489:3498  _number-1 */\n      tag_133\n      swap2\n      swap1\n      tag_134\n      jump\t// in\n    tag_133:\n        /* \"Code Test/CodeTest_1.sol\":3480:3499  students[_number-1] */\n      dup2\n      sload\n      dup2\n      lt\n      tag_135\n      jumpi\n      tag_136\n      tag_66\n      jump\t// in\n    tag_136:\n    tag_135:\n      swap1\n      0x00\n      mstore\n      keccak256(0x00, 0x20)\n      swap1\n      0x05\n      mul\n      add\n        /* \"Code Test/CodeTest_1.sol\":3473:3499  return students[_number-1] */\n      mload(0x40)\n      dup1\n      0xa0\n      add\n      0x40\n      mstore\n      swap1\n      dup2\n      0x00\n      dup3\n      add\n      dup1\n      sload\n      tag_138\n      swap1\n      tag_110\n      jump\t// in\n    tag_138:\n      dup1\n      0x1f\n      add\n      0x20\n      dup1\n      swap2\n      div\n      mul\n      0x20\n      add\n      mload(0x40)\n      swap1\n      dup2\n      add\n      0x40\n      mstore\n      dup1\n      swap3\n      swap2\n      swap1\n      dup2\n      dup2\n      mstore\n      0x20\n      add\n      dup3\n      dup1\n      sload\n      tag_139\n      swap1\n      tag_110\n      jump\t// in\n    tag_139:\n      dup1\n      iszero\n      tag_140\n      jumpi\n      dup1\n      0x1f\n      lt\n      tag_141\n      jumpi\n      0x0100\n      dup1\n      dup4\n      sload\n      div\n      mul\n      dup4\n      mstore\n      swap2\n      0x20\n      add\n      swap2\n      jump(tag_140)\n    tag_141:\n      dup3\n      add\n      swap2\n      swap1\n      0x00\n      mstore\n      keccak256(0x00, 0x20)\n      swap1\n    tag_142:\n      dup2\n      sload\n      dup2\n      mstore\n      swap1\n      0x01\n      add\n      swap1\n      0x20\n      add\n      dup1\n      dup4\n      gt\n      tag_142\n      jumpi\n      dup3\n      swap1\n      sub\n      0x1f\n      and\n      dup3\n      add\n      swap2\n    tag_140:\n      pop\n      pop\n      pop\n      pop\n      pop\n      dup2\n      mstore\n      0x20\n      add\n      0x01\n      dup3\n      add\n      sload\n      dup2\n      mstore\n      0x20\n      add\n      0x02\n      dup3\n      add\n      sload\n      dup2\n      mstore\n      0x20\n      add\n      0x03\n      dup3\n      add\n      dup1\n      sload\n      tag_143\n      swap1\n      tag_110\n      jump\t// in\n    tag_143:\n      dup1\n      0x1f\n      add\n      0x20\n      dup1\n      swap2\n      div\n      mul\n      0x20\n      add\n      mload(0x40)\n      swap1\n      dup2\n      add\n      0x40\n      mstore\n      dup1\n      swap3\n      swap2\n      swap1\n      dup2\n      dup2\n      mstore\n      0x20\n      add\n      dup3\n      dup1\n      sload\n      tag_144\n      swap1\n      tag_110\n      jump\t// in\n    tag_144:\n      dup1\n      iszero\n      tag_145\n      jumpi\n      dup1\n      0x1f\n      lt\n      tag_146\n      jumpi\n      0x0100\n      dup1\n      dup4\n      sload\n      div\n      mul\n      dup4\n      mstore\n      swap2\n      0x20\n      add\n      swap2\n      jump(tag_145)\n    tag_146:\n      dup3\n      add\n      swap2\n      swap1\n      0x00\n      mstore\n      keccak256(0x00, 0x20)\n      swap1\n    tag_147:\n      dup2\n      sload\n      dup2\n      mstore\n      swap1\n      0x01\n      add\n      swap1\n      0x20\n      add\n      dup1\n      dup4\n      gt\n      tag_147\n      jumpi\n      dup3\n      swap1\n      sub\n      0x1f\n      and\n      dup3\n      add\n      swap2\n    tag_145:\n      pop\n      pop\n      pop\n      pop\n      pop\n      dup2\n      mstore\n      0x20\n      add\n      0x04\n      dup3\n      add\n      dup1\n      sload\n      dup1\n      0x20\n      mul\n      0x20\n      add\n      mload(0x40)\n      swap1\n      dup2\n      add\n      0x40\n      mstore\n      dup1\n      swap3\n      swap2\n      swap1\n      dup2\n      dup2\n      mstore\n      0x20\n      add\n      0x00\n      swap1\n    tag_148:\n      dup3\n      dup3\n      lt\n      iszero\n      tag_149\n      jumpi\n      dup4\n      dup3\n      swap1\n      0x00\n      mstore\n      keccak256(0x00, 0x20)\n      add\n      dup1\n      sload\n      tag_151\n      swap1\n      tag_110\n      jump\t// in\n    tag_151:\n      dup1\n      0x1f\n      add\n      0x20\n      dup1\n      swap2\n      div\n      mul\n      0x20\n      add\n      mload(0x40)\n      swap1\n      dup2\n      add\n      0x40\n      mstore\n      dup1\n      swap3\n      swap2\n      swap1\n      dup2\n      dup2\n      mstore\n      0x20\n      add\n      dup3\n      dup1\n      sload\n      tag_152\n      swap1\n      tag_110\n      jump\t// in\n    tag_152:\n      dup1\n      iszero\n      tag_153\n      jumpi\n      dup1\n      0x1f\n      lt\n      tag_154\n      jumpi\n      0x0100\n      dup1\n      dup4\n      sload\n      div\n      mul\n      dup4\n      mstore\n      swap2\n      0x20\n      add\n      swap2\n      jump(tag_153)\n    tag_154:\n      dup3\n      add\n      swap2\n      swap1\n      0x00\n      mstore\n      keccak256(0x00, 0x20)\n      swap1\n    tag_155:\n      dup2\n      sload\n      dup2\n      mstore\n      swap1\n      0x01\n      add\n      swap1\n      0x20\n      add\n      dup1\n      dup4\n      gt\n      tag_155\n      jumpi\n      dup3\n      swap1\n      sub\n      0x1f\n      and\n      dup3\n      add\n      swap2\n    tag_153:\n      pop\n      pop\n      pop\n      pop\n      pop\n      dup2\n      mstore\n      0x20\n      add\n      swap1\n      0x01\n      add\n      swap1\n      jump(tag_148)\n    tag_149:\n      pop\n      pop\n      pop\n      pop\n      dup2\n      mstore\n      pop\n      pop\n      swap1\n      pop\n        /* \"Code Test/CodeTest_1.sol\":3394:3505  function getStudent(uint _number) public view returns(student memory){... */\n      swap2\n      swap1\n      pop\n      jump\t// out\n        /* \"Code Test/CodeTest_1.sol\":4986:5193  function getAvgScore() public view returns(uint) {... */\n    tag_32:\n        /* \"Code Test/CodeTest_1.sol\":5029:5033  uint */\n      0x00\n        /* \"Code Test/CodeTest_1.sol\":5045:5053  uint sum */\n      dup1\n        /* \"Code Test/CodeTest_1.sol\":5067:5073  uint i */\n      0x00\n        /* \"Code Test/CodeTest_1.sol\":5063:5148  for(uint i=0;i<students.length;i++) {... */\n    tag_157:\n        /* \"Code Test/CodeTest_1.sol\":5078:5086  students */\n      0x00\n        /* \"Code Test/CodeTest_1.sol\":5078:5093  students.length */\n      dup1\n      sload\n      swap1\n      pop\n        /* \"Code Test/CodeTest_1.sol\":5076:5077  i */\n      dup2\n        /* \"Code Test/CodeTest_1.sol\":5076:5093  i<students.length */\n      lt\n        /* \"Code Test/CodeTest_1.sol\":5063:5148  for(uint i=0;i<students.length;i++) {... */\n      iszero\n      tag_158\n      jumpi\n        /* \"Code Test/CodeTest_1.sol\":5120:5128  students */\n      0x00\n        /* \"Code Test/CodeTest_1.sol\":5129:5130  i */\n      dup2\n        /* \"Code Test/CodeTest_1.sol\":5120:5131  students[i] */\n      dup2\n      sload\n      dup2\n      lt\n      tag_160\n      jumpi\n      tag_161\n      tag_66\n      jump\t// in\n    tag_161:\n    tag_160:\n      swap1\n      0x00\n      mstore\n      keccak256(0x00, 0x20)\n      swap1\n      0x05\n      mul\n      add\n        /* \"Code Test/CodeTest_1.sol\":5120:5137  students[i].score */\n      0x02\n      add\n      sload\n        /* \"Code Test/CodeTest_1.sol\":5113:5137  sum += students[i].score */\n      dup3\n      tag_163\n      swap2\n      swap1\n      tag_164\n      jump\t// in\n    tag_163:\n      swap2\n      pop\n        /* \"Code Test/CodeTest_1.sol\":5094:5097  i++ */\n      dup1\n      dup1\n      0x01\n      add\n      swap2\n      pop\n      pop\n        /* \"Code Test/CodeTest_1.sol\":5063:5148  for(uint i=0;i<students.length;i++) {... */\n      jump(tag_157)\n    tag_158:\n      pop\n        /* \"Code Test/CodeTest_1.sol\":5171:5179  students */\n      0x00\n        /* \"Code Test/CodeTest_1.sol\":5171:5186  students.length */\n      dup1\n      sload\n      swap1\n      pop\n        /* \"Code Test/CodeTest_1.sol\":5165:5168  sum */\n      dup2\n        /* \"Code Test/CodeTest_1.sol\":5165:5186  sum / students.length */\n      tag_165\n      swap2\n      swap1\n      tag_166\n      jump\t// in\n    tag_165:\n        /* \"Code Test/CodeTest_1.sol\":5158:5186  return sum / students.length */\n      swap2\n      pop\n      pop\n        /* \"Code Test/CodeTest_1.sol\":4986:5193  function getAvgScore() public view returns(uint) {... */\n      swap1\n      jump\t// out\n        /* \"Code Test/CodeTest_1.sol\":5334:5436  function teacherSelfEvaluation() public view returns(bool) {... */\n    tag_35:\n        /* \"Code Test/CodeTest_1.sol\":5387:5391  bool */\n      0x00\n        /* \"Code Test/CodeTest_1.sol\":5427:5429  70 */\n      0x46\n        /* \"Code Test/CodeTest_1.sol\":5410:5423  getAvgScore() */\n      tag_168\n        /* \"Code Test/CodeTest_1.sol\":5410:5421  getAvgScore */\n      tag_32\n        /* \"Code Test/CodeTest_1.sol\":5410:5423  getAvgScore() */\n      jump\t// in\n    tag_168:\n        /* \"Code Test/CodeTest_1.sol\":5410:5429  getAvgScore() >= 70 */\n      lt\n      iszero\n        /* \"Code Test/CodeTest_1.sol\":5403:5429  return getAvgScore() >= 70 */\n      swap1\n      pop\n        /* \"Code Test/CodeTest_1.sol\":5334:5436  function teacherSelfEvaluation() public view returns(bool) {... */\n      swap1\n      jump\t// out\n        /* \"Code Test/CodeTest_1.sol\":4593:4680  function getNumbers() public view returns (uint) {... */\n    tag_39:\n        /* \"Code Test/CodeTest_1.sol\":4636:4640  uint */\n      0x00\n        /* \"Code Test/CodeTest_1.sol\":4659:4667  students */\n      dup1\n        /* \"Code Test/CodeTest_1.sol\":4659:4674  students.length */\n      dup1\n      sload\n      swap1\n      pop\n        /* \"Code Test/CodeTest_1.sol\":4652:4674  return students.length */\n      swap1\n      pop\n        /* \"Code Test/CodeTest_1.sol\":4593:4680  function getNumbers() public view returns (uint) {... */\n      swap1\n      jump\t// out\n        /* \"Code Test/CodeTest_1.sol\":3618:4004  function getStudent2(string memory _name) public view returns(student memory) {... */\n    tag_43:\n        /* \"Code Test/CodeTest_1.sol\":3680:3694  student memory */\n      tag_170\n      tag_96\n      jump\t// in\n    tag_170:\n        /* \"Code Test/CodeTest_1.sol\":3802:3808  uint i */\n      0x00\n        /* \"Code Test/CodeTest_1.sol\":3798:3999  for(uint i=0; i<students.length; i++) {... */\n    tag_172:\n        /* \"Code Test/CodeTest_1.sol\":3814:3822  students */\n      0x00\n        /* \"Code Test/CodeTest_1.sol\":3814:3829  students.length */\n      dup1\n      sload\n      swap1\n      pop\n        /* \"Code Test/CodeTest_1.sol\":3812:3813  i */\n      dup2\n        /* \"Code Test/CodeTest_1.sol\":3812:3829  i<students.length */\n      lt\n        /* \"Code Test/CodeTest_1.sol\":3798:3999  for(uint i=0; i<students.length; i++) {... */\n      iszero\n      tag_173\n      jumpi\n        /* \"Code Test/CodeTest_1.sol\":3929:3934  _name */\n      dup3\n        /* \"Code Test/CodeTest_1.sol\":3912:3935  abi.encodePacked(_name) */\n      add(0x20, mload(0x40))\n      tag_175\n      swap2\n      swap1\n      tag_63\n      jump\t// in\n    tag_175:\n      mload(0x40)\n      0x20\n      dup2\n      dup4\n      sub\n      sub\n      dup2\n      mstore\n      swap1\n      0x40\n      mstore\n        /* \"Code Test/CodeTest_1.sol\":3902:3936  keccak256(abi.encodePacked(_name)) */\n      dup1\n      mload\n      swap1\n      0x20\n      add\n      keccak256\n        /* \"Code Test/CodeTest_1.sol\":3880:3888  students */\n      0x00\n        /* \"Code Test/CodeTest_1.sol\":3889:3890  i */\n      dup3\n        /* \"Code Test/CodeTest_1.sol\":3880:3891  students[i] */\n      dup2\n      sload\n      dup2\n      lt\n      tag_176\n      jumpi\n      tag_177\n      tag_66\n      jump\t// in\n    tag_177:\n    tag_176:\n      swap1\n      0x00\n      mstore\n      keccak256(0x00, 0x20)\n      swap1\n      0x05\n      mul\n      add\n        /* \"Code Test/CodeTest_1.sol\":3880:3896  students[i].name */\n      0x00\n      add\n        /* \"Code Test/CodeTest_1.sol\":3863:3897  abi.encodePacked(students[i].name) */\n      add(0x20, mload(0x40))\n      tag_179\n      swap2\n      swap1\n      tag_69\n      jump\t// in\n    tag_179:\n      mload(0x40)\n      0x20\n      dup2\n      dup4\n      sub\n      sub\n      dup2\n      mstore\n      swap1\n      0x40\n      mstore\n        /* \"Code Test/CodeTest_1.sol\":3853:3898  keccak256(abi.encodePacked(students[i].name)) */\n      dup1\n      mload\n      swap1\n      0x20\n      add\n      keccak256\n        /* \"Code Test/CodeTest_1.sol\":3853:3936  keccak256(abi.encodePacked(students[i].name)) == keccak256(abi.encodePacked(_name)) */\n      sub\n        /* \"Code Test/CodeTest_1.sol\":3850:3989  if(keccak256(abi.encodePacked(students[i].name)) == keccak256(abi.encodePacked(_name))) {... */\n      tag_180\n      jumpi\n        /* \"Code Test/CodeTest_1.sol\":3963:3971  students */\n      0x00\n        /* \"Code Test/CodeTest_1.sol\":3972:3973  i */\n      dup2\n        /* \"Code Test/CodeTest_1.sol\":3963:3974  students[i] */\n      dup2\n      sload\n      dup2\n      lt\n      tag_181\n      jumpi\n      tag_182\n      tag_66\n      jump\t// in\n    tag_182:\n    tag_181:\n      swap1\n      0x00\n      mstore\n      keccak256(0x00, 0x20)\n      swap1\n      0x05\n      mul\n      add\n        /* \"Code Test/CodeTest_1.sol\":3956:3974  return students[i] */\n      mload(0x40)\n      dup1\n      0xa0\n      add\n      0x40\n      mstore\n      swap1\n      dup2\n      0x00\n      dup3\n      add\n      dup1\n      sload\n      tag_184\n      swap1\n      tag_110\n      jump\t// in\n    tag_184:\n      dup1\n      0x1f\n      add\n      0x20\n      dup1\n      swap2\n      div\n      mul\n      0x20\n      add\n      mload(0x40)\n      swap1\n      dup2\n      add\n      0x40\n      mstore\n      dup1\n      swap3\n      swap2\n      swap1\n      dup2\n      dup2\n      mstore\n      0x20\n      add\n      dup3\n      dup1\n      sload\n      tag_185\n      swap1\n      tag_110\n      jump\t// in\n    tag_185:\n      dup1\n      iszero\n      tag_186\n      jumpi\n      dup1\n      0x1f\n      lt\n      tag_187\n      jumpi\n      0x0100\n      dup1\n      dup4\n      sload\n      div\n      mul\n      dup4\n      mstore\n      swap2\n      0x20\n      add\n      swap2\n      jump(tag_186)\n    tag_187:\n      dup3\n      add\n      swap2\n      swap1\n      0x00\n      mstore\n      keccak256(0x00, 0x20)\n      swap1\n    tag_188:\n      dup2\n      sload\n      dup2\n      mstore\n      swap1\n      0x01\n      add\n      swap1\n      0x20\n      add\n      dup1\n      dup4\n      gt\n      tag_188\n      jumpi\n      dup3\n      swap1\n      sub\n      0x1f\n      and\n      dup3\n      add\n      swap2\n    tag_186:\n      pop\n      pop\n      pop\n      pop\n      pop\n      dup2\n      mstore\n      0x20\n      add\n      0x01\n      dup3\n      add\n      sload\n      dup2\n      mstore\n      0x20\n      add\n      0x02\n      dup3\n      add\n      sload\n      dup2\n      mstore\n      0x20\n      add\n      0x03\n      dup3\n      add\n      dup1\n      sload\n      tag_189\n      swap1\n      tag_110\n      jump\t// in\n    tag_189:\n      dup1\n      0x1f\n      add\n      0x20\n      dup1\n      swap2\n      div\n      mul\n      0x20\n      add\n      mload(0x40)\n      swap1\n      dup2\n      add\n      0x40\n      mstore\n      dup1\n      swap3\n      swap2\n      swap1\n      dup2\n      dup2\n      mstore\n      0x20\n      add\n      dup3\n      dup1\n      sload\n      tag_190\n      swap1\n      tag_110\n      jump\t// in\n    tag_190:\n      dup1\n      iszero\n      tag_191\n      jumpi\n      dup1\n      0x1f\n      lt\n      tag_192\n      jumpi\n      0x0100\n      dup1\n      dup4\n      sload\n      div\n      mul\n      dup4\n      mstore\n      swap2\n      0x20\n      add\n      swap2\n      jump(tag_191)\n    tag_192:\n      dup3\n      add\n      swap2\n      swap1\n      0x00\n      mstore\n      keccak256(0x00, 0x20)\n      swap1\n    tag_193:\n      dup2\n      sload\n      dup2\n      mstore\n      swap1\n      0x01\n      add\n      swap1\n      0x20\n      add\n      dup1\n      dup4\n      gt\n      tag_193\n      jumpi\n      dup3\n      swap1\n      sub\n      0x1f\n      and\n      dup3\n      add\n      swap2\n    tag_191:\n      pop\n      pop\n      pop\n      pop\n      pop\n      dup2\n      mstore\n      0x20\n      add\n      0x04\n      dup3\n      add\n      dup1\n      sload\n      dup1\n      0x20\n      mul\n      0x20\n      add\n      mload(0x40)\n      swap1\n      dup2\n      add\n      0x40\n      mstore\n      dup1\n      swap3\n      swap2\n      swap1\n      dup2\n      dup2\n      mstore\n      0x20\n      add\n      0x00\n      swap1\n    tag_194:\n      dup3\n      dup3\n      lt\n      iszero\n      tag_195\n      jumpi\n      dup4\n      dup3\n      swap1\n      0x00\n      mstore\n      keccak256(0x00, 0x20)\n      add\n      dup1\n      sload\n      tag_197\n      swap1\n      tag_110\n      jump\t// in\n    tag_197:\n      dup1\n      0x1f\n      add\n      0x20\n      dup1\n      swap2\n      div\n      mul\n      0x20\n      add\n      mload(0x40)\n      swap1\n      dup2\n      add\n      0x40\n      mstore\n      dup1\n      swap3\n      swap2\n      swap1\n      dup2\n      dup2\n      mstore\n      0x20\n      add\n      dup3\n      dup1\n      sload\n      tag_198\n      swap1\n      tag_110\n      jump\t// in\n    tag_198:\n      dup1\n      iszero\n      tag_199\n      jumpi\n      dup1\n      0x1f\n      lt\n      tag_200\n      jumpi\n      0x0100\n      dup1\n      dup4\n      sload\n      div\n      mul\n      dup4\n      mstore\n      swap2\n      0x20\n      add\n      swap2\n      jump(tag_199)\n    tag_200:\n      dup3\n      add\n      swap2\n      swap1\n      0x00\n      mstore\n      keccak256(0x00, 0x20)\n      swap1\n    tag_201:\n      dup2\n      sload\n      dup2\n      mstore\n      swap1\n      0x01\n      add\n      swap1\n      0x20\n      add\n      dup1\n      dup4\n      gt\n      tag_201\n      jumpi\n      dup3\n      swap1\n      sub\n      0x1f\n      and\n      dup3\n      add\n      swap2\n    tag_199:\n      pop\n      pop\n      pop\n      pop\n      pop\n      dup2\n      mstore\n      0x20\n      add\n      swap1\n      0x01\n      add\n      swap1\n      jump(tag_194)\n    tag_195:\n      pop\n      pop\n      pop\n      pop\n      dup2\n      mstore\n      pop\n      pop\n      swap2\n      pop\n      pop\n      jump(tag_171)\n        /* \"Code Test/CodeTest_1.sol\":3850:3989  if(keccak256(abi.encodePacked(students[i].name)) == keccak256(abi.encodePacked(_name))) {... */\n    tag_180:\n        /* \"Code Test/CodeTest_1.sol\":3831:3834  i++ */\n      dup1\n      dup1\n      0x01\n      add\n      swap2\n      pop\n      pop\n        /* \"Code Test/CodeTest_1.sol\":3798:3999  for(uint i=0; i<students.length; i++) {... */\n      jump(tag_172)\n    tag_173:\n      pop\n        /* \"Code Test/CodeTest_1.sol\":3618:4004  function getStudent2(string memory _name) public view returns(student memory) {... */\n    tag_171:\n      swap2\n      swap1\n      pop\n      jump\t// out\n        /* \"Code Test/CodeTest_1.sol\":6446:7082  function getExcellentStudents() public view returns(student[] memory){... */\n    tag_46:\n        /* \"Code Test/CodeTest_1.sol\":6498:6514  student[] memory */\n      0x60\n        /* \"Code Test/CodeTest_1.sol\":6525:6551  student[] memory _students */\n      0x00\n        /* \"Code Test/CodeTest_1.sol\":6554:6562  students */\n      dup1\n        /* \"Code Test/CodeTest_1.sol\":6525:6562  student[] memory _students = students */\n      dup1\n      sload\n      dup1\n      0x20\n      mul\n      0x20\n      add\n      mload(0x40)\n      swap1\n      dup2\n      add\n      0x40\n      mstore\n      dup1\n      swap3\n      swap2\n      swap1\n      dup2\n      dup2\n      mstore\n      0x20\n      add\n      0x00\n      swap1\n    tag_203:\n      dup3\n      dup3\n      lt\n      iszero\n      tag_204\n      jumpi\n      dup4\n      dup3\n      swap1\n      0x00\n      mstore\n      keccak256(0x00, 0x20)\n      swap1\n      0x05\n      mul\n      add\n      mload(0x40)\n      dup1\n      0xa0\n      add\n      0x40\n      mstore\n      swap1\n      dup2\n      0x00\n      dup3\n      add\n      dup1\n      sload\n      tag_206\n      swap1\n      tag_110\n      jump\t// in\n    tag_206:\n      dup1\n      0x1f\n      add\n      0x20\n      dup1\n      swap2\n      div\n      mul\n      0x20\n      add\n      mload(0x40)\n      swap1\n      dup2\n      add\n      0x40\n      mstore\n      dup1\n      swap3\n      swap2\n      swap1\n      dup2\n      dup2\n      mstore\n      0x20\n      add\n      dup3\n      dup1\n      sload\n      tag_207\n      swap1\n      tag_110\n      jump\t// in\n    tag_207:\n      dup1\n      iszero\n      tag_208\n      jumpi\n      dup1\n      0x1f\n      lt\n      tag_209\n      jumpi\n      0x0100\n      dup1\n      dup4\n      sload\n      div\n      mul\n      dup4\n      mstore\n      swap2\n      0x20\n      add\n      swap2\n      jump(tag_208)\n    tag_209:\n      dup3\n      add\n      swap2\n      swap1\n      0x00\n      mstore\n      keccak256(0x00, 0x20)\n      swap1\n    tag_210:\n      dup2\n      sload\n      dup2\n      mstore\n      swap1\n      0x01\n      add\n      swap1\n      0x20\n      add\n      dup1\n      dup4\n      gt\n      tag_210\n      jumpi\n      dup3\n      swap1\n      sub\n      0x1f\n      and\n      dup3\n      add\n      swap2\n    tag_208:\n      pop\n      pop\n      pop\n      pop\n      pop\n      dup2\n      mstore\n      0x20\n      add\n      0x01\n      dup3\n      add\n      sload\n      dup2\n      mstore\n      0x20\n      add\n      0x02\n      dup3\n      add\n      sload\n      dup2\n      mstore\n      0x20\n      add\n      0x03\n      dup3\n      add\n      dup1\n      sload\n      tag_211\n      swap1\n      tag_110\n      jump\t// in\n    tag_211:\n      dup1\n      0x1f\n      add\n      0x20\n      dup1\n      swap2\n      div\n      mul\n      0x20\n      add\n      mload(0x40)\n      swap1\n      dup2\n      add\n      0x40\n      mstore\n      dup1\n      swap3\n      swap2\n      swap1\n      dup2\n      dup2\n      mstore\n      0x20\n      add\n      dup3\n      dup1\n      sload\n      tag_212\n      swap1\n      tag_110\n      jump\t// in\n    tag_212:\n      dup1\n      iszero\n      tag_213\n      jumpi\n      dup1\n      0x1f\n      lt\n      tag_214\n      jumpi\n      0x0100\n      dup1\n      dup4\n      sload\n      div\n      mul\n      dup4\n      mstore\n      swap2\n      0x20\n      add\n      swap2\n      jump(tag_213)\n    tag_214:\n      dup3\n      add\n      swap2\n      swap1\n      0x00\n      mstore\n      keccak256(0x00, 0x20)\n      swap1\n    tag_215:\n      dup2\n      sload\n      dup2\n      mstore\n      swap1\n      0x01\n      add\n      swap1\n      0x20\n      add\n      dup1\n      dup4\n      gt\n      tag_215\n      jumpi\n      dup3\n      swap1\n      sub\n      0x1f\n      and\n      dup3\n      add\n      swap2\n    tag_213:\n      pop\n      pop\n      pop\n      pop\n      pop\n      dup2\n      mstore\n      0x20\n      add\n      0x04\n      dup3\n      add\n      dup1\n      sload\n      dup1\n      0x20\n      mul\n      0x20\n      add\n      mload(0x40)\n      swap1\n      dup2\n      add\n      0x40\n      mstore\n      dup1\n      swap3\n      swap2\n      swap1\n      dup2\n      dup2\n      mstore\n      0x20\n      add\n      0x00\n      swap1\n    tag_216:\n      dup3\n      dup3\n      lt\n      iszero\n      tag_217\n      jumpi\n      dup4\n      dup3\n      swap1\n      0x00\n      mstore\n      keccak256(0x00, 0x20)\n      add\n      dup1\n      sload\n      tag_219\n      swap1\n      tag_110\n      jump\t// in\n    tag_219:\n      dup1\n      0x1f\n      add\n      0x20\n      dup1\n      swap2\n      div\n      mul\n      0x20\n      add\n      mload(0x40)\n      swap1\n      dup2\n      add\n      0x40\n      mstore\n      dup1\n      swap3\n      swap2\n      swap1\n      dup2\n      dup2\n      mstore\n      0x20\n      add\n      dup3\n      dup1\n      sload\n      tag_220\n      swap1\n      tag_110\n      jump\t// in\n    tag_220:\n      dup1\n      iszero\n      tag_221\n      jumpi\n      dup1\n      0x1f\n      lt\n      tag_222\n      jumpi\n      0x0100\n      dup1\n      dup4\n      sload\n      div\n      mul\n      dup4\n      mstore\n      swap2\n      0x20\n      add\n      swap2\n      jump(tag_221)\n    tag_222:\n      dup3\n      add\n      swap2\n      swap1\n      0x00\n      mstore\n      keccak256(0x00, 0x20)\n      swap1\n    tag_223:\n      dup2\n      sload\n      dup2\n      mstore\n      swap1\n      0x01\n      add\n      swap1\n      0x20\n      add\n      dup1\n      dup4\n      gt\n      tag_223\n      jumpi\n      dup3\n      swap1\n      sub\n      0x1f\n      and\n      dup3\n      add\n      swap2\n    tag_221:\n      pop\n      pop\n      pop\n      pop\n      pop\n      dup2\n      mstore\n      0x20\n      add\n      swap1\n      0x01\n      add\n      swap1\n      jump(tag_216)\n    tag_217:\n      pop\n      pop\n      pop\n      pop\n      dup2\n      mstore\n      pop\n      pop\n      dup2\n      mstore\n      0x20\n      add\n      swap1\n      0x01\n      add\n      swap1\n      jump(tag_203)\n    tag_204:\n      pop\n      pop\n      pop\n      pop\n      swap1\n      pop\n        /* \"Code Test/CodeTest_1.sol\":6576:6582  uint i */\n      0x00\n        /* \"Code Test/CodeTest_1.sol\":6572:6910  for(uint i=0; i<students.length; i++){... */\n    tag_224:\n        /* \"Code Test/CodeTest_1.sol\":6588:6596  students */\n      0x00\n        /* \"Code Test/CodeTest_1.sol\":6588:6603  students.length */\n      dup1\n      sload\n      swap1\n      pop\n        /* \"Code Test/CodeTest_1.sol\":6586:6587  i */\n      dup2\n        /* \"Code Test/CodeTest_1.sol\":6586:6603  i<students.length */\n      lt\n        /* \"Code Test/CodeTest_1.sol\":6572:6910  for(uint i=0; i<students.length; i++){... */\n      iszero\n      tag_225\n      jumpi\n        /* \"Code Test/CodeTest_1.sol\":6627:6633  uint j */\n      0x00\n        /* \"Code Test/CodeTest_1.sol\":6636:6637  1 */\n      0x01\n        /* \"Code Test/CodeTest_1.sol\":6634:6635  i */\n      dup3\n        /* \"Code Test/CodeTest_1.sol\":6634:6637  i+1 */\n      tag_230\n      swap2\n      swap1\n      tag_164\n      jump\t// in\n    tag_230:\n        /* \"Code Test/CodeTest_1.sol\":6627:6637  uint j=i+1 */\n      swap1\n      pop\n        /* \"Code Test/CodeTest_1.sol\":6623:6900  for(uint j=i+1; j<students.length;j++){... */\n    tag_227:\n        /* \"Code Test/CodeTest_1.sol\":6641:6649  students */\n      0x00\n        /* \"Code Test/CodeTest_1.sol\":6641:6656  students.length */\n      dup1\n      sload\n      swap1\n      pop\n        /* \"Code Test/CodeTest_1.sol\":6639:6640  j */\n      dup2\n        /* \"Code Test/CodeTest_1.sol\":6639:6656  j<students.length */\n      lt\n        /* \"Code Test/CodeTest_1.sol\":6623:6900  for(uint j=i+1; j<students.length;j++){... */\n      iszero\n      tag_228\n      jumpi\n        /* \"Code Test/CodeTest_1.sol\":6703:6712  _students */\n      dup3\n        /* \"Code Test/CodeTest_1.sol\":6713:6714  i */\n      dup3\n        /* \"Code Test/CodeTest_1.sol\":6703:6715  _students[i] */\n      dup2\n      mload\n      dup2\n      lt\n      tag_231\n      jumpi\n      tag_232\n      tag_66\n      jump\t// in\n    tag_232:\n    tag_231:\n      0x20\n      mul\n      0x20\n      add\n      add\n      mload\n        /* \"Code Test/CodeTest_1.sol\":6703:6721  _students[i].score */\n      0x40\n      add\n      mload\n        /* \"Code Test/CodeTest_1.sol\":6682:6691  _students */\n      dup4\n        /* \"Code Test/CodeTest_1.sol\":6692:6693  j */\n      dup3\n        /* \"Code Test/CodeTest_1.sol\":6682:6694  _students[j] */\n      dup2\n      mload\n      dup2\n      lt\n      tag_233\n      jumpi\n      tag_234\n      tag_66\n      jump\t// in\n    tag_234:\n    tag_233:\n      0x20\n      mul\n      0x20\n      add\n      add\n      mload\n        /* \"Code Test/CodeTest_1.sol\":6682:6700  _students[j].score */\n      0x40\n      add\n      mload\n        /* \"Code Test/CodeTest_1.sol\":6682:6721  _students[j].score > _students[i].score */\n      gt\n        /* \"Code Test/CodeTest_1.sol\":6679:6886  if(_students[j].score > _students[i].score) {... */\n      iszero\n      tag_235\n      jumpi\n        /* \"Code Test/CodeTest_1.sol\":6745:6763  student memory tmp */\n      0x00\n        /* \"Code Test/CodeTest_1.sol\":6766:6775  _students */\n      dup4\n        /* \"Code Test/CodeTest_1.sol\":6776:6777  i */\n      dup4\n        /* \"Code Test/CodeTest_1.sol\":6766:6778  _students[i] */\n      dup2\n      mload\n      dup2\n      lt\n      tag_236\n      jumpi\n      tag_237\n      tag_66\n      jump\t// in\n    tag_237:\n    tag_236:\n      0x20\n      mul\n      0x20\n      add\n      add\n      mload\n        /* \"Code Test/CodeTest_1.sol\":6745:6778  student memory tmp = _students[i] */\n      swap1\n      pop\n        /* \"Code Test/CodeTest_1.sol\":6815:6824  _students */\n      dup4\n        /* \"Code Test/CodeTest_1.sol\":6825:6826  j */\n      dup3\n        /* \"Code Test/CodeTest_1.sol\":6815:6827  _students[j] */\n      dup2\n      mload\n      dup2\n      lt\n      tag_238\n      jumpi\n      tag_239\n      tag_66\n      jump\t// in\n    tag_239:\n    tag_238:\n      0x20\n      mul\n      0x20\n      add\n      add\n      mload\n        /* \"Code Test/CodeTest_1.sol\":6800:6809  _students */\n      dup5\n        /* \"Code Test/CodeTest_1.sol\":6810:6811  i */\n      dup5\n        /* \"Code Test/CodeTest_1.sol\":6800:6812  _students[i] */\n      dup2\n      mload\n      dup2\n      lt\n      tag_240\n      jumpi\n      tag_241\n      tag_66\n      jump\t// in\n    tag_241:\n    tag_240:\n      0x20\n      mul\n      0x20\n      add\n      add\n        /* \"Code Test/CodeTest_1.sol\":6800:6827  _students[i] = _students[j] */\n      dup2\n      swap1\n      mstore\n      pop\n        /* \"Code Test/CodeTest_1.sol\":6864:6867  tmp */\n      dup1\n        /* \"Code Test/CodeTest_1.sol\":6849:6858  _students */\n      dup5\n        /* \"Code Test/CodeTest_1.sol\":6859:6860  j */\n      dup4\n        /* \"Code Test/CodeTest_1.sol\":6849:6861  _students[j] */\n      dup2\n      mload\n      dup2\n      lt\n      tag_242\n      jumpi\n      tag_243\n      tag_66\n      jump\t// in\n    tag_243:\n    tag_242:\n      0x20\n      mul\n      0x20\n      add\n      add\n        /* \"Code Test/CodeTest_1.sol\":6849:6867  _students[j] = tmp */\n      dup2\n      swap1\n      mstore\n      pop\n        /* \"Code Test/CodeTest_1.sol\":6723:6886  {... */\n      pop\n        /* \"Code Test/CodeTest_1.sol\":6679:6886  if(_students[j].score > _students[i].score) {... */\n    tag_235:\n        /* \"Code Test/CodeTest_1.sol\":6657:6660  j++ */\n      dup1\n      dup1\n      0x01\n      add\n      swap2\n      pop\n      pop\n        /* \"Code Test/CodeTest_1.sol\":6623:6900  for(uint j=i+1; j<students.length;j++){... */\n      jump(tag_227)\n    tag_228:\n      pop\n        /* \"Code Test/CodeTest_1.sol\":6605:6608  i++ */\n      dup1\n      dup1\n      0x01\n      add\n      swap2\n      pop\n      pop\n        /* \"Code Test/CodeTest_1.sol\":6572:6910  for(uint i=0; i<students.length; i++){... */\n      jump(tag_224)\n    tag_225:\n      pop\n        /* \"Code Test/CodeTest_1.sol\":6920:6946  student[] memory SStudents */\n      0x00\n        /* \"Code Test/CodeTest_1.sol\":6963:6964  4 */\n      0x04\n        /* \"Code Test/CodeTest_1.sol\":6949:6965  new student[](4) */\n      0xffffffffffffffff\n      dup2\n      gt\n      iszero\n      tag_244\n      jumpi\n      tag_245\n      tag_92\n      jump\t// in\n    tag_245:\n    tag_244:\n      mload(0x40)\n      swap1\n      dup1\n      dup3\n      mstore\n      dup1\n      0x20\n      mul\n      0x20\n      add\n      dup3\n      add\n      0x40\n      mstore\n      dup1\n      iszero\n      tag_246\n      jumpi\n      dup2\n      0x20\n      add\n    tag_247:\n      tag_248\n      tag_96\n      jump\t// in\n    tag_248:\n      dup2\n      mstore\n      0x20\n      add\n      swap1\n      0x01\n      swap1\n      sub\n      swap1\n      dup2\n      tag_247\n      jumpi\n      swap1\n      pop\n    tag_246:\n      pop\n        /* \"Code Test/CodeTest_1.sol\":6920:6965  student[] memory SStudents = new student[](4) */\n      swap1\n      pop\n        /* \"Code Test/CodeTest_1.sol\":6979:6985  uint i */\n      0x00\n        /* \"Code Test/CodeTest_1.sol\":6975:7050  for(uint i=0; i<4;i++) {... */\n    tag_249:\n        /* \"Code Test/CodeTest_1.sol\":6991:6992  4 */\n      0x04\n        /* \"Code Test/CodeTest_1.sol\":6989:6990  i */\n      dup2\n        /* \"Code Test/CodeTest_1.sol\":6989:6992  i<4 */\n      lt\n        /* \"Code Test/CodeTest_1.sol\":6975:7050  for(uint i=0; i<4;i++) {... */\n      iszero\n      tag_250\n      jumpi\n        /* \"Code Test/CodeTest_1.sol\":7027:7036  _students */\n      dup3\n        /* \"Code Test/CodeTest_1.sol\":7037:7038  i */\n      dup2\n        /* \"Code Test/CodeTest_1.sol\":7027:7039  _students[i] */\n      dup2\n      mload\n      dup2\n      lt\n      tag_252\n      jumpi\n      tag_253\n      tag_66\n      jump\t// in\n    tag_253:\n    tag_252:\n      0x20\n      mul\n      0x20\n      add\n      add\n      mload\n        /* \"Code Test/CodeTest_1.sol\":7012:7021  SStudents */\n      dup3\n        /* \"Code Test/CodeTest_1.sol\":7022:7023  i */\n      dup3\n        /* \"Code Test/CodeTest_1.sol\":7012:7024  SStudents[i] */\n      dup2\n      mload\n      dup2\n      lt\n      tag_254\n      jumpi\n      tag_255\n      tag_66\n      jump\t// in\n    tag_255:\n    tag_254:\n      0x20\n      mul\n      0x20\n      add\n      add\n        /* \"Code Test/CodeTest_1.sol\":7012:7039  SStudents[i] = _students[i] */\n      dup2\n      swap1\n      mstore\n      pop\n        /* \"Code Test/CodeTest_1.sol\":6993:6996  i++ */\n      dup1\n      dup1\n      0x01\n      add\n      swap2\n      pop\n      pop\n        /* \"Code Test/CodeTest_1.sol\":6975:7050  for(uint i=0; i<4;i++) {... */\n      jump(tag_249)\n    tag_250:\n      pop\n        /* \"Code Test/CodeTest_1.sol\":7066:7075  SStudents */\n      dup1\n        /* \"Code Test/CodeTest_1.sol\":7059:7075  return SStudents */\n      swap3\n      pop\n      pop\n      pop\n        /* \"Code Test/CodeTest_1.sol\":6446:7082  function getExcellentStudents() public view returns(student[] memory){... */\n      swap1\n      jump\t// out\n        /* \"Code Test/CodeTest_1.sol\":2792:3281  function pushStudents() public {... */\n    tag_50:\n        /* \"Code Test/CodeTest_1.sol\":2833:2859  string[] memory emptyClass */\n      0x00\n        /* \"Code Test/CodeTest_1.sol\":2875:2876  0 */\n      dup1\n        /* \"Code Test/CodeTest_1.sol\":2862:2877  new string[](0) */\n      0xffffffffffffffff\n      dup2\n      gt\n      iszero\n      tag_257\n      jumpi\n      tag_258\n      tag_92\n      jump\t// in\n    tag_258:\n    tag_257:\n      mload(0x40)\n      swap1\n      dup1\n      dup3\n      mstore\n      dup1\n      0x20\n      mul\n      0x20\n      add\n      dup3\n      add\n      0x40\n      mstore\n      dup1\n      iszero\n      tag_259\n      jumpi\n      dup2\n      0x20\n      add\n    tag_260:\n      0x60\n      dup2\n      mstore\n      0x20\n      add\n      swap1\n      0x01\n      swap1\n      sub\n      swap1\n      dup2\n      tag_260\n      jumpi\n      swap1\n      pop\n    tag_259:\n      pop\n        /* \"Code Test/CodeTest_1.sol\":2833:2877  string[] memory emptyClass = new string[](0) */\n      swap1\n      pop\n        /* \"Code Test/CodeTest_1.sol\":2888:2921  addStudent(\"Alice\",85,emptyClass) */\n      tag_261\n      mload(0x40)\n      dup1\n      0x40\n      add\n      0x40\n      mstore\n      dup1\n      0x05\n      dup2\n      mstore\n      0x20\n      add\n      0x416c696365000000000000000000000000000000000000000000000000000000\n      dup2\n      mstore\n      pop\n        /* \"Code Test/CodeTest_1.sol\":2907:2909  85 */\n      0x55\n        /* \"Code Test/CodeTest_1.sol\":2910:2920  emptyClass */\n      dup4\n        /* \"Code Test/CodeTest_1.sol\":2888:2898  addStudent */\n      tag_54\n        /* \"Code Test/CodeTest_1.sol\":2888:2921  addStudent(\"Alice\",85,emptyClass) */\n      jump\t// in\n    tag_261:\n        /* \"Code Test/CodeTest_1.sol\":2931:2962  addStudent(\"Bob\",75,emptyClass) */\n      tag_262\n      mload(0x40)\n      dup1\n      0x40\n      add\n      0x40\n      mstore\n      dup1\n      0x03\n      dup2\n      mstore\n      0x20\n      add\n      0x426f620000000000000000000000000000000000000000000000000000000000\n      dup2\n      mstore\n      pop\n        /* \"Code Test/CodeTest_1.sol\":2948:2950  75 */\n      0x4b\n        /* \"Code Test/CodeTest_1.sol\":2951:2961  emptyClass */\n      dup4\n        /* \"Code Test/CodeTest_1.sol\":2931:2941  addStudent */\n      tag_54\n        /* \"Code Test/CodeTest_1.sol\":2931:2962  addStudent(\"Bob\",75,emptyClass) */\n      jump\t// in\n    tag_262:\n        /* \"Code Test/CodeTest_1.sol\":2972:3007  addStudent(\"Charlie\",60,emptyClass) */\n      tag_263\n      mload(0x40)\n      dup1\n      0x40\n      add\n      0x40\n      mstore\n      dup1\n      0x07\n      dup2\n      mstore\n      0x20\n      add\n      0x436861726c696500000000000000000000000000000000000000000000000000\n      dup2\n      mstore\n      pop\n        /* \"Code Test/CodeTest_1.sol\":2993:2995  60 */\n      0x3c\n        /* \"Code Test/CodeTest_1.sol\":2996:3006  emptyClass */\n      dup4\n        /* \"Code Test/CodeTest_1.sol\":2972:2982  addStudent */\n      tag_54\n        /* \"Code Test/CodeTest_1.sol\":2972:3007  addStudent(\"Charlie\",60,emptyClass) */\n      jump\t// in\n    tag_263:\n        /* \"Code Test/CodeTest_1.sol\":3017:3051  addStudent(\"Dwayne\",90,emptyClass) */\n      tag_264\n      mload(0x40)\n      dup1\n      0x40\n      add\n      0x40\n      mstore\n      dup1\n      0x06\n      dup2\n      mstore\n      0x20\n      add\n      0x447761796e650000000000000000000000000000000000000000000000000000\n      dup2\n      mstore\n      pop\n        /* \"Code Test/CodeTest_1.sol\":3037:3039  90 */\n      0x5a\n        /* \"Code Test/CodeTest_1.sol\":3040:3050  emptyClass */\n      dup4\n        /* \"Code Test/CodeTest_1.sol\":3017:3027  addStudent */\n      tag_54\n        /* \"Code Test/CodeTest_1.sol\":3017:3051  addStudent(\"Dwayne\",90,emptyClass) */\n      jump\t// in\n    tag_264:\n        /* \"Code Test/CodeTest_1.sol\":3061:3094  addStudent(\"Ellen\",65,emptyClass) */\n      tag_265\n      mload(0x40)\n      dup1\n      0x40\n      add\n      0x40\n      mstore\n      dup1\n      0x05\n      dup2\n      mstore\n      0x20\n      add\n      0x456c6c656e000000000000000000000000000000000000000000000000000000\n      dup2\n      mstore\n      pop\n        /* \"Code Test/CodeTest_1.sol\":3080:3082  65 */\n      0x41\n        /* \"Code Test/CodeTest_1.sol\":3083:3093  emptyClass */\n      dup4\n        /* \"Code Test/CodeTest_1.sol\":3061:3071  addStudent */\n      tag_54\n        /* \"Code Test/CodeTest_1.sol\":3061:3094  addStudent(\"Ellen\",65,emptyClass) */\n      jump\t// in\n    tag_265:\n        /* \"Code Test/CodeTest_1.sol\":3104:3136  addStudent(\"Fitz\",50,emptyClass) */\n      tag_266\n      mload(0x40)\n      dup1\n      0x40\n      add\n      0x40\n      mstore\n      dup1\n      0x04\n      dup2\n      mstore\n      0x20\n      add\n      0x4669747a00000000000000000000000000000000000000000000000000000000\n      dup2\n      mstore\n      pop\n        /* \"Code Test/CodeTest_1.sol\":3122:3124  50 */\n      0x32\n        /* \"Code Test/CodeTest_1.sol\":3125:3135  emptyClass */\n      dup4\n        /* \"Code Test/CodeTest_1.sol\":3104:3114  addStudent */\n      tag_54\n        /* \"Code Test/CodeTest_1.sol\":3104:3136  addStudent(\"Fitz\",50,emptyClass) */\n      jump\t// in\n    tag_266:\n        /* \"Code Test/CodeTest_1.sol\":3146:3180  addStudent(\"Garret\",80,emptyClass) */\n      tag_267\n      mload(0x40)\n      dup1\n      0x40\n      add\n      0x40\n      mstore\n      dup1\n      0x06\n      dup2\n      mstore\n      0x20\n      add\n      0x4761727265740000000000000000000000000000000000000000000000000000\n      dup2\n      mstore\n      pop\n        /* \"Code Test/CodeTest_1.sol\":3166:3168  80 */\n      0x50\n        /* \"Code Test/CodeTest_1.sol\":3169:3179  emptyClass */\n      dup4\n        /* \"Code Test/CodeTest_1.sol\":3146:3156  addStudent */\n      tag_54\n        /* \"Code Test/CodeTest_1.sol\":3146:3180  addStudent(\"Garret\",80,emptyClass) */\n      jump\t// in\n    tag_267:\n        /* \"Code Test/CodeTest_1.sol\":3190:3224  addStudent(\"Hubert\",90,emptyClass) */\n      tag_268\n      mload(0x40)\n      dup1\n      0x40\n      add\n      0x40\n      mstore\n      dup1\n      0x06\n      dup2\n      mstore\n      0x20\n      add\n      0x4875626572740000000000000000000000000000000000000000000000000000\n      dup2\n      mstore\n      pop\n        /* \"Code Test/CodeTest_1.sol\":3210:3212  90 */\n      0x5a\n        /* \"Code Test/CodeTest_1.sol\":3213:3223  emptyClass */\n      dup4\n        /* \"Code Test/CodeTest_1.sol\":3190:3200  addStudent */\n      tag_54\n        /* \"Code Test/CodeTest_1.sol\":3190:3224  addStudent(\"Hubert\",90,emptyClass) */\n      jump\t// in\n    tag_268:\n        /* \"Code Test/CodeTest_1.sol\":3234:3269  addStudent(\"Isabel\",100,emptyClass) */\n      tag_269\n      mload(0x40)\n      dup1\n      0x40\n      add\n      0x40\n      mstore\n      dup1\n      0x06\n      dup2\n      mstore\n      0x20\n      add\n      0x49736162656c0000000000000000000000000000000000000000000000000000\n      dup2\n      mstore\n      pop\n        /* \"Code Test/CodeTest_1.sol\":3254:3257  100 */\n      0x64\n        /* \"Code Test/CodeTest_1.sol\":3258:3268  emptyClass */\n      dup4\n        /* \"Code Test/CodeTest_1.sol\":3234:3244  addStudent */\n      tag_54\n        /* \"Code Test/CodeTest_1.sol\":3234:3269  addStudent(\"Isabel\",100,emptyClass) */\n      jump\t// in\n    tag_269:\n        /* \"Code Test/CodeTest_1.sol\":2823:3281  {... */\n      pop\n        /* \"Code Test/CodeTest_1.sol\":2792:3281  function pushStudents() public {... */\n      jump\t// out\n        /* \"Code Test/CodeTest_1.sol\":2596:2786  function addStudent(string memory _name, uint _score, string[] memory _classLists) public {... */\n    tag_54:\n        /* \"Code Test/CodeTest_1.sol\":2696:2704  students */\n      0x00\n        /* \"Code Test/CodeTest_1.sol\":2710:2778  student(_name,students.length+1,_score,setGrade(_score),_classLists) */\n      mload(0x40)\n      dup1\n      0xa0\n      add\n      0x40\n      mstore\n      dup1\n        /* \"Code Test/CodeTest_1.sol\":2718:2723  _name */\n      dup6\n        /* \"Code Test/CodeTest_1.sol\":2710:2778  student(_name,students.length+1,_score,setGrade(_score),_classLists) */\n      dup2\n      mstore\n      0x20\n      add\n        /* \"Code Test/CodeTest_1.sol\":2740:2741  1 */\n      0x01\n        /* \"Code Test/CodeTest_1.sol\":2724:2732  students */\n      0x00\n        /* \"Code Test/CodeTest_1.sol\":2724:2739  students.length */\n      dup1\n      sload\n      swap1\n      pop\n        /* \"Code Test/CodeTest_1.sol\":2724:2741  students.length+1 */\n      tag_271\n      swap2\n      swap1\n      tag_164\n      jump\t// in\n    tag_271:\n        /* \"Code Test/CodeTest_1.sol\":2710:2778  student(_name,students.length+1,_score,setGrade(_score),_classLists) */\n      dup2\n      mstore\n      0x20\n      add\n        /* \"Code Test/CodeTest_1.sol\":2742:2748  _score */\n      dup5\n        /* \"Code Test/CodeTest_1.sol\":2710:2778  student(_name,students.length+1,_score,setGrade(_score),_classLists) */\n      dup2\n      mstore\n      0x20\n      add\n        /* \"Code Test/CodeTest_1.sol\":2749:2765  setGrade(_score) */\n      tag_272\n        /* \"Code Test/CodeTest_1.sol\":2758:2764  _score */\n      dup6\n        /* \"Code Test/CodeTest_1.sol\":2749:2757  setGrade */\n      tag_273\n        /* \"Code Test/CodeTest_1.sol\":2749:2765  setGrade(_score) */\n      jump\t// in\n    tag_272:\n        /* \"Code Test/CodeTest_1.sol\":2710:2778  student(_name,students.length+1,_score,setGrade(_score),_classLists) */\n      dup2\n      mstore\n      0x20\n      add\n        /* \"Code Test/CodeTest_1.sol\":2766:2777  _classLists */\n      dup4\n        /* \"Code Test/CodeTest_1.sol\":2710:2778  student(_name,students.length+1,_score,setGrade(_score),_classLists) */\n      dup2\n      mstore\n      pop\n        /* \"Code Test/CodeTest_1.sol\":2696:2779  students.push(student(_name,students.length+1,_score,setGrade(_score),_classLists)) */\n      swap1\n      dup1\n      0x01\n      dup2\n      sload\n      add\n      dup1\n      dup3\n      sstore\n      dup1\n      swap2\n      pop\n      pop\n      0x01\n      swap1\n      sub\n      swap1\n      0x00\n      mstore\n      keccak256(0x00, 0x20)\n      swap1\n      0x05\n      mul\n      add\n      0x00\n      swap1\n      swap2\n      swap1\n      swap2\n      swap1\n      swap2\n      pop\n      0x00\n      dup3\n      add\n      mload\n      dup2\n      0x00\n      add\n      swap1\n      dup2\n      tag_275\n      swap2\n      swap1\n      tag_276\n      jump\t// in\n    tag_275:\n      pop\n      0x20\n      dup3\n      add\n      mload\n      dup2\n      0x01\n      add\n      sstore\n      0x40\n      dup3\n      add\n      mload\n      dup2\n      0x02\n      add\n      sstore\n      0x60\n      dup3\n      add\n      mload\n      dup2\n      0x03\n      add\n      swap1\n      dup2\n      tag_277\n      swap2\n      swap1\n      tag_276\n      jump\t// in\n    tag_277:\n      pop\n      0x80\n      dup3\n      add\n      mload\n      dup2\n      0x04\n      add\n      swap1\n      dup1\n      mload\n      swap1\n      0x20\n      add\n      swap1\n      tag_278\n      swap3\n      swap2\n      swap1\n      tag_279\n      jump\t// in\n    tag_278:\n      pop\n      pop\n      pop\n        /* \"Code Test/CodeTest_1.sol\":2596:2786  function addStudent(string memory _name, uint _score, string[] memory _classLists) public {... */\n      pop\n      pop\n      pop\n      jump\t// out\n        /* \"Code Test/CodeTest_1.sol\":4785:4878  function getStudents() public view returns(student[] memory) {... */\n    tag_56:\n        /* \"Code Test/CodeTest_1.sol\":4828:4844  student[] memory */\n      0x60\n        /* \"Code Test/CodeTest_1.sol\":4863:4871  students */\n      0x00\n        /* \"Code Test/CodeTest_1.sol\":4856:4871  return students */\n      dup1\n      sload\n      dup1\n      0x20\n      mul\n      0x20\n      add\n      mload(0x40)\n      swap1\n      dup2\n      add\n      0x40\n      mstore\n      dup1\n      swap3\n      swap2\n      swap1\n      dup2\n      dup2\n      mstore\n      0x20\n      add\n      0x00\n      swap1\n    tag_281:\n      dup3\n      dup3\n      lt\n      iszero\n      tag_282\n      jumpi\n      dup4\n      dup3\n      swap1\n      0x00\n      mstore\n      keccak256(0x00, 0x20)\n      swap1\n      0x05\n      mul\n      add\n      mload(0x40)\n      dup1\n      0xa0\n      add\n      0x40\n      mstore\n      swap1\n      dup2\n      0x00\n      dup3\n      add\n      dup1\n      sload\n      tag_284\n      swap1\n      tag_110\n      jump\t// in\n    tag_284:\n      dup1\n      0x1f\n      add\n      0x20\n      dup1\n      swap2\n      div\n      mul\n      0x20\n      add\n      mload(0x40)\n      swap1\n      dup2\n      add\n      0x40\n      mstore\n      dup1\n      swap3\n      swap2\n      swap1\n      dup2\n      dup2\n      mstore\n      0x20\n      add\n      dup3\n      dup1\n      sload\n      tag_285\n      swap1\n      tag_110\n      jump\t// in\n    tag_285:\n      dup1\n      iszero\n      tag_286\n      jumpi\n      dup1\n      0x1f\n      lt\n      tag_287\n      jumpi\n      0x0100\n      dup1\n      dup4\n      sload\n      div\n      mul\n      dup4\n      mstore\n      swap2\n      0x20\n      add\n      swap2\n      jump(tag_286)\n    tag_287:\n      dup3\n      add\n      swap2\n      swap1\n      0x00\n      mstore\n      keccak256(0x00, 0x20)\n      swap1\n    tag_288:\n      dup2\n      sload\n      dup2\n      mstore\n      swap1\n      0x01\n      add\n      swap1\n      0x20\n      add\n      dup1\n      dup4\n      gt\n      tag_288\n      jumpi\n      dup3\n      swap1\n      sub\n      0x1f\n      and\n      dup3\n      add\n      swap2\n    tag_286:\n      pop\n      pop\n      pop\n      pop\n      pop\n      dup2\n      mstore\n      0x20\n      add\n      0x01\n      dup3\n      add\n      sload\n      dup2\n      mstore\n      0x20\n      add\n      0x02\n      dup3\n      add\n      sload\n      dup2\n      mstore\n      0x20\n      add\n      0x03\n      dup3\n      add\n      dup1\n      sload\n      tag_289\n      swap1\n      tag_110\n      jump\t// in\n    tag_289:\n      dup1\n      0x1f\n      add\n      0x20\n      dup1\n      swap2\n      div\n      mul\n      0x20\n      add\n      mload(0x40)\n      swap1\n      dup2\n      add\n      0x40\n      mstore\n      dup1\n      swap3\n      swap2\n      swap1\n      dup2\n      dup2\n      mstore\n      0x20\n      add\n      dup3\n      dup1\n      sload\n      tag_290\n      swap1\n      tag_110\n      jump\t// in\n    tag_290:\n      dup1\n      iszero\n      tag_291\n      jumpi\n      dup1\n      0x1f\n      lt\n      tag_292\n      jumpi\n      0x0100\n      dup1\n      dup4\n      sload\n      div\n      mul\n      dup4\n      mstore\n      swap2\n      0x20\n      add\n      swap2\n      jump(tag_291)\n    tag_292:\n      dup3\n      add\n      swap2\n      swap1\n      0x00\n      mstore\n      keccak256(0x00, 0x20)\n      swap1\n    tag_293:\n      dup2\n      sload\n      dup2\n      mstore\n      swap1\n      0x01\n      add\n      swap1\n      0x20\n      add\n      dup1\n      dup4\n      gt\n      tag_293\n      jumpi\n      dup3\n      swap1\n      sub\n      0x1f\n      and\n      dup3\n      add\n      swap2\n    tag_291:\n      pop\n      pop\n      pop\n      pop\n      pop\n      dup2\n      mstore\n      0x20\n      add\n      0x04\n      dup3\n      add\n      dup1\n      sload\n      dup1\n      0x20\n      mul\n      0x20\n      add\n      mload(0x40)\n      swap1\n      dup2\n      add\n      0x40\n      mstore\n      dup1\n      swap3\n      swap2\n      swap1\n      dup2\n      dup2\n      mstore\n      0x20\n      add\n      0x00\n      swap1\n    tag_294:\n      dup3\n      dup3\n      lt\n      iszero\n      tag_295\n      jumpi\n      dup4\n      dup3\n      swap1\n      0x00\n      mstore\n      keccak256(0x00, 0x20)\n      add\n      dup1\n      sload\n      tag_297\n      swap1\n      tag_110\n      jump\t// in\n    tag_297:\n      dup1\n      0x1f\n      add\n      0x20\n      dup1\n      swap2\n      div\n      mul\n      0x20\n      add\n      mload(0x40)\n      swap1\n      dup2\n      add\n      0x40\n      mstore\n      dup1\n      swap3\n      swap2\n      swap1\n      dup2\n      dup2\n      mstore\n      0x20\n      add\n      dup3\n      dup1\n      sload\n      tag_298\n      swap1\n      tag_110\n      jump\t// in\n    tag_298:\n      dup1\n      iszero\n      tag_299\n      jumpi\n      dup1\n      0x1f\n      lt\n      tag_300\n      jumpi\n      0x0100\n      dup1\n      dup4\n      sload\n      div\n      mul\n      dup4\n      mstore\n      swap2\n      0x20\n      add\n      swap2\n      jump(tag_299)\n    tag_300:\n      dup3\n      add\n      swap2\n      swap1\n      0x00\n      mstore\n      keccak256(0x00, 0x20)\n      swap1\n    tag_301:\n      dup2\n      sload\n      dup2\n      mstore\n      swap1\n      0x01\n      add\n      swap1\n      0x20\n      add\n      dup1\n      dup4\n      gt\n      tag_301\n      jumpi\n      dup3\n      swap1\n      sub\n      0x1f\n      and\n      dup3\n      add\n      swap2\n    tag_299:\n      pop\n      pop\n      pop\n      pop\n      pop\n      dup2\n      mstore\n      0x20\n      add\n      swap1\n      0x01\n      add\n      swap1\n      jump(tag_294)\n    tag_295:\n      pop\n      pop\n      pop\n      pop\n      dup2\n      mstore\n      pop\n      pop\n      dup2\n      mstore\n      0x20\n      add\n      swap1\n      0x01\n      add\n      swap1\n      jump(tag_281)\n    tag_282:\n      pop\n      pop\n      pop\n      pop\n      swap1\n      pop\n        /* \"Code Test/CodeTest_1.sol\":4785:4878  function getStudents() public view returns(student[] memory) {... */\n      swap1\n      jump\t// out\n        /* \"Code Test/CodeTest_1.sol\":2175:2526  function setGrade(uint _score) internal pure returns(string memory) {... */\n    tag_273:\n        /* \"Code Test/CodeTest_1.sol\":2228:2241  string memory */\n      0x60\n        /* \"Code Test/CodeTest_1.sol\":2266:2268  90 */\n      0x5a\n        /* \"Code Test/CodeTest_1.sol\":2256:2262  _score */\n      dup3\n        /* \"Code Test/CodeTest_1.sol\":2256:2268  _score >= 90 */\n      lt\n        /* \"Code Test/CodeTest_1.sol\":2253:2520  if(_score >= 90) {... */\n      tag_303\n      jumpi\n        /* \"Code Test/CodeTest_1.sol\":2284:2294  return \"A\" */\n      mload(0x40)\n      dup1\n      0x40\n      add\n      0x40\n      mstore\n      dup1\n      0x01\n      dup2\n      mstore\n      0x20\n      add\n      0x4100000000000000000000000000000000000000000000000000000000000000\n      dup2\n      mstore\n      pop\n      swap1\n      pop\n      jump(tag_302)\n        /* \"Code Test/CodeTest_1.sol\":2253:2520  if(_score >= 90) {... */\n    tag_303:\n        /* \"Code Test/CodeTest_1.sol\":2324:2326  80 */\n      0x50\n        /* \"Code Test/CodeTest_1.sol\":2314:2320  _score */\n      dup3\n        /* \"Code Test/CodeTest_1.sol\":2314:2326  _score >= 80 */\n      lt\n        /* \"Code Test/CodeTest_1.sol\":2311:2520  if(_score >= 80) {... */\n      tag_305\n      jumpi\n        /* \"Code Test/CodeTest_1.sol\":2342:2352  return \"B\" */\n      mload(0x40)\n      dup1\n      0x40\n      add\n      0x40\n      mstore\n      dup1\n      0x01\n      dup2\n      mstore\n      0x20\n      add\n      0x4200000000000000000000000000000000000000000000000000000000000000\n      dup2\n      mstore\n      pop\n      swap1\n      pop\n      jump(tag_302)\n        /* \"Code Test/CodeTest_1.sol\":2311:2520  if(_score >= 80) {... */\n    tag_305:\n        /* \"Code Test/CodeTest_1.sol\":2382:2384  70 */\n      0x46\n        /* \"Code Test/CodeTest_1.sol\":2372:2378  _score */\n      dup3\n        /* \"Code Test/CodeTest_1.sol\":2372:2384  _score >= 70 */\n      lt\n        /* \"Code Test/CodeTest_1.sol\":2369:2520  if(_score >= 70) {... */\n      tag_307\n      jumpi\n        /* \"Code Test/CodeTest_1.sol\":2400:2410  return \"C\" */\n      mload(0x40)\n      dup1\n      0x40\n      add\n      0x40\n      mstore\n      dup1\n      0x01\n      dup2\n      mstore\n      0x20\n      add\n      0x4300000000000000000000000000000000000000000000000000000000000000\n      dup2\n      mstore\n      pop\n      swap1\n      pop\n      jump(tag_302)\n        /* \"Code Test/CodeTest_1.sol\":2369:2520  if(_score >= 70) {... */\n    tag_307:\n        /* \"Code Test/CodeTest_1.sol\":2440:2442  60 */\n      0x3c\n        /* \"Code Test/CodeTest_1.sol\":2430:2436  _score */\n      dup3\n        /* \"Code Test/CodeTest_1.sol\":2430:2442  _score >= 60 */\n      lt\n        /* \"Code Test/CodeTest_1.sol\":2427:2520  if(_score >= 60) {... */\n      tag_309\n      jumpi\n        /* \"Code Test/CodeTest_1.sol\":2458:2468  return \"D\" */\n      mload(0x40)\n      dup1\n      0x40\n      add\n      0x40\n      mstore\n      dup1\n      0x01\n      dup2\n      mstore\n      0x20\n      add\n      0x4400000000000000000000000000000000000000000000000000000000000000\n      dup2\n      mstore\n      pop\n      swap1\n      pop\n      jump(tag_302)\n        /* \"Code Test/CodeTest_1.sol\":2427:2520  if(_score >= 60) {... */\n    tag_309:\n        /* \"Code Test/CodeTest_1.sol\":2499:2509  return \"F\" */\n      mload(0x40)\n      dup1\n      0x40\n      add\n      0x40\n      mstore\n      dup1\n      0x01\n      dup2\n      mstore\n      0x20\n      add\n      0x4600000000000000000000000000000000000000000000000000000000000000\n      dup2\n      mstore\n      pop\n      swap1\n      pop\n        /* \"Code Test/CodeTest_1.sol\":2175:2526  function setGrade(uint _score) internal pure returns(string memory) {... */\n    tag_302:\n      swap2\n      swap1\n      pop\n      jump\t// out\n    tag_96:\n      mload(0x40)\n      dup1\n      0xa0\n      add\n      0x40\n      mstore\n      dup1\n      0x60\n      dup2\n      mstore\n      0x20\n      add\n      0x00\n      dup2\n      mstore\n      0x20\n      add\n      0x00\n      dup2\n      mstore\n      0x20\n      add\n      0x60\n      dup2\n      mstore\n      0x20\n      add\n      0x60\n      dup2\n      mstore\n      pop\n      swap1\n      jump\t// out\n    tag_279:\n      dup3\n      dup1\n      sload\n      dup3\n      dup3\n      sstore\n      swap1\n      0x00\n      mstore\n      keccak256(0x00, 0x20)\n      swap1\n      dup2\n      add\n      swap3\n      dup3\n      iszero\n      tag_311\n      jumpi\n      swap2\n      0x20\n      mul\n      dup3\n      add\n    tag_312:\n      dup3\n      dup2\n      gt\n      iszero\n      tag_313\n      jumpi\n      dup3\n      mload\n      dup3\n      swap1\n      dup2\n      tag_314\n      swap2\n      swap1\n      tag_276\n      jump\t// in\n    tag_314:\n      pop\n      swap2\n      0x20\n      add\n      swap2\n      swap1\n      0x01\n      add\n      swap1\n      jump(tag_312)\n    tag_313:\n    tag_311:\n      pop\n      swap1\n      pop\n      tag_315\n      swap2\n      swap1\n      tag_316\n      jump\t// in\n    tag_315:\n      pop\n      swap1\n      jump\t// out\n    tag_316:\n    tag_317:\n      dup1\n      dup3\n      gt\n      iszero\n      tag_318\n      jumpi\n      0x00\n      dup2\n      dup2\n      tag_319\n      swap2\n      swap1\n      tag_320\n      jump\t// in\n    tag_319:\n      pop\n      0x01\n      add\n      jump(tag_317)\n    tag_318:\n      pop\n      swap1\n      jump\t// out\n    tag_320:\n      pop\n      dup1\n      sload\n      tag_321\n      swap1\n      tag_110\n      jump\t// in\n    tag_321:\n      0x00\n      dup3\n      sstore\n      dup1\n      0x1f\n      lt\n      tag_323\n      jumpi\n      pop\n      jump(tag_322)\n    tag_323:\n      0x1f\n      add\n      0x20\n      swap1\n      div\n      swap1\n      0x00\n      mstore\n      keccak256(0x00, 0x20)\n      swap1\n      dup2\n      add\n      swap1\n      tag_324\n      swap2\n      swap1\n      tag_325\n      jump\t// in\n    tag_324:\n    tag_322:\n      pop\n      jump\t// out\n    tag_325:\n    tag_326:\n      dup1\n      dup3\n      gt\n      iszero\n      tag_327\n      jumpi\n      0x00\n      dup2\n      0x00\n      swap1\n      sstore\n      pop\n      0x01\n      add\n      jump(tag_326)\n    tag_327:\n      pop\n      swap1\n      jump\t// out\n        /* \"#utility.yul\":7:82   */\n    tag_328:\n        /* \"#utility.yul\":40:46   */\n      0x00\n        /* \"#utility.yul\":73:75   */\n      0x40\n        /* \"#utility.yul\":67:76   */\n      mload\n        /* \"#utility.yul\":57:76   */\n      swap1\n      pop\n        /* \"#utility.yul\":7:82   */\n      swap1\n      jump\t// out\n        /* \"#utility.yul\":88:205   */\n    tag_329:\n        /* \"#utility.yul\":197:198   */\n      0x00\n        /* \"#utility.yul\":194:195   */\n      dup1\n        /* \"#utility.yul\":187:199   */\n      revert\n        /* \"#utility.yul\":211:328   */\n    tag_330:\n        /* \"#utility.yul\":320:321   */\n      0x00\n        /* \"#utility.yul\":317:318   */\n      dup1\n        /* \"#utility.yul\":310:322   */\n      revert\n        /* \"#utility.yul\":334:451   */\n    tag_331:\n        /* \"#utility.yul\":443:444   */\n      0x00\n        /* \"#utility.yul\":440:441   */\n      dup1\n        /* \"#utility.yul\":433:445   */\n      revert\n        /* \"#utility.yul\":457:574   */\n    tag_332:\n        /* \"#utility.yul\":566:567   */\n      0x00\n        /* \"#utility.yul\":563:564   */\n      dup1\n        /* \"#utility.yul\":556:568   */\n      revert\n        /* \"#utility.yul\":580:682   */\n    tag_333:\n        /* \"#utility.yul\":621:627   */\n      0x00\n        /* \"#utility.yul\":672:674   */\n      0x1f\n        /* \"#utility.yul\":668:675   */\n      not\n        /* \"#utility.yul\":663:665   */\n      0x1f\n        /* \"#utility.yul\":656:661   */\n      dup4\n        /* \"#utility.yul\":652:666   */\n      add\n        /* \"#utility.yul\":648:676   */\n      and\n        /* \"#utility.yul\":638:676   */\n      swap1\n      pop\n        /* \"#utility.yul\":580:682   */\n      swap2\n      swap1\n      pop\n      jump\t// out\n        /* \"#utility.yul\":688:868   */\n    tag_92:\n        /* \"#utility.yul\":736:813   */\n      0x4e487b7100000000000000000000000000000000000000000000000000000000\n        /* \"#utility.yul\":733:734   */\n      0x00\n        /* \"#utility.yul\":726:814   */\n      mstore\n        /* \"#utility.yul\":833:837   */\n      0x41\n        /* \"#utility.yul\":830:831   */\n      0x04\n        /* \"#utility.yul\":823:838   */\n      mstore\n        /* \"#utility.yul\":857:861   */\n      0x24\n        /* \"#utility.yul\":854:855   */\n      0x00\n        /* \"#utility.yul\":847:862   */\n      revert\n        /* \"#utility.yul\":874:1155   */\n    tag_334:\n        /* \"#utility.yul\":957:984   */\n      tag_404\n        /* \"#utility.yul\":979:983   */\n      dup3\n        /* \"#utility.yul\":957:984   */\n      tag_333\n      jump\t// in\n    tag_404:\n        /* \"#utility.yul\":949:955   */\n      dup2\n        /* \"#utility.yul\":945:985   */\n      add\n        /* \"#utility.yul\":1087:1093   */\n      dup2\n        /* \"#utility.yul\":1075:1085   */\n      dup2\n        /* \"#utility.yul\":1072:1094   */\n      lt\n        /* \"#utility.yul\":1051:1069   */\n      0xffffffffffffffff\n        /* \"#utility.yul\":1039:1049   */\n      dup3\n        /* \"#utility.yul\":1036:1070   */\n      gt\n        /* \"#utility.yul\":1033:1095   */\n      or\n        /* \"#utility.yul\":1030:1118   */\n      iszero\n      tag_405\n      jumpi\n        /* \"#utility.yul\":1098:1116   */\n      tag_406\n      tag_92\n      jump\t// in\n    tag_406:\n        /* \"#utility.yul\":1030:1118   */\n    tag_405:\n        /* \"#utility.yul\":1138:1148   */\n      dup1\n        /* \"#utility.yul\":1134:1136   */\n      0x40\n        /* \"#utility.yul\":1127:1149   */\n      mstore\n        /* \"#utility.yul\":917:1155   */\n      pop\n        /* \"#utility.yul\":874:1155   */\n      pop\n      pop\n      jump\t// out\n        /* \"#utility.yul\":1161:1290   */\n    tag_335:\n        /* \"#utility.yul\":1195:1201   */\n      0x00\n        /* \"#utility.yul\":1222:1242   */\n      tag_408\n      tag_328\n      jump\t// in\n    tag_408:\n        /* \"#utility.yul\":1212:1242   */\n      swap1\n      pop\n        /* \"#utility.yul\":1251:1284   */\n      tag_409\n        /* \"#utility.yul\":1279:1283   */\n      dup3\n        /* \"#utility.yul\":1271:1277   */\n      dup3\n        /* \"#utility.yul\":1251:1284   */\n      tag_334\n      jump\t// in\n    tag_409:\n        /* \"#utility.yul\":1161:1290   */\n      swap2\n      swap1\n      pop\n      jump\t// out\n        /* \"#utility.yul\":1296:1604   */\n    tag_336:\n        /* \"#utility.yul\":1358:1362   */\n      0x00\n        /* \"#utility.yul\":1448:1466   */\n      0xffffffffffffffff\n        /* \"#utility.yul\":1440:1446   */\n      dup3\n        /* \"#utility.yul\":1437:1467   */\n      gt\n        /* \"#utility.yul\":1434:1490   */\n      iszero\n      tag_411\n      jumpi\n        /* \"#utility.yul\":1470:1488   */\n      tag_412\n      tag_92\n      jump\t// in\n    tag_412:\n        /* \"#utility.yul\":1434:1490   */\n    tag_411:\n        /* \"#utility.yul\":1508:1537   */\n      tag_413\n        /* \"#utility.yul\":1530:1536   */\n      dup3\n        /* \"#utility.yul\":1508:1537   */\n      tag_333\n      jump\t// in\n    tag_413:\n        /* \"#utility.yul\":1500:1537   */\n      swap1\n      pop\n        /* \"#utility.yul\":1592:1596   */\n      0x20\n        /* \"#utility.yul\":1586:1590   */\n      dup2\n        /* \"#utility.yul\":1582:1597   */\n      add\n        /* \"#utility.yul\":1574:1597   */\n      swap1\n      pop\n        /* \"#utility.yul\":1296:1604   */\n      swap2\n      swap1\n      pop\n      jump\t// out\n        /* \"#utility.yul\":1610:1758   */\n    tag_337:\n        /* \"#utility.yul\":1708:1714   */\n      dup3\n        /* \"#utility.yul\":1703:1706   */\n      dup2\n        /* \"#utility.yul\":1698:1701   */\n      dup4\n        /* \"#utility.yul\":1685:1715   */\n      calldatacopy\n        /* \"#utility.yul\":1749:1750   */\n      0x00\n        /* \"#utility.yul\":1740:1746   */\n      dup4\n        /* \"#utility.yul\":1735:1738   */\n      dup4\n        /* \"#utility.yul\":1731:1747   */\n      add\n        /* \"#utility.yul\":1724:1751   */\n      mstore\n        /* \"#utility.yul\":1610:1758   */\n      pop\n      pop\n      pop\n      jump\t// out\n        /* \"#utility.yul\":1764:2189   */\n    tag_338:\n        /* \"#utility.yul\":1842:1847   */\n      0x00\n        /* \"#utility.yul\":1867:1933   */\n      tag_416\n        /* \"#utility.yul\":1883:1932   */\n      tag_417\n        /* \"#utility.yul\":1925:1931   */\n      dup5\n        /* \"#utility.yul\":1883:1932   */\n      tag_336\n      jump\t// in\n    tag_417:\n        /* \"#utility.yul\":1867:1933   */\n      tag_335\n      jump\t// in\n    tag_416:\n        /* \"#utility.yul\":1858:1933   */\n      swap1\n      pop\n        /* \"#utility.yul\":1956:1962   */\n      dup3\n        /* \"#utility.yul\":1949:1954   */\n      dup2\n        /* \"#utility.yul\":1942:1963   */\n      mstore\n        /* \"#utility.yul\":1994:1998   */\n      0x20\n        /* \"#utility.yul\":1987:1992   */\n      dup2\n        /* \"#utility.yul\":1983:1999   */\n      add\n        /* \"#utility.yul\":2032:2035   */\n      dup5\n        /* \"#utility.yul\":2023:2029   */\n      dup5\n        /* \"#utility.yul\":2018:2021   */\n      dup5\n        /* \"#utility.yul\":2014:2030   */\n      add\n        /* \"#utility.yul\":2011:2036   */\n      gt\n        /* \"#utility.yul\":2008:2120   */\n      iszero\n      tag_418\n      jumpi\n        /* \"#utility.yul\":2039:2118   */\n      tag_419\n      tag_332\n      jump\t// in\n    tag_419:\n        /* \"#utility.yul\":2008:2120   */\n    tag_418:\n        /* \"#utility.yul\":2129:2183   */\n      tag_420\n        /* \"#utility.yul\":2176:2182   */\n      dup5\n        /* \"#utility.yul\":2171:2174   */\n      dup3\n        /* \"#utility.yul\":2166:2169   */\n      dup6\n        /* \"#utility.yul\":2129:2183   */\n      tag_337\n      jump\t// in\n    tag_420:\n        /* \"#utility.yul\":1848:2189   */\n      pop\n        /* \"#utility.yul\":1764:2189   */\n      swap4\n      swap3\n      pop\n      pop\n      pop\n      jump\t// out\n        /* \"#utility.yul\":2209:2549   */\n    tag_339:\n        /* \"#utility.yul\":2265:2270   */\n      0x00\n        /* \"#utility.yul\":2314:2317   */\n      dup3\n        /* \"#utility.yul\":2307:2311   */\n      0x1f\n        /* \"#utility.yul\":2299:2305   */\n      dup4\n        /* \"#utility.yul\":2295:2312   */\n      add\n        /* \"#utility.yul\":2291:2318   */\n      slt\n        /* \"#utility.yul\":2281:2403   */\n      tag_422\n      jumpi\n        /* \"#utility.yul\":2322:2401   */\n      tag_423\n      tag_331\n      jump\t// in\n    tag_423:\n        /* \"#utility.yul\":2281:2403   */\n    tag_422:\n        /* \"#utility.yul\":2439:2445   */\n      dup2\n        /* \"#utility.yul\":2426:2446   */\n      calldataload\n        /* \"#utility.yul\":2464:2543   */\n      tag_424\n        /* \"#utility.yul\":2539:2542   */\n      dup5\n        /* \"#utility.yul\":2531:2537   */\n      dup3\n        /* \"#utility.yul\":2524:2528   */\n      0x20\n        /* \"#utility.yul\":2516:2522   */\n      dup7\n        /* \"#utility.yul\":2512:2529   */\n      add\n        /* \"#utility.yul\":2464:2543   */\n      tag_338\n      jump\t// in\n    tag_424:\n        /* \"#utility.yul\":2455:2543   */\n      swap2\n      pop\n        /* \"#utility.yul\":2271:2549   */\n      pop\n        /* \"#utility.yul\":2209:2549   */\n      swap3\n      swap2\n      pop\n      pop\n      jump\t// out\n        /* \"#utility.yul\":2555:3064   */\n    tag_17:\n        /* \"#utility.yul\":2624:2630   */\n      0x00\n        /* \"#utility.yul\":2673:2675   */\n      0x20\n        /* \"#utility.yul\":2661:2670   */\n      dup3\n        /* \"#utility.yul\":2652:2659   */\n      dup5\n        /* \"#utility.yul\":2648:2671   */\n      sub\n        /* \"#utility.yul\":2644:2676   */\n      slt\n        /* \"#utility.yul\":2641:2760   */\n      iszero\n      tag_426\n      jumpi\n        /* \"#utility.yul\":2679:2758   */\n      tag_427\n      tag_329\n      jump\t// in\n    tag_427:\n        /* \"#utility.yul\":2641:2760   */\n    tag_426:\n        /* \"#utility.yul\":2827:2828   */\n      0x00\n        /* \"#utility.yul\":2816:2825   */\n      dup3\n        /* \"#utility.yul\":2812:2829   */\n      add\n        /* \"#utility.yul\":2799:2830   */\n      calldataload\n        /* \"#utility.yul\":2857:2875   */\n      0xffffffffffffffff\n        /* \"#utility.yul\":2849:2855   */\n      dup2\n        /* \"#utility.yul\":2846:2876   */\n      gt\n        /* \"#utility.yul\":2843:2960   */\n      iszero\n      tag_428\n      jumpi\n        /* \"#utility.yul\":2879:2958   */\n      tag_429\n      tag_330\n      jump\t// in\n    tag_429:\n        /* \"#utility.yul\":2843:2960   */\n    tag_428:\n        /* \"#utility.yul\":2984:3047   */\n      tag_430\n        /* \"#utility.yul\":3039:3046   */\n      dup5\n        /* \"#utility.yul\":3030:3036   */\n      dup3\n        /* \"#utility.yul\":3019:3028   */\n      dup6\n        /* \"#utility.yul\":3015:3037   */\n      add\n        /* \"#utility.yul\":2984:3047   */\n      tag_339\n      jump\t// in\n    tag_430:\n        /* \"#utility.yul\":2974:3047   */\n      swap2\n      pop\n        /* \"#utility.yul\":2770:3057   */\n      pop\n        /* \"#utility.yul\":2555:3064   */\n      swap3\n      swap2\n      pop\n      pop\n      jump\t// out\n        /* \"#utility.yul\":3070:3147   */\n    tag_340:\n        /* \"#utility.yul\":3107:3114   */\n      0x00\n        /* \"#utility.yul\":3136:3141   */\n      dup2\n        /* \"#utility.yul\":3125:3141   */\n      swap1\n      pop\n        /* \"#utility.yul\":3070:3147   */\n      swap2\n      swap1\n      pop\n      jump\t// out\n        /* \"#utility.yul\":3153:3271   */\n    tag_341:\n        /* \"#utility.yul\":3240:3264   */\n      tag_433\n        /* \"#utility.yul\":3258:3263   */\n      dup2\n        /* \"#utility.yul\":3240:3264   */\n      tag_340\n      jump\t// in\n    tag_433:\n        /* \"#utility.yul\":3235:3238   */\n      dup3\n        /* \"#utility.yul\":3228:3265   */\n      mstore\n        /* \"#utility.yul\":3153:3271   */\n      pop\n      pop\n      jump\t// out\n        /* \"#utility.yul\":3277:3499   */\n    tag_20:\n        /* \"#utility.yul\":3370:3374   */\n      0x00\n        /* \"#utility.yul\":3408:3410   */\n      0x20\n        /* \"#utility.yul\":3397:3406   */\n      dup3\n        /* \"#utility.yul\":3393:3411   */\n      add\n        /* \"#utility.yul\":3385:3411   */\n      swap1\n      pop\n        /* \"#utility.yul\":3421:3492   */\n      tag_435\n        /* \"#utility.yul\":3489:3490   */\n      0x00\n        /* \"#utility.yul\":3478:3487   */\n      dup4\n        /* \"#utility.yul\":3474:3491   */\n      add\n        /* \"#utility.yul\":3465:3471   */\n      dup5\n        /* \"#utility.yul\":3421:3492   */\n      tag_341\n      jump\t// in\n    tag_435:\n        /* \"#utility.yul\":3277:3499   */\n      swap3\n      swap2\n      pop\n      pop\n      jump\t// out\n        /* \"#utility.yul\":3505:3642   */\n    tag_342:\n        /* \"#utility.yul\":3595:3601   */\n      0x00\n        /* \"#utility.yul\":3629:3634   */\n      dup2\n        /* \"#utility.yul\":3623:3635   */\n      mload\n        /* \"#utility.yul\":3613:3635   */\n      swap1\n      pop\n        /* \"#utility.yul\":3505:3642   */\n      swap2\n      swap1\n      pop\n      jump\t// out\n        /* \"#utility.yul\":3648:3855   */\n    tag_343:\n        /* \"#utility.yul\":3770:3781   */\n      0x00\n        /* \"#utility.yul\":3804:3810   */\n      dup3\n        /* \"#utility.yul\":3799:3802   */\n      dup3\n        /* \"#utility.yul\":3792:3811   */\n      mstore\n        /* \"#utility.yul\":3844:3848   */\n      0x20\n        /* \"#utility.yul\":3839:3842   */\n      dup3\n        /* \"#utility.yul\":3835:3849   */\n      add\n        /* \"#utility.yul\":3820:3849   */\n      swap1\n      pop\n        /* \"#utility.yul\":3648:3855   */\n      swap3\n      swap2\n      pop\n      pop\n      jump\t// out\n        /* \"#utility.yul\":3861:4016   */\n    tag_344:\n        /* \"#utility.yul\":3951:3955   */\n      0x00\n        /* \"#utility.yul\":3974:3977   */\n      dup2\n        /* \"#utility.yul\":3966:3977   */\n      swap1\n      pop\n        /* \"#utility.yul\":4004:4008   */\n      0x20\n        /* \"#utility.yul\":3999:4002   */\n      dup3\n        /* \"#utility.yul\":3995:4009   */\n      add\n        /* \"#utility.yul\":3987:4009   */\n      swap1\n      pop\n        /* \"#utility.yul\":3861:4016   */\n      swap2\n      swap1\n      pop\n      jump\t// out\n        /* \"#utility.yul\":4022:4121   */\n    tag_345:\n        /* \"#utility.yul\":4074:4080   */\n      0x00\n        /* \"#utility.yul\":4108:4113   */\n      dup2\n        /* \"#utility.yul\":4102:4114   */\n      mload\n        /* \"#utility.yul\":4092:4114   */\n      swap1\n      pop\n        /* \"#utility.yul\":4022:4121   */\n      swap2\n      swap1\n      pop\n      jump\t// out\n        /* \"#utility.yul\":4127:4286   */\n    tag_346:\n        /* \"#utility.yul\":4201:4212   */\n      0x00\n        /* \"#utility.yul\":4235:4241   */\n      dup3\n        /* \"#utility.yul\":4230:4233   */\n      dup3\n        /* \"#utility.yul\":4223:4242   */\n      mstore\n        /* \"#utility.yul\":4275:4279   */\n      0x20\n        /* \"#utility.yul\":4270:4273   */\n      dup3\n        /* \"#utility.yul\":4266:4280   */\n      add\n        /* \"#utility.yul\":4251:4280   */\n      swap1\n      pop\n        /* \"#utility.yul\":4127:4286   */\n      swap3\n      swap2\n      pop\n      pop\n      jump\t// out\n        /* \"#utility.yul\":4292:4431   */\n    tag_347:\n        /* \"#utility.yul\":4381:4387   */\n      dup3\n        /* \"#utility.yul\":4376:4379   */\n      dup2\n        /* \"#utility.yul\":4371:4374   */\n      dup4\n        /* \"#utility.yul\":4365:4388   */\n      mcopy\n        /* \"#utility.yul\":4422:4423   */\n      0x00\n        /* \"#utility.yul\":4413:4419   */\n      dup4\n        /* \"#utility.yul\":4408:4411   */\n      dup4\n        /* \"#utility.yul\":4404:4420   */\n      add\n        /* \"#utility.yul\":4397:4424   */\n      mstore\n        /* \"#utility.yul\":4292:4431   */\n      pop\n      pop\n      pop\n      jump\t// out\n        /* \"#utility.yul\":4437:4794   */\n    tag_348:\n        /* \"#utility.yul\":4515:4518   */\n      0x00\n        /* \"#utility.yul\":4543:4582   */\n      tag_443\n        /* \"#utility.yul\":4576:4581   */\n      dup3\n        /* \"#utility.yul\":4543:4582   */\n      tag_345\n      jump\t// in\n    tag_443:\n        /* \"#utility.yul\":4598:4659   */\n      tag_444\n        /* \"#utility.yul\":4652:4658   */\n      dup2\n        /* \"#utility.yul\":4647:4650   */\n      dup6\n        /* \"#utility.yul\":4598:4659   */\n      tag_346\n      jump\t// in\n    tag_444:\n        /* \"#utility.yul\":4591:4659   */\n      swap4\n      pop\n        /* \"#utility.yul\":4668:4733   */\n      tag_445\n        /* \"#utility.yul\":4726:4732   */\n      dup2\n        /* \"#utility.yul\":4721:4724   */\n      dup6\n        /* \"#utility.yul\":4714:4718   */\n      0x20\n        /* \"#utility.yul\":4707:4712   */\n      dup7\n        /* \"#utility.yul\":4703:4719   */\n      add\n        /* \"#utility.yul\":4668:4733   */\n      tag_347\n      jump\t// in\n    tag_445:\n        /* \"#utility.yul\":4758:4787   */\n      tag_446\n        /* \"#utility.yul\":4780:4786   */\n      dup2\n        /* \"#utility.yul\":4758:4787   */\n      tag_333\n      jump\t// in\n    tag_446:\n        /* \"#utility.yul\":4753:4756   */\n      dup5\n        /* \"#utility.yul\":4749:4788   */\n      add\n        /* \"#utility.yul\":4742:4788   */\n      swap2\n      pop\n        /* \"#utility.yul\":4519:4794   */\n      pop\n        /* \"#utility.yul\":4437:4794   */\n      swap3\n      swap2\n      pop\n      pop\n      jump\t// out\n        /* \"#utility.yul\":4800:4908   */\n    tag_349:\n        /* \"#utility.yul\":4877:4901   */\n      tag_448\n        /* \"#utility.yul\":4895:4900   */\n      dup2\n        /* \"#utility.yul\":4877:4901   */\n      tag_340\n      jump\t// in\n    tag_448:\n        /* \"#utility.yul\":4872:4875   */\n      dup3\n        /* \"#utility.yul\":4865:4902   */\n      mstore\n        /* \"#utility.yul\":4800:4908   */\n      pop\n      pop\n      jump\t// out\n        /* \"#utility.yul\":4914:5038   */\n    tag_350:\n        /* \"#utility.yul\":4991:4997   */\n      0x00\n        /* \"#utility.yul\":5025:5030   */\n      dup2\n        /* \"#utility.yul\":5019:5031   */\n      mload\n        /* \"#utility.yul\":5009:5031   */\n      swap1\n      pop\n        /* \"#utility.yul\":4914:5038   */\n      swap2\n      swap1\n      pop\n      jump\t// out\n        /* \"#utility.yul\":5044:5228   */\n    tag_351:\n        /* \"#utility.yul\":5143:5154   */\n      0x00\n        /* \"#utility.yul\":5177:5183   */\n      dup3\n        /* \"#utility.yul\":5172:5175   */\n      dup3\n        /* \"#utility.yul\":5165:5184   */\n      mstore\n        /* \"#utility.yul\":5217:5221   */\n      0x20\n        /* \"#utility.yul\":5212:5215   */\n      dup3\n        /* \"#utility.yul\":5208:5222   */\n      add\n        /* \"#utility.yul\":5193:5222   */\n      swap1\n      pop\n        /* \"#utility.yul\":5044:5228   */\n      swap3\n      swap2\n      pop\n      pop\n      jump\t// out\n        /* \"#utility.yul\":5234:5376   */\n    tag_352:\n        /* \"#utility.yul\":5311:5315   */\n      0x00\n        /* \"#utility.yul\":5334:5337   */\n      dup2\n        /* \"#utility.yul\":5326:5337   */\n      swap1\n      pop\n        /* \"#utility.yul\":5364:5368   */\n      0x20\n        /* \"#utility.yul\":5359:5362   */\n      dup3\n        /* \"#utility.yul\":5355:5369   */\n      add\n        /* \"#utility.yul\":5347:5369   */\n      swap1\n      pop\n        /* \"#utility.yul\":5234:5376   */\n      swap2\n      swap1\n      pop\n      jump\t// out\n        /* \"#utility.yul\":5382:5578   */\n    tag_353:\n        /* \"#utility.yul\":5471:5481   */\n      0x00\n        /* \"#utility.yul\":5506:5572   */\n      tag_453\n        /* \"#utility.yul\":5568:5571   */\n      dup4\n        /* \"#utility.yul\":5560:5566   */\n      dup4\n        /* \"#utility.yul\":5506:5572   */\n      tag_348\n      jump\t// in\n    tag_453:\n        /* \"#utility.yul\":5492:5572   */\n      swap1\n      pop\n        /* \"#utility.yul\":5382:5578   */\n      swap3\n      swap2\n      pop\n      pop\n      jump\t// out\n        /* \"#utility.yul\":5584:5707   */\n    tag_354:\n        /* \"#utility.yul\":5664:5668   */\n      0x00\n        /* \"#utility.yul\":5696:5700   */\n      0x20\n        /* \"#utility.yul\":5691:5694   */\n      dup3\n        /* \"#utility.yul\":5687:5701   */\n      add\n        /* \"#utility.yul\":5679:5701   */\n      swap1\n      pop\n        /* \"#utility.yul\":5584:5707   */\n      swap2\n      swap1\n      pop\n      jump\t// out\n        /* \"#utility.yul\":5741:6712   */\n    tag_355:\n        /* \"#utility.yul\":5870:5873   */\n      0x00\n        /* \"#utility.yul\":5899:5963   */\n      tag_456\n        /* \"#utility.yul\":5957:5962   */\n      dup3\n        /* \"#utility.yul\":5899:5963   */\n      tag_350\n      jump\t// in\n    tag_456:\n        /* \"#utility.yul\":5979:6065   */\n      tag_457\n        /* \"#utility.yul\":6058:6064   */\n      dup2\n        /* \"#utility.yul\":6053:6056   */\n      dup6\n        /* \"#utility.yul\":5979:6065   */\n      tag_351\n      jump\t// in\n    tag_457:\n        /* \"#utility.yul\":5972:6065   */\n      swap4\n      pop\n        /* \"#utility.yul\":6091:6094   */\n      dup4\n        /* \"#utility.yul\":6136:6140   */\n      0x20\n        /* \"#utility.yul\":6128:6134   */\n      dup3\n        /* \"#utility.yul\":6124:6141   */\n      mul\n        /* \"#utility.yul\":6119:6122   */\n      dup6\n        /* \"#utility.yul\":6115:6142   */\n      add\n        /* \"#utility.yul\":6166:6232   */\n      tag_458\n        /* \"#utility.yul\":6226:6231   */\n      dup6\n        /* \"#utility.yul\":6166:6232   */\n      tag_352\n      jump\t// in\n    tag_458:\n        /* \"#utility.yul\":6255:6262   */\n      dup1\n        /* \"#utility.yul\":6286:6287   */\n      0x00\n        /* \"#utility.yul\":6271:6667   */\n    tag_459:\n        /* \"#utility.yul\":6296:6302   */\n      dup6\n        /* \"#utility.yul\":6293:6294   */\n      dup2\n        /* \"#utility.yul\":6290:6303   */\n      lt\n        /* \"#utility.yul\":6271:6667   */\n      iszero\n      tag_461\n      jumpi\n        /* \"#utility.yul\":6367:6376   */\n      dup5\n        /* \"#utility.yul\":6361:6365   */\n      dup5\n        /* \"#utility.yul\":6357:6377   */\n      sub\n        /* \"#utility.yul\":6352:6355   */\n      dup10\n        /* \"#utility.yul\":6345:6378   */\n      mstore\n        /* \"#utility.yul\":6418:6424   */\n      dup2\n        /* \"#utility.yul\":6412:6425   */\n      mload\n        /* \"#utility.yul\":6446:6530   */\n      tag_462\n        /* \"#utility.yul\":6525:6529   */\n      dup6\n        /* \"#utility.yul\":6510:6523   */\n      dup3\n        /* \"#utility.yul\":6446:6530   */\n      tag_353\n      jump\t// in\n    tag_462:\n        /* \"#utility.yul\":6438:6530   */\n      swap5\n      pop\n        /* \"#utility.yul\":6553:6623   */\n      tag_463\n        /* \"#utility.yul\":6616:6622   */\n      dup4\n        /* \"#utility.yul\":6553:6623   */\n      tag_354\n      jump\t// in\n    tag_463:\n        /* \"#utility.yul\":6543:6623   */\n      swap3\n      pop\n        /* \"#utility.yul\":6652:6656   */\n      0x20\n        /* \"#utility.yul\":6647:6650   */\n      dup11\n        /* \"#utility.yul\":6643:6657   */\n      add\n        /* \"#utility.yul\":6636:6657   */\n      swap10\n      pop\n        /* \"#utility.yul\":6331:6667   */\n      pop\n        /* \"#utility.yul\":6318:6319   */\n      0x01\n        /* \"#utility.yul\":6315:6316   */\n      dup2\n        /* \"#utility.yul\":6311:6320   */\n      add\n        /* \"#utility.yul\":6306:6320   */\n      swap1\n      pop\n        /* \"#utility.yul\":6271:6667   */\n      jump(tag_459)\n    tag_461:\n        /* \"#utility.yul\":6275:6289   */\n      pop\n        /* \"#utility.yul\":6683:6687   */\n      dup3\n        /* \"#utility.yul\":6676:6687   */\n      swap8\n      pop\n        /* \"#utility.yul\":6703:6706   */\n      dup8\n        /* \"#utility.yul\":6696:6706   */\n      swap6\n      pop\n        /* \"#utility.yul\":5875:6712   */\n      pop\n      pop\n      pop\n      pop\n      pop\n        /* \"#utility.yul\":5741:6712   */\n      swap3\n      swap2\n      pop\n      pop\n      jump\t// out\n        /* \"#utility.yul\":6770:8086   */\n    tag_356:\n        /* \"#utility.yul\":6875:6878   */\n      0x00\n        /* \"#utility.yul\":6911:6915   */\n      0xa0\n        /* \"#utility.yul\":6906:6909   */\n      dup4\n        /* \"#utility.yul\":6902:6916   */\n      add\n        /* \"#utility.yul\":6998:7002   */\n      0x00\n        /* \"#utility.yul\":6991:6996   */\n      dup4\n        /* \"#utility.yul\":6987:7003   */\n      add\n        /* \"#utility.yul\":6981:7004   */\n      mload\n        /* \"#utility.yul\":7051:7054   */\n      dup5\n        /* \"#utility.yul\":7045:7049   */\n      dup3\n        /* \"#utility.yul\":7041:7055   */\n      sub\n        /* \"#utility.yul\":7034:7038   */\n      0x00\n        /* \"#utility.yul\":7029:7032   */\n      dup7\n        /* \"#utility.yul\":7025:7039   */\n      add\n        /* \"#utility.yul\":7018:7056   */\n      mstore\n        /* \"#utility.yul\":7077:7150   */\n      tag_465\n        /* \"#utility.yul\":7145:7149   */\n      dup3\n        /* \"#utility.yul\":7131:7143   */\n      dup3\n        /* \"#utility.yul\":7077:7150   */\n      tag_348\n      jump\t// in\n    tag_465:\n        /* \"#utility.yul\":7069:7150   */\n      swap2\n      pop\n        /* \"#utility.yul\":6926:7161   */\n      pop\n        /* \"#utility.yul\":7245:7249   */\n      0x20\n        /* \"#utility.yul\":7238:7243   */\n      dup4\n        /* \"#utility.yul\":7234:7250   */\n      add\n        /* \"#utility.yul\":7228:7251   */\n      mload\n        /* \"#utility.yul\":7264:7327   */\n      tag_466\n        /* \"#utility.yul\":7321:7325   */\n      0x20\n        /* \"#utility.yul\":7316:7319   */\n      dup7\n        /* \"#utility.yul\":7312:7326   */\n      add\n        /* \"#utility.yul\":7298:7310   */\n      dup3\n        /* \"#utility.yul\":7264:7327   */\n      tag_349\n      jump\t// in\n    tag_466:\n        /* \"#utility.yul\":7171:7337   */\n      pop\n        /* \"#utility.yul\":7420:7424   */\n      0x40\n        /* \"#utility.yul\":7413:7418   */\n      dup4\n        /* \"#utility.yul\":7409:7425   */\n      add\n        /* \"#utility.yul\":7403:7426   */\n      mload\n        /* \"#utility.yul\":7439:7502   */\n      tag_467\n        /* \"#utility.yul\":7496:7500   */\n      0x40\n        /* \"#utility.yul\":7491:7494   */\n      dup7\n        /* \"#utility.yul\":7487:7501   */\n      add\n        /* \"#utility.yul\":7473:7485   */\n      dup3\n        /* \"#utility.yul\":7439:7502   */\n      tag_349\n      jump\t// in\n    tag_467:\n        /* \"#utility.yul\":7347:7512   */\n      pop\n        /* \"#utility.yul\":7595:7599   */\n      0x60\n        /* \"#utility.yul\":7588:7593   */\n      dup4\n        /* \"#utility.yul\":7584:7600   */\n      add\n        /* \"#utility.yul\":7578:7601   */\n      mload\n        /* \"#utility.yul\":7648:7651   */\n      dup5\n        /* \"#utility.yul\":7642:7646   */\n      dup3\n        /* \"#utility.yul\":7638:7652   */\n      sub\n        /* \"#utility.yul\":7631:7635   */\n      0x60\n        /* \"#utility.yul\":7626:7629   */\n      dup7\n        /* \"#utility.yul\":7622:7636   */\n      add\n        /* \"#utility.yul\":7615:7653   */\n      mstore\n        /* \"#utility.yul\":7674:7747   */\n      tag_468\n        /* \"#utility.yul\":7742:7746   */\n      dup3\n        /* \"#utility.yul\":7728:7740   */\n      dup3\n        /* \"#utility.yul\":7674:7747   */\n      tag_348\n      jump\t// in\n    tag_468:\n        /* \"#utility.yul\":7666:7747   */\n      swap2\n      pop\n        /* \"#utility.yul\":7522:7758   */\n      pop\n        /* \"#utility.yul\":7846:7850   */\n      0x80\n        /* \"#utility.yul\":7839:7844   */\n      dup4\n        /* \"#utility.yul\":7835:7851   */\n      add\n        /* \"#utility.yul\":7829:7852   */\n      mload\n        /* \"#utility.yul\":7899:7902   */\n      dup5\n        /* \"#utility.yul\":7893:7897   */\n      dup3\n        /* \"#utility.yul\":7889:7903   */\n      sub\n        /* \"#utility.yul\":7882:7886   */\n      0x80\n        /* \"#utility.yul\":7877:7880   */\n      dup7\n        /* \"#utility.yul\":7873:7887   */\n      add\n        /* \"#utility.yul\":7866:7904   */\n      mstore\n        /* \"#utility.yul\":7925:8048   */\n      tag_469\n        /* \"#utility.yul\":8043:8047   */\n      dup3\n        /* \"#utility.yul\":8029:8041   */\n      dup3\n        /* \"#utility.yul\":7925:8048   */\n      tag_355\n      jump\t// in\n    tag_469:\n        /* \"#utility.yul\":7917:8048   */\n      swap2\n      pop\n        /* \"#utility.yul\":7768:8059   */\n      pop\n        /* \"#utility.yul\":8076:8080   */\n      dup1\n        /* \"#utility.yul\":8069:8080   */\n      swap2\n      pop\n        /* \"#utility.yul\":6880:8086   */\n      pop\n        /* \"#utility.yul\":6770:8086   */\n      swap3\n      swap2\n      pop\n      pop\n      jump\t// out\n        /* \"#utility.yul\":8092:8340   */\n    tag_357:\n        /* \"#utility.yul\":8207:8217   */\n      0x00\n        /* \"#utility.yul\":8242:8334   */\n      tag_471\n        /* \"#utility.yul\":8330:8333   */\n      dup4\n        /* \"#utility.yul\":8322:8328   */\n      dup4\n        /* \"#utility.yul\":8242:8334   */\n      tag_356\n      jump\t// in\n    tag_471:\n        /* \"#utility.yul\":8228:8334   */\n      swap1\n      pop\n        /* \"#utility.yul\":8092:8340   */\n      swap3\n      swap2\n      pop\n      pop\n      jump\t// out\n        /* \"#utility.yul\":8346:8482   */\n    tag_358:\n        /* \"#utility.yul\":8439:8443   */\n      0x00\n        /* \"#utility.yul\":8471:8475   */\n      0x20\n        /* \"#utility.yul\":8466:8469   */\n      dup3\n        /* \"#utility.yul\":8462:8476   */\n      add\n        /* \"#utility.yul\":8454:8476   */\n      swap1\n      pop\n        /* \"#utility.yul\":8346:8482   */\n      swap2\n      swap1\n      pop\n      jump\t// out\n        /* \"#utility.yul\":8544:9639   */\n    tag_359:\n        /* \"#utility.yul\":8709:8712   */\n      0x00\n        /* \"#utility.yul\":8738:8815   */\n      tag_474\n        /* \"#utility.yul\":8809:8814   */\n      dup3\n        /* \"#utility.yul\":8738:8815   */\n      tag_342\n      jump\t// in\n    tag_474:\n        /* \"#utility.yul\":8831:8940   */\n      tag_475\n        /* \"#utility.yul\":8933:8939   */\n      dup2\n        /* \"#utility.yul\":8928:8931   */\n      dup6\n        /* \"#utility.yul\":8831:8940   */\n      tag_343\n      jump\t// in\n    tag_475:\n        /* \"#utility.yul\":8824:8940   */\n      swap4\n      pop\n        /* \"#utility.yul\":8966:8969   */\n      dup4\n        /* \"#utility.yul\":9011:9015   */\n      0x20\n        /* \"#utility.yul\":9003:9009   */\n      dup3\n        /* \"#utility.yul\":8999:9016   */\n      mul\n        /* \"#utility.yul\":8994:8997   */\n      dup6\n        /* \"#utility.yul\":8990:9017   */\n      add\n        /* \"#utility.yul\":9041:9120   */\n      tag_476\n        /* \"#utility.yul\":9114:9119   */\n      dup6\n        /* \"#utility.yul\":9041:9120   */\n      tag_344\n      jump\t// in\n    tag_476:\n        /* \"#utility.yul\":9143:9150   */\n      dup1\n        /* \"#utility.yul\":9174:9175   */\n      0x00\n        /* \"#utility.yul\":9159:9594   */\n    tag_477:\n        /* \"#utility.yul\":9184:9190   */\n      dup6\n        /* \"#utility.yul\":9181:9182   */\n      dup2\n        /* \"#utility.yul\":9178:9191   */\n      lt\n        /* \"#utility.yul\":9159:9594   */\n      iszero\n      tag_479\n      jumpi\n        /* \"#utility.yul\":9255:9264   */\n      dup5\n        /* \"#utility.yul\":9249:9253   */\n      dup5\n        /* \"#utility.yul\":9245:9265   */\n      sub\n        /* \"#utility.yul\":9240:9243   */\n      dup10\n        /* \"#utility.yul\":9233:9266   */\n      mstore\n        /* \"#utility.yul\":9306:9312   */\n      dup2\n        /* \"#utility.yul\":9300:9313   */\n      mload\n        /* \"#utility.yul\":9334:9444   */\n      tag_480\n        /* \"#utility.yul\":9439:9443   */\n      dup6\n        /* \"#utility.yul\":9424:9437   */\n      dup3\n        /* \"#utility.yul\":9334:9444   */\n      tag_357\n      jump\t// in\n    tag_480:\n        /* \"#utility.yul\":9326:9444   */\n      swap5\n      pop\n        /* \"#utility.yul\":9467:9550   */\n      tag_481\n        /* \"#utility.yul\":9543:9549   */\n      dup4\n        /* \"#utility.yul\":9467:9550   */\n      tag_358\n      jump\t// in\n    tag_481:\n        /* \"#utility.yul\":9457:9550   */\n      swap3\n      pop\n        /* \"#utility.yul\":9579:9583   */\n      0x20\n        /* \"#utility.yul\":9574:9577   */\n      dup11\n        /* \"#utility.yul\":9570:9584   */\n      add\n        /* \"#utility.yul\":9563:9584   */\n      swap10\n      pop\n        /* \"#utility.yul\":9219:9594   */\n      pop\n        /* \"#utility.yul\":9206:9207   */\n      0x01\n        /* \"#utility.yul\":9203:9204   */\n      dup2\n        /* \"#utility.yul\":9199:9208   */\n      add\n        /* \"#utility.yul\":9194:9208   */\n      swap1\n      pop\n        /* \"#utility.yul\":9159:9594   */\n      jump(tag_477)\n    tag_479:\n        /* \"#utility.yul\":9163:9177   */\n      pop\n        /* \"#utility.yul\":9610:9614   */\n      dup3\n        /* \"#utility.yul\":9603:9614   */\n      swap8\n      pop\n        /* \"#utility.yul\":9630:9633   */\n      dup8\n        /* \"#utility.yul\":9623:9633   */\n      swap6\n      pop\n        /* \"#utility.yul\":8714:9639   */\n      pop\n      pop\n      pop\n      pop\n      pop\n        /* \"#utility.yul\":8544:9639   */\n      swap3\n      swap2\n      pop\n      pop\n      jump\t// out\n        /* \"#utility.yul\":9645:10220   */\n    tag_24:\n        /* \"#utility.yul\":9862:9866   */\n      0x00\n        /* \"#utility.yul\":9900:9902   */\n      0x40\n        /* \"#utility.yul\":9889:9898   */\n      dup3\n        /* \"#utility.yul\":9885:9903   */\n      add\n        /* \"#utility.yul\":9877:9903   */\n      swap1\n      pop\n        /* \"#utility.yul\":9913:9984   */\n      tag_483\n        /* \"#utility.yul\":9981:9982   */\n      0x00\n        /* \"#utility.yul\":9970:9979   */\n      dup4\n        /* \"#utility.yul\":9966:9983   */\n      add\n        /* \"#utility.yul\":9957:9963   */\n      dup6\n        /* \"#utility.yul\":9913:9984   */\n      tag_341\n      jump\t// in\n    tag_483:\n        /* \"#utility.yul\":10031:10040   */\n      dup2\n        /* \"#utility.yul\":10025:10029   */\n      dup2\n        /* \"#utility.yul\":10021:10041   */\n      sub\n        /* \"#utility.yul\":10016:10018   */\n      0x20\n        /* \"#utility.yul\":10005:10014   */\n      dup4\n        /* \"#utility.yul\":10001:10019   */\n      add\n        /* \"#utility.yul\":9994:10042   */\n      mstore\n        /* \"#utility.yul\":10059:10213   */\n      tag_484\n        /* \"#utility.yul\":10208:10212   */\n      dup2\n        /* \"#utility.yul\":10199:10205   */\n      dup5\n        /* \"#utility.yul\":10059:10213   */\n      tag_359\n      jump\t// in\n    tag_484:\n        /* \"#utility.yul\":10051:10213   */\n      swap1\n      pop\n        /* \"#utility.yul\":9645:10220   */\n      swap4\n      swap3\n      pop\n      pop\n      pop\n      jump\t// out\n        /* \"#utility.yul\":10226:10348   */\n    tag_360:\n        /* \"#utility.yul\":10299:10323   */\n      tag_486\n        /* \"#utility.yul\":10317:10322   */\n      dup2\n        /* \"#utility.yul\":10299:10323   */\n      tag_340\n      jump\t// in\n    tag_486:\n        /* \"#utility.yul\":10292:10297   */\n      dup2\n        /* \"#utility.yul\":10289:10324   */\n      eq\n        /* \"#utility.yul\":10279:10342   */\n      tag_487\n      jumpi\n        /* \"#utility.yul\":10338:10339   */\n      0x00\n        /* \"#utility.yul\":10335:10336   */\n      dup1\n        /* \"#utility.yul\":10328:10340   */\n      revert\n        /* \"#utility.yul\":10279:10342   */\n    tag_487:\n        /* \"#utility.yul\":10226:10348   */\n      pop\n      jump\t// out\n        /* \"#utility.yul\":10354:10493   */\n    tag_361:\n        /* \"#utility.yul\":10400:10405   */\n      0x00\n        /* \"#utility.yul\":10438:10444   */\n      dup2\n        /* \"#utility.yul\":10425:10445   */\n      calldataload\n        /* \"#utility.yul\":10416:10445   */\n      swap1\n      pop\n        /* \"#utility.yul\":10454:10487   */\n      tag_489\n        /* \"#utility.yul\":10481:10486   */\n      dup2\n        /* \"#utility.yul\":10454:10487   */\n      tag_360\n      jump\t// in\n    tag_489:\n        /* \"#utility.yul\":10354:10493   */\n      swap3\n      swap2\n      pop\n      pop\n      jump\t// out\n        /* \"#utility.yul\":10499:10828   */\n    tag_27:\n        /* \"#utility.yul\":10558:10564   */\n      0x00\n        /* \"#utility.yul\":10607:10609   */\n      0x20\n        /* \"#utility.yul\":10595:10604   */\n      dup3\n        /* \"#utility.yul\":10586:10593   */\n      dup5\n        /* \"#utility.yul\":10582:10605   */\n      sub\n        /* \"#utility.yul\":10578:10610   */\n      slt\n        /* \"#utility.yul\":10575:10694   */\n      iszero\n      tag_491\n      jumpi\n        /* \"#utility.yul\":10613:10692   */\n      tag_492\n      tag_329\n      jump\t// in\n    tag_492:\n        /* \"#utility.yul\":10575:10694   */\n    tag_491:\n        /* \"#utility.yul\":10733:10734   */\n      0x00\n        /* \"#utility.yul\":10758:10811   */\n      tag_493\n        /* \"#utility.yul\":10803:10810   */\n      dup5\n        /* \"#utility.yul\":10794:10800   */\n      dup3\n        /* \"#utility.yul\":10783:10792   */\n      dup6\n        /* \"#utility.yul\":10779:10801   */\n      add\n        /* \"#utility.yul\":10758:10811   */\n      tag_361\n      jump\t// in\n    tag_493:\n        /* \"#utility.yul\":10748:10811   */\n      swap2\n      pop\n        /* \"#utility.yul\":10704:10821   */\n      pop\n        /* \"#utility.yul\":10499:10828   */\n      swap3\n      swap2\n      pop\n      pop\n      jump\t// out\n        /* \"#utility.yul\":10886:12212   */\n    tag_362:\n        /* \"#utility.yul\":11001:11004   */\n      0x00\n        /* \"#utility.yul\":11037:11041   */\n      0xa0\n        /* \"#utility.yul\":11032:11035   */\n      dup4\n        /* \"#utility.yul\":11028:11042   */\n      add\n        /* \"#utility.yul\":11124:11128   */\n      0x00\n        /* \"#utility.yul\":11117:11122   */\n      dup4\n        /* \"#utility.yul\":11113:11129   */\n      add\n        /* \"#utility.yul\":11107:11130   */\n      mload\n        /* \"#utility.yul\":11177:11180   */\n      dup5\n        /* \"#utility.yul\":11171:11175   */\n      dup3\n        /* \"#utility.yul\":11167:11181   */\n      sub\n        /* \"#utility.yul\":11160:11164   */\n      0x00\n        /* \"#utility.yul\":11155:11158   */\n      dup7\n        /* \"#utility.yul\":11151:11165   */\n      add\n        /* \"#utility.yul\":11144:11182   */\n      mstore\n        /* \"#utility.yul\":11203:11276   */\n      tag_495\n        /* \"#utility.yul\":11271:11275   */\n      dup3\n        /* \"#utility.yul\":11257:11269   */\n      dup3\n        /* \"#utility.yul\":11203:11276   */\n      tag_348\n      jump\t// in\n    tag_495:\n        /* \"#utility.yul\":11195:11276   */\n      swap2\n      pop\n        /* \"#utility.yul\":11052:11287   */\n      pop\n        /* \"#utility.yul\":11371:11375   */\n      0x20\n        /* \"#utility.yul\":11364:11369   */\n      dup4\n        /* \"#utility.yul\":11360:11376   */\n      add\n        /* \"#utility.yul\":11354:11377   */\n      mload\n        /* \"#utility.yul\":11390:11453   */\n      tag_496\n        /* \"#utility.yul\":11447:11451   */\n      0x20\n        /* \"#utility.yul\":11442:11445   */\n      dup7\n        /* \"#utility.yul\":11438:11452   */\n      add\n        /* \"#utility.yul\":11424:11436   */\n      dup3\n        /* \"#utility.yul\":11390:11453   */\n      tag_349\n      jump\t// in\n    tag_496:\n        /* \"#utility.yul\":11297:11463   */\n      pop\n        /* \"#utility.yul\":11546:11550   */\n      0x40\n        /* \"#utility.yul\":11539:11544   */\n      dup4\n        /* \"#utility.yul\":11535:11551   */\n      add\n        /* \"#utility.yul\":11529:11552   */\n      mload\n        /* \"#utility.yul\":11565:11628   */\n      tag_497\n        /* \"#utility.yul\":11622:11626   */\n      0x40\n        /* \"#utility.yul\":11617:11620   */\n      dup7\n        /* \"#utility.yul\":11613:11627   */\n      add\n        /* \"#utility.yul\":11599:11611   */\n      dup3\n        /* \"#utility.yul\":11565:11628   */\n      tag_349\n      jump\t// in\n    tag_497:\n        /* \"#utility.yul\":11473:11638   */\n      pop\n        /* \"#utility.yul\":11721:11725   */\n      0x60\n        /* \"#utility.yul\":11714:11719   */\n      dup4\n        /* \"#utility.yul\":11710:11726   */\n      add\n        /* \"#utility.yul\":11704:11727   */\n      mload\n        /* \"#utility.yul\":11774:11777   */\n      dup5\n        /* \"#utility.yul\":11768:11772   */\n      dup3\n        /* \"#utility.yul\":11764:11778   */\n      sub\n        /* \"#utility.yul\":11757:11761   */\n      0x60\n        /* \"#utility.yul\":11752:11755   */\n      dup7\n        /* \"#utility.yul\":11748:11762   */\n      add\n        /* \"#utility.yul\":11741:11779   */\n      mstore\n        /* \"#utility.yul\":11800:11873   */\n      tag_498\n        /* \"#utility.yul\":11868:11872   */\n      dup3\n        /* \"#utility.yul\":11854:11866   */\n      dup3\n        /* \"#utility.yul\":11800:11873   */\n      tag_348\n      jump\t// in\n    tag_498:\n        /* \"#utility.yul\":11792:11873   */\n      swap2\n      pop\n        /* \"#utility.yul\":11648:11884   */\n      pop\n        /* \"#utility.yul\":11972:11976   */\n      0x80\n        /* \"#utility.yul\":11965:11970   */\n      dup4\n        /* \"#utility.yul\":11961:11977   */\n      add\n        /* \"#utility.yul\":11955:11978   */\n      mload\n        /* \"#utility.yul\":12025:12028   */\n      dup5\n        /* \"#utility.yul\":12019:12023   */\n      dup3\n        /* \"#utility.yul\":12015:12029   */\n      sub\n        /* \"#utility.yul\":12008:12012   */\n      0x80\n        /* \"#utility.yul\":12003:12006   */\n      dup7\n        /* \"#utility.yul\":11999:12013   */\n      add\n        /* \"#utility.yul\":11992:12030   */\n      mstore\n        /* \"#utility.yul\":12051:12174   */\n      tag_499\n        /* \"#utility.yul\":12169:12173   */\n      dup3\n        /* \"#utility.yul\":12155:12167   */\n      dup3\n        /* \"#utility.yul\":12051:12174   */\n      tag_355\n      jump\t// in\n    tag_499:\n        /* \"#utility.yul\":12043:12174   */\n      swap2\n      pop\n        /* \"#utility.yul\":11894:12185   */\n      pop\n        /* \"#utility.yul\":12202:12206   */\n      dup1\n        /* \"#utility.yul\":12195:12206   */\n      swap2\n      pop\n        /* \"#utility.yul\":11006:12212   */\n      pop\n        /* \"#utility.yul\":10886:12212   */\n      swap3\n      swap2\n      pop\n      pop\n      jump\t// out\n        /* \"#utility.yul\":12218:12583   */\n    tag_30:\n        /* \"#utility.yul\":12357:12361   */\n      0x00\n        /* \"#utility.yul\":12395:12397   */\n      0x20\n        /* \"#utility.yul\":12384:12393   */\n      dup3\n        /* \"#utility.yul\":12380:12398   */\n      add\n        /* \"#utility.yul\":12372:12398   */\n      swap1\n      pop\n        /* \"#utility.yul\":12444:12453   */\n      dup2\n        /* \"#utility.yul\":12438:12442   */\n      dup2\n        /* \"#utility.yul\":12434:12454   */\n      sub\n        /* \"#utility.yul\":12430:12431   */\n      0x00\n        /* \"#utility.yul\":12419:12428   */\n      dup4\n        /* \"#utility.yul\":12415:12432   */\n      add\n        /* \"#utility.yul\":12408:12455   */\n      mstore\n        /* \"#utility.yul\":12472:12576   */\n      tag_501\n        /* \"#utility.yul\":12571:12575   */\n      dup2\n        /* \"#utility.yul\":12562:12568   */\n      dup5\n        /* \"#utility.yul\":12472:12576   */\n      tag_362\n      jump\t// in\n    tag_501:\n        /* \"#utility.yul\":12464:12576   */\n      swap1\n      pop\n        /* \"#utility.yul\":12218:12583   */\n      swap3\n      swap2\n      pop\n      pop\n      jump\t// out\n        /* \"#utility.yul\":12589:12679   */\n    tag_363:\n        /* \"#utility.yul\":12623:12630   */\n      0x00\n        /* \"#utility.yul\":12666:12671   */\n      dup2\n        /* \"#utility.yul\":12659:12672   */\n      iszero\n        /* \"#utility.yul\":12652:12673   */\n      iszero\n        /* \"#utility.yul\":12641:12673   */\n      swap1\n      pop\n        /* \"#utility.yul\":12589:12679   */\n      swap2\n      swap1\n      pop\n      jump\t// out\n        /* \"#utility.yul\":12685:12794   */\n    tag_364:\n        /* \"#utility.yul\":12766:12787   */\n      tag_504\n        /* \"#utility.yul\":12781:12786   */\n      dup2\n        /* \"#utility.yul\":12766:12787   */\n      tag_363\n      jump\t// in\n    tag_504:\n        /* \"#utility.yul\":12761:12764   */\n      dup3\n        /* \"#utility.yul\":12754:12788   */\n      mstore\n        /* \"#utility.yul\":12685:12794   */\n      pop\n      pop\n      jump\t// out\n        /* \"#utility.yul\":12800:13010   */\n    tag_37:\n        /* \"#utility.yul\":12887:12891   */\n      0x00\n        /* \"#utility.yul\":12925:12927   */\n      0x20\n        /* \"#utility.yul\":12914:12923   */\n      dup3\n        /* \"#utility.yul\":12910:12928   */\n      add\n        /* \"#utility.yul\":12902:12928   */\n      swap1\n      pop\n        /* \"#utility.yul\":12938:13003   */\n      tag_506\n        /* \"#utility.yul\":13000:13001   */\n      0x00\n        /* \"#utility.yul\":12989:12998   */\n      dup4\n        /* \"#utility.yul\":12985:13002   */\n      add\n        /* \"#utility.yul\":12976:12982   */\n      dup5\n        /* \"#utility.yul\":12938:13003   */\n      tag_364\n      jump\t// in\n    tag_506:\n        /* \"#utility.yul\":12800:13010   */\n      swap3\n      swap2\n      pop\n      pop\n      jump\t// out\n        /* \"#utility.yul\":13016:13481   */\n    tag_48:\n        /* \"#utility.yul\":13205:13209   */\n      0x00\n        /* \"#utility.yul\":13243:13245   */\n      0x20\n        /* \"#utility.yul\":13232:13241   */\n      dup3\n        /* \"#utility.yul\":13228:13246   */\n      add\n        /* \"#utility.yul\":13220:13246   */\n      swap1\n      pop\n        /* \"#utility.yul\":13292:13301   */\n      dup2\n        /* \"#utility.yul\":13286:13290   */\n      dup2\n        /* \"#utility.yul\":13282:13302   */\n      sub\n        /* \"#utility.yul\":13278:13279   */\n      0x00\n        /* \"#utility.yul\":13267:13276   */\n      dup4\n        /* \"#utility.yul\":13263:13280   */\n      add\n        /* \"#utility.yul\":13256:13303   */\n      mstore\n        /* \"#utility.yul\":13320:13474   */\n      tag_508\n        /* \"#utility.yul\":13469:13473   */\n      dup2\n        /* \"#utility.yul\":13460:13466   */\n      dup5\n        /* \"#utility.yul\":13320:13474   */\n      tag_359\n      jump\t// in\n    tag_508:\n        /* \"#utility.yul\":13312:13474   */\n      swap1\n      pop\n        /* \"#utility.yul\":13016:13481   */\n      swap3\n      swap2\n      pop\n      pop\n      jump\t// out\n        /* \"#utility.yul\":13487:13808   */\n    tag_365:\n        /* \"#utility.yul\":13574:13578   */\n      0x00\n        /* \"#utility.yul\":13664:13682   */\n      0xffffffffffffffff\n        /* \"#utility.yul\":13656:13662   */\n      dup3\n        /* \"#utility.yul\":13653:13683   */\n      gt\n        /* \"#utility.yul\":13650:13706   */\n      iszero\n      tag_510\n      jumpi\n        /* \"#utility.yul\":13686:13704   */\n      tag_511\n      tag_92\n      jump\t// in\n    tag_511:\n        /* \"#utility.yul\":13650:13706   */\n    tag_510:\n        /* \"#utility.yul\":13736:13740   */\n      0x20\n        /* \"#utility.yul\":13728:13734   */\n      dup3\n        /* \"#utility.yul\":13724:13741   */\n      mul\n        /* \"#utility.yul\":13716:13741   */\n      swap1\n      pop\n        /* \"#utility.yul\":13796:13800   */\n      0x20\n        /* \"#utility.yul\":13790:13794   */\n      dup2\n        /* \"#utility.yul\":13786:13801   */\n      add\n        /* \"#utility.yul\":13778:13801   */\n      swap1\n      pop\n        /* \"#utility.yul\":13487:13808   */\n      swap2\n      swap1\n      pop\n      jump\t// out\n        /* \"#utility.yul\":13814:13931   */\n    tag_366:\n        /* \"#utility.yul\":13923:13924   */\n      0x00\n        /* \"#utility.yul\":13920:13921   */\n      dup1\n        /* \"#utility.yul\":13913:13925   */\n      revert\n        /* \"#utility.yul\":13953:14898   */\n    tag_367:\n        /* \"#utility.yul\":14059:14064   */\n      0x00\n        /* \"#utility.yul\":14084:14175   */\n      tag_514\n        /* \"#utility.yul\":14100:14174   */\n      tag_515\n        /* \"#utility.yul\":14167:14173   */\n      dup5\n        /* \"#utility.yul\":14100:14174   */\n      tag_365\n      jump\t// in\n    tag_515:\n        /* \"#utility.yul\":14084:14175   */\n      tag_335\n      jump\t// in\n    tag_514:\n        /* \"#utility.yul\":14075:14175   */\n      swap1\n      pop\n        /* \"#utility.yul\":14195:14200   */\n      dup1\n        /* \"#utility.yul\":14224:14230   */\n      dup4\n        /* \"#utility.yul\":14217:14222   */\n      dup3\n        /* \"#utility.yul\":14210:14231   */\n      mstore\n        /* \"#utility.yul\":14258:14262   */\n      0x20\n        /* \"#utility.yul\":14251:14256   */\n      dup3\n        /* \"#utility.yul\":14247:14263   */\n      add\n        /* \"#utility.yul\":14240:14263   */\n      swap1\n      pop\n        /* \"#utility.yul\":14311:14315   */\n      0x20\n        /* \"#utility.yul\":14303:14309   */\n      dup5\n        /* \"#utility.yul\":14299:14316   */\n      mul\n        /* \"#utility.yul\":14291:14297   */\n      dup4\n        /* \"#utility.yul\":14287:14317   */\n      add\n        /* \"#utility.yul\":14340:14343   */\n      dup6\n        /* \"#utility.yul\":14332:14338   */\n      dup2\n        /* \"#utility.yul\":14329:14344   */\n      gt\n        /* \"#utility.yul\":14326:14448   */\n      iszero\n      tag_516\n      jumpi\n        /* \"#utility.yul\":14359:14438   */\n      tag_517\n      tag_366\n      jump\t// in\n    tag_517:\n        /* \"#utility.yul\":14326:14448   */\n    tag_516:\n        /* \"#utility.yul\":14474:14480   */\n      dup4\n        /* \"#utility.yul\":14457:14892   */\n    tag_518:\n        /* \"#utility.yul\":14491:14497   */\n      dup2\n        /* \"#utility.yul\":14486:14489   */\n      dup2\n        /* \"#utility.yul\":14483:14498   */\n      lt\n        /* \"#utility.yul\":14457:14892   */\n      iszero\n      tag_520\n      jumpi\n        /* \"#utility.yul\":14580:14583   */\n      dup1\n        /* \"#utility.yul\":14567:14584   */\n      calldataload\n        /* \"#utility.yul\":14616:14634   */\n      0xffffffffffffffff\n        /* \"#utility.yul\":14603:14614   */\n      dup2\n        /* \"#utility.yul\":14600:14635   */\n      gt\n        /* \"#utility.yul\":14597:14719   */\n      iszero\n      tag_521\n      jumpi\n        /* \"#utility.yul\":14638:14717   */\n      tag_522\n      tag_331\n      jump\t// in\n    tag_522:\n        /* \"#utility.yul\":14597:14719   */\n    tag_521:\n        /* \"#utility.yul\":14762:14773   */\n      dup1\n        /* \"#utility.yul\":14754:14760   */\n      dup7\n        /* \"#utility.yul\":14750:14774   */\n      add\n        /* \"#utility.yul\":14800:14847   */\n      tag_523\n        /* \"#utility.yul\":14843:14846   */\n      dup10\n        /* \"#utility.yul\":14831:14841   */\n      dup3\n        /* \"#utility.yul\":14800:14847   */\n      tag_339\n      jump\t// in\n    tag_523:\n        /* \"#utility.yul\":14795:14798   */\n      dup6\n        /* \"#utility.yul\":14788:14848   */\n      mstore\n        /* \"#utility.yul\":14877:14881   */\n      0x20\n        /* \"#utility.yul\":14872:14875   */\n      dup6\n        /* \"#utility.yul\":14868:14882   */\n      add\n        /* \"#utility.yul\":14861:14882   */\n      swap5\n      pop\n        /* \"#utility.yul\":14533:14892   */\n      pop\n      pop\n        /* \"#utility.yul\":14517:14521   */\n      0x20\n        /* \"#utility.yul\":14512:14515   */\n      dup2\n        /* \"#utility.yul\":14508:14522   */\n      add\n        /* \"#utility.yul\":14501:14522   */\n      swap1\n      pop\n        /* \"#utility.yul\":14457:14892   */\n      jump(tag_518)\n    tag_520:\n        /* \"#utility.yul\":14461:14482   */\n      pop\n        /* \"#utility.yul\":14065:14898   */\n      pop\n      pop\n        /* \"#utility.yul\":13953:14898   */\n      swap4\n      swap3\n      pop\n      pop\n      pop\n      jump\t// out\n        /* \"#utility.yul\":14920:15310   */\n    tag_368:\n        /* \"#utility.yul\":15001:15006   */\n      0x00\n        /* \"#utility.yul\":15050:15053   */\n      dup3\n        /* \"#utility.yul\":15043:15047   */\n      0x1f\n        /* \"#utility.yul\":15035:15041   */\n      dup4\n        /* \"#utility.yul\":15031:15048   */\n      add\n        /* \"#utility.yul\":15027:15054   */\n      slt\n        /* \"#utility.yul\":15017:15139   */\n      tag_525\n      jumpi\n        /* \"#utility.yul\":15058:15137   */\n      tag_526\n      tag_331\n      jump\t// in\n    tag_526:\n        /* \"#utility.yul\":15017:15139   */\n    tag_525:\n        /* \"#utility.yul\":15175:15181   */\n      dup2\n        /* \"#utility.yul\":15162:15182   */\n      calldataload\n        /* \"#utility.yul\":15200:15304   */\n      tag_527\n        /* \"#utility.yul\":15300:15303   */\n      dup5\n        /* \"#utility.yul\":15292:15298   */\n      dup3\n        /* \"#utility.yul\":15285:15289   */\n      0x20\n        /* \"#utility.yul\":15277:15283   */\n      dup7\n        /* \"#utility.yul\":15273:15290   */\n      add\n        /* \"#utility.yul\":15200:15304   */\n      tag_367\n      jump\t// in\n    tag_527:\n        /* \"#utility.yul\":15191:15304   */\n      swap2\n      pop\n        /* \"#utility.yul\":15007:15310   */\n      pop\n        /* \"#utility.yul\":14920:15310   */\n      swap3\n      swap2\n      pop\n      pop\n      jump\t// out\n        /* \"#utility.yul\":15316:16345   */\n    tag_53:\n        /* \"#utility.yul\":15438:15444   */\n      0x00\n        /* \"#utility.yul\":15446:15452   */\n      dup1\n        /* \"#utility.yul\":15454:15460   */\n      0x00\n        /* \"#utility.yul\":15503:15505   */\n      0x60\n        /* \"#utility.yul\":15491:15500   */\n      dup5\n        /* \"#utility.yul\":15482:15489   */\n      dup7\n        /* \"#utility.yul\":15478:15501   */\n      sub\n        /* \"#utility.yul\":15474:15506   */\n      slt\n        /* \"#utility.yul\":15471:15590   */\n      iszero\n      tag_529\n      jumpi\n        /* \"#utility.yul\":15509:15588   */\n      tag_530\n      tag_329\n      jump\t// in\n    tag_530:\n        /* \"#utility.yul\":15471:15590   */\n    tag_529:\n        /* \"#utility.yul\":15657:15658   */\n      0x00\n        /* \"#utility.yul\":15646:15655   */\n      dup5\n        /* \"#utility.yul\":15642:15659   */\n      add\n        /* \"#utility.yul\":15629:15660   */\n      calldataload\n        /* \"#utility.yul\":15687:15705   */\n      0xffffffffffffffff\n        /* \"#utility.yul\":15679:15685   */\n      dup2\n        /* \"#utility.yul\":15676:15706   */\n      gt\n        /* \"#utility.yul\":15673:15790   */\n      iszero\n      tag_531\n      jumpi\n        /* \"#utility.yul\":15709:15788   */\n      tag_532\n      tag_330\n      jump\t// in\n    tag_532:\n        /* \"#utility.yul\":15673:15790   */\n    tag_531:\n        /* \"#utility.yul\":15814:15877   */\n      tag_533\n        /* \"#utility.yul\":15869:15876   */\n      dup7\n        /* \"#utility.yul\":15860:15866   */\n      dup3\n        /* \"#utility.yul\":15849:15858   */\n      dup8\n        /* \"#utility.yul\":15845:15867   */\n      add\n        /* \"#utility.yul\":15814:15877   */\n      tag_339\n      jump\t// in\n    tag_533:\n        /* \"#utility.yul\":15804:15877   */\n      swap4\n      pop\n        /* \"#utility.yul\":15600:15887   */\n      pop\n        /* \"#utility.yul\":15926:15928   */\n      0x20\n        /* \"#utility.yul\":15952:16005   */\n      tag_534\n        /* \"#utility.yul\":15997:16004   */\n      dup7\n        /* \"#utility.yul\":15988:15994   */\n      dup3\n        /* \"#utility.yul\":15977:15986   */\n      dup8\n        /* \"#utility.yul\":15973:15995   */\n      add\n        /* \"#utility.yul\":15952:16005   */\n      tag_361\n      jump\t// in\n    tag_534:\n        /* \"#utility.yul\":15942:16005   */\n      swap3\n      pop\n        /* \"#utility.yul\":15897:16015   */\n      pop\n        /* \"#utility.yul\":16082:16084   */\n      0x40\n        /* \"#utility.yul\":16071:16080   */\n      dup5\n        /* \"#utility.yul\":16067:16085   */\n      add\n        /* \"#utility.yul\":16054:16086   */\n      calldataload\n        /* \"#utility.yul\":16113:16131   */\n      0xffffffffffffffff\n        /* \"#utility.yul\":16105:16111   */\n      dup2\n        /* \"#utility.yul\":16102:16132   */\n      gt\n        /* \"#utility.yul\":16099:16216   */\n      iszero\n      tag_535\n      jumpi\n        /* \"#utility.yul\":16135:16214   */\n      tag_536\n      tag_330\n      jump\t// in\n    tag_536:\n        /* \"#utility.yul\":16099:16216   */\n    tag_535:\n        /* \"#utility.yul\":16240:16328   */\n      tag_537\n        /* \"#utility.yul\":16320:16327   */\n      dup7\n        /* \"#utility.yul\":16311:16317   */\n      dup3\n        /* \"#utility.yul\":16300:16309   */\n      dup8\n        /* \"#utility.yul\":16296:16318   */\n      add\n        /* \"#utility.yul\":16240:16328   */\n      tag_368\n      jump\t// in\n    tag_537:\n        /* \"#utility.yul\":16230:16328   */\n      swap2\n      pop\n        /* \"#utility.yul\":16025:16338   */\n      pop\n        /* \"#utility.yul\":15316:16345   */\n      swap3\n      pop\n      swap3\n      pop\n      swap3\n      jump\t// out\n        /* \"#utility.yul\":16351:16499   */\n    tag_369:\n        /* \"#utility.yul\":16453:16464   */\n      0x00\n        /* \"#utility.yul\":16490:16493   */\n      dup2\n        /* \"#utility.yul\":16475:16493   */\n      swap1\n      pop\n        /* \"#utility.yul\":16351:16499   */\n      swap3\n      swap2\n      pop\n      pop\n      jump\t// out\n        /* \"#utility.yul\":16505:16895   */\n    tag_370:\n        /* \"#utility.yul\":16611:16614   */\n      0x00\n        /* \"#utility.yul\":16639:16678   */\n      tag_540\n        /* \"#utility.yul\":16672:16677   */\n      dup3\n        /* \"#utility.yul\":16639:16678   */\n      tag_345\n      jump\t// in\n    tag_540:\n        /* \"#utility.yul\":16694:16783   */\n      tag_541\n        /* \"#utility.yul\":16776:16782   */\n      dup2\n        /* \"#utility.yul\":16771:16774   */\n      dup6\n        /* \"#utility.yul\":16694:16783   */\n      tag_369\n      jump\t// in\n    tag_541:\n        /* \"#utility.yul\":16687:16783   */\n      swap4\n      pop\n        /* \"#utility.yul\":16792:16857   */\n      tag_542\n        /* \"#utility.yul\":16850:16856   */\n      dup2\n        /* \"#utility.yul\":16845:16848   */\n      dup6\n        /* \"#utility.yul\":16838:16842   */\n      0x20\n        /* \"#utility.yul\":16831:16836   */\n      dup7\n        /* \"#utility.yul\":16827:16843   */\n      add\n        /* \"#utility.yul\":16792:16857   */\n      tag_347\n      jump\t// in\n    tag_542:\n        /* \"#utility.yul\":16882:16888   */\n      dup1\n        /* \"#utility.yul\":16877:16880   */\n      dup5\n        /* \"#utility.yul\":16873:16889   */\n      add\n        /* \"#utility.yul\":16866:16889   */\n      swap2\n      pop\n        /* \"#utility.yul\":16615:16895   */\n      pop\n        /* \"#utility.yul\":16505:16895   */\n      swap3\n      swap2\n      pop\n      pop\n      jump\t// out\n        /* \"#utility.yul\":16901:17176   */\n    tag_63:\n        /* \"#utility.yul\":17033:17036   */\n      0x00\n        /* \"#utility.yul\":17055:17150   */\n      tag_544\n        /* \"#utility.yul\":17146:17149   */\n      dup3\n        /* \"#utility.yul\":17137:17143   */\n      dup5\n        /* \"#utility.yul\":17055:17150   */\n      tag_370\n      jump\t// in\n    tag_544:\n        /* \"#utility.yul\":17048:17150   */\n      swap2\n      pop\n        /* \"#utility.yul\":17167:17170   */\n      dup2\n        /* \"#utility.yul\":17160:17170   */\n      swap1\n      pop\n        /* \"#utility.yul\":16901:17176   */\n      swap3\n      swap2\n      pop\n      pop\n      jump\t// out\n        /* \"#utility.yul\":17182:17362   */\n    tag_66:\n        /* \"#utility.yul\":17230:17307   */\n      0x4e487b7100000000000000000000000000000000000000000000000000000000\n        /* \"#utility.yul\":17227:17228   */\n      0x00\n        /* \"#utility.yul\":17220:17308   */\n      mstore\n        /* \"#utility.yul\":17327:17331   */\n      0x32\n        /* \"#utility.yul\":17324:17325   */\n      0x04\n        /* \"#utility.yul\":17317:17332   */\n      mstore\n        /* \"#utility.yul\":17351:17355   */\n      0x24\n        /* \"#utility.yul\":17348:17349   */\n      0x00\n        /* \"#utility.yul\":17341:17356   */\n      revert\n        /* \"#utility.yul\":17368:17548   */\n    tag_371:\n        /* \"#utility.yul\":17416:17493   */\n      0x4e487b7100000000000000000000000000000000000000000000000000000000\n        /* \"#utility.yul\":17413:17414   */\n      0x00\n        /* \"#utility.yul\":17406:17494   */\n      mstore\n        /* \"#utility.yul\":17513:17517   */\n      0x22\n        /* \"#utility.yul\":17510:17511   */\n      0x04\n        /* \"#utility.yul\":17503:17518   */\n      mstore\n        /* \"#utility.yul\":17537:17541   */\n      0x24\n        /* \"#utility.yul\":17534:17535   */\n      0x00\n        /* \"#utility.yul\":17527:17542   */\n      revert\n        /* \"#utility.yul\":17554:17874   */\n    tag_110:\n        /* \"#utility.yul\":17598:17604   */\n      0x00\n        /* \"#utility.yul\":17635:17636   */\n      0x02\n        /* \"#utility.yul\":17629:17633   */\n      dup3\n        /* \"#utility.yul\":17625:17637   */\n      div\n        /* \"#utility.yul\":17615:17637   */\n      swap1\n      pop\n        /* \"#utility.yul\":17682:17683   */\n      0x01\n        /* \"#utility.yul\":17676:17680   */\n      dup3\n        /* \"#utility.yul\":17672:17684   */\n      and\n        /* \"#utility.yul\":17703:17721   */\n      dup1\n        /* \"#utility.yul\":17693:17774   */\n      tag_548\n      jumpi\n        /* \"#utility.yul\":17759:17763   */\n      0x7f\n        /* \"#utility.yul\":17751:17757   */\n      dup3\n        /* \"#utility.yul\":17747:17764   */\n      and\n        /* \"#utility.yul\":17737:17764   */\n      swap2\n      pop\n        /* \"#utility.yul\":17693:17774   */\n    tag_548:\n        /* \"#utility.yul\":17821:17823   */\n      0x20\n        /* \"#utility.yul\":17813:17819   */\n      dup3\n        /* \"#utility.yul\":17810:17824   */\n      lt\n        /* \"#utility.yul\":17790:17808   */\n      dup2\n        /* \"#utility.yul\":17787:17825   */\n      sub\n        /* \"#utility.yul\":17784:17868   */\n      tag_549\n      jumpi\n        /* \"#utility.yul\":17840:17858   */\n      tag_550\n      tag_371\n      jump\t// in\n    tag_550:\n        /* \"#utility.yul\":17784:17868   */\n    tag_549:\n        /* \"#utility.yul\":17605:17874   */\n      pop\n        /* \"#utility.yul\":17554:17874   */\n      swap2\n      swap1\n      pop\n      jump\t// out\n        /* \"#utility.yul\":17880:18021   */\n    tag_372:\n        /* \"#utility.yul\":17929:17933   */\n      0x00\n        /* \"#utility.yul\":17952:17955   */\n      dup2\n        /* \"#utility.yul\":17944:17955   */\n      swap1\n      pop\n        /* \"#utility.yul\":17975:17978   */\n      dup2\n        /* \"#utility.yul\":17972:17973   */\n      0x00\n        /* \"#utility.yul\":17965:17979   */\n      mstore\n        /* \"#utility.yul\":18009:18013   */\n      0x20\n        /* \"#utility.yul\":18006:18007   */\n      0x00\n        /* \"#utility.yul\":17996:18014   */\n      keccak256\n        /* \"#utility.yul\":17988:18014   */\n      swap1\n      pop\n        /* \"#utility.yul\":17880:18021   */\n      swap2\n      swap1\n      pop\n      jump\t// out\n        /* \"#utility.yul\":18051:18925   */\n    tag_373:\n        /* \"#utility.yul\":18154:18157   */\n      0x00\n        /* \"#utility.yul\":18191:18196   */\n      dup2\n        /* \"#utility.yul\":18185:18197   */\n      sload\n        /* \"#utility.yul\":18220:18256   */\n      tag_553\n        /* \"#utility.yul\":18246:18255   */\n      dup2\n        /* \"#utility.yul\":18220:18256   */\n      tag_110\n      jump\t// in\n    tag_553:\n        /* \"#utility.yul\":18272:18361   */\n      tag_554\n        /* \"#utility.yul\":18354:18360   */\n      dup2\n        /* \"#utility.yul\":18349:18352   */\n      dup7\n        /* \"#utility.yul\":18272:18361   */\n      tag_369\n      jump\t// in\n    tag_554:\n        /* \"#utility.yul\":18265:18361   */\n      swap5\n      pop\n        /* \"#utility.yul\":18392:18393   */\n      0x01\n        /* \"#utility.yul\":18381:18390   */\n      dup3\n        /* \"#utility.yul\":18377:18394   */\n      and\n        /* \"#utility.yul\":18408:18409   */\n      0x00\n        /* \"#utility.yul\":18403:18569   */\n      dup2\n      eq\n      tag_556\n      jumpi\n        /* \"#utility.yul\":18583:18584   */\n      0x01\n        /* \"#utility.yul\":18578:18919   */\n      dup2\n      eq\n      tag_557\n      jumpi\n        /* \"#utility.yul\":18370:18919   */\n      jump(tag_555)\n        /* \"#utility.yul\":18403:18569   */\n    tag_556:\n        /* \"#utility.yul\":18487:18491   */\n      0xff\n        /* \"#utility.yul\":18483:18492   */\n      not\n        /* \"#utility.yul\":18472:18481   */\n      dup4\n        /* \"#utility.yul\":18468:18493   */\n      and\n        /* \"#utility.yul\":18463:18466   */\n      dup7\n        /* \"#utility.yul\":18456:18494   */\n      mstore\n        /* \"#utility.yul\":18549:18555   */\n      dup2\n        /* \"#utility.yul\":18542:18556   */\n      iszero\n        /* \"#utility.yul\":18535:18557   */\n      iszero\n        /* \"#utility.yul\":18527:18533   */\n      dup3\n        /* \"#utility.yul\":18523:18558   */\n      mul\n        /* \"#utility.yul\":18518:18521   */\n      dup7\n        /* \"#utility.yul\":18514:18559   */\n      add\n        /* \"#utility.yul\":18507:18559   */\n      swap4\n      pop\n        /* \"#utility.yul\":18403:18569   */\n      jump(tag_555)\n        /* \"#utility.yul\":18578:18919   */\n    tag_557:\n        /* \"#utility.yul\":18645:18683   */\n      tag_558\n        /* \"#utility.yul\":18677:18682   */\n      dup6\n        /* \"#utility.yul\":18645:18683   */\n      tag_372\n      jump\t// in\n    tag_558:\n        /* \"#utility.yul\":18705:18706   */\n      0x00\n        /* \"#utility.yul\":18719:18873   */\n    tag_559:\n        /* \"#utility.yul\":18733:18739   */\n      dup4\n        /* \"#utility.yul\":18730:18731   */\n      dup2\n        /* \"#utility.yul\":18727:18740   */\n      lt\n        /* \"#utility.yul\":18719:18873   */\n      iszero\n      tag_561\n      jumpi\n        /* \"#utility.yul\":18807:18814   */\n      dup2\n        /* \"#utility.yul\":18801:18815   */\n      sload\n        /* \"#utility.yul\":18797:18798   */\n      dup2\n        /* \"#utility.yul\":18792:18795   */\n      dup10\n        /* \"#utility.yul\":18788:18799   */\n      add\n        /* \"#utility.yul\":18781:18816   */\n      mstore\n        /* \"#utility.yul\":18857:18858   */\n      0x01\n        /* \"#utility.yul\":18848:18855   */\n      dup3\n        /* \"#utility.yul\":18844:18859   */\n      add\n        /* \"#utility.yul\":18833:18859   */\n      swap2\n      pop\n        /* \"#utility.yul\":18755:18759   */\n      0x20\n        /* \"#utility.yul\":18752:18753   */\n      dup2\n        /* \"#utility.yul\":18748:18760   */\n      add\n        /* \"#utility.yul\":18743:18760   */\n      swap1\n      pop\n        /* \"#utility.yul\":18719:18873   */\n      jump(tag_559)\n    tag_561:\n        /* \"#utility.yul\":18902:18908   */\n      dup4\n        /* \"#utility.yul\":18897:18900   */\n      dup9\n        /* \"#utility.yul\":18893:18909   */\n      add\n        /* \"#utility.yul\":18886:18909   */\n      swap6\n      pop\n        /* \"#utility.yul\":18585:18919   */\n      pop\n      pop\n        /* \"#utility.yul\":18370:18919   */\n    tag_555:\n      pop\n        /* \"#utility.yul\":18158:18925   */\n      pop\n      pop\n        /* \"#utility.yul\":18051:18925   */\n      swap3\n      swap2\n      pop\n      pop\n      jump\t// out\n        /* \"#utility.yul\":18931:19200   */\n    tag_69:\n        /* \"#utility.yul\":19060:19063   */\n      0x00\n        /* \"#utility.yul\":19082:19174   */\n      tag_563\n        /* \"#utility.yul\":19170:19173   */\n      dup3\n        /* \"#utility.yul\":19161:19167   */\n      dup5\n        /* \"#utility.yul\":19082:19174   */\n      tag_373\n      jump\t// in\n    tag_563:\n        /* \"#utility.yul\":19075:19174   */\n      swap2\n      pop\n        /* \"#utility.yul\":19191:19194   */\n      dup2\n        /* \"#utility.yul\":19184:19194   */\n      swap1\n      pop\n        /* \"#utility.yul\":18931:19200   */\n      swap3\n      swap2\n      pop\n      pop\n      jump\t// out\n        /* \"#utility.yul\":19206:19375   */\n    tag_374:\n        /* \"#utility.yul\":19290:19301   */\n      0x00\n        /* \"#utility.yul\":19324:19330   */\n      dup3\n        /* \"#utility.yul\":19319:19322   */\n      dup3\n        /* \"#utility.yul\":19312:19331   */\n      mstore\n        /* \"#utility.yul\":19364:19368   */\n      0x20\n        /* \"#utility.yul\":19359:19362   */\n      dup3\n        /* \"#utility.yul\":19355:19369   */\n      add\n        /* \"#utility.yul\":19340:19369   */\n      swap1\n      pop\n        /* \"#utility.yul\":19206:19375   */\n      swap3\n      swap2\n      pop\n      pop\n      jump\t// out\n        /* \"#utility.yul\":19381:19538   */\n    tag_375:\n        /* \"#utility.yul\":19521:19530   */\n      0x4e6f206461746100000000000000000000000000000000000000000000000000\n        /* \"#utility.yul\":19517:19518   */\n      0x00\n        /* \"#utility.yul\":19509:19515   */\n      dup3\n        /* \"#utility.yul\":19505:19519   */\n      add\n        /* \"#utility.yul\":19498:19531   */\n      mstore\n        /* \"#utility.yul\":19381:19538   */\n      pop\n      jump\t// out\n        /* \"#utility.yul\":19544:19909   */\n    tag_376:\n        /* \"#utility.yul\":19686:19689   */\n      0x00\n        /* \"#utility.yul\":19707:19773   */\n      tag_567\n        /* \"#utility.yul\":19771:19772   */\n      0x07\n        /* \"#utility.yul\":19766:19769   */\n      dup4\n        /* \"#utility.yul\":19707:19773   */\n      tag_374\n      jump\t// in\n    tag_567:\n        /* \"#utility.yul\":19700:19773   */\n      swap2\n      pop\n        /* \"#utility.yul\":19782:19875   */\n      tag_568\n        /* \"#utility.yul\":19871:19874   */\n      dup3\n        /* \"#utility.yul\":19782:19875   */\n      tag_375\n      jump\t// in\n    tag_568:\n        /* \"#utility.yul\":19900:19902   */\n      0x20\n        /* \"#utility.yul\":19895:19898   */\n      dup3\n        /* \"#utility.yul\":19891:19903   */\n      add\n        /* \"#utility.yul\":19884:19903   */\n      swap1\n      pop\n        /* \"#utility.yul\":19544:19909   */\n      swap2\n      swap1\n      pop\n      jump\t// out\n        /* \"#utility.yul\":19915:20334   */\n    tag_77:\n        /* \"#utility.yul\":20081:20085   */\n      0x00\n        /* \"#utility.yul\":20119:20121   */\n      0x20\n        /* \"#utility.yul\":20108:20117   */\n      dup3\n        /* \"#utility.yul\":20104:20122   */\n      add\n        /* \"#utility.yul\":20096:20122   */\n      swap1\n      pop\n        /* \"#utility.yul\":20168:20177   */\n      dup2\n        /* \"#utility.yul\":20162:20166   */\n      dup2\n        /* \"#utility.yul\":20158:20178   */\n      sub\n        /* \"#utility.yul\":20154:20155   */\n      0x00\n        /* \"#utility.yul\":20143:20152   */\n      dup4\n        /* \"#utility.yul\":20139:20156   */\n      add\n        /* \"#utility.yul\":20132:20179   */\n      mstore\n        /* \"#utility.yul\":20196:20327   */\n      tag_570\n        /* \"#utility.yul\":20322:20326   */\n      dup2\n        /* \"#utility.yul\":20196:20327   */\n      tag_376\n      jump\t// in\n    tag_570:\n        /* \"#utility.yul\":20188:20327   */\n      swap1\n      pop\n        /* \"#utility.yul\":19915:20334   */\n      swap2\n      swap1\n      pop\n      jump\t// out\n        /* \"#utility.yul\":20340:20491   */\n    tag_377:\n        /* \"#utility.yul\":20480:20483   */\n      0x4600000000000000000000000000000000000000000000000000000000000000\n        /* \"#utility.yul\":20476:20477   */\n      0x00\n        /* \"#utility.yul\":20468:20474   */\n      dup3\n        /* \"#utility.yul\":20464:20478   */\n      add\n        /* \"#utility.yul\":20457:20484   */\n      mstore\n        /* \"#utility.yul\":20340:20491   */\n      pop\n      jump\t// out\n        /* \"#utility.yul\":20497:20897   */\n    tag_378:\n        /* \"#utility.yul\":20657:20660   */\n      0x00\n        /* \"#utility.yul\":20678:20762   */\n      tag_573\n        /* \"#utility.yul\":20760:20761   */\n      0x01\n        /* \"#utility.yul\":20755:20758   */\n      dup4\n        /* \"#utility.yul\":20678:20762   */\n      tag_369\n      jump\t// in\n    tag_573:\n        /* \"#utility.yul\":20671:20762   */\n      swap2\n      pop\n        /* \"#utility.yul\":20771:20864   */\n      tag_574\n        /* \"#utility.yul\":20860:20863   */\n      dup3\n        /* \"#utility.yul\":20771:20864   */\n      tag_377\n      jump\t// in\n    tag_574:\n        /* \"#utility.yul\":20889:20890   */\n      0x01\n        /* \"#utility.yul\":20884:20887   */\n      dup3\n        /* \"#utility.yul\":20880:20891   */\n      add\n        /* \"#utility.yul\":20873:20891   */\n      swap1\n      pop\n        /* \"#utility.yul\":20497:20897   */\n      swap2\n      swap1\n      pop\n      jump\t// out\n        /* \"#utility.yul\":20903:21284   */\n    tag_82:\n        /* \"#utility.yul\":21088:21091   */\n      0x00\n        /* \"#utility.yul\":21110:21258   */\n      tag_576\n        /* \"#utility.yul\":21254:21257   */\n      dup3\n        /* \"#utility.yul\":21110:21258   */\n      tag_378\n      jump\t// in\n    tag_576:\n        /* \"#utility.yul\":21103:21258   */\n      swap2\n      pop\n        /* \"#utility.yul\":21275:21278   */\n      dup2\n        /* \"#utility.yul\":21268:21278   */\n      swap1\n      pop\n        /* \"#utility.yul\":20903:21284   */\n      swap2\n      swap1\n      pop\n      jump\t// out\n        /* \"#utility.yul\":21290:21470   */\n    tag_379:\n        /* \"#utility.yul\":21338:21415   */\n      0x4e487b7100000000000000000000000000000000000000000000000000000000\n        /* \"#utility.yul\":21335:21336   */\n      0x00\n        /* \"#utility.yul\":21328:21416   */\n      mstore\n        /* \"#utility.yul\":21435:21439   */\n      0x11\n        /* \"#utility.yul\":21432:21433   */\n      0x04\n        /* \"#utility.yul\":21425:21440   */\n      mstore\n        /* \"#utility.yul\":21459:21463   */\n      0x24\n        /* \"#utility.yul\":21456:21457   */\n      0x00\n        /* \"#utility.yul\":21449:21464   */\n      revert\n        /* \"#utility.yul\":21476:21709   */\n    tag_89:\n        /* \"#utility.yul\":21515:21518   */\n      0x00\n        /* \"#utility.yul\":21538:21562   */\n      tag_579\n        /* \"#utility.yul\":21556:21561   */\n      dup3\n        /* \"#utility.yul\":21538:21562   */\n      tag_340\n      jump\t// in\n    tag_579:\n        /* \"#utility.yul\":21529:21562   */\n      swap2\n      pop\n        /* \"#utility.yul\":21584:21650   */\n      0xffffffffffffffffffffffffffffffffffffffffffffffffffffffffffffffff\n        /* \"#utility.yul\":21577:21582   */\n      dup3\n        /* \"#utility.yul\":21574:21651   */\n      sub\n        /* \"#utility.yul\":21571:21674   */\n      tag_580\n      jumpi\n        /* \"#utility.yul\":21654:21672   */\n      tag_581\n      tag_379\n      jump\t// in\n    tag_581:\n        /* \"#utility.yul\":21571:21674   */\n    tag_580:\n        /* \"#utility.yul\":21701:21702   */\n      0x01\n        /* \"#utility.yul\":21694:21699   */\n      dup3\n        /* \"#utility.yul\":21690:21703   */\n      add\n        /* \"#utility.yul\":21683:21703   */\n      swap1\n      pop\n        /* \"#utility.yul\":21476:21709   */\n      swap2\n      swap1\n      pop\n      jump\t// out\n        /* \"#utility.yul\":21715:21909   */\n    tag_134:\n        /* \"#utility.yul\":21755:21759   */\n      0x00\n        /* \"#utility.yul\":21775:21795   */\n      tag_583\n        /* \"#utility.yul\":21793:21794   */\n      dup3\n        /* \"#utility.yul\":21775:21795   */\n      tag_340\n      jump\t// in\n    tag_583:\n        /* \"#utility.yul\":21770:21795   */\n      swap2\n      pop\n        /* \"#utility.yul\":21809:21829   */\n      tag_584\n        /* \"#utility.yul\":21827:21828   */\n      dup4\n        /* \"#utility.yul\":21809:21829   */\n      tag_340\n      jump\t// in\n    tag_584:\n        /* \"#utility.yul\":21804:21829   */\n      swap3\n      pop\n        /* \"#utility.yul\":21853:21854   */\n      dup3\n        /* \"#utility.yul\":21850:21851   */\n      dup3\n        /* \"#utility.yul\":21846:21855   */\n      sub\n        /* \"#utility.yul\":21838:21855   */\n      swap1\n      pop\n        /* \"#utility.yul\":21877:21878   */\n      dup2\n        /* \"#utility.yul\":21871:21875   */\n      dup2\n        /* \"#utility.yul\":21868:21879   */\n      gt\n        /* \"#utility.yul\":21865:21902   */\n      iszero\n      tag_585\n      jumpi\n        /* \"#utility.yul\":21882:21900   */\n      tag_586\n      tag_379\n      jump\t// in\n    tag_586:\n        /* \"#utility.yul\":21865:21902   */\n    tag_585:\n        /* \"#utility.yul\":21715:21909   */\n      swap3\n      swap2\n      pop\n      pop\n      jump\t// out\n        /* \"#utility.yul\":21915:22106   */\n    tag_164:\n        /* \"#utility.yul\":21955:21958   */\n      0x00\n        /* \"#utility.yul\":21974:21994   */\n      tag_588\n        /* \"#utility.yul\":21992:21993   */\n      dup3\n        /* \"#utility.yul\":21974:21994   */\n      tag_340\n      jump\t// in\n    tag_588:\n        /* \"#utility.yul\":21969:21994   */\n      swap2\n      pop\n        /* \"#utility.yul\":22008:22028   */\n      tag_589\n        /* \"#utility.yul\":22026:22027   */\n      dup4\n        /* \"#utility.yul\":22008:22028   */\n      tag_340\n      jump\t// in\n    tag_589:\n        /* \"#utility.yul\":22003:22028   */\n      swap3\n      pop\n        /* \"#utility.yul\":22051:22052   */\n      dup3\n        /* \"#utility.yul\":22048:22049   */\n      dup3\n        /* \"#utility.yul\":22044:22053   */\n      add\n        /* \"#utility.yul\":22037:22053   */\n      swap1\n      pop\n        /* \"#utility.yul\":22072:22075   */\n      dup1\n        /* \"#utility.yul\":22069:22070   */\n      dup3\n        /* \"#utility.yul\":22066:22076   */\n      gt\n        /* \"#utility.yul\":22063:22099   */\n      iszero\n      tag_590\n      jumpi\n        /* \"#utility.yul\":22079:22097   */\n      tag_591\n      tag_379\n      jump\t// in\n    tag_591:\n        /* \"#utility.yul\":22063:22099   */\n    tag_590:\n        /* \"#utility.yul\":21915:22106   */\n      swap3\n      swap2\n      pop\n      pop\n      jump\t// out\n        /* \"#utility.yul\":22112:22292   */\n    tag_380:\n        /* \"#utility.yul\":22160:22237   */\n      0x4e487b7100000000000000000000000000000000000000000000000000000000\n        /* \"#utility.yul\":22157:22158   */\n      0x00\n        /* \"#utility.yul\":22150:22238   */\n      mstore\n        /* \"#utility.yul\":22257:22261   */\n      0x12\n        /* \"#utility.yul\":22254:22255   */\n      0x04\n        /* \"#utility.yul\":22247:22262   */\n      mstore\n        /* \"#utility.yul\":22281:22285   */\n      0x24\n        /* \"#utility.yul\":22278:22279   */\n      0x00\n        /* \"#utility.yul\":22271:22286   */\n      revert\n        /* \"#utility.yul\":22298:22483   */\n    tag_166:\n        /* \"#utility.yul\":22338:22339   */\n      0x00\n        /* \"#utility.yul\":22355:22375   */\n      tag_594\n        /* \"#utility.yul\":22373:22374   */\n      dup3\n        /* \"#utility.yul\":22355:22375   */\n      tag_340\n      jump\t// in\n    tag_594:\n        /* \"#utility.yul\":22350:22375   */\n      swap2\n      pop\n        /* \"#utility.yul\":22389:22409   */\n      tag_595\n        /* \"#utility.yul\":22407:22408   */\n      dup4\n        /* \"#utility.yul\":22389:22409   */\n      tag_340\n      jump\t// in\n    tag_595:\n        /* \"#utility.yul\":22384:22409   */\n      swap3\n      pop\n        /* \"#utility.yul\":22428:22429   */\n      dup3\n        /* \"#utility.yul\":22418:22453   */\n      tag_596\n      jumpi\n        /* \"#utility.yul\":22433:22451   */\n      tag_597\n      tag_380\n      jump\t// in\n    tag_597:\n        /* \"#utility.yul\":22418:22453   */\n    tag_596:\n        /* \"#utility.yul\":22475:22476   */\n      dup3\n        /* \"#utility.yul\":22472:22473   */\n      dup3\n        /* \"#utility.yul\":22468:22477   */\n      div\n        /* \"#utility.yul\":22463:22477   */\n      swap1\n      pop\n        /* \"#utility.yul\":22298:22483   */\n      swap3\n      swap2\n      pop\n      pop\n      jump\t// out\n        /* \"#utility.yul\":22489:22582   */\n    tag_381:\n        /* \"#utility.yul\":22526:22532   */\n      0x00\n        /* \"#utility.yul\":22573:22575   */\n      0x20\n        /* \"#utility.yul\":22568:22570   */\n      0x1f\n        /* \"#utility.yul\":22561:22566   */\n      dup4\n        /* \"#utility.yul\":22557:22571   */\n      add\n        /* \"#utility.yul\":22553:22576   */\n      div\n        /* \"#utility.yul\":22543:22576   */\n      swap1\n      pop\n        /* \"#utility.yul\":22489:22582   */\n      swap2\n      swap1\n      pop\n      jump\t// out\n        /* \"#utility.yul\":22588:22695   */\n    tag_382:\n        /* \"#utility.yul\":22632:22640   */\n      0x00\n        /* \"#utility.yul\":22682:22687   */\n      dup3\n        /* \"#utility.yul\":22676:22680   */\n      dup3\n        /* \"#utility.yul\":22672:22688   */\n      shl\n        /* \"#utility.yul\":22651:22688   */\n      swap1\n      pop\n        /* \"#utility.yul\":22588:22695   */\n      swap3\n      swap2\n      pop\n      pop\n      jump\t// out\n        /* \"#utility.yul\":22701:23094   */\n    tag_383:\n        /* \"#utility.yul\":22770:22776   */\n      0x00\n        /* \"#utility.yul\":22820:22821   */\n      0x08\n        /* \"#utility.yul\":22808:22818   */\n      dup4\n        /* \"#utility.yul\":22804:22822   */\n      mul\n        /* \"#utility.yul\":22843:22940   */\n      tag_601\n        /* \"#utility.yul\":22873:22939   */\n      0xffffffffffffffffffffffffffffffffffffffffffffffffffffffffffffffff\n        /* \"#utility.yul\":22862:22871   */\n      dup3\n        /* \"#utility.yul\":22843:22940   */\n      tag_382\n      jump\t// in\n    tag_601:\n        /* \"#utility.yul\":22961:23000   */\n      tag_602\n        /* \"#utility.yul\":22991:22999   */\n      dup7\n        /* \"#utility.yul\":22980:22989   */\n      dup4\n        /* \"#utility.yul\":22961:23000   */\n      tag_382\n      jump\t// in\n    tag_602:\n        /* \"#utility.yul\":22949:23000   */\n      swap6\n      pop\n        /* \"#utility.yul\":23033:23037   */\n      dup1\n        /* \"#utility.yul\":23029:23038   */\n      not\n        /* \"#utility.yul\":23022:23027   */\n      dup5\n        /* \"#utility.yul\":23018:23039   */\n      and\n        /* \"#utility.yul\":23009:23039   */\n      swap4\n      pop\n        /* \"#utility.yul\":23082:23086   */\n      dup1\n        /* \"#utility.yul\":23072:23080   */\n      dup7\n        /* \"#utility.yul\":23068:23087   */\n      and\n        /* \"#utility.yul\":23061:23066   */\n      dup5\n        /* \"#utility.yul\":23058:23088   */\n      or\n        /* \"#utility.yul\":23048:23088   */\n      swap3\n      pop\n        /* \"#utility.yul\":22777:23094   */\n      pop\n      pop\n        /* \"#utility.yul\":22701:23094   */\n      swap4\n      swap3\n      pop\n      pop\n      pop\n      jump\t// out\n        /* \"#utility.yul\":23100:23160   */\n    tag_384:\n        /* \"#utility.yul\":23128:23131   */\n      0x00\n        /* \"#utility.yul\":23149:23154   */\n      dup2\n        /* \"#utility.yul\":23142:23154   */\n      swap1\n      pop\n        /* \"#utility.yul\":23100:23160   */\n      swap2\n      swap1\n      pop\n      jump\t// out\n        /* \"#utility.yul\":23166:23308   */\n    tag_385:\n        /* \"#utility.yul\":23216:23225   */\n      0x00\n        /* \"#utility.yul\":23249:23302   */\n      tag_605\n        /* \"#utility.yul\":23267:23301   */\n      tag_606\n        /* \"#utility.yul\":23276:23300   */\n      tag_607\n        /* \"#utility.yul\":23294:23299   */\n      dup5\n        /* \"#utility.yul\":23276:23300   */\n      tag_340\n      jump\t// in\n    tag_607:\n        /* \"#utility.yul\":23267:23301   */\n      tag_384\n      jump\t// in\n    tag_606:\n        /* \"#utility.yul\":23249:23302   */\n      tag_340\n      jump\t// in\n    tag_605:\n        /* \"#utility.yul\":23236:23302   */\n      swap1\n      pop\n        /* \"#utility.yul\":23166:23308   */\n      swap2\n      swap1\n      pop\n      jump\t// out\n        /* \"#utility.yul\":23314:23389   */\n    tag_386:\n        /* \"#utility.yul\":23357:23360   */\n      0x00\n        /* \"#utility.yul\":23378:23383   */\n      dup2\n        /* \"#utility.yul\":23371:23383   */\n      swap1\n      pop\n        /* \"#utility.yul\":23314:23389   */\n      swap2\n      swap1\n      pop\n      jump\t// out\n        /* \"#utility.yul\":23395:23664   */\n    tag_387:\n        /* \"#utility.yul\":23505:23544   */\n      tag_610\n        /* \"#utility.yul\":23536:23543   */\n      dup4\n        /* \"#utility.yul\":23505:23544   */\n      tag_385\n      jump\t// in\n    tag_610:\n        /* \"#utility.yul\":23566:23657   */\n      tag_611\n        /* \"#utility.yul\":23615:23656   */\n      tag_612\n        /* \"#utility.yul\":23639:23655   */\n      dup3\n        /* \"#utility.yul\":23615:23656   */\n      tag_386\n      jump\t// in\n    tag_612:\n        /* \"#utility.yul\":23607:23613   */\n      dup5\n        /* \"#utility.yul\":23600:23604   */\n      dup5\n        /* \"#utility.yul\":23594:23605   */\n      sload\n        /* \"#utility.yul\":23566:23657   */\n      tag_383\n      jump\t// in\n    tag_611:\n        /* \"#utility.yul\":23560:23564   */\n      dup3\n        /* \"#utility.yul\":23553:23658   */\n      sstore\n        /* \"#utility.yul\":23471:23664   */\n      pop\n        /* \"#utility.yul\":23395:23664   */\n      pop\n      pop\n      pop\n      jump\t// out\n        /* \"#utility.yul\":23670:23743   */\n    tag_388:\n        /* \"#utility.yul\":23715:23718   */\n      0x00\n        /* \"#utility.yul\":23670:23743   */\n      swap1\n      jump\t// out\n        /* \"#utility.yul\":23749:23938   */\n    tag_389:\n        /* \"#utility.yul\":23826:23858   */\n      tag_615\n      tag_388\n      jump\t// in\n    tag_615:\n        /* \"#utility.yul\":23867:23932   */\n      tag_616\n        /* \"#utility.yul\":23925:23931   */\n      dup2\n        /* \"#utility.yul\":23917:23923   */\n      dup5\n        /* \"#utility.yul\":23911:23915   */\n      dup5\n        /* \"#utility.yul\":23867:23932   */\n      tag_387\n      jump\t// in\n    tag_616:\n        /* \"#utility.yul\":23802:23938   */\n      pop\n        /* \"#utility.yul\":23749:23938   */\n      pop\n      pop\n      jump\t// out\n        /* \"#utility.yul\":23944:24130   */\n    tag_390:\n        /* \"#utility.yul\":24004:24124   */\n    tag_618:\n        /* \"#utility.yul\":24021:24024   */\n      dup2\n        /* \"#utility.yul\":24014:24019   */\n      dup2\n        /* \"#utility.yul\":24011:24025   */\n      lt\n        /* \"#utility.yul\":24004:24124   */\n      iszero\n      tag_620\n      jumpi\n        /* \"#utility.yul\":24075:24114   */\n      tag_621\n        /* \"#utility.yul\":24112:24113   */\n      0x00\n        /* \"#utility.yul\":24105:24110   */\n      dup3\n        /* \"#utility.yul\":24075:24114   */\n      tag_389\n      jump\t// in\n    tag_621:\n        /* \"#utility.yul\":24048:24049   */\n      0x01\n        /* \"#utility.yul\":24041:24046   */\n      dup2\n        /* \"#utility.yul\":24037:24050   */\n      add\n        /* \"#utility.yul\":24028:24050   */\n      swap1\n      pop\n        /* \"#utility.yul\":24004:24124   */\n      jump(tag_618)\n    tag_620:\n        /* \"#utility.yul\":23944:24130   */\n      pop\n      pop\n      jump\t// out\n        /* \"#utility.yul\":24136:24679   */\n    tag_391:\n        /* \"#utility.yul\":24237:24239   */\n      0x1f\n        /* \"#utility.yul\":24232:24235   */\n      dup3\n        /* \"#utility.yul\":24229:24240   */\n      gt\n        /* \"#utility.yul\":24226:24672   */\n      iszero\n      tag_623\n      jumpi\n        /* \"#utility.yul\":24271:24309   */\n      tag_624\n        /* \"#utility.yul\":24303:24308   */\n      dup2\n        /* \"#utility.yul\":24271:24309   */\n      tag_372\n      jump\t// in\n    tag_624:\n        /* \"#utility.yul\":24355:24384   */\n      tag_625\n        /* \"#utility.yul\":24373:24383   */\n      dup5\n        /* \"#utility.yul\":24355:24384   */\n      tag_381\n      jump\t// in\n    tag_625:\n        /* \"#utility.yul\":24345:24353   */\n      dup2\n        /* \"#utility.yul\":24341:24385   */\n      add\n        /* \"#utility.yul\":24538:24540   */\n      0x20\n        /* \"#utility.yul\":24526:24536   */\n      dup6\n        /* \"#utility.yul\":24523:24541   */\n      lt\n        /* \"#utility.yul\":24520:24569   */\n      iszero\n      tag_626\n      jumpi\n        /* \"#utility.yul\":24559:24567   */\n      dup2\n        /* \"#utility.yul\":24544:24567   */\n      swap1\n      pop\n        /* \"#utility.yul\":24520:24569   */\n    tag_626:\n        /* \"#utility.yul\":24582:24662   */\n      tag_627\n        /* \"#utility.yul\":24638:24660   */\n      tag_628\n        /* \"#utility.yul\":24656:24659   */\n      dup6\n        /* \"#utility.yul\":24638:24660   */\n      tag_381\n      jump\t// in\n    tag_628:\n        /* \"#utility.yul\":24628:24636   */\n      dup4\n        /* \"#utility.yul\":24624:24661   */\n      add\n        /* \"#utility.yul\":24611:24622   */\n      dup3\n        /* \"#utility.yul\":24582:24662   */\n      tag_390\n      jump\t// in\n    tag_627:\n        /* \"#utility.yul\":24241:24672   */\n      pop\n      pop\n        /* \"#utility.yul\":24226:24672   */\n    tag_623:\n        /* \"#utility.yul\":24136:24679   */\n      pop\n      pop\n      pop\n      jump\t// out\n        /* \"#utility.yul\":24685:24802   */\n    tag_392:\n        /* \"#utility.yul\":24739:24747   */\n      0x00\n        /* \"#utility.yul\":24789:24794   */\n      dup3\n        /* \"#utility.yul\":24783:24787   */\n      dup3\n        /* \"#utility.yul\":24779:24795   */\n      shr\n        /* \"#utility.yul\":24758:24795   */\n      swap1\n      pop\n        /* \"#utility.yul\":24685:24802   */\n      swap3\n      swap2\n      pop\n      pop\n      jump\t// out\n        /* \"#utility.yul\":24808:24977   */\n    tag_393:\n        /* \"#utility.yul\":24852:24858   */\n      0x00\n        /* \"#utility.yul\":24885:24936   */\n      tag_631\n        /* \"#utility.yul\":24933:24934   */\n      0x00\n        /* \"#utility.yul\":24929:24935   */\n      not\n        /* \"#utility.yul\":24921:24926   */\n      dup5\n        /* \"#utility.yul\":24918:24919   */\n      0x08\n        /* \"#utility.yul\":24914:24927   */\n      mul\n        /* \"#utility.yul\":24885:24936   */\n      tag_392\n      jump\t// in\n    tag_631:\n        /* \"#utility.yul\":24881:24937   */\n      not\n        /* \"#utility.yul\":24966:24970   */\n      dup1\n        /* \"#utility.yul\":24960:24964   */\n      dup4\n        /* \"#utility.yul\":24956:24971   */\n      and\n        /* \"#utility.yul\":24946:24971   */\n      swap2\n      pop\n        /* \"#utility.yul\":24859:24977   */\n      pop\n        /* \"#utility.yul\":24808:24977   */\n      swap3\n      swap2\n      pop\n      pop\n      jump\t// out\n        /* \"#utility.yul\":24982:25277   */\n    tag_394:\n        /* \"#utility.yul\":25058:25062   */\n      0x00\n        /* \"#utility.yul\":25204:25233   */\n      tag_633\n        /* \"#utility.yul\":25229:25232   */\n      dup4\n        /* \"#utility.yul\":25223:25227   */\n      dup4\n        /* \"#utility.yul\":25204:25233   */\n      tag_393\n      jump\t// in\n    tag_633:\n        /* \"#utility.yul\":25196:25233   */\n      swap2\n      pop\n        /* \"#utility.yul\":25266:25269   */\n      dup3\n        /* \"#utility.yul\":25263:25264   */\n      0x02\n        /* \"#utility.yul\":25259:25270   */\n      mul\n        /* \"#utility.yul\":25253:25257   */\n      dup3\n        /* \"#utility.yul\":25250:25271   */\n      or\n        /* \"#utility.yul\":25242:25271   */\n      swap1\n      pop\n        /* \"#utility.yul\":24982:25277   */\n      swap3\n      swap2\n      pop\n      pop\n      jump\t// out\n        /* \"#utility.yul\":25282:26677   */\n    tag_276:\n        /* \"#utility.yul\":25399:25436   */\n      tag_635\n        /* \"#utility.yul\":25432:25435   */\n      dup3\n        /* \"#utility.yul\":25399:25436   */\n      tag_345\n      jump\t// in\n    tag_635:\n        /* \"#utility.yul\":25501:25519   */\n      0xffffffffffffffff\n        /* \"#utility.yul\":25493:25499   */\n      dup2\n        /* \"#utility.yul\":25490:25520   */\n      gt\n        /* \"#utility.yul\":25487:25543   */\n      iszero\n      tag_636\n      jumpi\n        /* \"#utility.yul\":25523:25541   */\n      tag_637\n      tag_92\n      jump\t// in\n    tag_637:\n        /* \"#utility.yul\":25487:25543   */\n    tag_636:\n        /* \"#utility.yul\":25567:25605   */\n      tag_638\n        /* \"#utility.yul\":25599:25603   */\n      dup3\n        /* \"#utility.yul\":25593:25604   */\n      sload\n        /* \"#utility.yul\":25567:25605   */\n      tag_110\n      jump\t// in\n    tag_638:\n        /* \"#utility.yul\":25652:25719   */\n      tag_639\n        /* \"#utility.yul\":25712:25718   */\n      dup3\n        /* \"#utility.yul\":25704:25710   */\n      dup3\n        /* \"#utility.yul\":25698:25702   */\n      dup6\n        /* \"#utility.yul\":25652:25719   */\n      tag_391\n      jump\t// in\n    tag_639:\n        /* \"#utility.yul\":25746:25747   */\n      0x00\n        /* \"#utility.yul\":25770:25774   */\n      0x20\n        /* \"#utility.yul\":25757:25774   */\n      swap1\n      pop\n        /* \"#utility.yul\":25802:25804   */\n      0x1f\n        /* \"#utility.yul\":25794:25800   */\n      dup4\n        /* \"#utility.yul\":25791:25805   */\n      gt\n        /* \"#utility.yul\":25819:25820   */\n      0x01\n        /* \"#utility.yul\":25814:26432   */\n      dup2\n      eq\n      tag_641\n      jumpi\n        /* \"#utility.yul\":26476:26477   */\n      0x00\n        /* \"#utility.yul\":26493:26499   */\n      dup5\n        /* \"#utility.yul\":26490:26567   */\n      iszero\n      tag_642\n      jumpi\n        /* \"#utility.yul\":26542:26551   */\n      dup3\n        /* \"#utility.yul\":26537:26540   */\n      dup8\n        /* \"#utility.yul\":26533:26552   */\n      add\n        /* \"#utility.yul\":26527:26553   */\n      mload\n        /* \"#utility.yul\":26518:26553   */\n      swap1\n      pop\n        /* \"#utility.yul\":26490:26567   */\n    tag_642:\n        /* \"#utility.yul\":26593:26660   */\n      tag_643\n        /* \"#utility.yul\":26653:26659   */\n      dup6\n        /* \"#utility.yul\":26646:26651   */\n      dup3\n        /* \"#utility.yul\":26593:26660   */\n      tag_394\n      jump\t// in\n    tag_643:\n        /* \"#utility.yul\":26587:26591   */\n      dup7\n        /* \"#utility.yul\":26580:26661   */\n      sstore\n        /* \"#utility.yul\":26449:26671   */\n      pop\n        /* \"#utility.yul\":25784:26671   */\n      jump(tag_640)\n        /* \"#utility.yul\":25814:26432   */\n    tag_641:\n        /* \"#utility.yul\":25866:25870   */\n      0x1f\n        /* \"#utility.yul\":25862:25871   */\n      not\n        /* \"#utility.yul\":25854:25860   */\n      dup5\n        /* \"#utility.yul\":25850:25872   */\n      and\n        /* \"#utility.yul\":25900:25937   */\n      tag_644\n        /* \"#utility.yul\":25932:25936   */\n      dup7\n        /* \"#utility.yul\":25900:25937   */\n      tag_372\n      jump\t// in\n    tag_644:\n        /* \"#utility.yul\":25959:25960   */\n      0x00\n        /* \"#utility.yul\":25973:26181   */\n    tag_645:\n        /* \"#utility.yul\":25987:25994   */\n      dup3\n        /* \"#utility.yul\":25984:25985   */\n      dup2\n        /* \"#utility.yul\":25981:25995   */\n      lt\n        /* \"#utility.yul\":25973:26181   */\n      iszero\n      tag_647\n      jumpi\n        /* \"#utility.yul\":26066:26075   */\n      dup5\n        /* \"#utility.yul\":26061:26064   */\n      dup10\n        /* \"#utility.yul\":26057:26076   */\n      add\n        /* \"#utility.yul\":26051:26077   */\n      mload\n        /* \"#utility.yul\":26043:26049   */\n      dup3\n        /* \"#utility.yul\":26036:26078   */\n      sstore\n        /* \"#utility.yul\":26117:26118   */\n      0x01\n        /* \"#utility.yul\":26109:26115   */\n      dup3\n        /* \"#utility.yul\":26105:26119   */\n      add\n        /* \"#utility.yul\":26095:26119   */\n      swap2\n      pop\n        /* \"#utility.yul\":26164:26166   */\n      0x20\n        /* \"#utility.yul\":26153:26162   */\n      dup6\n        /* \"#utility.yul\":26149:26167   */\n      add\n        /* \"#utility.yul\":26136:26167   */\n      swap5\n      pop\n        /* \"#utility.yul\":26010:26014   */\n      0x20\n        /* \"#utility.yul\":26007:26008   */\n      dup2\n        /* \"#utility.yul\":26003:26015   */\n      add\n        /* \"#utility.yul\":25998:26015   */\n      swap1\n      pop\n        /* \"#utility.yul\":25973:26181   */\n      jump(tag_645)\n    tag_647:\n        /* \"#utility.yul\":26209:26215   */\n      dup7\n        /* \"#utility.yul\":26200:26207   */\n      dup4\n        /* \"#utility.yul\":26197:26216   */\n      lt\n        /* \"#utility.yul\":26194:26373   */\n      iszero\n      tag_648\n      jumpi\n        /* \"#utility.yul\":26267:26276   */\n      dup5\n        /* \"#utility.yul\":26262:26265   */\n      dup10\n        /* \"#utility.yul\":26258:26277   */\n      add\n        /* \"#utility.yul\":26252:26278   */\n      mload\n        /* \"#utility.yul\":26310:26358   */\n      tag_649\n        /* \"#utility.yul\":26352:26356   */\n      0x1f\n        /* \"#utility.yul\":26344:26350   */\n      dup10\n        /* \"#utility.yul\":26340:26357   */\n      and\n        /* \"#utility.yul\":26329:26338   */\n      dup3\n        /* \"#utility.yul\":26310:26358   */\n      tag_393\n      jump\t// in\n    tag_649:\n        /* \"#utility.yul\":26302:26308   */\n      dup4\n        /* \"#utility.yul\":26295:26359   */\n      sstore\n        /* \"#utility.yul\":26217:26373   */\n      pop\n        /* \"#utility.yul\":26194:26373   */\n    tag_648:\n        /* \"#utility.yul\":26419:26420   */\n      0x01\n        /* \"#utility.yul\":26415:26416   */\n      0x02\n        /* \"#utility.yul\":26407:26413   */\n      dup9\n        /* \"#utility.yul\":26403:26417   */\n      mul\n        /* \"#utility.yul\":26399:26421   */\n      add\n        /* \"#utility.yul\":26393:26397   */\n      dup9\n        /* \"#utility.yul\":26386:26422   */\n      sstore\n        /* \"#utility.yul\":25821:26432   */\n      pop\n      pop\n      pop\n        /* \"#utility.yul\":25784:26671   */\n    tag_640:\n      pop\n        /* \"#utility.yul\":25374:26677   */\n      pop\n      pop\n      pop\n        /* \"#utility.yul\":25282:26677   */\n      pop\n      pop\n      jump\t// out\n\n    auxdata: 0xa26469706673582212200d94ec1069e121bb9f67edf329397ec201d1ced21145dbd81be5bbb47f18245864736f6c634300081a0033\n}\n",
				"bytecode": {
					"linkReferences": {},
					"object": "6080604052348015600e575f80fd5b506126128061001c5f395ff3fe608060405234801561000f575f80fd5b50600436106100a7575f3560e01c806389f915f61161006f57806389f915f61461016657806395863d62146101845780639f259987146101b4578063b24341cb146101d2578063c7e56ae3146101dc578063f1d064b3146101f8576100a7565b806316020273146100ab5780634ebb7603146100db578063642f9163146100fa578063740d5e101461012a578063877f18b314610148575b5f80fd5b6100c560048036038101906100c09190611a34565b610216565b6040516100d29190611a93565b60405180910390f35b6100e36102da565b6040516100f1929190611d12565b60405180910390f35b610114600480360381019061010f9190611d6a565b610715565b6040516101219190611e16565b60405180910390f35b610132610961565b60405161013f9190611a93565b60405180910390f35b6101506109c5565b60405161015d9190611e50565b60405180910390f35b61016e6109d7565b60405161017b9190611a93565b60405180910390f35b61019e60048036038101906101999190611a34565b6109e2565b6040516101ab9190611e16565b60405180910390f35b6101bc610cb8565b6040516101c99190611e69565b60405180910390f35b6101da6110cd565b005b6101f660048036038101906101f19190611f6b565b61136a565b005b610200611432565b60405161020d9190611e69565b60405180910390f35b5f805f90505b5f805490508110156102d35782604051602001610239919061202d565b604051602081830303815290604052805190602001205f828154811061026257610261612043565b5b905f5260205f2090600502015f01604051602001610280919061215f565b60405160208183030381529060405280519060200120036102c6575f81815481106102ae576102ad612043565b5b905f5260205f209060050201600201549150506102d5565b808060010191505061021c565b505b919050565b5f60605f808054905011610323576040517f08c379a000000000000000000000000000000000000000000000000000000000815260040161031a906121cf565b60405180910390fd5b5f805f90505b5f805490508110156103c35760405160200161034490612237565b604051602081830303815290604052805190602001205f828154811061036d5761036c612043565b5b905f5260205f20906005020160030160405160200161038c919061215f565b60405160208183030381529060405280519060200120036103b65781806103b290612278565b9250505b8080600101915050610329565b505f8167ffffffffffffffff8111156103df576103de611910565b5b60405190808252806020026020018201604052801561041857816020015b6104056117e8565b8152602001906001900390816103fd5790505b5090505f5b5f80549050811015610708575f60405160200161043990612237565b604051602081830303815290604052805190602001205f838154811061046257610461612043565b5b905f5260205f209060050201600301604051602001610481919061215f565b60405160208183030381529060405280519060200120036106fa575f82815481106104af576104ae612043565b5b905f5260205f2090600502016040518060a00160405290815f820180546104d59061209d565b80601f01602080910402602001604051908101604052809291908181526020018280546105019061209d565b801561054c5780601f106105235761010080835404028352916020019161054c565b820191905f5260205f20905b81548152906001019060200180831161052f57829003601f168201915b5050505050815260200160018201548152602001600282015481526020016003820180546105799061209d565b80601f01602080910402602001604051908101604052809291908181526020018280546105a59061209d565b80156105f05780601f106105c7576101008083540402835291602001916105f0565b820191905f5260205f20905b8154815290600101906020018083116105d357829003601f168201915b5050505050815260200160048201805480602002602001604051908101604052809291908181526020015f905b828210156106c5578382905f5260205f2001805461063a9061209d565b80601f01602080910402602001604051908101604052809291908181526020018280546106669061209d565b80156106b15780601f10610688576101008083540402835291602001916106b1565b820191905f5260205f20905b81548152906001019060200180831161069457829003601f168201915b50505050508152602001906001019061061d565b50505050815250508382815181106106e0576106df612043565b5b602002602001018190525080806106f690612278565b9150505b50808060010191505061041d565b5081819350935050509091565b61071d6117e8565b5f60018361072b91906122bf565b8154811061073c5761073b612043565b5b905f5260205f2090600502016040518060a00160405290815f820180546107629061209d565b80601f016020809104026020016040519081016040528092919081815260200182805461078e9061209d565b80156107d95780601f106107b0576101008083540402835291602001916107d9565b820191905f5260205f20905b8154815290600101906020018083116107bc57829003601f168201915b5050505050815260200160018201548152602001600282015481526020016003820180546108069061209d565b80601f01602080910402602001604051908101604052809291908181526020018280546108329061209d565b801561087d5780601f106108545761010080835404028352916020019161087d565b820191905f5260205f20905b81548152906001019060200180831161086057829003601f168201915b5050505050815260200160048201805480602002602001604051908101604052809291908181526020015f905b82821015610952578382905f5260205f200180546108c79061209d565b80601f01602080910402602001604051908101604052809291908181526020018280546108f39061209d565b801561093e5780601f106109155761010080835404028352916020019161093e565b820191905f5260205f20905b81548152906001019060200180831161092157829003601f168201915b5050505050815260200190600101906108aa565b50505050815250509050919050565b5f805f5b5f805490508110156109ae575f818154811061098457610983612043565b5b905f5260205f209060050201600201548261099f91906122f2565b91508080600101915050610965565b505f80549050816109bf9190612352565b91505090565b5f60466109d0610961565b1015905090565b5f8080549050905090565b6109ea6117e8565b5f5b5f80549050811015610cb15782604051602001610a09919061202d565b604051602081830303815290604052805190602001205f8281548110610a3257610a31612043565b5b905f5260205f2090600502015f01604051602001610a50919061215f565b6040516020818303038152906040528051906020012003610ca4575f8181548110610a7e57610a7d612043565b5b905f5260205f2090600502016040518060a00160405290815f82018054610aa49061209d565b80601f0160208091040260200160405190810160405280929190818152602001828054610ad09061209d565b8015610b1b5780601f10610af257610100808354040283529160200191610b1b565b820191905f5260205f20905b815481529060010190602001808311610afe57829003601f168201915b505050505081526020016001820154815260200160028201548152602001600382018054610b489061209d565b80601f0160208091040260200160405190810160405280929190818152602001828054610b749061209d565b8015610bbf5780601f10610b9657610100808354040283529160200191610bbf565b820191905f5260205f20905b815481529060010190602001808311610ba257829003601f168201915b5050505050815260200160048201805480602002602001604051908101604052809291908181526020015f905b82821015610c94578382905f5260205f20018054610c099061209d565b80601f0160208091040260200160405190810160405280929190818152602001828054610c359061209d565b8015610c805780601f10610c5757610100808354040283529160200191610c80565b820191905f5260205f20905b815481529060010190602001808311610c6357829003601f168201915b505050505081526020019060010190610bec565b5050505081525050915050610cb3565b80806001019150506109ec565b505b919050565b60605f80805480602002602001604051908101604052809291908181526020015f905b82821015610f12578382905f5260205f2090600502016040518060a00160405290815f82018054610d0b9061209d565b80601f0160208091040260200160405190810160405280929190818152602001828054610d379061209d565b8015610d825780601f10610d5957610100808354040283529160200191610d82565b820191905f5260205f20905b815481529060010190602001808311610d6557829003601f168201915b505050505081526020016001820154815260200160028201548152602001600382018054610daf9061209d565b80601f0160208091040260200160405190810160405280929190818152602001828054610ddb9061209d565b8015610e265780601f10610dfd57610100808354040283529160200191610e26565b820191905f5260205f20905b815481529060010190602001808311610e0957829003601f168201915b5050505050815260200160048201805480602002602001604051908101604052809291908181526020015f905b82821015610efb578382905f5260205f20018054610e709061209d565b80601f0160208091040260200160405190810160405280929190818152602001828054610e9c9061209d565b8015610ee75780601f10610ebe57610100808354040283529160200191610ee7565b820191905f5260205f20905b815481529060010190602001808311610eca57829003601f168201915b505050505081526020019060010190610e53565b505050508152505081526020019060010190610cdb565b5050505090505f5b5f8054905081101561101a575f600182610f3491906122f2565b90505b5f8054905081101561100c57828281518110610f5657610f55612043565b5b602002602001015160400151838281518110610f7557610f74612043565b5b6020026020010151604001511115610fff575f838381518110610f9b57610f9a612043565b5b60200260200101519050838281518110610fb857610fb7612043565b5b6020026020010151848481518110610fd357610fd2612043565b5b602002602001018190525080848381518110610ff257610ff1612043565b5b6020026020010181905250505b8080600101915050610f37565b508080600101915050610f1a565b505f600467ffffffffffffffff81111561103757611036611910565b5b60405190808252806020026020018201604052801561107057816020015b61105d6117e8565b8152602001906001900390816110555790505b5090505f5b60048110156110c45782818151811061109157611090612043565b5b60200260200101518282815181106110ac576110ab612043565b5b60200260200101819052508080600101915050611075565b50809250505090565b5f8067ffffffffffffffff8111156110e8576110e7611910565b5b60405190808252806020026020018201604052801561111b57816020015b60608152602001906001900390816111065790505b50905061115f6040518060400160405280600581526020017f416c69636500000000000000000000000000000000000000000000000000000081525060558361136a565b6111a06040518060400160405280600381526020017f426f620000000000000000000000000000000000000000000000000000000000815250604b8361136a565b6111e16040518060400160405280600781526020017f436861726c696500000000000000000000000000000000000000000000000000815250603c8361136a565b6112226040518060400160405280600681526020017f447761796e650000000000000000000000000000000000000000000000000000815250605a8361136a565b6112636040518060400160405280600581526020017f456c6c656e00000000000000000000000000000000000000000000000000000081525060418361136a565b6112a46040518060400160405280600481526020017f4669747a0000000000000000000000000000000000000000000000000000000081525060328361136a565b6112e56040518060400160405280600681526020017f476172726574000000000000000000000000000000000000000000000000000081525060508361136a565b6113266040518060400160405280600681526020017f4875626572740000000000000000000000000000000000000000000000000000815250605a8361136a565b6113676040518060400160405280600681526020017f49736162656c000000000000000000000000000000000000000000000000000081525060648361136a565b50565b5f6040518060a0016040528085815260200160015f8054905061138d91906122f2565b81526020018481526020016113a185611694565b815260200183815250908060018154018082558091505060019003905f5260205f2090600502015f909190919091505f820151815f0190816113e3919061250d565b506020820151816001015560408201518160020155606082015181600301908161140d919061250d565b50608082015181600401908051906020019061142a929190611815565b505050505050565b60605f805480602002602001604051908101604052809291908181526020015f905b8282101561168b578382905f5260205f2090600502016040518060a00160405290815f820180546114849061209d565b80601f01602080910402602001604051908101604052809291908181526020018280546114b09061209d565b80156114fb5780601f106114d2576101008083540402835291602001916114fb565b820191905f5260205f20905b8154815290600101906020018083116114de57829003601f168201915b5050505050815260200160018201548152602001600282015481526020016003820180546115289061209d565b80601f01602080910402602001604051908101604052809291908181526020018280546115549061209d565b801561159f5780601f106115765761010080835404028352916020019161159f565b820191905f5260205f20905b81548152906001019060200180831161158257829003601f168201915b5050505050815260200160048201805480602002602001604051908101604052809291908181526020015f905b82821015611674578382905f5260205f200180546115e99061209d565b80601f01602080910402602001604051908101604052809291908181526020018280546116159061209d565b80156116605780601f1061163757610100808354040283529160200191611660565b820191905f5260205f20905b81548152906001019060200180831161164357829003601f168201915b5050505050815260200190600101906115cc565b505050508152505081526020019060010190611454565b50505050905090565b6060605a82106116db576040518060400160405280600181526020017f410000000000000000000000000000000000000000000000000000000000000081525090506117e3565b60508210611720576040518060400160405280600181526020017f420000000000000000000000000000000000000000000000000000000000000081525090506117e3565b60468210611765576040518060400160405280600181526020017f430000000000000000000000000000000000000000000000000000000000000081525090506117e3565b603c82106117aa576040518060400160405280600181526020017f440000000000000000000000000000000000000000000000000000000000000081525090506117e3565b6040518060400160405280600181526020017f460000000000000000000000000000000000000000000000000000000000000081525090505b919050565b6040518060a00160405280606081526020015f81526020015f815260200160608152602001606081525090565b828054828255905f5260205f2090810192821561185b579160200282015b8281111561185a57825182908161184a919061250d565b5091602001919060010190611833565b5b509050611868919061186c565b5090565b5b8082111561188b575f8181611882919061188f565b5060010161186d565b5090565b50805461189b9061209d565b5f825580601f106118ac57506118c9565b601f0160209004905f5260205f20908101906118c891906118cc565b5b50565b5b808211156118e3575f815f9055506001016118cd565b5090565b5f604051905090565b5f80fd5b5f80fd5b5f80fd5b5f80fd5b5f601f19601f8301169050919050565b7f4e487b71000000000000000000000000000000000000000000000000000000005f52604160045260245ffd5b61194682611900565b810181811067ffffffffffffffff8211171561196557611964611910565b5b80604052505050565b5f6119776118e7565b9050611983828261193d565b919050565b5f67ffffffffffffffff8211156119a2576119a1611910565b5b6119ab82611900565b9050602081019050919050565b828183375f83830152505050565b5f6119d86119d384611988565b61196e565b9050828152602081018484840111156119f4576119f36118fc565b5b6119ff8482856119b8565b509392505050565b5f82601f830112611a1b57611a1a6118f8565b5b8135611a2b8482602086016119c6565b91505092915050565b5f60208284031215611a4957611a486118f0565b5b5f82013567ffffffffffffffff811115611a6657611a656118f4565b5b611a7284828501611a07565b91505092915050565b5f819050919050565b611a8d81611a7b565b82525050565b5f602082019050611aa65f830184611a84565b92915050565b5f81519050919050565b5f82825260208201905092915050565b5f819050602082019050919050565b5f81519050919050565b5f82825260208201905092915050565b8281835e5f83830152505050565b5f611b0782611ad5565b611b118185611adf565b9350611b21818560208601611aef565b611b2a81611900565b840191505092915050565b611b3e81611a7b565b82525050565b5f81519050919050565b5f82825260208201905092915050565b5f819050602082019050919050565b5f611b788383611afd565b905092915050565b5f602082019050919050565b5f611b9682611b44565b611ba08185611b4e565b935083602082028501611bb285611b5e565b805f5b85811015611bed5784840389528151611bce8582611b6d565b9450611bd983611b80565b925060208a01995050600181019050611bb5565b50829750879550505050505092915050565b5f60a083015f8301518482035f860152611c198282611afd565b9150506020830151611c2e6020860182611b35565b506040830151611c416040860182611b35565b5060608301518482036060860152611c598282611afd565b91505060808301518482036080860152611c738282611b8c565b9150508091505092915050565b5f611c8b8383611bff565b905092915050565b5f602082019050919050565b5f611ca982611aac565b611cb38185611ab6565b935083602082028501611cc585611ac6565b805f5b85811015611d005784840389528151611ce18582611c80565b9450611cec83611c93565b925060208a01995050600181019050611cc8565b50829750879550505050505092915050565b5f604082019050611d255f830185611a84565b8181036020830152611d378184611c9f565b90509392505050565b611d4981611a7b565b8114611d53575f80fd5b50565b5f81359050611d6481611d40565b92915050565b5f60208284031215611d7f57611d7e6118f0565b5b5f611d8c84828501611d56565b91505092915050565b5f60a083015f8301518482035f860152611daf8282611afd565b9150506020830151611dc46020860182611b35565b506040830151611dd76040860182611b35565b5060608301518482036060860152611def8282611afd565b91505060808301518482036080860152611e098282611b8c565b9150508091505092915050565b5f6020820190508181035f830152611e2e8184611d95565b905092915050565b5f8115159050919050565b611e4a81611e36565b82525050565b5f602082019050611e635f830184611e41565b92915050565b5f6020820190508181035f830152611e818184611c9f565b905092915050565b5f67ffffffffffffffff821115611ea357611ea2611910565b5b602082029050602081019050919050565b5f80fd5b5f611eca611ec584611e89565b61196e565b90508083825260208201905060208402830185811115611eed57611eec611eb4565b5b835b81811015611f3457803567ffffffffffffffff811115611f1257611f116118f8565b5b808601611f1f8982611a07565b85526020850194505050602081019050611eef565b5050509392505050565b5f82601f830112611f5257611f516118f8565b5b8135611f62848260208601611eb8565b91505092915050565b5f805f60608486031215611f8257611f816118f0565b5b5f84013567ffffffffffffffff811115611f9f57611f9e6118f4565b5b611fab86828701611a07565b9350506020611fbc86828701611d56565b925050604084013567ffffffffffffffff811115611fdd57611fdc6118f4565b5b611fe986828701611f3e565b9150509250925092565b5f81905092915050565b5f61200782611ad5565b6120118185611ff3565b9350612021818560208601611aef565b80840191505092915050565b5f6120388284611ffd565b915081905092915050565b7f4e487b71000000000000000000000000000000000000000000000000000000005f52603260045260245ffd5b7f4e487b71000000000000000000000000000000000000000000000000000000005f52602260045260245ffd5b5f60028204905060018216806120b457607f821691505b6020821081036120c7576120c6612070565b5b50919050565b5f819050815f5260205f209050919050565b5f81546120eb8161209d565b6120f58186611ff3565b9450600182165f811461210f576001811461212457612156565b60ff1983168652811515820286019350612156565b61212d856120cd565b5f5b8381101561214e5781548189015260018201915060208101905061212f565b838801955050505b50505092915050565b5f61216a82846120df565b915081905092915050565b5f82825260208201905092915050565b7f4e6f2064617461000000000000000000000000000000000000000000000000005f82015250565b5f6121b9600783612175565b91506121c482612185565b602082019050919050565b5f6020820190508181035f8301526121e6816121ad565b9050919050565b7f46000000000000000000000000000000000000000000000000000000000000005f82015250565b5f612221600183611ff3565b915061222c826121ed565b600182019050919050565b5f61224182612215565b9150819050919050565b7f4e487b71000000000000000000000000000000000000000000000000000000005f52601160045260245ffd5b5f61228282611a7b565b91507fffffffffffffffffffffffffffffffffffffffffffffffffffffffffffffffff82036122b4576122b361224b565b5b600182019050919050565b5f6122c982611a7b565b91506122d483611a7b565b92508282039050818111156122ec576122eb61224b565b5b92915050565b5f6122fc82611a7b565b915061230783611a7b565b925082820190508082111561231f5761231e61224b565b5b92915050565b7f4e487b71000000000000000000000000000000000000000000000000000000005f52601260045260245ffd5b5f61235c82611a7b565b915061236783611a7b565b92508261237757612376612325565b5b828204905092915050565b5f6020601f8301049050919050565b5f82821b905092915050565b5f600883026123cc7fffffffffffffffffffffffffffffffffffffffffffffffffffffffffffffffff82612391565b6123d68683612391565b95508019841693508086168417925050509392505050565b5f819050919050565b5f61241161240c61240784611a7b565b6123ee565b611a7b565b9050919050565b5f819050919050565b61242a836123f7565b61243e61243682612418565b84845461239d565b825550505050565b5f90565b612452612446565b61245d818484612421565b505050565b5b81811015612480576124755f8261244a565b600181019050612463565b5050565b601f8211156124c557612496816120cd565b61249f84612382565b810160208510156124ae578190505b6124c26124ba85612382565b830182612462565b50505b505050565b5f82821c905092915050565b5f6124e55f19846008026124ca565b1980831691505092915050565b5f6124fd83836124d6565b9150826002028217905092915050565b61251682611ad5565b67ffffffffffffffff81111561252f5761252e611910565b5b612539825461209d565b612544828285612484565b5f60209050601f831160018114612575575f8415612563578287015190505b61256d85826124f2565b8655506125d4565b601f198416612583866120cd565b5f5b828110156125aa57848901518255600182019150602085019450602081019050612585565b868310156125c757848901516125c3601f8916826124d6565b8355505b6001600288020188555050505b50505050505056fea26469706673582212200d94ec1069e121bb9f67edf329397ec201d1ced21145dbd81be5bbb47f18245864736f6c634300081a0033",
					"opcodes": "PUSH1 0x80 PUSH1 0x40 MSTORE CALLVALUE DUP1 ISZERO PUSH1 0xE JUMPI PUSH0 DUP1 REVERT JUMPDEST POP PUSH2 0x2612 DUP1 PUSH2 0x1C PUSH0 CODECOPY PUSH0 RETURN INVALID PUSH1 0x80 PUSH1 0x40 MSTORE CALLVALUE DUP1 ISZERO PUSH2 0xF JUMPI PUSH0 DUP1 REVERT JUMPDEST POP PUSH1 0x4 CALLDATASIZE LT PUSH2 0xA7 JUMPI PUSH0 CALLDATALOAD PUSH1 0xE0 SHR DUP1 PUSH4 0x89F915F6 GT PUSH2 0x6F JUMPI DUP1 PUSH4 0x89F915F6 EQ PUSH2 0x166 JUMPI DUP1 PUSH4 0x95863D62 EQ PUSH2 0x184 JUMPI DUP1 PUSH4 0x9F259987 EQ PUSH2 0x1B4 JUMPI DUP1 PUSH4 0xB24341CB EQ PUSH2 0x1D2 JUMPI DUP1 PUSH4 0xC7E56AE3 EQ PUSH2 0x1DC JUMPI DUP1 PUSH4 0xF1D064B3 EQ PUSH2 0x1F8 JUMPI PUSH2 0xA7 JUMP JUMPDEST DUP1 PUSH4 0x16020273 EQ PUSH2 0xAB JUMPI DUP1 PUSH4 0x4EBB7603 EQ PUSH2 0xDB JUMPI DUP1 PUSH4 0x642F9163 EQ PUSH2 0xFA JUMPI DUP1 PUSH4 0x740D5E10 EQ PUSH2 0x12A JUMPI DUP1 PUSH4 0x877F18B3 EQ PUSH2 0x148 JUMPI JUMPDEST PUSH0 DUP1 REVERT JUMPDEST PUSH2 0xC5 PUSH1 0x4 DUP1 CALLDATASIZE SUB DUP2 ADD SWAP1 PUSH2 0xC0 SWAP2 SWAP1 PUSH2 0x1A34 JUMP JUMPDEST PUSH2 0x216 JUMP JUMPDEST PUSH1 0x40 MLOAD PUSH2 0xD2 SWAP2 SWAP1 PUSH2 0x1A93 JUMP JUMPDEST PUSH1 0x40 MLOAD DUP1 SWAP2 SUB SWAP1 RETURN JUMPDEST PUSH2 0xE3 PUSH2 0x2DA JUMP JUMPDEST PUSH1 0x40 MLOAD PUSH2 0xF1 SWAP3 SWAP2 SWAP1 PUSH2 0x1D12 JUMP JUMPDEST PUSH1 0x40 MLOAD DUP1 SWAP2 SUB SWAP1 RETURN JUMPDEST PUSH2 0x114 PUSH1 0x4 DUP1 CALLDATASIZE SUB DUP2 ADD SWAP1 PUSH2 0x10F SWAP2 SWAP1 PUSH2 0x1D6A JUMP JUMPDEST PUSH2 0x715 JUMP JUMPDEST PUSH1 0x40 MLOAD PUSH2 0x121 SWAP2 SWAP1 PUSH2 0x1E16 JUMP JUMPDEST PUSH1 0x40 MLOAD DUP1 SWAP2 SUB SWAP1 RETURN JUMPDEST PUSH2 0x132 PUSH2 0x961 JUMP JUMPDEST PUSH1 0x40 MLOAD PUSH2 0x13F SWAP2 SWAP1 PUSH2 0x1A93 JUMP JUMPDEST PUSH1 0x40 MLOAD DUP1 SWAP2 SUB SWAP1 RETURN JUMPDEST PUSH2 0x150 PUSH2 0x9C5 JUMP JUMPDEST PUSH1 0x40 MLOAD PUSH2 0x15D SWAP2 SWAP1 PUSH2 0x1E50 JUMP JUMPDEST PUSH1 0x40 MLOAD DUP1 SWAP2 SUB SWAP1 RETURN JUMPDEST PUSH2 0x16E PUSH2 0x9D7 JUMP JUMPDEST PUSH1 0x40 MLOAD PUSH2 0x17B SWAP2 SWAP1 PUSH2 0x1A93 JUMP JUMPDEST PUSH1 0x40 MLOAD DUP1 SWAP2 SUB SWAP1 RETURN JUMPDEST PUSH2 0x19E PUSH1 0x4 DUP1 CALLDATASIZE SUB DUP2 ADD SWAP1 PUSH2 0x199 SWAP2 SWAP1 PUSH2 0x1A34 JUMP JUMPDEST PUSH2 0x9E2 JUMP JUMPDEST PUSH1 0x40 MLOAD PUSH2 0x1AB SWAP2 SWAP1 PUSH2 0x1E16 JUMP JUMPDEST PUSH1 0x40 MLOAD DUP1 SWAP2 SUB SWAP1 RETURN JUMPDEST PUSH2 0x1BC PUSH2 0xCB8 JUMP JUMPDEST PUSH1 0x40 MLOAD PUSH2 0x1C9 SWAP2 SWAP1 PUSH2 0x1E69 JUMP JUMPDEST PUSH1 0x40 MLOAD DUP1 SWAP2 SUB SWAP1 RETURN JUMPDEST PUSH2 0x1DA PUSH2 0x10CD JUMP JUMPDEST STOP JUMPDEST PUSH2 0x1F6 PUSH1 0x4 DUP1 CALLDATASIZE SUB DUP2 ADD SWAP1 PUSH2 0x1F1 SWAP2 SWAP1 PUSH2 0x1F6B JUMP JUMPDEST PUSH2 0x136A JUMP JUMPDEST STOP JUMPDEST PUSH2 0x200 PUSH2 0x1432 JUMP JUMPDEST PUSH1 0x40 MLOAD PUSH2 0x20D SWAP2 SWAP1 PUSH2 0x1E69 JUMP JUMPDEST PUSH1 0x40 MLOAD DUP1 SWAP2 SUB SWAP1 RETURN JUMPDEST PUSH0 DUP1 PUSH0 SWAP1 POP JUMPDEST PUSH0 DUP1 SLOAD SWAP1 POP DUP2 LT ISZERO PUSH2 0x2D3 JUMPI DUP3 PUSH1 0x40 MLOAD PUSH1 0x20 ADD PUSH2 0x239 SWAP2 SWAP1 PUSH2 0x202D JUMP JUMPDEST PUSH1 0x40 MLOAD PUSH1 0x20 DUP2 DUP4 SUB SUB DUP2 MSTORE SWAP1 PUSH1 0x40 MSTORE DUP1 MLOAD SWAP1 PUSH1 0x20 ADD KECCAK256 PUSH0 DUP3 DUP2 SLOAD DUP2 LT PUSH2 0x262 JUMPI PUSH2 0x261 PUSH2 0x2043 JUMP JUMPDEST JUMPDEST SWAP1 PUSH0 MSTORE PUSH1 0x20 PUSH0 KECCAK256 SWAP1 PUSH1 0x5 MUL ADD PUSH0 ADD PUSH1 0x40 MLOAD PUSH1 0x20 ADD PUSH2 0x280 SWAP2 SWAP1 PUSH2 0x215F JUMP JUMPDEST PUSH1 0x40 MLOAD PUSH1 0x20 DUP2 DUP4 SUB SUB DUP2 MSTORE SWAP1 PUSH1 0x40 MSTORE DUP1 MLOAD SWAP1 PUSH1 0x20 ADD KECCAK256 SUB PUSH2 0x2C6 JUMPI PUSH0 DUP2 DUP2 SLOAD DUP2 LT PUSH2 0x2AE JUMPI PUSH2 0x2AD PUSH2 0x2043 JUMP JUMPDEST JUMPDEST SWAP1 PUSH0 MSTORE PUSH1 0x20 PUSH0 KECCAK256 SWAP1 PUSH1 0x5 MUL ADD PUSH1 0x2 ADD SLOAD SWAP2 POP POP PUSH2 0x2D5 JUMP JUMPDEST DUP1 DUP1 PUSH1 0x1 ADD SWAP2 POP POP PUSH2 0x21C JUMP JUMPDEST POP JUMPDEST SWAP2 SWAP1 POP JUMP JUMPDEST PUSH0 PUSH1 0x60 PUSH0 DUP1 DUP1 SLOAD SWAP1 POP GT PUSH2 0x323 JUMPI PUSH1 0x40 MLOAD PUSH32 0x8C379A000000000000000000000000000000000000000000000000000000000 DUP2 MSTORE PUSH1 0x4 ADD PUSH2 0x31A SWAP1 PUSH2 0x21CF JUMP JUMPDEST PUSH1 0x40 MLOAD DUP1 SWAP2 SUB SWAP1 REVERT JUMPDEST PUSH0 DUP1 PUSH0 SWAP1 POP JUMPDEST PUSH0 DUP1 SLOAD SWAP1 POP DUP2 LT ISZERO PUSH2 0x3C3 JUMPI PUSH1 0x40 MLOAD PUSH1 0x20 ADD PUSH2 0x344 SWAP1 PUSH2 0x2237 JUMP JUMPDEST PUSH1 0x40 MLOAD PUSH1 0x20 DUP2 DUP4 SUB SUB DUP2 MSTORE SWAP1 PUSH1 0x40 MSTORE DUP1 MLOAD SWAP1 PUSH1 0x20 ADD KECCAK256 PUSH0 DUP3 DUP2 SLOAD DUP2 LT PUSH2 0x36D JUMPI PUSH2 0x36C PUSH2 0x2043 JUMP JUMPDEST JUMPDEST SWAP1 PUSH0 MSTORE PUSH1 0x20 PUSH0 KECCAK256 SWAP1 PUSH1 0x5 MUL ADD PUSH1 0x3 ADD PUSH1 0x40 MLOAD PUSH1 0x20 ADD PUSH2 0x38C SWAP2 SWAP1 PUSH2 0x215F JUMP JUMPDEST PUSH1 0x40 MLOAD PUSH1 0x20 DUP2 DUP4 SUB SUB DUP2 MSTORE SWAP1 PUSH1 0x40 MSTORE DUP1 MLOAD SWAP1 PUSH1 0x20 ADD KECCAK256 SUB PUSH2 0x3B6 JUMPI DUP2 DUP1 PUSH2 0x3B2 SWAP1 PUSH2 0x2278 JUMP JUMPDEST SWAP3 POP POP JUMPDEST DUP1 DUP1 PUSH1 0x1 ADD SWAP2 POP POP PUSH2 0x329 JUMP JUMPDEST POP PUSH0 DUP2 PUSH8 0xFFFFFFFFFFFFFFFF DUP2 GT ISZERO PUSH2 0x3DF JUMPI PUSH2 0x3DE PUSH2 0x1910 JUMP JUMPDEST JUMPDEST PUSH1 0x40 MLOAD SWAP1 DUP1 DUP3 MSTORE DUP1 PUSH1 0x20 MUL PUSH1 0x20 ADD DUP3 ADD PUSH1 0x40 MSTORE DUP1 ISZERO PUSH2 0x418 JUMPI DUP2 PUSH1 0x20 ADD JUMPDEST PUSH2 0x405 PUSH2 0x17E8 JUMP JUMPDEST DUP2 MSTORE PUSH1 0x20 ADD SWAP1 PUSH1 0x1 SWAP1 SUB SWAP1 DUP2 PUSH2 0x3FD JUMPI SWAP1 POP JUMPDEST POP SWAP1 POP PUSH0 JUMPDEST PUSH0 DUP1 SLOAD SWAP1 POP DUP2 LT ISZERO PUSH2 0x708 JUMPI PUSH0 PUSH1 0x40 MLOAD PUSH1 0x20 ADD PUSH2 0x439 SWAP1 PUSH2 0x2237 JUMP JUMPDEST PUSH1 0x40 MLOAD PUSH1 0x20 DUP2 DUP4 SUB SUB DUP2 MSTORE SWAP1 PUSH1 0x40 MSTORE DUP1 MLOAD SWAP1 PUSH1 0x20 ADD KECCAK256 PUSH0 DUP4 DUP2 SLOAD DUP2 LT PUSH2 0x462 JUMPI PUSH2 0x461 PUSH2 0x2043 JUMP JUMPDEST JUMPDEST SWAP1 PUSH0 MSTORE PUSH1 0x20 PUSH0 KECCAK256 SWAP1 PUSH1 0x5 MUL ADD PUSH1 0x3 ADD PUSH1 0x40 MLOAD PUSH1 0x20 ADD PUSH2 0x481 SWAP2 SWAP1 PUSH2 0x215F JUMP JUMPDEST PUSH1 0x40 MLOAD PUSH1 0x20 DUP2 DUP4 SUB SUB DUP2 MSTORE SWAP1 PUSH1 0x40 MSTORE DUP1 MLOAD SWAP1 PUSH1 0x20 ADD KECCAK256 SUB PUSH2 0x6FA JUMPI PUSH0 DUP3 DUP2 SLOAD DUP2 LT PUSH2 0x4AF JUMPI PUSH2 0x4AE PUSH2 0x2043 JUMP JUMPDEST JUMPDEST SWAP1 PUSH0 MSTORE PUSH1 0x20 PUSH0 KECCAK256 SWAP1 PUSH1 0x5 MUL ADD PUSH1 0x40 MLOAD DUP1 PUSH1 0xA0 ADD PUSH1 0x40 MSTORE SWAP1 DUP2 PUSH0 DUP3 ADD DUP1 SLOAD PUSH2 0x4D5 SWAP1 PUSH2 0x209D JUMP JUMPDEST DUP1 PUSH1 0x1F ADD PUSH1 0x20 DUP1 SWAP2 DIV MUL PUSH1 0x20 ADD PUSH1 0x40 MLOAD SWAP1 DUP2 ADD PUSH1 0x40 MSTORE DUP1 SWAP3 SWAP2 SWAP1 DUP2 DUP2 MSTORE PUSH1 0x20 ADD DUP3 DUP1 SLOAD PUSH2 0x501 SWAP1 PUSH2 0x209D JUMP JUMPDEST DUP1 ISZERO PUSH2 0x54C JUMPI DUP1 PUSH1 0x1F LT PUSH2 0x523 JUMPI PUSH2 0x100 DUP1 DUP4 SLOAD DIV MUL DUP4 MSTORE SWAP2 PUSH1 0x20 ADD SWAP2 PUSH2 0x54C JUMP JUMPDEST DUP3 ADD SWAP2 SWAP1 PUSH0 MSTORE PUSH1 0x20 PUSH0 KECCAK256 SWAP1 JUMPDEST DUP2 SLOAD DUP2 MSTORE SWAP1 PUSH1 0x1 ADD SWAP1 PUSH1 0x20 ADD DUP1 DUP4 GT PUSH2 0x52F JUMPI DUP3 SWAP1 SUB PUSH1 0x1F AND DUP3 ADD SWAP2 JUMPDEST POP POP POP POP POP DUP2 MSTORE PUSH1 0x20 ADD PUSH1 0x1 DUP3 ADD SLOAD DUP2 MSTORE PUSH1 0x20 ADD PUSH1 0x2 DUP3 ADD SLOAD DUP2 MSTORE PUSH1 0x20 ADD PUSH1 0x3 DUP3 ADD DUP1 SLOAD PUSH2 0x579 SWAP1 PUSH2 0x209D JUMP JUMPDEST DUP1 PUSH1 0x1F ADD PUSH1 0x20 DUP1 SWAP2 DIV MUL PUSH1 0x20 ADD PUSH1 0x40 MLOAD SWAP1 DUP2 ADD PUSH1 0x40 MSTORE DUP1 SWAP3 SWAP2 SWAP1 DUP2 DUP2 MSTORE PUSH1 0x20 ADD DUP3 DUP1 SLOAD PUSH2 0x5A5 SWAP1 PUSH2 0x209D JUMP JUMPDEST DUP1 ISZERO PUSH2 0x5F0 JUMPI DUP1 PUSH1 0x1F LT PUSH2 0x5C7 JUMPI PUSH2 0x100 DUP1 DUP4 SLOAD DIV MUL DUP4 MSTORE SWAP2 PUSH1 0x20 ADD SWAP2 PUSH2 0x5F0 JUMP JUMPDEST DUP3 ADD SWAP2 SWAP1 PUSH0 MSTORE PUSH1 0x20 PUSH0 KECCAK256 SWAP1 JUMPDEST DUP2 SLOAD DUP2 MSTORE SWAP1 PUSH1 0x1 ADD SWAP1 PUSH1 0x20 ADD DUP1 DUP4 GT PUSH2 0x5D3 JUMPI DUP3 SWAP1 SUB PUSH1 0x1F AND DUP3 ADD SWAP2 JUMPDEST POP POP POP POP POP DUP2 MSTORE PUSH1 0x20 ADD PUSH1 0x4 DUP3 ADD DUP1 SLOAD DUP1 PUSH1 0x20 MUL PUSH1 0x20 ADD PUSH1 0x40 MLOAD SWAP1 DUP2 ADD PUSH1 0x40 MSTORE DUP1 SWAP3 SWAP2 SWAP1 DUP2 DUP2 MSTORE PUSH1 0x20 ADD PUSH0 SWAP1 JUMPDEST DUP3 DUP3 LT ISZERO PUSH2 0x6C5 JUMPI DUP4 DUP3 SWAP1 PUSH0 MSTORE PUSH1 0x20 PUSH0 KECCAK256 ADD DUP1 SLOAD PUSH2 0x63A SWAP1 PUSH2 0x209D JUMP JUMPDEST DUP1 PUSH1 0x1F ADD PUSH1 0x20 DUP1 SWAP2 DIV MUL PUSH1 0x20 ADD PUSH1 0x40 MLOAD SWAP1 DUP2 ADD PUSH1 0x40 MSTORE DUP1 SWAP3 SWAP2 SWAP1 DUP2 DUP2 MSTORE PUSH1 0x20 ADD DUP3 DUP1 SLOAD PUSH2 0x666 SWAP1 PUSH2 0x209D JUMP JUMPDEST DUP1 ISZERO PUSH2 0x6B1 JUMPI DUP1 PUSH1 0x1F LT PUSH2 0x688 JUMPI PUSH2 0x100 DUP1 DUP4 SLOAD DIV MUL DUP4 MSTORE SWAP2 PUSH1 0x20 ADD SWAP2 PUSH2 0x6B1 JUMP JUMPDEST DUP3 ADD SWAP2 SWAP1 PUSH0 MSTORE PUSH1 0x20 PUSH0 KECCAK256 SWAP1 JUMPDEST DUP2 SLOAD DUP2 MSTORE SWAP1 PUSH1 0x1 ADD SWAP1 PUSH1 0x20 ADD DUP1 DUP4 GT PUSH2 0x694 JUMPI DUP3 SWAP1 SUB PUSH1 0x1F AND DUP3 ADD SWAP2 JUMPDEST POP POP POP POP POP DUP2 MSTORE PUSH1 0x20 ADD SWAP1 PUSH1 0x1 ADD SWAP1 PUSH2 0x61D JUMP JUMPDEST POP POP POP POP DUP2 MSTORE POP POP DUP4 DUP3 DUP2 MLOAD DUP2 LT PUSH2 0x6E0 JUMPI PUSH2 0x6DF PUSH2 0x2043 JUMP JUMPDEST JUMPDEST PUSH1 0x20 MUL PUSH1 0x20 ADD ADD DUP2 SWAP1 MSTORE POP DUP1 DUP1 PUSH2 0x6F6 SWAP1 PUSH2 0x2278 JUMP JUMPDEST SWAP2 POP POP JUMPDEST POP DUP1 DUP1 PUSH1 0x1 ADD SWAP2 POP POP PUSH2 0x41D JUMP JUMPDEST POP DUP2 DUP2 SWAP4 POP SWAP4 POP POP POP SWAP1 SWAP2 JUMP JUMPDEST PUSH2 0x71D PUSH2 0x17E8 JUMP JUMPDEST PUSH0 PUSH1 0x1 DUP4 PUSH2 0x72B SWAP2 SWAP1 PUSH2 0x22BF JUMP JUMPDEST DUP2 SLOAD DUP2 LT PUSH2 0x73C JUMPI PUSH2 0x73B PUSH2 0x2043 JUMP JUMPDEST JUMPDEST SWAP1 PUSH0 MSTORE PUSH1 0x20 PUSH0 KECCAK256 SWAP1 PUSH1 0x5 MUL ADD PUSH1 0x40 MLOAD DUP1 PUSH1 0xA0 ADD PUSH1 0x40 MSTORE SWAP1 DUP2 PUSH0 DUP3 ADD DUP1 SLOAD PUSH2 0x762 SWAP1 PUSH2 0x209D JUMP JUMPDEST DUP1 PUSH1 0x1F ADD PUSH1 0x20 DUP1 SWAP2 DIV MUL PUSH1 0x20 ADD PUSH1 0x40 MLOAD SWAP1 DUP2 ADD PUSH1 0x40 MSTORE DUP1 SWAP3 SWAP2 SWAP1 DUP2 DUP2 MSTORE PUSH1 0x20 ADD DUP3 DUP1 SLOAD PUSH2 0x78E SWAP1 PUSH2 0x209D JUMP JUMPDEST DUP1 ISZERO PUSH2 0x7D9 JUMPI DUP1 PUSH1 0x1F LT PUSH2 0x7B0 JUMPI PUSH2 0x100 DUP1 DUP4 SLOAD DIV MUL DUP4 MSTORE SWAP2 PUSH1 0x20 ADD SWAP2 PUSH2 0x7D9 JUMP JUMPDEST DUP3 ADD SWAP2 SWAP1 PUSH0 MSTORE PUSH1 0x20 PUSH0 KECCAK256 SWAP1 JUMPDEST DUP2 SLOAD DUP2 MSTORE SWAP1 PUSH1 0x1 ADD SWAP1 PUSH1 0x20 ADD DUP1 DUP4 GT PUSH2 0x7BC JUMPI DUP3 SWAP1 SUB PUSH1 0x1F AND DUP3 ADD SWAP2 JUMPDEST POP POP POP POP POP DUP2 MSTORE PUSH1 0x20 ADD PUSH1 0x1 DUP3 ADD SLOAD DUP2 MSTORE PUSH1 0x20 ADD PUSH1 0x2 DUP3 ADD SLOAD DUP2 MSTORE PUSH1 0x20 ADD PUSH1 0x3 DUP3 ADD DUP1 SLOAD PUSH2 0x806 SWAP1 PUSH2 0x209D JUMP JUMPDEST DUP1 PUSH1 0x1F ADD PUSH1 0x20 DUP1 SWAP2 DIV MUL PUSH1 0x20 ADD PUSH1 0x40 MLOAD SWAP1 DUP2 ADD PUSH1 0x40 MSTORE DUP1 SWAP3 SWAP2 SWAP1 DUP2 DUP2 MSTORE PUSH1 0x20 ADD DUP3 DUP1 SLOAD PUSH2 0x832 SWAP1 PUSH2 0x209D JUMP JUMPDEST DUP1 ISZERO PUSH2 0x87D JUMPI DUP1 PUSH1 0x1F LT PUSH2 0x854 JUMPI PUSH2 0x100 DUP1 DUP4 SLOAD DIV MUL DUP4 MSTORE SWAP2 PUSH1 0x20 ADD SWAP2 PUSH2 0x87D JUMP JUMPDEST DUP3 ADD SWAP2 SWAP1 PUSH0 MSTORE PUSH1 0x20 PUSH0 KECCAK256 SWAP1 JUMPDEST DUP2 SLOAD DUP2 MSTORE SWAP1 PUSH1 0x1 ADD SWAP1 PUSH1 0x20 ADD DUP1 DUP4 GT PUSH2 0x860 JUMPI DUP3 SWAP1 SUB PUSH1 0x1F AND DUP3 ADD SWAP2 JUMPDEST POP POP POP POP POP DUP2 MSTORE PUSH1 0x20 ADD PUSH1 0x4 DUP3 ADD DUP1 SLOAD DUP1 PUSH1 0x20 MUL PUSH1 0x20 ADD PUSH1 0x40 MLOAD SWAP1 DUP2 ADD PUSH1 0x40 MSTORE DUP1 SWAP3 SWAP2 SWAP1 DUP2 DUP2 MSTORE PUSH1 0x20 ADD PUSH0 SWAP1 JUMPDEST DUP3 DUP3 LT ISZERO PUSH2 0x952 JUMPI DUP4 DUP3 SWAP1 PUSH0 MSTORE PUSH1 0x20 PUSH0 KECCAK256 ADD DUP1 SLOAD PUSH2 0x8C7 SWAP1 PUSH2 0x209D JUMP JUMPDEST DUP1 PUSH1 0x1F ADD PUSH1 0x20 DUP1 SWAP2 DIV MUL PUSH1 0x20 ADD PUSH1 0x40 MLOAD SWAP1 DUP2 ADD PUSH1 0x40 MSTORE DUP1 SWAP3 SWAP2 SWAP1 DUP2 DUP2 MSTORE PUSH1 0x20 ADD DUP3 DUP1 SLOAD PUSH2 0x8F3 SWAP1 PUSH2 0x209D JUMP JUMPDEST DUP1 ISZERO PUSH2 0x93E JUMPI DUP1 PUSH1 0x1F LT PUSH2 0x915 JUMPI PUSH2 0x100 DUP1 DUP4 SLOAD DIV MUL DUP4 MSTORE SWAP2 PUSH1 0x20 ADD SWAP2 PUSH2 0x93E JUMP JUMPDEST DUP3 ADD SWAP2 SWAP1 PUSH0 MSTORE PUSH1 0x20 PUSH0 KECCAK256 SWAP1 JUMPDEST DUP2 SLOAD DUP2 MSTORE SWAP1 PUSH1 0x1 ADD SWAP1 PUSH1 0x20 ADD DUP1 DUP4 GT PUSH2 0x921 JUMPI DUP3 SWAP1 SUB PUSH1 0x1F AND DUP3 ADD SWAP2 JUMPDEST POP POP POP POP POP DUP2 MSTORE PUSH1 0x20 ADD SWAP1 PUSH1 0x1 ADD SWAP1 PUSH2 0x8AA JUMP JUMPDEST POP POP POP POP DUP2 MSTORE POP POP SWAP1 POP SWAP2 SWAP1 POP JUMP JUMPDEST PUSH0 DUP1 PUSH0 JUMPDEST PUSH0 DUP1 SLOAD SWAP1 POP DUP2 LT ISZERO PUSH2 0x9AE JUMPI PUSH0 DUP2 DUP2 SLOAD DUP2 LT PUSH2 0x984 JUMPI PUSH2 0x983 PUSH2 0x2043 JUMP JUMPDEST JUMPDEST SWAP1 PUSH0 MSTORE PUSH1 0x20 PUSH0 KECCAK256 SWAP1 PUSH1 0x5 MUL ADD PUSH1 0x2 ADD SLOAD DUP3 PUSH2 0x99F SWAP2 SWAP1 PUSH2 0x22F2 JUMP JUMPDEST SWAP2 POP DUP1 DUP1 PUSH1 0x1 ADD SWAP2 POP POP PUSH2 0x965 JUMP JUMPDEST POP PUSH0 DUP1 SLOAD SWAP1 POP DUP2 PUSH2 0x9BF SWAP2 SWAP1 PUSH2 0x2352 JUMP JUMPDEST SWAP2 POP POP SWAP1 JUMP JUMPDEST PUSH0 PUSH1 0x46 PUSH2 0x9D0 PUSH2 0x961 JUMP JUMPDEST LT ISZERO SWAP1 POP SWAP1 JUMP JUMPDEST PUSH0 DUP1 DUP1 SLOAD SWAP1 POP SWAP1 POP SWAP1 JUMP JUMPDEST PUSH2 0x9EA PUSH2 0x17E8 JUMP JUMPDEST PUSH0 JUMPDEST PUSH0 DUP1 SLOAD SWAP1 POP DUP2 LT ISZERO PUSH2 0xCB1 JUMPI DUP3 PUSH1 0x40 MLOAD PUSH1 0x20 ADD PUSH2 0xA09 SWAP2 SWAP1 PUSH2 0x202D JUMP JUMPDEST PUSH1 0x40 MLOAD PUSH1 0x20 DUP2 DUP4 SUB SUB DUP2 MSTORE SWAP1 PUSH1 0x40 MSTORE DUP1 MLOAD SWAP1 PUSH1 0x20 ADD KECCAK256 PUSH0 DUP3 DUP2 SLOAD DUP2 LT PUSH2 0xA32 JUMPI PUSH2 0xA31 PUSH2 0x2043 JUMP JUMPDEST JUMPDEST SWAP1 PUSH0 MSTORE PUSH1 0x20 PUSH0 KECCAK256 SWAP1 PUSH1 0x5 MUL ADD PUSH0 ADD PUSH1 0x40 MLOAD PUSH1 0x20 ADD PUSH2 0xA50 SWAP2 SWAP1 PUSH2 0x215F JUMP JUMPDEST PUSH1 0x40 MLOAD PUSH1 0x20 DUP2 DUP4 SUB SUB DUP2 MSTORE SWAP1 PUSH1 0x40 MSTORE DUP1 MLOAD SWAP1 PUSH1 0x20 ADD KECCAK256 SUB PUSH2 0xCA4 JUMPI PUSH0 DUP2 DUP2 SLOAD DUP2 LT PUSH2 0xA7E JUMPI PUSH2 0xA7D PUSH2 0x2043 JUMP JUMPDEST JUMPDEST SWAP1 PUSH0 MSTORE PUSH1 0x20 PUSH0 KECCAK256 SWAP1 PUSH1 0x5 MUL ADD PUSH1 0x40 MLOAD DUP1 PUSH1 0xA0 ADD PUSH1 0x40 MSTORE SWAP1 DUP2 PUSH0 DUP3 ADD DUP1 SLOAD PUSH2 0xAA4 SWAP1 PUSH2 0x209D JUMP JUMPDEST DUP1 PUSH1 0x1F ADD PUSH1 0x20 DUP1 SWAP2 DIV MUL PUSH1 0x20 ADD PUSH1 0x40 MLOAD SWAP1 DUP2 ADD PUSH1 0x40 MSTORE DUP1 SWAP3 SWAP2 SWAP1 DUP2 DUP2 MSTORE PUSH1 0x20 ADD DUP3 DUP1 SLOAD PUSH2 0xAD0 SWAP1 PUSH2 0x209D JUMP JUMPDEST DUP1 ISZERO PUSH2 0xB1B JUMPI DUP1 PUSH1 0x1F LT PUSH2 0xAF2 JUMPI PUSH2 0x100 DUP1 DUP4 SLOAD DIV MUL DUP4 MSTORE SWAP2 PUSH1 0x20 ADD SWAP2 PUSH2 0xB1B JUMP JUMPDEST DUP3 ADD SWAP2 SWAP1 PUSH0 MSTORE PUSH1 0x20 PUSH0 KECCAK256 SWAP1 JUMPDEST DUP2 SLOAD DUP2 MSTORE SWAP1 PUSH1 0x1 ADD SWAP1 PUSH1 0x20 ADD DUP1 DUP4 GT PUSH2 0xAFE JUMPI DUP3 SWAP1 SUB PUSH1 0x1F AND DUP3 ADD SWAP2 JUMPDEST POP POP POP POP POP DUP2 MSTORE PUSH1 0x20 ADD PUSH1 0x1 DUP3 ADD SLOAD DUP2 MSTORE PUSH1 0x20 ADD PUSH1 0x2 DUP3 ADD SLOAD DUP2 MSTORE PUSH1 0x20 ADD PUSH1 0x3 DUP3 ADD DUP1 SLOAD PUSH2 0xB48 SWAP1 PUSH2 0x209D JUMP JUMPDEST DUP1 PUSH1 0x1F ADD PUSH1 0x20 DUP1 SWAP2 DIV MUL PUSH1 0x20 ADD PUSH1 0x40 MLOAD SWAP1 DUP2 ADD PUSH1 0x40 MSTORE DUP1 SWAP3 SWAP2 SWAP1 DUP2 DUP2 MSTORE PUSH1 0x20 ADD DUP3 DUP1 SLOAD PUSH2 0xB74 SWAP1 PUSH2 0x209D JUMP JUMPDEST DUP1 ISZERO PUSH2 0xBBF JUMPI DUP1 PUSH1 0x1F LT PUSH2 0xB96 JUMPI PUSH2 0x100 DUP1 DUP4 SLOAD DIV MUL DUP4 MSTORE SWAP2 PUSH1 0x20 ADD SWAP2 PUSH2 0xBBF JUMP JUMPDEST DUP3 ADD SWAP2 SWAP1 PUSH0 MSTORE PUSH1 0x20 PUSH0 KECCAK256 SWAP1 JUMPDEST DUP2 SLOAD DUP2 MSTORE SWAP1 PUSH1 0x1 ADD SWAP1 PUSH1 0x20 ADD DUP1 DUP4 GT PUSH2 0xBA2 JUMPI DUP3 SWAP1 SUB PUSH1 0x1F AND DUP3 ADD SWAP2 JUMPDEST POP POP POP POP POP DUP2 MSTORE PUSH1 0x20 ADD PUSH1 0x4 DUP3 ADD DUP1 SLOAD DUP1 PUSH1 0x20 MUL PUSH1 0x20 ADD PUSH1 0x40 MLOAD SWAP1 DUP2 ADD PUSH1 0x40 MSTORE DUP1 SWAP3 SWAP2 SWAP1 DUP2 DUP2 MSTORE PUSH1 0x20 ADD PUSH0 SWAP1 JUMPDEST DUP3 DUP3 LT ISZERO PUSH2 0xC94 JUMPI DUP4 DUP3 SWAP1 PUSH0 MSTORE PUSH1 0x20 PUSH0 KECCAK256 ADD DUP1 SLOAD PUSH2 0xC09 SWAP1 PUSH2 0x209D JUMP JUMPDEST DUP1 PUSH1 0x1F ADD PUSH1 0x20 DUP1 SWAP2 DIV MUL PUSH1 0x20 ADD PUSH1 0x40 MLOAD SWAP1 DUP2 ADD PUSH1 0x40 MSTORE DUP1 SWAP3 SWAP2 SWAP1 DUP2 DUP2 MSTORE PUSH1 0x20 ADD DUP3 DUP1 SLOAD PUSH2 0xC35 SWAP1 PUSH2 0x209D JUMP JUMPDEST DUP1 ISZERO PUSH2 0xC80 JUMPI DUP1 PUSH1 0x1F LT PUSH2 0xC57 JUMPI PUSH2 0x100 DUP1 DUP4 SLOAD DIV MUL DUP4 MSTORE SWAP2 PUSH1 0x20 ADD SWAP2 PUSH2 0xC80 JUMP JUMPDEST DUP3 ADD SWAP2 SWAP1 PUSH0 MSTORE PUSH1 0x20 PUSH0 KECCAK256 SWAP1 JUMPDEST DUP2 SLOAD DUP2 MSTORE SWAP1 PUSH1 0x1 ADD SWAP1 PUSH1 0x20 ADD DUP1 DUP4 GT PUSH2 0xC63 JUMPI DUP3 SWAP1 SUB PUSH1 0x1F AND DUP3 ADD SWAP2 JUMPDEST POP POP POP POP POP DUP2 MSTORE PUSH1 0x20 ADD SWAP1 PUSH1 0x1 ADD SWAP1 PUSH2 0xBEC JUMP JUMPDEST POP POP POP POP DUP2 MSTORE POP POP SWAP2 POP POP PUSH2 0xCB3 JUMP JUMPDEST DUP1 DUP1 PUSH1 0x1 ADD SWAP2 POP POP PUSH2 0x9EC JUMP JUMPDEST POP JUMPDEST SWAP2 SWAP1 POP JUMP JUMPDEST PUSH1 0x60 PUSH0 DUP1 DUP1 SLOAD DUP1 PUSH1 0x20 MUL PUSH1 0x20 ADD PUSH1 0x40 MLOAD SWAP1 DUP2 ADD PUSH1 0x40 MSTORE DUP1 SWAP3 SWAP2 SWAP1 DUP2 DUP2 MSTORE PUSH1 0x20 ADD PUSH0 SWAP1 JUMPDEST DUP3 DUP3 LT ISZERO PUSH2 0xF12 JUMPI DUP4 DUP3 SWAP1 PUSH0 MSTORE PUSH1 0x20 PUSH0 KECCAK256 SWAP1 PUSH1 0x5 MUL ADD PUSH1 0x40 MLOAD DUP1 PUSH1 0xA0 ADD PUSH1 0x40 MSTORE SWAP1 DUP2 PUSH0 DUP3 ADD DUP1 SLOAD PUSH2 0xD0B SWAP1 PUSH2 0x209D JUMP JUMPDEST DUP1 PUSH1 0x1F ADD PUSH1 0x20 DUP1 SWAP2 DIV MUL PUSH1 0x20 ADD PUSH1 0x40 MLOAD SWAP1 DUP2 ADD PUSH1 0x40 MSTORE DUP1 SWAP3 SWAP2 SWAP1 DUP2 DUP2 MSTORE PUSH1 0x20 ADD DUP3 DUP1 SLOAD PUSH2 0xD37 SWAP1 PUSH2 0x209D JUMP JUMPDEST DUP1 ISZERO PUSH2 0xD82 JUMPI DUP1 PUSH1 0x1F LT PUSH2 0xD59 JUMPI PUSH2 0x100 DUP1 DUP4 SLOAD DIV MUL DUP4 MSTORE SWAP2 PUSH1 0x20 ADD SWAP2 PUSH2 0xD82 JUMP JUMPDEST DUP3 ADD SWAP2 SWAP1 PUSH0 MSTORE PUSH1 0x20 PUSH0 KECCAK256 SWAP1 JUMPDEST DUP2 SLOAD DUP2 MSTORE SWAP1 PUSH1 0x1 ADD SWAP1 PUSH1 0x20 ADD DUP1 DUP4 GT PUSH2 0xD65 JUMPI DUP3 SWAP1 SUB PUSH1 0x1F AND DUP3 ADD SWAP2 JUMPDEST POP POP POP POP POP DUP2 MSTORE PUSH1 0x20 ADD PUSH1 0x1 DUP3 ADD SLOAD DUP2 MSTORE PUSH1 0x20 ADD PUSH1 0x2 DUP3 ADD SLOAD DUP2 MSTORE PUSH1 0x20 ADD PUSH1 0x3 DUP3 ADD DUP1 SLOAD PUSH2 0xDAF SWAP1 PUSH2 0x209D JUMP JUMPDEST DUP1 PUSH1 0x1F ADD PUSH1 0x20 DUP1 SWAP2 DIV MUL PUSH1 0x20 ADD PUSH1 0x40 MLOAD SWAP1 DUP2 ADD PUSH1 0x40 MSTORE DUP1 SWAP3 SWAP2 SWAP1 DUP2 DUP2 MSTORE PUSH1 0x20 ADD DUP3 DUP1 SLOAD PUSH2 0xDDB SWAP1 PUSH2 0x209D JUMP JUMPDEST DUP1 ISZERO PUSH2 0xE26 JUMPI DUP1 PUSH1 0x1F LT PUSH2 0xDFD JUMPI PUSH2 0x100 DUP1 DUP4 SLOAD DIV MUL DUP4 MSTORE SWAP2 PUSH1 0x20 ADD SWAP2 PUSH2 0xE26 JUMP JUMPDEST DUP3 ADD SWAP2 SWAP1 PUSH0 MSTORE PUSH1 0x20 PUSH0 KECCAK256 SWAP1 JUMPDEST DUP2 SLOAD DUP2 MSTORE SWAP1 PUSH1 0x1 ADD SWAP1 PUSH1 0x20 ADD DUP1 DUP4 GT PUSH2 0xE09 JUMPI DUP3 SWAP1 SUB PUSH1 0x1F AND DUP3 ADD SWAP2 JUMPDEST POP POP POP POP POP DUP2 MSTORE PUSH1 0x20 ADD PUSH1 0x4 DUP3 ADD DUP1 SLOAD DUP1 PUSH1 0x20 MUL PUSH1 0x20 ADD PUSH1 0x40 MLOAD SWAP1 DUP2 ADD PUSH1 0x40 MSTORE DUP1 SWAP3 SWAP2 SWAP1 DUP2 DUP2 MSTORE PUSH1 0x20 ADD PUSH0 SWAP1 JUMPDEST DUP3 DUP3 LT ISZERO PUSH2 0xEFB JUMPI DUP4 DUP3 SWAP1 PUSH0 MSTORE PUSH1 0x20 PUSH0 KECCAK256 ADD DUP1 SLOAD PUSH2 0xE70 SWAP1 PUSH2 0x209D JUMP JUMPDEST DUP1 PUSH1 0x1F ADD PUSH1 0x20 DUP1 SWAP2 DIV MUL PUSH1 0x20 ADD PUSH1 0x40 MLOAD SWAP1 DUP2 ADD PUSH1 0x40 MSTORE DUP1 SWAP3 SWAP2 SWAP1 DUP2 DUP2 MSTORE PUSH1 0x20 ADD DUP3 DUP1 SLOAD PUSH2 0xE9C SWAP1 PUSH2 0x209D JUMP JUMPDEST DUP1 ISZERO PUSH2 0xEE7 JUMPI DUP1 PUSH1 0x1F LT PUSH2 0xEBE JUMPI PUSH2 0x100 DUP1 DUP4 SLOAD DIV MUL DUP4 MSTORE SWAP2 PUSH1 0x20 ADD SWAP2 PUSH2 0xEE7 JUMP JUMPDEST DUP3 ADD SWAP2 SWAP1 PUSH0 MSTORE PUSH1 0x20 PUSH0 KECCAK256 SWAP1 JUMPDEST DUP2 SLOAD DUP2 MSTORE SWAP1 PUSH1 0x1 ADD SWAP1 PUSH1 0x20 ADD DUP1 DUP4 GT PUSH2 0xECA JUMPI DUP3 SWAP1 SUB PUSH1 0x1F AND DUP3 ADD SWAP2 JUMPDEST POP POP POP POP POP DUP2 MSTORE PUSH1 0x20 ADD SWAP1 PUSH1 0x1 ADD SWAP1 PUSH2 0xE53 JUMP JUMPDEST POP POP POP POP DUP2 MSTORE POP POP DUP2 MSTORE PUSH1 0x20 ADD SWAP1 PUSH1 0x1 ADD SWAP1 PUSH2 0xCDB JUMP JUMPDEST POP POP POP POP SWAP1 POP PUSH0 JUMPDEST PUSH0 DUP1 SLOAD SWAP1 POP DUP2 LT ISZERO PUSH2 0x101A JUMPI PUSH0 PUSH1 0x1 DUP3 PUSH2 0xF34 SWAP2 SWAP1 PUSH2 0x22F2 JUMP JUMPDEST SWAP1 POP JUMPDEST PUSH0 DUP1 SLOAD SWAP1 POP DUP2 LT ISZERO PUSH2 0x100C JUMPI DUP3 DUP3 DUP2 MLOAD DUP2 LT PUSH2 0xF56 JUMPI PUSH2 0xF55 PUSH2 0x2043 JUMP JUMPDEST JUMPDEST PUSH1 0x20 MUL PUSH1 0x20 ADD ADD MLOAD PUSH1 0x40 ADD MLOAD DUP4 DUP3 DUP2 MLOAD DUP2 LT PUSH2 0xF75 JUMPI PUSH2 0xF74 PUSH2 0x2043 JUMP JUMPDEST JUMPDEST PUSH1 0x20 MUL PUSH1 0x20 ADD ADD MLOAD PUSH1 0x40 ADD MLOAD GT ISZERO PUSH2 0xFFF JUMPI PUSH0 DUP4 DUP4 DUP2 MLOAD DUP2 LT PUSH2 0xF9B JUMPI PUSH2 0xF9A PUSH2 0x2043 JUMP JUMPDEST JUMPDEST PUSH1 0x20 MUL PUSH1 0x20 ADD ADD MLOAD SWAP1 POP DUP4 DUP3 DUP2 MLOAD DUP2 LT PUSH2 0xFB8 JUMPI PUSH2 0xFB7 PUSH2 0x2043 JUMP JUMPDEST JUMPDEST PUSH1 0x20 MUL PUSH1 0x20 ADD ADD MLOAD DUP5 DUP5 DUP2 MLOAD DUP2 LT PUSH2 0xFD3 JUMPI PUSH2 0xFD2 PUSH2 0x2043 JUMP JUMPDEST JUMPDEST PUSH1 0x20 MUL PUSH1 0x20 ADD ADD DUP2 SWAP1 MSTORE POP DUP1 DUP5 DUP4 DUP2 MLOAD DUP2 LT PUSH2 0xFF2 JUMPI PUSH2 0xFF1 PUSH2 0x2043 JUMP JUMPDEST JUMPDEST PUSH1 0x20 MUL PUSH1 0x20 ADD ADD DUP2 SWAP1 MSTORE POP POP JUMPDEST DUP1 DUP1 PUSH1 0x1 ADD SWAP2 POP POP PUSH2 0xF37 JUMP JUMPDEST POP DUP1 DUP1 PUSH1 0x1 ADD SWAP2 POP POP PUSH2 0xF1A JUMP JUMPDEST POP PUSH0 PUSH1 0x4 PUSH8 0xFFFFFFFFFFFFFFFF DUP2 GT ISZERO PUSH2 0x1037 JUMPI PUSH2 0x1036 PUSH2 0x1910 JUMP JUMPDEST JUMPDEST PUSH1 0x40 MLOAD SWAP1 DUP1 DUP3 MSTORE DUP1 PUSH1 0x20 MUL PUSH1 0x20 ADD DUP3 ADD PUSH1 0x40 MSTORE DUP1 ISZERO PUSH2 0x1070 JUMPI DUP2 PUSH1 0x20 ADD JUMPDEST PUSH2 0x105D PUSH2 0x17E8 JUMP JUMPDEST DUP2 MSTORE PUSH1 0x20 ADD SWAP1 PUSH1 0x1 SWAP1 SUB SWAP1 DUP2 PUSH2 0x1055 JUMPI SWAP1 POP JUMPDEST POP SWAP1 POP PUSH0 JUMPDEST PUSH1 0x4 DUP2 LT ISZERO PUSH2 0x10C4 JUMPI DUP3 DUP2 DUP2 MLOAD DUP2 LT PUSH2 0x1091 JUMPI PUSH2 0x1090 PUSH2 0x2043 JUMP JUMPDEST JUMPDEST PUSH1 0x20 MUL PUSH1 0x20 ADD ADD MLOAD DUP3 DUP3 DUP2 MLOAD DUP2 LT PUSH2 0x10AC JUMPI PUSH2 0x10AB PUSH2 0x2043 JUMP JUMPDEST JUMPDEST PUSH1 0x20 MUL PUSH1 0x20 ADD ADD DUP2 SWAP1 MSTORE POP DUP1 DUP1 PUSH1 0x1 ADD SWAP2 POP POP PUSH2 0x1075 JUMP JUMPDEST POP DUP1 SWAP3 POP POP POP SWAP1 JUMP JUMPDEST PUSH0 DUP1 PUSH8 0xFFFFFFFFFFFFFFFF DUP2 GT ISZERO PUSH2 0x10E8 JUMPI PUSH2 0x10E7 PUSH2 0x1910 JUMP JUMPDEST JUMPDEST PUSH1 0x40 MLOAD SWAP1 DUP1 DUP3 MSTORE DUP1 PUSH1 0x20 MUL PUSH1 0x20 ADD DUP3 ADD PUSH1 0x40 MSTORE DUP1 ISZERO PUSH2 0x111B JUMPI DUP2 PUSH1 0x20 ADD JUMPDEST PUSH1 0x60 DUP2 MSTORE PUSH1 0x20 ADD SWAP1 PUSH1 0x1 SWAP1 SUB SWAP1 DUP2 PUSH2 0x1106 JUMPI SWAP1 POP JUMPDEST POP SWAP1 POP PUSH2 0x115F PUSH1 0x40 MLOAD DUP1 PUSH1 0x40 ADD PUSH1 0x40 MSTORE DUP1 PUSH1 0x5 DUP2 MSTORE PUSH1 0x20 ADD PUSH32 0x416C696365000000000000000000000000000000000000000000000000000000 DUP2 MSTORE POP PUSH1 0x55 DUP4 PUSH2 0x136A JUMP JUMPDEST PUSH2 0x11A0 PUSH1 0x40 MLOAD DUP1 PUSH1 0x40 ADD PUSH1 0x40 MSTORE DUP1 PUSH1 0x3 DUP2 MSTORE PUSH1 0x20 ADD PUSH32 0x426F620000000000000000000000000000000000000000000000000000000000 DUP2 MSTORE POP PUSH1 0x4B DUP4 PUSH2 0x136A JUMP JUMPDEST PUSH2 0x11E1 PUSH1 0x40 MLOAD DUP1 PUSH1 0x40 ADD PUSH1 0x40 MSTORE DUP1 PUSH1 0x7 DUP2 MSTORE PUSH1 0x20 ADD PUSH32 0x436861726C696500000000000000000000000000000000000000000000000000 DUP2 MSTORE POP PUSH1 0x3C DUP4 PUSH2 0x136A JUMP JUMPDEST PUSH2 0x1222 PUSH1 0x40 MLOAD DUP1 PUSH1 0x40 ADD PUSH1 0x40 MSTORE DUP1 PUSH1 0x6 DUP2 MSTORE PUSH1 0x20 ADD PUSH32 0x447761796E650000000000000000000000000000000000000000000000000000 DUP2 MSTORE POP PUSH1 0x5A DUP4 PUSH2 0x136A JUMP JUMPDEST PUSH2 0x1263 PUSH1 0x40 MLOAD DUP1 PUSH1 0x40 ADD PUSH1 0x40 MSTORE DUP1 PUSH1 0x5 DUP2 MSTORE PUSH1 0x20 ADD PUSH32 0x456C6C656E000000000000000000000000000000000000000000000000000000 DUP2 MSTORE POP PUSH1 0x41 DUP4 PUSH2 0x136A JUMP JUMPDEST PUSH2 0x12A4 PUSH1 0x40 MLOAD DUP1 PUSH1 0x40 ADD PUSH1 0x40 MSTORE DUP1 PUSH1 0x4 DUP2 MSTORE PUSH1 0x20 ADD PUSH32 0x4669747A00000000000000000000000000000000000000000000000000000000 DUP2 MSTORE POP PUSH1 0x32 DUP4 PUSH2 0x136A JUMP JUMPDEST PUSH2 0x12E5 PUSH1 0x40 MLOAD DUP1 PUSH1 0x40 ADD PUSH1 0x40 MSTORE DUP1 PUSH1 0x6 DUP2 MSTORE PUSH1 0x20 ADD PUSH32 0x4761727265740000000000000000000000000000000000000000000000000000 DUP2 MSTORE POP PUSH1 0x50 DUP4 PUSH2 0x136A JUMP JUMPDEST PUSH2 0x1326 PUSH1 0x40 MLOAD DUP1 PUSH1 0x40 ADD PUSH1 0x40 MSTORE DUP1 PUSH1 0x6 DUP2 MSTORE PUSH1 0x20 ADD PUSH32 0x4875626572740000000000000000000000000000000000000000000000000000 DUP2 MSTORE POP PUSH1 0x5A DUP4 PUSH2 0x136A JUMP JUMPDEST PUSH2 0x1367 PUSH1 0x40 MLOAD DUP1 PUSH1 0x40 ADD PUSH1 0x40 MSTORE DUP1 PUSH1 0x6 DUP2 MSTORE PUSH1 0x20 ADD PUSH32 0x49736162656C0000000000000000000000000000000000000000000000000000 DUP2 MSTORE POP PUSH1 0x64 DUP4 PUSH2 0x136A JUMP JUMPDEST POP JUMP JUMPDEST PUSH0 PUSH1 0x40 MLOAD DUP1 PUSH1 0xA0 ADD PUSH1 0x40 MSTORE DUP1 DUP6 DUP2 MSTORE PUSH1 0x20 ADD PUSH1 0x1 PUSH0 DUP1 SLOAD SWAP1 POP PUSH2 0x138D SWAP2 SWAP1 PUSH2 0x22F2 JUMP JUMPDEST DUP2 MSTORE PUSH1 0x20 ADD DUP5 DUP2 MSTORE PUSH1 0x20 ADD PUSH2 0x13A1 DUP6 PUSH2 0x1694 JUMP JUMPDEST DUP2 MSTORE PUSH1 0x20 ADD DUP4 DUP2 MSTORE POP SWAP1 DUP1 PUSH1 0x1 DUP2 SLOAD ADD DUP1 DUP3 SSTORE DUP1 SWAP2 POP POP PUSH1 0x1 SWAP1 SUB SWAP1 PUSH0 MSTORE PUSH1 0x20 PUSH0 KECCAK256 SWAP1 PUSH1 0x5 MUL ADD PUSH0 SWAP1 SWAP2 SWAP1 SWAP2 SWAP1 SWAP2 POP PUSH0 DUP3 ADD MLOAD DUP2 PUSH0 ADD SWAP1 DUP2 PUSH2 0x13E3 SWAP2 SWAP1 PUSH2 0x250D JUMP JUMPDEST POP PUSH1 0x20 DUP3 ADD MLOAD DUP2 PUSH1 0x1 ADD SSTORE PUSH1 0x40 DUP3 ADD MLOAD DUP2 PUSH1 0x2 ADD SSTORE PUSH1 0x60 DUP3 ADD MLOAD DUP2 PUSH1 0x3 ADD SWAP1 DUP2 PUSH2 0x140D SWAP2 SWAP1 PUSH2 0x250D JUMP JUMPDEST POP PUSH1 0x80 DUP3 ADD MLOAD DUP2 PUSH1 0x4 ADD SWAP1 DUP1 MLOAD SWAP1 PUSH1 0x20 ADD SWAP1 PUSH2 0x142A SWAP3 SWAP2 SWAP1 PUSH2 0x1815 JUMP JUMPDEST POP POP POP POP POP POP JUMP JUMPDEST PUSH1 0x60 PUSH0 DUP1 SLOAD DUP1 PUSH1 0x20 MUL PUSH1 0x20 ADD PUSH1 0x40 MLOAD SWAP1 DUP2 ADD PUSH1 0x40 MSTORE DUP1 SWAP3 SWAP2 SWAP1 DUP2 DUP2 MSTORE PUSH1 0x20 ADD PUSH0 SWAP1 JUMPDEST DUP3 DUP3 LT ISZERO PUSH2 0x168B JUMPI DUP4 DUP3 SWAP1 PUSH0 MSTORE PUSH1 0x20 PUSH0 KECCAK256 SWAP1 PUSH1 0x5 MUL ADD PUSH1 0x40 MLOAD DUP1 PUSH1 0xA0 ADD PUSH1 0x40 MSTORE SWAP1 DUP2 PUSH0 DUP3 ADD DUP1 SLOAD PUSH2 0x1484 SWAP1 PUSH2 0x209D JUMP JUMPDEST DUP1 PUSH1 0x1F ADD PUSH1 0x20 DUP1 SWAP2 DIV MUL PUSH1 0x20 ADD PUSH1 0x40 MLOAD SWAP1 DUP2 ADD PUSH1 0x40 MSTORE DUP1 SWAP3 SWAP2 SWAP1 DUP2 DUP2 MSTORE PUSH1 0x20 ADD DUP3 DUP1 SLOAD PUSH2 0x14B0 SWAP1 PUSH2 0x209D JUMP JUMPDEST DUP1 ISZERO PUSH2 0x14FB JUMPI DUP1 PUSH1 0x1F LT PUSH2 0x14D2 JUMPI PUSH2 0x100 DUP1 DUP4 SLOAD DIV MUL DUP4 MSTORE SWAP2 PUSH1 0x20 ADD SWAP2 PUSH2 0x14FB JUMP JUMPDEST DUP3 ADD SWAP2 SWAP1 PUSH0 MSTORE PUSH1 0x20 PUSH0 KECCAK256 SWAP1 JUMPDEST DUP2 SLOAD DUP2 MSTORE SWAP1 PUSH1 0x1 ADD SWAP1 PUSH1 0x20 ADD DUP1 DUP4 GT PUSH2 0x14DE JUMPI DUP3 SWAP1 SUB PUSH1 0x1F AND DUP3 ADD SWAP2 JUMPDEST POP POP POP POP POP DUP2 MSTORE PUSH1 0x20 ADD PUSH1 0x1 DUP3 ADD SLOAD DUP2 MSTORE PUSH1 0x20 ADD PUSH1 0x2 DUP3 ADD SLOAD DUP2 MSTORE PUSH1 0x20 ADD PUSH1 0x3 DUP3 ADD DUP1 SLOAD PUSH2 0x1528 SWAP1 PUSH2 0x209D JUMP JUMPDEST DUP1 PUSH1 0x1F ADD PUSH1 0x20 DUP1 SWAP2 DIV MUL PUSH1 0x20 ADD PUSH1 0x40 MLOAD SWAP1 DUP2 ADD PUSH1 0x40 MSTORE DUP1 SWAP3 SWAP2 SWAP1 DUP2 DUP2 MSTORE PUSH1 0x20 ADD DUP3 DUP1 SLOAD PUSH2 0x1554 SWAP1 PUSH2 0x209D JUMP JUMPDEST DUP1 ISZERO PUSH2 0x159F JUMPI DUP1 PUSH1 0x1F LT PUSH2 0x1576 JUMPI PUSH2 0x100 DUP1 DUP4 SLOAD DIV MUL DUP4 MSTORE SWAP2 PUSH1 0x20 ADD SWAP2 PUSH2 0x159F JUMP JUMPDEST DUP3 ADD SWAP2 SWAP1 PUSH0 MSTORE PUSH1 0x20 PUSH0 KECCAK256 SWAP1 JUMPDEST DUP2 SLOAD DUP2 MSTORE SWAP1 PUSH1 0x1 ADD SWAP1 PUSH1 0x20 ADD DUP1 DUP4 GT PUSH2 0x1582 JUMPI DUP3 SWAP1 SUB PUSH1 0x1F AND DUP3 ADD SWAP2 JUMPDEST POP POP POP POP POP DUP2 MSTORE PUSH1 0x20 ADD PUSH1 0x4 DUP3 ADD DUP1 SLOAD DUP1 PUSH1 0x20 MUL PUSH1 0x20 ADD PUSH1 0x40 MLOAD SWAP1 DUP2 ADD PUSH1 0x40 MSTORE DUP1 SWAP3 SWAP2 SWAP1 DUP2 DUP2 MSTORE PUSH1 0x20 ADD PUSH0 SWAP1 JUMPDEST DUP3 DUP3 LT ISZERO PUSH2 0x1674 JUMPI DUP4 DUP3 SWAP1 PUSH0 MSTORE PUSH1 0x20 PUSH0 KECCAK256 ADD DUP1 SLOAD PUSH2 0x15E9 SWAP1 PUSH2 0x209D JUMP JUMPDEST DUP1 PUSH1 0x1F ADD PUSH1 0x20 DUP1 SWAP2 DIV MUL PUSH1 0x20 ADD PUSH1 0x40 MLOAD SWAP1 DUP2 ADD PUSH1 0x40 MSTORE DUP1 SWAP3 SWAP2 SWAP1 DUP2 DUP2 MSTORE PUSH1 0x20 ADD DUP3 DUP1 SLOAD PUSH2 0x1615 SWAP1 PUSH2 0x209D JUMP JUMPDEST DUP1 ISZERO PUSH2 0x1660 JUMPI DUP1 PUSH1 0x1F LT PUSH2 0x1637 JUMPI PUSH2 0x100 DUP1 DUP4 SLOAD DIV MUL DUP4 MSTORE SWAP2 PUSH1 0x20 ADD SWAP2 PUSH2 0x1660 JUMP JUMPDEST DUP3 ADD SWAP2 SWAP1 PUSH0 MSTORE PUSH1 0x20 PUSH0 KECCAK256 SWAP1 JUMPDEST DUP2 SLOAD DUP2 MSTORE SWAP1 PUSH1 0x1 ADD SWAP1 PUSH1 0x20 ADD DUP1 DUP4 GT PUSH2 0x1643 JUMPI DUP3 SWAP1 SUB PUSH1 0x1F AND DUP3 ADD SWAP2 JUMPDEST POP POP POP POP POP DUP2 MSTORE PUSH1 0x20 ADD SWAP1 PUSH1 0x1 ADD SWAP1 PUSH2 0x15CC JUMP JUMPDEST POP POP POP POP DUP2 MSTORE POP POP DUP2 MSTORE PUSH1 0x20 ADD SWAP1 PUSH1 0x1 ADD SWAP1 PUSH2 0x1454 JUMP JUMPDEST POP POP POP POP SWAP1 POP SWAP1 JUMP JUMPDEST PUSH1 0x60 PUSH1 0x5A DUP3 LT PUSH2 0x16DB JUMPI PUSH1 0x40 MLOAD DUP1 PUSH1 0x40 ADD PUSH1 0x40 MSTORE DUP1 PUSH1 0x1 DUP2 MSTORE PUSH1 0x20 ADD PUSH32 0x4100000000000000000000000000000000000000000000000000000000000000 DUP2 MSTORE POP SWAP1 POP PUSH2 0x17E3 JUMP JUMPDEST PUSH1 0x50 DUP3 LT PUSH2 0x1720 JUMPI PUSH1 0x40 MLOAD DUP1 PUSH1 0x40 ADD PUSH1 0x40 MSTORE DUP1 PUSH1 0x1 DUP2 MSTORE PUSH1 0x20 ADD PUSH32 0x4200000000000000000000000000000000000000000000000000000000000000 DUP2 MSTORE POP SWAP1 POP PUSH2 0x17E3 JUMP JUMPDEST PUSH1 0x46 DUP3 LT PUSH2 0x1765 JUMPI PUSH1 0x40 MLOAD DUP1 PUSH1 0x40 ADD PUSH1 0x40 MSTORE DUP1 PUSH1 0x1 DUP2 MSTORE PUSH1 0x20 ADD PUSH32 0x4300000000000000000000000000000000000000000000000000000000000000 DUP2 MSTORE POP SWAP1 POP PUSH2 0x17E3 JUMP JUMPDEST PUSH1 0x3C DUP3 LT PUSH2 0x17AA JUMPI PUSH1 0x40 MLOAD DUP1 PUSH1 0x40 ADD PUSH1 0x40 MSTORE DUP1 PUSH1 0x1 DUP2 MSTORE PUSH1 0x20 ADD PUSH32 0x4400000000000000000000000000000000000000000000000000000000000000 DUP2 MSTORE POP SWAP1 POP PUSH2 0x17E3 JUMP JUMPDEST PUSH1 0x40 MLOAD DUP1 PUSH1 0x40 ADD PUSH1 0x40 MSTORE DUP1 PUSH1 0x1 DUP2 MSTORE PUSH1 0x20 ADD PUSH32 0x4600000000000000000000000000000000000000000000000000000000000000 DUP2 MSTORE POP SWAP1 POP JUMPDEST SWAP2 SWAP1 POP JUMP JUMPDEST PUSH1 0x40 MLOAD DUP1 PUSH1 0xA0 ADD PUSH1 0x40 MSTORE DUP1 PUSH1 0x60 DUP2 MSTORE PUSH1 0x20 ADD PUSH0 DUP2 MSTORE PUSH1 0x20 ADD PUSH0 DUP2 MSTORE PUSH1 0x20 ADD PUSH1 0x60 DUP2 MSTORE PUSH1 0x20 ADD PUSH1 0x60 DUP2 MSTORE POP SWAP1 JUMP JUMPDEST DUP3 DUP1 SLOAD DUP3 DUP3 SSTORE SWAP1 PUSH0 MSTORE PUSH1 0x20 PUSH0 KECCAK256 SWAP1 DUP2 ADD SWAP3 DUP3 ISZERO PUSH2 0x185B JUMPI SWAP2 PUSH1 0x20 MUL DUP3 ADD JUMPDEST DUP3 DUP2 GT ISZERO PUSH2 0x185A JUMPI DUP3 MLOAD DUP3 SWAP1 DUP2 PUSH2 0x184A SWAP2 SWAP1 PUSH2 0x250D JUMP JUMPDEST POP SWAP2 PUSH1 0x20 ADD SWAP2 SWAP1 PUSH1 0x1 ADD SWAP1 PUSH2 0x1833 JUMP JUMPDEST JUMPDEST POP SWAP1 POP PUSH2 0x1868 SWAP2 SWAP1 PUSH2 0x186C JUMP JUMPDEST POP SWAP1 JUMP JUMPDEST JUMPDEST DUP1 DUP3 GT ISZERO PUSH2 0x188B JUMPI PUSH0 DUP2 DUP2 PUSH2 0x1882 SWAP2 SWAP1 PUSH2 0x188F JUMP JUMPDEST POP PUSH1 0x1 ADD PUSH2 0x186D JUMP JUMPDEST POP SWAP1 JUMP JUMPDEST POP DUP1 SLOAD PUSH2 0x189B SWAP1 PUSH2 0x209D JUMP JUMPDEST PUSH0 DUP3 SSTORE DUP1 PUSH1 0x1F LT PUSH2 0x18AC JUMPI POP PUSH2 0x18C9 JUMP JUMPDEST PUSH1 0x1F ADD PUSH1 0x20 SWAP1 DIV SWAP1 PUSH0 MSTORE PUSH1 0x20 PUSH0 KECCAK256 SWAP1 DUP2 ADD SWAP1 PUSH2 0x18C8 SWAP2 SWAP1 PUSH2 0x18CC JUMP JUMPDEST JUMPDEST POP JUMP JUMPDEST JUMPDEST DUP1 DUP3 GT ISZERO PUSH2 0x18E3 JUMPI PUSH0 DUP2 PUSH0 SWAP1 SSTORE POP PUSH1 0x1 ADD PUSH2 0x18CD JUMP JUMPDEST POP SWAP1 JUMP JUMPDEST PUSH0 PUSH1 0x40 MLOAD SWAP1 POP SWAP1 JUMP JUMPDEST PUSH0 DUP1 REVERT JUMPDEST PUSH0 DUP1 REVERT JUMPDEST PUSH0 DUP1 REVERT JUMPDEST PUSH0 DUP1 REVERT JUMPDEST PUSH0 PUSH1 0x1F NOT PUSH1 0x1F DUP4 ADD AND SWAP1 POP SWAP2 SWAP1 POP JUMP JUMPDEST PUSH32 0x4E487B7100000000000000000000000000000000000000000000000000000000 PUSH0 MSTORE PUSH1 0x41 PUSH1 0x4 MSTORE PUSH1 0x24 PUSH0 REVERT JUMPDEST PUSH2 0x1946 DUP3 PUSH2 0x1900 JUMP JUMPDEST DUP2 ADD DUP2 DUP2 LT PUSH8 0xFFFFFFFFFFFFFFFF DUP3 GT OR ISZERO PUSH2 0x1965 JUMPI PUSH2 0x1964 PUSH2 0x1910 JUMP JUMPDEST JUMPDEST DUP1 PUSH1 0x40 MSTORE POP POP POP JUMP JUMPDEST PUSH0 PUSH2 0x1977 PUSH2 0x18E7 JUMP JUMPDEST SWAP1 POP PUSH2 0x1983 DUP3 DUP3 PUSH2 0x193D JUMP JUMPDEST SWAP2 SWAP1 POP JUMP JUMPDEST PUSH0 PUSH8 0xFFFFFFFFFFFFFFFF DUP3 GT ISZERO PUSH2 0x19A2 JUMPI PUSH2 0x19A1 PUSH2 0x1910 JUMP JUMPDEST JUMPDEST PUSH2 0x19AB DUP3 PUSH2 0x1900 JUMP JUMPDEST SWAP1 POP PUSH1 0x20 DUP2 ADD SWAP1 POP SWAP2 SWAP1 POP JUMP JUMPDEST DUP3 DUP2 DUP4 CALLDATACOPY PUSH0 DUP4 DUP4 ADD MSTORE POP POP POP JUMP JUMPDEST PUSH0 PUSH2 0x19D8 PUSH2 0x19D3 DUP5 PUSH2 0x1988 JUMP JUMPDEST PUSH2 0x196E JUMP JUMPDEST SWAP1 POP DUP3 DUP2 MSTORE PUSH1 0x20 DUP2 ADD DUP5 DUP5 DUP5 ADD GT ISZERO PUSH2 0x19F4 JUMPI PUSH2 0x19F3 PUSH2 0x18FC JUMP JUMPDEST JUMPDEST PUSH2 0x19FF DUP5 DUP3 DUP6 PUSH2 0x19B8 JUMP JUMPDEST POP SWAP4 SWAP3 POP POP POP JUMP JUMPDEST PUSH0 DUP3 PUSH1 0x1F DUP4 ADD SLT PUSH2 0x1A1B JUMPI PUSH2 0x1A1A PUSH2 0x18F8 JUMP JUMPDEST JUMPDEST DUP2 CALLDATALOAD PUSH2 0x1A2B DUP5 DUP3 PUSH1 0x20 DUP7 ADD PUSH2 0x19C6 JUMP JUMPDEST SWAP2 POP POP SWAP3 SWAP2 POP POP JUMP JUMPDEST PUSH0 PUSH1 0x20 DUP3 DUP5 SUB SLT ISZERO PUSH2 0x1A49 JUMPI PUSH2 0x1A48 PUSH2 0x18F0 JUMP JUMPDEST JUMPDEST PUSH0 DUP3 ADD CALLDATALOAD PUSH8 0xFFFFFFFFFFFFFFFF DUP2 GT ISZERO PUSH2 0x1A66 JUMPI PUSH2 0x1A65 PUSH2 0x18F4 JUMP JUMPDEST JUMPDEST PUSH2 0x1A72 DUP5 DUP3 DUP6 ADD PUSH2 0x1A07 JUMP JUMPDEST SWAP2 POP POP SWAP3 SWAP2 POP POP JUMP JUMPDEST PUSH0 DUP2 SWAP1 POP SWAP2 SWAP1 POP JUMP JUMPDEST PUSH2 0x1A8D DUP2 PUSH2 0x1A7B JUMP JUMPDEST DUP3 MSTORE POP POP JUMP JUMPDEST PUSH0 PUSH1 0x20 DUP3 ADD SWAP1 POP PUSH2 0x1AA6 PUSH0 DUP4 ADD DUP5 PUSH2 0x1A84 JUMP JUMPDEST SWAP3 SWAP2 POP POP JUMP JUMPDEST PUSH0 DUP2 MLOAD SWAP1 POP SWAP2 SWAP1 POP JUMP JUMPDEST PUSH0 DUP3 DUP3 MSTORE PUSH1 0x20 DUP3 ADD SWAP1 POP SWAP3 SWAP2 POP POP JUMP JUMPDEST PUSH0 DUP2 SWAP1 POP PUSH1 0x20 DUP3 ADD SWAP1 POP SWAP2 SWAP1 POP JUMP JUMPDEST PUSH0 DUP2 MLOAD SWAP1 POP SWAP2 SWAP1 POP JUMP JUMPDEST PUSH0 DUP3 DUP3 MSTORE PUSH1 0x20 DUP3 ADD SWAP1 POP SWAP3 SWAP2 POP POP JUMP JUMPDEST DUP3 DUP2 DUP4 MCOPY PUSH0 DUP4 DUP4 ADD MSTORE POP POP POP JUMP JUMPDEST PUSH0 PUSH2 0x1B07 DUP3 PUSH2 0x1AD5 JUMP JUMPDEST PUSH2 0x1B11 DUP2 DUP6 PUSH2 0x1ADF JUMP JUMPDEST SWAP4 POP PUSH2 0x1B21 DUP2 DUP6 PUSH1 0x20 DUP7 ADD PUSH2 0x1AEF JUMP JUMPDEST PUSH2 0x1B2A DUP2 PUSH2 0x1900 JUMP JUMPDEST DUP5 ADD SWAP2 POP POP SWAP3 SWAP2 POP POP JUMP JUMPDEST PUSH2 0x1B3E DUP2 PUSH2 0x1A7B JUMP JUMPDEST DUP3 MSTORE POP POP JUMP JUMPDEST PUSH0 DUP2 MLOAD SWAP1 POP SWAP2 SWAP1 POP JUMP JUMPDEST PUSH0 DUP3 DUP3 MSTORE PUSH1 0x20 DUP3 ADD SWAP1 POP SWAP3 SWAP2 POP POP JUMP JUMPDEST PUSH0 DUP2 SWAP1 POP PUSH1 0x20 DUP3 ADD SWAP1 POP SWAP2 SWAP1 POP JUMP JUMPDEST PUSH0 PUSH2 0x1B78 DUP4 DUP4 PUSH2 0x1AFD JUMP JUMPDEST SWAP1 POP SWAP3 SWAP2 POP POP JUMP JUMPDEST PUSH0 PUSH1 0x20 DUP3 ADD SWAP1 POP SWAP2 SWAP1 POP JUMP JUMPDEST PUSH0 PUSH2 0x1B96 DUP3 PUSH2 0x1B44 JUMP JUMPDEST PUSH2 0x1BA0 DUP2 DUP6 PUSH2 0x1B4E JUMP JUMPDEST SWAP4 POP DUP4 PUSH1 0x20 DUP3 MUL DUP6 ADD PUSH2 0x1BB2 DUP6 PUSH2 0x1B5E JUMP JUMPDEST DUP1 PUSH0 JUMPDEST DUP6 DUP2 LT ISZERO PUSH2 0x1BED JUMPI DUP5 DUP5 SUB DUP10 MSTORE DUP2 MLOAD PUSH2 0x1BCE DUP6 DUP3 PUSH2 0x1B6D JUMP JUMPDEST SWAP5 POP PUSH2 0x1BD9 DUP4 PUSH2 0x1B80 JUMP JUMPDEST SWAP3 POP PUSH1 0x20 DUP11 ADD SWAP10 POP POP PUSH1 0x1 DUP2 ADD SWAP1 POP PUSH2 0x1BB5 JUMP JUMPDEST POP DUP3 SWAP8 POP DUP8 SWAP6 POP POP POP POP POP POP SWAP3 SWAP2 POP POP JUMP JUMPDEST PUSH0 PUSH1 0xA0 DUP4 ADD PUSH0 DUP4 ADD MLOAD DUP5 DUP3 SUB PUSH0 DUP7 ADD MSTORE PUSH2 0x1C19 DUP3 DUP3 PUSH2 0x1AFD JUMP JUMPDEST SWAP2 POP POP PUSH1 0x20 DUP4 ADD MLOAD PUSH2 0x1C2E PUSH1 0x20 DUP7 ADD DUP3 PUSH2 0x1B35 JUMP JUMPDEST POP PUSH1 0x40 DUP4 ADD MLOAD PUSH2 0x1C41 PUSH1 0x40 DUP7 ADD DUP3 PUSH2 0x1B35 JUMP JUMPDEST POP PUSH1 0x60 DUP4 ADD MLOAD DUP5 DUP3 SUB PUSH1 0x60 DUP7 ADD MSTORE PUSH2 0x1C59 DUP3 DUP3 PUSH2 0x1AFD JUMP JUMPDEST SWAP2 POP POP PUSH1 0x80 DUP4 ADD MLOAD DUP5 DUP3 SUB PUSH1 0x80 DUP7 ADD MSTORE PUSH2 0x1C73 DUP3 DUP3 PUSH2 0x1B8C JUMP JUMPDEST SWAP2 POP POP DUP1 SWAP2 POP POP SWAP3 SWAP2 POP POP JUMP JUMPDEST PUSH0 PUSH2 0x1C8B DUP4 DUP4 PUSH2 0x1BFF JUMP JUMPDEST SWAP1 POP SWAP3 SWAP2 POP POP JUMP JUMPDEST PUSH0 PUSH1 0x20 DUP3 ADD SWAP1 POP SWAP2 SWAP1 POP JUMP JUMPDEST PUSH0 PUSH2 0x1CA9 DUP3 PUSH2 0x1AAC JUMP JUMPDEST PUSH2 0x1CB3 DUP2 DUP6 PUSH2 0x1AB6 JUMP JUMPDEST SWAP4 POP DUP4 PUSH1 0x20 DUP3 MUL DUP6 ADD PUSH2 0x1CC5 DUP6 PUSH2 0x1AC6 JUMP JUMPDEST DUP1 PUSH0 JUMPDEST DUP6 DUP2 LT ISZERO PUSH2 0x1D00 JUMPI DUP5 DUP5 SUB DUP10 MSTORE DUP2 MLOAD PUSH2 0x1CE1 DUP6 DUP3 PUSH2 0x1C80 JUMP JUMPDEST SWAP5 POP PUSH2 0x1CEC DUP4 PUSH2 0x1C93 JUMP JUMPDEST SWAP3 POP PUSH1 0x20 DUP11 ADD SWAP10 POP POP PUSH1 0x1 DUP2 ADD SWAP1 POP PUSH2 0x1CC8 JUMP JUMPDEST POP DUP3 SWAP8 POP DUP8 SWAP6 POP POP POP POP POP POP SWAP3 SWAP2 POP POP JUMP JUMPDEST PUSH0 PUSH1 0x40 DUP3 ADD SWAP1 POP PUSH2 0x1D25 PUSH0 DUP4 ADD DUP6 PUSH2 0x1A84 JUMP JUMPDEST DUP2 DUP2 SUB PUSH1 0x20 DUP4 ADD MSTORE PUSH2 0x1D37 DUP2 DUP5 PUSH2 0x1C9F JUMP JUMPDEST SWAP1 POP SWAP4 SWAP3 POP POP POP JUMP JUMPDEST PUSH2 0x1D49 DUP2 PUSH2 0x1A7B JUMP JUMPDEST DUP2 EQ PUSH2 0x1D53 JUMPI PUSH0 DUP1 REVERT JUMPDEST POP JUMP JUMPDEST PUSH0 DUP2 CALLDATALOAD SWAP1 POP PUSH2 0x1D64 DUP2 PUSH2 0x1D40 JUMP JUMPDEST SWAP3 SWAP2 POP POP JUMP JUMPDEST PUSH0 PUSH1 0x20 DUP3 DUP5 SUB SLT ISZERO PUSH2 0x1D7F JUMPI PUSH2 0x1D7E PUSH2 0x18F0 JUMP JUMPDEST JUMPDEST PUSH0 PUSH2 0x1D8C DUP5 DUP3 DUP6 ADD PUSH2 0x1D56 JUMP JUMPDEST SWAP2 POP POP SWAP3 SWAP2 POP POP JUMP JUMPDEST PUSH0 PUSH1 0xA0 DUP4 ADD PUSH0 DUP4 ADD MLOAD DUP5 DUP3 SUB PUSH0 DUP7 ADD MSTORE PUSH2 0x1DAF DUP3 DUP3 PUSH2 0x1AFD JUMP JUMPDEST SWAP2 POP POP PUSH1 0x20 DUP4 ADD MLOAD PUSH2 0x1DC4 PUSH1 0x20 DUP7 ADD DUP3 PUSH2 0x1B35 JUMP JUMPDEST POP PUSH1 0x40 DUP4 ADD MLOAD PUSH2 0x1DD7 PUSH1 0x40 DUP7 ADD DUP3 PUSH2 0x1B35 JUMP JUMPDEST POP PUSH1 0x60 DUP4 ADD MLOAD DUP5 DUP3 SUB PUSH1 0x60 DUP7 ADD MSTORE PUSH2 0x1DEF DUP3 DUP3 PUSH2 0x1AFD JUMP JUMPDEST SWAP2 POP POP PUSH1 0x80 DUP4 ADD MLOAD DUP5 DUP3 SUB PUSH1 0x80 DUP7 ADD MSTORE PUSH2 0x1E09 DUP3 DUP3 PUSH2 0x1B8C JUMP JUMPDEST SWAP2 POP POP DUP1 SWAP2 POP POP SWAP3 SWAP2 POP POP JUMP JUMPDEST PUSH0 PUSH1 0x20 DUP3 ADD SWAP1 POP DUP2 DUP2 SUB PUSH0 DUP4 ADD MSTORE PUSH2 0x1E2E DUP2 DUP5 PUSH2 0x1D95 JUMP JUMPDEST SWAP1 POP SWAP3 SWAP2 POP POP JUMP JUMPDEST PUSH0 DUP2 ISZERO ISZERO SWAP1 POP SWAP2 SWAP1 POP JUMP JUMPDEST PUSH2 0x1E4A DUP2 PUSH2 0x1E36 JUMP JUMPDEST DUP3 MSTORE POP POP JUMP JUMPDEST PUSH0 PUSH1 0x20 DUP3 ADD SWAP1 POP PUSH2 0x1E63 PUSH0 DUP4 ADD DUP5 PUSH2 0x1E41 JUMP JUMPDEST SWAP3 SWAP2 POP POP JUMP JUMPDEST PUSH0 PUSH1 0x20 DUP3 ADD SWAP1 POP DUP2 DUP2 SUB PUSH0 DUP4 ADD MSTORE PUSH2 0x1E81 DUP2 DUP5 PUSH2 0x1C9F JUMP JUMPDEST SWAP1 POP SWAP3 SWAP2 POP POP JUMP JUMPDEST PUSH0 PUSH8 0xFFFFFFFFFFFFFFFF DUP3 GT ISZERO PUSH2 0x1EA3 JUMPI PUSH2 0x1EA2 PUSH2 0x1910 JUMP JUMPDEST JUMPDEST PUSH1 0x20 DUP3 MUL SWAP1 POP PUSH1 0x20 DUP2 ADD SWAP1 POP SWAP2 SWAP1 POP JUMP JUMPDEST PUSH0 DUP1 REVERT JUMPDEST PUSH0 PUSH2 0x1ECA PUSH2 0x1EC5 DUP5 PUSH2 0x1E89 JUMP JUMPDEST PUSH2 0x196E JUMP JUMPDEST SWAP1 POP DUP1 DUP4 DUP3 MSTORE PUSH1 0x20 DUP3 ADD SWAP1 POP PUSH1 0x20 DUP5 MUL DUP4 ADD DUP6 DUP2 GT ISZERO PUSH2 0x1EED JUMPI PUSH2 0x1EEC PUSH2 0x1EB4 JUMP JUMPDEST JUMPDEST DUP4 JUMPDEST DUP2 DUP2 LT ISZERO PUSH2 0x1F34 JUMPI DUP1 CALLDATALOAD PUSH8 0xFFFFFFFFFFFFFFFF DUP2 GT ISZERO PUSH2 0x1F12 JUMPI PUSH2 0x1F11 PUSH2 0x18F8 JUMP JUMPDEST JUMPDEST DUP1 DUP7 ADD PUSH2 0x1F1F DUP10 DUP3 PUSH2 0x1A07 JUMP JUMPDEST DUP6 MSTORE PUSH1 0x20 DUP6 ADD SWAP5 POP POP POP PUSH1 0x20 DUP2 ADD SWAP1 POP PUSH2 0x1EEF JUMP JUMPDEST POP POP POP SWAP4 SWAP3 POP POP POP JUMP JUMPDEST PUSH0 DUP3 PUSH1 0x1F DUP4 ADD SLT PUSH2 0x1F52 JUMPI PUSH2 0x1F51 PUSH2 0x18F8 JUMP JUMPDEST JUMPDEST DUP2 CALLDATALOAD PUSH2 0x1F62 DUP5 DUP3 PUSH1 0x20 DUP7 ADD PUSH2 0x1EB8 JUMP JUMPDEST SWAP2 POP POP SWAP3 SWAP2 POP POP JUMP JUMPDEST PUSH0 DUP1 PUSH0 PUSH1 0x60 DUP5 DUP7 SUB SLT ISZERO PUSH2 0x1F82 JUMPI PUSH2 0x1F81 PUSH2 0x18F0 JUMP JUMPDEST JUMPDEST PUSH0 DUP5 ADD CALLDATALOAD PUSH8 0xFFFFFFFFFFFFFFFF DUP2 GT ISZERO PUSH2 0x1F9F JUMPI PUSH2 0x1F9E PUSH2 0x18F4 JUMP JUMPDEST JUMPDEST PUSH2 0x1FAB DUP7 DUP3 DUP8 ADD PUSH2 0x1A07 JUMP JUMPDEST SWAP4 POP POP PUSH1 0x20 PUSH2 0x1FBC DUP7 DUP3 DUP8 ADD PUSH2 0x1D56 JUMP JUMPDEST SWAP3 POP POP PUSH1 0x40 DUP5 ADD CALLDATALOAD PUSH8 0xFFFFFFFFFFFFFFFF DUP2 GT ISZERO PUSH2 0x1FDD JUMPI PUSH2 0x1FDC PUSH2 0x18F4 JUMP JUMPDEST JUMPDEST PUSH2 0x1FE9 DUP7 DUP3 DUP8 ADD PUSH2 0x1F3E JUMP JUMPDEST SWAP2 POP POP SWAP3 POP SWAP3 POP SWAP3 JUMP JUMPDEST PUSH0 DUP2 SWAP1 POP SWAP3 SWAP2 POP POP JUMP JUMPDEST PUSH0 PUSH2 0x2007 DUP3 PUSH2 0x1AD5 JUMP JUMPDEST PUSH2 0x2011 DUP2 DUP6 PUSH2 0x1FF3 JUMP JUMPDEST SWAP4 POP PUSH2 0x2021 DUP2 DUP6 PUSH1 0x20 DUP7 ADD PUSH2 0x1AEF JUMP JUMPDEST DUP1 DUP5 ADD SWAP2 POP POP SWAP3 SWAP2 POP POP JUMP JUMPDEST PUSH0 PUSH2 0x2038 DUP3 DUP5 PUSH2 0x1FFD JUMP JUMPDEST SWAP2 POP DUP2 SWAP1 POP SWAP3 SWAP2 POP POP JUMP JUMPDEST PUSH32 0x4E487B7100000000000000000000000000000000000000000000000000000000 PUSH0 MSTORE PUSH1 0x32 PUSH1 0x4 MSTORE PUSH1 0x24 PUSH0 REVERT JUMPDEST PUSH32 0x4E487B7100000000000000000000000000000000000000000000000000000000 PUSH0 MSTORE PUSH1 0x22 PUSH1 0x4 MSTORE PUSH1 0x24 PUSH0 REVERT JUMPDEST PUSH0 PUSH1 0x2 DUP3 DIV SWAP1 POP PUSH1 0x1 DUP3 AND DUP1 PUSH2 0x20B4 JUMPI PUSH1 0x7F DUP3 AND SWAP2 POP JUMPDEST PUSH1 0x20 DUP3 LT DUP2 SUB PUSH2 0x20C7 JUMPI PUSH2 0x20C6 PUSH2 0x2070 JUMP JUMPDEST JUMPDEST POP SWAP2 SWAP1 POP JUMP JUMPDEST PUSH0 DUP2 SWAP1 POP DUP2 PUSH0 MSTORE PUSH1 0x20 PUSH0 KECCAK256 SWAP1 POP SWAP2 SWAP1 POP JUMP JUMPDEST PUSH0 DUP2 SLOAD PUSH2 0x20EB DUP2 PUSH2 0x209D JUMP JUMPDEST PUSH2 0x20F5 DUP2 DUP7 PUSH2 0x1FF3 JUMP JUMPDEST SWAP5 POP PUSH1 0x1 DUP3 AND PUSH0 DUP2 EQ PUSH2 0x210F JUMPI PUSH1 0x1 DUP2 EQ PUSH2 0x2124 JUMPI PUSH2 0x2156 JUMP JUMPDEST PUSH1 0xFF NOT DUP4 AND DUP7 MSTORE DUP2 ISZERO ISZERO DUP3 MUL DUP7 ADD SWAP4 POP PUSH2 0x2156 JUMP JUMPDEST PUSH2 0x212D DUP6 PUSH2 0x20CD JUMP JUMPDEST PUSH0 JUMPDEST DUP4 DUP2 LT ISZERO PUSH2 0x214E JUMPI DUP2 SLOAD DUP2 DUP10 ADD MSTORE PUSH1 0x1 DUP3 ADD SWAP2 POP PUSH1 0x20 DUP2 ADD SWAP1 POP PUSH2 0x212F JUMP JUMPDEST DUP4 DUP9 ADD SWAP6 POP POP POP JUMPDEST POP POP POP SWAP3 SWAP2 POP POP JUMP JUMPDEST PUSH0 PUSH2 0x216A DUP3 DUP5 PUSH2 0x20DF JUMP JUMPDEST SWAP2 POP DUP2 SWAP1 POP SWAP3 SWAP2 POP POP JUMP JUMPDEST PUSH0 DUP3 DUP3 MSTORE PUSH1 0x20 DUP3 ADD SWAP1 POP SWAP3 SWAP2 POP POP JUMP JUMPDEST PUSH32 0x4E6F206461746100000000000000000000000000000000000000000000000000 PUSH0 DUP3 ADD MSTORE POP JUMP JUMPDEST PUSH0 PUSH2 0x21B9 PUSH1 0x7 DUP4 PUSH2 0x2175 JUMP JUMPDEST SWAP2 POP PUSH2 0x21C4 DUP3 PUSH2 0x2185 JUMP JUMPDEST PUSH1 0x20 DUP3 ADD SWAP1 POP SWAP2 SWAP1 POP JUMP JUMPDEST PUSH0 PUSH1 0x20 DUP3 ADD SWAP1 POP DUP2 DUP2 SUB PUSH0 DUP4 ADD MSTORE PUSH2 0x21E6 DUP2 PUSH2 0x21AD JUMP JUMPDEST SWAP1 POP SWAP2 SWAP1 POP JUMP JUMPDEST PUSH32 0x4600000000000000000000000000000000000000000000000000000000000000 PUSH0 DUP3 ADD MSTORE POP JUMP JUMPDEST PUSH0 PUSH2 0x2221 PUSH1 0x1 DUP4 PUSH2 0x1FF3 JUMP JUMPDEST SWAP2 POP PUSH2 0x222C DUP3 PUSH2 0x21ED JUMP JUMPDEST PUSH1 0x1 DUP3 ADD SWAP1 POP SWAP2 SWAP1 POP JUMP JUMPDEST PUSH0 PUSH2 0x2241 DUP3 PUSH2 0x2215 JUMP JUMPDEST SWAP2 POP DUP2 SWAP1 POP SWAP2 SWAP1 POP JUMP JUMPDEST PUSH32 0x4E487B7100000000000000000000000000000000000000000000000000000000 PUSH0 MSTORE PUSH1 0x11 PUSH1 0x4 MSTORE PUSH1 0x24 PUSH0 REVERT JUMPDEST PUSH0 PUSH2 0x2282 DUP3 PUSH2 0x1A7B JUMP JUMPDEST SWAP2 POP PUSH32 0xFFFFFFFFFFFFFFFFFFFFFFFFFFFFFFFFFFFFFFFFFFFFFFFFFFFFFFFFFFFFFFFF DUP3 SUB PUSH2 0x22B4 JUMPI PUSH2 0x22B3 PUSH2 0x224B JUMP JUMPDEST JUMPDEST PUSH1 0x1 DUP3 ADD SWAP1 POP SWAP2 SWAP1 POP JUMP JUMPDEST PUSH0 PUSH2 0x22C9 DUP3 PUSH2 0x1A7B JUMP JUMPDEST SWAP2 POP PUSH2 0x22D4 DUP4 PUSH2 0x1A7B JUMP JUMPDEST SWAP3 POP DUP3 DUP3 SUB SWAP1 POP DUP2 DUP2 GT ISZERO PUSH2 0x22EC JUMPI PUSH2 0x22EB PUSH2 0x224B JUMP JUMPDEST JUMPDEST SWAP3 SWAP2 POP POP JUMP JUMPDEST PUSH0 PUSH2 0x22FC DUP3 PUSH2 0x1A7B JUMP JUMPDEST SWAP2 POP PUSH2 0x2307 DUP4 PUSH2 0x1A7B JUMP JUMPDEST SWAP3 POP DUP3 DUP3 ADD SWAP1 POP DUP1 DUP3 GT ISZERO PUSH2 0x231F JUMPI PUSH2 0x231E PUSH2 0x224B JUMP JUMPDEST JUMPDEST SWAP3 SWAP2 POP POP JUMP JUMPDEST PUSH32 0x4E487B7100000000000000000000000000000000000000000000000000000000 PUSH0 MSTORE PUSH1 0x12 PUSH1 0x4 MSTORE PUSH1 0x24 PUSH0 REVERT JUMPDEST PUSH0 PUSH2 0x235C DUP3 PUSH2 0x1A7B JUMP JUMPDEST SWAP2 POP PUSH2 0x2367 DUP4 PUSH2 0x1A7B JUMP JUMPDEST SWAP3 POP DUP3 PUSH2 0x2377 JUMPI PUSH2 0x2376 PUSH2 0x2325 JUMP JUMPDEST JUMPDEST DUP3 DUP3 DIV SWAP1 POP SWAP3 SWAP2 POP POP JUMP JUMPDEST PUSH0 PUSH1 0x20 PUSH1 0x1F DUP4 ADD DIV SWAP1 POP SWAP2 SWAP1 POP JUMP JUMPDEST PUSH0 DUP3 DUP3 SHL SWAP1 POP SWAP3 SWAP2 POP POP JUMP JUMPDEST PUSH0 PUSH1 0x8 DUP4 MUL PUSH2 0x23CC PUSH32 0xFFFFFFFFFFFFFFFFFFFFFFFFFFFFFFFFFFFFFFFFFFFFFFFFFFFFFFFFFFFFFFFF DUP3 PUSH2 0x2391 JUMP JUMPDEST PUSH2 0x23D6 DUP7 DUP4 PUSH2 0x2391 JUMP JUMPDEST SWAP6 POP DUP1 NOT DUP5 AND SWAP4 POP DUP1 DUP7 AND DUP5 OR SWAP3 POP POP POP SWAP4 SWAP3 POP POP POP JUMP JUMPDEST PUSH0 DUP2 SWAP1 POP SWAP2 SWAP1 POP JUMP JUMPDEST PUSH0 PUSH2 0x2411 PUSH2 0x240C PUSH2 0x2407 DUP5 PUSH2 0x1A7B JUMP JUMPDEST PUSH2 0x23EE JUMP JUMPDEST PUSH2 0x1A7B JUMP JUMPDEST SWAP1 POP SWAP2 SWAP1 POP JUMP JUMPDEST PUSH0 DUP2 SWAP1 POP SWAP2 SWAP1 POP JUMP JUMPDEST PUSH2 0x242A DUP4 PUSH2 0x23F7 JUMP JUMPDEST PUSH2 0x243E PUSH2 0x2436 DUP3 PUSH2 0x2418 JUMP JUMPDEST DUP5 DUP5 SLOAD PUSH2 0x239D JUMP JUMPDEST DUP3 SSTORE POP POP POP POP JUMP JUMPDEST PUSH0 SWAP1 JUMP JUMPDEST PUSH2 0x2452 PUSH2 0x2446 JUMP JUMPDEST PUSH2 0x245D DUP2 DUP5 DUP5 PUSH2 0x2421 JUMP JUMPDEST POP POP POP JUMP JUMPDEST JUMPDEST DUP2 DUP2 LT ISZERO PUSH2 0x2480 JUMPI PUSH2 0x2475 PUSH0 DUP3 PUSH2 0x244A JUMP JUMPDEST PUSH1 0x1 DUP2 ADD SWAP1 POP PUSH2 0x2463 JUMP JUMPDEST POP POP JUMP JUMPDEST PUSH1 0x1F DUP3 GT ISZERO PUSH2 0x24C5 JUMPI PUSH2 0x2496 DUP2 PUSH2 0x20CD JUMP JUMPDEST PUSH2 0x249F DUP5 PUSH2 0x2382 JUMP JUMPDEST DUP2 ADD PUSH1 0x20 DUP6 LT ISZERO PUSH2 0x24AE JUMPI DUP2 SWAP1 POP JUMPDEST PUSH2 0x24C2 PUSH2 0x24BA DUP6 PUSH2 0x2382 JUMP JUMPDEST DUP4 ADD DUP3 PUSH2 0x2462 JUMP JUMPDEST POP POP JUMPDEST POP POP POP JUMP JUMPDEST PUSH0 DUP3 DUP3 SHR SWAP1 POP SWAP3 SWAP2 POP POP JUMP JUMPDEST PUSH0 PUSH2 0x24E5 PUSH0 NOT DUP5 PUSH1 0x8 MUL PUSH2 0x24CA JUMP JUMPDEST NOT DUP1 DUP4 AND SWAP2 POP POP SWAP3 SWAP2 POP POP JUMP JUMPDEST PUSH0 PUSH2 0x24FD DUP4 DUP4 PUSH2 0x24D6 JUMP JUMPDEST SWAP2 POP DUP3 PUSH1 0x2 MUL DUP3 OR SWAP1 POP SWAP3 SWAP2 POP POP JUMP JUMPDEST PUSH2 0x2516 DUP3 PUSH2 0x1AD5 JUMP JUMPDEST PUSH8 0xFFFFFFFFFFFFFFFF DUP2 GT ISZERO PUSH2 0x252F JUMPI PUSH2 0x252E PUSH2 0x1910 JUMP JUMPDEST JUMPDEST PUSH2 0x2539 DUP3 SLOAD PUSH2 0x209D JUMP JUMPDEST PUSH2 0x2544 DUP3 DUP3 DUP6 PUSH2 0x2484 JUMP JUMPDEST PUSH0 PUSH1 0x20 SWAP1 POP PUSH1 0x1F DUP4 GT PUSH1 0x1 DUP2 EQ PUSH2 0x2575 JUMPI PUSH0 DUP5 ISZERO PUSH2 0x2563 JUMPI DUP3 DUP8 ADD MLOAD SWAP1 POP JUMPDEST PUSH2 0x256D DUP6 DUP3 PUSH2 0x24F2 JUMP JUMPDEST DUP7 SSTORE POP PUSH2 0x25D4 JUMP JUMPDEST PUSH1 0x1F NOT DUP5 AND PUSH2 0x2583 DUP7 PUSH2 0x20CD JUMP JUMPDEST PUSH0 JUMPDEST DUP3 DUP2 LT ISZERO PUSH2 0x25AA JUMPI DUP5 DUP10 ADD MLOAD DUP3 SSTORE PUSH1 0x1 DUP3 ADD SWAP2 POP PUSH1 0x20 DUP6 ADD SWAP5 POP PUSH1 0x20 DUP2 ADD SWAP1 POP PUSH2 0x2585 JUMP JUMPDEST DUP7 DUP4 LT ISZERO PUSH2 0x25C7 JUMPI DUP5 DUP10 ADD MLOAD PUSH2 0x25C3 PUSH1 0x1F DUP10 AND DUP3 PUSH2 0x24D6 JUMP JUMPDEST DUP4 SSTORE POP JUMPDEST PUSH1 0x1 PUSH1 0x2 DUP9 MUL ADD DUP9 SSTORE POP POP POP JUMPDEST POP POP POP POP POP POP JUMP INVALID LOG2 PUSH5 0x6970667358 0x22 SLT KECCAK256 0xD SWAP5 0xEC LT PUSH10 0xE121BB9F67EDF329397E 0xC2 ADD 0xD1 0xCE 0xD2 GT GASLIMIT 0xDB 0xD8 SHL 0xE5 0xBB 0xB4 PUSH32 0x18245864736F6C634300081A0033000000000000000000000000000000000000 "
				},
				"gasEstimates": {
					"creation": {
						"codeDepositCost": "1949200",
						"executionCost": "2060",
						"totalCost": "1951260"
					},
					"external": {
						"Flists()": "infinite",
						"addStudent(string,uint256,string[])": "infinite",
						"getAvgScore()": "infinite",
						"getExcellentStudents()": "infinite",
						"getNumbers()": "2440",
						"getScore(string)": "infinite",
						"getStudent(uint256)": "infinite",
						"getStudent2(string)": "infinite",
						"getStudents()": "infinite",
						"pushStudents()": "infinite",
						"teacherSelfEvaluation()": "infinite"
					},
					"internal": {
						"setGrade(uint256)": "infinite"
					}
				},
				"methodIdentifiers": {
					"Flists()": "4ebb7603",
					"addStudent(string,uint256,string[])": "c7e56ae3",
					"getAvgScore()": "740d5e10",
					"getExcellentStudents()": "9f259987",
					"getNumbers()": "89f915f6",
					"getScore(string)": "16020273",
					"getStudent(uint256)": "642f9163",
					"getStudent2(string)": "95863d62",
					"getStudents()": "f1d064b3",
					"pushStudents()": "b24341cb",
					"teacherSelfEvaluation()": "877f18b3"
				}
			},
			"storageLayout": {
				"storage": [
					{
						"astId": 17,
						"contract": "Code Test/CodeTest_1.sol:TEST2",
						"label": "students",
						"offset": 0,
						"slot": "0",
						"type": "t_array(t_struct(student)13_storage)dyn_storage"
					}
				],
				"types": {
					"t_array(t_string_storage)dyn_storage": {
						"base": "t_string_storage",
						"encoding": "dynamic_array",
						"label": "string[]",
						"numberOfBytes": "32"
					},
					"t_array(t_struct(student)13_storage)dyn_storage": {
						"base": "t_struct(student)13_storage",
						"encoding": "dynamic_array",
						"label": "struct TEST2.student[]",
						"numberOfBytes": "32"
					},
					"t_string_storage": {
						"encoding": "bytes",
						"label": "string",
						"numberOfBytes": "32"
					},
					"t_struct(student)13_storage": {
						"encoding": "inplace",
						"label": "struct TEST2.student",
						"members": [
							{
								"astId": 3,
								"contract": "Code Test/CodeTest_1.sol:TEST2",
								"label": "name",
								"offset": 0,
								"slot": "0",
								"type": "t_string_storage"
							},
							{
								"astId": 5,
								"contract": "Code Test/CodeTest_1.sol:TEST2",
								"label": "number",
								"offset": 0,
								"slot": "1",
								"type": "t_uint256"
							},
							{
								"astId": 7,
								"contract": "Code Test/CodeTest_1.sol:TEST2",
								"label": "score",
								"offset": 0,
								"slot": "2",
								"type": "t_uint256"
							},
							{
								"astId": 9,
								"contract": "Code Test/CodeTest_1.sol:TEST2",
								"label": "grade",
								"offset": 0,
								"slot": "3",
								"type": "t_string_storage"
							},
							{
								"astId": 12,
								"contract": "Code Test/CodeTest_1.sol:TEST2",
								"label": "classLists",
								"offset": 0,
								"slot": "4",
								"type": "t_array(t_string_storage)dyn_storage"
							}
						],
						"numberOfBytes": "160"
					},
					"t_uint256": {
						"encoding": "inplace",
						"label": "uint256",
						"numberOfBytes": "32"
					}
				}
			},
			"userdoc": {
				"kind": "user",
				"methods": {},
				"version": 1
			}
		}
	}
}