{
	"Code Test/CodeTest_2.sol": {
		"TEST2": {
			"abi": [
				{
					"inputs": [],
					"name": "getAllStudents",
					"outputs": [
						{
							"components": [
								{
									"internalType": "uint256",
									"name": "number",
									"type": "uint256"
								},
								{
									"internalType": "string",
									"name": "name",
									"type": "string"
								},
								{
									"internalType": "uint256",
									"name": "score",
									"type": "uint256"
								}
							],
							"internalType": "struct TEST2.student[]",
							"name": "",
							"type": "tuple[]"
						}
					],
					"stateMutability": "view",
					"type": "function"
				},
				{
					"inputs": [
						{
							"internalType": "uint256",
							"name": "_number",
							"type": "uint256"
						}
					],
					"name": "getStudent",
					"outputs": [
						{
							"components": [
								{
									"internalType": "uint256",
									"name": "number",
									"type": "uint256"
								},
								{
									"internalType": "string",
									"name": "name",
									"type": "string"
								},
								{
									"internalType": "uint256",
									"name": "score",
									"type": "uint256"
								}
							],
							"internalType": "struct TEST2.student",
							"name": "",
							"type": "tuple"
						}
					],
					"stateMutability": "view",
					"type": "function"
				},
				{
					"inputs": [],
					"name": "lowestScore",
					"outputs": [
						{
							"components": [
								{
									"internalType": "uint256",
									"name": "number",
									"type": "uint256"
								},
								{
									"internalType": "string",
									"name": "name",
									"type": "string"
								},
								{
									"internalType": "uint256",
									"name": "score",
									"type": "uint256"
								}
							],
							"internalType": "struct TEST2.student",
							"name": "",
							"type": "tuple"
						}
					],
					"stateMutability": "view",
					"type": "function"
				},
				{
					"inputs": [
						{
							"internalType": "uint256",
							"name": "_number",
							"type": "uint256"
						},
						{
							"internalType": "string",
							"name": "_name",
							"type": "string"
						},
						{
							"internalType": "uint256",
							"name": "_score",
							"type": "uint256"
						}
					],
					"name": "pushStudent",
					"outputs": [],
					"stateMutability": "nonpayable",
					"type": "function"
				},
				{
					"inputs": [],
					"name": "totalScore",
					"outputs": [
						{
							"internalType": "uint256",
							"name": "",
							"type": "uint256"
						},
						{
							"internalType": "uint256",
							"name": "",
							"type": "uint256"
						}
					],
					"stateMutability": "view",
					"type": "function"
				}
			],
			"devdoc": {
				"kind": "dev",
				"methods": {},
				"version": 1
			},
			"evm": {
				"assembly": "    /* \"Code Test/CodeTest_2.sol\":58:2114  contract TEST2 {... */\n  mstore(0x40, 0x80)\n  callvalue\n  dup1\n  iszero\n  tag_1\n  jumpi\n  0x00\n  dup1\n  revert\ntag_1:\n  pop\n  dataSize(sub_0)\n  dup1\n  dataOffset(sub_0)\n  0x00\n  codecopy\n  0x00\n  return\nstop\n\nsub_0: assembly {\n        /* \"Code Test/CodeTest_2.sol\":58:2114  contract TEST2 {... */\n      mstore(0x40, 0x80)\n      callvalue\n      dup1\n      iszero\n      tag_1\n      jumpi\n      0x00\n      dup1\n      revert\n    tag_1:\n      pop\n      jumpi(tag_2, lt(calldatasize, 0x04))\n      shr(0xe0, calldataload(0x00))\n      dup1\n      0x3b4598b1\n      eq\n      tag_3\n      jumpi\n      dup1\n      0x642f9163\n      eq\n      tag_4\n      jumpi\n      dup1\n      0xa0b26a7d\n      eq\n      tag_5\n      jumpi\n      dup1\n      0xc006719f\n      eq\n      tag_6\n      jumpi\n      dup1\n      0xe9e30927\n      eq\n      tag_7\n      jumpi\n    tag_2:\n      0x00\n      dup1\n      revert\n        /* \"Code Test/CodeTest_2.sol\":733:870  function pushStudent(uint _number, string memory _name, uint _score) public {... */\n    tag_3:\n      tag_8\n      0x04\n      dup1\n      calldatasize\n      sub\n      dup2\n      add\n      swap1\n      tag_9\n      swap2\n      swap1\n      tag_10\n      jump\t// in\n    tag_9:\n      tag_11\n      jump\t// in\n    tag_8:\n      stop\n        /* \"Code Test/CodeTest_2.sol\":1647:1914  function getStudent(uint _number) public view returns (student memory) {... */\n    tag_4:\n      tag_12\n      0x04\n      dup1\n      calldatasize\n      sub\n      dup2\n      add\n      swap1\n      tag_13\n      swap2\n      swap1\n      tag_14\n      jump\t// in\n    tag_13:\n      tag_15\n      jump\t// in\n    tag_12:\n      mload(0x40)\n      tag_16\n      swap2\n      swap1\n      tag_17\n      jump\t// in\n    tag_16:\n      mload(0x40)\n      dup1\n      swap2\n      sub\n      swap1\n      return\n        /* \"Code Test/CodeTest_2.sol\":946:1287  function lowestScore() public view returns (student memory) {... */\n    tag_5:\n      tag_18\n      tag_19\n      jump\t// in\n    tag_18:\n      mload(0x40)\n      tag_20\n      swap2\n      swap1\n      tag_17\n      jump\t// in\n    tag_20:\n      mload(0x40)\n      dup1\n      swap2\n      sub\n      swap1\n      return\n        /* \"Code Test/CodeTest_2.sol\":1360:1580  function totalScore() public view returns (uint, uint) {... */\n    tag_6:\n      tag_21\n      tag_22\n      jump\t// in\n    tag_21:\n      mload(0x40)\n      tag_23\n      swap3\n      swap2\n      swap1\n      tag_24\n      jump\t// in\n    tag_23:\n      mload(0x40)\n      dup1\n      swap2\n      sub\n      swap1\n      return\n        /* \"Code Test/CodeTest_2.sol\":2014:2111  function getAllStudents() public view returns (student[] memory) {... */\n    tag_7:\n      tag_25\n      tag_26\n      jump\t// in\n    tag_25:\n      mload(0x40)\n      tag_27\n      swap2\n      swap1\n      tag_28\n      jump\t// in\n    tag_27:\n      mload(0x40)\n      dup1\n      swap2\n      sub\n      swap1\n      return\n        /* \"Code Test/CodeTest_2.sol\":733:870  function pushStudent(uint _number, string memory _name, uint _score) public {... */\n    tag_11:\n        /* \"Code Test/CodeTest_2.sol\":819:827  students */\n      0x00\n        /* \"Code Test/CodeTest_2.sol\":833:862  student(_number,_name,_score) */\n      mload(0x40)\n      dup1\n      0x60\n      add\n      0x40\n      mstore\n      dup1\n        /* \"Code Test/CodeTest_2.sol\":841:848  _number */\n      dup6\n        /* \"Code Test/CodeTest_2.sol\":833:862  student(_number,_name,_score) */\n      dup2\n      mstore\n      0x20\n      add\n        /* \"Code Test/CodeTest_2.sol\":849:854  _name */\n      dup5\n        /* \"Code Test/CodeTest_2.sol\":833:862  student(_number,_name,_score) */\n      dup2\n      mstore\n      0x20\n      add\n        /* \"Code Test/CodeTest_2.sol\":855:861  _score */\n      dup4\n        /* \"Code Test/CodeTest_2.sol\":833:862  student(_number,_name,_score) */\n      dup2\n      mstore\n      pop\n        /* \"Code Test/CodeTest_2.sol\":819:863  students.push(student(_number,_name,_score)) */\n      swap1\n      dup1\n      0x01\n      dup2\n      sload\n      add\n      dup1\n      dup3\n      sstore\n      dup1\n      swap2\n      pop\n      pop\n      0x01\n      swap1\n      sub\n      swap1\n      0x00\n      mstore\n      keccak256(0x00, 0x20)\n      swap1\n      0x03\n      mul\n      add\n      0x00\n      swap1\n      swap2\n      swap1\n      swap2\n      swap1\n      swap2\n      pop\n      0x00\n      dup3\n      add\n      mload\n      dup2\n      0x00\n      add\n      sstore\n      0x20\n      dup3\n      add\n      mload\n      dup2\n      0x01\n      add\n      swap1\n      dup2\n      tag_31\n      swap2\n      swap1\n      tag_32\n      jump\t// in\n    tag_31:\n      pop\n      0x40\n      dup3\n      add\n      mload\n      dup2\n      0x02\n      add\n      sstore\n      pop\n      pop\n        /* \"Code Test/CodeTest_2.sol\":733:870  function pushStudent(uint _number, string memory _name, uint _score) public {... */\n      pop\n      pop\n      pop\n      jump\t// out\n        /* \"Code Test/CodeTest_2.sol\":1647:1914  function getStudent(uint _number) public view returns (student memory) {... */\n    tag_15:\n        /* \"Code Test/CodeTest_2.sol\":1702:1716  student memory */\n      tag_33\n      tag_34\n      jump\t// in\n    tag_33:\n        /* \"Code Test/CodeTest_2.sol\":1732:1738  uint i */\n      0x00\n        /* \"Code Test/CodeTest_2.sol\":1728:1871  for(uint i=0;i<students.length;i++){... */\n    tag_36:\n        /* \"Code Test/CodeTest_2.sol\":1743:1751  students */\n      0x00\n        /* \"Code Test/CodeTest_2.sol\":1743:1758  students.length */\n      dup1\n      sload\n      swap1\n      pop\n        /* \"Code Test/CodeTest_2.sol\":1741:1742  i */\n      dup2\n        /* \"Code Test/CodeTest_2.sol\":1741:1758  i<students.length */\n      lt\n        /* \"Code Test/CodeTest_2.sol\":1728:1871  for(uint i=0;i<students.length;i++){... */\n      iszero\n      tag_37\n      jumpi\n        /* \"Code Test/CodeTest_2.sol\":1802:1809  _number */\n      dup3\n        /* \"Code Test/CodeTest_2.sol\":1780:1788  students */\n      0x00\n        /* \"Code Test/CodeTest_2.sol\":1789:1790  i */\n      dup3\n        /* \"Code Test/CodeTest_2.sol\":1780:1791  students[i] */\n      dup2\n      sload\n      dup2\n      lt\n      tag_39\n      jumpi\n      tag_40\n      tag_41\n      jump\t// in\n    tag_40:\n    tag_39:\n      swap1\n      0x00\n      mstore\n      keccak256(0x00, 0x20)\n      swap1\n      0x03\n      mul\n      add\n        /* \"Code Test/CodeTest_2.sol\":1780:1798  students[i].number */\n      0x00\n      add\n      sload\n        /* \"Code Test/CodeTest_2.sol\":1780:1809  students[i].number == _number */\n      sub\n        /* \"Code Test/CodeTest_2.sol\":1777:1861  if(students[i].number == _number){... */\n      tag_43\n      jumpi\n        /* \"Code Test/CodeTest_2.sol\":1835:1843  students */\n      0x00\n        /* \"Code Test/CodeTest_2.sol\":1844:1845  i */\n      dup2\n        /* \"Code Test/CodeTest_2.sol\":1835:1846  students[i] */\n      dup2\n      sload\n      dup2\n      lt\n      tag_44\n      jumpi\n      tag_45\n      tag_41\n      jump\t// in\n    tag_45:\n    tag_44:\n      swap1\n      0x00\n      mstore\n      keccak256(0x00, 0x20)\n      swap1\n      0x03\n      mul\n      add\n        /* \"Code Test/CodeTest_2.sol\":1828:1846  return students[i] */\n      mload(0x40)\n      dup1\n      0x60\n      add\n      0x40\n      mstore\n      swap1\n      dup2\n      0x00\n      dup3\n      add\n      sload\n      dup2\n      mstore\n      0x20\n      add\n      0x01\n      dup3\n      add\n      dup1\n      sload\n      tag_47\n      swap1\n      tag_48\n      jump\t// in\n    tag_47:\n      dup1\n      0x1f\n      add\n      0x20\n      dup1\n      swap2\n      div\n      mul\n      0x20\n      add\n      mload(0x40)\n      swap1\n      dup2\n      add\n      0x40\n      mstore\n      dup1\n      swap3\n      swap2\n      swap1\n      dup2\n      dup2\n      mstore\n      0x20\n      add\n      dup3\n      dup1\n      sload\n      tag_49\n      swap1\n      tag_48\n      jump\t// in\n    tag_49:\n      dup1\n      iszero\n      tag_50\n      jumpi\n      dup1\n      0x1f\n      lt\n      tag_51\n      jumpi\n      0x0100\n      dup1\n      dup4\n      sload\n      div\n      mul\n      dup4\n      mstore\n      swap2\n      0x20\n      add\n      swap2\n      jump(tag_50)\n    tag_51:\n      dup3\n      add\n      swap2\n      swap1\n      0x00\n      mstore\n      keccak256(0x00, 0x20)\n      swap1\n    tag_52:\n      dup2\n      sload\n      dup2\n      mstore\n      swap1\n      0x01\n      add\n      swap1\n      0x20\n      add\n      dup1\n      dup4\n      gt\n      tag_52\n      jumpi\n      dup3\n      swap1\n      sub\n      0x1f\n      and\n      dup3\n      add\n      swap2\n    tag_50:\n      pop\n      pop\n      pop\n      pop\n      pop\n      dup2\n      mstore\n      0x20\n      add\n      0x02\n      dup3\n      add\n      sload\n      dup2\n      mstore\n      pop\n      pop\n      swap2\n      pop\n      pop\n      jump(tag_35)\n        /* \"Code Test/CodeTest_2.sol\":1777:1861  if(students[i].number == _number){... */\n    tag_43:\n        /* \"Code Test/CodeTest_2.sol\":1759:1762  i++ */\n      dup1\n      dup1\n      0x01\n      add\n      swap2\n      pop\n      pop\n        /* \"Code Test/CodeTest_2.sol\":1728:1871  for(uint i=0;i<students.length;i++){... */\n      jump(tag_36)\n    tag_37:\n      pop\n        /* \"Code Test/CodeTest_2.sol\":1880:1907  revert(\"Student Not Found\") */\n      mload(0x40)\n      0x08c379a000000000000000000000000000000000000000000000000000000000\n      dup2\n      mstore\n      0x04\n      add\n      tag_53\n      swap1\n      tag_54\n      jump\t// in\n    tag_53:\n      mload(0x40)\n      dup1\n      swap2\n      sub\n      swap1\n      revert\n        /* \"Code Test/CodeTest_2.sol\":1647:1914  function getStudent(uint _number) public view returns (student memory) {... */\n    tag_35:\n      swap2\n      swap1\n      pop\n      jump\t// out\n        /* \"Code Test/CodeTest_2.sol\":946:1287  function lowestScore() public view returns (student memory) {... */\n    tag_19:\n        /* \"Code Test/CodeTest_2.sol\":990:1004  student memory */\n      tag_55\n      tag_34\n      jump\t// in\n    tag_55:\n        /* \"Code Test/CodeTest_2.sol\":1016:1049  student memory lowestScoreStudent */\n      0x00\n        /* \"Code Test/CodeTest_2.sol\":1052:1060  students */\n      dup1\n        /* \"Code Test/CodeTest_2.sol\":1061:1062  0 */\n      0x00\n        /* \"Code Test/CodeTest_2.sol\":1052:1063  students[0] */\n      dup2\n      sload\n      dup2\n      lt\n      tag_57\n      jumpi\n      tag_58\n      tag_41\n      jump\t// in\n    tag_58:\n    tag_57:\n      swap1\n      0x00\n      mstore\n      keccak256(0x00, 0x20)\n      swap1\n      0x03\n      mul\n      add\n        /* \"Code Test/CodeTest_2.sol\":1016:1063  student memory lowestScoreStudent = students[0] */\n      mload(0x40)\n      dup1\n      0x60\n      add\n      0x40\n      mstore\n      swap1\n      dup2\n      0x00\n      dup3\n      add\n      sload\n      dup2\n      mstore\n      0x20\n      add\n      0x01\n      dup3\n      add\n      dup1\n      sload\n      tag_60\n      swap1\n      tag_48\n      jump\t// in\n    tag_60:\n      dup1\n      0x1f\n      add\n      0x20\n      dup1\n      swap2\n      div\n      mul\n      0x20\n      add\n      mload(0x40)\n      swap1\n      dup2\n      add\n      0x40\n      mstore\n      dup1\n      swap3\n      swap2\n      swap1\n      dup2\n      dup2\n      mstore\n      0x20\n      add\n      dup3\n      dup1\n      sload\n      tag_61\n      swap1\n      tag_48\n      jump\t// in\n    tag_61:\n      dup1\n      iszero\n      tag_62\n      jumpi\n      dup1\n      0x1f\n      lt\n      tag_63\n      jumpi\n      0x0100\n      dup1\n      dup4\n      sload\n      div\n      mul\n      dup4\n      mstore\n      swap2\n      0x20\n      add\n      swap2\n      jump(tag_62)\n    tag_63:\n      dup3\n      add\n      swap2\n      swap1\n      0x00\n      mstore\n      keccak256(0x00, 0x20)\n      swap1\n    tag_64:\n      dup2\n      sload\n      dup2\n      mstore\n      swap1\n      0x01\n      add\n      swap1\n      0x20\n      add\n      dup1\n      dup4\n      gt\n      tag_64\n      jumpi\n      dup3\n      swap1\n      sub\n      0x1f\n      and\n      dup3\n      add\n      swap2\n    tag_62:\n      pop\n      pop\n      pop\n      pop\n      pop\n      dup2\n      mstore\n      0x20\n      add\n      0x02\n      dup3\n      add\n      sload\n      dup2\n      mstore\n      pop\n      pop\n      swap1\n      pop\n        /* \"Code Test/CodeTest_2.sol\":1077:1083  uint i */\n      0x00\n        /* \"Code Test/CodeTest_2.sol\":1073:1246  for(uint i=0; i<students.length;i++){... */\n    tag_65:\n        /* \"Code Test/CodeTest_2.sol\":1089:1097  students */\n      0x00\n        /* \"Code Test/CodeTest_2.sol\":1089:1104  students.length */\n      dup1\n      sload\n      swap1\n      pop\n        /* \"Code Test/CodeTest_2.sol\":1087:1088  i */\n      dup2\n        /* \"Code Test/CodeTest_2.sol\":1087:1104  i<students.length */\n      lt\n        /* \"Code Test/CodeTest_2.sol\":1073:1246  for(uint i=0; i<students.length;i++){... */\n      iszero\n      tag_66\n      jumpi\n        /* \"Code Test/CodeTest_2.sol\":1146:1164  lowestScoreStudent */\n      dup2\n        /* \"Code Test/CodeTest_2.sol\":1146:1170  lowestScoreStudent.score */\n      0x40\n      add\n      mload\n        /* \"Code Test/CodeTest_2.sol\":1126:1134  students */\n      0x00\n        /* \"Code Test/CodeTest_2.sol\":1135:1136  i */\n      dup3\n        /* \"Code Test/CodeTest_2.sol\":1126:1137  students[i] */\n      dup2\n      sload\n      dup2\n      lt\n      tag_68\n      jumpi\n      tag_69\n      tag_41\n      jump\t// in\n    tag_69:\n    tag_68:\n      swap1\n      0x00\n      mstore\n      keccak256(0x00, 0x20)\n      swap1\n      0x03\n      mul\n      add\n        /* \"Code Test/CodeTest_2.sol\":1126:1143  students[i].score */\n      0x02\n      add\n      sload\n        /* \"Code Test/CodeTest_2.sol\":1126:1170  students[i].score < lowestScoreStudent.score */\n      lt\n        /* \"Code Test/CodeTest_2.sol\":1123:1236  if(students[i].score < lowestScoreStudent.score){... */\n      iszero\n      tag_71\n      jumpi\n        /* \"Code Test/CodeTest_2.sol\":1210:1218  students */\n      0x00\n        /* \"Code Test/CodeTest_2.sol\":1219:1220  i */\n      dup2\n        /* \"Code Test/CodeTest_2.sol\":1210:1221  students[i] */\n      dup2\n      sload\n      dup2\n      lt\n      tag_72\n      jumpi\n      tag_73\n      tag_41\n      jump\t// in\n    tag_73:\n    tag_72:\n      swap1\n      0x00\n      mstore\n      keccak256(0x00, 0x20)\n      swap1\n      0x03\n      mul\n      add\n        /* \"Code Test/CodeTest_2.sol\":1189:1221  lowestScoreStudent = students[i] */\n      mload(0x40)\n      dup1\n      0x60\n      add\n      0x40\n      mstore\n      swap1\n      dup2\n      0x00\n      dup3\n      add\n      sload\n      dup2\n      mstore\n      0x20\n      add\n      0x01\n      dup3\n      add\n      dup1\n      sload\n      tag_75\n      swap1\n      tag_48\n      jump\t// in\n    tag_75:\n      dup1\n      0x1f\n      add\n      0x20\n      dup1\n      swap2\n      div\n      mul\n      0x20\n      add\n      mload(0x40)\n      swap1\n      dup2\n      add\n      0x40\n      mstore\n      dup1\n      swap3\n      swap2\n      swap1\n      dup2\n      dup2\n      mstore\n      0x20\n      add\n      dup3\n      dup1\n      sload\n      tag_76\n      swap1\n      tag_48\n      jump\t// in\n    tag_76:\n      dup1\n      iszero\n      tag_77\n      jumpi\n      dup1\n      0x1f\n      lt\n      tag_78\n      jumpi\n      0x0100\n      dup1\n      dup4\n      sload\n      div\n      mul\n      dup4\n      mstore\n      swap2\n      0x20\n      add\n      swap2\n      jump(tag_77)\n    tag_78:\n      dup3\n      add\n      swap2\n      swap1\n      0x00\n      mstore\n      keccak256(0x00, 0x20)\n      swap1\n    tag_79:\n      dup2\n      sload\n      dup2\n      mstore\n      swap1\n      0x01\n      add\n      swap1\n      0x20\n      add\n      dup1\n      dup4\n      gt\n      tag_79\n      jumpi\n      dup3\n      swap1\n      sub\n      0x1f\n      and\n      dup3\n      add\n      swap2\n    tag_77:\n      pop\n      pop\n      pop\n      pop\n      pop\n      dup2\n      mstore\n      0x20\n      add\n      0x02\n      dup3\n      add\n      sload\n      dup2\n      mstore\n      pop\n      pop\n      swap2\n      pop\n        /* \"Code Test/CodeTest_2.sol\":1123:1236  if(students[i].score < lowestScoreStudent.score){... */\n    tag_71:\n        /* \"Code Test/CodeTest_2.sol\":1105:1108  i++ */\n      dup1\n      dup1\n      0x01\n      add\n      swap2\n      pop\n      pop\n        /* \"Code Test/CodeTest_2.sol\":1073:1246  for(uint i=0; i<students.length;i++){... */\n      jump(tag_65)\n    tag_66:\n      pop\n        /* \"Code Test/CodeTest_2.sol\":1262:1280  lowestScoreStudent */\n      dup1\n        /* \"Code Test/CodeTest_2.sol\":1255:1280  return lowestScoreStudent */\n      swap2\n      pop\n      pop\n        /* \"Code Test/CodeTest_2.sol\":946:1287  function lowestScore() public view returns (student memory) {... */\n      swap1\n      jump\t// out\n        /* \"Code Test/CodeTest_2.sol\":1360:1580  function totalScore() public view returns (uint, uint) {... */\n    tag_22:\n        /* \"Code Test/CodeTest_2.sol\":1403:1407  uint */\n      0x00\n        /* \"Code Test/CodeTest_2.sol\":1409:1413  uint */\n      dup1\n        /* \"Code Test/CodeTest_2.sol\":1425:1433  uint sum */\n      0x00\n        /* \"Code Test/CodeTest_2.sol\":1447:1453  uint i */\n      dup1\n        /* \"Code Test/CodeTest_2.sol\":1454:1455  0 */\n      0x00\n        /* \"Code Test/CodeTest_2.sol\":1447:1455  uint i=0 */\n      swap1\n      pop\n        /* \"Code Test/CodeTest_2.sol\":1443:1529  for(uint i=0; i<students.length; i++){... */\n    tag_81:\n        /* \"Code Test/CodeTest_2.sol\":1459:1467  students */\n      0x00\n        /* \"Code Test/CodeTest_2.sol\":1459:1474  students.length */\n      dup1\n      sload\n      swap1\n      pop\n        /* \"Code Test/CodeTest_2.sol\":1457:1458  i */\n      dup2\n        /* \"Code Test/CodeTest_2.sol\":1457:1474  i<students.length */\n      lt\n        /* \"Code Test/CodeTest_2.sol\":1443:1529  for(uint i=0; i<students.length; i++){... */\n      iszero\n      tag_82\n      jumpi\n        /* \"Code Test/CodeTest_2.sol\":1501:1509  students */\n      0x00\n        /* \"Code Test/CodeTest_2.sol\":1510:1511  i */\n      dup2\n        /* \"Code Test/CodeTest_2.sol\":1501:1512  students[i] */\n      dup2\n      sload\n      dup2\n      lt\n      tag_84\n      jumpi\n      tag_85\n      tag_41\n      jump\t// in\n    tag_85:\n    tag_84:\n      swap1\n      0x00\n      mstore\n      keccak256(0x00, 0x20)\n      swap1\n      0x03\n      mul\n      add\n        /* \"Code Test/CodeTest_2.sol\":1501:1518  students[i].score */\n      0x02\n      add\n      sload\n        /* \"Code Test/CodeTest_2.sol\":1494:1518  sum += students[i].score */\n      dup3\n      tag_87\n      swap2\n      swap1\n      tag_88\n      jump\t// in\n    tag_87:\n      swap2\n      pop\n        /* \"Code Test/CodeTest_2.sol\":1476:1479  i++ */\n      dup1\n      dup1\n      0x01\n      add\n      swap2\n      pop\n      pop\n        /* \"Code Test/CodeTest_2.sol\":1443:1529  for(uint i=0; i<students.length; i++){... */\n      jump(tag_81)\n    tag_82:\n      pop\n        /* \"Code Test/CodeTest_2.sol\":1546:1549  sum */\n      dup1\n        /* \"Code Test/CodeTest_2.sol\":1557:1565  students */\n      0x00\n        /* \"Code Test/CodeTest_2.sol\":1557:1572  students.length */\n      dup1\n      sload\n      swap1\n      pop\n        /* \"Code Test/CodeTest_2.sol\":1551:1554  sum */\n      dup3\n        /* \"Code Test/CodeTest_2.sol\":1551:1572  sum / students.length */\n      tag_89\n      swap2\n      swap1\n      tag_90\n      jump\t// in\n    tag_89:\n        /* \"Code Test/CodeTest_2.sol\":1538:1573  return (sum, sum / students.length) */\n      swap3\n      pop\n      swap3\n      pop\n      pop\n        /* \"Code Test/CodeTest_2.sol\":1360:1580  function totalScore() public view returns (uint, uint) {... */\n      swap1\n      swap2\n      jump\t// out\n        /* \"Code Test/CodeTest_2.sol\":2014:2111  function getAllStudents() public view returns (student[] memory) {... */\n    tag_26:\n        /* \"Code Test/CodeTest_2.sol\":2061:2077  student[] memory */\n      0x60\n        /* \"Code Test/CodeTest_2.sol\":2096:2104  students */\n      0x00\n        /* \"Code Test/CodeTest_2.sol\":2089:2104  return students */\n      dup1\n      sload\n      dup1\n      0x20\n      mul\n      0x20\n      add\n      mload(0x40)\n      swap1\n      dup2\n      add\n      0x40\n      mstore\n      dup1\n      swap3\n      swap2\n      swap1\n      dup2\n      dup2\n      mstore\n      0x20\n      add\n      0x00\n      swap1\n    tag_92:\n      dup3\n      dup3\n      lt\n      iszero\n      tag_93\n      jumpi\n      dup4\n      dup3\n      swap1\n      0x00\n      mstore\n      keccak256(0x00, 0x20)\n      swap1\n      0x03\n      mul\n      add\n      mload(0x40)\n      dup1\n      0x60\n      add\n      0x40\n      mstore\n      swap1\n      dup2\n      0x00\n      dup3\n      add\n      sload\n      dup2\n      mstore\n      0x20\n      add\n      0x01\n      dup3\n      add\n      dup1\n      sload\n      tag_95\n      swap1\n      tag_48\n      jump\t// in\n    tag_95:\n      dup1\n      0x1f\n      add\n      0x20\n      dup1\n      swap2\n      div\n      mul\n      0x20\n      add\n      mload(0x40)\n      swap1\n      dup2\n      add\n      0x40\n      mstore\n      dup1\n      swap3\n      swap2\n      swap1\n      dup2\n      dup2\n      mstore\n      0x20\n      add\n      dup3\n      dup1\n      sload\n      tag_96\n      swap1\n      tag_48\n      jump\t// in\n    tag_96:\n      dup1\n      iszero\n      tag_97\n      jumpi\n      dup1\n      0x1f\n      lt\n      tag_98\n      jumpi\n      0x0100\n      dup1\n      dup4\n      sload\n      div\n      mul\n      dup4\n      mstore\n      swap2\n      0x20\n      add\n      swap2\n      jump(tag_97)\n    tag_98:\n      dup3\n      add\n      swap2\n      swap1\n      0x00\n      mstore\n      keccak256(0x00, 0x20)\n      swap1\n    tag_99:\n      dup2\n      sload\n      dup2\n      mstore\n      swap1\n      0x01\n      add\n      swap1\n      0x20\n      add\n      dup1\n      dup4\n      gt\n      tag_99\n      jumpi\n      dup3\n      swap1\n      sub\n      0x1f\n      and\n      dup3\n      add\n      swap2\n    tag_97:\n      pop\n      pop\n      pop\n      pop\n      pop\n      dup2\n      mstore\n      0x20\n      add\n      0x02\n      dup3\n      add\n      sload\n      dup2\n      mstore\n      pop\n      pop\n      dup2\n      mstore\n      0x20\n      add\n      swap1\n      0x01\n      add\n      swap1\n      jump(tag_92)\n    tag_93:\n      pop\n      pop\n      pop\n      pop\n      swap1\n      pop\n        /* \"Code Test/CodeTest_2.sol\":2014:2111  function getAllStudents() public view returns (student[] memory) {... */\n      swap1\n      jump\t// out\n    tag_34:\n      mload(0x40)\n      dup1\n      0x60\n      add\n      0x40\n      mstore\n      dup1\n      0x00\n      dup2\n      mstore\n      0x20\n      add\n      0x60\n      dup2\n      mstore\n      0x20\n      add\n      0x00\n      dup2\n      mstore\n      pop\n      swap1\n      jump\t// out\n        /* \"#utility.yul\":7:82   */\n    tag_100:\n        /* \"#utility.yul\":40:46   */\n      0x00\n        /* \"#utility.yul\":73:75   */\n      0x40\n        /* \"#utility.yul\":67:76   */\n      mload\n        /* \"#utility.yul\":57:76   */\n      swap1\n      pop\n        /* \"#utility.yul\":7:82   */\n      swap1\n      jump\t// out\n        /* \"#utility.yul\":88:205   */\n    tag_101:\n        /* \"#utility.yul\":197:198   */\n      0x00\n        /* \"#utility.yul\":194:195   */\n      dup1\n        /* \"#utility.yul\":187:199   */\n      revert\n        /* \"#utility.yul\":211:328   */\n    tag_102:\n        /* \"#utility.yul\":320:321   */\n      0x00\n        /* \"#utility.yul\":317:318   */\n      dup1\n        /* \"#utility.yul\":310:322   */\n      revert\n        /* \"#utility.yul\":334:411   */\n    tag_103:\n        /* \"#utility.yul\":371:378   */\n      0x00\n        /* \"#utility.yul\":400:405   */\n      dup2\n        /* \"#utility.yul\":389:405   */\n      swap1\n      pop\n        /* \"#utility.yul\":334:411   */\n      swap2\n      swap1\n      pop\n      jump\t// out\n        /* \"#utility.yul\":417:539   */\n    tag_104:\n        /* \"#utility.yul\":490:514   */\n      tag_157\n        /* \"#utility.yul\":508:513   */\n      dup2\n        /* \"#utility.yul\":490:514   */\n      tag_103\n      jump\t// in\n    tag_157:\n        /* \"#utility.yul\":483:488   */\n      dup2\n        /* \"#utility.yul\":480:515   */\n      eq\n        /* \"#utility.yul\":470:533   */\n      tag_158\n      jumpi\n        /* \"#utility.yul\":529:530   */\n      0x00\n        /* \"#utility.yul\":526:527   */\n      dup1\n        /* \"#utility.yul\":519:531   */\n      revert\n        /* \"#utility.yul\":470:533   */\n    tag_158:\n        /* \"#utility.yul\":417:539   */\n      pop\n      jump\t// out\n        /* \"#utility.yul\":545:684   */\n    tag_105:\n        /* \"#utility.yul\":591:596   */\n      0x00\n        /* \"#utility.yul\":629:635   */\n      dup2\n        /* \"#utility.yul\":616:636   */\n      calldataload\n        /* \"#utility.yul\":607:636   */\n      swap1\n      pop\n        /* \"#utility.yul\":645:678   */\n      tag_160\n        /* \"#utility.yul\":672:677   */\n      dup2\n        /* \"#utility.yul\":645:678   */\n      tag_104\n      jump\t// in\n    tag_160:\n        /* \"#utility.yul\":545:684   */\n      swap3\n      swap2\n      pop\n      pop\n      jump\t// out\n        /* \"#utility.yul\":690:807   */\n    tag_106:\n        /* \"#utility.yul\":799:800   */\n      0x00\n        /* \"#utility.yul\":796:797   */\n      dup1\n        /* \"#utility.yul\":789:801   */\n      revert\n        /* \"#utility.yul\":813:930   */\n    tag_107:\n        /* \"#utility.yul\":922:923   */\n      0x00\n        /* \"#utility.yul\":919:920   */\n      dup1\n        /* \"#utility.yul\":912:924   */\n      revert\n        /* \"#utility.yul\":936:1038   */\n    tag_108:\n        /* \"#utility.yul\":977:983   */\n      0x00\n        /* \"#utility.yul\":1028:1030   */\n      0x1f\n        /* \"#utility.yul\":1024:1031   */\n      not\n        /* \"#utility.yul\":1019:1021   */\n      0x1f\n        /* \"#utility.yul\":1012:1017   */\n      dup4\n        /* \"#utility.yul\":1008:1022   */\n      add\n        /* \"#utility.yul\":1004:1032   */\n      and\n        /* \"#utility.yul\":994:1032   */\n      swap1\n      pop\n        /* \"#utility.yul\":936:1038   */\n      swap2\n      swap1\n      pop\n      jump\t// out\n        /* \"#utility.yul\":1044:1224   */\n    tag_109:\n        /* \"#utility.yul\":1092:1169   */\n      0x4e487b7100000000000000000000000000000000000000000000000000000000\n        /* \"#utility.yul\":1089:1090   */\n      0x00\n        /* \"#utility.yul\":1082:1170   */\n      mstore\n        /* \"#utility.yul\":1189:1193   */\n      0x41\n        /* \"#utility.yul\":1186:1187   */\n      0x04\n        /* \"#utility.yul\":1179:1194   */\n      mstore\n        /* \"#utility.yul\":1213:1217   */\n      0x24\n        /* \"#utility.yul\":1210:1211   */\n      0x00\n        /* \"#utility.yul\":1203:1218   */\n      revert\n        /* \"#utility.yul\":1230:1511   */\n    tag_110:\n        /* \"#utility.yul\":1313:1340   */\n      tag_166\n        /* \"#utility.yul\":1335:1339   */\n      dup3\n        /* \"#utility.yul\":1313:1340   */\n      tag_108\n      jump\t// in\n    tag_166:\n        /* \"#utility.yul\":1305:1311   */\n      dup2\n        /* \"#utility.yul\":1301:1341   */\n      add\n        /* \"#utility.yul\":1443:1449   */\n      dup2\n        /* \"#utility.yul\":1431:1441   */\n      dup2\n        /* \"#utility.yul\":1428:1450   */\n      lt\n        /* \"#utility.yul\":1407:1425   */\n      0xffffffffffffffff\n        /* \"#utility.yul\":1395:1405   */\n      dup3\n        /* \"#utility.yul\":1392:1426   */\n      gt\n        /* \"#utility.yul\":1389:1451   */\n      or\n        /* \"#utility.yul\":1386:1474   */\n      iszero\n      tag_167\n      jumpi\n        /* \"#utility.yul\":1454:1472   */\n      tag_168\n      tag_109\n      jump\t// in\n    tag_168:\n        /* \"#utility.yul\":1386:1474   */\n    tag_167:\n        /* \"#utility.yul\":1494:1504   */\n      dup1\n        /* \"#utility.yul\":1490:1492   */\n      0x40\n        /* \"#utility.yul\":1483:1505   */\n      mstore\n        /* \"#utility.yul\":1273:1511   */\n      pop\n        /* \"#utility.yul\":1230:1511   */\n      pop\n      pop\n      jump\t// out\n        /* \"#utility.yul\":1517:1646   */\n    tag_111:\n        /* \"#utility.yul\":1551:1557   */\n      0x00\n        /* \"#utility.yul\":1578:1598   */\n      tag_170\n      tag_100\n      jump\t// in\n    tag_170:\n        /* \"#utility.yul\":1568:1598   */\n      swap1\n      pop\n        /* \"#utility.yul\":1607:1640   */\n      tag_171\n        /* \"#utility.yul\":1635:1639   */\n      dup3\n        /* \"#utility.yul\":1627:1633   */\n      dup3\n        /* \"#utility.yul\":1607:1640   */\n      tag_110\n      jump\t// in\n    tag_171:\n        /* \"#utility.yul\":1517:1646   */\n      swap2\n      swap1\n      pop\n      jump\t// out\n        /* \"#utility.yul\":1652:1960   */\n    tag_112:\n        /* \"#utility.yul\":1714:1718   */\n      0x00\n        /* \"#utility.yul\":1804:1822   */\n      0xffffffffffffffff\n        /* \"#utility.yul\":1796:1802   */\n      dup3\n        /* \"#utility.yul\":1793:1823   */\n      gt\n        /* \"#utility.yul\":1790:1846   */\n      iszero\n      tag_173\n      jumpi\n        /* \"#utility.yul\":1826:1844   */\n      tag_174\n      tag_109\n      jump\t// in\n    tag_174:\n        /* \"#utility.yul\":1790:1846   */\n    tag_173:\n        /* \"#utility.yul\":1864:1893   */\n      tag_175\n        /* \"#utility.yul\":1886:1892   */\n      dup3\n        /* \"#utility.yul\":1864:1893   */\n      tag_108\n      jump\t// in\n    tag_175:\n        /* \"#utility.yul\":1856:1893   */\n      swap1\n      pop\n        /* \"#utility.yul\":1948:1952   */\n      0x20\n        /* \"#utility.yul\":1942:1946   */\n      dup2\n        /* \"#utility.yul\":1938:1953   */\n      add\n        /* \"#utility.yul\":1930:1953   */\n      swap1\n      pop\n        /* \"#utility.yul\":1652:1960   */\n      swap2\n      swap1\n      pop\n      jump\t// out\n        /* \"#utility.yul\":1966:2114   */\n    tag_113:\n        /* \"#utility.yul\":2064:2070   */\n      dup3\n        /* \"#utility.yul\":2059:2062   */\n      dup2\n        /* \"#utility.yul\":2054:2057   */\n      dup4\n        /* \"#utility.yul\":2041:2071   */\n      calldatacopy\n        /* \"#utility.yul\":2105:2106   */\n      0x00\n        /* \"#utility.yul\":2096:2102   */\n      dup4\n        /* \"#utility.yul\":2091:2094   */\n      dup4\n        /* \"#utility.yul\":2087:2103   */\n      add\n        /* \"#utility.yul\":2080:2107   */\n      mstore\n        /* \"#utility.yul\":1966:2114   */\n      pop\n      pop\n      pop\n      jump\t// out\n        /* \"#utility.yul\":2120:2545   */\n    tag_114:\n        /* \"#utility.yul\":2198:2203   */\n      0x00\n        /* \"#utility.yul\":2223:2289   */\n      tag_178\n        /* \"#utility.yul\":2239:2288   */\n      tag_179\n        /* \"#utility.yul\":2281:2287   */\n      dup5\n        /* \"#utility.yul\":2239:2288   */\n      tag_112\n      jump\t// in\n    tag_179:\n        /* \"#utility.yul\":2223:2289   */\n      tag_111\n      jump\t// in\n    tag_178:\n        /* \"#utility.yul\":2214:2289   */\n      swap1\n      pop\n        /* \"#utility.yul\":2312:2318   */\n      dup3\n        /* \"#utility.yul\":2305:2310   */\n      dup2\n        /* \"#utility.yul\":2298:2319   */\n      mstore\n        /* \"#utility.yul\":2350:2354   */\n      0x20\n        /* \"#utility.yul\":2343:2348   */\n      dup2\n        /* \"#utility.yul\":2339:2355   */\n      add\n        /* \"#utility.yul\":2388:2391   */\n      dup5\n        /* \"#utility.yul\":2379:2385   */\n      dup5\n        /* \"#utility.yul\":2374:2377   */\n      dup5\n        /* \"#utility.yul\":2370:2386   */\n      add\n        /* \"#utility.yul\":2367:2392   */\n      gt\n        /* \"#utility.yul\":2364:2476   */\n      iszero\n      tag_180\n      jumpi\n        /* \"#utility.yul\":2395:2474   */\n      tag_181\n      tag_107\n      jump\t// in\n    tag_181:\n        /* \"#utility.yul\":2364:2476   */\n    tag_180:\n        /* \"#utility.yul\":2485:2539   */\n      tag_182\n        /* \"#utility.yul\":2532:2538   */\n      dup5\n        /* \"#utility.yul\":2527:2530   */\n      dup3\n        /* \"#utility.yul\":2522:2525   */\n      dup6\n        /* \"#utility.yul\":2485:2539   */\n      tag_113\n      jump\t// in\n    tag_182:\n        /* \"#utility.yul\":2204:2545   */\n      pop\n        /* \"#utility.yul\":2120:2545   */\n      swap4\n      swap3\n      pop\n      pop\n      pop\n      jump\t// out\n        /* \"#utility.yul\":2565:2905   */\n    tag_115:\n        /* \"#utility.yul\":2621:2626   */\n      0x00\n        /* \"#utility.yul\":2670:2673   */\n      dup3\n        /* \"#utility.yul\":2663:2667   */\n      0x1f\n        /* \"#utility.yul\":2655:2661   */\n      dup4\n        /* \"#utility.yul\":2651:2668   */\n      add\n        /* \"#utility.yul\":2647:2674   */\n      slt\n        /* \"#utility.yul\":2637:2759   */\n      tag_184\n      jumpi\n        /* \"#utility.yul\":2678:2757   */\n      tag_185\n      tag_106\n      jump\t// in\n    tag_185:\n        /* \"#utility.yul\":2637:2759   */\n    tag_184:\n        /* \"#utility.yul\":2795:2801   */\n      dup2\n        /* \"#utility.yul\":2782:2802   */\n      calldataload\n        /* \"#utility.yul\":2820:2899   */\n      tag_186\n        /* \"#utility.yul\":2895:2898   */\n      dup5\n        /* \"#utility.yul\":2887:2893   */\n      dup3\n        /* \"#utility.yul\":2880:2884   */\n      0x20\n        /* \"#utility.yul\":2872:2878   */\n      dup7\n        /* \"#utility.yul\":2868:2885   */\n      add\n        /* \"#utility.yul\":2820:2899   */\n      tag_114\n      jump\t// in\n    tag_186:\n        /* \"#utility.yul\":2811:2899   */\n      swap2\n      pop\n        /* \"#utility.yul\":2627:2905   */\n      pop\n        /* \"#utility.yul\":2565:2905   */\n      swap3\n      swap2\n      pop\n      pop\n      jump\t// out\n        /* \"#utility.yul\":2911:3710   */\n    tag_10:\n        /* \"#utility.yul\":2998:3004   */\n      0x00\n        /* \"#utility.yul\":3006:3012   */\n      dup1\n        /* \"#utility.yul\":3014:3020   */\n      0x00\n        /* \"#utility.yul\":3063:3065   */\n      0x60\n        /* \"#utility.yul\":3051:3060   */\n      dup5\n        /* \"#utility.yul\":3042:3049   */\n      dup7\n        /* \"#utility.yul\":3038:3061   */\n      sub\n        /* \"#utility.yul\":3034:3066   */\n      slt\n        /* \"#utility.yul\":3031:3150   */\n      iszero\n      tag_188\n      jumpi\n        /* \"#utility.yul\":3069:3148   */\n      tag_189\n      tag_101\n      jump\t// in\n    tag_189:\n        /* \"#utility.yul\":3031:3150   */\n    tag_188:\n        /* \"#utility.yul\":3189:3190   */\n      0x00\n        /* \"#utility.yul\":3214:3267   */\n      tag_190\n        /* \"#utility.yul\":3259:3266   */\n      dup7\n        /* \"#utility.yul\":3250:3256   */\n      dup3\n        /* \"#utility.yul\":3239:3248   */\n      dup8\n        /* \"#utility.yul\":3235:3257   */\n      add\n        /* \"#utility.yul\":3214:3267   */\n      tag_105\n      jump\t// in\n    tag_190:\n        /* \"#utility.yul\":3204:3267   */\n      swap4\n      pop\n        /* \"#utility.yul\":3160:3277   */\n      pop\n        /* \"#utility.yul\":3344:3346   */\n      0x20\n        /* \"#utility.yul\":3333:3342   */\n      dup5\n        /* \"#utility.yul\":3329:3347   */\n      add\n        /* \"#utility.yul\":3316:3348   */\n      calldataload\n        /* \"#utility.yul\":3375:3393   */\n      0xffffffffffffffff\n        /* \"#utility.yul\":3367:3373   */\n      dup2\n        /* \"#utility.yul\":3364:3394   */\n      gt\n        /* \"#utility.yul\":3361:3478   */\n      iszero\n      tag_191\n      jumpi\n        /* \"#utility.yul\":3397:3476   */\n      tag_192\n      tag_102\n      jump\t// in\n    tag_192:\n        /* \"#utility.yul\":3361:3478   */\n    tag_191:\n        /* \"#utility.yul\":3502:3565   */\n      tag_193\n        /* \"#utility.yul\":3557:3564   */\n      dup7\n        /* \"#utility.yul\":3548:3554   */\n      dup3\n        /* \"#utility.yul\":3537:3546   */\n      dup8\n        /* \"#utility.yul\":3533:3555   */\n      add\n        /* \"#utility.yul\":3502:3565   */\n      tag_115\n      jump\t// in\n    tag_193:\n        /* \"#utility.yul\":3492:3565   */\n      swap3\n      pop\n        /* \"#utility.yul\":3287:3575   */\n      pop\n        /* \"#utility.yul\":3614:3616   */\n      0x40\n        /* \"#utility.yul\":3640:3693   */\n      tag_194\n        /* \"#utility.yul\":3685:3692   */\n      dup7\n        /* \"#utility.yul\":3676:3682   */\n      dup3\n        /* \"#utility.yul\":3665:3674   */\n      dup8\n        /* \"#utility.yul\":3661:3683   */\n      add\n        /* \"#utility.yul\":3640:3693   */\n      tag_105\n      jump\t// in\n    tag_194:\n        /* \"#utility.yul\":3630:3693   */\n      swap2\n      pop\n        /* \"#utility.yul\":3585:3703   */\n      pop\n        /* \"#utility.yul\":2911:3710   */\n      swap3\n      pop\n      swap3\n      pop\n      swap3\n      jump\t// out\n        /* \"#utility.yul\":3716:4045   */\n    tag_14:\n        /* \"#utility.yul\":3775:3781   */\n      0x00\n        /* \"#utility.yul\":3824:3826   */\n      0x20\n        /* \"#utility.yul\":3812:3821   */\n      dup3\n        /* \"#utility.yul\":3803:3810   */\n      dup5\n        /* \"#utility.yul\":3799:3822   */\n      sub\n        /* \"#utility.yul\":3795:3827   */\n      slt\n        /* \"#utility.yul\":3792:3911   */\n      iszero\n      tag_196\n      jumpi\n        /* \"#utility.yul\":3830:3909   */\n      tag_197\n      tag_101\n      jump\t// in\n    tag_197:\n        /* \"#utility.yul\":3792:3911   */\n    tag_196:\n        /* \"#utility.yul\":3950:3951   */\n      0x00\n        /* \"#utility.yul\":3975:4028   */\n      tag_198\n        /* \"#utility.yul\":4020:4027   */\n      dup5\n        /* \"#utility.yul\":4011:4017   */\n      dup3\n        /* \"#utility.yul\":4000:4009   */\n      dup6\n        /* \"#utility.yul\":3996:4018   */\n      add\n        /* \"#utility.yul\":3975:4028   */\n      tag_105\n      jump\t// in\n    tag_198:\n        /* \"#utility.yul\":3965:4028   */\n      swap2\n      pop\n        /* \"#utility.yul\":3921:4038   */\n      pop\n        /* \"#utility.yul\":3716:4045   */\n      swap3\n      swap2\n      pop\n      pop\n      jump\t// out\n        /* \"#utility.yul\":4051:4159   */\n    tag_116:\n        /* \"#utility.yul\":4128:4152   */\n      tag_200\n        /* \"#utility.yul\":4146:4151   */\n      dup2\n        /* \"#utility.yul\":4128:4152   */\n      tag_103\n      jump\t// in\n    tag_200:\n        /* \"#utility.yul\":4123:4126   */\n      dup3\n        /* \"#utility.yul\":4116:4153   */\n      mstore\n        /* \"#utility.yul\":4051:4159   */\n      pop\n      pop\n      jump\t// out\n        /* \"#utility.yul\":4165:4264   */\n    tag_117:\n        /* \"#utility.yul\":4217:4223   */\n      0x00\n        /* \"#utility.yul\":4251:4256   */\n      dup2\n        /* \"#utility.yul\":4245:4257   */\n      mload\n        /* \"#utility.yul\":4235:4257   */\n      swap1\n      pop\n        /* \"#utility.yul\":4165:4264   */\n      swap2\n      swap1\n      pop\n      jump\t// out\n        /* \"#utility.yul\":4270:4429   */\n    tag_118:\n        /* \"#utility.yul\":4344:4355   */\n      0x00\n        /* \"#utility.yul\":4378:4384   */\n      dup3\n        /* \"#utility.yul\":4373:4376   */\n      dup3\n        /* \"#utility.yul\":4366:4385   */\n      mstore\n        /* \"#utility.yul\":4418:4422   */\n      0x20\n        /* \"#utility.yul\":4413:4416   */\n      dup3\n        /* \"#utility.yul\":4409:4423   */\n      add\n        /* \"#utility.yul\":4394:4423   */\n      swap1\n      pop\n        /* \"#utility.yul\":4270:4429   */\n      swap3\n      swap2\n      pop\n      pop\n      jump\t// out\n        /* \"#utility.yul\":4435:4574   */\n    tag_119:\n        /* \"#utility.yul\":4524:4530   */\n      dup3\n        /* \"#utility.yul\":4519:4522   */\n      dup2\n        /* \"#utility.yul\":4514:4517   */\n      dup4\n        /* \"#utility.yul\":4508:4531   */\n      mcopy\n        /* \"#utility.yul\":4565:4566   */\n      0x00\n        /* \"#utility.yul\":4556:4562   */\n      dup4\n        /* \"#utility.yul\":4551:4554   */\n      dup4\n        /* \"#utility.yul\":4547:4563   */\n      add\n        /* \"#utility.yul\":4540:4567   */\n      mstore\n        /* \"#utility.yul\":4435:4574   */\n      pop\n      pop\n      pop\n      jump\t// out\n        /* \"#utility.yul\":4580:4937   */\n    tag_120:\n        /* \"#utility.yul\":4658:4661   */\n      0x00\n        /* \"#utility.yul\":4686:4725   */\n      tag_205\n        /* \"#utility.yul\":4719:4724   */\n      dup3\n        /* \"#utility.yul\":4686:4725   */\n      tag_117\n      jump\t// in\n    tag_205:\n        /* \"#utility.yul\":4741:4802   */\n      tag_206\n        /* \"#utility.yul\":4795:4801   */\n      dup2\n        /* \"#utility.yul\":4790:4793   */\n      dup6\n        /* \"#utility.yul\":4741:4802   */\n      tag_118\n      jump\t// in\n    tag_206:\n        /* \"#utility.yul\":4734:4802   */\n      swap4\n      pop\n        /* \"#utility.yul\":4811:4876   */\n      tag_207\n        /* \"#utility.yul\":4869:4875   */\n      dup2\n        /* \"#utility.yul\":4864:4867   */\n      dup6\n        /* \"#utility.yul\":4857:4861   */\n      0x20\n        /* \"#utility.yul\":4850:4855   */\n      dup7\n        /* \"#utility.yul\":4846:4862   */\n      add\n        /* \"#utility.yul\":4811:4876   */\n      tag_119\n      jump\t// in\n    tag_207:\n        /* \"#utility.yul\":4901:4930   */\n      tag_208\n        /* \"#utility.yul\":4923:4929   */\n      dup2\n        /* \"#utility.yul\":4901:4930   */\n      tag_108\n      jump\t// in\n    tag_208:\n        /* \"#utility.yul\":4896:4899   */\n      dup5\n        /* \"#utility.yul\":4892:4931   */\n      add\n        /* \"#utility.yul\":4885:4931   */\n      swap2\n      pop\n        /* \"#utility.yul\":4662:4937   */\n      pop\n        /* \"#utility.yul\":4580:4937   */\n      swap3\n      swap2\n      pop\n      pop\n      jump\t// out\n        /* \"#utility.yul\":4995:5772   */\n    tag_121:\n        /* \"#utility.yul\":5108:5111   */\n      0x00\n        /* \"#utility.yul\":5144:5148   */\n      0x60\n        /* \"#utility.yul\":5139:5142   */\n      dup4\n        /* \"#utility.yul\":5135:5149   */\n      add\n        /* \"#utility.yul\":5233:5237   */\n      0x00\n        /* \"#utility.yul\":5226:5231   */\n      dup4\n        /* \"#utility.yul\":5222:5238   */\n      add\n        /* \"#utility.yul\":5216:5239   */\n      mload\n        /* \"#utility.yul\":5252:5315   */\n      tag_210\n        /* \"#utility.yul\":5309:5313   */\n      0x00\n        /* \"#utility.yul\":5304:5307   */\n      dup7\n        /* \"#utility.yul\":5300:5314   */\n      add\n        /* \"#utility.yul\":5286:5298   */\n      dup3\n        /* \"#utility.yul\":5252:5315   */\n      tag_116\n      jump\t// in\n    tag_210:\n        /* \"#utility.yul\":5159:5325   */\n      pop\n        /* \"#utility.yul\":5407:5411   */\n      0x20\n        /* \"#utility.yul\":5400:5405   */\n      dup4\n        /* \"#utility.yul\":5396:5412   */\n      add\n        /* \"#utility.yul\":5390:5413   */\n      mload\n        /* \"#utility.yul\":5460:5463   */\n      dup5\n        /* \"#utility.yul\":5454:5458   */\n      dup3\n        /* \"#utility.yul\":5450:5464   */\n      sub\n        /* \"#utility.yul\":5443:5447   */\n      0x20\n        /* \"#utility.yul\":5438:5441   */\n      dup7\n        /* \"#utility.yul\":5434:5448   */\n      add\n        /* \"#utility.yul\":5427:5465   */\n      mstore\n        /* \"#utility.yul\":5486:5559   */\n      tag_211\n        /* \"#utility.yul\":5554:5558   */\n      dup3\n        /* \"#utility.yul\":5540:5552   */\n      dup3\n        /* \"#utility.yul\":5486:5559   */\n      tag_120\n      jump\t// in\n    tag_211:\n        /* \"#utility.yul\":5478:5559   */\n      swap2\n      pop\n        /* \"#utility.yul\":5335:5570   */\n      pop\n        /* \"#utility.yul\":5653:5657   */\n      0x40\n        /* \"#utility.yul\":5646:5651   */\n      dup4\n        /* \"#utility.yul\":5642:5658   */\n      add\n        /* \"#utility.yul\":5636:5659   */\n      mload\n        /* \"#utility.yul\":5672:5735   */\n      tag_212\n        /* \"#utility.yul\":5729:5733   */\n      0x40\n        /* \"#utility.yul\":5724:5727   */\n      dup7\n        /* \"#utility.yul\":5720:5734   */\n      add\n        /* \"#utility.yul\":5706:5718   */\n      dup3\n        /* \"#utility.yul\":5672:5735   */\n      tag_116\n      jump\t// in\n    tag_212:\n        /* \"#utility.yul\":5580:5745   */\n      pop\n        /* \"#utility.yul\":5762:5766   */\n      dup1\n        /* \"#utility.yul\":5755:5766   */\n      swap2\n      pop\n        /* \"#utility.yul\":5113:5772   */\n      pop\n        /* \"#utility.yul\":4995:5772   */\n      swap3\n      swap2\n      pop\n      pop\n      jump\t// out\n        /* \"#utility.yul\":5778:6139   */\n    tag_17:\n        /* \"#utility.yul\":5915:5919   */\n      0x00\n        /* \"#utility.yul\":5953:5955   */\n      0x20\n        /* \"#utility.yul\":5942:5951   */\n      dup3\n        /* \"#utility.yul\":5938:5956   */\n      add\n        /* \"#utility.yul\":5930:5956   */\n      swap1\n      pop\n        /* \"#utility.yul\":6002:6011   */\n      dup2\n        /* \"#utility.yul\":5996:6000   */\n      dup2\n        /* \"#utility.yul\":5992:6012   */\n      sub\n        /* \"#utility.yul\":5988:5989   */\n      0x00\n        /* \"#utility.yul\":5977:5986   */\n      dup4\n        /* \"#utility.yul\":5973:5990   */\n      add\n        /* \"#utility.yul\":5966:6013   */\n      mstore\n        /* \"#utility.yul\":6030:6132   */\n      tag_214\n        /* \"#utility.yul\":6127:6131   */\n      dup2\n        /* \"#utility.yul\":6118:6124   */\n      dup5\n        /* \"#utility.yul\":6030:6132   */\n      tag_121\n      jump\t// in\n    tag_214:\n        /* \"#utility.yul\":6022:6132   */\n      swap1\n      pop\n        /* \"#utility.yul\":5778:6139   */\n      swap3\n      swap2\n      pop\n      pop\n      jump\t// out\n        /* \"#utility.yul\":6145:6263   */\n    tag_122:\n        /* \"#utility.yul\":6232:6256   */\n      tag_216\n        /* \"#utility.yul\":6250:6255   */\n      dup2\n        /* \"#utility.yul\":6232:6256   */\n      tag_103\n      jump\t// in\n    tag_216:\n        /* \"#utility.yul\":6227:6230   */\n      dup3\n        /* \"#utility.yul\":6220:6257   */\n      mstore\n        /* \"#utility.yul\":6145:6263   */\n      pop\n      pop\n      jump\t// out\n        /* \"#utility.yul\":6269:6601   */\n    tag_24:\n        /* \"#utility.yul\":6390:6394   */\n      0x00\n        /* \"#utility.yul\":6428:6430   */\n      0x40\n        /* \"#utility.yul\":6417:6426   */\n      dup3\n        /* \"#utility.yul\":6413:6431   */\n      add\n        /* \"#utility.yul\":6405:6431   */\n      swap1\n      pop\n        /* \"#utility.yul\":6441:6512   */\n      tag_218\n        /* \"#utility.yul\":6509:6510   */\n      0x00\n        /* \"#utility.yul\":6498:6507   */\n      dup4\n        /* \"#utility.yul\":6494:6511   */\n      add\n        /* \"#utility.yul\":6485:6491   */\n      dup6\n        /* \"#utility.yul\":6441:6512   */\n      tag_122\n      jump\t// in\n    tag_218:\n        /* \"#utility.yul\":6522:6594   */\n      tag_219\n        /* \"#utility.yul\":6590:6592   */\n      0x20\n        /* \"#utility.yul\":6579:6588   */\n      dup4\n        /* \"#utility.yul\":6575:6593   */\n      add\n        /* \"#utility.yul\":6566:6572   */\n      dup5\n        /* \"#utility.yul\":6522:6594   */\n      tag_122\n      jump\t// in\n    tag_219:\n        /* \"#utility.yul\":6269:6601   */\n      swap4\n      swap3\n      pop\n      pop\n      pop\n      jump\t// out\n        /* \"#utility.yul\":6607:6743   */\n    tag_123:\n        /* \"#utility.yul\":6696:6702   */\n      0x00\n        /* \"#utility.yul\":6730:6735   */\n      dup2\n        /* \"#utility.yul\":6724:6736   */\n      mload\n        /* \"#utility.yul\":6714:6736   */\n      swap1\n      pop\n        /* \"#utility.yul\":6607:6743   */\n      swap2\n      swap1\n      pop\n      jump\t// out\n        /* \"#utility.yul\":6749:6955   */\n    tag_124:\n        /* \"#utility.yul\":6870:6881   */\n      0x00\n        /* \"#utility.yul\":6904:6910   */\n      dup3\n        /* \"#utility.yul\":6899:6902   */\n      dup3\n        /* \"#utility.yul\":6892:6911   */\n      mstore\n        /* \"#utility.yul\":6944:6948   */\n      0x20\n        /* \"#utility.yul\":6939:6942   */\n      dup3\n        /* \"#utility.yul\":6935:6949   */\n      add\n        /* \"#utility.yul\":6920:6949   */\n      swap1\n      pop\n        /* \"#utility.yul\":6749:6955   */\n      swap3\n      swap2\n      pop\n      pop\n      jump\t// out\n        /* \"#utility.yul\":6961:7115   */\n    tag_125:\n        /* \"#utility.yul\":7050:7054   */\n      0x00\n        /* \"#utility.yul\":7073:7076   */\n      dup2\n        /* \"#utility.yul\":7065:7076   */\n      swap1\n      pop\n        /* \"#utility.yul\":7103:7107   */\n      0x20\n        /* \"#utility.yul\":7098:7101   */\n      dup3\n        /* \"#utility.yul\":7094:7108   */\n      add\n        /* \"#utility.yul\":7086:7108   */\n      swap1\n      pop\n        /* \"#utility.yul\":6961:7115   */\n      swap2\n      swap1\n      pop\n      jump\t// out\n        /* \"#utility.yul\":7173:7940   */\n    tag_126:\n        /* \"#utility.yul\":7276:7279   */\n      0x00\n        /* \"#utility.yul\":7312:7316   */\n      0x60\n        /* \"#utility.yul\":7307:7310   */\n      dup4\n        /* \"#utility.yul\":7303:7317   */\n      add\n        /* \"#utility.yul\":7401:7405   */\n      0x00\n        /* \"#utility.yul\":7394:7399   */\n      dup4\n        /* \"#utility.yul\":7390:7406   */\n      add\n        /* \"#utility.yul\":7384:7407   */\n      mload\n        /* \"#utility.yul\":7420:7483   */\n      tag_224\n        /* \"#utility.yul\":7477:7481   */\n      0x00\n        /* \"#utility.yul\":7472:7475   */\n      dup7\n        /* \"#utility.yul\":7468:7482   */\n      add\n        /* \"#utility.yul\":7454:7466   */\n      dup3\n        /* \"#utility.yul\":7420:7483   */\n      tag_116\n      jump\t// in\n    tag_224:\n        /* \"#utility.yul\":7327:7493   */\n      pop\n        /* \"#utility.yul\":7575:7579   */\n      0x20\n        /* \"#utility.yul\":7568:7573   */\n      dup4\n        /* \"#utility.yul\":7564:7580   */\n      add\n        /* \"#utility.yul\":7558:7581   */\n      mload\n        /* \"#utility.yul\":7628:7631   */\n      dup5\n        /* \"#utility.yul\":7622:7626   */\n      dup3\n        /* \"#utility.yul\":7618:7632   */\n      sub\n        /* \"#utility.yul\":7611:7615   */\n      0x20\n        /* \"#utility.yul\":7606:7609   */\n      dup7\n        /* \"#utility.yul\":7602:7616   */\n      add\n        /* \"#utility.yul\":7595:7633   */\n      mstore\n        /* \"#utility.yul\":7654:7727   */\n      tag_225\n        /* \"#utility.yul\":7722:7726   */\n      dup3\n        /* \"#utility.yul\":7708:7720   */\n      dup3\n        /* \"#utility.yul\":7654:7727   */\n      tag_120\n      jump\t// in\n    tag_225:\n        /* \"#utility.yul\":7646:7727   */\n      swap2\n      pop\n        /* \"#utility.yul\":7503:7738   */\n      pop\n        /* \"#utility.yul\":7821:7825   */\n      0x40\n        /* \"#utility.yul\":7814:7819   */\n      dup4\n        /* \"#utility.yul\":7810:7826   */\n      add\n        /* \"#utility.yul\":7804:7827   */\n      mload\n        /* \"#utility.yul\":7840:7903   */\n      tag_226\n        /* \"#utility.yul\":7897:7901   */\n      0x40\n        /* \"#utility.yul\":7892:7895   */\n      dup7\n        /* \"#utility.yul\":7888:7902   */\n      add\n        /* \"#utility.yul\":7874:7886   */\n      dup3\n        /* \"#utility.yul\":7840:7903   */\n      tag_116\n      jump\t// in\n    tag_226:\n        /* \"#utility.yul\":7748:7913   */\n      pop\n        /* \"#utility.yul\":7930:7934   */\n      dup1\n        /* \"#utility.yul\":7923:7934   */\n      swap2\n      pop\n        /* \"#utility.yul\":7281:7940   */\n      pop\n        /* \"#utility.yul\":7173:7940   */\n      swap3\n      swap2\n      pop\n      pop\n      jump\t// out\n        /* \"#utility.yul\":7946:8190   */\n    tag_127:\n        /* \"#utility.yul\":8059:8069   */\n      0x00\n        /* \"#utility.yul\":8094:8184   */\n      tag_228\n        /* \"#utility.yul\":8180:8183   */\n      dup4\n        /* \"#utility.yul\":8172:8178   */\n      dup4\n        /* \"#utility.yul\":8094:8184   */\n      tag_126\n      jump\t// in\n    tag_228:\n        /* \"#utility.yul\":8080:8184   */\n      swap1\n      pop\n        /* \"#utility.yul\":7946:8190   */\n      swap3\n      swap2\n      pop\n      pop\n      jump\t// out\n        /* \"#utility.yul\":8196:8331   */\n    tag_128:\n        /* \"#utility.yul\":8288:8292   */\n      0x00\n        /* \"#utility.yul\":8320:8324   */\n      0x20\n        /* \"#utility.yul\":8315:8318   */\n      dup3\n        /* \"#utility.yul\":8311:8325   */\n      add\n        /* \"#utility.yul\":8303:8325   */\n      swap1\n      pop\n        /* \"#utility.yul\":8196:8331   */\n      swap2\n      swap1\n      pop\n      jump\t// out\n        /* \"#utility.yul\":8393:9480   */\n    tag_129:\n        /* \"#utility.yul\":8556:8559   */\n      0x00\n        /* \"#utility.yul\":8585:8661   */\n      tag_231\n        /* \"#utility.yul\":8655:8660   */\n      dup3\n        /* \"#utility.yul\":8585:8661   */\n      tag_123\n      jump\t// in\n    tag_231:\n        /* \"#utility.yul\":8677:8785   */\n      tag_232\n        /* \"#utility.yul\":8778:8784   */\n      dup2\n        /* \"#utility.yul\":8773:8776   */\n      dup6\n        /* \"#utility.yul\":8677:8785   */\n      tag_124\n      jump\t// in\n    tag_232:\n        /* \"#utility.yul\":8670:8785   */\n      swap4\n      pop\n        /* \"#utility.yul\":8811:8814   */\n      dup4\n        /* \"#utility.yul\":8856:8860   */\n      0x20\n        /* \"#utility.yul\":8848:8854   */\n      dup3\n        /* \"#utility.yul\":8844:8861   */\n      mul\n        /* \"#utility.yul\":8839:8842   */\n      dup6\n        /* \"#utility.yul\":8835:8862   */\n      add\n        /* \"#utility.yul\":8886:8964   */\n      tag_233\n        /* \"#utility.yul\":8958:8963   */\n      dup6\n        /* \"#utility.yul\":8886:8964   */\n      tag_125\n      jump\t// in\n    tag_233:\n        /* \"#utility.yul\":8987:8994   */\n      dup1\n        /* \"#utility.yul\":9018:9019   */\n      0x00\n        /* \"#utility.yul\":9003:9435   */\n    tag_234:\n        /* \"#utility.yul\":9028:9034   */\n      dup6\n        /* \"#utility.yul\":9025:9026   */\n      dup2\n        /* \"#utility.yul\":9022:9035   */\n      lt\n        /* \"#utility.yul\":9003:9435   */\n      iszero\n      tag_236\n      jumpi\n        /* \"#utility.yul\":9099:9108   */\n      dup5\n        /* \"#utility.yul\":9093:9097   */\n      dup5\n        /* \"#utility.yul\":9089:9109   */\n      sub\n        /* \"#utility.yul\":9084:9087   */\n      dup10\n        /* \"#utility.yul\":9077:9110   */\n      mstore\n        /* \"#utility.yul\":9150:9156   */\n      dup2\n        /* \"#utility.yul\":9144:9157   */\n      mload\n        /* \"#utility.yul\":9178:9286   */\n      tag_237\n        /* \"#utility.yul\":9281:9285   */\n      dup6\n        /* \"#utility.yul\":9266:9279   */\n      dup3\n        /* \"#utility.yul\":9178:9286   */\n      tag_127\n      jump\t// in\n    tag_237:\n        /* \"#utility.yul\":9170:9286   */\n      swap5\n      pop\n        /* \"#utility.yul\":9309:9391   */\n      tag_238\n        /* \"#utility.yul\":9384:9390   */\n      dup4\n        /* \"#utility.yul\":9309:9391   */\n      tag_128\n      jump\t// in\n    tag_238:\n        /* \"#utility.yul\":9299:9391   */\n      swap3\n      pop\n        /* \"#utility.yul\":9420:9424   */\n      0x20\n        /* \"#utility.yul\":9415:9418   */\n      dup11\n        /* \"#utility.yul\":9411:9425   */\n      add\n        /* \"#utility.yul\":9404:9425   */\n      swap10\n      pop\n        /* \"#utility.yul\":9063:9435   */\n      pop\n        /* \"#utility.yul\":9050:9051   */\n      0x01\n        /* \"#utility.yul\":9047:9048   */\n      dup2\n        /* \"#utility.yul\":9043:9052   */\n      add\n        /* \"#utility.yul\":9038:9052   */\n      swap1\n      pop\n        /* \"#utility.yul\":9003:9435   */\n      jump(tag_234)\n    tag_236:\n        /* \"#utility.yul\":9007:9021   */\n      pop\n        /* \"#utility.yul\":9451:9455   */\n      dup3\n        /* \"#utility.yul\":9444:9455   */\n      swap8\n      pop\n        /* \"#utility.yul\":9471:9474   */\n      dup8\n        /* \"#utility.yul\":9464:9474   */\n      swap6\n      pop\n        /* \"#utility.yul\":8561:9480   */\n      pop\n      pop\n      pop\n      pop\n      pop\n        /* \"#utility.yul\":8393:9480   */\n      swap3\n      swap2\n      pop\n      pop\n      jump\t// out\n        /* \"#utility.yul\":9486:9947   */\n    tag_28:\n        /* \"#utility.yul\":9673:9677   */\n      0x00\n        /* \"#utility.yul\":9711:9713   */\n      0x20\n        /* \"#utility.yul\":9700:9709   */\n      dup3\n        /* \"#utility.yul\":9696:9714   */\n      add\n        /* \"#utility.yul\":9688:9714   */\n      swap1\n      pop\n        /* \"#utility.yul\":9760:9769   */\n      dup2\n        /* \"#utility.yul\":9754:9758   */\n      dup2\n        /* \"#utility.yul\":9750:9770   */\n      sub\n        /* \"#utility.yul\":9746:9747   */\n      0x00\n        /* \"#utility.yul\":9735:9744   */\n      dup4\n        /* \"#utility.yul\":9731:9748   */\n      add\n        /* \"#utility.yul\":9724:9771   */\n      mstore\n        /* \"#utility.yul\":9788:9940   */\n      tag_240\n        /* \"#utility.yul\":9935:9939   */\n      dup2\n        /* \"#utility.yul\":9926:9932   */\n      dup5\n        /* \"#utility.yul\":9788:9940   */\n      tag_129\n      jump\t// in\n    tag_240:\n        /* \"#utility.yul\":9780:9940   */\n      swap1\n      pop\n        /* \"#utility.yul\":9486:9947   */\n      swap3\n      swap2\n      pop\n      pop\n      jump\t// out\n        /* \"#utility.yul\":9953:10133   */\n    tag_130:\n        /* \"#utility.yul\":10001:10078   */\n      0x4e487b7100000000000000000000000000000000000000000000000000000000\n        /* \"#utility.yul\":9998:9999   */\n      0x00\n        /* \"#utility.yul\":9991:10079   */\n      mstore\n        /* \"#utility.yul\":10098:10102   */\n      0x22\n        /* \"#utility.yul\":10095:10096   */\n      0x04\n        /* \"#utility.yul\":10088:10103   */\n      mstore\n        /* \"#utility.yul\":10122:10126   */\n      0x24\n        /* \"#utility.yul\":10119:10120   */\n      0x00\n        /* \"#utility.yul\":10112:10127   */\n      revert\n        /* \"#utility.yul\":10139:10459   */\n    tag_48:\n        /* \"#utility.yul\":10183:10189   */\n      0x00\n        /* \"#utility.yul\":10220:10221   */\n      0x02\n        /* \"#utility.yul\":10214:10218   */\n      dup3\n        /* \"#utility.yul\":10210:10222   */\n      div\n        /* \"#utility.yul\":10200:10222   */\n      swap1\n      pop\n        /* \"#utility.yul\":10267:10268   */\n      0x01\n        /* \"#utility.yul\":10261:10265   */\n      dup3\n        /* \"#utility.yul\":10257:10269   */\n      and\n        /* \"#utility.yul\":10288:10306   */\n      dup1\n        /* \"#utility.yul\":10278:10359   */\n      tag_243\n      jumpi\n        /* \"#utility.yul\":10344:10348   */\n      0x7f\n        /* \"#utility.yul\":10336:10342   */\n      dup3\n        /* \"#utility.yul\":10332:10349   */\n      and\n        /* \"#utility.yul\":10322:10349   */\n      swap2\n      pop\n        /* \"#utility.yul\":10278:10359   */\n    tag_243:\n        /* \"#utility.yul\":10406:10408   */\n      0x20\n        /* \"#utility.yul\":10398:10404   */\n      dup3\n        /* \"#utility.yul\":10395:10409   */\n      lt\n        /* \"#utility.yul\":10375:10393   */\n      dup2\n        /* \"#utility.yul\":10372:10410   */\n      sub\n        /* \"#utility.yul\":10369:10453   */\n      tag_244\n      jumpi\n        /* \"#utility.yul\":10425:10443   */\n      tag_245\n      tag_130\n      jump\t// in\n    tag_245:\n        /* \"#utility.yul\":10369:10453   */\n    tag_244:\n        /* \"#utility.yul\":10190:10459   */\n      pop\n        /* \"#utility.yul\":10139:10459   */\n      swap2\n      swap1\n      pop\n      jump\t// out\n        /* \"#utility.yul\":10465:10606   */\n    tag_131:\n        /* \"#utility.yul\":10514:10518   */\n      0x00\n        /* \"#utility.yul\":10537:10540   */\n      dup2\n        /* \"#utility.yul\":10529:10540   */\n      swap1\n      pop\n        /* \"#utility.yul\":10560:10563   */\n      dup2\n        /* \"#utility.yul\":10557:10558   */\n      0x00\n        /* \"#utility.yul\":10550:10564   */\n      mstore\n        /* \"#utility.yul\":10594:10598   */\n      0x20\n        /* \"#utility.yul\":10591:10592   */\n      0x00\n        /* \"#utility.yul\":10581:10599   */\n      keccak256\n        /* \"#utility.yul\":10573:10599   */\n      swap1\n      pop\n        /* \"#utility.yul\":10465:10606   */\n      swap2\n      swap1\n      pop\n      jump\t// out\n        /* \"#utility.yul\":10612:10705   */\n    tag_132:\n        /* \"#utility.yul\":10649:10655   */\n      0x00\n        /* \"#utility.yul\":10696:10698   */\n      0x20\n        /* \"#utility.yul\":10691:10693   */\n      0x1f\n        /* \"#utility.yul\":10684:10689   */\n      dup4\n        /* \"#utility.yul\":10680:10694   */\n      add\n        /* \"#utility.yul\":10676:10699   */\n      div\n        /* \"#utility.yul\":10666:10699   */\n      swap1\n      pop\n        /* \"#utility.yul\":10612:10705   */\n      swap2\n      swap1\n      pop\n      jump\t// out\n        /* \"#utility.yul\":10711:10818   */\n    tag_133:\n        /* \"#utility.yul\":10755:10763   */\n      0x00\n        /* \"#utility.yul\":10805:10810   */\n      dup3\n        /* \"#utility.yul\":10799:10803   */\n      dup3\n        /* \"#utility.yul\":10795:10811   */\n      shl\n        /* \"#utility.yul\":10774:10811   */\n      swap1\n      pop\n        /* \"#utility.yul\":10711:10818   */\n      swap3\n      swap2\n      pop\n      pop\n      jump\t// out\n        /* \"#utility.yul\":10824:11217   */\n    tag_134:\n        /* \"#utility.yul\":10893:10899   */\n      0x00\n        /* \"#utility.yul\":10943:10944   */\n      0x08\n        /* \"#utility.yul\":10931:10941   */\n      dup4\n        /* \"#utility.yul\":10927:10945   */\n      mul\n        /* \"#utility.yul\":10966:11063   */\n      tag_250\n        /* \"#utility.yul\":10996:11062   */\n      0xffffffffffffffffffffffffffffffffffffffffffffffffffffffffffffffff\n        /* \"#utility.yul\":10985:10994   */\n      dup3\n        /* \"#utility.yul\":10966:11063   */\n      tag_133\n      jump\t// in\n    tag_250:\n        /* \"#utility.yul\":11084:11123   */\n      tag_251\n        /* \"#utility.yul\":11114:11122   */\n      dup7\n        /* \"#utility.yul\":11103:11112   */\n      dup4\n        /* \"#utility.yul\":11084:11123   */\n      tag_133\n      jump\t// in\n    tag_251:\n        /* \"#utility.yul\":11072:11123   */\n      swap6\n      pop\n        /* \"#utility.yul\":11156:11160   */\n      dup1\n        /* \"#utility.yul\":11152:11161   */\n      not\n        /* \"#utility.yul\":11145:11150   */\n      dup5\n        /* \"#utility.yul\":11141:11162   */\n      and\n        /* \"#utility.yul\":11132:11162   */\n      swap4\n      pop\n        /* \"#utility.yul\":11205:11209   */\n      dup1\n        /* \"#utility.yul\":11195:11203   */\n      dup7\n        /* \"#utility.yul\":11191:11210   */\n      and\n        /* \"#utility.yul\":11184:11189   */\n      dup5\n        /* \"#utility.yul\":11181:11211   */\n      or\n        /* \"#utility.yul\":11171:11211   */\n      swap3\n      pop\n        /* \"#utility.yul\":10900:11217   */\n      pop\n      pop\n        /* \"#utility.yul\":10824:11217   */\n      swap4\n      swap3\n      pop\n      pop\n      pop\n      jump\t// out\n        /* \"#utility.yul\":11223:11283   */\n    tag_135:\n        /* \"#utility.yul\":11251:11254   */\n      0x00\n        /* \"#utility.yul\":11272:11277   */\n      dup2\n        /* \"#utility.yul\":11265:11277   */\n      swap1\n      pop\n        /* \"#utility.yul\":11223:11283   */\n      swap2\n      swap1\n      pop\n      jump\t// out\n        /* \"#utility.yul\":11289:11431   */\n    tag_136:\n        /* \"#utility.yul\":11339:11348   */\n      0x00\n        /* \"#utility.yul\":11372:11425   */\n      tag_254\n        /* \"#utility.yul\":11390:11424   */\n      tag_255\n        /* \"#utility.yul\":11399:11423   */\n      tag_256\n        /* \"#utility.yul\":11417:11422   */\n      dup5\n        /* \"#utility.yul\":11399:11423   */\n      tag_103\n      jump\t// in\n    tag_256:\n        /* \"#utility.yul\":11390:11424   */\n      tag_135\n      jump\t// in\n    tag_255:\n        /* \"#utility.yul\":11372:11425   */\n      tag_103\n      jump\t// in\n    tag_254:\n        /* \"#utility.yul\":11359:11425   */\n      swap1\n      pop\n        /* \"#utility.yul\":11289:11431   */\n      swap2\n      swap1\n      pop\n      jump\t// out\n        /* \"#utility.yul\":11437:11512   */\n    tag_137:\n        /* \"#utility.yul\":11480:11483   */\n      0x00\n        /* \"#utility.yul\":11501:11506   */\n      dup2\n        /* \"#utility.yul\":11494:11506   */\n      swap1\n      pop\n        /* \"#utility.yul\":11437:11512   */\n      swap2\n      swap1\n      pop\n      jump\t// out\n        /* \"#utility.yul\":11518:11787   */\n    tag_138:\n        /* \"#utility.yul\":11628:11667   */\n      tag_259\n        /* \"#utility.yul\":11659:11666   */\n      dup4\n        /* \"#utility.yul\":11628:11667   */\n      tag_136\n      jump\t// in\n    tag_259:\n        /* \"#utility.yul\":11689:11780   */\n      tag_260\n        /* \"#utility.yul\":11738:11779   */\n      tag_261\n        /* \"#utility.yul\":11762:11778   */\n      dup3\n        /* \"#utility.yul\":11738:11779   */\n      tag_137\n      jump\t// in\n    tag_261:\n        /* \"#utility.yul\":11730:11736   */\n      dup5\n        /* \"#utility.yul\":11723:11727   */\n      dup5\n        /* \"#utility.yul\":11717:11728   */\n      sload\n        /* \"#utility.yul\":11689:11780   */\n      tag_134\n      jump\t// in\n    tag_260:\n        /* \"#utility.yul\":11683:11687   */\n      dup3\n        /* \"#utility.yul\":11676:11781   */\n      sstore\n        /* \"#utility.yul\":11594:11787   */\n      pop\n        /* \"#utility.yul\":11518:11787   */\n      pop\n      pop\n      pop\n      jump\t// out\n        /* \"#utility.yul\":11793:11866   */\n    tag_139:\n        /* \"#utility.yul\":11838:11841   */\n      0x00\n        /* \"#utility.yul\":11793:11866   */\n      swap1\n      jump\t// out\n        /* \"#utility.yul\":11872:12061   */\n    tag_140:\n        /* \"#utility.yul\":11949:11981   */\n      tag_264\n      tag_139\n      jump\t// in\n    tag_264:\n        /* \"#utility.yul\":11990:12055   */\n      tag_265\n        /* \"#utility.yul\":12048:12054   */\n      dup2\n        /* \"#utility.yul\":12040:12046   */\n      dup5\n        /* \"#utility.yul\":12034:12038   */\n      dup5\n        /* \"#utility.yul\":11990:12055   */\n      tag_138\n      jump\t// in\n    tag_265:\n        /* \"#utility.yul\":11925:12061   */\n      pop\n        /* \"#utility.yul\":11872:12061   */\n      pop\n      pop\n      jump\t// out\n        /* \"#utility.yul\":12067:12253   */\n    tag_141:\n        /* \"#utility.yul\":12127:12247   */\n    tag_267:\n        /* \"#utility.yul\":12144:12147   */\n      dup2\n        /* \"#utility.yul\":12137:12142   */\n      dup2\n        /* \"#utility.yul\":12134:12148   */\n      lt\n        /* \"#utility.yul\":12127:12247   */\n      iszero\n      tag_269\n      jumpi\n        /* \"#utility.yul\":12198:12237   */\n      tag_270\n        /* \"#utility.yul\":12235:12236   */\n      0x00\n        /* \"#utility.yul\":12228:12233   */\n      dup3\n        /* \"#utility.yul\":12198:12237   */\n      tag_140\n      jump\t// in\n    tag_270:\n        /* \"#utility.yul\":12171:12172   */\n      0x01\n        /* \"#utility.yul\":12164:12169   */\n      dup2\n        /* \"#utility.yul\":12160:12173   */\n      add\n        /* \"#utility.yul\":12151:12173   */\n      swap1\n      pop\n        /* \"#utility.yul\":12127:12247   */\n      jump(tag_267)\n    tag_269:\n        /* \"#utility.yul\":12067:12253   */\n      pop\n      pop\n      jump\t// out\n        /* \"#utility.yul\":12259:12802   */\n    tag_142:\n        /* \"#utility.yul\":12360:12362   */\n      0x1f\n        /* \"#utility.yul\":12355:12358   */\n      dup3\n        /* \"#utility.yul\":12352:12363   */\n      gt\n        /* \"#utility.yul\":12349:12795   */\n      iszero\n      tag_272\n      jumpi\n        /* \"#utility.yul\":12394:12432   */\n      tag_273\n        /* \"#utility.yul\":12426:12431   */\n      dup2\n        /* \"#utility.yul\":12394:12432   */\n      tag_131\n      jump\t// in\n    tag_273:\n        /* \"#utility.yul\":12478:12507   */\n      tag_274\n        /* \"#utility.yul\":12496:12506   */\n      dup5\n        /* \"#utility.yul\":12478:12507   */\n      tag_132\n      jump\t// in\n    tag_274:\n        /* \"#utility.yul\":12468:12476   */\n      dup2\n        /* \"#utility.yul\":12464:12508   */\n      add\n        /* \"#utility.yul\":12661:12663   */\n      0x20\n        /* \"#utility.yul\":12649:12659   */\n      dup6\n        /* \"#utility.yul\":12646:12664   */\n      lt\n        /* \"#utility.yul\":12643:12692   */\n      iszero\n      tag_275\n      jumpi\n        /* \"#utility.yul\":12682:12690   */\n      dup2\n        /* \"#utility.yul\":12667:12690   */\n      swap1\n      pop\n        /* \"#utility.yul\":12643:12692   */\n    tag_275:\n        /* \"#utility.yul\":12705:12785   */\n      tag_276\n        /* \"#utility.yul\":12761:12783   */\n      tag_277\n        /* \"#utility.yul\":12779:12782   */\n      dup6\n        /* \"#utility.yul\":12761:12783   */\n      tag_132\n      jump\t// in\n    tag_277:\n        /* \"#utility.yul\":12751:12759   */\n      dup4\n        /* \"#utility.yul\":12747:12784   */\n      add\n        /* \"#utility.yul\":12734:12745   */\n      dup3\n        /* \"#utility.yul\":12705:12785   */\n      tag_141\n      jump\t// in\n    tag_276:\n        /* \"#utility.yul\":12364:12795   */\n      pop\n      pop\n        /* \"#utility.yul\":12349:12795   */\n    tag_272:\n        /* \"#utility.yul\":12259:12802   */\n      pop\n      pop\n      pop\n      jump\t// out\n        /* \"#utility.yul\":12808:12925   */\n    tag_143:\n        /* \"#utility.yul\":12862:12870   */\n      0x00\n        /* \"#utility.yul\":12912:12917   */\n      dup3\n        /* \"#utility.yul\":12906:12910   */\n      dup3\n        /* \"#utility.yul\":12902:12918   */\n      shr\n        /* \"#utility.yul\":12881:12918   */\n      swap1\n      pop\n        /* \"#utility.yul\":12808:12925   */\n      swap3\n      swap2\n      pop\n      pop\n      jump\t// out\n        /* \"#utility.yul\":12931:13100   */\n    tag_144:\n        /* \"#utility.yul\":12975:12981   */\n      0x00\n        /* \"#utility.yul\":13008:13059   */\n      tag_280\n        /* \"#utility.yul\":13056:13057   */\n      0x00\n        /* \"#utility.yul\":13052:13058   */\n      not\n        /* \"#utility.yul\":13044:13049   */\n      dup5\n        /* \"#utility.yul\":13041:13042   */\n      0x08\n        /* \"#utility.yul\":13037:13050   */\n      mul\n        /* \"#utility.yul\":13008:13059   */\n      tag_143\n      jump\t// in\n    tag_280:\n        /* \"#utility.yul\":13004:13060   */\n      not\n        /* \"#utility.yul\":13089:13093   */\n      dup1\n        /* \"#utility.yul\":13083:13087   */\n      dup4\n        /* \"#utility.yul\":13079:13094   */\n      and\n        /* \"#utility.yul\":13069:13094   */\n      swap2\n      pop\n        /* \"#utility.yul\":12982:13100   */\n      pop\n        /* \"#utility.yul\":12931:13100   */\n      swap3\n      swap2\n      pop\n      pop\n      jump\t// out\n        /* \"#utility.yul\":13105:13400   */\n    tag_145:\n        /* \"#utility.yul\":13181:13185   */\n      0x00\n        /* \"#utility.yul\":13327:13356   */\n      tag_282\n        /* \"#utility.yul\":13352:13355   */\n      dup4\n        /* \"#utility.yul\":13346:13350   */\n      dup4\n        /* \"#utility.yul\":13327:13356   */\n      tag_144\n      jump\t// in\n    tag_282:\n        /* \"#utility.yul\":13319:13356   */\n      swap2\n      pop\n        /* \"#utility.yul\":13389:13392   */\n      dup3\n        /* \"#utility.yul\":13386:13387   */\n      0x02\n        /* \"#utility.yul\":13382:13393   */\n      mul\n        /* \"#utility.yul\":13376:13380   */\n      dup3\n        /* \"#utility.yul\":13373:13394   */\n      or\n        /* \"#utility.yul\":13365:13394   */\n      swap1\n      pop\n        /* \"#utility.yul\":13105:13400   */\n      swap3\n      swap2\n      pop\n      pop\n      jump\t// out\n        /* \"#utility.yul\":13405:14800   */\n    tag_32:\n        /* \"#utility.yul\":13522:13559   */\n      tag_284\n        /* \"#utility.yul\":13555:13558   */\n      dup3\n        /* \"#utility.yul\":13522:13559   */\n      tag_117\n      jump\t// in\n    tag_284:\n        /* \"#utility.yul\":13624:13642   */\n      0xffffffffffffffff\n        /* \"#utility.yul\":13616:13622   */\n      dup2\n        /* \"#utility.yul\":13613:13643   */\n      gt\n        /* \"#utility.yul\":13610:13666   */\n      iszero\n      tag_285\n      jumpi\n        /* \"#utility.yul\":13646:13664   */\n      tag_286\n      tag_109\n      jump\t// in\n    tag_286:\n        /* \"#utility.yul\":13610:13666   */\n    tag_285:\n        /* \"#utility.yul\":13690:13728   */\n      tag_287\n        /* \"#utility.yul\":13722:13726   */\n      dup3\n        /* \"#utility.yul\":13716:13727   */\n      sload\n        /* \"#utility.yul\":13690:13728   */\n      tag_48\n      jump\t// in\n    tag_287:\n        /* \"#utility.yul\":13775:13842   */\n      tag_288\n        /* \"#utility.yul\":13835:13841   */\n      dup3\n        /* \"#utility.yul\":13827:13833   */\n      dup3\n        /* \"#utility.yul\":13821:13825   */\n      dup6\n        /* \"#utility.yul\":13775:13842   */\n      tag_142\n      jump\t// in\n    tag_288:\n        /* \"#utility.yul\":13869:13870   */\n      0x00\n        /* \"#utility.yul\":13893:13897   */\n      0x20\n        /* \"#utility.yul\":13880:13897   */\n      swap1\n      pop\n        /* \"#utility.yul\":13925:13927   */\n      0x1f\n        /* \"#utility.yul\":13917:13923   */\n      dup4\n        /* \"#utility.yul\":13914:13928   */\n      gt\n        /* \"#utility.yul\":13942:13943   */\n      0x01\n        /* \"#utility.yul\":13937:14555   */\n      dup2\n      eq\n      tag_290\n      jumpi\n        /* \"#utility.yul\":14599:14600   */\n      0x00\n        /* \"#utility.yul\":14616:14622   */\n      dup5\n        /* \"#utility.yul\":14613:14690   */\n      iszero\n      tag_291\n      jumpi\n        /* \"#utility.yul\":14665:14674   */\n      dup3\n        /* \"#utility.yul\":14660:14663   */\n      dup8\n        /* \"#utility.yul\":14656:14675   */\n      add\n        /* \"#utility.yul\":14650:14676   */\n      mload\n        /* \"#utility.yul\":14641:14676   */\n      swap1\n      pop\n        /* \"#utility.yul\":14613:14690   */\n    tag_291:\n        /* \"#utility.yul\":14716:14783   */\n      tag_292\n        /* \"#utility.yul\":14776:14782   */\n      dup6\n        /* \"#utility.yul\":14769:14774   */\n      dup3\n        /* \"#utility.yul\":14716:14783   */\n      tag_145\n      jump\t// in\n    tag_292:\n        /* \"#utility.yul\":14710:14714   */\n      dup7\n        /* \"#utility.yul\":14703:14784   */\n      sstore\n        /* \"#utility.yul\":14572:14794   */\n      pop\n        /* \"#utility.yul\":13907:14794   */\n      jump(tag_289)\n        /* \"#utility.yul\":13937:14555   */\n    tag_290:\n        /* \"#utility.yul\":13989:13993   */\n      0x1f\n        /* \"#utility.yul\":13985:13994   */\n      not\n        /* \"#utility.yul\":13977:13983   */\n      dup5\n        /* \"#utility.yul\":13973:13995   */\n      and\n        /* \"#utility.yul\":14023:14060   */\n      tag_293\n        /* \"#utility.yul\":14055:14059   */\n      dup7\n        /* \"#utility.yul\":14023:14060   */\n      tag_131\n      jump\t// in\n    tag_293:\n        /* \"#utility.yul\":14082:14083   */\n      0x00\n        /* \"#utility.yul\":14096:14304   */\n    tag_294:\n        /* \"#utility.yul\":14110:14117   */\n      dup3\n        /* \"#utility.yul\":14107:14108   */\n      dup2\n        /* \"#utility.yul\":14104:14118   */\n      lt\n        /* \"#utility.yul\":14096:14304   */\n      iszero\n      tag_296\n      jumpi\n        /* \"#utility.yul\":14189:14198   */\n      dup5\n        /* \"#utility.yul\":14184:14187   */\n      dup10\n        /* \"#utility.yul\":14180:14199   */\n      add\n        /* \"#utility.yul\":14174:14200   */\n      mload\n        /* \"#utility.yul\":14166:14172   */\n      dup3\n        /* \"#utility.yul\":14159:14201   */\n      sstore\n        /* \"#utility.yul\":14240:14241   */\n      0x01\n        /* \"#utility.yul\":14232:14238   */\n      dup3\n        /* \"#utility.yul\":14228:14242   */\n      add\n        /* \"#utility.yul\":14218:14242   */\n      swap2\n      pop\n        /* \"#utility.yul\":14287:14289   */\n      0x20\n        /* \"#utility.yul\":14276:14285   */\n      dup6\n        /* \"#utility.yul\":14272:14290   */\n      add\n        /* \"#utility.yul\":14259:14290   */\n      swap5\n      pop\n        /* \"#utility.yul\":14133:14137   */\n      0x20\n        /* \"#utility.yul\":14130:14131   */\n      dup2\n        /* \"#utility.yul\":14126:14138   */\n      add\n        /* \"#utility.yul\":14121:14138   */\n      swap1\n      pop\n        /* \"#utility.yul\":14096:14304   */\n      jump(tag_294)\n    tag_296:\n        /* \"#utility.yul\":14332:14338   */\n      dup7\n        /* \"#utility.yul\":14323:14330   */\n      dup4\n        /* \"#utility.yul\":14320:14339   */\n      lt\n        /* \"#utility.yul\":14317:14496   */\n      iszero\n      tag_297\n      jumpi\n        /* \"#utility.yul\":14390:14399   */\n      dup5\n        /* \"#utility.yul\":14385:14388   */\n      dup10\n        /* \"#utility.yul\":14381:14400   */\n      add\n        /* \"#utility.yul\":14375:14401   */\n      mload\n        /* \"#utility.yul\":14433:14481   */\n      tag_298\n        /* \"#utility.yul\":14475:14479   */\n      0x1f\n        /* \"#utility.yul\":14467:14473   */\n      dup10\n        /* \"#utility.yul\":14463:14480   */\n      and\n        /* \"#utility.yul\":14452:14461   */\n      dup3\n        /* \"#utility.yul\":14433:14481   */\n      tag_144\n      jump\t// in\n    tag_298:\n        /* \"#utility.yul\":14425:14431   */\n      dup4\n        /* \"#utility.yul\":14418:14482   */\n      sstore\n        /* \"#utility.yul\":14340:14496   */\n      pop\n        /* \"#utility.yul\":14317:14496   */\n    tag_297:\n        /* \"#utility.yul\":14542:14543   */\n      0x01\n        /* \"#utility.yul\":14538:14539   */\n      0x02\n        /* \"#utility.yul\":14530:14536   */\n      dup9\n        /* \"#utility.yul\":14526:14540   */\n      mul\n        /* \"#utility.yul\":14522:14544   */\n      add\n        /* \"#utility.yul\":14516:14520   */\n      dup9\n        /* \"#utility.yul\":14509:14545   */\n      sstore\n        /* \"#utility.yul\":13944:14555   */\n      pop\n      pop\n      pop\n        /* \"#utility.yul\":13907:14794   */\n    tag_289:\n      pop\n        /* \"#utility.yul\":13497:14800   */\n      pop\n      pop\n      pop\n        /* \"#utility.yul\":13405:14800   */\n      pop\n      pop\n      jump\t// out\n        /* \"#utility.yul\":14806:14986   */\n    tag_41:\n        /* \"#utility.yul\":14854:14931   */\n      0x4e487b7100000000000000000000000000000000000000000000000000000000\n        /* \"#utility.yul\":14851:14852   */\n      0x00\n        /* \"#utility.yul\":14844:14932   */\n      mstore\n        /* \"#utility.yul\":14951:14955   */\n      0x32\n        /* \"#utility.yul\":14948:14949   */\n      0x04\n        /* \"#utility.yul\":14941:14956   */\n      mstore\n        /* \"#utility.yul\":14975:14979   */\n      0x24\n        /* \"#utility.yul\":14972:14973   */\n      0x00\n        /* \"#utility.yul\":14965:14980   */\n      revert\n        /* \"#utility.yul\":14992:15161   */\n    tag_146:\n        /* \"#utility.yul\":15076:15087   */\n      0x00\n        /* \"#utility.yul\":15110:15116   */\n      dup3\n        /* \"#utility.yul\":15105:15108   */\n      dup3\n        /* \"#utility.yul\":15098:15117   */\n      mstore\n        /* \"#utility.yul\":15150:15154   */\n      0x20\n        /* \"#utility.yul\":15145:15148   */\n      dup3\n        /* \"#utility.yul\":15141:15155   */\n      add\n        /* \"#utility.yul\":15126:15155   */\n      swap1\n      pop\n        /* \"#utility.yul\":14992:15161   */\n      swap3\n      swap2\n      pop\n      pop\n      jump\t// out\n        /* \"#utility.yul\":15167:15334   */\n    tag_147:\n        /* \"#utility.yul\":15307:15326   */\n      0x53747564656e74204e6f7420466f756e64000000000000000000000000000000\n        /* \"#utility.yul\":15303:15304   */\n      0x00\n        /* \"#utility.yul\":15295:15301   */\n      dup3\n        /* \"#utility.yul\":15291:15305   */\n      add\n        /* \"#utility.yul\":15284:15327   */\n      mstore\n        /* \"#utility.yul\":15167:15334   */\n      pop\n      jump\t// out\n        /* \"#utility.yul\":15340:15706   */\n    tag_148:\n        /* \"#utility.yul\":15482:15485   */\n      0x00\n        /* \"#utility.yul\":15503:15570   */\n      tag_303\n        /* \"#utility.yul\":15567:15569   */\n      0x11\n        /* \"#utility.yul\":15562:15565   */\n      dup4\n        /* \"#utility.yul\":15503:15570   */\n      tag_146\n      jump\t// in\n    tag_303:\n        /* \"#utility.yul\":15496:15570   */\n      swap2\n      pop\n        /* \"#utility.yul\":15579:15672   */\n      tag_304\n        /* \"#utility.yul\":15668:15671   */\n      dup3\n        /* \"#utility.yul\":15579:15672   */\n      tag_147\n      jump\t// in\n    tag_304:\n        /* \"#utility.yul\":15697:15699   */\n      0x20\n        /* \"#utility.yul\":15692:15695   */\n      dup3\n        /* \"#utility.yul\":15688:15700   */\n      add\n        /* \"#utility.yul\":15681:15700   */\n      swap1\n      pop\n        /* \"#utility.yul\":15340:15706   */\n      swap2\n      swap1\n      pop\n      jump\t// out\n        /* \"#utility.yul\":15712:16131   */\n    tag_54:\n        /* \"#utility.yul\":15878:15882   */\n      0x00\n        /* \"#utility.yul\":15916:15918   */\n      0x20\n        /* \"#utility.yul\":15905:15914   */\n      dup3\n        /* \"#utility.yul\":15901:15919   */\n      add\n        /* \"#utility.yul\":15893:15919   */\n      swap1\n      pop\n        /* \"#utility.yul\":15965:15974   */\n      dup2\n        /* \"#utility.yul\":15959:15963   */\n      dup2\n        /* \"#utility.yul\":15955:15975   */\n      sub\n        /* \"#utility.yul\":15951:15952   */\n      0x00\n        /* \"#utility.yul\":15940:15949   */\n      dup4\n        /* \"#utility.yul\":15936:15953   */\n      add\n        /* \"#utility.yul\":15929:15976   */\n      mstore\n        /* \"#utility.yul\":15993:16124   */\n      tag_306\n        /* \"#utility.yul\":16119:16123   */\n      dup2\n        /* \"#utility.yul\":15993:16124   */\n      tag_148\n      jump\t// in\n    tag_306:\n        /* \"#utility.yul\":15985:16124   */\n      swap1\n      pop\n        /* \"#utility.yul\":15712:16131   */\n      swap2\n      swap1\n      pop\n      jump\t// out\n        /* \"#utility.yul\":16137:16317   */\n    tag_149:\n        /* \"#utility.yul\":16185:16262   */\n      0x4e487b7100000000000000000000000000000000000000000000000000000000\n        /* \"#utility.yul\":16182:16183   */\n      0x00\n        /* \"#utility.yul\":16175:16263   */\n      mstore\n        /* \"#utility.yul\":16282:16286   */\n      0x11\n        /* \"#utility.yul\":16279:16280   */\n      0x04\n        /* \"#utility.yul\":16272:16287   */\n      mstore\n        /* \"#utility.yul\":16306:16310   */\n      0x24\n        /* \"#utility.yul\":16303:16304   */\n      0x00\n        /* \"#utility.yul\":16296:16311   */\n      revert\n        /* \"#utility.yul\":16323:16514   */\n    tag_88:\n        /* \"#utility.yul\":16363:16366   */\n      0x00\n        /* \"#utility.yul\":16382:16402   */\n      tag_309\n        /* \"#utility.yul\":16400:16401   */\n      dup3\n        /* \"#utility.yul\":16382:16402   */\n      tag_103\n      jump\t// in\n    tag_309:\n        /* \"#utility.yul\":16377:16402   */\n      swap2\n      pop\n        /* \"#utility.yul\":16416:16436   */\n      tag_310\n        /* \"#utility.yul\":16434:16435   */\n      dup4\n        /* \"#utility.yul\":16416:16436   */\n      tag_103\n      jump\t// in\n    tag_310:\n        /* \"#utility.yul\":16411:16436   */\n      swap3\n      pop\n        /* \"#utility.yul\":16459:16460   */\n      dup3\n        /* \"#utility.yul\":16456:16457   */\n      dup3\n        /* \"#utility.yul\":16452:16461   */\n      add\n        /* \"#utility.yul\":16445:16461   */\n      swap1\n      pop\n        /* \"#utility.yul\":16480:16483   */\n      dup1\n        /* \"#utility.yul\":16477:16478   */\n      dup3\n        /* \"#utility.yul\":16474:16484   */\n      gt\n        /* \"#utility.yul\":16471:16507   */\n      iszero\n      tag_311\n      jumpi\n        /* \"#utility.yul\":16487:16505   */\n      tag_312\n      tag_149\n      jump\t// in\n    tag_312:\n        /* \"#utility.yul\":16471:16507   */\n    tag_311:\n        /* \"#utility.yul\":16323:16514   */\n      swap3\n      swap2\n      pop\n      pop\n      jump\t// out\n        /* \"#utility.yul\":16520:16700   */\n    tag_150:\n        /* \"#utility.yul\":16568:16645   */\n      0x4e487b7100000000000000000000000000000000000000000000000000000000\n        /* \"#utility.yul\":16565:16566   */\n      0x00\n        /* \"#utility.yul\":16558:16646   */\n      mstore\n        /* \"#utility.yul\":16665:16669   */\n      0x12\n        /* \"#utility.yul\":16662:16663   */\n      0x04\n        /* \"#utility.yul\":16655:16670   */\n      mstore\n        /* \"#utility.yul\":16689:16693   */\n      0x24\n        /* \"#utility.yul\":16686:16687   */\n      0x00\n        /* \"#utility.yul\":16679:16694   */\n      revert\n        /* \"#utility.yul\":16706:16891   */\n    tag_90:\n        /* \"#utility.yul\":16746:16747   */\n      0x00\n        /* \"#utility.yul\":16763:16783   */\n      tag_315\n        /* \"#utility.yul\":16781:16782   */\n      dup3\n        /* \"#utility.yul\":16763:16783   */\n      tag_103\n      jump\t// in\n    tag_315:\n        /* \"#utility.yul\":16758:16783   */\n      swap2\n      pop\n        /* \"#utility.yul\":16797:16817   */\n      tag_316\n        /* \"#utility.yul\":16815:16816   */\n      dup4\n        /* \"#utility.yul\":16797:16817   */\n      tag_103\n      jump\t// in\n    tag_316:\n        /* \"#utility.yul\":16792:16817   */\n      swap3\n      pop\n        /* \"#utility.yul\":16836:16837   */\n      dup3\n        /* \"#utility.yul\":16826:16861   */\n      tag_317\n      jumpi\n        /* \"#utility.yul\":16841:16859   */\n      tag_318\n      tag_150\n      jump\t// in\n    tag_318:\n        /* \"#utility.yul\":16826:16861   */\n    tag_317:\n        /* \"#utility.yul\":16883:16884   */\n      dup3\n        /* \"#utility.yul\":16880:16881   */\n      dup3\n        /* \"#utility.yul\":16876:16885   */\n      div\n        /* \"#utility.yul\":16871:16885   */\n      swap1\n      pop\n        /* \"#utility.yul\":16706:16891   */\n      swap3\n      swap2\n      pop\n      pop\n      jump\t// out\n\n    auxdata: 0xa26469706673582212208e26dbb5e75b5bb867991c0cdc2a1b74a8e30ecc2d0dfc1373371575556498d764736f6c634300081a0033\n}\n",
				"bytecode": {
					"linkReferences": {},
					"object": "6080604052348015600e575f80fd5b50610f068061001c5f395ff3fe608060405234801561000f575f80fd5b5060043610610055575f3560e01c80633b4598b114610059578063642f916314610075578063a0b26a7d146100a5578063c006719f146100c3578063e9e30927146100e2575b5f80fd5b610073600480360381019061006e91906107d4565b610100565b005b61008f600480360381019061008a9190610840565b610171565b60405161009c9190610927565b60405180910390f35b6100ad6102d2565b6040516100ba9190610927565b60405180910390f35b6100cb6104cb565b6040516100d9929190610956565b60405180910390f35b6100ea610537565b6040516100f79190610a85565b60405180910390f35b5f604051806060016040528085815260200184815260200183815250908060018154018082558091505060019003905f5260205f2090600302015f909190919091505f820151815f0155602082015181600101908161015f9190610c9f565b50604082015181600201555050505050565b610179610635565b5f5b5f8054905081101561029157825f828154811061019b5761019a610d6e565b5b905f5260205f2090600302015f015403610284575f81815481106101c2576101c1610d6e565b5b905f5260205f2090600302016040518060600160405290815f82015481526020016001820180546101f290610ad2565b80601f016020809104026020016040519081016040528092919081815260200182805461021e90610ad2565b80156102695780601f1061024057610100808354040283529160200191610269565b820191905f5260205f20905b81548152906001019060200180831161024c57829003601f168201915b505050505081526020016002820154815250509150506102cd565b808060010191505061017b565b506040517f08c379a00000000000000000000000000000000000000000000000000000000081526004016102c490610df5565b60405180910390fd5b919050565b6102da610635565b5f805f815481106102ee576102ed610d6e565b5b905f5260205f2090600302016040518060600160405290815f820154815260200160018201805461031e90610ad2565b80601f016020809104026020016040519081016040528092919081815260200182805461034a90610ad2565b80156103955780601f1061036c57610100808354040283529160200191610395565b820191905f5260205f20905b81548152906001019060200180831161037857829003601f168201915b5050505050815260200160028201548152505090505f5b5f805490508110156104c35781604001515f82815481106103d0576103cf610d6e565b5b905f5260205f2090600302016002015410156104b6575f81815481106103f9576103f8610d6e565b5b905f5260205f2090600302016040518060600160405290815f820154815260200160018201805461042990610ad2565b80601f016020809104026020016040519081016040528092919081815260200182805461045590610ad2565b80156104a05780601f10610477576101008083540402835291602001916104a0565b820191905f5260205f20905b81548152906001019060200180831161048357829003601f168201915b5050505050815260200160028201548152505091505b80806001019150506103ac565b508091505090565b5f805f805f90505b5f8054905081101561051c575f81815481106104f2576104f1610d6e565b5b905f5260205f209060030201600201548261050d9190610e40565b915080806001019150506104d3565b50805f805490508261052e9190610ea0565b92509250509091565b60605f805480602002602001604051908101604052809291908181526020015f905b8282101561062c578382905f5260205f2090600302016040518060600160405290815f820154815260200160018201805461059390610ad2565b80601f01602080910402602001604051908101604052809291908181526020018280546105bf90610ad2565b801561060a5780601f106105e15761010080835404028352916020019161060a565b820191905f5260205f20905b8154815290600101906020018083116105ed57829003601f168201915b5050505050815260200160028201548152505081526020019060010190610559565b50505050905090565b60405180606001604052805f8152602001606081526020015f81525090565b5f604051905090565b5f80fd5b5f80fd5b5f819050919050565b61067781610665565b8114610681575f80fd5b50565b5f813590506106928161066e565b92915050565b5f80fd5b5f80fd5b5f601f19601f8301169050919050565b7f4e487b71000000000000000000000000000000000000000000000000000000005f52604160045260245ffd5b6106e6826106a0565b810181811067ffffffffffffffff82111715610705576107046106b0565b5b80604052505050565b5f610717610654565b905061072382826106dd565b919050565b5f67ffffffffffffffff821115610742576107416106b0565b5b61074b826106a0565b9050602081019050919050565b828183375f83830152505050565b5f61077861077384610728565b61070e565b9050828152602081018484840111156107945761079361069c565b5b61079f848285610758565b509392505050565b5f82601f8301126107bb576107ba610698565b5b81356107cb848260208601610766565b91505092915050565b5f805f606084860312156107eb576107ea61065d565b5b5f6107f886828701610684565b935050602084013567ffffffffffffffff81111561081957610818610661565b5b610825868287016107a7565b925050604061083686828701610684565b9150509250925092565b5f602082840312156108555761085461065d565b5b5f61086284828501610684565b91505092915050565b61087481610665565b82525050565b5f81519050919050565b5f82825260208201905092915050565b8281835e5f83830152505050565b5f6108ac8261087a565b6108b68185610884565b93506108c6818560208601610894565b6108cf816106a0565b840191505092915050565b5f606083015f8301516108ef5f86018261086b565b506020830151848203602086015261090782826108a2565b915050604083015161091c604086018261086b565b508091505092915050565b5f6020820190508181035f83015261093f81846108da565b905092915050565b61095081610665565b82525050565b5f6040820190506109695f830185610947565b6109766020830184610947565b9392505050565b5f81519050919050565b5f82825260208201905092915050565b5f819050602082019050919050565b5f606083015f8301516109bb5f86018261086b565b50602083015184820360208601526109d382826108a2565b91505060408301516109e8604086018261086b565b508091505092915050565b5f6109fe83836109a6565b905092915050565b5f602082019050919050565b5f610a1c8261097d565b610a268185610987565b935083602082028501610a3885610997565b805f5b85811015610a735784840389528151610a5485826109f3565b9450610a5f83610a06565b925060208a01995050600181019050610a3b565b50829750879550505050505092915050565b5f6020820190508181035f830152610a9d8184610a12565b905092915050565b7f4e487b71000000000000000000000000000000000000000000000000000000005f52602260045260245ffd5b5f6002820490506001821680610ae957607f821691505b602082108103610afc57610afb610aa5565b5b50919050565b5f819050815f5260205f209050919050565b5f6020601f8301049050919050565b5f82821b905092915050565b5f60088302610b5e7fffffffffffffffffffffffffffffffffffffffffffffffffffffffffffffffff82610b23565b610b688683610b23565b95508019841693508086168417925050509392505050565b5f819050919050565b5f610ba3610b9e610b9984610665565b610b80565b610665565b9050919050565b5f819050919050565b610bbc83610b89565b610bd0610bc882610baa565b848454610b2f565b825550505050565b5f90565b610be4610bd8565b610bef818484610bb3565b505050565b5b81811015610c1257610c075f82610bdc565b600181019050610bf5565b5050565b601f821115610c5757610c2881610b02565b610c3184610b14565b81016020851015610c40578190505b610c54610c4c85610b14565b830182610bf4565b50505b505050565b5f82821c905092915050565b5f610c775f1984600802610c5c565b1980831691505092915050565b5f610c8f8383610c68565b9150826002028217905092915050565b610ca88261087a565b67ffffffffffffffff811115610cc157610cc06106b0565b5b610ccb8254610ad2565b610cd6828285610c16565b5f60209050601f831160018114610d07575f8415610cf5578287015190505b610cff8582610c84565b865550610d66565b601f198416610d1586610b02565b5f5b82811015610d3c57848901518255600182019150602085019450602081019050610d17565b86831015610d595784890151610d55601f891682610c68565b8355505b6001600288020188555050505b505050505050565b7f4e487b71000000000000000000000000000000000000000000000000000000005f52603260045260245ffd5b5f82825260208201905092915050565b7f53747564656e74204e6f7420466f756e640000000000000000000000000000005f82015250565b5f610ddf601183610d9b565b9150610dea82610dab565b602082019050919050565b5f6020820190508181035f830152610e0c81610dd3565b9050919050565b7f4e487b71000000000000000000000000000000000000000000000000000000005f52601160045260245ffd5b5f610e4a82610665565b9150610e5583610665565b9250828201905080821115610e6d57610e6c610e13565b5b92915050565b7f4e487b71000000000000000000000000000000000000000000000000000000005f52601260045260245ffd5b5f610eaa82610665565b9150610eb583610665565b925082610ec557610ec4610e73565b5b82820490509291505056fea26469706673582212208e26dbb5e75b5bb867991c0cdc2a1b74a8e30ecc2d0dfc1373371575556498d764736f6c634300081a0033",
					"opcodes": "PUSH1 0x80 PUSH1 0x40 MSTORE CALLVALUE DUP1 ISZERO PUSH1 0xE JUMPI PUSH0 DUP1 REVERT JUMPDEST POP PUSH2 0xF06 DUP1 PUSH2 0x1C PUSH0 CODECOPY PUSH0 RETURN INVALID PUSH1 0x80 PUSH1 0x40 MSTORE CALLVALUE DUP1 ISZERO PUSH2 0xF JUMPI PUSH0 DUP1 REVERT JUMPDEST POP PUSH1 0x4 CALLDATASIZE LT PUSH2 0x55 JUMPI PUSH0 CALLDATALOAD PUSH1 0xE0 SHR DUP1 PUSH4 0x3B4598B1 EQ PUSH2 0x59 JUMPI DUP1 PUSH4 0x642F9163 EQ PUSH2 0x75 JUMPI DUP1 PUSH4 0xA0B26A7D EQ PUSH2 0xA5 JUMPI DUP1 PUSH4 0xC006719F EQ PUSH2 0xC3 JUMPI DUP1 PUSH4 0xE9E30927 EQ PUSH2 0xE2 JUMPI JUMPDEST PUSH0 DUP1 REVERT JUMPDEST PUSH2 0x73 PUSH1 0x4 DUP1 CALLDATASIZE SUB DUP2 ADD SWAP1 PUSH2 0x6E SWAP2 SWAP1 PUSH2 0x7D4 JUMP JUMPDEST PUSH2 0x100 JUMP JUMPDEST STOP JUMPDEST PUSH2 0x8F PUSH1 0x4 DUP1 CALLDATASIZE SUB DUP2 ADD SWAP1 PUSH2 0x8A SWAP2 SWAP1 PUSH2 0x840 JUMP JUMPDEST PUSH2 0x171 JUMP JUMPDEST PUSH1 0x40 MLOAD PUSH2 0x9C SWAP2 SWAP1 PUSH2 0x927 JUMP JUMPDEST PUSH1 0x40 MLOAD DUP1 SWAP2 SUB SWAP1 RETURN JUMPDEST PUSH2 0xAD PUSH2 0x2D2 JUMP JUMPDEST PUSH1 0x40 MLOAD PUSH2 0xBA SWAP2 SWAP1 PUSH2 0x927 JUMP JUMPDEST PUSH1 0x40 MLOAD DUP1 SWAP2 SUB SWAP1 RETURN JUMPDEST PUSH2 0xCB PUSH2 0x4CB JUMP JUMPDEST PUSH1 0x40 MLOAD PUSH2 0xD9 SWAP3 SWAP2 SWAP1 PUSH2 0x956 JUMP JUMPDEST PUSH1 0x40 MLOAD DUP1 SWAP2 SUB SWAP1 RETURN JUMPDEST PUSH2 0xEA PUSH2 0x537 JUMP JUMPDEST PUSH1 0x40 MLOAD PUSH2 0xF7 SWAP2 SWAP1 PUSH2 0xA85 JUMP JUMPDEST PUSH1 0x40 MLOAD DUP1 SWAP2 SUB SWAP1 RETURN JUMPDEST PUSH0 PUSH1 0x40 MLOAD DUP1 PUSH1 0x60 ADD PUSH1 0x40 MSTORE DUP1 DUP6 DUP2 MSTORE PUSH1 0x20 ADD DUP5 DUP2 MSTORE PUSH1 0x20 ADD DUP4 DUP2 MSTORE POP SWAP1 DUP1 PUSH1 0x1 DUP2 SLOAD ADD DUP1 DUP3 SSTORE DUP1 SWAP2 POP POP PUSH1 0x1 SWAP1 SUB SWAP1 PUSH0 MSTORE PUSH1 0x20 PUSH0 KECCAK256 SWAP1 PUSH1 0x3 MUL ADD PUSH0 SWAP1 SWAP2 SWAP1 SWAP2 SWAP1 SWAP2 POP PUSH0 DUP3 ADD MLOAD DUP2 PUSH0 ADD SSTORE PUSH1 0x20 DUP3 ADD MLOAD DUP2 PUSH1 0x1 ADD SWAP1 DUP2 PUSH2 0x15F SWAP2 SWAP1 PUSH2 0xC9F JUMP JUMPDEST POP PUSH1 0x40 DUP3 ADD MLOAD DUP2 PUSH1 0x2 ADD SSTORE POP POP POP POP POP JUMP JUMPDEST PUSH2 0x179 PUSH2 0x635 JUMP JUMPDEST PUSH0 JUMPDEST PUSH0 DUP1 SLOAD SWAP1 POP DUP2 LT ISZERO PUSH2 0x291 JUMPI DUP3 PUSH0 DUP3 DUP2 SLOAD DUP2 LT PUSH2 0x19B JUMPI PUSH2 0x19A PUSH2 0xD6E JUMP JUMPDEST JUMPDEST SWAP1 PUSH0 MSTORE PUSH1 0x20 PUSH0 KECCAK256 SWAP1 PUSH1 0x3 MUL ADD PUSH0 ADD SLOAD SUB PUSH2 0x284 JUMPI PUSH0 DUP2 DUP2 SLOAD DUP2 LT PUSH2 0x1C2 JUMPI PUSH2 0x1C1 PUSH2 0xD6E JUMP JUMPDEST JUMPDEST SWAP1 PUSH0 MSTORE PUSH1 0x20 PUSH0 KECCAK256 SWAP1 PUSH1 0x3 MUL ADD PUSH1 0x40 MLOAD DUP1 PUSH1 0x60 ADD PUSH1 0x40 MSTORE SWAP1 DUP2 PUSH0 DUP3 ADD SLOAD DUP2 MSTORE PUSH1 0x20 ADD PUSH1 0x1 DUP3 ADD DUP1 SLOAD PUSH2 0x1F2 SWAP1 PUSH2 0xAD2 JUMP JUMPDEST DUP1 PUSH1 0x1F ADD PUSH1 0x20 DUP1 SWAP2 DIV MUL PUSH1 0x20 ADD PUSH1 0x40 MLOAD SWAP1 DUP2 ADD PUSH1 0x40 MSTORE DUP1 SWAP3 SWAP2 SWAP1 DUP2 DUP2 MSTORE PUSH1 0x20 ADD DUP3 DUP1 SLOAD PUSH2 0x21E SWAP1 PUSH2 0xAD2 JUMP JUMPDEST DUP1 ISZERO PUSH2 0x269 JUMPI DUP1 PUSH1 0x1F LT PUSH2 0x240 JUMPI PUSH2 0x100 DUP1 DUP4 SLOAD DIV MUL DUP4 MSTORE SWAP2 PUSH1 0x20 ADD SWAP2 PUSH2 0x269 JUMP JUMPDEST DUP3 ADD SWAP2 SWAP1 PUSH0 MSTORE PUSH1 0x20 PUSH0 KECCAK256 SWAP1 JUMPDEST DUP2 SLOAD DUP2 MSTORE SWAP1 PUSH1 0x1 ADD SWAP1 PUSH1 0x20 ADD DUP1 DUP4 GT PUSH2 0x24C JUMPI DUP3 SWAP1 SUB PUSH1 0x1F AND DUP3 ADD SWAP2 JUMPDEST POP POP POP POP POP DUP2 MSTORE PUSH1 0x20 ADD PUSH1 0x2 DUP3 ADD SLOAD DUP2 MSTORE POP POP SWAP2 POP POP PUSH2 0x2CD JUMP JUMPDEST DUP1 DUP1 PUSH1 0x1 ADD SWAP2 POP POP PUSH2 0x17B JUMP JUMPDEST POP PUSH1 0x40 MLOAD PUSH32 0x8C379A000000000000000000000000000000000000000000000000000000000 DUP2 MSTORE PUSH1 0x4 ADD PUSH2 0x2C4 SWAP1 PUSH2 0xDF5 JUMP JUMPDEST PUSH1 0x40 MLOAD DUP1 SWAP2 SUB SWAP1 REVERT JUMPDEST SWAP2 SWAP1 POP JUMP JUMPDEST PUSH2 0x2DA PUSH2 0x635 JUMP JUMPDEST PUSH0 DUP1 PUSH0 DUP2 SLOAD DUP2 LT PUSH2 0x2EE JUMPI PUSH2 0x2ED PUSH2 0xD6E JUMP JUMPDEST JUMPDEST SWAP1 PUSH0 MSTORE PUSH1 0x20 PUSH0 KECCAK256 SWAP1 PUSH1 0x3 MUL ADD PUSH1 0x40 MLOAD DUP1 PUSH1 0x60 ADD PUSH1 0x40 MSTORE SWAP1 DUP2 PUSH0 DUP3 ADD SLOAD DUP2 MSTORE PUSH1 0x20 ADD PUSH1 0x1 DUP3 ADD DUP1 SLOAD PUSH2 0x31E SWAP1 PUSH2 0xAD2 JUMP JUMPDEST DUP1 PUSH1 0x1F ADD PUSH1 0x20 DUP1 SWAP2 DIV MUL PUSH1 0x20 ADD PUSH1 0x40 MLOAD SWAP1 DUP2 ADD PUSH1 0x40 MSTORE DUP1 SWAP3 SWAP2 SWAP1 DUP2 DUP2 MSTORE PUSH1 0x20 ADD DUP3 DUP1 SLOAD PUSH2 0x34A SWAP1 PUSH2 0xAD2 JUMP JUMPDEST DUP1 ISZERO PUSH2 0x395 JUMPI DUP1 PUSH1 0x1F LT PUSH2 0x36C JUMPI PUSH2 0x100 DUP1 DUP4 SLOAD DIV MUL DUP4 MSTORE SWAP2 PUSH1 0x20 ADD SWAP2 PUSH2 0x395 JUMP JUMPDEST DUP3 ADD SWAP2 SWAP1 PUSH0 MSTORE PUSH1 0x20 PUSH0 KECCAK256 SWAP1 JUMPDEST DUP2 SLOAD DUP2 MSTORE SWAP1 PUSH1 0x1 ADD SWAP1 PUSH1 0x20 ADD DUP1 DUP4 GT PUSH2 0x378 JUMPI DUP3 SWAP1 SUB PUSH1 0x1F AND DUP3 ADD SWAP2 JUMPDEST POP POP POP POP POP DUP2 MSTORE PUSH1 0x20 ADD PUSH1 0x2 DUP3 ADD SLOAD DUP2 MSTORE POP POP SWAP1 POP PUSH0 JUMPDEST PUSH0 DUP1 SLOAD SWAP1 POP DUP2 LT ISZERO PUSH2 0x4C3 JUMPI DUP2 PUSH1 0x40 ADD MLOAD PUSH0 DUP3 DUP2 SLOAD DUP2 LT PUSH2 0x3D0 JUMPI PUSH2 0x3CF PUSH2 0xD6E JUMP JUMPDEST JUMPDEST SWAP1 PUSH0 MSTORE PUSH1 0x20 PUSH0 KECCAK256 SWAP1 PUSH1 0x3 MUL ADD PUSH1 0x2 ADD SLOAD LT ISZERO PUSH2 0x4B6 JUMPI PUSH0 DUP2 DUP2 SLOAD DUP2 LT PUSH2 0x3F9 JUMPI PUSH2 0x3F8 PUSH2 0xD6E JUMP JUMPDEST JUMPDEST SWAP1 PUSH0 MSTORE PUSH1 0x20 PUSH0 KECCAK256 SWAP1 PUSH1 0x3 MUL ADD PUSH1 0x40 MLOAD DUP1 PUSH1 0x60 ADD PUSH1 0x40 MSTORE SWAP1 DUP2 PUSH0 DUP3 ADD SLOAD DUP2 MSTORE PUSH1 0x20 ADD PUSH1 0x1 DUP3 ADD DUP1 SLOAD PUSH2 0x429 SWAP1 PUSH2 0xAD2 JUMP JUMPDEST DUP1 PUSH1 0x1F ADD PUSH1 0x20 DUP1 SWAP2 DIV MUL PUSH1 0x20 ADD PUSH1 0x40 MLOAD SWAP1 DUP2 ADD PUSH1 0x40 MSTORE DUP1 SWAP3 SWAP2 SWAP1 DUP2 DUP2 MSTORE PUSH1 0x20 ADD DUP3 DUP1 SLOAD PUSH2 0x455 SWAP1 PUSH2 0xAD2 JUMP JUMPDEST DUP1 ISZERO PUSH2 0x4A0 JUMPI DUP1 PUSH1 0x1F LT PUSH2 0x477 JUMPI PUSH2 0x100 DUP1 DUP4 SLOAD DIV MUL DUP4 MSTORE SWAP2 PUSH1 0x20 ADD SWAP2 PUSH2 0x4A0 JUMP JUMPDEST DUP3 ADD SWAP2 SWAP1 PUSH0 MSTORE PUSH1 0x20 PUSH0 KECCAK256 SWAP1 JUMPDEST DUP2 SLOAD DUP2 MSTORE SWAP1 PUSH1 0x1 ADD SWAP1 PUSH1 0x20 ADD DUP1 DUP4 GT PUSH2 0x483 JUMPI DUP3 SWAP1 SUB PUSH1 0x1F AND DUP3 ADD SWAP2 JUMPDEST POP POP POP POP POP DUP2 MSTORE PUSH1 0x20 ADD PUSH1 0x2 DUP3 ADD SLOAD DUP2 MSTORE POP POP SWAP2 POP JUMPDEST DUP1 DUP1 PUSH1 0x1 ADD SWAP2 POP POP PUSH2 0x3AC JUMP JUMPDEST POP DUP1 SWAP2 POP POP SWAP1 JUMP JUMPDEST PUSH0 DUP1 PUSH0 DUP1 PUSH0 SWAP1 POP JUMPDEST PUSH0 DUP1 SLOAD SWAP1 POP DUP2 LT ISZERO PUSH2 0x51C JUMPI PUSH0 DUP2 DUP2 SLOAD DUP2 LT PUSH2 0x4F2 JUMPI PUSH2 0x4F1 PUSH2 0xD6E JUMP JUMPDEST JUMPDEST SWAP1 PUSH0 MSTORE PUSH1 0x20 PUSH0 KECCAK256 SWAP1 PUSH1 0x3 MUL ADD PUSH1 0x2 ADD SLOAD DUP3 PUSH2 0x50D SWAP2 SWAP1 PUSH2 0xE40 JUMP JUMPDEST SWAP2 POP DUP1 DUP1 PUSH1 0x1 ADD SWAP2 POP POP PUSH2 0x4D3 JUMP JUMPDEST POP DUP1 PUSH0 DUP1 SLOAD SWAP1 POP DUP3 PUSH2 0x52E SWAP2 SWAP1 PUSH2 0xEA0 JUMP JUMPDEST SWAP3 POP SWAP3 POP POP SWAP1 SWAP2 JUMP JUMPDEST PUSH1 0x60 PUSH0 DUP1 SLOAD DUP1 PUSH1 0x20 MUL PUSH1 0x20 ADD PUSH1 0x40 MLOAD SWAP1 DUP2 ADD PUSH1 0x40 MSTORE DUP1 SWAP3 SWAP2 SWAP1 DUP2 DUP2 MSTORE PUSH1 0x20 ADD PUSH0 SWAP1 JUMPDEST DUP3 DUP3 LT ISZERO PUSH2 0x62C JUMPI DUP4 DUP3 SWAP1 PUSH0 MSTORE PUSH1 0x20 PUSH0 KECCAK256 SWAP1 PUSH1 0x3 MUL ADD PUSH1 0x40 MLOAD DUP1 PUSH1 0x60 ADD PUSH1 0x40 MSTORE SWAP1 DUP2 PUSH0 DUP3 ADD SLOAD DUP2 MSTORE PUSH1 0x20 ADD PUSH1 0x1 DUP3 ADD DUP1 SLOAD PUSH2 0x593 SWAP1 PUSH2 0xAD2 JUMP JUMPDEST DUP1 PUSH1 0x1F ADD PUSH1 0x20 DUP1 SWAP2 DIV MUL PUSH1 0x20 ADD PUSH1 0x40 MLOAD SWAP1 DUP2 ADD PUSH1 0x40 MSTORE DUP1 SWAP3 SWAP2 SWAP1 DUP2 DUP2 MSTORE PUSH1 0x20 ADD DUP3 DUP1 SLOAD PUSH2 0x5BF SWAP1 PUSH2 0xAD2 JUMP JUMPDEST DUP1 ISZERO PUSH2 0x60A JUMPI DUP1 PUSH1 0x1F LT PUSH2 0x5E1 JUMPI PUSH2 0x100 DUP1 DUP4 SLOAD DIV MUL DUP4 MSTORE SWAP2 PUSH1 0x20 ADD SWAP2 PUSH2 0x60A JUMP JUMPDEST DUP3 ADD SWAP2 SWAP1 PUSH0 MSTORE PUSH1 0x20 PUSH0 KECCAK256 SWAP1 JUMPDEST DUP2 SLOAD DUP2 MSTORE SWAP1 PUSH1 0x1 ADD SWAP1 PUSH1 0x20 ADD DUP1 DUP4 GT PUSH2 0x5ED JUMPI DUP3 SWAP1 SUB PUSH1 0x1F AND DUP3 ADD SWAP2 JUMPDEST POP POP POP POP POP DUP2 MSTORE PUSH1 0x20 ADD PUSH1 0x2 DUP3 ADD SLOAD DUP2 MSTORE POP POP DUP2 MSTORE PUSH1 0x20 ADD SWAP1 PUSH1 0x1 ADD SWAP1 PUSH2 0x559 JUMP JUMPDEST POP POP POP POP SWAP1 POP SWAP1 JUMP JUMPDEST PUSH1 0x40 MLOAD DUP1 PUSH1 0x60 ADD PUSH1 0x40 MSTORE DUP1 PUSH0 DUP2 MSTORE PUSH1 0x20 ADD PUSH1 0x60 DUP2 MSTORE PUSH1 0x20 ADD PUSH0 DUP2 MSTORE POP SWAP1 JUMP JUMPDEST PUSH0 PUSH1 0x40 MLOAD SWAP1 POP SWAP1 JUMP JUMPDEST PUSH0 DUP1 REVERT JUMPDEST PUSH0 DUP1 REVERT JUMPDEST PUSH0 DUP2 SWAP1 POP SWAP2 SWAP1 POP JUMP JUMPDEST PUSH2 0x677 DUP2 PUSH2 0x665 JUMP JUMPDEST DUP2 EQ PUSH2 0x681 JUMPI PUSH0 DUP1 REVERT JUMPDEST POP JUMP JUMPDEST PUSH0 DUP2 CALLDATALOAD SWAP1 POP PUSH2 0x692 DUP2 PUSH2 0x66E JUMP JUMPDEST SWAP3 SWAP2 POP POP JUMP JUMPDEST PUSH0 DUP1 REVERT JUMPDEST PUSH0 DUP1 REVERT JUMPDEST PUSH0 PUSH1 0x1F NOT PUSH1 0x1F DUP4 ADD AND SWAP1 POP SWAP2 SWAP1 POP JUMP JUMPDEST PUSH32 0x4E487B7100000000000000000000000000000000000000000000000000000000 PUSH0 MSTORE PUSH1 0x41 PUSH1 0x4 MSTORE PUSH1 0x24 PUSH0 REVERT JUMPDEST PUSH2 0x6E6 DUP3 PUSH2 0x6A0 JUMP JUMPDEST DUP2 ADD DUP2 DUP2 LT PUSH8 0xFFFFFFFFFFFFFFFF DUP3 GT OR ISZERO PUSH2 0x705 JUMPI PUSH2 0x704 PUSH2 0x6B0 JUMP JUMPDEST JUMPDEST DUP1 PUSH1 0x40 MSTORE POP POP POP JUMP JUMPDEST PUSH0 PUSH2 0x717 PUSH2 0x654 JUMP JUMPDEST SWAP1 POP PUSH2 0x723 DUP3 DUP3 PUSH2 0x6DD JUMP JUMPDEST SWAP2 SWAP1 POP JUMP JUMPDEST PUSH0 PUSH8 0xFFFFFFFFFFFFFFFF DUP3 GT ISZERO PUSH2 0x742 JUMPI PUSH2 0x741 PUSH2 0x6B0 JUMP JUMPDEST JUMPDEST PUSH2 0x74B DUP3 PUSH2 0x6A0 JUMP JUMPDEST SWAP1 POP PUSH1 0x20 DUP2 ADD SWAP1 POP SWAP2 SWAP1 POP JUMP JUMPDEST DUP3 DUP2 DUP4 CALLDATACOPY PUSH0 DUP4 DUP4 ADD MSTORE POP POP POP JUMP JUMPDEST PUSH0 PUSH2 0x778 PUSH2 0x773 DUP5 PUSH2 0x728 JUMP JUMPDEST PUSH2 0x70E JUMP JUMPDEST SWAP1 POP DUP3 DUP2 MSTORE PUSH1 0x20 DUP2 ADD DUP5 DUP5 DUP5 ADD GT ISZERO PUSH2 0x794 JUMPI PUSH2 0x793 PUSH2 0x69C JUMP JUMPDEST JUMPDEST PUSH2 0x79F DUP5 DUP3 DUP6 PUSH2 0x758 JUMP JUMPDEST POP SWAP4 SWAP3 POP POP POP JUMP JUMPDEST PUSH0 DUP3 PUSH1 0x1F DUP4 ADD SLT PUSH2 0x7BB JUMPI PUSH2 0x7BA PUSH2 0x698 JUMP JUMPDEST JUMPDEST DUP2 CALLDATALOAD PUSH2 0x7CB DUP5 DUP3 PUSH1 0x20 DUP7 ADD PUSH2 0x766 JUMP JUMPDEST SWAP2 POP POP SWAP3 SWAP2 POP POP JUMP JUMPDEST PUSH0 DUP1 PUSH0 PUSH1 0x60 DUP5 DUP7 SUB SLT ISZERO PUSH2 0x7EB JUMPI PUSH2 0x7EA PUSH2 0x65D JUMP JUMPDEST JUMPDEST PUSH0 PUSH2 0x7F8 DUP7 DUP3 DUP8 ADD PUSH2 0x684 JUMP JUMPDEST SWAP4 POP POP PUSH1 0x20 DUP5 ADD CALLDATALOAD PUSH8 0xFFFFFFFFFFFFFFFF DUP2 GT ISZERO PUSH2 0x819 JUMPI PUSH2 0x818 PUSH2 0x661 JUMP JUMPDEST JUMPDEST PUSH2 0x825 DUP7 DUP3 DUP8 ADD PUSH2 0x7A7 JUMP JUMPDEST SWAP3 POP POP PUSH1 0x40 PUSH2 0x836 DUP7 DUP3 DUP8 ADD PUSH2 0x684 JUMP JUMPDEST SWAP2 POP POP SWAP3 POP SWAP3 POP SWAP3 JUMP JUMPDEST PUSH0 PUSH1 0x20 DUP3 DUP5 SUB SLT ISZERO PUSH2 0x855 JUMPI PUSH2 0x854 PUSH2 0x65D JUMP JUMPDEST JUMPDEST PUSH0 PUSH2 0x862 DUP5 DUP3 DUP6 ADD PUSH2 0x684 JUMP JUMPDEST SWAP2 POP POP SWAP3 SWAP2 POP POP JUMP JUMPDEST PUSH2 0x874 DUP2 PUSH2 0x665 JUMP JUMPDEST DUP3 MSTORE POP POP JUMP JUMPDEST PUSH0 DUP2 MLOAD SWAP1 POP SWAP2 SWAP1 POP JUMP JUMPDEST PUSH0 DUP3 DUP3 MSTORE PUSH1 0x20 DUP3 ADD SWAP1 POP SWAP3 SWAP2 POP POP JUMP JUMPDEST DUP3 DUP2 DUP4 MCOPY PUSH0 DUP4 DUP4 ADD MSTORE POP POP POP JUMP JUMPDEST PUSH0 PUSH2 0x8AC DUP3 PUSH2 0x87A JUMP JUMPDEST PUSH2 0x8B6 DUP2 DUP6 PUSH2 0x884 JUMP JUMPDEST SWAP4 POP PUSH2 0x8C6 DUP2 DUP6 PUSH1 0x20 DUP7 ADD PUSH2 0x894 JUMP JUMPDEST PUSH2 0x8CF DUP2 PUSH2 0x6A0 JUMP JUMPDEST DUP5 ADD SWAP2 POP POP SWAP3 SWAP2 POP POP JUMP JUMPDEST PUSH0 PUSH1 0x60 DUP4 ADD PUSH0 DUP4 ADD MLOAD PUSH2 0x8EF PUSH0 DUP7 ADD DUP3 PUSH2 0x86B JUMP JUMPDEST POP PUSH1 0x20 DUP4 ADD MLOAD DUP5 DUP3 SUB PUSH1 0x20 DUP7 ADD MSTORE PUSH2 0x907 DUP3 DUP3 PUSH2 0x8A2 JUMP JUMPDEST SWAP2 POP POP PUSH1 0x40 DUP4 ADD MLOAD PUSH2 0x91C PUSH1 0x40 DUP7 ADD DUP3 PUSH2 0x86B JUMP JUMPDEST POP DUP1 SWAP2 POP POP SWAP3 SWAP2 POP POP JUMP JUMPDEST PUSH0 PUSH1 0x20 DUP3 ADD SWAP1 POP DUP2 DUP2 SUB PUSH0 DUP4 ADD MSTORE PUSH2 0x93F DUP2 DUP5 PUSH2 0x8DA JUMP JUMPDEST SWAP1 POP SWAP3 SWAP2 POP POP JUMP JUMPDEST PUSH2 0x950 DUP2 PUSH2 0x665 JUMP JUMPDEST DUP3 MSTORE POP POP JUMP JUMPDEST PUSH0 PUSH1 0x40 DUP3 ADD SWAP1 POP PUSH2 0x969 PUSH0 DUP4 ADD DUP6 PUSH2 0x947 JUMP JUMPDEST PUSH2 0x976 PUSH1 0x20 DUP4 ADD DUP5 PUSH2 0x947 JUMP JUMPDEST SWAP4 SWAP3 POP POP POP JUMP JUMPDEST PUSH0 DUP2 MLOAD SWAP1 POP SWAP2 SWAP1 POP JUMP JUMPDEST PUSH0 DUP3 DUP3 MSTORE PUSH1 0x20 DUP3 ADD SWAP1 POP SWAP3 SWAP2 POP POP JUMP JUMPDEST PUSH0 DUP2 SWAP1 POP PUSH1 0x20 DUP3 ADD SWAP1 POP SWAP2 SWAP1 POP JUMP JUMPDEST PUSH0 PUSH1 0x60 DUP4 ADD PUSH0 DUP4 ADD MLOAD PUSH2 0x9BB PUSH0 DUP7 ADD DUP3 PUSH2 0x86B JUMP JUMPDEST POP PUSH1 0x20 DUP4 ADD MLOAD DUP5 DUP3 SUB PUSH1 0x20 DUP7 ADD MSTORE PUSH2 0x9D3 DUP3 DUP3 PUSH2 0x8A2 JUMP JUMPDEST SWAP2 POP POP PUSH1 0x40 DUP4 ADD MLOAD PUSH2 0x9E8 PUSH1 0x40 DUP7 ADD DUP3 PUSH2 0x86B JUMP JUMPDEST POP DUP1 SWAP2 POP POP SWAP3 SWAP2 POP POP JUMP JUMPDEST PUSH0 PUSH2 0x9FE DUP4 DUP4 PUSH2 0x9A6 JUMP JUMPDEST SWAP1 POP SWAP3 SWAP2 POP POP JUMP JUMPDEST PUSH0 PUSH1 0x20 DUP3 ADD SWAP1 POP SWAP2 SWAP1 POP JUMP JUMPDEST PUSH0 PUSH2 0xA1C DUP3 PUSH2 0x97D JUMP JUMPDEST PUSH2 0xA26 DUP2 DUP6 PUSH2 0x987 JUMP JUMPDEST SWAP4 POP DUP4 PUSH1 0x20 DUP3 MUL DUP6 ADD PUSH2 0xA38 DUP6 PUSH2 0x997 JUMP JUMPDEST DUP1 PUSH0 JUMPDEST DUP6 DUP2 LT ISZERO PUSH2 0xA73 JUMPI DUP5 DUP5 SUB DUP10 MSTORE DUP2 MLOAD PUSH2 0xA54 DUP6 DUP3 PUSH2 0x9F3 JUMP JUMPDEST SWAP5 POP PUSH2 0xA5F DUP4 PUSH2 0xA06 JUMP JUMPDEST SWAP3 POP PUSH1 0x20 DUP11 ADD SWAP10 POP POP PUSH1 0x1 DUP2 ADD SWAP1 POP PUSH2 0xA3B JUMP JUMPDEST POP DUP3 SWAP8 POP DUP8 SWAP6 POP POP POP POP POP POP SWAP3 SWAP2 POP POP JUMP JUMPDEST PUSH0 PUSH1 0x20 DUP3 ADD SWAP1 POP DUP2 DUP2 SUB PUSH0 DUP4 ADD MSTORE PUSH2 0xA9D DUP2 DUP5 PUSH2 0xA12 JUMP JUMPDEST SWAP1 POP SWAP3 SWAP2 POP POP JUMP JUMPDEST PUSH32 0x4E487B7100000000000000000000000000000000000000000000000000000000 PUSH0 MSTORE PUSH1 0x22 PUSH1 0x4 MSTORE PUSH1 0x24 PUSH0 REVERT JUMPDEST PUSH0 PUSH1 0x2 DUP3 DIV SWAP1 POP PUSH1 0x1 DUP3 AND DUP1 PUSH2 0xAE9 JUMPI PUSH1 0x7F DUP3 AND SWAP2 POP JUMPDEST PUSH1 0x20 DUP3 LT DUP2 SUB PUSH2 0xAFC JUMPI PUSH2 0xAFB PUSH2 0xAA5 JUMP JUMPDEST JUMPDEST POP SWAP2 SWAP1 POP JUMP JUMPDEST PUSH0 DUP2 SWAP1 POP DUP2 PUSH0 MSTORE PUSH1 0x20 PUSH0 KECCAK256 SWAP1 POP SWAP2 SWAP1 POP JUMP JUMPDEST PUSH0 PUSH1 0x20 PUSH1 0x1F DUP4 ADD DIV SWAP1 POP SWAP2 SWAP1 POP JUMP JUMPDEST PUSH0 DUP3 DUP3 SHL SWAP1 POP SWAP3 SWAP2 POP POP JUMP JUMPDEST PUSH0 PUSH1 0x8 DUP4 MUL PUSH2 0xB5E PUSH32 0xFFFFFFFFFFFFFFFFFFFFFFFFFFFFFFFFFFFFFFFFFFFFFFFFFFFFFFFFFFFFFFFF DUP3 PUSH2 0xB23 JUMP JUMPDEST PUSH2 0xB68 DUP7 DUP4 PUSH2 0xB23 JUMP JUMPDEST SWAP6 POP DUP1 NOT DUP5 AND SWAP4 POP DUP1 DUP7 AND DUP5 OR SWAP3 POP POP POP SWAP4 SWAP3 POP POP POP JUMP JUMPDEST PUSH0 DUP2 SWAP1 POP SWAP2 SWAP1 POP JUMP JUMPDEST PUSH0 PUSH2 0xBA3 PUSH2 0xB9E PUSH2 0xB99 DUP5 PUSH2 0x665 JUMP JUMPDEST PUSH2 0xB80 JUMP JUMPDEST PUSH2 0x665 JUMP JUMPDEST SWAP1 POP SWAP2 SWAP1 POP JUMP JUMPDEST PUSH0 DUP2 SWAP1 POP SWAP2 SWAP1 POP JUMP JUMPDEST PUSH2 0xBBC DUP4 PUSH2 0xB89 JUMP JUMPDEST PUSH2 0xBD0 PUSH2 0xBC8 DUP3 PUSH2 0xBAA JUMP JUMPDEST DUP5 DUP5 SLOAD PUSH2 0xB2F JUMP JUMPDEST DUP3 SSTORE POP POP POP POP JUMP JUMPDEST PUSH0 SWAP1 JUMP JUMPDEST PUSH2 0xBE4 PUSH2 0xBD8 JUMP JUMPDEST PUSH2 0xBEF DUP2 DUP5 DUP5 PUSH2 0xBB3 JUMP JUMPDEST POP POP POP JUMP JUMPDEST JUMPDEST DUP2 DUP2 LT ISZERO PUSH2 0xC12 JUMPI PUSH2 0xC07 PUSH0 DUP3 PUSH2 0xBDC JUMP JUMPDEST PUSH1 0x1 DUP2 ADD SWAP1 POP PUSH2 0xBF5 JUMP JUMPDEST POP POP JUMP JUMPDEST PUSH1 0x1F DUP3 GT ISZERO PUSH2 0xC57 JUMPI PUSH2 0xC28 DUP2 PUSH2 0xB02 JUMP JUMPDEST PUSH2 0xC31 DUP5 PUSH2 0xB14 JUMP JUMPDEST DUP2 ADD PUSH1 0x20 DUP6 LT ISZERO PUSH2 0xC40 JUMPI DUP2 SWAP1 POP JUMPDEST PUSH2 0xC54 PUSH2 0xC4C DUP6 PUSH2 0xB14 JUMP JUMPDEST DUP4 ADD DUP3 PUSH2 0xBF4 JUMP JUMPDEST POP POP JUMPDEST POP POP POP JUMP JUMPDEST PUSH0 DUP3 DUP3 SHR SWAP1 POP SWAP3 SWAP2 POP POP JUMP JUMPDEST PUSH0 PUSH2 0xC77 PUSH0 NOT DUP5 PUSH1 0x8 MUL PUSH2 0xC5C JUMP JUMPDEST NOT DUP1 DUP4 AND SWAP2 POP POP SWAP3 SWAP2 POP POP JUMP JUMPDEST PUSH0 PUSH2 0xC8F DUP4 DUP4 PUSH2 0xC68 JUMP JUMPDEST SWAP2 POP DUP3 PUSH1 0x2 MUL DUP3 OR SWAP1 POP SWAP3 SWAP2 POP POP JUMP JUMPDEST PUSH2 0xCA8 DUP3 PUSH2 0x87A JUMP JUMPDEST PUSH8 0xFFFFFFFFFFFFFFFF DUP2 GT ISZERO PUSH2 0xCC1 JUMPI PUSH2 0xCC0 PUSH2 0x6B0 JUMP JUMPDEST JUMPDEST PUSH2 0xCCB DUP3 SLOAD PUSH2 0xAD2 JUMP JUMPDEST PUSH2 0xCD6 DUP3 DUP3 DUP6 PUSH2 0xC16 JUMP JUMPDEST PUSH0 PUSH1 0x20 SWAP1 POP PUSH1 0x1F DUP4 GT PUSH1 0x1 DUP2 EQ PUSH2 0xD07 JUMPI PUSH0 DUP5 ISZERO PUSH2 0xCF5 JUMPI DUP3 DUP8 ADD MLOAD SWAP1 POP JUMPDEST PUSH2 0xCFF DUP6 DUP3 PUSH2 0xC84 JUMP JUMPDEST DUP7 SSTORE POP PUSH2 0xD66 JUMP JUMPDEST PUSH1 0x1F NOT DUP5 AND PUSH2 0xD15 DUP7 PUSH2 0xB02 JUMP JUMPDEST PUSH0 JUMPDEST DUP3 DUP2 LT ISZERO PUSH2 0xD3C JUMPI DUP5 DUP10 ADD MLOAD DUP3 SSTORE PUSH1 0x1 DUP3 ADD SWAP2 POP PUSH1 0x20 DUP6 ADD SWAP5 POP PUSH1 0x20 DUP2 ADD SWAP1 POP PUSH2 0xD17 JUMP JUMPDEST DUP7 DUP4 LT ISZERO PUSH2 0xD59 JUMPI DUP5 DUP10 ADD MLOAD PUSH2 0xD55 PUSH1 0x1F DUP10 AND DUP3 PUSH2 0xC68 JUMP JUMPDEST DUP4 SSTORE POP JUMPDEST PUSH1 0x1 PUSH1 0x2 DUP9 MUL ADD DUP9 SSTORE POP POP POP JUMPDEST POP POP POP POP POP POP JUMP JUMPDEST PUSH32 0x4E487B7100000000000000000000000000000000000000000000000000000000 PUSH0 MSTORE PUSH1 0x32 PUSH1 0x4 MSTORE PUSH1 0x24 PUSH0 REVERT JUMPDEST PUSH0 DUP3 DUP3 MSTORE PUSH1 0x20 DUP3 ADD SWAP1 POP SWAP3 SWAP2 POP POP JUMP JUMPDEST PUSH32 0x53747564656E74204E6F7420466F756E64000000000000000000000000000000 PUSH0 DUP3 ADD MSTORE POP JUMP JUMPDEST PUSH0 PUSH2 0xDDF PUSH1 0x11 DUP4 PUSH2 0xD9B JUMP JUMPDEST SWAP2 POP PUSH2 0xDEA DUP3 PUSH2 0xDAB JUMP JUMPDEST PUSH1 0x20 DUP3 ADD SWAP1 POP SWAP2 SWAP1 POP JUMP JUMPDEST PUSH0 PUSH1 0x20 DUP3 ADD SWAP1 POP DUP2 DUP2 SUB PUSH0 DUP4 ADD MSTORE PUSH2 0xE0C DUP2 PUSH2 0xDD3 JUMP JUMPDEST SWAP1 POP SWAP2 SWAP1 POP JUMP JUMPDEST PUSH32 0x4E487B7100000000000000000000000000000000000000000000000000000000 PUSH0 MSTORE PUSH1 0x11 PUSH1 0x4 MSTORE PUSH1 0x24 PUSH0 REVERT JUMPDEST PUSH0 PUSH2 0xE4A DUP3 PUSH2 0x665 JUMP JUMPDEST SWAP2 POP PUSH2 0xE55 DUP4 PUSH2 0x665 JUMP JUMPDEST SWAP3 POP DUP3 DUP3 ADD SWAP1 POP DUP1 DUP3 GT ISZERO PUSH2 0xE6D JUMPI PUSH2 0xE6C PUSH2 0xE13 JUMP JUMPDEST JUMPDEST SWAP3 SWAP2 POP POP JUMP JUMPDEST PUSH32 0x4E487B7100000000000000000000000000000000000000000000000000000000 PUSH0 MSTORE PUSH1 0x12 PUSH1 0x4 MSTORE PUSH1 0x24 PUSH0 REVERT JUMPDEST PUSH0 PUSH2 0xEAA DUP3 PUSH2 0x665 JUMP JUMPDEST SWAP2 POP PUSH2 0xEB5 DUP4 PUSH2 0x665 JUMP JUMPDEST SWAP3 POP DUP3 PUSH2 0xEC5 JUMPI PUSH2 0xEC4 PUSH2 0xE73 JUMP JUMPDEST JUMPDEST DUP3 DUP3 DIV SWAP1 POP SWAP3 SWAP2 POP POP JUMP INVALID LOG2 PUSH5 0x6970667358 0x22 SLT KECCAK256 DUP15 0x26 0xDB 0xB5 0xE7 JUMPDEST JUMPDEST 0xB8 PUSH8 0x991C0CDC2A1B74A8 0xE3 0xE 0xCC 0x2D 0xD 0xFC SGT PUSH20 0x371575556498D764736F6C634300081A00330000 "
				},
				"gasEstimates": {
					"creation": {
						"codeDepositCost": "769200",
						"executionCost": "803",
						"totalCost": "770003"
					},
					"external": {
						"getAllStudents()": "infinite",
						"getStudent(uint256)": "infinite",
						"lowestScore()": "infinite",
						"pushStudent(uint256,string,uint256)": "infinite",
						"totalScore()": "infinite"
					}
				},
				"methodIdentifiers": {
					"getAllStudents()": "e9e30927",
					"getStudent(uint256)": "642f9163",
					"lowestScore()": "a0b26a7d",
					"pushStudent(uint256,string,uint256)": "3b4598b1",
					"totalScore()": "c006719f"
				}
			},
			"storageLayout": {
				"storage": [
					{
						"astId": 12,
						"contract": "Code Test/CodeTest_2.sol:TEST2",
						"label": "students",
						"offset": 0,
						"slot": "0",
						"type": "t_array(t_struct(student)8_storage)dyn_storage"
					}
				],
				"types": {
					"t_array(t_struct(student)8_storage)dyn_storage": {
						"base": "t_struct(student)8_storage",
						"encoding": "dynamic_array",
						"label": "struct TEST2.student[]",
						"numberOfBytes": "32"
					},
					"t_string_storage": {
						"encoding": "bytes",
						"label": "string",
						"numberOfBytes": "32"
					},
					"t_struct(student)8_storage": {
						"encoding": "inplace",
						"label": "struct TEST2.student",
						"members": [
							{
								"astId": 3,
								"contract": "Code Test/CodeTest_2.sol:TEST2",
								"label": "number",
								"offset": 0,
								"slot": "0",
								"type": "t_uint256"
							},
							{
								"astId": 5,
								"contract": "Code Test/CodeTest_2.sol:TEST2",
								"label": "name",
								"offset": 0,
								"slot": "1",
								"type": "t_string_storage"
							},
							{
								"astId": 7,
								"contract": "Code Test/CodeTest_2.sol:TEST2",
								"label": "score",
								"offset": 0,
								"slot": "2",
								"type": "t_uint256"
							}
						],
						"numberOfBytes": "96"
					},
					"t_uint256": {
						"encoding": "inplace",
						"label": "uint256",
						"numberOfBytes": "32"
					}
				}
			},
			"userdoc": {
				"kind": "user",
				"methods": {},
				"version": 1
			}
		}
	}
}