{
	"Code Test/CodeTest_9.sol": {
		"Test9": {
			"abi": [
				{
					"inputs": [
						{
							"internalType": "string",
							"name": "_pw",
							"type": "string"
						}
					],
					"name": "checkPassword",
					"outputs": [
						{
							"internalType": "bool",
							"name": "",
							"type": "bool"
						}
					],
					"stateMutability": "pure",
					"type": "function"
				},
				{
					"inputs": [
						{
							"internalType": "string",
							"name": "_pw",
							"type": "string"
						}
					],
					"name": "checkPassword2",
					"outputs": [
						{
							"internalType": "uint256",
							"name": "",
							"type": "uint256"
						}
					],
					"stateMutability": "pure",
					"type": "function"
				}
			],
			"devdoc": {
				"kind": "dev",
				"methods": {},
				"version": 1
			},
			"evm": {
				"assembly": "    /* \"Code Test/CodeTest_9.sol\":58:1830  contract Test9 {... */\n  mstore(0x40, 0x80)\n  callvalue\n  dup1\n  iszero\n  tag_1\n  jumpi\n  0x00\n  dup1\n  revert\ntag_1:\n  pop\n  dataSize(sub_0)\n  dup1\n  dataOffset(sub_0)\n  0x00\n  codecopy\n  0x00\n  return\nstop\n\nsub_0: assembly {\n        /* \"Code Test/CodeTest_9.sol\":58:1830  contract Test9 {... */\n      mstore(0x40, 0x80)\n      callvalue\n      dup1\n      iszero\n      tag_1\n      jumpi\n      0x00\n      dup1\n      revert\n    tag_1:\n      pop\n      jumpi(tag_2, lt(calldatasize, 0x04))\n      shr(0xe0, calldataload(0x00))\n      dup1\n      0x5e3f0071\n      eq\n      tag_3\n      jumpi\n      dup1\n      0x87e16d4d\n      eq\n      tag_4\n      jumpi\n    tag_2:\n      0x00\n      dup1\n      revert\n        /* \"Code Test/CodeTest_9.sol\":1200:1828  function checkPassword2(string memory _pw) public pure returns(uint) {... */\n    tag_3:\n      tag_5\n      0x04\n      dup1\n      calldatasize\n      sub\n      dup2\n      add\n      swap1\n      tag_6\n      swap2\n      swap1\n      tag_7\n      jump\t// in\n    tag_6:\n      tag_8\n      jump\t// in\n    tag_5:\n      mload(0x40)\n      tag_9\n      swap2\n      swap1\n      tag_10\n      jump\t// in\n    tag_9:\n      mload(0x40)\n      dup1\n      swap2\n      sub\n      swap1\n      return\n        /* \"Code Test/CodeTest_9.sol\":488:1194  function checkPassword(string memory _pw) public pure returns(bool) {... */\n    tag_4:\n      tag_11\n      0x04\n      dup1\n      calldatasize\n      sub\n      dup2\n      add\n      swap1\n      tag_12\n      swap2\n      swap1\n      tag_7\n      jump\t// in\n    tag_12:\n      tag_13\n      jump\t// in\n    tag_11:\n      mload(0x40)\n      tag_14\n      swap2\n      swap1\n      tag_15\n      jump\t// in\n    tag_14:\n      mload(0x40)\n      dup1\n      swap2\n      sub\n      swap1\n      return\n        /* \"Code Test/CodeTest_9.sol\":1200:1828  function checkPassword2(string memory _pw) public pure returns(uint) {... */\n    tag_8:\n        /* \"Code Test/CodeTest_9.sol\":1263:1267  uint */\n      0x00\n        /* \"Code Test/CodeTest_9.sol\":1279:1288  uint sign */\n      dup1\n        /* \"Code Test/CodeTest_9.sol\":1378:1384  uint i */\n      0x00\n        /* \"Code Test/CodeTest_9.sol\":1374:1801  for(uint i=0; i<bytes(_pw).length;i++){... */\n    tag_17:\n        /* \"Code Test/CodeTest_9.sol\":1396:1399  _pw */\n      dup4\n        /* \"Code Test/CodeTest_9.sol\":1390:1407  bytes(_pw).length */\n      mload\n        /* \"Code Test/CodeTest_9.sol\":1388:1389  i */\n      dup2\n        /* \"Code Test/CodeTest_9.sol\":1388:1407  i<bytes(_pw).length */\n      lt\n        /* \"Code Test/CodeTest_9.sol\":1374:1801  for(uint i=0; i<bytes(_pw).length;i++){... */\n      iszero\n      tag_18\n      jumpi\n        /* \"Code Test/CodeTest_9.sol\":1426:1441  bytes1 _pwByte1 */\n      0x00\n        /* \"Code Test/CodeTest_9.sol\":1450:1453  _pw */\n      dup5\n        /* \"Code Test/CodeTest_9.sol\":1455:1456  i */\n      dup3\n        /* \"Code Test/CodeTest_9.sol\":1444:1457  bytes(_pw)[i] */\n      dup2\n      mload\n      dup2\n      lt\n      tag_20\n      jumpi\n      tag_21\n      tag_22\n      jump\t// in\n    tag_21:\n    tag_20:\n      0x20\n      add\n      add\n      mload\n      0xf8\n      shr\n      0xf8\n      shl\n        /* \"Code Test/CodeTest_9.sol\":1426:1457  bytes1 _pwByte1 = bytes(_pw)[i] */\n      swap1\n      pop\n        /* \"Code Test/CodeTest_9.sol\":1500:1504  0+48 */\n      0x30\n        /* \"Code Test/CodeTest_9.sol\":1487:1506  bytes1(uint8(0+48)) */\n      0xf8\n      shl\n        /* \"Code Test/CodeTest_9.sol\":1475:1506  _pwByte1 >= bytes1(uint8(0+48)) */\n      not(0xffffffffffffffffffffffffffffffffffffffffffffffffffffffffffffff)\n      and\n        /* \"Code Test/CodeTest_9.sol\":1475:1483  _pwByte1 */\n      dup2\n        /* \"Code Test/CodeTest_9.sol\":1475:1506  _pwByte1 >= bytes1(uint8(0+48)) */\n      not(0xffffffffffffffffffffffffffffffffffffffffffffffffffffffffffffff)\n      and\n      lt\n      iszero\n        /* \"Code Test/CodeTest_9.sol\":1475:1541  _pwByte1 >= bytes1(uint8(0+48)) && _pwByte1 <= bytes1(uint8(9+48)) */\n      dup1\n      iszero\n      tag_23\n      jumpi\n      pop\n        /* \"Code Test/CodeTest_9.sol\":1535:1539  9+48 */\n      0x39\n        /* \"Code Test/CodeTest_9.sol\":1522:1541  bytes1(uint8(9+48)) */\n      0xf8\n      shl\n        /* \"Code Test/CodeTest_9.sol\":1510:1541  _pwByte1 <= bytes1(uint8(9+48)) */\n      not(0xffffffffffffffffffffffffffffffffffffffffffffffffffffffffffffff)\n      and\n        /* \"Code Test/CodeTest_9.sol\":1510:1518  _pwByte1 */\n      dup2\n        /* \"Code Test/CodeTest_9.sol\":1510:1541  _pwByte1 <= bytes1(uint8(9+48)) */\n      not(0xffffffffffffffffffffffffffffffffffffffffffffffffffffffffffffff)\n      and\n      gt\n      iszero\n        /* \"Code Test/CodeTest_9.sol\":1475:1541  _pwByte1 >= bytes1(uint8(0+48)) && _pwByte1 <= bytes1(uint8(9+48)) */\n    tag_23:\n        /* \"Code Test/CodeTest_9.sol\":1472:1791  if(_pwByte1 >= bytes1(uint8(0+48)) && _pwByte1 <= bytes1(uint8(9+48))) {... */\n      iszero\n      tag_24\n      jumpi\n        /* \"Code Test/CodeTest_9.sol\":1569:1570  1 */\n      0x01\n        /* \"Code Test/CodeTest_9.sol\":1561:1570  sign |= 1 */\n      dup4\n      or\n      swap3\n      pop\n        /* \"Code Test/CodeTest_9.sol\":1472:1791  if(_pwByte1 >= bytes1(uint8(0+48)) && _pwByte1 <= bytes1(uint8(9+48))) {... */\n      jump(tag_25)\n    tag_24:\n        /* \"Code Test/CodeTest_9.sol\":1606:1617  bytes1(\"A\") */\n      0x4100000000000000000000000000000000000000000000000000000000000000\n        /* \"Code Test/CodeTest_9.sol\":1594:1617  _pwByte1 >= bytes1(\"A\") */\n      not(0xffffffffffffffffffffffffffffffffffffffffffffffffffffffffffffff)\n      and\n        /* \"Code Test/CodeTest_9.sol\":1594:1602  _pwByte1 */\n      dup2\n        /* \"Code Test/CodeTest_9.sol\":1594:1617  _pwByte1 >= bytes1(\"A\") */\n      not(0xffffffffffffffffffffffffffffffffffffffffffffffffffffffffffffff)\n      and\n      lt\n      iszero\n        /* \"Code Test/CodeTest_9.sol\":1594:1644  _pwByte1 >= bytes1(\"A\") && _pwByte1 <= bytes1(\"Z\") */\n      dup1\n      iszero\n      tag_26\n      jumpi\n      pop\n        /* \"Code Test/CodeTest_9.sol\":1633:1644  bytes1(\"Z\") */\n      0x5a00000000000000000000000000000000000000000000000000000000000000\n        /* \"Code Test/CodeTest_9.sol\":1621:1644  _pwByte1 <= bytes1(\"Z\") */\n      not(0xffffffffffffffffffffffffffffffffffffffffffffffffffffffffffffff)\n      and\n        /* \"Code Test/CodeTest_9.sol\":1621:1629  _pwByte1 */\n      dup2\n        /* \"Code Test/CodeTest_9.sol\":1621:1644  _pwByte1 <= bytes1(\"Z\") */\n      not(0xffffffffffffffffffffffffffffffffffffffffffffffffffffffffffffff)\n      and\n      gt\n      iszero\n        /* \"Code Test/CodeTest_9.sol\":1594:1644  _pwByte1 >= bytes1(\"A\") && _pwByte1 <= bytes1(\"Z\") */\n    tag_26:\n        /* \"Code Test/CodeTest_9.sol\":1591:1791  if(_pwByte1 >= bytes1(\"A\") && _pwByte1 <= bytes1(\"Z\")) {... */\n      iszero\n      tag_27\n      jumpi\n        /* \"Code Test/CodeTest_9.sol\":1672:1673  2 */\n      0x02\n        /* \"Code Test/CodeTest_9.sol\":1664:1673  sign |= 2 */\n      dup4\n      or\n      swap3\n      pop\n        /* \"Code Test/CodeTest_9.sol\":1591:1791  if(_pwByte1 >= bytes1(\"A\") && _pwByte1 <= bytes1(\"Z\")) {... */\n      jump(tag_28)\n    tag_27:\n        /* \"Code Test/CodeTest_9.sol\":1709:1720  bytes1(\"a\") */\n      0x6100000000000000000000000000000000000000000000000000000000000000\n        /* \"Code Test/CodeTest_9.sol\":1697:1720  _pwByte1 >= bytes1(\"a\") */\n      not(0xffffffffffffffffffffffffffffffffffffffffffffffffffffffffffffff)\n      and\n        /* \"Code Test/CodeTest_9.sol\":1697:1705  _pwByte1 */\n      dup2\n        /* \"Code Test/CodeTest_9.sol\":1697:1720  _pwByte1 >= bytes1(\"a\") */\n      not(0xffffffffffffffffffffffffffffffffffffffffffffffffffffffffffffff)\n      and\n      lt\n      iszero\n        /* \"Code Test/CodeTest_9.sol\":1697:1747  _pwByte1 >= bytes1(\"a\") && _pwByte1 <= bytes1(\"z\") */\n      dup1\n      iszero\n      tag_29\n      jumpi\n      pop\n        /* \"Code Test/CodeTest_9.sol\":1736:1747  bytes1(\"z\") */\n      0x7a00000000000000000000000000000000000000000000000000000000000000\n        /* \"Code Test/CodeTest_9.sol\":1724:1747  _pwByte1 <= bytes1(\"z\") */\n      not(0xffffffffffffffffffffffffffffffffffffffffffffffffffffffffffffff)\n      and\n        /* \"Code Test/CodeTest_9.sol\":1724:1732  _pwByte1 */\n      dup2\n        /* \"Code Test/CodeTest_9.sol\":1724:1747  _pwByte1 <= bytes1(\"z\") */\n      not(0xffffffffffffffffffffffffffffffffffffffffffffffffffffffffffffff)\n      and\n      gt\n      iszero\n        /* \"Code Test/CodeTest_9.sol\":1697:1747  _pwByte1 >= bytes1(\"a\") && _pwByte1 <= bytes1(\"z\") */\n    tag_29:\n        /* \"Code Test/CodeTest_9.sol\":1694:1791  if(_pwByte1 >= bytes1(\"a\") && _pwByte1 <= bytes1(\"z\")) {... */\n      iszero\n      tag_30\n      jumpi\n        /* \"Code Test/CodeTest_9.sol\":1775:1776  4 */\n      0x04\n        /* \"Code Test/CodeTest_9.sol\":1767:1776  sign |= 4 */\n      dup4\n      or\n      swap3\n      pop\n        /* \"Code Test/CodeTest_9.sol\":1694:1791  if(_pwByte1 >= bytes1(\"a\") && _pwByte1 <= bytes1(\"z\")) {... */\n    tag_30:\n        /* \"Code Test/CodeTest_9.sol\":1591:1791  if(_pwByte1 >= bytes1(\"A\") && _pwByte1 <= bytes1(\"Z\")) {... */\n    tag_28:\n        /* \"Code Test/CodeTest_9.sol\":1472:1791  if(_pwByte1 >= bytes1(uint8(0+48)) && _pwByte1 <= bytes1(uint8(9+48))) {... */\n    tag_25:\n        /* \"Code Test/CodeTest_9.sol\":1412:1801  {... */\n      pop\n        /* \"Code Test/CodeTest_9.sol\":1408:1411  i++ */\n      dup1\n      dup1\n      0x01\n      add\n      swap2\n      pop\n      pop\n        /* \"Code Test/CodeTest_9.sol\":1374:1801  for(uint i=0; i<bytes(_pw).length;i++){... */\n      jump(tag_17)\n    tag_18:\n      pop\n        /* \"Code Test/CodeTest_9.sol\":1817:1821  sign */\n      dup1\n        /* \"Code Test/CodeTest_9.sol\":1810:1821  return sign */\n      swap2\n      pop\n      pop\n        /* \"Code Test/CodeTest_9.sol\":1200:1828  function checkPassword2(string memory _pw) public pure returns(uint) {... */\n      swap2\n      swap1\n      pop\n      jump\t// out\n        /* \"Code Test/CodeTest_9.sol\":488:1194  function checkPassword(string memory _pw) public pure returns(bool) {... */\n    tag_13:\n        /* \"Code Test/CodeTest_9.sol\":550:554  bool */\n      0x00\n        /* \"Code Test/CodeTest_9.sol\":566:580  bool hasNumber */\n      dup1\n        /* \"Code Test/CodeTest_9.sol\":583:588  false */\n      0x00\n        /* \"Code Test/CodeTest_9.sol\":566:588  bool hasNumber = false */\n      swap1\n      pop\n        /* \"Code Test/CodeTest_9.sol\":598:611  bool hasUpper */\n      0x00\n        /* \"Code Test/CodeTest_9.sol\":629:642  bool hasLower */\n      dup1\n        /* \"Code Test/CodeTest_9.sol\":660:681  bytes memory _pwBytes */\n      0x00\n        /* \"Code Test/CodeTest_9.sol\":690:693  _pw */\n      dup6\n        /* \"Code Test/CodeTest_9.sol\":660:694  bytes memory _pwBytes = bytes(_pw) */\n      swap1\n      pop\n        /* \"Code Test/CodeTest_9.sol\":784:790  uint i */\n      0x00\n        /* \"Code Test/CodeTest_9.sol\":780:1138  for(uint i=0; i<_pwBytes.length;i++){... */\n    tag_32:\n        /* \"Code Test/CodeTest_9.sol\":796:804  _pwBytes */\n      dup2\n        /* \"Code Test/CodeTest_9.sol\":796:811  _pwBytes.length */\n      mload\n        /* \"Code Test/CodeTest_9.sol\":794:795  i */\n      dup2\n        /* \"Code Test/CodeTest_9.sol\":794:811  i<_pwBytes.length */\n      lt\n        /* \"Code Test/CodeTest_9.sol\":780:1138  for(uint i=0; i<_pwBytes.length;i++){... */\n      iszero\n      tag_33\n      jumpi\n        /* \"Code Test/CodeTest_9.sol\":848:852  0x30 */\n      0x30\n        /* \"Code Test/CodeTest_9.sol\":833:852  _pwBytes[i] >= 0x30 */\n      0xf8\n      shl\n        /* \"Code Test/CodeTest_9.sol\":833:841  _pwBytes */\n      dup3\n        /* \"Code Test/CodeTest_9.sol\":842:843  i */\n      dup3\n        /* \"Code Test/CodeTest_9.sol\":833:844  _pwBytes[i] */\n      dup2\n      mload\n      dup2\n      lt\n      tag_35\n      jumpi\n      tag_36\n      tag_22\n      jump\t// in\n    tag_36:\n    tag_35:\n      0x20\n      add\n      add\n      mload\n      0xf8\n      shr\n      0xf8\n      shl\n        /* \"Code Test/CodeTest_9.sol\":833:852  _pwBytes[i] >= 0x30 */\n      not(0xffffffffffffffffffffffffffffffffffffffffffffffffffffffffffffff)\n      and\n      lt\n      iszero\n        /* \"Code Test/CodeTest_9.sol\":833:875  _pwBytes[i] >= 0x30 && _pwBytes[i] <= 0x39 */\n      dup1\n      iszero\n      tag_37\n      jumpi\n      pop\n        /* \"Code Test/CodeTest_9.sol\":871:875  0x39 */\n      0x39\n        /* \"Code Test/CodeTest_9.sol\":856:875  _pwBytes[i] <= 0x39 */\n      0xf8\n      shl\n        /* \"Code Test/CodeTest_9.sol\":856:864  _pwBytes */\n      dup3\n        /* \"Code Test/CodeTest_9.sol\":865:866  i */\n      dup3\n        /* \"Code Test/CodeTest_9.sol\":856:867  _pwBytes[i] */\n      dup2\n      mload\n      dup2\n      lt\n      tag_38\n      jumpi\n      tag_39\n      tag_22\n      jump\t// in\n    tag_39:\n    tag_38:\n      0x20\n      add\n      add\n      mload\n      0xf8\n      shr\n      0xf8\n      shl\n        /* \"Code Test/CodeTest_9.sol\":856:875  _pwBytes[i] <= 0x39 */\n      not(0xffffffffffffffffffffffffffffffffffffffffffffffffffffffffffffff)\n      and\n      gt\n      iszero\n        /* \"Code Test/CodeTest_9.sol\":833:875  _pwBytes[i] >= 0x30 && _pwBytes[i] <= 0x39 */\n    tag_37:\n        /* \"Code Test/CodeTest_9.sol\":830:1128  if(_pwBytes[i] >= 0x30 && _pwBytes[i] <= 0x39) {... */\n      iszero\n      tag_40\n      jumpi\n        /* \"Code Test/CodeTest_9.sol\":907:911  true */\n      0x01\n        /* \"Code Test/CodeTest_9.sol\":895:911  hasNumber = true */\n      swap5\n      pop\n        /* \"Code Test/CodeTest_9.sol\":830:1128  if(_pwBytes[i] >= 0x30 && _pwBytes[i] <= 0x39) {... */\n      jump(tag_41)\n    tag_40:\n        /* \"Code Test/CodeTest_9.sol\":950:954  0x41 */\n      0x41\n        /* \"Code Test/CodeTest_9.sol\":935:954  _pwBytes[i] >= 0x41 */\n      0xf8\n      shl\n        /* \"Code Test/CodeTest_9.sol\":935:943  _pwBytes */\n      dup3\n        /* \"Code Test/CodeTest_9.sol\":944:945  i */\n      dup3\n        /* \"Code Test/CodeTest_9.sol\":935:946  _pwBytes[i] */\n      dup2\n      mload\n      dup2\n      lt\n      tag_42\n      jumpi\n      tag_43\n      tag_22\n      jump\t// in\n    tag_43:\n    tag_42:\n      0x20\n      add\n      add\n      mload\n      0xf8\n      shr\n      0xf8\n      shl\n        /* \"Code Test/CodeTest_9.sol\":935:954  _pwBytes[i] >= 0x41 */\n      not(0xffffffffffffffffffffffffffffffffffffffffffffffffffffffffffffff)\n      and\n      lt\n      iszero\n        /* \"Code Test/CodeTest_9.sol\":935:977  _pwBytes[i] >= 0x41 && _pwBytes[i] <= 0x5A */\n      dup1\n      iszero\n      tag_44\n      jumpi\n      pop\n        /* \"Code Test/CodeTest_9.sol\":973:977  0x5A */\n      0x5a\n        /* \"Code Test/CodeTest_9.sol\":958:977  _pwBytes[i] <= 0x5A */\n      0xf8\n      shl\n        /* \"Code Test/CodeTest_9.sol\":958:966  _pwBytes */\n      dup3\n        /* \"Code Test/CodeTest_9.sol\":967:968  i */\n      dup3\n        /* \"Code Test/CodeTest_9.sol\":958:969  _pwBytes[i] */\n      dup2\n      mload\n      dup2\n      lt\n      tag_45\n      jumpi\n      tag_46\n      tag_22\n      jump\t// in\n    tag_46:\n    tag_45:\n      0x20\n      add\n      add\n      mload\n      0xf8\n      shr\n      0xf8\n      shl\n        /* \"Code Test/CodeTest_9.sol\":958:977  _pwBytes[i] <= 0x5A */\n      not(0xffffffffffffffffffffffffffffffffffffffffffffffffffffffffffffff)\n      and\n      gt\n      iszero\n        /* \"Code Test/CodeTest_9.sol\":935:977  _pwBytes[i] >= 0x41 && _pwBytes[i] <= 0x5A */\n    tag_44:\n        /* \"Code Test/CodeTest_9.sol\":932:1128  if(_pwBytes[i] >= 0x41 && _pwBytes[i] <= 0x5A) {... */\n      iszero\n      tag_47\n      jumpi\n        /* \"Code Test/CodeTest_9.sol\":1008:1012  true */\n      0x01\n        /* \"Code Test/CodeTest_9.sol\":997:1012  hasUpper = true */\n      swap4\n      pop\n        /* \"Code Test/CodeTest_9.sol\":932:1128  if(_pwBytes[i] >= 0x41 && _pwBytes[i] <= 0x5A) {... */\n      jump(tag_48)\n    tag_47:\n        /* \"Code Test/CodeTest_9.sol\":1051:1055  0x61 */\n      0x61\n        /* \"Code Test/CodeTest_9.sol\":1036:1055  _pwBytes[i] >= 0x61 */\n      0xf8\n      shl\n        /* \"Code Test/CodeTest_9.sol\":1036:1044  _pwBytes */\n      dup3\n        /* \"Code Test/CodeTest_9.sol\":1045:1046  i */\n      dup3\n        /* \"Code Test/CodeTest_9.sol\":1036:1047  _pwBytes[i] */\n      dup2\n      mload\n      dup2\n      lt\n      tag_49\n      jumpi\n      tag_50\n      tag_22\n      jump\t// in\n    tag_50:\n    tag_49:\n      0x20\n      add\n      add\n      mload\n      0xf8\n      shr\n      0xf8\n      shl\n        /* \"Code Test/CodeTest_9.sol\":1036:1055  _pwBytes[i] >= 0x61 */\n      not(0xffffffffffffffffffffffffffffffffffffffffffffffffffffffffffffff)\n      and\n      lt\n      iszero\n        /* \"Code Test/CodeTest_9.sol\":1036:1078  _pwBytes[i] >= 0x61 && _pwBytes[i] <= 0x7A */\n      dup1\n      iszero\n      tag_51\n      jumpi\n      pop\n        /* \"Code Test/CodeTest_9.sol\":1074:1078  0x7A */\n      0x7a\n        /* \"Code Test/CodeTest_9.sol\":1059:1078  _pwBytes[i] <= 0x7A */\n      0xf8\n      shl\n        /* \"Code Test/CodeTest_9.sol\":1059:1067  _pwBytes */\n      dup3\n        /* \"Code Test/CodeTest_9.sol\":1068:1069  i */\n      dup3\n        /* \"Code Test/CodeTest_9.sol\":1059:1070  _pwBytes[i] */\n      dup2\n      mload\n      dup2\n      lt\n      tag_52\n      jumpi\n      tag_53\n      tag_22\n      jump\t// in\n    tag_53:\n    tag_52:\n      0x20\n      add\n      add\n      mload\n      0xf8\n      shr\n      0xf8\n      shl\n        /* \"Code Test/CodeTest_9.sol\":1059:1078  _pwBytes[i] <= 0x7A */\n      not(0xffffffffffffffffffffffffffffffffffffffffffffffffffffffffffffff)\n      and\n      gt\n      iszero\n        /* \"Code Test/CodeTest_9.sol\":1036:1078  _pwBytes[i] >= 0x61 && _pwBytes[i] <= 0x7A */\n    tag_51:\n        /* \"Code Test/CodeTest_9.sol\":1033:1128  if(_pwBytes[i] >= 0x61 && _pwBytes[i] <= 0x7A) {... */\n      iszero\n      tag_54\n      jumpi\n        /* \"Code Test/CodeTest_9.sol\":1109:1113  true */\n      0x01\n        /* \"Code Test/CodeTest_9.sol\":1098:1113  hasLower = true */\n      swap3\n      pop\n        /* \"Code Test/CodeTest_9.sol\":1033:1128  if(_pwBytes[i] >= 0x61 && _pwBytes[i] <= 0x7A) {... */\n    tag_54:\n        /* \"Code Test/CodeTest_9.sol\":932:1128  if(_pwBytes[i] >= 0x41 && _pwBytes[i] <= 0x5A) {... */\n    tag_48:\n        /* \"Code Test/CodeTest_9.sol\":830:1128  if(_pwBytes[i] >= 0x30 && _pwBytes[i] <= 0x39) {... */\n    tag_41:\n        /* \"Code Test/CodeTest_9.sol\":812:815  i++ */\n      dup1\n      dup1\n      0x01\n      add\n      swap2\n      pop\n      pop\n        /* \"Code Test/CodeTest_9.sol\":780:1138  for(uint i=0; i<_pwBytes.length;i++){... */\n      jump(tag_32)\n    tag_33:\n      pop\n        /* \"Code Test/CodeTest_9.sol\":1154:1163  hasNumber */\n      dup4\n        /* \"Code Test/CodeTest_9.sol\":1154:1175  hasNumber && hasUpper */\n      dup1\n      iszero\n      tag_55\n      jumpi\n      pop\n        /* \"Code Test/CodeTest_9.sol\":1167:1175  hasUpper */\n      dup3\n        /* \"Code Test/CodeTest_9.sol\":1154:1175  hasNumber && hasUpper */\n    tag_55:\n        /* \"Code Test/CodeTest_9.sol\":1154:1187  hasNumber && hasUpper && hasLower */\n      dup1\n      iszero\n      tag_56\n      jumpi\n      pop\n        /* \"Code Test/CodeTest_9.sol\":1179:1187  hasLower */\n      dup2\n        /* \"Code Test/CodeTest_9.sol\":1154:1187  hasNumber && hasUpper && hasLower */\n    tag_56:\n        /* \"Code Test/CodeTest_9.sol\":1147:1187  return hasNumber && hasUpper && hasLower */\n      swap5\n      pop\n      pop\n      pop\n      pop\n      pop\n        /* \"Code Test/CodeTest_9.sol\":488:1194  function checkPassword(string memory _pw) public pure returns(bool) {... */\n      swap2\n      swap1\n      pop\n      jump\t// out\n        /* \"#utility.yul\":7:82   */\n    tag_57:\n        /* \"#utility.yul\":40:46   */\n      0x00\n        /* \"#utility.yul\":73:75   */\n      0x40\n        /* \"#utility.yul\":67:76   */\n      mload\n        /* \"#utility.yul\":57:76   */\n      swap1\n      pop\n        /* \"#utility.yul\":7:82   */\n      swap1\n      jump\t// out\n        /* \"#utility.yul\":88:205   */\n    tag_58:\n        /* \"#utility.yul\":197:198   */\n      0x00\n        /* \"#utility.yul\":194:195   */\n      dup1\n        /* \"#utility.yul\":187:199   */\n      revert\n        /* \"#utility.yul\":211:328   */\n    tag_59:\n        /* \"#utility.yul\":320:321   */\n      0x00\n        /* \"#utility.yul\":317:318   */\n      dup1\n        /* \"#utility.yul\":310:322   */\n      revert\n        /* \"#utility.yul\":334:451   */\n    tag_60:\n        /* \"#utility.yul\":443:444   */\n      0x00\n        /* \"#utility.yul\":440:441   */\n      dup1\n        /* \"#utility.yul\":433:445   */\n      revert\n        /* \"#utility.yul\":457:574   */\n    tag_61:\n        /* \"#utility.yul\":566:567   */\n      0x00\n        /* \"#utility.yul\":563:564   */\n      dup1\n        /* \"#utility.yul\":556:568   */\n      revert\n        /* \"#utility.yul\":580:682   */\n    tag_62:\n        /* \"#utility.yul\":621:627   */\n      0x00\n        /* \"#utility.yul\":672:674   */\n      0x1f\n        /* \"#utility.yul\":668:675   */\n      not\n        /* \"#utility.yul\":663:665   */\n      0x1f\n        /* \"#utility.yul\":656:661   */\n      dup4\n        /* \"#utility.yul\":652:666   */\n      add\n        /* \"#utility.yul\":648:676   */\n      and\n        /* \"#utility.yul\":638:676   */\n      swap1\n      pop\n        /* \"#utility.yul\":580:682   */\n      swap2\n      swap1\n      pop\n      jump\t// out\n        /* \"#utility.yul\":688:868   */\n    tag_63:\n        /* \"#utility.yul\":736:813   */\n      0x4e487b7100000000000000000000000000000000000000000000000000000000\n        /* \"#utility.yul\":733:734   */\n      0x00\n        /* \"#utility.yul\":726:814   */\n      mstore\n        /* \"#utility.yul\":833:837   */\n      0x41\n        /* \"#utility.yul\":830:831   */\n      0x04\n        /* \"#utility.yul\":823:838   */\n      mstore\n        /* \"#utility.yul\":857:861   */\n      0x24\n        /* \"#utility.yul\":854:855   */\n      0x00\n        /* \"#utility.yul\":847:862   */\n      revert\n        /* \"#utility.yul\":874:1155   */\n    tag_64:\n        /* \"#utility.yul\":957:984   */\n      tag_83\n        /* \"#utility.yul\":979:983   */\n      dup3\n        /* \"#utility.yul\":957:984   */\n      tag_62\n      jump\t// in\n    tag_83:\n        /* \"#utility.yul\":949:955   */\n      dup2\n        /* \"#utility.yul\":945:985   */\n      add\n        /* \"#utility.yul\":1087:1093   */\n      dup2\n        /* \"#utility.yul\":1075:1085   */\n      dup2\n        /* \"#utility.yul\":1072:1094   */\n      lt\n        /* \"#utility.yul\":1051:1069   */\n      0xffffffffffffffff\n        /* \"#utility.yul\":1039:1049   */\n      dup3\n        /* \"#utility.yul\":1036:1070   */\n      gt\n        /* \"#utility.yul\":1033:1095   */\n      or\n        /* \"#utility.yul\":1030:1118   */\n      iszero\n      tag_84\n      jumpi\n        /* \"#utility.yul\":1098:1116   */\n      tag_85\n      tag_63\n      jump\t// in\n    tag_85:\n        /* \"#utility.yul\":1030:1118   */\n    tag_84:\n        /* \"#utility.yul\":1138:1148   */\n      dup1\n        /* \"#utility.yul\":1134:1136   */\n      0x40\n        /* \"#utility.yul\":1127:1149   */\n      mstore\n        /* \"#utility.yul\":917:1155   */\n      pop\n        /* \"#utility.yul\":874:1155   */\n      pop\n      pop\n      jump\t// out\n        /* \"#utility.yul\":1161:1290   */\n    tag_65:\n        /* \"#utility.yul\":1195:1201   */\n      0x00\n        /* \"#utility.yul\":1222:1242   */\n      tag_87\n      tag_57\n      jump\t// in\n    tag_87:\n        /* \"#utility.yul\":1212:1242   */\n      swap1\n      pop\n        /* \"#utility.yul\":1251:1284   */\n      tag_88\n        /* \"#utility.yul\":1279:1283   */\n      dup3\n        /* \"#utility.yul\":1271:1277   */\n      dup3\n        /* \"#utility.yul\":1251:1284   */\n      tag_64\n      jump\t// in\n    tag_88:\n        /* \"#utility.yul\":1161:1290   */\n      swap2\n      swap1\n      pop\n      jump\t// out\n        /* \"#utility.yul\":1296:1604   */\n    tag_66:\n        /* \"#utility.yul\":1358:1362   */\n      0x00\n        /* \"#utility.yul\":1448:1466   */\n      0xffffffffffffffff\n        /* \"#utility.yul\":1440:1446   */\n      dup3\n        /* \"#utility.yul\":1437:1467   */\n      gt\n        /* \"#utility.yul\":1434:1490   */\n      iszero\n      tag_90\n      jumpi\n        /* \"#utility.yul\":1470:1488   */\n      tag_91\n      tag_63\n      jump\t// in\n    tag_91:\n        /* \"#utility.yul\":1434:1490   */\n    tag_90:\n        /* \"#utility.yul\":1508:1537   */\n      tag_92\n        /* \"#utility.yul\":1530:1536   */\n      dup3\n        /* \"#utility.yul\":1508:1537   */\n      tag_62\n      jump\t// in\n    tag_92:\n        /* \"#utility.yul\":1500:1537   */\n      swap1\n      pop\n        /* \"#utility.yul\":1592:1596   */\n      0x20\n        /* \"#utility.yul\":1586:1590   */\n      dup2\n        /* \"#utility.yul\":1582:1597   */\n      add\n        /* \"#utility.yul\":1574:1597   */\n      swap1\n      pop\n        /* \"#utility.yul\":1296:1604   */\n      swap2\n      swap1\n      pop\n      jump\t// out\n        /* \"#utility.yul\":1610:1758   */\n    tag_67:\n        /* \"#utility.yul\":1708:1714   */\n      dup3\n        /* \"#utility.yul\":1703:1706   */\n      dup2\n        /* \"#utility.yul\":1698:1701   */\n      dup4\n        /* \"#utility.yul\":1685:1715   */\n      calldatacopy\n        /* \"#utility.yul\":1749:1750   */\n      0x00\n        /* \"#utility.yul\":1740:1746   */\n      dup4\n        /* \"#utility.yul\":1735:1738   */\n      dup4\n        /* \"#utility.yul\":1731:1747   */\n      add\n        /* \"#utility.yul\":1724:1751   */\n      mstore\n        /* \"#utility.yul\":1610:1758   */\n      pop\n      pop\n      pop\n      jump\t// out\n        /* \"#utility.yul\":1764:2189   */\n    tag_68:\n        /* \"#utility.yul\":1842:1847   */\n      0x00\n        /* \"#utility.yul\":1867:1933   */\n      tag_95\n        /* \"#utility.yul\":1883:1932   */\n      tag_96\n        /* \"#utility.yul\":1925:1931   */\n      dup5\n        /* \"#utility.yul\":1883:1932   */\n      tag_66\n      jump\t// in\n    tag_96:\n        /* \"#utility.yul\":1867:1933   */\n      tag_65\n      jump\t// in\n    tag_95:\n        /* \"#utility.yul\":1858:1933   */\n      swap1\n      pop\n        /* \"#utility.yul\":1956:1962   */\n      dup3\n        /* \"#utility.yul\":1949:1954   */\n      dup2\n        /* \"#utility.yul\":1942:1963   */\n      mstore\n        /* \"#utility.yul\":1994:1998   */\n      0x20\n        /* \"#utility.yul\":1987:1992   */\n      dup2\n        /* \"#utility.yul\":1983:1999   */\n      add\n        /* \"#utility.yul\":2032:2035   */\n      dup5\n        /* \"#utility.yul\":2023:2029   */\n      dup5\n        /* \"#utility.yul\":2018:2021   */\n      dup5\n        /* \"#utility.yul\":2014:2030   */\n      add\n        /* \"#utility.yul\":2011:2036   */\n      gt\n        /* \"#utility.yul\":2008:2120   */\n      iszero\n      tag_97\n      jumpi\n        /* \"#utility.yul\":2039:2118   */\n      tag_98\n      tag_61\n      jump\t// in\n    tag_98:\n        /* \"#utility.yul\":2008:2120   */\n    tag_97:\n        /* \"#utility.yul\":2129:2183   */\n      tag_99\n        /* \"#utility.yul\":2176:2182   */\n      dup5\n        /* \"#utility.yul\":2171:2174   */\n      dup3\n        /* \"#utility.yul\":2166:2169   */\n      dup6\n        /* \"#utility.yul\":2129:2183   */\n      tag_67\n      jump\t// in\n    tag_99:\n        /* \"#utility.yul\":1848:2189   */\n      pop\n        /* \"#utility.yul\":1764:2189   */\n      swap4\n      swap3\n      pop\n      pop\n      pop\n      jump\t// out\n        /* \"#utility.yul\":2209:2549   */\n    tag_69:\n        /* \"#utility.yul\":2265:2270   */\n      0x00\n        /* \"#utility.yul\":2314:2317   */\n      dup3\n        /* \"#utility.yul\":2307:2311   */\n      0x1f\n        /* \"#utility.yul\":2299:2305   */\n      dup4\n        /* \"#utility.yul\":2295:2312   */\n      add\n        /* \"#utility.yul\":2291:2318   */\n      slt\n        /* \"#utility.yul\":2281:2403   */\n      tag_101\n      jumpi\n        /* \"#utility.yul\":2322:2401   */\n      tag_102\n      tag_60\n      jump\t// in\n    tag_102:\n        /* \"#utility.yul\":2281:2403   */\n    tag_101:\n        /* \"#utility.yul\":2439:2445   */\n      dup2\n        /* \"#utility.yul\":2426:2446   */\n      calldataload\n        /* \"#utility.yul\":2464:2543   */\n      tag_103\n        /* \"#utility.yul\":2539:2542   */\n      dup5\n        /* \"#utility.yul\":2531:2537   */\n      dup3\n        /* \"#utility.yul\":2524:2528   */\n      0x20\n        /* \"#utility.yul\":2516:2522   */\n      dup7\n        /* \"#utility.yul\":2512:2529   */\n      add\n        /* \"#utility.yul\":2464:2543   */\n      tag_68\n      jump\t// in\n    tag_103:\n        /* \"#utility.yul\":2455:2543   */\n      swap2\n      pop\n        /* \"#utility.yul\":2271:2549   */\n      pop\n        /* \"#utility.yul\":2209:2549   */\n      swap3\n      swap2\n      pop\n      pop\n      jump\t// out\n        /* \"#utility.yul\":2555:3064   */\n    tag_7:\n        /* \"#utility.yul\":2624:2630   */\n      0x00\n        /* \"#utility.yul\":2673:2675   */\n      0x20\n        /* \"#utility.yul\":2661:2670   */\n      dup3\n        /* \"#utility.yul\":2652:2659   */\n      dup5\n        /* \"#utility.yul\":2648:2671   */\n      sub\n        /* \"#utility.yul\":2644:2676   */\n      slt\n        /* \"#utility.yul\":2641:2760   */\n      iszero\n      tag_105\n      jumpi\n        /* \"#utility.yul\":2679:2758   */\n      tag_106\n      tag_58\n      jump\t// in\n    tag_106:\n        /* \"#utility.yul\":2641:2760   */\n    tag_105:\n        /* \"#utility.yul\":2827:2828   */\n      0x00\n        /* \"#utility.yul\":2816:2825   */\n      dup3\n        /* \"#utility.yul\":2812:2829   */\n      add\n        /* \"#utility.yul\":2799:2830   */\n      calldataload\n        /* \"#utility.yul\":2857:2875   */\n      0xffffffffffffffff\n        /* \"#utility.yul\":2849:2855   */\n      dup2\n        /* \"#utility.yul\":2846:2876   */\n      gt\n        /* \"#utility.yul\":2843:2960   */\n      iszero\n      tag_107\n      jumpi\n        /* \"#utility.yul\":2879:2958   */\n      tag_108\n      tag_59\n      jump\t// in\n    tag_108:\n        /* \"#utility.yul\":2843:2960   */\n    tag_107:\n        /* \"#utility.yul\":2984:3047   */\n      tag_109\n        /* \"#utility.yul\":3039:3046   */\n      dup5\n        /* \"#utility.yul\":3030:3036   */\n      dup3\n        /* \"#utility.yul\":3019:3028   */\n      dup6\n        /* \"#utility.yul\":3015:3037   */\n      add\n        /* \"#utility.yul\":2984:3047   */\n      tag_69\n      jump\t// in\n    tag_109:\n        /* \"#utility.yul\":2974:3047   */\n      swap2\n      pop\n        /* \"#utility.yul\":2770:3057   */\n      pop\n        /* \"#utility.yul\":2555:3064   */\n      swap3\n      swap2\n      pop\n      pop\n      jump\t// out\n        /* \"#utility.yul\":3070:3147   */\n    tag_70:\n        /* \"#utility.yul\":3107:3114   */\n      0x00\n        /* \"#utility.yul\":3136:3141   */\n      dup2\n        /* \"#utility.yul\":3125:3141   */\n      swap1\n      pop\n        /* \"#utility.yul\":3070:3147   */\n      swap2\n      swap1\n      pop\n      jump\t// out\n        /* \"#utility.yul\":3153:3271   */\n    tag_71:\n        /* \"#utility.yul\":3240:3264   */\n      tag_112\n        /* \"#utility.yul\":3258:3263   */\n      dup2\n        /* \"#utility.yul\":3240:3264   */\n      tag_70\n      jump\t// in\n    tag_112:\n        /* \"#utility.yul\":3235:3238   */\n      dup3\n        /* \"#utility.yul\":3228:3265   */\n      mstore\n        /* \"#utility.yul\":3153:3271   */\n      pop\n      pop\n      jump\t// out\n        /* \"#utility.yul\":3277:3499   */\n    tag_10:\n        /* \"#utility.yul\":3370:3374   */\n      0x00\n        /* \"#utility.yul\":3408:3410   */\n      0x20\n        /* \"#utility.yul\":3397:3406   */\n      dup3\n        /* \"#utility.yul\":3393:3411   */\n      add\n        /* \"#utility.yul\":3385:3411   */\n      swap1\n      pop\n        /* \"#utility.yul\":3421:3492   */\n      tag_114\n        /* \"#utility.yul\":3489:3490   */\n      0x00\n        /* \"#utility.yul\":3478:3487   */\n      dup4\n        /* \"#utility.yul\":3474:3491   */\n      add\n        /* \"#utility.yul\":3465:3471   */\n      dup5\n        /* \"#utility.yul\":3421:3492   */\n      tag_71\n      jump\t// in\n    tag_114:\n        /* \"#utility.yul\":3277:3499   */\n      swap3\n      swap2\n      pop\n      pop\n      jump\t// out\n        /* \"#utility.yul\":3505:3595   */\n    tag_72:\n        /* \"#utility.yul\":3539:3546   */\n      0x00\n        /* \"#utility.yul\":3582:3587   */\n      dup2\n        /* \"#utility.yul\":3575:3588   */\n      iszero\n        /* \"#utility.yul\":3568:3589   */\n      iszero\n        /* \"#utility.yul\":3557:3589   */\n      swap1\n      pop\n        /* \"#utility.yul\":3505:3595   */\n      swap2\n      swap1\n      pop\n      jump\t// out\n        /* \"#utility.yul\":3601:3710   */\n    tag_73:\n        /* \"#utility.yul\":3682:3703   */\n      tag_117\n        /* \"#utility.yul\":3697:3702   */\n      dup2\n        /* \"#utility.yul\":3682:3703   */\n      tag_72\n      jump\t// in\n    tag_117:\n        /* \"#utility.yul\":3677:3680   */\n      dup3\n        /* \"#utility.yul\":3670:3704   */\n      mstore\n        /* \"#utility.yul\":3601:3710   */\n      pop\n      pop\n      jump\t// out\n        /* \"#utility.yul\":3716:3926   */\n    tag_15:\n        /* \"#utility.yul\":3803:3807   */\n      0x00\n        /* \"#utility.yul\":3841:3843   */\n      0x20\n        /* \"#utility.yul\":3830:3839   */\n      dup3\n        /* \"#utility.yul\":3826:3844   */\n      add\n        /* \"#utility.yul\":3818:3844   */\n      swap1\n      pop\n        /* \"#utility.yul\":3854:3919   */\n      tag_119\n        /* \"#utility.yul\":3916:3917   */\n      0x00\n        /* \"#utility.yul\":3905:3914   */\n      dup4\n        /* \"#utility.yul\":3901:3918   */\n      add\n        /* \"#utility.yul\":3892:3898   */\n      dup5\n        /* \"#utility.yul\":3854:3919   */\n      tag_73\n      jump\t// in\n    tag_119:\n        /* \"#utility.yul\":3716:3926   */\n      swap3\n      swap2\n      pop\n      pop\n      jump\t// out\n        /* \"#utility.yul\":3932:4112   */\n    tag_22:\n        /* \"#utility.yul\":3980:4057   */\n      0x4e487b7100000000000000000000000000000000000000000000000000000000\n        /* \"#utility.yul\":3977:3978   */\n      0x00\n        /* \"#utility.yul\":3970:4058   */\n      mstore\n        /* \"#utility.yul\":4077:4081   */\n      0x32\n        /* \"#utility.yul\":4074:4075   */\n      0x04\n        /* \"#utility.yul\":4067:4082   */\n      mstore\n        /* \"#utility.yul\":4101:4105   */\n      0x24\n        /* \"#utility.yul\":4098:4099   */\n      0x00\n        /* \"#utility.yul\":4091:4106   */\n      revert\n\n    auxdata: 0xa26469706673582212201be9cdb048a89be456da6497b696e71a34d0c324d34ff17ffe04ff48a937834564736f6c634300081a0033\n}\n",
				"bytecode": {
					"linkReferences": {},
					"object": "6080604052348015600e575f80fd5b506107e38061001c5f395ff3fe608060405234801561000f575f80fd5b5060043610610034575f3560e01c80635e3f00711461003857806387e16d4d14610068575b5f80fd5b610052600480360381019061004d91906106d5565b610098565b60405161005f9190610734565b60405180910390f35b610082600480360381019061007d91906106d5565b61035c565b60405161008f9190610767565b60405180910390f35b5f805f5b8351811015610352575f8482815181106100b9576100b8610780565b5b602001015160f81c60f81b9050603060f81b7effffffffffffffffffffffffffffffffffffffffffffffffffffffffffffff1916817effffffffffffffffffffffffffffffffffffffffffffffffffffffffffffff1916101580156101665750603960f81b7effffffffffffffffffffffffffffffffffffffffffffffffffffffffffffff1916817effffffffffffffffffffffffffffffffffffffffffffffffffffffffffffff191611155b1561017657600183179250610344565b7f41000000000000000000000000000000000000000000000000000000000000007effffffffffffffffffffffffffffffffffffffffffffffffffffffffffffff1916817effffffffffffffffffffffffffffffffffffffffffffffffffffffffffffff19161015801561024e57507f5a000000000000000000000000000000000000000000000000000000000000007effffffffffffffffffffffffffffffffffffffffffffffffffffffffffffff1916817effffffffffffffffffffffffffffffffffffffffffffffffffffffffffffff191611155b1561025e57600283179250610343565b7f61000000000000000000000000000000000000000000000000000000000000007effffffffffffffffffffffffffffffffffffffffffffffffffffffffffffff1916817effffffffffffffffffffffffffffffffffffffffffffffffffffffffffffff19161015801561033657507f7a000000000000000000000000000000000000000000000000000000000000007effffffffffffffffffffffffffffffffffffffffffffffffffffffffffffff1916817effffffffffffffffffffffffffffffffffffffffffffffffffffffffffffff191611155b15610342576004831792505b5b5b50808060010191505061009c565b5080915050919050565b5f805f90505f805f8590505f5b815181101561056957603060f81b82828151811061038a57610389610780565b5b602001015160f81c60f81b7effffffffffffffffffffffffffffffffffffffffffffffffffffffffffffff1916101580156104085750603960f81b8282815181106103d8576103d7610780565b5b602001015160f81c60f81b7effffffffffffffffffffffffffffffffffffffffffffffffffffffffffffff191611155b15610416576001945061055c565b604160f81b82828151811061042e5761042d610780565b5b602001015160f81c60f81b7effffffffffffffffffffffffffffffffffffffffffffffffffffffffffffff1916101580156104ac5750605a60f81b82828151811061047c5761047b610780565b5b602001015160f81c60f81b7effffffffffffffffffffffffffffffffffffffffffffffffffffffffffffff191611155b156104ba576001935061055b565b606160f81b8282815181106104d2576104d1610780565b5b602001015160f81c60f81b7effffffffffffffffffffffffffffffffffffffffffffffffffffffffffffff1916101580156105505750607a60f81b8282815181106105205761051f610780565b5b602001015160f81c60f81b7effffffffffffffffffffffffffffffffffffffffffffffffffffffffffffff191611155b1561055a57600192505b5b5b8080600101915050610369565b508380156105745750825b801561057d5750815b945050505050919050565b5f604051905090565b5f80fd5b5f80fd5b5f80fd5b5f80fd5b5f601f19601f8301169050919050565b7f4e487b71000000000000000000000000000000000000000000000000000000005f52604160045260245ffd5b6105e7826105a1565b810181811067ffffffffffffffff82111715610606576106056105b1565b5b80604052505050565b5f610618610588565b905061062482826105de565b919050565b5f67ffffffffffffffff821115610643576106426105b1565b5b61064c826105a1565b9050602081019050919050565b828183375f83830152505050565b5f61067961067484610629565b61060f565b9050828152602081018484840111156106955761069461059d565b5b6106a0848285610659565b509392505050565b5f82601f8301126106bc576106bb610599565b5b81356106cc848260208601610667565b91505092915050565b5f602082840312156106ea576106e9610591565b5b5f82013567ffffffffffffffff81111561070757610706610595565b5b610713848285016106a8565b91505092915050565b5f819050919050565b61072e8161071c565b82525050565b5f6020820190506107475f830184610725565b92915050565b5f8115159050919050565b6107618161074d565b82525050565b5f60208201905061077a5f830184610758565b92915050565b7f4e487b71000000000000000000000000000000000000000000000000000000005f52603260045260245ffdfea26469706673582212201be9cdb048a89be456da6497b696e71a34d0c324d34ff17ffe04ff48a937834564736f6c634300081a0033",
					"opcodes": "PUSH1 0x80 PUSH1 0x40 MSTORE CALLVALUE DUP1 ISZERO PUSH1 0xE JUMPI PUSH0 DUP1 REVERT JUMPDEST POP PUSH2 0x7E3 DUP1 PUSH2 0x1C PUSH0 CODECOPY PUSH0 RETURN INVALID PUSH1 0x80 PUSH1 0x40 MSTORE CALLVALUE DUP1 ISZERO PUSH2 0xF JUMPI PUSH0 DUP1 REVERT JUMPDEST POP PUSH1 0x4 CALLDATASIZE LT PUSH2 0x34 JUMPI PUSH0 CALLDATALOAD PUSH1 0xE0 SHR DUP1 PUSH4 0x5E3F0071 EQ PUSH2 0x38 JUMPI DUP1 PUSH4 0x87E16D4D EQ PUSH2 0x68 JUMPI JUMPDEST PUSH0 DUP1 REVERT JUMPDEST PUSH2 0x52 PUSH1 0x4 DUP1 CALLDATASIZE SUB DUP2 ADD SWAP1 PUSH2 0x4D SWAP2 SWAP1 PUSH2 0x6D5 JUMP JUMPDEST PUSH2 0x98 JUMP JUMPDEST PUSH1 0x40 MLOAD PUSH2 0x5F SWAP2 SWAP1 PUSH2 0x734 JUMP JUMPDEST PUSH1 0x40 MLOAD DUP1 SWAP2 SUB SWAP1 RETURN JUMPDEST PUSH2 0x82 PUSH1 0x4 DUP1 CALLDATASIZE SUB DUP2 ADD SWAP1 PUSH2 0x7D SWAP2 SWAP1 PUSH2 0x6D5 JUMP JUMPDEST PUSH2 0x35C JUMP JUMPDEST PUSH1 0x40 MLOAD PUSH2 0x8F SWAP2 SWAP1 PUSH2 0x767 JUMP JUMPDEST PUSH1 0x40 MLOAD DUP1 SWAP2 SUB SWAP1 RETURN JUMPDEST PUSH0 DUP1 PUSH0 JUMPDEST DUP4 MLOAD DUP2 LT ISZERO PUSH2 0x352 JUMPI PUSH0 DUP5 DUP3 DUP2 MLOAD DUP2 LT PUSH2 0xB9 JUMPI PUSH2 0xB8 PUSH2 0x780 JUMP JUMPDEST JUMPDEST PUSH1 0x20 ADD ADD MLOAD PUSH1 0xF8 SHR PUSH1 0xF8 SHL SWAP1 POP PUSH1 0x30 PUSH1 0xF8 SHL PUSH31 0xFFFFFFFFFFFFFFFFFFFFFFFFFFFFFFFFFFFFFFFFFFFFFFFFFFFFFFFFFFFFFF NOT AND DUP2 PUSH31 0xFFFFFFFFFFFFFFFFFFFFFFFFFFFFFFFFFFFFFFFFFFFFFFFFFFFFFFFFFFFFFF NOT AND LT ISZERO DUP1 ISZERO PUSH2 0x166 JUMPI POP PUSH1 0x39 PUSH1 0xF8 SHL PUSH31 0xFFFFFFFFFFFFFFFFFFFFFFFFFFFFFFFFFFFFFFFFFFFFFFFFFFFFFFFFFFFFFF NOT AND DUP2 PUSH31 0xFFFFFFFFFFFFFFFFFFFFFFFFFFFFFFFFFFFFFFFFFFFFFFFFFFFFFFFFFFFFFF NOT AND GT ISZERO JUMPDEST ISZERO PUSH2 0x176 JUMPI PUSH1 0x1 DUP4 OR SWAP3 POP PUSH2 0x344 JUMP JUMPDEST PUSH32 0x4100000000000000000000000000000000000000000000000000000000000000 PUSH31 0xFFFFFFFFFFFFFFFFFFFFFFFFFFFFFFFFFFFFFFFFFFFFFFFFFFFFFFFFFFFFFF NOT AND DUP2 PUSH31 0xFFFFFFFFFFFFFFFFFFFFFFFFFFFFFFFFFFFFFFFFFFFFFFFFFFFFFFFFFFFFFF NOT AND LT ISZERO DUP1 ISZERO PUSH2 0x24E JUMPI POP PUSH32 0x5A00000000000000000000000000000000000000000000000000000000000000 PUSH31 0xFFFFFFFFFFFFFFFFFFFFFFFFFFFFFFFFFFFFFFFFFFFFFFFFFFFFFFFFFFFFFF NOT AND DUP2 PUSH31 0xFFFFFFFFFFFFFFFFFFFFFFFFFFFFFFFFFFFFFFFFFFFFFFFFFFFFFFFFFFFFFF NOT AND GT ISZERO JUMPDEST ISZERO PUSH2 0x25E JUMPI PUSH1 0x2 DUP4 OR SWAP3 POP PUSH2 0x343 JUMP JUMPDEST PUSH32 0x6100000000000000000000000000000000000000000000000000000000000000 PUSH31 0xFFFFFFFFFFFFFFFFFFFFFFFFFFFFFFFFFFFFFFFFFFFFFFFFFFFFFFFFFFFFFF NOT AND DUP2 PUSH31 0xFFFFFFFFFFFFFFFFFFFFFFFFFFFFFFFFFFFFFFFFFFFFFFFFFFFFFFFFFFFFFF NOT AND LT ISZERO DUP1 ISZERO PUSH2 0x336 JUMPI POP PUSH32 0x7A00000000000000000000000000000000000000000000000000000000000000 PUSH31 0xFFFFFFFFFFFFFFFFFFFFFFFFFFFFFFFFFFFFFFFFFFFFFFFFFFFFFFFFFFFFFF NOT AND DUP2 PUSH31 0xFFFFFFFFFFFFFFFFFFFFFFFFFFFFFFFFFFFFFFFFFFFFFFFFFFFFFFFFFFFFFF NOT AND GT ISZERO JUMPDEST ISZERO PUSH2 0x342 JUMPI PUSH1 0x4 DUP4 OR SWAP3 POP JUMPDEST JUMPDEST JUMPDEST POP DUP1 DUP1 PUSH1 0x1 ADD SWAP2 POP POP PUSH2 0x9C JUMP JUMPDEST POP DUP1 SWAP2 POP POP SWAP2 SWAP1 POP JUMP JUMPDEST PUSH0 DUP1 PUSH0 SWAP1 POP PUSH0 DUP1 PUSH0 DUP6 SWAP1 POP PUSH0 JUMPDEST DUP2 MLOAD DUP2 LT ISZERO PUSH2 0x569 JUMPI PUSH1 0x30 PUSH1 0xF8 SHL DUP3 DUP3 DUP2 MLOAD DUP2 LT PUSH2 0x38A JUMPI PUSH2 0x389 PUSH2 0x780 JUMP JUMPDEST JUMPDEST PUSH1 0x20 ADD ADD MLOAD PUSH1 0xF8 SHR PUSH1 0xF8 SHL PUSH31 0xFFFFFFFFFFFFFFFFFFFFFFFFFFFFFFFFFFFFFFFFFFFFFFFFFFFFFFFFFFFFFF NOT AND LT ISZERO DUP1 ISZERO PUSH2 0x408 JUMPI POP PUSH1 0x39 PUSH1 0xF8 SHL DUP3 DUP3 DUP2 MLOAD DUP2 LT PUSH2 0x3D8 JUMPI PUSH2 0x3D7 PUSH2 0x780 JUMP JUMPDEST JUMPDEST PUSH1 0x20 ADD ADD MLOAD PUSH1 0xF8 SHR PUSH1 0xF8 SHL PUSH31 0xFFFFFFFFFFFFFFFFFFFFFFFFFFFFFFFFFFFFFFFFFFFFFFFFFFFFFFFFFFFFFF NOT AND GT ISZERO JUMPDEST ISZERO PUSH2 0x416 JUMPI PUSH1 0x1 SWAP5 POP PUSH2 0x55C JUMP JUMPDEST PUSH1 0x41 PUSH1 0xF8 SHL DUP3 DUP3 DUP2 MLOAD DUP2 LT PUSH2 0x42E JUMPI PUSH2 0x42D PUSH2 0x780 JUMP JUMPDEST JUMPDEST PUSH1 0x20 ADD ADD MLOAD PUSH1 0xF8 SHR PUSH1 0xF8 SHL PUSH31 0xFFFFFFFFFFFFFFFFFFFFFFFFFFFFFFFFFFFFFFFFFFFFFFFFFFFFFFFFFFFFFF NOT AND LT ISZERO DUP1 ISZERO PUSH2 0x4AC JUMPI POP PUSH1 0x5A PUSH1 0xF8 SHL DUP3 DUP3 DUP2 MLOAD DUP2 LT PUSH2 0x47C JUMPI PUSH2 0x47B PUSH2 0x780 JUMP JUMPDEST JUMPDEST PUSH1 0x20 ADD ADD MLOAD PUSH1 0xF8 SHR PUSH1 0xF8 SHL PUSH31 0xFFFFFFFFFFFFFFFFFFFFFFFFFFFFFFFFFFFFFFFFFFFFFFFFFFFFFFFFFFFFFF NOT AND GT ISZERO JUMPDEST ISZERO PUSH2 0x4BA JUMPI PUSH1 0x1 SWAP4 POP PUSH2 0x55B JUMP JUMPDEST PUSH1 0x61 PUSH1 0xF8 SHL DUP3 DUP3 DUP2 MLOAD DUP2 LT PUSH2 0x4D2 JUMPI PUSH2 0x4D1 PUSH2 0x780 JUMP JUMPDEST JUMPDEST PUSH1 0x20 ADD ADD MLOAD PUSH1 0xF8 SHR PUSH1 0xF8 SHL PUSH31 0xFFFFFFFFFFFFFFFFFFFFFFFFFFFFFFFFFFFFFFFFFFFFFFFFFFFFFFFFFFFFFF NOT AND LT ISZERO DUP1 ISZERO PUSH2 0x550 JUMPI POP PUSH1 0x7A PUSH1 0xF8 SHL DUP3 DUP3 DUP2 MLOAD DUP2 LT PUSH2 0x520 JUMPI PUSH2 0x51F PUSH2 0x780 JUMP JUMPDEST JUMPDEST PUSH1 0x20 ADD ADD MLOAD PUSH1 0xF8 SHR PUSH1 0xF8 SHL PUSH31 0xFFFFFFFFFFFFFFFFFFFFFFFFFFFFFFFFFFFFFFFFFFFFFFFFFFFFFFFFFFFFFF NOT AND GT ISZERO JUMPDEST ISZERO PUSH2 0x55A JUMPI PUSH1 0x1 SWAP3 POP JUMPDEST JUMPDEST JUMPDEST DUP1 DUP1 PUSH1 0x1 ADD SWAP2 POP POP PUSH2 0x369 JUMP JUMPDEST POP DUP4 DUP1 ISZERO PUSH2 0x574 JUMPI POP DUP3 JUMPDEST DUP1 ISZERO PUSH2 0x57D JUMPI POP DUP2 JUMPDEST SWAP5 POP POP POP POP POP SWAP2 SWAP1 POP JUMP JUMPDEST PUSH0 PUSH1 0x40 MLOAD SWAP1 POP SWAP1 JUMP JUMPDEST PUSH0 DUP1 REVERT JUMPDEST PUSH0 DUP1 REVERT JUMPDEST PUSH0 DUP1 REVERT JUMPDEST PUSH0 DUP1 REVERT JUMPDEST PUSH0 PUSH1 0x1F NOT PUSH1 0x1F DUP4 ADD AND SWAP1 POP SWAP2 SWAP1 POP JUMP JUMPDEST PUSH32 0x4E487B7100000000000000000000000000000000000000000000000000000000 PUSH0 MSTORE PUSH1 0x41 PUSH1 0x4 MSTORE PUSH1 0x24 PUSH0 REVERT JUMPDEST PUSH2 0x5E7 DUP3 PUSH2 0x5A1 JUMP JUMPDEST DUP2 ADD DUP2 DUP2 LT PUSH8 0xFFFFFFFFFFFFFFFF DUP3 GT OR ISZERO PUSH2 0x606 JUMPI PUSH2 0x605 PUSH2 0x5B1 JUMP JUMPDEST JUMPDEST DUP1 PUSH1 0x40 MSTORE POP POP POP JUMP JUMPDEST PUSH0 PUSH2 0x618 PUSH2 0x588 JUMP JUMPDEST SWAP1 POP PUSH2 0x624 DUP3 DUP3 PUSH2 0x5DE JUMP JUMPDEST SWAP2 SWAP1 POP JUMP JUMPDEST PUSH0 PUSH8 0xFFFFFFFFFFFFFFFF DUP3 GT ISZERO PUSH2 0x643 JUMPI PUSH2 0x642 PUSH2 0x5B1 JUMP JUMPDEST JUMPDEST PUSH2 0x64C DUP3 PUSH2 0x5A1 JUMP JUMPDEST SWAP1 POP PUSH1 0x20 DUP2 ADD SWAP1 POP SWAP2 SWAP1 POP JUMP JUMPDEST DUP3 DUP2 DUP4 CALLDATACOPY PUSH0 DUP4 DUP4 ADD MSTORE POP POP POP JUMP JUMPDEST PUSH0 PUSH2 0x679 PUSH2 0x674 DUP5 PUSH2 0x629 JUMP JUMPDEST PUSH2 0x60F JUMP JUMPDEST SWAP1 POP DUP3 DUP2 MSTORE PUSH1 0x20 DUP2 ADD DUP5 DUP5 DUP5 ADD GT ISZERO PUSH2 0x695 JUMPI PUSH2 0x694 PUSH2 0x59D JUMP JUMPDEST JUMPDEST PUSH2 0x6A0 DUP5 DUP3 DUP6 PUSH2 0x659 JUMP JUMPDEST POP SWAP4 SWAP3 POP POP POP JUMP JUMPDEST PUSH0 DUP3 PUSH1 0x1F DUP4 ADD SLT PUSH2 0x6BC JUMPI PUSH2 0x6BB PUSH2 0x599 JUMP JUMPDEST JUMPDEST DUP2 CALLDATALOAD PUSH2 0x6CC DUP5 DUP3 PUSH1 0x20 DUP7 ADD PUSH2 0x667 JUMP JUMPDEST SWAP2 POP POP SWAP3 SWAP2 POP POP JUMP JUMPDEST PUSH0 PUSH1 0x20 DUP3 DUP5 SUB SLT ISZERO PUSH2 0x6EA JUMPI PUSH2 0x6E9 PUSH2 0x591 JUMP JUMPDEST JUMPDEST PUSH0 DUP3 ADD CALLDATALOAD PUSH8 0xFFFFFFFFFFFFFFFF DUP2 GT ISZERO PUSH2 0x707 JUMPI PUSH2 0x706 PUSH2 0x595 JUMP JUMPDEST JUMPDEST PUSH2 0x713 DUP5 DUP3 DUP6 ADD PUSH2 0x6A8 JUMP JUMPDEST SWAP2 POP POP SWAP3 SWAP2 POP POP JUMP JUMPDEST PUSH0 DUP2 SWAP1 POP SWAP2 SWAP1 POP JUMP JUMPDEST PUSH2 0x72E DUP2 PUSH2 0x71C JUMP JUMPDEST DUP3 MSTORE POP POP JUMP JUMPDEST PUSH0 PUSH1 0x20 DUP3 ADD SWAP1 POP PUSH2 0x747 PUSH0 DUP4 ADD DUP5 PUSH2 0x725 JUMP JUMPDEST SWAP3 SWAP2 POP POP JUMP JUMPDEST PUSH0 DUP2 ISZERO ISZERO SWAP1 POP SWAP2 SWAP1 POP JUMP JUMPDEST PUSH2 0x761 DUP2 PUSH2 0x74D JUMP JUMPDEST DUP3 MSTORE POP POP JUMP JUMPDEST PUSH0 PUSH1 0x20 DUP3 ADD SWAP1 POP PUSH2 0x77A PUSH0 DUP4 ADD DUP5 PUSH2 0x758 JUMP JUMPDEST SWAP3 SWAP2 POP POP JUMP JUMPDEST PUSH32 0x4E487B7100000000000000000000000000000000000000000000000000000000 PUSH0 MSTORE PUSH1 0x32 PUSH1 0x4 MSTORE PUSH1 0x24 PUSH0 REVERT INVALID LOG2 PUSH5 0x6970667358 0x22 SLT KECCAK256 SHL 0xE9 0xCD 0xB0 BASEFEE 0xA8 SWAP12 0xE4 JUMP 0xDA PUSH5 0x97B696E71A CALLVALUE 0xD0 0xC3 0x24 0xD3 0x4F CALL PUSH32 0xFE04FF48A937834564736F6C634300081A003300000000000000000000000000 "
				},
				"gasEstimates": {
					"creation": {
						"codeDepositCost": "403800",
						"executionCost": "441",
						"totalCost": "404241"
					},
					"external": {
						"checkPassword(string)": "infinite",
						"checkPassword2(string)": "infinite"
					}
				},
				"methodIdentifiers": {
					"checkPassword(string)": "87e16d4d",
					"checkPassword2(string)": "5e3f0071"
				}
			},
			"storageLayout": {
				"storage": [],
				"types": null
			},
			"userdoc": {
				"kind": "user",
				"methods": {},
				"version": 1
			}
		}
	}
}