{
	"Code Test/CodeTest_10.sol": {
		"Bank": {
			"abi": [
				{
					"inputs": [
						{
							"internalType": "address",
							"name": "_addr",
							"type": "address"
						}
					],
					"stateMutability": "nonpayable",
					"type": "constructor"
				},
				{
					"inputs": [
						{
							"internalType": "address",
							"name": "_addr",
							"type": "address"
						},
						{
							"internalType": "uint256",
							"name": "_amount",
							"type": "uint256"
						}
					],
					"name": "_deposit",
					"outputs": [],
					"stateMutability": "nonpayable",
					"type": "function"
				},
				{
					"inputs": [],
					"name": "deposit",
					"outputs": [],
					"stateMutability": "payable",
					"type": "function"
				},
				{
					"inputs": [
						{
							"internalType": "address",
							"name": "_addr",
							"type": "address"
						}
					],
					"name": "getUser",
					"outputs": [
						{
							"components": [
								{
									"internalType": "address",
									"name": "addr",
									"type": "address"
								},
								{
									"internalType": "uint256",
									"name": "balance",
									"type": "uint256"
								}
							],
							"internalType": "struct Bank.User",
							"name": "",
							"type": "tuple"
						}
					],
					"stateMutability": "view",
					"type": "function"
				},
				{
					"inputs": [],
					"name": "signUp",
					"outputs": [],
					"stateMutability": "nonpayable",
					"type": "function"
				},
				{
					"inputs": [
						{
							"internalType": "address payable",
							"name": "_to",
							"type": "address"
						},
						{
							"internalType": "uint256",
							"name": "_amount",
							"type": "uint256"
						}
					],
					"name": "transfer1",
					"outputs": [],
					"stateMutability": "nonpayable",
					"type": "function"
				},
				{
					"inputs": [
						{
							"internalType": "address payable",
							"name": "_bank",
							"type": "address"
						},
						{
							"internalType": "address",
							"name": "_user",
							"type": "address"
						},
						{
							"internalType": "uint256",
							"name": "_amount",
							"type": "uint256"
						}
					],
					"name": "transfer1",
					"outputs": [],
					"stateMutability": "nonpayable",
					"type": "function"
				},
				{
					"inputs": [
						{
							"internalType": "address",
							"name": "",
							"type": "address"
						}
					],
					"name": "users",
					"outputs": [
						{
							"internalType": "address",
							"name": "addr",
							"type": "address"
						},
						{
							"internalType": "uint256",
							"name": "balance",
							"type": "uint256"
						}
					],
					"stateMutability": "view",
					"type": "function"
				},
				{
					"inputs": [
						{
							"internalType": "uint256",
							"name": "_amount",
							"type": "uint256"
						}
					],
					"name": "withdraw",
					"outputs": [],
					"stateMutability": "nonpayable",
					"type": "function"
				},
				{
					"stateMutability": "payable",
					"type": "receive"
				}
			],
			"devdoc": {
				"kind": "dev",
				"methods": {},
				"version": 1
			},
			"evm": {
				"assembly": "    /* \"Code Test/CodeTest_10.sol\":2417:4980  contract Bank{... */\n  mstore(0x40, 0x80)\n    /* \"Code Test/CodeTest_10.sol\":2575:2792  constructor(address _addr) {... */\n  callvalue\n  dup1\n  iszero\n  tag_1\n  jumpi\n  0x00\n  dup1\n  revert\ntag_1:\n  pop\n  mload(0x40)\n  sub(codesize, bytecodeSize)\n  dup1\n  bytecodeSize\n  dup4\n  codecopy\n  dup2\n  dup2\n  add\n  0x40\n  mstore\n  dup2\n  add\n  swap1\n  tag_2\n  swap2\n  swap1\n  tag_3\n  jump\t// in\ntag_2:\n    /* \"Code Test/CodeTest_10.sol\":2660:2672  bool success */\n  0x00\n    /* \"Code Test/CodeTest_10.sol\":2678:2683  _addr */\n  dup2\n    /* \"Code Test/CodeTest_10.sol\":2678:2688  _addr.call */\n  0xffffffffffffffffffffffffffffffffffffffff\n  and\n    /* \"Code Test/CodeTest_10.sol\":2742:2746  this */\n  address\n    /* \"Code Test/CodeTest_10.sol\":2689:2748  abi.encodeWithSignature(\"pushList(address)\", address(this)) */\n  add(0x24, mload(0x40))\n  tag_6\n  swap2\n  swap1\n  tag_7\n  jump\t// in\ntag_6:\n  mload(0x40)\n  0x20\n  dup2\n  dup4\n  sub\n  sub\n  dup2\n  mstore\n  swap1\n  0x40\n  mstore\n  and(not(0xffffffffffffffffffffffffffffffffffffffffffffffffffffffff), 0xdaa93f6000000000000000000000000000000000000000000000000000000000)\n  0x20\n  dup3\n  add\n  dup1\n  mload\n  0xffffffffffffffffffffffffffffffffffffffffffffffffffffffff\n  dup4\n  dup2\n  dup4\n  and\n  or\n  dup4\n  mstore\n  pop\n  pop\n  pop\n  pop\n    /* \"Code Test/CodeTest_10.sol\":2678:2749  _addr.call(abi.encodeWithSignature(\"pushList(address)\", address(this))) */\n  mload(0x40)\n  tag_8\n  swap2\n  swap1\n  tag_9\n  jump\t// in\ntag_8:\n  0x00\n  mload(0x40)\n  dup1\n  dup4\n  sub\n  dup2\n  0x00\n  dup7\n  gas\n  call\n  swap2\n  pop\n  pop\n  returndatasize\n  dup1\n  0x00\n  dup2\n  eq\n  tag_12\n  jumpi\n  mload(0x40)\n  swap2\n  pop\n  and(add(returndatasize, 0x3f), not(0x1f))\n  dup3\n  add\n  0x40\n  mstore\n  returndatasize\n  dup3\n  mstore\n  returndatasize\n  0x00\n  0x20\n  dup5\n  add\n  returndatacopy\n  jump(tag_11)\ntag_12:\n  0x60\n  swap2\n  pop\ntag_11:\n  pop\n    /* \"Code Test/CodeTest_10.sol\":2659:2749  (bool success, ) = _addr.call(abi.encodeWithSignature(\"pushList(address)\", address(this))) */\n  pop\n  swap1\n  pop\n    /* \"Code Test/CodeTest_10.sol\":2767:2774  success */\n  dup1\n    /* \"Code Test/CodeTest_10.sol\":2759:2785  require(success, \"Failed\") */\n  tag_13\n  jumpi\n  mload(0x40)\n  0x08c379a000000000000000000000000000000000000000000000000000000000\n  dup2\n  mstore\n  0x04\n  add\n  tag_14\n  swap1\n  tag_15\n  jump\t// in\ntag_14:\n  mload(0x40)\n  dup1\n  swap2\n  sub\n  swap1\n  revert\ntag_13:\n    /* \"Code Test/CodeTest_10.sol\":2602:2792  {... */\n  pop\n    /* \"Code Test/CodeTest_10.sol\":2575:2792  constructor(address _addr) {... */\n  pop\n    /* \"Code Test/CodeTest_10.sol\":2417:4980  contract Bank{... */\n  jump(tag_16)\n    /* \"#utility.yul\":88:205   */\ntag_18:\n    /* \"#utility.yul\":197:198   */\n  0x00\n    /* \"#utility.yul\":194:195   */\n  dup1\n    /* \"#utility.yul\":187:199   */\n  revert\n    /* \"#utility.yul\":334:460   */\ntag_20:\n    /* \"#utility.yul\":371:378   */\n  0x00\n    /* \"#utility.yul\":411:453   */\n  0xffffffffffffffffffffffffffffffffffffffff\n    /* \"#utility.yul\":404:409   */\n  dup3\n    /* \"#utility.yul\":400:454   */\n  and\n    /* \"#utility.yul\":389:454   */\n  swap1\n  pop\n    /* \"#utility.yul\":334:460   */\n  swap2\n  swap1\n  pop\n  jump\t// out\n    /* \"#utility.yul\":466:562   */\ntag_21:\n    /* \"#utility.yul\":503:510   */\n  0x00\n    /* \"#utility.yul\":532:556   */\n  tag_38\n    /* \"#utility.yul\":550:555   */\n  dup3\n    /* \"#utility.yul\":532:556   */\n  tag_20\n  jump\t// in\ntag_38:\n    /* \"#utility.yul\":521:556   */\n  swap1\n  pop\n    /* \"#utility.yul\":466:562   */\n  swap2\n  swap1\n  pop\n  jump\t// out\n    /* \"#utility.yul\":568:690   */\ntag_22:\n    /* \"#utility.yul\":641:665   */\n  tag_40\n    /* \"#utility.yul\":659:664   */\n  dup2\n    /* \"#utility.yul\":641:665   */\n  tag_21\n  jump\t// in\ntag_40:\n    /* \"#utility.yul\":634:639   */\n  dup2\n    /* \"#utility.yul\":631:666   */\n  eq\n    /* \"#utility.yul\":621:684   */\n  tag_41\n  jumpi\n    /* \"#utility.yul\":680:681   */\n  0x00\n    /* \"#utility.yul\":677:678   */\n  dup1\n    /* \"#utility.yul\":670:682   */\n  revert\n    /* \"#utility.yul\":621:684   */\ntag_41:\n    /* \"#utility.yul\":568:690   */\n  pop\n  jump\t// out\n    /* \"#utility.yul\":696:839   */\ntag_23:\n    /* \"#utility.yul\":753:758   */\n  0x00\n    /* \"#utility.yul\":784:790   */\n  dup2\n    /* \"#utility.yul\":778:791   */\n  mload\n    /* \"#utility.yul\":769:791   */\n  swap1\n  pop\n    /* \"#utility.yul\":800:833   */\n  tag_43\n    /* \"#utility.yul\":827:832   */\n  dup2\n    /* \"#utility.yul\":800:833   */\n  tag_22\n  jump\t// in\ntag_43:\n    /* \"#utility.yul\":696:839   */\n  swap3\n  swap2\n  pop\n  pop\n  jump\t// out\n    /* \"#utility.yul\":845:1196   */\ntag_3:\n    /* \"#utility.yul\":915:921   */\n  0x00\n    /* \"#utility.yul\":964:966   */\n  0x20\n    /* \"#utility.yul\":952:961   */\n  dup3\n    /* \"#utility.yul\":943:950   */\n  dup5\n    /* \"#utility.yul\":939:962   */\n  sub\n    /* \"#utility.yul\":935:967   */\n  slt\n    /* \"#utility.yul\":932:1051   */\n  iszero\n  tag_45\n  jumpi\n    /* \"#utility.yul\":970:1049   */\n  tag_46\n  tag_18\n  jump\t// in\ntag_46:\n    /* \"#utility.yul\":932:1051   */\ntag_45:\n    /* \"#utility.yul\":1090:1091   */\n  0x00\n    /* \"#utility.yul\":1115:1179   */\n  tag_47\n    /* \"#utility.yul\":1171:1178   */\n  dup5\n    /* \"#utility.yul\":1162:1168   */\n  dup3\n    /* \"#utility.yul\":1151:1160   */\n  dup6\n    /* \"#utility.yul\":1147:1169   */\n  add\n    /* \"#utility.yul\":1115:1179   */\n  tag_23\n  jump\t// in\ntag_47:\n    /* \"#utility.yul\":1105:1179   */\n  swap2\n  pop\n    /* \"#utility.yul\":1061:1189   */\n  pop\n    /* \"#utility.yul\":845:1196   */\n  swap3\n  swap2\n  pop\n  pop\n  jump\t// out\n    /* \"#utility.yul\":1202:1320   */\ntag_24:\n    /* \"#utility.yul\":1289:1313   */\n  tag_49\n    /* \"#utility.yul\":1307:1312   */\n  dup2\n    /* \"#utility.yul\":1289:1313   */\n  tag_21\n  jump\t// in\ntag_49:\n    /* \"#utility.yul\":1284:1287   */\n  dup3\n    /* \"#utility.yul\":1277:1314   */\n  mstore\n    /* \"#utility.yul\":1202:1320   */\n  pop\n  pop\n  jump\t// out\n    /* \"#utility.yul\":1326:1548   */\ntag_7:\n    /* \"#utility.yul\":1419:1423   */\n  0x00\n    /* \"#utility.yul\":1457:1459   */\n  0x20\n    /* \"#utility.yul\":1446:1455   */\n  dup3\n    /* \"#utility.yul\":1442:1460   */\n  add\n    /* \"#utility.yul\":1434:1460   */\n  swap1\n  pop\n    /* \"#utility.yul\":1470:1541   */\n  tag_51\n    /* \"#utility.yul\":1538:1539   */\n  0x00\n    /* \"#utility.yul\":1527:1536   */\n  dup4\n    /* \"#utility.yul\":1523:1540   */\n  add\n    /* \"#utility.yul\":1514:1520   */\n  dup5\n    /* \"#utility.yul\":1470:1541   */\n  tag_24\n  jump\t// in\ntag_51:\n    /* \"#utility.yul\":1326:1548   */\n  swap3\n  swap2\n  pop\n  pop\n  jump\t// out\n    /* \"#utility.yul\":1554:1652   */\ntag_25:\n    /* \"#utility.yul\":1605:1611   */\n  0x00\n    /* \"#utility.yul\":1639:1644   */\n  dup2\n    /* \"#utility.yul\":1633:1645   */\n  mload\n    /* \"#utility.yul\":1623:1645   */\n  swap1\n  pop\n    /* \"#utility.yul\":1554:1652   */\n  swap2\n  swap1\n  pop\n  jump\t// out\n    /* \"#utility.yul\":1658:1805   */\ntag_26:\n    /* \"#utility.yul\":1759:1770   */\n  0x00\n    /* \"#utility.yul\":1796:1799   */\n  dup2\n    /* \"#utility.yul\":1781:1799   */\n  swap1\n  pop\n    /* \"#utility.yul\":1658:1805   */\n  swap3\n  swap2\n  pop\n  pop\n  jump\t// out\n    /* \"#utility.yul\":1811:1950   */\ntag_27:\n    /* \"#utility.yul\":1900:1906   */\n  dup3\n    /* \"#utility.yul\":1895:1898   */\n  dup2\n    /* \"#utility.yul\":1890:1893   */\n  dup4\n    /* \"#utility.yul\":1884:1907   */\n  mcopy\n    /* \"#utility.yul\":1941:1942   */\n  0x00\n    /* \"#utility.yul\":1932:1938   */\n  dup4\n    /* \"#utility.yul\":1927:1930   */\n  dup4\n    /* \"#utility.yul\":1923:1939   */\n  add\n    /* \"#utility.yul\":1916:1943   */\n  mstore\n    /* \"#utility.yul\":1811:1950   */\n  pop\n  pop\n  pop\n  jump\t// out\n    /* \"#utility.yul\":1956:2342   */\ntag_28:\n    /* \"#utility.yul\":2060:2063   */\n  0x00\n    /* \"#utility.yul\":2088:2126   */\n  tag_56\n    /* \"#utility.yul\":2120:2125   */\n  dup3\n    /* \"#utility.yul\":2088:2126   */\n  tag_25\n  jump\t// in\ntag_56:\n    /* \"#utility.yul\":2142:2230   */\n  tag_57\n    /* \"#utility.yul\":2223:2229   */\n  dup2\n    /* \"#utility.yul\":2218:2221   */\n  dup6\n    /* \"#utility.yul\":2142:2230   */\n  tag_26\n  jump\t// in\ntag_57:\n    /* \"#utility.yul\":2135:2230   */\n  swap4\n  pop\n    /* \"#utility.yul\":2239:2304   */\n  tag_58\n    /* \"#utility.yul\":2297:2303   */\n  dup2\n    /* \"#utility.yul\":2292:2295   */\n  dup6\n    /* \"#utility.yul\":2285:2289   */\n  0x20\n    /* \"#utility.yul\":2278:2283   */\n  dup7\n    /* \"#utility.yul\":2274:2290   */\n  add\n    /* \"#utility.yul\":2239:2304   */\n  tag_27\n  jump\t// in\ntag_58:\n    /* \"#utility.yul\":2329:2335   */\n  dup1\n    /* \"#utility.yul\":2324:2327   */\n  dup5\n    /* \"#utility.yul\":2320:2336   */\n  add\n    /* \"#utility.yul\":2313:2336   */\n  swap2\n  pop\n    /* \"#utility.yul\":2064:2342   */\n  pop\n    /* \"#utility.yul\":1956:2342   */\n  swap3\n  swap2\n  pop\n  pop\n  jump\t// out\n    /* \"#utility.yul\":2348:2619   */\ntag_9:\n    /* \"#utility.yul\":2478:2481   */\n  0x00\n    /* \"#utility.yul\":2500:2593   */\n  tag_60\n    /* \"#utility.yul\":2589:2592   */\n  dup3\n    /* \"#utility.yul\":2580:2586   */\n  dup5\n    /* \"#utility.yul\":2500:2593   */\n  tag_28\n  jump\t// in\ntag_60:\n    /* \"#utility.yul\":2493:2593   */\n  swap2\n  pop\n    /* \"#utility.yul\":2610:2613   */\n  dup2\n    /* \"#utility.yul\":2603:2613   */\n  swap1\n  pop\n    /* \"#utility.yul\":2348:2619   */\n  swap3\n  swap2\n  pop\n  pop\n  jump\t// out\n    /* \"#utility.yul\":2625:2794   */\ntag_29:\n    /* \"#utility.yul\":2709:2720   */\n  0x00\n    /* \"#utility.yul\":2743:2749   */\n  dup3\n    /* \"#utility.yul\":2738:2741   */\n  dup3\n    /* \"#utility.yul\":2731:2750   */\n  mstore\n    /* \"#utility.yul\":2783:2787   */\n  0x20\n    /* \"#utility.yul\":2778:2781   */\n  dup3\n    /* \"#utility.yul\":2774:2788   */\n  add\n    /* \"#utility.yul\":2759:2788   */\n  swap1\n  pop\n    /* \"#utility.yul\":2625:2794   */\n  swap3\n  swap2\n  pop\n  pop\n  jump\t// out\n    /* \"#utility.yul\":2800:2956   */\ntag_30:\n    /* \"#utility.yul\":2940:2948   */\n  0x4661696c65640000000000000000000000000000000000000000000000000000\n    /* \"#utility.yul\":2936:2937   */\n  0x00\n    /* \"#utility.yul\":2928:2934   */\n  dup3\n    /* \"#utility.yul\":2924:2938   */\n  add\n    /* \"#utility.yul\":2917:2949   */\n  mstore\n    /* \"#utility.yul\":2800:2956   */\n  pop\n  jump\t// out\n    /* \"#utility.yul\":2962:3327   */\ntag_31:\n    /* \"#utility.yul\":3104:3107   */\n  0x00\n    /* \"#utility.yul\":3125:3191   */\n  tag_64\n    /* \"#utility.yul\":3189:3190   */\n  0x06\n    /* \"#utility.yul\":3184:3187   */\n  dup4\n    /* \"#utility.yul\":3125:3191   */\n  tag_29\n  jump\t// in\ntag_64:\n    /* \"#utility.yul\":3118:3191   */\n  swap2\n  pop\n    /* \"#utility.yul\":3200:3293   */\n  tag_65\n    /* \"#utility.yul\":3289:3292   */\n  dup3\n    /* \"#utility.yul\":3200:3293   */\n  tag_30\n  jump\t// in\ntag_65:\n    /* \"#utility.yul\":3318:3320   */\n  0x20\n    /* \"#utility.yul\":3313:3316   */\n  dup3\n    /* \"#utility.yul\":3309:3321   */\n  add\n    /* \"#utility.yul\":3302:3321   */\n  swap1\n  pop\n    /* \"#utility.yul\":2962:3327   */\n  swap2\n  swap1\n  pop\n  jump\t// out\n    /* \"#utility.yul\":3333:3752   */\ntag_15:\n    /* \"#utility.yul\":3499:3503   */\n  0x00\n    /* \"#utility.yul\":3537:3539   */\n  0x20\n    /* \"#utility.yul\":3526:3535   */\n  dup3\n    /* \"#utility.yul\":3522:3540   */\n  add\n    /* \"#utility.yul\":3514:3540   */\n  swap1\n  pop\n    /* \"#utility.yul\":3586:3595   */\n  dup2\n    /* \"#utility.yul\":3580:3584   */\n  dup2\n    /* \"#utility.yul\":3576:3596   */\n  sub\n    /* \"#utility.yul\":3572:3573   */\n  0x00\n    /* \"#utility.yul\":3561:3570   */\n  dup4\n    /* \"#utility.yul\":3557:3574   */\n  add\n    /* \"#utility.yul\":3550:3597   */\n  mstore\n    /* \"#utility.yul\":3614:3745   */\n  tag_67\n    /* \"#utility.yul\":3740:3744   */\n  dup2\n    /* \"#utility.yul\":3614:3745   */\n  tag_31\n  jump\t// in\ntag_67:\n    /* \"#utility.yul\":3606:3745   */\n  swap1\n  pop\n    /* \"#utility.yul\":3333:3752   */\n  swap2\n  swap1\n  pop\n  jump\t// out\n    /* \"Code Test/CodeTest_10.sol\":2417:4980  contract Bank{... */\ntag_16:\n  dataSize(sub_0)\n  dup1\n  dataOffset(sub_0)\n  0x00\n  codecopy\n  0x00\n  return\nstop\n\nsub_0: assembly {\n        /* \"Code Test/CodeTest_10.sol\":2417:4980  contract Bank{... */\n      mstore(0x40, 0x80)\n      jumpi(tag_1, lt(calldatasize, 0x04))\n      shr(0xe0, calldataload(0x00))\n      dup1\n      0x84fe627a\n      gt\n      tag_11\n      jumpi\n      dup1\n      0x84fe627a\n      eq\n      tag_7\n      jumpi\n      dup1\n      0xa87430ba\n      eq\n      tag_8\n      jumpi\n      dup1\n      0xbf96ae63\n      eq\n      tag_9\n      jumpi\n      dup1\n      0xd0e30db0\n      eq\n      tag_10\n      jumpi\n      jump(tag_2)\n    tag_11:\n      dup1\n      0x09921939\n      eq\n      tag_3\n      jumpi\n      dup1\n      0x2e1a7d4d\n      eq\n      tag_4\n      jumpi\n      dup1\n      0x6da1339c\n      eq\n      tag_5\n      jumpi\n      dup1\n      0x6f77926b\n      eq\n      tag_6\n      jumpi\n      jump(tag_2)\n    tag_1:\n      jumpi(tag_2, calldatasize)\n      stop\n    tag_2:\n      0x00\n      dup1\n      revert\n        /* \"Code Test/CodeTest_10.sol\":4098:4478  function transfer1(address payable _to, uint _amount) public {... */\n    tag_3:\n      callvalue\n      dup1\n      iszero\n      tag_14\n      jumpi\n      0x00\n      dup1\n      revert\n    tag_14:\n      pop\n      tag_15\n      0x04\n      dup1\n      calldatasize\n      sub\n      dup2\n      add\n      swap1\n      tag_16\n      swap2\n      swap1\n      tag_17\n      jump\t// in\n    tag_16:\n      tag_18\n      jump\t// in\n    tag_15:\n      stop\n        /* \"Code Test/CodeTest_10.sol\":3669:3964  function withdraw(uint _amount) public {... */\n    tag_4:\n      callvalue\n      dup1\n      iszero\n      tag_19\n      jumpi\n      0x00\n      dup1\n      revert\n    tag_19:\n      pop\n      tag_20\n      0x04\n      dup1\n      calldatasize\n      sub\n      dup2\n      add\n      swap1\n      tag_21\n      swap2\n      swap1\n      tag_22\n      jump\t// in\n    tag_21:\n      tag_23\n      jump\t// in\n    tag_20:\n      stop\n        /* \"Code Test/CodeTest_10.sol\":3390:3569  function _deposit(address _addr, uint _amount) public {... */\n    tag_5:\n      callvalue\n      dup1\n      iszero\n      tag_24\n      jumpi\n      0x00\n      dup1\n      revert\n    tag_24:\n      pop\n      tag_25\n      0x04\n      dup1\n      calldatasize\n      sub\n      dup2\n      add\n      swap1\n      tag_26\n      swap2\n      swap1\n      tag_27\n      jump\t// in\n    tag_26:\n      tag_28\n      jump\t// in\n    tag_25:\n      stop\n        /* \"Code Test/CodeTest_10.sol\":2842:2943  function getUser(address _addr) public view returns(User memory) {... */\n    tag_6:\n      callvalue\n      dup1\n      iszero\n      tag_29\n      jumpi\n      0x00\n      dup1\n      revert\n    tag_29:\n      pop\n      tag_30\n      0x04\n      dup1\n      calldatasize\n      sub\n      dup2\n      add\n      swap1\n      tag_31\n      swap2\n      swap1\n      tag_32\n      jump\t// in\n    tag_31:\n      tag_33\n      jump\t// in\n    tag_30:\n      mload(0x40)\n      tag_34\n      swap2\n      swap1\n      tag_35\n      jump\t// in\n    tag_34:\n      mload(0x40)\n      dup1\n      swap2\n      sub\n      swap1\n      return\n        /* \"Code Test/CodeTest_10.sol\":4593:4977  function transfer1(address payable _bank, address _user, uint _amount) public {... */\n    tag_7:\n      callvalue\n      dup1\n      iszero\n      tag_36\n      jumpi\n      0x00\n      dup1\n      revert\n    tag_36:\n      pop\n      tag_37\n      0x04\n      dup1\n      calldatasize\n      sub\n      dup2\n      add\n      swap1\n      tag_38\n      swap2\n      swap1\n      tag_39\n      jump\t// in\n    tag_38:\n      tag_40\n      jump\t// in\n    tag_37:\n      stop\n        /* \"Code Test/CodeTest_10.sol\":2798:2835  mapping(address => User) public users */\n    tag_8:\n      callvalue\n      dup1\n      iszero\n      tag_41\n      jumpi\n      0x00\n      dup1\n      revert\n    tag_41:\n      pop\n      tag_42\n      0x04\n      dup1\n      calldatasize\n      sub\n      dup2\n      add\n      swap1\n      tag_43\n      swap2\n      swap1\n      tag_32\n      jump\t// in\n    tag_43:\n      tag_44\n      jump\t// in\n    tag_42:\n      mload(0x40)\n      tag_45\n      swap3\n      swap2\n      swap1\n      tag_46\n      jump\t// in\n    tag_45:\n      mload(0x40)\n      dup1\n      swap2\n      sub\n      swap1\n      return\n        /* \"Code Test/CodeTest_10.sol\":3033:3114  function signUp() public {... */\n    tag_9:\n      callvalue\n      dup1\n      iszero\n      tag_47\n      jumpi\n      0x00\n      dup1\n      revert\n    tag_47:\n      pop\n      tag_48\n      tag_49\n      jump\t// in\n    tag_48:\n      stop\n        /* \"Code Test/CodeTest_10.sol\":3214:3384  function deposit() public payable{... */\n    tag_10:\n      tag_50\n      tag_51\n      jump\t// in\n    tag_50:\n      stop\n        /* \"Code Test/CodeTest_10.sol\":4098:4478  function transfer1(address payable _to, uint _amount) public {... */\n    tag_18:\n        /* \"Code Test/CodeTest_10.sol\":4223:4224  0 */\n      0x00\n        /* \"Code Test/CodeTest_10.sol\":4177:4225  Bank(_to).getUser(msg.sender).addr != address(0) */\n      0xffffffffffffffffffffffffffffffffffffffff\n      and\n        /* \"Code Test/CodeTest_10.sol\":4182:4185  _to */\n      dup3\n        /* \"Code Test/CodeTest_10.sol\":4177:4194  Bank(_to).getUser */\n      0xffffffffffffffffffffffffffffffffffffffff\n      and\n      0x6f77926b\n        /* \"Code Test/CodeTest_10.sol\":4195:4205  msg.sender */\n      caller\n        /* \"Code Test/CodeTest_10.sol\":4177:4206  Bank(_to).getUser(msg.sender) */\n      mload(0x40)\n      dup3\n      0xffffffff\n      and\n      0xe0\n      shl\n      dup2\n      mstore\n      0x04\n      add\n      tag_53\n      swap2\n      swap1\n      tag_54\n      jump\t// in\n    tag_53:\n      0x40\n      dup1\n      mload\n      dup1\n      dup4\n      sub\n      dup2\n      dup7\n      gas\n      staticcall\n      iszero\n      dup1\n      iszero\n      tag_56\n      jumpi\n      returndatasize\n      0x00\n      dup1\n      returndatacopy\n      revert(0x00, returndatasize)\n    tag_56:\n      pop\n      pop\n      pop\n      pop\n      mload(0x40)\n      returndatasize\n      not(0x1f)\n      0x1f\n      dup3\n      add\n      and\n      dup3\n      add\n      dup1\n      0x40\n      mstore\n      pop\n      dup2\n      add\n      swap1\n      tag_57\n      swap2\n      swap1\n      tag_58\n      jump\t// in\n    tag_57:\n        /* \"Code Test/CodeTest_10.sol\":4177:4211  Bank(_to).getUser(msg.sender).addr */\n      0x00\n      add\n      mload\n        /* \"Code Test/CodeTest_10.sol\":4177:4225  Bank(_to).getUser(msg.sender).addr != address(0) */\n      0xffffffffffffffffffffffffffffffffffffffff\n      and\n      sub\n        /* \"Code Test/CodeTest_10.sol\":4169:4252  require(Bank(_to).getUser(msg.sender).addr != address(0), \"need to register first\") */\n      tag_59\n      jumpi\n      mload(0x40)\n      0x08c379a000000000000000000000000000000000000000000000000000000000\n      dup2\n      mstore\n      0x04\n      add\n      tag_60\n      swap1\n      tag_61\n      jump\t// in\n    tag_60:\n      mload(0x40)\n      dup1\n      swap2\n      sub\n      swap1\n      revert\n    tag_59:\n        /* \"Code Test/CodeTest_10.sol\":4298:4305  _amount */\n      dup1\n        /* \"Code Test/CodeTest_10.sol\":4270:4275  users */\n      0x00\n        /* \"Code Test/CodeTest_10.sol\":4270:4287  users[msg.sender] */\n      dup1\n        /* \"Code Test/CodeTest_10.sol\":4276:4286  msg.sender */\n      caller\n        /* \"Code Test/CodeTest_10.sol\":4270:4287  users[msg.sender] */\n      0xffffffffffffffffffffffffffffffffffffffff\n      and\n      0xffffffffffffffffffffffffffffffffffffffff\n      and\n      dup2\n      mstore\n      0x20\n      add\n      swap1\n      dup2\n      mstore\n      0x20\n      add\n      0x00\n      keccak256\n        /* \"Code Test/CodeTest_10.sol\":4270:4295  users[msg.sender].balance */\n      0x01\n      add\n      sload\n        /* \"Code Test/CodeTest_10.sol\":4270:4305  users[msg.sender].balance > _amount */\n      gt\n        /* \"Code Test/CodeTest_10.sol\":4262:4326  require(users[msg.sender].balance > _amount, \"not enough money\") */\n      tag_62\n      jumpi\n      mload(0x40)\n      0x08c379a000000000000000000000000000000000000000000000000000000000\n      dup2\n      mstore\n      0x04\n      add\n      tag_63\n      swap1\n      tag_64\n      jump\t// in\n    tag_63:\n      mload(0x40)\n      dup1\n      swap2\n      sub\n      swap1\n      revert\n    tag_62:\n        /* \"Code Test/CodeTest_10.sol\":4337:4340  _to */\n      dup2\n        /* \"Code Test/CodeTest_10.sol\":4337:4349  _to.transfer */\n      0xffffffffffffffffffffffffffffffffffffffff\n      and\n        /* \"Code Test/CodeTest_10.sol\":4337:4358  _to.transfer(_amount) */\n      0x08fc\n        /* \"Code Test/CodeTest_10.sol\":4350:4357  _amount */\n      dup3\n        /* \"Code Test/CodeTest_10.sol\":4337:4358  _to.transfer(_amount) */\n      swap1\n      dup2\n      iszero\n      mul\n      swap1\n      mload(0x40)\n      0x00\n      mload(0x40)\n      dup1\n      dup4\n      sub\n      dup2\n      dup6\n      dup9\n      dup9\n      call\n      swap4\n      pop\n      pop\n      pop\n      pop\n      iszero\n      dup1\n      iszero\n      tag_66\n      jumpi\n      returndatasize\n      0x00\n      dup1\n      returndatacopy\n      revert(0x00, returndatasize)\n    tag_66:\n      pop\n        /* \"Code Test/CodeTest_10.sol\":4406:4413  _amount */\n      dup1\n        /* \"Code Test/CodeTest_10.sol\":4377:4382  users */\n      0x00\n        /* \"Code Test/CodeTest_10.sol\":4377:4394  users[msg.sender] */\n      dup1\n        /* \"Code Test/CodeTest_10.sol\":4383:4393  msg.sender */\n      caller\n        /* \"Code Test/CodeTest_10.sol\":4377:4394  users[msg.sender] */\n      0xffffffffffffffffffffffffffffffffffffffff\n      and\n      0xffffffffffffffffffffffffffffffffffffffff\n      and\n      dup2\n      mstore\n      0x20\n      add\n      swap1\n      dup2\n      mstore\n      0x20\n      add\n      0x00\n      keccak256\n        /* \"Code Test/CodeTest_10.sol\":4377:4402  users[msg.sender].balance */\n      0x01\n      add\n      0x00\n        /* \"Code Test/CodeTest_10.sol\":4377:4413  users[msg.sender].balance -= _amount */\n      dup3\n      dup3\n      sload\n      tag_67\n      swap2\n      swap1\n      tag_68\n      jump\t// in\n    tag_67:\n      swap3\n      pop\n      pop\n      dup2\n      swap1\n      sstore\n      pop\n        /* \"Code Test/CodeTest_10.sol\":4428:4431  _to */\n      dup2\n        /* \"Code Test/CodeTest_10.sol\":4423:4441  Bank(_to)._deposit */\n      0xffffffffffffffffffffffffffffffffffffffff\n      and\n      0x6da1339c\n        /* \"Code Test/CodeTest_10.sol\":4442:4452  msg.sender */\n      caller\n        /* \"Code Test/CodeTest_10.sol\":4454:4461  _amount */\n      dup4\n        /* \"Code Test/CodeTest_10.sol\":4423:4462  Bank(_to)._deposit(msg.sender, _amount) */\n      mload(0x40)\n      dup4\n      0xffffffff\n      and\n      0xe0\n      shl\n      dup2\n      mstore\n      0x04\n      add\n      tag_69\n      swap3\n      swap2\n      swap1\n      tag_46\n      jump\t// in\n    tag_69:\n      0x00\n      mload(0x40)\n      dup1\n      dup4\n      sub\n      dup2\n      0x00\n      dup8\n      dup1\n      extcodesize\n      iszero\n      dup1\n      iszero\n      tag_70\n      jumpi\n      0x00\n      dup1\n      revert\n    tag_70:\n      pop\n      gas\n      call\n      iszero\n      dup1\n      iszero\n      tag_72\n      jumpi\n      returndatasize\n      0x00\n      dup1\n      returndatacopy\n      revert(0x00, returndatasize)\n    tag_72:\n      pop\n      pop\n      pop\n      pop\n        /* \"Code Test/CodeTest_10.sol\":4098:4478  function transfer1(address payable _to, uint _amount) public {... */\n      pop\n      pop\n      jump\t// out\n        /* \"Code Test/CodeTest_10.sol\":3669:3964  function withdraw(uint _amount) public {... */\n    tag_23:\n        /* \"Code Test/CodeTest_10.sol\":3760:3761  0 */\n      0x00\n        /* \"Code Test/CodeTest_10.sol\":3726:3762  users[msg.sender].addr != address(0) */\n      0xffffffffffffffffffffffffffffffffffffffff\n      and\n        /* \"Code Test/CodeTest_10.sol\":3726:3731  users */\n      0x00\n        /* \"Code Test/CodeTest_10.sol\":3726:3743  users[msg.sender] */\n      dup1\n        /* \"Code Test/CodeTest_10.sol\":3732:3742  msg.sender */\n      caller\n        /* \"Code Test/CodeTest_10.sol\":3726:3743  users[msg.sender] */\n      0xffffffffffffffffffffffffffffffffffffffff\n      and\n      0xffffffffffffffffffffffffffffffffffffffff\n      and\n      dup2\n      mstore\n      0x20\n      add\n      swap1\n      dup2\n      mstore\n      0x20\n      add\n      0x00\n      keccak256\n        /* \"Code Test/CodeTest_10.sol\":3726:3748  users[msg.sender].addr */\n      0x00\n      add\n      0x00\n      swap1\n      sload\n      swap1\n      0x0100\n      exp\n      swap1\n      div\n      0xffffffffffffffffffffffffffffffffffffffff\n      and\n        /* \"Code Test/CodeTest_10.sol\":3726:3762  users[msg.sender].addr != address(0) */\n      0xffffffffffffffffffffffffffffffffffffffff\n      and\n      sub\n        /* \"Code Test/CodeTest_10.sol\":3718:3789  require(users[msg.sender].addr != address(0), \"need to register first\") */\n      tag_74\n      jumpi\n      mload(0x40)\n      0x08c379a000000000000000000000000000000000000000000000000000000000\n      dup2\n      mstore\n      0x04\n      add\n      tag_75\n      swap1\n      tag_61\n      jump\t// in\n    tag_75:\n      mload(0x40)\n      dup1\n      swap2\n      sub\n      swap1\n      revert\n    tag_74:\n        /* \"Code Test/CodeTest_10.sol\":3835:3842  _amount */\n      dup1\n        /* \"Code Test/CodeTest_10.sol\":3807:3812  users */\n      0x00\n        /* \"Code Test/CodeTest_10.sol\":3807:3824  users[msg.sender] */\n      dup1\n        /* \"Code Test/CodeTest_10.sol\":3813:3823  msg.sender */\n      caller\n        /* \"Code Test/CodeTest_10.sol\":3807:3824  users[msg.sender] */\n      0xffffffffffffffffffffffffffffffffffffffff\n      and\n      0xffffffffffffffffffffffffffffffffffffffff\n      and\n      dup2\n      mstore\n      0x20\n      add\n      swap1\n      dup2\n      mstore\n      0x20\n      add\n      0x00\n      keccak256\n        /* \"Code Test/CodeTest_10.sol\":3807:3832  users[msg.sender].balance */\n      0x01\n      add\n      sload\n        /* \"Code Test/CodeTest_10.sol\":3807:3842  users[msg.sender].balance > _amount */\n      gt\n        /* \"Code Test/CodeTest_10.sol\":3799:3863  require(users[msg.sender].balance > _amount, \"not enough money\") */\n      tag_76\n      jumpi\n      mload(0x40)\n      0x08c379a000000000000000000000000000000000000000000000000000000000\n      dup2\n      mstore\n      0x04\n      add\n      tag_77\n      swap1\n      tag_64\n      jump\t// in\n    tag_77:\n      mload(0x40)\n      dup1\n      swap2\n      sub\n      swap1\n      revert\n    tag_76:\n        /* \"Code Test/CodeTest_10.sol\":3882:3892  msg.sender */\n      caller\n        /* \"Code Test/CodeTest_10.sol\":3874:3902  payable(msg.sender).transfer */\n      0xffffffffffffffffffffffffffffffffffffffff\n      and\n        /* \"Code Test/CodeTest_10.sol\":3874:3911  payable(msg.sender).transfer(_amount) */\n      0x08fc\n        /* \"Code Test/CodeTest_10.sol\":3903:3910  _amount */\n      dup3\n        /* \"Code Test/CodeTest_10.sol\":3874:3911  payable(msg.sender).transfer(_amount) */\n      swap1\n      dup2\n      iszero\n      mul\n      swap1\n      mload(0x40)\n      0x00\n      mload(0x40)\n      dup1\n      dup4\n      sub\n      dup2\n      dup6\n      dup9\n      dup9\n      call\n      swap4\n      pop\n      pop\n      pop\n      pop\n      iszero\n      dup1\n      iszero\n      tag_79\n      jumpi\n      returndatasize\n      0x00\n      dup1\n      returndatacopy\n      revert(0x00, returndatasize)\n    tag_79:\n      pop\n        /* \"Code Test/CodeTest_10.sol\":3950:3957  _amount */\n      dup1\n        /* \"Code Test/CodeTest_10.sol\":3921:3926  users */\n      0x00\n        /* \"Code Test/CodeTest_10.sol\":3921:3938  users[msg.sender] */\n      dup1\n        /* \"Code Test/CodeTest_10.sol\":3927:3937  msg.sender */\n      caller\n        /* \"Code Test/CodeTest_10.sol\":3921:3938  users[msg.sender] */\n      0xffffffffffffffffffffffffffffffffffffffff\n      and\n      0xffffffffffffffffffffffffffffffffffffffff\n      and\n      dup2\n      mstore\n      0x20\n      add\n      swap1\n      dup2\n      mstore\n      0x20\n      add\n      0x00\n      keccak256\n        /* \"Code Test/CodeTest_10.sol\":3921:3946  users[msg.sender].balance */\n      0x01\n      add\n      0x00\n        /* \"Code Test/CodeTest_10.sol\":3921:3957  users[msg.sender].balance -= _amount */\n      dup3\n      dup3\n      sload\n      tag_80\n      swap2\n      swap1\n      tag_68\n      jump\t// in\n    tag_80:\n      swap3\n      pop\n      pop\n      dup2\n      swap1\n      sstore\n      pop\n        /* \"Code Test/CodeTest_10.sol\":3669:3964  function withdraw(uint _amount) public {... */\n      pop\n      jump\t// out\n        /* \"Code Test/CodeTest_10.sol\":3390:3569  function _deposit(address _addr, uint _amount) public {... */\n    tag_28:\n        /* \"Code Test/CodeTest_10.sol\":3491:3492  0 */\n      0x00\n        /* \"Code Test/CodeTest_10.sol\":3462:3493  users[_addr].addr != address(0) */\n      0xffffffffffffffffffffffffffffffffffffffff\n      and\n        /* \"Code Test/CodeTest_10.sol\":3462:3467  users */\n      0x00\n        /* \"Code Test/CodeTest_10.sol\":3462:3474  users[_addr] */\n      dup1\n        /* \"Code Test/CodeTest_10.sol\":3468:3473  _addr */\n      dup5\n        /* \"Code Test/CodeTest_10.sol\":3462:3474  users[_addr] */\n      0xffffffffffffffffffffffffffffffffffffffff\n      and\n      0xffffffffffffffffffffffffffffffffffffffff\n      and\n      dup2\n      mstore\n      0x20\n      add\n      swap1\n      dup2\n      mstore\n      0x20\n      add\n      0x00\n      keccak256\n        /* \"Code Test/CodeTest_10.sol\":3462:3479  users[_addr].addr */\n      0x00\n      add\n      0x00\n      swap1\n      sload\n      swap1\n      0x0100\n      exp\n      swap1\n      div\n      0xffffffffffffffffffffffffffffffffffffffff\n      and\n        /* \"Code Test/CodeTest_10.sol\":3462:3493  users[_addr].addr != address(0) */\n      0xffffffffffffffffffffffffffffffffffffffff\n      and\n      sub\n        /* \"Code Test/CodeTest_10.sol\":3454:3520  require(users[_addr].addr != address(0), \"need to register first\") */\n      tag_82\n      jumpi\n      mload(0x40)\n      0x08c379a000000000000000000000000000000000000000000000000000000000\n      dup2\n      mstore\n      0x04\n      add\n      tag_83\n      swap1\n      tag_61\n      jump\t// in\n    tag_83:\n      mload(0x40)\n      dup1\n      swap2\n      sub\n      swap1\n      revert\n    tag_82:\n        /* \"Code Test/CodeTest_10.sol\":3555:3562  _amount */\n      dup1\n        /* \"Code Test/CodeTest_10.sol\":3531:3536  users */\n      0x00\n        /* \"Code Test/CodeTest_10.sol\":3531:3543  users[_addr] */\n      dup1\n        /* \"Code Test/CodeTest_10.sol\":3537:3542  _addr */\n      dup5\n        /* \"Code Test/CodeTest_10.sol\":3531:3543  users[_addr] */\n      0xffffffffffffffffffffffffffffffffffffffff\n      and\n      0xffffffffffffffffffffffffffffffffffffffff\n      and\n      dup2\n      mstore\n      0x20\n      add\n      swap1\n      dup2\n      mstore\n      0x20\n      add\n      0x00\n      keccak256\n        /* \"Code Test/CodeTest_10.sol\":3531:3551  users[_addr].balance */\n      0x01\n      add\n      0x00\n        /* \"Code Test/CodeTest_10.sol\":3531:3562  users[_addr].balance += _amount */\n      dup3\n      dup3\n      sload\n      tag_84\n      swap2\n      swap1\n      tag_85\n      jump\t// in\n    tag_84:\n      swap3\n      pop\n      pop\n      dup2\n      swap1\n      sstore\n      pop\n        /* \"Code Test/CodeTest_10.sol\":3390:3569  function _deposit(address _addr, uint _amount) public {... */\n      pop\n      pop\n      jump\t// out\n        /* \"Code Test/CodeTest_10.sol\":2842:2943  function getUser(address _addr) public view returns(User memory) {... */\n    tag_33:\n        /* \"Code Test/CodeTest_10.sol\":2894:2905  User memory */\n      tag_86\n      tag_87\n      jump\t// in\n    tag_86:\n        /* \"Code Test/CodeTest_10.sol\":2924:2929  users */\n      0x00\n        /* \"Code Test/CodeTest_10.sol\":2924:2936  users[_addr] */\n      dup1\n        /* \"Code Test/CodeTest_10.sol\":2930:2935  _addr */\n      dup4\n        /* \"Code Test/CodeTest_10.sol\":2924:2936  users[_addr] */\n      0xffffffffffffffffffffffffffffffffffffffff\n      and\n      0xffffffffffffffffffffffffffffffffffffffff\n      and\n      dup2\n      mstore\n      0x20\n      add\n      swap1\n      dup2\n      mstore\n      0x20\n      add\n      0x00\n      keccak256\n        /* \"Code Test/CodeTest_10.sol\":2917:2936  return users[_addr] */\n      mload(0x40)\n      dup1\n      0x40\n      add\n      0x40\n      mstore\n      swap1\n      dup2\n      0x00\n      dup3\n      add\n      0x00\n      swap1\n      sload\n      swap1\n      0x0100\n      exp\n      swap1\n      div\n      0xffffffffffffffffffffffffffffffffffffffff\n      and\n      0xffffffffffffffffffffffffffffffffffffffff\n      and\n      0xffffffffffffffffffffffffffffffffffffffff\n      and\n      dup2\n      mstore\n      0x20\n      add\n      0x01\n      dup3\n      add\n      sload\n      dup2\n      mstore\n      pop\n      pop\n      swap1\n      pop\n        /* \"Code Test/CodeTest_10.sol\":2842:2943  function getUser(address _addr) public view returns(User memory) {... */\n      swap2\n      swap1\n      pop\n      jump\t// out\n        /* \"Code Test/CodeTest_10.sol\":4593:4977  function transfer1(address payable _bank, address _user, uint _amount) public {... */\n    tag_40:\n        /* \"Code Test/CodeTest_10.sol\":4732:4733  0 */\n      0x00\n        /* \"Code Test/CodeTest_10.sol\":4689:4734  Bank(_bank).getUser(_user).addr != address(0) */\n      0xffffffffffffffffffffffffffffffffffffffff\n      and\n        /* \"Code Test/CodeTest_10.sol\":4694:4699  _bank */\n      dup4\n        /* \"Code Test/CodeTest_10.sol\":4689:4708  Bank(_bank).getUser */\n      0xffffffffffffffffffffffffffffffffffffffff\n      and\n      0x6f77926b\n        /* \"Code Test/CodeTest_10.sol\":4709:4714  _user */\n      dup5\n        /* \"Code Test/CodeTest_10.sol\":4689:4715  Bank(_bank).getUser(_user) */\n      mload(0x40)\n      dup3\n      0xffffffff\n      and\n      0xe0\n      shl\n      dup2\n      mstore\n      0x04\n      add\n      tag_90\n      swap2\n      swap1\n      tag_54\n      jump\t// in\n    tag_90:\n      0x40\n      dup1\n      mload\n      dup1\n      dup4\n      sub\n      dup2\n      dup7\n      gas\n      staticcall\n      iszero\n      dup1\n      iszero\n      tag_92\n      jumpi\n      returndatasize\n      0x00\n      dup1\n      returndatacopy\n      revert(0x00, returndatasize)\n    tag_92:\n      pop\n      pop\n      pop\n      pop\n      mload(0x40)\n      returndatasize\n      not(0x1f)\n      0x1f\n      dup3\n      add\n      and\n      dup3\n      add\n      dup1\n      0x40\n      mstore\n      pop\n      dup2\n      add\n      swap1\n      tag_93\n      swap2\n      swap1\n      tag_58\n      jump\t// in\n    tag_93:\n        /* \"Code Test/CodeTest_10.sol\":4689:4720  Bank(_bank).getUser(_user).addr */\n      0x00\n      add\n      mload\n        /* \"Code Test/CodeTest_10.sol\":4689:4734  Bank(_bank).getUser(_user).addr != address(0) */\n      0xffffffffffffffffffffffffffffffffffffffff\n      and\n      sub\n        /* \"Code Test/CodeTest_10.sol\":4681:4761  require(Bank(_bank).getUser(_user).addr != address(0), \"need to register first\") */\n      tag_94\n      jumpi\n      mload(0x40)\n      0x08c379a000000000000000000000000000000000000000000000000000000000\n      dup2\n      mstore\n      0x04\n      add\n      tag_95\n      swap1\n      tag_61\n      jump\t// in\n    tag_95:\n      mload(0x40)\n      dup1\n      swap2\n      sub\n      swap1\n      revert\n    tag_94:\n        /* \"Code Test/CodeTest_10.sol\":4807:4814  _amount */\n      dup1\n        /* \"Code Test/CodeTest_10.sol\":4779:4784  users */\n      0x00\n        /* \"Code Test/CodeTest_10.sol\":4779:4796  users[msg.sender] */\n      dup1\n        /* \"Code Test/CodeTest_10.sol\":4785:4795  msg.sender */\n      caller\n        /* \"Code Test/CodeTest_10.sol\":4779:4796  users[msg.sender] */\n      0xffffffffffffffffffffffffffffffffffffffff\n      and\n      0xffffffffffffffffffffffffffffffffffffffff\n      and\n      dup2\n      mstore\n      0x20\n      add\n      swap1\n      dup2\n      mstore\n      0x20\n      add\n      0x00\n      keccak256\n        /* \"Code Test/CodeTest_10.sol\":4779:4804  users[msg.sender].balance */\n      0x01\n      add\n      sload\n        /* \"Code Test/CodeTest_10.sol\":4779:4814  users[msg.sender].balance > _amount */\n      gt\n        /* \"Code Test/CodeTest_10.sol\":4771:4835  require(users[msg.sender].balance > _amount, \"not enough money\") */\n      tag_96\n      jumpi\n      mload(0x40)\n      0x08c379a000000000000000000000000000000000000000000000000000000000\n      dup2\n      mstore\n      0x04\n      add\n      tag_97\n      swap1\n      tag_64\n      jump\t// in\n    tag_97:\n      mload(0x40)\n      dup1\n      swap2\n      sub\n      swap1\n      revert\n    tag_96:\n        /* \"Code Test/CodeTest_10.sol\":4846:4851  _bank */\n      dup3\n        /* \"Code Test/CodeTest_10.sol\":4846:4860  _bank.transfer */\n      0xffffffffffffffffffffffffffffffffffffffff\n      and\n        /* \"Code Test/CodeTest_10.sol\":4846:4869  _bank.transfer(_amount) */\n      0x08fc\n        /* \"Code Test/CodeTest_10.sol\":4861:4868  _amount */\n      dup3\n        /* \"Code Test/CodeTest_10.sol\":4846:4869  _bank.transfer(_amount) */\n      swap1\n      dup2\n      iszero\n      mul\n      swap1\n      mload(0x40)\n      0x00\n      mload(0x40)\n      dup1\n      dup4\n      sub\n      dup2\n      dup6\n      dup9\n      dup9\n      call\n      swap4\n      pop\n      pop\n      pop\n      pop\n      iszero\n      dup1\n      iszero\n      tag_99\n      jumpi\n      returndatasize\n      0x00\n      dup1\n      returndatacopy\n      revert(0x00, returndatasize)\n    tag_99:\n      pop\n        /* \"Code Test/CodeTest_10.sol\":4917:4924  _amount */\n      dup1\n        /* \"Code Test/CodeTest_10.sol\":4888:4893  users */\n      0x00\n        /* \"Code Test/CodeTest_10.sol\":4888:4905  users[msg.sender] */\n      dup1\n        /* \"Code Test/CodeTest_10.sol\":4894:4904  msg.sender */\n      caller\n        /* \"Code Test/CodeTest_10.sol\":4888:4905  users[msg.sender] */\n      0xffffffffffffffffffffffffffffffffffffffff\n      and\n      0xffffffffffffffffffffffffffffffffffffffff\n      and\n      dup2\n      mstore\n      0x20\n      add\n      swap1\n      dup2\n      mstore\n      0x20\n      add\n      0x00\n      keccak256\n        /* \"Code Test/CodeTest_10.sol\":4888:4913  users[msg.sender].balance */\n      0x01\n      add\n      0x00\n        /* \"Code Test/CodeTest_10.sol\":4888:4924  users[msg.sender].balance -= _amount */\n      dup3\n      dup3\n      sload\n      tag_100\n      swap2\n      swap1\n      tag_68\n      jump\t// in\n    tag_100:\n      swap3\n      pop\n      pop\n      dup2\n      swap1\n      sstore\n      pop\n        /* \"Code Test/CodeTest_10.sol\":4939:4944  _bank */\n      dup3\n        /* \"Code Test/CodeTest_10.sol\":4934:4954  Bank(_bank)._deposit */\n      0xffffffffffffffffffffffffffffffffffffffff\n      and\n      0x6da1339c\n        /* \"Code Test/CodeTest_10.sol\":4955:4960  _user */\n      dup4\n        /* \"Code Test/CodeTest_10.sol\":4962:4969  _amount */\n      dup4\n        /* \"Code Test/CodeTest_10.sol\":4934:4970  Bank(_bank)._deposit(_user, _amount) */\n      mload(0x40)\n      dup4\n      0xffffffff\n      and\n      0xe0\n      shl\n      dup2\n      mstore\n      0x04\n      add\n      tag_101\n      swap3\n      swap2\n      swap1\n      tag_46\n      jump\t// in\n    tag_101:\n      0x00\n      mload(0x40)\n      dup1\n      dup4\n      sub\n      dup2\n      0x00\n      dup8\n      dup1\n      extcodesize\n      iszero\n      dup1\n      iszero\n      tag_102\n      jumpi\n      0x00\n      dup1\n      revert\n    tag_102:\n      pop\n      gas\n      call\n      iszero\n      dup1\n      iszero\n      tag_104\n      jumpi\n      returndatasize\n      0x00\n      dup1\n      returndatacopy\n      revert(0x00, returndatasize)\n    tag_104:\n      pop\n      pop\n      pop\n      pop\n        /* \"Code Test/CodeTest_10.sol\":4593:4977  function transfer1(address payable _bank, address _user, uint _amount) public {... */\n      pop\n      pop\n      pop\n      jump\t// out\n        /* \"Code Test/CodeTest_10.sol\":2798:2835  mapping(address => User) public users */\n    tag_44:\n      mstore(0x20, 0x00)\n      dup1\n      0x00\n      mstore\n      keccak256(0x00, 0x40)\n      0x00\n      swap2\n      pop\n      swap1\n      pop\n      dup1\n      0x00\n      add\n      0x00\n      swap1\n      sload\n      swap1\n      0x0100\n      exp\n      swap1\n      div\n      0xffffffffffffffffffffffffffffffffffffffff\n      and\n      swap1\n      dup1\n      0x01\n      add\n      sload\n      swap1\n      pop\n      dup3\n      jump\t// out\n        /* \"Code Test/CodeTest_10.sol\":3033:3114  function signUp() public {... */\n    tag_49:\n        /* \"Code Test/CodeTest_10.sol\":3088:3107  User(msg.sender, 0) */\n      mload(0x40)\n      dup1\n      0x40\n      add\n      0x40\n      mstore\n      dup1\n        /* \"Code Test/CodeTest_10.sol\":3093:3103  msg.sender */\n      caller\n        /* \"Code Test/CodeTest_10.sol\":3088:3107  User(msg.sender, 0) */\n      0xffffffffffffffffffffffffffffffffffffffff\n      and\n      dup2\n      mstore\n      0x20\n      add\n        /* \"Code Test/CodeTest_10.sol\":3105:3106  0 */\n      0x00\n        /* \"Code Test/CodeTest_10.sol\":3088:3107  User(msg.sender, 0) */\n      dup2\n      mstore\n      pop\n        /* \"Code Test/CodeTest_10.sol\":3068:3073  users */\n      0x00\n        /* \"Code Test/CodeTest_10.sol\":3068:3085  users[msg.sender] */\n      dup1\n        /* \"Code Test/CodeTest_10.sol\":3074:3084  msg.sender */\n      caller\n        /* \"Code Test/CodeTest_10.sol\":3068:3085  users[msg.sender] */\n      0xffffffffffffffffffffffffffffffffffffffff\n      and\n      0xffffffffffffffffffffffffffffffffffffffff\n      and\n      dup2\n      mstore\n      0x20\n      add\n      swap1\n      dup2\n      mstore\n      0x20\n      add\n      0x00\n      keccak256\n        /* \"Code Test/CodeTest_10.sol\":3068:3107  users[msg.sender] = User(msg.sender, 0) */\n      0x00\n      dup3\n      add\n      mload\n      dup2\n      0x00\n      add\n      exp(0x0100, 0x00)\n      dup2\n      sload\n      dup2\n      0xffffffffffffffffffffffffffffffffffffffff\n      mul\n      not\n      and\n      swap1\n      dup4\n      0xffffffffffffffffffffffffffffffffffffffff\n      and\n      mul\n      or\n      swap1\n      sstore\n      pop\n      0x20\n      dup3\n      add\n      mload\n      dup2\n      0x01\n      add\n      sstore\n      swap1\n      pop\n      pop\n        /* \"Code Test/CodeTest_10.sol\":3033:3114  function signUp() public {... */\n      jump\t// out\n        /* \"Code Test/CodeTest_10.sol\":3214:3384  function deposit() public payable{... */\n    tag_51:\n        /* \"Code Test/CodeTest_10.sol\":3299:3300  0 */\n      0x00\n        /* \"Code Test/CodeTest_10.sol\":3265:3301  users[msg.sender].addr != address(0) */\n      0xffffffffffffffffffffffffffffffffffffffff\n      and\n        /* \"Code Test/CodeTest_10.sol\":3265:3270  users */\n      0x00\n        /* \"Code Test/CodeTest_10.sol\":3265:3282  users[msg.sender] */\n      dup1\n        /* \"Code Test/CodeTest_10.sol\":3271:3281  msg.sender */\n      caller\n        /* \"Code Test/CodeTest_10.sol\":3265:3282  users[msg.sender] */\n      0xffffffffffffffffffffffffffffffffffffffff\n      and\n      0xffffffffffffffffffffffffffffffffffffffff\n      and\n      dup2\n      mstore\n      0x20\n      add\n      swap1\n      dup2\n      mstore\n      0x20\n      add\n      0x00\n      keccak256\n        /* \"Code Test/CodeTest_10.sol\":3265:3287  users[msg.sender].addr */\n      0x00\n      add\n      0x00\n      swap1\n      sload\n      swap1\n      0x0100\n      exp\n      swap1\n      div\n      0xffffffffffffffffffffffffffffffffffffffff\n      and\n        /* \"Code Test/CodeTest_10.sol\":3265:3301  users[msg.sender].addr != address(0) */\n      0xffffffffffffffffffffffffffffffffffffffff\n      and\n      sub\n        /* \"Code Test/CodeTest_10.sol\":3257:3328  require(users[msg.sender].addr != address(0), \"need to register first\") */\n      tag_107\n      jumpi\n      mload(0x40)\n      0x08c379a000000000000000000000000000000000000000000000000000000000\n      dup2\n      mstore\n      0x04\n      add\n      tag_108\n      swap1\n      tag_61\n      jump\t// in\n    tag_108:\n      mload(0x40)\n      dup1\n      swap2\n      sub\n      swap1\n      revert\n    tag_107:\n        /* \"Code Test/CodeTest_10.sol\":3368:3377  msg.value */\n      callvalue\n        /* \"Code Test/CodeTest_10.sol\":3339:3344  users */\n      0x00\n        /* \"Code Test/CodeTest_10.sol\":3339:3356  users[msg.sender] */\n      dup1\n        /* \"Code Test/CodeTest_10.sol\":3345:3355  msg.sender */\n      caller\n        /* \"Code Test/CodeTest_10.sol\":3339:3356  users[msg.sender] */\n      0xffffffffffffffffffffffffffffffffffffffff\n      and\n      0xffffffffffffffffffffffffffffffffffffffff\n      and\n      dup2\n      mstore\n      0x20\n      add\n      swap1\n      dup2\n      mstore\n      0x20\n      add\n      0x00\n      keccak256\n        /* \"Code Test/CodeTest_10.sol\":3339:3364  users[msg.sender].balance */\n      0x01\n      add\n      0x00\n        /* \"Code Test/CodeTest_10.sol\":3339:3377  users[msg.sender].balance += msg.value */\n      dup3\n      dup3\n      sload\n      tag_109\n      swap2\n      swap1\n      tag_85\n      jump\t// in\n    tag_109:\n      swap3\n      pop\n      pop\n      dup2\n      swap1\n      sstore\n      pop\n        /* \"Code Test/CodeTest_10.sol\":3214:3384  function deposit() public payable{... */\n      jump\t// out\n    tag_87:\n      mload(0x40)\n      dup1\n      0x40\n      add\n      0x40\n      mstore\n      dup1\n      and(0xffffffffffffffffffffffffffffffffffffffff, 0x00)\n      dup2\n      mstore\n      0x20\n      add\n      0x00\n      dup2\n      mstore\n      pop\n      swap1\n      jump\t// out\n        /* \"#utility.yul\":7:82   */\n    tag_110:\n        /* \"#utility.yul\":40:46   */\n      0x00\n        /* \"#utility.yul\":73:75   */\n      0x40\n        /* \"#utility.yul\":67:76   */\n      mload\n        /* \"#utility.yul\":57:76   */\n      swap1\n      pop\n        /* \"#utility.yul\":7:82   */\n      swap1\n      jump\t// out\n        /* \"#utility.yul\":88:205   */\n    tag_111:\n        /* \"#utility.yul\":197:198   */\n      0x00\n        /* \"#utility.yul\":194:195   */\n      dup1\n        /* \"#utility.yul\":187:199   */\n      revert\n        /* \"#utility.yul\":334:460   */\n    tag_113:\n        /* \"#utility.yul\":371:378   */\n      0x00\n        /* \"#utility.yul\":411:453   */\n      0xffffffffffffffffffffffffffffffffffffffff\n        /* \"#utility.yul\":404:409   */\n      dup3\n        /* \"#utility.yul\":400:454   */\n      and\n        /* \"#utility.yul\":389:454   */\n      swap1\n      pop\n        /* \"#utility.yul\":334:460   */\n      swap2\n      swap1\n      pop\n      jump\t// out\n        /* \"#utility.yul\":466:570   */\n    tag_114:\n        /* \"#utility.yul\":511:518   */\n      0x00\n        /* \"#utility.yul\":540:564   */\n      tag_149\n        /* \"#utility.yul\":558:563   */\n      dup3\n        /* \"#utility.yul\":540:564   */\n      tag_113\n      jump\t// in\n    tag_149:\n        /* \"#utility.yul\":529:564   */\n      swap1\n      pop\n        /* \"#utility.yul\":466:570   */\n      swap2\n      swap1\n      pop\n      jump\t// out\n        /* \"#utility.yul\":576:714   */\n    tag_115:\n        /* \"#utility.yul\":657:689   */\n      tag_151\n        /* \"#utility.yul\":683:688   */\n      dup2\n        /* \"#utility.yul\":657:689   */\n      tag_114\n      jump\t// in\n    tag_151:\n        /* \"#utility.yul\":650:655   */\n      dup2\n        /* \"#utility.yul\":647:690   */\n      eq\n        /* \"#utility.yul\":637:708   */\n      tag_152\n      jumpi\n        /* \"#utility.yul\":704:705   */\n      0x00\n        /* \"#utility.yul\":701:702   */\n      dup1\n        /* \"#utility.yul\":694:706   */\n      revert\n        /* \"#utility.yul\":637:708   */\n    tag_152:\n        /* \"#utility.yul\":576:714   */\n      pop\n      jump\t// out\n        /* \"#utility.yul\":720:875   */\n    tag_116:\n        /* \"#utility.yul\":774:779   */\n      0x00\n        /* \"#utility.yul\":812:818   */\n      dup2\n        /* \"#utility.yul\":799:819   */\n      calldataload\n        /* \"#utility.yul\":790:819   */\n      swap1\n      pop\n        /* \"#utility.yul\":828:869   */\n      tag_154\n        /* \"#utility.yul\":863:868   */\n      dup2\n        /* \"#utility.yul\":828:869   */\n      tag_115\n      jump\t// in\n    tag_154:\n        /* \"#utility.yul\":720:875   */\n      swap3\n      swap2\n      pop\n      pop\n      jump\t// out\n        /* \"#utility.yul\":881:958   */\n    tag_117:\n        /* \"#utility.yul\":918:925   */\n      0x00\n        /* \"#utility.yul\":947:952   */\n      dup2\n        /* \"#utility.yul\":936:952   */\n      swap1\n      pop\n        /* \"#utility.yul\":881:958   */\n      swap2\n      swap1\n      pop\n      jump\t// out\n        /* \"#utility.yul\":964:1086   */\n    tag_118:\n        /* \"#utility.yul\":1037:1061   */\n      tag_157\n        /* \"#utility.yul\":1055:1060   */\n      dup2\n        /* \"#utility.yul\":1037:1061   */\n      tag_117\n      jump\t// in\n    tag_157:\n        /* \"#utility.yul\":1030:1035   */\n      dup2\n        /* \"#utility.yul\":1027:1062   */\n      eq\n        /* \"#utility.yul\":1017:1080   */\n      tag_158\n      jumpi\n        /* \"#utility.yul\":1076:1077   */\n      0x00\n        /* \"#utility.yul\":1073:1074   */\n      dup1\n        /* \"#utility.yul\":1066:1078   */\n      revert\n        /* \"#utility.yul\":1017:1080   */\n    tag_158:\n        /* \"#utility.yul\":964:1086   */\n      pop\n      jump\t// out\n        /* \"#utility.yul\":1092:1231   */\n    tag_119:\n        /* \"#utility.yul\":1138:1143   */\n      0x00\n        /* \"#utility.yul\":1176:1182   */\n      dup2\n        /* \"#utility.yul\":1163:1183   */\n      calldataload\n        /* \"#utility.yul\":1154:1183   */\n      swap1\n      pop\n        /* \"#utility.yul\":1192:1225   */\n      tag_160\n        /* \"#utility.yul\":1219:1224   */\n      dup2\n        /* \"#utility.yul\":1192:1225   */\n      tag_118\n      jump\t// in\n    tag_160:\n        /* \"#utility.yul\":1092:1231   */\n      swap3\n      swap2\n      pop\n      pop\n      jump\t// out\n        /* \"#utility.yul\":1237:1727   */\n    tag_17:\n        /* \"#utility.yul\":1313:1319   */\n      0x00\n        /* \"#utility.yul\":1321:1327   */\n      dup1\n        /* \"#utility.yul\":1370:1372   */\n      0x40\n        /* \"#utility.yul\":1358:1367   */\n      dup4\n        /* \"#utility.yul\":1349:1356   */\n      dup6\n        /* \"#utility.yul\":1345:1368   */\n      sub\n        /* \"#utility.yul\":1341:1373   */\n      slt\n        /* \"#utility.yul\":1338:1457   */\n      iszero\n      tag_162\n      jumpi\n        /* \"#utility.yul\":1376:1455   */\n      tag_163\n      tag_111\n      jump\t// in\n    tag_163:\n        /* \"#utility.yul\":1338:1457   */\n    tag_162:\n        /* \"#utility.yul\":1496:1497   */\n      0x00\n        /* \"#utility.yul\":1521:1582   */\n      tag_164\n        /* \"#utility.yul\":1574:1581   */\n      dup6\n        /* \"#utility.yul\":1565:1571   */\n      dup3\n        /* \"#utility.yul\":1554:1563   */\n      dup7\n        /* \"#utility.yul\":1550:1572   */\n      add\n        /* \"#utility.yul\":1521:1582   */\n      tag_116\n      jump\t// in\n    tag_164:\n        /* \"#utility.yul\":1511:1582   */\n      swap3\n      pop\n        /* \"#utility.yul\":1467:1592   */\n      pop\n        /* \"#utility.yul\":1631:1633   */\n      0x20\n        /* \"#utility.yul\":1657:1710   */\n      tag_165\n        /* \"#utility.yul\":1702:1709   */\n      dup6\n        /* \"#utility.yul\":1693:1699   */\n      dup3\n        /* \"#utility.yul\":1682:1691   */\n      dup7\n        /* \"#utility.yul\":1678:1700   */\n      add\n        /* \"#utility.yul\":1657:1710   */\n      tag_119\n      jump\t// in\n    tag_165:\n        /* \"#utility.yul\":1647:1710   */\n      swap2\n      pop\n        /* \"#utility.yul\":1602:1720   */\n      pop\n        /* \"#utility.yul\":1237:1727   */\n      swap3\n      pop\n      swap3\n      swap1\n      pop\n      jump\t// out\n        /* \"#utility.yul\":1733:2062   */\n    tag_22:\n        /* \"#utility.yul\":1792:1798   */\n      0x00\n        /* \"#utility.yul\":1841:1843   */\n      0x20\n        /* \"#utility.yul\":1829:1838   */\n      dup3\n        /* \"#utility.yul\":1820:1827   */\n      dup5\n        /* \"#utility.yul\":1816:1839   */\n      sub\n        /* \"#utility.yul\":1812:1844   */\n      slt\n        /* \"#utility.yul\":1809:1928   */\n      iszero\n      tag_167\n      jumpi\n        /* \"#utility.yul\":1847:1926   */\n      tag_168\n      tag_111\n      jump\t// in\n    tag_168:\n        /* \"#utility.yul\":1809:1928   */\n    tag_167:\n        /* \"#utility.yul\":1967:1968   */\n      0x00\n        /* \"#utility.yul\":1992:2045   */\n      tag_169\n        /* \"#utility.yul\":2037:2044   */\n      dup5\n        /* \"#utility.yul\":2028:2034   */\n      dup3\n        /* \"#utility.yul\":2017:2026   */\n      dup6\n        /* \"#utility.yul\":2013:2035   */\n      add\n        /* \"#utility.yul\":1992:2045   */\n      tag_119\n      jump\t// in\n    tag_169:\n        /* \"#utility.yul\":1982:2045   */\n      swap2\n      pop\n        /* \"#utility.yul\":1938:2055   */\n      pop\n        /* \"#utility.yul\":1733:2062   */\n      swap3\n      swap2\n      pop\n      pop\n      jump\t// out\n        /* \"#utility.yul\":2068:2164   */\n    tag_120:\n        /* \"#utility.yul\":2105:2112   */\n      0x00\n        /* \"#utility.yul\":2134:2158   */\n      tag_171\n        /* \"#utility.yul\":2152:2157   */\n      dup3\n        /* \"#utility.yul\":2134:2158   */\n      tag_113\n      jump\t// in\n    tag_171:\n        /* \"#utility.yul\":2123:2158   */\n      swap1\n      pop\n        /* \"#utility.yul\":2068:2164   */\n      swap2\n      swap1\n      pop\n      jump\t// out\n        /* \"#utility.yul\":2170:2292   */\n    tag_121:\n        /* \"#utility.yul\":2243:2267   */\n      tag_173\n        /* \"#utility.yul\":2261:2266   */\n      dup2\n        /* \"#utility.yul\":2243:2267   */\n      tag_120\n      jump\t// in\n    tag_173:\n        /* \"#utility.yul\":2236:2241   */\n      dup2\n        /* \"#utility.yul\":2233:2268   */\n      eq\n        /* \"#utility.yul\":2223:2286   */\n      tag_174\n      jumpi\n        /* \"#utility.yul\":2282:2283   */\n      0x00\n        /* \"#utility.yul\":2279:2280   */\n      dup1\n        /* \"#utility.yul\":2272:2284   */\n      revert\n        /* \"#utility.yul\":2223:2286   */\n    tag_174:\n        /* \"#utility.yul\":2170:2292   */\n      pop\n      jump\t// out\n        /* \"#utility.yul\":2298:2437   */\n    tag_122:\n        /* \"#utility.yul\":2344:2349   */\n      0x00\n        /* \"#utility.yul\":2382:2388   */\n      dup2\n        /* \"#utility.yul\":2369:2389   */\n      calldataload\n        /* \"#utility.yul\":2360:2389   */\n      swap1\n      pop\n        /* \"#utility.yul\":2398:2431   */\n      tag_176\n        /* \"#utility.yul\":2425:2430   */\n      dup2\n        /* \"#utility.yul\":2398:2431   */\n      tag_121\n      jump\t// in\n    tag_176:\n        /* \"#utility.yul\":2298:2437   */\n      swap3\n      swap2\n      pop\n      pop\n      jump\t// out\n        /* \"#utility.yul\":2443:2917   */\n    tag_27:\n        /* \"#utility.yul\":2511:2517   */\n      0x00\n        /* \"#utility.yul\":2519:2525   */\n      dup1\n        /* \"#utility.yul\":2568:2570   */\n      0x40\n        /* \"#utility.yul\":2556:2565   */\n      dup4\n        /* \"#utility.yul\":2547:2554   */\n      dup6\n        /* \"#utility.yul\":2543:2566   */\n      sub\n        /* \"#utility.yul\":2539:2571   */\n      slt\n        /* \"#utility.yul\":2536:2655   */\n      iszero\n      tag_178\n      jumpi\n        /* \"#utility.yul\":2574:2653   */\n      tag_179\n      tag_111\n      jump\t// in\n    tag_179:\n        /* \"#utility.yul\":2536:2655   */\n    tag_178:\n        /* \"#utility.yul\":2694:2695   */\n      0x00\n        /* \"#utility.yul\":2719:2772   */\n      tag_180\n        /* \"#utility.yul\":2764:2771   */\n      dup6\n        /* \"#utility.yul\":2755:2761   */\n      dup3\n        /* \"#utility.yul\":2744:2753   */\n      dup7\n        /* \"#utility.yul\":2740:2762   */\n      add\n        /* \"#utility.yul\":2719:2772   */\n      tag_122\n      jump\t// in\n    tag_180:\n        /* \"#utility.yul\":2709:2772   */\n      swap3\n      pop\n        /* \"#utility.yul\":2665:2782   */\n      pop\n        /* \"#utility.yul\":2821:2823   */\n      0x20\n        /* \"#utility.yul\":2847:2900   */\n      tag_181\n        /* \"#utility.yul\":2892:2899   */\n      dup6\n        /* \"#utility.yul\":2883:2889   */\n      dup3\n        /* \"#utility.yul\":2872:2881   */\n      dup7\n        /* \"#utility.yul\":2868:2890   */\n      add\n        /* \"#utility.yul\":2847:2900   */\n      tag_119\n      jump\t// in\n    tag_181:\n        /* \"#utility.yul\":2837:2900   */\n      swap2\n      pop\n        /* \"#utility.yul\":2792:2910   */\n      pop\n        /* \"#utility.yul\":2443:2917   */\n      swap3\n      pop\n      swap3\n      swap1\n      pop\n      jump\t// out\n        /* \"#utility.yul\":2923:3252   */\n    tag_32:\n        /* \"#utility.yul\":2982:2988   */\n      0x00\n        /* \"#utility.yul\":3031:3033   */\n      0x20\n        /* \"#utility.yul\":3019:3028   */\n      dup3\n        /* \"#utility.yul\":3010:3017   */\n      dup5\n        /* \"#utility.yul\":3006:3029   */\n      sub\n        /* \"#utility.yul\":3002:3034   */\n      slt\n        /* \"#utility.yul\":2999:3118   */\n      iszero\n      tag_183\n      jumpi\n        /* \"#utility.yul\":3037:3116   */\n      tag_184\n      tag_111\n      jump\t// in\n    tag_184:\n        /* \"#utility.yul\":2999:3118   */\n    tag_183:\n        /* \"#utility.yul\":3157:3158   */\n      0x00\n        /* \"#utility.yul\":3182:3235   */\n      tag_185\n        /* \"#utility.yul\":3227:3234   */\n      dup5\n        /* \"#utility.yul\":3218:3224   */\n      dup3\n        /* \"#utility.yul\":3207:3216   */\n      dup6\n        /* \"#utility.yul\":3203:3225   */\n      add\n        /* \"#utility.yul\":3182:3235   */\n      tag_122\n      jump\t// in\n    tag_185:\n        /* \"#utility.yul\":3172:3235   */\n      swap2\n      pop\n        /* \"#utility.yul\":3128:3245   */\n      pop\n        /* \"#utility.yul\":2923:3252   */\n      swap3\n      swap2\n      pop\n      pop\n      jump\t// out\n        /* \"#utility.yul\":3258:3366   */\n    tag_123:\n        /* \"#utility.yul\":3335:3359   */\n      tag_187\n        /* \"#utility.yul\":3353:3358   */\n      dup2\n        /* \"#utility.yul\":3335:3359   */\n      tag_120\n      jump\t// in\n    tag_187:\n        /* \"#utility.yul\":3330:3333   */\n      dup3\n        /* \"#utility.yul\":3323:3360   */\n      mstore\n        /* \"#utility.yul\":3258:3366   */\n      pop\n      pop\n      jump\t// out\n        /* \"#utility.yul\":3372:3480   */\n    tag_124:\n        /* \"#utility.yul\":3449:3473   */\n      tag_189\n        /* \"#utility.yul\":3467:3472   */\n      dup2\n        /* \"#utility.yul\":3449:3473   */\n      tag_117\n      jump\t// in\n    tag_189:\n        /* \"#utility.yul\":3444:3447   */\n      dup3\n        /* \"#utility.yul\":3437:3474   */\n      mstore\n        /* \"#utility.yul\":3372:3480   */\n      pop\n      pop\n      jump\t// out\n        /* \"#utility.yul\":3530:4032   */\n    tag_125:\n        /* \"#utility.yul\":3669:3673   */\n      0x40\n        /* \"#utility.yul\":3664:3667   */\n      dup3\n        /* \"#utility.yul\":3660:3674   */\n      add\n        /* \"#utility.yul\":3756:3760   */\n      0x00\n        /* \"#utility.yul\":3749:3754   */\n      dup3\n        /* \"#utility.yul\":3745:3761   */\n      add\n        /* \"#utility.yul\":3739:3762   */\n      mload\n        /* \"#utility.yul\":3775:3838   */\n      tag_191\n        /* \"#utility.yul\":3832:3836   */\n      0x00\n        /* \"#utility.yul\":3827:3830   */\n      dup6\n        /* \"#utility.yul\":3823:3837   */\n      add\n        /* \"#utility.yul\":3809:3821   */\n      dup3\n        /* \"#utility.yul\":3775:3838   */\n      tag_123\n      jump\t// in\n    tag_191:\n        /* \"#utility.yul\":3684:3848   */\n      pop\n        /* \"#utility.yul\":3933:3937   */\n      0x20\n        /* \"#utility.yul\":3926:3931   */\n      dup3\n        /* \"#utility.yul\":3922:3938   */\n      add\n        /* \"#utility.yul\":3916:3939   */\n      mload\n        /* \"#utility.yul\":3952:4015   */\n      tag_192\n        /* \"#utility.yul\":4009:4013   */\n      0x20\n        /* \"#utility.yul\":4004:4007   */\n      dup6\n        /* \"#utility.yul\":4000:4014   */\n      add\n        /* \"#utility.yul\":3986:3998   */\n      dup3\n        /* \"#utility.yul\":3952:4015   */\n      tag_124\n      jump\t// in\n    tag_192:\n        /* \"#utility.yul\":3858:4025   */\n      pop\n        /* \"#utility.yul\":3638:4032   */\n      pop\n        /* \"#utility.yul\":3530:4032   */\n      pop\n      pop\n      jump\t// out\n        /* \"#utility.yul\":4038:4344   */\n    tag_35:\n        /* \"#utility.yul\":4173:4177   */\n      0x00\n        /* \"#utility.yul\":4211:4213   */\n      0x40\n        /* \"#utility.yul\":4200:4209   */\n      dup3\n        /* \"#utility.yul\":4196:4214   */\n      add\n        /* \"#utility.yul\":4188:4214   */\n      swap1\n      pop\n        /* \"#utility.yul\":4224:4337   */\n      tag_194\n        /* \"#utility.yul\":4334:4335   */\n      0x00\n        /* \"#utility.yul\":4323:4332   */\n      dup4\n        /* \"#utility.yul\":4319:4336   */\n      add\n        /* \"#utility.yul\":4310:4316   */\n      dup5\n        /* \"#utility.yul\":4224:4337   */\n      tag_125\n      jump\t// in\n    tag_194:\n        /* \"#utility.yul\":4038:4344   */\n      swap3\n      swap2\n      pop\n      pop\n      jump\t// out\n        /* \"#utility.yul\":4350:4985   */\n    tag_39:\n        /* \"#utility.yul\":4435:4441   */\n      0x00\n        /* \"#utility.yul\":4443:4449   */\n      dup1\n        /* \"#utility.yul\":4451:4457   */\n      0x00\n        /* \"#utility.yul\":4500:4502   */\n      0x60\n        /* \"#utility.yul\":4488:4497   */\n      dup5\n        /* \"#utility.yul\":4479:4486   */\n      dup7\n        /* \"#utility.yul\":4475:4498   */\n      sub\n        /* \"#utility.yul\":4471:4503   */\n      slt\n        /* \"#utility.yul\":4468:4587   */\n      iszero\n      tag_196\n      jumpi\n        /* \"#utility.yul\":4506:4585   */\n      tag_197\n      tag_111\n      jump\t// in\n    tag_197:\n        /* \"#utility.yul\":4468:4587   */\n    tag_196:\n        /* \"#utility.yul\":4626:4627   */\n      0x00\n        /* \"#utility.yul\":4651:4712   */\n      tag_198\n        /* \"#utility.yul\":4704:4711   */\n      dup7\n        /* \"#utility.yul\":4695:4701   */\n      dup3\n        /* \"#utility.yul\":4684:4693   */\n      dup8\n        /* \"#utility.yul\":4680:4702   */\n      add\n        /* \"#utility.yul\":4651:4712   */\n      tag_116\n      jump\t// in\n    tag_198:\n        /* \"#utility.yul\":4641:4712   */\n      swap4\n      pop\n        /* \"#utility.yul\":4597:4722   */\n      pop\n        /* \"#utility.yul\":4761:4763   */\n      0x20\n        /* \"#utility.yul\":4787:4840   */\n      tag_199\n        /* \"#utility.yul\":4832:4839   */\n      dup7\n        /* \"#utility.yul\":4823:4829   */\n      dup3\n        /* \"#utility.yul\":4812:4821   */\n      dup8\n        /* \"#utility.yul\":4808:4830   */\n      add\n        /* \"#utility.yul\":4787:4840   */\n      tag_122\n      jump\t// in\n    tag_199:\n        /* \"#utility.yul\":4777:4840   */\n      swap3\n      pop\n        /* \"#utility.yul\":4732:4850   */\n      pop\n        /* \"#utility.yul\":4889:4891   */\n      0x40\n        /* \"#utility.yul\":4915:4968   */\n      tag_200\n        /* \"#utility.yul\":4960:4967   */\n      dup7\n        /* \"#utility.yul\":4951:4957   */\n      dup3\n        /* \"#utility.yul\":4940:4949   */\n      dup8\n        /* \"#utility.yul\":4936:4958   */\n      add\n        /* \"#utility.yul\":4915:4968   */\n      tag_119\n      jump\t// in\n    tag_200:\n        /* \"#utility.yul\":4905:4968   */\n      swap2\n      pop\n        /* \"#utility.yul\":4860:4978   */\n      pop\n        /* \"#utility.yul\":4350:4985   */\n      swap3\n      pop\n      swap3\n      pop\n      swap3\n      jump\t// out\n        /* \"#utility.yul\":4991:5109   */\n    tag_126:\n        /* \"#utility.yul\":5078:5102   */\n      tag_202\n        /* \"#utility.yul\":5096:5101   */\n      dup2\n        /* \"#utility.yul\":5078:5102   */\n      tag_120\n      jump\t// in\n    tag_202:\n        /* \"#utility.yul\":5073:5076   */\n      dup3\n        /* \"#utility.yul\":5066:5103   */\n      mstore\n        /* \"#utility.yul\":4991:5109   */\n      pop\n      pop\n      jump\t// out\n        /* \"#utility.yul\":5115:5233   */\n    tag_127:\n        /* \"#utility.yul\":5202:5226   */\n      tag_204\n        /* \"#utility.yul\":5220:5225   */\n      dup2\n        /* \"#utility.yul\":5202:5226   */\n      tag_117\n      jump\t// in\n    tag_204:\n        /* \"#utility.yul\":5197:5200   */\n      dup3\n        /* \"#utility.yul\":5190:5227   */\n      mstore\n        /* \"#utility.yul\":5115:5233   */\n      pop\n      pop\n      jump\t// out\n        /* \"#utility.yul\":5239:5571   */\n    tag_46:\n        /* \"#utility.yul\":5360:5364   */\n      0x00\n        /* \"#utility.yul\":5398:5400   */\n      0x40\n        /* \"#utility.yul\":5387:5396   */\n      dup3\n        /* \"#utility.yul\":5383:5401   */\n      add\n        /* \"#utility.yul\":5375:5401   */\n      swap1\n      pop\n        /* \"#utility.yul\":5411:5482   */\n      tag_206\n        /* \"#utility.yul\":5479:5480   */\n      0x00\n        /* \"#utility.yul\":5468:5477   */\n      dup4\n        /* \"#utility.yul\":5464:5481   */\n      add\n        /* \"#utility.yul\":5455:5461   */\n      dup6\n        /* \"#utility.yul\":5411:5482   */\n      tag_126\n      jump\t// in\n    tag_206:\n        /* \"#utility.yul\":5492:5564   */\n      tag_207\n        /* \"#utility.yul\":5560:5562   */\n      0x20\n        /* \"#utility.yul\":5549:5558   */\n      dup4\n        /* \"#utility.yul\":5545:5563   */\n      add\n        /* \"#utility.yul\":5536:5542   */\n      dup5\n        /* \"#utility.yul\":5492:5564   */\n      tag_127\n      jump\t// in\n    tag_207:\n        /* \"#utility.yul\":5239:5571   */\n      swap4\n      swap3\n      pop\n      pop\n      pop\n      jump\t// out\n        /* \"#utility.yul\":5577:5799   */\n    tag_54:\n        /* \"#utility.yul\":5670:5674   */\n      0x00\n        /* \"#utility.yul\":5708:5710   */\n      0x20\n        /* \"#utility.yul\":5697:5706   */\n      dup3\n        /* \"#utility.yul\":5693:5711   */\n      add\n        /* \"#utility.yul\":5685:5711   */\n      swap1\n      pop\n        /* \"#utility.yul\":5721:5792   */\n      tag_209\n        /* \"#utility.yul\":5789:5790   */\n      0x00\n        /* \"#utility.yul\":5778:5787   */\n      dup4\n        /* \"#utility.yul\":5774:5791   */\n      add\n        /* \"#utility.yul\":5765:5771   */\n      dup5\n        /* \"#utility.yul\":5721:5792   */\n      tag_126\n      jump\t// in\n    tag_209:\n        /* \"#utility.yul\":5577:5799   */\n      swap3\n      swap2\n      pop\n      pop\n      jump\t// out\n        /* \"#utility.yul\":5805:5922   */\n    tag_128:\n        /* \"#utility.yul\":5914:5915   */\n      0x00\n        /* \"#utility.yul\":5911:5912   */\n      dup1\n        /* \"#utility.yul\":5904:5916   */\n      revert\n        /* \"#utility.yul\":5928:6030   */\n    tag_129:\n        /* \"#utility.yul\":5969:5975   */\n      0x00\n        /* \"#utility.yul\":6020:6022   */\n      0x1f\n        /* \"#utility.yul\":6016:6023   */\n      not\n        /* \"#utility.yul\":6011:6013   */\n      0x1f\n        /* \"#utility.yul\":6004:6009   */\n      dup4\n        /* \"#utility.yul\":6000:6014   */\n      add\n        /* \"#utility.yul\":5996:6024   */\n      and\n        /* \"#utility.yul\":5986:6024   */\n      swap1\n      pop\n        /* \"#utility.yul\":5928:6030   */\n      swap2\n      swap1\n      pop\n      jump\t// out\n        /* \"#utility.yul\":6036:6216   */\n    tag_130:\n        /* \"#utility.yul\":6084:6161   */\n      0x4e487b7100000000000000000000000000000000000000000000000000000000\n        /* \"#utility.yul\":6081:6082   */\n      0x00\n        /* \"#utility.yul\":6074:6162   */\n      mstore\n        /* \"#utility.yul\":6181:6185   */\n      0x41\n        /* \"#utility.yul\":6178:6179   */\n      0x04\n        /* \"#utility.yul\":6171:6186   */\n      mstore\n        /* \"#utility.yul\":6205:6209   */\n      0x24\n        /* \"#utility.yul\":6202:6203   */\n      0x00\n        /* \"#utility.yul\":6195:6210   */\n      revert\n        /* \"#utility.yul\":6222:6503   */\n    tag_131:\n        /* \"#utility.yul\":6305:6332   */\n      tag_214\n        /* \"#utility.yul\":6327:6331   */\n      dup3\n        /* \"#utility.yul\":6305:6332   */\n      tag_129\n      jump\t// in\n    tag_214:\n        /* \"#utility.yul\":6297:6303   */\n      dup2\n        /* \"#utility.yul\":6293:6333   */\n      add\n        /* \"#utility.yul\":6435:6441   */\n      dup2\n        /* \"#utility.yul\":6423:6433   */\n      dup2\n        /* \"#utility.yul\":6420:6442   */\n      lt\n        /* \"#utility.yul\":6399:6417   */\n      0xffffffffffffffff\n        /* \"#utility.yul\":6387:6397   */\n      dup3\n        /* \"#utility.yul\":6384:6418   */\n      gt\n        /* \"#utility.yul\":6381:6443   */\n      or\n        /* \"#utility.yul\":6378:6466   */\n      iszero\n      tag_215\n      jumpi\n        /* \"#utility.yul\":6446:6464   */\n      tag_216\n      tag_130\n      jump\t// in\n    tag_216:\n        /* \"#utility.yul\":6378:6466   */\n    tag_215:\n        /* \"#utility.yul\":6486:6496   */\n      dup1\n        /* \"#utility.yul\":6482:6484   */\n      0x40\n        /* \"#utility.yul\":6475:6497   */\n      mstore\n        /* \"#utility.yul\":6265:6503   */\n      pop\n        /* \"#utility.yul\":6222:6503   */\n      pop\n      pop\n      jump\t// out\n        /* \"#utility.yul\":6509:6638   */\n    tag_132:\n        /* \"#utility.yul\":6543:6549   */\n      0x00\n        /* \"#utility.yul\":6570:6590   */\n      tag_218\n      tag_110\n      jump\t// in\n    tag_218:\n        /* \"#utility.yul\":6560:6590   */\n      swap1\n      pop\n        /* \"#utility.yul\":6599:6632   */\n      tag_219\n        /* \"#utility.yul\":6627:6631   */\n      dup3\n        /* \"#utility.yul\":6619:6625   */\n      dup3\n        /* \"#utility.yul\":6599:6632   */\n      tag_131\n      jump\t// in\n    tag_219:\n        /* \"#utility.yul\":6509:6638   */\n      swap2\n      swap1\n      pop\n      jump\t// out\n        /* \"#utility.yul\":6767:6910   */\n    tag_134:\n        /* \"#utility.yul\":6824:6829   */\n      0x00\n        /* \"#utility.yul\":6855:6861   */\n      dup2\n        /* \"#utility.yul\":6849:6862   */\n      mload\n        /* \"#utility.yul\":6840:6862   */\n      swap1\n      pop\n        /* \"#utility.yul\":6871:6904   */\n      tag_222\n        /* \"#utility.yul\":6898:6903   */\n      dup2\n        /* \"#utility.yul\":6871:6904   */\n      tag_121\n      jump\t// in\n    tag_222:\n        /* \"#utility.yul\":6767:6910   */\n      swap3\n      swap2\n      pop\n      pop\n      jump\t// out\n        /* \"#utility.yul\":6916:7059   */\n    tag_135:\n        /* \"#utility.yul\":6973:6978   */\n      0x00\n        /* \"#utility.yul\":7004:7010   */\n      dup2\n        /* \"#utility.yul\":6998:7011   */\n      mload\n        /* \"#utility.yul\":6989:7011   */\n      swap1\n      pop\n        /* \"#utility.yul\":7020:7053   */\n      tag_224\n        /* \"#utility.yul\":7047:7052   */\n      dup2\n        /* \"#utility.yul\":7020:7053   */\n      tag_118\n      jump\t// in\n    tag_224:\n        /* \"#utility.yul\":6916:7059   */\n      swap3\n      swap2\n      pop\n      pop\n      jump\t// out\n        /* \"#utility.yul\":7089:7695   */\n    tag_136:\n        /* \"#utility.yul\":7170:7175   */\n      0x00\n        /* \"#utility.yul\":7214:7218   */\n      0x40\n        /* \"#utility.yul\":7202:7211   */\n      dup3\n        /* \"#utility.yul\":7197:7200   */\n      dup5\n        /* \"#utility.yul\":7193:7212   */\n      sub\n        /* \"#utility.yul\":7189:7219   */\n      slt\n        /* \"#utility.yul\":7186:7303   */\n      iszero\n      tag_226\n      jumpi\n        /* \"#utility.yul\":7222:7301   */\n      tag_227\n      tag_128\n      jump\t// in\n    tag_227:\n        /* \"#utility.yul\":7186:7303   */\n    tag_226:\n        /* \"#utility.yul\":7321:7342   */\n      tag_228\n        /* \"#utility.yul\":7337:7341   */\n      0x40\n        /* \"#utility.yul\":7321:7342   */\n      tag_132\n      jump\t// in\n    tag_228:\n        /* \"#utility.yul\":7312:7342   */\n      swap1\n      pop\n        /* \"#utility.yul\":7401:7402   */\n      0x00\n        /* \"#utility.yul\":7441:7501   */\n      tag_229\n        /* \"#utility.yul\":7497:7500   */\n      dup5\n        /* \"#utility.yul\":7488:7494   */\n      dup3\n        /* \"#utility.yul\":7477:7486   */\n      dup6\n        /* \"#utility.yul\":7473:7495   */\n      add\n        /* \"#utility.yul\":7441:7501   */\n      tag_134\n      jump\t// in\n    tag_229:\n        /* \"#utility.yul\":7434:7438   */\n      0x00\n        /* \"#utility.yul\":7427:7432   */\n      dup4\n        /* \"#utility.yul\":7423:7439   */\n      add\n        /* \"#utility.yul\":7416:7502   */\n      mstore\n        /* \"#utility.yul\":7352:7513   */\n      pop\n        /* \"#utility.yul\":7575:7577   */\n      0x20\n        /* \"#utility.yul\":7616:7676   */\n      tag_230\n        /* \"#utility.yul\":7672:7675   */\n      dup5\n        /* \"#utility.yul\":7663:7669   */\n      dup3\n        /* \"#utility.yul\":7652:7661   */\n      dup6\n        /* \"#utility.yul\":7648:7670   */\n      add\n        /* \"#utility.yul\":7616:7676   */\n      tag_135\n      jump\t// in\n    tag_230:\n        /* \"#utility.yul\":7609:7613   */\n      0x20\n        /* \"#utility.yul\":7602:7607   */\n      dup4\n        /* \"#utility.yul\":7598:7614   */\n      add\n        /* \"#utility.yul\":7591:7677   */\n      mstore\n        /* \"#utility.yul\":7523:7688   */\n      pop\n        /* \"#utility.yul\":7089:7695   */\n      swap3\n      swap2\n      pop\n      pop\n      jump\t// out\n        /* \"#utility.yul\":7701:8094   */\n    tag_58:\n        /* \"#utility.yul\":7792:7798   */\n      0x00\n        /* \"#utility.yul\":7841:7843   */\n      0x40\n        /* \"#utility.yul\":7829:7838   */\n      dup3\n        /* \"#utility.yul\":7820:7827   */\n      dup5\n        /* \"#utility.yul\":7816:7839   */\n      sub\n        /* \"#utility.yul\":7812:7844   */\n      slt\n        /* \"#utility.yul\":7809:7928   */\n      iszero\n      tag_232\n      jumpi\n        /* \"#utility.yul\":7847:7926   */\n      tag_233\n      tag_111\n      jump\t// in\n    tag_233:\n        /* \"#utility.yul\":7809:7928   */\n    tag_232:\n        /* \"#utility.yul\":7967:7968   */\n      0x00\n        /* \"#utility.yul\":7992:8077   */\n      tag_234\n        /* \"#utility.yul\":8069:8076   */\n      dup5\n        /* \"#utility.yul\":8060:8066   */\n      dup3\n        /* \"#utility.yul\":8049:8058   */\n      dup6\n        /* \"#utility.yul\":8045:8067   */\n      add\n        /* \"#utility.yul\":7992:8077   */\n      tag_136\n      jump\t// in\n    tag_234:\n        /* \"#utility.yul\":7982:8077   */\n      swap2\n      pop\n        /* \"#utility.yul\":7938:8087   */\n      pop\n        /* \"#utility.yul\":7701:8094   */\n      swap3\n      swap2\n      pop\n      pop\n      jump\t// out\n        /* \"#utility.yul\":8100:8269   */\n    tag_137:\n        /* \"#utility.yul\":8184:8195   */\n      0x00\n        /* \"#utility.yul\":8218:8224   */\n      dup3\n        /* \"#utility.yul\":8213:8216   */\n      dup3\n        /* \"#utility.yul\":8206:8225   */\n      mstore\n        /* \"#utility.yul\":8258:8262   */\n      0x20\n        /* \"#utility.yul\":8253:8256   */\n      dup3\n        /* \"#utility.yul\":8249:8263   */\n      add\n        /* \"#utility.yul\":8234:8263   */\n      swap1\n      pop\n        /* \"#utility.yul\":8100:8269   */\n      swap3\n      swap2\n      pop\n      pop\n      jump\t// out\n        /* \"#utility.yul\":8275:8447   */\n    tag_138:\n        /* \"#utility.yul\":8415:8439   */\n      0x6e65656420746f20726567697374657220666972737400000000000000000000\n        /* \"#utility.yul\":8411:8412   */\n      0x00\n        /* \"#utility.yul\":8403:8409   */\n      dup3\n        /* \"#utility.yul\":8399:8413   */\n      add\n        /* \"#utility.yul\":8392:8440   */\n      mstore\n        /* \"#utility.yul\":8275:8447   */\n      pop\n      jump\t// out\n        /* \"#utility.yul\":8453:8819   */\n    tag_139:\n        /* \"#utility.yul\":8595:8598   */\n      0x00\n        /* \"#utility.yul\":8616:8683   */\n      tag_238\n        /* \"#utility.yul\":8680:8682   */\n      0x16\n        /* \"#utility.yul\":8675:8678   */\n      dup4\n        /* \"#utility.yul\":8616:8683   */\n      tag_137\n      jump\t// in\n    tag_238:\n        /* \"#utility.yul\":8609:8683   */\n      swap2\n      pop\n        /* \"#utility.yul\":8692:8785   */\n      tag_239\n        /* \"#utility.yul\":8781:8784   */\n      dup3\n        /* \"#utility.yul\":8692:8785   */\n      tag_138\n      jump\t// in\n    tag_239:\n        /* \"#utility.yul\":8810:8812   */\n      0x20\n        /* \"#utility.yul\":8805:8808   */\n      dup3\n        /* \"#utility.yul\":8801:8813   */\n      add\n        /* \"#utility.yul\":8794:8813   */\n      swap1\n      pop\n        /* \"#utility.yul\":8453:8819   */\n      swap2\n      swap1\n      pop\n      jump\t// out\n        /* \"#utility.yul\":8825:9244   */\n    tag_61:\n        /* \"#utility.yul\":8991:8995   */\n      0x00\n        /* \"#utility.yul\":9029:9031   */\n      0x20\n        /* \"#utility.yul\":9018:9027   */\n      dup3\n        /* \"#utility.yul\":9014:9032   */\n      add\n        /* \"#utility.yul\":9006:9032   */\n      swap1\n      pop\n        /* \"#utility.yul\":9078:9087   */\n      dup2\n        /* \"#utility.yul\":9072:9076   */\n      dup2\n        /* \"#utility.yul\":9068:9088   */\n      sub\n        /* \"#utility.yul\":9064:9065   */\n      0x00\n        /* \"#utility.yul\":9053:9062   */\n      dup4\n        /* \"#utility.yul\":9049:9066   */\n      add\n        /* \"#utility.yul\":9042:9089   */\n      mstore\n        /* \"#utility.yul\":9106:9237   */\n      tag_241\n        /* \"#utility.yul\":9232:9236   */\n      dup2\n        /* \"#utility.yul\":9106:9237   */\n      tag_139\n      jump\t// in\n    tag_241:\n        /* \"#utility.yul\":9098:9237   */\n      swap1\n      pop\n        /* \"#utility.yul\":8825:9244   */\n      swap2\n      swap1\n      pop\n      jump\t// out\n        /* \"#utility.yul\":9250:9416   */\n    tag_140:\n        /* \"#utility.yul\":9390:9408   */\n      0x6e6f7420656e6f756768206d6f6e657900000000000000000000000000000000\n        /* \"#utility.yul\":9386:9387   */\n      0x00\n        /* \"#utility.yul\":9378:9384   */\n      dup3\n        /* \"#utility.yul\":9374:9388   */\n      add\n        /* \"#utility.yul\":9367:9409   */\n      mstore\n        /* \"#utility.yul\":9250:9416   */\n      pop\n      jump\t// out\n        /* \"#utility.yul\":9422:9788   */\n    tag_141:\n        /* \"#utility.yul\":9564:9567   */\n      0x00\n        /* \"#utility.yul\":9585:9652   */\n      tag_244\n        /* \"#utility.yul\":9649:9651   */\n      0x10\n        /* \"#utility.yul\":9644:9647   */\n      dup4\n        /* \"#utility.yul\":9585:9652   */\n      tag_137\n      jump\t// in\n    tag_244:\n        /* \"#utility.yul\":9578:9652   */\n      swap2\n      pop\n        /* \"#utility.yul\":9661:9754   */\n      tag_245\n        /* \"#utility.yul\":9750:9753   */\n      dup3\n        /* \"#utility.yul\":9661:9754   */\n      tag_140\n      jump\t// in\n    tag_245:\n        /* \"#utility.yul\":9779:9781   */\n      0x20\n        /* \"#utility.yul\":9774:9777   */\n      dup3\n        /* \"#utility.yul\":9770:9782   */\n      add\n        /* \"#utility.yul\":9763:9782   */\n      swap1\n      pop\n        /* \"#utility.yul\":9422:9788   */\n      swap2\n      swap1\n      pop\n      jump\t// out\n        /* \"#utility.yul\":9794:10213   */\n    tag_64:\n        /* \"#utility.yul\":9960:9964   */\n      0x00\n        /* \"#utility.yul\":9998:10000   */\n      0x20\n        /* \"#utility.yul\":9987:9996   */\n      dup3\n        /* \"#utility.yul\":9983:10001   */\n      add\n        /* \"#utility.yul\":9975:10001   */\n      swap1\n      pop\n        /* \"#utility.yul\":10047:10056   */\n      dup2\n        /* \"#utility.yul\":10041:10045   */\n      dup2\n        /* \"#utility.yul\":10037:10057   */\n      sub\n        /* \"#utility.yul\":10033:10034   */\n      0x00\n        /* \"#utility.yul\":10022:10031   */\n      dup4\n        /* \"#utility.yul\":10018:10035   */\n      add\n        /* \"#utility.yul\":10011:10058   */\n      mstore\n        /* \"#utility.yul\":10075:10206   */\n      tag_247\n        /* \"#utility.yul\":10201:10205   */\n      dup2\n        /* \"#utility.yul\":10075:10206   */\n      tag_141\n      jump\t// in\n    tag_247:\n        /* \"#utility.yul\":10067:10206   */\n      swap1\n      pop\n        /* \"#utility.yul\":9794:10213   */\n      swap2\n      swap1\n      pop\n      jump\t// out\n        /* \"#utility.yul\":10219:10399   */\n    tag_142:\n        /* \"#utility.yul\":10267:10344   */\n      0x4e487b7100000000000000000000000000000000000000000000000000000000\n        /* \"#utility.yul\":10264:10265   */\n      0x00\n        /* \"#utility.yul\":10257:10345   */\n      mstore\n        /* \"#utility.yul\":10364:10368   */\n      0x11\n        /* \"#utility.yul\":10361:10362   */\n      0x04\n        /* \"#utility.yul\":10354:10369   */\n      mstore\n        /* \"#utility.yul\":10388:10392   */\n      0x24\n        /* \"#utility.yul\":10385:10386   */\n      0x00\n        /* \"#utility.yul\":10378:10393   */\n      revert\n        /* \"#utility.yul\":10405:10599   */\n    tag_68:\n        /* \"#utility.yul\":10445:10449   */\n      0x00\n        /* \"#utility.yul\":10465:10485   */\n      tag_250\n        /* \"#utility.yul\":10483:10484   */\n      dup3\n        /* \"#utility.yul\":10465:10485   */\n      tag_117\n      jump\t// in\n    tag_250:\n        /* \"#utility.yul\":10460:10485   */\n      swap2\n      pop\n        /* \"#utility.yul\":10499:10519   */\n      tag_251\n        /* \"#utility.yul\":10517:10518   */\n      dup4\n        /* \"#utility.yul\":10499:10519   */\n      tag_117\n      jump\t// in\n    tag_251:\n        /* \"#utility.yul\":10494:10519   */\n      swap3\n      pop\n        /* \"#utility.yul\":10543:10544   */\n      dup3\n        /* \"#utility.yul\":10540:10541   */\n      dup3\n        /* \"#utility.yul\":10536:10545   */\n      sub\n        /* \"#utility.yul\":10528:10545   */\n      swap1\n      pop\n        /* \"#utility.yul\":10567:10568   */\n      dup2\n        /* \"#utility.yul\":10561:10565   */\n      dup2\n        /* \"#utility.yul\":10558:10569   */\n      gt\n        /* \"#utility.yul\":10555:10592   */\n      iszero\n      tag_252\n      jumpi\n        /* \"#utility.yul\":10572:10590   */\n      tag_253\n      tag_142\n      jump\t// in\n    tag_253:\n        /* \"#utility.yul\":10555:10592   */\n    tag_252:\n        /* \"#utility.yul\":10405:10599   */\n      swap3\n      swap2\n      pop\n      pop\n      jump\t// out\n        /* \"#utility.yul\":10605:10796   */\n    tag_85:\n        /* \"#utility.yul\":10645:10648   */\n      0x00\n        /* \"#utility.yul\":10664:10684   */\n      tag_255\n        /* \"#utility.yul\":10682:10683   */\n      dup3\n        /* \"#utility.yul\":10664:10684   */\n      tag_117\n      jump\t// in\n    tag_255:\n        /* \"#utility.yul\":10659:10684   */\n      swap2\n      pop\n        /* \"#utility.yul\":10698:10718   */\n      tag_256\n        /* \"#utility.yul\":10716:10717   */\n      dup4\n        /* \"#utility.yul\":10698:10718   */\n      tag_117\n      jump\t// in\n    tag_256:\n        /* \"#utility.yul\":10693:10718   */\n      swap3\n      pop\n        /* \"#utility.yul\":10741:10742   */\n      dup3\n        /* \"#utility.yul\":10738:10739   */\n      dup3\n        /* \"#utility.yul\":10734:10743   */\n      add\n        /* \"#utility.yul\":10727:10743   */\n      swap1\n      pop\n        /* \"#utility.yul\":10762:10765   */\n      dup1\n        /* \"#utility.yul\":10759:10760   */\n      dup3\n        /* \"#utility.yul\":10756:10766   */\n      gt\n        /* \"#utility.yul\":10753:10789   */\n      iszero\n      tag_257\n      jumpi\n        /* \"#utility.yul\":10769:10787   */\n      tag_258\n      tag_142\n      jump\t// in\n    tag_258:\n        /* \"#utility.yul\":10753:10789   */\n    tag_257:\n        /* \"#utility.yul\":10605:10796   */\n      swap3\n      swap2\n      pop\n      pop\n      jump\t// out\n\n    auxdata: 0xa2646970667358221220693b79c686d8a9142f0a05f56ca8b54a08f4e9a1aab685b73a4c513d209a4ecd64736f6c634300081a0033\n}\n",
				"bytecode": {
					"linkReferences": {},
					"object": "608060405234801561000f575f80fd5b5060405161153e38038061153e833981810160405281019061003191906101cb565b5f8173ffffffffffffffffffffffffffffffffffffffff163060405160240161005a9190610205565b6040516020818303038152906040527fdaa93f60000000000000000000000000000000000000000000000000000000007bffffffffffffffffffffffffffffffffffffffffffffffffffffffff19166020820180517bffffffffffffffffffffffffffffffffffffffffffffffffffffffff83818316178352505050506040516100e49190610270565b5f604051808303815f865af19150503d805f811461011d576040519150601f19603f3d011682016040523d82523d5f602084013e610122565b606091505b5050905080610166576040517f08c379a000000000000000000000000000000000000000000000000000000000815260040161015d906102e0565b60405180910390fd5b50506102fe565b5f80fd5b5f73ffffffffffffffffffffffffffffffffffffffff82169050919050565b5f61019a82610171565b9050919050565b6101aa81610190565b81146101b4575f80fd5b50565b5f815190506101c5816101a1565b92915050565b5f602082840312156101e0576101df61016d565b5b5f6101ed848285016101b7565b91505092915050565b6101ff81610190565b82525050565b5f6020820190506102185f8301846101f6565b92915050565b5f81519050919050565b5f81905092915050565b8281835e5f83830152505050565b5f61024a8261021e565b6102548185610228565b9350610264818560208601610232565b80840191505092915050565b5f61027b8284610240565b915081905092915050565b5f82825260208201905092915050565b7f4661696c656400000000000000000000000000000000000000000000000000005f82015250565b5f6102ca600683610286565b91506102d582610296565b602082019050919050565b5f6020820190508181035f8301526102f7816102be565b9050919050565b6112338061030b5f395ff3fe60806040526004361061007e575f3560e01c806384fe627a1161004d57806384fe627a1461013d578063a87430ba14610165578063bf96ae63146101a2578063d0e30db0146101b857610085565b806309921939146100895780632e1a7d4d146100b15780636da1339c146100d95780636f77926b1461010157610085565b3661008557005b5f80fd5b348015610094575f80fd5b506100af60048036038101906100aa9190610d3f565b6101c2565b005b3480156100bc575f80fd5b506100d760048036038101906100d29190610d7d565b61042f565b005b3480156100e4575f80fd5b506100ff60048036038101906100fa9190610de3565b610617565b005b34801561010c575f80fd5b5061012760048036038101906101229190610e21565b61073b565b6040516101349190610e97565b60405180910390f35b348015610148575f80fd5b50610163600480360381019061015e9190610eb0565b6107ef565b005b348015610170575f80fd5b5061018b60048036038101906101869190610e21565b610a5d565b604051610199929190610f1e565b60405180910390f35b3480156101ad575f80fd5b506101b6610a9b565b005b6101c0610b55565b005b5f73ffffffffffffffffffffffffffffffffffffffff168273ffffffffffffffffffffffffffffffffffffffff16636f77926b336040518263ffffffff1660e01b81526004016102129190610f45565b6040805180830381865afa15801561022c573d5f803e3d5ffd5b505050506040513d601f19601f82011682018060405250810190610250919061105f565b5f015173ffffffffffffffffffffffffffffffffffffffff16036102a9576040517f08c379a00000000000000000000000000000000000000000000000000000000081526004016102a0906110e4565b60405180910390fd5b805f803373ffffffffffffffffffffffffffffffffffffffff1673ffffffffffffffffffffffffffffffffffffffff1681526020019081526020015f20600101541161032a576040517f08c379a00000000000000000000000000000000000000000000000000000000081526004016103219061114c565b60405180910390fd5b8173ffffffffffffffffffffffffffffffffffffffff166108fc8290811502906040515f60405180830381858888f1935050505015801561036d573d5f803e3d5ffd5b50805f803373ffffffffffffffffffffffffffffffffffffffff1673ffffffffffffffffffffffffffffffffffffffff1681526020019081526020015f206001015f8282546103bc9190611197565b925050819055508173ffffffffffffffffffffffffffffffffffffffff16636da1339c33836040518363ffffffff1660e01b81526004016103fe929190610f1e565b5f604051808303815f87803b158015610415575f80fd5b505af1158015610427573d5f803e3d5ffd5b505050505050565b5f73ffffffffffffffffffffffffffffffffffffffff165f803373ffffffffffffffffffffffffffffffffffffffff1673ffffffffffffffffffffffffffffffffffffffff1681526020019081526020015f205f015f9054906101000a900473ffffffffffffffffffffffffffffffffffffffff1673ffffffffffffffffffffffffffffffffffffffff16036104fa576040517f08c379a00000000000000000000000000000000000000000000000000000000081526004016104f1906110e4565b60405180910390fd5b805f803373ffffffffffffffffffffffffffffffffffffffff1673ffffffffffffffffffffffffffffffffffffffff1681526020019081526020015f20600101541161057b576040517f08c379a00000000000000000000000000000000000000000000000000000000081526004016105729061114c565b60405180910390fd5b3373ffffffffffffffffffffffffffffffffffffffff166108fc8290811502906040515f60405180830381858888f193505050501580156105be573d5f803e3d5ffd5b50805f803373ffffffffffffffffffffffffffffffffffffffff1673ffffffffffffffffffffffffffffffffffffffff1681526020019081526020015f206001015f82825461060d9190611197565b9250508190555050565b5f73ffffffffffffffffffffffffffffffffffffffff165f808473ffffffffffffffffffffffffffffffffffffffff1673ffffffffffffffffffffffffffffffffffffffff1681526020019081526020015f205f015f9054906101000a900473ffffffffffffffffffffffffffffffffffffffff1673ffffffffffffffffffffffffffffffffffffffff16036106e2576040517f08c379a00000000000000000000000000000000000000000000000000000000081526004016106d9906110e4565b60405180910390fd5b805f808473ffffffffffffffffffffffffffffffffffffffff1673ffffffffffffffffffffffffffffffffffffffff1681526020019081526020015f206001015f82825461073091906111ca565b925050819055505050565b610743610c77565b5f808373ffffffffffffffffffffffffffffffffffffffff1673ffffffffffffffffffffffffffffffffffffffff1681526020019081526020015f206040518060400160405290815f82015f9054906101000a900473ffffffffffffffffffffffffffffffffffffffff1673ffffffffffffffffffffffffffffffffffffffff1673ffffffffffffffffffffffffffffffffffffffff1681526020016001820154815250509050919050565b5f73ffffffffffffffffffffffffffffffffffffffff168373ffffffffffffffffffffffffffffffffffffffff16636f77926b846040518263ffffffff1660e01b815260040161083f9190610f45565b6040805180830381865afa158015610859573d5f803e3d5ffd5b505050506040513d601f19601f8201168201806040525081019061087d919061105f565b5f015173ffffffffffffffffffffffffffffffffffffffff16036108d6576040517f08c379a00000000000000000000000000000000000000000000000000000000081526004016108cd906110e4565b60405180910390fd5b805f803373ffffffffffffffffffffffffffffffffffffffff1673ffffffffffffffffffffffffffffffffffffffff1681526020019081526020015f206001015411610957576040517f08c379a000000000000000000000000000000000000000000000000000000000815260040161094e9061114c565b60405180910390fd5b8273ffffffffffffffffffffffffffffffffffffffff166108fc8290811502906040515f60405180830381858888f1935050505015801561099a573d5f803e3d5ffd5b50805f803373ffffffffffffffffffffffffffffffffffffffff1673ffffffffffffffffffffffffffffffffffffffff1681526020019081526020015f206001015f8282546109e99190611197565b925050819055508273ffffffffffffffffffffffffffffffffffffffff16636da1339c83836040518363ffffffff1660e01b8152600401610a2b929190610f1e565b5f604051808303815f87803b158015610a42575f80fd5b505af1158015610a54573d5f803e3d5ffd5b50505050505050565b5f602052805f5260405f205f91509050805f015f9054906101000a900473ffffffffffffffffffffffffffffffffffffffff16908060010154905082565b60405180604001604052803373ffffffffffffffffffffffffffffffffffffffff1681526020015f8152505f803373ffffffffffffffffffffffffffffffffffffffff1673ffffffffffffffffffffffffffffffffffffffff1681526020019081526020015f205f820151815f015f6101000a81548173ffffffffffffffffffffffffffffffffffffffff021916908373ffffffffffffffffffffffffffffffffffffffff16021790555060208201518160010155905050565b5f73ffffffffffffffffffffffffffffffffffffffff165f803373ffffffffffffffffffffffffffffffffffffffff1673ffffffffffffffffffffffffffffffffffffffff1681526020019081526020015f205f015f9054906101000a900473ffffffffffffffffffffffffffffffffffffffff1673ffffffffffffffffffffffffffffffffffffffff1603610c20576040517f08c379a0000000000000000000000000000000000000000000000000000000008152600401610c17906110e4565b60405180910390fd5b345f803373ffffffffffffffffffffffffffffffffffffffff1673ffffffffffffffffffffffffffffffffffffffff1681526020019081526020015f206001015f828254610c6e91906111ca565b92505081905550565b60405180604001604052805f73ffffffffffffffffffffffffffffffffffffffff1681526020015f81525090565b5f604051905090565b5f80fd5b5f73ffffffffffffffffffffffffffffffffffffffff82169050919050565b5f610cdb82610cb2565b9050919050565b610ceb81610cd1565b8114610cf5575f80fd5b50565b5f81359050610d0681610ce2565b92915050565b5f819050919050565b610d1e81610d0c565b8114610d28575f80fd5b50565b5f81359050610d3981610d15565b92915050565b5f8060408385031215610d5557610d54610cae565b5b5f610d6285828601610cf8565b9250506020610d7385828601610d2b565b9150509250929050565b5f60208284031215610d9257610d91610cae565b5b5f610d9f84828501610d2b565b91505092915050565b5f610db282610cb2565b9050919050565b610dc281610da8565b8114610dcc575f80fd5b50565b5f81359050610ddd81610db9565b92915050565b5f8060408385031215610df957610df8610cae565b5b5f610e0685828601610dcf565b9250506020610e1785828601610d2b565b9150509250929050565b5f60208284031215610e3657610e35610cae565b5b5f610e4384828501610dcf565b91505092915050565b610e5581610da8565b82525050565b610e6481610d0c565b82525050565b604082015f820151610e7e5f850182610e4c565b506020820151610e916020850182610e5b565b50505050565b5f604082019050610eaa5f830184610e6a565b92915050565b5f805f60608486031215610ec757610ec6610cae565b5b5f610ed486828701610cf8565b9350506020610ee586828701610dcf565b9250506040610ef686828701610d2b565b9150509250925092565b610f0981610da8565b82525050565b610f1881610d0c565b82525050565b5f604082019050610f315f830185610f00565b610f3e6020830184610f0f565b9392505050565b5f602082019050610f585f830184610f00565b92915050565b5f80fd5b5f601f19601f8301169050919050565b7f4e487b71000000000000000000000000000000000000000000000000000000005f52604160045260245ffd5b610fa882610f62565b810181811067ffffffffffffffff82111715610fc757610fc6610f72565b5b80604052505050565b5f610fd9610ca5565b9050610fe58282610f9f565b919050565b5f81519050610ff881610db9565b92915050565b5f8151905061100c81610d15565b92915050565b5f6040828403121561102757611026610f5e565b5b6110316040610fd0565b90505f61104084828501610fea565b5f83015250602061105384828501610ffe565b60208301525092915050565b5f6040828403121561107457611073610cae565b5b5f61108184828501611012565b91505092915050565b5f82825260208201905092915050565b7f6e65656420746f207265676973746572206669727374000000000000000000005f82015250565b5f6110ce60168361108a565b91506110d98261109a565b602082019050919050565b5f6020820190508181035f8301526110fb816110c2565b9050919050565b7f6e6f7420656e6f756768206d6f6e6579000000000000000000000000000000005f82015250565b5f61113660108361108a565b915061114182611102565b602082019050919050565b5f6020820190508181035f8301526111638161112a565b9050919050565b7f4e487b71000000000000000000000000000000000000000000000000000000005f52601160045260245ffd5b5f6111a182610d0c565b91506111ac83610d0c565b92508282039050818111156111c4576111c361116a565b5b92915050565b5f6111d482610d0c565b91506111df83610d0c565b92508282019050808211156111f7576111f661116a565b5b9291505056fea2646970667358221220693b79c686d8a9142f0a05f56ca8b54a08f4e9a1aab685b73a4c513d209a4ecd64736f6c634300081a0033",
					"opcodes": "PUSH1 0x80 PUSH1 0x40 MSTORE CALLVALUE DUP1 ISZERO PUSH2 0xF JUMPI PUSH0 DUP1 REVERT JUMPDEST POP PUSH1 0x40 MLOAD PUSH2 0x153E CODESIZE SUB DUP1 PUSH2 0x153E DUP4 CODECOPY DUP2 DUP2 ADD PUSH1 0x40 MSTORE DUP2 ADD SWAP1 PUSH2 0x31 SWAP2 SWAP1 PUSH2 0x1CB JUMP JUMPDEST PUSH0 DUP2 PUSH20 0xFFFFFFFFFFFFFFFFFFFFFFFFFFFFFFFFFFFFFFFF AND ADDRESS PUSH1 0x40 MLOAD PUSH1 0x24 ADD PUSH2 0x5A SWAP2 SWAP1 PUSH2 0x205 JUMP JUMPDEST PUSH1 0x40 MLOAD PUSH1 0x20 DUP2 DUP4 SUB SUB DUP2 MSTORE SWAP1 PUSH1 0x40 MSTORE PUSH32 0xDAA93F6000000000000000000000000000000000000000000000000000000000 PUSH28 0xFFFFFFFFFFFFFFFFFFFFFFFFFFFFFFFFFFFFFFFFFFFFFFFFFFFFFFFF NOT AND PUSH1 0x20 DUP3 ADD DUP1 MLOAD PUSH28 0xFFFFFFFFFFFFFFFFFFFFFFFFFFFFFFFFFFFFFFFFFFFFFFFFFFFFFFFF DUP4 DUP2 DUP4 AND OR DUP4 MSTORE POP POP POP POP PUSH1 0x40 MLOAD PUSH2 0xE4 SWAP2 SWAP1 PUSH2 0x270 JUMP JUMPDEST PUSH0 PUSH1 0x40 MLOAD DUP1 DUP4 SUB DUP2 PUSH0 DUP7 GAS CALL SWAP2 POP POP RETURNDATASIZE DUP1 PUSH0 DUP2 EQ PUSH2 0x11D JUMPI PUSH1 0x40 MLOAD SWAP2 POP PUSH1 0x1F NOT PUSH1 0x3F RETURNDATASIZE ADD AND DUP3 ADD PUSH1 0x40 MSTORE RETURNDATASIZE DUP3 MSTORE RETURNDATASIZE PUSH0 PUSH1 0x20 DUP5 ADD RETURNDATACOPY PUSH2 0x122 JUMP JUMPDEST PUSH1 0x60 SWAP2 POP JUMPDEST POP POP SWAP1 POP DUP1 PUSH2 0x166 JUMPI PUSH1 0x40 MLOAD PUSH32 0x8C379A000000000000000000000000000000000000000000000000000000000 DUP2 MSTORE PUSH1 0x4 ADD PUSH2 0x15D SWAP1 PUSH2 0x2E0 JUMP JUMPDEST PUSH1 0x40 MLOAD DUP1 SWAP2 SUB SWAP1 REVERT JUMPDEST POP POP PUSH2 0x2FE JUMP JUMPDEST PUSH0 DUP1 REVERT JUMPDEST PUSH0 PUSH20 0xFFFFFFFFFFFFFFFFFFFFFFFFFFFFFFFFFFFFFFFF DUP3 AND SWAP1 POP SWAP2 SWAP1 POP JUMP JUMPDEST PUSH0 PUSH2 0x19A DUP3 PUSH2 0x171 JUMP JUMPDEST SWAP1 POP SWAP2 SWAP1 POP JUMP JUMPDEST PUSH2 0x1AA DUP2 PUSH2 0x190 JUMP JUMPDEST DUP2 EQ PUSH2 0x1B4 JUMPI PUSH0 DUP1 REVERT JUMPDEST POP JUMP JUMPDEST PUSH0 DUP2 MLOAD SWAP1 POP PUSH2 0x1C5 DUP2 PUSH2 0x1A1 JUMP JUMPDEST SWAP3 SWAP2 POP POP JUMP JUMPDEST PUSH0 PUSH1 0x20 DUP3 DUP5 SUB SLT ISZERO PUSH2 0x1E0 JUMPI PUSH2 0x1DF PUSH2 0x16D JUMP JUMPDEST JUMPDEST PUSH0 PUSH2 0x1ED DUP5 DUP3 DUP6 ADD PUSH2 0x1B7 JUMP JUMPDEST SWAP2 POP POP SWAP3 SWAP2 POP POP JUMP JUMPDEST PUSH2 0x1FF DUP2 PUSH2 0x190 JUMP JUMPDEST DUP3 MSTORE POP POP JUMP JUMPDEST PUSH0 PUSH1 0x20 DUP3 ADD SWAP1 POP PUSH2 0x218 PUSH0 DUP4 ADD DUP5 PUSH2 0x1F6 JUMP JUMPDEST SWAP3 SWAP2 POP POP JUMP JUMPDEST PUSH0 DUP2 MLOAD SWAP1 POP SWAP2 SWAP1 POP JUMP JUMPDEST PUSH0 DUP2 SWAP1 POP SWAP3 SWAP2 POP POP JUMP JUMPDEST DUP3 DUP2 DUP4 MCOPY PUSH0 DUP4 DUP4 ADD MSTORE POP POP POP JUMP JUMPDEST PUSH0 PUSH2 0x24A DUP3 PUSH2 0x21E JUMP JUMPDEST PUSH2 0x254 DUP2 DUP6 PUSH2 0x228 JUMP JUMPDEST SWAP4 POP PUSH2 0x264 DUP2 DUP6 PUSH1 0x20 DUP7 ADD PUSH2 0x232 JUMP JUMPDEST DUP1 DUP5 ADD SWAP2 POP POP SWAP3 SWAP2 POP POP JUMP JUMPDEST PUSH0 PUSH2 0x27B DUP3 DUP5 PUSH2 0x240 JUMP JUMPDEST SWAP2 POP DUP2 SWAP1 POP SWAP3 SWAP2 POP POP JUMP JUMPDEST PUSH0 DUP3 DUP3 MSTORE PUSH1 0x20 DUP3 ADD SWAP1 POP SWAP3 SWAP2 POP POP JUMP JUMPDEST PUSH32 0x4661696C65640000000000000000000000000000000000000000000000000000 PUSH0 DUP3 ADD MSTORE POP JUMP JUMPDEST PUSH0 PUSH2 0x2CA PUSH1 0x6 DUP4 PUSH2 0x286 JUMP JUMPDEST SWAP2 POP PUSH2 0x2D5 DUP3 PUSH2 0x296 JUMP JUMPDEST PUSH1 0x20 DUP3 ADD SWAP1 POP SWAP2 SWAP1 POP JUMP JUMPDEST PUSH0 PUSH1 0x20 DUP3 ADD SWAP1 POP DUP2 DUP2 SUB PUSH0 DUP4 ADD MSTORE PUSH2 0x2F7 DUP2 PUSH2 0x2BE JUMP JUMPDEST SWAP1 POP SWAP2 SWAP1 POP JUMP JUMPDEST PUSH2 0x1233 DUP1 PUSH2 0x30B PUSH0 CODECOPY PUSH0 RETURN INVALID PUSH1 0x80 PUSH1 0x40 MSTORE PUSH1 0x4 CALLDATASIZE LT PUSH2 0x7E JUMPI PUSH0 CALLDATALOAD PUSH1 0xE0 SHR DUP1 PUSH4 0x84FE627A GT PUSH2 0x4D JUMPI DUP1 PUSH4 0x84FE627A EQ PUSH2 0x13D JUMPI DUP1 PUSH4 0xA87430BA EQ PUSH2 0x165 JUMPI DUP1 PUSH4 0xBF96AE63 EQ PUSH2 0x1A2 JUMPI DUP1 PUSH4 0xD0E30DB0 EQ PUSH2 0x1B8 JUMPI PUSH2 0x85 JUMP JUMPDEST DUP1 PUSH4 0x9921939 EQ PUSH2 0x89 JUMPI DUP1 PUSH4 0x2E1A7D4D EQ PUSH2 0xB1 JUMPI DUP1 PUSH4 0x6DA1339C EQ PUSH2 0xD9 JUMPI DUP1 PUSH4 0x6F77926B EQ PUSH2 0x101 JUMPI PUSH2 0x85 JUMP JUMPDEST CALLDATASIZE PUSH2 0x85 JUMPI STOP JUMPDEST PUSH0 DUP1 REVERT JUMPDEST CALLVALUE DUP1 ISZERO PUSH2 0x94 JUMPI PUSH0 DUP1 REVERT JUMPDEST POP PUSH2 0xAF PUSH1 0x4 DUP1 CALLDATASIZE SUB DUP2 ADD SWAP1 PUSH2 0xAA SWAP2 SWAP1 PUSH2 0xD3F JUMP JUMPDEST PUSH2 0x1C2 JUMP JUMPDEST STOP JUMPDEST CALLVALUE DUP1 ISZERO PUSH2 0xBC JUMPI PUSH0 DUP1 REVERT JUMPDEST POP PUSH2 0xD7 PUSH1 0x4 DUP1 CALLDATASIZE SUB DUP2 ADD SWAP1 PUSH2 0xD2 SWAP2 SWAP1 PUSH2 0xD7D JUMP JUMPDEST PUSH2 0x42F JUMP JUMPDEST STOP JUMPDEST CALLVALUE DUP1 ISZERO PUSH2 0xE4 JUMPI PUSH0 DUP1 REVERT JUMPDEST POP PUSH2 0xFF PUSH1 0x4 DUP1 CALLDATASIZE SUB DUP2 ADD SWAP1 PUSH2 0xFA SWAP2 SWAP1 PUSH2 0xDE3 JUMP JUMPDEST PUSH2 0x617 JUMP JUMPDEST STOP JUMPDEST CALLVALUE DUP1 ISZERO PUSH2 0x10C JUMPI PUSH0 DUP1 REVERT JUMPDEST POP PUSH2 0x127 PUSH1 0x4 DUP1 CALLDATASIZE SUB DUP2 ADD SWAP1 PUSH2 0x122 SWAP2 SWAP1 PUSH2 0xE21 JUMP JUMPDEST PUSH2 0x73B JUMP JUMPDEST PUSH1 0x40 MLOAD PUSH2 0x134 SWAP2 SWAP1 PUSH2 0xE97 JUMP JUMPDEST PUSH1 0x40 MLOAD DUP1 SWAP2 SUB SWAP1 RETURN JUMPDEST CALLVALUE DUP1 ISZERO PUSH2 0x148 JUMPI PUSH0 DUP1 REVERT JUMPDEST POP PUSH2 0x163 PUSH1 0x4 DUP1 CALLDATASIZE SUB DUP2 ADD SWAP1 PUSH2 0x15E SWAP2 SWAP1 PUSH2 0xEB0 JUMP JUMPDEST PUSH2 0x7EF JUMP JUMPDEST STOP JUMPDEST CALLVALUE DUP1 ISZERO PUSH2 0x170 JUMPI PUSH0 DUP1 REVERT JUMPDEST POP PUSH2 0x18B PUSH1 0x4 DUP1 CALLDATASIZE SUB DUP2 ADD SWAP1 PUSH2 0x186 SWAP2 SWAP1 PUSH2 0xE21 JUMP JUMPDEST PUSH2 0xA5D JUMP JUMPDEST PUSH1 0x40 MLOAD PUSH2 0x199 SWAP3 SWAP2 SWAP1 PUSH2 0xF1E JUMP JUMPDEST PUSH1 0x40 MLOAD DUP1 SWAP2 SUB SWAP1 RETURN JUMPDEST CALLVALUE DUP1 ISZERO PUSH2 0x1AD JUMPI PUSH0 DUP1 REVERT JUMPDEST POP PUSH2 0x1B6 PUSH2 0xA9B JUMP JUMPDEST STOP JUMPDEST PUSH2 0x1C0 PUSH2 0xB55 JUMP JUMPDEST STOP JUMPDEST PUSH0 PUSH20 0xFFFFFFFFFFFFFFFFFFFFFFFFFFFFFFFFFFFFFFFF AND DUP3 PUSH20 0xFFFFFFFFFFFFFFFFFFFFFFFFFFFFFFFFFFFFFFFF AND PUSH4 0x6F77926B CALLER PUSH1 0x40 MLOAD DUP3 PUSH4 0xFFFFFFFF AND PUSH1 0xE0 SHL DUP2 MSTORE PUSH1 0x4 ADD PUSH2 0x212 SWAP2 SWAP1 PUSH2 0xF45 JUMP JUMPDEST PUSH1 0x40 DUP1 MLOAD DUP1 DUP4 SUB DUP2 DUP7 GAS STATICCALL ISZERO DUP1 ISZERO PUSH2 0x22C JUMPI RETURNDATASIZE PUSH0 DUP1 RETURNDATACOPY RETURNDATASIZE PUSH0 REVERT JUMPDEST POP POP POP POP PUSH1 0x40 MLOAD RETURNDATASIZE PUSH1 0x1F NOT PUSH1 0x1F DUP3 ADD AND DUP3 ADD DUP1 PUSH1 0x40 MSTORE POP DUP2 ADD SWAP1 PUSH2 0x250 SWAP2 SWAP1 PUSH2 0x105F JUMP JUMPDEST PUSH0 ADD MLOAD PUSH20 0xFFFFFFFFFFFFFFFFFFFFFFFFFFFFFFFFFFFFFFFF AND SUB PUSH2 0x2A9 JUMPI PUSH1 0x40 MLOAD PUSH32 0x8C379A000000000000000000000000000000000000000000000000000000000 DUP2 MSTORE PUSH1 0x4 ADD PUSH2 0x2A0 SWAP1 PUSH2 0x10E4 JUMP JUMPDEST PUSH1 0x40 MLOAD DUP1 SWAP2 SUB SWAP1 REVERT JUMPDEST DUP1 PUSH0 DUP1 CALLER PUSH20 0xFFFFFFFFFFFFFFFFFFFFFFFFFFFFFFFFFFFFFFFF AND PUSH20 0xFFFFFFFFFFFFFFFFFFFFFFFFFFFFFFFFFFFFFFFF AND DUP2 MSTORE PUSH1 0x20 ADD SWAP1 DUP2 MSTORE PUSH1 0x20 ADD PUSH0 KECCAK256 PUSH1 0x1 ADD SLOAD GT PUSH2 0x32A JUMPI PUSH1 0x40 MLOAD PUSH32 0x8C379A000000000000000000000000000000000000000000000000000000000 DUP2 MSTORE PUSH1 0x4 ADD PUSH2 0x321 SWAP1 PUSH2 0x114C JUMP JUMPDEST PUSH1 0x40 MLOAD DUP1 SWAP2 SUB SWAP1 REVERT JUMPDEST DUP2 PUSH20 0xFFFFFFFFFFFFFFFFFFFFFFFFFFFFFFFFFFFFFFFF AND PUSH2 0x8FC DUP3 SWAP1 DUP2 ISZERO MUL SWAP1 PUSH1 0x40 MLOAD PUSH0 PUSH1 0x40 MLOAD DUP1 DUP4 SUB DUP2 DUP6 DUP9 DUP9 CALL SWAP4 POP POP POP POP ISZERO DUP1 ISZERO PUSH2 0x36D JUMPI RETURNDATASIZE PUSH0 DUP1 RETURNDATACOPY RETURNDATASIZE PUSH0 REVERT JUMPDEST POP DUP1 PUSH0 DUP1 CALLER PUSH20 0xFFFFFFFFFFFFFFFFFFFFFFFFFFFFFFFFFFFFFFFF AND PUSH20 0xFFFFFFFFFFFFFFFFFFFFFFFFFFFFFFFFFFFFFFFF AND DUP2 MSTORE PUSH1 0x20 ADD SWAP1 DUP2 MSTORE PUSH1 0x20 ADD PUSH0 KECCAK256 PUSH1 0x1 ADD PUSH0 DUP3 DUP3 SLOAD PUSH2 0x3BC SWAP2 SWAP1 PUSH2 0x1197 JUMP JUMPDEST SWAP3 POP POP DUP2 SWAP1 SSTORE POP DUP2 PUSH20 0xFFFFFFFFFFFFFFFFFFFFFFFFFFFFFFFFFFFFFFFF AND PUSH4 0x6DA1339C CALLER DUP4 PUSH1 0x40 MLOAD DUP4 PUSH4 0xFFFFFFFF AND PUSH1 0xE0 SHL DUP2 MSTORE PUSH1 0x4 ADD PUSH2 0x3FE SWAP3 SWAP2 SWAP1 PUSH2 0xF1E JUMP JUMPDEST PUSH0 PUSH1 0x40 MLOAD DUP1 DUP4 SUB DUP2 PUSH0 DUP8 DUP1 EXTCODESIZE ISZERO DUP1 ISZERO PUSH2 0x415 JUMPI PUSH0 DUP1 REVERT JUMPDEST POP GAS CALL ISZERO DUP1 ISZERO PUSH2 0x427 JUMPI RETURNDATASIZE PUSH0 DUP1 RETURNDATACOPY RETURNDATASIZE PUSH0 REVERT JUMPDEST POP POP POP POP POP POP JUMP JUMPDEST PUSH0 PUSH20 0xFFFFFFFFFFFFFFFFFFFFFFFFFFFFFFFFFFFFFFFF AND PUSH0 DUP1 CALLER PUSH20 0xFFFFFFFFFFFFFFFFFFFFFFFFFFFFFFFFFFFFFFFF AND PUSH20 0xFFFFFFFFFFFFFFFFFFFFFFFFFFFFFFFFFFFFFFFF AND DUP2 MSTORE PUSH1 0x20 ADD SWAP1 DUP2 MSTORE PUSH1 0x20 ADD PUSH0 KECCAK256 PUSH0 ADD PUSH0 SWAP1 SLOAD SWAP1 PUSH2 0x100 EXP SWAP1 DIV PUSH20 0xFFFFFFFFFFFFFFFFFFFFFFFFFFFFFFFFFFFFFFFF AND PUSH20 0xFFFFFFFFFFFFFFFFFFFFFFFFFFFFFFFFFFFFFFFF AND SUB PUSH2 0x4FA JUMPI PUSH1 0x40 MLOAD PUSH32 0x8C379A000000000000000000000000000000000000000000000000000000000 DUP2 MSTORE PUSH1 0x4 ADD PUSH2 0x4F1 SWAP1 PUSH2 0x10E4 JUMP JUMPDEST PUSH1 0x40 MLOAD DUP1 SWAP2 SUB SWAP1 REVERT JUMPDEST DUP1 PUSH0 DUP1 CALLER PUSH20 0xFFFFFFFFFFFFFFFFFFFFFFFFFFFFFFFFFFFFFFFF AND PUSH20 0xFFFFFFFFFFFFFFFFFFFFFFFFFFFFFFFFFFFFFFFF AND DUP2 MSTORE PUSH1 0x20 ADD SWAP1 DUP2 MSTORE PUSH1 0x20 ADD PUSH0 KECCAK256 PUSH1 0x1 ADD SLOAD GT PUSH2 0x57B JUMPI PUSH1 0x40 MLOAD PUSH32 0x8C379A000000000000000000000000000000000000000000000000000000000 DUP2 MSTORE PUSH1 0x4 ADD PUSH2 0x572 SWAP1 PUSH2 0x114C JUMP JUMPDEST PUSH1 0x40 MLOAD DUP1 SWAP2 SUB SWAP1 REVERT JUMPDEST CALLER PUSH20 0xFFFFFFFFFFFFFFFFFFFFFFFFFFFFFFFFFFFFFFFF AND PUSH2 0x8FC DUP3 SWAP1 DUP2 ISZERO MUL SWAP1 PUSH1 0x40 MLOAD PUSH0 PUSH1 0x40 MLOAD DUP1 DUP4 SUB DUP2 DUP6 DUP9 DUP9 CALL SWAP4 POP POP POP POP ISZERO DUP1 ISZERO PUSH2 0x5BE JUMPI RETURNDATASIZE PUSH0 DUP1 RETURNDATACOPY RETURNDATASIZE PUSH0 REVERT JUMPDEST POP DUP1 PUSH0 DUP1 CALLER PUSH20 0xFFFFFFFFFFFFFFFFFFFFFFFFFFFFFFFFFFFFFFFF AND PUSH20 0xFFFFFFFFFFFFFFFFFFFFFFFFFFFFFFFFFFFFFFFF AND DUP2 MSTORE PUSH1 0x20 ADD SWAP1 DUP2 MSTORE PUSH1 0x20 ADD PUSH0 KECCAK256 PUSH1 0x1 ADD PUSH0 DUP3 DUP3 SLOAD PUSH2 0x60D SWAP2 SWAP1 PUSH2 0x1197 JUMP JUMPDEST SWAP3 POP POP DUP2 SWAP1 SSTORE POP POP JUMP JUMPDEST PUSH0 PUSH20 0xFFFFFFFFFFFFFFFFFFFFFFFFFFFFFFFFFFFFFFFF AND PUSH0 DUP1 DUP5 PUSH20 0xFFFFFFFFFFFFFFFFFFFFFFFFFFFFFFFFFFFFFFFF AND PUSH20 0xFFFFFFFFFFFFFFFFFFFFFFFFFFFFFFFFFFFFFFFF AND DUP2 MSTORE PUSH1 0x20 ADD SWAP1 DUP2 MSTORE PUSH1 0x20 ADD PUSH0 KECCAK256 PUSH0 ADD PUSH0 SWAP1 SLOAD SWAP1 PUSH2 0x100 EXP SWAP1 DIV PUSH20 0xFFFFFFFFFFFFFFFFFFFFFFFFFFFFFFFFFFFFFFFF AND PUSH20 0xFFFFFFFFFFFFFFFFFFFFFFFFFFFFFFFFFFFFFFFF AND SUB PUSH2 0x6E2 JUMPI PUSH1 0x40 MLOAD PUSH32 0x8C379A000000000000000000000000000000000000000000000000000000000 DUP2 MSTORE PUSH1 0x4 ADD PUSH2 0x6D9 SWAP1 PUSH2 0x10E4 JUMP JUMPDEST PUSH1 0x40 MLOAD DUP1 SWAP2 SUB SWAP1 REVERT JUMPDEST DUP1 PUSH0 DUP1 DUP5 PUSH20 0xFFFFFFFFFFFFFFFFFFFFFFFFFFFFFFFFFFFFFFFF AND PUSH20 0xFFFFFFFFFFFFFFFFFFFFFFFFFFFFFFFFFFFFFFFF AND DUP2 MSTORE PUSH1 0x20 ADD SWAP1 DUP2 MSTORE PUSH1 0x20 ADD PUSH0 KECCAK256 PUSH1 0x1 ADD PUSH0 DUP3 DUP3 SLOAD PUSH2 0x730 SWAP2 SWAP1 PUSH2 0x11CA JUMP JUMPDEST SWAP3 POP POP DUP2 SWAP1 SSTORE POP POP POP JUMP JUMPDEST PUSH2 0x743 PUSH2 0xC77 JUMP JUMPDEST PUSH0 DUP1 DUP4 PUSH20 0xFFFFFFFFFFFFFFFFFFFFFFFFFFFFFFFFFFFFFFFF AND PUSH20 0xFFFFFFFFFFFFFFFFFFFFFFFFFFFFFFFFFFFFFFFF AND DUP2 MSTORE PUSH1 0x20 ADD SWAP1 DUP2 MSTORE PUSH1 0x20 ADD PUSH0 KECCAK256 PUSH1 0x40 MLOAD DUP1 PUSH1 0x40 ADD PUSH1 0x40 MSTORE SWAP1 DUP2 PUSH0 DUP3 ADD PUSH0 SWAP1 SLOAD SWAP1 PUSH2 0x100 EXP SWAP1 DIV PUSH20 0xFFFFFFFFFFFFFFFFFFFFFFFFFFFFFFFFFFFFFFFF AND PUSH20 0xFFFFFFFFFFFFFFFFFFFFFFFFFFFFFFFFFFFFFFFF AND PUSH20 0xFFFFFFFFFFFFFFFFFFFFFFFFFFFFFFFFFFFFFFFF AND DUP2 MSTORE PUSH1 0x20 ADD PUSH1 0x1 DUP3 ADD SLOAD DUP2 MSTORE POP POP SWAP1 POP SWAP2 SWAP1 POP JUMP JUMPDEST PUSH0 PUSH20 0xFFFFFFFFFFFFFFFFFFFFFFFFFFFFFFFFFFFFFFFF AND DUP4 PUSH20 0xFFFFFFFFFFFFFFFFFFFFFFFFFFFFFFFFFFFFFFFF AND PUSH4 0x6F77926B DUP5 PUSH1 0x40 MLOAD DUP3 PUSH4 0xFFFFFFFF AND PUSH1 0xE0 SHL DUP2 MSTORE PUSH1 0x4 ADD PUSH2 0x83F SWAP2 SWAP1 PUSH2 0xF45 JUMP JUMPDEST PUSH1 0x40 DUP1 MLOAD DUP1 DUP4 SUB DUP2 DUP7 GAS STATICCALL ISZERO DUP1 ISZERO PUSH2 0x859 JUMPI RETURNDATASIZE PUSH0 DUP1 RETURNDATACOPY RETURNDATASIZE PUSH0 REVERT JUMPDEST POP POP POP POP PUSH1 0x40 MLOAD RETURNDATASIZE PUSH1 0x1F NOT PUSH1 0x1F DUP3 ADD AND DUP3 ADD DUP1 PUSH1 0x40 MSTORE POP DUP2 ADD SWAP1 PUSH2 0x87D SWAP2 SWAP1 PUSH2 0x105F JUMP JUMPDEST PUSH0 ADD MLOAD PUSH20 0xFFFFFFFFFFFFFFFFFFFFFFFFFFFFFFFFFFFFFFFF AND SUB PUSH2 0x8D6 JUMPI PUSH1 0x40 MLOAD PUSH32 0x8C379A000000000000000000000000000000000000000000000000000000000 DUP2 MSTORE PUSH1 0x4 ADD PUSH2 0x8CD SWAP1 PUSH2 0x10E4 JUMP JUMPDEST PUSH1 0x40 MLOAD DUP1 SWAP2 SUB SWAP1 REVERT JUMPDEST DUP1 PUSH0 DUP1 CALLER PUSH20 0xFFFFFFFFFFFFFFFFFFFFFFFFFFFFFFFFFFFFFFFF AND PUSH20 0xFFFFFFFFFFFFFFFFFFFFFFFFFFFFFFFFFFFFFFFF AND DUP2 MSTORE PUSH1 0x20 ADD SWAP1 DUP2 MSTORE PUSH1 0x20 ADD PUSH0 KECCAK256 PUSH1 0x1 ADD SLOAD GT PUSH2 0x957 JUMPI PUSH1 0x40 MLOAD PUSH32 0x8C379A000000000000000000000000000000000000000000000000000000000 DUP2 MSTORE PUSH1 0x4 ADD PUSH2 0x94E SWAP1 PUSH2 0x114C JUMP JUMPDEST PUSH1 0x40 MLOAD DUP1 SWAP2 SUB SWAP1 REVERT JUMPDEST DUP3 PUSH20 0xFFFFFFFFFFFFFFFFFFFFFFFFFFFFFFFFFFFFFFFF AND PUSH2 0x8FC DUP3 SWAP1 DUP2 ISZERO MUL SWAP1 PUSH1 0x40 MLOAD PUSH0 PUSH1 0x40 MLOAD DUP1 DUP4 SUB DUP2 DUP6 DUP9 DUP9 CALL SWAP4 POP POP POP POP ISZERO DUP1 ISZERO PUSH2 0x99A JUMPI RETURNDATASIZE PUSH0 DUP1 RETURNDATACOPY RETURNDATASIZE PUSH0 REVERT JUMPDEST POP DUP1 PUSH0 DUP1 CALLER PUSH20 0xFFFFFFFFFFFFFFFFFFFFFFFFFFFFFFFFFFFFFFFF AND PUSH20 0xFFFFFFFFFFFFFFFFFFFFFFFFFFFFFFFFFFFFFFFF AND DUP2 MSTORE PUSH1 0x20 ADD SWAP1 DUP2 MSTORE PUSH1 0x20 ADD PUSH0 KECCAK256 PUSH1 0x1 ADD PUSH0 DUP3 DUP3 SLOAD PUSH2 0x9E9 SWAP2 SWAP1 PUSH2 0x1197 JUMP JUMPDEST SWAP3 POP POP DUP2 SWAP1 SSTORE POP DUP3 PUSH20 0xFFFFFFFFFFFFFFFFFFFFFFFFFFFFFFFFFFFFFFFF AND PUSH4 0x6DA1339C DUP4 DUP4 PUSH1 0x40 MLOAD DUP4 PUSH4 0xFFFFFFFF AND PUSH1 0xE0 SHL DUP2 MSTORE PUSH1 0x4 ADD PUSH2 0xA2B SWAP3 SWAP2 SWAP1 PUSH2 0xF1E JUMP JUMPDEST PUSH0 PUSH1 0x40 MLOAD DUP1 DUP4 SUB DUP2 PUSH0 DUP8 DUP1 EXTCODESIZE ISZERO DUP1 ISZERO PUSH2 0xA42 JUMPI PUSH0 DUP1 REVERT JUMPDEST POP GAS CALL ISZERO DUP1 ISZERO PUSH2 0xA54 JUMPI RETURNDATASIZE PUSH0 DUP1 RETURNDATACOPY RETURNDATASIZE PUSH0 REVERT JUMPDEST POP POP POP POP POP POP POP JUMP JUMPDEST PUSH0 PUSH1 0x20 MSTORE DUP1 PUSH0 MSTORE PUSH1 0x40 PUSH0 KECCAK256 PUSH0 SWAP2 POP SWAP1 POP DUP1 PUSH0 ADD PUSH0 SWAP1 SLOAD SWAP1 PUSH2 0x100 EXP SWAP1 DIV PUSH20 0xFFFFFFFFFFFFFFFFFFFFFFFFFFFFFFFFFFFFFFFF AND SWAP1 DUP1 PUSH1 0x1 ADD SLOAD SWAP1 POP DUP3 JUMP JUMPDEST PUSH1 0x40 MLOAD DUP1 PUSH1 0x40 ADD PUSH1 0x40 MSTORE DUP1 CALLER PUSH20 0xFFFFFFFFFFFFFFFFFFFFFFFFFFFFFFFFFFFFFFFF AND DUP2 MSTORE PUSH1 0x20 ADD PUSH0 DUP2 MSTORE POP PUSH0 DUP1 CALLER PUSH20 0xFFFFFFFFFFFFFFFFFFFFFFFFFFFFFFFFFFFFFFFF AND PUSH20 0xFFFFFFFFFFFFFFFFFFFFFFFFFFFFFFFFFFFFFFFF AND DUP2 MSTORE PUSH1 0x20 ADD SWAP1 DUP2 MSTORE PUSH1 0x20 ADD PUSH0 KECCAK256 PUSH0 DUP3 ADD MLOAD DUP2 PUSH0 ADD PUSH0 PUSH2 0x100 EXP DUP2 SLOAD DUP2 PUSH20 0xFFFFFFFFFFFFFFFFFFFFFFFFFFFFFFFFFFFFFFFF MUL NOT AND SWAP1 DUP4 PUSH20 0xFFFFFFFFFFFFFFFFFFFFFFFFFFFFFFFFFFFFFFFF AND MUL OR SWAP1 SSTORE POP PUSH1 0x20 DUP3 ADD MLOAD DUP2 PUSH1 0x1 ADD SSTORE SWAP1 POP POP JUMP JUMPDEST PUSH0 PUSH20 0xFFFFFFFFFFFFFFFFFFFFFFFFFFFFFFFFFFFFFFFF AND PUSH0 DUP1 CALLER PUSH20 0xFFFFFFFFFFFFFFFFFFFFFFFFFFFFFFFFFFFFFFFF AND PUSH20 0xFFFFFFFFFFFFFFFFFFFFFFFFFFFFFFFFFFFFFFFF AND DUP2 MSTORE PUSH1 0x20 ADD SWAP1 DUP2 MSTORE PUSH1 0x20 ADD PUSH0 KECCAK256 PUSH0 ADD PUSH0 SWAP1 SLOAD SWAP1 PUSH2 0x100 EXP SWAP1 DIV PUSH20 0xFFFFFFFFFFFFFFFFFFFFFFFFFFFFFFFFFFFFFFFF AND PUSH20 0xFFFFFFFFFFFFFFFFFFFFFFFFFFFFFFFFFFFFFFFF AND SUB PUSH2 0xC20 JUMPI PUSH1 0x40 MLOAD PUSH32 0x8C379A000000000000000000000000000000000000000000000000000000000 DUP2 MSTORE PUSH1 0x4 ADD PUSH2 0xC17 SWAP1 PUSH2 0x10E4 JUMP JUMPDEST PUSH1 0x40 MLOAD DUP1 SWAP2 SUB SWAP1 REVERT JUMPDEST CALLVALUE PUSH0 DUP1 CALLER PUSH20 0xFFFFFFFFFFFFFFFFFFFFFFFFFFFFFFFFFFFFFFFF AND PUSH20 0xFFFFFFFFFFFFFFFFFFFFFFFFFFFFFFFFFFFFFFFF AND DUP2 MSTORE PUSH1 0x20 ADD SWAP1 DUP2 MSTORE PUSH1 0x20 ADD PUSH0 KECCAK256 PUSH1 0x1 ADD PUSH0 DUP3 DUP3 SLOAD PUSH2 0xC6E SWAP2 SWAP1 PUSH2 0x11CA JUMP JUMPDEST SWAP3 POP POP DUP2 SWAP1 SSTORE POP JUMP JUMPDEST PUSH1 0x40 MLOAD DUP1 PUSH1 0x40 ADD PUSH1 0x40 MSTORE DUP1 PUSH0 PUSH20 0xFFFFFFFFFFFFFFFFFFFFFFFFFFFFFFFFFFFFFFFF AND DUP2 MSTORE PUSH1 0x20 ADD PUSH0 DUP2 MSTORE POP SWAP1 JUMP JUMPDEST PUSH0 PUSH1 0x40 MLOAD SWAP1 POP SWAP1 JUMP JUMPDEST PUSH0 DUP1 REVERT JUMPDEST PUSH0 PUSH20 0xFFFFFFFFFFFFFFFFFFFFFFFFFFFFFFFFFFFFFFFF DUP3 AND SWAP1 POP SWAP2 SWAP1 POP JUMP JUMPDEST PUSH0 PUSH2 0xCDB DUP3 PUSH2 0xCB2 JUMP JUMPDEST SWAP1 POP SWAP2 SWAP1 POP JUMP JUMPDEST PUSH2 0xCEB DUP2 PUSH2 0xCD1 JUMP JUMPDEST DUP2 EQ PUSH2 0xCF5 JUMPI PUSH0 DUP1 REVERT JUMPDEST POP JUMP JUMPDEST PUSH0 DUP2 CALLDATALOAD SWAP1 POP PUSH2 0xD06 DUP2 PUSH2 0xCE2 JUMP JUMPDEST SWAP3 SWAP2 POP POP JUMP JUMPDEST PUSH0 DUP2 SWAP1 POP SWAP2 SWAP1 POP JUMP JUMPDEST PUSH2 0xD1E DUP2 PUSH2 0xD0C JUMP JUMPDEST DUP2 EQ PUSH2 0xD28 JUMPI PUSH0 DUP1 REVERT JUMPDEST POP JUMP JUMPDEST PUSH0 DUP2 CALLDATALOAD SWAP1 POP PUSH2 0xD39 DUP2 PUSH2 0xD15 JUMP JUMPDEST SWAP3 SWAP2 POP POP JUMP JUMPDEST PUSH0 DUP1 PUSH1 0x40 DUP4 DUP6 SUB SLT ISZERO PUSH2 0xD55 JUMPI PUSH2 0xD54 PUSH2 0xCAE JUMP JUMPDEST JUMPDEST PUSH0 PUSH2 0xD62 DUP6 DUP3 DUP7 ADD PUSH2 0xCF8 JUMP JUMPDEST SWAP3 POP POP PUSH1 0x20 PUSH2 0xD73 DUP6 DUP3 DUP7 ADD PUSH2 0xD2B JUMP JUMPDEST SWAP2 POP POP SWAP3 POP SWAP3 SWAP1 POP JUMP JUMPDEST PUSH0 PUSH1 0x20 DUP3 DUP5 SUB SLT ISZERO PUSH2 0xD92 JUMPI PUSH2 0xD91 PUSH2 0xCAE JUMP JUMPDEST JUMPDEST PUSH0 PUSH2 0xD9F DUP5 DUP3 DUP6 ADD PUSH2 0xD2B JUMP JUMPDEST SWAP2 POP POP SWAP3 SWAP2 POP POP JUMP JUMPDEST PUSH0 PUSH2 0xDB2 DUP3 PUSH2 0xCB2 JUMP JUMPDEST SWAP1 POP SWAP2 SWAP1 POP JUMP JUMPDEST PUSH2 0xDC2 DUP2 PUSH2 0xDA8 JUMP JUMPDEST DUP2 EQ PUSH2 0xDCC JUMPI PUSH0 DUP1 REVERT JUMPDEST POP JUMP JUMPDEST PUSH0 DUP2 CALLDATALOAD SWAP1 POP PUSH2 0xDDD DUP2 PUSH2 0xDB9 JUMP JUMPDEST SWAP3 SWAP2 POP POP JUMP JUMPDEST PUSH0 DUP1 PUSH1 0x40 DUP4 DUP6 SUB SLT ISZERO PUSH2 0xDF9 JUMPI PUSH2 0xDF8 PUSH2 0xCAE JUMP JUMPDEST JUMPDEST PUSH0 PUSH2 0xE06 DUP6 DUP3 DUP7 ADD PUSH2 0xDCF JUMP JUMPDEST SWAP3 POP POP PUSH1 0x20 PUSH2 0xE17 DUP6 DUP3 DUP7 ADD PUSH2 0xD2B JUMP JUMPDEST SWAP2 POP POP SWAP3 POP SWAP3 SWAP1 POP JUMP JUMPDEST PUSH0 PUSH1 0x20 DUP3 DUP5 SUB SLT ISZERO PUSH2 0xE36 JUMPI PUSH2 0xE35 PUSH2 0xCAE JUMP JUMPDEST JUMPDEST PUSH0 PUSH2 0xE43 DUP5 DUP3 DUP6 ADD PUSH2 0xDCF JUMP JUMPDEST SWAP2 POP POP SWAP3 SWAP2 POP POP JUMP JUMPDEST PUSH2 0xE55 DUP2 PUSH2 0xDA8 JUMP JUMPDEST DUP3 MSTORE POP POP JUMP JUMPDEST PUSH2 0xE64 DUP2 PUSH2 0xD0C JUMP JUMPDEST DUP3 MSTORE POP POP JUMP JUMPDEST PUSH1 0x40 DUP3 ADD PUSH0 DUP3 ADD MLOAD PUSH2 0xE7E PUSH0 DUP6 ADD DUP3 PUSH2 0xE4C JUMP JUMPDEST POP PUSH1 0x20 DUP3 ADD MLOAD PUSH2 0xE91 PUSH1 0x20 DUP6 ADD DUP3 PUSH2 0xE5B JUMP JUMPDEST POP POP POP POP JUMP JUMPDEST PUSH0 PUSH1 0x40 DUP3 ADD SWAP1 POP PUSH2 0xEAA PUSH0 DUP4 ADD DUP5 PUSH2 0xE6A JUMP JUMPDEST SWAP3 SWAP2 POP POP JUMP JUMPDEST PUSH0 DUP1 PUSH0 PUSH1 0x60 DUP5 DUP7 SUB SLT ISZERO PUSH2 0xEC7 JUMPI PUSH2 0xEC6 PUSH2 0xCAE JUMP JUMPDEST JUMPDEST PUSH0 PUSH2 0xED4 DUP7 DUP3 DUP8 ADD PUSH2 0xCF8 JUMP JUMPDEST SWAP4 POP POP PUSH1 0x20 PUSH2 0xEE5 DUP7 DUP3 DUP8 ADD PUSH2 0xDCF JUMP JUMPDEST SWAP3 POP POP PUSH1 0x40 PUSH2 0xEF6 DUP7 DUP3 DUP8 ADD PUSH2 0xD2B JUMP JUMPDEST SWAP2 POP POP SWAP3 POP SWAP3 POP SWAP3 JUMP JUMPDEST PUSH2 0xF09 DUP2 PUSH2 0xDA8 JUMP JUMPDEST DUP3 MSTORE POP POP JUMP JUMPDEST PUSH2 0xF18 DUP2 PUSH2 0xD0C JUMP JUMPDEST DUP3 MSTORE POP POP JUMP JUMPDEST PUSH0 PUSH1 0x40 DUP3 ADD SWAP1 POP PUSH2 0xF31 PUSH0 DUP4 ADD DUP6 PUSH2 0xF00 JUMP JUMPDEST PUSH2 0xF3E PUSH1 0x20 DUP4 ADD DUP5 PUSH2 0xF0F JUMP JUMPDEST SWAP4 SWAP3 POP POP POP JUMP JUMPDEST PUSH0 PUSH1 0x20 DUP3 ADD SWAP1 POP PUSH2 0xF58 PUSH0 DUP4 ADD DUP5 PUSH2 0xF00 JUMP JUMPDEST SWAP3 SWAP2 POP POP JUMP JUMPDEST PUSH0 DUP1 REVERT JUMPDEST PUSH0 PUSH1 0x1F NOT PUSH1 0x1F DUP4 ADD AND SWAP1 POP SWAP2 SWAP1 POP JUMP JUMPDEST PUSH32 0x4E487B7100000000000000000000000000000000000000000000000000000000 PUSH0 MSTORE PUSH1 0x41 PUSH1 0x4 MSTORE PUSH1 0x24 PUSH0 REVERT JUMPDEST PUSH2 0xFA8 DUP3 PUSH2 0xF62 JUMP JUMPDEST DUP2 ADD DUP2 DUP2 LT PUSH8 0xFFFFFFFFFFFFFFFF DUP3 GT OR ISZERO PUSH2 0xFC7 JUMPI PUSH2 0xFC6 PUSH2 0xF72 JUMP JUMPDEST JUMPDEST DUP1 PUSH1 0x40 MSTORE POP POP POP JUMP JUMPDEST PUSH0 PUSH2 0xFD9 PUSH2 0xCA5 JUMP JUMPDEST SWAP1 POP PUSH2 0xFE5 DUP3 DUP3 PUSH2 0xF9F JUMP JUMPDEST SWAP2 SWAP1 POP JUMP JUMPDEST PUSH0 DUP2 MLOAD SWAP1 POP PUSH2 0xFF8 DUP2 PUSH2 0xDB9 JUMP JUMPDEST SWAP3 SWAP2 POP POP JUMP JUMPDEST PUSH0 DUP2 MLOAD SWAP1 POP PUSH2 0x100C DUP2 PUSH2 0xD15 JUMP JUMPDEST SWAP3 SWAP2 POP POP JUMP JUMPDEST PUSH0 PUSH1 0x40 DUP3 DUP5 SUB SLT ISZERO PUSH2 0x1027 JUMPI PUSH2 0x1026 PUSH2 0xF5E JUMP JUMPDEST JUMPDEST PUSH2 0x1031 PUSH1 0x40 PUSH2 0xFD0 JUMP JUMPDEST SWAP1 POP PUSH0 PUSH2 0x1040 DUP5 DUP3 DUP6 ADD PUSH2 0xFEA JUMP JUMPDEST PUSH0 DUP4 ADD MSTORE POP PUSH1 0x20 PUSH2 0x1053 DUP5 DUP3 DUP6 ADD PUSH2 0xFFE JUMP JUMPDEST PUSH1 0x20 DUP4 ADD MSTORE POP SWAP3 SWAP2 POP POP JUMP JUMPDEST PUSH0 PUSH1 0x40 DUP3 DUP5 SUB SLT ISZERO PUSH2 0x1074 JUMPI PUSH2 0x1073 PUSH2 0xCAE JUMP JUMPDEST JUMPDEST PUSH0 PUSH2 0x1081 DUP5 DUP3 DUP6 ADD PUSH2 0x1012 JUMP JUMPDEST SWAP2 POP POP SWAP3 SWAP2 POP POP JUMP JUMPDEST PUSH0 DUP3 DUP3 MSTORE PUSH1 0x20 DUP3 ADD SWAP1 POP SWAP3 SWAP2 POP POP JUMP JUMPDEST PUSH32 0x6E65656420746F20726567697374657220666972737400000000000000000000 PUSH0 DUP3 ADD MSTORE POP JUMP JUMPDEST PUSH0 PUSH2 0x10CE PUSH1 0x16 DUP4 PUSH2 0x108A JUMP JUMPDEST SWAP2 POP PUSH2 0x10D9 DUP3 PUSH2 0x109A JUMP JUMPDEST PUSH1 0x20 DUP3 ADD SWAP1 POP SWAP2 SWAP1 POP JUMP JUMPDEST PUSH0 PUSH1 0x20 DUP3 ADD SWAP1 POP DUP2 DUP2 SUB PUSH0 DUP4 ADD MSTORE PUSH2 0x10FB DUP2 PUSH2 0x10C2 JUMP JUMPDEST SWAP1 POP SWAP2 SWAP1 POP JUMP JUMPDEST PUSH32 0x6E6F7420656E6F756768206D6F6E657900000000000000000000000000000000 PUSH0 DUP3 ADD MSTORE POP JUMP JUMPDEST PUSH0 PUSH2 0x1136 PUSH1 0x10 DUP4 PUSH2 0x108A JUMP JUMPDEST SWAP2 POP PUSH2 0x1141 DUP3 PUSH2 0x1102 JUMP JUMPDEST PUSH1 0x20 DUP3 ADD SWAP1 POP SWAP2 SWAP1 POP JUMP JUMPDEST PUSH0 PUSH1 0x20 DUP3 ADD SWAP1 POP DUP2 DUP2 SUB PUSH0 DUP4 ADD MSTORE PUSH2 0x1163 DUP2 PUSH2 0x112A JUMP JUMPDEST SWAP1 POP SWAP2 SWAP1 POP JUMP JUMPDEST PUSH32 0x4E487B7100000000000000000000000000000000000000000000000000000000 PUSH0 MSTORE PUSH1 0x11 PUSH1 0x4 MSTORE PUSH1 0x24 PUSH0 REVERT JUMPDEST PUSH0 PUSH2 0x11A1 DUP3 PUSH2 0xD0C JUMP JUMPDEST SWAP2 POP PUSH2 0x11AC DUP4 PUSH2 0xD0C JUMP JUMPDEST SWAP3 POP DUP3 DUP3 SUB SWAP1 POP DUP2 DUP2 GT ISZERO PUSH2 0x11C4 JUMPI PUSH2 0x11C3 PUSH2 0x116A JUMP JUMPDEST JUMPDEST SWAP3 SWAP2 POP POP JUMP JUMPDEST PUSH0 PUSH2 0x11D4 DUP3 PUSH2 0xD0C JUMP JUMPDEST SWAP2 POP PUSH2 0x11DF DUP4 PUSH2 0xD0C JUMP JUMPDEST SWAP3 POP DUP3 DUP3 ADD SWAP1 POP DUP1 DUP3 GT ISZERO PUSH2 0x11F7 JUMPI PUSH2 0x11F6 PUSH2 0x116A JUMP JUMPDEST JUMPDEST SWAP3 SWAP2 POP POP JUMP INVALID LOG2 PUSH5 0x6970667358 0x22 SLT KECCAK256 PUSH10 0x3B79C686D8A9142F0A05 CREATE2 PUSH13 0xA8B54A08F4E9A1AAB685B73A4C MLOAD RETURNDATASIZE KECCAK256 SWAP11 0x4E 0xCD PUSH5 0x736F6C6343 STOP ADDMOD BYTE STOP CALLER "
				},
				"gasEstimates": {
					"creation": {
						"codeDepositCost": "931800",
						"executionCost": "infinite",
						"totalCost": "infinite"
					},
					"external": {
						"_deposit(address,uint256)": "infinite",
						"deposit()": "infinite",
						"getUser(address)": "infinite",
						"signUp()": "29647",
						"transfer1(address,address,uint256)": "infinite",
						"transfer1(address,uint256)": "infinite",
						"users(address)": "infinite",
						"withdraw(uint256)": "infinite"
					}
				},
				"methodIdentifiers": {
					"_deposit(address,uint256)": "6da1339c",
					"deposit()": "d0e30db0",
					"getUser(address)": "6f77926b",
					"signUp()": "bf96ae63",
					"transfer1(address,address,uint256)": "84fe627a",
					"transfer1(address,uint256)": "09921939",
					"users(address)": "a87430ba",
					"withdraw(uint256)": "2e1a7d4d"
				}
			},
			"storageLayout": {
				"storage": [
					{
						"astId": 145,
						"contract": "Code Test/CodeTest_10.sol:Bank",
						"label": "users",
						"offset": 0,
						"slot": "0",
						"type": "t_mapping(t_address,t_struct(User)111_storage)"
					}
				],
				"types": {
					"t_address": {
						"encoding": "inplace",
						"label": "address",
						"numberOfBytes": "20"
					},
					"t_mapping(t_address,t_struct(User)111_storage)": {
						"encoding": "mapping",
						"key": "t_address",
						"label": "mapping(address => struct Bank.User)",
						"numberOfBytes": "32",
						"value": "t_struct(User)111_storage"
					},
					"t_struct(User)111_storage": {
						"encoding": "inplace",
						"label": "struct Bank.User",
						"members": [
							{
								"astId": 108,
								"contract": "Code Test/CodeTest_10.sol:Bank",
								"label": "addr",
								"offset": 0,
								"slot": "0",
								"type": "t_address"
							},
							{
								"astId": 110,
								"contract": "Code Test/CodeTest_10.sol:Bank",
								"label": "balance",
								"offset": 0,
								"slot": "1",
								"type": "t_uint256"
							}
						],
						"numberOfBytes": "64"
					},
					"t_uint256": {
						"encoding": "inplace",
						"label": "uint256",
						"numberOfBytes": "32"
					}
				}
			},
			"userdoc": {
				"kind": "user",
				"methods": {},
				"version": 1
			}
		}
	}
}