{
	"Code Test/CodeTest_3.sol": {
		"Test3": {
			"abi": [
				{
					"inputs": [
						{
							"internalType": "string",
							"name": "_id",
							"type": "string"
						},
						{
							"internalType": "string",
							"name": "_password",
							"type": "string"
						}
					],
					"name": "deleteAccount",
					"outputs": [],
					"stateMutability": "nonpayable",
					"type": "function"
				},
				{
					"inputs": [
						{
							"internalType": "string",
							"name": "_id",
							"type": "string"
						},
						{
							"internalType": "string",
							"name": "_password",
							"type": "string"
						}
					],
					"name": "login",
					"outputs": [
						{
							"internalType": "bool",
							"name": "",
							"type": "bool"
						}
					],
					"stateMutability": "nonpayable",
					"type": "function"
				},
				{
					"inputs": [
						{
							"internalType": "string",
							"name": "_id",
							"type": "string"
						},
						{
							"internalType": "string",
							"name": "_password",
							"type": "string"
						}
					],
					"name": "register",
					"outputs": [],
					"stateMutability": "nonpayable",
					"type": "function"
				},
				{
					"inputs": [],
					"name": "setTestData",
					"outputs": [],
					"stateMutability": "nonpayable",
					"type": "function"
				}
			],
			"devdoc": {
				"kind": "dev",
				"methods": {},
				"version": 1
			},
			"evm": {
				"assembly": "    /* \"Code Test/CodeTest_3.sol\":58:3410  contract Test3{... */\n  mstore(0x40, 0x80)\n  callvalue\n  dup1\n  iszero\n  tag_1\n  jumpi\n  0x00\n  dup1\n  revert\ntag_1:\n  pop\n  dataSize(sub_0)\n  dup1\n  dataOffset(sub_0)\n  0x00\n  codecopy\n  0x00\n  return\nstop\n\nsub_0: assembly {\n        /* \"Code Test/CodeTest_3.sol\":58:3410  contract Test3{... */\n      mstore(0x40, 0x80)\n      callvalue\n      dup1\n      iszero\n      tag_1\n      jumpi\n      0x00\n      dup1\n      revert\n    tag_1:\n      pop\n      jumpi(tag_2, lt(calldatasize, 0x04))\n      shr(0xe0, calldataload(0x00))\n      dup1\n      0x3ffbd47f\n      eq\n      tag_3\n      jumpi\n      dup1\n      0x45aea9d7\n      eq\n      tag_4\n      jumpi\n      dup1\n      0x58467dbc\n      eq\n      tag_5\n      jumpi\n      dup1\n      0xb6b9e3ee\n      eq\n      tag_6\n      jumpi\n    tag_2:\n      0x00\n      dup1\n      revert\n        /* \"Code Test/CodeTest_3.sol\":2039:2266  function register(string memory _id, string memory _password) public checkRegisterId(_id, _password) {... */\n    tag_3:\n      tag_7\n      0x04\n      dup1\n      calldatasize\n      sub\n      dup2\n      add\n      swap1\n      tag_8\n      swap2\n      swap1\n      tag_9\n      jump\t// in\n    tag_8:\n      tag_10\n      jump\t// in\n    tag_7:\n      stop\n        /* \"Code Test/CodeTest_3.sol\":2539:2752  function deleteAccount(string memory _id, string memory _password) public {... */\n    tag_4:\n      tag_11\n      0x04\n      dup1\n      calldatasize\n      sub\n      dup2\n      add\n      swap1\n      tag_12\n      swap2\n      swap1\n      tag_9\n      jump\t// in\n    tag_12:\n      tag_13\n      jump\t// in\n    tag_11:\n      stop\n        /* \"Code Test/CodeTest_3.sol\":1541:1680  function login(string memory _id, string memory _password) public returns (bool) {... */\n    tag_5:\n      tag_14\n      0x04\n      dup1\n      calldatasize\n      sub\n      dup2\n      add\n      swap1\n      tag_15\n      swap2\n      swap1\n      tag_9\n      jump\t// in\n    tag_15:\n      tag_16\n      jump\t// in\n    tag_14:\n      mload(0x40)\n      tag_17\n      swap2\n      swap1\n      tag_18\n      jump\t// in\n    tag_17:\n      mload(0x40)\n      dup1\n      swap2\n      sub\n      swap1\n      return\n        /* \"Code Test/CodeTest_3.sol\":2309:2407  function setTestData() public {... */\n    tag_6:\n      tag_19\n      tag_20\n      jump\t// in\n    tag_19:\n      stop\n        /* \"Code Test/CodeTest_3.sol\":2039:2266  function register(string memory _id, string memory _password) public checkRegisterId(_id, _password) {... */\n    tag_10:\n        /* \"Code Test/CodeTest_3.sol\":2124:2127  _id */\n      dup2\n        /* \"Code Test/CodeTest_3.sol\":2129:2138  _password */\n      dup2\n        /* \"Code Test/CodeTest_3.sol\":1900:1920  loginData[_id] == \"\" */\n      0x00\n        /* \"Code Test/CodeTest_3.sol\":1900:1909  loginData */\n      dup1\n        /* \"Code Test/CodeTest_3.sol\":1910:1913  _id */\n      dup4\n        /* \"Code Test/CodeTest_3.sol\":1900:1914  loginData[_id] */\n      mload(0x40)\n      tag_22\n      swap2\n      swap1\n      tag_23\n      jump\t// in\n    tag_22:\n      swap1\n      dup2\n      mstore\n      0x20\n      add\n      mload(0x40)\n      dup1\n      swap2\n      sub\n      swap1\n      keccak256\n      sload\n        /* \"Code Test/CodeTest_3.sol\":1900:1920  loginData[_id] == \"\" */\n      eq\n        /* \"Code Test/CodeTest_3.sol\":1892:1942  require(loginData[_id] == \"\", \"id already exists\") */\n      tag_24\n      jumpi\n      mload(0x40)\n      0x08c379a000000000000000000000000000000000000000000000000000000000\n      dup2\n      mstore\n      0x04\n      add\n      tag_25\n      swap1\n      tag_26\n      jump\t// in\n    tag_25:\n      mload(0x40)\n      dup1\n      swap2\n      sub\n      swap1\n      revert\n    tag_24:\n        /* \"Code Test/CodeTest_3.sol\":2150:2172  bytes32 hashedPassword */\n      0x00\n        /* \"Code Test/CodeTest_3.sol\":2202:2205  _id */\n      dup5\n        /* \"Code Test/CodeTest_3.sol\":2207:2216  _password */\n      dup5\n        /* \"Code Test/CodeTest_3.sol\":2185:2217  abi.encodePacked(_id, _password) */\n      add(0x20, mload(0x40))\n      tag_28\n      swap3\n      swap2\n      swap1\n      tag_29\n      jump\t// in\n    tag_28:\n      mload(0x40)\n      0x20\n      dup2\n      dup4\n      sub\n      sub\n      dup2\n      mstore\n      swap1\n      0x40\n      mstore\n        /* \"Code Test/CodeTest_3.sol\":2175:2218  keccak256(abi.encodePacked(_id, _password)) */\n      dup1\n      mload\n      swap1\n      0x20\n      add\n      keccak256\n        /* \"Code Test/CodeTest_3.sol\":2150:2218  bytes32 hashedPassword = keccak256(abi.encodePacked(_id, _password)) */\n      swap1\n      pop\n        /* \"Code Test/CodeTest_3.sol\":2245:2259  hashedPassword */\n      dup1\n        /* \"Code Test/CodeTest_3.sol\":2228:2237  loginData */\n      0x00\n        /* \"Code Test/CodeTest_3.sol\":2238:2241  _id */\n      dup7\n        /* \"Code Test/CodeTest_3.sol\":2228:2242  loginData[_id] */\n      mload(0x40)\n      tag_30\n      swap2\n      swap1\n      tag_23\n      jump\t// in\n    tag_30:\n      swap1\n      dup2\n      mstore\n      0x20\n      add\n      mload(0x40)\n      dup1\n      swap2\n      sub\n      swap1\n      keccak256\n        /* \"Code Test/CodeTest_3.sol\":2228:2259  loginData[_id] = hashedPassword */\n      dup2\n      swap1\n      sstore\n      pop\n        /* \"Code Test/CodeTest_3.sol\":2140:2266  {... */\n      pop\n        /* \"Code Test/CodeTest_3.sol\":2039:2266  function register(string memory _id, string memory _password) public checkRegisterId(_id, _password) {... */\n      pop\n      pop\n      pop\n      pop\n      jump\t// out\n        /* \"Code Test/CodeTest_3.sol\":2539:2752  function deleteAccount(string memory _id, string memory _password) public {... */\n    tag_13:\n        /* \"Code Test/CodeTest_3.sol\":2678:2687  loginData */\n      0x00\n        /* \"Code Test/CodeTest_3.sol\":2688:2691  _id */\n      dup3\n        /* \"Code Test/CodeTest_3.sol\":2678:2692  loginData[_id] */\n      mload(0x40)\n      tag_32\n      swap2\n      swap1\n      tag_23\n      jump\t// in\n    tag_32:\n      swap1\n      dup2\n      mstore\n      0x20\n      add\n      mload(0x40)\n      dup1\n      swap2\n      sub\n      swap1\n      keccak256\n      sload\n        /* \"Code Test/CodeTest_3.sol\":2658:2661  _id */\n      dup3\n        /* \"Code Test/CodeTest_3.sol\":2663:2672  _password */\n      dup3\n        /* \"Code Test/CodeTest_3.sol\":2641:2673  abi.encodePacked(_id, _password) */\n      add(0x20, mload(0x40))\n      tag_33\n      swap3\n      swap2\n      swap1\n      tag_29\n      jump\t// in\n    tag_33:\n      mload(0x40)\n      0x20\n      dup2\n      dup4\n      sub\n      sub\n      dup2\n      mstore\n      swap1\n      0x40\n      mstore\n        /* \"Code Test/CodeTest_3.sol\":2631:2674  keccak256(abi.encodePacked(_id, _password)) */\n      dup1\n      mload\n      swap1\n      0x20\n      add\n      keccak256\n        /* \"Code Test/CodeTest_3.sol\":2631:2692  keccak256(abi.encodePacked(_id, _password)) == loginData[_id] */\n      eq\n        /* \"Code Test/CodeTest_3.sol\":2623:2714  require(keccak256(abi.encodePacked(_id, _password)) == loginData[_id], \"wrong information\") */\n      tag_34\n      jumpi\n      mload(0x40)\n      0x08c379a000000000000000000000000000000000000000000000000000000000\n      dup2\n      mstore\n      0x04\n      add\n      tag_35\n      swap1\n      tag_36\n      jump\t// in\n    tag_35:\n      mload(0x40)\n      dup1\n      swap2\n      sub\n      swap1\n      revert\n    tag_34:\n        /* \"Code Test/CodeTest_3.sol\":2731:2740  loginData */\n      0x00\n        /* \"Code Test/CodeTest_3.sol\":2741:2744  _id */\n      dup3\n        /* \"Code Test/CodeTest_3.sol\":2731:2745  loginData[_id] */\n      mload(0x40)\n      tag_37\n      swap2\n      swap1\n      tag_23\n      jump\t// in\n    tag_37:\n      swap1\n      dup2\n      mstore\n      0x20\n      add\n      mload(0x40)\n      dup1\n      swap2\n      sub\n      swap1\n      keccak256\n        /* \"Code Test/CodeTest_3.sol\":2724:2745  delete loginData[_id] */\n      0x00\n      swap1\n      sstore\n        /* \"Code Test/CodeTest_3.sol\":2539:2752  function deleteAccount(string memory _id, string memory _password) public {... */\n      pop\n      pop\n      jump\t// out\n        /* \"Code Test/CodeTest_3.sol\":1541:1680  function login(string memory _id, string memory _password) public returns (bool) {... */\n    tag_16:\n        /* \"Code Test/CodeTest_3.sol\":1616:1620  bool */\n      0x00\n        /* \"Code Test/CodeTest_3.sol\":1639:1673  checkLoginPassword(_id, _password) */\n      tag_39\n        /* \"Code Test/CodeTest_3.sol\":1658:1661  _id */\n      dup4\n        /* \"Code Test/CodeTest_3.sol\":1663:1672  _password */\n      dup4\n        /* \"Code Test/CodeTest_3.sol\":1639:1657  checkLoginPassword */\n      tag_40\n        /* \"Code Test/CodeTest_3.sol\":1639:1673  checkLoginPassword(_id, _password) */\n      jump\t// in\n    tag_39:\n        /* \"Code Test/CodeTest_3.sol\":1632:1673  return checkLoginPassword(_id, _password) */\n      swap1\n      pop\n        /* \"Code Test/CodeTest_3.sol\":1541:1680  function login(string memory _id, string memory _password) public returns (bool) {... */\n      swap3\n      swap2\n      pop\n      pop\n      jump\t// out\n        /* \"Code Test/CodeTest_3.sol\":2309:2407  function setTestData() public {... */\n    tag_20:\n        /* \"Code Test/CodeTest_3.sol\":2349:2369  register(\"yh\",\"123\") */\n      tag_42\n      mload(0x40)\n      dup1\n      0x40\n      add\n      0x40\n      mstore\n      dup1\n      0x02\n      dup2\n      mstore\n      0x20\n      add\n      0x7968000000000000000000000000000000000000000000000000000000000000\n      dup2\n      mstore\n      pop\n      mload(0x40)\n      dup1\n      0x40\n      add\n      0x40\n      mstore\n      dup1\n      0x03\n      dup2\n      mstore\n      0x20\n      add\n      0x3132330000000000000000000000000000000000000000000000000000000000\n      dup2\n      mstore\n      pop\n        /* \"Code Test/CodeTest_3.sol\":2349:2357  register */\n      tag_10\n        /* \"Code Test/CodeTest_3.sol\":2349:2369  register(\"yh\",\"123\") */\n      jump\t// in\n    tag_42:\n        /* \"Code Test/CodeTest_3.sol\":2379:2400  register(\"joe\",\"234\") */\n      tag_43\n      mload(0x40)\n      dup1\n      0x40\n      add\n      0x40\n      mstore\n      dup1\n      0x03\n      dup2\n      mstore\n      0x20\n      add\n      0x6a6f650000000000000000000000000000000000000000000000000000000000\n      dup2\n      mstore\n      pop\n      mload(0x40)\n      dup1\n      0x40\n      add\n      0x40\n      mstore\n      dup1\n      0x03\n      dup2\n      mstore\n      0x20\n      add\n      0x3233340000000000000000000000000000000000000000000000000000000000\n      dup2\n      mstore\n      pop\n        /* \"Code Test/CodeTest_3.sol\":2379:2387  register */\n      tag_10\n        /* \"Code Test/CodeTest_3.sol\":2379:2400  register(\"joe\",\"234\") */\n      jump\t// in\n    tag_43:\n        /* \"Code Test/CodeTest_3.sol\":2309:2407  function setTestData() public {... */\n      jump\t// out\n        /* \"Code Test/CodeTest_3.sol\":2891:3408  function checkLoginPassword(string memory _id, string memory _password) internal returns (bool) {... */\n    tag_40:\n        /* \"Code Test/CodeTest_3.sol\":2981:2985  bool */\n      0x00\n        /* \"Code Test/CodeTest_3.sol\":3047:3056  loginData */\n      dup1\n        /* \"Code Test/CodeTest_3.sol\":3057:3060  _id */\n      dup4\n        /* \"Code Test/CodeTest_3.sol\":3047:3061  loginData[_id] */\n      mload(0x40)\n      tag_45\n      swap2\n      swap1\n      tag_23\n      jump\t// in\n    tag_45:\n      swap1\n      dup2\n      mstore\n      0x20\n      add\n      mload(0x40)\n      dup1\n      swap2\n      sub\n      swap1\n      keccak256\n      sload\n        /* \"Code Test/CodeTest_3.sol\":3027:3030  _id */\n      dup4\n        /* \"Code Test/CodeTest_3.sol\":3032:3041  _password */\n      dup4\n        /* \"Code Test/CodeTest_3.sol\":3010:3042  abi.encodePacked(_id, _password) */\n      add(0x20, mload(0x40))\n      tag_46\n      swap3\n      swap2\n      swap1\n      tag_29\n      jump\t// in\n    tag_46:\n      mload(0x40)\n      0x20\n      dup2\n      dup4\n      sub\n      sub\n      dup2\n      mstore\n      swap1\n      0x40\n      mstore\n        /* \"Code Test/CodeTest_3.sol\":3000:3043  keccak256(abi.encodePacked(_id, _password)) */\n      dup1\n      mload\n      swap1\n      0x20\n      add\n      keccak256\n        /* \"Code Test/CodeTest_3.sol\":3000:3061  keccak256(abi.encodePacked(_id, _password)) == loginData[_id] */\n      sub\n        /* \"Code Test/CodeTest_3.sol\":2997:3402  if(keccak256(abi.encodePacked(_id, _password)) == loginData[_id]) {... */\n      tag_47\n      jumpi\n        /* \"Code Test/CodeTest_3.sol\":3104:3105  0 */\n      0x00\n        /* \"Code Test/CodeTest_3.sol\":3077:3096  loginFailureCounter */\n      0x01\n        /* \"Code Test/CodeTest_3.sol\":3097:3100  _id */\n      dup5\n        /* \"Code Test/CodeTest_3.sol\":3077:3101  loginFailureCounter[_id] */\n      mload(0x40)\n      tag_48\n      swap2\n      swap1\n      tag_23\n      jump\t// in\n    tag_48:\n      swap1\n      dup2\n      mstore\n      0x20\n      add\n      mload(0x40)\n      dup1\n      swap2\n      sub\n      swap1\n      keccak256\n      0x00\n        /* \"Code Test/CodeTest_3.sol\":3077:3105  loginFailureCounter[_id] = 0 */\n      0x0100\n      exp\n      dup2\n      sload\n      dup2\n      0xff\n      mul\n      not\n      and\n      swap1\n      dup4\n      0xff\n      and\n      mul\n      or\n      swap1\n      sstore\n      pop\n        /* \"Code Test/CodeTest_3.sol\":3126:3130  true */\n      0x01\n        /* \"Code Test/CodeTest_3.sol\":3119:3130  return true */\n      swap1\n      pop\n      jump(tag_44)\n        /* \"Code Test/CodeTest_3.sol\":2997:3402  if(keccak256(abi.encodePacked(_id, _password)) == loginData[_id]) {... */\n    tag_47:\n        /* \"Code Test/CodeTest_3.sol\":3189:3190  1 */\n      0x01\n        /* \"Code Test/CodeTest_3.sol\":3161:3180  loginFailureCounter */\n      dup1\n        /* \"Code Test/CodeTest_3.sol\":3181:3184  _id */\n      dup5\n        /* \"Code Test/CodeTest_3.sol\":3161:3185  loginFailureCounter[_id] */\n      mload(0x40)\n      tag_50\n      swap2\n      swap1\n      tag_23\n      jump\t// in\n    tag_50:\n      swap1\n      dup2\n      mstore\n      0x20\n      add\n      mload(0x40)\n      dup1\n      swap2\n      sub\n      swap1\n      keccak256\n      0x00\n        /* \"Code Test/CodeTest_3.sol\":3161:3190  loginFailureCounter[_id] += 1 */\n      dup3\n      dup3\n      dup3\n      swap1\n      sload\n      swap1\n      0x0100\n      exp\n      swap1\n      div\n      0xff\n      and\n      tag_51\n      swap2\n      swap1\n      tag_52\n      jump\t// in\n    tag_51:\n      swap3\n      pop\n      0x0100\n      exp\n      dup2\n      sload\n      dup2\n      0xff\n      mul\n      not\n      and\n      swap1\n      dup4\n      0xff\n      and\n      mul\n      or\n      swap1\n      sstore\n      pop\n        /* \"Code Test/CodeTest_3.sol\":3235:3236  5 */\n      0x05\n        /* \"Code Test/CodeTest_3.sol\":3207:3226  loginFailureCounter */\n      0x01\n        /* \"Code Test/CodeTest_3.sol\":3227:3230  _id */\n      dup5\n        /* \"Code Test/CodeTest_3.sol\":3207:3231  loginFailureCounter[_id] */\n      mload(0x40)\n      tag_53\n      swap2\n      swap1\n      tag_23\n      jump\t// in\n    tag_53:\n      swap1\n      dup2\n      mstore\n      0x20\n      add\n      mload(0x40)\n      dup1\n      swap2\n      sub\n      swap1\n      keccak256\n      0x00\n      swap1\n      sload\n      swap1\n      0x0100\n      exp\n      swap1\n      div\n      0xff\n      and\n        /* \"Code Test/CodeTest_3.sol\":3207:3236  loginFailureCounter[_id] == 5 */\n      0xff\n      and\n      sub\n        /* \"Code Test/CodeTest_3.sol\":3204:3366  if(loginFailureCounter[_id] == 5) {... */\n      tag_54\n      jumpi\n        /* \"Code Test/CodeTest_3.sol\":3283:3284  0 */\n      0x00\n        /* \"Code Test/CodeTest_3.sol\":3256:3275  loginFailureCounter */\n      0x01\n        /* \"Code Test/CodeTest_3.sol\":3276:3279  _id */\n      dup5\n        /* \"Code Test/CodeTest_3.sol\":3256:3280  loginFailureCounter[_id] */\n      mload(0x40)\n      tag_55\n      swap2\n      swap1\n      tag_23\n      jump\t// in\n    tag_55:\n      swap1\n      dup2\n      mstore\n      0x20\n      add\n      mload(0x40)\n      dup1\n      swap2\n      sub\n      swap1\n      keccak256\n      0x00\n        /* \"Code Test/CodeTest_3.sol\":3256:3284  loginFailureCounter[_id] = 0 */\n      0x0100\n      exp\n      dup2\n      sload\n      dup2\n      0xff\n      mul\n      not\n      and\n      swap1\n      dup4\n      0xff\n      and\n      mul\n      or\n      swap1\n      sstore\n      pop\n        /* \"Code Test/CodeTest_3.sol\":3302:3351  revert (\"You cannot login for next five minutes\") */\n      mload(0x40)\n      0x08c379a000000000000000000000000000000000000000000000000000000000\n      dup2\n      mstore\n      0x04\n      add\n      tag_56\n      swap1\n      tag_57\n      jump\t// in\n    tag_56:\n      mload(0x40)\n      dup1\n      swap2\n      sub\n      swap1\n      revert\n        /* \"Code Test/CodeTest_3.sol\":3204:3366  if(loginFailureCounter[_id] == 5) {... */\n    tag_54:\n        /* \"Code Test/CodeTest_3.sol\":3386:3391  false */\n      0x00\n        /* \"Code Test/CodeTest_3.sol\":3379:3391  return false */\n      swap1\n      pop\n        /* \"Code Test/CodeTest_3.sol\":2891:3408  function checkLoginPassword(string memory _id, string memory _password) internal returns (bool) {... */\n    tag_44:\n      swap3\n      swap2\n      pop\n      pop\n      jump\t// out\n        /* \"#utility.yul\":7:82   */\n    tag_58:\n        /* \"#utility.yul\":40:46   */\n      0x00\n        /* \"#utility.yul\":73:75   */\n      0x40\n        /* \"#utility.yul\":67:76   */\n      mload\n        /* \"#utility.yul\":57:76   */\n      swap1\n      pop\n        /* \"#utility.yul\":7:82   */\n      swap1\n      jump\t// out\n        /* \"#utility.yul\":88:205   */\n    tag_59:\n        /* \"#utility.yul\":197:198   */\n      0x00\n        /* \"#utility.yul\":194:195   */\n      dup1\n        /* \"#utility.yul\":187:199   */\n      revert\n        /* \"#utility.yul\":211:328   */\n    tag_60:\n        /* \"#utility.yul\":320:321   */\n      0x00\n        /* \"#utility.yul\":317:318   */\n      dup1\n        /* \"#utility.yul\":310:322   */\n      revert\n        /* \"#utility.yul\":334:451   */\n    tag_61:\n        /* \"#utility.yul\":443:444   */\n      0x00\n        /* \"#utility.yul\":440:441   */\n      dup1\n        /* \"#utility.yul\":433:445   */\n      revert\n        /* \"#utility.yul\":457:574   */\n    tag_62:\n        /* \"#utility.yul\":566:567   */\n      0x00\n        /* \"#utility.yul\":563:564   */\n      dup1\n        /* \"#utility.yul\":556:568   */\n      revert\n        /* \"#utility.yul\":580:682   */\n    tag_63:\n        /* \"#utility.yul\":621:627   */\n      0x00\n        /* \"#utility.yul\":672:674   */\n      0x1f\n        /* \"#utility.yul\":668:675   */\n      not\n        /* \"#utility.yul\":663:665   */\n      0x1f\n        /* \"#utility.yul\":656:661   */\n      dup4\n        /* \"#utility.yul\":652:666   */\n      add\n        /* \"#utility.yul\":648:676   */\n      and\n        /* \"#utility.yul\":638:676   */\n      swap1\n      pop\n        /* \"#utility.yul\":580:682   */\n      swap2\n      swap1\n      pop\n      jump\t// out\n        /* \"#utility.yul\":688:868   */\n    tag_64:\n        /* \"#utility.yul\":736:813   */\n      0x4e487b7100000000000000000000000000000000000000000000000000000000\n        /* \"#utility.yul\":733:734   */\n      0x00\n        /* \"#utility.yul\":726:814   */\n      mstore\n        /* \"#utility.yul\":833:837   */\n      0x41\n        /* \"#utility.yul\":830:831   */\n      0x04\n        /* \"#utility.yul\":823:838   */\n      mstore\n        /* \"#utility.yul\":857:861   */\n      0x24\n        /* \"#utility.yul\":854:855   */\n      0x00\n        /* \"#utility.yul\":847:862   */\n      revert\n        /* \"#utility.yul\":874:1155   */\n    tag_65:\n        /* \"#utility.yul\":957:984   */\n      tag_95\n        /* \"#utility.yul\":979:983   */\n      dup3\n        /* \"#utility.yul\":957:984   */\n      tag_63\n      jump\t// in\n    tag_95:\n        /* \"#utility.yul\":949:955   */\n      dup2\n        /* \"#utility.yul\":945:985   */\n      add\n        /* \"#utility.yul\":1087:1093   */\n      dup2\n        /* \"#utility.yul\":1075:1085   */\n      dup2\n        /* \"#utility.yul\":1072:1094   */\n      lt\n        /* \"#utility.yul\":1051:1069   */\n      0xffffffffffffffff\n        /* \"#utility.yul\":1039:1049   */\n      dup3\n        /* \"#utility.yul\":1036:1070   */\n      gt\n        /* \"#utility.yul\":1033:1095   */\n      or\n        /* \"#utility.yul\":1030:1118   */\n      iszero\n      tag_96\n      jumpi\n        /* \"#utility.yul\":1098:1116   */\n      tag_97\n      tag_64\n      jump\t// in\n    tag_97:\n        /* \"#utility.yul\":1030:1118   */\n    tag_96:\n        /* \"#utility.yul\":1138:1148   */\n      dup1\n        /* \"#utility.yul\":1134:1136   */\n      0x40\n        /* \"#utility.yul\":1127:1149   */\n      mstore\n        /* \"#utility.yul\":917:1155   */\n      pop\n        /* \"#utility.yul\":874:1155   */\n      pop\n      pop\n      jump\t// out\n        /* \"#utility.yul\":1161:1290   */\n    tag_66:\n        /* \"#utility.yul\":1195:1201   */\n      0x00\n        /* \"#utility.yul\":1222:1242   */\n      tag_99\n      tag_58\n      jump\t// in\n    tag_99:\n        /* \"#utility.yul\":1212:1242   */\n      swap1\n      pop\n        /* \"#utility.yul\":1251:1284   */\n      tag_100\n        /* \"#utility.yul\":1279:1283   */\n      dup3\n        /* \"#utility.yul\":1271:1277   */\n      dup3\n        /* \"#utility.yul\":1251:1284   */\n      tag_65\n      jump\t// in\n    tag_100:\n        /* \"#utility.yul\":1161:1290   */\n      swap2\n      swap1\n      pop\n      jump\t// out\n        /* \"#utility.yul\":1296:1604   */\n    tag_67:\n        /* \"#utility.yul\":1358:1362   */\n      0x00\n        /* \"#utility.yul\":1448:1466   */\n      0xffffffffffffffff\n        /* \"#utility.yul\":1440:1446   */\n      dup3\n        /* \"#utility.yul\":1437:1467   */\n      gt\n        /* \"#utility.yul\":1434:1490   */\n      iszero\n      tag_102\n      jumpi\n        /* \"#utility.yul\":1470:1488   */\n      tag_103\n      tag_64\n      jump\t// in\n    tag_103:\n        /* \"#utility.yul\":1434:1490   */\n    tag_102:\n        /* \"#utility.yul\":1508:1537   */\n      tag_104\n        /* \"#utility.yul\":1530:1536   */\n      dup3\n        /* \"#utility.yul\":1508:1537   */\n      tag_63\n      jump\t// in\n    tag_104:\n        /* \"#utility.yul\":1500:1537   */\n      swap1\n      pop\n        /* \"#utility.yul\":1592:1596   */\n      0x20\n        /* \"#utility.yul\":1586:1590   */\n      dup2\n        /* \"#utility.yul\":1582:1597   */\n      add\n        /* \"#utility.yul\":1574:1597   */\n      swap1\n      pop\n        /* \"#utility.yul\":1296:1604   */\n      swap2\n      swap1\n      pop\n      jump\t// out\n        /* \"#utility.yul\":1610:1758   */\n    tag_68:\n        /* \"#utility.yul\":1708:1714   */\n      dup3\n        /* \"#utility.yul\":1703:1706   */\n      dup2\n        /* \"#utility.yul\":1698:1701   */\n      dup4\n        /* \"#utility.yul\":1685:1715   */\n      calldatacopy\n        /* \"#utility.yul\":1749:1750   */\n      0x00\n        /* \"#utility.yul\":1740:1746   */\n      dup4\n        /* \"#utility.yul\":1735:1738   */\n      dup4\n        /* \"#utility.yul\":1731:1747   */\n      add\n        /* \"#utility.yul\":1724:1751   */\n      mstore\n        /* \"#utility.yul\":1610:1758   */\n      pop\n      pop\n      pop\n      jump\t// out\n        /* \"#utility.yul\":1764:2189   */\n    tag_69:\n        /* \"#utility.yul\":1842:1847   */\n      0x00\n        /* \"#utility.yul\":1867:1933   */\n      tag_107\n        /* \"#utility.yul\":1883:1932   */\n      tag_108\n        /* \"#utility.yul\":1925:1931   */\n      dup5\n        /* \"#utility.yul\":1883:1932   */\n      tag_67\n      jump\t// in\n    tag_108:\n        /* \"#utility.yul\":1867:1933   */\n      tag_66\n      jump\t// in\n    tag_107:\n        /* \"#utility.yul\":1858:1933   */\n      swap1\n      pop\n        /* \"#utility.yul\":1956:1962   */\n      dup3\n        /* \"#utility.yul\":1949:1954   */\n      dup2\n        /* \"#utility.yul\":1942:1963   */\n      mstore\n        /* \"#utility.yul\":1994:1998   */\n      0x20\n        /* \"#utility.yul\":1987:1992   */\n      dup2\n        /* \"#utility.yul\":1983:1999   */\n      add\n        /* \"#utility.yul\":2032:2035   */\n      dup5\n        /* \"#utility.yul\":2023:2029   */\n      dup5\n        /* \"#utility.yul\":2018:2021   */\n      dup5\n        /* \"#utility.yul\":2014:2030   */\n      add\n        /* \"#utility.yul\":2011:2036   */\n      gt\n        /* \"#utility.yul\":2008:2120   */\n      iszero\n      tag_109\n      jumpi\n        /* \"#utility.yul\":2039:2118   */\n      tag_110\n      tag_62\n      jump\t// in\n    tag_110:\n        /* \"#utility.yul\":2008:2120   */\n    tag_109:\n        /* \"#utility.yul\":2129:2183   */\n      tag_111\n        /* \"#utility.yul\":2176:2182   */\n      dup5\n        /* \"#utility.yul\":2171:2174   */\n      dup3\n        /* \"#utility.yul\":2166:2169   */\n      dup6\n        /* \"#utility.yul\":2129:2183   */\n      tag_68\n      jump\t// in\n    tag_111:\n        /* \"#utility.yul\":1848:2189   */\n      pop\n        /* \"#utility.yul\":1764:2189   */\n      swap4\n      swap3\n      pop\n      pop\n      pop\n      jump\t// out\n        /* \"#utility.yul\":2209:2549   */\n    tag_70:\n        /* \"#utility.yul\":2265:2270   */\n      0x00\n        /* \"#utility.yul\":2314:2317   */\n      dup3\n        /* \"#utility.yul\":2307:2311   */\n      0x1f\n        /* \"#utility.yul\":2299:2305   */\n      dup4\n        /* \"#utility.yul\":2295:2312   */\n      add\n        /* \"#utility.yul\":2291:2318   */\n      slt\n        /* \"#utility.yul\":2281:2403   */\n      tag_113\n      jumpi\n        /* \"#utility.yul\":2322:2401   */\n      tag_114\n      tag_61\n      jump\t// in\n    tag_114:\n        /* \"#utility.yul\":2281:2403   */\n    tag_113:\n        /* \"#utility.yul\":2439:2445   */\n      dup2\n        /* \"#utility.yul\":2426:2446   */\n      calldataload\n        /* \"#utility.yul\":2464:2543   */\n      tag_115\n        /* \"#utility.yul\":2539:2542   */\n      dup5\n        /* \"#utility.yul\":2531:2537   */\n      dup3\n        /* \"#utility.yul\":2524:2528   */\n      0x20\n        /* \"#utility.yul\":2516:2522   */\n      dup7\n        /* \"#utility.yul\":2512:2529   */\n      add\n        /* \"#utility.yul\":2464:2543   */\n      tag_69\n      jump\t// in\n    tag_115:\n        /* \"#utility.yul\":2455:2543   */\n      swap2\n      pop\n        /* \"#utility.yul\":2271:2549   */\n      pop\n        /* \"#utility.yul\":2209:2549   */\n      swap3\n      swap2\n      pop\n      pop\n      jump\t// out\n        /* \"#utility.yul\":2555:3389   */\n    tag_9:\n        /* \"#utility.yul\":2643:2649   */\n      0x00\n        /* \"#utility.yul\":2651:2657   */\n      dup1\n        /* \"#utility.yul\":2700:2702   */\n      0x40\n        /* \"#utility.yul\":2688:2697   */\n      dup4\n        /* \"#utility.yul\":2679:2686   */\n      dup6\n        /* \"#utility.yul\":2675:2698   */\n      sub\n        /* \"#utility.yul\":2671:2703   */\n      slt\n        /* \"#utility.yul\":2668:2787   */\n      iszero\n      tag_117\n      jumpi\n        /* \"#utility.yul\":2706:2785   */\n      tag_118\n      tag_59\n      jump\t// in\n    tag_118:\n        /* \"#utility.yul\":2668:2787   */\n    tag_117:\n        /* \"#utility.yul\":2854:2855   */\n      0x00\n        /* \"#utility.yul\":2843:2852   */\n      dup4\n        /* \"#utility.yul\":2839:2856   */\n      add\n        /* \"#utility.yul\":2826:2857   */\n      calldataload\n        /* \"#utility.yul\":2884:2902   */\n      0xffffffffffffffff\n        /* \"#utility.yul\":2876:2882   */\n      dup2\n        /* \"#utility.yul\":2873:2903   */\n      gt\n        /* \"#utility.yul\":2870:2987   */\n      iszero\n      tag_119\n      jumpi\n        /* \"#utility.yul\":2906:2985   */\n      tag_120\n      tag_60\n      jump\t// in\n    tag_120:\n        /* \"#utility.yul\":2870:2987   */\n    tag_119:\n        /* \"#utility.yul\":3011:3074   */\n      tag_121\n        /* \"#utility.yul\":3066:3073   */\n      dup6\n        /* \"#utility.yul\":3057:3063   */\n      dup3\n        /* \"#utility.yul\":3046:3055   */\n      dup7\n        /* \"#utility.yul\":3042:3064   */\n      add\n        /* \"#utility.yul\":3011:3074   */\n      tag_70\n      jump\t// in\n    tag_121:\n        /* \"#utility.yul\":3001:3074   */\n      swap3\n      pop\n        /* \"#utility.yul\":2797:3084   */\n      pop\n        /* \"#utility.yul\":3151:3153   */\n      0x20\n        /* \"#utility.yul\":3140:3149   */\n      dup4\n        /* \"#utility.yul\":3136:3154   */\n      add\n        /* \"#utility.yul\":3123:3155   */\n      calldataload\n        /* \"#utility.yul\":3182:3200   */\n      0xffffffffffffffff\n        /* \"#utility.yul\":3174:3180   */\n      dup2\n        /* \"#utility.yul\":3171:3201   */\n      gt\n        /* \"#utility.yul\":3168:3285   */\n      iszero\n      tag_122\n      jumpi\n        /* \"#utility.yul\":3204:3283   */\n      tag_123\n      tag_60\n      jump\t// in\n    tag_123:\n        /* \"#utility.yul\":3168:3285   */\n    tag_122:\n        /* \"#utility.yul\":3309:3372   */\n      tag_124\n        /* \"#utility.yul\":3364:3371   */\n      dup6\n        /* \"#utility.yul\":3355:3361   */\n      dup3\n        /* \"#utility.yul\":3344:3353   */\n      dup7\n        /* \"#utility.yul\":3340:3362   */\n      add\n        /* \"#utility.yul\":3309:3372   */\n      tag_70\n      jump\t// in\n    tag_124:\n        /* \"#utility.yul\":3299:3372   */\n      swap2\n      pop\n        /* \"#utility.yul\":3094:3382   */\n      pop\n        /* \"#utility.yul\":2555:3389   */\n      swap3\n      pop\n      swap3\n      swap1\n      pop\n      jump\t// out\n        /* \"#utility.yul\":3395:3485   */\n    tag_71:\n        /* \"#utility.yul\":3429:3436   */\n      0x00\n        /* \"#utility.yul\":3472:3477   */\n      dup2\n        /* \"#utility.yul\":3465:3478   */\n      iszero\n        /* \"#utility.yul\":3458:3479   */\n      iszero\n        /* \"#utility.yul\":3447:3479   */\n      swap1\n      pop\n        /* \"#utility.yul\":3395:3485   */\n      swap2\n      swap1\n      pop\n      jump\t// out\n        /* \"#utility.yul\":3491:3600   */\n    tag_72:\n        /* \"#utility.yul\":3572:3593   */\n      tag_127\n        /* \"#utility.yul\":3587:3592   */\n      dup2\n        /* \"#utility.yul\":3572:3593   */\n      tag_71\n      jump\t// in\n    tag_127:\n        /* \"#utility.yul\":3567:3570   */\n      dup3\n        /* \"#utility.yul\":3560:3594   */\n      mstore\n        /* \"#utility.yul\":3491:3600   */\n      pop\n      pop\n      jump\t// out\n        /* \"#utility.yul\":3606:3816   */\n    tag_18:\n        /* \"#utility.yul\":3693:3697   */\n      0x00\n        /* \"#utility.yul\":3731:3733   */\n      0x20\n        /* \"#utility.yul\":3720:3729   */\n      dup3\n        /* \"#utility.yul\":3716:3734   */\n      add\n        /* \"#utility.yul\":3708:3734   */\n      swap1\n      pop\n        /* \"#utility.yul\":3744:3809   */\n      tag_129\n        /* \"#utility.yul\":3806:3807   */\n      0x00\n        /* \"#utility.yul\":3795:3804   */\n      dup4\n        /* \"#utility.yul\":3791:3808   */\n      add\n        /* \"#utility.yul\":3782:3788   */\n      dup5\n        /* \"#utility.yul\":3744:3809   */\n      tag_72\n      jump\t// in\n    tag_129:\n        /* \"#utility.yul\":3606:3816   */\n      swap3\n      swap2\n      pop\n      pop\n      jump\t// out\n        /* \"#utility.yul\":3822:3921   */\n    tag_73:\n        /* \"#utility.yul\":3874:3880   */\n      0x00\n        /* \"#utility.yul\":3908:3913   */\n      dup2\n        /* \"#utility.yul\":3902:3914   */\n      mload\n        /* \"#utility.yul\":3892:3914   */\n      swap1\n      pop\n        /* \"#utility.yul\":3822:3921   */\n      swap2\n      swap1\n      pop\n      jump\t// out\n        /* \"#utility.yul\":3927:4075   */\n    tag_74:\n        /* \"#utility.yul\":4029:4040   */\n      0x00\n        /* \"#utility.yul\":4066:4069   */\n      dup2\n        /* \"#utility.yul\":4051:4069   */\n      swap1\n      pop\n        /* \"#utility.yul\":3927:4075   */\n      swap3\n      swap2\n      pop\n      pop\n      jump\t// out\n        /* \"#utility.yul\":4081:4220   */\n    tag_75:\n        /* \"#utility.yul\":4170:4176   */\n      dup3\n        /* \"#utility.yul\":4165:4168   */\n      dup2\n        /* \"#utility.yul\":4160:4163   */\n      dup4\n        /* \"#utility.yul\":4154:4177   */\n      mcopy\n        /* \"#utility.yul\":4211:4212   */\n      0x00\n        /* \"#utility.yul\":4202:4208   */\n      dup4\n        /* \"#utility.yul\":4197:4200   */\n      dup4\n        /* \"#utility.yul\":4193:4209   */\n      add\n        /* \"#utility.yul\":4186:4213   */\n      mstore\n        /* \"#utility.yul\":4081:4220   */\n      pop\n      pop\n      pop\n      jump\t// out\n        /* \"#utility.yul\":4226:4616   */\n    tag_76:\n        /* \"#utility.yul\":4332:4335   */\n      0x00\n        /* \"#utility.yul\":4360:4399   */\n      tag_134\n        /* \"#utility.yul\":4393:4398   */\n      dup3\n        /* \"#utility.yul\":4360:4399   */\n      tag_73\n      jump\t// in\n    tag_134:\n        /* \"#utility.yul\":4415:4504   */\n      tag_135\n        /* \"#utility.yul\":4497:4503   */\n      dup2\n        /* \"#utility.yul\":4492:4495   */\n      dup6\n        /* \"#utility.yul\":4415:4504   */\n      tag_74\n      jump\t// in\n    tag_135:\n        /* \"#utility.yul\":4408:4504   */\n      swap4\n      pop\n        /* \"#utility.yul\":4513:4578   */\n      tag_136\n        /* \"#utility.yul\":4571:4577   */\n      dup2\n        /* \"#utility.yul\":4566:4569   */\n      dup6\n        /* \"#utility.yul\":4559:4563   */\n      0x20\n        /* \"#utility.yul\":4552:4557   */\n      dup7\n        /* \"#utility.yul\":4548:4564   */\n      add\n        /* \"#utility.yul\":4513:4578   */\n      tag_75\n      jump\t// in\n    tag_136:\n        /* \"#utility.yul\":4603:4609   */\n      dup1\n        /* \"#utility.yul\":4598:4601   */\n      dup5\n        /* \"#utility.yul\":4594:4610   */\n      add\n        /* \"#utility.yul\":4587:4610   */\n      swap2\n      pop\n        /* \"#utility.yul\":4336:4616   */\n      pop\n        /* \"#utility.yul\":4226:4616   */\n      swap3\n      swap2\n      pop\n      pop\n      jump\t// out\n        /* \"#utility.yul\":4622:4897   */\n    tag_23:\n        /* \"#utility.yul\":4754:4757   */\n      0x00\n        /* \"#utility.yul\":4776:4871   */\n      tag_138\n        /* \"#utility.yul\":4867:4870   */\n      dup3\n        /* \"#utility.yul\":4858:4864   */\n      dup5\n        /* \"#utility.yul\":4776:4871   */\n      tag_76\n      jump\t// in\n    tag_138:\n        /* \"#utility.yul\":4769:4871   */\n      swap2\n      pop\n        /* \"#utility.yul\":4888:4891   */\n      dup2\n        /* \"#utility.yul\":4881:4891   */\n      swap1\n      pop\n        /* \"#utility.yul\":4622:4897   */\n      swap3\n      swap2\n      pop\n      pop\n      jump\t// out\n        /* \"#utility.yul\":4903:5072   */\n    tag_77:\n        /* \"#utility.yul\":4987:4998   */\n      0x00\n        /* \"#utility.yul\":5021:5027   */\n      dup3\n        /* \"#utility.yul\":5016:5019   */\n      dup3\n        /* \"#utility.yul\":5009:5028   */\n      mstore\n        /* \"#utility.yul\":5061:5065   */\n      0x20\n        /* \"#utility.yul\":5056:5059   */\n      dup3\n        /* \"#utility.yul\":5052:5066   */\n      add\n        /* \"#utility.yul\":5037:5066   */\n      swap1\n      pop\n        /* \"#utility.yul\":4903:5072   */\n      swap3\n      swap2\n      pop\n      pop\n      jump\t// out\n        /* \"#utility.yul\":5078:5245   */\n    tag_78:\n        /* \"#utility.yul\":5218:5237   */\n      0x696420616c726561647920657869737473000000000000000000000000000000\n        /* \"#utility.yul\":5214:5215   */\n      0x00\n        /* \"#utility.yul\":5206:5212   */\n      dup3\n        /* \"#utility.yul\":5202:5216   */\n      add\n        /* \"#utility.yul\":5195:5238   */\n      mstore\n        /* \"#utility.yul\":5078:5245   */\n      pop\n      jump\t// out\n        /* \"#utility.yul\":5251:5617   */\n    tag_79:\n        /* \"#utility.yul\":5393:5396   */\n      0x00\n        /* \"#utility.yul\":5414:5481   */\n      tag_142\n        /* \"#utility.yul\":5478:5480   */\n      0x11\n        /* \"#utility.yul\":5473:5476   */\n      dup4\n        /* \"#utility.yul\":5414:5481   */\n      tag_77\n      jump\t// in\n    tag_142:\n        /* \"#utility.yul\":5407:5481   */\n      swap2\n      pop\n        /* \"#utility.yul\":5490:5583   */\n      tag_143\n        /* \"#utility.yul\":5579:5582   */\n      dup3\n        /* \"#utility.yul\":5490:5583   */\n      tag_78\n      jump\t// in\n    tag_143:\n        /* \"#utility.yul\":5608:5610   */\n      0x20\n        /* \"#utility.yul\":5603:5606   */\n      dup3\n        /* \"#utility.yul\":5599:5611   */\n      add\n        /* \"#utility.yul\":5592:5611   */\n      swap1\n      pop\n        /* \"#utility.yul\":5251:5617   */\n      swap2\n      swap1\n      pop\n      jump\t// out\n        /* \"#utility.yul\":5623:6042   */\n    tag_26:\n        /* \"#utility.yul\":5789:5793   */\n      0x00\n        /* \"#utility.yul\":5827:5829   */\n      0x20\n        /* \"#utility.yul\":5816:5825   */\n      dup3\n        /* \"#utility.yul\":5812:5830   */\n      add\n        /* \"#utility.yul\":5804:5830   */\n      swap1\n      pop\n        /* \"#utility.yul\":5876:5885   */\n      dup2\n        /* \"#utility.yul\":5870:5874   */\n      dup2\n        /* \"#utility.yul\":5866:5886   */\n      sub\n        /* \"#utility.yul\":5862:5863   */\n      0x00\n        /* \"#utility.yul\":5851:5860   */\n      dup4\n        /* \"#utility.yul\":5847:5864   */\n      add\n        /* \"#utility.yul\":5840:5887   */\n      mstore\n        /* \"#utility.yul\":5904:6035   */\n      tag_145\n        /* \"#utility.yul\":6030:6034   */\n      dup2\n        /* \"#utility.yul\":5904:6035   */\n      tag_79\n      jump\t// in\n    tag_145:\n        /* \"#utility.yul\":5896:6035   */\n      swap1\n      pop\n        /* \"#utility.yul\":5623:6042   */\n      swap2\n      swap1\n      pop\n      jump\t// out\n        /* \"#utility.yul\":6048:6483   */\n    tag_29:\n        /* \"#utility.yul\":6228:6231   */\n      0x00\n        /* \"#utility.yul\":6250:6345   */\n      tag_147\n        /* \"#utility.yul\":6341:6344   */\n      dup3\n        /* \"#utility.yul\":6332:6338   */\n      dup6\n        /* \"#utility.yul\":6250:6345   */\n      tag_76\n      jump\t// in\n    tag_147:\n        /* \"#utility.yul\":6243:6345   */\n      swap2\n      pop\n        /* \"#utility.yul\":6362:6457   */\n      tag_148\n        /* \"#utility.yul\":6453:6456   */\n      dup3\n        /* \"#utility.yul\":6444:6450   */\n      dup5\n        /* \"#utility.yul\":6362:6457   */\n      tag_76\n      jump\t// in\n    tag_148:\n        /* \"#utility.yul\":6355:6457   */\n      swap2\n      pop\n        /* \"#utility.yul\":6474:6477   */\n      dup2\n        /* \"#utility.yul\":6467:6477   */\n      swap1\n      pop\n        /* \"#utility.yul\":6048:6483   */\n      swap4\n      swap3\n      pop\n      pop\n      pop\n      jump\t// out\n        /* \"#utility.yul\":6489:6656   */\n    tag_80:\n        /* \"#utility.yul\":6629:6648   */\n      0x77726f6e6720696e666f726d6174696f6e000000000000000000000000000000\n        /* \"#utility.yul\":6625:6626   */\n      0x00\n        /* \"#utility.yul\":6617:6623   */\n      dup3\n        /* \"#utility.yul\":6613:6627   */\n      add\n        /* \"#utility.yul\":6606:6649   */\n      mstore\n        /* \"#utility.yul\":6489:6656   */\n      pop\n      jump\t// out\n        /* \"#utility.yul\":6662:7028   */\n    tag_81:\n        /* \"#utility.yul\":6804:6807   */\n      0x00\n        /* \"#utility.yul\":6825:6892   */\n      tag_151\n        /* \"#utility.yul\":6889:6891   */\n      0x11\n        /* \"#utility.yul\":6884:6887   */\n      dup4\n        /* \"#utility.yul\":6825:6892   */\n      tag_77\n      jump\t// in\n    tag_151:\n        /* \"#utility.yul\":6818:6892   */\n      swap2\n      pop\n        /* \"#utility.yul\":6901:6994   */\n      tag_152\n        /* \"#utility.yul\":6990:6993   */\n      dup3\n        /* \"#utility.yul\":6901:6994   */\n      tag_80\n      jump\t// in\n    tag_152:\n        /* \"#utility.yul\":7019:7021   */\n      0x20\n        /* \"#utility.yul\":7014:7017   */\n      dup3\n        /* \"#utility.yul\":7010:7022   */\n      add\n        /* \"#utility.yul\":7003:7022   */\n      swap1\n      pop\n        /* \"#utility.yul\":6662:7028   */\n      swap2\n      swap1\n      pop\n      jump\t// out\n        /* \"#utility.yul\":7034:7453   */\n    tag_36:\n        /* \"#utility.yul\":7200:7204   */\n      0x00\n        /* \"#utility.yul\":7238:7240   */\n      0x20\n        /* \"#utility.yul\":7227:7236   */\n      dup3\n        /* \"#utility.yul\":7223:7241   */\n      add\n        /* \"#utility.yul\":7215:7241   */\n      swap1\n      pop\n        /* \"#utility.yul\":7287:7296   */\n      dup2\n        /* \"#utility.yul\":7281:7285   */\n      dup2\n        /* \"#utility.yul\":7277:7297   */\n      sub\n        /* \"#utility.yul\":7273:7274   */\n      0x00\n        /* \"#utility.yul\":7262:7271   */\n      dup4\n        /* \"#utility.yul\":7258:7275   */\n      add\n        /* \"#utility.yul\":7251:7298   */\n      mstore\n        /* \"#utility.yul\":7315:7446   */\n      tag_154\n        /* \"#utility.yul\":7441:7445   */\n      dup2\n        /* \"#utility.yul\":7315:7446   */\n      tag_81\n      jump\t// in\n    tag_154:\n        /* \"#utility.yul\":7307:7446   */\n      swap1\n      pop\n        /* \"#utility.yul\":7034:7453   */\n      swap2\n      swap1\n      pop\n      jump\t// out\n        /* \"#utility.yul\":7459:7545   */\n    tag_82:\n        /* \"#utility.yul\":7494:7501   */\n      0x00\n        /* \"#utility.yul\":7534:7538   */\n      0xff\n        /* \"#utility.yul\":7527:7532   */\n      dup3\n        /* \"#utility.yul\":7523:7539   */\n      and\n        /* \"#utility.yul\":7512:7539   */\n      swap1\n      pop\n        /* \"#utility.yul\":7459:7545   */\n      swap2\n      swap1\n      pop\n      jump\t// out\n        /* \"#utility.yul\":7551:7731   */\n    tag_83:\n        /* \"#utility.yul\":7599:7676   */\n      0x4e487b7100000000000000000000000000000000000000000000000000000000\n        /* \"#utility.yul\":7596:7597   */\n      0x00\n        /* \"#utility.yul\":7589:7677   */\n      mstore\n        /* \"#utility.yul\":7696:7700   */\n      0x11\n        /* \"#utility.yul\":7693:7694   */\n      0x04\n        /* \"#utility.yul\":7686:7701   */\n      mstore\n        /* \"#utility.yul\":7720:7724   */\n      0x24\n        /* \"#utility.yul\":7717:7718   */\n      0x00\n        /* \"#utility.yul\":7710:7725   */\n      revert\n        /* \"#utility.yul\":7737:7925   */\n    tag_52:\n        /* \"#utility.yul\":7775:7778   */\n      0x00\n        /* \"#utility.yul\":7794:7812   */\n      tag_158\n        /* \"#utility.yul\":7810:7811   */\n      dup3\n        /* \"#utility.yul\":7794:7812   */\n      tag_82\n      jump\t// in\n    tag_158:\n        /* \"#utility.yul\":7789:7812   */\n      swap2\n      pop\n        /* \"#utility.yul\":7826:7844   */\n      tag_159\n        /* \"#utility.yul\":7842:7843   */\n      dup4\n        /* \"#utility.yul\":7826:7844   */\n      tag_82\n      jump\t// in\n    tag_159:\n        /* \"#utility.yul\":7821:7844   */\n      swap3\n      pop\n        /* \"#utility.yul\":7867:7868   */\n      dup3\n        /* \"#utility.yul\":7864:7865   */\n      dup3\n        /* \"#utility.yul\":7860:7869   */\n      add\n        /* \"#utility.yul\":7853:7869   */\n      swap1\n      pop\n        /* \"#utility.yul\":7890:7894   */\n      0xff\n        /* \"#utility.yul\":7885:7888   */\n      dup2\n        /* \"#utility.yul\":7882:7895   */\n      gt\n        /* \"#utility.yul\":7879:7918   */\n      iszero\n      tag_160\n      jumpi\n        /* \"#utility.yul\":7898:7916   */\n      tag_161\n      tag_83\n      jump\t// in\n    tag_161:\n        /* \"#utility.yul\":7879:7918   */\n    tag_160:\n        /* \"#utility.yul\":7737:7925   */\n      swap3\n      swap2\n      pop\n      pop\n      jump\t// out\n        /* \"#utility.yul\":7931:8156   */\n    tag_84:\n        /* \"#utility.yul\":8071:8105   */\n      0x596f752063616e6e6f74206c6f67696e20666f72206e6578742066697665206d\n        /* \"#utility.yul\":8067:8068   */\n      0x00\n        /* \"#utility.yul\":8059:8065   */\n      dup3\n        /* \"#utility.yul\":8055:8069   */\n      add\n        /* \"#utility.yul\":8048:8106   */\n      mstore\n        /* \"#utility.yul\":8140:8148   */\n      0x696e757465730000000000000000000000000000000000000000000000000000\n        /* \"#utility.yul\":8135:8137   */\n      0x20\n        /* \"#utility.yul\":8127:8133   */\n      dup3\n        /* \"#utility.yul\":8123:8138   */\n      add\n        /* \"#utility.yul\":8116:8149   */\n      mstore\n        /* \"#utility.yul\":7931:8156   */\n      pop\n      jump\t// out\n        /* \"#utility.yul\":8162:8528   */\n    tag_85:\n        /* \"#utility.yul\":8304:8307   */\n      0x00\n        /* \"#utility.yul\":8325:8392   */\n      tag_164\n        /* \"#utility.yul\":8389:8391   */\n      0x26\n        /* \"#utility.yul\":8384:8387   */\n      dup4\n        /* \"#utility.yul\":8325:8392   */\n      tag_77\n      jump\t// in\n    tag_164:\n        /* \"#utility.yul\":8318:8392   */\n      swap2\n      pop\n        /* \"#utility.yul\":8401:8494   */\n      tag_165\n        /* \"#utility.yul\":8490:8493   */\n      dup3\n        /* \"#utility.yul\":8401:8494   */\n      tag_84\n      jump\t// in\n    tag_165:\n        /* \"#utility.yul\":8519:8521   */\n      0x40\n        /* \"#utility.yul\":8514:8517   */\n      dup3\n        /* \"#utility.yul\":8510:8522   */\n      add\n        /* \"#utility.yul\":8503:8522   */\n      swap1\n      pop\n        /* \"#utility.yul\":8162:8528   */\n      swap2\n      swap1\n      pop\n      jump\t// out\n        /* \"#utility.yul\":8534:8953   */\n    tag_57:\n        /* \"#utility.yul\":8700:8704   */\n      0x00\n        /* \"#utility.yul\":8738:8740   */\n      0x20\n        /* \"#utility.yul\":8727:8736   */\n      dup3\n        /* \"#utility.yul\":8723:8741   */\n      add\n        /* \"#utility.yul\":8715:8741   */\n      swap1\n      pop\n        /* \"#utility.yul\":8787:8796   */\n      dup2\n        /* \"#utility.yul\":8781:8785   */\n      dup2\n        /* \"#utility.yul\":8777:8797   */\n      sub\n        /* \"#utility.yul\":8773:8774   */\n      0x00\n        /* \"#utility.yul\":8762:8771   */\n      dup4\n        /* \"#utility.yul\":8758:8775   */\n      add\n        /* \"#utility.yul\":8751:8798   */\n      mstore\n        /* \"#utility.yul\":8815:8946   */\n      tag_167\n        /* \"#utility.yul\":8941:8945   */\n      dup2\n        /* \"#utility.yul\":8815:8946   */\n      tag_85\n      jump\t// in\n    tag_167:\n        /* \"#utility.yul\":8807:8946   */\n      swap1\n      pop\n        /* \"#utility.yul\":8534:8953   */\n      swap2\n      swap1\n      pop\n      jump\t// out\n\n    auxdata: 0xa26469706673582212200ee8e43b5385a0b3e7dd58d34c97ed10edd350d070e884dcdb63441eea4bbd3d64736f6c634300081a0033\n}\n",
				"bytecode": {
					"linkReferences": {},
					"object": "6080604052348015600e575f80fd5b5061093d8061001c5f395ff3fe608060405234801561000f575f80fd5b506004361061004a575f3560e01c80633ffbd47f1461004e57806345aea9d71461006a57806358467dbc14610086578063b6b9e3ee146100b6575b5f80fd5b610068600480360381019061006391906105f8565b6100c0565b005b610084600480360381019061007f91906105f8565b610176565b005b6100a0600480360381019061009b91906105f8565b610221565b6040516100ad9190610688565b60405180910390f35b6100be610234565b005b81815f80836040516100d291906106f3565b90815260200160405180910390205414610121576040517f08c379a000000000000000000000000000000000000000000000000000000000815260040161011890610763565b60405180910390fd5b5f8484604051602001610135929190610781565b604051602081830303815290604052805190602001209050805f8660405161015d91906106f3565b9081526020016040518091039020819055505050505050565b5f8260405161018591906106f3565b90815260200160405180910390205482826040516020016101a7929190610781565b60405160208183030381529060405280519060200120146101fd576040517f08c379a00000000000000000000000000000000000000000000000000000000081526004016101f4906107ee565b60405180910390fd5b5f8260405161020c91906106f3565b90815260200160405180910390205f90555050565b5f61022c838361031e565b905092915050565b6102a86040518060400160405280600281526020017f79680000000000000000000000000000000000000000000000000000000000008152506040518060400160405280600381526020017f31323300000000000000000000000000000000000000000000000000000000008152506100c0565b61031c6040518060400160405280600381526020017f6a6f6500000000000000000000000000000000000000000000000000000000008152506040518060400160405280600381526020017f32333400000000000000000000000000000000000000000000000000000000008152506100c0565b565b5f808360405161032e91906106f3565b9081526020016040518091039020548383604051602001610350929190610781565b60405160208183030381529060405280519060200120036103aa575f60018460405161037c91906106f3565b90815260200160405180910390205f6101000a81548160ff021916908360ff160217905550600190506104a5565b600180846040516103bb91906106f3565b90815260200160405180910390205f8282829054906101000a900460ff166103e39190610845565b92506101000a81548160ff021916908360ff160217905550600560018460405161040d91906106f3565b90815260200160405180910390205f9054906101000a900460ff1660ff16036104a1575f60018460405161044191906106f3565b90815260200160405180910390205f6101000a81548160ff021916908360ff1602179055506040517f08c379a0000000000000000000000000000000000000000000000000000000008152600401610498906108e9565b60405180910390fd5b5f90505b92915050565b5f604051905090565b5f80fd5b5f80fd5b5f80fd5b5f80fd5b5f601f19601f8301169050919050565b7f4e487b71000000000000000000000000000000000000000000000000000000005f52604160045260245ffd5b61050a826104c4565b810181811067ffffffffffffffff82111715610529576105286104d4565b5b80604052505050565b5f61053b6104ab565b90506105478282610501565b919050565b5f67ffffffffffffffff821115610566576105656104d4565b5b61056f826104c4565b9050602081019050919050565b828183375f83830152505050565b5f61059c6105978461054c565b610532565b9050828152602081018484840111156105b8576105b76104c0565b5b6105c384828561057c565b509392505050565b5f82601f8301126105df576105de6104bc565b5b81356105ef84826020860161058a565b91505092915050565b5f806040838503121561060e5761060d6104b4565b5b5f83013567ffffffffffffffff81111561062b5761062a6104b8565b5b610637858286016105cb565b925050602083013567ffffffffffffffff811115610658576106576104b8565b5b610664858286016105cb565b9150509250929050565b5f8115159050919050565b6106828161066e565b82525050565b5f60208201905061069b5f830184610679565b92915050565b5f81519050919050565b5f81905092915050565b8281835e5f83830152505050565b5f6106cd826106a1565b6106d781856106ab565b93506106e78185602086016106b5565b80840191505092915050565b5f6106fe82846106c3565b915081905092915050565b5f82825260208201905092915050565b7f696420616c7265616479206578697374730000000000000000000000000000005f82015250565b5f61074d601183610709565b915061075882610719565b602082019050919050565b5f6020820190508181035f83015261077a81610741565b9050919050565b5f61078c82856106c3565b915061079882846106c3565b91508190509392505050565b7f77726f6e6720696e666f726d6174696f6e0000000000000000000000000000005f82015250565b5f6107d8601183610709565b91506107e3826107a4565b602082019050919050565b5f6020820190508181035f830152610805816107cc565b9050919050565b5f60ff82169050919050565b7f4e487b71000000000000000000000000000000000000000000000000000000005f52601160045260245ffd5b5f61084f8261080c565b915061085a8361080c565b9250828201905060ff81111561087357610872610818565b5b92915050565b7f596f752063616e6e6f74206c6f67696e20666f72206e6578742066697665206d5f8201527f696e757465730000000000000000000000000000000000000000000000000000602082015250565b5f6108d3602683610709565b91506108de82610879565b604082019050919050565b5f6020820190508181035f830152610900816108c7565b905091905056fea26469706673582212200ee8e43b5385a0b3e7dd58d34c97ed10edd350d070e884dcdb63441eea4bbd3d64736f6c634300081a0033",
					"opcodes": "PUSH1 0x80 PUSH1 0x40 MSTORE CALLVALUE DUP1 ISZERO PUSH1 0xE JUMPI PUSH0 DUP1 REVERT JUMPDEST POP PUSH2 0x93D DUP1 PUSH2 0x1C PUSH0 CODECOPY PUSH0 RETURN INVALID PUSH1 0x80 PUSH1 0x40 MSTORE CALLVALUE DUP1 ISZERO PUSH2 0xF JUMPI PUSH0 DUP1 REVERT JUMPDEST POP PUSH1 0x4 CALLDATASIZE LT PUSH2 0x4A JUMPI PUSH0 CALLDATALOAD PUSH1 0xE0 SHR DUP1 PUSH4 0x3FFBD47F EQ PUSH2 0x4E JUMPI DUP1 PUSH4 0x45AEA9D7 EQ PUSH2 0x6A JUMPI DUP1 PUSH4 0x58467DBC EQ PUSH2 0x86 JUMPI DUP1 PUSH4 0xB6B9E3EE EQ PUSH2 0xB6 JUMPI JUMPDEST PUSH0 DUP1 REVERT JUMPDEST PUSH2 0x68 PUSH1 0x4 DUP1 CALLDATASIZE SUB DUP2 ADD SWAP1 PUSH2 0x63 SWAP2 SWAP1 PUSH2 0x5F8 JUMP JUMPDEST PUSH2 0xC0 JUMP JUMPDEST STOP JUMPDEST PUSH2 0x84 PUSH1 0x4 DUP1 CALLDATASIZE SUB DUP2 ADD SWAP1 PUSH2 0x7F SWAP2 SWAP1 PUSH2 0x5F8 JUMP JUMPDEST PUSH2 0x176 JUMP JUMPDEST STOP JUMPDEST PUSH2 0xA0 PUSH1 0x4 DUP1 CALLDATASIZE SUB DUP2 ADD SWAP1 PUSH2 0x9B SWAP2 SWAP1 PUSH2 0x5F8 JUMP JUMPDEST PUSH2 0x221 JUMP JUMPDEST PUSH1 0x40 MLOAD PUSH2 0xAD SWAP2 SWAP1 PUSH2 0x688 JUMP JUMPDEST PUSH1 0x40 MLOAD DUP1 SWAP2 SUB SWAP1 RETURN JUMPDEST PUSH2 0xBE PUSH2 0x234 JUMP JUMPDEST STOP JUMPDEST DUP2 DUP2 PUSH0 DUP1 DUP4 PUSH1 0x40 MLOAD PUSH2 0xD2 SWAP2 SWAP1 PUSH2 0x6F3 JUMP JUMPDEST SWAP1 DUP2 MSTORE PUSH1 0x20 ADD PUSH1 0x40 MLOAD DUP1 SWAP2 SUB SWAP1 KECCAK256 SLOAD EQ PUSH2 0x121 JUMPI PUSH1 0x40 MLOAD PUSH32 0x8C379A000000000000000000000000000000000000000000000000000000000 DUP2 MSTORE PUSH1 0x4 ADD PUSH2 0x118 SWAP1 PUSH2 0x763 JUMP JUMPDEST PUSH1 0x40 MLOAD DUP1 SWAP2 SUB SWAP1 REVERT JUMPDEST PUSH0 DUP5 DUP5 PUSH1 0x40 MLOAD PUSH1 0x20 ADD PUSH2 0x135 SWAP3 SWAP2 SWAP1 PUSH2 0x781 JUMP JUMPDEST PUSH1 0x40 MLOAD PUSH1 0x20 DUP2 DUP4 SUB SUB DUP2 MSTORE SWAP1 PUSH1 0x40 MSTORE DUP1 MLOAD SWAP1 PUSH1 0x20 ADD KECCAK256 SWAP1 POP DUP1 PUSH0 DUP7 PUSH1 0x40 MLOAD PUSH2 0x15D SWAP2 SWAP1 PUSH2 0x6F3 JUMP JUMPDEST SWAP1 DUP2 MSTORE PUSH1 0x20 ADD PUSH1 0x40 MLOAD DUP1 SWAP2 SUB SWAP1 KECCAK256 DUP2 SWAP1 SSTORE POP POP POP POP POP POP JUMP JUMPDEST PUSH0 DUP3 PUSH1 0x40 MLOAD PUSH2 0x185 SWAP2 SWAP1 PUSH2 0x6F3 JUMP JUMPDEST SWAP1 DUP2 MSTORE PUSH1 0x20 ADD PUSH1 0x40 MLOAD DUP1 SWAP2 SUB SWAP1 KECCAK256 SLOAD DUP3 DUP3 PUSH1 0x40 MLOAD PUSH1 0x20 ADD PUSH2 0x1A7 SWAP3 SWAP2 SWAP1 PUSH2 0x781 JUMP JUMPDEST PUSH1 0x40 MLOAD PUSH1 0x20 DUP2 DUP4 SUB SUB DUP2 MSTORE SWAP1 PUSH1 0x40 MSTORE DUP1 MLOAD SWAP1 PUSH1 0x20 ADD KECCAK256 EQ PUSH2 0x1FD JUMPI PUSH1 0x40 MLOAD PUSH32 0x8C379A000000000000000000000000000000000000000000000000000000000 DUP2 MSTORE PUSH1 0x4 ADD PUSH2 0x1F4 SWAP1 PUSH2 0x7EE JUMP JUMPDEST PUSH1 0x40 MLOAD DUP1 SWAP2 SUB SWAP1 REVERT JUMPDEST PUSH0 DUP3 PUSH1 0x40 MLOAD PUSH2 0x20C SWAP2 SWAP1 PUSH2 0x6F3 JUMP JUMPDEST SWAP1 DUP2 MSTORE PUSH1 0x20 ADD PUSH1 0x40 MLOAD DUP1 SWAP2 SUB SWAP1 KECCAK256 PUSH0 SWAP1 SSTORE POP POP JUMP JUMPDEST PUSH0 PUSH2 0x22C DUP4 DUP4 PUSH2 0x31E JUMP JUMPDEST SWAP1 POP SWAP3 SWAP2 POP POP JUMP JUMPDEST PUSH2 0x2A8 PUSH1 0x40 MLOAD DUP1 PUSH1 0x40 ADD PUSH1 0x40 MSTORE DUP1 PUSH1 0x2 DUP2 MSTORE PUSH1 0x20 ADD PUSH32 0x7968000000000000000000000000000000000000000000000000000000000000 DUP2 MSTORE POP PUSH1 0x40 MLOAD DUP1 PUSH1 0x40 ADD PUSH1 0x40 MSTORE DUP1 PUSH1 0x3 DUP2 MSTORE PUSH1 0x20 ADD PUSH32 0x3132330000000000000000000000000000000000000000000000000000000000 DUP2 MSTORE POP PUSH2 0xC0 JUMP JUMPDEST PUSH2 0x31C PUSH1 0x40 MLOAD DUP1 PUSH1 0x40 ADD PUSH1 0x40 MSTORE DUP1 PUSH1 0x3 DUP2 MSTORE PUSH1 0x20 ADD PUSH32 0x6A6F650000000000000000000000000000000000000000000000000000000000 DUP2 MSTORE POP PUSH1 0x40 MLOAD DUP1 PUSH1 0x40 ADD PUSH1 0x40 MSTORE DUP1 PUSH1 0x3 DUP2 MSTORE PUSH1 0x20 ADD PUSH32 0x3233340000000000000000000000000000000000000000000000000000000000 DUP2 MSTORE POP PUSH2 0xC0 JUMP JUMPDEST JUMP JUMPDEST PUSH0 DUP1 DUP4 PUSH1 0x40 MLOAD PUSH2 0x32E SWAP2 SWAP1 PUSH2 0x6F3 JUMP JUMPDEST SWAP1 DUP2 MSTORE PUSH1 0x20 ADD PUSH1 0x40 MLOAD DUP1 SWAP2 SUB SWAP1 KECCAK256 SLOAD DUP4 DUP4 PUSH1 0x40 MLOAD PUSH1 0x20 ADD PUSH2 0x350 SWAP3 SWAP2 SWAP1 PUSH2 0x781 JUMP JUMPDEST PUSH1 0x40 MLOAD PUSH1 0x20 DUP2 DUP4 SUB SUB DUP2 MSTORE SWAP1 PUSH1 0x40 MSTORE DUP1 MLOAD SWAP1 PUSH1 0x20 ADD KECCAK256 SUB PUSH2 0x3AA JUMPI PUSH0 PUSH1 0x1 DUP5 PUSH1 0x40 MLOAD PUSH2 0x37C SWAP2 SWAP1 PUSH2 0x6F3 JUMP JUMPDEST SWAP1 DUP2 MSTORE PUSH1 0x20 ADD PUSH1 0x40 MLOAD DUP1 SWAP2 SUB SWAP1 KECCAK256 PUSH0 PUSH2 0x100 EXP DUP2 SLOAD DUP2 PUSH1 0xFF MUL NOT AND SWAP1 DUP4 PUSH1 0xFF AND MUL OR SWAP1 SSTORE POP PUSH1 0x1 SWAP1 POP PUSH2 0x4A5 JUMP JUMPDEST PUSH1 0x1 DUP1 DUP5 PUSH1 0x40 MLOAD PUSH2 0x3BB SWAP2 SWAP1 PUSH2 0x6F3 JUMP JUMPDEST SWAP1 DUP2 MSTORE PUSH1 0x20 ADD PUSH1 0x40 MLOAD DUP1 SWAP2 SUB SWAP1 KECCAK256 PUSH0 DUP3 DUP3 DUP3 SWAP1 SLOAD SWAP1 PUSH2 0x100 EXP SWAP1 DIV PUSH1 0xFF AND PUSH2 0x3E3 SWAP2 SWAP1 PUSH2 0x845 JUMP JUMPDEST SWAP3 POP PUSH2 0x100 EXP DUP2 SLOAD DUP2 PUSH1 0xFF MUL NOT AND SWAP1 DUP4 PUSH1 0xFF AND MUL OR SWAP1 SSTORE POP PUSH1 0x5 PUSH1 0x1 DUP5 PUSH1 0x40 MLOAD PUSH2 0x40D SWAP2 SWAP1 PUSH2 0x6F3 JUMP JUMPDEST SWAP1 DUP2 MSTORE PUSH1 0x20 ADD PUSH1 0x40 MLOAD DUP1 SWAP2 SUB SWAP1 KECCAK256 PUSH0 SWAP1 SLOAD SWAP1 PUSH2 0x100 EXP SWAP1 DIV PUSH1 0xFF AND PUSH1 0xFF AND SUB PUSH2 0x4A1 JUMPI PUSH0 PUSH1 0x1 DUP5 PUSH1 0x40 MLOAD PUSH2 0x441 SWAP2 SWAP1 PUSH2 0x6F3 JUMP JUMPDEST SWAP1 DUP2 MSTORE PUSH1 0x20 ADD PUSH1 0x40 MLOAD DUP1 SWAP2 SUB SWAP1 KECCAK256 PUSH0 PUSH2 0x100 EXP DUP2 SLOAD DUP2 PUSH1 0xFF MUL NOT AND SWAP1 DUP4 PUSH1 0xFF AND MUL OR SWAP1 SSTORE POP PUSH1 0x40 MLOAD PUSH32 0x8C379A000000000000000000000000000000000000000000000000000000000 DUP2 MSTORE PUSH1 0x4 ADD PUSH2 0x498 SWAP1 PUSH2 0x8E9 JUMP JUMPDEST PUSH1 0x40 MLOAD DUP1 SWAP2 SUB SWAP1 REVERT JUMPDEST PUSH0 SWAP1 POP JUMPDEST SWAP3 SWAP2 POP POP JUMP JUMPDEST PUSH0 PUSH1 0x40 MLOAD SWAP1 POP SWAP1 JUMP JUMPDEST PUSH0 DUP1 REVERT JUMPDEST PUSH0 DUP1 REVERT JUMPDEST PUSH0 DUP1 REVERT JUMPDEST PUSH0 DUP1 REVERT JUMPDEST PUSH0 PUSH1 0x1F NOT PUSH1 0x1F DUP4 ADD AND SWAP1 POP SWAP2 SWAP1 POP JUMP JUMPDEST PUSH32 0x4E487B7100000000000000000000000000000000000000000000000000000000 PUSH0 MSTORE PUSH1 0x41 PUSH1 0x4 MSTORE PUSH1 0x24 PUSH0 REVERT JUMPDEST PUSH2 0x50A DUP3 PUSH2 0x4C4 JUMP JUMPDEST DUP2 ADD DUP2 DUP2 LT PUSH8 0xFFFFFFFFFFFFFFFF DUP3 GT OR ISZERO PUSH2 0x529 JUMPI PUSH2 0x528 PUSH2 0x4D4 JUMP JUMPDEST JUMPDEST DUP1 PUSH1 0x40 MSTORE POP POP POP JUMP JUMPDEST PUSH0 PUSH2 0x53B PUSH2 0x4AB JUMP JUMPDEST SWAP1 POP PUSH2 0x547 DUP3 DUP3 PUSH2 0x501 JUMP JUMPDEST SWAP2 SWAP1 POP JUMP JUMPDEST PUSH0 PUSH8 0xFFFFFFFFFFFFFFFF DUP3 GT ISZERO PUSH2 0x566 JUMPI PUSH2 0x565 PUSH2 0x4D4 JUMP JUMPDEST JUMPDEST PUSH2 0x56F DUP3 PUSH2 0x4C4 JUMP JUMPDEST SWAP1 POP PUSH1 0x20 DUP2 ADD SWAP1 POP SWAP2 SWAP1 POP JUMP JUMPDEST DUP3 DUP2 DUP4 CALLDATACOPY PUSH0 DUP4 DUP4 ADD MSTORE POP POP POP JUMP JUMPDEST PUSH0 PUSH2 0x59C PUSH2 0x597 DUP5 PUSH2 0x54C JUMP JUMPDEST PUSH2 0x532 JUMP JUMPDEST SWAP1 POP DUP3 DUP2 MSTORE PUSH1 0x20 DUP2 ADD DUP5 DUP5 DUP5 ADD GT ISZERO PUSH2 0x5B8 JUMPI PUSH2 0x5B7 PUSH2 0x4C0 JUMP JUMPDEST JUMPDEST PUSH2 0x5C3 DUP5 DUP3 DUP6 PUSH2 0x57C JUMP JUMPDEST POP SWAP4 SWAP3 POP POP POP JUMP JUMPDEST PUSH0 DUP3 PUSH1 0x1F DUP4 ADD SLT PUSH2 0x5DF JUMPI PUSH2 0x5DE PUSH2 0x4BC JUMP JUMPDEST JUMPDEST DUP2 CALLDATALOAD PUSH2 0x5EF DUP5 DUP3 PUSH1 0x20 DUP7 ADD PUSH2 0x58A JUMP JUMPDEST SWAP2 POP POP SWAP3 SWAP2 POP POP JUMP JUMPDEST PUSH0 DUP1 PUSH1 0x40 DUP4 DUP6 SUB SLT ISZERO PUSH2 0x60E JUMPI PUSH2 0x60D PUSH2 0x4B4 JUMP JUMPDEST JUMPDEST PUSH0 DUP4 ADD CALLDATALOAD PUSH8 0xFFFFFFFFFFFFFFFF DUP2 GT ISZERO PUSH2 0x62B JUMPI PUSH2 0x62A PUSH2 0x4B8 JUMP JUMPDEST JUMPDEST PUSH2 0x637 DUP6 DUP3 DUP7 ADD PUSH2 0x5CB JUMP JUMPDEST SWAP3 POP POP PUSH1 0x20 DUP4 ADD CALLDATALOAD PUSH8 0xFFFFFFFFFFFFFFFF DUP2 GT ISZERO PUSH2 0x658 JUMPI PUSH2 0x657 PUSH2 0x4B8 JUMP JUMPDEST JUMPDEST PUSH2 0x664 DUP6 DUP3 DUP7 ADD PUSH2 0x5CB JUMP JUMPDEST SWAP2 POP POP SWAP3 POP SWAP3 SWAP1 POP JUMP JUMPDEST PUSH0 DUP2 ISZERO ISZERO SWAP1 POP SWAP2 SWAP1 POP JUMP JUMPDEST PUSH2 0x682 DUP2 PUSH2 0x66E JUMP JUMPDEST DUP3 MSTORE POP POP JUMP JUMPDEST PUSH0 PUSH1 0x20 DUP3 ADD SWAP1 POP PUSH2 0x69B PUSH0 DUP4 ADD DUP5 PUSH2 0x679 JUMP JUMPDEST SWAP3 SWAP2 POP POP JUMP JUMPDEST PUSH0 DUP2 MLOAD SWAP1 POP SWAP2 SWAP1 POP JUMP JUMPDEST PUSH0 DUP2 SWAP1 POP SWAP3 SWAP2 POP POP JUMP JUMPDEST DUP3 DUP2 DUP4 MCOPY PUSH0 DUP4 DUP4 ADD MSTORE POP POP POP JUMP JUMPDEST PUSH0 PUSH2 0x6CD DUP3 PUSH2 0x6A1 JUMP JUMPDEST PUSH2 0x6D7 DUP2 DUP6 PUSH2 0x6AB JUMP JUMPDEST SWAP4 POP PUSH2 0x6E7 DUP2 DUP6 PUSH1 0x20 DUP7 ADD PUSH2 0x6B5 JUMP JUMPDEST DUP1 DUP5 ADD SWAP2 POP POP SWAP3 SWAP2 POP POP JUMP JUMPDEST PUSH0 PUSH2 0x6FE DUP3 DUP5 PUSH2 0x6C3 JUMP JUMPDEST SWAP2 POP DUP2 SWAP1 POP SWAP3 SWAP2 POP POP JUMP JUMPDEST PUSH0 DUP3 DUP3 MSTORE PUSH1 0x20 DUP3 ADD SWAP1 POP SWAP3 SWAP2 POP POP JUMP JUMPDEST PUSH32 0x696420616C726561647920657869737473000000000000000000000000000000 PUSH0 DUP3 ADD MSTORE POP JUMP JUMPDEST PUSH0 PUSH2 0x74D PUSH1 0x11 DUP4 PUSH2 0x709 JUMP JUMPDEST SWAP2 POP PUSH2 0x758 DUP3 PUSH2 0x719 JUMP JUMPDEST PUSH1 0x20 DUP3 ADD SWAP1 POP SWAP2 SWAP1 POP JUMP JUMPDEST PUSH0 PUSH1 0x20 DUP3 ADD SWAP1 POP DUP2 DUP2 SUB PUSH0 DUP4 ADD MSTORE PUSH2 0x77A DUP2 PUSH2 0x741 JUMP JUMPDEST SWAP1 POP SWAP2 SWAP1 POP JUMP JUMPDEST PUSH0 PUSH2 0x78C DUP3 DUP6 PUSH2 0x6C3 JUMP JUMPDEST SWAP2 POP PUSH2 0x798 DUP3 DUP5 PUSH2 0x6C3 JUMP JUMPDEST SWAP2 POP DUP2 SWAP1 POP SWAP4 SWAP3 POP POP POP JUMP JUMPDEST PUSH32 0x77726F6E6720696E666F726D6174696F6E000000000000000000000000000000 PUSH0 DUP3 ADD MSTORE POP JUMP JUMPDEST PUSH0 PUSH2 0x7D8 PUSH1 0x11 DUP4 PUSH2 0x709 JUMP JUMPDEST SWAP2 POP PUSH2 0x7E3 DUP3 PUSH2 0x7A4 JUMP JUMPDEST PUSH1 0x20 DUP3 ADD SWAP1 POP SWAP2 SWAP1 POP JUMP JUMPDEST PUSH0 PUSH1 0x20 DUP3 ADD SWAP1 POP DUP2 DUP2 SUB PUSH0 DUP4 ADD MSTORE PUSH2 0x805 DUP2 PUSH2 0x7CC JUMP JUMPDEST SWAP1 POP SWAP2 SWAP1 POP JUMP JUMPDEST PUSH0 PUSH1 0xFF DUP3 AND SWAP1 POP SWAP2 SWAP1 POP JUMP JUMPDEST PUSH32 0x4E487B7100000000000000000000000000000000000000000000000000000000 PUSH0 MSTORE PUSH1 0x11 PUSH1 0x4 MSTORE PUSH1 0x24 PUSH0 REVERT JUMPDEST PUSH0 PUSH2 0x84F DUP3 PUSH2 0x80C JUMP JUMPDEST SWAP2 POP PUSH2 0x85A DUP4 PUSH2 0x80C JUMP JUMPDEST SWAP3 POP DUP3 DUP3 ADD SWAP1 POP PUSH1 0xFF DUP2 GT ISZERO PUSH2 0x873 JUMPI PUSH2 0x872 PUSH2 0x818 JUMP JUMPDEST JUMPDEST SWAP3 SWAP2 POP POP JUMP JUMPDEST PUSH32 0x596F752063616E6E6F74206C6F67696E20666F72206E6578742066697665206D PUSH0 DUP3 ADD MSTORE PUSH32 0x696E757465730000000000000000000000000000000000000000000000000000 PUSH1 0x20 DUP3 ADD MSTORE POP JUMP JUMPDEST PUSH0 PUSH2 0x8D3 PUSH1 0x26 DUP4 PUSH2 0x709 JUMP JUMPDEST SWAP2 POP PUSH2 0x8DE DUP3 PUSH2 0x879 JUMP JUMPDEST PUSH1 0x40 DUP3 ADD SWAP1 POP SWAP2 SWAP1 POP JUMP JUMPDEST PUSH0 PUSH1 0x20 DUP3 ADD SWAP1 POP DUP2 DUP2 SUB PUSH0 DUP4 ADD MSTORE PUSH2 0x900 DUP2 PUSH2 0x8C7 JUMP JUMPDEST SWAP1 POP SWAP2 SWAP1 POP JUMP INVALID LOG2 PUSH5 0x6970667358 0x22 SLT KECCAK256 0xE 0xE8 0xE4 EXTCODESIZE MSTORE8 DUP6 LOG0 0xB3 0xE7 0xDD PC 0xD3 0x4C SWAP8 0xED LT 0xED 0xD3 POP 0xD0 PUSH17 0xE884DCDB63441EEA4BBD3D64736F6C6343 STOP ADDMOD BYTE STOP CALLER "
				},
				"gasEstimates": {
					"creation": {
						"codeDepositCost": "473000",
						"executionCost": "503",
						"totalCost": "473503"
					},
					"external": {
						"deleteAccount(string,string)": "infinite",
						"login(string,string)": "infinite",
						"register(string,string)": "infinite",
						"setTestData()": "infinite"
					},
					"internal": {
						"checkLoginPassword(string memory,string memory)": "infinite"
					}
				},
				"methodIdentifiers": {
					"deleteAccount(string,string)": "45aea9d7",
					"login(string,string)": "58467dbc",
					"register(string,string)": "3ffbd47f",
					"setTestData()": "b6b9e3ee"
				}
			},
			"storageLayout": {
				"storage": [
					{
						"astId": 5,
						"contract": "Code Test/CodeTest_3.sol:Test3",
						"label": "loginData",
						"offset": 0,
						"slot": "0",
						"type": "t_mapping(t_string_memory_ptr,t_bytes32)"
					},
					{
						"astId": 9,
						"contract": "Code Test/CodeTest_3.sol:Test3",
						"label": "loginFailureCounter",
						"offset": 0,
						"slot": "1",
						"type": "t_mapping(t_string_memory_ptr,t_uint8)"
					}
				],
				"types": {
					"t_bytes32": {
						"encoding": "inplace",
						"label": "bytes32",
						"numberOfBytes": "32"
					},
					"t_mapping(t_string_memory_ptr,t_bytes32)": {
						"encoding": "mapping",
						"key": "t_string_memory_ptr",
						"label": "mapping(string => bytes32)",
						"numberOfBytes": "32",
						"value": "t_bytes32"
					},
					"t_mapping(t_string_memory_ptr,t_uint8)": {
						"encoding": "mapping",
						"key": "t_string_memory_ptr",
						"label": "mapping(string => uint8)",
						"numberOfBytes": "32",
						"value": "t_uint8"
					},
					"t_string_memory_ptr": {
						"encoding": "bytes",
						"label": "string",
						"numberOfBytes": "32"
					},
					"t_uint8": {
						"encoding": "inplace",
						"label": "uint8",
						"numberOfBytes": "1"
					}
				}
			},
			"userdoc": {
				"kind": "user",
				"methods": {},
				"version": 1
			}
		}
	}
}