{
	"Code Test/CodeTest_12.sol": {
		"TEST12": {
			"abi": [
				{
					"inputs": [
						{
							"internalType": "string",
							"name": "carNumber",
							"type": "string"
						}
					],
					"name": "enter",
					"outputs": [],
					"stateMutability": "nonpayable",
					"type": "function"
				},
				{
					"inputs": [
						{
							"internalType": "string",
							"name": "_carNumber",
							"type": "string"
						}
					],
					"name": "getCost",
					"outputs": [
						{
							"internalType": "uint256",
							"name": "",
							"type": "uint256"
						}
					],
					"stateMutability": "view",
					"type": "function"
				},
				{
					"inputs": [
						{
							"internalType": "string",
							"name": "_carNumber",
							"type": "string"
						}
					],
					"name": "leave",
					"outputs": [],
					"stateMutability": "payable",
					"type": "function"
				}
			],
			"devdoc": {
				"kind": "dev",
				"methods": {},
				"version": 1
			},
			"evm": {
				"assembly": "    /* \"Code Test/CodeTest_12.sol\":58:2014  contract TEST12{... */\n  mstore(0x40, 0x80)\n  callvalue\n  dup1\n  iszero\n  tag_1\n  jumpi\n  0x00\n  dup1\n  revert\ntag_1:\n  pop\n  dataSize(sub_0)\n  dup1\n  dataOffset(sub_0)\n  0x00\n  codecopy\n  0x00\n  return\nstop\n\nsub_0: assembly {\n        /* \"Code Test/CodeTest_12.sol\":58:2014  contract TEST12{... */\n      mstore(0x40, 0x80)\n      jumpi(tag_1, lt(calldatasize, 0x04))\n      shr(0xe0, calldataload(0x00))\n      dup1\n      0x237a4d51\n      eq\n      tag_2\n      jumpi\n      dup1\n      0x9ca3c29c\n      eq\n      tag_3\n      jumpi\n      dup1\n      0x9d4ff8ad\n      eq\n      tag_4\n      jumpi\n    tag_1:\n      0x00\n      dup1\n      revert\n        /* \"Code Test/CodeTest_12.sol\":1154:2012  function leave(string memory _carNumber) public payable{... */\n    tag_2:\n      tag_5\n      0x04\n      dup1\n      calldatasize\n      sub\n      dup2\n      add\n      swap1\n      tag_6\n      swap2\n      swap1\n      tag_7\n      jump\t// in\n    tag_6:\n      tag_8\n      jump\t// in\n    tag_5:\n      stop\n        /* \"Code Test/CodeTest_12.sol\":801:1148  function getCost(string memory _carNumber) public view returns(uint) {... */\n    tag_3:\n      callvalue\n      dup1\n      iszero\n      tag_9\n      jumpi\n      0x00\n      dup1\n      revert\n    tag_9:\n      pop\n      tag_10\n      0x04\n      dup1\n      calldatasize\n      sub\n      dup2\n      add\n      swap1\n      tag_11\n      swap2\n      swap1\n      tag_7\n      jump\t// in\n    tag_11:\n      tag_12\n      jump\t// in\n    tag_10:\n      mload(0x40)\n      tag_13\n      swap2\n      swap1\n      tag_14\n      jump\t// in\n    tag_13:\n      mload(0x40)\n      dup1\n      swap2\n      sub\n      swap1\n      return\n        /* \"Code Test/CodeTest_12.sol\":642:791  function enter(string memory carNumber) public {... */\n    tag_4:\n      callvalue\n      dup1\n      iszero\n      tag_15\n      jumpi\n      0x00\n      dup1\n      revert\n    tag_15:\n      pop\n      tag_16\n      0x04\n      dup1\n      calldatasize\n      sub\n      dup2\n      add\n      swap1\n      tag_17\n      swap2\n      swap1\n      tag_7\n      jump\t// in\n    tag_17:\n      tag_18\n      jump\t// in\n    tag_16:\n      stop\n        /* \"Code Test/CodeTest_12.sol\":1154:2012  function leave(string memory _carNumber) public payable{... */\n    tag_8:\n        /* \"Code Test/CodeTest_12.sol\":1246:1247  0 */\n      0x00\n        /* \"Code Test/CodeTest_12.sol\":1227:1230  car */\n      dup1\n        /* \"Code Test/CodeTest_12.sol\":1231:1241  _carNumber */\n      dup3\n        /* \"Code Test/CodeTest_12.sol\":1227:1242  car[_carNumber] */\n      mload(0x40)\n      tag_20\n      swap2\n      swap1\n      tag_21\n      jump\t// in\n    tag_20:\n      swap1\n      dup2\n      mstore\n      0x20\n      add\n      mload(0x40)\n      dup1\n      swap2\n      sub\n      swap1\n      keccak256\n      sload\n        /* \"Code Test/CodeTest_12.sol\":1227:1247  car[_carNumber] != 0 */\n      sub\n        /* \"Code Test/CodeTest_12.sol\":1219:1268  require(car[_carNumber] != 0, \"didn't enter yet\") */\n      tag_22\n      jumpi\n      mload(0x40)\n      0x08c379a000000000000000000000000000000000000000000000000000000000\n      dup2\n      mstore\n      0x04\n      add\n      tag_23\n      swap1\n      tag_24\n      jump\t// in\n    tag_23:\n      mload(0x40)\n      dup1\n      swap2\n      sub\n      swap1\n      revert\n    tag_22:\n        /* \"Code Test/CodeTest_12.sol\":1278:1295  bool numberExists */\n      0x00\n        /* \"Code Test/CodeTest_12.sol\":1305:1322  bool stringExists */\n      dup1\n        /* \"Code Test/CodeTest_12.sol\":1338:1344  uint i */\n      0x00\n        /* \"Code Test/CodeTest_12.sol\":1333:1608  for (uint i=0;i<bytes(_carNumber).length;i++) {... */\n    tag_25:\n        /* \"Code Test/CodeTest_12.sol\":1355:1365  _carNumber */\n      dup4\n        /* \"Code Test/CodeTest_12.sol\":1349:1373  bytes(_carNumber).length */\n      mload\n        /* \"Code Test/CodeTest_12.sol\":1347:1348  i */\n      dup2\n        /* \"Code Test/CodeTest_12.sol\":1347:1373  i<bytes(_carNumber).length */\n      lt\n        /* \"Code Test/CodeTest_12.sol\":1333:1608  for (uint i=0;i<bytes(_carNumber).length;i++) {... */\n      iszero\n      tag_26\n      jumpi\n        /* \"Code Test/CodeTest_12.sol\":1433:1437  0+48 */\n      0x30\n        /* \"Code Test/CodeTest_12.sol\":1420:1439  bytes1(uint8(0+48)) */\n      0xf8\n      shl\n        /* \"Code Test/CodeTest_12.sol\":1396:1439  bytes(_carNumber)[i] >= bytes1(uint8(0+48)) */\n      not(0xffffffffffffffffffffffffffffffffffffffffffffffffffffffffffffff)\n      and\n        /* \"Code Test/CodeTest_12.sol\":1402:1412  _carNumber */\n      dup5\n        /* \"Code Test/CodeTest_12.sol\":1414:1415  i */\n      dup3\n        /* \"Code Test/CodeTest_12.sol\":1396:1416  bytes(_carNumber)[i] */\n      dup2\n      mload\n      dup2\n      lt\n      tag_28\n      jumpi\n      tag_29\n      tag_30\n      jump\t// in\n    tag_29:\n    tag_28:\n      0x20\n      add\n      add\n      mload\n      0xf8\n      shr\n      0xf8\n      shl\n        /* \"Code Test/CodeTest_12.sol\":1396:1439  bytes(_carNumber)[i] >= bytes1(uint8(0+48)) */\n      not(0xffffffffffffffffffffffffffffffffffffffffffffffffffffffffffffff)\n      and\n      lt\n      iszero\n        /* \"Code Test/CodeTest_12.sol\":1396:1486  bytes(_carNumber)[i] >= bytes1(uint8(0+48)) && bytes(_carNumber)[i] <= bytes1(uint8(9+48)) */\n      dup1\n      iszero\n      tag_31\n      jumpi\n      pop\n        /* \"Code Test/CodeTest_12.sol\":1480:1484  9+48 */\n      0x39\n        /* \"Code Test/CodeTest_12.sol\":1467:1486  bytes1(uint8(9+48)) */\n      0xf8\n      shl\n        /* \"Code Test/CodeTest_12.sol\":1443:1486  bytes(_carNumber)[i] <= bytes1(uint8(9+48)) */\n      not(0xffffffffffffffffffffffffffffffffffffffffffffffffffffffffffffff)\n      and\n        /* \"Code Test/CodeTest_12.sol\":1449:1459  _carNumber */\n      dup5\n        /* \"Code Test/CodeTest_12.sol\":1461:1462  i */\n      dup3\n        /* \"Code Test/CodeTest_12.sol\":1443:1463  bytes(_carNumber)[i] */\n      dup2\n      mload\n      dup2\n      lt\n      tag_32\n      jumpi\n      tag_33\n      tag_30\n      jump\t// in\n    tag_33:\n    tag_32:\n      0x20\n      add\n      add\n      mload\n      0xf8\n      shr\n      0xf8\n      shl\n        /* \"Code Test/CodeTest_12.sol\":1443:1486  bytes(_carNumber)[i] <= bytes1(uint8(9+48)) */\n      not(0xffffffffffffffffffffffffffffffffffffffffffffffffffffffffffffff)\n      and\n      gt\n      iszero\n        /* \"Code Test/CodeTest_12.sol\":1396:1486  bytes(_carNumber)[i] >= bytes1(uint8(0+48)) && bytes(_carNumber)[i] <= bytes1(uint8(9+48)) */\n    tag_31:\n        /* \"Code Test/CodeTest_12.sol\":1393:1598  if(bytes(_carNumber)[i] >= bytes1(uint8(0+48)) && bytes(_carNumber)[i] <= bytes1(uint8(9+48))) {... */\n      iszero\n      tag_34\n      jumpi\n        /* \"Code Test/CodeTest_12.sol\":1521:1525  true */\n      0x01\n        /* \"Code Test/CodeTest_12.sol\":1506:1525  numberExists = true */\n      swap3\n      pop\n        /* \"Code Test/CodeTest_12.sol\":1393:1598  if(bytes(_carNumber)[i] >= bytes1(uint8(0+48)) && bytes(_carNumber)[i] <= bytes1(uint8(9+48))) {... */\n      jump(tag_35)\n    tag_34:\n        /* \"Code Test/CodeTest_12.sol\":1579:1583  true */\n      0x01\n        /* \"Code Test/CodeTest_12.sol\":1564:1583  stringExists = true */\n      swap2\n      pop\n        /* \"Code Test/CodeTest_12.sol\":1393:1598  if(bytes(_carNumber)[i] >= bytes1(uint8(0+48)) && bytes(_carNumber)[i] <= bytes1(uint8(9+48))) {... */\n    tag_35:\n        /* \"Code Test/CodeTest_12.sol\":1374:1377  i++ */\n      dup1\n      dup1\n      0x01\n      add\n      swap2\n      pop\n      pop\n        /* \"Code Test/CodeTest_12.sol\":1333:1608  for (uint i=0;i<bytes(_carNumber).length;i++) {... */\n      jump(tag_25)\n    tag_26:\n      pop\n        /* \"Code Test/CodeTest_12.sol\":1618:1626  uint fee */\n      0x00\n        /* \"Code Test/CodeTest_12.sol\":1629:1648  getCost(_carNumber) */\n      tag_36\n        /* \"Code Test/CodeTest_12.sol\":1637:1647  _carNumber */\n      dup5\n        /* \"Code Test/CodeTest_12.sol\":1629:1636  getCost */\n      tag_12\n        /* \"Code Test/CodeTest_12.sol\":1629:1648  getCost(_carNumber) */\n      jump\t// in\n    tag_36:\n        /* \"Code Test/CodeTest_12.sol\":1618:1648  uint fee = getCost(_carNumber) */\n      swap1\n      pop\n        /* \"Code Test/CodeTest_12.sol\":1661:1673  numberExists */\n      dup3\n        /* \"Code Test/CodeTest_12.sol\":1661:1690  numberExists && !stringExists */\n      dup1\n      iszero\n      tag_37\n      jumpi\n      pop\n        /* \"Code Test/CodeTest_12.sol\":1678:1690  stringExists */\n      dup2\n        /* \"Code Test/CodeTest_12.sol\":1677:1690  !stringExists */\n      iszero\n        /* \"Code Test/CodeTest_12.sol\":1661:1690  numberExists && !stringExists */\n    tag_37:\n        /* \"Code Test/CodeTest_12.sol\":1658:1822  if(numberExists && !stringExists) {... */\n      iszero\n      tag_38\n      jumpi\n        /* \"Code Test/CodeTest_12.sol\":1723:1726  100 */\n      0x64\n        /* \"Code Test/CodeTest_12.sol\":1718:1720  80 */\n      0x50\n        /* \"Code Test/CodeTest_12.sol\":1712:1715  fee */\n      dup3\n        /* \"Code Test/CodeTest_12.sol\":1712:1720  fee * 80 */\n      tag_39\n      swap2\n      swap1\n      tag_40\n      jump\t// in\n    tag_39:\n        /* \"Code Test/CodeTest_12.sol\":1712:1726  fee * 80 / 100 */\n      tag_41\n      swap2\n      swap1\n      tag_42\n      jump\t// in\n    tag_41:\n        /* \"Code Test/CodeTest_12.sol\":1706:1726  fee = fee * 80 / 100 */\n      swap1\n      pop\n        /* \"Code Test/CodeTest_12.sol\":1658:1822  if(numberExists && !stringExists) {... */\n      jump(tag_43)\n    tag_38:\n        /* \"Code Test/CodeTest_12.sol\":1747:1759  numberExists */\n      dup3\n        /* \"Code Test/CodeTest_12.sol\":1746:1759  !numberExists */\n      iszero\n        /* \"Code Test/CodeTest_12.sol\":1746:1775  !numberExists && stringExists */\n      dup1\n      iszero\n      tag_44\n      jumpi\n      pop\n        /* \"Code Test/CodeTest_12.sol\":1763:1775  stringExists */\n      dup2\n        /* \"Code Test/CodeTest_12.sol\":1746:1775  !numberExists && stringExists */\n    tag_44:\n        /* \"Code Test/CodeTest_12.sol\":1743:1822  if(!numberExists && stringExists) {... */\n      iszero\n      tag_45\n      jumpi\n        /* \"Code Test/CodeTest_12.sol\":1808:1811  100 */\n      0x64\n        /* \"Code Test/CodeTest_12.sol\":1803:1805  50 */\n      0x32\n        /* \"Code Test/CodeTest_12.sol\":1797:1800  fee */\n      dup3\n        /* \"Code Test/CodeTest_12.sol\":1797:1805  fee * 50 */\n      tag_46\n      swap2\n      swap1\n      tag_40\n      jump\t// in\n    tag_46:\n        /* \"Code Test/CodeTest_12.sol\":1797:1811  fee * 50 / 100 */\n      tag_47\n      swap2\n      swap1\n      tag_42\n      jump\t// in\n    tag_47:\n        /* \"Code Test/CodeTest_12.sol\":1791:1811  fee = fee * 50 / 100 */\n      swap1\n      pop\n        /* \"Code Test/CodeTest_12.sol\":1743:1822  if(!numberExists && stringExists) {... */\n    tag_45:\n        /* \"Code Test/CodeTest_12.sol\":1658:1822  if(numberExists && !stringExists) {... */\n    tag_43:\n        /* \"Code Test/CodeTest_12.sol\":1843:1844  0 */\n      0x00\n        /* \"Code Test/CodeTest_12.sol\":1836:1839  fee */\n      dup2\n        /* \"Code Test/CodeTest_12.sol\":1836:1844  fee == 0 */\n      sub\n        /* \"Code Test/CodeTest_12.sol\":1832:2005  if (fee == 0) {... */\n      tag_48\n      jumpi\n        /* \"Code Test/CodeTest_12.sol\":1867:1870  car */\n      0x00\n        /* \"Code Test/CodeTest_12.sol\":1871:1881  _carNumber */\n      dup5\n        /* \"Code Test/CodeTest_12.sol\":1867:1882  car[_carNumber] */\n      mload(0x40)\n      tag_49\n      swap2\n      swap1\n      tag_21\n      jump\t// in\n    tag_49:\n      swap1\n      dup2\n      mstore\n      0x20\n      add\n      mload(0x40)\n      dup1\n      swap2\n      sub\n      swap1\n      keccak256\n        /* \"Code Test/CodeTest_12.sol\":1860:1882  delete car[_carNumber] */\n      0x00\n      swap1\n      sstore\n        /* \"Code Test/CodeTest_12.sol\":1832:2005  if (fee == 0) {... */\n      jump(tag_50)\n    tag_48:\n        /* \"Code Test/CodeTest_12.sol\":1934:1937  fee */\n      dup1\n        /* \"Code Test/CodeTest_12.sol\":1921:1930  msg.value */\n      callvalue\n        /* \"Code Test/CodeTest_12.sol\":1921:1937  msg.value == fee */\n      eq\n        /* \"Code Test/CodeTest_12.sol\":1913:1958  require(msg.value == fee, \"not enough money\") */\n      tag_51\n      jumpi\n      mload(0x40)\n      0x08c379a000000000000000000000000000000000000000000000000000000000\n      dup2\n      mstore\n      0x04\n      add\n      tag_52\n      swap1\n      tag_53\n      jump\t// in\n    tag_52:\n      mload(0x40)\n      dup1\n      swap2\n      sub\n      swap1\n      revert\n    tag_51:\n        /* \"Code Test/CodeTest_12.sol\":1979:1982  car */\n      0x00\n        /* \"Code Test/CodeTest_12.sol\":1983:1993  _carNumber */\n      dup5\n        /* \"Code Test/CodeTest_12.sol\":1979:1994  car[_carNumber] */\n      mload(0x40)\n      tag_54\n      swap2\n      swap1\n      tag_21\n      jump\t// in\n    tag_54:\n      swap1\n      dup2\n      mstore\n      0x20\n      add\n      mload(0x40)\n      dup1\n      swap2\n      sub\n      swap1\n      keccak256\n        /* \"Code Test/CodeTest_12.sol\":1972:1994  delete car[_carNumber] */\n      0x00\n      swap1\n      sstore\n        /* \"Code Test/CodeTest_12.sol\":1832:2005  if (fee == 0) {... */\n    tag_50:\n        /* \"Code Test/CodeTest_12.sol\":1209:2012  {... */\n      pop\n      pop\n      pop\n        /* \"Code Test/CodeTest_12.sol\":1154:2012  function leave(string memory _carNumber) public payable{... */\n      pop\n      jump\t// out\n        /* \"Code Test/CodeTest_12.sol\":801:1148  function getCost(string memory _carNumber) public view returns(uint) {... */\n    tag_12:\n        /* \"Code Test/CodeTest_12.sol\":864:868  uint */\n      0x00\n        /* \"Code Test/CodeTest_12.sol\":880:896  uint parkingTime */\n      dup1\n        /* \"Code Test/CodeTest_12.sol\":917:920  car */\n      0x00\n        /* \"Code Test/CodeTest_12.sol\":921:931  _carNumber */\n      dup4\n        /* \"Code Test/CodeTest_12.sol\":917:932  car[_carNumber] */\n      mload(0x40)\n      tag_56\n      swap2\n      swap1\n      tag_21\n      jump\t// in\n    tag_56:\n      swap1\n      dup2\n      mstore\n      0x20\n      add\n      mload(0x40)\n      dup1\n      swap2\n      sub\n      swap1\n      keccak256\n      sload\n        /* \"Code Test/CodeTest_12.sol\":899:914  block.timestamp */\n      timestamp\n        /* \"Code Test/CodeTest_12.sol\":899:932  block.timestamp - car[_carNumber] */\n      tag_57\n      swap2\n      swap1\n      tag_58\n      jump\t// in\n    tag_57:\n        /* \"Code Test/CodeTest_12.sol\":880:932  uint parkingTime = block.timestamp - car[_carNumber] */\n      swap1\n      pop\n        /* \"Code Test/CodeTest_12.sol\":942:955  uint freeTime */\n      0x00\n        /* \"Code Test/CodeTest_12.sol\":958:969  60 * 60 * 2 */\n      0x1c20\n        /* \"Code Test/CodeTest_12.sol\":942:969  uint freeTime = 60 * 60 * 2 */\n      swap1\n      pop\n        /* \"Code Test/CodeTest_12.sol\":979:987  uint fee */\n      0x00\n        /* \"Code Test/CodeTest_12.sol\":1027:1029  60 */\n      0x3c\n        /* \"Code Test/CodeTest_12.sol\":1017:1024  200 wei */\n      0xc8\n        /* \"Code Test/CodeTest_12.sol\":1005:1013  freeTime */\n      dup4\n        /* \"Code Test/CodeTest_12.sol\":991:1002  parkingTime */\n      dup6\n        /* \"Code Test/CodeTest_12.sol\":991:1013  parkingTime - freeTime */\n      tag_59\n      swap2\n      swap1\n      tag_58\n      jump\t// in\n    tag_59:\n        /* \"Code Test/CodeTest_12.sol\":990:1024  (parkingTime - freeTime) * 200 wei */\n      tag_60\n      swap2\n      swap1\n      tag_40\n      jump\t// in\n    tag_60:\n        /* \"Code Test/CodeTest_12.sol\":990:1029  (parkingTime - freeTime) * 200 wei / 60 */\n      tag_61\n      swap2\n      swap1\n      tag_42\n      jump\t// in\n    tag_61:\n        /* \"Code Test/CodeTest_12.sol\":979:1029  uint fee = (parkingTime - freeTime) * 200 wei / 60 */\n      swap1\n      pop\n        /* \"Code Test/CodeTest_12.sol\":1058:1066  freeTime */\n      dup2\n        /* \"Code Test/CodeTest_12.sol\":1044:1055  parkingTime */\n      dup4\n        /* \"Code Test/CodeTest_12.sol\":1044:1066  parkingTime < freeTime */\n      lt\n        /* \"Code Test/CodeTest_12.sol\":1040:1142  if (parkingTime < freeTime) {... */\n      iszero\n      tag_62\n      jumpi\n        /* \"Code Test/CodeTest_12.sol\":1089:1090  0 */\n      0x00\n        /* \"Code Test/CodeTest_12.sol\":1082:1090  return 0 */\n      swap4\n      pop\n      pop\n      pop\n      pop\n      jump(tag_55)\n        /* \"Code Test/CodeTest_12.sol\":1040:1142  if (parkingTime < freeTime) {... */\n    tag_62:\n        /* \"Code Test/CodeTest_12.sol\":1128:1131  fee */\n      dup1\n        /* \"Code Test/CodeTest_12.sol\":1121:1131  return fee */\n      swap4\n      pop\n      pop\n      pop\n      pop\n        /* \"Code Test/CodeTest_12.sol\":801:1148  function getCost(string memory _carNumber) public view returns(uint) {... */\n    tag_55:\n      swap2\n      swap1\n      pop\n      jump\t// out\n        /* \"Code Test/CodeTest_12.sol\":642:791  function enter(string memory carNumber) public {... */\n    tag_18:\n        /* \"Code Test/CodeTest_12.sol\":725:726  0 */\n      0x00\n        /* \"Code Test/CodeTest_12.sol\":707:710  car */\n      dup1\n        /* \"Code Test/CodeTest_12.sol\":711:720  carNumber */\n      dup3\n        /* \"Code Test/CodeTest_12.sol\":707:721  car[carNumber] */\n      mload(0x40)\n      tag_65\n      swap2\n      swap1\n      tag_21\n      jump\t// in\n    tag_65:\n      swap1\n      dup2\n      mstore\n      0x20\n      add\n      mload(0x40)\n      dup1\n      swap2\n      sub\n      swap1\n      keccak256\n      sload\n        /* \"Code Test/CodeTest_12.sol\":707:726  car[carNumber] == 0 */\n      eq\n        /* \"Code Test/CodeTest_12.sol\":699:742  require(car[carNumber] == 0, \"need to pay\") */\n      tag_66\n      jumpi\n      mload(0x40)\n      0x08c379a000000000000000000000000000000000000000000000000000000000\n      dup2\n      mstore\n      0x04\n      add\n      tag_67\n      swap1\n      tag_68\n      jump\t// in\n    tag_67:\n      mload(0x40)\n      dup1\n      swap2\n      sub\n      swap1\n      revert\n    tag_66:\n        /* \"Code Test/CodeTest_12.sol\":769:784  block.timestamp */\n      timestamp\n        /* \"Code Test/CodeTest_12.sol\":752:755  car */\n      0x00\n        /* \"Code Test/CodeTest_12.sol\":756:765  carNumber */\n      dup3\n        /* \"Code Test/CodeTest_12.sol\":752:766  car[carNumber] */\n      mload(0x40)\n      tag_69\n      swap2\n      swap1\n      tag_21\n      jump\t// in\n    tag_69:\n      swap1\n      dup2\n      mstore\n      0x20\n      add\n      mload(0x40)\n      dup1\n      swap2\n      sub\n      swap1\n      keccak256\n        /* \"Code Test/CodeTest_12.sol\":752:784  car[carNumber] = block.timestamp */\n      dup2\n      swap1\n      sstore\n      pop\n        /* \"Code Test/CodeTest_12.sol\":642:791  function enter(string memory carNumber) public {... */\n      pop\n      jump\t// out\n        /* \"#utility.yul\":7:82   */\n    tag_70:\n        /* \"#utility.yul\":40:46   */\n      0x00\n        /* \"#utility.yul\":73:75   */\n      0x40\n        /* \"#utility.yul\":67:76   */\n      mload\n        /* \"#utility.yul\":57:76   */\n      swap1\n      pop\n        /* \"#utility.yul\":7:82   */\n      swap1\n      jump\t// out\n        /* \"#utility.yul\":88:205   */\n    tag_71:\n        /* \"#utility.yul\":197:198   */\n      0x00\n        /* \"#utility.yul\":194:195   */\n      dup1\n        /* \"#utility.yul\":187:199   */\n      revert\n        /* \"#utility.yul\":211:328   */\n    tag_72:\n        /* \"#utility.yul\":320:321   */\n      0x00\n        /* \"#utility.yul\":317:318   */\n      dup1\n        /* \"#utility.yul\":310:322   */\n      revert\n        /* \"#utility.yul\":334:451   */\n    tag_73:\n        /* \"#utility.yul\":443:444   */\n      0x00\n        /* \"#utility.yul\":440:441   */\n      dup1\n        /* \"#utility.yul\":433:445   */\n      revert\n        /* \"#utility.yul\":457:574   */\n    tag_74:\n        /* \"#utility.yul\":566:567   */\n      0x00\n        /* \"#utility.yul\":563:564   */\n      dup1\n        /* \"#utility.yul\":556:568   */\n      revert\n        /* \"#utility.yul\":580:682   */\n    tag_75:\n        /* \"#utility.yul\":621:627   */\n      0x00\n        /* \"#utility.yul\":672:674   */\n      0x1f\n        /* \"#utility.yul\":668:675   */\n      not\n        /* \"#utility.yul\":663:665   */\n      0x1f\n        /* \"#utility.yul\":656:661   */\n      dup4\n        /* \"#utility.yul\":652:666   */\n      add\n        /* \"#utility.yul\":648:676   */\n      and\n        /* \"#utility.yul\":638:676   */\n      swap1\n      pop\n        /* \"#utility.yul\":580:682   */\n      swap2\n      swap1\n      pop\n      jump\t// out\n        /* \"#utility.yul\":688:868   */\n    tag_76:\n        /* \"#utility.yul\":736:813   */\n      0x4e487b7100000000000000000000000000000000000000000000000000000000\n        /* \"#utility.yul\":733:734   */\n      0x00\n        /* \"#utility.yul\":726:814   */\n      mstore\n        /* \"#utility.yul\":833:837   */\n      0x41\n        /* \"#utility.yul\":830:831   */\n      0x04\n        /* \"#utility.yul\":823:838   */\n      mstore\n        /* \"#utility.yul\":857:861   */\n      0x24\n        /* \"#utility.yul\":854:855   */\n      0x00\n        /* \"#utility.yul\":847:862   */\n      revert\n        /* \"#utility.yul\":874:1155   */\n    tag_77:\n        /* \"#utility.yul\":957:984   */\n      tag_107\n        /* \"#utility.yul\":979:983   */\n      dup3\n        /* \"#utility.yul\":957:984   */\n      tag_75\n      jump\t// in\n    tag_107:\n        /* \"#utility.yul\":949:955   */\n      dup2\n        /* \"#utility.yul\":945:985   */\n      add\n        /* \"#utility.yul\":1087:1093   */\n      dup2\n        /* \"#utility.yul\":1075:1085   */\n      dup2\n        /* \"#utility.yul\":1072:1094   */\n      lt\n        /* \"#utility.yul\":1051:1069   */\n      0xffffffffffffffff\n        /* \"#utility.yul\":1039:1049   */\n      dup3\n        /* \"#utility.yul\":1036:1070   */\n      gt\n        /* \"#utility.yul\":1033:1095   */\n      or\n        /* \"#utility.yul\":1030:1118   */\n      iszero\n      tag_108\n      jumpi\n        /* \"#utility.yul\":1098:1116   */\n      tag_109\n      tag_76\n      jump\t// in\n    tag_109:\n        /* \"#utility.yul\":1030:1118   */\n    tag_108:\n        /* \"#utility.yul\":1138:1148   */\n      dup1\n        /* \"#utility.yul\":1134:1136   */\n      0x40\n        /* \"#utility.yul\":1127:1149   */\n      mstore\n        /* \"#utility.yul\":917:1155   */\n      pop\n        /* \"#utility.yul\":874:1155   */\n      pop\n      pop\n      jump\t// out\n        /* \"#utility.yul\":1161:1290   */\n    tag_78:\n        /* \"#utility.yul\":1195:1201   */\n      0x00\n        /* \"#utility.yul\":1222:1242   */\n      tag_111\n      tag_70\n      jump\t// in\n    tag_111:\n        /* \"#utility.yul\":1212:1242   */\n      swap1\n      pop\n        /* \"#utility.yul\":1251:1284   */\n      tag_112\n        /* \"#utility.yul\":1279:1283   */\n      dup3\n        /* \"#utility.yul\":1271:1277   */\n      dup3\n        /* \"#utility.yul\":1251:1284   */\n      tag_77\n      jump\t// in\n    tag_112:\n        /* \"#utility.yul\":1161:1290   */\n      swap2\n      swap1\n      pop\n      jump\t// out\n        /* \"#utility.yul\":1296:1604   */\n    tag_79:\n        /* \"#utility.yul\":1358:1362   */\n      0x00\n        /* \"#utility.yul\":1448:1466   */\n      0xffffffffffffffff\n        /* \"#utility.yul\":1440:1446   */\n      dup3\n        /* \"#utility.yul\":1437:1467   */\n      gt\n        /* \"#utility.yul\":1434:1490   */\n      iszero\n      tag_114\n      jumpi\n        /* \"#utility.yul\":1470:1488   */\n      tag_115\n      tag_76\n      jump\t// in\n    tag_115:\n        /* \"#utility.yul\":1434:1490   */\n    tag_114:\n        /* \"#utility.yul\":1508:1537   */\n      tag_116\n        /* \"#utility.yul\":1530:1536   */\n      dup3\n        /* \"#utility.yul\":1508:1537   */\n      tag_75\n      jump\t// in\n    tag_116:\n        /* \"#utility.yul\":1500:1537   */\n      swap1\n      pop\n        /* \"#utility.yul\":1592:1596   */\n      0x20\n        /* \"#utility.yul\":1586:1590   */\n      dup2\n        /* \"#utility.yul\":1582:1597   */\n      add\n        /* \"#utility.yul\":1574:1597   */\n      swap1\n      pop\n        /* \"#utility.yul\":1296:1604   */\n      swap2\n      swap1\n      pop\n      jump\t// out\n        /* \"#utility.yul\":1610:1758   */\n    tag_80:\n        /* \"#utility.yul\":1708:1714   */\n      dup3\n        /* \"#utility.yul\":1703:1706   */\n      dup2\n        /* \"#utility.yul\":1698:1701   */\n      dup4\n        /* \"#utility.yul\":1685:1715   */\n      calldatacopy\n        /* \"#utility.yul\":1749:1750   */\n      0x00\n        /* \"#utility.yul\":1740:1746   */\n      dup4\n        /* \"#utility.yul\":1735:1738   */\n      dup4\n        /* \"#utility.yul\":1731:1747   */\n      add\n        /* \"#utility.yul\":1724:1751   */\n      mstore\n        /* \"#utility.yul\":1610:1758   */\n      pop\n      pop\n      pop\n      jump\t// out\n        /* \"#utility.yul\":1764:2189   */\n    tag_81:\n        /* \"#utility.yul\":1842:1847   */\n      0x00\n        /* \"#utility.yul\":1867:1933   */\n      tag_119\n        /* \"#utility.yul\":1883:1932   */\n      tag_120\n        /* \"#utility.yul\":1925:1931   */\n      dup5\n        /* \"#utility.yul\":1883:1932   */\n      tag_79\n      jump\t// in\n    tag_120:\n        /* \"#utility.yul\":1867:1933   */\n      tag_78\n      jump\t// in\n    tag_119:\n        /* \"#utility.yul\":1858:1933   */\n      swap1\n      pop\n        /* \"#utility.yul\":1956:1962   */\n      dup3\n        /* \"#utility.yul\":1949:1954   */\n      dup2\n        /* \"#utility.yul\":1942:1963   */\n      mstore\n        /* \"#utility.yul\":1994:1998   */\n      0x20\n        /* \"#utility.yul\":1987:1992   */\n      dup2\n        /* \"#utility.yul\":1983:1999   */\n      add\n        /* \"#utility.yul\":2032:2035   */\n      dup5\n        /* \"#utility.yul\":2023:2029   */\n      dup5\n        /* \"#utility.yul\":2018:2021   */\n      dup5\n        /* \"#utility.yul\":2014:2030   */\n      add\n        /* \"#utility.yul\":2011:2036   */\n      gt\n        /* \"#utility.yul\":2008:2120   */\n      iszero\n      tag_121\n      jumpi\n        /* \"#utility.yul\":2039:2118   */\n      tag_122\n      tag_74\n      jump\t// in\n    tag_122:\n        /* \"#utility.yul\":2008:2120   */\n    tag_121:\n        /* \"#utility.yul\":2129:2183   */\n      tag_123\n        /* \"#utility.yul\":2176:2182   */\n      dup5\n        /* \"#utility.yul\":2171:2174   */\n      dup3\n        /* \"#utility.yul\":2166:2169   */\n      dup6\n        /* \"#utility.yul\":2129:2183   */\n      tag_80\n      jump\t// in\n    tag_123:\n        /* \"#utility.yul\":1848:2189   */\n      pop\n        /* \"#utility.yul\":1764:2189   */\n      swap4\n      swap3\n      pop\n      pop\n      pop\n      jump\t// out\n        /* \"#utility.yul\":2209:2549   */\n    tag_82:\n        /* \"#utility.yul\":2265:2270   */\n      0x00\n        /* \"#utility.yul\":2314:2317   */\n      dup3\n        /* \"#utility.yul\":2307:2311   */\n      0x1f\n        /* \"#utility.yul\":2299:2305   */\n      dup4\n        /* \"#utility.yul\":2295:2312   */\n      add\n        /* \"#utility.yul\":2291:2318   */\n      slt\n        /* \"#utility.yul\":2281:2403   */\n      tag_125\n      jumpi\n        /* \"#utility.yul\":2322:2401   */\n      tag_126\n      tag_73\n      jump\t// in\n    tag_126:\n        /* \"#utility.yul\":2281:2403   */\n    tag_125:\n        /* \"#utility.yul\":2439:2445   */\n      dup2\n        /* \"#utility.yul\":2426:2446   */\n      calldataload\n        /* \"#utility.yul\":2464:2543   */\n      tag_127\n        /* \"#utility.yul\":2539:2542   */\n      dup5\n        /* \"#utility.yul\":2531:2537   */\n      dup3\n        /* \"#utility.yul\":2524:2528   */\n      0x20\n        /* \"#utility.yul\":2516:2522   */\n      dup7\n        /* \"#utility.yul\":2512:2529   */\n      add\n        /* \"#utility.yul\":2464:2543   */\n      tag_81\n      jump\t// in\n    tag_127:\n        /* \"#utility.yul\":2455:2543   */\n      swap2\n      pop\n        /* \"#utility.yul\":2271:2549   */\n      pop\n        /* \"#utility.yul\":2209:2549   */\n      swap3\n      swap2\n      pop\n      pop\n      jump\t// out\n        /* \"#utility.yul\":2555:3064   */\n    tag_7:\n        /* \"#utility.yul\":2624:2630   */\n      0x00\n        /* \"#utility.yul\":2673:2675   */\n      0x20\n        /* \"#utility.yul\":2661:2670   */\n      dup3\n        /* \"#utility.yul\":2652:2659   */\n      dup5\n        /* \"#utility.yul\":2648:2671   */\n      sub\n        /* \"#utility.yul\":2644:2676   */\n      slt\n        /* \"#utility.yul\":2641:2760   */\n      iszero\n      tag_129\n      jumpi\n        /* \"#utility.yul\":2679:2758   */\n      tag_130\n      tag_71\n      jump\t// in\n    tag_130:\n        /* \"#utility.yul\":2641:2760   */\n    tag_129:\n        /* \"#utility.yul\":2827:2828   */\n      0x00\n        /* \"#utility.yul\":2816:2825   */\n      dup3\n        /* \"#utility.yul\":2812:2829   */\n      add\n        /* \"#utility.yul\":2799:2830   */\n      calldataload\n        /* \"#utility.yul\":2857:2875   */\n      0xffffffffffffffff\n        /* \"#utility.yul\":2849:2855   */\n      dup2\n        /* \"#utility.yul\":2846:2876   */\n      gt\n        /* \"#utility.yul\":2843:2960   */\n      iszero\n      tag_131\n      jumpi\n        /* \"#utility.yul\":2879:2958   */\n      tag_132\n      tag_72\n      jump\t// in\n    tag_132:\n        /* \"#utility.yul\":2843:2960   */\n    tag_131:\n        /* \"#utility.yul\":2984:3047   */\n      tag_133\n        /* \"#utility.yul\":3039:3046   */\n      dup5\n        /* \"#utility.yul\":3030:3036   */\n      dup3\n        /* \"#utility.yul\":3019:3028   */\n      dup6\n        /* \"#utility.yul\":3015:3037   */\n      add\n        /* \"#utility.yul\":2984:3047   */\n      tag_82\n      jump\t// in\n    tag_133:\n        /* \"#utility.yul\":2974:3047   */\n      swap2\n      pop\n        /* \"#utility.yul\":2770:3057   */\n      pop\n        /* \"#utility.yul\":2555:3064   */\n      swap3\n      swap2\n      pop\n      pop\n      jump\t// out\n        /* \"#utility.yul\":3070:3147   */\n    tag_83:\n        /* \"#utility.yul\":3107:3114   */\n      0x00\n        /* \"#utility.yul\":3136:3141   */\n      dup2\n        /* \"#utility.yul\":3125:3141   */\n      swap1\n      pop\n        /* \"#utility.yul\":3070:3147   */\n      swap2\n      swap1\n      pop\n      jump\t// out\n        /* \"#utility.yul\":3153:3271   */\n    tag_84:\n        /* \"#utility.yul\":3240:3264   */\n      tag_136\n        /* \"#utility.yul\":3258:3263   */\n      dup2\n        /* \"#utility.yul\":3240:3264   */\n      tag_83\n      jump\t// in\n    tag_136:\n        /* \"#utility.yul\":3235:3238   */\n      dup3\n        /* \"#utility.yul\":3228:3265   */\n      mstore\n        /* \"#utility.yul\":3153:3271   */\n      pop\n      pop\n      jump\t// out\n        /* \"#utility.yul\":3277:3499   */\n    tag_14:\n        /* \"#utility.yul\":3370:3374   */\n      0x00\n        /* \"#utility.yul\":3408:3410   */\n      0x20\n        /* \"#utility.yul\":3397:3406   */\n      dup3\n        /* \"#utility.yul\":3393:3411   */\n      add\n        /* \"#utility.yul\":3385:3411   */\n      swap1\n      pop\n        /* \"#utility.yul\":3421:3492   */\n      tag_138\n        /* \"#utility.yul\":3489:3490   */\n      0x00\n        /* \"#utility.yul\":3478:3487   */\n      dup4\n        /* \"#utility.yul\":3474:3491   */\n      add\n        /* \"#utility.yul\":3465:3471   */\n      dup5\n        /* \"#utility.yul\":3421:3492   */\n      tag_84\n      jump\t// in\n    tag_138:\n        /* \"#utility.yul\":3277:3499   */\n      swap3\n      swap2\n      pop\n      pop\n      jump\t// out\n        /* \"#utility.yul\":3505:3604   */\n    tag_85:\n        /* \"#utility.yul\":3557:3563   */\n      0x00\n        /* \"#utility.yul\":3591:3596   */\n      dup2\n        /* \"#utility.yul\":3585:3597   */\n      mload\n        /* \"#utility.yul\":3575:3597   */\n      swap1\n      pop\n        /* \"#utility.yul\":3505:3604   */\n      swap2\n      swap1\n      pop\n      jump\t// out\n        /* \"#utility.yul\":3610:3758   */\n    tag_86:\n        /* \"#utility.yul\":3712:3723   */\n      0x00\n        /* \"#utility.yul\":3749:3752   */\n      dup2\n        /* \"#utility.yul\":3734:3752   */\n      swap1\n      pop\n        /* \"#utility.yul\":3610:3758   */\n      swap3\n      swap2\n      pop\n      pop\n      jump\t// out\n        /* \"#utility.yul\":3764:3903   */\n    tag_87:\n        /* \"#utility.yul\":3853:3859   */\n      dup3\n        /* \"#utility.yul\":3848:3851   */\n      dup2\n        /* \"#utility.yul\":3843:3846   */\n      dup4\n        /* \"#utility.yul\":3837:3860   */\n      mcopy\n        /* \"#utility.yul\":3894:3895   */\n      0x00\n        /* \"#utility.yul\":3885:3891   */\n      dup4\n        /* \"#utility.yul\":3880:3883   */\n      dup4\n        /* \"#utility.yul\":3876:3892   */\n      add\n        /* \"#utility.yul\":3869:3896   */\n      mstore\n        /* \"#utility.yul\":3764:3903   */\n      pop\n      pop\n      pop\n      jump\t// out\n        /* \"#utility.yul\":3909:4299   */\n    tag_88:\n        /* \"#utility.yul\":4015:4018   */\n      0x00\n        /* \"#utility.yul\":4043:4082   */\n      tag_143\n        /* \"#utility.yul\":4076:4081   */\n      dup3\n        /* \"#utility.yul\":4043:4082   */\n      tag_85\n      jump\t// in\n    tag_143:\n        /* \"#utility.yul\":4098:4187   */\n      tag_144\n        /* \"#utility.yul\":4180:4186   */\n      dup2\n        /* \"#utility.yul\":4175:4178   */\n      dup6\n        /* \"#utility.yul\":4098:4187   */\n      tag_86\n      jump\t// in\n    tag_144:\n        /* \"#utility.yul\":4091:4187   */\n      swap4\n      pop\n        /* \"#utility.yul\":4196:4261   */\n      tag_145\n        /* \"#utility.yul\":4254:4260   */\n      dup2\n        /* \"#utility.yul\":4249:4252   */\n      dup6\n        /* \"#utility.yul\":4242:4246   */\n      0x20\n        /* \"#utility.yul\":4235:4240   */\n      dup7\n        /* \"#utility.yul\":4231:4247   */\n      add\n        /* \"#utility.yul\":4196:4261   */\n      tag_87\n      jump\t// in\n    tag_145:\n        /* \"#utility.yul\":4286:4292   */\n      dup1\n        /* \"#utility.yul\":4281:4284   */\n      dup5\n        /* \"#utility.yul\":4277:4293   */\n      add\n        /* \"#utility.yul\":4270:4293   */\n      swap2\n      pop\n        /* \"#utility.yul\":4019:4299   */\n      pop\n        /* \"#utility.yul\":3909:4299   */\n      swap3\n      swap2\n      pop\n      pop\n      jump\t// out\n        /* \"#utility.yul\":4305:4580   */\n    tag_21:\n        /* \"#utility.yul\":4437:4440   */\n      0x00\n        /* \"#utility.yul\":4459:4554   */\n      tag_147\n        /* \"#utility.yul\":4550:4553   */\n      dup3\n        /* \"#utility.yul\":4541:4547   */\n      dup5\n        /* \"#utility.yul\":4459:4554   */\n      tag_88\n      jump\t// in\n    tag_147:\n        /* \"#utility.yul\":4452:4554   */\n      swap2\n      pop\n        /* \"#utility.yul\":4571:4574   */\n      dup2\n        /* \"#utility.yul\":4564:4574   */\n      swap1\n      pop\n        /* \"#utility.yul\":4305:4580   */\n      swap3\n      swap2\n      pop\n      pop\n      jump\t// out\n        /* \"#utility.yul\":4586:4755   */\n    tag_89:\n        /* \"#utility.yul\":4670:4681   */\n      0x00\n        /* \"#utility.yul\":4704:4710   */\n      dup3\n        /* \"#utility.yul\":4699:4702   */\n      dup3\n        /* \"#utility.yul\":4692:4711   */\n      mstore\n        /* \"#utility.yul\":4744:4748   */\n      0x20\n        /* \"#utility.yul\":4739:4742   */\n      dup3\n        /* \"#utility.yul\":4735:4749   */\n      add\n        /* \"#utility.yul\":4720:4749   */\n      swap1\n      pop\n        /* \"#utility.yul\":4586:4755   */\n      swap3\n      swap2\n      pop\n      pop\n      jump\t// out\n        /* \"#utility.yul\":4761:4927   */\n    tag_90:\n        /* \"#utility.yul\":4901:4919   */\n      0x6469646e277420656e7465722079657400000000000000000000000000000000\n        /* \"#utility.yul\":4897:4898   */\n      0x00\n        /* \"#utility.yul\":4889:4895   */\n      dup3\n        /* \"#utility.yul\":4885:4899   */\n      add\n        /* \"#utility.yul\":4878:4920   */\n      mstore\n        /* \"#utility.yul\":4761:4927   */\n      pop\n      jump\t// out\n        /* \"#utility.yul\":4933:5299   */\n    tag_91:\n        /* \"#utility.yul\":5075:5078   */\n      0x00\n        /* \"#utility.yul\":5096:5163   */\n      tag_151\n        /* \"#utility.yul\":5160:5162   */\n      0x10\n        /* \"#utility.yul\":5155:5158   */\n      dup4\n        /* \"#utility.yul\":5096:5163   */\n      tag_89\n      jump\t// in\n    tag_151:\n        /* \"#utility.yul\":5089:5163   */\n      swap2\n      pop\n        /* \"#utility.yul\":5172:5265   */\n      tag_152\n        /* \"#utility.yul\":5261:5264   */\n      dup3\n        /* \"#utility.yul\":5172:5265   */\n      tag_90\n      jump\t// in\n    tag_152:\n        /* \"#utility.yul\":5290:5292   */\n      0x20\n        /* \"#utility.yul\":5285:5288   */\n      dup3\n        /* \"#utility.yul\":5281:5293   */\n      add\n        /* \"#utility.yul\":5274:5293   */\n      swap1\n      pop\n        /* \"#utility.yul\":4933:5299   */\n      swap2\n      swap1\n      pop\n      jump\t// out\n        /* \"#utility.yul\":5305:5724   */\n    tag_24:\n        /* \"#utility.yul\":5471:5475   */\n      0x00\n        /* \"#utility.yul\":5509:5511   */\n      0x20\n        /* \"#utility.yul\":5498:5507   */\n      dup3\n        /* \"#utility.yul\":5494:5512   */\n      add\n        /* \"#utility.yul\":5486:5512   */\n      swap1\n      pop\n        /* \"#utility.yul\":5558:5567   */\n      dup2\n        /* \"#utility.yul\":5552:5556   */\n      dup2\n        /* \"#utility.yul\":5548:5568   */\n      sub\n        /* \"#utility.yul\":5544:5545   */\n      0x00\n        /* \"#utility.yul\":5533:5542   */\n      dup4\n        /* \"#utility.yul\":5529:5546   */\n      add\n        /* \"#utility.yul\":5522:5569   */\n      mstore\n        /* \"#utility.yul\":5586:5717   */\n      tag_154\n        /* \"#utility.yul\":5712:5716   */\n      dup2\n        /* \"#utility.yul\":5586:5717   */\n      tag_91\n      jump\t// in\n    tag_154:\n        /* \"#utility.yul\":5578:5717   */\n      swap1\n      pop\n        /* \"#utility.yul\":5305:5724   */\n      swap2\n      swap1\n      pop\n      jump\t// out\n        /* \"#utility.yul\":5730:5910   */\n    tag_30:\n        /* \"#utility.yul\":5778:5855   */\n      0x4e487b7100000000000000000000000000000000000000000000000000000000\n        /* \"#utility.yul\":5775:5776   */\n      0x00\n        /* \"#utility.yul\":5768:5856   */\n      mstore\n        /* \"#utility.yul\":5875:5879   */\n      0x32\n        /* \"#utility.yul\":5872:5873   */\n      0x04\n        /* \"#utility.yul\":5865:5880   */\n      mstore\n        /* \"#utility.yul\":5899:5903   */\n      0x24\n        /* \"#utility.yul\":5896:5897   */\n      0x00\n        /* \"#utility.yul\":5889:5904   */\n      revert\n        /* \"#utility.yul\":5916:6096   */\n    tag_92:\n        /* \"#utility.yul\":5964:6041   */\n      0x4e487b7100000000000000000000000000000000000000000000000000000000\n        /* \"#utility.yul\":5961:5962   */\n      0x00\n        /* \"#utility.yul\":5954:6042   */\n      mstore\n        /* \"#utility.yul\":6061:6065   */\n      0x11\n        /* \"#utility.yul\":6058:6059   */\n      0x04\n        /* \"#utility.yul\":6051:6066   */\n      mstore\n        /* \"#utility.yul\":6085:6089   */\n      0x24\n        /* \"#utility.yul\":6082:6083   */\n      0x00\n        /* \"#utility.yul\":6075:6090   */\n      revert\n        /* \"#utility.yul\":6102:6512   */\n    tag_40:\n        /* \"#utility.yul\":6142:6149   */\n      0x00\n        /* \"#utility.yul\":6165:6185   */\n      tag_158\n        /* \"#utility.yul\":6183:6184   */\n      dup3\n        /* \"#utility.yul\":6165:6185   */\n      tag_83\n      jump\t// in\n    tag_158:\n        /* \"#utility.yul\":6160:6185   */\n      swap2\n      pop\n        /* \"#utility.yul\":6199:6219   */\n      tag_159\n        /* \"#utility.yul\":6217:6218   */\n      dup4\n        /* \"#utility.yul\":6199:6219   */\n      tag_83\n      jump\t// in\n    tag_159:\n        /* \"#utility.yul\":6194:6219   */\n      swap3\n      pop\n        /* \"#utility.yul\":6254:6255   */\n      dup3\n        /* \"#utility.yul\":6251:6252   */\n      dup3\n        /* \"#utility.yul\":6247:6256   */\n      mul\n        /* \"#utility.yul\":6276:6306   */\n      tag_160\n        /* \"#utility.yul\":6294:6305   */\n      dup2\n        /* \"#utility.yul\":6276:6306   */\n      tag_83\n      jump\t// in\n    tag_160:\n        /* \"#utility.yul\":6265:6306   */\n      swap2\n      pop\n        /* \"#utility.yul\":6455:6456   */\n      dup3\n        /* \"#utility.yul\":6446:6453   */\n      dup3\n        /* \"#utility.yul\":6442:6457   */\n      div\n        /* \"#utility.yul\":6439:6440   */\n      dup5\n        /* \"#utility.yul\":6436:6458   */\n      eq\n        /* \"#utility.yul\":6416:6417   */\n      dup4\n        /* \"#utility.yul\":6409:6418   */\n      iszero\n        /* \"#utility.yul\":6389:6472   */\n      or\n        /* \"#utility.yul\":6366:6505   */\n      tag_161\n      jumpi\n        /* \"#utility.yul\":6485:6503   */\n      tag_162\n      tag_92\n      jump\t// in\n    tag_162:\n        /* \"#utility.yul\":6366:6505   */\n    tag_161:\n        /* \"#utility.yul\":6150:6512   */\n      pop\n        /* \"#utility.yul\":6102:6512   */\n      swap3\n      swap2\n      pop\n      pop\n      jump\t// out\n        /* \"#utility.yul\":6518:6698   */\n    tag_93:\n        /* \"#utility.yul\":6566:6643   */\n      0x4e487b7100000000000000000000000000000000000000000000000000000000\n        /* \"#utility.yul\":6563:6564   */\n      0x00\n        /* \"#utility.yul\":6556:6644   */\n      mstore\n        /* \"#utility.yul\":6663:6667   */\n      0x12\n        /* \"#utility.yul\":6660:6661   */\n      0x04\n        /* \"#utility.yul\":6653:6668   */\n      mstore\n        /* \"#utility.yul\":6687:6691   */\n      0x24\n        /* \"#utility.yul\":6684:6685   */\n      0x00\n        /* \"#utility.yul\":6677:6692   */\n      revert\n        /* \"#utility.yul\":6704:6889   */\n    tag_42:\n        /* \"#utility.yul\":6744:6745   */\n      0x00\n        /* \"#utility.yul\":6761:6781   */\n      tag_165\n        /* \"#utility.yul\":6779:6780   */\n      dup3\n        /* \"#utility.yul\":6761:6781   */\n      tag_83\n      jump\t// in\n    tag_165:\n        /* \"#utility.yul\":6756:6781   */\n      swap2\n      pop\n        /* \"#utility.yul\":6795:6815   */\n      tag_166\n        /* \"#utility.yul\":6813:6814   */\n      dup4\n        /* \"#utility.yul\":6795:6815   */\n      tag_83\n      jump\t// in\n    tag_166:\n        /* \"#utility.yul\":6790:6815   */\n      swap3\n      pop\n        /* \"#utility.yul\":6834:6835   */\n      dup3\n        /* \"#utility.yul\":6824:6859   */\n      tag_167\n      jumpi\n        /* \"#utility.yul\":6839:6857   */\n      tag_168\n      tag_93\n      jump\t// in\n    tag_168:\n        /* \"#utility.yul\":6824:6859   */\n    tag_167:\n        /* \"#utility.yul\":6881:6882   */\n      dup3\n        /* \"#utility.yul\":6878:6879   */\n      dup3\n        /* \"#utility.yul\":6874:6883   */\n      div\n        /* \"#utility.yul\":6869:6883   */\n      swap1\n      pop\n        /* \"#utility.yul\":6704:6889   */\n      swap3\n      swap2\n      pop\n      pop\n      jump\t// out\n        /* \"#utility.yul\":6895:7061   */\n    tag_94:\n        /* \"#utility.yul\":7035:7053   */\n      0x6e6f7420656e6f756768206d6f6e657900000000000000000000000000000000\n        /* \"#utility.yul\":7031:7032   */\n      0x00\n        /* \"#utility.yul\":7023:7029   */\n      dup3\n        /* \"#utility.yul\":7019:7033   */\n      add\n        /* \"#utility.yul\":7012:7054   */\n      mstore\n        /* \"#utility.yul\":6895:7061   */\n      pop\n      jump\t// out\n        /* \"#utility.yul\":7067:7433   */\n    tag_95:\n        /* \"#utility.yul\":7209:7212   */\n      0x00\n        /* \"#utility.yul\":7230:7297   */\n      tag_171\n        /* \"#utility.yul\":7294:7296   */\n      0x10\n        /* \"#utility.yul\":7289:7292   */\n      dup4\n        /* \"#utility.yul\":7230:7297   */\n      tag_89\n      jump\t// in\n    tag_171:\n        /* \"#utility.yul\":7223:7297   */\n      swap2\n      pop\n        /* \"#utility.yul\":7306:7399   */\n      tag_172\n        /* \"#utility.yul\":7395:7398   */\n      dup3\n        /* \"#utility.yul\":7306:7399   */\n      tag_94\n      jump\t// in\n    tag_172:\n        /* \"#utility.yul\":7424:7426   */\n      0x20\n        /* \"#utility.yul\":7419:7422   */\n      dup3\n        /* \"#utility.yul\":7415:7427   */\n      add\n        /* \"#utility.yul\":7408:7427   */\n      swap1\n      pop\n        /* \"#utility.yul\":7067:7433   */\n      swap2\n      swap1\n      pop\n      jump\t// out\n        /* \"#utility.yul\":7439:7858   */\n    tag_53:\n        /* \"#utility.yul\":7605:7609   */\n      0x00\n        /* \"#utility.yul\":7643:7645   */\n      0x20\n        /* \"#utility.yul\":7632:7641   */\n      dup3\n        /* \"#utility.yul\":7628:7646   */\n      add\n        /* \"#utility.yul\":7620:7646   */\n      swap1\n      pop\n        /* \"#utility.yul\":7692:7701   */\n      dup2\n        /* \"#utility.yul\":7686:7690   */\n      dup2\n        /* \"#utility.yul\":7682:7702   */\n      sub\n        /* \"#utility.yul\":7678:7679   */\n      0x00\n        /* \"#utility.yul\":7667:7676   */\n      dup4\n        /* \"#utility.yul\":7663:7680   */\n      add\n        /* \"#utility.yul\":7656:7703   */\n      mstore\n        /* \"#utility.yul\":7720:7851   */\n      tag_174\n        /* \"#utility.yul\":7846:7850   */\n      dup2\n        /* \"#utility.yul\":7720:7851   */\n      tag_95\n      jump\t// in\n    tag_174:\n        /* \"#utility.yul\":7712:7851   */\n      swap1\n      pop\n        /* \"#utility.yul\":7439:7858   */\n      swap2\n      swap1\n      pop\n      jump\t// out\n        /* \"#utility.yul\":7864:8058   */\n    tag_58:\n        /* \"#utility.yul\":7904:7908   */\n      0x00\n        /* \"#utility.yul\":7924:7944   */\n      tag_176\n        /* \"#utility.yul\":7942:7943   */\n      dup3\n        /* \"#utility.yul\":7924:7944   */\n      tag_83\n      jump\t// in\n    tag_176:\n        /* \"#utility.yul\":7919:7944   */\n      swap2\n      pop\n        /* \"#utility.yul\":7958:7978   */\n      tag_177\n        /* \"#utility.yul\":7976:7977   */\n      dup4\n        /* \"#utility.yul\":7958:7978   */\n      tag_83\n      jump\t// in\n    tag_177:\n        /* \"#utility.yul\":7953:7978   */\n      swap3\n      pop\n        /* \"#utility.yul\":8002:8003   */\n      dup3\n        /* \"#utility.yul\":7999:8000   */\n      dup3\n        /* \"#utility.yul\":7995:8004   */\n      sub\n        /* \"#utility.yul\":7987:8004   */\n      swap1\n      pop\n        /* \"#utility.yul\":8026:8027   */\n      dup2\n        /* \"#utility.yul\":8020:8024   */\n      dup2\n        /* \"#utility.yul\":8017:8028   */\n      gt\n        /* \"#utility.yul\":8014:8051   */\n      iszero\n      tag_178\n      jumpi\n        /* \"#utility.yul\":8031:8049   */\n      tag_179\n      tag_92\n      jump\t// in\n    tag_179:\n        /* \"#utility.yul\":8014:8051   */\n    tag_178:\n        /* \"#utility.yul\":7864:8058   */\n      swap3\n      swap2\n      pop\n      pop\n      jump\t// out\n        /* \"#utility.yul\":8064:8225   */\n    tag_96:\n        /* \"#utility.yul\":8204:8217   */\n      0x6e65656420746f20706179000000000000000000000000000000000000000000\n        /* \"#utility.yul\":8200:8201   */\n      0x00\n        /* \"#utility.yul\":8192:8198   */\n      dup3\n        /* \"#utility.yul\":8188:8202   */\n      add\n        /* \"#utility.yul\":8181:8218   */\n      mstore\n        /* \"#utility.yul\":8064:8225   */\n      pop\n      jump\t// out\n        /* \"#utility.yul\":8231:8597   */\n    tag_97:\n        /* \"#utility.yul\":8373:8376   */\n      0x00\n        /* \"#utility.yul\":8394:8461   */\n      tag_182\n        /* \"#utility.yul\":8458:8460   */\n      0x0b\n        /* \"#utility.yul\":8453:8456   */\n      dup4\n        /* \"#utility.yul\":8394:8461   */\n      tag_89\n      jump\t// in\n    tag_182:\n        /* \"#utility.yul\":8387:8461   */\n      swap2\n      pop\n        /* \"#utility.yul\":8470:8563   */\n      tag_183\n        /* \"#utility.yul\":8559:8562   */\n      dup3\n        /* \"#utility.yul\":8470:8563   */\n      tag_96\n      jump\t// in\n    tag_183:\n        /* \"#utility.yul\":8588:8590   */\n      0x20\n        /* \"#utility.yul\":8583:8586   */\n      dup3\n        /* \"#utility.yul\":8579:8591   */\n      add\n        /* \"#utility.yul\":8572:8591   */\n      swap1\n      pop\n        /* \"#utility.yul\":8231:8597   */\n      swap2\n      swap1\n      pop\n      jump\t// out\n        /* \"#utility.yul\":8603:9022   */\n    tag_68:\n        /* \"#utility.yul\":8769:8773   */\n      0x00\n        /* \"#utility.yul\":8807:8809   */\n      0x20\n        /* \"#utility.yul\":8796:8805   */\n      dup3\n        /* \"#utility.yul\":8792:8810   */\n      add\n        /* \"#utility.yul\":8784:8810   */\n      swap1\n      pop\n        /* \"#utility.yul\":8856:8865   */\n      dup2\n        /* \"#utility.yul\":8850:8854   */\n      dup2\n        /* \"#utility.yul\":8846:8866   */\n      sub\n        /* \"#utility.yul\":8842:8843   */\n      0x00\n        /* \"#utility.yul\":8831:8840   */\n      dup4\n        /* \"#utility.yul\":8827:8844   */\n      add\n        /* \"#utility.yul\":8820:8867   */\n      mstore\n        /* \"#utility.yul\":8884:9015   */\n      tag_185\n        /* \"#utility.yul\":9010:9014   */\n      dup2\n        /* \"#utility.yul\":8884:9015   */\n      tag_97\n      jump\t// in\n    tag_185:\n        /* \"#utility.yul\":8876:9015   */\n      swap1\n      pop\n        /* \"#utility.yul\":8603:9022   */\n      swap2\n      swap1\n      pop\n      jump\t// out\n\n    auxdata: 0xa26469706673582212208bb1cb91c1829cc390689f3e3ee691452f9cacd13d9b1a687f89a8265208509364736f6c634300081a0033\n}\n",
				"bytecode": {
					"linkReferences": {},
					"object": "6080604052348015600e575f80fd5b506108ef8061001c5f395ff3fe608060405260043610610033575f3560e01c8063237a4d51146100375780639ca3c29c146100535780639d4ff8ad1461008f575b5f80fd5b610051600480360381019061004c9190610566565b6100b7565b005b34801561005e575f80fd5b5061007960048036038101906100749190610566565b61031c565b60405161008691906105c5565b60405180910390f35b34801561009a575f80fd5b506100b560048036038101906100b09190610566565b610395565b005b5f80826040516100c79190610630565b90815260200160405180910390205403610116576040517f08c379a000000000000000000000000000000000000000000000000000000000815260040161010d906106a0565b60405180910390fd5b5f805f5b835181101561021d57603060f81b7effffffffffffffffffffffffffffffffffffffffffffffffffffffffffffff191684828151811061015d5761015c6106be565b5b602001015160f81c60f81b7effffffffffffffffffffffffffffffffffffffffffffffffffffffffffffff1916101580156101fd5750603960f81b7effffffffffffffffffffffffffffffffffffffffffffffffffffffffffffff19168482815181106101cd576101cc6106be565b5b602001015160f81c60f81b7effffffffffffffffffffffffffffffffffffffffffffffffffffffffffffff191611155b1561020b5760019250610210565b600191505b808060010191505061011a565b505f6102288461031c565b9050828015610235575081155b1561025a5760646050826102499190610718565b6102539190610786565b9050610287565b821580156102655750815b156102865760646032826102799190610718565b6102839190610786565b90505b5b5f81036102b3575f8460405161029d9190610630565b90815260200160405180910390205f9055610316565b8034146102f5576040517f08c379a00000000000000000000000000000000000000000000000000000000081526004016102ec90610800565b60405180910390fd5b5f846040516103049190610630565b90815260200160405180910390205f90555b50505050565b5f805f8360405161032d9190610630565b90815260200160405180910390205442610347919061081e565b90505f611c2090505f603c60c88385610360919061081e565b61036a9190610718565b6103749190610786565b905081831015610389575f9350505050610390565b8093505050505b919050565b5f80826040516103a59190610630565b908152602001604051809103902054146103f4576040517f08c379a00000000000000000000000000000000000000000000000000000000081526004016103eb9061089b565b60405180910390fd5b425f826040516104049190610630565b90815260200160405180910390208190555050565b5f604051905090565b5f80fd5b5f80fd5b5f80fd5b5f80fd5b5f601f19601f8301169050919050565b7f4e487b71000000000000000000000000000000000000000000000000000000005f52604160045260245ffd5b61047882610432565b810181811067ffffffffffffffff8211171561049757610496610442565b5b80604052505050565b5f6104a9610419565b90506104b5828261046f565b919050565b5f67ffffffffffffffff8211156104d4576104d3610442565b5b6104dd82610432565b9050602081019050919050565b828183375f83830152505050565b5f61050a610505846104ba565b6104a0565b9050828152602081018484840111156105265761052561042e565b5b6105318482856104ea565b509392505050565b5f82601f83011261054d5761054c61042a565b5b813561055d8482602086016104f8565b91505092915050565b5f6020828403121561057b5761057a610422565b5b5f82013567ffffffffffffffff81111561059857610597610426565b5b6105a484828501610539565b91505092915050565b5f819050919050565b6105bf816105ad565b82525050565b5f6020820190506105d85f8301846105b6565b92915050565b5f81519050919050565b5f81905092915050565b8281835e5f83830152505050565b5f61060a826105de565b61061481856105e8565b93506106248185602086016105f2565b80840191505092915050565b5f61063b8284610600565b915081905092915050565b5f82825260208201905092915050565b7f6469646e277420656e74657220796574000000000000000000000000000000005f82015250565b5f61068a601083610646565b915061069582610656565b602082019050919050565b5f6020820190508181035f8301526106b78161067e565b9050919050565b7f4e487b71000000000000000000000000000000000000000000000000000000005f52603260045260245ffd5b7f4e487b71000000000000000000000000000000000000000000000000000000005f52601160045260245ffd5b5f610722826105ad565b915061072d836105ad565b925082820261073b816105ad565b91508282048414831517610752576107516106eb565b5b5092915050565b7f4e487b71000000000000000000000000000000000000000000000000000000005f52601260045260245ffd5b5f610790826105ad565b915061079b836105ad565b9250826107ab576107aa610759565b5b828204905092915050565b7f6e6f7420656e6f756768206d6f6e6579000000000000000000000000000000005f82015250565b5f6107ea601083610646565b91506107f5826107b6565b602082019050919050565b5f6020820190508181035f830152610817816107de565b9050919050565b5f610828826105ad565b9150610833836105ad565b925082820390508181111561084b5761084a6106eb565b5b92915050565b7f6e65656420746f207061790000000000000000000000000000000000000000005f82015250565b5f610885600b83610646565b915061089082610851565b602082019050919050565b5f6020820190508181035f8301526108b281610879565b905091905056fea26469706673582212208bb1cb91c1829cc390689f3e3ee691452f9cacd13d9b1a687f89a8265208509364736f6c634300081a0033",
					"opcodes": "PUSH1 0x80 PUSH1 0x40 MSTORE CALLVALUE DUP1 ISZERO PUSH1 0xE JUMPI PUSH0 DUP1 REVERT JUMPDEST POP PUSH2 0x8EF DUP1 PUSH2 0x1C PUSH0 CODECOPY PUSH0 RETURN INVALID PUSH1 0x80 PUSH1 0x40 MSTORE PUSH1 0x4 CALLDATASIZE LT PUSH2 0x33 JUMPI PUSH0 CALLDATALOAD PUSH1 0xE0 SHR DUP1 PUSH4 0x237A4D51 EQ PUSH2 0x37 JUMPI DUP1 PUSH4 0x9CA3C29C EQ PUSH2 0x53 JUMPI DUP1 PUSH4 0x9D4FF8AD EQ PUSH2 0x8F JUMPI JUMPDEST PUSH0 DUP1 REVERT JUMPDEST PUSH2 0x51 PUSH1 0x4 DUP1 CALLDATASIZE SUB DUP2 ADD SWAP1 PUSH2 0x4C SWAP2 SWAP1 PUSH2 0x566 JUMP JUMPDEST PUSH2 0xB7 JUMP JUMPDEST STOP JUMPDEST CALLVALUE DUP1 ISZERO PUSH2 0x5E JUMPI PUSH0 DUP1 REVERT JUMPDEST POP PUSH2 0x79 PUSH1 0x4 DUP1 CALLDATASIZE SUB DUP2 ADD SWAP1 PUSH2 0x74 SWAP2 SWAP1 PUSH2 0x566 JUMP JUMPDEST PUSH2 0x31C JUMP JUMPDEST PUSH1 0x40 MLOAD PUSH2 0x86 SWAP2 SWAP1 PUSH2 0x5C5 JUMP JUMPDEST PUSH1 0x40 MLOAD DUP1 SWAP2 SUB SWAP1 RETURN JUMPDEST CALLVALUE DUP1 ISZERO PUSH2 0x9A JUMPI PUSH0 DUP1 REVERT JUMPDEST POP PUSH2 0xB5 PUSH1 0x4 DUP1 CALLDATASIZE SUB DUP2 ADD SWAP1 PUSH2 0xB0 SWAP2 SWAP1 PUSH2 0x566 JUMP JUMPDEST PUSH2 0x395 JUMP JUMPDEST STOP JUMPDEST PUSH0 DUP1 DUP3 PUSH1 0x40 MLOAD PUSH2 0xC7 SWAP2 SWAP1 PUSH2 0x630 JUMP JUMPDEST SWAP1 DUP2 MSTORE PUSH1 0x20 ADD PUSH1 0x40 MLOAD DUP1 SWAP2 SUB SWAP1 KECCAK256 SLOAD SUB PUSH2 0x116 JUMPI PUSH1 0x40 MLOAD PUSH32 0x8C379A000000000000000000000000000000000000000000000000000000000 DUP2 MSTORE PUSH1 0x4 ADD PUSH2 0x10D SWAP1 PUSH2 0x6A0 JUMP JUMPDEST PUSH1 0x40 MLOAD DUP1 SWAP2 SUB SWAP1 REVERT JUMPDEST PUSH0 DUP1 PUSH0 JUMPDEST DUP4 MLOAD DUP2 LT ISZERO PUSH2 0x21D JUMPI PUSH1 0x30 PUSH1 0xF8 SHL PUSH31 0xFFFFFFFFFFFFFFFFFFFFFFFFFFFFFFFFFFFFFFFFFFFFFFFFFFFFFFFFFFFFFF NOT AND DUP5 DUP3 DUP2 MLOAD DUP2 LT PUSH2 0x15D JUMPI PUSH2 0x15C PUSH2 0x6BE JUMP JUMPDEST JUMPDEST PUSH1 0x20 ADD ADD MLOAD PUSH1 0xF8 SHR PUSH1 0xF8 SHL PUSH31 0xFFFFFFFFFFFFFFFFFFFFFFFFFFFFFFFFFFFFFFFFFFFFFFFFFFFFFFFFFFFFFF NOT AND LT ISZERO DUP1 ISZERO PUSH2 0x1FD JUMPI POP PUSH1 0x39 PUSH1 0xF8 SHL PUSH31 0xFFFFFFFFFFFFFFFFFFFFFFFFFFFFFFFFFFFFFFFFFFFFFFFFFFFFFFFFFFFFFF NOT AND DUP5 DUP3 DUP2 MLOAD DUP2 LT PUSH2 0x1CD JUMPI PUSH2 0x1CC PUSH2 0x6BE JUMP JUMPDEST JUMPDEST PUSH1 0x20 ADD ADD MLOAD PUSH1 0xF8 SHR PUSH1 0xF8 SHL PUSH31 0xFFFFFFFFFFFFFFFFFFFFFFFFFFFFFFFFFFFFFFFFFFFFFFFFFFFFFFFFFFFFFF NOT AND GT ISZERO JUMPDEST ISZERO PUSH2 0x20B JUMPI PUSH1 0x1 SWAP3 POP PUSH2 0x210 JUMP JUMPDEST PUSH1 0x1 SWAP2 POP JUMPDEST DUP1 DUP1 PUSH1 0x1 ADD SWAP2 POP POP PUSH2 0x11A JUMP JUMPDEST POP PUSH0 PUSH2 0x228 DUP5 PUSH2 0x31C JUMP JUMPDEST SWAP1 POP DUP3 DUP1 ISZERO PUSH2 0x235 JUMPI POP DUP2 ISZERO JUMPDEST ISZERO PUSH2 0x25A JUMPI PUSH1 0x64 PUSH1 0x50 DUP3 PUSH2 0x249 SWAP2 SWAP1 PUSH2 0x718 JUMP JUMPDEST PUSH2 0x253 SWAP2 SWAP1 PUSH2 0x786 JUMP JUMPDEST SWAP1 POP PUSH2 0x287 JUMP JUMPDEST DUP3 ISZERO DUP1 ISZERO PUSH2 0x265 JUMPI POP DUP2 JUMPDEST ISZERO PUSH2 0x286 JUMPI PUSH1 0x64 PUSH1 0x32 DUP3 PUSH2 0x279 SWAP2 SWAP1 PUSH2 0x718 JUMP JUMPDEST PUSH2 0x283 SWAP2 SWAP1 PUSH2 0x786 JUMP JUMPDEST SWAP1 POP JUMPDEST JUMPDEST PUSH0 DUP2 SUB PUSH2 0x2B3 JUMPI PUSH0 DUP5 PUSH1 0x40 MLOAD PUSH2 0x29D SWAP2 SWAP1 PUSH2 0x630 JUMP JUMPDEST SWAP1 DUP2 MSTORE PUSH1 0x20 ADD PUSH1 0x40 MLOAD DUP1 SWAP2 SUB SWAP1 KECCAK256 PUSH0 SWAP1 SSTORE PUSH2 0x316 JUMP JUMPDEST DUP1 CALLVALUE EQ PUSH2 0x2F5 JUMPI PUSH1 0x40 MLOAD PUSH32 0x8C379A000000000000000000000000000000000000000000000000000000000 DUP2 MSTORE PUSH1 0x4 ADD PUSH2 0x2EC SWAP1 PUSH2 0x800 JUMP JUMPDEST PUSH1 0x40 MLOAD DUP1 SWAP2 SUB SWAP1 REVERT JUMPDEST PUSH0 DUP5 PUSH1 0x40 MLOAD PUSH2 0x304 SWAP2 SWAP1 PUSH2 0x630 JUMP JUMPDEST SWAP1 DUP2 MSTORE PUSH1 0x20 ADD PUSH1 0x40 MLOAD DUP1 SWAP2 SUB SWAP1 KECCAK256 PUSH0 SWAP1 SSTORE JUMPDEST POP POP POP POP JUMP JUMPDEST PUSH0 DUP1 PUSH0 DUP4 PUSH1 0x40 MLOAD PUSH2 0x32D SWAP2 SWAP1 PUSH2 0x630 JUMP JUMPDEST SWAP1 DUP2 MSTORE PUSH1 0x20 ADD PUSH1 0x40 MLOAD DUP1 SWAP2 SUB SWAP1 KECCAK256 SLOAD TIMESTAMP PUSH2 0x347 SWAP2 SWAP1 PUSH2 0x81E JUMP JUMPDEST SWAP1 POP PUSH0 PUSH2 0x1C20 SWAP1 POP PUSH0 PUSH1 0x3C PUSH1 0xC8 DUP4 DUP6 PUSH2 0x360 SWAP2 SWAP1 PUSH2 0x81E JUMP JUMPDEST PUSH2 0x36A SWAP2 SWAP1 PUSH2 0x718 JUMP JUMPDEST PUSH2 0x374 SWAP2 SWAP1 PUSH2 0x786 JUMP JUMPDEST SWAP1 POP DUP2 DUP4 LT ISZERO PUSH2 0x389 JUMPI PUSH0 SWAP4 POP POP POP POP PUSH2 0x390 JUMP JUMPDEST DUP1 SWAP4 POP POP POP POP JUMPDEST SWAP2 SWAP1 POP JUMP JUMPDEST PUSH0 DUP1 DUP3 PUSH1 0x40 MLOAD PUSH2 0x3A5 SWAP2 SWAP1 PUSH2 0x630 JUMP JUMPDEST SWAP1 DUP2 MSTORE PUSH1 0x20 ADD PUSH1 0x40 MLOAD DUP1 SWAP2 SUB SWAP1 KECCAK256 SLOAD EQ PUSH2 0x3F4 JUMPI PUSH1 0x40 MLOAD PUSH32 0x8C379A000000000000000000000000000000000000000000000000000000000 DUP2 MSTORE PUSH1 0x4 ADD PUSH2 0x3EB SWAP1 PUSH2 0x89B JUMP JUMPDEST PUSH1 0x40 MLOAD DUP1 SWAP2 SUB SWAP1 REVERT JUMPDEST TIMESTAMP PUSH0 DUP3 PUSH1 0x40 MLOAD PUSH2 0x404 SWAP2 SWAP1 PUSH2 0x630 JUMP JUMPDEST SWAP1 DUP2 MSTORE PUSH1 0x20 ADD PUSH1 0x40 MLOAD DUP1 SWAP2 SUB SWAP1 KECCAK256 DUP2 SWAP1 SSTORE POP POP JUMP JUMPDEST PUSH0 PUSH1 0x40 MLOAD SWAP1 POP SWAP1 JUMP JUMPDEST PUSH0 DUP1 REVERT JUMPDEST PUSH0 DUP1 REVERT JUMPDEST PUSH0 DUP1 REVERT JUMPDEST PUSH0 DUP1 REVERT JUMPDEST PUSH0 PUSH1 0x1F NOT PUSH1 0x1F DUP4 ADD AND SWAP1 POP SWAP2 SWAP1 POP JUMP JUMPDEST PUSH32 0x4E487B7100000000000000000000000000000000000000000000000000000000 PUSH0 MSTORE PUSH1 0x41 PUSH1 0x4 MSTORE PUSH1 0x24 PUSH0 REVERT JUMPDEST PUSH2 0x478 DUP3 PUSH2 0x432 JUMP JUMPDEST DUP2 ADD DUP2 DUP2 LT PUSH8 0xFFFFFFFFFFFFFFFF DUP3 GT OR ISZERO PUSH2 0x497 JUMPI PUSH2 0x496 PUSH2 0x442 JUMP JUMPDEST JUMPDEST DUP1 PUSH1 0x40 MSTORE POP POP POP JUMP JUMPDEST PUSH0 PUSH2 0x4A9 PUSH2 0x419 JUMP JUMPDEST SWAP1 POP PUSH2 0x4B5 DUP3 DUP3 PUSH2 0x46F JUMP JUMPDEST SWAP2 SWAP1 POP JUMP JUMPDEST PUSH0 PUSH8 0xFFFFFFFFFFFFFFFF DUP3 GT ISZERO PUSH2 0x4D4 JUMPI PUSH2 0x4D3 PUSH2 0x442 JUMP JUMPDEST JUMPDEST PUSH2 0x4DD DUP3 PUSH2 0x432 JUMP JUMPDEST SWAP1 POP PUSH1 0x20 DUP2 ADD SWAP1 POP SWAP2 SWAP1 POP JUMP JUMPDEST DUP3 DUP2 DUP4 CALLDATACOPY PUSH0 DUP4 DUP4 ADD MSTORE POP POP POP JUMP JUMPDEST PUSH0 PUSH2 0x50A PUSH2 0x505 DUP5 PUSH2 0x4BA JUMP JUMPDEST PUSH2 0x4A0 JUMP JUMPDEST SWAP1 POP DUP3 DUP2 MSTORE PUSH1 0x20 DUP2 ADD DUP5 DUP5 DUP5 ADD GT ISZERO PUSH2 0x526 JUMPI PUSH2 0x525 PUSH2 0x42E JUMP JUMPDEST JUMPDEST PUSH2 0x531 DUP5 DUP3 DUP6 PUSH2 0x4EA JUMP JUMPDEST POP SWAP4 SWAP3 POP POP POP JUMP JUMPDEST PUSH0 DUP3 PUSH1 0x1F DUP4 ADD SLT PUSH2 0x54D JUMPI PUSH2 0x54C PUSH2 0x42A JUMP JUMPDEST JUMPDEST DUP2 CALLDATALOAD PUSH2 0x55D DUP5 DUP3 PUSH1 0x20 DUP7 ADD PUSH2 0x4F8 JUMP JUMPDEST SWAP2 POP POP SWAP3 SWAP2 POP POP JUMP JUMPDEST PUSH0 PUSH1 0x20 DUP3 DUP5 SUB SLT ISZERO PUSH2 0x57B JUMPI PUSH2 0x57A PUSH2 0x422 JUMP JUMPDEST JUMPDEST PUSH0 DUP3 ADD CALLDATALOAD PUSH8 0xFFFFFFFFFFFFFFFF DUP2 GT ISZERO PUSH2 0x598 JUMPI PUSH2 0x597 PUSH2 0x426 JUMP JUMPDEST JUMPDEST PUSH2 0x5A4 DUP5 DUP3 DUP6 ADD PUSH2 0x539 JUMP JUMPDEST SWAP2 POP POP SWAP3 SWAP2 POP POP JUMP JUMPDEST PUSH0 DUP2 SWAP1 POP SWAP2 SWAP1 POP JUMP JUMPDEST PUSH2 0x5BF DUP2 PUSH2 0x5AD JUMP JUMPDEST DUP3 MSTORE POP POP JUMP JUMPDEST PUSH0 PUSH1 0x20 DUP3 ADD SWAP1 POP PUSH2 0x5D8 PUSH0 DUP4 ADD DUP5 PUSH2 0x5B6 JUMP JUMPDEST SWAP3 SWAP2 POP POP JUMP JUMPDEST PUSH0 DUP2 MLOAD SWAP1 POP SWAP2 SWAP1 POP JUMP JUMPDEST PUSH0 DUP2 SWAP1 POP SWAP3 SWAP2 POP POP JUMP JUMPDEST DUP3 DUP2 DUP4 MCOPY PUSH0 DUP4 DUP4 ADD MSTORE POP POP POP JUMP JUMPDEST PUSH0 PUSH2 0x60A DUP3 PUSH2 0x5DE JUMP JUMPDEST PUSH2 0x614 DUP2 DUP6 PUSH2 0x5E8 JUMP JUMPDEST SWAP4 POP PUSH2 0x624 DUP2 DUP6 PUSH1 0x20 DUP7 ADD PUSH2 0x5F2 JUMP JUMPDEST DUP1 DUP5 ADD SWAP2 POP POP SWAP3 SWAP2 POP POP JUMP JUMPDEST PUSH0 PUSH2 0x63B DUP3 DUP5 PUSH2 0x600 JUMP JUMPDEST SWAP2 POP DUP2 SWAP1 POP SWAP3 SWAP2 POP POP JUMP JUMPDEST PUSH0 DUP3 DUP3 MSTORE PUSH1 0x20 DUP3 ADD SWAP1 POP SWAP3 SWAP2 POP POP JUMP JUMPDEST PUSH32 0x6469646E277420656E7465722079657400000000000000000000000000000000 PUSH0 DUP3 ADD MSTORE POP JUMP JUMPDEST PUSH0 PUSH2 0x68A PUSH1 0x10 DUP4 PUSH2 0x646 JUMP JUMPDEST SWAP2 POP PUSH2 0x695 DUP3 PUSH2 0x656 JUMP JUMPDEST PUSH1 0x20 DUP3 ADD SWAP1 POP SWAP2 SWAP1 POP JUMP JUMPDEST PUSH0 PUSH1 0x20 DUP3 ADD SWAP1 POP DUP2 DUP2 SUB PUSH0 DUP4 ADD MSTORE PUSH2 0x6B7 DUP2 PUSH2 0x67E JUMP JUMPDEST SWAP1 POP SWAP2 SWAP1 POP JUMP JUMPDEST PUSH32 0x4E487B7100000000000000000000000000000000000000000000000000000000 PUSH0 MSTORE PUSH1 0x32 PUSH1 0x4 MSTORE PUSH1 0x24 PUSH0 REVERT JUMPDEST PUSH32 0x4E487B7100000000000000000000000000000000000000000000000000000000 PUSH0 MSTORE PUSH1 0x11 PUSH1 0x4 MSTORE PUSH1 0x24 PUSH0 REVERT JUMPDEST PUSH0 PUSH2 0x722 DUP3 PUSH2 0x5AD JUMP JUMPDEST SWAP2 POP PUSH2 0x72D DUP4 PUSH2 0x5AD JUMP JUMPDEST SWAP3 POP DUP3 DUP3 MUL PUSH2 0x73B DUP2 PUSH2 0x5AD JUMP JUMPDEST SWAP2 POP DUP3 DUP3 DIV DUP5 EQ DUP4 ISZERO OR PUSH2 0x752 JUMPI PUSH2 0x751 PUSH2 0x6EB JUMP JUMPDEST JUMPDEST POP SWAP3 SWAP2 POP POP JUMP JUMPDEST PUSH32 0x4E487B7100000000000000000000000000000000000000000000000000000000 PUSH0 MSTORE PUSH1 0x12 PUSH1 0x4 MSTORE PUSH1 0x24 PUSH0 REVERT JUMPDEST PUSH0 PUSH2 0x790 DUP3 PUSH2 0x5AD JUMP JUMPDEST SWAP2 POP PUSH2 0x79B DUP4 PUSH2 0x5AD JUMP JUMPDEST SWAP3 POP DUP3 PUSH2 0x7AB JUMPI PUSH2 0x7AA PUSH2 0x759 JUMP JUMPDEST JUMPDEST DUP3 DUP3 DIV SWAP1 POP SWAP3 SWAP2 POP POP JUMP JUMPDEST PUSH32 0x6E6F7420656E6F756768206D6F6E657900000000000000000000000000000000 PUSH0 DUP3 ADD MSTORE POP JUMP JUMPDEST PUSH0 PUSH2 0x7EA PUSH1 0x10 DUP4 PUSH2 0x646 JUMP JUMPDEST SWAP2 POP PUSH2 0x7F5 DUP3 PUSH2 0x7B6 JUMP JUMPDEST PUSH1 0x20 DUP3 ADD SWAP1 POP SWAP2 SWAP1 POP JUMP JUMPDEST PUSH0 PUSH1 0x20 DUP3 ADD SWAP1 POP DUP2 DUP2 SUB PUSH0 DUP4 ADD MSTORE PUSH2 0x817 DUP2 PUSH2 0x7DE JUMP JUMPDEST SWAP1 POP SWAP2 SWAP1 POP JUMP JUMPDEST PUSH0 PUSH2 0x828 DUP3 PUSH2 0x5AD JUMP JUMPDEST SWAP2 POP PUSH2 0x833 DUP4 PUSH2 0x5AD JUMP JUMPDEST SWAP3 POP DUP3 DUP3 SUB SWAP1 POP DUP2 DUP2 GT ISZERO PUSH2 0x84B JUMPI PUSH2 0x84A PUSH2 0x6EB JUMP JUMPDEST JUMPDEST SWAP3 SWAP2 POP POP JUMP JUMPDEST PUSH32 0x6E65656420746F20706179000000000000000000000000000000000000000000 PUSH0 DUP3 ADD MSTORE POP JUMP JUMPDEST PUSH0 PUSH2 0x885 PUSH1 0xB DUP4 PUSH2 0x646 JUMP JUMPDEST SWAP2 POP PUSH2 0x890 DUP3 PUSH2 0x851 JUMP JUMPDEST PUSH1 0x20 DUP3 ADD SWAP1 POP SWAP2 SWAP1 POP JUMP JUMPDEST PUSH0 PUSH1 0x20 DUP3 ADD SWAP1 POP DUP2 DUP2 SUB PUSH0 DUP4 ADD MSTORE PUSH2 0x8B2 DUP2 PUSH2 0x879 JUMP JUMPDEST SWAP1 POP SWAP2 SWAP1 POP JUMP INVALID LOG2 PUSH5 0x6970667358 0x22 SLT KECCAK256 DUP12 0xB1 0xCB SWAP2 0xC1 DUP3 SWAP13 0xC3 SWAP1 PUSH9 0x9F3E3EE691452F9CAC 0xD1 RETURNDATASIZE SWAP12 BYTE PUSH9 0x7F89A8265208509364 PUSH20 0x6F6C634300081A00330000000000000000000000 "
				},
				"gasEstimates": {
					"creation": {
						"codeDepositCost": "457400",
						"executionCost": "491",
						"totalCost": "457891"
					},
					"external": {
						"enter(string)": "infinite",
						"getCost(string)": "infinite",
						"leave(string)": "infinite"
					}
				},
				"methodIdentifiers": {
					"enter(string)": "9d4ff8ad",
					"getCost(string)": "9ca3c29c",
					"leave(string)": "237a4d51"
				}
			},
			"storageLayout": {
				"storage": [
					{
						"astId": 5,
						"contract": "Code Test/CodeTest_12.sol:TEST12",
						"label": "car",
						"offset": 0,
						"slot": "0",
						"type": "t_mapping(t_string_memory_ptr,t_uint256)"
					}
				],
				"types": {
					"t_mapping(t_string_memory_ptr,t_uint256)": {
						"encoding": "mapping",
						"key": "t_string_memory_ptr",
						"label": "mapping(string => uint256)",
						"numberOfBytes": "32",
						"value": "t_uint256"
					},
					"t_string_memory_ptr": {
						"encoding": "bytes",
						"label": "string",
						"numberOfBytes": "32"
					},
					"t_uint256": {
						"encoding": "inplace",
						"label": "uint256",
						"numberOfBytes": "32"
					}
				}
			},
			"userdoc": {
				"kind": "user",
				"methods": {},
				"version": 1
			}
		}
	}
}