{
	"data": {
		"bytecode": {
			"linkReferences": {},
			"object": "6080604052348015600e575f80fd5b506106e68061001c5f395ff3fe608060405234801561000f575f80fd5b5060043610610086575f3560e01c806382812dda1161005957806382812dda146101265780639a9bdca714610142578063d39fa2331461015e578063fc5636581461018e57610086565b8063318aabf61461008a5780633d141712146100ba57806369c113e1146100d857806370d390cd146100f6575b5f80fd5b6100a4600480360381019061009f91906103ef565b6101be565b6040516100b19190610429565b60405180910390f35b6100c261021f565b6040516100cf9190610429565b60405180910390f35b6100e0610267565b6040516100ed9190610429565b60405180910390f35b610110600480360381019061010b91906103ef565b6102b8565b60405161011d9190610429565b60405180910390f35b610140600480360381019061013b9190610580565b6102d1565b005b61015c600480360381019061015791906103ef565b6102f7565b005b610178600480360381019061017391906103ef565b610326565b6040516101859190610429565b60405180910390f35b6101a860048036038101906101a391906103ef565b610345565b6040516101b59190610429565b60405180910390f35b5f60048210610202576040517f08c379a00000000000000000000000000000000000000000000000000000000081526004016101f990610605565b60405180910390fd5b6001826004811061021657610215610623565b5b01549050919050565b5f805f90505f5b600481101561025f576001816004811061024357610242610623565b5b015482610250919061067d565b91508080600101915050610226565b508091505090565b5f805f90505f5b5f805490508110156102b0575f818154811061028d5761028c610623565b5b905f5260205f200154826102a1919061067d565b9150808060010191505061026e565b508091505090565b600181600481106102c7575f80fd5b015f915090505481565b5f5b60048110156102f3576020810282015181600101556001810190506102d3565b5050565b5f545f80525f5b8281101561031e578060205f2001600182018155506001810190506102fe565b50815f555050565b5f8181548110610334575f80fd5b905f5260205f20015f915090505481565b5f8080549050821061038c576040517f08c379a000000000000000000000000000000000000000000000000000000000815260040161038390610605565b60405180910390fd5b5f828154811061039f5761039e610623565b5b905f5260205f2001549050919050565b5f604051905090565b5f80fd5b5f819050919050565b6103ce816103bc565b81146103d8575f80fd5b50565b5f813590506103e9816103c5565b92915050565b5f60208284031215610404576104036103b8565b5b5f610411848285016103db565b91505092915050565b610423816103bc565b82525050565b5f60208201905061043c5f83018461041a565b92915050565b5f80fd5b5f601f19601f8301169050919050565b7f4e487b71000000000000000000000000000000000000000000000000000000005f52604160045260245ffd5b61048c82610446565b810181811067ffffffffffffffff821117156104ab576104aa610456565b5b80604052505050565b5f6104bd6103af565b90506104c98282610483565b919050565b5f67ffffffffffffffff8211156104e8576104e7610456565b5b602082029050919050565b5f80fd5b5f610509610504846104ce565b6104b4565b90508060208402830185811115610523576105226104f3565b5b835b8181101561054c578061053888826103db565b845260208401935050602081019050610525565b5050509392505050565b5f82601f83011261056a57610569610442565b5b60046105778482856104f7565b91505092915050565b5f60808284031215610595576105946103b8565b5b5f6105a284828501610556565b91505092915050565b5f82825260208201905092915050565b7f496e646578206f7574206f6620626f756e6473000000000000000000000000005f82015250565b5f6105ef6013836105ab565b91506105fa826105bb565b602082019050919050565b5f6020820190508181035f83015261061c816105e3565b9050919050565b7f4e487b71000000000000000000000000000000000000000000000000000000005f52603260045260245ffd5b7f4e487b71000000000000000000000000000000000000000000000000000000005f52601160045260245ffd5b5f610687826103bc565b9150610692836103bc565b92508282019050808211156106aa576106a9610650565b5b9291505056fea2646970667358221220153c28ec00a18a348dd600b873ab95bf4ac0860f9fd89546fff81534e425197664736f6c634300081a0033",
			"opcodes": "PUSH1 0x80 PUSH1 0x40 MSTORE CALLVALUE DUP1 ISZERO PUSH1 0xE JUMPI PUSH0 DUP1 REVERT JUMPDEST POP PUSH2 0x6E6 DUP1 PUSH2 0x1C PUSH0 CODECOPY PUSH0 RETURN INVALID PUSH1 0x80 PUSH1 0x40 MSTORE CALLVALUE DUP1 ISZERO PUSH2 0xF JUMPI PUSH0 DUP1 REVERT JUMPDEST POP PUSH1 0x4 CALLDATASIZE LT PUSH2 0x86 JUMPI PUSH0 CALLDATALOAD PUSH1 0xE0 SHR DUP1 PUSH4 0x82812DDA GT PUSH2 0x59 JUMPI DUP1 PUSH4 0x82812DDA EQ PUSH2 0x126 JUMPI DUP1 PUSH4 0x9A9BDCA7 EQ PUSH2 0x142 JUMPI DUP1 PUSH4 0xD39FA233 EQ PUSH2 0x15E JUMPI DUP1 PUSH4 0xFC563658 EQ PUSH2 0x18E JUMPI PUSH2 0x86 JUMP JUMPDEST DUP1 PUSH4 0x318AABF6 EQ PUSH2 0x8A JUMPI DUP1 PUSH4 0x3D141712 EQ PUSH2 0xBA JUMPI DUP1 PUSH4 0x69C113E1 EQ PUSH2 0xD8 JUMPI DUP1 PUSH4 0x70D390CD EQ PUSH2 0xF6 JUMPI JUMPDEST PUSH0 DUP1 REVERT JUMPDEST PUSH2 0xA4 PUSH1 0x4 DUP1 CALLDATASIZE SUB DUP2 ADD SWAP1 PUSH2 0x9F SWAP2 SWAP1 PUSH2 0x3EF JUMP JUMPDEST PUSH2 0x1BE JUMP JUMPDEST PUSH1 0x40 MLOAD PUSH2 0xB1 SWAP2 SWAP1 PUSH2 0x429 JUMP JUMPDEST PUSH1 0x40 MLOAD DUP1 SWAP2 SUB SWAP1 RETURN JUMPDEST PUSH2 0xC2 PUSH2 0x21F JUMP JUMPDEST PUSH1 0x40 MLOAD PUSH2 0xCF SWAP2 SWAP1 PUSH2 0x429 JUMP JUMPDEST PUSH1 0x40 MLOAD DUP1 SWAP2 SUB SWAP1 RETURN JUMPDEST PUSH2 0xE0 PUSH2 0x267 JUMP JUMPDEST PUSH1 0x40 MLOAD PUSH2 0xED SWAP2 SWAP1 PUSH2 0x429 JUMP JUMPDEST PUSH1 0x40 MLOAD DUP1 SWAP2 SUB SWAP1 RETURN JUMPDEST PUSH2 0x110 PUSH1 0x4 DUP1 CALLDATASIZE SUB DUP2 ADD SWAP1 PUSH2 0x10B SWAP2 SWAP1 PUSH2 0x3EF JUMP JUMPDEST PUSH2 0x2B8 JUMP JUMPDEST PUSH1 0x40 MLOAD PUSH2 0x11D SWAP2 SWAP1 PUSH2 0x429 JUMP JUMPDEST PUSH1 0x40 MLOAD DUP1 SWAP2 SUB SWAP1 RETURN JUMPDEST PUSH2 0x140 PUSH1 0x4 DUP1 CALLDATASIZE SUB DUP2 ADD SWAP1 PUSH2 0x13B SWAP2 SWAP1 PUSH2 0x580 JUMP JUMPDEST PUSH2 0x2D1 JUMP JUMPDEST STOP JUMPDEST PUSH2 0x15C PUSH1 0x4 DUP1 CALLDATASIZE SUB DUP2 ADD SWAP1 PUSH2 0x157 SWAP2 SWAP1 PUSH2 0x3EF JUMP JUMPDEST PUSH2 0x2F7 JUMP JUMPDEST STOP JUMPDEST PUSH2 0x178 PUSH1 0x4 DUP1 CALLDATASIZE SUB DUP2 ADD SWAP1 PUSH2 0x173 SWAP2 SWAP1 PUSH2 0x3EF JUMP JUMPDEST PUSH2 0x326 JUMP JUMPDEST PUSH1 0x40 MLOAD PUSH2 0x185 SWAP2 SWAP1 PUSH2 0x429 JUMP JUMPDEST PUSH1 0x40 MLOAD DUP1 SWAP2 SUB SWAP1 RETURN JUMPDEST PUSH2 0x1A8 PUSH1 0x4 DUP1 CALLDATASIZE SUB DUP2 ADD SWAP1 PUSH2 0x1A3 SWAP2 SWAP1 PUSH2 0x3EF JUMP JUMPDEST PUSH2 0x345 JUMP JUMPDEST PUSH1 0x40 MLOAD PUSH2 0x1B5 SWAP2 SWAP1 PUSH2 0x429 JUMP JUMPDEST PUSH1 0x40 MLOAD DUP1 SWAP2 SUB SWAP1 RETURN JUMPDEST PUSH0 PUSH1 0x4 DUP3 LT PUSH2 0x202 JUMPI PUSH1 0x40 MLOAD PUSH32 0x8C379A000000000000000000000000000000000000000000000000000000000 DUP2 MSTORE PUSH1 0x4 ADD PUSH2 0x1F9 SWAP1 PUSH2 0x605 JUMP JUMPDEST PUSH1 0x40 MLOAD DUP1 SWAP2 SUB SWAP1 REVERT JUMPDEST PUSH1 0x1 DUP3 PUSH1 0x4 DUP2 LT PUSH2 0x216 JUMPI PUSH2 0x215 PUSH2 0x623 JUMP JUMPDEST JUMPDEST ADD SLOAD SWAP1 POP SWAP2 SWAP1 POP JUMP JUMPDEST PUSH0 DUP1 PUSH0 SWAP1 POP PUSH0 JUMPDEST PUSH1 0x4 DUP2 LT ISZERO PUSH2 0x25F JUMPI PUSH1 0x1 DUP2 PUSH1 0x4 DUP2 LT PUSH2 0x243 JUMPI PUSH2 0x242 PUSH2 0x623 JUMP JUMPDEST JUMPDEST ADD SLOAD DUP3 PUSH2 0x250 SWAP2 SWAP1 PUSH2 0x67D JUMP JUMPDEST SWAP2 POP DUP1 DUP1 PUSH1 0x1 ADD SWAP2 POP POP PUSH2 0x226 JUMP JUMPDEST POP DUP1 SWAP2 POP POP SWAP1 JUMP JUMPDEST PUSH0 DUP1 PUSH0 SWAP1 POP PUSH0 JUMPDEST PUSH0 DUP1 SLOAD SWAP1 POP DUP2 LT ISZERO PUSH2 0x2B0 JUMPI PUSH0 DUP2 DUP2 SLOAD DUP2 LT PUSH2 0x28D JUMPI PUSH2 0x28C PUSH2 0x623 JUMP JUMPDEST JUMPDEST SWAP1 PUSH0 MSTORE PUSH1 0x20 PUSH0 KECCAK256 ADD SLOAD DUP3 PUSH2 0x2A1 SWAP2 SWAP1 PUSH2 0x67D JUMP JUMPDEST SWAP2 POP DUP1 DUP1 PUSH1 0x1 ADD SWAP2 POP POP PUSH2 0x26E JUMP JUMPDEST POP DUP1 SWAP2 POP POP SWAP1 JUMP JUMPDEST PUSH1 0x1 DUP2 PUSH1 0x4 DUP2 LT PUSH2 0x2C7 JUMPI PUSH0 DUP1 REVERT JUMPDEST ADD PUSH0 SWAP2 POP SWAP1 POP SLOAD DUP2 JUMP JUMPDEST PUSH0 JUMPDEST PUSH1 0x4 DUP2 LT ISZERO PUSH2 0x2F3 JUMPI PUSH1 0x20 DUP2 MUL DUP3 ADD MLOAD DUP2 PUSH1 0x1 ADD SSTORE PUSH1 0x1 DUP2 ADD SWAP1 POP PUSH2 0x2D3 JUMP JUMPDEST POP POP JUMP JUMPDEST PUSH0 SLOAD PUSH0 DUP1 MSTORE PUSH0 JUMPDEST DUP3 DUP2 LT ISZERO PUSH2 0x31E JUMPI DUP1 PUSH1 0x20 PUSH0 KECCAK256 ADD PUSH1 0x1 DUP3 ADD DUP2 SSTORE POP PUSH1 0x1 DUP2 ADD SWAP1 POP PUSH2 0x2FE JUMP JUMPDEST POP DUP2 PUSH0 SSTORE POP POP JUMP JUMPDEST PUSH0 DUP2 DUP2 SLOAD DUP2 LT PUSH2 0x334 JUMPI PUSH0 DUP1 REVERT JUMPDEST SWAP1 PUSH0 MSTORE PUSH1 0x20 PUSH0 KECCAK256 ADD PUSH0 SWAP2 POP SWAP1 POP SLOAD DUP2 JUMP JUMPDEST PUSH0 DUP1 DUP1 SLOAD SWAP1 POP DUP3 LT PUSH2 0x38C JUMPI PUSH1 0x40 MLOAD PUSH32 0x8C379A000000000000000000000000000000000000000000000000000000000 DUP2 MSTORE PUSH1 0x4 ADD PUSH2 0x383 SWAP1 PUSH2 0x605 JUMP JUMPDEST PUSH1 0x40 MLOAD DUP1 SWAP2 SUB SWAP1 REVERT JUMPDEST PUSH0 DUP3 DUP2 SLOAD DUP2 LT PUSH2 0x39F JUMPI PUSH2 0x39E PUSH2 0x623 JUMP JUMPDEST JUMPDEST SWAP1 PUSH0 MSTORE PUSH1 0x20 PUSH0 KECCAK256 ADD SLOAD SWAP1 POP SWAP2 SWAP1 POP JUMP JUMPDEST PUSH0 PUSH1 0x40 MLOAD SWAP1 POP SWAP1 JUMP JUMPDEST PUSH0 DUP1 REVERT JUMPDEST PUSH0 DUP2 SWAP1 POP SWAP2 SWAP1 POP JUMP JUMPDEST PUSH2 0x3CE DUP2 PUSH2 0x3BC JUMP JUMPDEST DUP2 EQ PUSH2 0x3D8 JUMPI PUSH0 DUP1 REVERT JUMPDEST POP JUMP JUMPDEST PUSH0 DUP2 CALLDATALOAD SWAP1 POP PUSH2 0x3E9 DUP2 PUSH2 0x3C5 JUMP JUMPDEST SWAP3 SWAP2 POP POP JUMP JUMPDEST PUSH0 PUSH1 0x20 DUP3 DUP5 SUB SLT ISZERO PUSH2 0x404 JUMPI PUSH2 0x403 PUSH2 0x3B8 JUMP JUMPDEST JUMPDEST PUSH0 PUSH2 0x411 DUP5 DUP3 DUP6 ADD PUSH2 0x3DB JUMP JUMPDEST SWAP2 POP POP SWAP3 SWAP2 POP POP JUMP JUMPDEST PUSH2 0x423 DUP2 PUSH2 0x3BC JUMP JUMPDEST DUP3 MSTORE POP POP JUMP JUMPDEST PUSH0 PUSH1 0x20 DUP3 ADD SWAP1 POP PUSH2 0x43C PUSH0 DUP4 ADD DUP5 PUSH2 0x41A JUMP JUMPDEST SWAP3 SWAP2 POP POP JUMP JUMPDEST PUSH0 DUP1 REVERT JUMPDEST PUSH0 PUSH1 0x1F NOT PUSH1 0x1F DUP4 ADD AND SWAP1 POP SWAP2 SWAP1 POP JUMP JUMPDEST PUSH32 0x4E487B7100000000000000000000000000000000000000000000000000000000 PUSH0 MSTORE PUSH1 0x41 PUSH1 0x4 MSTORE PUSH1 0x24 PUSH0 REVERT JUMPDEST PUSH2 0x48C DUP3 PUSH2 0x446 JUMP JUMPDEST DUP2 ADD DUP2 DUP2 LT PUSH8 0xFFFFFFFFFFFFFFFF DUP3 GT OR ISZERO PUSH2 0x4AB JUMPI PUSH2 0x4AA PUSH2 0x456 JUMP JUMPDEST JUMPDEST DUP1 PUSH1 0x40 MSTORE POP POP POP JUMP JUMPDEST PUSH0 PUSH2 0x4BD PUSH2 0x3AF JUMP JUMPDEST SWAP1 POP PUSH2 0x4C9 DUP3 DUP3 PUSH2 0x483 JUMP JUMPDEST SWAP2 SWAP1 POP JUMP JUMPDEST PUSH0 PUSH8 0xFFFFFFFFFFFFFFFF DUP3 GT ISZERO PUSH2 0x4E8 JUMPI PUSH2 0x4E7 PUSH2 0x456 JUMP JUMPDEST JUMPDEST PUSH1 0x20 DUP3 MUL SWAP1 POP SWAP2 SWAP1 POP JUMP JUMPDEST PUSH0 DUP1 REVERT JUMPDEST PUSH0 PUSH2 0x509 PUSH2 0x504 DUP5 PUSH2 0x4CE JUMP JUMPDEST PUSH2 0x4B4 JUMP JUMPDEST SWAP1 POP DUP1 PUSH1 0x20 DUP5 MUL DUP4 ADD DUP6 DUP2 GT ISZERO PUSH2 0x523 JUMPI PUSH2 0x522 PUSH2 0x4F3 JUMP JUMPDEST JUMPDEST DUP4 JUMPDEST DUP2 DUP2 LT ISZERO PUSH2 0x54C JUMPI DUP1 PUSH2 0x538 DUP9 DUP3 PUSH2 0x3DB JUMP JUMPDEST DUP5 MSTORE PUSH1 0x20 DUP5 ADD SWAP4 POP POP PUSH1 0x20 DUP2 ADD SWAP1 POP PUSH2 0x525 JUMP JUMPDEST POP POP POP SWAP4 SWAP3 POP POP POP JUMP JUMPDEST PUSH0 DUP3 PUSH1 0x1F DUP4 ADD SLT PUSH2 0x56A JUMPI PUSH2 0x569 PUSH2 0x442 JUMP JUMPDEST JUMPDEST PUSH1 0x4 PUSH2 0x577 DUP5 DUP3 DUP6 PUSH2 0x4F7 JUMP JUMPDEST SWAP2 POP POP SWAP3 SWAP2 POP POP JUMP JUMPDEST PUSH0 PUSH1 0x80 DUP3 DUP5 SUB SLT ISZERO PUSH2 0x595 JUMPI PUSH2 0x594 PUSH2 0x3B8 JUMP JUMPDEST JUMPDEST PUSH0 PUSH2 0x5A2 DUP5 DUP3 DUP6 ADD PUSH2 0x556 JUMP JUMPDEST SWAP2 POP POP SWAP3 SWAP2 POP POP JUMP JUMPDEST PUSH0 DUP3 DUP3 MSTORE PUSH1 0x20 DUP3 ADD SWAP1 POP SWAP3 SWAP2 POP POP JUMP JUMPDEST PUSH32 0x496E646578206F7574206F6620626F756E647300000000000000000000000000 PUSH0 DUP3 ADD MSTORE POP JUMP JUMPDEST PUSH0 PUSH2 0x5EF PUSH1 0x13 DUP4 PUSH2 0x5AB JUMP JUMPDEST SWAP2 POP PUSH2 0x5FA DUP3 PUSH2 0x5BB JUMP JUMPDEST PUSH1 0x20 DUP3 ADD SWAP1 POP SWAP2 SWAP1 POP JUMP JUMPDEST PUSH0 PUSH1 0x20 DUP3 ADD SWAP1 POP DUP2 DUP2 SUB PUSH0 DUP4 ADD MSTORE PUSH2 0x61C DUP2 PUSH2 0x5E3 JUMP JUMPDEST SWAP1 POP SWAP2 SWAP1 POP JUMP JUMPDEST PUSH32 0x4E487B7100000000000000000000000000000000000000000000000000000000 PUSH0 MSTORE PUSH1 0x32 PUSH1 0x4 MSTORE PUSH1 0x24 PUSH0 REVERT JUMPDEST PUSH32 0x4E487B7100000000000000000000000000000000000000000000000000000000 PUSH0 MSTORE PUSH1 0x11 PUSH1 0x4 MSTORE PUSH1 0x24 PUSH0 REVERT JUMPDEST PUSH0 PUSH2 0x687 DUP3 PUSH2 0x3BC JUMP JUMPDEST SWAP2 POP PUSH2 0x692 DUP4 PUSH2 0x3BC JUMP JUMPDEST SWAP3 POP DUP3 DUP3 ADD SWAP1 POP DUP1 DUP3 GT ISZERO PUSH2 0x6AA JUMPI PUSH2 0x6A9 PUSH2 0x650 JUMP JUMPDEST JUMPDEST SWAP3 SWAP2 POP POP JUMP INVALID LOG2 PUSH5 0x6970667358 0x22 SLT KECCAK256 ISZERO EXTCODECOPY 0x28 0xEC STOP LOG1 DUP11 CALLVALUE DUP14 0xD6 STOP 0xB8 PUSH20 0xAB95BF4AC0860F9FD89546FFF81534E425197664 PUSH20 0x6F6C634300081A00330000000000000000000000 "
		},
		"gasEstimates": {
			"creation": {
				"codeDepositCost": "353200",
				"executionCost": "391",
				"totalCost": "353591"
			},
			"external": {
				"addNumbers()": "infinite",
				"addNumbers2()": "infinite",
				"dynamicArray(uint256)": "infinite",
				"getNumber(uint256)": "infinite",
				"getNumber2(uint256)": "infinite",
				"number2(uint256)": "infinite",
				"numbers(uint256)": "infinite",
				"staticArray(uint256[4])": "infinite"
			}
		},
		"methodIdentifiers": {
			"addNumbers()": "69c113e1",
			"addNumbers2()": "3d141712",
			"dynamicArray(uint256)": "9a9bdca7",
			"getNumber(uint256)": "fc563658",
			"getNumber2(uint256)": "318aabf6",
			"number2(uint256)": "70d390cd",
			"numbers(uint256)": "d39fa233",
			"staticArray(uint256[4])": "82812dda"
		}
	},
	"abi": [
		{
			"inputs": [],
			"name": "addNumbers",
			"outputs": [
				{
					"internalType": "uint256",
					"name": "",
					"type": "uint256"
				}
			],
			"stateMutability": "view",
			"type": "function"
		},
		{
			"inputs": [],
			"name": "addNumbers2",
			"outputs": [
				{
					"internalType": "uint256",
					"name": "",
					"type": "uint256"
				}
			],
			"stateMutability": "view",
			"type": "function"
		},
		{
			"inputs": [
				{
					"internalType": "uint256",
					"name": "_n",
					"type": "uint256"
				}
			],
			"name": "dynamicArray",
			"outputs": [],
			"stateMutability": "nonpayable",
			"type": "function"
		},
		{
			"inputs": [
				{
					"internalType": "uint256",
					"name": "k",
					"type": "uint256"
				}
			],
			"name": "getNumber",
			"outputs": [
				{
					"internalType": "uint256",
					"name": "",
					"type": "uint256"
				}
			],
			"stateMutability": "view",
			"type": "function"
		},
		{
			"inputs": [
				{
					"internalType": "uint256",
					"name": "k",
					"type": "uint256"
				}
			],
			"name": "getNumber2",
			"outputs": [
				{
					"internalType": "uint256",
					"name": "",
					"type": "uint256"
				}
			],
			"stateMutability": "view",
			"type": "function"
		},
		{
			"inputs": [
				{
					"internalType": "uint256",
					"name": "",
					"type": "uint256"
				}
			],
			"name": "number2",
			"outputs": [
				{
					"internalType": "uint256",
					"name": "",
					"type": "uint256"
				}
			],
			"stateMutability": "view",
			"type": "function"
		},
		{
			"inputs": [
				{
					"internalType": "uint256",
					"name": "",
					"type": "uint256"
				}
			],
			"name": "numbers",
			"outputs": [
				{
					"internalType": "uint256",
					"name": "",
					"type": "uint256"
				}
			],
			"stateMutability": "view",
			"type": "function"
		},
		{
			"inputs": [
				{
					"internalType": "uint256[4]",
					"name": "_numbers",
					"type": "uint256[4]"
				}
			],
			"name": "staticArray",
			"outputs": [],
			"stateMutability": "nonpayable",
			"type": "function"
		}
	]
}