{
	"data": {
		"bytecode": {
			"linkReferences": {},
			"object": "6080604052348015600e575f80fd5b506104f48061001c5f395ff3fe608060405234801561000f575f80fd5b5060043610610086575f3560e01c80639a9bdca7116100595780639a9bdca714610112578063d39fa2331461012e578063dff68daf1461015e578063fac04a0d1461018e57610086565b80633d1417121461008a57806369c113e1146100a857806382812dda146100c6578063859cc7d6146100e2575b5f80fd5b6100926101be565b60405161009f91906102da565b60405180910390f35b6100b06101e9565b6040516100bd91906102da565b60405180910390f35b6100e060048036038101906100db9190610468565b610216565b005b6100fc60048036038101906100f79190610493565b61023c565b60405161010991906102da565b60405180910390f35b61012c60048036038101906101279190610493565b610255565b005b61014860048036038101906101439190610493565b610284565b60405161015591906102da565b60405180910390f35b61017860048036038101906101739190610493565b6102a3565b60405161018591906102da565b60405180910390f35b6101a860048036038101906101a39190610493565b6102b5565b6040516101b591906102da565b60405180910390f35b5f8060015f5b60048110156101e05780820154830192506001810190506101c4565b50815f5260205ff35b5f805f545f5b8181101561020d578060205f200154830192506001810190506101ef565b50815f5260205ff35b5f5b600481101561023857602081028201518160010155600181019050610218565b5050565b6001816004811061024b575f80fd5b015f915090505481565b5f545f80525f5b8281101561027c578060205f20016001820181555060018101905061025c565b50815f555050565b5f8181548110610292575f80fd5b905f5260205f20015f915090505481565b5f80548260205f200154915050919050565b5f81600101549050919050565b5f819050919050565b6102d4816102c2565b82525050565b5f6020820190506102ed5f8301846102cb565b92915050565b5f604051905090565b5f80fd5b5f80fd5b5f601f19601f8301169050919050565b7f4e487b71000000000000000000000000000000000000000000000000000000005f52604160045260245ffd5b61034a82610304565b810181811067ffffffffffffffff8211171561036957610368610314565b5b80604052505050565b5f61037b6102f3565b90506103878282610341565b919050565b5f67ffffffffffffffff8211156103a6576103a5610314565b5b602082029050919050565b5f80fd5b6103be816102c2565b81146103c8575f80fd5b50565b5f813590506103d9816103b5565b92915050565b5f6103f16103ec8461038c565b610372565b9050806020840283018581111561040b5761040a6103b1565b5b835b81811015610434578061042088826103cb565b84526020840193505060208101905061040d565b5050509392505050565b5f82601f83011261045257610451610300565b5b600461045f8482856103df565b91505092915050565b5f6080828403121561047d5761047c6102fc565b5b5f61048a8482850161043e565b91505092915050565b5f602082840312156104a8576104a76102fc565b5b5f6104b5848285016103cb565b9150509291505056fea26469706673582212204935ef8d5c4f2d84392a8524b15eb802dc7158bc084ca21699557789221d3a0164736f6c634300081a0033",
			"opcodes": "PUSH1 0x80 PUSH1 0x40 MSTORE CALLVALUE DUP1 ISZERO PUSH1 0xE JUMPI PUSH0 DUP1 REVERT JUMPDEST POP PUSH2 0x4F4 DUP1 PUSH2 0x1C PUSH0 CODECOPY PUSH0 RETURN INVALID PUSH1 0x80 PUSH1 0x40 MSTORE CALLVALUE DUP1 ISZERO PUSH2 0xF JUMPI PUSH0 DUP1 REVERT JUMPDEST POP PUSH1 0x4 CALLDATASIZE LT PUSH2 0x86 JUMPI PUSH0 CALLDATALOAD PUSH1 0xE0 SHR DUP1 PUSH4 0x9A9BDCA7 GT PUSH2 0x59 JUMPI DUP1 PUSH4 0x9A9BDCA7 EQ PUSH2 0x112 JUMPI DUP1 PUSH4 0xD39FA233 EQ PUSH2 0x12E JUMPI DUP1 PUSH4 0xDFF68DAF EQ PUSH2 0x15E JUMPI DUP1 PUSH4 0xFAC04A0D EQ PUSH2 0x18E JUMPI PUSH2 0x86 JUMP JUMPDEST DUP1 PUSH4 0x3D141712 EQ PUSH2 0x8A JUMPI DUP1 PUSH4 0x69C113E1 EQ PUSH2 0xA8 JUMPI DUP1 PUSH4 0x82812DDA EQ PUSH2 0xC6 JUMPI DUP1 PUSH4 0x859CC7D6 EQ PUSH2 0xE2 JUMPI JUMPDEST PUSH0 DUP1 REVERT JUMPDEST PUSH2 0x92 PUSH2 0x1BE JUMP JUMPDEST PUSH1 0x40 MLOAD PUSH2 0x9F SWAP2 SWAP1 PUSH2 0x2DA JUMP JUMPDEST PUSH1 0x40 MLOAD DUP1 SWAP2 SUB SWAP1 RETURN JUMPDEST PUSH2 0xB0 PUSH2 0x1E9 JUMP JUMPDEST PUSH1 0x40 MLOAD PUSH2 0xBD SWAP2 SWAP1 PUSH2 0x2DA JUMP JUMPDEST PUSH1 0x40 MLOAD DUP1 SWAP2 SUB SWAP1 RETURN JUMPDEST PUSH2 0xE0 PUSH1 0x4 DUP1 CALLDATASIZE SUB DUP2 ADD SWAP1 PUSH2 0xDB SWAP2 SWAP1 PUSH2 0x468 JUMP JUMPDEST PUSH2 0x216 JUMP JUMPDEST STOP JUMPDEST PUSH2 0xFC PUSH1 0x4 DUP1 CALLDATASIZE SUB DUP2 ADD SWAP1 PUSH2 0xF7 SWAP2 SWAP1 PUSH2 0x493 JUMP JUMPDEST PUSH2 0x23C JUMP JUMPDEST PUSH1 0x40 MLOAD PUSH2 0x109 SWAP2 SWAP1 PUSH2 0x2DA JUMP JUMPDEST PUSH1 0x40 MLOAD DUP1 SWAP2 SUB SWAP1 RETURN JUMPDEST PUSH2 0x12C PUSH1 0x4 DUP1 CALLDATASIZE SUB DUP2 ADD SWAP1 PUSH2 0x127 SWAP2 SWAP1 PUSH2 0x493 JUMP JUMPDEST PUSH2 0x255 JUMP JUMPDEST STOP JUMPDEST PUSH2 0x148 PUSH1 0x4 DUP1 CALLDATASIZE SUB DUP2 ADD SWAP1 PUSH2 0x143 SWAP2 SWAP1 PUSH2 0x493 JUMP JUMPDEST PUSH2 0x284 JUMP JUMPDEST PUSH1 0x40 MLOAD PUSH2 0x155 SWAP2 SWAP1 PUSH2 0x2DA JUMP JUMPDEST PUSH1 0x40 MLOAD DUP1 SWAP2 SUB SWAP1 RETURN JUMPDEST PUSH2 0x178 PUSH1 0x4 DUP1 CALLDATASIZE SUB DUP2 ADD SWAP1 PUSH2 0x173 SWAP2 SWAP1 PUSH2 0x493 JUMP JUMPDEST PUSH2 0x2A3 JUMP JUMPDEST PUSH1 0x40 MLOAD PUSH2 0x185 SWAP2 SWAP1 PUSH2 0x2DA JUMP JUMPDEST PUSH1 0x40 MLOAD DUP1 SWAP2 SUB SWAP1 RETURN JUMPDEST PUSH2 0x1A8 PUSH1 0x4 DUP1 CALLDATASIZE SUB DUP2 ADD SWAP1 PUSH2 0x1A3 SWAP2 SWAP1 PUSH2 0x493 JUMP JUMPDEST PUSH2 0x2B5 JUMP JUMPDEST PUSH1 0x40 MLOAD PUSH2 0x1B5 SWAP2 SWAP1 PUSH2 0x2DA JUMP JUMPDEST PUSH1 0x40 MLOAD DUP1 SWAP2 SUB SWAP1 RETURN JUMPDEST PUSH0 DUP1 PUSH1 0x1 PUSH0 JUMPDEST PUSH1 0x4 DUP2 LT ISZERO PUSH2 0x1E0 JUMPI DUP1 DUP3 ADD SLOAD DUP4 ADD SWAP3 POP PUSH1 0x1 DUP2 ADD SWAP1 POP PUSH2 0x1C4 JUMP JUMPDEST POP DUP2 PUSH0 MSTORE PUSH1 0x20 PUSH0 RETURN JUMPDEST PUSH0 DUP1 PUSH0 SLOAD PUSH0 JUMPDEST DUP2 DUP2 LT ISZERO PUSH2 0x20D JUMPI DUP1 PUSH1 0x20 PUSH0 KECCAK256 ADD SLOAD DUP4 ADD SWAP3 POP PUSH1 0x1 DUP2 ADD SWAP1 POP PUSH2 0x1EF JUMP JUMPDEST POP DUP2 PUSH0 MSTORE PUSH1 0x20 PUSH0 RETURN JUMPDEST PUSH0 JUMPDEST PUSH1 0x4 DUP2 LT ISZERO PUSH2 0x238 JUMPI PUSH1 0x20 DUP2 MUL DUP3 ADD MLOAD DUP2 PUSH1 0x1 ADD SSTORE PUSH1 0x1 DUP2 ADD SWAP1 POP PUSH2 0x218 JUMP JUMPDEST POP POP JUMP JUMPDEST PUSH1 0x1 DUP2 PUSH1 0x4 DUP2 LT PUSH2 0x24B JUMPI PUSH0 DUP1 REVERT JUMPDEST ADD PUSH0 SWAP2 POP SWAP1 POP SLOAD DUP2 JUMP JUMPDEST PUSH0 SLOAD PUSH0 DUP1 MSTORE PUSH0 JUMPDEST DUP3 DUP2 LT ISZERO PUSH2 0x27C JUMPI DUP1 PUSH1 0x20 PUSH0 KECCAK256 ADD PUSH1 0x1 DUP3 ADD DUP2 SSTORE POP PUSH1 0x1 DUP2 ADD SWAP1 POP PUSH2 0x25C JUMP JUMPDEST POP DUP2 PUSH0 SSTORE POP POP JUMP JUMPDEST PUSH0 DUP2 DUP2 SLOAD DUP2 LT PUSH2 0x292 JUMPI PUSH0 DUP1 REVERT JUMPDEST SWAP1 PUSH0 MSTORE PUSH1 0x20 PUSH0 KECCAK256 ADD PUSH0 SWAP2 POP SWAP1 POP SLOAD DUP2 JUMP JUMPDEST PUSH0 DUP1 SLOAD DUP3 PUSH1 0x20 PUSH0 KECCAK256 ADD SLOAD SWAP2 POP POP SWAP2 SWAP1 POP JUMP JUMPDEST PUSH0 DUP2 PUSH1 0x1 ADD SLOAD SWAP1 POP SWAP2 SWAP1 POP JUMP JUMPDEST PUSH0 DUP2 SWAP1 POP SWAP2 SWAP1 POP JUMP JUMPDEST PUSH2 0x2D4 DUP2 PUSH2 0x2C2 JUMP JUMPDEST DUP3 MSTORE POP POP JUMP JUMPDEST PUSH0 PUSH1 0x20 DUP3 ADD SWAP1 POP PUSH2 0x2ED PUSH0 DUP4 ADD DUP5 PUSH2 0x2CB JUMP JUMPDEST SWAP3 SWAP2 POP POP JUMP JUMPDEST PUSH0 PUSH1 0x40 MLOAD SWAP1 POP SWAP1 JUMP JUMPDEST PUSH0 DUP1 REVERT JUMPDEST PUSH0 DUP1 REVERT JUMPDEST PUSH0 PUSH1 0x1F NOT PUSH1 0x1F DUP4 ADD AND SWAP1 POP SWAP2 SWAP1 POP JUMP JUMPDEST PUSH32 0x4E487B7100000000000000000000000000000000000000000000000000000000 PUSH0 MSTORE PUSH1 0x41 PUSH1 0x4 MSTORE PUSH1 0x24 PUSH0 REVERT JUMPDEST PUSH2 0x34A DUP3 PUSH2 0x304 JUMP JUMPDEST DUP2 ADD DUP2 DUP2 LT PUSH8 0xFFFFFFFFFFFFFFFF DUP3 GT OR ISZERO PUSH2 0x369 JUMPI PUSH2 0x368 PUSH2 0x314 JUMP JUMPDEST JUMPDEST DUP1 PUSH1 0x40 MSTORE POP POP POP JUMP JUMPDEST PUSH0 PUSH2 0x37B PUSH2 0x2F3 JUMP JUMPDEST SWAP1 POP PUSH2 0x387 DUP3 DUP3 PUSH2 0x341 JUMP JUMPDEST SWAP2 SWAP1 POP JUMP JUMPDEST PUSH0 PUSH8 0xFFFFFFFFFFFFFFFF DUP3 GT ISZERO PUSH2 0x3A6 JUMPI PUSH2 0x3A5 PUSH2 0x314 JUMP JUMPDEST JUMPDEST PUSH1 0x20 DUP3 MUL SWAP1 POP SWAP2 SWAP1 POP JUMP JUMPDEST PUSH0 DUP1 REVERT JUMPDEST PUSH2 0x3BE DUP2 PUSH2 0x2C2 JUMP JUMPDEST DUP2 EQ PUSH2 0x3C8 JUMPI PUSH0 DUP1 REVERT JUMPDEST POP JUMP JUMPDEST PUSH0 DUP2 CALLDATALOAD SWAP1 POP PUSH2 0x3D9 DUP2 PUSH2 0x3B5 JUMP JUMPDEST SWAP3 SWAP2 POP POP JUMP JUMPDEST PUSH0 PUSH2 0x3F1 PUSH2 0x3EC DUP5 PUSH2 0x38C JUMP JUMPDEST PUSH2 0x372 JUMP JUMPDEST SWAP1 POP DUP1 PUSH1 0x20 DUP5 MUL DUP4 ADD DUP6 DUP2 GT ISZERO PUSH2 0x40B JUMPI PUSH2 0x40A PUSH2 0x3B1 JUMP JUMPDEST JUMPDEST DUP4 JUMPDEST DUP2 DUP2 LT ISZERO PUSH2 0x434 JUMPI DUP1 PUSH2 0x420 DUP9 DUP3 PUSH2 0x3CB JUMP JUMPDEST DUP5 MSTORE PUSH1 0x20 DUP5 ADD SWAP4 POP POP PUSH1 0x20 DUP2 ADD SWAP1 POP PUSH2 0x40D JUMP JUMPDEST POP POP POP SWAP4 SWAP3 POP POP POP JUMP JUMPDEST PUSH0 DUP3 PUSH1 0x1F DUP4 ADD SLT PUSH2 0x452 JUMPI PUSH2 0x451 PUSH2 0x300 JUMP JUMPDEST JUMPDEST PUSH1 0x4 PUSH2 0x45F DUP5 DUP3 DUP6 PUSH2 0x3DF JUMP JUMPDEST SWAP2 POP POP SWAP3 SWAP2 POP POP JUMP JUMPDEST PUSH0 PUSH1 0x80 DUP3 DUP5 SUB SLT ISZERO PUSH2 0x47D JUMPI PUSH2 0x47C PUSH2 0x2FC JUMP JUMPDEST JUMPDEST PUSH0 PUSH2 0x48A DUP5 DUP3 DUP6 ADD PUSH2 0x43E JUMP JUMPDEST SWAP2 POP POP SWAP3 SWAP2 POP POP JUMP JUMPDEST PUSH0 PUSH1 0x20 DUP3 DUP5 SUB SLT ISZERO PUSH2 0x4A8 JUMPI PUSH2 0x4A7 PUSH2 0x2FC JUMP JUMPDEST JUMPDEST PUSH0 PUSH2 0x4B5 DUP5 DUP3 DUP6 ADD PUSH2 0x3CB JUMP JUMPDEST SWAP2 POP POP SWAP3 SWAP2 POP POP JUMP INVALID LOG2 PUSH5 0x6970667358 0x22 SLT KECCAK256 BLOBHASH CALLDATALOAD 0xEF DUP14 TLOAD 0x4F 0x2D DUP5 CODECOPY 0x2A DUP6 0x24 0xB1 MCOPY 0xB8 MUL 0xDC PUSH18 0x58BC084CA21699557789221D3A0164736F6C PUSH4 0x4300081A STOP CALLER "
		},
		"gasEstimates": {
			"creation": {
				"codeDepositCost": "253600",
				"executionCost": "292",
				"totalCost": "253892"
			},
			"external": {
				"addNumbers()": "infinite",
				"addNumbers2()": "infinite",
				"dynamicArray(uint256)": "infinite",
				"numbers(uint256)": "infinite",
				"numbers2(uint256)": "infinite",
				"returnNumber2K(uint256)": "infinite",
				"returnNumberK(uint256)": "infinite",
				"staticArray(uint256[4])": "infinite"
			}
		},
		"methodIdentifiers": {
			"addNumbers()": "69c113e1",
			"addNumbers2()": "3d141712",
			"dynamicArray(uint256)": "9a9bdca7",
			"numbers(uint256)": "d39fa233",
			"numbers2(uint256)": "859cc7d6",
			"returnNumber2K(uint256)": "fac04a0d",
			"returnNumberK(uint256)": "dff68daf",
			"staticArray(uint256[4])": "82812dda"
		}
	},
	"abi": [
		{
			"inputs": [],
			"name": "addNumbers",
			"outputs": [
				{
					"internalType": "uint256",
					"name": "",
					"type": "uint256"
				}
			],
			"stateMutability": "view",
			"type": "function"
		},
		{
			"inputs": [],
			"name": "addNumbers2",
			"outputs": [
				{
					"internalType": "uint256",
					"name": "",
					"type": "uint256"
				}
			],
			"stateMutability": "view",
			"type": "function"
		},
		{
			"inputs": [
				{
					"internalType": "uint256",
					"name": "_n",
					"type": "uint256"
				}
			],
			"name": "dynamicArray",
			"outputs": [],
			"stateMutability": "nonpayable",
			"type": "function"
		},
		{
			"inputs": [
				{
					"internalType": "uint256",
					"name": "",
					"type": "uint256"
				}
			],
			"name": "numbers",
			"outputs": [
				{
					"internalType": "uint256",
					"name": "",
					"type": "uint256"
				}
			],
			"stateMutability": "view",
			"type": "function"
		},
		{
			"inputs": [
				{
					"internalType": "uint256",
					"name": "",
					"type": "uint256"
				}
			],
			"name": "numbers2",
			"outputs": [
				{
					"internalType": "uint256",
					"name": "",
					"type": "uint256"
				}
			],
			"stateMutability": "view",
			"type": "function"
		},
		{
			"inputs": [
				{
					"internalType": "uint256",
					"name": "_k",
					"type": "uint256"
				}
			],
			"name": "returnNumber2K",
			"outputs": [
				{
					"internalType": "uint256",
					"name": "num",
					"type": "uint256"
				}
			],
			"stateMutability": "view",
			"type": "function"
		},
		{
			"inputs": [
				{
					"internalType": "uint256",
					"name": "_k",
					"type": "uint256"
				}
			],
			"name": "returnNumberK",
			"outputs": [
				{
					"internalType": "uint256",
					"name": "num",
					"type": "uint256"
				}
			],
			"stateMutability": "view",
			"type": "function"
		},
		{
			"inputs": [
				{
					"internalType": "uint256[4]",
					"name": "_numbers",
					"type": "uint256[4]"
				}
			],
			"name": "staticArray",
			"outputs": [],
			"stateMutability": "nonpayable",
			"type": "function"
		}
	]
}