{
	"data": {
		"bytecode": {
			"linkReferences": {},
			"object": "6080604052348015600e575f80fd5b506108bc8061001c5f395ff3fe608060405234801561000f575f80fd5b5060043610610034575f3560e01c80639782a9f314610038578063b051da3314610069575b5f80fd5b610052600480360381019061004d91906102ae565b61009a565b60405161006092919061039f565b60405180910390f35b610083600480360381019061007e9190610509565b610194565b60405161009192919061066b565b60405180910390f35b5f60605f808490505b5f8511156100cd57600a856100b891906106f3565b945081806100c590610723565b9250506100a3565b5f8267ffffffffffffffff8111156100e8576100e76103e5565b5b6040519080825280602002602001820160405280156101165781602001602082028036833780820191505090505b5090505f8390505b5f811115610185575f600a84610134919061076a565b9050600a8461014391906106f3565b93508083600184610154919061079a565b81518110610165576101646107cd565b5b60200260200101818152505050808061017d906107fa565b91505061011e565b50828194509450505050915091565b5f60605f835167ffffffffffffffff8111156101b3576101b26103e5565b5b6040519080825280602002602001820160405280156101e657816020015b60608152602001906001900390816101d15790505b5090505f5b815181101561025c57848181518110610207576102066107cd565b5b602001015160f81c60f81b604051602001610222919061086c565b604051602081830303815290604052828281518110610244576102436107cd565b5b602002602001018190525080806001019150506101eb565b508351819250925050915091565b5f604051905090565b5f80fd5b5f80fd5b5f819050919050565b61028d8161027b565b8114610297575f80fd5b50565b5f813590506102a881610284565b92915050565b5f602082840312156102c3576102c2610273565b5b5f6102d08482850161029a565b91505092915050565b6102e28161027b565b82525050565b5f81519050919050565b5f82825260208201905092915050565b5f819050602082019050919050565b61031a8161027b565b82525050565b5f61032b8383610311565b60208301905092915050565b5f602082019050919050565b5f61034d826102e8565b61035781856102f2565b935061036283610302565b805f5b838110156103925781516103798882610320565b975061038483610337565b925050600181019050610365565b5085935050505092915050565b5f6040820190506103b25f8301856102d9565b81810360208301526103c48184610343565b90509392505050565b5f80fd5b5f80fd5b5f601f19601f8301169050919050565b7f4e487b71000000000000000000000000000000000000000000000000000000005f52604160045260245ffd5b61041b826103d5565b810181811067ffffffffffffffff8211171561043a576104396103e5565b5b80604052505050565b5f61044c61026a565b90506104588282610412565b919050565b5f67ffffffffffffffff821115610477576104766103e5565b5b610480826103d5565b9050602081019050919050565b828183375f83830152505050565b5f6104ad6104a88461045d565b610443565b9050828152602081018484840111156104c9576104c86103d1565b5b6104d484828561048d565b509392505050565b5f82601f8301126104f0576104ef6103cd565b5b813561050084826020860161049b565b91505092915050565b5f6020828403121561051e5761051d610273565b5b5f82013567ffffffffffffffff81111561053b5761053a610277565b5b610547848285016104dc565b91505092915050565b5f81519050919050565b5f82825260208201905092915050565b5f819050602082019050919050565b5f81519050919050565b5f82825260208201905092915050565b8281835e5f83830152505050565b5f6105ab82610579565b6105b58185610583565b93506105c5818560208601610593565b6105ce816103d5565b840191505092915050565b5f6105e483836105a1565b905092915050565b5f602082019050919050565b5f61060282610550565b61060c818561055a565b93508360208202850161061e8561056a565b805f5b85811015610659578484038952815161063a85826105d9565b9450610645836105ec565b925060208a01995050600181019050610621565b50829750879550505050505092915050565b5f60408201905061067e5f8301856102d9565b818103602083015261069081846105f8565b90509392505050565b7f4e487b71000000000000000000000000000000000000000000000000000000005f52601260045260245ffd5b7f4e487b71000000000000000000000000000000000000000000000000000000005f52601160045260245ffd5b5f6106fd8261027b565b91506107088361027b565b92508261071857610717610699565b5b828204905092915050565b5f61072d8261027b565b91507fffffffffffffffffffffffffffffffffffffffffffffffffffffffffffffffff820361075f5761075e6106c6565b5b600182019050919050565b5f6107748261027b565b915061077f8361027b565b92508261078f5761078e610699565b5b828206905092915050565b5f6107a48261027b565b91506107af8361027b565b92508282039050818111156107c7576107c66106c6565b5b92915050565b7f4e487b71000000000000000000000000000000000000000000000000000000005f52603260045260245ffd5b5f6108048261027b565b91505f8203610816576108156106c6565b5b600182039050919050565b5f7fff0000000000000000000000000000000000000000000000000000000000000082169050919050565b5f819050919050565b61086661086182610821565b61084c565b82525050565b5f6108778284610855565b6001820191508190509291505056fea26469706673582212202d7b5c80022b8371204f2fd41189ae7bc6eae2ca2ba314104e2aeacdbcdfaf1964736f6c634300081a0033",
			"opcodes": "PUSH1 0x80 PUSH1 0x40 MSTORE CALLVALUE DUP1 ISZERO PUSH1 0xE JUMPI PUSH0 DUP1 REVERT JUMPDEST POP PUSH2 0x8BC DUP1 PUSH2 0x1C PUSH0 CODECOPY PUSH0 RETURN INVALID PUSH1 0x80 PUSH1 0x40 MSTORE CALLVALUE DUP1 ISZERO PUSH2 0xF JUMPI PUSH0 DUP1 REVERT JUMPDEST POP PUSH1 0x4 CALLDATASIZE LT PUSH2 0x34 JUMPI PUSH0 CALLDATALOAD PUSH1 0xE0 SHR DUP1 PUSH4 0x9782A9F3 EQ PUSH2 0x38 JUMPI DUP1 PUSH4 0xB051DA33 EQ PUSH2 0x69 JUMPI JUMPDEST PUSH0 DUP1 REVERT JUMPDEST PUSH2 0x52 PUSH1 0x4 DUP1 CALLDATASIZE SUB DUP2 ADD SWAP1 PUSH2 0x4D SWAP2 SWAP1 PUSH2 0x2AE JUMP JUMPDEST PUSH2 0x9A JUMP JUMPDEST PUSH1 0x40 MLOAD PUSH2 0x60 SWAP3 SWAP2 SWAP1 PUSH2 0x39F JUMP JUMPDEST PUSH1 0x40 MLOAD DUP1 SWAP2 SUB SWAP1 RETURN JUMPDEST PUSH2 0x83 PUSH1 0x4 DUP1 CALLDATASIZE SUB DUP2 ADD SWAP1 PUSH2 0x7E SWAP2 SWAP1 PUSH2 0x509 JUMP JUMPDEST PUSH2 0x194 JUMP JUMPDEST PUSH1 0x40 MLOAD PUSH2 0x91 SWAP3 SWAP2 SWAP1 PUSH2 0x66B JUMP JUMPDEST PUSH1 0x40 MLOAD DUP1 SWAP2 SUB SWAP1 RETURN JUMPDEST PUSH0 PUSH1 0x60 PUSH0 DUP1 DUP5 SWAP1 POP JUMPDEST PUSH0 DUP6 GT ISZERO PUSH2 0xCD JUMPI PUSH1 0xA DUP6 PUSH2 0xB8 SWAP2 SWAP1 PUSH2 0x6F3 JUMP JUMPDEST SWAP5 POP DUP2 DUP1 PUSH2 0xC5 SWAP1 PUSH2 0x723 JUMP JUMPDEST SWAP3 POP POP PUSH2 0xA3 JUMP JUMPDEST PUSH0 DUP3 PUSH8 0xFFFFFFFFFFFFFFFF DUP2 GT ISZERO PUSH2 0xE8 JUMPI PUSH2 0xE7 PUSH2 0x3E5 JUMP JUMPDEST JUMPDEST PUSH1 0x40 MLOAD SWAP1 DUP1 DUP3 MSTORE DUP1 PUSH1 0x20 MUL PUSH1 0x20 ADD DUP3 ADD PUSH1 0x40 MSTORE DUP1 ISZERO PUSH2 0x116 JUMPI DUP2 PUSH1 0x20 ADD PUSH1 0x20 DUP3 MUL DUP1 CALLDATASIZE DUP4 CALLDATACOPY DUP1 DUP3 ADD SWAP2 POP POP SWAP1 POP JUMPDEST POP SWAP1 POP PUSH0 DUP4 SWAP1 POP JUMPDEST PUSH0 DUP2 GT ISZERO PUSH2 0x185 JUMPI PUSH0 PUSH1 0xA DUP5 PUSH2 0x134 SWAP2 SWAP1 PUSH2 0x76A JUMP JUMPDEST SWAP1 POP PUSH1 0xA DUP5 PUSH2 0x143 SWAP2 SWAP1 PUSH2 0x6F3 JUMP JUMPDEST SWAP4 POP DUP1 DUP4 PUSH1 0x1 DUP5 PUSH2 0x154 SWAP2 SWAP1 PUSH2 0x79A JUMP JUMPDEST DUP2 MLOAD DUP2 LT PUSH2 0x165 JUMPI PUSH2 0x164 PUSH2 0x7CD JUMP JUMPDEST JUMPDEST PUSH1 0x20 MUL PUSH1 0x20 ADD ADD DUP2 DUP2 MSTORE POP POP POP DUP1 DUP1 PUSH2 0x17D SWAP1 PUSH2 0x7FA JUMP JUMPDEST SWAP2 POP POP PUSH2 0x11E JUMP JUMPDEST POP DUP3 DUP2 SWAP5 POP SWAP5 POP POP POP POP SWAP2 POP SWAP2 JUMP JUMPDEST PUSH0 PUSH1 0x60 PUSH0 DUP4 MLOAD PUSH8 0xFFFFFFFFFFFFFFFF DUP2 GT ISZERO PUSH2 0x1B3 JUMPI PUSH2 0x1B2 PUSH2 0x3E5 JUMP JUMPDEST JUMPDEST PUSH1 0x40 MLOAD SWAP1 DUP1 DUP3 MSTORE DUP1 PUSH1 0x20 MUL PUSH1 0x20 ADD DUP3 ADD PUSH1 0x40 MSTORE DUP1 ISZERO PUSH2 0x1E6 JUMPI DUP2 PUSH1 0x20 ADD JUMPDEST PUSH1 0x60 DUP2 MSTORE PUSH1 0x20 ADD SWAP1 PUSH1 0x1 SWAP1 SUB SWAP1 DUP2 PUSH2 0x1D1 JUMPI SWAP1 POP JUMPDEST POP SWAP1 POP PUSH0 JUMPDEST DUP2 MLOAD DUP2 LT ISZERO PUSH2 0x25C JUMPI DUP5 DUP2 DUP2 MLOAD DUP2 LT PUSH2 0x207 JUMPI PUSH2 0x206 PUSH2 0x7CD JUMP JUMPDEST JUMPDEST PUSH1 0x20 ADD ADD MLOAD PUSH1 0xF8 SHR PUSH1 0xF8 SHL PUSH1 0x40 MLOAD PUSH1 0x20 ADD PUSH2 0x222 SWAP2 SWAP1 PUSH2 0x86C JUMP JUMPDEST PUSH1 0x40 MLOAD PUSH1 0x20 DUP2 DUP4 SUB SUB DUP2 MSTORE SWAP1 PUSH1 0x40 MSTORE DUP3 DUP3 DUP2 MLOAD DUP2 LT PUSH2 0x244 JUMPI PUSH2 0x243 PUSH2 0x7CD JUMP JUMPDEST JUMPDEST PUSH1 0x20 MUL PUSH1 0x20 ADD ADD DUP2 SWAP1 MSTORE POP DUP1 DUP1 PUSH1 0x1 ADD SWAP2 POP POP PUSH2 0x1EB JUMP JUMPDEST POP DUP4 MLOAD DUP2 SWAP3 POP SWAP3 POP POP SWAP2 POP SWAP2 JUMP JUMPDEST PUSH0 PUSH1 0x40 MLOAD SWAP1 POP SWAP1 JUMP JUMPDEST PUSH0 DUP1 REVERT JUMPDEST PUSH0 DUP1 REVERT JUMPDEST PUSH0 DUP2 SWAP1 POP SWAP2 SWAP1 POP JUMP JUMPDEST PUSH2 0x28D DUP2 PUSH2 0x27B JUMP JUMPDEST DUP2 EQ PUSH2 0x297 JUMPI PUSH0 DUP1 REVERT JUMPDEST POP JUMP JUMPDEST PUSH0 DUP2 CALLDATALOAD SWAP1 POP PUSH2 0x2A8 DUP2 PUSH2 0x284 JUMP JUMPDEST SWAP3 SWAP2 POP POP JUMP JUMPDEST PUSH0 PUSH1 0x20 DUP3 DUP5 SUB SLT ISZERO PUSH2 0x2C3 JUMPI PUSH2 0x2C2 PUSH2 0x273 JUMP JUMPDEST JUMPDEST PUSH0 PUSH2 0x2D0 DUP5 DUP3 DUP6 ADD PUSH2 0x29A JUMP JUMPDEST SWAP2 POP POP SWAP3 SWAP2 POP POP JUMP JUMPDEST PUSH2 0x2E2 DUP2 PUSH2 0x27B JUMP JUMPDEST DUP3 MSTORE POP POP JUMP JUMPDEST PUSH0 DUP2 MLOAD SWAP1 POP SWAP2 SWAP1 POP JUMP JUMPDEST PUSH0 DUP3 DUP3 MSTORE PUSH1 0x20 DUP3 ADD SWAP1 POP SWAP3 SWAP2 POP POP JUMP JUMPDEST PUSH0 DUP2 SWAP1 POP PUSH1 0x20 DUP3 ADD SWAP1 POP SWAP2 SWAP1 POP JUMP JUMPDEST PUSH2 0x31A DUP2 PUSH2 0x27B JUMP JUMPDEST DUP3 MSTORE POP POP JUMP JUMPDEST PUSH0 PUSH2 0x32B DUP4 DUP4 PUSH2 0x311 JUMP JUMPDEST PUSH1 0x20 DUP4 ADD SWAP1 POP SWAP3 SWAP2 POP POP JUMP JUMPDEST PUSH0 PUSH1 0x20 DUP3 ADD SWAP1 POP SWAP2 SWAP1 POP JUMP JUMPDEST PUSH0 PUSH2 0x34D DUP3 PUSH2 0x2E8 JUMP JUMPDEST PUSH2 0x357 DUP2 DUP6 PUSH2 0x2F2 JUMP JUMPDEST SWAP4 POP PUSH2 0x362 DUP4 PUSH2 0x302 JUMP JUMPDEST DUP1 PUSH0 JUMPDEST DUP4 DUP2 LT ISZERO PUSH2 0x392 JUMPI DUP2 MLOAD PUSH2 0x379 DUP9 DUP3 PUSH2 0x320 JUMP JUMPDEST SWAP8 POP PUSH2 0x384 DUP4 PUSH2 0x337 JUMP JUMPDEST SWAP3 POP POP PUSH1 0x1 DUP2 ADD SWAP1 POP PUSH2 0x365 JUMP JUMPDEST POP DUP6 SWAP4 POP POP POP POP SWAP3 SWAP2 POP POP JUMP JUMPDEST PUSH0 PUSH1 0x40 DUP3 ADD SWAP1 POP PUSH2 0x3B2 PUSH0 DUP4 ADD DUP6 PUSH2 0x2D9 JUMP JUMPDEST DUP2 DUP2 SUB PUSH1 0x20 DUP4 ADD MSTORE PUSH2 0x3C4 DUP2 DUP5 PUSH2 0x343 JUMP JUMPDEST SWAP1 POP SWAP4 SWAP3 POP POP POP JUMP JUMPDEST PUSH0 DUP1 REVERT JUMPDEST PUSH0 DUP1 REVERT JUMPDEST PUSH0 PUSH1 0x1F NOT PUSH1 0x1F DUP4 ADD AND SWAP1 POP SWAP2 SWAP1 POP JUMP JUMPDEST PUSH32 0x4E487B7100000000000000000000000000000000000000000000000000000000 PUSH0 MSTORE PUSH1 0x41 PUSH1 0x4 MSTORE PUSH1 0x24 PUSH0 REVERT JUMPDEST PUSH2 0x41B DUP3 PUSH2 0x3D5 JUMP JUMPDEST DUP2 ADD DUP2 DUP2 LT PUSH8 0xFFFFFFFFFFFFFFFF DUP3 GT OR ISZERO PUSH2 0x43A JUMPI PUSH2 0x439 PUSH2 0x3E5 JUMP JUMPDEST JUMPDEST DUP1 PUSH1 0x40 MSTORE POP POP POP JUMP JUMPDEST PUSH0 PUSH2 0x44C PUSH2 0x26A JUMP JUMPDEST SWAP1 POP PUSH2 0x458 DUP3 DUP3 PUSH2 0x412 JUMP JUMPDEST SWAP2 SWAP1 POP JUMP JUMPDEST PUSH0 PUSH8 0xFFFFFFFFFFFFFFFF DUP3 GT ISZERO PUSH2 0x477 JUMPI PUSH2 0x476 PUSH2 0x3E5 JUMP JUMPDEST JUMPDEST PUSH2 0x480 DUP3 PUSH2 0x3D5 JUMP JUMPDEST SWAP1 POP PUSH1 0x20 DUP2 ADD SWAP1 POP SWAP2 SWAP1 POP JUMP JUMPDEST DUP3 DUP2 DUP4 CALLDATACOPY PUSH0 DUP4 DUP4 ADD MSTORE POP POP POP JUMP JUMPDEST PUSH0 PUSH2 0x4AD PUSH2 0x4A8 DUP5 PUSH2 0x45D JUMP JUMPDEST PUSH2 0x443 JUMP JUMPDEST SWAP1 POP DUP3 DUP2 MSTORE PUSH1 0x20 DUP2 ADD DUP5 DUP5 DUP5 ADD GT ISZERO PUSH2 0x4C9 JUMPI PUSH2 0x4C8 PUSH2 0x3D1 JUMP JUMPDEST JUMPDEST PUSH2 0x4D4 DUP5 DUP3 DUP6 PUSH2 0x48D JUMP JUMPDEST POP SWAP4 SWAP3 POP POP POP JUMP JUMPDEST PUSH0 DUP3 PUSH1 0x1F DUP4 ADD SLT PUSH2 0x4F0 JUMPI PUSH2 0x4EF PUSH2 0x3CD JUMP JUMPDEST JUMPDEST DUP2 CALLDATALOAD PUSH2 0x500 DUP5 DUP3 PUSH1 0x20 DUP7 ADD PUSH2 0x49B JUMP JUMPDEST SWAP2 POP POP SWAP3 SWAP2 POP POP JUMP JUMPDEST PUSH0 PUSH1 0x20 DUP3 DUP5 SUB SLT ISZERO PUSH2 0x51E JUMPI PUSH2 0x51D PUSH2 0x273 JUMP JUMPDEST JUMPDEST PUSH0 DUP3 ADD CALLDATALOAD PUSH8 0xFFFFFFFFFFFFFFFF DUP2 GT ISZERO PUSH2 0x53B JUMPI PUSH2 0x53A PUSH2 0x277 JUMP JUMPDEST JUMPDEST PUSH2 0x547 DUP5 DUP3 DUP6 ADD PUSH2 0x4DC JUMP JUMPDEST SWAP2 POP POP SWAP3 SWAP2 POP POP JUMP JUMPDEST PUSH0 DUP2 MLOAD SWAP1 POP SWAP2 SWAP1 POP JUMP JUMPDEST PUSH0 DUP3 DUP3 MSTORE PUSH1 0x20 DUP3 ADD SWAP1 POP SWAP3 SWAP2 POP POP JUMP JUMPDEST PUSH0 DUP2 SWAP1 POP PUSH1 0x20 DUP3 ADD SWAP1 POP SWAP2 SWAP1 POP JUMP JUMPDEST PUSH0 DUP2 MLOAD SWAP1 POP SWAP2 SWAP1 POP JUMP JUMPDEST PUSH0 DUP3 DUP3 MSTORE PUSH1 0x20 DUP3 ADD SWAP1 POP SWAP3 SWAP2 POP POP JUMP JUMPDEST DUP3 DUP2 DUP4 MCOPY PUSH0 DUP4 DUP4 ADD MSTORE POP POP POP JUMP JUMPDEST PUSH0 PUSH2 0x5AB DUP3 PUSH2 0x579 JUMP JUMPDEST PUSH2 0x5B5 DUP2 DUP6 PUSH2 0x583 JUMP JUMPDEST SWAP4 POP PUSH2 0x5C5 DUP2 DUP6 PUSH1 0x20 DUP7 ADD PUSH2 0x593 JUMP JUMPDEST PUSH2 0x5CE DUP2 PUSH2 0x3D5 JUMP JUMPDEST DUP5 ADD SWAP2 POP POP SWAP3 SWAP2 POP POP JUMP JUMPDEST PUSH0 PUSH2 0x5E4 DUP4 DUP4 PUSH2 0x5A1 JUMP JUMPDEST SWAP1 POP SWAP3 SWAP2 POP POP JUMP JUMPDEST PUSH0 PUSH1 0x20 DUP3 ADD SWAP1 POP SWAP2 SWAP1 POP JUMP JUMPDEST PUSH0 PUSH2 0x602 DUP3 PUSH2 0x550 JUMP JUMPDEST PUSH2 0x60C DUP2 DUP6 PUSH2 0x55A JUMP JUMPDEST SWAP4 POP DUP4 PUSH1 0x20 DUP3 MUL DUP6 ADD PUSH2 0x61E DUP6 PUSH2 0x56A JUMP JUMPDEST DUP1 PUSH0 JUMPDEST DUP6 DUP2 LT ISZERO PUSH2 0x659 JUMPI DUP5 DUP5 SUB DUP10 MSTORE DUP2 MLOAD PUSH2 0x63A DUP6 DUP3 PUSH2 0x5D9 JUMP JUMPDEST SWAP5 POP PUSH2 0x645 DUP4 PUSH2 0x5EC JUMP JUMPDEST SWAP3 POP PUSH1 0x20 DUP11 ADD SWAP10 POP POP PUSH1 0x1 DUP2 ADD SWAP1 POP PUSH2 0x621 JUMP JUMPDEST POP DUP3 SWAP8 POP DUP8 SWAP6 POP POP POP POP POP POP SWAP3 SWAP2 POP POP JUMP JUMPDEST PUSH0 PUSH1 0x40 DUP3 ADD SWAP1 POP PUSH2 0x67E PUSH0 DUP4 ADD DUP6 PUSH2 0x2D9 JUMP JUMPDEST DUP2 DUP2 SUB PUSH1 0x20 DUP4 ADD MSTORE PUSH2 0x690 DUP2 DUP5 PUSH2 0x5F8 JUMP JUMPDEST SWAP1 POP SWAP4 SWAP3 POP POP POP JUMP JUMPDEST PUSH32 0x4E487B7100000000000000000000000000000000000000000000000000000000 PUSH0 MSTORE PUSH1 0x12 PUSH1 0x4 MSTORE PUSH1 0x24 PUSH0 REVERT JUMPDEST PUSH32 0x4E487B7100000000000000000000000000000000000000000000000000000000 PUSH0 MSTORE PUSH1 0x11 PUSH1 0x4 MSTORE PUSH1 0x24 PUSH0 REVERT JUMPDEST PUSH0 PUSH2 0x6FD DUP3 PUSH2 0x27B JUMP JUMPDEST SWAP2 POP PUSH2 0x708 DUP4 PUSH2 0x27B JUMP JUMPDEST SWAP3 POP DUP3 PUSH2 0x718 JUMPI PUSH2 0x717 PUSH2 0x699 JUMP JUMPDEST JUMPDEST DUP3 DUP3 DIV SWAP1 POP SWAP3 SWAP2 POP POP JUMP JUMPDEST PUSH0 PUSH2 0x72D DUP3 PUSH2 0x27B JUMP JUMPDEST SWAP2 POP PUSH32 0xFFFFFFFFFFFFFFFFFFFFFFFFFFFFFFFFFFFFFFFFFFFFFFFFFFFFFFFFFFFFFFFF DUP3 SUB PUSH2 0x75F JUMPI PUSH2 0x75E PUSH2 0x6C6 JUMP JUMPDEST JUMPDEST PUSH1 0x1 DUP3 ADD SWAP1 POP SWAP2 SWAP1 POP JUMP JUMPDEST PUSH0 PUSH2 0x774 DUP3 PUSH2 0x27B JUMP JUMPDEST SWAP2 POP PUSH2 0x77F DUP4 PUSH2 0x27B JUMP JUMPDEST SWAP3 POP DUP3 PUSH2 0x78F JUMPI PUSH2 0x78E PUSH2 0x699 JUMP JUMPDEST JUMPDEST DUP3 DUP3 MOD SWAP1 POP SWAP3 SWAP2 POP POP JUMP JUMPDEST PUSH0 PUSH2 0x7A4 DUP3 PUSH2 0x27B JUMP JUMPDEST SWAP2 POP PUSH2 0x7AF DUP4 PUSH2 0x27B JUMP JUMPDEST SWAP3 POP DUP3 DUP3 SUB SWAP1 POP DUP2 DUP2 GT ISZERO PUSH2 0x7C7 JUMPI PUSH2 0x7C6 PUSH2 0x6C6 JUMP JUMPDEST JUMPDEST SWAP3 SWAP2 POP POP JUMP JUMPDEST PUSH32 0x4E487B7100000000000000000000000000000000000000000000000000000000 PUSH0 MSTORE PUSH1 0x32 PUSH1 0x4 MSTORE PUSH1 0x24 PUSH0 REVERT JUMPDEST PUSH0 PUSH2 0x804 DUP3 PUSH2 0x27B JUMP JUMPDEST SWAP2 POP PUSH0 DUP3 SUB PUSH2 0x816 JUMPI PUSH2 0x815 PUSH2 0x6C6 JUMP JUMPDEST JUMPDEST PUSH1 0x1 DUP3 SUB SWAP1 POP SWAP2 SWAP1 POP JUMP JUMPDEST PUSH0 PUSH32 0xFF00000000000000000000000000000000000000000000000000000000000000 DUP3 AND SWAP1 POP SWAP2 SWAP1 POP JUMP JUMPDEST PUSH0 DUP2 SWAP1 POP SWAP2 SWAP1 POP JUMP JUMPDEST PUSH2 0x866 PUSH2 0x861 DUP3 PUSH2 0x821 JUMP JUMPDEST PUSH2 0x84C JUMP JUMPDEST DUP3 MSTORE POP POP JUMP JUMPDEST PUSH0 PUSH2 0x877 DUP3 DUP5 PUSH2 0x855 JUMP JUMPDEST PUSH1 0x1 DUP3 ADD SWAP2 POP DUP2 SWAP1 POP SWAP3 SWAP2 POP POP JUMP INVALID LOG2 PUSH5 0x6970667358 0x22 SLT KECCAK256 0x2D PUSH28 0x5C80022B8371204F2FD41189AE7BC6EAE2CA2BA314104E2AEACDBCDF 0xAF NOT PUSH5 0x736F6C6343 STOP ADDMOD BYTE STOP CALLER "
		},
		"gasEstimates": {
			"creation": {
				"codeDepositCost": "447200",
				"executionCost": "478",
				"totalCost": "447678"
			},
			"external": {
				"figures(uint256)": "infinite",
				"strings(string)": "infinite"
			}
		},
		"methodIdentifiers": {
			"figures(uint256)": "9782a9f3",
			"strings(string)": "b051da33"
		}
	},
	"abi": [
		{
			"inputs": [
				{
					"internalType": "uint256",
					"name": "_a",
					"type": "uint256"
				}
			],
			"name": "figures",
			"outputs": [
				{
					"internalType": "uint256",
					"name": "",
					"type": "uint256"
				},
				{
					"internalType": "uint256[]",
					"name": "",
					"type": "uint256[]"
				}
			],
			"stateMutability": "pure",
			"type": "function"
		},
		{
			"inputs": [
				{
					"internalType": "string",
					"name": "_s",
					"type": "string"
				}
			],
			"name": "strings",
			"outputs": [
				{
					"internalType": "uint256",
					"name": "",
					"type": "uint256"
				},
				{
					"internalType": "string[]",
					"name": "",
					"type": "string[]"
				}
			],
			"stateMutability": "pure",
			"type": "function"
		}
	]
}