{
	"data": {
		"bytecode": {
			"linkReferences": {},
			"object": "6080604052348015600e575f80fd5b506106cc8061001c5f395ff3fe608060405234801561000f575f80fd5b5060043610610029575f3560e01c80635b2aeccd1461002d575b5f80fd5b610047600480360381019061004291906103b2565b61005d565b604051610054919061044d565b60405180910390f35b60605f610e108361006e919061049a565b90505f603c610e108561008191906104ca565b61008b919061049a565b90505f603c8561009b91906104ca565b90505f83036100e0576100ad82610160565b6100b682610160565b6040516020016100c7929190610580565b604051602081830303815290604052935050505061015b565b5f8203610119576100f081610160565b60405160200161010091906105c1565b604051602081830303815290604052935050505061015b565b61012283610160565b61012b83610160565b61013483610160565b6040516020016101469392919061060c565b60405160208183030381529060405293505050505b919050565b60605f600161016e8461022a565b0190505f8167ffffffffffffffff81111561018c5761018b610669565b5b6040519080825280601f01601f1916602001820160405280156101be5781602001600182028036833780820191505090505b5090505f82602001820190505b60011561021f578080600190039150507f3031323334353637383961626364656600000000000000000000000000000000600a86061a8153600a85816102145761021361046d565b5b0494505f85036101cb575b819350505050919050565b5f805f90507a184f03e93ff9f4daa797ed6e38ed64bf6a1f0100000000000000008310610286577a184f03e93ff9f4daa797ed6e38ed64bf6a1f010000000000000000838161027c5761027b61046d565b5b0492506040810190505b6d04ee2d6d415b85acef810000000083106102c3576d04ee2d6d415b85acef810000000083816102b9576102b861046d565b5b0492506020810190505b662386f26fc1000083106102f257662386f26fc1000083816102e8576102e761046d565b5b0492506010810190505b6305f5e100831061031b576305f5e10083816103115761031061046d565b5b0492506008810190505b61271083106103405761271083816103365761033561046d565b5b0492506004810190505b6064831061036357606483816103595761035861046d565b5b0492506002810190505b600a8310610372576001810190505b80915050919050565b5f80fd5b5f819050919050565b6103918161037f565b811461039b575f80fd5b50565b5f813590506103ac81610388565b92915050565b5f602082840312156103c7576103c661037b565b5b5f6103d48482850161039e565b91505092915050565b5f81519050919050565b5f82825260208201905092915050565b8281835e5f83830152505050565b5f601f19601f8301169050919050565b5f61041f826103dd565b61042981856103e7565b93506104398185602086016103f7565b61044281610405565b840191505092915050565b5f6020820190508181035f8301526104658184610415565b905092915050565b7f4e487b71000000000000000000000000000000000000000000000000000000005f52601260045260245ffd5b5f6104a48261037f565b91506104af8361037f565b9250826104bf576104be61046d565b5b828204905092915050565b5f6104d48261037f565b91506104df8361037f565b9250826104ef576104ee61046d565b5b828206905092915050565b5f81905092915050565b5f61050e826103dd565b61051881856104fa565b93506105288185602086016103f7565b80840191505092915050565b7f206d696e75746573200000000000000000000000000000000000000000000000815250565b7f207365636f6e6473000000000000000000000000000000000000000000000000815250565b5f61058b8285610504565b915061059682610534565b6009820191506105a68284610504565b91506105b18261055a565b6008820191508190509392505050565b5f6105cc8284610504565b91506105d78261055a565b60088201915081905092915050565b7f20686f7572732000000000000000000000000000000000000000000000000000815250565b5f6106178286610504565b9150610622826105e6565b6007820191506106328285610504565b915061063d82610534565b60098201915061064d8284610504565b91506106588261055a565b600882019150819050949350505050565b7f4e487b71000000000000000000000000000000000000000000000000000000005f52604160045260245ffdfea2646970667358221220918bb4884b9cc0207a84f16d007d7f1e22b5916ad5a8fda597168758c546cf3764736f6c634300081a0033",
			"opcodes": "PUSH1 0x80 PUSH1 0x40 MSTORE CALLVALUE DUP1 ISZERO PUSH1 0xE JUMPI PUSH0 DUP1 REVERT JUMPDEST POP PUSH2 0x6CC DUP1 PUSH2 0x1C PUSH0 CODECOPY PUSH0 RETURN INVALID PUSH1 0x80 PUSH1 0x40 MSTORE CALLVALUE DUP1 ISZERO PUSH2 0xF JUMPI PUSH0 DUP1 REVERT JUMPDEST POP PUSH1 0x4 CALLDATASIZE LT PUSH2 0x29 JUMPI PUSH0 CALLDATALOAD PUSH1 0xE0 SHR DUP1 PUSH4 0x5B2AECCD EQ PUSH2 0x2D JUMPI JUMPDEST PUSH0 DUP1 REVERT JUMPDEST PUSH2 0x47 PUSH1 0x4 DUP1 CALLDATASIZE SUB DUP2 ADD SWAP1 PUSH2 0x42 SWAP2 SWAP1 PUSH2 0x3B2 JUMP JUMPDEST PUSH2 0x5D JUMP JUMPDEST PUSH1 0x40 MLOAD PUSH2 0x54 SWAP2 SWAP1 PUSH2 0x44D JUMP JUMPDEST PUSH1 0x40 MLOAD DUP1 SWAP2 SUB SWAP1 RETURN JUMPDEST PUSH1 0x60 PUSH0 PUSH2 0xE10 DUP4 PUSH2 0x6E SWAP2 SWAP1 PUSH2 0x49A JUMP JUMPDEST SWAP1 POP PUSH0 PUSH1 0x3C PUSH2 0xE10 DUP6 PUSH2 0x81 SWAP2 SWAP1 PUSH2 0x4CA JUMP JUMPDEST PUSH2 0x8B SWAP2 SWAP1 PUSH2 0x49A JUMP JUMPDEST SWAP1 POP PUSH0 PUSH1 0x3C DUP6 PUSH2 0x9B SWAP2 SWAP1 PUSH2 0x4CA JUMP JUMPDEST SWAP1 POP PUSH0 DUP4 SUB PUSH2 0xE0 JUMPI PUSH2 0xAD DUP3 PUSH2 0x160 JUMP JUMPDEST PUSH2 0xB6 DUP3 PUSH2 0x160 JUMP JUMPDEST PUSH1 0x40 MLOAD PUSH1 0x20 ADD PUSH2 0xC7 SWAP3 SWAP2 SWAP1 PUSH2 0x580 JUMP JUMPDEST PUSH1 0x40 MLOAD PUSH1 0x20 DUP2 DUP4 SUB SUB DUP2 MSTORE SWAP1 PUSH1 0x40 MSTORE SWAP4 POP POP POP POP PUSH2 0x15B JUMP JUMPDEST PUSH0 DUP3 SUB PUSH2 0x119 JUMPI PUSH2 0xF0 DUP2 PUSH2 0x160 JUMP JUMPDEST PUSH1 0x40 MLOAD PUSH1 0x20 ADD PUSH2 0x100 SWAP2 SWAP1 PUSH2 0x5C1 JUMP JUMPDEST PUSH1 0x40 MLOAD PUSH1 0x20 DUP2 DUP4 SUB SUB DUP2 MSTORE SWAP1 PUSH1 0x40 MSTORE SWAP4 POP POP POP POP PUSH2 0x15B JUMP JUMPDEST PUSH2 0x122 DUP4 PUSH2 0x160 JUMP JUMPDEST PUSH2 0x12B DUP4 PUSH2 0x160 JUMP JUMPDEST PUSH2 0x134 DUP4 PUSH2 0x160 JUMP JUMPDEST PUSH1 0x40 MLOAD PUSH1 0x20 ADD PUSH2 0x146 SWAP4 SWAP3 SWAP2 SWAP1 PUSH2 0x60C JUMP JUMPDEST PUSH1 0x40 MLOAD PUSH1 0x20 DUP2 DUP4 SUB SUB DUP2 MSTORE SWAP1 PUSH1 0x40 MSTORE SWAP4 POP POP POP POP JUMPDEST SWAP2 SWAP1 POP JUMP JUMPDEST PUSH1 0x60 PUSH0 PUSH1 0x1 PUSH2 0x16E DUP5 PUSH2 0x22A JUMP JUMPDEST ADD SWAP1 POP PUSH0 DUP2 PUSH8 0xFFFFFFFFFFFFFFFF DUP2 GT ISZERO PUSH2 0x18C JUMPI PUSH2 0x18B PUSH2 0x669 JUMP JUMPDEST JUMPDEST PUSH1 0x40 MLOAD SWAP1 DUP1 DUP3 MSTORE DUP1 PUSH1 0x1F ADD PUSH1 0x1F NOT AND PUSH1 0x20 ADD DUP3 ADD PUSH1 0x40 MSTORE DUP1 ISZERO PUSH2 0x1BE JUMPI DUP2 PUSH1 0x20 ADD PUSH1 0x1 DUP3 MUL DUP1 CALLDATASIZE DUP4 CALLDATACOPY DUP1 DUP3 ADD SWAP2 POP POP SWAP1 POP JUMPDEST POP SWAP1 POP PUSH0 DUP3 PUSH1 0x20 ADD DUP3 ADD SWAP1 POP JUMPDEST PUSH1 0x1 ISZERO PUSH2 0x21F JUMPI DUP1 DUP1 PUSH1 0x1 SWAP1 SUB SWAP2 POP POP PUSH32 0x3031323334353637383961626364656600000000000000000000000000000000 PUSH1 0xA DUP7 MOD BYTE DUP2 MSTORE8 PUSH1 0xA DUP6 DUP2 PUSH2 0x214 JUMPI PUSH2 0x213 PUSH2 0x46D JUMP JUMPDEST JUMPDEST DIV SWAP5 POP PUSH0 DUP6 SUB PUSH2 0x1CB JUMPI JUMPDEST DUP2 SWAP4 POP POP POP POP SWAP2 SWAP1 POP JUMP JUMPDEST PUSH0 DUP1 PUSH0 SWAP1 POP PUSH27 0x184F03E93FF9F4DAA797ED6E38ED64BF6A1F010000000000000000 DUP4 LT PUSH2 0x286 JUMPI PUSH27 0x184F03E93FF9F4DAA797ED6E38ED64BF6A1F010000000000000000 DUP4 DUP2 PUSH2 0x27C JUMPI PUSH2 0x27B PUSH2 0x46D JUMP JUMPDEST JUMPDEST DIV SWAP3 POP PUSH1 0x40 DUP2 ADD SWAP1 POP JUMPDEST PUSH14 0x4EE2D6D415B85ACEF8100000000 DUP4 LT PUSH2 0x2C3 JUMPI PUSH14 0x4EE2D6D415B85ACEF8100000000 DUP4 DUP2 PUSH2 0x2B9 JUMPI PUSH2 0x2B8 PUSH2 0x46D JUMP JUMPDEST JUMPDEST DIV SWAP3 POP PUSH1 0x20 DUP2 ADD SWAP1 POP JUMPDEST PUSH7 0x2386F26FC10000 DUP4 LT PUSH2 0x2F2 JUMPI PUSH7 0x2386F26FC10000 DUP4 DUP2 PUSH2 0x2E8 JUMPI PUSH2 0x2E7 PUSH2 0x46D JUMP JUMPDEST JUMPDEST DIV SWAP3 POP PUSH1 0x10 DUP2 ADD SWAP1 POP JUMPDEST PUSH4 0x5F5E100 DUP4 LT PUSH2 0x31B JUMPI PUSH4 0x5F5E100 DUP4 DUP2 PUSH2 0x311 JUMPI PUSH2 0x310 PUSH2 0x46D JUMP JUMPDEST JUMPDEST DIV SWAP3 POP PUSH1 0x8 DUP2 ADD SWAP1 POP JUMPDEST PUSH2 0x2710 DUP4 LT PUSH2 0x340 JUMPI PUSH2 0x2710 DUP4 DUP2 PUSH2 0x336 JUMPI PUSH2 0x335 PUSH2 0x46D JUMP JUMPDEST JUMPDEST DIV SWAP3 POP PUSH1 0x4 DUP2 ADD SWAP1 POP JUMPDEST PUSH1 0x64 DUP4 LT PUSH2 0x363 JUMPI PUSH1 0x64 DUP4 DUP2 PUSH2 0x359 JUMPI PUSH2 0x358 PUSH2 0x46D JUMP JUMPDEST JUMPDEST DIV SWAP3 POP PUSH1 0x2 DUP2 ADD SWAP1 POP JUMPDEST PUSH1 0xA DUP4 LT PUSH2 0x372 JUMPI PUSH1 0x1 DUP2 ADD SWAP1 POP JUMPDEST DUP1 SWAP2 POP POP SWAP2 SWAP1 POP JUMP JUMPDEST PUSH0 DUP1 REVERT JUMPDEST PUSH0 DUP2 SWAP1 POP SWAP2 SWAP1 POP JUMP JUMPDEST PUSH2 0x391 DUP2 PUSH2 0x37F JUMP JUMPDEST DUP2 EQ PUSH2 0x39B JUMPI PUSH0 DUP1 REVERT JUMPDEST POP JUMP JUMPDEST PUSH0 DUP2 CALLDATALOAD SWAP1 POP PUSH2 0x3AC DUP2 PUSH2 0x388 JUMP JUMPDEST SWAP3 SWAP2 POP POP JUMP JUMPDEST PUSH0 PUSH1 0x20 DUP3 DUP5 SUB SLT ISZERO PUSH2 0x3C7 JUMPI PUSH2 0x3C6 PUSH2 0x37B JUMP JUMPDEST JUMPDEST PUSH0 PUSH2 0x3D4 DUP5 DUP3 DUP6 ADD PUSH2 0x39E JUMP JUMPDEST SWAP2 POP POP SWAP3 SWAP2 POP POP JUMP JUMPDEST PUSH0 DUP2 MLOAD SWAP1 POP SWAP2 SWAP1 POP JUMP JUMPDEST PUSH0 DUP3 DUP3 MSTORE PUSH1 0x20 DUP3 ADD SWAP1 POP SWAP3 SWAP2 POP POP JUMP JUMPDEST DUP3 DUP2 DUP4 MCOPY PUSH0 DUP4 DUP4 ADD MSTORE POP POP POP JUMP JUMPDEST PUSH0 PUSH1 0x1F NOT PUSH1 0x1F DUP4 ADD AND SWAP1 POP SWAP2 SWAP1 POP JUMP JUMPDEST PUSH0 PUSH2 0x41F DUP3 PUSH2 0x3DD JUMP JUMPDEST PUSH2 0x429 DUP2 DUP6 PUSH2 0x3E7 JUMP JUMPDEST SWAP4 POP PUSH2 0x439 DUP2 DUP6 PUSH1 0x20 DUP7 ADD PUSH2 0x3F7 JUMP JUMPDEST PUSH2 0x442 DUP2 PUSH2 0x405 JUMP JUMPDEST DUP5 ADD SWAP2 POP POP SWAP3 SWAP2 POP POP JUMP JUMPDEST PUSH0 PUSH1 0x20 DUP3 ADD SWAP1 POP DUP2 DUP2 SUB PUSH0 DUP4 ADD MSTORE PUSH2 0x465 DUP2 DUP5 PUSH2 0x415 JUMP JUMPDEST SWAP1 POP SWAP3 SWAP2 POP POP JUMP JUMPDEST PUSH32 0x4E487B7100000000000000000000000000000000000000000000000000000000 PUSH0 MSTORE PUSH1 0x12 PUSH1 0x4 MSTORE PUSH1 0x24 PUSH0 REVERT JUMPDEST PUSH0 PUSH2 0x4A4 DUP3 PUSH2 0x37F JUMP JUMPDEST SWAP2 POP PUSH2 0x4AF DUP4 PUSH2 0x37F JUMP JUMPDEST SWAP3 POP DUP3 PUSH2 0x4BF JUMPI PUSH2 0x4BE PUSH2 0x46D JUMP JUMPDEST JUMPDEST DUP3 DUP3 DIV SWAP1 POP SWAP3 SWAP2 POP POP JUMP JUMPDEST PUSH0 PUSH2 0x4D4 DUP3 PUSH2 0x37F JUMP JUMPDEST SWAP2 POP PUSH2 0x4DF DUP4 PUSH2 0x37F JUMP JUMPDEST SWAP3 POP DUP3 PUSH2 0x4EF JUMPI PUSH2 0x4EE PUSH2 0x46D JUMP JUMPDEST JUMPDEST DUP3 DUP3 MOD SWAP1 POP SWAP3 SWAP2 POP POP JUMP JUMPDEST PUSH0 DUP2 SWAP1 POP SWAP3 SWAP2 POP POP JUMP JUMPDEST PUSH0 PUSH2 0x50E DUP3 PUSH2 0x3DD JUMP JUMPDEST PUSH2 0x518 DUP2 DUP6 PUSH2 0x4FA JUMP JUMPDEST SWAP4 POP PUSH2 0x528 DUP2 DUP6 PUSH1 0x20 DUP7 ADD PUSH2 0x3F7 JUMP JUMPDEST DUP1 DUP5 ADD SWAP2 POP POP SWAP3 SWAP2 POP POP JUMP JUMPDEST PUSH32 0x206D696E75746573200000000000000000000000000000000000000000000000 DUP2 MSTORE POP JUMP JUMPDEST PUSH32 0x207365636F6E6473000000000000000000000000000000000000000000000000 DUP2 MSTORE POP JUMP JUMPDEST PUSH0 PUSH2 0x58B DUP3 DUP6 PUSH2 0x504 JUMP JUMPDEST SWAP2 POP PUSH2 0x596 DUP3 PUSH2 0x534 JUMP JUMPDEST PUSH1 0x9 DUP3 ADD SWAP2 POP PUSH2 0x5A6 DUP3 DUP5 PUSH2 0x504 JUMP JUMPDEST SWAP2 POP PUSH2 0x5B1 DUP3 PUSH2 0x55A JUMP JUMPDEST PUSH1 0x8 DUP3 ADD SWAP2 POP DUP2 SWAP1 POP SWAP4 SWAP3 POP POP POP JUMP JUMPDEST PUSH0 PUSH2 0x5CC DUP3 DUP5 PUSH2 0x504 JUMP JUMPDEST SWAP2 POP PUSH2 0x5D7 DUP3 PUSH2 0x55A JUMP JUMPDEST PUSH1 0x8 DUP3 ADD SWAP2 POP DUP2 SWAP1 POP SWAP3 SWAP2 POP POP JUMP JUMPDEST PUSH32 0x20686F7572732000000000000000000000000000000000000000000000000000 DUP2 MSTORE POP JUMP JUMPDEST PUSH0 PUSH2 0x617 DUP3 DUP7 PUSH2 0x504 JUMP JUMPDEST SWAP2 POP PUSH2 0x622 DUP3 PUSH2 0x5E6 JUMP JUMPDEST PUSH1 0x7 DUP3 ADD SWAP2 POP PUSH2 0x632 DUP3 DUP6 PUSH2 0x504 JUMP JUMPDEST SWAP2 POP PUSH2 0x63D DUP3 PUSH2 0x534 JUMP JUMPDEST PUSH1 0x9 DUP3 ADD SWAP2 POP PUSH2 0x64D DUP3 DUP5 PUSH2 0x504 JUMP JUMPDEST SWAP2 POP PUSH2 0x658 DUP3 PUSH2 0x55A JUMP JUMPDEST PUSH1 0x8 DUP3 ADD SWAP2 POP DUP2 SWAP1 POP SWAP5 SWAP4 POP POP POP POP JUMP JUMPDEST PUSH32 0x4E487B7100000000000000000000000000000000000000000000000000000000 PUSH0 MSTORE PUSH1 0x41 PUSH1 0x4 MSTORE PUSH1 0x24 PUSH0 REVERT INVALID LOG2 PUSH5 0x6970667358 0x22 SLT KECCAK256 SWAP2 DUP12 0xB4 DUP9 0x4B SWAP13 0xC0 KECCAK256 PUSH27 0x84F16D007D7F1E22B5916AD5A8FDA597168758C546CF3764736F6C PUSH4 0x4300081A STOP CALLER "
		},
		"gasEstimates": {
			"creation": {
				"codeDepositCost": "348000",
				"executionCost": "384",
				"totalCost": "348384"
			},
			"external": {
				"uintToTime(uint256)": "infinite"
			}
		},
		"methodIdentifiers": {
			"uintToTime(uint256)": "5b2aeccd"
		}
	},
	"abi": [
		{
			"inputs": [
				{
					"internalType": "uint256",
					"name": "number",
					"type": "uint256"
				}
			],
			"name": "uintToTime",
			"outputs": [
				{
					"internalType": "string",
					"name": "",
					"type": "string"
				}
			],
			"stateMutability": "pure",
			"type": "function"
		}
	]
}